Archive member included to satisfy reference by file (symbol)

./build/\libLPCCore.a(startup_LPC17xx.o)
                              (Reset_Handler)
./build/\libLPCCore.a(main.o)
                              ./build/./RepRapFirmware/src/libc/nano-mallocr.o (_sbrk)
./build/\libLPCCore.a(variant.o)
                              ./build/\libLPCCore.a(main.o) (init())
./build/\libLPCCore.a(heap_5.o)
                              ./build/./CoreN2G/src/LPC/new.o (pvPortMalloc)
./build/\libLPCCore.a(systick.o)
                              ./build/\libLPCCore.a(main.o) (SysTick_Init)
./build/\libLPCCore.a(system_LPC17xx.o)
                              ./build/\libLPCCore.a(main.o) (SystemInit)
./build/\libLPCCore.a(tasks.o)
                              ./build/\libLPCCore.a(heap_5.o) (vTaskSuspendAll)
./build/\libLPCCore.a(port.o)
                              ./build/\libLPCCore.a(tasks.o) (pxPortInitialiseStack)
./build/\libLPCCore.a(clock_17xx_40xx.o)
                              ./build/\libLPCCore.a(system_LPC17xx.o) (Chip_Clock_EnablePLL)
./build/\libLPCCore.a(iap.o)  ./build/\libLPCCore.a(system_LPC17xx.o) (Chip_IAP_ReadPID)
./build/\libLPCCore.a(list.o)
                              ./build/\libLPCCore.a(tasks.o) (vListInitialise)
c:/program files (x86)/gnu arm embedded toolchain/10 2020-q4-major/bin/../lib/gcc/arm-none-eabi/10.2.1/../../../../arm-none-eabi/lib/thumb/v7-m/nofp\libsupc++.a(atexit_arm.o)
                              ./build/./RepRapFirmware/src/RepRapFirmware.o (__aeabi_atexit)
c:/program files (x86)/gnu arm embedded toolchain/10 2020-q4-major/bin/../lib/gcc/arm-none-eabi/10.2.1/../../../../arm-none-eabi/lib/thumb/v7-m/nofp\libsupc++.a(class_type_info.o)
                              ./build/./RepRapFirmware/src/GCodes/GCodes.o (vtable for __cxxabiv1::__class_type_info)
c:/program files (x86)/gnu arm embedded toolchain/10 2020-q4-major/bin/../lib/gcc/arm-none-eabi/10.2.1/../../../../arm-none-eabi/lib/thumb/v7-m/nofp\libsupc++.a(eh_arm.o)
                              ./build/./RepRapFirmware/src/FilamentMonitors/FilamentMonitor.o (__cxa_end_cleanup)
c:/program files (x86)/gnu arm embedded toolchain/10 2020-q4-major/bin/../lib/gcc/arm-none-eabi/10.2.1/../../../../arm-none-eabi/lib/thumb/v7-m/nofp\libsupc++.a(eh_catch.o)
                              ./build/./RepRapFirmware/src/FilamentMonitors/FilamentMonitor.o (__cxa_begin_catch)
c:/program files (x86)/gnu arm embedded toolchain/10 2020-q4-major/bin/../lib/gcc/arm-none-eabi/10.2.1/../../../../arm-none-eabi/lib/thumb/v7-m/nofp\libsupc++.a(eh_exception.o)
                              c:/program files (x86)/gnu arm embedded toolchain/10 2020-q4-major/bin/../lib/gcc/arm-none-eabi/10.2.1/../../../../arm-none-eabi/lib/thumb/v7-m/nofp\libsupc++.a(eh_arm.o) (typeinfo for __cxxabiv1::__forced_unwind)
c:/program files (x86)/gnu arm embedded toolchain/10 2020-q4-major/bin/../lib/gcc/arm-none-eabi/10.2.1/../../../../arm-none-eabi/lib/thumb/v7-m/nofp\libsupc++.a(eh_globals.o)
                              c:/program files (x86)/gnu arm embedded toolchain/10 2020-q4-major/bin/../lib/gcc/arm-none-eabi/10.2.1/../../../../arm-none-eabi/lib/thumb/v7-m/nofp\libsupc++.a(eh_catch.o) (__cxa_get_globals_fast)
c:/program files (x86)/gnu arm embedded toolchain/10 2020-q4-major/bin/../lib/gcc/arm-none-eabi/10.2.1/../../../../arm-none-eabi/lib/thumb/v7-m/nofp\libsupc++.a(eh_personality.o)
                              ./build/./RepRapFirmware/src/FilamentMonitors/FilamentMonitor.o (__gxx_personality_v0)
c:/program files (x86)/gnu arm embedded toolchain/10 2020-q4-major/bin/../lib/gcc/arm-none-eabi/10.2.1/../../../../arm-none-eabi/lib/thumb/v7-m/nofp\libsupc++.a(eh_terminate.o)
                              ./build/./RepRapFirmware/src/libcpp/eh_alloc.o (std::terminate())
c:/program files (x86)/gnu arm embedded toolchain/10 2020-q4-major/bin/../lib/gcc/arm-none-eabi/10.2.1/../../../../arm-none-eabi/lib/thumb/v7-m/nofp\libsupc++.a(eh_throw.o)
                              ./build/./RepRapFirmware/src/GCodes/GCodes.o (__cxa_throw)
c:/program files (x86)/gnu arm embedded toolchain/10 2020-q4-major/bin/../lib/gcc/arm-none-eabi/10.2.1/../../../../arm-none-eabi/lib/thumb/v7-m/nofp\libsupc++.a(eh_unex_handler.o)
                              c:/program files (x86)/gnu arm embedded toolchain/10 2020-q4-major/bin/../lib/gcc/arm-none-eabi/10.2.1/../../../../arm-none-eabi/lib/thumb/v7-m/nofp\libsupc++.a(eh_terminate.o) (__cxxabiv1::__unexpected_handler)
c:/program files (x86)/gnu arm embedded toolchain/10 2020-q4-major/bin/../lib/gcc/arm-none-eabi/10.2.1/../../../../arm-none-eabi/lib/thumb/v7-m/nofp\libsupc++.a(si_class_type_info.o)
                              c:/program files (x86)/gnu arm embedded toolchain/10 2020-q4-major/bin/../lib/gcc/arm-none-eabi/10.2.1/../../../../arm-none-eabi/lib/thumb/v7-m/nofp\libsupc++.a(class_type_info.o) (vtable for __cxxabiv1::__si_class_type_info)
c:/program files (x86)/gnu arm embedded toolchain/10 2020-q4-major/bin/../lib/gcc/arm-none-eabi/10.2.1/../../../../arm-none-eabi/lib/thumb/v7-m/nofp\libsupc++.a(tinfo.o)
                              c:/program files (x86)/gnu arm embedded toolchain/10 2020-q4-major/bin/../lib/gcc/arm-none-eabi/10.2.1/../../../../arm-none-eabi/lib/thumb/v7-m/nofp\libsupc++.a(class_type_info.o) (std::type_info::~type_info())
c:/program files (x86)/gnu arm embedded toolchain/10 2020-q4-major/bin/../lib/gcc/arm-none-eabi/10.2.1/../../../../arm-none-eabi/lib/thumb/v7-m/nofp\libsupc++.a(eh_call.o)
                              c:/program files (x86)/gnu arm embedded toolchain/10 2020-q4-major/bin/../lib/gcc/arm-none-eabi/10.2.1/../../../../arm-none-eabi/lib/thumb/v7-m/nofp\libsupc++.a(eh_personality.o) (__cxa_call_terminate)
./build/\libRRFLibraries.a(IP4String.o)
                              ./build/./RepRapFirmware/src/ObjectModel/ObjectModel.o (IP4String::IP4String(unsigned long))
./build/\libRRFLibraries.a(IPAddress.o)
                              ./build/./RepRapFirmware/src/GCodes/GCodeBuffer/BinaryParser.o (IPAddress::SetV4(unsigned char const*))
./build/\libRRFLibraries.a(NamedEnum.o)
                              ./build/./RepRapFirmware/src/GCodes/GCodeBuffer/ExpressionParser.o (NamedEnumLookup(char const*, char const* const*, unsigned int))
./build/\libRRFLibraries.a(NumericConverter.o)
                              ./build/./RepRapFirmware/src/GCodes/GCodeBuffer/ExpressionParser.o (NumericConverter::FitsInInt32() const)
./build/\libRRFLibraries.a(SafeStrtod.o)
                              ./build/./RepRapFirmware/src/GCodes/GCodes3.o (SafeStrtof(char const*, char const**))
./build/\libRRFLibraries.a(SafeVsnprintf.o)
                              ./build/./RepRapFirmware/src/Platform/OutputMemory.o (vuprintf(function_ref<bool (char)>, char const*, std::__va_list))
./build/\libRRFLibraries.a(StringFunctions.o)
                              ./build/./RepRapFirmware/src/GCodes/GCodes.o (StringEqualsIgnoreCase(char const*, char const*))
./build/\libRRFLibraries.a(StringRef.o)
                              ./build/./RepRapFirmware/src/GCodes/GCodes.o (StringRef::strlen() const)
./build/\libRRFLibraries.a(Strnlen.o)
                              ./build/./RepRapFirmware/src/Heating/Sensors/ThermocoupleSensor31856.o (Strnlen(char const*, unsigned int))
./build/\libRRFLibraries.a(Deviation.o)
                              ./build/./RepRapFirmware/src/GCodes/GCodes4.o (Deviation::Deviation())
./build/\libRRFLibraries.a(DeviationAccumulator.o)
                              ./build/./RepRapFirmware/src/Heating/Heater.o (DeviationAccumulator::DeviationAccumulator())
./build/\libRRFLibraries.a(Isqrt.o)
                              ./build/./RepRapFirmware/src/Movement/DriveMovement.o (isqrt64(unsigned long long))
./build/\libRRFLibraries.a(RTOSIface.o)
                              ./build/./RepRapFirmware/src/GCodes/GCodeInput.o (Mutex::Create(char const*))
./build/\libLPCCore.a(gpdma_17xx_40xx.o)
                              ./build/./RepRapFirmware/src/targets/LPC/Movement/StepperDrivers/TMCSoftUART.o (Chip_GPDMA_ChannelCmd)
./build/\libLPCCore.a(gpio.o)
                              ./build/./RepRapFirmware/src/Movement/DDA.o (GPIO_PinWrite)
./build/\libLPCCore.a(timer.o)
                              ./build/./RepRapFirmware/src/Movement/StepTimer.o (getPclk)
./build/\libLPCCore.a(CoreIO.o)
                              ./build/./RepRapFirmware/src/Platform/Platform.o (pinMode)
./build/\libLPCCore.a(AnalogIn.o)
                              ./build/./RepRapFirmware/src/targets/LPC/BoardConfig.o (ConfigureADCPreFilter(bool))
./build/\libLPCCore.a(AnalogOut.o)
                              ./build/./RepRapFirmware/src/targets/LPC/Hardware/Devices.o (AnalogOut::Init())
./build/\libLPCCore.a(AnalogOutServo.o)
                              ./build/./RepRapFirmware/src/Hardware/IoPorts.o (IsServoCapable(gpioPins_et))
./build/\libLPCCore.a(AnalogOutSoftwarePWM.o)
                              ./build/\libLPCCore.a(AnalogOut.o) (CanDoSoftwarePWM(gpioPins_et))
./build/\libLPCCore.a(DMA.o)  ./build/./RepRapFirmware/src/targets/LPC/Movement/StepperDrivers/TMCSoftUART.o (InitialiseDMA())
./build/\libLPCCore.a(HardwareSPI.o)
                              ./build/./RepRapFirmware/src/Linux/DataTransfer.o (HardwareSPI::disable())
./build/\libLPCCore.a(SPI.o)  ./build/./RepRapFirmware/src/Hardware/SharedSpi/SharedSpiDevice.o (SPI::getSSPDevice(SSPChannel))
./build/\libLPCCore.a(SoftwarePWM.o)
                              ./build/\libLPCCore.a(AnalogOutSoftwarePWM.o) (SoftwarePWM::SoftwarePWM(gpioPins_et))
./build/\libLPCCore.a(SoftwarePWMTimer.o)
                              ./build/\libLPCCore.a(SoftwarePWM.o) (SoftwarePWMTimer::disable(int))
./build/\libLPCCore.a(ConfigurableUART.o)
                              ./build/./RepRapFirmware/src/GCodes/GCodes.o (ConfigurableUART::read())
./build/\libLPCCore.a(exti.o)
                              ./build/./RepRapFirmware/src/Hardware/IoPorts.o (attachInterrupt(gpioPins_et, void (*)(CallbackParameter) noexcept, InterruptMode, CallbackParameter))
./build/\libLPCCore.a(HardwareSerial.o)
                              ./build/\libLPCCore.a(ConfigurableUART.o) (HardwareSerial::begin(unsigned long))
./build/\libLPCCore.a(SerialUSB.o)
                              ./build/./RepRapFirmware/src/Platform/Platform.o (SerialUSB::write(unsigned char))
./build/\libLPCCore.a(usart.o)
                              ./build/\libLPCCore.a(HardwareSerial.o) (usart_init)
./build/\libLPCCore.a(USBCDC.o)
                              ./build/\libLPCCore.a(SerialUSB.o) (USBCDC::send_nb(unsigned char*, unsigned long, unsigned long*, bool))
./build/\libLPCCore.a(USBSerial.o)
                              ./build/\libLPCCore.a(SerialUSB.o) (USBSerial::USBSerial(bool, unsigned short, unsigned short, unsigned short))
./build/\libLPCCore.a(Wire.o)
                              ./build/./RepRapFirmware/src/targets/LPC/MCP4461/MCP4461.o (TwoWire::begin(unsigned char))
./build/\libLPCCore.a(WireBase.o)
                              ./build/./RepRapFirmware/src/targets/LPC/MCP4461/MCP4461.o (WireBase::beginTransmission(unsigned char))
./build/\libLPCCore.a(queue.o)
                              ./build/\libRRFLibraries.a(RTOSIface.o) (xQueueGenericCreateStatic)
./build/\libLPCCore.a(adc_17xx_40xx.o)
                              ./build/\libLPCCore.a(AnalogIn.o) (Chip_ADC_Init)
./build/\libLPCCore.a(iocon_17xx_40xx.o)
                              ./build/\libLPCCore.a(HardwareSPI.o) (Chip_IOCON_PinMux)
./build/\libLPCCore.a(ring_buffer.o)
                              ./build/\libLPCCore.a(HardwareSerial.o) (RingBuffer_Init)
./build/\libLPCCore.a(ssp_17xx_40xx.o)
                              ./build/\libLPCCore.a(HardwareSPI.o) (Chip_SSP_SetBitRate)
./build/\libLPCCore.a(uart_17xx_40xx.o)
                              ./build/\libLPCCore.a(usart.o) (Chip_UART_TXEnable)
./build/\libLPCCore.a(Stream.o)
                              ./build/\libLPCCore.a(ConfigurableUART.o) (Stream::readBytes(char*, unsigned int))
./build/\libLPCCore.a(ADCPreFilter.o)
                              ./build/\libLPCCore.a(AnalogIn.o) (ADCPreFilter::UpdateChannels(unsigned char))
./build/\libLPCCore.a(SoftwareSPI.o)
                              ./build/\libLPCCore.a(SPI.o) (SoftwareSPI::SWSSP0)
./build/\libLPCCore.a(USBHAL_LPC17.o)
                              ./build/\libLPCCore.a(USBCDC.o) (get_usb_phy())
./build/\libLPCCore.a(EndpointResolver.o)
                              ./build/\libLPCCore.a(USBCDC.o) (EndpointResolver::EndpointResolver(usb_ep_table_t const*))
./build/\libLPCCore.a(USBDevice.o)
                              ./build/\libLPCCore.a(USBCDC.o) (USBDevice::out_packet(unsigned char))
./build/\libLPCCore.a(mbed_critical.o)
                              ./build/\libLPCCore.a(USBDevice.o) (core_util_critical_section_enter)
./build/\libLPCCore.a(Print.o)
                              ./build/\libLPCCore.a(Stream.o) (Print::write(unsigned char const*, unsigned int))
./build/\libLPCCore.a(wirish_time.o)
                              ./build/\libLPCCore.a(USBHAL_LPC17.o) (coreDelay)
./build/\libLPCCore.a(delay.o)
                              ./build/\libLPCCore.a(wirish_time.o) (delay_us)
c:/program files (x86)/gnu arm embedded toolchain/10 2020-q4-major/bin/../lib/gcc/arm-none-eabi/10.2.1/../../../../arm-none-eabi/lib/thumb/v7-m/nofp\libm.a(lib_a-s_floor.o)
                              ./build/./RepRapFirmware/src/GCodes/GCodes.o (floor)
c:/program files (x86)/gnu arm embedded toolchain/10 2020-q4-major/bin/../lib/gcc/arm-none-eabi/10.2.1/../../../../arm-none-eabi/lib/thumb/v7-m/nofp\libm.a(lib_a-s_llrint.o)
                              ./build/\libRRFLibraries.a(SafeVsnprintf.o) (llrint)
c:/program files (x86)/gnu arm embedded toolchain/10 2020-q4-major/bin/../lib/gcc/arm-none-eabi/10.2.1/../../../../arm-none-eabi/lib/thumb/v7-m/nofp\libm.a(lib_a-s_round.o)
                              ./build/./RepRapFirmware/src/Platform/RepRap.o (round)
c:/program files (x86)/gnu arm embedded toolchain/10 2020-q4-major/bin/../lib/gcc/arm-none-eabi/10.2.1/../../../../arm-none-eabi/lib/thumb/v7-m/nofp\libm.a(lib_a-sf_atan.o)
                              ./build/./RepRapFirmware/src/GCodes/GCodes2.o (atanf)
c:/program files (x86)/gnu arm embedded toolchain/10 2020-q4-major/bin/../lib/gcc/arm-none-eabi/10.2.1/../../../../arm-none-eabi/lib/thumb/v7-m/nofp\libm.a(lib_a-sf_cos.o)
                              ./build/./RepRapFirmware/src/GCodes/GCodes.o (cosf)
c:/program files (x86)/gnu arm embedded toolchain/10 2020-q4-major/bin/../lib/gcc/arm-none-eabi/10.2.1/../../../../arm-none-eabi/lib/thumb/v7-m/nofp\libm.a(lib_a-sf_fabs.o)
                              c:/program files (x86)/gnu arm embedded toolchain/10 2020-q4-major/bin/../lib/gcc/arm-none-eabi/10.2.1/../../../../arm-none-eabi/lib/thumb/v7-m/nofp\libm.a(lib_a-sf_atan.o) (fabsf)
c:/program files (x86)/gnu arm embedded toolchain/10 2020-q4-major/bin/../lib/gcc/arm-none-eabi/10.2.1/../../../../arm-none-eabi/lib/thumb/v7-m/nofp\libm.a(lib_a-sf_floor.o)
                              ./build/./RepRapFirmware/src/GCodes/GCodes3.o (floorf)
c:/program files (x86)/gnu arm embedded toolchain/10 2020-q4-major/bin/../lib/gcc/arm-none-eabi/10.2.1/../../../../arm-none-eabi/lib/thumb/v7-m/nofp\libm.a(lib_a-sf_lrint.o)
                              ./build/./RepRapFirmware/src/FilamentMonitors/LaserFilamentMonitor.o (lrintf)
c:/program files (x86)/gnu arm embedded toolchain/10 2020-q4-major/bin/../lib/gcc/arm-none-eabi/10.2.1/../../../../arm-none-eabi/lib/thumb/v7-m/nofp\libm.a(lib_a-sf_sin.o)
                              ./build/./RepRapFirmware/src/GCodes/GCodes.o (sinf)
c:/program files (x86)/gnu arm embedded toolchain/10 2020-q4-major/bin/../lib/gcc/arm-none-eabi/10.2.1/../../../../arm-none-eabi/lib/thumb/v7-m/nofp\libm.a(lib_a-sf_tan.o)
                              ./build/./RepRapFirmware/src/GCodes/GCodeBuffer/ExpressionParser.o (tanf)
c:/program files (x86)/gnu arm embedded toolchain/10 2020-q4-major/bin/../lib/gcc/arm-none-eabi/10.2.1/../../../../arm-none-eabi/lib/thumb/v7-m/nofp\libm.a(lib_a-w_atan2.o)
                              ./build/./RepRapFirmware/src/GCodes/GCodes.o (atan2)
c:/program files (x86)/gnu arm embedded toolchain/10 2020-q4-major/bin/../lib/gcc/arm-none-eabi/10.2.1/../../../../arm-none-eabi/lib/thumb/v7-m/nofp\libm.a(lib_a-w_fmod.o)
                              ./build/./RepRapFirmware/src/GCodes/GCodeBuffer/ExpressionParser.o (fmod)
c:/program files (x86)/gnu arm embedded toolchain/10 2020-q4-major/bin/../lib/gcc/arm-none-eabi/10.2.1/../../../../arm-none-eabi/lib/thumb/v7-m/nofp\libm.a(lib_a-w_pow.o)
                              ./build/\libRRFLibraries.a(NumericConverter.o) (pow)
c:/program files (x86)/gnu arm embedded toolchain/10 2020-q4-major/bin/../lib/gcc/arm-none-eabi/10.2.1/../../../../arm-none-eabi/lib/thumb/v7-m/nofp\libm.a(lib_a-wf_acos.o)
                              ./build/./RepRapFirmware/src/GCodes/GCodeBuffer/ExpressionParser.o (acosf)
c:/program files (x86)/gnu arm embedded toolchain/10 2020-q4-major/bin/../lib/gcc/arm-none-eabi/10.2.1/../../../../arm-none-eabi/lib/thumb/v7-m/nofp\libm.a(lib_a-wf_asin.o)
                              ./build/./RepRapFirmware/src/GCodes/GCodeBuffer/ExpressionParser.o (asinf)
c:/program files (x86)/gnu arm embedded toolchain/10 2020-q4-major/bin/../lib/gcc/arm-none-eabi/10.2.1/../../../../arm-none-eabi/lib/thumb/v7-m/nofp\libm.a(lib_a-wf_atan2.o)
                              ./build/./RepRapFirmware/src/GCodes/GCodeBuffer/ExpressionParser.o (atan2f)
c:/program files (x86)/gnu arm embedded toolchain/10 2020-q4-major/bin/../lib/gcc/arm-none-eabi/10.2.1/../../../../arm-none-eabi/lib/thumb/v7-m/nofp\libm.a(lib_a-wf_log.o)
                              ./build/./RepRapFirmware/src/Heating/Sensors/Thermistor.o (logf)
c:/program files (x86)/gnu arm embedded toolchain/10 2020-q4-major/bin/../lib/gcc/arm-none-eabi/10.2.1/../../../../arm-none-eabi/lib/thumb/v7-m/nofp\libm.a(lib_a-wf_pow.o)
                              ./build/./RepRapFirmware/src/Heating/FOPDT.o (powf)
c:/program files (x86)/gnu arm embedded toolchain/10 2020-q4-major/bin/../lib/gcc/arm-none-eabi/10.2.1/../../../../arm-none-eabi/lib/thumb/v7-m/nofp\libm.a(lib_a-wf_sqrt.o)
                              ./build/./RepRapFirmware/src/GCodes/GCodes.o (sqrtf)
c:/program files (x86)/gnu arm embedded toolchain/10 2020-q4-major/bin/../lib/gcc/arm-none-eabi/10.2.1/../../../../arm-none-eabi/lib/thumb/v7-m/nofp\libm.a(lib_a-e_atan2.o)
                              c:/program files (x86)/gnu arm embedded toolchain/10 2020-q4-major/bin/../lib/gcc/arm-none-eabi/10.2.1/../../../../arm-none-eabi/lib/thumb/v7-m/nofp\libm.a(lib_a-w_atan2.o) (__ieee754_atan2)
c:/program files (x86)/gnu arm embedded toolchain/10 2020-q4-major/bin/../lib/gcc/arm-none-eabi/10.2.1/../../../../arm-none-eabi/lib/thumb/v7-m/nofp\libm.a(lib_a-e_fmod.o)
                              c:/program files (x86)/gnu arm embedded toolchain/10 2020-q4-major/bin/../lib/gcc/arm-none-eabi/10.2.1/../../../../arm-none-eabi/lib/thumb/v7-m/nofp\libm.a(lib_a-w_fmod.o) (__ieee754_fmod)
c:/program files (x86)/gnu arm embedded toolchain/10 2020-q4-major/bin/../lib/gcc/arm-none-eabi/10.2.1/../../../../arm-none-eabi/lib/thumb/v7-m/nofp\libm.a(lib_a-e_pow.o)
                              c:/program files (x86)/gnu arm embedded toolchain/10 2020-q4-major/bin/../lib/gcc/arm-none-eabi/10.2.1/../../../../arm-none-eabi/lib/thumb/v7-m/nofp\libm.a(lib_a-w_pow.o) (__ieee754_pow)
c:/program files (x86)/gnu arm embedded toolchain/10 2020-q4-major/bin/../lib/gcc/arm-none-eabi/10.2.1/../../../../arm-none-eabi/lib/thumb/v7-m/nofp\libm.a(lib_a-e_sqrt.o)
                              c:/program files (x86)/gnu arm embedded toolchain/10 2020-q4-major/bin/../lib/gcc/arm-none-eabi/10.2.1/../../../../arm-none-eabi/lib/thumb/v7-m/nofp\libm.a(lib_a-e_pow.o) (__ieee754_sqrt)
c:/program files (x86)/gnu arm embedded toolchain/10 2020-q4-major/bin/../lib/gcc/arm-none-eabi/10.2.1/../../../../arm-none-eabi/lib/thumb/v7-m/nofp\libm.a(lib_a-ef_acos.o)
                              c:/program files (x86)/gnu arm embedded toolchain/10 2020-q4-major/bin/../lib/gcc/arm-none-eabi/10.2.1/../../../../arm-none-eabi/lib/thumb/v7-m/nofp\libm.a(lib_a-wf_acos.o) (__ieee754_acosf)
c:/program files (x86)/gnu arm embedded toolchain/10 2020-q4-major/bin/../lib/gcc/arm-none-eabi/10.2.1/../../../../arm-none-eabi/lib/thumb/v7-m/nofp\libm.a(lib_a-ef_asin.o)
                              c:/program files (x86)/gnu arm embedded toolchain/10 2020-q4-major/bin/../lib/gcc/arm-none-eabi/10.2.1/../../../../arm-none-eabi/lib/thumb/v7-m/nofp\libm.a(lib_a-wf_asin.o) (__ieee754_asinf)
c:/program files (x86)/gnu arm embedded toolchain/10 2020-q4-major/bin/../lib/gcc/arm-none-eabi/10.2.1/../../../../arm-none-eabi/lib/thumb/v7-m/nofp\libm.a(lib_a-ef_atan2.o)
                              c:/program files (x86)/gnu arm embedded toolchain/10 2020-q4-major/bin/../lib/gcc/arm-none-eabi/10.2.1/../../../../arm-none-eabi/lib/thumb/v7-m/nofp\libm.a(lib_a-wf_atan2.o) (__ieee754_atan2f)
c:/program files (x86)/gnu arm embedded toolchain/10 2020-q4-major/bin/../lib/gcc/arm-none-eabi/10.2.1/../../../../arm-none-eabi/lib/thumb/v7-m/nofp\libm.a(lib_a-ef_log.o)
                              c:/program files (x86)/gnu arm embedded toolchain/10 2020-q4-major/bin/../lib/gcc/arm-none-eabi/10.2.1/../../../../arm-none-eabi/lib/thumb/v7-m/nofp\libm.a(lib_a-wf_log.o) (__ieee754_logf)
c:/program files (x86)/gnu arm embedded toolchain/10 2020-q4-major/bin/../lib/gcc/arm-none-eabi/10.2.1/../../../../arm-none-eabi/lib/thumb/v7-m/nofp\libm.a(lib_a-ef_pow.o)
                              c:/program files (x86)/gnu arm embedded toolchain/10 2020-q4-major/bin/../lib/gcc/arm-none-eabi/10.2.1/../../../../arm-none-eabi/lib/thumb/v7-m/nofp\libm.a(lib_a-wf_pow.o) (__ieee754_powf)
c:/program files (x86)/gnu arm embedded toolchain/10 2020-q4-major/bin/../lib/gcc/arm-none-eabi/10.2.1/../../../../arm-none-eabi/lib/thumb/v7-m/nofp\libm.a(lib_a-ef_rem_pio2.o)
                              c:/program files (x86)/gnu arm embedded toolchain/10 2020-q4-major/bin/../lib/gcc/arm-none-eabi/10.2.1/../../../../arm-none-eabi/lib/thumb/v7-m/nofp\libm.a(lib_a-sf_cos.o) (__ieee754_rem_pio2f)
c:/program files (x86)/gnu arm embedded toolchain/10 2020-q4-major/bin/../lib/gcc/arm-none-eabi/10.2.1/../../../../arm-none-eabi/lib/thumb/v7-m/nofp\libm.a(lib_a-ef_sqrt.o)
                              c:/program files (x86)/gnu arm embedded toolchain/10 2020-q4-major/bin/../lib/gcc/arm-none-eabi/10.2.1/../../../../arm-none-eabi/lib/thumb/v7-m/nofp\libm.a(lib_a-wf_sqrt.o) (__ieee754_sqrtf)
c:/program files (x86)/gnu arm embedded toolchain/10 2020-q4-major/bin/../lib/gcc/arm-none-eabi/10.2.1/../../../../arm-none-eabi/lib/thumb/v7-m/nofp\libm.a(lib_a-kf_cos.o)
                              c:/program files (x86)/gnu arm embedded toolchain/10 2020-q4-major/bin/../lib/gcc/arm-none-eabi/10.2.1/../../../../arm-none-eabi/lib/thumb/v7-m/nofp\libm.a(lib_a-sf_cos.o) (__kernel_cosf)
c:/program files (x86)/gnu arm embedded toolchain/10 2020-q4-major/bin/../lib/gcc/arm-none-eabi/10.2.1/../../../../arm-none-eabi/lib/thumb/v7-m/nofp\libm.a(lib_a-kf_rem_pio2.o)
                              c:/program files (x86)/gnu arm embedded toolchain/10 2020-q4-major/bin/../lib/gcc/arm-none-eabi/10.2.1/../../../../arm-none-eabi/lib/thumb/v7-m/nofp\libm.a(lib_a-ef_rem_pio2.o) (__kernel_rem_pio2f)
c:/program files (x86)/gnu arm embedded toolchain/10 2020-q4-major/bin/../lib/gcc/arm-none-eabi/10.2.1/../../../../arm-none-eabi/lib/thumb/v7-m/nofp\libm.a(lib_a-kf_sin.o)
                              c:/program files (x86)/gnu arm embedded toolchain/10 2020-q4-major/bin/../lib/gcc/arm-none-eabi/10.2.1/../../../../arm-none-eabi/lib/thumb/v7-m/nofp\libm.a(lib_a-sf_cos.o) (__kernel_sinf)
c:/program files (x86)/gnu arm embedded toolchain/10 2020-q4-major/bin/../lib/gcc/arm-none-eabi/10.2.1/../../../../arm-none-eabi/lib/thumb/v7-m/nofp\libm.a(lib_a-kf_tan.o)
                              c:/program files (x86)/gnu arm embedded toolchain/10 2020-q4-major/bin/../lib/gcc/arm-none-eabi/10.2.1/../../../../arm-none-eabi/lib/thumb/v7-m/nofp\libm.a(lib_a-sf_tan.o) (__kernel_tanf)
c:/program files (x86)/gnu arm embedded toolchain/10 2020-q4-major/bin/../lib/gcc/arm-none-eabi/10.2.1/../../../../arm-none-eabi/lib/thumb/v7-m/nofp\libm.a(lib_a-s_atan.o)
                              c:/program files (x86)/gnu arm embedded toolchain/10 2020-q4-major/bin/../lib/gcc/arm-none-eabi/10.2.1/../../../../arm-none-eabi/lib/thumb/v7-m/nofp\libm.a(lib_a-e_atan2.o) (atan)
c:/program files (x86)/gnu arm embedded toolchain/10 2020-q4-major/bin/../lib/gcc/arm-none-eabi/10.2.1/../../../../arm-none-eabi/lib/thumb/v7-m/nofp\libm.a(lib_a-s_fabs.o)
                              c:/program files (x86)/gnu arm embedded toolchain/10 2020-q4-major/bin/../lib/gcc/arm-none-eabi/10.2.1/../../../../arm-none-eabi/lib/thumb/v7-m/nofp\libm.a(lib_a-e_atan2.o) (fabs)
c:/program files (x86)/gnu arm embedded toolchain/10 2020-q4-major/bin/../lib/gcc/arm-none-eabi/10.2.1/../../../../arm-none-eabi/lib/thumb/v7-m/nofp\libm.a(lib_a-s_finite.o)
                              c:/program files (x86)/gnu arm embedded toolchain/10 2020-q4-major/bin/../lib/gcc/arm-none-eabi/10.2.1/../../../../arm-none-eabi/lib/thumb/v7-m/nofp\libm.a(lib_a-w_pow.o) (finite)
c:/program files (x86)/gnu arm embedded toolchain/10 2020-q4-major/bin/../lib/gcc/arm-none-eabi/10.2.1/../../../../arm-none-eabi/lib/thumb/v7-m/nofp\libm.a(lib_a-s_lib_ver.o)
                              c:/program files (x86)/gnu arm embedded toolchain/10 2020-q4-major/bin/../lib/gcc/arm-none-eabi/10.2.1/../../../../arm-none-eabi/lib/thumb/v7-m/nofp\libm.a(lib_a-w_fmod.o) (__fdlib_version)
c:/program files (x86)/gnu arm embedded toolchain/10 2020-q4-major/bin/../lib/gcc/arm-none-eabi/10.2.1/../../../../arm-none-eabi/lib/thumb/v7-m/nofp\libm.a(lib_a-s_nan.o)
                              c:/program files (x86)/gnu arm embedded toolchain/10 2020-q4-major/bin/../lib/gcc/arm-none-eabi/10.2.1/../../../../arm-none-eabi/lib/thumb/v7-m/nofp\libm.a(lib_a-e_pow.o) (nan)
c:/program files (x86)/gnu arm embedded toolchain/10 2020-q4-major/bin/../lib/gcc/arm-none-eabi/10.2.1/../../../../arm-none-eabi/lib/thumb/v7-m/nofp\libm.a(lib_a-s_rint.o)
                              c:/program files (x86)/gnu arm embedded toolchain/10 2020-q4-major/bin/../lib/gcc/arm-none-eabi/10.2.1/../../../../arm-none-eabi/lib/thumb/v7-m/nofp\libm.a(lib_a-w_pow.o) (rint)
c:/program files (x86)/gnu arm embedded toolchain/10 2020-q4-major/bin/../lib/gcc/arm-none-eabi/10.2.1/../../../../arm-none-eabi/lib/thumb/v7-m/nofp\libm.a(lib_a-s_scalbn.o)
                              c:/program files (x86)/gnu arm embedded toolchain/10 2020-q4-major/bin/../lib/gcc/arm-none-eabi/10.2.1/../../../../arm-none-eabi/lib/thumb/v7-m/nofp\libm.a(lib_a-e_pow.o) (scalbn)
c:/program files (x86)/gnu arm embedded toolchain/10 2020-q4-major/bin/../lib/gcc/arm-none-eabi/10.2.1/../../../../arm-none-eabi/lib/thumb/v7-m/nofp\libm.a(lib_a-sf_finite.o)
                              c:/program files (x86)/gnu arm embedded toolchain/10 2020-q4-major/bin/../lib/gcc/arm-none-eabi/10.2.1/../../../../arm-none-eabi/lib/thumb/v7-m/nofp\libm.a(lib_a-wf_pow.o) (finitef)
c:/program files (x86)/gnu arm embedded toolchain/10 2020-q4-major/bin/../lib/gcc/arm-none-eabi/10.2.1/../../../../arm-none-eabi/lib/thumb/v7-m/nofp\libm.a(lib_a-sf_nan.o)
                              c:/program files (x86)/gnu arm embedded toolchain/10 2020-q4-major/bin/../lib/gcc/arm-none-eabi/10.2.1/../../../../arm-none-eabi/lib/thumb/v7-m/nofp\libm.a(lib_a-wf_acos.o) (nanf)
c:/program files (x86)/gnu arm embedded toolchain/10 2020-q4-major/bin/../lib/gcc/arm-none-eabi/10.2.1/../../../../arm-none-eabi/lib/thumb/v7-m/nofp\libm.a(lib_a-sf_rint.o)
                              c:/program files (x86)/gnu arm embedded toolchain/10 2020-q4-major/bin/../lib/gcc/arm-none-eabi/10.2.1/../../../../arm-none-eabi/lib/thumb/v7-m/nofp\libm.a(lib_a-wf_pow.o) (rintf)
c:/program files (x86)/gnu arm embedded toolchain/10 2020-q4-major/bin/../lib/gcc/arm-none-eabi/10.2.1/../../../../arm-none-eabi/lib/thumb/v7-m/nofp\libm.a(lib_a-sf_scalbn.o)
                              c:/program files (x86)/gnu arm embedded toolchain/10 2020-q4-major/bin/../lib/gcc/arm-none-eabi/10.2.1/../../../../arm-none-eabi/lib/thumb/v7-m/nofp\libm.a(lib_a-ef_pow.o) (scalbnf)
c:/program files (x86)/gnu arm embedded toolchain/10 2020-q4-major/bin/../lib/gcc/arm-none-eabi/10.2.1/thumb/v7-m/nofp\libgcc.a(_arm_muldf3.o)
                              ./build/./RepRapFirmware/src/Movement/DriveMovement.o (__aeabi_dmul)
c:/program files (x86)/gnu arm embedded toolchain/10 2020-q4-major/bin/../lib/gcc/arm-none-eabi/10.2.1/thumb/v7-m/nofp\libgcc.a(_arm_mulsf3.o)
                              ./build/./RepRapFirmware/src/FilamentMonitors/LaserFilamentMonitor.o (__aeabi_fmul)
c:/program files (x86)/gnu arm embedded toolchain/10 2020-q4-major/bin/../lib/gcc/arm-none-eabi/10.2.1/thumb/v7-m/nofp\libgcc.a(_arm_addsubdf3.o)
                              c:/program files (x86)/gnu arm embedded toolchain/10 2020-q4-major/bin/../lib/gcc/arm-none-eabi/10.2.1/../../../../arm-none-eabi/lib/thumb/v7-m/nofp\libm.a(lib_a-s_llrint.o) (__aeabi_dsub)
c:/program files (x86)/gnu arm embedded toolchain/10 2020-q4-major/bin/../lib/gcc/arm-none-eabi/10.2.1/thumb/v7-m/nofp\libgcc.a(_arm_muldivdf3.o)
                              ./build/./RepRapFirmware/src/Movement/DriveMovement.o (__aeabi_ddiv)
c:/program files (x86)/gnu arm embedded toolchain/10 2020-q4-major/bin/../lib/gcc/arm-none-eabi/10.2.1/thumb/v7-m/nofp\libgcc.a(_arm_cmpdf2.o)
                              ./build/\libRRFLibraries.a(SafeVsnprintf.o) (__aeabi_dcmpeq)
c:/program files (x86)/gnu arm embedded toolchain/10 2020-q4-major/bin/../lib/gcc/arm-none-eabi/10.2.1/thumb/v7-m/nofp\libgcc.a(_arm_unorddf2.o)
                              ./build/\libRRFLibraries.a(SafeVsnprintf.o) (__aeabi_dcmpun)
c:/program files (x86)/gnu arm embedded toolchain/10 2020-q4-major/bin/../lib/gcc/arm-none-eabi/10.2.1/thumb/v7-m/nofp\libgcc.a(_arm_fixunsdfsi.o)
                              ./build/./RepRapFirmware/src/Platform/RepRap.o (__aeabi_d2uiz)
c:/program files (x86)/gnu arm embedded toolchain/10 2020-q4-major/bin/../lib/gcc/arm-none-eabi/10.2.1/thumb/v7-m/nofp\libgcc.a(_arm_truncdfsf2.o)
                              ./build/./RepRapFirmware/src/GCodes/GCodes.o (__aeabi_d2f)
c:/program files (x86)/gnu arm embedded toolchain/10 2020-q4-major/bin/../lib/gcc/arm-none-eabi/10.2.1/thumb/v7-m/nofp\libgcc.a(_arm_addsubsf3.o)
                              ./build/./RepRapFirmware/src/FilamentMonitors/LaserFilamentMonitor.o (__aeabi_fsub)
c:/program files (x86)/gnu arm embedded toolchain/10 2020-q4-major/bin/../lib/gcc/arm-none-eabi/10.2.1/thumb/v7-m/nofp\libgcc.a(_arm_muldivsf3.o)
                              ./build/./RepRapFirmware/src/FilamentMonitors/FilamentMonitor.o (__aeabi_fdiv)
c:/program files (x86)/gnu arm embedded toolchain/10 2020-q4-major/bin/../lib/gcc/arm-none-eabi/10.2.1/thumb/v7-m/nofp\libgcc.a(_arm_cmpsf2.o)
                              ./build/./RepRapFirmware/src/GCodes/GCodes.o (__aeabi_fcmpeq)
c:/program files (x86)/gnu arm embedded toolchain/10 2020-q4-major/bin/../lib/gcc/arm-none-eabi/10.2.1/thumb/v7-m/nofp\libgcc.a(_arm_unordsf2.o)
                              ./build/./RepRapFirmware/src/RepRapFirmware.o (__aeabi_fcmpun)
c:/program files (x86)/gnu arm embedded toolchain/10 2020-q4-major/bin/../lib/gcc/arm-none-eabi/10.2.1/thumb/v7-m/nofp\libgcc.a(_arm_fixsfsi.o)
                              ./build/./RepRapFirmware/src/GCodes/GCodes.o (__aeabi_f2iz)
c:/program files (x86)/gnu arm embedded toolchain/10 2020-q4-major/bin/../lib/gcc/arm-none-eabi/10.2.1/thumb/v7-m/nofp\libgcc.a(_arm_fixunssfsi.o)
                              ./build/./RepRapFirmware/src/GCodes/GCodes.o (__aeabi_f2uiz)
c:/program files (x86)/gnu arm embedded toolchain/10 2020-q4-major/bin/../lib/gcc/arm-none-eabi/10.2.1/thumb/v7-m/nofp\libgcc.a(_aeabi_ldivmod.o)
                              ./build/./RepRapFirmware/src/targets/common/Fans/LedStripDriver.o (__aeabi_ldivmod)
c:/program files (x86)/gnu arm embedded toolchain/10 2020-q4-major/bin/../lib/gcc/arm-none-eabi/10.2.1/thumb/v7-m/nofp\libgcc.a(_aeabi_uldivmod.o)
                              ./build/./RepRapFirmware/src/Movement/DriveMovement.o (__aeabi_uldivmod)
c:/program files (x86)/gnu arm embedded toolchain/10 2020-q4-major/bin/../lib/gcc/arm-none-eabi/10.2.1/thumb/v7-m/nofp\libgcc.a(_ctzdi2.o)
                              ./build/./RepRapFirmware/src/ObjectModel/ObjectModel.o (__ctzdi2)
c:/program files (x86)/gnu arm embedded toolchain/10 2020-q4-major/bin/../lib/gcc/arm-none-eabi/10.2.1/thumb/v7-m/nofp\libgcc.a(_fixsfdi.o)
                              ./build/./RepRapFirmware/src/Movement/DriveMovement.o (__aeabi_f2lz)
c:/program files (x86)/gnu arm embedded toolchain/10 2020-q4-major/bin/../lib/gcc/arm-none-eabi/10.2.1/thumb/v7-m/nofp\libgcc.a(_fixdfdi.o)
                              c:/program files (x86)/gnu arm embedded toolchain/10 2020-q4-major/bin/../lib/gcc/arm-none-eabi/10.2.1/../../../../arm-none-eabi/lib/thumb/v7-m/nofp\libm.a(lib_a-s_llrint.o) (__aeabi_d2lz)
c:/program files (x86)/gnu arm embedded toolchain/10 2020-q4-major/bin/../lib/gcc/arm-none-eabi/10.2.1/thumb/v7-m/nofp\libgcc.a(_fixunssfdi.o)
                              ./build/./RepRapFirmware/src/Movement/DriveMovement.o (__aeabi_f2ulz)
c:/program files (x86)/gnu arm embedded toolchain/10 2020-q4-major/bin/../lib/gcc/arm-none-eabi/10.2.1/thumb/v7-m/nofp\libgcc.a(_fixunsdfdi.o)
                              ./build/./RepRapFirmware/src/Movement/DriveMovement.o (__aeabi_d2ulz)
c:/program files (x86)/gnu arm embedded toolchain/10 2020-q4-major/bin/../lib/gcc/arm-none-eabi/10.2.1/thumb/v7-m/nofp\libgcc.a(_udivmoddi4.o)
                              c:/program files (x86)/gnu arm embedded toolchain/10 2020-q4-major/bin/../lib/gcc/arm-none-eabi/10.2.1/thumb/v7-m/nofp\libgcc.a(_aeabi_ldivmod.o) (__udivmoddi4)
c:/program files (x86)/gnu arm embedded toolchain/10 2020-q4-major/bin/../lib/gcc/arm-none-eabi/10.2.1/thumb/v7-m/nofp\libgcc.a(unwind-arm.o)
                              ./build/./RepRapFirmware/src/FilamentMonitors/FilamentMonitor.o (__aeabi_unwind_cpp_pr0)
c:/program files (x86)/gnu arm embedded toolchain/10 2020-q4-major/bin/../lib/gcc/arm-none-eabi/10.2.1/thumb/v7-m/nofp\libgcc.a(libunwind.o)
                              c:/program files (x86)/gnu arm embedded toolchain/10 2020-q4-major/bin/../lib/gcc/arm-none-eabi/10.2.1/thumb/v7-m/nofp\libgcc.a(unwind-arm.o) (restore_core_regs)
c:/program files (x86)/gnu arm embedded toolchain/10 2020-q4-major/bin/../lib/gcc/arm-none-eabi/10.2.1/thumb/v7-m/nofp\libgcc.a(pr-support.o)
                              c:/program files (x86)/gnu arm embedded toolchain/10 2020-q4-major/bin/../lib/gcc/arm-none-eabi/10.2.1/thumb/v7-m/nofp\libgcc.a(unwind-arm.o) (__gnu_unwind_execute)
c:/program files (x86)/gnu arm embedded toolchain/10 2020-q4-major/bin/../lib/gcc/arm-none-eabi/10.2.1/thumb/v7-m/nofp\libgcc.a(_dvmd_tls.o)
                              c:/program files (x86)/gnu arm embedded toolchain/10 2020-q4-major/bin/../lib/gcc/arm-none-eabi/10.2.1/thumb/v7-m/nofp\libgcc.a(_aeabi_ldivmod.o) (__aeabi_ldiv0)
c:/program files (x86)/gnu arm embedded toolchain/10 2020-q4-major/bin/../lib/gcc/arm-none-eabi/10.2.1/../../../../arm-none-eabi/lib/thumb/v7-m/nofp\libc.a(lib_a-abort.o)
                              ./build/./RepRapFirmware/src/libcpp/vterminate.o (abort)
c:/program files (x86)/gnu arm embedded toolchain/10 2020-q4-major/bin/../lib/gcc/arm-none-eabi/10.2.1/../../../../arm-none-eabi/lib/thumb/v7-m/nofp\libc.a(lib_a-cxa_atexit.o)
                              c:/program files (x86)/gnu arm embedded toolchain/10 2020-q4-major/bin/../lib/gcc/arm-none-eabi/10.2.1/../../../../arm-none-eabi/lib/thumb/v7-m/nofp\libsupc++.a(atexit_arm.o) (__cxa_atexit)
c:/program files (x86)/gnu arm embedded toolchain/10 2020-q4-major/bin/../lib/gcc/arm-none-eabi/10.2.1/../../../../arm-none-eabi/lib/thumb/v7-m/nofp\libc.a(lib_a-errno.o)
                              c:/program files (x86)/gnu arm embedded toolchain/10 2020-q4-major/bin/../lib/gcc/arm-none-eabi/10.2.1/../../../../arm-none-eabi/lib/thumb/v7-m/nofp\libm.a(lib_a-w_fmod.o) (__errno)
c:/program files (x86)/gnu arm embedded toolchain/10 2020-q4-major/bin/../lib/gcc/arm-none-eabi/10.2.1/../../../../arm-none-eabi/lib/thumb/v7-m/nofp\libc.a(lib_a-exit.o)
                              c:/program files (x86)/gnu arm embedded toolchain/10 2020-q4-major/bin/../lib/gcc/arm-none-eabi/10.2.1/../../../../arm-none-eabi/lib/thumb/v7-m/nofp/crt0.o (exit)
c:/program files (x86)/gnu arm embedded toolchain/10 2020-q4-major/bin/../lib/gcc/arm-none-eabi/10.2.1/../../../../arm-none-eabi/lib/thumb/v7-m/nofp\libc.a(lib_a-gmtime_r.o)
                              ./build/./RepRapFirmware/src/GCodes/GCodes3.o (gmtime_r)
c:/program files (x86)/gnu arm embedded toolchain/10 2020-q4-major/bin/../lib/gcc/arm-none-eabi/10.2.1/../../../../arm-none-eabi/lib/thumb/v7-m/nofp\libc.a(lib_a-impure.o)
                              c:/program files (x86)/gnu arm embedded toolchain/10 2020-q4-major/bin/../lib/gcc/arm-none-eabi/10.2.1/../../../../arm-none-eabi/lib/thumb/v7-m/nofp\libc.a(lib_a-exit.o) (_global_impure_ptr)
c:/program files (x86)/gnu arm embedded toolchain/10 2020-q4-major/bin/../lib/gcc/arm-none-eabi/10.2.1/../../../../arm-none-eabi/lib/thumb/v7-m/nofp\libc.a(lib_a-init.o)
                              c:/program files (x86)/gnu arm embedded toolchain/10 2020-q4-major/bin/../lib/gcc/arm-none-eabi/10.2.1/../../../../arm-none-eabi/lib/thumb/v7-m/nofp/crt0.o (__libc_init_array)
c:/program files (x86)/gnu arm embedded toolchain/10 2020-q4-major/bin/../lib/gcc/arm-none-eabi/10.2.1/../../../../arm-none-eabi/lib/thumb/v7-m/nofp\libc.a(lib_a-isalpha.o)
                              ./build/./RepRapFirmware/src/GCodes/GCodeBuffer/ExpressionParser.o (isalpha)
c:/program files (x86)/gnu arm embedded toolchain/10 2020-q4-major/bin/../lib/gcc/arm-none-eabi/10.2.1/../../../../arm-none-eabi/lib/thumb/v7-m/nofp\libc.a(lib_a-isspace.o)
                              ./build/./RepRapFirmware/src/libc/strptime.o (isspace)
c:/program files (x86)/gnu arm embedded toolchain/10 2020-q4-major/bin/../lib/gcc/arm-none-eabi/10.2.1/../../../../arm-none-eabi/lib/thumb/v7-m/nofp\libc.a(lib_a-isxdigit.o)
                              ./build/\libRRFLibraries.a(NumericConverter.o) (isxdigit)
c:/program files (x86)/gnu arm embedded toolchain/10 2020-q4-major/bin/../lib/gcc/arm-none-eabi/10.2.1/../../../../arm-none-eabi/lib/thumb/v7-m/nofp\libc.a(lib_a-lldiv.o)
                              ./build/\libRRFLibraries.a(SafeVsnprintf.o) (lldiv)
c:/program files (x86)/gnu arm embedded toolchain/10 2020-q4-major/bin/../lib/gcc/arm-none-eabi/10.2.1/../../../../arm-none-eabi/lib/thumb/v7-m/nofp\libc.a(lib_a-mktime.o)
                              ./build/./RepRapFirmware/src/GCodes/GCodes3.o (mktime)
c:/program files (x86)/gnu arm embedded toolchain/10 2020-q4-major/bin/../lib/gcc/arm-none-eabi/10.2.1/../../../../arm-none-eabi/lib/thumb/v7-m/nofp\libc.a(lib_a-rand.o)
                              ./build/\libLPCCore.a(CoreIO.o) (srand)
c:/program files (x86)/gnu arm embedded toolchain/10 2020-q4-major/bin/../lib/gcc/arm-none-eabi/10.2.1/../../../../arm-none-eabi/lib/thumb/v7-m/nofp\libc.a(lib_a-signal.o)
                              c:/program files (x86)/gnu arm embedded toolchain/10 2020-q4-major/bin/../lib/gcc/arm-none-eabi/10.2.1/../../../../arm-none-eabi/lib/thumb/v7-m/nofp\libc.a(lib_a-abort.o) (raise)
c:/program files (x86)/gnu arm embedded toolchain/10 2020-q4-major/bin/../lib/gcc/arm-none-eabi/10.2.1/../../../../arm-none-eabi/lib/thumb/v7-m/nofp\libc.a(lib_a-signalr.o)
                              c:/program files (x86)/gnu arm embedded toolchain/10 2020-q4-major/bin/../lib/gcc/arm-none-eabi/10.2.1/../../../../arm-none-eabi/lib/thumb/v7-m/nofp\libc.a(lib_a-signal.o) (_kill_r)
c:/program files (x86)/gnu arm embedded toolchain/10 2020-q4-major/bin/../lib/gcc/arm-none-eabi/10.2.1/../../../../arm-none-eabi/lib/thumb/v7-m/nofp\libc.a(lib_a-strchr.o)
                              ./build/./RepRapFirmware/src/GCodes/GCodes.o (strchr)
c:/program files (x86)/gnu arm embedded toolchain/10 2020-q4-major/bin/../lib/gcc/arm-none-eabi/10.2.1/../../../../arm-none-eabi/lib/thumb/v7-m/nofp\libc.a(lib_a-strcmp.o)
                              ./build/./RepRapFirmware/src/GCodes/GCodes2.o (strcmp)
c:/program files (x86)/gnu arm embedded toolchain/10 2020-q4-major/bin/../lib/gcc/arm-none-eabi/10.2.1/../../../../arm-none-eabi/lib/thumb/v7-m/nofp\libc.a(lib_a-strcpy.o)
                              ./build/./RepRapFirmware/src/Storage/FileStore.o (strcpy)
c:/program files (x86)/gnu arm embedded toolchain/10 2020-q4-major/bin/../lib/gcc/arm-none-eabi/10.2.1/../../../../arm-none-eabi/lib/thumb/v7-m/nofp\libc.a(lib_a-strlen-stub.o)
                              ./build/./RepRapFirmware/src/GCodes/GCodeInput.o (strlen)
c:/program files (x86)/gnu arm embedded toolchain/10 2020-q4-major/bin/../lib/gcc/arm-none-eabi/10.2.1/../../../../arm-none-eabi/lib/thumb/v7-m/nofp\libc.a(lib_a-strncat.o)
                              ./build/\libRRFLibraries.a(StringFunctions.o) (strncat)
c:/program files (x86)/gnu arm embedded toolchain/10 2020-q4-major/bin/../lib/gcc/arm-none-eabi/10.2.1/../../../../arm-none-eabi/lib/thumb/v7-m/nofp\libc.a(lib_a-strncpy.o)
                              ./build/\libRRFLibraries.a(StringFunctions.o) (strncpy)
c:/program files (x86)/gnu arm embedded toolchain/10 2020-q4-major/bin/../lib/gcc/arm-none-eabi/10.2.1/../../../../arm-none-eabi/lib/thumb/v7-m/nofp\libc.a(lib_a-strstr.o)
                              ./build/\libRRFLibraries.a(StringRef.o) (strstr)
c:/program files (x86)/gnu arm embedded toolchain/10 2020-q4-major/bin/../lib/gcc/arm-none-eabi/10.2.1/../../../../arm-none-eabi/lib/thumb/v7-m/nofp\libc.a(lib_a-strtoul.o)
                              ./build/\libRRFLibraries.a(SafeStrtod.o) (strtoul)
c:/program files (x86)/gnu arm embedded toolchain/10 2020-q4-major/bin/../lib/gcc/arm-none-eabi/10.2.1/../../../../arm-none-eabi/lib/thumb/v7-m/nofp\libc.a(lib_a-syssbrk.o)
                              ./build/\libLPCCore.a(main.o) (sbrk)
c:/program files (x86)/gnu arm embedded toolchain/10 2020-q4-major/bin/../lib/gcc/arm-none-eabi/10.2.1/../../../../arm-none-eabi/lib/thumb/v7-m/nofp\libc.a(lib_a-tolower.o)
                              ./build/./RepRapFirmware/src/GCodes/GCodeBuffer/ExpressionParser.o (tolower)
c:/program files (x86)/gnu arm embedded toolchain/10 2020-q4-major/bin/../lib/gcc/arm-none-eabi/10.2.1/../../../../arm-none-eabi/lib/thumb/v7-m/nofp\libc.a(lib_a-toupper.o)
                              ./build/./RepRapFirmware/src/GCodes/GCodes2.o (toupper)
c:/program files (x86)/gnu arm embedded toolchain/10 2020-q4-major/bin/../lib/gcc/arm-none-eabi/10.2.1/../../../../arm-none-eabi/lib/thumb/v7-m/nofp\libc.a(lib_a-tzcalc_limits.o)
                              c:/program files (x86)/gnu arm embedded toolchain/10 2020-q4-major/bin/../lib/gcc/arm-none-eabi/10.2.1/../../../../arm-none-eabi/lib/thumb/v7-m/nofp\libc.a(lib_a-mktime.o) (__tzcalc_limits)
c:/program files (x86)/gnu arm embedded toolchain/10 2020-q4-major/bin/../lib/gcc/arm-none-eabi/10.2.1/../../../../arm-none-eabi/lib/thumb/v7-m/nofp\libc.a(lib_a-tzvars.o)
                              c:/program files (x86)/gnu arm embedded toolchain/10 2020-q4-major/bin/../lib/gcc/arm-none-eabi/10.2.1/../../../../arm-none-eabi/lib/thumb/v7-m/nofp\libc.a(lib_a-mktime.o) (_daylight)
c:/program files (x86)/gnu arm embedded toolchain/10 2020-q4-major/bin/../lib/gcc/arm-none-eabi/10.2.1/../../../../arm-none-eabi/lib/thumb/v7-m/nofp\libc.a(lib_a-__atexit.o)
                              c:/program files (x86)/gnu arm embedded toolchain/10 2020-q4-major/bin/../lib/gcc/arm-none-eabi/10.2.1/../../../../arm-none-eabi/lib/thumb/v7-m/nofp\libc.a(lib_a-cxa_atexit.o) (__register_exitproc)
c:/program files (x86)/gnu arm embedded toolchain/10 2020-q4-major/bin/../lib/gcc/arm-none-eabi/10.2.1/../../../../arm-none-eabi/lib/thumb/v7-m/nofp\libc.a(lib_a-__call_atexit.o)
                              c:/program files (x86)/gnu arm embedded toolchain/10 2020-q4-major/bin/../lib/gcc/arm-none-eabi/10.2.1/../../../../arm-none-eabi/lib/thumb/v7-m/nofp\libc.a(lib_a-exit.o) (__call_exitprocs)
c:/program files (x86)/gnu arm embedded toolchain/10 2020-q4-major/bin/../lib/gcc/arm-none-eabi/10.2.1/../../../../arm-none-eabi/lib/thumb/v7-m/nofp\libc.a(lib_a-atexit.o)
                              c:/program files (x86)/gnu arm embedded toolchain/10 2020-q4-major/bin/../lib/gcc/arm-none-eabi/10.2.1/../../../../arm-none-eabi/lib/thumb/v7-m/nofp\libc.a(lib_a-__call_atexit.o) (atexit)
c:/program files (x86)/gnu arm embedded toolchain/10 2020-q4-major/bin/../lib/gcc/arm-none-eabi/10.2.1/../../../../arm-none-eabi/lib/thumb/v7-m/nofp\libc.a(lib_a-ctype_.o)
                              c:/program files (x86)/gnu arm embedded toolchain/10 2020-q4-major/bin/../lib/gcc/arm-none-eabi/10.2.1/../../../../arm-none-eabi/lib/thumb/v7-m/nofp\libc.a(lib_a-isalpha.o) (_ctype_)
c:/program files (x86)/gnu arm embedded toolchain/10 2020-q4-major/bin/../lib/gcc/arm-none-eabi/10.2.1/../../../../arm-none-eabi/lib/thumb/v7-m/nofp\libc.a(lib_a-div.o)
                              c:/program files (x86)/gnu arm embedded toolchain/10 2020-q4-major/bin/../lib/gcc/arm-none-eabi/10.2.1/../../../../arm-none-eabi/lib/thumb/v7-m/nofp\libc.a(lib_a-mktime.o) (div)
c:/program files (x86)/gnu arm embedded toolchain/10 2020-q4-major/bin/../lib/gcc/arm-none-eabi/10.2.1/../../../../arm-none-eabi/lib/thumb/v7-m/nofp\libc.a(lib_a-fini.o)
                              c:/program files (x86)/gnu arm embedded toolchain/10 2020-q4-major/bin/../lib/gcc/arm-none-eabi/10.2.1/../../../../arm-none-eabi/lib/thumb/v7-m/nofp\libc.a(lib_a-__call_atexit.o) (__libc_fini_array)
c:/program files (x86)/gnu arm embedded toolchain/10 2020-q4-major/bin/../lib/gcc/arm-none-eabi/10.2.1/../../../../arm-none-eabi/lib/thumb/v7-m/nofp\libc.a(lib_a-gettzinfo.o)
                              c:/program files (x86)/gnu arm embedded toolchain/10 2020-q4-major/bin/../lib/gcc/arm-none-eabi/10.2.1/../../../../arm-none-eabi/lib/thumb/v7-m/nofp\libc.a(lib_a-mktime.o) (__gettzinfo)
c:/program files (x86)/gnu arm embedded toolchain/10 2020-q4-major/bin/../lib/gcc/arm-none-eabi/10.2.1/../../../../arm-none-eabi/lib/thumb/v7-m/nofp\libc.a(lib_a-lock.o)
                              c:/program files (x86)/gnu arm embedded toolchain/10 2020-q4-major/bin/../lib/gcc/arm-none-eabi/10.2.1/../../../../arm-none-eabi/lib/thumb/v7-m/nofp\libc.a(lib_a-__atexit.o) (__retarget_lock_acquire_recursive)
c:/program files (x86)/gnu arm embedded toolchain/10 2020-q4-major/bin/../lib/gcc/arm-none-eabi/10.2.1/../../../../arm-none-eabi/lib/thumb/v7-m/nofp\libc.a(lib_a-month_lengths.o)
                              c:/program files (x86)/gnu arm embedded toolchain/10 2020-q4-major/bin/../lib/gcc/arm-none-eabi/10.2.1/../../../../arm-none-eabi/lib/thumb/v7-m/nofp\libc.a(lib_a-tzcalc_limits.o) (__month_lengths)
c:/program files (x86)/gnu arm embedded toolchain/10 2020-q4-major/bin/../lib/gcc/arm-none-eabi/10.2.1/../../../../arm-none-eabi/lib/thumb/v7-m/nofp\libc.a(lib_a-sbrkr.o)
                              c:/program files (x86)/gnu arm embedded toolchain/10 2020-q4-major/bin/../lib/gcc/arm-none-eabi/10.2.1/../../../../arm-none-eabi/lib/thumb/v7-m/nofp\libc.a(lib_a-syssbrk.o) (_sbrk_r)
c:/program files (x86)/gnu arm embedded toolchain/10 2020-q4-major/bin/../lib/gcc/arm-none-eabi/10.2.1/../../../../arm-none-eabi/lib/thumb/v7-m/nofp\libc.a(lib_a-strnlen.o)
                              c:/program files (x86)/gnu arm embedded toolchain/10 2020-q4-major/bin/../lib/gcc/arm-none-eabi/10.2.1/../../../../arm-none-eabi/lib/thumb/v7-m/nofp\libc.a(lib_a-strstr.o) (strnlen)

Discarded input sections

 .text          0x00000000        0x0 c:/program files (x86)/gnu arm embedded toolchain/10 2020-q4-major/bin/../lib/gcc/arm-none-eabi/10.2.1/thumb/v7-m/nofp/crti.o
 .data          0x00000000        0x0 c:/program files (x86)/gnu arm embedded toolchain/10 2020-q4-major/bin/../lib/gcc/arm-none-eabi/10.2.1/thumb/v7-m/nofp/crti.o
 .bss           0x00000000        0x0 c:/program files (x86)/gnu arm embedded toolchain/10 2020-q4-major/bin/../lib/gcc/arm-none-eabi/10.2.1/thumb/v7-m/nofp/crti.o
 .rodata        0x00000000       0x24 c:/program files (x86)/gnu arm embedded toolchain/10 2020-q4-major/bin/../lib/gcc/arm-none-eabi/10.2.1/thumb/v7-m/nofp/crtbegin.o
 .text          0x00000000       0x7c c:/program files (x86)/gnu arm embedded toolchain/10 2020-q4-major/bin/../lib/gcc/arm-none-eabi/10.2.1/../../../../arm-none-eabi/lib/thumb/v7-m/nofp/crt0.o
 .data          0x00000000        0x0 c:/program files (x86)/gnu arm embedded toolchain/10 2020-q4-major/bin/../lib/gcc/arm-none-eabi/10.2.1/../../../../arm-none-eabi/lib/thumb/v7-m/nofp/crt0.o
 .bss           0x00000000        0x0 c:/program files (x86)/gnu arm embedded toolchain/10 2020-q4-major/bin/../lib/gcc/arm-none-eabi/10.2.1/../../../../arm-none-eabi/lib/thumb/v7-m/nofp/crt0.o
 .ARM.extab     0x00000000        0x0 c:/program files (x86)/gnu arm embedded toolchain/10 2020-q4-major/bin/../lib/gcc/arm-none-eabi/10.2.1/../../../../arm-none-eabi/lib/thumb/v7-m/nofp/crt0.o
 .ARM.exidx     0x00000000       0x10 c:/program files (x86)/gnu arm embedded toolchain/10 2020-q4-major/bin/../lib/gcc/arm-none-eabi/10.2.1/../../../../arm-none-eabi/lib/thumb/v7-m/nofp/crt0.o
 .ARM.attributes
                0x00000000       0x1b c:/program files (x86)/gnu arm embedded toolchain/10 2020-q4-major/bin/../lib/gcc/arm-none-eabi/10.2.1/../../../../arm-none-eabi/lib/thumb/v7-m/nofp/crt0.o
 .text          0x00000000        0x0 ./build/./CoreN2G/src/LPC/new.o
 .data          0x00000000        0x0 ./build/./CoreN2G/src/LPC/new.o
 .bss           0x00000000        0x0 ./build/./CoreN2G/src/LPC/new.o
 .text._ZnajSt11align_val_t
                0x00000000        0x4 ./build/./CoreN2G/src/LPC/new.o
 .text._ZdlPv   0x00000000        0x4 ./build/./CoreN2G/src/LPC/new.o
 .text._ZdaPv   0x00000000        0x4 ./build/./CoreN2G/src/LPC/new.o
Memory Configuration

Name             Origin             Length             Attributes
FLASH            0x00004000         0x00074000         xr
RAM              0x10000000         0x00007fe0         xrw
AHB_RAM          0x2007c000         0x00008000         xrw
*default*        0x00000000         0xffffffff

Linker script and memory map

LOAD c:/program files (x86)/gnu arm embedded toolchain/10 2020-q4-major/bin/../lib/gcc/arm-none-eabi/10.2.1/thumb/v7-m/nofp/crti.o
LOAD c:/program files (x86)/gnu arm embedded toolchain/10 2020-q4-major/bin/../lib/gcc/arm-none-eabi/10.2.1/thumb/v7-m/nofp/crtbegin.o
LOAD c:/program files (x86)/gnu arm embedded toolchain/10 2020-q4-major/bin/../lib/gcc/arm-none-eabi/10.2.1/../../../../arm-none-eabi/lib/thumb/v7-m/nofp/crt0.o
START GROUP
LOAD ./build/./CoreN2G/src/LPC/new.o
LOAD ./build/./RepRapFirmware/src/libc/memcmp.o
LOAD ./build/./RepRapFirmware/src/libc/memcpy.o
LOAD ./build/./RepRapFirmware/src/libc/memmove.o
LOAD ./build/./RepRapFirmware/src/libc/memset.o
LOAD ./build/./RepRapFirmware/src/libc/nano-mallocr.o
LOAD ./build/./RepRapFirmware/src/libcpp/eh_alloc.o
LOAD ./build/./RepRapFirmware/src/libc/strptime.o
LOAD ./build/./RepRapFirmware/src/libcpp/vterminate.o
LOAD ./build/\libLPCCore.a
LOAD ./build/./RepRapFirmware/src/Libraries/sha1/sha1.o
LOAD ./build/./RepRapFirmware/src/targets/common/FatFS/ff.o
LOAD ./build/./RepRapFirmware/src/targets/common/FatFS/ffunicode.o
LOAD ./build/./RepRapFirmware/src/RepRapFirmware.o
LOAD ./build/./RepRapFirmware/src/FilamentMonitors/Duet3DFilamentMonitor.o
LOAD ./build/./RepRapFirmware/src/FilamentMonitors/FilamentMonitor.o
LOAD ./build/./RepRapFirmware/src/FilamentMonitors/LaserFilamentMonitor.o
LOAD ./build/./RepRapFirmware/src/FilamentMonitors/PulsedFilamentMonitor.o
LOAD ./build/./RepRapFirmware/src/FilamentMonitors/RotatingMagnetFilamentMonitor.o
LOAD ./build/./RepRapFirmware/src/FilamentMonitors/SimpleFilamentMonitor.o
LOAD ./build/./RepRapFirmware/src/GCodes/GCodeException.o
LOAD ./build/./RepRapFirmware/src/GCodes/GCodeFileInfo.o
LOAD ./build/./RepRapFirmware/src/GCodes/GCodeInput.o
LOAD ./build/./RepRapFirmware/src/GCodes/GCodeMachineState.o
LOAD ./build/./RepRapFirmware/src/GCodes/GCodeQueue.o
LOAD ./build/./RepRapFirmware/src/GCodes/GCodes.o
LOAD ./build/./RepRapFirmware/src/GCodes/GCodes2.o
LOAD ./build/./RepRapFirmware/src/GCodes/GCodes3.o
LOAD ./build/./RepRapFirmware/src/GCodes/GCodes4.o
LOAD ./build/./RepRapFirmware/src/GCodes/ObjectTracker.o
LOAD ./build/./RepRapFirmware/src/GCodes/RestorePoint.o
LOAD ./build/./RepRapFirmware/src/GCodes/StraightProbeSettings.o
LOAD ./build/./RepRapFirmware/src/GCodes/Trigger.o
LOAD ./build/./RepRapFirmware/src/GCodes/GCodeBuffer/BinaryParser.o
LOAD ./build/./RepRapFirmware/src/GCodes/GCodeBuffer/ExpressionParser.o
LOAD ./build/./RepRapFirmware/src/GCodes/GCodeBuffer/GCodeBuffer.o
LOAD ./build/./RepRapFirmware/src/GCodes/GCodeBuffer/StringParser.o
LOAD ./build/./RepRapFirmware/src/Heating/FOPDT.o
LOAD ./build/./RepRapFirmware/src/Heating/Heat.o
LOAD ./build/./RepRapFirmware/src/Heating/Heater.o
LOAD ./build/./RepRapFirmware/src/Heating/HeaterMonitor.o
LOAD ./build/./RepRapFirmware/src/Heating/LocalHeater.o
LOAD ./build/./RepRapFirmware/src/Heating/RemoteHeater.o
LOAD ./build/./RepRapFirmware/src/Heating/TemperatureError.o
LOAD ./build/./RepRapFirmware/src/Movement/DDA.o
LOAD ./build/./RepRapFirmware/src/Movement/DDARing.o
LOAD ./build/./RepRapFirmware/src/Movement/DriveMovement.o
LOAD ./build/./RepRapFirmware/src/Movement/InputShaper.o
LOAD ./build/./RepRapFirmware/src/Movement/Move.o
LOAD ./build/./RepRapFirmware/src/Movement/RawMove.o
LOAD ./build/./RepRapFirmware/src/Movement/StepTimer.o
LOAD ./build/./RepRapFirmware/src/Movement/BedProbing/Grid.o
LOAD ./build/./RepRapFirmware/src/Movement/BedProbing/RandomProbePointSet.o
LOAD ./build/./RepRapFirmware/src/Movement/Kinematics/CoreKinematics.o
LOAD ./build/./RepRapFirmware/src/Movement/Kinematics/FiveBarScaraKinematics.o
LOAD ./build/./RepRapFirmware/src/Movement/Kinematics/HangprinterKinematics.o
LOAD ./build/./RepRapFirmware/src/Movement/Kinematics/Kinematics.o
LOAD ./build/./RepRapFirmware/src/Movement/Kinematics/LinearDeltaKinematics.o
LOAD ./build/./RepRapFirmware/src/Movement/Kinematics/PolarKinematics.o
LOAD ./build/./RepRapFirmware/src/Movement/Kinematics/RotaryDeltaKinematics.o
LOAD ./build/./RepRapFirmware/src/Movement/Kinematics/RoundBedKinematics.o
LOAD ./build/./RepRapFirmware/src/Movement/Kinematics/ScaraKinematics.o
LOAD ./build/./RepRapFirmware/src/Movement/Kinematics/ZLeadscrewKinematics.o
LOAD ./build/./RepRapFirmware/src/Storage/CRC16.o
LOAD ./build/./RepRapFirmware/src/Storage/CRC32.o
LOAD ./build/./RepRapFirmware/src/Storage/FileInfoParser.o
LOAD ./build/./RepRapFirmware/src/Storage/FileStore.o
LOAD ./build/./RepRapFirmware/src/Storage/MassStorage.o
LOAD ./build/./RepRapFirmware/src/Hardware/SharedSpi/SharedSpiClient.o
LOAD ./build/./RepRapFirmware/src/Hardware/SharedSpi/SharedSpiDevice.o
LOAD ./build/./RepRapFirmware/src/Comms/AuxDevice.o
LOAD ./build/./RepRapFirmware/src/Comms/FirmwareUpdater.o
LOAD ./build/./RepRapFirmware/src/Comms/PanelDueUpdater.o
LOAD ./build/./RepRapFirmware/src/Platform/Heap.o
LOAD ./build/./RepRapFirmware/src/Platform/Logger.o
LOAD ./build/./RepRapFirmware/src/Platform/OutputMemory.o
LOAD ./build/./RepRapFirmware/src/Platform/Platform.o
LOAD ./build/./RepRapFirmware/src/Platform/PortControl.o
LOAD ./build/./RepRapFirmware/src/Platform/RepRap.o
LOAD ./build/./RepRapFirmware/src/Platform/Roland.o
LOAD ./build/./RepRapFirmware/src/Platform/Scanner.o
LOAD ./build/./RepRapFirmware/src/Platform/Tasks.o
LOAD ./build/./RepRapFirmware/src/PrintMonitor/PrintMonitor.o
LOAD ./build/./RepRapFirmware/src/Heating/Sensors/AdditionalOutputSensor.o
LOAD ./build/./RepRapFirmware/src/Heating/Sensors/CpuTemperatureSensor.o
LOAD ./build/./RepRapFirmware/src/Heating/Sensors/CurrentLoopTemperatureSensor.o
LOAD ./build/./RepRapFirmware/src/Heating/Sensors/DhtSensor.o
LOAD ./build/./RepRapFirmware/src/Heating/Sensors/LinearAnalogSensor.o
LOAD ./build/./RepRapFirmware/src/Heating/Sensors/RemoteSensor.o
LOAD ./build/./RepRapFirmware/src/Heating/Sensors/RtdSensor31865.o
LOAD ./build/./RepRapFirmware/src/Heating/Sensors/SensorWithPort.o
LOAD ./build/./RepRapFirmware/src/Heating/Sensors/SpiTemperatureSensor.o
LOAD ./build/./RepRapFirmware/src/Heating/Sensors/TemperatureSensor.o
LOAD ./build/./RepRapFirmware/src/Heating/Sensors/Thermistor.o
LOAD ./build/./RepRapFirmware/src/Heating/Sensors/ThermocoupleSensor31855.o
LOAD ./build/./RepRapFirmware/src/Heating/Sensors/ThermocoupleSensor31856.o
LOAD ./build/./RepRapFirmware/src/Heating/Sensors/ThermocoupleSensor6675.o
LOAD ./build/./RepRapFirmware/src/Heating/Sensors/TmcDriverTemperatureSensor.o
LOAD ./build/./RepRapFirmware/src/Fans/Fan.o
LOAD ./build/./RepRapFirmware/src/Fans/FansManager.o
LOAD ./build/./RepRapFirmware/src/Fans/LedStripDriver.o
LOAD ./build/./RepRapFirmware/src/Fans/LocalFan.o
LOAD ./build/./RepRapFirmware/src/Fans/RemoteFan.o
LOAD ./build/./RepRapFirmware/src/ObjectModel/GlobalVariables.o
LOAD ./build/./RepRapFirmware/src/ObjectModel/ObjectModel.o
LOAD ./build/./RepRapFirmware/src/ObjectModel/Variable.o
LOAD ./build/./RepRapFirmware/src/Endstops/Endstop.o
LOAD ./build/./RepRapFirmware/src/Endstops/EndstopsManager.o
LOAD ./build/./RepRapFirmware/src/Endstops/LocalZProbe.o
LOAD ./build/./RepRapFirmware/src/Endstops/RemoteZProbe.o
LOAD ./build/./RepRapFirmware/src/Endstops/StallDetectionEndstop.o
LOAD ./build/./RepRapFirmware/src/Endstops/SwitchEndstop.o
LOAD ./build/./RepRapFirmware/src/Endstops/ZProbe.o
LOAD ./build/./RepRapFirmware/src/Endstops/ZProbeEndstop.o
LOAD ./build/./RepRapFirmware/src/Hardware/ExceptionHandlers.o
LOAD ./build/./RepRapFirmware/src/Hardware/I2C.o
LOAD ./build/./RepRapFirmware/src/Hardware/IoPorts.o
LOAD ./build/./RepRapFirmware/src/Hardware/NonVolatileMemory.o
LOAD ./build/./RepRapFirmware/src/Hardware/SoftwareReset.o
LOAD ./build/./RepRapFirmware/src/Tools/Filament.o
LOAD ./build/./RepRapFirmware/src/Tools/Spindle.o
LOAD ./build/./RepRapFirmware/src/Tools/Tool.o
LOAD ./build/./RepRapFirmware/src/Display/Display.o
LOAD ./build/./RepRapFirmware/src/Display/Menu.o
LOAD ./build/./RepRapFirmware/src/Display/MenuItem.o
LOAD ./build/./RepRapFirmware/src/Display/RotaryEncoder.o
LOAD ./build/./RepRapFirmware/src/GPIO/GpInPort.o
LOAD ./build/./RepRapFirmware/src/GPIO/GpOutPort.o
LOAD ./build/./RepRapFirmware/src/bossa/Applet.o
LOAD ./build/./RepRapFirmware/src/bossa/BossaFlash.o
LOAD ./build/./RepRapFirmware/src/bossa/Device.o
LOAD ./build/./RepRapFirmware/src/bossa/EefcFlash.o
LOAD ./build/./RepRapFirmware/src/bossa/Flasher.o
LOAD ./build/./RepRapFirmware/src/bossa/Samba.o
LOAD ./build/./RepRapFirmware/src/bossa/WordCopyApplet.o
LOAD ./build/./RepRapFirmware/src/bossa/WordCopyArm.o
LOAD ./build/./RepRapFirmware/src/targets/LPC/BoardConfig.o
LOAD ./build/./RepRapFirmware/src/targets/LPC/NVMEmulation.o
LOAD ./build/./RepRapFirmware/src/targets/LPC/Pins_LPC.o
LOAD ./build/./RepRapFirmware/src/targets/common/Microstepping.o
LOAD ./build/./RepRapFirmware/src/targets/LPC/MCP4461/MCP4461.o
LOAD ./build/./RepRapFirmware/src/targets/LPC/FatFS/sd_mmc_wrapper.o
LOAD ./build/./RepRapFirmware/src/targets/LPC/FatFS/SDCard.o
LOAD ./build/./RepRapFirmware/src/targets/common/FatFS/diskio.o
LOAD ./build/./RepRapFirmware/src/targets/common/FatFS/fattime_rtc.o
LOAD ./build/./RepRapFirmware/src/targets/common/Fans/LedStripDriver.o
LOAD ./build/./RepRapFirmware/src/targets/LPC/Hardware/Devices.o
LOAD ./build/./RepRapFirmware/src/targets/LPC/Hardware/Main.o
LOAD ./build/./RepRapFirmware/src/Linux/DataTransfer.o
LOAD ./build/./RepRapFirmware/src/Linux/LinuxInterface.o
LOAD ./build/./RepRapFirmware/src/targets/common/NoNetwork/Network.o
LOAD ./build/./RepRapFirmware/src/targets/LPC/Movement/StepperDrivers/TMCSoftUART.o
LOAD ./build/./RepRapFirmware/src/targets/common/Movement/StepperDrivers/SmartDrivers.o
LOAD ./build/./RepRapFirmware/src/targets/common/Movement/StepperDrivers/TMC22xx.o
LOAD ./build/./RepRapFirmware/src/targets/common/Movement/StepperDrivers/TMC51xx.o
LOAD ./build/./RepRapFirmware/src/Movement/StepperDrivers/DriverMode.o
LOAD c:/program files (x86)/gnu arm embedded toolchain/10 2020-q4-major/bin/../lib/gcc/arm-none-eabi/10.2.1/../../../../arm-none-eabi/lib/thumb/v7-m/nofp\libsupc++.a
LOAD ./build/\libRRFLibraries.a
END GROUP
LOAD c:/program files (x86)/gnu arm embedded toolchain/10 2020-q4-major/bin/../lib/gcc/arm-none-eabi/10.2.1/../../../../arm-none-eabi/lib/thumb/v7-m/nofp\libm.a
START GROUP
LOAD c:/program files (x86)/gnu arm embedded toolchain/10 2020-q4-major/bin/../lib/gcc/arm-none-eabi/10.2.1/thumb/v7-m/nofp\libgcc.a
LOAD c:/program files (x86)/gnu arm embedded toolchain/10 2020-q4-major/bin/../lib/gcc/arm-none-eabi/10.2.1/../../../../arm-none-eabi/lib/thumb/v7-m/nofp\libc.a
END GROUP
START GROUP
LOAD c:/program files (x86)/gnu arm embedded toolchain/10 2020-q4-major/bin/../lib/gcc/arm-none-eabi/10.2.1/thumb/v7-m/nofp\libgcc.a
LOAD c:/program files (x86)/gnu arm embedded toolchain/10 2020-q4-major/bin/../lib/gcc/arm-none-eabi/10.2.1/../../../../arm-none-eabi/lib/thumb/v7-m/nofp\libc.a
LOAD c:/program files (x86)/gnu arm embedded toolchain/10 2020-q4-major/bin/../lib/gcc/arm-none-eabi/10.2.1/../../../../arm-none-eabi/lib/thumb/v7-m/nofp\libnosys.a
END GROUP
LOAD c:/program files (x86)/gnu arm embedded toolchain/10 2020-q4-major/bin/../lib/gcc/arm-none-eabi/10.2.1/thumb/v7-m/nofp/crtend.o
LOAD c:/program files (x86)/gnu arm embedded toolchain/10 2020-q4-major/bin/../lib/gcc/arm-none-eabi/10.2.1/thumb/v7-m/nofp/crtn.o
START GROUP
LOAD c:/program files (x86)/gnu arm embedded toolchain/10 2020-q4-major/bin/../lib/gcc/arm-none-eabi/10.2.1/thumb/v7-m/nofp\libgcc.a
LOAD c:/program files (x86)/gnu arm embedded toolchain/10 2020-q4-major/bin/../lib/gcc/arm-none-eabi/10.2.1/../../../../arm-none-eabi/lib/thumb/v7-m/nofp\libg.a
LOAD c:/program files (x86)/gnu arm embedded toolchain/10 2020-q4-major/bin/../lib/gcc/arm-none-eabi/10.2.1/../../../../arm-none-eabi/lib/thumb/v7-m/nofp\libc.a
LOAD c:/program files (x86)/gnu arm embedded toolchain/10 2020-q4-major/bin/../lib/gcc/arm-none-eabi/10.2.1/../../../../arm-none-eabi/lib/thumb/v7-m/nofp\libm.a
LOAD c:/program files (x86)/gnu arm embedded toolchain/10 2020-q4-major/bin/../lib/gcc/arm-none-eabi/10.2.1/../../../../arm-none-eabi/lib/thumb/v7-m/nofp\libnosys.a
END GROUP

.AHBSRAM0       0x2007c000     0x1dc8
                0x2007c000                Image$$RW_IRAM2$$Base = .
                0x2007c000                PROVIDE (__AHB0_block_start = .)
 *(AHBSRAM0)
 AHBSRAM0       0x2007c000      0x16c ./build/./RepRapFirmware/src/targets/LPC/Movement/StepperDrivers/TMCSoftUART.o
                0x2007c004                SUDmaBits
 AHBSRAM0       0x2007c16c       0x28 ./build/\libLPCCore.a(exti.o)
 AHBSRAM0       0x2007c194       0x58 ./build/\libLPCCore.a(Wire.o)
                0x2007c194                Wire
 *(.bss.*DataTransfer*)
 *(.bss.reprap)
 .bss.reprap    0x2007c1ec      0x3d0 ./build/./RepRapFirmware/src/RepRapFirmware.o
                0x2007c1ec                reprap
 *(.bss._*heaterTask)
 .bss._ZL10heaterTask
                0x2007c5bc      0x5b0 ./build/./RepRapFirmware/src/Heating/Heat.o
 *(.bss._*mainTask)
 .bss._ZL8mainTask
                0x2007cb6c      0xf78 ./build/./RepRapFirmware/src/Platform/Tasks.o
 *(.bss.*IdleTaskStack)
 *(.bss.*TimerTaskStack)
 *(.bss.*tcpPlusTask)
 *(.bss._time_locale)
 *(.bss.*Mutex*)
 .bss._ZL7fsMutex
                0x2007dae4       0x54 ./build/./RepRapFirmware/src/Storage/MassStorage.o
 .bss._ZL11mallocMutex
                0x2007db38       0x54 ./build/./RepRapFirmware/src/Platform/Tasks.o
 .bss._ZL14filamentsMutex
                0x2007db8c       0x54 ./build/./RepRapFirmware/src/Platform/Tasks.o
 .bss._ZL8i2cMutex
                0x2007dbe0       0x54 ./build/./RepRapFirmware/src/Platform/Tasks.o
 .bss._ZN14LinuxInterface15gcodeReplyMutexE
                0x2007dc34       0x54 ./build/./RepRapFirmware/src/Linux/LinuxInterface.o
                0x2007dc34                LinuxInterface::gcodeReplyMutex
 .bss._ZN5Mutex9mutexListE
                0x2007dc88        0x4 ./build/\libRRFLibraries.a(RTOSIface.o)
                0x2007dc88                Mutex::mutexList
 *(.bss.*Queue*)
 *(.bss.*TCB)
 .bss.pxCurrentTCB
                0x2007dc8c        0x4 ./build/\libLPCCore.a(tasks.o)
                0x2007dc8c                pxCurrentTCB
 *(.bss.xNetworkBuffers)
 *(.bss.*networkTask)
 *(.bss.*descriptors*)
 *(.bss.*HttpResponder*)
 *(.bss.*emacTask)
 *(.bss.*idleTask)
 .bss._ZL8idleTask
                0x2007dc90       0xd8 ./build/./RepRapFirmware/src/Platform/Tasks.o
 *(.bss.xARPCache)
 *(.bss.xDHCPData)
 *(.bss.*assembleConfigDescriptor*)
 *(.bss.*bufferIn)
 *(.bss.*bufferOut)
 *(.bss.*infoParser)
 *(.bss.*info)
 *(.bss.*files)
 .bss._ZL5files
                0x2007dd68       0x60 ./build/./RepRapFirmware/src/Storage/MassStorage.o
                0x2007ddc8                Image$$RW_IRAM2$$ZI$$Limit = .
                0x2007ddc8                PROVIDE (__AHB0_dyn_start = .)
                0x20084000                PROVIDE (__AHB0_end = (ORIGIN (AHB_RAM) + LENGTH (AHB_RAM)))

.text           0x00004000    0x62744
                0x00004000                _sfixed = .
 *(.isr_vector)
 .isr_vector    0x00004000       0xc4 ./build/\libLPCCore.a(startup_LPC17xx.o)
                0x00004000                g_pfnVectors
 *(.text*)
 .text          0x000040c4       0x40 c:/program files (x86)/gnu arm embedded toolchain/10 2020-q4-major/bin/../lib/gcc/arm-none-eabi/10.2.1/thumb/v7-m/nofp/crtbegin.o
 .text._Znwj    0x00004104       0x18 ./build/./CoreN2G/src/LPC/new.o
                0x00004104                operator new(unsigned int)
 .text._Znaj    0x0000411c        0x4 ./build/./CoreN2G/src/LPC/new.o
                0x0000411c                operator new[](unsigned int)
 .text._ZnwjSt11align_val_t
                0x00004120       0x18 ./build/./CoreN2G/src/LPC/new.o
                0x00004120                operator new(unsigned int, std::align_val_t)
 .text._ZdlPvj  0x00004138        0x4 ./build/./CoreN2G/src/LPC/new.o
                0x00004138                operator delete(void*, unsigned int)
 .text.memcmp   0x0000413c       0x20 ./build/./RepRapFirmware/src/libc/memcmp.o
                0x0000413c                memcmp
 .text.memcpy   0x0000415c       0x1c ./build/./RepRapFirmware/src/libc/memcpy.o
                0x0000415c                memcpy
 .text.memmove  0x00004178       0x34 ./build/./RepRapFirmware/src/libc/memmove.o
                0x00004178                memmove
 .text.memset   0x000041ac       0x10 ./build/./RepRapFirmware/src/libc/memset.o
                0x000041ac                memset
 .text.malloc   0x000041bc        0x4 ./build/./RepRapFirmware/src/libc/nano-mallocr.o
                0x000041bc                malloc
 .text.free     0x000041c0        0x4 ./build/./RepRapFirmware/src/libc/nano-mallocr.o
                0x000041c0                free
 .text.__cxa_allocate_exception
                0x000041c4       0x1e ./build/./RepRapFirmware/src/libcpp/eh_alloc.o
                0x000041c4                __cxa_allocate_exception
 .text.__cxa_free_exception
                0x000041e2        0x6 ./build/./RepRapFirmware/src/libcpp/eh_alloc.o
                0x000041e2                __cxa_free_exception
 .text._Z12SafeStrptimePKcS0_P2tm
                0x000041e8      0x208 ./build/./RepRapFirmware/src/libc/strptime.o
                0x000041e8                SafeStrptime(char const*, char const*, tm*)
 .text.Default_Handler
                0x000043f0        0x4 ./build/\libLPCCore.a(startup_LPC17xx.o)
                0x000043f0                CAN_IRQHandler
                0x000043f0                EINT2_IRQHandler
                0x000043f0                ADC_IRQHandler
                0x000043f0                TIMER3_IRQHandler
                0x000043f0                QEI_IRQHandler
                0x000043f0                UART2_IRQHandler
                0x000043f0                BOD_IRQHandler
                0x000043f0                EINT0_IRQHandler
                0x000043f0                RTC_IRQHandler
                0x000043f0                I2C1_IRQHandler
                0x000043f0                I2S_IRQHandler
                0x000043f0                PLL0_IRQHandler
                0x000043f0                PWM1_IRQHandler
                0x000043f0                MCPWM_IRQHandler
                0x000043f0                Default_Handler
                0x000043f0                I2C2_IRQHandler
                0x000043f0                ENET_IRQHandler
                0x000043f0                TIMER1_IRQHandler
                0x000043f0                PLL1_IRQHandler
                0x000043f0                UART1_IRQHandler
                0x000043f0                EINT1_IRQHandler
                0x000043f0                TIMER2_IRQHandler
                0x000043f0                I2C0_IRQHandler
                0x000043f0                SPI_IRQHandler
 .text.Reset_Handler
                0x000043f4       0x6c ./build/\libLPCCore.a(startup_LPC17xx.o)
                0x000043f4                Reset_Handler
 .text._sbrk    0x00004460       0x24 ./build/\libLPCCore.a(main.o)
                0x00004460                _sbrk
 .text._Z18CoreAllocPermanentjSt11align_val_t
                0x00004484        0xe ./build/\libLPCCore.a(main.o)
                0x00004484                CoreAllocPermanent(unsigned int, std::align_val_t)
 .text._exit    0x00004492        0x2 ./build/\libLPCCore.a(main.o)
                0x00004492                _exit
 .text._kill    0x00004494        0x2 ./build/\libLPCCore.a(main.o)
                0x00004494                _kill
 .text._getpid  0x00004496        0x6 ./build/\libLPCCore.a(main.o)
                0x00004496                _getpid
 .text.startup.main
                0x0000449c       0x68 ./build/\libLPCCore.a(main.o)
                0x0000449c                main
 .text._Z4initv
                0x00004504        0x2 ./build/\libLPCCore.a(variant.o)
                0x00004504                init()
 *fill*         0x00004506        0x2 
 .text.prvInsertBlockIntoFreeList
                0x00004508       0x48 ./build/\libLPCCore.a(heap_5.o)
 .text.pvPortMalloc
                0x00004550       0xcc ./build/\libLPCCore.a(heap_5.o)
                0x00004550                pvPortMalloc
 .text.pvPortMallocPermanent
                0x0000461c       0x12 ./build/\libLPCCore.a(heap_5.o)
                0x0000461c                pvPortMallocPermanent
 *fill*         0x0000462e        0x2 
 .text.vPortFree
                0x00004630       0x80 ./build/\libLPCCore.a(heap_5.o)
                0x00004630                vPortFree
 .text.xPortGetFreeHeapSize
                0x000046b0        0xc ./build/\libLPCCore.a(heap_5.o)
                0x000046b0                xPortGetFreeHeapSize
 .text.xPortGetMinimumEverFreeHeapSize
                0x000046bc        0xc ./build/\libLPCCore.a(heap_5.o)
                0x000046bc                xPortGetMinimumEverFreeHeapSize
 .text.vPortDefineHeapRegions
                0x000046c8       0xd4 ./build/\libLPCCore.a(heap_5.o)
                0x000046c8                vPortDefineHeapRegions
 .text.vPortGetHeapStats
                0x0000479c       0x84 ./build/\libLPCCore.a(heap_5.o)
                0x0000479c                vPortGetHeapStats
 .text.SysTick_Init
                0x00004820       0x1c ./build/\libLPCCore.a(systick.o)
                0x00004820                SysTick_Init
 .text.SystemInit
                0x0000483c      0x134 ./build/\libLPCCore.a(system_LPC17xx.o)
                0x0000483c                SystemInit
 .text.prvIdleTask
                0x00004970       0x5c ./build/\libLPCCore.a(tasks.o)
 .text.prvAddCurrentTaskToDelayedList
                0x000049cc       0x88 ./build/\libLPCCore.a(tasks.o)
 .text.prvResetNextTaskUnblockTime
                0x00004a54       0x24 ./build/\libLPCCore.a(tasks.o)
 .text.xTaskCreateStatic
                0x00004a78      0x1e0 ./build/\libLPCCore.a(tasks.o)
                0x00004a78                xTaskCreateStatic
 .text.vTaskDelete
                0x00004c58       0xc8 ./build/\libLPCCore.a(tasks.o)
                0x00004c58                vTaskDelete
 .text.vTaskStartScheduler
                0x00004d20       0x74 ./build/\libLPCCore.a(tasks.o)
                0x00004d20                vTaskStartScheduler
 .text.vTaskSuspendAll
                0x00004d94       0x10 ./build/\libLPCCore.a(tasks.o)
                0x00004d94                vTaskSuspendAll
 .text.xTaskGetTickCount
                0x00004da4        0xc ./build/\libLPCCore.a(tasks.o)
                0x00004da4                xTaskGetTickCount
 .text.pcTaskGetName
                0x00004db0       0x24 ./build/\libLPCCore.a(tasks.o)
                0x00004db0                pcTaskGetName
 .text.xTaskIncrementTick
                0x00004dd4      0x12c ./build/\libLPCCore.a(tasks.o)
                0x00004dd4                xTaskIncrementTick
 .text.xTaskResumeAll
                0x00004f00       0xe8 ./build/\libLPCCore.a(tasks.o)
                0x00004f00                xTaskResumeAll
 .text.vTaskDelayUntil
                0x00004fe8       0x80 ./build/\libLPCCore.a(tasks.o)
                0x00004fe8                vTaskDelayUntil
 .text.vTaskDelay
                0x00005068       0x4c ./build/\libLPCCore.a(tasks.o)
                0x00005068                vTaskDelay
 .text.vTaskSwitchContext
                0x000050b4       0xc0 ./build/\libLPCCore.a(tasks.o)
                0x000050b4                vTaskSwitchContext
 .text.vTaskSuspend
                0x00005174       0xd4 ./build/\libLPCCore.a(tasks.o)
                0x00005174                vTaskSuspend
 .text.vTaskPlaceOnEventList
                0x00005248       0x34 ./build/\libLPCCore.a(tasks.o)
                0x00005248                vTaskPlaceOnEventList
 .text.xTaskRemoveFromEventList
                0x0000527c       0x80 ./build/\libLPCCore.a(tasks.o)
                0x0000527c                xTaskRemoveFromEventList
 .text.vTaskInternalSetTimeOutState
                0x000052fc       0x18 ./build/\libLPCCore.a(tasks.o)
                0x000052fc                vTaskInternalSetTimeOutState
 .text.xTaskCheckForTimeOut
                0x00005314       0x6c ./build/\libLPCCore.a(tasks.o)
                0x00005314                xTaskCheckForTimeOut
 .text.vTaskMissedYield
                0x00005380        0xc ./build/\libLPCCore.a(tasks.o)
                0x00005380                vTaskMissedYield
 .text.xTaskGetCurrentTaskHandle
                0x0000538c        0xc ./build/\libLPCCore.a(tasks.o)
                0x0000538c                xTaskGetCurrentTaskHandle
 .text.xTaskGetSchedulerState
                0x00005398       0x20 ./build/\libLPCCore.a(tasks.o)
                0x00005398                xTaskGetSchedulerState
 .text.xTaskPriorityInherit
                0x000053b8       0x94 ./build/\libLPCCore.a(tasks.o)
                0x000053b8                xTaskPriorityInherit
 .text.xTaskPriorityDisinherit
                0x0000544c       0x98 ./build/\libLPCCore.a(tasks.o)
                0x0000544c                xTaskPriorityDisinherit
 .text.vTaskPriorityDisinheritAfterTimeout
                0x000054e4       0xa4 ./build/\libLPCCore.a(tasks.o)
                0x000054e4                vTaskPriorityDisinheritAfterTimeout
 .text.pvTaskIncrementMutexHeldCount
                0x00005588       0x18 ./build/\libLPCCore.a(tasks.o)
                0x00005588                pvTaskIncrementMutexHeldCount
 .text.ulTaskNotifyTake
                0x000055a0       0x64 ./build/\libLPCCore.a(tasks.o)
                0x000055a0                ulTaskNotifyTake
 .text.xTaskGenericNotify
                0x00005604       0xd4 ./build/\libLPCCore.a(tasks.o)
                0x00005604                xTaskGenericNotify
 .text.vTaskNotifyGiveFromISR
                0x000056d8       0xb8 ./build/\libLPCCore.a(tasks.o)
                0x000056d8                vTaskNotifyGiveFromISR
 .text.CheckSPCurrentTaskStack
                0x00005790       0x28 ./build/\libLPCCore.a(tasks.o)
                0x00005790                CheckSPCurrentTaskStack
 .text.eTaskGetExtendedState
                0x000057b8       0x9c ./build/\libLPCCore.a(tasks.o)
                0x000057b8                eTaskGetExtendedState
 .text.vTaskGetExtendedInfo
                0x00005854       0x4c ./build/\libLPCCore.a(tasks.o)
                0x00005854                vTaskGetExtendedInfo
 .text.prvPortStartFirstTask
                0x000058a0       0x20 ./build/\libLPCCore.a(port.o)
 .text.prvTaskExitError
                0x000058c0       0x3c ./build/\libLPCCore.a(port.o)
 .text.pxPortInitialiseStack
                0x000058fc       0x24 ./build/\libLPCCore.a(port.o)
                0x000058fc                pxPortInitialiseStack
 .text.SVC_Handler
                0x00005920       0x24 ./build/\libLPCCore.a(port.o)
                0x00005920                SVC_Handler
 .text.vPortEnterCritical
                0x00005944       0x3c ./build/\libLPCCore.a(port.o)
                0x00005944                vPortEnterCritical
 .text.vPortExitCritical
                0x00005980       0x28 ./build/\libLPCCore.a(port.o)
                0x00005980                vPortExitCritical
 *fill*         0x000059a8        0x8 
 .text.PendSV_Handler
                0x000059b0       0x44 ./build/\libLPCCore.a(port.o)
                0x000059b0                PendSV_Handler
 .text.SysTick_Handler
                0x000059f4       0x2c ./build/\libLPCCore.a(port.o)
                0x000059f4                SysTick_Handler
 .text.vPortSetupTimerInterrupt
                0x00005a20       0x24 ./build/\libLPCCore.a(port.o)
                0x00005a20                vPortSetupTimerInterrupt
 .text.xPortStartScheduler
                0x00005a44       0xb8 ./build/\libLPCCore.a(port.o)
                0x00005a44                xPortStartScheduler
 .text.vPortValidateInterruptPriority
                0x00005afc       0x54 ./build/\libLPCCore.a(port.o)
                0x00005afc                vPortValidateInterruptPriority
 .text.Chip_Clock_EnablePLL
                0x00005b50       0x24 ./build/\libLPCCore.a(clock_17xx_40xx.o)
                0x00005b50                Chip_Clock_EnablePLL
 .text.Chip_Clock_DisablePLL
                0x00005b74       0x26 ./build/\libLPCCore.a(clock_17xx_40xx.o)
                0x00005b74                Chip_Clock_DisablePLL
 .text.Chip_Clock_SetupPLL
                0x00005b9a       0x30 ./build/\libLPCCore.a(clock_17xx_40xx.o)
                0x00005b9a                Chip_Clock_SetupPLL
 *fill*         0x00005bca        0x2 
 .text.Chip_Clock_EnablePeriphClock
                0x00005bcc       0x18 ./build/\libLPCCore.a(clock_17xx_40xx.o)
                0x00005bcc                Chip_Clock_EnablePeriphClock
 .text.Chip_Clock_DisablePeriphClock
                0x00005be4       0x18 ./build/\libLPCCore.a(clock_17xx_40xx.o)
                0x00005be4                Chip_Clock_DisablePeriphClock
 .text.Chip_Clock_GetCPUClockSource
                0x00005bfc       0x10 ./build/\libLPCCore.a(clock_17xx_40xx.o)
                0x00005bfc                Chip_Clock_GetCPUClockSource
 .text.Chip_Clock_SetCPUClockDiv
                0x00005c0c        0xc ./build/\libLPCCore.a(clock_17xx_40xx.o)
                0x00005c0c                Chip_Clock_SetCPUClockDiv
 .text.Chip_Clock_GetCPUClockDiv
                0x00005c18       0x10 ./build/\libLPCCore.a(clock_17xx_40xx.o)
                0x00005c18                Chip_Clock_GetCPUClockDiv
 .text.Chip_Clock_SetPCLKDiv
                0x00005c28       0x2a ./build/\libLPCCore.a(clock_17xx_40xx.o)
                0x00005c28                Chip_Clock_SetPCLKDiv
 *fill*         0x00005c52        0x2 
 .text.Chip_Clock_GetPCLKDiv
                0x00005c54       0x38 ./build/\libLPCCore.a(clock_17xx_40xx.o)
                0x00005c54                Chip_Clock_GetPCLKDiv
 .text.Chip_Clock_GetSYSCLKRate
                0x00005c8c       0x38 ./build/\libLPCCore.a(clock_17xx_40xx.o)
                0x00005c8c                Chip_Clock_GetSYSCLKRate
 .text.Chip_Clock_GetMainPLLOutClockRate
                0x00005cc4       0x34 ./build/\libLPCCore.a(clock_17xx_40xx.o)
                0x00005cc4                Chip_Clock_GetMainPLLOutClockRate
 .text.Chip_Clock_GetMainClockRate
                0x00005cf8       0x20 ./build/\libLPCCore.a(clock_17xx_40xx.o)
                0x00005cf8                Chip_Clock_GetMainClockRate
 .text.Chip_Clock_GetSystemClockRate
                0x00005d18       0x12 ./build/\libLPCCore.a(clock_17xx_40xx.o)
                0x00005d18                Chip_Clock_GetSystemClockRate
 .text.Chip_Clock_GetPeripheralClockRate
                0x00005d2a       0x16 ./build/\libLPCCore.a(clock_17xx_40xx.o)
                0x00005d2a                Chip_Clock_GetPeripheralClockRate
 .text.iap_entry
                0x00005d40        0x8 ./build/\libLPCCore.a(iap.o)
 .text.Chip_IAP_PreSectorForReadWrite
                0x00005d48       0x1e ./build/\libLPCCore.a(iap.o)
                0x00005d48                Chip_IAP_PreSectorForReadWrite
 *fill*         0x00005d66        0x2 
 .text.Chip_IAP_CopyRamToFlash
                0x00005d68       0x34 ./build/\libLPCCore.a(iap.o)
                0x00005d68                Chip_IAP_CopyRamToFlash
 .text.Chip_IAP_EraseSector
                0x00005d9c       0x30 ./build/\libLPCCore.a(iap.o)
                0x00005d9c                Chip_IAP_EraseSector
 .text.Chip_IAP_ReadPID
                0x00005dcc       0x18 ./build/\libLPCCore.a(iap.o)
                0x00005dcc                Chip_IAP_ReadPID
 .text.vListInitialise
                0x00005de4       0x16 ./build/\libLPCCore.a(list.o)
                0x00005de4                vListInitialise
 .text.vListInitialiseItem
                0x00005dfa        0x6 ./build/\libLPCCore.a(list.o)
                0x00005dfa                vListInitialiseItem
 .text.vListInsertEnd
                0x00005e00       0x18 ./build/\libLPCCore.a(list.o)
                0x00005e00                vListInsertEnd
 .text.vListInsert
                0x00005e18       0x2e ./build/\libLPCCore.a(list.o)
                0x00005e18                vListInsert
 .text.uxListRemove
                0x00005e46       0x20 ./build/\libLPCCore.a(list.o)
                0x00005e46                uxListRemove
 .text.ld_dword
                0x00005e66        0x4 ./build/./RepRapFirmware/src/targets/common/FatFS/ff.o
 .text.st_dword
                0x00005e6a       0x10 ./build/./RepRapFirmware/src/targets/common/FatFS/ff.o
 .text.clst2sect
                0x00005e7a       0x16 ./build/./RepRapFirmware/src/targets/common/FatFS/ff.o
 .text.st_clust
                0x00005e90       0x18 ./build/./RepRapFirmware/src/targets/common/FatFS/ff.o
 .text.sum_sfn  0x00005ea8       0x1e ./build/./RepRapFirmware/src/targets/common/FatFS/ff.o
 .text.get_ldnumber
                0x00005ec6       0x38 ./build/./RepRapFirmware/src/targets/common/FatFS/ff.o
 .text.sync_window
                0x00005efe       0x48 ./build/./RepRapFirmware/src/targets/common/FatFS/ff.o
 .text.move_window
                0x00005f46       0x32 ./build/./RepRapFirmware/src/targets/common/FatFS/ff.o
 .text.check_fs
                0x00005f78       0x6c ./build/./RepRapFirmware/src/targets/common/FatFS/ff.o
 .text.put_fat  0x00005fe4       0xf8 ./build/./RepRapFirmware/src/targets/common/FatFS/ff.o
 .text.unlock_fs
                0x000060dc       0x16 ./build/./RepRapFirmware/src/targets/common/FatFS/ff.o
 .text.dir_clear
                0x000060f2       0x52 ./build/./RepRapFirmware/src/targets/common/FatFS/ff.o
 .text.sync_fs  0x00006144       0x96 ./build/./RepRapFirmware/src/targets/common/FatFS/ff.o
 .text.ld_clust.isra.0
                0x000061da       0x10 ./build/./RepRapFirmware/src/targets/common/FatFS/ff.o
 .text.get_fat.isra.0
                0x000061ea       0xac ./build/./RepRapFirmware/src/targets/common/FatFS/ff.o
 .text.remove_chain.isra.0
                0x00006296       0x6a ./build/./RepRapFirmware/src/targets/common/FatFS/ff.o
 .text.create_chain.isra.0
                0x00006300       0xde ./build/./RepRapFirmware/src/targets/common/FatFS/ff.o
 .text.dir_next
                0x000063de       0xaa ./build/./RepRapFirmware/src/targets/common/FatFS/ff.o
 .text.dir_sdi  0x00006488       0x82 ./build/./RepRapFirmware/src/targets/common/FatFS/ff.o
 *fill*         0x0000650a        0x2 
 .text.dir_find
                0x0000650c      0x148 ./build/./RepRapFirmware/src/targets/common/FatFS/ff.o
 .text.dir_register
                0x00006654      0x28c ./build/./RepRapFirmware/src/targets/common/FatFS/ff.o
 .text.find_volume
                0x000068e0      0x260 ./build/./RepRapFirmware/src/targets/common/FatFS/ff.o
 .text.follow_path
                0x00006b40      0x31c ./build/./RepRapFirmware/src/targets/common/FatFS/ff.o
 .text.validate
                0x00006e5c       0x50 ./build/./RepRapFirmware/src/targets/common/FatFS/ff.o
 .text.f_mount  0x00006eac       0x70 ./build/./RepRapFirmware/src/targets/common/FatFS/ff.o
                0x00006eac                f_mount
 .text.f_open   0x00006f1c      0x1a4 ./build/./RepRapFirmware/src/targets/common/FatFS/ff.o
                0x00006f1c                f_open
 .text.f_read   0x000070c0      0x158 ./build/./RepRapFirmware/src/targets/common/FatFS/ff.o
                0x000070c0                f_read
 .text.f_write  0x00007218      0x1a2 ./build/./RepRapFirmware/src/targets/common/FatFS/ff.o
                0x00007218                f_write
 .text.f_sync   0x000073ba       0x76 ./build/./RepRapFirmware/src/targets/common/FatFS/ff.o
                0x000073ba                f_sync
 .text.f_close  0x00007430       0x28 ./build/./RepRapFirmware/src/targets/common/FatFS/ff.o
                0x00007430                f_close
 .text.f_lseek  0x00007458      0x126 ./build/./RepRapFirmware/src/targets/common/FatFS/ff.o
                0x00007458                f_lseek
 *fill*         0x0000757e        0x2 
 .text.ff_uni2oem
                0x00007580       0x40 ./build/./RepRapFirmware/src/targets/common/FatFS/ffunicode.o
                0x00007580                ff_uni2oem
 .text.ff_wtoupper
                0x000075c0       0x8c ./build/./RepRapFirmware/src/targets/common/FatFS/ffunicode.o
                0x000075c0                ff_wtoupper
 .text._ZN12function_refIFvjjEE11callback_fnIZ11ListDriversRK9StringRef6BitmapImEEUljjE_EEvPvjj
                0x0000764c       0x10 ./build/./RepRapFirmware/src/RepRapFirmware.o
 .text._ZN6RepRapD2Ev
                0x0000765c       0x24 ./build/./RepRapFirmware/src/RepRapFirmware.o
                0x0000765c                RepRap::~RepRap()
                0x0000765c                RepRap::~RepRap()
 .text._Z20GetFloatFormatStringj
                0x00007680       0x14 ./build/./RepRapFirmware/src/RepRapFirmware.o
                0x00007680                GetFloatFormatString(unsigned int)
 .text._Z13GetModuleNameh
                0x00007694       0x18 ./build/./RepRapFirmware/src/RepRapFirmware.o
                0x00007694                GetModuleName(unsigned char)
 .text._ZN11MillisTimer5StartEv
                0x000076ac       0x10 ./build/./RepRapFirmware/src/RepRapFirmware.o
                0x000076ac                MillisTimer::Start()
 .text._ZNK11MillisTimer5CheckEm
                0x000076bc       0x1c ./build/./RepRapFirmware/src/RepRapFirmware.o
                0x000076bc                MillisTimer::Check(unsigned long) const
 .text._ZN11MillisTimer12CheckAndStopEm
                0x000076d8       0x10 ./build/./RepRapFirmware/src/RepRapFirmware.o
                0x000076d8                MillisTimer::CheckAndStop(unsigned long)
 .text.debugPrintf
                0x000076e8       0x2c ./build/./RepRapFirmware/src/RepRapFirmware.o
                0x000076e8                debugPrintf
 *fill*         0x00007714        0x4 
 .text._Z7HideNanf
                0x00007718       0x44 ./build/./RepRapFirmware/src/RepRapFirmware.o
                0x00007718                HideNan(float)
 .text._Z11ListDriversRK9StringRef6BitmapImE
                0x0000775c       0x2e ./build/./RepRapFirmware/src/RepRapFirmware.o
                0x0000775c                ListDrivers(StringRef const&, Bitmap<unsigned long>)
 .text._ZN6RepRapD0Ev
                0x0000778a       0x16 ./build/./RepRapFirmware/src/RepRapFirmware.o
                0x0000778a                RepRap::~RepRap()
 .text.startup._GLOBAL__sub_I_reprap
                0x000077a0       0x24 ./build/./RepRapFirmware/src/RepRapFirmware.o
 .text._ZN21Duet3DFilamentMonitor9InterruptEv
                0x000077c4       0x68 ./build/./RepRapFirmware/src/FilamentMonitors/Duet3DFilamentMonitor.o
                0x000077c4                Duet3DFilamentMonitor::Interrupt()
 .text._ZN21Duet3DFilamentMonitor17InitReceiveBufferEv
                0x0000782c       0x1a ./build/./RepRapFirmware/src/FilamentMonitors/Duet3DFilamentMonitor.o
                0x0000782c                Duet3DFilamentMonitor::InitReceiveBuffer()
 *fill*         0x00007846        0x2 
 .text._ZN21Duet3DFilamentMonitorC2Ejj
                0x00007848       0x20 ./build/./RepRapFirmware/src/FilamentMonitors/Duet3DFilamentMonitor.o
                0x00007848                Duet3DFilamentMonitor::Duet3DFilamentMonitor(unsigned int, unsigned int)
                0x00007848                Duet3DFilamentMonitor::Duet3DFilamentMonitor(unsigned int, unsigned int)
 .text._ZN21Duet3DFilamentMonitor17PollReceiveBufferERt
                0x00007868      0x1dc ./build/./RepRapFirmware/src/FilamentMonitors/Duet3DFilamentMonitor.o
                0x00007868                Duet3DFilamentMonitor::PollReceiveBuffer(unsigned short&)
 .text._ZNK21Duet3DFilamentMonitor11IsReceivingEv
                0x00007a44       0x10 ./build/./RepRapFirmware/src/FilamentMonitors/Duet3DFilamentMonitor.o
                0x00007a44                Duet3DFilamentMonitor::IsReceiving() const
 .text._ZNK21Duet3DFilamentMonitor20IsWaitingForStartBitEv
                0x00007a54        0xc ./build/./RepRapFirmware/src/FilamentMonitors/Duet3DFilamentMonitor.o
                0x00007a54                Duet3DFilamentMonitor::IsWaitingForStartBit() const
 .text._ZN15FilamentMonitor7DisableEv
                0x00007a60        0x6 ./build/./RepRapFirmware/src/FilamentMonitors/FilamentMonitor.o
                0x00007a60                FilamentMonitor::Disable()
 *fill*         0x00007a66        0x2 
 .text._ZN15FilamentMonitor14InterruptEntryE17CallbackParameter
                0x00007a68       0x2c ./build/./RepRapFirmware/src/FilamentMonitors/FilamentMonitor.o
                0x00007a68                FilamentMonitor::InterruptEntry(CallbackParameter)
 .text._ZN11WriteLockerD2Ev
                0x00007a94       0x10 ./build/./RepRapFirmware/src/FilamentMonitors/FilamentMonitor.o
                0x00007a94                WriteLocker::~WriteLocker()
                0x00007a94                WriteLocker::~WriteLocker()
 .text._ZN15FilamentMonitor22GetNumMonitorsToReportEv
                0x00007aa4       0x18 ./build/./RepRapFirmware/src/FilamentMonitors/FilamentMonitor.o
                0x00007aa4                FilamentMonitor::GetNumMonitorsToReport()
 .text._ZN15FilamentMonitorC2Ejj
                0x00007abc       0x3c ./build/./RepRapFirmware/src/FilamentMonitors/FilamentMonitor.o
                0x00007abc                FilamentMonitor::FilamentMonitor(unsigned int, unsigned int)
                0x00007abc                FilamentMonitor::FilamentMonitor(unsigned int, unsigned int)
 .text._ZN15FilamentMonitorD2Ev
                0x00007af8       0x18 ./build/./RepRapFirmware/src/FilamentMonitors/FilamentMonitor.o
                0x00007af8                FilamentMonitor::~FilamentMonitor()
                0x00007af8                FilamentMonitor::~FilamentMonitor()
 .text._ZN15FilamentMonitor15CommonConfigureER11GCodeBufferRK9StringRef13InterruptModeRb
                0x00007b10       0x68 ./build/./RepRapFirmware/src/FilamentMonitors/FilamentMonitor.o
                0x00007b10                FilamentMonitor::CommonConfigure(GCodeBuffer&, StringRef const&, InterruptMode, bool&)
 .text._ZNK15FilamentMonitor7IsValidEv
                0x00007b78       0x28 ./build/./RepRapFirmware/src/FilamentMonitors/FilamentMonitor.o
                0x00007b78                FilamentMonitor::IsValid() const
 .text._ZN15FilamentMonitor10InitStaticEv
                0x00007ba0        0x2 ./build/./RepRapFirmware/src/FilamentMonitors/FilamentMonitor.o
                0x00007ba0                FilamentMonitor::InitStatic()
 *fill*         0x00007ba2        0x2 
 .text._ZN15FilamentMonitor6CreateEjjR11GCodeBufferRK9StringRef
                0x00007ba4       0x78 ./build/./RepRapFirmware/src/FilamentMonitors/FilamentMonitor.o
                0x00007ba4                FilamentMonitor::Create(unsigned int, unsigned int, GCodeBuffer&, StringRef const&)
 .text._ZN15FilamentMonitor9ConfigureER11GCodeBufferRK9StringRefj
                0x00007c1c      0x10c ./build/./RepRapFirmware/src/FilamentMonitors/FilamentMonitor.o
                0x00007c1c                FilamentMonitor::Configure(GCodeBuffer&, StringRef const&, unsigned int)
 .text._ZN15FilamentMonitor4SpinEv
                0x00007d28      0x118 ./build/./RepRapFirmware/src/FilamentMonitors/FilamentMonitor.o
                0x00007d28                FilamentMonitor::Spin()
 .text._ZN15FilamentMonitor11DiagnosticsE11MessageType
                0x00007e40       0x4c ./build/./RepRapFirmware/src/FilamentMonitors/FilamentMonitor.o
                0x00007e40                FilamentMonitor::Diagnostics(MessageType)
 .text._ZN15FilamentMonitor21CheckDriveAssignmentsERK9StringRef
                0x00007e8c       0x64 ./build/./RepRapFirmware/src/FilamentMonitors/FilamentMonitor.o
                0x00007e8c                FilamentMonitor::CheckDriveAssignments(StringRef const&)
 .text.startup._GLOBAL__sub_I__ZN15FilamentMonitor20filamentMonitorsLockE
                0x00007ef0       0x10 ./build/./RepRapFirmware/src/FilamentMonitors/FilamentMonitor.o
 .text._ZN20LaserFilamentMonitorUlPK11ObjectModelR24ObjectExplorationContextE0_4_FUNES2_S4_
                0x00007f00       0x1a ./build/./RepRapFirmware/src/FilamentMonitors/LaserFilamentMonitor.o
 .text._ZN20LaserFilamentMonitorUlPK11ObjectModelR24ObjectExplorationContextE1_4_FUNES2_S4_
                0x00007f1a        0xc ./build/./RepRapFirmware/src/FilamentMonitors/LaserFilamentMonitor.o
 *fill*         0x00007f26        0x2 
 .text._ZN20LaserFilamentMonitorUlPK11ObjectModelR24ObjectExplorationContextE3_4_FUNES2_S4_
                0x00007f28       0x10 ./build/./RepRapFirmware/src/FilamentMonitors/LaserFilamentMonitor.o
 .text._ZN20LaserFilamentMonitorUlPK11ObjectModelR24ObjectExplorationContextE7_4_FUNES2_S4_
                0x00007f38        0xe ./build/./RepRapFirmware/src/FilamentMonitors/LaserFilamentMonitor.o
 .text._ZN20LaserFilamentMonitorUlPK11ObjectModelR24ObjectExplorationContextE8_4_FUNES2_S4_
                0x00007f46        0xe ./build/./RepRapFirmware/src/FilamentMonitors/LaserFilamentMonitor.o
 .text._ZN20LaserFilamentMonitorUlPK11ObjectModelR24ObjectExplorationContextE11_4_FUNES2_S4_
                0x00007f54        0xe ./build/./RepRapFirmware/src/FilamentMonitors/LaserFilamentMonitor.o
 *fill*         0x00007f62        0x2 
 .text._ZNK20LaserFilamentMonitor29GetObjectModelClassDescriptorEv
                0x00007f64        0x8 ./build/./RepRapFirmware/src/FilamentMonitors/LaserFilamentMonitor.o
                0x00007f64                LaserFilamentMonitor::GetObjectModelClassDescriptor() const
 .text._ZN20LaserFilamentMonitorUlPK11ObjectModelR24ObjectExplorationContextE2_4_FUNES2_S4_
                0x00007f6c       0x28 ./build/./RepRapFirmware/src/FilamentMonitors/LaserFilamentMonitor.o
 .text._ZN20LaserFilamentMonitorD2Ev
                0x00007f94       0x14 ./build/./RepRapFirmware/src/FilamentMonitors/LaserFilamentMonitor.o
                0x00007f94                LaserFilamentMonitor::~LaserFilamentMonitor()
                0x00007f94                LaserFilamentMonitor::~LaserFilamentMonitor()
 .text._ZN20LaserFilamentMonitorD0Ev
                0x00007fa8       0x16 ./build/./RepRapFirmware/src/FilamentMonitors/LaserFilamentMonitor.o
                0x00007fa8                LaserFilamentMonitor::~LaserFilamentMonitor()
 *fill*         0x00007fbe        0x2 
 .text._ZN15FilamentMonitor16ConvertToPercentEf
                0x00007fc0       0x14 ./build/./RepRapFirmware/src/FilamentMonitors/LaserFilamentMonitor.o
                0x00007fc0                FilamentMonitor::ConvertToPercent(float)
 .text._ZN20LaserFilamentMonitorUlPK11ObjectModelR24ObjectExplorationContextE10_4_FUNES2_S4_
                0x00007fd4       0x16 ./build/./RepRapFirmware/src/FilamentMonitors/LaserFilamentMonitor.o
 .text._ZN20LaserFilamentMonitorUlPK11ObjectModelR24ObjectExplorationContextE9_4_FUNES2_S4_
                0x00007fea       0x16 ./build/./RepRapFirmware/src/FilamentMonitors/LaserFilamentMonitor.o
 .text._ZN20LaserFilamentMonitorUlPK11ObjectModelR24ObjectExplorationContextE5_4_FUNES2_S4_
                0x00008000       0x16 ./build/./RepRapFirmware/src/FilamentMonitors/LaserFilamentMonitor.o
 .text._ZN20LaserFilamentMonitorUlPK11ObjectModelR24ObjectExplorationContextE4_4_FUNES2_S4_
                0x00008016       0x16 ./build/./RepRapFirmware/src/FilamentMonitors/LaserFilamentMonitor.o
 .text._ZN20LaserFilamentMonitorUlPK11ObjectModelR24ObjectExplorationContextE6_4_FUNES2_S4_
                0x0000802c       0x20 ./build/./RepRapFirmware/src/FilamentMonitors/LaserFilamentMonitor.o
 .text._ZN20LaserFilamentMonitor5ResetEv
                0x0000804c       0x22 ./build/./RepRapFirmware/src/FilamentMonitors/LaserFilamentMonitor.o
                0x0000804c                LaserFilamentMonitor::Reset()
 .text._ZN20LaserFilamentMonitor4InitEv
                0x0000806e       0x36 ./build/./RepRapFirmware/src/FilamentMonitors/LaserFilamentMonitor.o
                0x0000806e                LaserFilamentMonitor::Init()
 .text._ZN20LaserFilamentMonitorC2Ejj
                0x000080a4       0x58 ./build/./RepRapFirmware/src/FilamentMonitors/LaserFilamentMonitor.o
                0x000080a4                LaserFilamentMonitor::LaserFilamentMonitor(unsigned int, unsigned int)
                0x000080a4                LaserFilamentMonitor::LaserFilamentMonitor(unsigned int, unsigned int)
 .text._ZNK20LaserFilamentMonitor19HaveCalibrationDataEv
                0x000080fc       0x24 ./build/./RepRapFirmware/src/FilamentMonitors/LaserFilamentMonitor.o
                0x000080fc                LaserFilamentMonitor::HaveCalibrationData() const
 .text._ZN20LaserFilamentMonitor9ConfigureER11GCodeBufferRK9StringRefRb
                0x00008120      0x268 ./build/./RepRapFirmware/src/FilamentMonitors/LaserFilamentMonitor.o
                0x00008120                LaserFilamentMonitor::Configure(GCodeBuffer&, StringRef const&, bool&)
 .text._ZN20LaserFilamentMonitorUlPK11ObjectModelR24ObjectExplorationContextE_4_FUNES2_S4_
                0x00008388       0x28 ./build/./RepRapFirmware/src/FilamentMonitors/LaserFilamentMonitor.o
 .text._ZNK20LaserFilamentMonitor18GetCurrentPositionEv
                0x000083b0       0x3c ./build/./RepRapFirmware/src/FilamentMonitors/LaserFilamentMonitor.o
                0x000083b0                LaserFilamentMonitor::GetCurrentPosition() const
 .text._ZN20LaserFilamentMonitor18HandleIncomingDataEv
                0x000083ec      0x1b0 ./build/./RepRapFirmware/src/FilamentMonitors/LaserFilamentMonitor.o
                0x000083ec                LaserFilamentMonitor::HandleIncomingData()
 .text._ZN20LaserFilamentMonitor5ClearEv
                0x0000859c       0x44 ./build/./RepRapFirmware/src/FilamentMonitors/LaserFilamentMonitor.o
                0x0000859c                LaserFilamentMonitor::Clear()
 .text._ZN20LaserFilamentMonitor13CheckFilamentEffb
                0x000085e0      0x1a4 ./build/./RepRapFirmware/src/FilamentMonitors/LaserFilamentMonitor.o
                0x000085e0                LaserFilamentMonitor::CheckFilament(float, float, bool)
 .text._ZN20LaserFilamentMonitor5CheckEbbmf
                0x00008784      0x120 ./build/./RepRapFirmware/src/FilamentMonitors/LaserFilamentMonitor.o
                0x00008784                LaserFilamentMonitor::Check(bool, bool, unsigned long, float)
 .text._ZN6StringILj256EE6printfEPKcz
                0x000088a4       0x24 ./build/./RepRapFirmware/src/FilamentMonitors/LaserFilamentMonitor.o
                0x000088a4                String<256u>::printf(char const*, ...)
 .text._ZN6StringILj256EE4catfEPKcz
                0x000088c8       0x24 ./build/./RepRapFirmware/src/FilamentMonitors/LaserFilamentMonitor.o
                0x000088c8                String<256u>::catf(char const*, ...)
 .text._ZN20LaserFilamentMonitor11DiagnosticsE11MessageTypej
                0x000088ec       0x80 ./build/./RepRapFirmware/src/FilamentMonitors/LaserFilamentMonitor.o
                0x000088ec                LaserFilamentMonitor::Diagnostics(MessageType, unsigned int)
 .text._ZN21PulsedFilamentMonitorUlPK11ObjectModelR24ObjectExplorationContextE0_4_FUNES2_S4_
                0x0000896c       0x1a ./build/./RepRapFirmware/src/FilamentMonitors/PulsedFilamentMonitor.o
 .text._ZN21PulsedFilamentMonitorUlPK11ObjectModelR24ObjectExplorationContextE1_4_FUNES2_S4_
                0x00008986        0xc ./build/./RepRapFirmware/src/FilamentMonitors/PulsedFilamentMonitor.o
 *fill*         0x00008992        0x2 
 .text._ZN21PulsedFilamentMonitorUlPK11ObjectModelR24ObjectExplorationContextE3_4_FUNES2_S4_
                0x00008994       0x10 ./build/./RepRapFirmware/src/FilamentMonitors/PulsedFilamentMonitor.o
 .text._ZN21PulsedFilamentMonitorUlPK11ObjectModelR24ObjectExplorationContextE4_4_FUNES2_S4_
                0x000089a4       0x1a ./build/./RepRapFirmware/src/FilamentMonitors/PulsedFilamentMonitor.o
 .text._ZN21PulsedFilamentMonitorUlPK11ObjectModelR24ObjectExplorationContextE7_4_FUNES2_S4_
                0x000089be        0xc ./build/./RepRapFirmware/src/FilamentMonitors/PulsedFilamentMonitor.o
 .text._ZN21PulsedFilamentMonitorUlPK11ObjectModelR24ObjectExplorationContextE8_4_FUNES2_S4_
                0x000089ca        0xc ./build/./RepRapFirmware/src/FilamentMonitors/PulsedFilamentMonitor.o
 .text._ZN21PulsedFilamentMonitorUlPK11ObjectModelR24ObjectExplorationContextE11_4_FUNES2_S4_
                0x000089d6        0xc ./build/./RepRapFirmware/src/FilamentMonitors/PulsedFilamentMonitor.o
 *fill*         0x000089e2        0x2 
 .text._ZNK21PulsedFilamentMonitor29GetObjectModelClassDescriptorEv
                0x000089e4        0x8 ./build/./RepRapFirmware/src/FilamentMonitors/PulsedFilamentMonitor.o
                0x000089e4                PulsedFilamentMonitor::GetObjectModelClassDescriptor() const
 .text._ZN21PulsedFilamentMonitor9InterruptEv
                0x000089ec       0x32 ./build/./RepRapFirmware/src/FilamentMonitors/PulsedFilamentMonitor.o
                0x000089ec                PulsedFilamentMonitor::Interrupt()
 *fill*         0x00008a1e        0x2 
 .text._ZN21PulsedFilamentMonitorD2Ev
                0x00008a20       0x14 ./build/./RepRapFirmware/src/FilamentMonitors/PulsedFilamentMonitor.o
                0x00008a20                PulsedFilamentMonitor::~PulsedFilamentMonitor()
                0x00008a20                PulsedFilamentMonitor::~PulsedFilamentMonitor()
 .text._ZN21PulsedFilamentMonitorD0Ev
                0x00008a34       0x14 ./build/./RepRapFirmware/src/FilamentMonitors/PulsedFilamentMonitor.o
                0x00008a34                PulsedFilamentMonitor::~PulsedFilamentMonitor()
 .text._ZN21PulsedFilamentMonitorUlPK11ObjectModelR24ObjectExplorationContextE2_4_FUNES2_S4_
                0x00008a48       0x28 ./build/./RepRapFirmware/src/FilamentMonitors/PulsedFilamentMonitor.o
 .text._ZN21PulsedFilamentMonitorUlPK11ObjectModelR24ObjectExplorationContextE10_4_FUNES2_S4_
                0x00008a70       0x14 ./build/./RepRapFirmware/src/FilamentMonitors/PulsedFilamentMonitor.o
 .text._ZN21PulsedFilamentMonitorUlPK11ObjectModelR24ObjectExplorationContextE9_4_FUNES2_S4_
                0x00008a84       0x14 ./build/./RepRapFirmware/src/FilamentMonitors/PulsedFilamentMonitor.o
 .text._ZN21PulsedFilamentMonitorUlPK11ObjectModelR24ObjectExplorationContextE6_4_FUNES2_S4_
                0x00008a98       0x14 ./build/./RepRapFirmware/src/FilamentMonitors/PulsedFilamentMonitor.o
 .text._ZN21PulsedFilamentMonitorUlPK11ObjectModelR24ObjectExplorationContextE5_4_FUNES2_S4_
                0x00008aac       0x14 ./build/./RepRapFirmware/src/FilamentMonitors/PulsedFilamentMonitor.o
 .text._ZN21PulsedFilamentMonitor5ResetEv
                0x00008ac0       0x16 ./build/./RepRapFirmware/src/FilamentMonitors/PulsedFilamentMonitor.o
                0x00008ac0                PulsedFilamentMonitor::Reset()
 .text._ZN21PulsedFilamentMonitor4InitEv
                0x00008ad6       0x12 ./build/./RepRapFirmware/src/FilamentMonitors/PulsedFilamentMonitor.o
                0x00008ad6                PulsedFilamentMonitor::Init()
 .text._ZN21PulsedFilamentMonitorC2Ejj
                0x00008ae8       0x3c ./build/./RepRapFirmware/src/FilamentMonitors/PulsedFilamentMonitor.o
                0x00008ae8                PulsedFilamentMonitor::PulsedFilamentMonitor(unsigned int, unsigned int)
                0x00008ae8                PulsedFilamentMonitor::PulsedFilamentMonitor(unsigned int, unsigned int)
 .text._ZNK21PulsedFilamentMonitor19HaveCalibrationDataEv
                0x00008b24       0x30 ./build/./RepRapFirmware/src/FilamentMonitors/PulsedFilamentMonitor.o
                0x00008b24                PulsedFilamentMonitor::HaveCalibrationData() const
 .text._ZN21PulsedFilamentMonitor9ConfigureER11GCodeBufferRK9StringRefRb
                0x00008b54      0x198 ./build/./RepRapFirmware/src/FilamentMonitors/PulsedFilamentMonitor.o
                0x00008b54                PulsedFilamentMonitor::Configure(GCodeBuffer&, StringRef const&, bool&)
 .text._ZN21PulsedFilamentMonitorUlPK11ObjectModelR24ObjectExplorationContextE_4_FUNES2_S4_
                0x00008cec       0x2a ./build/./RepRapFirmware/src/FilamentMonitors/PulsedFilamentMonitor.o
 *fill*         0x00008d16        0x2 
 .text._ZN21PulsedFilamentMonitor4PollEv
                0x00008d18       0x70 ./build/./RepRapFirmware/src/FilamentMonitors/PulsedFilamentMonitor.o
                0x00008d18                PulsedFilamentMonitor::Poll()
 .text._ZN21PulsedFilamentMonitor5ClearEv
                0x00008d88       0x1a ./build/./RepRapFirmware/src/FilamentMonitors/PulsedFilamentMonitor.o
                0x00008d88                PulsedFilamentMonitor::Clear()
 *fill*         0x00008da2        0x2 
 .text._ZN21PulsedFilamentMonitor11DiagnosticsE11MessageTypej
                0x00008da4       0x40 ./build/./RepRapFirmware/src/FilamentMonitors/PulsedFilamentMonitor.o
                0x00008da4                PulsedFilamentMonitor::Diagnostics(MessageType, unsigned int)
 .text._ZN21PulsedFilamentMonitor13CheckFilamentEffb
                0x00008de4      0x124 ./build/./RepRapFirmware/src/FilamentMonitors/PulsedFilamentMonitor.o
                0x00008de4                PulsedFilamentMonitor::CheckFilament(float, float, bool)
 .text._ZN21PulsedFilamentMonitor5CheckEbbmf
                0x00008f08       0xc6 ./build/./RepRapFirmware/src/FilamentMonitors/PulsedFilamentMonitor.o
                0x00008f08                PulsedFilamentMonitor::Check(bool, bool, unsigned long, float)
 .text._ZN29RotatingMagnetFilamentMonitorUlPK11ObjectModelR24ObjectExplorationContextE0_4_FUNES2_S4_
                0x00008fce       0x1a ./build/./RepRapFirmware/src/FilamentMonitors/RotatingMagnetFilamentMonitor.o
 .text._ZN29RotatingMagnetFilamentMonitorUlPK11ObjectModelR24ObjectExplorationContextE1_4_FUNES2_S4_
                0x00008fe8        0xc ./build/./RepRapFirmware/src/FilamentMonitors/RotatingMagnetFilamentMonitor.o
 .text._ZN29RotatingMagnetFilamentMonitorUlPK11ObjectModelR24ObjectExplorationContextE3_4_FUNES2_S4_
                0x00008ff4       0x10 ./build/./RepRapFirmware/src/FilamentMonitors/RotatingMagnetFilamentMonitor.o
 .text._ZN29RotatingMagnetFilamentMonitorUlPK11ObjectModelR24ObjectExplorationContextE4_4_FUNES2_S4_
                0x00009004       0x1e ./build/./RepRapFirmware/src/FilamentMonitors/RotatingMagnetFilamentMonitor.o
 .text._ZN29RotatingMagnetFilamentMonitorUlPK11ObjectModelR24ObjectExplorationContextE7_4_FUNES2_S4_
                0x00009022        0xe ./build/./RepRapFirmware/src/FilamentMonitors/RotatingMagnetFilamentMonitor.o
 .text._ZN29RotatingMagnetFilamentMonitorUlPK11ObjectModelR24ObjectExplorationContextE8_4_FUNES2_S4_
                0x00009030        0xe ./build/./RepRapFirmware/src/FilamentMonitors/RotatingMagnetFilamentMonitor.o
 .text._ZN29RotatingMagnetFilamentMonitorUlPK11ObjectModelR24ObjectExplorationContextE11_4_FUNES2_S4_
                0x0000903e        0xe ./build/./RepRapFirmware/src/FilamentMonitors/RotatingMagnetFilamentMonitor.o
 .text._ZNK29RotatingMagnetFilamentMonitor29GetObjectModelClassDescriptorEv
                0x0000904c        0x8 ./build/./RepRapFirmware/src/FilamentMonitors/RotatingMagnetFilamentMonitor.o
                0x0000904c                RotatingMagnetFilamentMonitor::GetObjectModelClassDescriptor() const
 .text._ZN29RotatingMagnetFilamentMonitorUlPK11ObjectModelR24ObjectExplorationContextE2_4_FUNES2_S4_
                0x00009054       0x28 ./build/./RepRapFirmware/src/FilamentMonitors/RotatingMagnetFilamentMonitor.o
 .text._ZN29RotatingMagnetFilamentMonitorD2Ev
                0x0000907c       0x14 ./build/./RepRapFirmware/src/FilamentMonitors/RotatingMagnetFilamentMonitor.o
                0x0000907c                RotatingMagnetFilamentMonitor::~RotatingMagnetFilamentMonitor()
                0x0000907c                RotatingMagnetFilamentMonitor::~RotatingMagnetFilamentMonitor()
 .text._ZN29RotatingMagnetFilamentMonitorD0Ev
                0x00009090       0x16 ./build/./RepRapFirmware/src/FilamentMonitors/RotatingMagnetFilamentMonitor.o
                0x00009090                RotatingMagnetFilamentMonitor::~RotatingMagnetFilamentMonitor()
 .text._ZN29RotatingMagnetFilamentMonitorUlPK11ObjectModelR24ObjectExplorationContextE10_4_FUNES2_S4_
                0x000090a6       0x16 ./build/./RepRapFirmware/src/FilamentMonitors/RotatingMagnetFilamentMonitor.o
 .text._ZN29RotatingMagnetFilamentMonitorUlPK11ObjectModelR24ObjectExplorationContextE9_4_FUNES2_S4_
                0x000090bc       0x16 ./build/./RepRapFirmware/src/FilamentMonitors/RotatingMagnetFilamentMonitor.o
 .text._ZN29RotatingMagnetFilamentMonitorUlPK11ObjectModelR24ObjectExplorationContextE6_4_FUNES2_S4_
                0x000090d2       0x28 ./build/./RepRapFirmware/src/FilamentMonitors/RotatingMagnetFilamentMonitor.o
 .text._ZN29RotatingMagnetFilamentMonitorUlPK11ObjectModelR24ObjectExplorationContextE5_4_FUNES2_S4_
                0x000090fa       0x28 ./build/./RepRapFirmware/src/FilamentMonitors/RotatingMagnetFilamentMonitor.o
 .text._ZN29RotatingMagnetFilamentMonitor5ResetEv
                0x00009122       0x1e ./build/./RepRapFirmware/src/FilamentMonitors/RotatingMagnetFilamentMonitor.o
                0x00009122                RotatingMagnetFilamentMonitor::Reset()
 .text._ZN29RotatingMagnetFilamentMonitor4InitEv
                0x00009140       0x3a ./build/./RepRapFirmware/src/FilamentMonitors/RotatingMagnetFilamentMonitor.o
                0x00009140                RotatingMagnetFilamentMonitor::Init()
 *fill*         0x0000917a        0x2 
 .text._ZN29RotatingMagnetFilamentMonitorC2Ejj
                0x0000917c       0x58 ./build/./RepRapFirmware/src/FilamentMonitors/RotatingMagnetFilamentMonitor.o
                0x0000917c                RotatingMagnetFilamentMonitor::RotatingMagnetFilamentMonitor(unsigned int, unsigned int)
                0x0000917c                RotatingMagnetFilamentMonitor::RotatingMagnetFilamentMonitor(unsigned int, unsigned int)
 .text._ZNK29RotatingMagnetFilamentMonitor19HaveCalibrationDataEv
                0x000091d4       0x24 ./build/./RepRapFirmware/src/FilamentMonitors/RotatingMagnetFilamentMonitor.o
                0x000091d4                RotatingMagnetFilamentMonitor::HaveCalibrationData() const
 .text._ZN29RotatingMagnetFilamentMonitor9ConfigureER11GCodeBufferRK9StringRefRb
                0x000091f8      0x268 ./build/./RepRapFirmware/src/FilamentMonitors/RotatingMagnetFilamentMonitor.o
                0x000091f8                RotatingMagnetFilamentMonitor::Configure(GCodeBuffer&, StringRef const&, bool&)
 .text._ZN29RotatingMagnetFilamentMonitorUlPK11ObjectModelR24ObjectExplorationContextE_4_FUNES2_S4_
                0x00009460       0x28 ./build/./RepRapFirmware/src/FilamentMonitors/RotatingMagnetFilamentMonitor.o
 .text._ZNK29RotatingMagnetFilamentMonitor18GetCurrentPositionEv
                0x00009488       0x1c ./build/./RepRapFirmware/src/FilamentMonitors/RotatingMagnetFilamentMonitor.o
                0x00009488                RotatingMagnetFilamentMonitor::GetCurrentPosition() const
 .text._ZN29RotatingMagnetFilamentMonitor18HandleIncomingDataEv
                0x000094a4      0x1c4 ./build/./RepRapFirmware/src/FilamentMonitors/RotatingMagnetFilamentMonitor.o
                0x000094a4                RotatingMagnetFilamentMonitor::HandleIncomingData()
 .text._ZN29RotatingMagnetFilamentMonitor5ClearEv
                0x00009668       0x44 ./build/./RepRapFirmware/src/FilamentMonitors/RotatingMagnetFilamentMonitor.o
                0x00009668                RotatingMagnetFilamentMonitor::Clear()
 .text._ZN29RotatingMagnetFilamentMonitor13CheckFilamentEffb
                0x000096ac      0x1b0 ./build/./RepRapFirmware/src/FilamentMonitors/RotatingMagnetFilamentMonitor.o
                0x000096ac                RotatingMagnetFilamentMonitor::CheckFilament(float, float, bool)
 .text._ZN29RotatingMagnetFilamentMonitor5CheckEbbmf
                0x0000985c      0x120 ./build/./RepRapFirmware/src/FilamentMonitors/RotatingMagnetFilamentMonitor.o
                0x0000985c                RotatingMagnetFilamentMonitor::Check(bool, bool, unsigned long, float)
 .text._ZN29RotatingMagnetFilamentMonitor11DiagnosticsE11MessageTypej
                0x0000997c       0x80 ./build/./RepRapFirmware/src/FilamentMonitors/RotatingMagnetFilamentMonitor.o
                0x0000997c                RotatingMagnetFilamentMonitor::Diagnostics(MessageType, unsigned int)
 .text._ZN21SimpleFilamentMonitorUlPK11ObjectModelR24ObjectExplorationContextE_4_FUNES2_S4_
                0x000099fc        0xa ./build/./RepRapFirmware/src/FilamentMonitors/SimpleFilamentMonitor.o
 *fill*         0x00009a06        0x2 
 .text._ZN21SimpleFilamentMonitorUlPK11ObjectModelR24ObjectExplorationContextE1_4_FUNES2_S4_
                0x00009a08       0x10 ./build/./RepRapFirmware/src/FilamentMonitors/SimpleFilamentMonitor.o
 .text._ZNK21SimpleFilamentMonitor29GetObjectModelClassDescriptorEv
                0x00009a18        0x8 ./build/./RepRapFirmware/src/FilamentMonitors/SimpleFilamentMonitor.o
                0x00009a18                SimpleFilamentMonitor::GetObjectModelClassDescriptor() const
 .text._ZN21SimpleFilamentMonitor9InterruptEv
                0x00009a20        0xc ./build/./RepRapFirmware/src/FilamentMonitors/SimpleFilamentMonitor.o
                0x00009a20                SimpleFilamentMonitor::Interrupt()
 .text._ZN21SimpleFilamentMonitorD2Ev
                0x00009a2c       0x14 ./build/./RepRapFirmware/src/FilamentMonitors/SimpleFilamentMonitor.o
                0x00009a2c                SimpleFilamentMonitor::~SimpleFilamentMonitor()
                0x00009a2c                SimpleFilamentMonitor::~SimpleFilamentMonitor()
 .text._ZN21SimpleFilamentMonitorD0Ev
                0x00009a40       0x14 ./build/./RepRapFirmware/src/FilamentMonitors/SimpleFilamentMonitor.o
                0x00009a40                SimpleFilamentMonitor::~SimpleFilamentMonitor()
 .text._ZN21SimpleFilamentMonitor9ConfigureER11GCodeBufferRK9StringRefRb
                0x00009a54       0xcc ./build/./RepRapFirmware/src/FilamentMonitors/SimpleFilamentMonitor.o
                0x00009a54                SimpleFilamentMonitor::Configure(GCodeBuffer&, StringRef const&, bool&)
 .text._ZN21SimpleFilamentMonitorUlPK11ObjectModelR24ObjectExplorationContextE0_4_FUNES2_S4_
                0x00009b20       0x28 ./build/./RepRapFirmware/src/FilamentMonitors/SimpleFilamentMonitor.o
 .text._ZN21SimpleFilamentMonitorC2Ejj
                0x00009b48       0x24 ./build/./RepRapFirmware/src/FilamentMonitors/SimpleFilamentMonitor.o
                0x00009b48                SimpleFilamentMonitor::SimpleFilamentMonitor(unsigned int, unsigned int)
                0x00009b48                SimpleFilamentMonitor::SimpleFilamentMonitor(unsigned int, unsigned int)
 .text._ZN21SimpleFilamentMonitor4PollEv
                0x00009b6c       0x18 ./build/./RepRapFirmware/src/FilamentMonitors/SimpleFilamentMonitor.o
                0x00009b6c                SimpleFilamentMonitor::Poll()
 .text._ZN21SimpleFilamentMonitor5CheckEbbmf
                0x00009b84       0x24 ./build/./RepRapFirmware/src/FilamentMonitors/SimpleFilamentMonitor.o
                0x00009b84                SimpleFilamentMonitor::Check(bool, bool, unsigned long, float)
 .text._ZN21SimpleFilamentMonitor5ClearEv
                0x00009ba8       0x24 ./build/./RepRapFirmware/src/FilamentMonitors/SimpleFilamentMonitor.o
                0x00009ba8                SimpleFilamentMonitor::Clear()
 .text._ZN21SimpleFilamentMonitor11DiagnosticsE11MessageTypej
                0x00009bcc       0x3c ./build/./RepRapFirmware/src/FilamentMonitors/SimpleFilamentMonitor.o
                0x00009bcc                SimpleFilamentMonitor::Diagnostics(MessageType, unsigned int)
 .text._ZNK14GCodeException10GetMessageERK9StringRefPK11GCodeBuffer
                0x00009c08       0xe0 ./build/./RepRapFirmware/src/GCodes/GCodeException.o
                0x00009c08                GCodeException::GetMessage(StringRef const&, GCodeBuffer const*) const
 .text._ZN13GCodeFileInfo4InitEv
                0x00009ce8       0x2c ./build/./RepRapFirmware/src/GCodes/GCodeFileInfo.o
                0x00009ce8                GCodeFileInfo::Init()
 .text._ZNK13GCodeFileInfo12GetNumLayersEv
                0x00009d14       0x62 ./build/./RepRapFirmware/src/GCodes/GCodeFileInfo.o
                0x00009d14                GCodeFileInfo::GetNumLayers() const
 .text._ZN16StreamGCodeInput5ResetEv
                0x00009d76       0x1c ./build/./RepRapFirmware/src/GCodes/GCodeInput.o
                0x00009d76                StreamGCodeInput::Reset()
 .text._ZN16StreamGCodeInput8ReadByteEv
                0x00009d92        0xe ./build/./RepRapFirmware/src/GCodes/GCodeInput.o
                0x00009d92                StreamGCodeInput::ReadByte()
 .text._ZNK16StreamGCodeInput11BytesCachedEv
                0x00009da0        0x8 ./build/./RepRapFirmware/src/GCodes/GCodeInput.o
                0x00009da0                StreamGCodeInput::BytesCached() const
 .text._ZN17RegularGCodeInput5ResetEv
                0x00009da8        0xa ./build/./RepRapFirmware/src/GCodes/GCodeInput.o
                0x00009da8                RegularGCodeInput::Reset()
 .text._ZN17RegularGCodeInput8ReadByteEv
                0x00009db2       0x18 ./build/./RepRapFirmware/src/GCodes/GCodeInput.o
                0x00009db2                RegularGCodeInput::ReadByte()
 .text._ZNK17RegularGCodeInput11BytesCachedEv
                0x00009dca        0xa ./build/./RepRapFirmware/src/GCodes/GCodeInput.o
                0x00009dca                RegularGCodeInput::BytesCached() const
 .text._ZN18StandardGCodeInput10FillBufferEP11GCodeBuffer
                0x00009dd4       0x2e ./build/./RepRapFirmware/src/GCodes/GCodeInput.o
                0x00009dd4                StandardGCodeInput::FillBuffer(GCodeBuffer*)
 .text._ZN17NetworkGCodeInput10FillBufferEP11GCodeBuffer
                0x00009e02       0x2e ./build/./RepRapFirmware/src/GCodes/GCodeInput.o
                0x00009e02                NetworkGCodeInput::FillBuffer(GCodeBuffer*)
 .text._ZN17NetworkGCodeInputC2Ev
                0x00009e30       0x2c ./build/./RepRapFirmware/src/GCodes/GCodeInput.o
                0x00009e30                NetworkGCodeInput::NetworkGCodeInput()
                0x00009e30                NetworkGCodeInput::NetworkGCodeInput()
 .text._ZN17GCodeMachineStateC2Ev
                0x00009e5c       0x48 ./build/./RepRapFirmware/src/GCodes/GCodeMachineState.o
                0x00009e5c                GCodeMachineState::GCodeMachineState()
                0x00009e5c                GCodeMachineState::GCodeMachineState()
 .text._ZN17GCodeMachineStateC2ERS_b
                0x00009ea4       0xb2 ./build/./RepRapFirmware/src/GCodes/GCodeMachineState.o
                0x00009ea4                GCodeMachineState::GCodeMachineState(GCodeMachineState&, bool)
                0x00009ea4                GCodeMachineState::GCodeMachineState(GCodeMachineState&, bool)
 .text._ZN17GCodeMachineStateD2Ev
                0x00009f56        0xc ./build/./RepRapFirmware/src/GCodes/GCodeMachineState.o
                0x00009f56                GCodeMachineState::~GCodeMachineState()
                0x00009f56                GCodeMachineState::~GCodeMachineState()
 .text._ZN17GCodeMachineState16SetFileExecutingEv
                0x00009f62       0x26 ./build/./RepRapFirmware/src/GCodes/GCodeMachineState.o
                0x00009f62                GCodeMachineState::SetFileExecuting()
 .text._ZNK17GCodeMachineState9DoingFileEv
                0x00009f88       0x18 ./build/./RepRapFirmware/src/GCodes/GCodeMachineState.o
                0x00009f88                GCodeMachineState::DoingFile() const
 .text._ZN17GCodeMachineState9CloseFileEv
                0x00009fa0       0x30 ./build/./RepRapFirmware/src/GCodes/GCodeMachineState.o
                0x00009fa0                GCodeMachineState::CloseFile()
 .text._ZN17GCodeMachineState22WaitForAcknowledgementEv
                0x00009fd0        0xe ./build/./RepRapFirmware/src/GCodes/GCodeMachineState.o
                0x00009fd0                GCodeMachineState::WaitForAcknowledgement()
 .text._ZN17GCodeMachineState13CopyStateFromERKS_
                0x00009fde       0x60 ./build/./RepRapFirmware/src/GCodes/GCodeMachineState.o
                0x00009fde                GCodeMachineState::CopyStateFrom(GCodeMachineState const&)
 .text._ZN17GCodeMachineState8SetErrorEPKc
                0x0000a03e       0x14 ./build/./RepRapFirmware/src/GCodes/GCodeMachineState.o
                0x0000a03e                GCodeMachineState::SetError(char const*)
 .text._ZNK17GCodeMachineState26RetrieveStateMachineResultER11GCodeResultRK9StringRef
                0x0000a052       0x22 ./build/./RepRapFirmware/src/GCodes/GCodeMachineState.o
                0x0000a052                GCodeMachineState::RetrieveStateMachineResult(GCodeResult&, StringRef const&) const
 .text._ZN17GCodeMachineState8SetStateE10GCodeState
                0x0000a074       0x18 ./build/./RepRapFirmware/src/GCodes/GCodeMachineState.o
                0x0000a074                GCodeMachineState::SetState(GCodeState)
 .text._ZN17GCodeMachineState17CurrentBlockStateEv
                0x0000a08c        0xc ./build/./RepRapFirmware/src/GCodes/GCodeMachineState.o
                0x0000a08c                GCodeMachineState::CurrentBlockState()
 .text._ZNK17GCodeMachineState13GetIterationsEv
                0x0000a098       0x20 ./build/./RepRapFirmware/src/GCodes/GCodeMachineState.o
                0x0000a098                GCodeMachineState::GetIterations() const
 .text._ZN17GCodeMachineState11CreateBlockEt
                0x0000a0b8       0x24 ./build/./RepRapFirmware/src/GCodes/GCodeMachineState.o
                0x0000a0b8                GCodeMachineState::CreateBlock(unsigned short)
 .text._ZN17GCodeMachineState8EndBlockEv
                0x0000a0dc       0x14 ./build/./RepRapFirmware/src/GCodes/GCodeMachineState.o
                0x0000a0dc                GCodeMachineState::EndBlock()
 .text._ZNK10GCodeQueue11BytesCachedEv
                0x0000a0f0        0x4 ./build/./RepRapFirmware/src/GCodes/GCodeQueue.o
                0x0000a0f0                GCodeQueue::BytesCached() const
 .text._ZN10GCodeQueueC2Ev
                0x0000a0f4       0x2c ./build/./RepRapFirmware/src/GCodes/GCodeQueue.o
                0x0000a0f4                GCodeQueue::GCodeQueue()
                0x0000a0f4                GCodeQueue::GCodeQueue()
 .text._ZN10GCodeQueue15ShouldQueueCodeER11GCodeBuffer
                0x0000a120      0x11c ./build/./RepRapFirmware/src/GCodes/GCodeQueue.o
                0x0000a120                GCodeQueue::ShouldQueueCode(GCodeBuffer&)
 .text._ZNK10GCodeQueue6IsIdleEv
                0x0000a23c       0x24 ./build/./RepRapFirmware/src/GCodes/GCodeQueue.o
                0x0000a23c                GCodeQueue::IsIdle() const
 .text._ZN10GCodeQueue12PurgeEntriesEv
                0x0000a260       0x38 ./build/./RepRapFirmware/src/GCodes/GCodeQueue.o
                0x0000a260                GCodeQueue::PurgeEntries()
 .text._ZN10GCodeQueue5ClearEv
                0x0000a298       0x12 ./build/./RepRapFirmware/src/GCodes/GCodeQueue.o
                0x0000a298                GCodeQueue::Clear()
 .text._ZN10GCodeQueue5ResetEv
                0x0000a2aa        0x4 ./build/./RepRapFirmware/src/GCodes/GCodeQueue.o
                0x0000a2aa                GCodeQueue::Reset()
 *fill*         0x0000a2ae        0x2 
 .text._ZN10GCodeQueue11DiagnosticsE11MessageType
                0x0000a2b0       0x7c ./build/./RepRapFirmware/src/GCodes/GCodeQueue.o
                0x0000a2b0                GCodeQueue::Diagnostics(MessageType)
 .text._ZN10QueuedCode10AssignFromER11GCodeBuffer
                0x0000a32c       0x30 ./build/./RepRapFirmware/src/GCodes/GCodeQueue.o
                0x0000a32c                QueuedCode::AssignFrom(GCodeBuffer&)
 .text._ZN10GCodeQueue9QueueCodeER11GCodeBufferm
                0x0000a35c       0x54 ./build/./RepRapFirmware/src/GCodes/GCodeQueue.o
                0x0000a35c                GCodeQueue::QueueCode(GCodeBuffer&, unsigned long)
 .text._ZN10QueuedCode8AssignToEP11GCodeBuffer
                0x0000a3b0       0x18 ./build/./RepRapFirmware/src/GCodes/GCodeQueue.o
                0x0000a3b0                QueuedCode::AssignTo(GCodeBuffer*)
 .text._ZN10GCodeQueue10FillBufferEP11GCodeBuffer
                0x0000a3c8       0x38 ./build/./RepRapFirmware/src/GCodes/GCodeQueue.o
                0x0000a3c8                GCodeQueue::FillBuffer(GCodeBuffer*)
 .text._ZN12function_refIFvjjEE11callback_fnIZNK6GCodes10AppendAxesERK9StringRef6BitmapItEEUljjE_EEvPvjj
                0x0000a400        0xe ./build/./RepRapFirmware/src/GCodes/GCodes.o
 .text._ZN9RTOSIface24LeaveTaskCriticalSectionEv.isra.0
                0x0000a40e        0x4 ./build/./RepRapFirmware/src/GCodes/GCodes.o
 .text._ZN10ReadLockerD2Ev
                0x0000a412       0x10 ./build/./RepRapFirmware/src/GCodes/GCodes.o
                0x0000a412                ReadLocker::~ReadLocker()
                0x0000a412                ReadLocker::~ReadLocker()
 .text._ZNK11GCodeBuffer16IsDoingFileMacroEv
                0x0000a422       0x1c ./build/./RepRapFirmware/src/GCodes/GCodes.o
                0x0000a422                GCodeBuffer::IsDoingFileMacro() const
 .text._ZN11GCodeBuffer8SetStateE10GCodeState
                0x0000a43e        0x8 ./build/./RepRapFirmware/src/GCodes/GCodes.o
                0x0000a43e                GCodeBuffer::SetState(GCodeState)
 *fill*         0x0000a446        0x2 
 .text._ZN6GCodesC2ER8Platform
                0x0000a448      0x294 ./build/./RepRapFirmware/src/GCodes/GCodes.o
                0x0000a448                GCodes::GCodes(Platform&)
                0x0000a448                GCodes::GCodes(Platform&)
 .text._ZNK6GCodes14DoingFileMacroEv
                0x0000a6dc       0x2e ./build/./RepRapFirmware/src/GCodes/GCodes.o
                0x0000a6dc                GCodes::DoingFileMacro() const
 .text._ZNK6GCodes25WaitingForAcknowledgementEv
                0x0000a70a       0x26 ./build/./RepRapFirmware/src/GCodes/GCodes.o
                0x0000a70a                GCodes::WaitingForAcknowledgement() const
 .text._ZNK6GCodes15GetFilePositionEv
                0x0000a730       0x34 ./build/./RepRapFirmware/src/GCodes/GCodes.o
                0x0000a730                GCodes::GetFilePosition() const
 .text._ZNK6GCodes13IsTriggerBusyEv
                0x0000a764       0x1c ./build/./RepRapFirmware/src/GCodes/GCodes.o
                0x0000a764                GCodes::IsTriggerBusy() const
 .text._ZN6GCodes30CheckFinishedRunningConfigFileER11GCodeBuffer
                0x0000a780       0x64 ./build/./RepRapFirmware/src/GCodes/GCodes.o
                0x0000a780                GCodes::CheckFinishedRunningConfigFile(GCodeBuffer&)
 .text._ZN6GCodes14InitialiseTapsEb
                0x0000a7e4       0x18 ./build/./RepRapFirmware/src/GCodes/GCodes.o
                0x0000a7e4                GCodes::InitialiseTaps(bool)
 .text._ZN6GCodes13FilamentErrorEj20FilamentSensorStatus
                0x0000a7fc       0x14 ./build/./RepRapFirmware/src/GCodes/GCodes.o
                0x0000a7fc                GCodes::FilamentError(unsigned int, FilamentSensorStatus)
 .text._ZN6GCodes21CheckForDeferredPauseER11GCodeBuffer
                0x0000a810       0x28 ./build/./RepRapFirmware/src/GCodes/GCodes.o
                0x0000a810                GCodes::CheckForDeferredPause(GCodeBuffer&)
 .text._ZNK6GCodes16IsReallyPrintingEv
                0x0000a838       0x1c ./build/./RepRapFirmware/src/GCodes/GCodes.o
                0x0000a838                GCodes::IsReallyPrinting() const
 .text._ZNK6GCodes11IsHeatingUpEv
                0x0000a854       0x3c ./build/./RepRapFirmware/src/GCodes/GCodes.o
                0x0000a854                GCodes::IsHeatingUp() const
 .text._ZN6GCodes11DiagnosticsE11MessageType
                0x0000a890       0x8c ./build/./RepRapFirmware/src/GCodes/GCodes.o
                0x0000a890                GCodes::Diagnostics(MessageType)
 .text._ZN6GCodes3PopER11GCodeBufferb
                0x0000a91c       0x34 ./build/./RepRapFirmware/src/GCodes/GCodes.o
                0x0000a91c                GCodes::Pop(GCodeBuffer&, bool)
 .text._ZN6GCodes33LoadExtrusionAndFeedrateFromGCodeER11GCodeBufferb
                0x0000a950      0x34c ./build/./RepRapFirmware/src/GCodes/GCodes.o
                0x0000a950                GCodes::LoadExtrusionAndFeedrateFromGCode(GCodeBuffer&, bool)
 .text._ZN6GCodes20CheckEnoughAxesHomedE6BitmapItE
                0x0000ac9c       0x2c ./build/./RepRapFirmware/src/GCodes/GCodes.o
                0x0000ac9c                GCodes::CheckEnoughAxesHomed(Bitmap<unsigned short>)
 .text._ZN6GCodes9ClearMoveEv
                0x0000acc8       0x30 ./build/./RepRapFirmware/src/GCodes/GCodes.o
                0x0000acc8                GCodes::ClearMove()
 .text._ZN6GCodes8ReadMoveER7RawMove
                0x0000acf8      0x288 ./build/./RepRapFirmware/src/GCodes/GCodes.o
                0x0000acf8                GCodes::ReadMove(RawMove&)
 .text._ZN6GCodes16NewMoveAvailableEj
                0x0000af80       0x18 ./build/./RepRapFirmware/src/GCodes/GCodes.o
                0x0000af80                GCodes::NewMoveAvailable(unsigned int)
 .text._ZN6GCodes16NewMoveAvailableEv
                0x0000af98       0x18 ./build/./RepRapFirmware/src/GCodes/GCodes.o
                0x0000af98                GCodes::NewMoveAvailable()
 .text._ZN6GCodes12FinaliseMoveER11GCodeBuffer
                0x0000afb0      0x104 ./build/./RepRapFirmware/src/GCodes/GCodes.o
                0x0000afb0                GCodes::FinaliseMove(GCodeBuffer&)
 .text._ZN6GCodes21FileMacroCyclesReturnER11GCodeBuffer
                0x0000b0b4       0x30 ./build/./RepRapFirmware/src/GCodes/GCodes.o
                0x0000b0b4                GCodes::FileMacroCyclesReturn(GCodeBuffer&)
 .text._ZN6GCodes15SetZProbeNumberER11GCodeBufferc
                0x0000b0e4       0x90 ./build/./RepRapFirmware/src/GCodes/GCodes.o
                0x0000b0e4                GCodes::SetZProbeNumber(GCodeBuffer&, char)
 .text._ZN6GCodes10ExecuteG30ER11GCodeBufferRK9StringRef
                0x0000b174      0x1a0 ./build/./RepRapFirmware/src/GCodes/GCodes.o
                0x0000b174                GCodes::ExecuteG30(GCodeBuffer&, StringRef const&)
 .text._ZNK6GCodes19GetMessageBoxDeviceER11GCodeBuffer
                0x0000b314       0x1c ./build/./RepRapFirmware/src/GCodes/GCodes.o
                0x0000b314                GCodes::GetMessageBoxDevice(GCodeBuffer&) const
 .text._ZNK6GCodes19ChangeMicrosteppingEjjbRK9StringRef
                0x0000b330       0x46 ./build/./RepRapFirmware/src/GCodes/GCodes.o
                0x0000b330                GCodes::ChangeMicrostepping(unsigned int, unsigned int, bool, StringRef const&) const
 *fill*         0x0000b376        0x2 
 .text._ZN6GCodes17SetMappedFanSpeedEf
                0x0000b378       0x20 ./build/./RepRapFirmware/src/GCodes/GCodes.o
                0x0000b378                GCodes::SetMappedFanSpeed(float)
 .text._ZN6GCodes11IsMappedFanEj
                0x0000b398       0x20 ./build/./RepRapFirmware/src/GCodes/GCodes.o
                0x0000b398                GCodes::IsMappedFan(unsigned int)
 .text._ZN6GCodes13SaveFanSpeedsEv
                0x0000b3b8       0x24 ./build/./RepRapFirmware/src/GCodes/GCodes.o
                0x0000b3b8                GCodes::SaveFanSpeeds()
 .text._ZN6GCodes25HandleReplyPreserveResultER11GCodeBuffer11GCodeResultPKc
                0x0000b3dc      0x1ec ./build/./RepRapFirmware/src/GCodes/GCodes.o
                0x0000b3dc                GCodes::HandleReplyPreserveResult(GCodeBuffer&, GCodeResult, char const*)
 .text._ZN6GCodes11HandleReplyER11GCodeBuffer11GCodeResultPKc
                0x0000b5c8        0x8 ./build/./RepRapFirmware/src/GCodes/GCodes.o
                0x0000b5c8                GCodes::HandleReply(GCodeBuffer&, GCodeResult, char const*)
 .text._ZN6GCodes11HandleReplyER11GCodeBufferP12OutputBuffer
                0x0000b5d0      0x1a4 ./build/./RepRapFirmware/src/GCodes/GCodes.o
                0x0000b5d0                GCodes::HandleReply(GCodeBuffer&, OutputBuffer*)
 .text._ZN6GCodes14SetToolHeatersEP4Toolfb
                0x0000b774       0x54 ./build/./RepRapFirmware/src/GCodes/GCodes.o
                0x0000b774                GCodes::SetToolHeaters(Tool*, float, bool)
 .text._ZNK6GCodes26GetRawExtruderTotalByDriveEj
                0x0000b7c8       0x14 ./build/./RepRapFirmware/src/GCodes/GCodes.o
                0x0000b7c8                GCodes::GetRawExtruderTotalByDrive(unsigned int) const
 .text._ZNK6GCodes15IsCodeQueueIdleEv
                0x0000b7dc       0x1c ./build/./RepRapFirmware/src/GCodes/GCodes.o
                0x0000b7dc                GCodes::IsCodeQueueIdle() const
 .text._ZNK6GCodes28ToolHeatersAtSetTemperaturesEPK4Toolbf
                0x0000b7f8       0x48 ./build/./RepRapFirmware/src/GCodes/GCodes.o
                0x0000b7f8                GCodes::ToolHeatersAtSetTemperatures(Tool const*, bool, float) const
 .text._ZNK6GCodes12SavePositionER12RestorePointRK11GCodeBuffer
                0x0000b840       0x54 ./build/./RepRapFirmware/src/GCodes/GCodes.o
                0x0000b840                GCodes::SavePosition(RestorePoint&, GCodeBuffer const&) const
 .text._ZN6GCodes15RestorePositionERK12RestorePointP11GCodeBuffer
                0x0000b894       0x3c ./build/./RepRapFirmware/src/GCodes/GCodes.o
                0x0000b894                GCodes::RestorePosition(RestorePoint const&, GCodeBuffer*)
 .text._ZNK6GCodes19ToolOffsetTransformEPKfPf6BitmapItE
                0x0000b8d0       0xe4 ./build/./RepRapFirmware/src/GCodes/GCodes.o
                0x0000b8d0                GCodes::ToolOffsetTransform(float const*, float*, Bitmap<unsigned short>) const
 .text._ZN6GCodes13EndSimulationEP11GCodeBuffer
                0x0000b9b4       0x48 ./build/./RepRapFirmware/src/GCodes/GCodes.o
                0x0000b9b4                GCodes::EndSimulation(GCodeBuffer*)
 .text._ZNK6GCodes26ToolOffsetInverseTransformEPKfPf
                0x0000b9fc      0x12c ./build/./RepRapFirmware/src/GCodes/GCodes.o
                0x0000b9fc                GCodes::ToolOffsetInverseTransform(float const*, float*) const
 .text._ZN6GCodes15ClearBedMappingEv
                0x0000bb28       0x34 ./build/./RepRapFirmware/src/GCodes/GCodes.o
                0x0000bb28                GCodes::ClearBedMapping()
 .text._ZN6GCodes25UpdateCurrentUserPositionEv
                0x0000bb5c       0x2c ./build/./RepRapFirmware/src/GCodes/GCodes.o
                0x0000bb5c                GCodes::UpdateCurrentUserPosition()
 .text._ZN6GCodes5ResetEv
                0x0000bb88      0x160 ./build/./RepRapFirmware/src/GCodes/GCodes.o
                0x0000bb88                GCodes::Reset()
 .text._ZN6GCodes15DoEmergencyStopEv
                0x0000bce8       0x28 ./build/./RepRapFirmware/src/GCodes/GCodes.o
                0x0000bce8                GCodes::DoEmergencyStop()
 .text._ZNK6GCodes20GetCurrentToolOffsetEj
                0x0000bd10       0x18 ./build/./RepRapFirmware/src/GCodes/GCodes.o
                0x0000bd10                GCodes::GetCurrentToolOffset(unsigned int) const
 .text._ZNK6GCodes17GetUserCoordinateEj
                0x0000bd28       0x2e ./build/./RepRapFirmware/src/GCodes/GCodes.o
                0x0000bd28                GCodes::GetUserCoordinate(unsigned int) const
 *fill*         0x0000bd56        0x2 
 .text._ZNK6GCodes21GetCurrentCoordinatesERK9StringRef
                0x0000bd58      0x154 ./build/./RepRapFirmware/src/GCodes/GCodes.o
                0x0000bd58                GCodes::GetCurrentCoordinates(StringRef const&) const
 .text._ZNK6GCodes15AllAxesAreHomedEv
                0x0000beac       0x1a ./build/./RepRapFirmware/src/GCodes/GCodes.o
                0x0000beac                GCodes::AllAxesAreHomed() const
 *fill*         0x0000bec6        0x2 
 .text._ZN6GCodes9ProbeGridER11GCodeBufferRK9StringRef
                0x0000bec8       0x98 ./build/./RepRapFirmware/src/GCodes/GCodes.o
                0x0000bec8                GCodes::ProbeGrid(GCodeBuffer&, StringRef const&)
 .text._ZN6GCodes14SetAxisIsHomedEj
                0x0000bf60       0x2c ./build/./RepRapFirmware/src/GCodes/GCodes.o
                0x0000bf60                GCodes::SetAxisIsHomed(unsigned int)
 .text._ZN6GCodes15SetAxisNotHomedEj
                0x0000bf8c       0x38 ./build/./RepRapFirmware/src/GCodes/GCodes.o
                0x0000bf8c                GCodes::SetAxisNotHomed(unsigned int)
 .text._ZN6GCodes18SetAllAxesNotHomedEv
                0x0000bfc4       0x24 ./build/./RepRapFirmware/src/GCodes/GCodes.o
                0x0000bfc4                GCodes::SetAllAxesNotHomed()
 .text._ZN6GCodes4InitEv
                0x0000bfe8       0x9c ./build/./RepRapFirmware/src/GCodes/GCodes.o
                0x0000bfe8                GCodes::Init()
 .text._ZN6GCodes13DisableDrivesEv
                0x0000c084       0x14 ./build/./RepRapFirmware/src/GCodes/GCodes.o
                0x0000c084                GCodes::DisableDrives()
 .text._ZNK6GCodes25GenerateTemperatureReportERK9StringRef
                0x0000c098       0xd8 ./build/./RepRapFirmware/src/GCodes/GCodes.o
                0x0000c098                GCodes::GenerateTemperatureReport(StringRef const&) const
 .text._ZNK6GCodes26GenerateJsonStatusResponseEii14ResponseSource
                0x0000c170       0x5c ./build/./RepRapFirmware/src/GCodes/GCodes.o
                0x0000c170                GCodes::GenerateJsonStatusResponse(int, int, ResponseSource) const
 .text._ZNK6GCodes14CheckReportDueER11GCodeBufferRK9StringRef
                0x0000c1cc       0xe8 ./build/./RepRapFirmware/src/GCodes/GCodes.o
                0x0000c1cc                GCodes::CheckReportDue(GCodeBuffer&, StringRef const&) const
 .text._ZN6GCodes15StartToolChangeER11GCodeBufferih
                0x0000c2b4       0x20 ./build/./RepRapFirmware/src/GCodes/GCodes.o
                0x0000c2b4                GCodes::StartToolChange(GCodeBuffer&, int, unsigned char)
 .text._ZN6GCodes21SetMoveBufferDefaultsEv
                0x0000c2d4        0xa ./build/./RepRapFirmware/src/GCodes/GCodes.o
                0x0000c2d4                GCodes::SetMoveBufferDefaults()
 .text._ZN6GCodes12LockResourceERK11GCodeBufferm
                0x0000c2de       0x3a ./build/./RepRapFirmware/src/GCodes/GCodes.o
                0x0000c2de                GCodes::LockResource(GCodeBuffer const&, unsigned long)
 .text._ZN6GCodes12GrabResourceERK11GCodeBufferm
                0x0000c318       0x3c ./build/./RepRapFirmware/src/GCodes/GCodes.o
                0x0000c318                GCodes::GrabResource(GCodeBuffer const&, unsigned long)
 .text._ZN6GCodes12LockMovementERK11GCodeBuffer
                0x0000c354        0x6 ./build/./RepRapFirmware/src/GCodes/GCodes.o
                0x0000c354                GCodes::LockMovement(GCodeBuffer const&)
 *fill*         0x0000c35a        0x2 
 .text._ZN6GCodes32LockMovementAndWaitForStandstillER11GCodeBuffer
                0x0000c35c       0x50 ./build/./RepRapFirmware/src/GCodes/GCodes.o
                0x0000c35c                GCodes::LockMovementAndWaitForStandstill(GCodeBuffer&)
 .text._ZN6GCodes18TravelToStartPointER11GCodeBuffer
                0x0000c3ac       0x58 ./build/./RepRapFirmware/src/GCodes/GCodes.o
                0x0000c3ac                GCodes::TravelToStartPoint(GCodeBuffer&)
 .text._ZN6GCodes7DoDwellER11GCodeBuffer
                0x0000c404       0xa4 ./build/./RepRapFirmware/src/GCodes/GCodes.o
                0x0000c404                GCodes::DoDwell(GCodeBuffer&)
 .text._ZN6GCodes6DoHomeER11GCodeBufferRK9StringRef
                0x0000c4a8       0x84 ./build/./RepRapFirmware/src/GCodes/GCodes.o
                0x0000c4a8                GCodes::DoHome(GCodeBuffer&, StringRef const&)
 .text._ZN6GCodes15RetractFilamentER11GCodeBufferb
                0x0000c52c      0x1c0 ./build/./RepRapFirmware/src/GCodes/GCodes.o
                0x0000c52c                GCodes::RetractFilament(GCodeBuffer&, bool)
 .text._ZN6GCodes18SetOrReportOffsetsER11GCodeBufferRK9StringRefi
                0x0000c6ec      0x2e0 ./build/./RepRapFirmware/src/GCodes/GCodes.o
                0x0000c6ec                GCodes::SetOrReportOffsets(GCodeBuffer&, StringRef const&, int)
 .text._ZN6GCodes12GrabMovementERK11GCodeBuffer
                0x0000c9cc        0x6 ./build/./RepRapFirmware/src/GCodes/GCodes.o
                0x0000c9cc                GCodes::GrabMovement(GCodeBuffer const&)
 *fill*         0x0000c9d2        0x2 
 .text._ZN6GCodes16DoEmergencyPauseEv
                0x0000c9d4      0x118 ./build/./RepRapFirmware/src/GCodes/GCodes.o
                0x0000c9d4                GCodes::DoEmergencyPause()
 .text._ZN6GCodes14UnlockResourceERK11GCodeBufferm
                0x0000caec       0x3a ./build/./RepRapFirmware/src/GCodes/GCodes.o
                0x0000caec                GCodes::UnlockResource(GCodeBuffer const&, unsigned long)
 .text._ZN6GCodes14UnlockMovementERK11GCodeBuffer
                0x0000cb26        0x6 ./build/./RepRapFirmware/src/GCodes/GCodes.o
                0x0000cb26                GCodes::UnlockMovement(GCodeBuffer const&)
 .text._ZN6GCodes9UnlockAllERK11GCodeBuffer
                0x0000cb2c       0x56 ./build/./RepRapFirmware/src/GCodes/GCodes.o
                0x0000cb2c                GCodes::UnlockAll(GCodeBuffer const&)
 *fill*         0x0000cb82        0x2 
 .text._ZN6GCodes7DoPauseER11GCodeBuffer11PauseReasonPKct
                0x0000cb84      0x1f4 ./build/./RepRapFirmware/src/GCodes/GCodes.o
                0x0000cb84                GCodes::DoPause(GCodeBuffer&, PauseReason, char const*, unsigned short)
 .text._ZN6GCodes9StopPrintE15StopPrintReason
                0x0000cd78      0x200 ./build/./RepRapFirmware/src/GCodes/GCodes.o
                0x0000cd78                GCodes::StopPrint(StopPrintReason)
 .text._ZN6GCodes10AbortPrintER11GCodeBuffer
                0x0000cf78       0x26 ./build/./RepRapFirmware/src/GCodes/GCodes.o
                0x0000cf78                GCodes::AbortPrint(GCodeBuffer&)
 *fill*         0x0000cf9e        0x2 
 .text._ZN6GCodes4PushER11GCodeBufferb
                0x0000cfa0       0x30 ./build/./RepRapFirmware/src/GCodes/GCodes.o
                0x0000cfa0                GCodes::Push(GCodeBuffer&, bool)
 .text._ZN6GCodes11DoFileMacroER11GCodeBufferPKcbiR11VariableSet
                0x0000cfd0      0x148 ./build/./RepRapFirmware/src/GCodes/GCodes.o
                0x0000cfd0                GCodes::DoFileMacro(GCodeBuffer&, char const*, bool, int, VariableSet&)
 .text._ZN6GCodes11DoFileMacroER11GCodeBufferPKcbi
                0x0000d118       0x46 ./build/./RepRapFirmware/src/GCodes/GCodes.o
                0x0000d118                GCodes::DoFileMacro(GCodeBuffer&, char const*, bool, int)
 .text._ZN6GCodes13RunConfigFileEPKc
                0x0000d15e       0x1e ./build/./RepRapFirmware/src/GCodes/GCodes.o
                0x0000d15e                GCodes::RunConfigFile(char const*)
 .text._ZN6GCodes13StartPrintingEb
                0x0000d17c       0xc8 ./build/./RepRapFirmware/src/GCodes/GCodes.o
                0x0000d17c                GCodes::StartPrinting(bool)
 .text._ZN6GCodes13ReHomeOnStallE6BitmapImE
                0x0000d244       0xf8 ./build/./RepRapFirmware/src/GCodes/GCodes.o
                0x0000d244                GCodes::ReHomeOnStall(Bitmap<unsigned long>)
 .text._ZN6GCodes13DoManualProbeER11GCodeBufferPKcS3_6BitmapItE
                0x0000d33c       0x42 ./build/./RepRapFirmware/src/GCodes/GCodes.o
                0x0000d33c                GCodes::DoManualProbe(GCodeBuffer&, char const*, char const*, Bitmap<unsigned short>)
 *fill*         0x0000d37e        0x2 
 .text._ZN6GCodes16DoManualBedProbeER11GCodeBuffer
                0x0000d380       0x20 ./build/./RepRapFirmware/src/GCodes/GCodes.o
                0x0000d380                GCodes::DoManualBedProbe(GCodeBuffer&)
 .text._ZN6GCodes13EmergencyStopEv
                0x0000d3a0       0x28 ./build/./RepRapFirmware/src/GCodes/GCodes.o
                0x0000d3a0                GCodes::EmergencyStop()
 .text._ZN6GCodes11DoFilePrintER11GCodeBufferRK9StringRef
                0x0000d3c8      0x108 ./build/./RepRapFirmware/src/GCodes/GCodes.o
                0x0000d3c8                GCodes::DoFilePrint(GCodeBuffer&, StringRef const&)
 .text._ZN6GCodes14StartNextGCodeER11GCodeBufferRK9StringRef
                0x0000d4d0      0x144 ./build/./RepRapFirmware/src/GCodes/GCodes.o
                0x0000d4d0                GCodes::StartNextGCode(GCodeBuffer&, StringRef const&)
 .text._ZN6GCodes15SpinGCodeBufferER11GCodeBuffer
                0x0000d614       0xb6 ./build/./RepRapFirmware/src/GCodes/GCodes.o
                0x0000d614                GCodes::SpinGCodeBuffer(GCodeBuffer&)
 *fill*         0x0000d6ca        0x2 
 .text._ZN6GCodes14DoStraightMoveER11GCodeBufferbRPKc
                0x0000d6cc      0x734 ./build/./RepRapFirmware/src/GCodes/GCodes.o
                0x0000d6cc                GCodes::DoStraightMove(GCodeBuffer&, bool, char const*&)
 .text._ZNK6GCodes10AppendAxesERK9StringRef6BitmapItE
                0x0000de00       0x30 ./build/./RepRapFirmware/src/GCodes/GCodes.o
                0x0000de00                GCodes::AppendAxes(StringRef const&, Bitmap<unsigned short>) const
 .text._ZNK6GCodes20GetMachineModeStringEv
                0x0000de30       0x1c ./build/./RepRapFirmware/src/GCodes/GCodes.o
                0x0000de30                GCodes::GetMachineModeString() const
 .text._ZN6GCodes17HandleHeaterFaultEv
                0x0000de4c       0x28 ./build/./RepRapFirmware/src/GCodes/GCodes.o
                0x0000de4c                GCodes::HandleHeaterFault()
 .text._ZN6GCodes16CheckHeaterFaultEv
                0x0000de74       0xdc ./build/./RepRapFirmware/src/GCodes/GCodes.o
                0x0000de74                GCodes::CheckHeaterFault()
 .text._ZN6GCodes18GetExtrusionFactorEj
                0x0000df50       0x14 ./build/./RepRapFirmware/src/GCodes/GCodes.o
                0x0000df50                GCodes::GetExtrusionFactor(unsigned int)
 .text._ZNK6GCodes22GetAxisNumberForLetterEc
                0x0000df64       0x20 ./build/./RepRapFirmware/src/GCodes/GCodes.o
                0x0000df64                GCodes::GetAxisNumberForLetter(char) const
 .text._ZNK6GCodes15ConvertLaserPwmEf
                0x0000df84       0x24 ./build/./RepRapFirmware/src/GCodes/GCodes.o
                0x0000df84                GCodes::ConvertLaserPwm(float) const
 .text._ZN6GCodes9DoArcMoveER11GCodeBufferbRPKc
                0x0000dfa8      0x74c ./build/./RepRapFirmware/src/GCodes/GCodes.o
                0x0000dfa8                GCodes::DoArcMove(GCodeBuffer&, bool, char const*&)
 .text._ZN6GCodes10AssignGridEPKcPKfS3_fPf
                0x0000e6f4       0x30 ./build/./RepRapFirmware/src/GCodes/GCodes.o
                0x0000e6f4                GCodes::AssignGrid(char const*, float const*, float const*, float, float*)
 .text._ZN6GCodes17ActivateHeightmapEb
                0x0000e724       0x4c ./build/./RepRapFirmware/src/GCodes/GCodes.o
                0x0000e724                GCodes::ActivateHeightmap(bool)
 .text._ZN6GCodes26CheckNetworkCommandAllowedER11GCodeBufferRK9StringRefR11GCodeResult
                0x0000e770       0x34 ./build/./RepRapFirmware/src/GCodes/GCodes.o
                0x0000e770                GCodes::CheckNetworkCommandAllowed(GCodeBuffer&, StringRef const&, GCodeResult&)
 .text._ZN6StringILj20EE6printfEPKcz
                0x0000e7a4       0x22 ./build/./RepRapFirmware/src/GCodes/GCodes.o
                0x0000e7a4                String<20u>::printf(char const*, ...)
 *fill*         0x0000e7c6        0x2 
 .text._ZN6GCodes13CheckTriggersEv
                0x0000e7c8       0xf4 ./build/./RepRapFirmware/src/GCodes/GCodes.o
                0x0000e7c8                GCodes::CheckTriggers()
 .text._ZN6StringILj50EE6printfEPKcz
                0x0000e8bc       0x22 ./build/./RepRapFirmware/src/GCodes/GCodes.o
                0x0000e8bc                String<50u>::printf(char const*, ...)
 *fill*         0x0000e8de        0x2 
 .text._ZN6GCodes13CheckFilamentEv
                0x0000e8e0       0xa0 ./build/./RepRapFirmware/src/GCodes/GCodes.o
                0x0000e8e0                GCodes::CheckFilament()
 .text._ZN6GCodes12PauseOnStallE6BitmapImE
                0x0000e980       0x8c ./build/./RepRapFirmware/src/GCodes/GCodes.o
                0x0000e980                GCodes::PauseOnStall(Bitmap<unsigned long>)
 .text._ZN6BitmapItE13MakeFromArrayEPKmj
                0x0000ea0c       0x24 ./build/./RepRapFirmware/src/GCodes/GCodes.o
                0x0000ea0c                Bitmap<unsigned short>::MakeFromArray(unsigned long const*, unsigned int)
 .text._ZN6GCodes10ManageToolER11GCodeBufferRK9StringRef
                0x0000ea30      0x234 ./build/./RepRapFirmware/src/GCodes/GCodes.o
                0x0000ea30                GCodes::ManageTool(GCodeBuffer&, StringRef const&)
 .text._ZN6GCodes12LoadFilamentER11GCodeBufferRK9StringRef
                0x0000ec64      0x10c ./build/./RepRapFirmware/src/GCodes/GCodes.o
                0x0000ec64                GCodes::LoadFilament(GCodeBuffer&, StringRef const&)
 .text._ZN6GCodes14UnloadFilamentER11GCodeBufferRK9StringRef
                0x0000ed70       0x78 ./build/./RepRapFirmware/src/GCodes/GCodes.o
                0x0000ed70                GCodes::UnloadFilament(GCodeBuffer&, StringRef const&)
 .text.startup._GLOBAL__sub_I__ZN6GCodes22emergencyStopCommandedE
                0x0000ede8       0x18 ./build/./RepRapFirmware/src/GCodes/GCodes.o
 .text._ZN6GCodes4SpinEv
                0x0000ee00      0x144 ./build/./RepRapFirmware/src/GCodes/GCodes.o
                0x0000ee00                GCodes::Spin()
 .text._ZN12function_refIFvjEE11callback_fnIZN6GCodes11HandleMcodeER11GCodeBufferRK9StringRefEUljE0_EEvPvj
                0x0000ef44       0x30 ./build/./RepRapFirmware/src/GCodes/GCodes2.o
 .text._ZN12function_refIFvjEE11callback_fnIZN6GCodes11HandleMcodeER11GCodeBufferRK9StringRefEUljE_EEvPvj
                0x0000ef74        0x8 ./build/./RepRapFirmware/src/GCodes/GCodes2.o
 .text._ZN11GCodeBuffer17GetLimitedUIValueEcm
                0x0000ef7c        0x8 ./build/./RepRapFirmware/src/GCodes/GCodes2.o
                0x0000ef7c                GCodeBuffer::GetLimitedUIValue(char, unsigned long)
 .text._ZNK11GCodeBuffer16IsDoingLocalFileEv
                0x0000ef84       0x24 ./build/./RepRapFirmware/src/GCodes/GCodes2.o
                0x0000ef84                GCodeBuffer::IsDoingLocalFile() const
 .text._ZN6GCodes12HandleResultER11GCodeBuffer11GCodeResultRK9StringRefP12OutputBuffer.part.0
                0x0000efa8      0x134 ./build/./RepRapFirmware/src/GCodes/GCodes2.o
 .text._ZN6GCodes11HandleTcodeER11GCodeBufferRK9StringRef
                0x0000f0dc      0x11c ./build/./RepRapFirmware/src/GCodes/GCodes2.o
                0x0000f0dc                GCodes::HandleTcode(GCodeBuffer&, StringRef const&)
 .text._ZN6GCodes11HandleQcodeER11GCodeBufferRK9StringRef
                0x0000f1f8       0x22 ./build/./RepRapFirmware/src/GCodes/GCodes2.o
                0x0000f1f8                GCodes::HandleQcode(GCodeBuffer&, StringRef const&)
 .text._ZN6GCodes12HandleResultER11GCodeBuffer11GCodeResultRK9StringRefP12OutputBuffer
                0x0000f21a       0x2a ./build/./RepRapFirmware/src/GCodes/GCodes2.o
                0x0000f21a                GCodes::HandleResult(GCodeBuffer&, GCodeResult, StringRef const&, OutputBuffer*)
 .text._ZN6GCodes11HandleGcodeER11GCodeBufferRK9StringRef
                0x0000f244      0x494 ./build/./RepRapFirmware/src/GCodes/GCodes2.o
                0x0000f244                GCodes::HandleGcode(GCodeBuffer&, StringRef const&)
 .text._ZN6GCodes11HandleMcodeER11GCodeBufferRK9StringRef
                0x0000f6d8     0x461c ./build/./RepRapFirmware/src/GCodes/GCodes2.o
                0x0000f6d8                GCodes::HandleMcode(GCodeBuffer&, StringRef const&)
 .text._ZN6GCodes9ActOnCodeER11GCodeBufferRK9StringRef
                0x00013cf4      0x100 ./build/./RepRapFirmware/src/GCodes/GCodes2.o
                0x00013cf4                GCodes::ActOnCode(GCodeBuffer&, StringRef const&)
 .text._ZN12function_refIFbjjEE11callback_fnIZN6GCodes10WaitForPinER11GCodeBufferRK9StringRefEUljjE0_EEbPvjj
                0x00013df4       0x24 ./build/./RepRapFirmware/src/GCodes/GCodes3.o
 .text._ZN12function_refIFbjjEE11callback_fnIZN6GCodes10WaitForPinER11GCodeBufferRK9StringRefEUljjE_EEbPvjj
                0x00013e18       0x18 ./build/./RepRapFirmware/src/GCodes/GCodes3.o
 .text._ZNK6BitmapItE12IterateWhileE12function_refIFbjjEE.isra.0
                0x00013e30       0x36 ./build/./RepRapFirmware/src/GCodes/GCodes3.o
 .text._ZN6GCodes12SavePositionER11GCodeBufferRK9StringRef
                0x00013e66       0x38 ./build/./RepRapFirmware/src/GCodes/GCodes3.o
                0x00013e66                GCodes::SavePosition(GCodeBuffer&, StringRef const&)
 *fill*         0x00013e9e        0x2 
 .text._ZN6GCodes12SetPositionsER11GCodeBuffer
                0x00013ea0      0x110 ./build/./RepRapFirmware/src/GCodes/GCodes3.o
                0x00013ea0                GCodes::SetPositions(GCodeBuffer&)
 .text._ZN6GCodes10OffsetAxesER11GCodeBufferRK9StringRef
                0x00013fb0       0xc8 ./build/./RepRapFirmware/src/GCodes/GCodes3.o
                0x00013fb0                GCodes::OffsetAxes(GCodeBuffer&, StringRef const&)
 .text._ZN6GCodes26GetSetWorkplaceCoordinatesER11GCodeBufferRK9StringRefb
                0x00014078      0x134 ./build/./RepRapFirmware/src/GCodes/GCodes3.o
                0x00014078                GCodes::GetSetWorkplaceCoordinates(GCodeBuffer&, StringRef const&, bool)
 .text._ZN6GCodes10DefineGridER11GCodeBufferRK9StringRef
                0x000141ac      0x3dc ./build/./RepRapFirmware/src/GCodes/GCodes3.o
                0x000141ac                GCodes::DefineGrid(GCodeBuffer&, StringRef const&)
 .text._ZN6GCodes12SimulateFileER11GCodeBufferRK9StringRefS4_b
                0x00014588       0xa8 ./build/./RepRapFirmware/src/GCodes/GCodes3.o
                0x00014588                GCodes::SimulateFile(GCodeBuffer&, StringRef const&, StringRef const&, bool)
 .text._ZN6GCodes20ChangeSimulationModeER11GCodeBufferRK9StringRefm
                0x00014630       0x68 ./build/./RepRapFirmware/src/GCodes/GCodes3.o
                0x00014630                GCodes::ChangeSimulationMode(GCodeBuffer&, StringRef const&, unsigned long)
 .text._ZN6GCodes10WaitForPinER11GCodeBufferRK9StringRef
                0x00014698       0xdc ./build/./RepRapFirmware/src/GCodes/GCodes3.o
                0x00014698                GCodes::WaitForPin(GCodeBuffer&, StringRef const&)
 .text._ZN6GCodes16ConfigureTriggerER11GCodeBufferRK9StringRef
                0x00014774       0x44 ./build/./RepRapFirmware/src/GCodes/GCodes3.o
                0x00014774                GCodes::ConfigureTrigger(GCodeBuffer&, StringRef const&)
 .text._ZN6GCodes12CheckTriggerER11GCodeBufferRK9StringRef
                0x000147b8       0x50 ./build/./RepRapFirmware/src/GCodes/GCodes3.o
                0x000147b8                GCodes::CheckTrigger(GCodeBuffer&, StringRef const&)
 .text._ZN6GCodes14DoDriveMappingER11GCodeBufferRK9StringRef
                0x00014808      0x38c ./build/./RepRapFirmware/src/GCodes/GCodes3.o
                0x00014808                GCodes::DoDriveMapping(GCodeBuffer&, StringRef const&)
 .text._ZN6GCodes13StraightProbeER11GCodeBufferRK9StringRef
                0x00014b94      0x19c ./build/./RepRapFirmware/src/GCodes/GCodes3.o
                0x00014b94                GCodes::StraightProbe(GCodeBuffer&, StringRef const&)
 .text._ZN6GCodes14FindAxisLetterER11GCodeBuffer
                0x00014d30       0xa0 ./build/./RepRapFirmware/src/GCodes/GCodes3.o
                0x00014d30                GCodes::FindAxisLetter(GCodeBuffer&)
 .text._ZN6GCodes20SetupM585ProbingMoveER11GCodeBuffer
                0x00014dd0       0xe4 ./build/./RepRapFirmware/src/GCodes/GCodes3.o
                0x00014dd0                GCodes::SetupM585ProbingMove(GCodeBuffer&)
 .text._ZN6GCodes20SetupM675ProbingMoveER11GCodeBufferb
                0x00014eb4       0xdc ./build/./RepRapFirmware/src/GCodes/GCodes3.o
                0x00014eb4                GCodes::SetupM675ProbingMove(GCodeBuffer&, bool)
 .text._ZN6GCodes20SetupM675BackoffMoveER11GCodeBufferf
                0x00014f90       0x46 ./build/./RepRapFirmware/src/GCodes/GCodes3.o
                0x00014f90                GCodes::SetupM675BackoffMove(GCodeBuffer&, float)
 *fill*         0x00014fd6        0x2 
 .text._ZN6GCodes11SetDateTimeER11GCodeBufferRK9StringRef
                0x00014fd8       0xf8 ./build/./RepRapFirmware/src/GCodes/GCodes3.o
                0x00014fd8                GCodes::SetDateTime(GCodeBuffer&, StringRef const&)
 .text._ZN6GCodes14UpdateFirmwareER11GCodeBufferRK9StringRef
                0x000150d0      0x16c ./build/./RepRapFirmware/src/GCodes/GCodes3.o
                0x000150d0                GCodes::UpdateFirmware(GCodeBuffer&, StringRef const&)
 .text._ZN6GCodes7SendI2cER11GCodeBufferRK9StringRef
                0x0001523c       0x14 ./build/./RepRapFirmware/src/GCodes/GCodes3.o
                0x0001523c                GCodes::SendI2c(GCodeBuffer&, StringRef const&)
 .text._ZN6GCodes10ReceiveI2cER11GCodeBufferRK9StringRef
                0x00015250       0x14 ./build/./RepRapFirmware/src/GCodes/GCodes3.o
                0x00015250                GCodes::ReceiveI2c(GCodeBuffer&, StringRef const&)
 .text._ZN6GCodes20ConfigureLocalDriverER11GCodeBufferRK9StringRefh
                0x00015264      0x3f0 ./build/./RepRapFirmware/src/GCodes/GCodes3.o
                0x00015264                GCodes::ConfigureLocalDriver(GCodeBuffer&, StringRef const&, unsigned char)
 .text._ZN6GCodes15ConfigureDriverER11GCodeBufferRK9StringRef
                0x00015654       0xc4 ./build/./RepRapFirmware/src/GCodes/GCodes3.o
                0x00015654                GCodes::ConfigureDriver(GCodeBuffer&, StringRef const&)
 .text._ZN6GCodes21ChangeExtrusionFactorEjf
                0x00015718       0x50 ./build/./RepRapFirmware/src/GCodes/GCodes3.o
                0x00015718                GCodes::ChangeExtrusionFactor(unsigned int, float)
 .text._ZN6GCodes23ProcessWholeLineCommentER11GCodeBufferRK9StringRef
                0x00015768       0xf0 ./build/./RepRapFirmware/src/GCodes/GCodes3.o
                0x00015768                GCodes::ProcessWholeLineComment(GCodeBuffer&, StringRef const&)
 .text._ZN6GCodes12DeployZProbeER11GCodeBuffer
                0x00015858       0x74 ./build/./RepRapFirmware/src/GCodes/GCodes3.o
                0x00015858                GCodes::DeployZProbe(GCodeBuffer&)
 .text._ZN6GCodes9ProbeToolER11GCodeBufferRK9StringRef
                0x000158cc      0x128 ./build/./RepRapFirmware/src/GCodes/GCodes3.o
                0x000158cc                GCodes::ProbeTool(GCodeBuffer&, StringRef const&)
 .text._ZN6GCodes18FindCenterOfCavityER11GCodeBufferRK9StringRef
                0x000159f4       0xa8 ./build/./RepRapFirmware/src/GCodes/GCodes3.o
                0x000159f4                GCodes::FindCenterOfCavity(GCodeBuffer&, StringRef const&)
 .text._ZN6GCodes13RetractZProbeER11GCodeBuffer
                0x00015a9c       0x74 ./build/./RepRapFirmware/src/GCodes/GCodes3.o
                0x00015a9c                GCodes::RetractZProbe(GCodeBuffer&)
 .text._ZN12function_refIFvjjEE11callback_fnIZN6GCodes15RunStateMachineER11GCodeBufferRK9StringRefEUljjE_EEvPvjj
                0x00015b10       0x4c ./build/./RepRapFirmware/src/GCodes/GCodes4.o
 .text._ZN11GCodeBuffer12AdvanceStateEv
                0x00015b5c       0x10 ./build/./RepRapFirmware/src/GCodes/GCodes4.o
                0x00015b5c                GCodeBuffer::AdvanceState()
 .text._ZNK6ZProbe17GetStartingHeightEv
                0x00015b6c       0x12 ./build/./RepRapFirmware/src/GCodes/GCodes4.o
                0x00015b6c                ZProbe::GetStartingHeight() const
 *fill*         0x00015b7e        0x2 
 .text._ZN6GCodes21DoStraightManualProbeER11GCodeBufferRK21StraightProbeSettings
                0x00015b80       0x4c ./build/./RepRapFirmware/src/GCodes/GCodes4.o
                0x00015b80                GCodes::DoStraightManualProbe(GCodeBuffer&, StraightProbeSettings const&)
 .text._ZN6GCodes15RunStateMachineER11GCodeBufferRK9StringRef
                0x00015bcc     0x1dc0 ./build/./RepRapFirmware/src/GCodes/GCodes4.o
                0x00015bcc                GCodes::RunStateMachine(GCodeBuffer&, StringRef const&)
 .text._ZN13ObjectTracker4InitEv
                0x0001798c       0x16 ./build/./RepRapFirmware/src/GCodes/ObjectTracker.o
                0x0001798c                ObjectTracker::Init()
 *fill*         0x000179a2        0x2 
 .text._ZN12RestorePointUlPK11ObjectModelRK24ObjectExplorationContextE_4_FUNES2_S5_
                0x000179a4       0x10 ./build/./RepRapFirmware/src/GCodes/RestorePoint.o
 .text._ZN12RestorePointUlPK11ObjectModelR24ObjectExplorationContextE1_4_FUNES2_S4_
                0x000179b4       0x10 ./build/./RepRapFirmware/src/GCodes/RestorePoint.o
 .text._ZN12RestorePointUlPK11ObjectModelR24ObjectExplorationContextE2_4_FUNES2_S4_
                0x000179c4        0xc ./build/./RepRapFirmware/src/GCodes/RestorePoint.o
 .text._ZN12RestorePointUlPK11ObjectModelR24ObjectExplorationContextE3_4_FUNES2_S4_
                0x000179d0        0xc ./build/./RepRapFirmware/src/GCodes/RestorePoint.o
 .text._ZN12RestorePointUlPK11ObjectModelR24ObjectExplorationContextE4_4_FUNES2_S4_
                0x000179dc        0xc ./build/./RepRapFirmware/src/GCodes/RestorePoint.o
 .text._ZN12RestorePointUlPK11ObjectModelR24ObjectExplorationContextE6_4_FUNES2_S4_
                0x000179e8        0xa ./build/./RepRapFirmware/src/GCodes/RestorePoint.o
 *fill*         0x000179f2        0x2 
 .text._ZNK12RestorePoint29GetObjectModelClassDescriptorEv
                0x000179f4        0x8 ./build/./RepRapFirmware/src/GCodes/RestorePoint.o
                0x000179f4                RestorePoint::GetObjectModelClassDescriptor() const
 .text._ZN12RestorePointD2Ev
                0x000179fc        0x2 ./build/./RepRapFirmware/src/GCodes/RestorePoint.o
                0x000179fc                RestorePoint::~RestorePoint()
                0x000179fc                RestorePoint::~RestorePoint()
 .text._ZN12RestorePointUlPK11ObjectModelR24ObjectExplorationContextE0_4_FUNES2_S4_
                0x000179fe       0x1e ./build/./RepRapFirmware/src/GCodes/RestorePoint.o
 .text._ZN12RestorePointD0Ev
                0x00017a1c        0xe ./build/./RepRapFirmware/src/GCodes/RestorePoint.o
                0x00017a1c                RestorePoint::~RestorePoint()
 *fill*         0x00017a2a        0x2 
 .text._ZN12RestorePointUlPK11ObjectModelR24ObjectExplorationContextE5_4_FUNES2_S4_
                0x00017a2c       0x38 ./build/./RepRapFirmware/src/GCodes/RestorePoint.o
 .text._ZN12RestorePoint4InitEv
                0x00017a64       0x2c ./build/./RepRapFirmware/src/GCodes/RestorePoint.o
                0x00017a64                RestorePoint::Init()
 .text._ZN12RestorePointC2Ev
                0x00017a90       0x18 ./build/./RepRapFirmware/src/GCodes/RestorePoint.o
                0x00017a90                RestorePoint::RestorePoint()
                0x00017a90                RestorePoint::RestorePoint()
 .text._ZN21StraightProbeSettings5ResetEv
                0x00017aa8       0x14 ./build/./RepRapFirmware/src/GCodes/StraightProbeSettings.o
                0x00017aa8                StraightProbeSettings::Reset()
 .text._ZN21StraightProbeSettingsC2Ev
                0x00017abc        0xc ./build/./RepRapFirmware/src/GCodes/StraightProbeSettings.o
                0x00017abc                StraightProbeSettings::StraightProbeSettings()
                0x00017abc                StraightProbeSettings::StraightProbeSettings()
 .text._ZNK21StraightProbeSettings17SetCoordsToTargetEPf
                0x00017ac8       0x16 ./build/./RepRapFirmware/src/GCodes/StraightProbeSettings.o
                0x00017ac8                StraightProbeSettings::SetCoordsToTarget(float*) const
 *fill*         0x00017ade        0x2 
 .text._ZN12function_refIFvjjEE11callback_fnIZN7Trigger16AppendInputNamesE6BitmapItES5_RK9StringRefEUljjE_EEvPvjj
                0x00017ae0       0x10 ./build/./RepRapFirmware/src/GCodes/Trigger.o
 .text._ZN12function_refIFvjjEE11callback_fnIZN7Trigger5CheckEvEUljjE_EEvPvjj
                0x00017af0       0x46 ./build/./RepRapFirmware/src/GCodes/Trigger.o
 *fill*         0x00017b36        0x2 
 .text._ZN12function_refIFvjjEE11callback_fnIZN7Trigger16AppendInputNamesE6BitmapItES5_RK9StringRefEUljjE0_EEvPvjj
                0x00017b38       0x10 ./build/./RepRapFirmware/src/GCodes/Trigger.o
 .text._ZNK6BitmapItE7IterateE12function_refIFvjjEE.isra.0
                0x00017b48       0x32 ./build/./RepRapFirmware/src/GCodes/Trigger.o
 *fill*         0x00017b7a        0x2 
 .text._ZN12function_refIFvjjEE11callback_fnIZN7Trigger5CheckEvEUljjE0_EEvPvjj
                0x00017b7c       0x54 ./build/./RepRapFirmware/src/GCodes/Trigger.o
 .text._ZN7TriggerC2Ev
                0x00017bd0       0x12 ./build/./RepRapFirmware/src/GCodes/Trigger.o
                0x00017bd0                Trigger::Trigger()
                0x00017bd0                Trigger::Trigger()
 .text._ZN7Trigger4InitEv
                0x00017be2        0xe ./build/./RepRapFirmware/src/GCodes/Trigger.o
                0x00017be2                Trigger::Init()
 .text._ZNK7Trigger8IsUnusedEv
                0x00017bf0       0x20 ./build/./RepRapFirmware/src/GCodes/Trigger.o
                0x00017bf0                Trigger::IsUnused() const
 .text._ZN7Trigger5CheckEv
                0x00017c10       0x9c ./build/./RepRapFirmware/src/GCodes/Trigger.o
                0x00017c10                Trigger::Check()
 .text._ZN7Trigger10CheckLevelEv
                0x00017cac        0xc ./build/./RepRapFirmware/src/GCodes/Trigger.o
                0x00017cac                Trigger::CheckLevel()
 .text._ZN7Trigger16AppendInputNamesE6BitmapItES1_RK9StringRef
                0x00017cb8       0x64 ./build/./RepRapFirmware/src/GCodes/Trigger.o
                0x00017cb8                Trigger::AppendInputNames(Bitmap<unsigned short>, Bitmap<unsigned short>, StringRef const&)
 .text._ZN7Trigger9ConfigureEjR11GCodeBufferRK9StringRef
                0x00017d1c      0x1e8 ./build/./RepRapFirmware/src/GCodes/Trigger.o
                0x00017d1c                Trigger::Configure(unsigned int, GCodeBuffer&, StringRef const&)
 .text.unlikely._ZN12BinaryParser16CheckArrayLengthEj.part.0
                0x00017f04       0x30 ./build/./RepRapFirmware/src/GCodes/GCodeBuffer/BinaryParser.o
 .text._ZN12BinaryParserC2ER11GCodeBuffer
                0x00017f34        0x8 ./build/./RepRapFirmware/src/GCodes/GCodeBuffer/BinaryParser.o
                0x00017f34                BinaryParser::BinaryParser(GCodeBuffer&)
                0x00017f34                BinaryParser::BinaryParser(GCodeBuffer&)
 .text._ZN12BinaryParser4InitEv
                0x00017f3c        0xe ./build/./RepRapFirmware/src/GCodes/GCodeBuffer/BinaryParser.o
                0x00017f3c                BinaryParser::Init()
 .text._ZN12BinaryParser3PutEPKmj
                0x00017f4a       0x3e ./build/./RepRapFirmware/src/GCodes/GCodeBuffer/BinaryParser.o
                0x00017f4a                BinaryParser::Put(unsigned long const*, unsigned int)
 .text._ZN12BinaryParser4SeenEc
                0x00017f88       0x84 ./build/./RepRapFirmware/src/GCodes/GCodeBuffer/BinaryParser.o
                0x00017f88                BinaryParser::Seen(char)
 .text._ZNK12BinaryParser16GetCommandLetterEv
                0x0001800c        0xe ./build/./RepRapFirmware/src/GCodes/GCodeBuffer/BinaryParser.o
                0x0001800c                BinaryParser::GetCommandLetter() const
 .text._ZNK12BinaryParser16HasCommandNumberEv
                0x0001801a       0x10 ./build/./RepRapFirmware/src/GCodes/GCodeBuffer/BinaryParser.o
                0x0001801a                BinaryParser::HasCommandNumber() const
 .text._ZNK12BinaryParser16GetCommandNumberEv
                0x0001802a       0x16 ./build/./RepRapFirmware/src/GCodes/GCodeBuffer/BinaryParser.o
                0x0001802a                BinaryParser::GetCommandNumber() const
 .text._ZNK12BinaryParser18GetCommandFractionEv
                0x00018040       0x18 ./build/./RepRapFirmware/src/GCodes/GCodeBuffer/BinaryParser.o
                0x00018040                BinaryParser::GetCommandFraction() const
 .text._ZNK12BinaryParser18ContainsExpressionEv
                0x00018058       0x28 ./build/./RepRapFirmware/src/GCodes/GCodeBuffer/BinaryParser.o
                0x00018058                BinaryParser::ContainsExpression() const
 .text._ZN12BinaryParser9GetFValueEv
                0x00018080       0x90 ./build/./RepRapFirmware/src/GCodes/GCodeBuffer/BinaryParser.o
                0x00018080                BinaryParser::GetFValue()
 .text._ZN12BinaryParser9GetIValueEv
                0x00018110       0xa4 ./build/./RepRapFirmware/src/GCodes/GCodeBuffer/BinaryParser.o
                0x00018110                BinaryParser::GetIValue()
 .text._ZN12BinaryParser10GetUIValueEv
                0x000181b4       0x84 ./build/./RepRapFirmware/src/GCodes/GCodeBuffer/BinaryParser.o
                0x000181b4                BinaryParser::GetUIValue()
 .text._ZN12BinaryParser21SetDriverIdFromBinaryER8DriverIdm
                0x00018238       0x34 ./build/./RepRapFirmware/src/GCodes/GCodeBuffer/BinaryParser.o
                0x00018238                BinaryParser::SetDriverIdFromBinary(DriverId&, unsigned long)
 .text._ZN12BinaryParser11GetDriverIdEv
                0x0001826c       0x58 ./build/./RepRapFirmware/src/GCodes/GCodeBuffer/BinaryParser.o
                0x0001826c                BinaryParser::GetDriverId()
 .text._ZN12BinaryParser12GetIPAddressER9IPAddress
                0x000182c4       0xc4 ./build/./RepRapFirmware/src/GCodes/GCodeBuffer/BinaryParser.o
                0x000182c4                BinaryParser::GetIPAddress(IPAddress&)
 .text._ZN12BinaryParser13GetMacAddressER10MacAddress
                0x00018388       0xbc ./build/./RepRapFirmware/src/GCodes/GCodeBuffer/BinaryParser.o
                0x00018388                BinaryParser::GetMacAddress(MacAddress&)
 .text._ZN12BinaryParser23GetPossiblyQuotedStringERK9StringRefb
                0x00018444       0xc8 ./build/./RepRapFirmware/src/GCodes/GCodeBuffer/BinaryParser.o
                0x00018444                BinaryParser::GetPossiblyQuotedString(StringRef const&, bool)
 .text._ZN12BinaryParser22GetUnprecedentedStringERK9StringRefb
                0x0001850c       0x58 ./build/./RepRapFirmware/src/GCodes/GCodeBuffer/BinaryParser.o
                0x0001850c                BinaryParser::GetUnprecedentedString(StringRef const&, bool)
 .text._ZN12BinaryParser11SetFinishedEv
                0x00018564       0x16 ./build/./RepRapFirmware/src/GCodes/GCodeBuffer/BinaryParser.o
                0x00018564                BinaryParser::SetFinished()
 .text._ZNK12BinaryParser15GetFilePositionEv
                0x0001857a       0x10 ./build/./RepRapFirmware/src/GCodes/GCodeBuffer/BinaryParser.o
                0x0001857a                BinaryParser::GetFilePosition() const
 .text._ZNK12BinaryParser9DataStartEv
                0x0001858a        0x6 ./build/./RepRapFirmware/src/GCodes/GCodeBuffer/BinaryParser.o
                0x0001858a                BinaryParser::DataStart() const
 .text._ZNK12BinaryParser10DataLengthEv
                0x00018590        0x4 ./build/./RepRapFirmware/src/GCodes/GCodeBuffer/BinaryParser.o
                0x00018590                BinaryParser::DataLength() const
 .text._ZNK12BinaryParser12PrintCommandERK9StringRef
                0x00018594       0x44 ./build/./RepRapFirmware/src/GCodes/GCodeBuffer/BinaryParser.o
                0x00018594                BinaryParser::PrintCommand(StringRef const&) const
 .text._ZN12BinaryParser16CheckArrayLengthEj
                0x000185d8       0x10 ./build/./RepRapFirmware/src/GCodes/GCodeBuffer/BinaryParser.o
                0x000185d8                BinaryParser::CheckArrayLength(unsigned int)
 .text._ZN12BinaryParser16GetDriverIdArrayEP8DriverIdRj
                0x000185e8       0x7c ./build/./RepRapFirmware/src/GCodes/GCodeBuffer/BinaryParser.o
                0x000185e8                BinaryParser::GetDriverIdArray(DriverId*, unsigned int&)
 .text._ZNK12BinaryParser15WriteParametersERK9StringRefb
                0x00018664      0x27c ./build/./RepRapFirmware/src/GCodes/GCodeBuffer/BinaryParser.o
                0x00018664                BinaryParser::WriteParameters(StringRef const&, bool) const
 .text._ZNK12BinaryParser17AppendFullCommandERK9StringRef
                0x000188e0       0x58 ./build/./RepRapFirmware/src/GCodes/GCodeBuffer/BinaryParser.o
                0x000188e0                BinaryParser::AppendFullCommand(StringRef const&) const
 .text._ZN12BinaryParser13DecodeCommandEv
                0x00018938       0x78 ./build/./RepRapFirmware/src/GCodes/GCodeBuffer/BinaryParser.o
                0x00018938                BinaryParser::DecodeCommand()
 .text._ZN12BinaryParser13AddParametersER11VariableSeti
                0x000189b0      0x180 ./build/./RepRapFirmware/src/GCodes/GCodeBuffer/BinaryParser.o
                0x000189b0                BinaryParser::AddParameters(VariableSet&, int)
 .text._ZN12BinaryParser8GetArrayIfEEvPT_Rjb
                0x00018b30      0x1fc ./build/./RepRapFirmware/src/GCodes/GCodeBuffer/BinaryParser.o
                0x00018b30                void BinaryParser::GetArray<float>(float*, unsigned int&, bool)
 .text._ZN12BinaryParser13GetFloatArrayEPfRjb
                0x00018d2c        0x8 ./build/./RepRapFirmware/src/GCodes/GCodeBuffer/BinaryParser.o
                0x00018d2c                BinaryParser::GetFloatArray(float*, unsigned int&, bool)
 .text._ZN12BinaryParser8GetArrayIlEEvPT_Rjb
                0x00018d34      0x1e0 ./build/./RepRapFirmware/src/GCodes/GCodeBuffer/BinaryParser.o
                0x00018d34                void BinaryParser::GetArray<long>(long*, unsigned int&, bool)
 .text._ZN12BinaryParser11GetIntArrayEPlRjb
                0x00018f14        0x8 ./build/./RepRapFirmware/src/GCodes/GCodeBuffer/BinaryParser.o
                0x00018f14                BinaryParser::GetIntArray(long*, unsigned int&, bool)
 .text._ZN12BinaryParser8GetArrayImEEvPT_Rjb
                0x00018f1c      0x1e0 ./build/./RepRapFirmware/src/GCodes/GCodeBuffer/BinaryParser.o
                0x00018f1c                void BinaryParser::GetArray<unsigned long>(unsigned long*, unsigned int&, bool)
 .text._ZN12BinaryParser16GetUnsignedArrayEPmRjb
                0x000190fc        0x8 ./build/./RepRapFirmware/src/GCodes/GCodeBuffer/BinaryParser.o
                0x000190fc                BinaryParser::GetUnsignedArray(unsigned long*, unsigned int&, bool)
 .text._ZN16ExpressionParserC2ERK11GCodeBufferPKcS4_i
                0x00019104       0x14 ./build/./RepRapFirmware/src/GCodes/GCodeBuffer/ExpressionParser.o
                0x00019104                ExpressionParser::ExpressionParser(GCodeBuffer const&, char const*, char const*, int)
                0x00019104                ExpressionParser::ExpressionParser(GCodeBuffer const&, char const*, char const*, int)
 .text._ZN16ExpressionParser12StringConcatER15ExpressionValueS1_
                0x00019118       0x42 ./build/./RepRapFirmware/src/GCodes/GCodeBuffer/ExpressionParser.o
                0x00019118                ExpressionParser::StringConcat(ExpressionValue&, ExpressionValue&)
 *fill*         0x0001915a        0x2 
 .text._ZN16ExpressionParser17TypeHasNoLiteralsE8TypeCode
                0x0001915c       0x20 ./build/./RepRapFirmware/src/GCodes/GCodeBuffer/ExpressionParser.o
                0x0001915c                ExpressionParser::TypeHasNoLiterals(TypeCode)
 .text._ZN16ExpressionParser15ConvertToStringER15ExpressionValueb
                0x0001917c       0x54 ./build/./RepRapFirmware/src/GCodes/GCodeBuffer/ExpressionParser.o
                0x0001917c                ExpressionParser::ConvertToString(ExpressionValue&, bool)
 .text._ZNK16ExpressionParser16CurrentCharacterEv
                0x000191d0        0xe ./build/./RepRapFirmware/src/GCodes/GCodeBuffer/ExpressionParser.o
                0x000191d0                ExpressionParser::CurrentCharacter() const
 .text._ZN16ExpressionParser14SkipWhiteSpaceEv
                0x000191de       0x1c ./build/./RepRapFirmware/src/GCodes/GCodeBuffer/ExpressionParser.o
                0x000191de                ExpressionParser::SkipWhiteSpace()
 *fill*         0x000191fa        0x2 
 .text._ZN16ExpressionParser11ParseNumberER15ExpressionValue
                0x000191fc       0x78 ./build/./RepRapFirmware/src/GCodes/GCodeBuffer/ExpressionParser.o
                0x000191fc                ExpressionParser::ParseNumber(ExpressionValue&)
 .text._ZN12function_refIFcvEE11callback_fnIZN16ExpressionParser11ParseNumberER15ExpressionValueEUlvE_EEcPv
                0x00019274        0xc ./build/./RepRapFirmware/src/GCodes/GCodeBuffer/ExpressionParser.o
 .text._ZNK16ExpressionParser9GetColumnEv
                0x00019280       0x12 ./build/./RepRapFirmware/src/GCodes/GCodeBuffer/ExpressionParser.o
                0x00019280                ExpressionParser::GetColumn() const
 *fill*         0x00019292        0x2 
 .text.unlikely._ZNK16ExpressionParser19ThrowParseExceptionEPKc
                0x00019294       0x38 ./build/./RepRapFirmware/src/GCodes/GCodeBuffer/ExpressionParser.o
                0x00019294                ExpressionParser::ThrowParseException(char const*) const
 .text._ZNK16ExpressionParser14ConvertToFloatER15ExpressionValueb
                0x000192cc       0x3c ./build/./RepRapFirmware/src/GCodes/GCodeBuffer/ExpressionParser.o
                0x000192cc                ExpressionParser::ConvertToFloat(ExpressionValue&, bool) const
 .text._ZNK16ExpressionParser19BalanceNumericTypesER15ExpressionValueS1_b
                0x00019308       0x54 ./build/./RepRapFirmware/src/GCodes/GCodeBuffer/ExpressionParser.o
                0x00019308                ExpressionParser::BalanceNumericTypes(ExpressionValue&, ExpressionValue&, bool) const
 .text._ZNK16ExpressionParser13ConvertToBoolER15ExpressionValueb
                0x0001935c       0x28 ./build/./RepRapFirmware/src/GCodes/GCodeBuffer/ExpressionParser.o
                0x0001935c                ExpressionParser::ConvertToBool(ExpressionValue&, bool) const
 .text._ZN16ExpressionParser23CheckForExtraCharactersEv
                0x00019384       0x20 ./build/./RepRapFirmware/src/GCodes/GCodeBuffer/ExpressionParser.o
                0x00019384                ExpressionParser::CheckForExtraCharacters()
 .text._ZN16ExpressionParser12BalanceTypesER15ExpressionValueS1_b
                0x000193a4       0x94 ./build/./RepRapFirmware/src/GCodes/GCodeBuffer/ExpressionParser.o
                0x000193a4                ExpressionParser::BalanceTypes(ExpressionValue&, ExpressionValue&, bool)
 .text._ZN16ExpressionParser17ParseQuotedStringER15ExpressionValue
                0x00019438       0xa8 ./build/./RepRapFirmware/src/GCodes/GCodeBuffer/ExpressionParser.o
                0x00019438                ExpressionParser::ParseQuotedString(ExpressionValue&)
 .text.unlikely._ZNK16ExpressionParser19ThrowParseExceptionEPKcS1_
                0x000194e0       0x4c ./build/./RepRapFirmware/src/GCodes/GCodeBuffer/ExpressionParser.o
                0x000194e0                ExpressionParser::ThrowParseException(char const*, char const*) const
 .text._ZN16ExpressionParser16GetVariableValueER15ExpressionValuePK11VariableSetPKcbb
                0x0001952c       0x88 ./build/./RepRapFirmware/src/GCodes/GCodeBuffer/ExpressionParser.o
                0x0001952c                ExpressionParser::GetVariableValue(ExpressionValue&, VariableSet const*, char const*, bool, bool)
 .text.unlikely._ZNK16ExpressionParser19ThrowParseExceptionEPKcm
                0x000195b4       0x3c ./build/./RepRapFirmware/src/GCodes/GCodeBuffer/ExpressionParser.o
                0x000195b4                ExpressionParser::ThrowParseException(char const*, unsigned long) const
 .text._ZNK16ExpressionParser10CheckStackEm
                0x000195f0       0x60 ./build/./RepRapFirmware/src/GCodes/GCodeBuffer/ExpressionParser.o
                0x000195f0                ExpressionParser::CheckStack(unsigned long) const
 .text._ZN16ExpressionParser14ParseExpectKetER15ExpressionValuebc
                0x00019650       0x3c ./build/./RepRapFirmware/src/GCodes/GCodeBuffer/ExpressionParser.o
                0x00019650                ExpressionParser::ParseExpectKet(ExpressionValue&, bool, char)
 .text._ZN16ExpressionParser13ParseInternalER15ExpressionValuebh
                0x0001968c      0x6fc ./build/./RepRapFirmware/src/GCodes/GCodeBuffer/ExpressionParser.o
                0x0001968c                ExpressionParser::ParseInternal(ExpressionValue&, bool, unsigned char)
 .text._ZN16ExpressionParser25ParseIdentifierExpressionER15ExpressionValuebbb
                0x00019d88      0x750 ./build/./RepRapFirmware/src/GCodes/GCodeBuffer/ExpressionParser.o
                0x00019d88                ExpressionParser::ParseIdentifierExpression(ExpressionValue&, bool, bool, bool)
 .text._ZN16ExpressionParser5ParseEb
                0x0001a4d8       0x44 ./build/./RepRapFirmware/src/GCodes/GCodeBuffer/ExpressionParser.o
                0x0001a4d8                ExpressionParser::Parse(bool)
 .text._ZN16ExpressionParser12ParseBooleanEv
                0x0001a51c       0x34 ./build/./RepRapFirmware/src/GCodes/GCodeBuffer/ExpressionParser.o
                0x0001a51c                ExpressionParser::ParseBoolean()
 .text._ZN16ExpressionParser10ParseFloatEv
                0x0001a550       0x32 ./build/./RepRapFirmware/src/GCodes/GCodeBuffer/ExpressionParser.o
                0x0001a550                ExpressionParser::ParseFloat()
 *fill*         0x0001a582        0x2 
 .text._ZN16ExpressionParser12ParseIntegerEv
                0x0001a584       0x50 ./build/./RepRapFirmware/src/GCodes/GCodeBuffer/ExpressionParser.o
                0x0001a584                ExpressionParser::ParseInteger()
 .text._ZN16ExpressionParser13ParseUnsignedEv
                0x0001a5d4       0x50 ./build/./RepRapFirmware/src/GCodes/GCodeBuffer/ExpressionParser.o
                0x0001a5d4                ExpressionParser::ParseUnsigned()
 .text._ZN11GCodeBufferUlPK11ObjectModelR24ObjectExplorationContextE_4_FUNES2_S4_
                0x0001a624       0x14 ./build/./RepRapFirmware/src/GCodes/GCodeBuffer/GCodeBuffer.o
 .text._ZN11GCodeBufferUlPK11ObjectModelR24ObjectExplorationContextE1_4_FUNES2_S4_
                0x0001a638       0x24 ./build/./RepRapFirmware/src/GCodes/GCodeBuffer/GCodeBuffer.o
 .text._ZN11GCodeBufferUlPK11ObjectModelR24ObjectExplorationContextE2_4_FUNES2_S4_
                0x0001a65c       0x14 ./build/./RepRapFirmware/src/GCodes/GCodeBuffer/GCodeBuffer.o
 .text._ZN11GCodeBufferUlPK11ObjectModelR24ObjectExplorationContextE3_4_FUNES2_S4_
                0x0001a670       0x10 ./build/./RepRapFirmware/src/GCodes/GCodeBuffer/GCodeBuffer.o
 .text._ZN11GCodeBufferUlPK11ObjectModelR24ObjectExplorationContextE4_4_FUNES2_S4_
                0x0001a680       0x14 ./build/./RepRapFirmware/src/GCodes/GCodeBuffer/GCodeBuffer.o
 .text._ZN11GCodeBufferUlPK11ObjectModelR24ObjectExplorationContextE9_4_FUNES2_S4_
                0x0001a694       0x14 ./build/./RepRapFirmware/src/GCodes/GCodeBuffer/GCodeBuffer.o
 .text._ZNK11GCodeBuffer29GetObjectModelClassDescriptorEv
                0x0001a6a8        0x8 ./build/./RepRapFirmware/src/GCodes/GCodeBuffer/GCodeBuffer.o
                0x0001a6a8                GCodeBuffer::GetObjectModelClassDescriptor() const
 .text._ZN11GCodeBufferD2Ev
                0x0001a6b0        0x2 ./build/./RepRapFirmware/src/GCodes/GCodeBuffer/GCodeBuffer.o
                0x0001a6b0                GCodeBuffer::~GCodeBuffer()
                0x0001a6b0                GCodeBuffer::~GCodeBuffer()
 .text._ZN11GCodeBufferD0Ev
                0x0001a6b2       0x10 ./build/./RepRapFirmware/src/GCodes/GCodeBuffer/GCodeBuffer.o
                0x0001a6b2                GCodeBuffer::~GCodeBuffer()
 .text._ZN6StringILj256EE3catEPKc.isra.0
                0x0001a6c2       0x16 ./build/./RepRapFirmware/src/GCodes/GCodeBuffer/GCodeBuffer.o
 .text._ZNK12GCodeChannel8ToStringEv.isra.0
                0x0001a6d8       0x20 ./build/./RepRapFirmware/src/GCodes/GCodeBuffer/GCodeBuffer.o
 .text._ZN11GCodeBufferUlPK11ObjectModelR24ObjectExplorationContextE6_4_FUNES2_S4_
                0x0001a6f8       0x16 ./build/./RepRapFirmware/src/GCodes/GCodeBuffer/GCodeBuffer.o
 *fill*         0x0001a70e        0x2 
 .text._ZN11GCodeBufferUlPK11ObjectModelR24ObjectExplorationContextE0_4_FUNES2_S4_
                0x0001a710       0x30 ./build/./RepRapFirmware/src/GCodes/GCodeBuffer/GCodeBuffer.o
 .text._ZNK11GCodeBuffer12GetStateTextEv
                0x0001a740       0x30 ./build/./RepRapFirmware/src/GCodes/GCodeBuffer/GCodeBuffer.o
                0x0001a740                GCodeBuffer::GetStateText() const
 .text._ZN11GCodeBufferUlPK11ObjectModelR24ObjectExplorationContextE8_4_FUNES2_S4_
                0x0001a770       0x14 ./build/./RepRapFirmware/src/GCodes/GCodeBuffer/GCodeBuffer.o
 .text._ZN11GCodeBuffer4InitEv
                0x0001a784       0x26 ./build/./RepRapFirmware/src/GCodes/GCodeBuffer/GCodeBuffer.o
                0x0001a784                GCodeBuffer::Init()
 .text._ZN11GCodeBuffer10StartTimerEv
                0x0001a7aa       0x14 ./build/./RepRapFirmware/src/GCodes/GCodeBuffer/GCodeBuffer.o
                0x0001a7aa                GCodeBuffer::StartTimer()
 .text._ZN11GCodeBuffer11DoDwellTimeEm
                0x0001a7be       0x32 ./build/./RepRapFirmware/src/GCodes/GCodeBuffer/GCodeBuffer.o
                0x0001a7be                GCodeBuffer::DoDwellTime(unsigned long)
 .text._ZN11GCodeBuffer11IsReportDueEv
                0x0001a7f0       0x24 ./build/./RepRapFirmware/src/GCodes/GCodeBuffer/GCodeBuffer.o
                0x0001a7f0                GCodeBuffer::IsReportDue()
 .text._ZN11GCodeBuffer3PutEc
                0x0001a814       0x24 ./build/./RepRapFirmware/src/GCodes/GCodeBuffer/GCodeBuffer.o
                0x0001a814                GCodeBuffer::Put(char)
 .text._ZN11GCodeBuffer13DecodeCommandEv
                0x0001a838       0x12 ./build/./RepRapFirmware/src/GCodes/GCodeBuffer/GCodeBuffer.o
                0x0001a838                GCodeBuffer::DecodeCommand()
 .text._ZN11GCodeBuffer16CheckMetaCommandERK9StringRef
                0x0001a84a       0x10 ./build/./RepRapFirmware/src/GCodes/GCodeBuffer/GCodeBuffer.o
                0x0001a84a                GCodeBuffer::CheckMetaCommand(StringRef const&)
 .text._ZN11GCodeBuffer9PutBinaryEPKmj
                0x0001a85a       0x2c ./build/./RepRapFirmware/src/GCodes/GCodeBuffer/GCodeBuffer.o
                0x0001a85a                GCodeBuffer::PutBinary(unsigned long const*, unsigned int)
 .text._ZN11GCodeBuffer12PutAndDecodeEPKcj
                0x0001a886       0x20 ./build/./RepRapFirmware/src/GCodes/GCodeBuffer/GCodeBuffer.o
                0x0001a886                GCodeBuffer::PutAndDecode(char const*, unsigned int)
 .text._ZN11GCodeBuffer12PutAndDecodeEPKc
                0x0001a8a6       0x1c ./build/./RepRapFirmware/src/GCodes/GCodeBuffer/GCodeBuffer.o
                0x0001a8a6                GCodeBuffer::PutAndDecode(char const*)
 .text._ZN11GCodeBuffer12StartNewFileEv
                0x0001a8c2       0x2a ./build/./RepRapFirmware/src/GCodes/GCodeBuffer/GCodeBuffer.o
                0x0001a8c2                GCodeBuffer::StartNewFile()
 .text._ZNK11GCodeBuffer16GetCommandLetterEv
                0x0001a8ec       0x12 ./build/./RepRapFirmware/src/GCodes/GCodeBuffer/GCodeBuffer.o
                0x0001a8ec                GCodeBuffer::GetCommandLetter() const
 .text._ZNK11GCodeBuffer16HasCommandNumberEv
                0x0001a8fe       0x12 ./build/./RepRapFirmware/src/GCodes/GCodeBuffer/GCodeBuffer.o
                0x0001a8fe                GCodeBuffer::HasCommandNumber() const
 .text._ZNK11GCodeBuffer16GetCommandNumberEv
                0x0001a910       0x12 ./build/./RepRapFirmware/src/GCodes/GCodeBuffer/GCodeBuffer.o
                0x0001a910                GCodeBuffer::GetCommandNumber() const
 .text._ZN11GCodeBuffer21GetCompleteParametersERK9StringRef
                0x0001a922       0x14 ./build/./RepRapFirmware/src/GCodes/GCodeBuffer/GCodeBuffer.o
                0x0001a922                GCodeBuffer::GetCompleteParameters(StringRef const&)
 .text._ZNK11GCodeBuffer18GetCommandFractionEv
                0x0001a936       0x12 ./build/./RepRapFirmware/src/GCodes/GCodeBuffer/GCodeBuffer.o
                0x0001a936                GCodeBuffer::GetCommandFraction() const
 .text._ZNK11GCodeBuffer13IsLastCommandEv
                0x0001a948       0x1e ./build/./RepRapFirmware/src/GCodes/GCodeBuffer/GCodeBuffer.o
                0x0001a948                GCodeBuffer::IsLastCommand() const
 .text._ZNK11GCodeBuffer18ContainsExpressionEv
                0x0001a966       0x12 ./build/./RepRapFirmware/src/GCodes/GCodeBuffer/GCodeBuffer.o
                0x0001a966                GCodeBuffer::ContainsExpression() const
 .text._ZN11GCodeBuffer4SeenEc
                0x0001a978       0x14 ./build/./RepRapFirmware/src/GCodes/GCodeBuffer/GCodeBuffer.o
                0x0001a978                GCodeBuffer::Seen(char)
 .text._ZN11GCodeBuffer9GetFValueEv
                0x0001a98c       0x14 ./build/./RepRapFirmware/src/GCodes/GCodeBuffer/GCodeBuffer.o
                0x0001a98c                GCodeBuffer::GetFValue()
 .text._ZN11GCodeBuffer9GetIValueEv
                0x0001a9a0       0x14 ./build/./RepRapFirmware/src/GCodes/GCodeBuffer/GCodeBuffer.o
                0x0001a9a0                GCodeBuffer::GetIValue()
 .text._ZN11GCodeBuffer10GetUIValueEv
                0x0001a9b4       0x12 ./build/./RepRapFirmware/src/GCodes/GCodeBuffer/GCodeBuffer.o
                0x0001a9b4                GCodeBuffer::GetUIValue()
 .text._ZN11GCodeBuffer12GetIPAddressER9IPAddress
                0x0001a9c6       0x12 ./build/./RepRapFirmware/src/GCodes/GCodeBuffer/GCodeBuffer.o
                0x0001a9c6                GCodeBuffer::GetIPAddress(IPAddress&)
 .text._ZN11GCodeBuffer13GetMacAddressER10MacAddress
                0x0001a9d8       0x12 ./build/./RepRapFirmware/src/GCodes/GCodeBuffer/GCodeBuffer.o
                0x0001a9d8                GCodeBuffer::GetMacAddress(MacAddress&)
 .text._ZN11GCodeBuffer22GetUnprecedentedStringERK9StringRefb
                0x0001a9ea       0x12 ./build/./RepRapFirmware/src/GCodes/GCodeBuffer/GCodeBuffer.o
                0x0001a9ea                GCodeBuffer::GetUnprecedentedString(StringRef const&, bool)
 .text._ZN11GCodeBuffer15GetQuotedStringERK9StringRefb
                0x0001a9fc       0x12 ./build/./RepRapFirmware/src/GCodes/GCodeBuffer/GCodeBuffer.o
                0x0001a9fc                GCodeBuffer::GetQuotedString(StringRef const&, bool)
 .text._ZN11GCodeBuffer23GetPossiblyQuotedStringERK9StringRefb
                0x0001aa0e       0x12 ./build/./RepRapFirmware/src/GCodes/GCodeBuffer/GCodeBuffer.o
                0x0001aa0e                GCodeBuffer::GetPossiblyQuotedString(StringRef const&, bool)
 .text._ZN11GCodeBuffer16GetReducedStringERK9StringRef
                0x0001aa20       0x3e ./build/./RepRapFirmware/src/GCodes/GCodeBuffer/GCodeBuffer.o
                0x0001aa20                GCodeBuffer::GetReducedString(StringRef const&)
 *fill*         0x0001aa5e        0x2 
 .text._ZN11GCodeBuffer13GetFloatArrayEPfRjb
                0x0001aa60       0x18 ./build/./RepRapFirmware/src/GCodes/GCodeBuffer/GCodeBuffer.o
                0x0001aa60                GCodeBuffer::GetFloatArray(float*, unsigned int&, bool)
 .text._ZN11GCodeBuffer11GetIntArrayEPlRjb
                0x0001aa78       0x18 ./build/./RepRapFirmware/src/GCodes/GCodeBuffer/GCodeBuffer.o
                0x0001aa78                GCodeBuffer::GetIntArray(long*, unsigned int&, bool)
 .text._ZN11GCodeBuffer16GetUnsignedArrayEPmRjb
                0x0001aa90       0x18 ./build/./RepRapFirmware/src/GCodes/GCodeBuffer/GCodeBuffer.o
                0x0001aa90                GCodeBuffer::GetUnsignedArray(unsigned long*, unsigned int&, bool)
 .text._ZN11GCodeBuffer16GetDriverIdArrayEP8DriverIdRj
                0x0001aaa8       0x12 ./build/./RepRapFirmware/src/GCodes/GCodeBuffer/GCodeBuffer.o
                0x0001aaa8                GCodeBuffer::GetDriverIdArray(DriverId*, unsigned int&)
 .text._ZN11GCodeBuffer12TryGetFValueEcRfRb
                0x0001aaba       0x20 ./build/./RepRapFirmware/src/GCodes/GCodeBuffer/GCodeBuffer.o
                0x0001aaba                GCodeBuffer::TryGetFValue(char, float&, bool&)
 .text._ZN11GCodeBuffer12TryGetIValueEcRlRb
                0x0001aada       0x20 ./build/./RepRapFirmware/src/GCodes/GCodeBuffer/GCodeBuffer.o
                0x0001aada                GCodeBuffer::TryGetIValue(char, long&, bool&)
 .text._ZN11GCodeBuffer13TryGetUIValueEcRmRb
                0x0001aafa       0x20 ./build/./RepRapFirmware/src/GCodes/GCodeBuffer/GCodeBuffer.o
                0x0001aafa                GCodeBuffer::TryGetUIValue(char, unsigned long&, bool&)
 .text._ZN11GCodeBuffer12TryGetBValueEcRbS0_
                0x0001ab1a       0x28 ./build/./RepRapFirmware/src/GCodes/GCodeBuffer/GCodeBuffer.o
                0x0001ab1a                GCodeBuffer::TryGetBValue(char, bool&, bool&)
 *fill*         0x0001ab42        0x2 
 .text._ZN11GCodeBuffer13TryGetUIArrayEcjPmRK9StringRefRbb
                0x0001ab44       0x4c ./build/./RepRapFirmware/src/GCodes/GCodeBuffer/GCodeBuffer.o
                0x0001ab44                GCodeBuffer::TryGetUIArray(char, unsigned int, unsigned long*, StringRef const&, bool&, bool)
 .text._ZN11GCodeBuffer16TryGetFloatArrayEcjPfRK9StringRefRbb
                0x0001ab90       0x4c ./build/./RepRapFirmware/src/GCodes/GCodeBuffer/GCodeBuffer.o
                0x0001ab90                GCodeBuffer::TryGetFloatArray(char, unsigned int, float*, StringRef const&, bool&, bool)
 .text._ZN11GCodeBuffer18TryGetQuotedStringEcRK9StringRefRbb
                0x0001abdc       0x24 ./build/./RepRapFirmware/src/GCodes/GCodeBuffer/GCodeBuffer.o
                0x0001abdc                GCodeBuffer::TryGetQuotedString(char, StringRef const&, bool&, bool)
 .text._ZN11GCodeBuffer26TryGetPossiblyQuotedStringEcRK9StringRefRb
                0x0001ac00       0x22 ./build/./RepRapFirmware/src/GCodes/GCodeBuffer/GCodeBuffer.o
                0x0001ac00                GCodeBuffer::TryGetPossiblyQuotedString(char, StringRef const&, bool&)
 .text._ZN11GCodeBuffer15GetPwmFrequencyEv
                0x0001ac22       0x1a ./build/./RepRapFirmware/src/GCodes/GCodeBuffer/GCodeBuffer.o
                0x0001ac22                GCodeBuffer::GetPwmFrequency()
 .text._ZN11GCodeBuffer11GetPwmValueEv
                0x0001ac3c       0x4c ./build/./RepRapFirmware/src/GCodes/GCodeBuffer/GCodeBuffer.o
                0x0001ac3c                GCodeBuffer::GetPwmValue()
 .text._ZN11GCodeBuffer11GetDriverIdEv
                0x0001ac88       0x12 ./build/./RepRapFirmware/src/GCodes/GCodeBuffer/GCodeBuffer.o
                0x0001ac88                GCodeBuffer::GetDriverId()
 .text._ZNK11GCodeBuffer6IsIdleEv
                0x0001ac9a       0x10 ./build/./RepRapFirmware/src/GCodes/GCodeBuffer/GCodeBuffer.o
                0x0001ac9a                GCodeBuffer::IsIdle() const
 .text._ZNK11GCodeBuffer16IsCompletelyIdleEv
                0x0001acaa       0x1e ./build/./RepRapFirmware/src/GCodes/GCodeBuffer/GCodeBuffer.o
                0x0001acaa                GCodeBuffer::IsCompletelyIdle() const
 .text._ZN11GCodeBuffer11SetFinishedEb
                0x0001acc8       0x28 ./build/./RepRapFirmware/src/GCodes/GCodeBuffer/GCodeBuffer.o
                0x0001acc8                GCodeBuffer::SetFinished(bool)
 .text._ZN11GCodeBuffer18SetCommsPropertiesEm
                0x0001acf0       0x10 ./build/./RepRapFirmware/src/GCodes/GCodeBuffer/GCodeBuffer.o
