Archive member included to satisfy reference by file (symbol)

./build/\libLPCCore.a(startup_LPC17xx.o)
                              (Reset_Handler)
./build/\libLPCCore.a(main.o)
                              c:/users/andy/.vscode/extensions/metalcode-eu.windows-arm-none-eabi-0.1.6/bin/../lib/gcc/arm-none-eabi/8.2.1/../../../../arm-none-eabi/lib/thumb/v7-m/nofp/crt0.o (main)
./build/\libLPCCore.a(variant.o)
                              ./build/\libLPCCore.a(main.o) (init())
./build/\libLPCCore.a(heap_5.o)
                              ./build/\libLPCCore.a(main.o) (vPortDefineHeapRegions)
./build/\libLPCCore.a(port.o)
                              ./build/\libLPCCore.a(heap_5.o) (vPortEnterCritical)
./build/\libLPCCore.a(systick.o)
                              ./build/\libLPCCore.a(main.o) (SysTick_Init)
./build/\libLPCCore.a(system_LPC17xx.o)
                              ./build/\libLPCCore.a(main.o) (SystemInit)
./build/\libLPCCore.a(clock_17xx_40xx.o)
                              ./build/\libLPCCore.a(system_LPC17xx.o) (Chip_Clock_EnablePLL)
./build/\libLPCCore.a(iap.o)  ./build/\libLPCCore.a(system_LPC17xx.o) (Chip_IAP_ReadPID)
./build/\libLPCCore.a(AnalogIn.o)
                              ./build/\libLPCCore.a(variant.o) (AnalogInInit())
./build/\libLPCCore.a(AnalogOut.o)
                              ./build/\libLPCCore.a(variant.o) (AnalogOutInit())
./build/\libLPCCore.a(AnalogOutServo.o)
                              ./build/\libLPCCore.a(AnalogOut.o) (AnalogWriteServo(float, unsigned short, gpioPins_et))
./build/\libLPCCore.a(AnalogOutSoftwarePWM.o)
                              ./build/\libLPCCore.a(AnalogOut.o) (CanDoSoftwarePWM(gpioPins_et))
./build/\libLPCCore.a(new.o)  ./build/\libLPCCore.a(AnalogOutSoftwarePWM.o) (operator new(unsigned int))
./build/\libLPCCore.a(wiring_digital.o)
                              ./build/\libLPCCore.a(AnalogOut.o) (pinModeDuet)
./build/\libLPCCore.a(SoftwarePWM.o)
                              ./build/\libLPCCore.a(AnalogOutSoftwarePWM.o) (SoftwarePWM::SoftwarePWM(gpioPins_et))
./build/\libLPCCore.a(SoftwarePWMTimer.o)
                              ./build/\libLPCCore.a(SoftwarePWM.o) (SoftwarePWMTimer::disable(int))
./build/\libLPCCore.a(tasks.o)
                              ./build/\libLPCCore.a(heap_5.o) (vTaskSuspendAll)
./build/\libLPCCore.a(gpio.o)
                              ./build/\libLPCCore.a(AnalogIn.o) (GPIO_PinFunction)
./build/\libLPCCore.a(adc_17xx_40xx.o)
                              ./build/\libLPCCore.a(AnalogIn.o) (Chip_ADC_Init)
./build/\libLPCCore.a(ADCPreFilter.o)
                              ./build/\libLPCCore.a(AnalogIn.o) (ADCPreFilter::UpdateChannels(unsigned char))
./build/\libLPCCore.a(DMA.o)  ./build/\libLPCCore.a(ADCPreFilter.o) (InitialiseDMA())
./build/\libLPCCore.a(list.o)
                              ./build/\libLPCCore.a(tasks.o) (vListInitialise)
./build/\libLPCCore.a(gpdma_17xx_40xx.o)
                              ./build/\libLPCCore.a(DMA.o) (Chip_GPDMA_Init)
c:/users/andy/.vscode/extensions/metalcode-eu.windows-arm-none-eabi-0.1.6/bin/../lib/gcc/arm-none-eabi/8.2.1/../../../../arm-none-eabi/lib/thumb/v7-m/nofp\libsupc++.a(atexit_arm.o)
                              ./build/./RepRapFirmware/src/RepRapFirmware.o (__aeabi_atexit)
c:/users/andy/.vscode/extensions/metalcode-eu.windows-arm-none-eabi-0.1.6/bin/../lib/gcc/arm-none-eabi/8.2.1/../../../../arm-none-eabi/lib/thumb/v7-m/nofp\libsupc++.a(class_type_info.o)
                              ./build/./RepRapFirmware/src/GCodes/GCodes.o (vtable for __cxxabiv1::__class_type_info)
c:/users/andy/.vscode/extensions/metalcode-eu.windows-arm-none-eabi-0.1.6/bin/../lib/gcc/arm-none-eabi/8.2.1/../../../../arm-none-eabi/lib/thumb/v7-m/nofp\libsupc++.a(eh_arm.o)
                              ./build/./RepRapFirmware/src/Platform.o (__cxa_end_cleanup)
c:/users/andy/.vscode/extensions/metalcode-eu.windows-arm-none-eabi-0.1.6/bin/../lib/gcc/arm-none-eabi/8.2.1/../../../../arm-none-eabi/lib/thumb/v7-m/nofp\libsupc++.a(eh_catch.o)
                              ./build/./RepRapFirmware/src/GCodes/GCodes.o (__cxa_begin_catch)
c:/users/andy/.vscode/extensions/metalcode-eu.windows-arm-none-eabi-0.1.6/bin/../lib/gcc/arm-none-eabi/8.2.1/../../../../arm-none-eabi/lib/thumb/v7-m/nofp\libsupc++.a(eh_exception.o)
                              c:/users/andy/.vscode/extensions/metalcode-eu.windows-arm-none-eabi-0.1.6/bin/../lib/gcc/arm-none-eabi/8.2.1/../../../../arm-none-eabi/lib/thumb/v7-m/nofp\libsupc++.a(eh_arm.o) (typeinfo for __cxxabiv1::__forced_unwind)
c:/users/andy/.vscode/extensions/metalcode-eu.windows-arm-none-eabi-0.1.6/bin/../lib/gcc/arm-none-eabi/8.2.1/../../../../arm-none-eabi/lib/thumb/v7-m/nofp\libsupc++.a(eh_globals.o)
                              c:/users/andy/.vscode/extensions/metalcode-eu.windows-arm-none-eabi-0.1.6/bin/../lib/gcc/arm-none-eabi/8.2.1/../../../../arm-none-eabi/lib/thumb/v7-m/nofp\libsupc++.a(eh_catch.o) (__cxa_get_globals_fast)
c:/users/andy/.vscode/extensions/metalcode-eu.windows-arm-none-eabi-0.1.6/bin/../lib/gcc/arm-none-eabi/8.2.1/../../../../arm-none-eabi/lib/thumb/v7-m/nofp\libsupc++.a(eh_personality.o)
                              ./build/./RepRapFirmware/src/Logger.o (__gxx_personality_v0)
c:/users/andy/.vscode/extensions/metalcode-eu.windows-arm-none-eabi-0.1.6/bin/../lib/gcc/arm-none-eabi/8.2.1/../../../../arm-none-eabi/lib/thumb/v7-m/nofp\libsupc++.a(eh_terminate.o)
                              ./build/./RepRapFirmware/src/libcpp/eh_alloc.o (std::terminate())
c:/users/andy/.vscode/extensions/metalcode-eu.windows-arm-none-eabi-0.1.6/bin/../lib/gcc/arm-none-eabi/8.2.1/../../../../arm-none-eabi/lib/thumb/v7-m/nofp\libsupc++.a(eh_throw.o)
                              ./build/./RepRapFirmware/src/GCodes/GCodes.o (__cxa_throw)
c:/users/andy/.vscode/extensions/metalcode-eu.windows-arm-none-eabi-0.1.6/bin/../lib/gcc/arm-none-eabi/8.2.1/../../../../arm-none-eabi/lib/thumb/v7-m/nofp\libsupc++.a(eh_unex_handler.o)
                              c:/users/andy/.vscode/extensions/metalcode-eu.windows-arm-none-eabi-0.1.6/bin/../lib/gcc/arm-none-eabi/8.2.1/../../../../arm-none-eabi/lib/thumb/v7-m/nofp\libsupc++.a(eh_terminate.o) (__cxxabiv1::__unexpected_handler)
c:/users/andy/.vscode/extensions/metalcode-eu.windows-arm-none-eabi-0.1.6/bin/../lib/gcc/arm-none-eabi/8.2.1/../../../../arm-none-eabi/lib/thumb/v7-m/nofp\libsupc++.a(si_class_type_info.o)
                              c:/users/andy/.vscode/extensions/metalcode-eu.windows-arm-none-eabi-0.1.6/bin/../lib/gcc/arm-none-eabi/8.2.1/../../../../arm-none-eabi/lib/thumb/v7-m/nofp\libsupc++.a(class_type_info.o) (vtable for __cxxabiv1::__si_class_type_info)
c:/users/andy/.vscode/extensions/metalcode-eu.windows-arm-none-eabi-0.1.6/bin/../lib/gcc/arm-none-eabi/8.2.1/../../../../arm-none-eabi/lib/thumb/v7-m/nofp\libsupc++.a(tinfo.o)
                              c:/users/andy/.vscode/extensions/metalcode-eu.windows-arm-none-eabi-0.1.6/bin/../lib/gcc/arm-none-eabi/8.2.1/../../../../arm-none-eabi/lib/thumb/v7-m/nofp\libsupc++.a(class_type_info.o) (std::type_info::~type_info())
c:/users/andy/.vscode/extensions/metalcode-eu.windows-arm-none-eabi-0.1.6/bin/../lib/gcc/arm-none-eabi/8.2.1/../../../../arm-none-eabi/lib/thumb/v7-m/nofp\libsupc++.a(eh_call.o)
                              c:/users/andy/.vscode/extensions/metalcode-eu.windows-arm-none-eabi-0.1.6/bin/../lib/gcc/arm-none-eabi/8.2.1/../../../../arm-none-eabi/lib/thumb/v7-m/nofp\libsupc++.a(eh_personality.o) (__cxa_call_terminate)
./build/\libRRFLibraries.a(IP4String.o)
                              ./build/./RepRapFirmware/src/ObjectModel/ObjectModel.o (IP4String::IP4String(unsigned long))
./build/\libRRFLibraries.a(IPAddress.o)
                              ./build/./RepRapFirmware/src/GCodes/GCodeBuffer/StringParser.o (IPAddress::SetV4(unsigned char const*))
./build/\libRRFLibraries.a(NamedEnum.o)
                              ./build/./RepRapFirmware/src/GCodes/GCodeBuffer/ExpressionParser.o (NamedEnumLookup(char const*, char const* const*, unsigned int))
./build/\libRRFLibraries.a(NumericConverter.o)
                              ./build/./RepRapFirmware/src/GCodes/GCodeBuffer/ExpressionParser.o (NumericConverter::FitsInInt32() const)
./build/\libRRFLibraries.a(SafeStrtod.o)
                              ./build/./RepRapFirmware/src/GCodes/GCodes3.o (SafeStrtof(char const*, char const**))
./build/\libRRFLibraries.a(SafeVsnprintf.o)
                              ./build/./RepRapFirmware/src/OutputMemory.o (SafeVsnprintf(char*, unsigned int, char const*, std::__va_list))
./build/\libRRFLibraries.a(StringBuffer.o)
                              ./build/./RepRapFirmware/src/GCodes/GCodeBuffer/ExpressionParser.o (StringBuffer::Fix())
./build/\libRRFLibraries.a(StringFunctions.o)
                              ./build/./RepRapFirmware/src/GCodes/GCodes.o (StringEqualsIgnoreCase(char const*, char const*))
./build/\libRRFLibraries.a(StringRef.o)
                              ./build/./RepRapFirmware/src/OutputMemory.o (StringRef::strlen() const)
./build/\libRRFLibraries.a(Strnlen.o)
                              ./build/./RepRapFirmware/src/Platform.o (Strnlen(char const*, unsigned int))
./build/\libRRFLibraries.a(Deviation.o)
                              ./build/./RepRapFirmware/src/GCodes/GCodes4.o (Deviation::Deviation())
./build/\libRRFLibraries.a(Isqrt.o)
                              ./build/./RepRapFirmware/src/Platform.o (isqrt64(unsigned long long))
./build/\libRRFLibraries.a(RTOSIface.o)
                              ./build/./RepRapFirmware/src/Platform.o (Mutex::Create(char const*))
./build/\libLPCCore.a(wdt.o)  ./build/./RepRapFirmware/src/RepRap.o (wdt_init)
./build/\libLPCCore.a(timer.o)
                              ./build/./RepRapFirmware/src/Movement/StepTimer.o (getPclk)
./build/\libLPCCore.a(Reset.o)
                              ./build/./RepRapFirmware/src/Hardware/ExceptionHandlers.o (Reset)
./build/\libLPCCore.a(WMath.o)
                              ./build/./RepRapFirmware/src/GCodes/GCodeBuffer/ExpressionParser.o (random(long))
./build/\libLPCCore.a(exti.o)
                              ./build/./RepRapFirmware/src/Hardware/IoPorts.o (attachInterrupt(gpioPins_et, void (*)(CallbackParameter) noexcept, InterruptMode, CallbackParameter))
./build/\libLPCCore.a(SerialUSB.o)
                              ./build/./RepRapFirmware/src/Platform.o (SerialUSB::write(unsigned char const*, unsigned int))
./build/\libLPCCore.a(wirish_time.o)
                              ./build/./RepRapFirmware/src/Hardware/SharedSpi/SharedSpiClient.o (delayMicroseconds)
./build/\libLPCCore.a(USBCDC.o)
                              ./build/\libLPCCore.a(SerialUSB.o) (USBCDC::send_nb(unsigned char*, unsigned long, unsigned long*, bool))
./build/\libLPCCore.a(USBSerial.o)
                              ./build/\libLPCCore.a(SerialUSB.o) (USBSerial::USBSerial(bool, unsigned short, unsigned short, unsigned short))
./build/\libLPCCore.a(ConfigurableUART.o)
                              ./build/./RepRapFirmware/src/GCodes/GCodes.o (ConfigurableUART::read())
./build/\libLPCCore.a(SPI.o)  ./build/./RepRapFirmware/src/Hardware/SharedSpi/SharedSpiDevice.o (SPI::getSSPDevice(SSPChannel))
./build/\libLPCCore.a(Wire.o)
                              ./build/./RepRapFirmware/src/LPC/MCP4461/MCP4461.o (TwoWire::begin(unsigned char))
./build/\libLPCCore.a(WireBase.o)
                              ./build/./RepRapFirmware/src/LPC/MCP4461/MCP4461.o (WireBase::beginTransmission(unsigned char))
./build/\libLPCCore.a(queue.o)
                              ./build/\libRRFLibraries.a(RTOSIface.o) (xQueueGenericCreateStatic)
./build/\libLPCCore.a(FreeRTOS_IP.o)
                              ./build/./RepRapFirmware/src/LPC/Networking/RTOSPlusTCPEthernet/RTOSPlusTCPEthernetInterface.o (FreeRTOS_IPInit)
./build/\libLPCCore.a(FreeRTOS_Sockets.o)
                              ./build/\libLPCCore.a(FreeRTOS_IP.o) (vNetworkSocketsInit)
./build/\libLPCCore.a(FreeRTOS_Stream_Buffer.o)
                              ./build/\libLPCCore.a(FreeRTOS_Sockets.o) (uxStreamBufferAdd)
./build/\libLPCCore.a(FreeRTOS_TCP_IP.o)
                              ./build/\libLPCCore.a(FreeRTOS_Sockets.o) (vTCPStateChange)
./build/\libLPCCore.a(FreeRTOS_TCP_WIN.o)
                              ./build/\libLPCCore.a(FreeRTOS_TCP_IP.o) (vTCPWindowInit)
./build/\libLPCCore.a(FreeRTOS_UDP_IP.o)
                              ./build/\libLPCCore.a(FreeRTOS_IP.o) (vProcessGeneratedUDPPacket)
./build/\libLPCCore.a(BufferAllocation_1.o)
                              ./build/\libLPCCore.a(FreeRTOS_IP.o) (xNetworkBuffersInitialise)
./build/\libLPCCore.a(NetworkInterface.o)
                              ./build/\libLPCCore.a(BufferAllocation_1.o) (vNetworkInterfaceAllocateRAMToBuffers)
./build/\libLPCCore.a(delay.o)
                              ./build/\libLPCCore.a(wirish_time.o) (delay_us)
./build/\libLPCCore.a(enet_17xx_40xx.o)
                              ./build/\libLPCCore.a(NetworkInterface.o) (Chip_ENET_Init)
./build/\libLPCCore.a(lpc_phy_smsc87x0.o)
                              ./build/\libLPCCore.a(NetworkInterface.o) (lpc_phy_init)
./build/\libLPCCore.a(HardwareSerial.o)
                              ./build/\libLPCCore.a(ConfigurableUART.o) (HardwareSerial::begin(unsigned long))
./build/\libLPCCore.a(usart.o)
                              ./build/\libLPCCore.a(HardwareSerial.o) (usart_init)
./build/\libLPCCore.a(USBHAL_LPC17.o)
                              ./build/\libLPCCore.a(USBCDC.o) (get_usb_phy())
./build/\libLPCCore.a(EndpointResolver.o)
                              ./build/\libLPCCore.a(USBCDC.o) (EndpointResolver::EndpointResolver(usb_ep_table_t const*))
./build/\libLPCCore.a(USBDevice.o)
                              ./build/\libLPCCore.a(USBCDC.o) (USBDevice::out_packet(unsigned char))
./build/\libLPCCore.a(HardwareSPI.o)
                              ./build/\libLPCCore.a(SPI.o) (HardwareSPI::SSP1)
./build/\libLPCCore.a(SoftwareSPI.o)
                              ./build/\libLPCCore.a(SPI.o) (SoftwareSPI::SWSSP0)
./build/\libLPCCore.a(event_groups.o)
                              ./build/\libLPCCore.a(FreeRTOS_Sockets.o) (xEventGroupCreate)
./build/\libLPCCore.a(FreeRTOS_ARP.o)
                              ./build/\libLPCCore.a(FreeRTOS_IP.o) (vARPRefreshCacheEntry)
./build/\libLPCCore.a(FreeRTOS_DHCP.o)
                              ./build/\libLPCCore.a(FreeRTOS_UDP_IP.o) (xIsDHCPSocket)
./build/\libLPCCore.a(iocon_17xx_40xx.o)
                              ./build/\libLPCCore.a(HardwareSPI.o) (Chip_IOCON_PinMux)
./build/\libLPCCore.a(ring_buffer.o)
                              ./build/\libLPCCore.a(HardwareSerial.o) (RingBuffer_Init)
./build/\libLPCCore.a(ssp_17xx_40xx.o)
                              ./build/\libLPCCore.a(HardwareSPI.o) (Chip_SSP_SetBitRate)
./build/\libLPCCore.a(uart_17xx_40xx.o)
                              ./build/\libLPCCore.a(usart.o) (Chip_UART_TXEnable)
./build/\libLPCCore.a(mbed_critical.o)
                              ./build/\libLPCCore.a(USBDevice.o) (core_util_critical_section_enter)
c:/users/andy/.vscode/extensions/metalcode-eu.windows-arm-none-eabi-0.1.6/bin/../lib/gcc/arm-none-eabi/8.2.1/../../../../arm-none-eabi/lib/thumb/v7-m/nofp\libm.a(lib_a-s_llrint.o)
                              ./build/\libRRFLibraries.a(SafeVsnprintf.o) (llrint)
c:/users/andy/.vscode/extensions/metalcode-eu.windows-arm-none-eabi-0.1.6/bin/../lib/gcc/arm-none-eabi/8.2.1/../../../../arm-none-eabi/lib/thumb/v7-m/nofp\libm.a(lib_a-sf_atan.o)
                              ./build/./RepRapFirmware/src/GCodes/GCodes2.o (atanf)
c:/users/andy/.vscode/extensions/metalcode-eu.windows-arm-none-eabi-0.1.6/bin/../lib/gcc/arm-none-eabi/8.2.1/../../../../arm-none-eabi/lib/thumb/v7-m/nofp\libm.a(lib_a-sf_cos.o)
                              ./build/./RepRapFirmware/src/RepRap.o (cosf)
c:/users/andy/.vscode/extensions/metalcode-eu.windows-arm-none-eabi-0.1.6/bin/../lib/gcc/arm-none-eabi/8.2.1/../../../../arm-none-eabi/lib/thumb/v7-m/nofp\libm.a(lib_a-sf_fabs.o)
                              c:/users/andy/.vscode/extensions/metalcode-eu.windows-arm-none-eabi-0.1.6/bin/../lib/gcc/arm-none-eabi/8.2.1/../../../../arm-none-eabi/lib/thumb/v7-m/nofp\libm.a(lib_a-sf_atan.o) (fabsf)
c:/users/andy/.vscode/extensions/metalcode-eu.windows-arm-none-eabi-0.1.6/bin/../lib/gcc/arm-none-eabi/8.2.1/../../../../arm-none-eabi/lib/thumb/v7-m/nofp\libm.a(lib_a-sf_floor.o)
                              ./build/./RepRapFirmware/src/GCodes/GCodes.o (floorf)
c:/users/andy/.vscode/extensions/metalcode-eu.windows-arm-none-eabi-0.1.6/bin/../lib/gcc/arm-none-eabi/8.2.1/../../../../arm-none-eabi/lib/thumb/v7-m/nofp\libm.a(lib_a-sf_lrint.o)
                              ./build/./RepRapFirmware/src/Platform.o (lrintf)
c:/users/andy/.vscode/extensions/metalcode-eu.windows-arm-none-eabi-0.1.6/bin/../lib/gcc/arm-none-eabi/8.2.1/../../../../arm-none-eabi/lib/thumb/v7-m/nofp\libm.a(lib_a-sf_rint.o)
                              ./build/./RepRapFirmware/src/GCodes/GCodeFileInfo.o (rintf)
c:/users/andy/.vscode/extensions/metalcode-eu.windows-arm-none-eabi-0.1.6/bin/../lib/gcc/arm-none-eabi/8.2.1/../../../../arm-none-eabi/lib/thumb/v7-m/nofp\libm.a(lib_a-sf_round.o)
                              ./build/./RepRapFirmware/src/RepRap.o (roundf)
c:/users/andy/.vscode/extensions/metalcode-eu.windows-arm-none-eabi-0.1.6/bin/../lib/gcc/arm-none-eabi/8.2.1/../../../../arm-none-eabi/lib/thumb/v7-m/nofp\libm.a(lib_a-sf_sin.o)
                              ./build/./RepRapFirmware/src/RepRap.o (sinf)
c:/users/andy/.vscode/extensions/metalcode-eu.windows-arm-none-eabi-0.1.6/bin/../lib/gcc/arm-none-eabi/8.2.1/../../../../arm-none-eabi/lib/thumb/v7-m/nofp\libm.a(lib_a-sf_tan.o)
                              ./build/./RepRapFirmware/src/GCodes/GCodeBuffer/ExpressionParser.o (tanf)
c:/users/andy/.vscode/extensions/metalcode-eu.windows-arm-none-eabi-0.1.6/bin/../lib/gcc/arm-none-eabi/8.2.1/../../../../arm-none-eabi/lib/thumb/v7-m/nofp\libm.a(lib_a-w_pow.o)
                              ./build/\libRRFLibraries.a(NumericConverter.o) (pow)
c:/users/andy/.vscode/extensions/metalcode-eu.windows-arm-none-eabi-0.1.6/bin/../lib/gcc/arm-none-eabi/8.2.1/../../../../arm-none-eabi/lib/thumb/v7-m/nofp\libm.a(lib_a-wf_acos.o)
                              ./build/./RepRapFirmware/src/GCodes/GCodeBuffer/ExpressionParser.o (acosf)
c:/users/andy/.vscode/extensions/metalcode-eu.windows-arm-none-eabi-0.1.6/bin/../lib/gcc/arm-none-eabi/8.2.1/../../../../arm-none-eabi/lib/thumb/v7-m/nofp\libm.a(lib_a-wf_asin.o)
                              ./build/./RepRapFirmware/src/GCodes/GCodeBuffer/ExpressionParser.o (asinf)
c:/users/andy/.vscode/extensions/metalcode-eu.windows-arm-none-eabi-0.1.6/bin/../lib/gcc/arm-none-eabi/8.2.1/../../../../arm-none-eabi/lib/thumb/v7-m/nofp\libm.a(lib_a-wf_atan2.o)
                              ./build/./RepRapFirmware/src/GCodes/GCodes.o (atan2f)
c:/users/andy/.vscode/extensions/metalcode-eu.windows-arm-none-eabi-0.1.6/bin/../lib/gcc/arm-none-eabi/8.2.1/../../../../arm-none-eabi/lib/thumb/v7-m/nofp\libm.a(lib_a-wf_exp.o)
                              ./build/./RepRapFirmware/src/Heating/LocalHeater.o (expf)
c:/users/andy/.vscode/extensions/metalcode-eu.windows-arm-none-eabi-0.1.6/bin/../lib/gcc/arm-none-eabi/8.2.1/../../../../arm-none-eabi/lib/thumb/v7-m/nofp\libm.a(lib_a-wf_fmod.o)
                              ./build/./RepRapFirmware/src/GCodes/GCodeBuffer/ExpressionParser.o (fmodf)
c:/users/andy/.vscode/extensions/metalcode-eu.windows-arm-none-eabi-0.1.6/bin/../lib/gcc/arm-none-eabi/8.2.1/../../../../arm-none-eabi/lib/thumb/v7-m/nofp\libm.a(lib_a-wf_log.o)
                              ./build/./RepRapFirmware/src/Heating/LocalHeater.o (logf)
c:/users/andy/.vscode/extensions/metalcode-eu.windows-arm-none-eabi-0.1.6/bin/../lib/gcc/arm-none-eabi/8.2.1/../../../../arm-none-eabi/lib/thumb/v7-m/nofp\libm.a(lib_a-wf_pow.o)
                              ./build/./RepRapFirmware/src/Heating/FOPDT.o (powf)
c:/users/andy/.vscode/extensions/metalcode-eu.windows-arm-none-eabi-0.1.6/bin/../lib/gcc/arm-none-eabi/8.2.1/../../../../arm-none-eabi/lib/thumb/v7-m/nofp\libm.a(lib_a-wf_sqrt.o)
                              ./build/./RepRapFirmware/src/GCodes/GCodes.o (sqrtf)
c:/users/andy/.vscode/extensions/metalcode-eu.windows-arm-none-eabi-0.1.6/bin/../lib/gcc/arm-none-eabi/8.2.1/../../../../arm-none-eabi/lib/thumb/v7-m/nofp\libm.a(lib_a-e_pow.o)
                              c:/users/andy/.vscode/extensions/metalcode-eu.windows-arm-none-eabi-0.1.6/bin/../lib/gcc/arm-none-eabi/8.2.1/../../../../arm-none-eabi/lib/thumb/v7-m/nofp\libm.a(lib_a-w_pow.o) (__ieee754_pow)
c:/users/andy/.vscode/extensions/metalcode-eu.windows-arm-none-eabi-0.1.6/bin/../lib/gcc/arm-none-eabi/8.2.1/../../../../arm-none-eabi/lib/thumb/v7-m/nofp\libm.a(lib_a-e_sqrt.o)
                              c:/users/andy/.vscode/extensions/metalcode-eu.windows-arm-none-eabi-0.1.6/bin/../lib/gcc/arm-none-eabi/8.2.1/../../../../arm-none-eabi/lib/thumb/v7-m/nofp\libm.a(lib_a-e_pow.o) (__ieee754_sqrt)
c:/users/andy/.vscode/extensions/metalcode-eu.windows-arm-none-eabi-0.1.6/bin/../lib/gcc/arm-none-eabi/8.2.1/../../../../arm-none-eabi/lib/thumb/v7-m/nofp\libm.a(lib_a-ef_acos.o)
                              c:/users/andy/.vscode/extensions/metalcode-eu.windows-arm-none-eabi-0.1.6/bin/../lib/gcc/arm-none-eabi/8.2.1/../../../../arm-none-eabi/lib/thumb/v7-m/nofp\libm.a(lib_a-wf_acos.o) (__ieee754_acosf)
c:/users/andy/.vscode/extensions/metalcode-eu.windows-arm-none-eabi-0.1.6/bin/../lib/gcc/arm-none-eabi/8.2.1/../../../../arm-none-eabi/lib/thumb/v7-m/nofp\libm.a(lib_a-ef_asin.o)
                              c:/users/andy/.vscode/extensions/metalcode-eu.windows-arm-none-eabi-0.1.6/bin/../lib/gcc/arm-none-eabi/8.2.1/../../../../arm-none-eabi/lib/thumb/v7-m/nofp\libm.a(lib_a-wf_asin.o) (__ieee754_asinf)
c:/users/andy/.vscode/extensions/metalcode-eu.windows-arm-none-eabi-0.1.6/bin/../lib/gcc/arm-none-eabi/8.2.1/../../../../arm-none-eabi/lib/thumb/v7-m/nofp\libm.a(lib_a-ef_atan2.o)
                              c:/users/andy/.vscode/extensions/metalcode-eu.windows-arm-none-eabi-0.1.6/bin/../lib/gcc/arm-none-eabi/8.2.1/../../../../arm-none-eabi/lib/thumb/v7-m/nofp\libm.a(lib_a-wf_atan2.o) (__ieee754_atan2f)
c:/users/andy/.vscode/extensions/metalcode-eu.windows-arm-none-eabi-0.1.6/bin/../lib/gcc/arm-none-eabi/8.2.1/../../../../arm-none-eabi/lib/thumb/v7-m/nofp\libm.a(lib_a-ef_exp.o)
                              c:/users/andy/.vscode/extensions/metalcode-eu.windows-arm-none-eabi-0.1.6/bin/../lib/gcc/arm-none-eabi/8.2.1/../../../../arm-none-eabi/lib/thumb/v7-m/nofp\libm.a(lib_a-wf_exp.o) (__ieee754_expf)
c:/users/andy/.vscode/extensions/metalcode-eu.windows-arm-none-eabi-0.1.6/bin/../lib/gcc/arm-none-eabi/8.2.1/../../../../arm-none-eabi/lib/thumb/v7-m/nofp\libm.a(lib_a-ef_fmod.o)
                              c:/users/andy/.vscode/extensions/metalcode-eu.windows-arm-none-eabi-0.1.6/bin/../lib/gcc/arm-none-eabi/8.2.1/../../../../arm-none-eabi/lib/thumb/v7-m/nofp\libm.a(lib_a-wf_fmod.o) (__ieee754_fmodf)
c:/users/andy/.vscode/extensions/metalcode-eu.windows-arm-none-eabi-0.1.6/bin/../lib/gcc/arm-none-eabi/8.2.1/../../../../arm-none-eabi/lib/thumb/v7-m/nofp\libm.a(lib_a-ef_log.o)
                              c:/users/andy/.vscode/extensions/metalcode-eu.windows-arm-none-eabi-0.1.6/bin/../lib/gcc/arm-none-eabi/8.2.1/../../../../arm-none-eabi/lib/thumb/v7-m/nofp\libm.a(lib_a-wf_log.o) (__ieee754_logf)
c:/users/andy/.vscode/extensions/metalcode-eu.windows-arm-none-eabi-0.1.6/bin/../lib/gcc/arm-none-eabi/8.2.1/../../../../arm-none-eabi/lib/thumb/v7-m/nofp\libm.a(lib_a-ef_pow.o)
                              c:/users/andy/.vscode/extensions/metalcode-eu.windows-arm-none-eabi-0.1.6/bin/../lib/gcc/arm-none-eabi/8.2.1/../../../../arm-none-eabi/lib/thumb/v7-m/nofp\libm.a(lib_a-wf_pow.o) (__ieee754_powf)
c:/users/andy/.vscode/extensions/metalcode-eu.windows-arm-none-eabi-0.1.6/bin/../lib/gcc/arm-none-eabi/8.2.1/../../../../arm-none-eabi/lib/thumb/v7-m/nofp\libm.a(lib_a-ef_rem_pio2.o)
                              c:/users/andy/.vscode/extensions/metalcode-eu.windows-arm-none-eabi-0.1.6/bin/../lib/gcc/arm-none-eabi/8.2.1/../../../../arm-none-eabi/lib/thumb/v7-m/nofp\libm.a(lib_a-sf_cos.o) (__ieee754_rem_pio2f)
c:/users/andy/.vscode/extensions/metalcode-eu.windows-arm-none-eabi-0.1.6/bin/../lib/gcc/arm-none-eabi/8.2.1/../../../../arm-none-eabi/lib/thumb/v7-m/nofp\libm.a(lib_a-ef_sqrt.o)
                              c:/users/andy/.vscode/extensions/metalcode-eu.windows-arm-none-eabi-0.1.6/bin/../lib/gcc/arm-none-eabi/8.2.1/../../../../arm-none-eabi/lib/thumb/v7-m/nofp\libm.a(lib_a-wf_sqrt.o) (__ieee754_sqrtf)
c:/users/andy/.vscode/extensions/metalcode-eu.windows-arm-none-eabi-0.1.6/bin/../lib/gcc/arm-none-eabi/8.2.1/../../../../arm-none-eabi/lib/thumb/v7-m/nofp\libm.a(lib_a-kf_cos.o)
                              c:/users/andy/.vscode/extensions/metalcode-eu.windows-arm-none-eabi-0.1.6/bin/../lib/gcc/arm-none-eabi/8.2.1/../../../../arm-none-eabi/lib/thumb/v7-m/nofp\libm.a(lib_a-sf_cos.o) (__kernel_cosf)
c:/users/andy/.vscode/extensions/metalcode-eu.windows-arm-none-eabi-0.1.6/bin/../lib/gcc/arm-none-eabi/8.2.1/../../../../arm-none-eabi/lib/thumb/v7-m/nofp\libm.a(lib_a-kf_rem_pio2.o)
                              c:/users/andy/.vscode/extensions/metalcode-eu.windows-arm-none-eabi-0.1.6/bin/../lib/gcc/arm-none-eabi/8.2.1/../../../../arm-none-eabi/lib/thumb/v7-m/nofp\libm.a(lib_a-ef_rem_pio2.o) (__kernel_rem_pio2f)
c:/users/andy/.vscode/extensions/metalcode-eu.windows-arm-none-eabi-0.1.6/bin/../lib/gcc/arm-none-eabi/8.2.1/../../../../arm-none-eabi/lib/thumb/v7-m/nofp\libm.a(lib_a-kf_sin.o)
                              c:/users/andy/.vscode/extensions/metalcode-eu.windows-arm-none-eabi-0.1.6/bin/../lib/gcc/arm-none-eabi/8.2.1/../../../../arm-none-eabi/lib/thumb/v7-m/nofp\libm.a(lib_a-sf_cos.o) (__kernel_sinf)
c:/users/andy/.vscode/extensions/metalcode-eu.windows-arm-none-eabi-0.1.6/bin/../lib/gcc/arm-none-eabi/8.2.1/../../../../arm-none-eabi/lib/thumb/v7-m/nofp\libm.a(lib_a-kf_tan.o)
                              c:/users/andy/.vscode/extensions/metalcode-eu.windows-arm-none-eabi-0.1.6/bin/../lib/gcc/arm-none-eabi/8.2.1/../../../../arm-none-eabi/lib/thumb/v7-m/nofp\libm.a(lib_a-sf_tan.o) (__kernel_tanf)
c:/users/andy/.vscode/extensions/metalcode-eu.windows-arm-none-eabi-0.1.6/bin/../lib/gcc/arm-none-eabi/8.2.1/../../../../arm-none-eabi/lib/thumb/v7-m/nofp\libm.a(lib_a-s_fabs.o)
                              c:/users/andy/.vscode/extensions/metalcode-eu.windows-arm-none-eabi-0.1.6/bin/../lib/gcc/arm-none-eabi/8.2.1/../../../../arm-none-eabi/lib/thumb/v7-m/nofp\libm.a(lib_a-e_pow.o) (fabs)
c:/users/andy/.vscode/extensions/metalcode-eu.windows-arm-none-eabi-0.1.6/bin/../lib/gcc/arm-none-eabi/8.2.1/../../../../arm-none-eabi/lib/thumb/v7-m/nofp\libm.a(lib_a-s_finite.o)
                              c:/users/andy/.vscode/extensions/metalcode-eu.windows-arm-none-eabi-0.1.6/bin/../lib/gcc/arm-none-eabi/8.2.1/../../../../arm-none-eabi/lib/thumb/v7-m/nofp\libm.a(lib_a-w_pow.o) (finite)
c:/users/andy/.vscode/extensions/metalcode-eu.windows-arm-none-eabi-0.1.6/bin/../lib/gcc/arm-none-eabi/8.2.1/../../../../arm-none-eabi/lib/thumb/v7-m/nofp\libm.a(lib_a-s_lib_ver.o)
                              c:/users/andy/.vscode/extensions/metalcode-eu.windows-arm-none-eabi-0.1.6/bin/../lib/gcc/arm-none-eabi/8.2.1/../../../../arm-none-eabi/lib/thumb/v7-m/nofp\libm.a(lib_a-w_pow.o) (__fdlib_version)
c:/users/andy/.vscode/extensions/metalcode-eu.windows-arm-none-eabi-0.1.6/bin/../lib/gcc/arm-none-eabi/8.2.1/../../../../arm-none-eabi/lib/thumb/v7-m/nofp\libm.a(lib_a-s_matherr.o)
                              c:/users/andy/.vscode/extensions/metalcode-eu.windows-arm-none-eabi-0.1.6/bin/../lib/gcc/arm-none-eabi/8.2.1/../../../../arm-none-eabi/lib/thumb/v7-m/nofp\libm.a(lib_a-w_pow.o) (matherr)
c:/users/andy/.vscode/extensions/metalcode-eu.windows-arm-none-eabi-0.1.6/bin/../lib/gcc/arm-none-eabi/8.2.1/../../../../arm-none-eabi/lib/thumb/v7-m/nofp\libm.a(lib_a-s_nan.o)
                              c:/users/andy/.vscode/extensions/metalcode-eu.windows-arm-none-eabi-0.1.6/bin/../lib/gcc/arm-none-eabi/8.2.1/../../../../arm-none-eabi/lib/thumb/v7-m/nofp\libm.a(lib_a-wf_acos.o) (nan)
c:/users/andy/.vscode/extensions/metalcode-eu.windows-arm-none-eabi-0.1.6/bin/../lib/gcc/arm-none-eabi/8.2.1/../../../../arm-none-eabi/lib/thumb/v7-m/nofp\libm.a(lib_a-s_rint.o)
                              c:/users/andy/.vscode/extensions/metalcode-eu.windows-arm-none-eabi-0.1.6/bin/../lib/gcc/arm-none-eabi/8.2.1/../../../../arm-none-eabi/lib/thumb/v7-m/nofp\libm.a(lib_a-w_pow.o) (rint)
c:/users/andy/.vscode/extensions/metalcode-eu.windows-arm-none-eabi-0.1.6/bin/../lib/gcc/arm-none-eabi/8.2.1/../../../../arm-none-eabi/lib/thumb/v7-m/nofp\libm.a(lib_a-s_scalbn.o)
                              c:/users/andy/.vscode/extensions/metalcode-eu.windows-arm-none-eabi-0.1.6/bin/../lib/gcc/arm-none-eabi/8.2.1/../../../../arm-none-eabi/lib/thumb/v7-m/nofp\libm.a(lib_a-e_pow.o) (scalbn)
c:/users/andy/.vscode/extensions/metalcode-eu.windows-arm-none-eabi-0.1.6/bin/../lib/gcc/arm-none-eabi/8.2.1/../../../../arm-none-eabi/lib/thumb/v7-m/nofp\libm.a(lib_a-sf_finite.o)
                              c:/users/andy/.vscode/extensions/metalcode-eu.windows-arm-none-eabi-0.1.6/bin/../lib/gcc/arm-none-eabi/8.2.1/../../../../arm-none-eabi/lib/thumb/v7-m/nofp\libm.a(lib_a-wf_exp.o) (finitef)
c:/users/andy/.vscode/extensions/metalcode-eu.windows-arm-none-eabi-0.1.6/bin/../lib/gcc/arm-none-eabi/8.2.1/../../../../arm-none-eabi/lib/thumb/v7-m/nofp\libm.a(lib_a-sf_nan.o)
                              c:/users/andy/.vscode/extensions/metalcode-eu.windows-arm-none-eabi-0.1.6/bin/../lib/gcc/arm-none-eabi/8.2.1/../../../../arm-none-eabi/lib/thumb/v7-m/nofp\libm.a(lib_a-ef_pow.o) (nanf)
c:/users/andy/.vscode/extensions/metalcode-eu.windows-arm-none-eabi-0.1.6/bin/../lib/gcc/arm-none-eabi/8.2.1/../../../../arm-none-eabi/lib/thumb/v7-m/nofp\libm.a(lib_a-sf_scalbn.o)
                              c:/users/andy/.vscode/extensions/metalcode-eu.windows-arm-none-eabi-0.1.6/bin/../lib/gcc/arm-none-eabi/8.2.1/../../../../arm-none-eabi/lib/thumb/v7-m/nofp\libm.a(lib_a-ef_pow.o) (scalbnf)
c:/users/andy/.vscode/extensions/metalcode-eu.windows-arm-none-eabi-0.1.6/bin/../lib/gcc/arm-none-eabi/8.2.1/thumb/v7-m/nofp\libgcc.a(_arm_addsubdf3.o)
                              c:/users/andy/.vscode/extensions/metalcode-eu.windows-arm-none-eabi-0.1.6/bin/../lib/gcc/arm-none-eabi/8.2.1/../../../../arm-none-eabi/lib/thumb/v7-m/nofp\libm.a(lib_a-s_llrint.o) (__aeabi_dsub)
c:/users/andy/.vscode/extensions/metalcode-eu.windows-arm-none-eabi-0.1.6/bin/../lib/gcc/arm-none-eabi/8.2.1/thumb/v7-m/nofp\libgcc.a(_arm_muldivdf3.o)
                              ./build/./RepRapFirmware/src/Movement/DriveMovement.o (__aeabi_dmul)
c:/users/andy/.vscode/extensions/metalcode-eu.windows-arm-none-eabi-0.1.6/bin/../lib/gcc/arm-none-eabi/8.2.1/thumb/v7-m/nofp\libgcc.a(_arm_cmpdf2.o)
                              ./build/\libRRFLibraries.a(SafeVsnprintf.o) (__aeabi_dcmpeq)
c:/users/andy/.vscode/extensions/metalcode-eu.windows-arm-none-eabi-0.1.6/bin/../lib/gcc/arm-none-eabi/8.2.1/thumb/v7-m/nofp\libgcc.a(_arm_unorddf2.o)
                              ./build/\libRRFLibraries.a(SafeVsnprintf.o) (__aeabi_dcmpun)
c:/users/andy/.vscode/extensions/metalcode-eu.windows-arm-none-eabi-0.1.6/bin/../lib/gcc/arm-none-eabi/8.2.1/thumb/v7-m/nofp\libgcc.a(_arm_truncdfsf2.o)
                              ./build/./RepRapFirmware/src/Movement/BedProbing/Grid.o (__aeabi_d2f)
c:/users/andy/.vscode/extensions/metalcode-eu.windows-arm-none-eabi-0.1.6/bin/../lib/gcc/arm-none-eabi/8.2.1/thumb/v7-m/nofp\libgcc.a(_arm_addsubsf3.o)
                              ./build/./RepRapFirmware/src/PrintMonitor.o (__aeabi_fsub)
c:/users/andy/.vscode/extensions/metalcode-eu.windows-arm-none-eabi-0.1.6/bin/../lib/gcc/arm-none-eabi/8.2.1/thumb/v7-m/nofp\libgcc.a(_arm_muldivsf3.o)
                              ./build/\libLPCCore.a(AnalogOutServo.o) (__aeabi_fmul)
c:/users/andy/.vscode/extensions/metalcode-eu.windows-arm-none-eabi-0.1.6/bin/../lib/gcc/arm-none-eabi/8.2.1/thumb/v7-m/nofp\libgcc.a(_arm_cmpsf2.o)
                              ./build/./RepRapFirmware/src/Platform.o (__aeabi_fcmpeq)
c:/users/andy/.vscode/extensions/metalcode-eu.windows-arm-none-eabi-0.1.6/bin/../lib/gcc/arm-none-eabi/8.2.1/thumb/v7-m/nofp\libgcc.a(_arm_unordsf2.o)
                              ./build/\libLPCCore.a(AnalogOut.o) (__aeabi_fcmpun)
c:/users/andy/.vscode/extensions/metalcode-eu.windows-arm-none-eabi-0.1.6/bin/../lib/gcc/arm-none-eabi/8.2.1/thumb/v7-m/nofp\libgcc.a(_arm_fixsfsi.o)
                              ./build/./RepRapFirmware/src/RepRap.o (__aeabi_f2iz)
c:/users/andy/.vscode/extensions/metalcode-eu.windows-arm-none-eabi-0.1.6/bin/../lib/gcc/arm-none-eabi/8.2.1/thumb/v7-m/nofp\libgcc.a(_arm_fixunssfsi.o)
                              ./build/\libLPCCore.a(AnalogOutServo.o) (__aeabi_f2uiz)
c:/users/andy/.vscode/extensions/metalcode-eu.windows-arm-none-eabi-0.1.6/bin/../lib/gcc/arm-none-eabi/8.2.1/thumb/v7-m/nofp\libgcc.a(_aeabi_uldivmod.o)
                              ./build/./RepRapFirmware/src/Logger.o (__aeabi_uldivmod)
c:/users/andy/.vscode/extensions/metalcode-eu.windows-arm-none-eabi-0.1.6/bin/../lib/gcc/arm-none-eabi/8.2.1/thumb/v7-m/nofp\libgcc.a(_ctzdi2.o)
                              ./build/./RepRapFirmware/src/ObjectModel/ObjectModel.o (__ctzdi2)
c:/users/andy/.vscode/extensions/metalcode-eu.windows-arm-none-eabi-0.1.6/bin/../lib/gcc/arm-none-eabi/8.2.1/thumb/v7-m/nofp\libgcc.a(_fixsfdi.o)
                              ./build/./RepRapFirmware/src/Movement/DriveMovement.o (__aeabi_f2lz)
c:/users/andy/.vscode/extensions/metalcode-eu.windows-arm-none-eabi-0.1.6/bin/../lib/gcc/arm-none-eabi/8.2.1/thumb/v7-m/nofp\libgcc.a(_fixdfdi.o)
                              c:/users/andy/.vscode/extensions/metalcode-eu.windows-arm-none-eabi-0.1.6/bin/../lib/gcc/arm-none-eabi/8.2.1/../../../../arm-none-eabi/lib/thumb/v7-m/nofp\libm.a(lib_a-s_llrint.o) (__aeabi_d2lz)
c:/users/andy/.vscode/extensions/metalcode-eu.windows-arm-none-eabi-0.1.6/bin/../lib/gcc/arm-none-eabi/8.2.1/thumb/v7-m/nofp\libgcc.a(_fixunssfdi.o)
                              ./build/./RepRapFirmware/src/Movement/DriveMovement.o (__aeabi_f2ulz)
c:/users/andy/.vscode/extensions/metalcode-eu.windows-arm-none-eabi-0.1.6/bin/../lib/gcc/arm-none-eabi/8.2.1/thumb/v7-m/nofp\libgcc.a(_fixunsdfdi.o)
                              ./build/./RepRapFirmware/src/Movement/DriveMovement.o (__aeabi_d2ulz)
c:/users/andy/.vscode/extensions/metalcode-eu.windows-arm-none-eabi-0.1.6/bin/../lib/gcc/arm-none-eabi/8.2.1/thumb/v7-m/nofp\libgcc.a(_udivmoddi4.o)
                              c:/users/andy/.vscode/extensions/metalcode-eu.windows-arm-none-eabi-0.1.6/bin/../lib/gcc/arm-none-eabi/8.2.1/thumb/v7-m/nofp\libgcc.a(_aeabi_uldivmod.o) (__udivmoddi4)
c:/users/andy/.vscode/extensions/metalcode-eu.windows-arm-none-eabi-0.1.6/bin/../lib/gcc/arm-none-eabi/8.2.1/thumb/v7-m/nofp\libgcc.a(unwind-arm.o)
                              ./build/./RepRapFirmware/src/Platform.o (__aeabi_unwind_cpp_pr0)
c:/users/andy/.vscode/extensions/metalcode-eu.windows-arm-none-eabi-0.1.6/bin/../lib/gcc/arm-none-eabi/8.2.1/thumb/v7-m/nofp\libgcc.a(libunwind.o)
                              c:/users/andy/.vscode/extensions/metalcode-eu.windows-arm-none-eabi-0.1.6/bin/../lib/gcc/arm-none-eabi/8.2.1/thumb/v7-m/nofp\libgcc.a(unwind-arm.o) (restore_core_regs)
c:/users/andy/.vscode/extensions/metalcode-eu.windows-arm-none-eabi-0.1.6/bin/../lib/gcc/arm-none-eabi/8.2.1/thumb/v7-m/nofp\libgcc.a(pr-support.o)
                              c:/users/andy/.vscode/extensions/metalcode-eu.windows-arm-none-eabi-0.1.6/bin/../lib/gcc/arm-none-eabi/8.2.1/thumb/v7-m/nofp\libgcc.a(unwind-arm.o) (__gnu_unwind_execute)
c:/users/andy/.vscode/extensions/metalcode-eu.windows-arm-none-eabi-0.1.6/bin/../lib/gcc/arm-none-eabi/8.2.1/thumb/v7-m/nofp\libgcc.a(_dvmd_tls.o)
                              c:/users/andy/.vscode/extensions/metalcode-eu.windows-arm-none-eabi-0.1.6/bin/../lib/gcc/arm-none-eabi/8.2.1/thumb/v7-m/nofp\libgcc.a(_aeabi_uldivmod.o) (__aeabi_ldiv0)
c:/users/andy/.vscode/extensions/metalcode-eu.windows-arm-none-eabi-0.1.6/bin/../lib/gcc/arm-none-eabi/8.2.1/thumb/v7-m/nofp\libgcc.a(_arm_fixunsdfsi.o)
                              c:/users/andy/.vscode/extensions/metalcode-eu.windows-arm-none-eabi-0.1.6/bin/../lib/gcc/arm-none-eabi/8.2.1/thumb/v7-m/nofp\libgcc.a(_fixunssfdi.o) (__aeabi_d2uiz)
c:/users/andy/.vscode/extensions/metalcode-eu.windows-arm-none-eabi-0.1.6/bin/../lib/gcc/arm-none-eabi/8.2.1/../../../../arm-none-eabi/lib/thumb/v7-m/nofp\libc.a(lib_a-abort.o)
                              ./build/./RepRapFirmware/src/libcpp/vterminate.o (abort)
c:/users/andy/.vscode/extensions/metalcode-eu.windows-arm-none-eabi-0.1.6/bin/../lib/gcc/arm-none-eabi/8.2.1/../../../../arm-none-eabi/lib/thumb/v7-m/nofp\libc.a(lib_a-cxa_atexit.o)
                              c:/users/andy/.vscode/extensions/metalcode-eu.windows-arm-none-eabi-0.1.6/bin/../lib/gcc/arm-none-eabi/8.2.1/../../../../arm-none-eabi/lib/thumb/v7-m/nofp\libsupc++.a(atexit_arm.o) (__cxa_atexit)
c:/users/andy/.vscode/extensions/metalcode-eu.windows-arm-none-eabi-0.1.6/bin/../lib/gcc/arm-none-eabi/8.2.1/../../../../arm-none-eabi/lib/thumb/v7-m/nofp\libc.a(lib_a-errno.o)
                              ./build/./RepRapFirmware/src/libc/nano-mallocr.o (__errno)
c:/users/andy/.vscode/extensions/metalcode-eu.windows-arm-none-eabi-0.1.6/bin/../lib/gcc/arm-none-eabi/8.2.1/../../../../arm-none-eabi/lib/thumb/v7-m/nofp\libc.a(lib_a-exit.o)
                              c:/users/andy/.vscode/extensions/metalcode-eu.windows-arm-none-eabi-0.1.6/bin/../lib/gcc/arm-none-eabi/8.2.1/../../../../arm-none-eabi/lib/thumb/v7-m/nofp/crt0.o (exit)
c:/users/andy/.vscode/extensions/metalcode-eu.windows-arm-none-eabi-0.1.6/bin/../lib/gcc/arm-none-eabi/8.2.1/../../../../arm-none-eabi/lib/thumb/v7-m/nofp\libc.a(lib_a-gmtime_r.o)
                              ./build/./RepRapFirmware/src/Logger.o (gmtime_r)
c:/users/andy/.vscode/extensions/metalcode-eu.windows-arm-none-eabi-0.1.6/bin/../lib/gcc/arm-none-eabi/8.2.1/../../../../arm-none-eabi/lib/thumb/v7-m/nofp\libc.a(lib_a-impure.o)
                              c:/users/andy/.vscode/extensions/metalcode-eu.windows-arm-none-eabi-0.1.6/bin/../lib/gcc/arm-none-eabi/8.2.1/../../../../arm-none-eabi/lib/thumb/v7-m/nofp\libc.a(lib_a-exit.o) (_global_impure_ptr)
c:/users/andy/.vscode/extensions/metalcode-eu.windows-arm-none-eabi-0.1.6/bin/../lib/gcc/arm-none-eabi/8.2.1/../../../../arm-none-eabi/lib/thumb/v7-m/nofp\libc.a(lib_a-init.o)
                              c:/users/andy/.vscode/extensions/metalcode-eu.windows-arm-none-eabi-0.1.6/bin/../lib/gcc/arm-none-eabi/8.2.1/../../../../arm-none-eabi/lib/thumb/v7-m/nofp/crt0.o (__libc_init_array)
c:/users/andy/.vscode/extensions/metalcode-eu.windows-arm-none-eabi-0.1.6/bin/../lib/gcc/arm-none-eabi/8.2.1/../../../../arm-none-eabi/lib/thumb/v7-m/nofp\libc.a(lib_a-isalpha.o)
                              ./build/./RepRapFirmware/src/GCodes/GCodeBuffer/ExpressionParser.o (isalpha)
c:/users/andy/.vscode/extensions/metalcode-eu.windows-arm-none-eabi-0.1.6/bin/../lib/gcc/arm-none-eabi/8.2.1/../../../../arm-none-eabi/lib/thumb/v7-m/nofp\libc.a(lib_a-isspace.o)
                              ./build/./RepRapFirmware/src/libc/strptime.o (isspace)
c:/users/andy/.vscode/extensions/metalcode-eu.windows-arm-none-eabi-0.1.6/bin/../lib/gcc/arm-none-eabi/8.2.1/../../../../arm-none-eabi/lib/thumb/v7-m/nofp\libc.a(lib_a-isxdigit.o)
                              ./build/\libRRFLibraries.a(NumericConverter.o) (isxdigit)
c:/users/andy/.vscode/extensions/metalcode-eu.windows-arm-none-eabi-0.1.6/bin/../lib/gcc/arm-none-eabi/8.2.1/../../../../arm-none-eabi/lib/thumb/v7-m/nofp\libc.a(lib_a-lldiv.o)
                              ./build/\libRRFLibraries.a(SafeVsnprintf.o) (lldiv)
c:/users/andy/.vscode/extensions/metalcode-eu.windows-arm-none-eabi-0.1.6/bin/../lib/gcc/arm-none-eabi/8.2.1/../../../../arm-none-eabi/lib/thumb/v7-m/nofp\libc.a(lib_a-mktime.o)
                              ./build/./RepRapFirmware/src/GCodes/GCodes3.o (mktime)
c:/users/andy/.vscode/extensions/metalcode-eu.windows-arm-none-eabi-0.1.6/bin/../lib/gcc/arm-none-eabi/8.2.1/../../../../arm-none-eabi/lib/thumb/v7-m/nofp\libc.a(lib_a-rand.o)
                              ./build/\libLPCCore.a(WMath.o) (srand)
c:/users/andy/.vscode/extensions/metalcode-eu.windows-arm-none-eabi-0.1.6/bin/../lib/gcc/arm-none-eabi/8.2.1/../../../../arm-none-eabi/lib/thumb/v7-m/nofp\libc.a(lib_a-signal.o)
                              c:/users/andy/.vscode/extensions/metalcode-eu.windows-arm-none-eabi-0.1.6/bin/../lib/gcc/arm-none-eabi/8.2.1/../../../../arm-none-eabi/lib/thumb/v7-m/nofp\libc.a(lib_a-abort.o) (raise)
c:/users/andy/.vscode/extensions/metalcode-eu.windows-arm-none-eabi-0.1.6/bin/../lib/gcc/arm-none-eabi/8.2.1/../../../../arm-none-eabi/lib/thumb/v7-m/nofp\libc.a(lib_a-signalr.o)
                              c:/users/andy/.vscode/extensions/metalcode-eu.windows-arm-none-eabi-0.1.6/bin/../lib/gcc/arm-none-eabi/8.2.1/../../../../arm-none-eabi/lib/thumb/v7-m/nofp\libc.a(lib_a-signal.o) (_kill_r)
c:/users/andy/.vscode/extensions/metalcode-eu.windows-arm-none-eabi-0.1.6/bin/../lib/gcc/arm-none-eabi/8.2.1/../../../../arm-none-eabi/lib/thumb/v7-m/nofp\libc.a(lib_a-strchr.o)
                              ./build/./RepRapFirmware/src/GCodes/GCodes.o (strchr)
c:/users/andy/.vscode/extensions/metalcode-eu.windows-arm-none-eabi-0.1.6/bin/../lib/gcc/arm-none-eabi/8.2.1/../../../../arm-none-eabi/lib/thumb/v7-m/nofp\libc.a(lib_a-strcmp.o)
                              ./build/./RepRapFirmware/src/GCodes/GCodes2.o (strcmp)
c:/users/andy/.vscode/extensions/metalcode-eu.windows-arm-none-eabi-0.1.6/bin/../lib/gcc/arm-none-eabi/8.2.1/../../../../arm-none-eabi/lib/thumb/v7-m/nofp\libc.a(lib_a-strcpy.o)
                              ./build/./RepRapFirmware/src/Heating/Sensors/TemperatureSensor.o (strcpy)
c:/users/andy/.vscode/extensions/metalcode-eu.windows-arm-none-eabi-0.1.6/bin/../lib/gcc/arm-none-eabi/8.2.1/../../../../arm-none-eabi/lib/thumb/v7-m/nofp\libc.a(lib_a-strlen-stub.o)
                              ./build/./RepRapFirmware/src/Logger.o (strlen)
c:/users/andy/.vscode/extensions/metalcode-eu.windows-arm-none-eabi-0.1.6/bin/../lib/gcc/arm-none-eabi/8.2.1/../../../../arm-none-eabi/lib/thumb/v7-m/nofp\libc.a(lib_a-strncat.o)
                              ./build/\libRRFLibraries.a(StringFunctions.o) (strncat)
c:/users/andy/.vscode/extensions/metalcode-eu.windows-arm-none-eabi-0.1.6/bin/../lib/gcc/arm-none-eabi/8.2.1/../../../../arm-none-eabi/lib/thumb/v7-m/nofp\libc.a(lib_a-strncpy.o)
                              ./build/\libRRFLibraries.a(StringFunctions.o) (strncpy)
c:/users/andy/.vscode/extensions/metalcode-eu.windows-arm-none-eabi-0.1.6/bin/../lib/gcc/arm-none-eabi/8.2.1/../../../../arm-none-eabi/lib/thumb/v7-m/nofp\libc.a(lib_a-strstr.o)
                              ./build/./RepRapFirmware/src/Storage/FileInfoParser.o (strstr)
c:/users/andy/.vscode/extensions/metalcode-eu.windows-arm-none-eabi-0.1.6/bin/../lib/gcc/arm-none-eabi/8.2.1/../../../../arm-none-eabi/lib/thumb/v7-m/nofp\libc.a(lib_a-strtoul.o)
                              ./build/\libRRFLibraries.a(SafeStrtod.o) (strtoul)
c:/users/andy/.vscode/extensions/metalcode-eu.windows-arm-none-eabi-0.1.6/bin/../lib/gcc/arm-none-eabi/8.2.1/../../../../arm-none-eabi/lib/thumb/v7-m/nofp\libc.a(lib_a-syssbrk.o)
                              ./build/./RepRapFirmware/src/libc/nano-mallocr.o (sbrk)
c:/users/andy/.vscode/extensions/metalcode-eu.windows-arm-none-eabi-0.1.6/bin/../lib/gcc/arm-none-eabi/8.2.1/../../../../arm-none-eabi/lib/thumb/v7-m/nofp\libc.a(lib_a-tolower.o)
                              ./build/./RepRapFirmware/src/GCodes/GCodeBuffer/ExpressionParser.o (tolower)
c:/users/andy/.vscode/extensions/metalcode-eu.windows-arm-none-eabi-0.1.6/bin/../lib/gcc/arm-none-eabi/8.2.1/../../../../arm-none-eabi/lib/thumb/v7-m/nofp\libc.a(lib_a-toupper.o)
                              ./build/./RepRapFirmware/src/GCodes/GCodes2.o (toupper)
c:/users/andy/.vscode/extensions/metalcode-eu.windows-arm-none-eabi-0.1.6/bin/../lib/gcc/arm-none-eabi/8.2.1/../../../../arm-none-eabi/lib/thumb/v7-m/nofp\libc.a(lib_a-tzcalc_limits.o)
                              c:/users/andy/.vscode/extensions/metalcode-eu.windows-arm-none-eabi-0.1.6/bin/../lib/gcc/arm-none-eabi/8.2.1/../../../../arm-none-eabi/lib/thumb/v7-m/nofp\libc.a(lib_a-mktime.o) (__tzcalc_limits)
c:/users/andy/.vscode/extensions/metalcode-eu.windows-arm-none-eabi-0.1.6/bin/../lib/gcc/arm-none-eabi/8.2.1/../../../../arm-none-eabi/lib/thumb/v7-m/nofp\libc.a(lib_a-tzvars.o)
                              c:/users/andy/.vscode/extensions/metalcode-eu.windows-arm-none-eabi-0.1.6/bin/../lib/gcc/arm-none-eabi/8.2.1/../../../../arm-none-eabi/lib/thumb/v7-m/nofp\libc.a(lib_a-mktime.o) (_daylight)
c:/users/andy/.vscode/extensions/metalcode-eu.windows-arm-none-eabi-0.1.6/bin/../lib/gcc/arm-none-eabi/8.2.1/../../../../arm-none-eabi/lib/thumb/v7-m/nofp\libc.a(lib_a-__atexit.o)
                              c:/users/andy/.vscode/extensions/metalcode-eu.windows-arm-none-eabi-0.1.6/bin/../lib/gcc/arm-none-eabi/8.2.1/../../../../arm-none-eabi/lib/thumb/v7-m/nofp\libc.a(lib_a-cxa_atexit.o) (__register_exitproc)
c:/users/andy/.vscode/extensions/metalcode-eu.windows-arm-none-eabi-0.1.6/bin/../lib/gcc/arm-none-eabi/8.2.1/../../../../arm-none-eabi/lib/thumb/v7-m/nofp\libc.a(lib_a-__call_atexit.o)
                              c:/users/andy/.vscode/extensions/metalcode-eu.windows-arm-none-eabi-0.1.6/bin/../lib/gcc/arm-none-eabi/8.2.1/../../../../arm-none-eabi/lib/thumb/v7-m/nofp\libc.a(lib_a-exit.o) (__call_exitprocs)
c:/users/andy/.vscode/extensions/metalcode-eu.windows-arm-none-eabi-0.1.6/bin/../lib/gcc/arm-none-eabi/8.2.1/../../../../arm-none-eabi/lib/thumb/v7-m/nofp\libc.a(lib_a-atexit.o)
                              c:/users/andy/.vscode/extensions/metalcode-eu.windows-arm-none-eabi-0.1.6/bin/../lib/gcc/arm-none-eabi/8.2.1/../../../../arm-none-eabi/lib/thumb/v7-m/nofp\libc.a(lib_a-__call_atexit.o) (atexit)
c:/users/andy/.vscode/extensions/metalcode-eu.windows-arm-none-eabi-0.1.6/bin/../lib/gcc/arm-none-eabi/8.2.1/../../../../arm-none-eabi/lib/thumb/v7-m/nofp\libc.a(lib_a-ctype_.o)
                              c:/users/andy/.vscode/extensions/metalcode-eu.windows-arm-none-eabi-0.1.6/bin/../lib/gcc/arm-none-eabi/8.2.1/../../../../arm-none-eabi/lib/thumb/v7-m/nofp\libc.a(lib_a-isalpha.o) (_ctype_)
c:/users/andy/.vscode/extensions/metalcode-eu.windows-arm-none-eabi-0.1.6/bin/../lib/gcc/arm-none-eabi/8.2.1/../../../../arm-none-eabi/lib/thumb/v7-m/nofp\libc.a(lib_a-div.o)
                              c:/users/andy/.vscode/extensions/metalcode-eu.windows-arm-none-eabi-0.1.6/bin/../lib/gcc/arm-none-eabi/8.2.1/../../../../arm-none-eabi/lib/thumb/v7-m/nofp\libc.a(lib_a-mktime.o) (div)
c:/users/andy/.vscode/extensions/metalcode-eu.windows-arm-none-eabi-0.1.6/bin/../lib/gcc/arm-none-eabi/8.2.1/../../../../arm-none-eabi/lib/thumb/v7-m/nofp\libc.a(lib_a-fini.o)
                              c:/users/andy/.vscode/extensions/metalcode-eu.windows-arm-none-eabi-0.1.6/bin/../lib/gcc/arm-none-eabi/8.2.1/../../../../arm-none-eabi/lib/thumb/v7-m/nofp\libc.a(lib_a-__call_atexit.o) (__libc_fini_array)
c:/users/andy/.vscode/extensions/metalcode-eu.windows-arm-none-eabi-0.1.6/bin/../lib/gcc/arm-none-eabi/8.2.1/../../../../arm-none-eabi/lib/thumb/v7-m/nofp\libc.a(lib_a-gettzinfo.o)
                              c:/users/andy/.vscode/extensions/metalcode-eu.windows-arm-none-eabi-0.1.6/bin/../lib/gcc/arm-none-eabi/8.2.1/../../../../arm-none-eabi/lib/thumb/v7-m/nofp\libc.a(lib_a-mktime.o) (__gettzinfo)
c:/users/andy/.vscode/extensions/metalcode-eu.windows-arm-none-eabi-0.1.6/bin/../lib/gcc/arm-none-eabi/8.2.1/../../../../arm-none-eabi/lib/thumb/v7-m/nofp\libc.a(lib_a-lock.o)
                              c:/users/andy/.vscode/extensions/metalcode-eu.windows-arm-none-eabi-0.1.6/bin/../lib/gcc/arm-none-eabi/8.2.1/../../../../arm-none-eabi/lib/thumb/v7-m/nofp\libc.a(lib_a-__atexit.o) (__retarget_lock_acquire_recursive)
c:/users/andy/.vscode/extensions/metalcode-eu.windows-arm-none-eabi-0.1.6/bin/../lib/gcc/arm-none-eabi/8.2.1/../../../../arm-none-eabi/lib/thumb/v7-m/nofp\libc.a(lib_a-month_lengths.o)
                              c:/users/andy/.vscode/extensions/metalcode-eu.windows-arm-none-eabi-0.1.6/bin/../lib/gcc/arm-none-eabi/8.2.1/../../../../arm-none-eabi/lib/thumb/v7-m/nofp\libc.a(lib_a-tzcalc_limits.o) (__month_lengths)
c:/users/andy/.vscode/extensions/metalcode-eu.windows-arm-none-eabi-0.1.6/bin/../lib/gcc/arm-none-eabi/8.2.1/../../../../arm-none-eabi/lib/thumb/v7-m/nofp\libc.a(lib_a-sbrkr.o)
                              c:/users/andy/.vscode/extensions/metalcode-eu.windows-arm-none-eabi-0.1.6/bin/../lib/gcc/arm-none-eabi/8.2.1/../../../../arm-none-eabi/lib/thumb/v7-m/nofp\libc.a(lib_a-syssbrk.o) (_sbrk_r)
c:/users/andy/.vscode/extensions/metalcode-eu.windows-arm-none-eabi-0.1.6/bin/../lib/gcc/arm-none-eabi/8.2.1/../../../../arm-none-eabi/lib/thumb/v7-m/nofp\libc.a(lib_a-strnlen.o)
                              c:/users/andy/.vscode/extensions/metalcode-eu.windows-arm-none-eabi-0.1.6/bin/../lib/gcc/arm-none-eabi/8.2.1/../../../../arm-none-eabi/lib/thumb/v7-m/nofp\libc.a(lib_a-strstr.o) (strnlen)
c:/users/andy/.vscode/extensions/metalcode-eu.windows-arm-none-eabi-0.1.6/bin/../lib/gcc/arm-none-eabi/8.2.1/thumb/v7-m/nofp\libgcc.a(_aeabi_ldivmod.o)
                              c:/users/andy/.vscode/extensions/metalcode-eu.windows-arm-none-eabi-0.1.6/bin/../lib/gcc/arm-none-eabi/8.2.1/../../../../arm-none-eabi/lib/thumb/v7-m/nofp\libc.a(lib_a-gmtime_r.o) (__aeabi_ldivmod)

Allocating common symbols
Common symbol       size              file

__lock___malloc_recursive_mutex
                    0x1               c:/users/andy/.vscode/extensions/metalcode-eu.windows-arm-none-eabi-0.1.6/bin/../lib/gcc/arm-none-eabi/8.2.1/../../../../arm-none-eabi/lib/thumb/v7-m/nofp\libc.a(lib_a-lock.o)
__lock___atexit_recursive_mutex
                    0x1               c:/users/andy/.vscode/extensions/metalcode-eu.windows-arm-none-eabi-0.1.6/bin/../lib/gcc/arm-none-eabi/8.2.1/../../../../arm-none-eabi/lib/thumb/v7-m/nofp\libc.a(lib_a-lock.o)
SystemCoreClock     0x4               ./build/\libLPCCore.a(system_LPC17xx.o)
xQueueRegistry      0x40              ./build/\libLPCCore.a(queue.o)
xBoundUDPSocketsList
                    0x14              ./build/\libLPCCore.a(FreeRTOS_Sockets.o)
__lock___dd_hash_mutex
                    0x1               c:/users/andy/.vscode/extensions/metalcode-eu.windows-arm-none-eabi-0.1.6/bin/../lib/gcc/arm-none-eabi/8.2.1/../../../../arm-none-eabi/lib/thumb/v7-m/nofp\libc.a(lib_a-lock.o)
xBoundTCPSocketsList
                    0x14              ./build/\libLPCCore.a(FreeRTOS_Sockets.o)
__lock___sinit_recursive_mutex
                    0x1               c:/users/andy/.vscode/extensions/metalcode-eu.windows-arm-none-eabi-0.1.6/bin/../lib/gcc/arm-none-eabi/8.2.1/../../../../arm-none-eabi/lib/thumb/v7-m/nofp\libc.a(lib_a-lock.o)
__lock___sfp_recursive_mutex
                    0x1               c:/users/andy/.vscode/extensions/metalcode-eu.windows-arm-none-eabi-0.1.6/bin/../lib/gcc/arm-none-eabi/8.2.1/../../../../arm-none-eabi/lib/thumb/v7-m/nofp\libc.a(lib_a-lock.o)
__lock___at_quick_exit_mutex
                    0x1               c:/users/andy/.vscode/extensions/metalcode-eu.windows-arm-none-eabi-0.1.6/bin/../lib/gcc/arm-none-eabi/8.2.1/../../../../arm-none-eabi/lib/thumb/v7-m/nofp\libc.a(lib_a-lock.o)
__lock___env_recursive_mutex
                    0x1               c:/users/andy/.vscode/extensions/metalcode-eu.windows-arm-none-eabi-0.1.6/bin/../lib/gcc/arm-none-eabi/8.2.1/../../../../arm-none-eabi/lib/thumb/v7-m/nofp\libc.a(lib_a-lock.o)
__lock___tz_mutex   0x1               c:/users/andy/.vscode/extensions/metalcode-eu.windows-arm-none-eabi-0.1.6/bin/../lib/gcc/arm-none-eabi/8.2.1/../../../../arm-none-eabi/lib/thumb/v7-m/nofp\libc.a(lib_a-lock.o)
__lock___arc4random_mutex
                    0x1               c:/users/andy/.vscode/extensions/metalcode-eu.windows-arm-none-eabi-0.1.6/bin/../lib/gcc/arm-none-eabi/8.2.1/../../../../arm-none-eabi/lib/thumb/v7-m/nofp\libc.a(lib_a-lock.o)

Discarded input sections

 .text          0x00000000        0x0 c:/users/andy/.vscode/extensions/metalcode-eu.windows-arm-none-eabi-0.1.6/bin/../lib/gcc/arm-none-eabi/8.2.1/thumb/v7-m/nofp/crti.o
 .data          0x00000000        0x0 c:/users/andy/.vscode/extensions/metalcode-eu.windows-arm-none-eabi-0.1.6/bin/../lib/gcc/arm-none-eabi/8.2.1/thumb/v7-m/nofp/crti.o
 .bss           0x00000000        0x0 c:/users/andy/.vscode/extensions/metalcode-eu.windows-arm-none-eabi-0.1.6/bin/../lib/gcc/arm-none-eabi/8.2.1/thumb/v7-m/nofp/crti.o
 .text          0x00000000       0x74 c:/users/andy/.vscode/extensions/metalcode-eu.windows-arm-none-eabi-0.1.6/bin/../lib/gcc/arm-none-eabi/8.2.1/../../../../arm-none-eabi/lib/thumb/v7-m/nofp/crt0.o
 .data          0x00000000        0x0 c:/users/andy/.vscode/extensions/metalcode-eu.windows-arm-none-eabi-0.1.6/bin/../lib/gcc/arm-none-eabi/8.2.1/../../../../arm-none-eabi/lib/thumb/v7-m/nofp/crt0.o
 .bss           0x00000000        0x0 c:/users/andy/.vscode/extensions/metalcode-eu.windows-arm-none-eabi-0.1.6/bin/../lib/gcc/arm-none-eabi/8.2.1/../../../../arm-none-eabi/lib/thumb/v7-m/nofp/crt0.o
 .ARM.extab     0x00000000        0x0 c:/users/andy/.vscode/extensions/metalcode-eu.windows-arm-none-eabi-0.1.6/bin/../lib/gcc/arm-none-eabi/8.2.1/../../../../arm-none-eabi/lib/thumb/v7-m/nofp/crt0.o
 .ARM.exidx     0x00000000        0x8 c:/users/andy/.vscode/extensions/metalcode-eu.windows-arm-none-eabi-0.1.6/bin/../lib/gcc/arm-none-eabi/8.2.1/../../../../arm-none-eabi/lib/thumb/v7-m/nofp/crt0.o
 .ARM.attributes
                0x00000000       0x1b c:/users/andy/.vscode/extensions/metalcode-eu.windows-arm-none-eabi-0.1.6/bin/../lib/gcc/arm-none-eabi/8.2.1/../../../../arm-none-eabi/lib/thumb/v7-m/nofp/crt0.o
 .text          0x00000000        0x0 ./build/./CoreLPC/cores/arduino/syscalls.o
 .data          0x00000000        0x0 ./build/./CoreLPC/cores/arduino/syscalls.o
 .bss           0x00000000        0x0 ./build/./CoreLPC/cores/arduino/syscalls.o
 .text.link     0x00000000        0x6 ./build/./CoreLPC/cores/arduino/syscalls.o
 .text._close   0x00000000        0x6 ./build/./CoreLPC/cores/arduino/syscalls.o
 .text._fstat   0x00000000        0xa ./build/./CoreLPC/cores/arduino/syscalls.o
 .text._isatty  0x00000000        0x4 ./build/./CoreLPC/cores/arduino/syscalls.o
 .text._lseek   0x00000000        0x4 ./build/./CoreLPC/cores/arduino/syscalls.o
Memory Configuration

Name             Origin             Length             Attributes
FLASH            0x00004000         0x00074000         xr
RAM              0x10000000         0x00007fe0         xrw
AHB_RAM          0x2007c000         0x00008000         xrw
*default*        0x00000000         0xffffffff

Linker script and memory map

LOAD c:/users/andy/.vscode/extensions/metalcode-eu.windows-arm-none-eabi-0.1.6/bin/../lib/gcc/arm-none-eabi/8.2.1/thumb/v7-m/nofp/crti.o
LOAD c:/users/andy/.vscode/extensions/metalcode-eu.windows-arm-none-eabi-0.1.6/bin/../lib/gcc/arm-none-eabi/8.2.1/thumb/v7-m/nofp/crtbegin.o
LOAD c:/users/andy/.vscode/extensions/metalcode-eu.windows-arm-none-eabi-0.1.6/bin/../lib/gcc/arm-none-eabi/8.2.1/../../../../arm-none-eabi/lib/thumb/v7-m/nofp/crt0.o
START GROUP
LOAD ./build/./CoreLPC/cores/arduino/syscalls.o
LOAD ./build/./RepRapFirmware/src/libc/memcmp.o
LOAD ./build/./RepRapFirmware/src/libc/memcpy.o
LOAD ./build/./RepRapFirmware/src/libc/memmove.o
LOAD ./build/./RepRapFirmware/src/libc/memset.o
LOAD ./build/./RepRapFirmware/src/libc/nano-mallocr.o
LOAD ./build/./RepRapFirmware/src/libcpp/eh_alloc.o
LOAD ./build/./RepRapFirmware/src/libc/strptime.o
LOAD ./build/./RepRapFirmware/src/libcpp/vterminate.o
LOAD ./build/\libLPCCore.a
LOAD ./build/./RepRapFirmware/src/Libraries/sha1/sha1.o
LOAD ./build/./RepRapFirmware/src/LPC/FatFS/ff.o
LOAD ./build/./RepRapFirmware/src/LPC/FatFS/ffunicode.o
LOAD ./build/./RepRapFirmware/src/Logger.o
LOAD ./build/./RepRapFirmware/src/OutputMemory.o
LOAD ./build/./RepRapFirmware/src/Platform.o
LOAD ./build/./RepRapFirmware/src/PortControl.o
LOAD ./build/./RepRapFirmware/src/PrintMonitor.o
LOAD ./build/./RepRapFirmware/src/RepRap.o
LOAD ./build/./RepRapFirmware/src/RepRapFirmware.o
LOAD ./build/./RepRapFirmware/src/Roland.o
LOAD ./build/./RepRapFirmware/src/Scanner.o
LOAD ./build/./RepRapFirmware/src/Stream.o
LOAD ./build/./RepRapFirmware/src/Tasks.o
LOAD ./build/./RepRapFirmware/src/FilamentMonitors/Duet3DFilamentMonitor.o
LOAD ./build/./RepRapFirmware/src/FilamentMonitors/FilamentMonitor.o
LOAD ./build/./RepRapFirmware/src/FilamentMonitors/LaserFilamentMonitor.o
LOAD ./build/./RepRapFirmware/src/FilamentMonitors/PulsedFilamentMonitor.o
LOAD ./build/./RepRapFirmware/src/FilamentMonitors/RotatingMagnetFilamentMonitor.o
LOAD ./build/./RepRapFirmware/src/FilamentMonitors/SimpleFilamentMonitor.o
LOAD ./build/./RepRapFirmware/src/GCodes/GCodeException.o
LOAD ./build/./RepRapFirmware/src/GCodes/GCodeFileInfo.o
LOAD ./build/./RepRapFirmware/src/GCodes/GCodeInput.o
LOAD ./build/./RepRapFirmware/src/GCodes/GCodeMachineState.o
LOAD ./build/./RepRapFirmware/src/GCodes/GCodeQueue.o
LOAD ./build/./RepRapFirmware/src/GCodes/GCodes.o
LOAD ./build/./RepRapFirmware/src/GCodes/GCodes2.o
LOAD ./build/./RepRapFirmware/src/GCodes/GCodes3.o
LOAD ./build/./RepRapFirmware/src/GCodes/GCodes4.o
LOAD ./build/./RepRapFirmware/src/GCodes/ObjectTracker.o
LOAD ./build/./RepRapFirmware/src/GCodes/RestorePoint.o
LOAD ./build/./RepRapFirmware/src/GCodes/Trigger.o
LOAD ./build/./RepRapFirmware/src/GCodes/GCodeBuffer/BinaryParser.o
LOAD ./build/./RepRapFirmware/src/GCodes/GCodeBuffer/ExpressionParser.o
LOAD ./build/./RepRapFirmware/src/GCodes/GCodeBuffer/GCodeBuffer.o
LOAD ./build/./RepRapFirmware/src/GCodes/GCodeBuffer/StringParser.o
LOAD ./build/./RepRapFirmware/src/Heating/FOPDT.o
LOAD ./build/./RepRapFirmware/src/Heating/Heat.o
LOAD ./build/./RepRapFirmware/src/Heating/Heater.o
LOAD ./build/./RepRapFirmware/src/Heating/HeaterMonitor.o
LOAD ./build/./RepRapFirmware/src/Heating/LocalHeater.o
LOAD ./build/./RepRapFirmware/src/Heating/RemoteHeater.o
LOAD ./build/./RepRapFirmware/src/Heating/TemperatureError.o
LOAD ./build/./RepRapFirmware/src/Movement/DDA.o
LOAD ./build/./RepRapFirmware/src/Movement/DDARing.o
LOAD ./build/./RepRapFirmware/src/Movement/DriveMovement.o
LOAD ./build/./RepRapFirmware/src/Movement/Move.o
LOAD ./build/./RepRapFirmware/src/Movement/RawMove.o
LOAD ./build/./RepRapFirmware/src/Movement/StepTimer.o
LOAD ./build/./RepRapFirmware/src/Movement/StraightProbeSettings.o
LOAD ./build/./RepRapFirmware/src/Movement/BedProbing/Grid.o
LOAD ./build/./RepRapFirmware/src/Movement/BedProbing/RandomProbePointSet.o
LOAD ./build/./RepRapFirmware/src/Movement/Kinematics/CoreKinematics.o
LOAD ./build/./RepRapFirmware/src/Movement/Kinematics/FiveBarScaraKinematics.o
LOAD ./build/./RepRapFirmware/src/Movement/Kinematics/HangprinterKinematics.o
LOAD ./build/./RepRapFirmware/src/Movement/Kinematics/Kinematics.o
LOAD ./build/./RepRapFirmware/src/Movement/Kinematics/LinearDeltaKinematics.o
LOAD ./build/./RepRapFirmware/src/Movement/Kinematics/PolarKinematics.o
LOAD ./build/./RepRapFirmware/src/Movement/Kinematics/RotaryDeltaKinematics.o
LOAD ./build/./RepRapFirmware/src/Movement/Kinematics/ScaraKinematics.o
LOAD ./build/./RepRapFirmware/src/Movement/Kinematics/ZLeadscrewKinematics.o
LOAD ./build/./RepRapFirmware/src/Storage/CRC32.o
LOAD ./build/./RepRapFirmware/src/Storage/FileInfoParser.o
LOAD ./build/./RepRapFirmware/src/Storage/FileStore.o
LOAD ./build/./RepRapFirmware/src/Storage/MassStorage.o
LOAD ./build/./RepRapFirmware/src/Hardware/SharedSpi/SharedSpiClient.o
LOAD ./build/./RepRapFirmware/src/Hardware/SharedSpi/SharedSpiDevice.o
LOAD ./build/./RepRapFirmware/src/Comms/AuxDevice.o
LOAD ./build/./RepRapFirmware/src/Heating/Sensors/AdditionalOutputSensor.o
LOAD ./build/./RepRapFirmware/src/Heating/Sensors/CpuTemperatureSensor.o
LOAD ./build/./RepRapFirmware/src/Heating/Sensors/CurrentLoopTemperatureSensor.o
LOAD ./build/./RepRapFirmware/src/Heating/Sensors/DhtSensor.o
LOAD ./build/./RepRapFirmware/src/Heating/Sensors/LinearAnalogSensor.o
LOAD ./build/./RepRapFirmware/src/Heating/Sensors/RemoteSensor.o
LOAD ./build/./RepRapFirmware/src/Heating/Sensors/RtdSensor31865.o
LOAD ./build/./RepRapFirmware/src/Heating/Sensors/SensorWithPort.o
LOAD ./build/./RepRapFirmware/src/Heating/Sensors/SpiTemperatureSensor.o
LOAD ./build/./RepRapFirmware/src/Heating/Sensors/TemperatureSensor.o
LOAD ./build/./RepRapFirmware/src/Heating/Sensors/Thermistor.o
LOAD ./build/./RepRapFirmware/src/Heating/Sensors/ThermocoupleSensor31855.o
LOAD ./build/./RepRapFirmware/src/Heating/Sensors/ThermocoupleSensor31856.o
LOAD ./build/./RepRapFirmware/src/Heating/Sensors/TmcDriverTemperatureSensor.o
LOAD ./build/./RepRapFirmware/src/Fans/DotStarLed.o
LOAD ./build/./RepRapFirmware/src/Fans/Fan.o
LOAD ./build/./RepRapFirmware/src/Fans/FansManager.o
LOAD ./build/./RepRapFirmware/src/Fans/LocalFan.o
LOAD ./build/./RepRapFirmware/src/Fans/RemoteFan.o
LOAD ./build/./RepRapFirmware/src/ObjectModel/ObjectModel.o
LOAD ./build/./RepRapFirmware/src/Endstops/Endstop.o
LOAD ./build/./RepRapFirmware/src/Endstops/EndstopsManager.o
LOAD ./build/./RepRapFirmware/src/Endstops/LocalZProbe.o
LOAD ./build/./RepRapFirmware/src/Endstops/RemoteZProbe.o
LOAD ./build/./RepRapFirmware/src/Endstops/StallDetectionEndstop.o
LOAD ./build/./RepRapFirmware/src/Endstops/SwitchEndstop.o
LOAD ./build/./RepRapFirmware/src/Endstops/ZProbe.o
LOAD ./build/./RepRapFirmware/src/Endstops/ZProbeEndstop.o
LOAD ./build/./RepRapFirmware/src/Hardware/ExceptionHandlers.o
LOAD ./build/./RepRapFirmware/src/Hardware/I2C.o
LOAD ./build/./RepRapFirmware/src/Hardware/IoPorts.o
LOAD ./build/./RepRapFirmware/src/Hardware/NonVolatileMemory.o
LOAD ./build/./RepRapFirmware/src/Hardware/SoftwareReset.o
LOAD ./build/./RepRapFirmware/src/Tools/Filament.o
LOAD ./build/./RepRapFirmware/src/Tools/Spindle.o
LOAD ./build/./RepRapFirmware/src/Tools/Tool.o
LOAD ./build/./RepRapFirmware/src/Display/Display.o
LOAD ./build/./RepRapFirmware/src/Display/Menu.o
LOAD ./build/./RepRapFirmware/src/Display/MenuItem.o
LOAD ./build/./RepRapFirmware/src/Display/RotaryEncoder.o
LOAD ./build/./RepRapFirmware/src/GPIO/GpInPort.o
LOAD ./build/./RepRapFirmware/src/GPIO/GpOutPort.o
LOAD ./build/./RepRapFirmware/src/LPC/BoardConfig.o
LOAD ./build/./RepRapFirmware/src/LPC/Microstepping.o
LOAD ./build/./RepRapFirmware/src/LPC/NVMEmulation.o
LOAD ./build/./RepRapFirmware/src/LPC/Pins_LPC.o
LOAD ./build/./RepRapFirmware/src/LPC/MCP4461/MCP4461.o
LOAD ./build/./RepRapFirmware/src/LPC/FatFS/diskio.o
LOAD ./build/./RepRapFirmware/src/LPC/FatFS/fattime_rtc.o
LOAD ./build/./RepRapFirmware/src/LPC/FatFS/sd_mmc_wrapper.o
LOAD ./build/./RepRapFirmware/src/LPC/FatFS/SDCard.o
LOAD ./build/./RepRapFirmware/src/Networking/FirmwareUpdater.o
LOAD ./build/./RepRapFirmware/src/Networking/FtpResponder.o
LOAD ./build/./RepRapFirmware/src/Networking/HttpResponder.o
LOAD ./build/./RepRapFirmware/src/Networking/Network.o
LOAD ./build/./RepRapFirmware/src/Networking/NetworkBuffer.o
LOAD ./build/./RepRapFirmware/src/Networking/NetworkInterface.o
LOAD ./build/./RepRapFirmware/src/Networking/NetworkResponder.o
LOAD ./build/./RepRapFirmware/src/Networking/TelnetResponder.o
LOAD ./build/./RepRapFirmware/src/Networking/UploadingNetworkResponder.o
LOAD ./build/./RepRapFirmware/src/LPC/Networking/RTOSPlusTCPEthernet/RTOSPlusTCPEthernetInterface.o
LOAD ./build/./RepRapFirmware/src/LPC/Networking/RTOSPlusTCPEthernet/RTOSPlusTCPEthernetServerSocket.o
LOAD ./build/./RepRapFirmware/src/LPC/Networking/RTOSPlusTCPEthernet/RTOSPlusTCPEthernetSocket.o
LOAD c:/users/andy/.vscode/extensions/metalcode-eu.windows-arm-none-eabi-0.1.6/bin/../lib/gcc/arm-none-eabi/8.2.1/../../../../arm-none-eabi/lib/thumb/v7-m/nofp\libsupc++.a
LOAD ./build/\libRRFLibraries.a
END GROUP
LOAD c:/users/andy/.vscode/extensions/metalcode-eu.windows-arm-none-eabi-0.1.6/bin/../lib/gcc/arm-none-eabi/8.2.1/../../../../arm-none-eabi/lib/thumb/v7-m/nofp\libm.a
START GROUP
LOAD c:/users/andy/.vscode/extensions/metalcode-eu.windows-arm-none-eabi-0.1.6/bin/../lib/gcc/arm-none-eabi/8.2.1/thumb/v7-m/nofp\libgcc.a
LOAD c:/users/andy/.vscode/extensions/metalcode-eu.windows-arm-none-eabi-0.1.6/bin/../lib/gcc/arm-none-eabi/8.2.1/../../../../arm-none-eabi/lib/thumb/v7-m/nofp\libc.a
END GROUP
START GROUP
LOAD c:/users/andy/.vscode/extensions/metalcode-eu.windows-arm-none-eabi-0.1.6/bin/../lib/gcc/arm-none-eabi/8.2.1/thumb/v7-m/nofp\libgcc.a
LOAD c:/users/andy/.vscode/extensions/metalcode-eu.windows-arm-none-eabi-0.1.6/bin/../lib/gcc/arm-none-eabi/8.2.1/../../../../arm-none-eabi/lib/thumb/v7-m/nofp\libc.a
LOAD c:/users/andy/.vscode/extensions/metalcode-eu.windows-arm-none-eabi-0.1.6/bin/../lib/gcc/arm-none-eabi/8.2.1/../../../../arm-none-eabi/lib/thumb/v7-m/nofp\libnosys.a
END GROUP
LOAD c:/users/andy/.vscode/extensions/metalcode-eu.windows-arm-none-eabi-0.1.6/bin/../lib/gcc/arm-none-eabi/8.2.1/thumb/v7-m/nofp/crtend.o
LOAD c:/users/andy/.vscode/extensions/metalcode-eu.windows-arm-none-eabi-0.1.6/bin/../lib/gcc/arm-none-eabi/8.2.1/thumb/v7-m/nofp/crtn.o
START GROUP
LOAD c:/users/andy/.vscode/extensions/metalcode-eu.windows-arm-none-eabi-0.1.6/bin/../lib/gcc/arm-none-eabi/8.2.1/thumb/v7-m/nofp\libgcc.a
LOAD c:/users/andy/.vscode/extensions/metalcode-eu.windows-arm-none-eabi-0.1.6/bin/../lib/gcc/arm-none-eabi/8.2.1/../../../../arm-none-eabi/lib/thumb/v7-m/nofp\libg.a
LOAD c:/users/andy/.vscode/extensions/metalcode-eu.windows-arm-none-eabi-0.1.6/bin/../lib/gcc/arm-none-eabi/8.2.1/../../../../arm-none-eabi/lib/thumb/v7-m/nofp\libc.a
LOAD c:/users/andy/.vscode/extensions/metalcode-eu.windows-arm-none-eabi-0.1.6/bin/../lib/gcc/arm-none-eabi/8.2.1/../../../../arm-none-eabi/lib/thumb/v7-m/nofp\libm.a
LOAD c:/users/andy/.vscode/extensions/metalcode-eu.windows-arm-none-eabi-0.1.6/bin/../lib/gcc/arm-none-eabi/8.2.1/../../../../arm-none-eabi/lib/thumb/v7-m/nofp\libnosys.a
END GROUP

.AHBSRAM0       0x2007c000     0x43c8
                0x2007c000                Image$$RW_IRAM2$$Base = .
                0x2007c000                PROVIDE (__AHB0_block_start = .)
 *(AHBSRAM0)
 AHBSRAM0       0x2007c000       0x18 ./build/\libLPCCore.a(exti.o)
 AHBSRAM0       0x2007c018       0x58 ./build/\libLPCCore.a(Wire.o)
                0x2007c018                Wire
 AHBSRAM0       0x2007c070      0xc40 ./build/\libLPCCore.a(NetworkInterface.o)
 *(.bss.*DataTransfer*)
 *(.bss.reprap)
 .bss.reprap    0x2007ccb0      0x380 ./build/./RepRapFirmware/src/RepRapFirmware.o
                0x2007ccb0                reprap
 *(.bss._*heaterTask)
 .bss._ZL10heaterTask
                0x2007d030      0x6a8 ./build/./RepRapFirmware/src/Heating/Heat.o
 *(.bss._*mainTask)
 .bss._ZL8mainTask
                0x2007d6d8      0xf80 ./build/./RepRapFirmware/src/Tasks.o
 *(.bss.*IdleTaskStack)
 *(.bss.*TimerTaskStack)
 *(.bss.*tcpPlusTask)
 .bss._ZL11tcpPlusTask
                0x2007e658      0x1f8 ./build/./RepRapFirmware/src/LPC/Networking/RTOSPlusTCPEthernet/RTOSPlusTCPEthernetInterface.o
 *(.bss._time_locale)
 *(.bss.*Mutex*)
 .bss._ZL11mallocMutex
                0x2007e850       0x60 ./build/./RepRapFirmware/src/Tasks.o
 .bss._ZL11sysDirMutex
                0x2007e8b0       0x60 ./build/./RepRapFirmware/src/Tasks.o
 .bss._ZL8i2cMutex
                0x2007e910       0x60 ./build/./RepRapFirmware/src/Tasks.o
 .bss._ZL7fsMutex
                0x2007e970       0x60 ./build/./RepRapFirmware/src/Storage/MassStorage.o
 .bss._ZL8dirMutex
                0x2007e9d0       0x60 ./build/./RepRapFirmware/src/Storage/MassStorage.o
 .bss._ZN13HttpResponder15gcodeReplyMutexE
                0x2007ea30       0x60 ./build/./RepRapFirmware/src/Networking/HttpResponder.o
                0x2007ea30                HttpResponder::gcodeReplyMutex
 .bss._ZN5Mutex9mutexListE
                0x2007ea90        0x4 ./build/\libRRFLibraries.a(RTOSIface.o)
                0x2007ea90                Mutex::mutexList
 *(.bss.*Queue*)
 .bss.xNetworkEventQueue
                0x2007ea94        0x4 ./build/\libLPCCore.a(FreeRTOS_IP.o)
                0x2007ea94                xNetworkEventQueue
 *(.bss.*TCB)
 .bss.pxCurrentTCB
                0x2007ea98        0x4 ./build/\libLPCCore.a(tasks.o)
                0x2007ea98                pxCurrentTCB
 *(.bss.xNetworkBuffers)
 .bss.xNetworkBuffers
                0x2007ea9c       0xb4 ./build/\libLPCCore.a(BufferAllocation_1.o)
 *(.bss.*networkTask)
 .bss._ZL11networkTask
                0x2007eb50      0x964 ./build/./RepRapFirmware/src/Networking/Network.o
 *(.bss.*descriptors*)
 *(.bss.*HttpResponder*)
 .bss._ZN13HttpResponder10gcodeReplyE
                0x2007f4b4       0x24 ./build/./RepRapFirmware/src/Networking/HttpResponder.o
                0x2007f4b4                HttpResponder::gcodeReply
 .bss._ZN13HttpResponder11numSessionsE
                0x2007f4d8        0x4 ./build/./RepRapFirmware/src/Networking/HttpResponder.o
                0x2007f4d8                HttpResponder::numSessions
 .bss._ZN13HttpResponder13clientsServedE
                0x2007f4dc        0x4 ./build/./RepRapFirmware/src/Networking/HttpResponder.o
                0x2007f4dc                HttpResponder::clientsServed
 .bss._ZN13HttpResponder3seqE
                0x2007f4e0        0x2 ./build/./RepRapFirmware/src/Networking/HttpResponder.o
                0x2007f4e0                HttpResponder::seq
 *fill*         0x2007f4e2        0x2 
 .bss._ZN13HttpResponder8sessionsE
                0x2007f4e4       0x18 ./build/./RepRapFirmware/src/Networking/HttpResponder.o
                0x2007f4e4                HttpResponder::sessions
 *(.bss.*emacTask)
 .bss._ZL8emacTask
                0x2007f4fc      0x16c ./build/./RepRapFirmware/src/LPC/Networking/RTOSPlusTCPEthernet/RTOSPlusTCPEthernetInterface.o
 *(.bss.*idleTask)
 .bss._ZL8idleTask
                0x2007f668      0x108 ./build/./RepRapFirmware/src/Tasks.o
 *(.bss.xARPCache)
 .bss.xARPCache
                0x2007f770       0x48 ./build/\libLPCCore.a(FreeRTOS_ARP.o)
 *(.bss.xDHCPData)
 .bss.xDHCPData
                0x2007f7b8       0x24 ./build/\libLPCCore.a(FreeRTOS_DHCP.o)
 *(.bss.*assembleConfigDescriptor*)
 *(.bss.*bufferIn)
 *(.bss.*bufferOut)
 *(.bss.*infoParser)
 *fill*         0x2007f7dc        0x4 
 .bss._ZL10infoParser
                0x2007f7e0      0x5b8 ./build/./RepRapFirmware/src/Storage/MassStorage.o
 *(.bss.*info)
 .bss._ZL4info  0x2007fd98      0x550 ./build/./RepRapFirmware/src/Storage/MassStorage.o
 *(.bss.*files)
 .bss._ZL5files
                0x200802e8       0xe0 ./build/./RepRapFirmware/src/Storage/MassStorage.o
                0x200803c8                Image$$RW_IRAM2$$ZI$$Limit = .
                0x200803c8                PROVIDE (__AHB0_dyn_start = .)
                0x20084000                PROVIDE (__AHB0_end = (ORIGIN (AHB_RAM) + LENGTH (AHB_RAM)))

.text           0x00004000    0x6483c
                0x00004000                _sfixed = .
 *(.isr_vector)
 .isr_vector    0x00004000       0xc4 ./build/\libLPCCore.a(startup_LPC17xx.o)
                0x00004000                g_pfnVectors
 *(.text*)
 .text          0x000040c4       0x40 c:/users/andy/.vscode/extensions/metalcode-eu.windows-arm-none-eabi-0.1.6/bin/../lib/gcc/arm-none-eabi/8.2.1/thumb/v7-m/nofp/crtbegin.o
 .text._sbrk    0x00004104       0x1c ./build/./CoreLPC/cores/arduino/syscalls.o
                0x00004104                _sbrk
 .text._exit    0x00004120        0x2 ./build/./CoreLPC/cores/arduino/syscalls.o
                0x00004120                _exit
 .text._kill    0x00004122        0x2 ./build/./CoreLPC/cores/arduino/syscalls.o
                0x00004122                _kill
 .text._getpid  0x00004124        0x6 ./build/./CoreLPC/cores/arduino/syscalls.o
                0x00004124                _getpid
 .text.memcmp   0x0000412a       0x1c ./build/./RepRapFirmware/src/libc/memcmp.o
                0x0000412a                memcmp
 .text.memcpy   0x00004146       0x1c ./build/./RepRapFirmware/src/libc/memcpy.o
                0x00004146                memcpy
 .text.memmove  0x00004162       0x34 ./build/./RepRapFirmware/src/libc/memmove.o
                0x00004162                memmove
 .text.memset   0x00004196       0x10 ./build/./RepRapFirmware/src/libc/memset.o
                0x00004196                memset
 *fill*         0x000041a6        0x2 
 .text.malloc   0x000041a8       0x98 ./build/./RepRapFirmware/src/libc/nano-mallocr.o
                0x000041a8                malloc
 .text.free     0x00004240       0x88 ./build/./RepRapFirmware/src/libc/nano-mallocr.o
                0x00004240                free
 .text.__cxa_allocate_exception
                0x000042c8       0x1e ./build/./RepRapFirmware/src/libcpp/eh_alloc.o
                0x000042c8                __cxa_allocate_exception
 .text.__cxa_free_exception
                0x000042e6        0x6 ./build/./RepRapFirmware/src/libcpp/eh_alloc.o
                0x000042e6                __cxa_free_exception
 .text._Z12SafeStrptimePKcS0_P2tm
                0x000042ec      0x1d8 ./build/./RepRapFirmware/src/libc/strptime.o
                0x000042ec                SafeStrptime(char const*, char const*, tm*)
 .text.Default_Handler
                0x000044c4        0x4 ./build/\libLPCCore.a(startup_LPC17xx.o)
                0x000044c4                CAN_IRQHandler
                0x000044c4                EINT2_IRQHandler
                0x000044c4                ADC_IRQHandler
                0x000044c4                TIMER3_IRQHandler
                0x000044c4                QEI_IRQHandler
                0x000044c4                UART2_IRQHandler
                0x000044c4                BOD_IRQHandler
                0x000044c4                EINT0_IRQHandler
                0x000044c4                RTC_IRQHandler
                0x000044c4                I2C1_IRQHandler
                0x000044c4                I2S_IRQHandler
                0x000044c4                PLL0_IRQHandler
                0x000044c4                PWM1_IRQHandler
                0x000044c4                MCPWM_IRQHandler
                0x000044c4                Default_Handler
                0x000044c4                I2C2_IRQHandler
                0x000044c4                TIMER1_IRQHandler
                0x000044c4                PLL1_IRQHandler
                0x000044c4                UART1_IRQHandler
                0x000044c4                EINT1_IRQHandler
                0x000044c4                TIMER2_IRQHandler
                0x000044c4                I2C0_IRQHandler
                0x000044c4                SPI_IRQHandler
 .text.Reset_Handler
                0x000044c8       0x68 ./build/\libLPCCore.a(startup_LPC17xx.o)
                0x000044c8                Reset_Handler
 .text.startup.main
                0x00004530       0x6c ./build/\libLPCCore.a(main.o)
                0x00004530                main
 .text._Z4initv
                0x0000459c        0xe ./build/\libLPCCore.a(variant.o)
                0x0000459c                init()
 *fill*         0x000045aa        0x2 
 .text.prvInsertBlockIntoFreeList
                0x000045ac       0x48 ./build/\libLPCCore.a(heap_5.o)
 .text.pvPortMalloc
                0x000045f4       0xd0 ./build/\libLPCCore.a(heap_5.o)
                0x000045f4                pvPortMalloc
 .text.vPortFree
                0x000046c4       0x80 ./build/\libLPCCore.a(heap_5.o)
                0x000046c4                vPortFree
 .text.xPortGetFreeHeapSize
                0x00004744        0xc ./build/\libLPCCore.a(heap_5.o)
                0x00004744                xPortGetFreeHeapSize
 .text.xPortGetMinimumEverFreeHeapSize
                0x00004750        0xc ./build/\libLPCCore.a(heap_5.o)
                0x00004750                xPortGetMinimumEverFreeHeapSize
 .text.vPortDefineHeapRegions
                0x0000475c       0xd8 ./build/\libLPCCore.a(heap_5.o)
                0x0000475c                vPortDefineHeapRegions
 .text.prvPortStartFirstTask
                0x00004834       0x20 ./build/\libLPCCore.a(port.o)
 .text.prvTaskExitError
                0x00004854       0x3c ./build/\libLPCCore.a(port.o)
 .text.pxPortInitialiseStack
                0x00004890       0x24 ./build/\libLPCCore.a(port.o)
                0x00004890                pxPortInitialiseStack
 *fill*         0x000048b4        0xc 
 .text.SVC_Handler
                0x000048c0       0x24 ./build/\libLPCCore.a(port.o)
                0x000048c0                SVC_Handler
 .text.vPortEnterCritical
                0x000048e4       0x40 ./build/\libLPCCore.a(port.o)
                0x000048e4                vPortEnterCritical
 .text.vPortExitCritical
                0x00004924       0x28 ./build/\libLPCCore.a(port.o)
                0x00004924                vPortExitCritical
 *fill*         0x0000494c        0x4 
 .text.PendSV_Handler
                0x00004950       0x44 ./build/\libLPCCore.a(port.o)
                0x00004950                PendSV_Handler
 .text.SysTick_Handler
                0x00004994       0x2c ./build/\libLPCCore.a(port.o)
                0x00004994                SysTick_Handler
 .text.vPortSetupTimerInterrupt
                0x000049c0       0x34 ./build/\libLPCCore.a(port.o)
                0x000049c0                vPortSetupTimerInterrupt
 .text.xPortStartScheduler
                0x000049f4       0xb0 ./build/\libLPCCore.a(port.o)
                0x000049f4                xPortStartScheduler
 .text.vPortValidateInterruptPriority
                0x00004aa4       0x54 ./build/\libLPCCore.a(port.o)
                0x00004aa4                vPortValidateInterruptPriority
 .text.SysTick_Init
                0x00004af8       0x1c ./build/\libLPCCore.a(systick.o)
                0x00004af8                SysTick_Init
 .text.millis   0x00004b14        0xc ./build/\libLPCCore.a(systick.o)
                0x00004b14                millis
 .text.millis64
                0x00004b20       0x20 ./build/\libLPCCore.a(systick.o)
                0x00004b20                millis64
 .text.CoreSysTick
                0x00004b40       0x2c ./build/\libLPCCore.a(systick.o)
                0x00004b40                CoreSysTick
 .text.SystemInit
                0x00004b6c      0x134 ./build/\libLPCCore.a(system_LPC17xx.o)
                0x00004b6c                SystemInit
 .text.Chip_Clock_EnablePLL
                0x00004ca0       0x24 ./build/\libLPCCore.a(clock_17xx_40xx.o)
                0x00004ca0                Chip_Clock_EnablePLL
 .text.Chip_Clock_DisablePLL
                0x00004cc4       0x26 ./build/\libLPCCore.a(clock_17xx_40xx.o)
                0x00004cc4                Chip_Clock_DisablePLL
 .text.Chip_Clock_SetupPLL
                0x00004cea       0x30 ./build/\libLPCCore.a(clock_17xx_40xx.o)
                0x00004cea                Chip_Clock_SetupPLL
 *fill*         0x00004d1a        0x2 
 .text.Chip_Clock_EnablePeriphClock
                0x00004d1c       0x18 ./build/\libLPCCore.a(clock_17xx_40xx.o)
                0x00004d1c                Chip_Clock_EnablePeriphClock
 .text.Chip_Clock_DisablePeriphClock
                0x00004d34       0x1c ./build/\libLPCCore.a(clock_17xx_40xx.o)
                0x00004d34                Chip_Clock_DisablePeriphClock
 .text.Chip_Clock_GetCPUClockSource
                0x00004d50       0x10 ./build/\libLPCCore.a(clock_17xx_40xx.o)
                0x00004d50                Chip_Clock_GetCPUClockSource
 .text.Chip_Clock_SetCPUClockDiv
                0x00004d60        0xc ./build/\libLPCCore.a(clock_17xx_40xx.o)
                0x00004d60                Chip_Clock_SetCPUClockDiv
 .text.Chip_Clock_GetCPUClockDiv
                0x00004d6c       0x10 ./build/\libLPCCore.a(clock_17xx_40xx.o)
                0x00004d6c                Chip_Clock_GetCPUClockDiv
 .text.Chip_Clock_SetPCLKDiv
                0x00004d7c       0x2a ./build/\libLPCCore.a(clock_17xx_40xx.o)
                0x00004d7c                Chip_Clock_SetPCLKDiv
 *fill*         0x00004da6        0x2 
 .text.Chip_Clock_GetPCLKDiv
                0x00004da8       0x38 ./build/\libLPCCore.a(clock_17xx_40xx.o)
                0x00004da8                Chip_Clock_GetPCLKDiv
 .text.Chip_Clock_GetSYSCLKRate
                0x00004de0       0x38 ./build/\libLPCCore.a(clock_17xx_40xx.o)
                0x00004de0                Chip_Clock_GetSYSCLKRate
 .text.Chip_Clock_GetMainPLLOutClockRate
                0x00004e18       0x34 ./build/\libLPCCore.a(clock_17xx_40xx.o)
                0x00004e18                Chip_Clock_GetMainPLLOutClockRate
 .text.Chip_Clock_GetMainClockRate
                0x00004e4c       0x20 ./build/\libLPCCore.a(clock_17xx_40xx.o)
                0x00004e4c                Chip_Clock_GetMainClockRate
 .text.Chip_Clock_GetSystemClockRate
                0x00004e6c       0x12 ./build/\libLPCCore.a(clock_17xx_40xx.o)
                0x00004e6c                Chip_Clock_GetSystemClockRate
 .text.Chip_Clock_GetPeripheralClockRate
                0x00004e7e       0x16 ./build/\libLPCCore.a(clock_17xx_40xx.o)
                0x00004e7e                Chip_Clock_GetPeripheralClockRate
 .text.iap_entry
                0x00004e94        0x8 ./build/\libLPCCore.a(iap.o)
 .text.Chip_IAP_PreSectorForReadWrite
                0x00004e9c       0x1e ./build/\libLPCCore.a(iap.o)
                0x00004e9c                Chip_IAP_PreSectorForReadWrite
 *fill*         0x00004eba        0x2 
 .text.Chip_IAP_CopyRamToFlash
                0x00004ebc       0x34 ./build/\libLPCCore.a(iap.o)
                0x00004ebc                Chip_IAP_CopyRamToFlash
 .text.Chip_IAP_EraseSector
                0x00004ef0       0x30 ./build/\libLPCCore.a(iap.o)
                0x00004ef0                Chip_IAP_EraseSector
 .text.Chip_IAP_ReadPID
                0x00004f20       0x18 ./build/\libLPCCore.a(iap.o)
                0x00004f20                Chip_IAP_ReadPID
 .text._Z12AnalogInInitv
                0x00004f38       0x58 ./build/\libLPCCore.a(AnalogIn.o)
                0x00004f38                AnalogInInit()
 .text._Z21ConfigureADCPreFilterb
                0x00004f90       0x18 ./build/\libLPCCore.a(AnalogIn.o)
                0x00004f90                ConfigureADCPreFilter(bool)
 .text._Z21AnalogInEnableChannel19AnalogChannelNumberb
                0x00004fa8       0x6c ./build/\libLPCCore.a(AnalogIn.o)
                0x00004fa8                AnalogInEnableChannel(AnalogChannelNumber, bool)
 .text._Z19AnalogInReadChannel19AnalogChannelNumber
                0x00005014      0x25c ./build/\libLPCCore.a(AnalogIn.o)
                0x00005014                AnalogInReadChannel(AnalogChannelNumber)
 .text._Z23AnalogInStartConversionm
                0x00005270        0x2 ./build/\libLPCCore.a(AnalogIn.o)
                0x00005270                AnalogInStartConversion(unsigned long)
 *fill*         0x00005272        0x2 
 .text._Z15PinToAdcChannelm
                0x00005274       0x10 ./build/\libLPCCore.a(AnalogIn.o)
                0x00005274                PinToAdcChannel(unsigned long)
 .text.startup._GLOBAL__sub_I_ADCNotReadyCnt
                0x00005284        0xc ./build/\libLPCCore.a(AnalogIn.o)
 .text._Z13AnalogOutInitv
                0x00005290        0x2 ./build/\libLPCCore.a(AnalogOut.o)
                0x00005290                AnalogOutInit()
 .text._Z9AnalogOut11gpioPins_etft
                0x00005292       0x6c ./build/\libLPCCore.a(AnalogOut.o)
                0x00005292                AnalogOut(gpioPins_et, float, unsigned short)
 .text._Z12IsPwmCapable11gpioPins_et
                0x000052fe        0xc ./build/\libLPCCore.a(AnalogOut.o)
                0x000052fe                IsPwmCapable(gpioPins_et)
 .text._Z18ConfigurePinForPWM11gpioPins_etb
                0x0000530a        0x4 ./build/\libLPCCore.a(AnalogOut.o)
                0x0000530a                ConfigurePinForPWM(gpioPins_et, bool)
 .text._Z13ReleasePWMPin11gpioPins_et
                0x0000530e        0x4 ./build/\libLPCCore.a(AnalogOut.o)
                0x0000530e                ReleasePWMPin(gpioPins_et)
 *fill*         0x00005312        0x2 
 .text._Z7PWM_Set11gpioPins_etm
                0x00005314       0xb0 ./build/\libLPCCore.a(AnalogOutServo.o)
                0x00005314                PWM_Set(gpioPins_et, unsigned long)
 .text._Z9PWM_Clear11gpioPins_et
                0x000053c4       0x64 ./build/\libLPCCore.a(AnalogOutServo.o)
                0x000053c4                PWM_Clear(gpioPins_et)
 .text._Z16AnalogWriteHWPWMRK14PinDescriptionft11gpioPins_et
                0x00005428       0x94 ./build/\libLPCCore.a(AnalogOutServo.o)
                0x00005428                AnalogWriteHWPWM(PinDescription const&, float, unsigned short, gpioPins_et)
 .text._Z15ReleaseHWPWMPin11gpioPins_et
                0x000054bc       0x2c ./build/\libLPCCore.a(AnalogOutServo.o)
                0x000054bc                ReleaseHWPWMPin(gpioPins_et)
 .text._Z10CanDoHWPWM11gpioPins_et
                0x000054e8       0x30 ./build/\libLPCCore.a(AnalogOutServo.o)
                0x000054e8                CanDoHWPWM(gpioPins_et)
 .text._Z20ConfigurePinForHWPWM11gpioPins_etb
                0x00005518       0x3c ./build/\libLPCCore.a(AnalogOutServo.o)
                0x00005518                ConfigurePinForHWPWM(gpioPins_et, bool)
 .text._Z14IsServoCapable11gpioPins_et
                0x00005554       0x22 ./build/\libLPCCore.a(AnalogOutServo.o)
                0x00005554                IsServoCapable(gpioPins_et)
 .text._Z15ReleaseServoPin11gpioPins_et
                0x00005576       0x16 ./build/\libLPCCore.a(AnalogOutServo.o)
                0x00005576                ReleaseServoPin(gpioPins_et)
 .text._Z20ConfigurePinForServo11gpioPins_etb
                0x0000558c       0x26 ./build/\libLPCCore.a(AnalogOutServo.o)
                0x0000558c                ConfigurePinForServo(gpioPins_et, bool)
 *fill*         0x000055b2        0x2 
 .text._Z16AnalogWriteServoft11gpioPins_et
                0x000055b4       0x38 ./build/\libLPCCore.a(AnalogOutServo.o)
                0x000055b4                AnalogWriteServo(float, unsigned short, gpioPins_et)
 .text._Z16CanDoSoftwarePWM11gpioPins_et
                0x000055ec       0x1c ./build/\libLPCCore.a(AnalogOutSoftwarePWM.o)
                0x000055ec                CanDoSoftwarePWM(gpioPins_et)
 .text._Z26ConfigurePinForSoftwarePWM11gpioPins_et
                0x00005608       0x5c ./build/\libLPCCore.a(AnalogOutSoftwarePWM.o)
                0x00005608                ConfigurePinForSoftwarePWM(gpioPins_et)
 .text._Z21ReleaseSoftwarePWMPin11gpioPins_et
                0x00005664       0x60 ./build/\libLPCCore.a(AnalogOutSoftwarePWM.o)
                0x00005664                ReleaseSoftwarePWMPin(gpioPins_et)
 .text._Z22AnalogWriteSoftwarePWMft11gpioPins_et
                0x000056c4       0x64 ./build/\libLPCCore.a(AnalogOutSoftwarePWM.o)
                0x000056c4                AnalogWriteSoftwarePWM(float, unsigned short, gpioPins_et)
 .text._Znwj    0x00005728       0x18 ./build/\libLPCCore.a(new.o)
                0x00005728                operator new(unsigned int)
 .text._Znaj    0x00005740        0x4 ./build/\libLPCCore.a(new.o)
                0x00005740                operator new[](unsigned int)
 .text._ZdlPvj  0x00005744        0x4 ./build/\libLPCCore.a(new.o)
                0x00005744                operator delete(void*, unsigned int)
 .text.GPIO_PinInputMode
                0x00005748      0x3c4 ./build/\libLPCCore.a(wiring_digital.o)
                0x00005748                GPIO_PinInputMode
 .text.pinModeDuet
                0x00005b0c       0xa6 ./build/\libLPCCore.a(wiring_digital.o)
                0x00005b0c                pinModeDuet
 .text.digitalWrite
                0x00005bb2        0xa ./build/\libLPCCore.a(wiring_digital.o)
                0x00005bb2                digitalWrite
 .text.digitalRead
                0x00005bbc       0x16 ./build/\libLPCCore.a(wiring_digital.o)
                0x00005bbc                digitalRead
 .text.setPullup
                0x00005bd2        0x8 ./build/\libLPCCore.a(wiring_digital.o)
                0x00005bd2                setPullup
 .text._ZN11SoftwarePWMC2E11gpioPins_et
                0x00005bda       0x38 ./build/\libLPCCore.a(SoftwarePWM.o)
                0x00005bda                SoftwarePWM::SoftwarePWM(gpioPins_et)
                0x00005bda                SoftwarePWM::SoftwarePWM(gpioPins_et)
 *fill*         0x00005c12        0x2 
 .text._ZN11SoftwarePWM11AttachTimerEv
                0x00005c14       0x24 ./build/\libLPCCore.a(SoftwarePWM.o)
                0x00005c14                SoftwarePWM::AttachTimer()
 .text._ZN11SoftwarePWM12ReleaseTimerEv
                0x00005c38       0x1c ./build/\libLPCCore.a(SoftwarePWM.o)
                0x00005c38                SoftwarePWM::ReleaseTimer()
 .text._ZN11SoftwarePWM6EnableEv
                0x00005c54        0x8 ./build/\libLPCCore.a(SoftwarePWM.o)
                0x00005c54                SoftwarePWM::Enable()
 .text._ZN11SoftwarePWM7DisableEv
                0x00005c5c       0x1a ./build/\libLPCCore.a(SoftwarePWM.o)
                0x00005c5c                SoftwarePWM::Disable()
 *fill*         0x00005c76        0x2 
 .text._ZN11SoftwarePWM11AnalogWriteEft11gpioPins_et
                0x00005c78       0xb0 ./build/\libLPCCore.a(SoftwarePWM.o)
                0x00005c78                SoftwarePWM::AnalogWrite(float, unsigned short, gpioPins_et)
 .text._ZL12updateActivev
                0x00005d28       0x78 ./build/\libLPCCore.a(SoftwarePWMTimer.o)
 .text._ZN16SoftwarePWMTimerC2Ev
                0x00005da0       0x68 ./build/\libLPCCore.a(SoftwarePWMTimer.o)
                0x00005da0                SoftwarePWMTimer::SoftwarePWMTimer()
                0x00005da0                SoftwarePWMTimer::SoftwarePWMTimer()
 .text._Z7syncAllv
                0x00005e08       0x48 ./build/\libLPCCore.a(SoftwarePWMTimer.o)
                0x00005e08                syncAll()
 .text._ZN16SoftwarePWMTimer7disableEi
                0x00005e50       0x14 ./build/\libLPCCore.a(SoftwarePWMTimer.o)
                0x00005e50                SoftwarePWMTimer::disable(int)
 .text._ZN16SoftwarePWMTimer6enableEP11SoftwarePWMmm
                0x00005e64       0x68 ./build/\libLPCCore.a(SoftwarePWMTimer.o)
                0x00005e64                SoftwarePWMTimer::enable(SoftwarePWM*, unsigned long, unsigned long)
 .text._ZN16SoftwarePWMTimer15adjustOnOffTimeEimm
                0x00005ecc       0x38 ./build/\libLPCCore.a(SoftwarePWMTimer.o)
                0x00005ecc                SoftwarePWMTimer::adjustOnOffTime(int, unsigned long, unsigned long)
 .text.hot.RIT_IRQHandler
                0x00005f04       0xc8 ./build/\libLPCCore.a(SoftwarePWMTimer.o)
                0x00005f04                RIT_IRQHandler
 .text.startup._GLOBAL__sub_I_softwarePWMTimer
                0x00005fcc        0xc ./build/\libLPCCore.a(SoftwarePWMTimer.o)
 .text.prvAddNewTaskToReadyList
                0x00005fd8      0x124 ./build/\libLPCCore.a(tasks.o)
 .text.prvResetNextTaskUnblockTime
                0x000060fc       0x24 ./build/\libLPCCore.a(tasks.o)
 .text.prvInitialiseNewTask.isra.2
                0x00006120       0x92 ./build/\libLPCCore.a(tasks.o)
 *fill*         0x000061b2        0x2 
 .text.prvDeleteTCB
                0x000061b4       0x38 ./build/\libLPCCore.a(tasks.o)
 .text.prvIdleTask
                0x000061ec       0x64 ./build/\libLPCCore.a(tasks.o)
 .text.prvAddCurrentTaskToDelayedList
                0x00006250       0x8c ./build/\libLPCCore.a(tasks.o)
 .text.xTaskCreateStatic
                0x000062dc       0x7c ./build/\libLPCCore.a(tasks.o)
                0x000062dc                xTaskCreateStatic
 .text.vTaskDelete
                0x00006358       0xd0 ./build/\libLPCCore.a(tasks.o)
                0x00006358                vTaskDelete
 .text.eTaskGetState
                0x00006428       0x80 ./build/\libLPCCore.a(tasks.o)
                0x00006428                eTaskGetState
 .text.vTaskPrioritySet
                0x000064a8       0xd4 ./build/\libLPCCore.a(tasks.o)
                0x000064a8                vTaskPrioritySet
 .text.vTaskStartScheduler
                0x0000657c       0x6c ./build/\libLPCCore.a(tasks.o)
                0x0000657c                vTaskStartScheduler
 .text.vTaskSuspendAll
                0x000065e8       0x10 ./build/\libLPCCore.a(tasks.o)
                0x000065e8                vTaskSuspendAll
 .text.xTaskGetTickCount
                0x000065f8        0xc ./build/\libLPCCore.a(tasks.o)
                0x000065f8                xTaskGetTickCount
 .text.pcTaskGetName
                0x00006604       0x24 ./build/\libLPCCore.a(tasks.o)
                0x00006604                pcTaskGetName
 .text.xTaskIncrementTick
                0x00006628      0x130 ./build/\libLPCCore.a(tasks.o)
                0x00006628                xTaskIncrementTick
 .text.xTaskResumeAll
                0x00006758       0xe8 ./build/\libLPCCore.a(tasks.o)
                0x00006758                xTaskResumeAll
 .text.vTaskDelayUntil
                0x00006840       0x80 ./build/\libLPCCore.a(tasks.o)
                0x00006840                vTaskDelayUntil
 .text.vTaskDelay
                0x000068c0       0x4c ./build/\libLPCCore.a(tasks.o)
                0x000068c0                vTaskDelay
 .text.vTaskSwitchContext
                0x0000690c       0xa4 ./build/\libLPCCore.a(tasks.o)
                0x0000690c                vTaskSwitchContext
 .text.vTaskSuspend
                0x000069b0       0xd4 ./build/\libLPCCore.a(tasks.o)
                0x000069b0                vTaskSuspend
 .text.vTaskPlaceOnEventList
                0x00006a84       0x34 ./build/\libLPCCore.a(tasks.o)
                0x00006a84                vTaskPlaceOnEventList
 .text.vTaskPlaceOnUnorderedEventList
                0x00006ab8       0x50 ./build/\libLPCCore.a(tasks.o)
                0x00006ab8                vTaskPlaceOnUnorderedEventList
 .text.xTaskRemoveFromEventList
                0x00006b08       0x80 ./build/\libLPCCore.a(tasks.o)
                0x00006b08                xTaskRemoveFromEventList
 .text.vTaskRemoveFromUnorderedEventList
                0x00006b88       0x80 ./build/\libLPCCore.a(tasks.o)
                0x00006b88                vTaskRemoveFromUnorderedEventList
 .text.vTaskSetTimeOutState
                0x00006c08       0x34 ./build/\libLPCCore.a(tasks.o)
                0x00006c08                vTaskSetTimeOutState
 .text.vTaskInternalSetTimeOutState
                0x00006c3c       0x18 ./build/\libLPCCore.a(tasks.o)
                0x00006c3c                vTaskInternalSetTimeOutState
 .text.xTaskCheckForTimeOut
                0x00006c54       0x6c ./build/\libLPCCore.a(tasks.o)
                0x00006c54                xTaskCheckForTimeOut
 .text.vTaskMissedYield
                0x00006cc0        0xc ./build/\libLPCCore.a(tasks.o)
                0x00006cc0                vTaskMissedYield
 .text.vTaskGetInfo
                0x00006ccc       0x7c ./build/\libLPCCore.a(tasks.o)
                0x00006ccc                vTaskGetInfo
 .text.xTaskGetCurrentTaskHandle
                0x00006d48        0xc ./build/\libLPCCore.a(tasks.o)
                0x00006d48                xTaskGetCurrentTaskHandle
 .text.xTaskGetSchedulerState
                0x00006d54       0x20 ./build/\libLPCCore.a(tasks.o)
                0x00006d54                xTaskGetSchedulerState
 .text.xTaskPriorityInherit
                0x00006d74       0x98 ./build/\libLPCCore.a(tasks.o)
                0x00006d74                xTaskPriorityInherit
 .text.xTaskPriorityDisinherit
                0x00006e0c       0x98 ./build/\libLPCCore.a(tasks.o)
                0x00006e0c                xTaskPriorityDisinherit
 .text.vTaskPriorityDisinheritAfterTimeout
                0x00006ea4       0xa4 ./build/\libLPCCore.a(tasks.o)
                0x00006ea4                vTaskPriorityDisinheritAfterTimeout
 .text.uxTaskResetEventItemValue
                0x00006f48       0x18 ./build/\libLPCCore.a(tasks.o)
                0x00006f48                uxTaskResetEventItemValue
 .text.pvTaskIncrementMutexHeldCount
                0x00006f60       0x18 ./build/\libLPCCore.a(tasks.o)
                0x00006f60                pvTaskIncrementMutexHeldCount
 .text.ulTaskNotifyTake
                0x00006f78       0x64 ./build/\libLPCCore.a(tasks.o)
                0x00006f78                ulTaskNotifyTake
 .text.xTaskGenericNotify
                0x00006fdc       0xd4 ./build/\libLPCCore.a(tasks.o)
                0x00006fdc                xTaskGenericNotify
 .text.vTaskNotifyGiveFromISR
                0x000070b0       0xb8 ./build/\libLPCCore.a(tasks.o)
                0x000070b0                vTaskNotifyGiveFromISR
 .text.CheckSPCurrentTaskStack
                0x00007168       0x28 ./build/\libLPCCore.a(tasks.o)
                0x00007168                CheckSPCurrentTaskStack
 .text.bb_alias_sram_dword
                0x00007190       0x1c ./build/\libLPCCore.a(gpio.o)
                0x00007190                bb_alias_sram_dword
 .text.bb_alias_periph_dword
                0x000071ac       0x1c ./build/\libLPCCore.a(gpio.o)
                0x000071ac                bb_alias_periph_dword
 .text.GPIO_PinFunction
                0x000071c8       0x48 ./build/\libLPCCore.a(gpio.o)
                0x000071c8                GPIO_PinFunction
 .text.GPIO_PinDirection
                0x00007210       0x20 ./build/\libLPCCore.a(gpio.o)
                0x00007210                GPIO_PinDirection
 .text.GPIO_PinWrite
                0x00007230       0x1e ./build/\libLPCCore.a(gpio.o)
                0x00007230                GPIO_PinWrite
 .text.GPIO_PinRead
                0x0000724e       0x1c ./build/\libLPCCore.a(gpio.o)
                0x0000724e                GPIO_PinRead
 *fill*         0x0000726a        0x2 
 .text.Chip_ADC_Init
                0x0000726c       0x48 ./build/\libLPCCore.a(adc_17xx_40xx.o)
                0x0000726c                Chip_ADC_Init
 .text.Chip_ADC_DeInit
                0x000072b4       0x10 ./build/\libLPCCore.a(adc_17xx_40xx.o)
                0x000072b4                Chip_ADC_DeInit
 .text.Chip_ADC_ReadValue
                0x000072c4       0x16 ./build/\libLPCCore.a(adc_17xx_40xx.o)
                0x000072c4                Chip_ADC_ReadValue
 .text.Chip_ADC_SetSampleRate
                0x000072da       0x30 ./build/\libLPCCore.a(adc_17xx_40xx.o)
                0x000072da                Chip_ADC_SetSampleRate
 .text.Chip_ADC_SetBurstCmd
                0x0000730a       0x1a ./build/\libLPCCore.a(adc_17xx_40xx.o)
                0x0000730a                Chip_ADC_SetBurstCmd
 .text._ZN12ADCPreFilter14UpdateChannelsEh
                0x00007324       0x1c ./build/\libLPCCore.a(ADCPreFilter.o)
                0x00007324                ADCPreFilter::UpdateChannels(unsigned char)
 .text._ZN12ADCPreFilter13PrepareAdcDmaEv
                0x00007340       0x5c ./build/\libLPCCore.a(ADCPreFilter.o)
                0x00007340                ADCPreFilter::PrepareAdcDma()
 .text._ZN12ADCPreFilter4InitEv
                0x0000739c       0x2c ./build/\libLPCCore.a(ADCPreFilter.o)
                0x0000739c                ADCPreFilter::Init()
 .text._ZL19checkAndCallHandlerm20LPC175X_6X_IRQn_Type
                0x000073c8       0x44 ./build/\libLPCCore.a(DMA.o)
 .text._Z13InitialiseDMAv
                0x0000740c       0x6c ./build/\libLPCCore.a(DMA.o)
                0x0000740c                InitialiseDMA()
 .text._Z19DMAGetChannelNumber13DMA_Channel_t
                0x00007478        0xc ./build/\libLPCCore.a(DMA.o)
                0x00007478                DMAGetChannelNumber(DMA_Channel_t)
 .text._Z32AttachDMAChannelInterruptHandlerPFvvE13DMA_Channel_t
                0x00007484        0xc ./build/\libLPCCore.a(DMA.o)
                0x00007484                AttachDMAChannelInterruptHandler(void (*)(), DMA_Channel_t)
 .text.DMA_IRQHandler
                0x00007490       0x36 ./build/\libLPCCore.a(DMA.o)
                0x00007490                DMA_IRQHandler
 *fill*         0x000074c6        0x2 
 .text._Z16SspDmaRxTransfer13DMA_Channel_tPKvm19DMA_TransferWidth_t
                0x000074c8       0x80 ./build/\libLPCCore.a(DMA.o)
                0x000074c8                SspDmaRxTransfer(DMA_Channel_t, void const*, unsigned long, DMA_TransferWidth_t)
 .text._Z16SspDmaTxTransfer13DMA_Channel_tPKvm19DMA_TransferWidth_t
                0x00007548       0x80 ./build/\libLPCCore.a(DMA.o)
                0x00007548                SspDmaTxTransfer(DMA_Channel_t, void const*, unsigned long, DMA_TransferWidth_t)
 .text._Z18SspDmaRxTransferNI13DMA_Channel_tPKvm19DMA_TransferWidth_t
                0x000075c8       0x80 ./build/\libLPCCore.a(DMA.o)
                0x000075c8                SspDmaRxTransferNI(DMA_Channel_t, void const*, unsigned long, DMA_TransferWidth_t)
 .text._Z18SspDmaTxTransferNI13DMA_Channel_tPKvm19DMA_TransferWidth_t
                0x00007648       0x80 ./build/\libLPCCore.a(DMA.o)
                0x00007648                SspDmaTxTransferNI(DMA_Channel_t, void const*, unsigned long, DMA_TransferWidth_t)
 .text.vListInitialise
                0x000076c8       0x16 ./build/\libLPCCore.a(list.o)
                0x000076c8                vListInitialise
 .text.vListInitialiseItem
                0x000076de        0x6 ./build/\libLPCCore.a(list.o)
                0x000076de                vListInitialiseItem
 .text.vListInsertEnd
                0x000076e4       0x18 ./build/\libLPCCore.a(list.o)
                0x000076e4                vListInsertEnd
 .text.vListInsert
                0x000076fc       0x2e ./build/\libLPCCore.a(list.o)
                0x000076fc                vListInsert
 .text.uxListRemove
                0x0000772a       0x20 ./build/\libLPCCore.a(list.o)
                0x0000772a                uxListRemove
 *fill*         0x0000774a        0x2 
 .text.Chip_GPDMA_Init
                0x0000774c       0x4c ./build/\libLPCCore.a(gpdma_17xx_40xx.o)
                0x0000774c                Chip_GPDMA_Init
 .text.Chip_GPDMA_Interrupt
                0x00007798       0x2c ./build/\libLPCCore.a(gpdma_17xx_40xx.o)
                0x00007798                Chip_GPDMA_Interrupt
 .text.Chip_GPDMA_GetFreeChannel
                0x000077c4       0x30 ./build/\libLPCCore.a(gpdma_17xx_40xx.o)
                0x000077c4                Chip_GPDMA_GetFreeChannel
 .text.SHA1Reset
                0x000077f4       0x38 ./build/./RepRapFirmware/src/Libraries/sha1/sha1.o
                0x000077f4                SHA1Reset
 .text.SHA1ProcessMessageBlock
                0x0000782c      0x16c ./build/./RepRapFirmware/src/Libraries/sha1/sha1.o
                0x0000782c                SHA1ProcessMessageBlock
 .text.SHA1Input
                0x00007998       0x52 ./build/./RepRapFirmware/src/Libraries/sha1/sha1.o
                0x00007998                SHA1Input
 .text.SHA1PadMessage
                0x000079ea       0x66 ./build/./RepRapFirmware/src/Libraries/sha1/sha1.o
                0x000079ea                SHA1PadMessage
 .text.SHA1Result
                0x00007a50       0x22 ./build/./RepRapFirmware/src/Libraries/sha1/sha1.o
                0x00007a50                SHA1Result
 .text.ld_dword
                0x00007a72       0x10 ./build/./RepRapFirmware/src/LPC/FatFS/ff.o
 .text.st_dword
                0x00007a82       0x10 ./build/./RepRapFirmware/src/LPC/FatFS/ff.o
 .text.clst2sect
                0x00007a92       0x16 ./build/./RepRapFirmware/src/LPC/FatFS/ff.o
 .text.sum_sfn  0x00007aa8       0x1e ./build/./RepRapFirmware/src/LPC/FatFS/ff.o
 .text.get_ldnumber
                0x00007ac6       0x3a ./build/./RepRapFirmware/src/LPC/FatFS/ff.o
 .text.put_utf  0x00007b00       0xb6 ./build/./RepRapFirmware/src/LPC/FatFS/ff.o
 .text.ld_clust.isra.3
                0x00007bb6       0x1c ./build/./RepRapFirmware/src/LPC/FatFS/ff.o
 .text.st_clust.isra.4
                0x00007bd2       0x18 ./build/./RepRapFirmware/src/LPC/FatFS/ff.o
 .text.sync_window
                0x00007bea       0x44 ./build/./RepRapFirmware/src/LPC/FatFS/ff.o
 .text.move_window
                0x00007c2e       0x36 ./build/./RepRapFirmware/src/LPC/FatFS/ff.o
 .text.check_fs
                0x00007c64       0x70 ./build/./RepRapFirmware/src/LPC/FatFS/ff.o
 .text.find_volume
                0x00007cd4      0x2c0 ./build/./RepRapFirmware/src/LPC/FatFS/ff.o
 .text.put_fat  0x00007f94       0xf8 ./build/./RepRapFirmware/src/LPC/FatFS/ff.o
 .text.get_fat.isra.10
                0x0000808c       0xb4 ./build/./RepRapFirmware/src/LPC/FatFS/ff.o
 .text.dir_sdi  0x00008140       0x82 ./build/./RepRapFirmware/src/LPC/FatFS/ff.o
 .text.create_chain
                0x000081c2       0xe8 ./build/./RepRapFirmware/src/LPC/FatFS/ff.o
 .text.remove_chain
                0x000082aa       0x6e ./build/./RepRapFirmware/src/LPC/FatFS/ff.o
 .text.unlock_fs
                0x00008318       0x16 ./build/./RepRapFirmware/src/LPC/FatFS/ff.o
 .text.validate
                0x0000832e       0x4c ./build/./RepRapFirmware/src/LPC/FatFS/ff.o
 .text.dir_clear
                0x0000837a       0x52 ./build/./RepRapFirmware/src/LPC/FatFS/ff.o
 .text.dir_next
                0x000083cc       0xaa ./build/./RepRapFirmware/src/LPC/FatFS/ff.o
 .text.dir_remove
                0x00008476       0x4e ./build/./RepRapFirmware/src/LPC/FatFS/ff.o
 .text.dir_find
                0x000084c4      0x148 ./build/./RepRapFirmware/src/LPC/FatFS/ff.o
 .text.dir_register
                0x0000860c      0x28c ./build/./RepRapFirmware/src/LPC/FatFS/ff.o
 .text.sync_fs  0x00008898       0x96 ./build/./RepRapFirmware/src/LPC/FatFS/ff.o
 .text.get_fileinfo
                0x0000892e      0x144 ./build/./RepRapFirmware/src/LPC/FatFS/ff.o
 *fill*         0x00008a72        0x2 
 .text.dir_read.constprop.15
                0x00008a74      0x120 ./build/./RepRapFirmware/src/LPC/FatFS/ff.o
 .text.follow_path
                0x00008b94      0x31c ./build/./RepRapFirmware/src/LPC/FatFS/ff.o
 .text.f_mount  0x00008eb0       0x70 ./build/./RepRapFirmware/src/LPC/FatFS/ff.o
                0x00008eb0                f_mount
 .text.f_open   0x00008f20      0x1a2 ./build/./RepRapFirmware/src/LPC/FatFS/ff.o
                0x00008f20                f_open
 .text.f_read   0x000090c2      0x148 ./build/./RepRapFirmware/src/LPC/FatFS/ff.o
                0x000090c2                f_read
 .text.f_write  0x0000920a      0x1a4 ./build/./RepRapFirmware/src/LPC/FatFS/ff.o
                0x0000920a                f_write
 .text.f_sync   0x000093ae       0x74 ./build/./RepRapFirmware/src/LPC/FatFS/ff.o
                0x000093ae                f_sync
 .text.f_close  0x00009422       0x28 ./build/./RepRapFirmware/src/LPC/FatFS/ff.o
                0x00009422                f_close
 .text.f_lseek  0x0000944a      0x11e ./build/./RepRapFirmware/src/LPC/FatFS/ff.o
                0x0000944a                f_lseek
 .text.f_opendir
                0x00009568       0x7e ./build/./RepRapFirmware/src/LPC/FatFS/ff.o
                0x00009568                f_opendir
 .text.f_closedir
                0x000095e6       0x1e ./build/./RepRapFirmware/src/LPC/FatFS/ff.o
                0x000095e6                f_closedir
 .text.f_readdir
                0x00009604       0x5a ./build/./RepRapFirmware/src/LPC/FatFS/ff.o
                0x00009604                f_readdir
 .text.f_stat   0x0000965e       0x4c ./build/./RepRapFirmware/src/LPC/FatFS/ff.o
                0x0000965e                f_stat
 .text.f_getfree
                0x000096aa       0xce ./build/./RepRapFirmware/src/LPC/FatFS/ff.o
                0x000096aa                f_getfree
 .text.f_truncate
                0x00009778       0x9c ./build/./RepRapFirmware/src/LPC/FatFS/ff.o
                0x00009778                f_truncate
 .text.f_unlink
                0x00009814       0xaa ./build/./RepRapFirmware/src/LPC/FatFS/ff.o
                0x00009814                f_unlink
 .text.f_mkdir  0x000098be      0x112 ./build/./RepRapFirmware/src/LPC/FatFS/ff.o
                0x000098be                f_mkdir
 .text.f_rename
                0x000099d0      0x13c ./build/./RepRapFirmware/src/LPC/FatFS/ff.o
                0x000099d0                f_rename
 .text.f_utime  0x00009b0c       0x62 ./build/./RepRapFirmware/src/LPC/FatFS/ff.o
                0x00009b0c                f_utime
 *fill*         0x00009b6e        0x2 
 .text.ff_uni2oem
                0x00009b70       0x40 ./build/./RepRapFirmware/src/LPC/FatFS/ffunicode.o
                0x00009b70                ff_uni2oem
 .text.ff_oem2uni
                0x00009bb0       0x28 ./build/./RepRapFirmware/src/LPC/FatFS/ffunicode.o
                0x00009bb0                ff_oem2uni
 .text.ff_wtoupper
                0x00009bd8       0x8c ./build/./RepRapFirmware/src/LPC/FatFS/ffunicode.o
                0x00009bd8                ff_wtoupper
 .text._ZN8FileData5CloseEv.isra.2
                0x00009c64       0x12 ./build/./RepRapFirmware/src/Logger.o
 .text._ZN6LoggerC2Ev
                0x00009c76       0x10 ./build/./RepRapFirmware/src/Logger.o
                0x00009c76                Logger::Logger()
                0x00009c76                Logger::Logger()
 .text._ZN6Logger5FlushEb
                0x00009c86       0x54 ./build/./RepRapFirmware/src/Logger.o
                0x00009c86                Logger::Flush(bool)
 *fill*         0x00009cda        0x2 
 .text._ZN6Logger13WriteDateTimeEx
                0x00009cdc       0x98 ./build/./RepRapFirmware/src/Logger.o
                0x00009cdc                Logger::WriteDateTime(long long)
 .text._ZN6Logger10LogMessageExP12OutputBuffer
                0x00009d74       0x4c ./build/./RepRapFirmware/src/Logger.o
                0x00009d74                Logger::LogMessage(long long, OutputBuffer*)
 .text._ZN6Logger18InternalLogMessageExPKc
                0x00009dc0       0x58 ./build/./RepRapFirmware/src/Logger.o
                0x00009dc0                Logger::InternalLogMessage(long long, char const*)
 .text._ZN6Logger4StopEx
                0x00009e18       0x40 ./build/./RepRapFirmware/src/Logger.o
                0x00009e18                Logger::Stop(long long)
 .text._ZN6Logger10LogMessageExPKc
                0x00009e58       0x24 ./build/./RepRapFirmware/src/Logger.o
                0x00009e58                Logger::LogMessage(long long, char const*)
 .text._ZN6Logger5StartExRK9StringRef
                0x00009e7c       0x80 ./build/./RepRapFirmware/src/Logger.o
                0x00009e7c                Logger::Start(long long, StringRef const&)
 .text._ZN9RTOSIface24LeaveTaskCriticalSectionEv
                0x00009efc        0xe ./build/./RepRapFirmware/src/OutputMemory.o
                0x00009efc                RTOSIface::LeaveTaskCriticalSection()
 .text._ZN12OutputBuffer6AppendEPS_
                0x00009f0a       0x26 ./build/./RepRapFirmware/src/OutputMemory.o
                0x00009f0a                OutputBuffer::Append(OutputBuffer*)
 .text._ZN12OutputBuffer18IncreaseReferencesEj
                0x00009f30       0x28 ./build/./RepRapFirmware/src/OutputMemory.o
                0x00009f30                OutputBuffer::IncreaseReferences(unsigned int)
 .text._ZNK12OutputBuffer6LengthEv
                0x00009f58       0x12 ./build/./RepRapFirmware/src/OutputMemory.o
                0x00009f58                OutputBuffer::Length() const
 .text._ZN12OutputBufferixEj
                0x00009f6a       0x14 ./build/./RepRapFirmware/src/OutputMemory.o
                0x00009f6a                OutputBuffer::operator[](unsigned int)
 .text._ZN12OutputBuffer4ReadEj
                0x00009f7e       0x10 ./build/./RepRapFirmware/src/OutputMemory.o
                0x00009f7e                OutputBuffer::Read(unsigned int)
 .text._ZNK12OutputBuffer11WriteToFileER8FileData
                0x00009f8e       0x40 ./build/./RepRapFirmware/src/OutputMemory.o
                0x00009f8e                OutputBuffer::WriteToFile(FileData&) const
 *fill*         0x00009fce        0x2 
 .text._ZN12OutputBuffer4InitEv
                0x00009fd0       0x24 ./build/./RepRapFirmware/src/OutputMemory.o
                0x00009fd0                OutputBuffer::Init()
 .text._ZN12OutputBuffer8AllocateERPS_
                0x00009ff4       0x84 ./build/./RepRapFirmware/src/OutputMemory.o
                0x00009ff4                OutputBuffer::Allocate(OutputBuffer*&)
 .text._ZN12OutputBuffer3catEPKcj
                0x0000a078       0x84 ./build/./RepRapFirmware/src/OutputMemory.o
                0x0000a078                OutputBuffer::cat(char const*, unsigned int)
 .text._ZN12OutputBuffer3catEPKc
                0x0000a0fc       0x1a ./build/./RepRapFirmware/src/OutputMemory.o
                0x0000a0fc                OutputBuffer::cat(char const*)
 .text._ZN12OutputBuffer4catfEPKcz
                0x0000a116       0x32 ./build/./RepRapFirmware/src/OutputMemory.o
                0x0000a116                OutputBuffer::catf(char const*, ...)
 .text._ZN12OutputBuffer12GetBytesLeftEPKS_
                0x0000a148       0x28 ./build/./RepRapFirmware/src/OutputMemory.o
                0x0000a148                OutputBuffer::GetBytesLeft(OutputBuffer const*)
 .text._ZN12OutputBuffer7ReleaseEPS_
                0x0000a170       0x44 ./build/./RepRapFirmware/src/OutputMemory.o
                0x0000a170                OutputBuffer::Release(OutputBuffer*)
 .text._ZN12OutputBuffer10ReleaseAllERVPS_
                0x0000a1b4       0x14 ./build/./RepRapFirmware/src/OutputMemory.o
                0x0000a1b4                OutputBuffer::ReleaseAll(OutputBuffer* volatile&)
 .text._ZN12OutputBuffer4copyEc
                0x0000a1c8       0x1a ./build/./RepRapFirmware/src/OutputMemory.o
                0x0000a1c8                OutputBuffer::copy(char)
 .text._ZN12OutputBuffer3catEc
                0x0000a1e2       0x52 ./build/./RepRapFirmware/src/OutputMemory.o
                0x0000a1e2                OutputBuffer::cat(char)
 .text._ZN12OutputBuffer10EncodeCharEc
                0x0000a234       0x48 ./build/./RepRapFirmware/src/OutputMemory.o
                0x0000a234                OutputBuffer::EncodeChar(char)
 .text._ZN12OutputBuffer12EncodeStringEPKcbb
                0x0000a27c       0x4a ./build/./RepRapFirmware/src/OutputMemory.o
                0x0000a27c                OutputBuffer::EncodeString(char const*, bool, bool)
 .text._ZN12OutputBuffer11EncodeReplyEPS_
                0x0000a2c6       0x50 ./build/./RepRapFirmware/src/OutputMemory.o
                0x0000a2c6                OutputBuffer::EncodeReply(OutputBuffer*)
 .text._ZN12OutputBuffer4lcatEPKcj
                0x0000a316       0x24 ./build/./RepRapFirmware/src/OutputMemory.o
                0x0000a316                OutputBuffer::lcat(char const*, unsigned int)
 .text._ZN12OutputBuffer4lcatEPKc
                0x0000a33a       0x1a ./build/./RepRapFirmware/src/OutputMemory.o
                0x0000a33a                OutputBuffer::lcat(char const*)
 .text._ZN12OutputBuffer5lcatfEPKcz
                0x0000a354       0x32 ./build/./RepRapFirmware/src/OutputMemory.o
                0x0000a354                OutputBuffer::lcatf(char const*, ...)
 .text._ZN12OutputBuffer4copyEPKcj
                0x0000a386       0x26 ./build/./RepRapFirmware/src/OutputMemory.o
                0x0000a386                OutputBuffer::copy(char const*, unsigned int)
 .text._ZN12OutputBuffer4copyEPKc
                0x0000a3ac       0x1a ./build/./RepRapFirmware/src/OutputMemory.o
                0x0000a3ac                OutputBuffer::copy(char const*)
 .text._ZN12OutputBuffer6printfEPKcz
                0x0000a3c6       0x2c ./build/./RepRapFirmware/src/OutputMemory.o
                0x0000a3c6                OutputBuffer::printf(char const*, ...)
 *fill*         0x0000a3f2        0x2 
 .text._ZN12OutputBuffer11DiagnosticsE11MessageType
                0x0000a3f4       0x34 ./build/./RepRapFirmware/src/OutputMemory.o
                0x0000a3f4                OutputBuffer::Diagnostics(MessageType)
 .text._ZNV11OutputStack4PushEP12OutputBuffer11MessageType
                0x0000a428       0x60 ./build/./RepRapFirmware/src/OutputMemory.o
                0x0000a428                OutputStack::Push(OutputBuffer*, MessageType) volatile
 .text._ZNV11OutputStack3PopEv
                0x0000a488       0x36 ./build/./RepRapFirmware/src/OutputMemory.o
                0x0000a488                OutputStack::Pop() volatile
 .text._ZNVK11OutputStack12GetFirstItemEv
                0x0000a4be        0xc ./build/./RepRapFirmware/src/OutputMemory.o
                0x0000a4be                OutputStack::GetFirstItem() const volatile
 .text._ZNV11OutputStack16ReleaseFirstItemEv
                0x0000a4ca       0x22 ./build/./RepRapFirmware/src/OutputMemory.o
                0x0000a4ca                OutputStack::ReleaseFirstItem() volatile
 .text._ZNV11OutputStack12ApplyTimeoutEm
                0x0000a4ec       0x3a ./build/./RepRapFirmware/src/OutputMemory.o
                0x0000a4ec                OutputStack::ApplyTimeout(unsigned long) volatile
 .text._ZNVK11OutputStack11GetLastItemEv
                0x0000a526       0x14 ./build/./RepRapFirmware/src/OutputMemory.o
                0x0000a526                OutputStack::GetLastItem() const volatile
 .text._ZNVK11OutputStack10DataLengthEv
                0x0000a53a       0x2e ./build/./RepRapFirmware/src/OutputMemory.o
                0x0000a53a                OutputStack::DataLength() const volatile
 .text._ZNV11OutputStack6AppendERVS_
                0x0000a568       0x58 ./build/./RepRapFirmware/src/OutputMemory.o
                0x0000a568                OutputStack::Append(OutputStack volatile&) volatile
 .text._ZNV11OutputStack18IncreaseReferencesEj
                0x0000a5c0       0x2c ./build/./RepRapFirmware/src/OutputMemory.o
                0x0000a5c0                OutputStack::IncreaseReferences(unsigned int) volatile
 .text._ZNV11OutputStack10ReleaseAllEv
                0x0000a5ec       0x1e ./build/./RepRapFirmware/src/OutputMemory.o
                0x0000a5ec                OutputStack::ReleaseAll() volatile
 .text._ZN8PlatformUlPK11ObjectModelRK24ObjectExplorationContextE1_4_FUNES2_S5_
                0x0000a60a        0x4 ./build/./RepRapFirmware/src/Platform.o
 *fill*         0x0000a60e        0x2 
 .text._ZN8PlatformUlPK11ObjectModelR24ObjectExplorationContextE3_4_FUNES2_S4_
                0x0000a610       0x10 ./build/./RepRapFirmware/src/Platform.o
 .text._ZN8PlatformUlPK11ObjectModelR24ObjectExplorationContextE4_4_FUNES2_S4_
                0x0000a620       0x10 ./build/./RepRapFirmware/src/Platform.o
 .text._ZN8PlatformUlPK11ObjectModelR24ObjectExplorationContextE5_4_FUNES2_S4_
                0x0000a630       0x10 ./build/./RepRapFirmware/src/Platform.o
 .text._ZN8PlatformUlPK11ObjectModelR24ObjectExplorationContextE6_4_FUNES2_S4_
                0x0000a640       0x10 ./build/./RepRapFirmware/src/Platform.o
 .text._ZN8PlatformUlPK11ObjectModelR24ObjectExplorationContextE7_4_FUNES2_S4_
                0x0000a650       0x10 ./build/./RepRapFirmware/src/Platform.o
 .text._ZN8PlatformUlPK11ObjectModelR24ObjectExplorationContextE8_4_FUNES2_S4_
                0x0000a660        0xa ./build/./RepRapFirmware/src/Platform.o
 .text._ZN8PlatformUlPK11ObjectModelR24ObjectExplorationContextE9_4_FUNES2_S4_
                0x0000a66a        0xa ./build/./RepRapFirmware/src/Platform.o
 .text._ZN8PlatformUlPK11ObjectModelR24ObjectExplorationContextE10_4_FUNES2_S4_
                0x0000a674       0x1a ./build/./RepRapFirmware/src/Platform.o
 *fill*         0x0000a68e        0x2 
 .text._ZN8PlatformUlPK11ObjectModelR24ObjectExplorationContextE11_4_FUNES2_S4_
                0x0000a690       0x10 ./build/./RepRapFirmware/src/Platform.o
 .text._ZN8PlatformUlPK11ObjectModelR24ObjectExplorationContextE12_4_FUNES2_S4_
                0x0000a6a0       0x10 ./build/./RepRapFirmware/src/Platform.o
 .text._ZN8PlatformUlPK11ObjectModelR24ObjectExplorationContextE13_4_FUNES2_S4_
                0x0000a6b0        0xa ./build/./RepRapFirmware/src/Platform.o
 .text._ZN8PlatformUlPK11ObjectModelR24ObjectExplorationContextE14_4_FUNES2_S4_
                0x0000a6ba       0x1a ./build/./RepRapFirmware/src/Platform.o
 .text._ZN8PlatformUlPK11ObjectModelR24ObjectExplorationContextE18_4_FUNES2_S4_
                0x0000a6d4       0x10 ./build/./RepRapFirmware/src/Platform.o
 .text._ZN8PlatformUlPK11ObjectModelR24ObjectExplorationContextE25_4_FUNES2_S4_
                0x0000a6e4       0x1a ./build/./RepRapFirmware/src/Platform.o
 *fill*         0x0000a6fe        0x2 
 .text._ZN8PlatformUlPK11ObjectModelR24ObjectExplorationContextE32_4_FUNES2_S4_
                0x0000a700       0x10 ./build/./RepRapFirmware/src/Platform.o
 .text._ZN8PlatformUlPK11ObjectModelR24ObjectExplorationContextE39_4_FUNES2_S4_
                0x0000a710       0x1a ./build/./RepRapFirmware/src/Platform.o
 .text._ZN8PlatformUlPK11ObjectModelR24ObjectExplorationContextE40_4_FUNES2_S4_
                0x0000a72a       0x1a ./build/./RepRapFirmware/src/Platform.o
 .text._ZNK8Platform29GetObjectModelClassDescriptorEv
                0x0000a744        0x8 ./build/./RepRapFirmware/src/Platform.o
                0x0000a744                Platform::GetObjectModelClassDescriptor() const
 .text._ZNSt14_Function_base13_Base_managerIZN8Platform15WriteAxisLimitsEP9FileStore6BitmapItEPKfiEUljjE_E10_M_managerERSt9_Any_dataRKSA_St18_Manager_operation
                0x0000a74c       0x1a ./build/./RepRapFirmware/src/Platform.o
 .text._ZNSt14_Function_base13_Base_managerIZN8Platform12SetDirectionEjbEUlhE_E10_M_managerERSt9_Any_dataRKS4_St18_Manager_operation
                0x0000a766       0x1a ./build/./RepRapFirmware/src/Platform.o
 .text._ZNSt14_Function_base13_Base_managerIZN8Platform18EnableLocalDriversEjEUlhE_E10_M_managerERSt9_Any_dataRKS4_St18_Manager_operation
                0x0000a780       0x1a ./build/./RepRapFirmware/src/Platform.o
 .text._ZNSt14_Function_base13_Base_managerIZN8Platform14DisableDriversEjEUlhE_E10_M_managerERSt9_Any_dataRKS4_St18_Manager_operation
                0x0000a79a       0x16 ./build/./RepRapFirmware/src/Platform.o
 .text._ZNSt14_Function_base13_Base_managerIZN8Platform14SetDriversIdleEvEUlhE_E10_M_managerERSt9_Any_dataRKS4_St18_Manager_operation
                0x0000a7b0       0x1a ./build/./RepRapFirmware/src/Platform.o
 .text._ZNSt14_Function_base13_Base_managerIZN8Platform20SetIdleCurrentFactorEfEUlhE_E10_M_managerERSt9_Any_dataRKS4_St18_Manager_operation
                0x0000a7ca       0x1a ./build/./RepRapFirmware/src/Platform.o
 .text._ZNSt17_Function_handlerIFvjEZN8Platform18SetPressureAdvanceEfR11GCodeBufferRK9StringRefEUljE_E9_M_invokeERKSt9_Any_dataOj
                0x0000a7e4       0x10 ./build/./RepRapFirmware/src/Platform.o
 .text._ZNSt14_Function_base13_Base_managerIZN8Platform18SetPressureAdvanceEfR11GCodeBufferRK9StringRefEUljE_E10_M_managerERSt9_Any_dataRKS9_St18_Manager_operation
                0x0000a7f4       0x1a ./build/./RepRapFirmware/src/Platform.o
 *fill*         0x0000a80e        0x2 
 .text._ZN8PlatformD2Ev
                0x0000a810       0x58 ./build/./RepRapFirmware/src/Platform.o
                0x0000a810                Platform::~Platform()
                0x0000a810                Platform::~Platform()
 .text._ZN8PlatformUlPK11ObjectModelRK24ObjectExplorationContextE_4_FUNES2_S5_
                0x0000a868       0x16 ./build/./RepRapFirmware/src/Platform.o
 .text._ZN8PlatformUlPK11ObjectModelR24ObjectExplorationContextE48_4_FUNES2_S4_
                0x0000a87e       0x20 ./build/./RepRapFirmware/src/Platform.o
 .text._ZN8PlatformUlPK11ObjectModelR24ObjectExplorationContextE47_4_FUNES2_S4_
                0x0000a89e       0x20 ./build/./RepRapFirmware/src/Platform.o
 .text._ZN8PlatformUlPK11ObjectModelR24ObjectExplorationContextE46_4_FUNES2_S4_
                0x0000a8be       0x20 ./build/./RepRapFirmware/src/Platform.o
 .text._ZN8PlatformUlPK11ObjectModelR24ObjectExplorationContextE29_4_FUNES2_S4_
                0x0000a8de       0x20 ./build/./RepRapFirmware/src/Platform.o
 .text._ZN8PlatformUlPK11ObjectModelR24ObjectExplorationContextE15_4_FUNES2_S4_
                0x0000a8fe       0x1e ./build/./RepRapFirmware/src/Platform.o
 .text._ZN8PlatformUlPK11ObjectModelR24ObjectExplorationContextE23_4_FUNES2_S4_
                0x0000a91c       0x1e ./build/./RepRapFirmware/src/Platform.o
 .text._ZN8PlatformUlPK11ObjectModelR24ObjectExplorationContextE26_4_FUNES2_S4_
                0x0000a93a       0x20 ./build/./RepRapFirmware/src/Platform.o
 .text._ZN8PlatformD0Ev
                0x0000a95a       0x16 ./build/./RepRapFirmware/src/Platform.o
                0x0000a95a                Platform::~Platform()
 .text.pinMode  0x0000a970        0x6 ./build/./RepRapFirmware/src/Platform.o
 *fill*         0x0000a976        0x2 
 .text._ZNSt17_Function_handlerIFvhEZN8Platform16SetMicrosteppingEjibRK9StringRefEUlhE_E9_M_invokeERKSt9_Any_dataOh
                0x0000a978       0x44 ./build/./RepRapFirmware/src/Platform.o
 .text._ZN8StepPinsL16CalcDriverBitmapEj
                0x0000a9bc       0x2c ./build/./RepRapFirmware/src/Platform.o
 .text._ZNSt14_Function_base13_Base_managerIZN8Platform15SetMotorCurrentEjfiRK9StringRefEUlhE_E10_M_managerERSt9_Any_dataRKS7_St18_Manager_operation
                0x0000a9e8       0x36 ./build/./RepRapFirmware/src/Platform.o
 .text._ZNSt14_Function_base13_Base_managerIZN8Platform16SetMicrosteppingEjibRK9StringRefEUlhE_E10_M_managerERSt9_Any_dataRKS7_St18_Manager_operation
                0x0000aa1e       0x3e ./build/./RepRapFirmware/src/Platform.o
 .text._ZN8PlatformUlPK11ObjectModelR24ObjectExplorationContextE51_4_FUNES2_S4_
                0x0000aa5c       0x22 ./build/./RepRapFirmware/src/Platform.o
 .text._ZN8PlatformUlPK11ObjectModelR24ObjectExplorationContextE49_4_FUNES2_S4_
                0x0000aa7e       0x20 ./build/./RepRapFirmware/src/Platform.o
 .text._ZN8PlatformUlPK11ObjectModelR24ObjectExplorationContextE45_4_FUNES2_S4_
                0x0000aa9e       0x22 ./build/./RepRapFirmware/src/Platform.o
 .text._ZN8PlatformUlPK11ObjectModelR24ObjectExplorationContextE52_4_FUNES2_S4_
                0x0000aac0       0x24 ./build/./RepRapFirmware/src/Platform.o
 .text._ZN8PlatformUlPK11ObjectModelR24ObjectExplorationContextE50_4_FUNES2_S4_
                0x0000aae4       0x22 ./build/./RepRapFirmware/src/Platform.o
 .text._ZN8PlatformUlPK11ObjectModelR24ObjectExplorationContextE35_4_FUNES2_S4_
                0x0000ab06       0x1c ./build/./RepRapFirmware/src/Platform.o
 .text._ZN8PlatformUlPK11ObjectModelR24ObjectExplorationContextE0_4_FUNES2_S4_
                0x0000ab22       0x2e ./build/./RepRapFirmware/src/Platform.o
 .text._ZN8PlatformUlPK11ObjectModelR24ObjectExplorationContextE33_4_FUNES2_S4_
                0x0000ab50       0x20 ./build/./RepRapFirmware/src/Platform.o
 .text._ZN8PlatformUlPK11ObjectModelR24ObjectExplorationContextE44_4_FUNES2_S4_
                0x0000ab70       0x2c ./build/./RepRapFirmware/src/Platform.o
 .text._ZN8PlatformUlPK11ObjectModelR24ObjectExplorationContextE28_4_FUNES2_S4_
                0x0000ab9c       0x2c ./build/./RepRapFirmware/src/Platform.o
 .text._ZN8PlatformUlPK11ObjectModelR24ObjectExplorationContextE38_4_FUNES2_S4_
                0x0000abc8       0x2c ./build/./RepRapFirmware/src/Platform.o
 .text._ZN8PlatformUlPK11ObjectModelR24ObjectExplorationContextE20_4_FUNES2_S4_
                0x0000abf4       0x28 ./build/./RepRapFirmware/src/Platform.o
 .text._ZN8PlatformUlPK11ObjectModelR24ObjectExplorationContextE42_4_FUNES2_S4_
                0x0000ac1c       0x28 ./build/./RepRapFirmware/src/Platform.o
 .text._ZN8PlatformUlPK11ObjectModelR24ObjectExplorationContextE43_4_FUNES2_S4_
                0x0000ac44       0x28 ./build/./RepRapFirmware/src/Platform.o
 .text._ZN8PlatformUlPK11ObjectModelR24ObjectExplorationContextE36_4_FUNES2_S4_
                0x0000ac6c       0x28 ./build/./RepRapFirmware/src/Platform.o
 .text._ZN8PlatformUlPK11ObjectModelR24ObjectExplorationContextE30_4_FUNES2_S4_
                0x0000ac94       0x28 ./build/./RepRapFirmware/src/Platform.o
 .text._ZN8PlatformUlPK11ObjectModelR24ObjectExplorationContextE41_4_FUNES2_S4_
                0x0000acbc       0x2c ./build/./RepRapFirmware/src/Platform.o
 .text._ZN8PlatformUlPK11ObjectModelR24ObjectExplorationContextE22_4_FUNES2_S4_
                0x0000ace8       0x2c ./build/./RepRapFirmware/src/Platform.o
 .text._ZN8PlatformUlPK11ObjectModelR24ObjectExplorationContextE37_4_FUNES2_S4_
                0x0000ad14       0x24 ./build/./RepRapFirmware/src/Platform.o
 .text._ZN8PlatformUlPK11ObjectModelR24ObjectExplorationContextE31_4_FUNES2_S4_
                0x0000ad38       0x28 ./build/./RepRapFirmware/src/Platform.o
 .text._ZN8PlatformUlPK11ObjectModelR24ObjectExplorationContextE21_4_FUNES2_S4_
                0x0000ad60       0x24 ./build/./RepRapFirmware/src/Platform.o
 .text._ZN8PlatformUlPK11ObjectModelR24ObjectExplorationContextE2_4_FUNES2_S4_
                0x0000ad84       0x3c ./build/./RepRapFirmware/src/Platform.o
 .text._ZN8PlatformUlPK11ObjectModelR24ObjectExplorationContextE16_4_FUNES2_S4_
                0x0000adc0       0x28 ./build/./RepRapFirmware/src/Platform.o
 .text._ZN8PlatformUlPK11ObjectModelR24ObjectExplorationContextE34_4_FUNES2_S4_
                0x0000ade8       0x22 ./build/./RepRapFirmware/src/Platform.o
 .text._ZN8PlatformUlPK11ObjectModelR24ObjectExplorationContextE17_4_FUNES2_S4_
                0x0000ae0a       0x20 ./build/./RepRapFirmware/src/Platform.o
 *fill*         0x0000ae2a        0x2 
 .text._ZN8Platform11AtxPowerOffEb.part.112
                0x0000ae2c       0x40 ./build/./RepRapFirmware/src/Platform.o
 .text._ZN8PlatformUlPK11ObjectModelR24ObjectExplorationContextE27_4_FUNES2_S4_
                0x0000ae6c       0x22 ./build/./RepRapFirmware/src/Platform.o
 .text._ZN8PlatformUlPK11ObjectModelR24ObjectExplorationContextE24_4_FUNES2_S4_
                0x0000ae8e       0x22 ./build/./RepRapFirmware/src/Platform.o
 .text._ZN8PlatformUlPK11ObjectModelR24ObjectExplorationContextE19_4_FUNES2_S4_
                0x0000aeb0       0x28 ./build/./RepRapFirmware/src/Platform.o
 .text._ZNSt17_Function_handlerIFvhEZN8Platform12SetDirectionEjbEUlhE_E9_M_invokeERKSt9_Any_dataOh
                0x0000aed8       0x24 ./build/./RepRapFirmware/src/Platform.o
 .text._ZNSt14_Function_baseD2Ev
                0x0000aefc       0x12 ./build/./RepRapFirmware/src/Platform.o
                0x0000aefc                std::_Function_base::~_Function_base()
                0x0000aefc                std::_Function_base::~_Function_base()
 .text.UrgentInit
                0x0000af0e        0x2 ./build/./RepRapFirmware/src/Platform.o
                0x0000af0e                UrgentInit
 .text._ZNK17AxisDriversConfig16GetDriversBitmapEv
                0x0000af10       0x24 ./build/./RepRapFirmware/src/Platform.o
                0x0000af10                AxisDriversConfig::GetDriversBitmap() const
 .text._ZNK8Platform22GetNumGpInputsToReportEv
                0x0000af34       0x1e ./build/./RepRapFirmware/src/Platform.o
                0x0000af34                Platform::GetNumGpInputsToReport() const
 .text._ZNK8Platform23GetNumGpOutputsToReportEv
                0x0000af52       0x1e ./build/./RepRapFirmware/src/Platform.o
                0x0000af52                Platform::GetNumGpOutputsToReport() const
 .text._ZN8Platform19SendPanelDueMessageEjPKc
                0x0000af70       0x10 ./build/./RepRapFirmware/src/Platform.o
                0x0000af70                Platform::SendPanelDueMessage(unsigned int, char const*)
 .text._ZN8Platform12SetIPAddressE9IPAddress
                0x0000af80       0x14 ./build/./RepRapFirmware/src/Platform.o
                0x0000af80                Platform::SetIPAddress(IPAddress)
 .text._ZN8Platform10SetGateWayE9IPAddress
                0x0000af94       0x14 ./build/./RepRapFirmware/src/Platform.o
                0x0000af94                Platform::SetGateWay(IPAddress)
 .text._ZN8Platform10SetNetMaskE9IPAddress
                0x0000afa8       0x14 ./build/./RepRapFirmware/src/Platform.o
                0x0000afa8                Platform::SetNetMask(IPAddress)
 .text._ZN8Platform20InitialiseInterruptsEv
                0x0000afbc       0x54 ./build/./RepRapFirmware/src/Platform.o
                0x0000afbc                Platform::InitialiseInterrupts()
 .text._ZNK8Platform23GetAveragingFilterIndexERK6IoPort
                0x0000b010       0x2c ./build/./RepRapFirmware/src/Platform.o
                0x0000b010                Platform::GetAveragingFilterIndex(IoPort const&) const
 .text._ZN8Platform23UpdateConfiguredHeatersEv
                0x0000b03c       0x64 ./build/./RepRapFirmware/src/Platform.o
                0x0000b03c                Platform::UpdateConfiguredHeaters()
 .text._ZN8Platform21DisableOneLocalDriverEj
                0x0000b0a0       0x24 ./build/./RepRapFirmware/src/Platform.o
                0x0000b0a0                Platform::DisableOneLocalDriver(unsigned int)
 .text._ZNSt17_Function_handlerIFvhEZN8Platform14DisableDriversEjEUlhE_E9_M_invokeERKSt9_Any_dataOh
                0x0000b0c4        0x8 ./build/./RepRapFirmware/src/Platform.o
 .text._ZN8Platform18UpdateMotorCurrentEjf
                0x0000b0cc       0x6c ./build/./RepRapFirmware/src/Platform.o
                0x0000b0cc                Platform::UpdateMotorCurrent(unsigned int, float)
 .text._ZN8Platform20EnableOneLocalDriverEjf
                0x0000b138       0x2c ./build/./RepRapFirmware/src/Platform.o
                0x0000b138                Platform::EnableOneLocalDriver(unsigned int, float)
 .text._ZNSt17_Function_handlerIFvhEZN8Platform18EnableLocalDriversEjEUlhE_E9_M_invokeERKSt9_Any_dataOh
                0x0000b164        0xa ./build/./RepRapFirmware/src/Platform.o
 .text._ZN8Platform23EmergencyDisableDriversEv
                0x0000b16e       0x2c ./build/./RepRapFirmware/src/Platform.o
                0x0000b16e                Platform::EmergencyDisableDrivers()
 .text._ZNSt17_Function_handlerIFvhEZN8Platform14SetDriversIdleEvEUlhE_E9_M_invokeERKSt9_Any_dataOh
                0x0000b19a        0xa ./build/./RepRapFirmware/src/Platform.o
 .text._ZNSt17_Function_handlerIFvhEZN8Platform15SetMotorCurrentEjfiRK9StringRefEUlhE_E9_M_invokeERKSt9_Any_dataOh
                0x0000b1a4       0x30 ./build/./RepRapFirmware/src/Platform.o
 .text._ZNSt17_Function_handlerIFvhEZN8Platform20SetIdleCurrentFactorEfEUlhE_E9_M_invokeERKSt9_Any_dataOh
                0x0000b1d4        0xa ./build/./RepRapFirmware/src/Platform.o
 *fill*         0x0000b1de        0x2 
 .text._ZNK8Platform15GetMotorCurrentEji
                0x0000b1e0       0x30 ./build/./RepRapFirmware/src/Platform.o
                0x0000b1e0                Platform::GetMotorCurrent(unsigned int, int) const
 .text._ZN8Platform20SetDriveStepsPerUnitEjfm
                0x0000b210       0x6c ./build/./RepRapFirmware/src/Platform.o
                0x0000b210                Platform::SetDriveStepsPerUnit(unsigned int, float, unsigned long)
 .text._ZNK8Platform16GetMicrosteppingEjRb
                0x0000b27c       0x16 ./build/./RepRapFirmware/src/Platform.o
                0x0000b27c                Platform::GetMicrostepping(unsigned int, bool&) const
 .text._ZN8Platform14SetEnableValueEja
                0x0000b292       0x18 ./build/./RepRapFirmware/src/Platform.o
                0x0000b292                Platform::SetEnableValue(unsigned int, signed char)
 .text._ZN8Platform20SetAxisDriversConfigEjjPK8DriverId
                0x0000b2aa       0x42 ./build/./RepRapFirmware/src/Platform.o
                0x0000b2aa                Platform::SetAxisDriversConfig(unsigned int, unsigned int, DriverId const*)
 .text._ZN8Platform17SetExtruderDriverEj8DriverId
                0x0000b2ec       0x1e ./build/./RepRapFirmware/src/Platform.o
                0x0000b2ec                Platform::SetExtruderDriver(unsigned int, DriverId)
 *fill*         0x0000b30a        0x2 
 .text._ZN8Platform19SetDriverStepTimingEjPKf
                0x0000b30c       0xa0 ./build/./RepRapFirmware/src/Platform.o
                0x0000b30c                Platform::SetDriverStepTiming(unsigned int, float const*)
 .text._ZNK8Platform19GetDriverStepTimingEjPf
                0x0000b3ac       0x5c ./build/./RepRapFirmware/src/Platform.o
                0x0000b3ac                Platform::GetDriverStepTiming(unsigned int, float*) const
 .text._ZN8Platform14AppendUsbReplyEP12OutputBuffer
                0x0000b408       0x40 ./build/./RepRapFirmware/src/Platform.o
                0x0000b408                Platform::AppendUsbReply(OutputBuffer*)
 .text._ZNK8Platform12IsAuxEnabledEj
                0x0000b448        0xc ./build/./RepRapFirmware/src/Platform.o
                0x0000b448                Platform::IsAuxEnabled(unsigned int) const
 .text._ZN8Platform9EnableAuxEj
                0x0000b454       0x16 ./build/./RepRapFirmware/src/Platform.o
                0x0000b454                Platform::EnableAux(unsigned int)
 .text._ZNK8Platform8IsAuxRawEj
                0x0000b46a        0xc ./build/./RepRapFirmware/src/Platform.o
                0x0000b46a                Platform::IsAuxRaw(unsigned int) const
 .text._ZN8Platform9SetAuxRawEjb
                0x0000b476        0x8 ./build/./RepRapFirmware/src/Platform.o
                0x0000b476                Platform::SetAuxRaw(unsigned int, bool)
 .text._ZN8Platform14AppendAuxReplyEjP12OutputBufferb
                0x0000b47e       0x20 ./build/./RepRapFirmware/src/Platform.o
                0x0000b47e                Platform::AppendAuxReply(unsigned int, OutputBuffer*, bool)
 *fill*         0x0000b49e        0x2 
 .text._ZN8Platform7MessageE11MessageTypeP12OutputBuffer
                0x0000b4a0       0xd0 ./build/./RepRapFirmware/src/Platform.o
                0x0000b4a0                Platform::Message(MessageType, OutputBuffer*)
 .text._ZNK8Platform14GetLogFileNameEv
                0x0000b570        0xe ./build/./RepRapFirmware/src/Platform.o
                0x0000b570                Platform::GetLogFileName() const
 .text._ZN8Platform11StopLoggingEv
                0x0000b57e       0x14 ./build/./RepRapFirmware/src/Platform.o
                0x0000b57e                Platform::StopLogging()
 *fill*         0x0000b592        0x2 
 .text._ZN8Platform16ConfigureLoggingER11GCodeBufferRK9StringRef
                0x0000b594       0xa8 ./build/./RepRapFirmware/src/Platform.o
                0x0000b594                Platform::ConfigureLogging(GCodeBuffer&, StringRef const&)
 .text._ZNK8Platform8AtxPowerEv
                0x0000b63c       0x20 ./build/./RepRapFirmware/src/Platform.o
                0x0000b63c                Platform::AtxPower() const
 .text._ZN8Platform10AtxPowerOnEv
                0x0000b65c       0x20 ./build/./RepRapFirmware/src/Platform.o
                0x0000b65c                Platform::AtxPowerOn()
 .text._ZN8Platform11AtxPowerOffEb
                0x0000b67c        0xc ./build/./RepRapFirmware/src/Platform.o
                0x0000b67c                Platform::AtxPowerOff(bool)
 .text._ZN8Platform18SetPressureAdvanceEfR11GCodeBufferRK9StringRef
                0x0000b688       0xb0 ./build/./RepRapFirmware/src/Platform.o
                0x0000b688                Platform::SetPressureAdvance(float, GCodeBuffer&, StringRef const&)
 .text._ZNK8Platform24GetExtrusionCoefficientsEjRfS0_S0_
                0x0000b738       0x24 ./build/./RepRapFirmware/src/Platform.o
                0x0000b738                Platform::GetExtrusionCoefficients(unsigned int, float&, float&, float&) const
 .text._ZN8Platform21SetNonlinearExtrusionEjfff
                0x0000b75c       0x2a ./build/./RepRapFirmware/src/Platform.o
                0x0000b75c                Platform::SetNonlinearExtrusion(unsigned int, float, float, float)
 .text._ZN8Platform11SetBaudRateEjm
                0x0000b786        0xe ./build/./RepRapFirmware/src/Platform.o
                0x0000b786                Platform::SetBaudRate(unsigned int, unsigned long)
 .text._ZNK8Platform11GetBaudRateEj
                0x0000b794       0x10 ./build/./RepRapFirmware/src/Platform.o
                0x0000b794                Platform::GetBaudRate(unsigned int) const
 .text._ZN8Platform18SetCommsPropertiesEjm
                0x0000b7a4        0xc ./build/./RepRapFirmware/src/Platform.o
                0x0000b7a4                Platform::SetCommsProperties(unsigned int, unsigned long)
 .text._ZNK8Platform18GetCommsPropertiesEj
                0x0000b7b0        0xe ./build/./RepRapFirmware/src/Platform.o
                0x0000b7b0                Platform::GetCommsProperties(unsigned int) const
 *fill*         0x0000b7be        0x2 
 .text._ZN8Platform12ResetChannelEj
                0x0000b7c0       0x3c ./build/./RepRapFirmware/src/Platform.o
                0x0000b7c0                Platform::ResetChannel(unsigned int)
 .text._ZNK8Platform20GetElectronicsStringEv
                0x0000b7fc       0x18 ./build/./RepRapFirmware/src/Platform.o
                0x0000b7fc                Platform::GetElectronicsString() const
 .text._ZNK8Platform14GetBoardStringEv
                0x0000b814       0x18 ./build/./RepRapFirmware/src/Platform.o
                0x0000b814                Platform::GetBoardString() const
 .text._ZNK8Platform8OpenFileEPKcS1_8OpenModem
                0x0000b82c       0x2a ./build/./RepRapFirmware/src/Platform.o
                0x0000b82c                Platform::OpenFile(char const*, char const*, OpenMode, unsigned long) const
 .text._ZNK8Platform6DeleteEPKcS1_
                0x0000b856       0x26 ./build/./RepRapFirmware/src/Platform.o
                0x0000b856                Platform::Delete(char const*, char const*) const
 .text._ZN8Platform9SetSysDirEPKcRK9StringRef
                0x0000b87c       0xc0 ./build/./RepRapFirmware/src/Platform.o
                0x0000b87c                Platform::SetSysDir(char const*, StringRef const&)
 .text._ZNK8Platform15MakeSysFileNameERK9StringRefPKc
                0x0000b93c       0x40 ./build/./RepRapFirmware/src/Platform.o
                0x0000b93c                Platform::MakeSysFileName(StringRef const&, char const*) const
 .text._ZNK8Platform13SysFileExistsEPKc
                0x0000b97c       0x26 ./build/./RepRapFirmware/src/Platform.o
                0x0000b97c                Platform::SysFileExists(char const*) const
 .text._ZNK8Platform11OpenSysFileEPKc8OpenMode
                0x0000b9a2       0x2c ./build/./RepRapFirmware/src/Platform.o
                0x0000b9a2                Platform::OpenSysFile(char const*, OpenMode) const
 .text._ZNK8Platform13DeleteSysFileEPKc
                0x0000b9ce       0x28 ./build/./RepRapFirmware/src/Platform.o
                0x0000b9ce                Platform::DeleteSysFile(char const*) const
 *fill*         0x0000b9f6        0x2 
 .text._ZNK8Platform12AppendSysDirERK9StringRef
                0x0000b9f8       0x38 ./build/./RepRapFirmware/src/Platform.o
                0x0000b9f8                Platform::AppendSysDir(StringRef const&) const
 .text._ZNK8Platform12EncodeSysDirEP12OutputBuffer
                0x0000ba30       0x3c ./build/./RepRapFirmware/src/Platform.o
                0x0000ba30                Platform::EncodeSysDir(OutputBuffer*) const
 .text._ZN8Platform11SetLaserPwmEt
                0x0000ba6c       0x28 ./build/./RepRapFirmware/src/Platform.o
                0x0000ba6c                Platform::SetLaserPwm(unsigned short)
 .text._ZNK8Platform11GetLaserPwmEv
                0x0000ba94        0x6 ./build/./RepRapFirmware/src/Platform.o
                0x0000ba94                Platform::GetLaserPwm() const
 .text._ZN8Platform14AssignLaserPinER11GCodeBufferRK9StringRef
                0x0000ba9a       0x24 ./build/./RepRapFirmware/src/Platform.o
                0x0000ba9a                Platform::AssignLaserPin(GCodeBuffer&, StringRef const&)
 .text._ZN8Platform20SetLaserPwmFrequencyEt
                0x0000babe        0x6 ./build/./RepRapFirmware/src/Platform.o
                0x0000babe                Platform::SetLaserPwmFrequency(unsigned short)
 .text._ZN8Platform14SetAxisMaximumEjfb
                0x0000bac4       0x2c ./build/./RepRapFirmware/src/Platform.o
                0x0000bac4                Platform::SetAxisMaximum(unsigned int, float, bool)
 .text._ZN8Platform14SetAxisMinimumEjfb
                0x0000baf0       0x2c ./build/./RepRapFirmware/src/Platform.o
                0x0000baf0                Platform::SetAxisMinimum(unsigned int, float, bool)
 .text._ZN8Platform13ConfigurePortER11GCodeBufferRK9StringRef
                0x0000bb1c       0xe8 ./build/./RepRapFirmware/src/Platform.o
                0x0000bb1c                Platform::ConfigurePort(GCodeBuffer&, StringRef const&)
 .text._ZN8Platform18GetSetAncillaryPwmER11GCodeBufferRK9StringRef
                0x0000bc04       0x98 ./build/./RepRapFirmware/src/Platform.o
                0x0000bc04                Platform::GetSetAncillaryPwm(GCodeBuffer&, StringRef const&)
 .text._ZNSt8functionIFvhEEC2ERKS1_
                0x0000bc9c       0x28 ./build/./RepRapFirmware/src/Platform.o
                0x0000bc9c                std::function<void (unsigned char)>::function(std::function<void (unsigned char)> const&)
                0x0000bc9c                std::function<void (unsigned char)>::function(std::function<void (unsigned char)> const&)
 .text._ZNV15AveragingFilterILj16EE4InitEt
                0x0000bcc4       0x2a ./build/./RepRapFirmware/src/Platform.o
                0x0000bcc4                AveragingFilter<16u>::Init(unsigned short) volatile
 *fill*         0x0000bcee        0x2 
 .text._ZN8Platform4InitEv
                0x0000bcf0      0x36c ./build/./RepRapFirmware/src/Platform.o
                0x0000bcf0                Platform::Init()
 .text._ZN6StringILj256EE6printfEPKcz
                0x0000c05c       0x24 ./build/./RepRapFirmware/src/Platform.o
                0x0000c05c                String<256u>::printf(char const*, ...)
 .text._ZN6StringILj100EE6printfEPKcz
                0x0000c080       0x22 ./build/./RepRapFirmware/src/Platform.o
                0x0000c080                String<100u>::printf(char const*, ...)
 *fill*         0x0000c0a2        0x2 
 .text._ZN8Platform15WriteAxisLimitsEP9FileStore6BitmapItEPKfi
                0x0000c0a4       0xa0 ./build/./RepRapFirmware/src/Platform.o
                0x0000c0a4                Platform::WriteAxisLimits(FileStore*, Bitmap<unsigned short>, float const*, int)
 .text._ZNK8Platform23WritePlatformParametersEP9FileStoreb
                0x0000c144       0x68 ./build/./RepRapFirmware/src/Platform.o
                0x0000c144                Platform::WritePlatformParameters(FileStore*, bool) const
 .text._ZN6StringILj100EE4catfEPKcz
                0x0000c1ac       0x22 ./build/./RepRapFirmware/src/Platform.o
                0x0000c1ac                String<100u>::catf(char const*, ...)
 *fill*         0x0000c1ce        0x2 
 .text._ZNSt17_Function_handlerIFvjjEZN8Platform15WriteAxisLimitsEP9FileStore6BitmapItEPKfiEUljjE_E9_M_invokeERKSt9_Any_dataOjSD_
                0x0000c1d0       0x34 ./build/./RepRapFirmware/src/Platform.o
 .text._ZNKSt8functionIFvhEEclEh
                0x0000c204       0x1c ./build/./RepRapFirmware/src/Platform.o
                0x0000c204                std::function<void (unsigned char)>::operator()(unsigned char) const
 .text._ZN8Platform14IterateDriversEjSt8functionIFvhEE
                0x0000c220       0x4c ./build/./RepRapFirmware/src/Platform.o
                0x0000c220                Platform::IterateDrivers(unsigned int, std::function<void (unsigned char)>)
 .text._ZN8Platform14DisableDriversEj
                0x0000c26c       0x34 ./build/./RepRapFirmware/src/Platform.o
                0x0000c26c                Platform::DisableDrivers(unsigned int)
 .text._ZN8Platform17DisableAllDriversEv
                0x0000c2a0       0x16 ./build/./RepRapFirmware/src/Platform.o
                0x0000c2a0                Platform::DisableAllDrivers()
 *fill*         0x0000c2b6        0x2 
 .text._ZN8Platform14SetDriversIdleEv
                0x0000c2b8       0x88 ./build/./RepRapFirmware/src/Platform.o
                0x0000c2b8                Platform::SetDriversIdle()
 .text._ZN8Platform15SetMotorCurrentEjfiRK9StringRef
                0x0000c340       0xa8 ./build/./RepRapFirmware/src/Platform.o
                0x0000c340                Platform::SetMotorCurrent(unsigned int, float, int, StringRef const&)
 .text._ZN8Platform20SetIdleCurrentFactorEf
                0x0000c3e8       0xa0 ./build/./RepRapFirmware/src/Platform.o
                0x0000c3e8                Platform::SetIdleCurrentFactor(float)
 .text._ZN8Platform16SetMicrosteppingEjibRK9StringRef
                0x0000c488       0xb4 ./build/./RepRapFirmware/src/Platform.o
                0x0000c488                Platform::SetMicrostepping(unsigned int, int, bool, StringRef const&)
 .text._ZN8Platform12SetDirectionEjb
                0x0000c53c       0xac ./build/./RepRapFirmware/src/Platform.o
                0x0000c53c                Platform::SetDirection(unsigned int, bool)
 .text._ZN8Platform18EnableLocalDriversEj
                0x0000c5e8       0x68 ./build/./RepRapFirmware/src/Platform.o
                0x0000c5e8                Platform::EnableLocalDrivers(unsigned int)
 .text._ZN6StringILj256EE4copyEPKc
                0x0000c650       0x16 ./build/./RepRapFirmware/src/Platform.o
                0x0000c650                String<256u>::copy(char const*)
 .text._ZNV15AveragingFilterILj8EE4InitEt
                0x0000c666       0x2e ./build/./RepRapFirmware/src/Platform.o
                0x0000c666                AveragingFilter<8u>::Init(unsigned short) volatile
 .text._ZN8Platform17InitZProbeFiltersEv
                0x0000c694       0x1a ./build/./RepRapFirmware/src/Platform.o
                0x0000c694                Platform::InitZProbeFilters()
 *fill*         0x0000c6ae        0x2 
 .text._ZN8PlatformC2Ev
                0x0000c6b0      0x128 ./build/./RepRapFirmware/src/Platform.o
                0x0000c6b0                Platform::Platform()
                0x0000c6b0                Platform::Platform()
 .text._ZN15AveragingFilterILj8EE14ProcessReadingEt
                0x0000c7d8       0x28 ./build/./RepRapFirmware/src/Platform.o
                0x0000c7d8                AveragingFilter<8u>::ProcessReading(unsigned short)
 .text.hot._ZN8Platform4TickEv
                0x0000c800       0xf8 ./build/./RepRapFirmware/src/Platform.o
                0x0000c800                Platform::Tick()
 .text._ZN8Platform10RawMessageE11MessageTypePKc
                0x0000c8f8      0x104 ./build/./RepRapFirmware/src/Platform.o
                0x0000c8f8                Platform::RawMessage(MessageType, char const*)
 .text._ZN8Platform8MessageFE11MessageTypePKcSt9__va_list
                0x0000c9fc       0x68 ./build/./RepRapFirmware/src/Platform.o
                0x0000c9fc                Platform::MessageF(MessageType, char const*, std::__va_list)
 .text._ZN8Platform8MessageFE11MessageTypePKcz
                0x0000ca64       0x1a ./build/./RepRapFirmware/src/Platform.o
                0x0000ca64                Platform::MessageF(MessageType, char const*, ...)
 *fill*         0x0000ca7e        0x2 
 .text._ZN8Platform12PanelDueBeepEii
                0x0000ca80       0x18 ./build/./RepRapFirmware/src/Platform.o
                0x0000ca80                Platform::PanelDueBeep(int, int)
 .text._ZN8Platform14DiagnosticTestER11GCodeBufferRK9StringRefRP12OutputBufferj
                0x0000ca98      0x49c ./build/./RepRapFirmware/src/Platform.o
                0x0000ca98                Platform::DiagnosticTest(GCodeBuffer&, StringRef const&, OutputBuffer*&, unsigned int)
 .text._ZN8Platform11SetDateTimeEx
                0x0000cf34       0x74 ./build/./RepRapFirmware/src/Platform.o
                0x0000cf34                Platform::SetDateTime(long long)
 .text._ZN8Platform7MessageE11MessageTypePKc.part.124
                0x0000cfa8       0x4c ./build/./RepRapFirmware/src/Platform.o
 .text._ZN8Platform7MessageE11MessageTypePKc
                0x0000cff4        0xe ./build/./RepRapFirmware/src/Platform.o
                0x0000cff4                Platform::Message(MessageType, char const*)
 *fill*         0x0000d002        0x2 
 .text._ZN8Platform11DiagnosticsE11MessageType
                0x0000d004      0x20c ./build/./RepRapFirmware/src/Platform.o
                0x0000d004                Platform::Diagnostics(MessageType)
 .text._ZN8Platform9SendAlertE11MessageTypePKcS2_if6BitmapItE
                0x0000d210       0x88 ./build/./RepRapFirmware/src/Platform.o
                0x0000d210                Platform::SendAlert(MessageType, char const*, char const*, int, float, Bitmap<unsigned short>)
 .text._ZN8Platform13FlushMessagesEv
                0x0000d298       0xb0 ./build/./RepRapFirmware/src/Platform.o
                0x0000d298                Platform::FlushMessages()
 .text._ZN8Platform4SpinEv
                0x0000d348       0xc8 ./build/./RepRapFirmware/src/Platform.o
                0x0000d348                Platform::Spin()
 .text._ZN12PrintMonitorUlPK11ObjectModelRK24ObjectExplorationContextE_4_FUNES2_S5_
                0x0000d410        0x6 ./build/./RepRapFirmware/src/PrintMonitor.o
 .text._ZN12PrintMonitorUlPK11ObjectModelR24ObjectExplorationContextE2_4_FUNES2_S4_
                0x0000d416       0x1a ./build/./RepRapFirmware/src/PrintMonitor.o
 .text._ZN12PrintMonitorUlPK11ObjectModelR24ObjectExplorationContextE9_4_FUNES2_S4_
                0x0000d430       0x1a ./build/./RepRapFirmware/src/PrintMonitor.o
 *fill*         0x0000d44a        0x2 
 .text._ZN12PrintMonitorUlPK11ObjectModelR24ObjectExplorationContextE11_4_FUNES2_S4_
                0x0000d44c       0x10 ./build/./RepRapFirmware/src/PrintMonitor.o
 .text._ZN12PrintMonitorUlPK11ObjectModelR24ObjectExplorationContextE13_4_FUNES2_S4_
                0x0000d45c        0xe ./build/./RepRapFirmware/src/PrintMonitor.o
 .text._ZN12PrintMonitorUlPK11ObjectModelR24ObjectExplorationContextE15_4_FUNES2_S4_
                0x0000d46a        0xe ./build/./RepRapFirmware/src/PrintMonitor.o
 .text._ZN12PrintMonitorUlPK11ObjectModelR24ObjectExplorationContextE17_4_FUNES2_S4_
                0x0000d478        0xe ./build/./RepRapFirmware/src/PrintMonitor.o
 .text._ZN12PrintMonitorUlPK11ObjectModelR24ObjectExplorationContextE21_4_FUNES2_S4_
                0x0000d486        0xc ./build/./RepRapFirmware/src/PrintMonitor.o
 *fill*         0x0000d492        0x2 
 .text._ZNK12PrintMonitor29GetObjectModelClassDescriptorEv
                0x0000d494        0x8 ./build/./RepRapFirmware/src/PrintMonitor.o
                0x0000d494                PrintMonitor::GetObjectModelClassDescriptor() const
 .text._ZN12PrintMonitorD2Ev
                0x0000d49c        0x2 ./build/./RepRapFirmware/src/PrintMonitor.o
                0x0000d49c                PrintMonitor::~PrintMonitor()
                0x0000d49c                PrintMonitor::~PrintMonitor()
 .text._ZN12PrintMonitorD0Ev
                0x0000d49e       0x10 ./build/./RepRapFirmware/src/PrintMonitor.o
                0x0000d49e                PrintMonitor::~PrintMonitor()
 .text._ZN12PrintMonitorUlPK11ObjectModelR24ObjectExplorationContextE0_4_FUNES2_S4_
                0x0000d4ae       0x22 ./build/./RepRapFirmware/src/PrintMonitor.o
 .text._ZN12PrintMonitorUlPK11ObjectModelR24ObjectExplorationContextE18_4_FUNES2_S4_
                0x0000d4d0       0x16 ./build/./RepRapFirmware/src/PrintMonitor.o
 .text._ZN12PrintMonitorUlPK11ObjectModelR24ObjectExplorationContextE20_4_FUNES2_S4_
                0x0000d4e6       0x12 ./build/./RepRapFirmware/src/PrintMonitor.o
 .text._ZN12PrintMonitorUlPK11ObjectModelR24ObjectExplorationContextE19_4_FUNES2_S4_
                0x0000d4f8       0x12 ./build/./RepRapFirmware/src/PrintMonitor.o
 .text._ZN12PrintMonitorUlPK11ObjectModelR24ObjectExplorationContextE16_4_FUNES2_S4_
                0x0000d50a       0x1e ./build/./RepRapFirmware/src/PrintMonitor.o
 .text._ZN12PrintMonitorUlPK11ObjectModelR24ObjectExplorationContextE7_4_FUNES2_S4_
                0x0000d528       0x12 ./build/./RepRapFirmware/src/PrintMonitor.o
 *fill*         0x0000d53a        0x2 
 .text._ZN12PrintMonitorUlPK11ObjectModelR24ObjectExplorationContextE3_4_FUNES2_S4_
                0x0000d53c       0x1c ./build/./RepRapFirmware/src/PrintMonitor.o
 .text._ZN12PrintMonitorUlPK11ObjectModelR24ObjectExplorationContextE5_4_FUNES2_S4_
                0x0000d558       0x20 ./build/./RepRapFirmware/src/PrintMonitor.o
 .text._ZN12PrintMonitorUlPK11ObjectModelR24ObjectExplorationContextE12_4_FUNES2_S4_
                0x0000d578       0x16 ./build/./RepRapFirmware/src/PrintMonitor.o
 .text._ZN12PrintMonitorUlPK11ObjectModelR24ObjectExplorationContextE6_4_FUNES2_S4_
                0x0000d58e       0x18 ./build/./RepRapFirmware/src/PrintMonitor.o
 .text._ZN12PrintMonitorUlPK11ObjectModelR24ObjectExplorationContextE14_4_FUNES2_S4_
                0x0000d5a6       0x16 ./build/./RepRapFirmware/src/PrintMonitor.o
 .text._ZN12PrintMonitorC2ER8PlatformR6GCodes
                0x0000d5bc       0x5c ./build/./RepRapFirmware/src/PrintMonitor.o
                0x0000d5bc                PrintMonitor::PrintMonitor(Platform&, GCodes&)
                0x0000d5bc                PrintMonitor::PrintMonitor(Platform&, GCodes&)
 .text._ZN12PrintMonitor4InitEv
                0x0000d618        0xc ./build/./RepRapFirmware/src/PrintMonitor.o
                0x0000d618                PrintMonitor::Init()
 .text._ZN12PrintMonitor19GetPrintingFileInfoER13GCodeFileInfo
                0x0000d624       0x26 ./build/./RepRapFirmware/src/PrintMonitor.o
                0x0000d624                PrintMonitor::GetPrintingFileInfo(GCodeFileInfo&)
 *fill*         0x0000d64a        0x2 
 .text._ZNK12PrintMonitor17GetWarmUpDurationEv
                0x0000d64c       0x34 ./build/./RepRapFirmware/src/PrintMonitor.o
                0x0000d64c                PrintMonitor::GetWarmUpDuration() const
 .text._ZN12PrintMonitorUlPK11ObjectModelR24ObjectExplorationContextE10_4_FUNES2_S4_
                0x0000d680       0x22 ./build/./RepRapFirmware/src/PrintMonitor.o
 *fill*         0x0000d6a2        0x2 
 .text._ZN12PrintMonitor13StartingPrintEPKc
                0x0000d6a4       0x40 ./build/./RepRapFirmware/src/PrintMonitor.o
                0x0000d6a4                PrintMonitor::StartingPrint(char const*)
 .text._ZN12PrintMonitor5ResetEv
                0x0000d6e4       0x48 ./build/./RepRapFirmware/src/PrintMonitor.o
                0x0000d6e4                PrintMonitor::Reset()
 .text._ZN12PrintMonitor12StartedPrintEv
                0x0000d72c       0x16 ./build/./RepRapFirmware/src/PrintMonitor.o
                0x0000d72c                PrintMonitor::StartedPrint()
 .text._ZN12PrintMonitor12StoppedPrintEv
                0x0000d742       0x10 ./build/./RepRapFirmware/src/PrintMonitor.o
                0x0000d742                PrintMonitor::StoppedPrint()
 .text._ZN12PrintMonitor14SetLayerNumberEm
                0x0000d752        0x6 ./build/./RepRapFirmware/src/PrintMonitor.o
                0x0000d752                PrintMonitor::SetLayerNumber(unsigned long)
 .text._ZN12PrintMonitor9SetLayerZEf
                0x0000d758        0x6 ./build/./RepRapFirmware/src/PrintMonitor.o
                0x0000d758                PrintMonitor::SetLayerZ(float)
 *fill*         0x0000d75e        0x2 
 .text._ZNK12PrintMonitor21FractionOfFilePrintedEv
                0x0000d760       0x3c ./build/./RepRapFirmware/src/PrintMonitor.o
                0x0000d760                PrintMonitor::FractionOfFilePrinted() const
 .text._ZNK12PrintMonitor16GetPrintDurationEv
                0x0000d79c       0x44 ./build/./RepRapFirmware/src/PrintMonitor.o
                0x0000d79c                PrintMonitor::GetPrintDuration() const
 .text._ZN12PrintMonitorUlPK11ObjectModelR24ObjectExplorationContextE8_4_FUNES2_S4_
                0x0000d7e0       0x3c ./build/./RepRapFirmware/src/PrintMonitor.o
 .text._ZNK12PrintMonitor27GetPrintOrSimulatedDurationEv
                0x0000d81c       0x2c ./build/./RepRapFirmware/src/PrintMonitor.o
                0x0000d81c                PrintMonitor::GetPrintOrSimulatedDuration() const
 .text._ZN12PrintMonitorUlPK11ObjectModelR24ObjectExplorationContextE1_4_FUNES2_S4_
                0x0000d848       0x1e ./build/./RepRapFirmware/src/PrintMonitor.o
 .text._ZNK12PrintMonitor21GetFirstLayerDurationEv
                0x0000d866       0x2a ./build/./RepRapFirmware/src/PrintMonitor.o
                0x0000d866                PrintMonitor::GetFirstLayerDuration() const
 .text._ZN12PrintMonitorUlPK11ObjectModelR24ObjectExplorationContextE4_4_FUNES2_S4_
                0x0000d890       0x22 ./build/./RepRapFirmware/src/PrintMonitor.o
 .text._ZN12PrintMonitor18FirstLayerCompleteEv
                0x0000d8b2       0x72 ./build/./RepRapFirmware/src/PrintMonitor.o
                0x0000d8b2                PrintMonitor::FirstLayerComplete()
 .text._ZN12PrintMonitor13LayerCompleteEv
                0x0000d924      0x15c ./build/./RepRapFirmware/src/PrintMonitor.o
                0x0000d924                PrintMonitor::LayerComplete()
 .text._ZNK12PrintMonitor16EstimateTimeLeftE21PrintEstimationMethod
                0x0000da80      0x204 ./build/./RepRapFirmware/src/PrintMonitor.o
                0x0000da80                PrintMonitor::EstimateTimeLeft(PrintEstimationMethod) const
 .text._ZNK12PrintMonitor28EstimateTimeLeftAsExpressionE21PrintEstimationMethod
                0x0000dc84       0x2a ./build/./RepRapFirmware/src/PrintMonitor.o
                0x0000dc84                PrintMonitor::EstimateTimeLeftAsExpression(PrintEstimationMethod) const
 .text._ZN12PrintMonitorUlPK11ObjectModelR24ObjectExplorationContextE24_4_FUNES2_S4_
                0x0000dcae        0xe ./build/./RepRapFirmware/src/PrintMonitor.o
 .text._ZN12PrintMonitorUlPK11ObjectModelR24ObjectExplorationContextE23_4_FUNES2_S4_
                0x0000dcbc        0xe ./build/./RepRapFirmware/src/PrintMonitor.o
 .text._ZN12PrintMonitorUlPK11ObjectModelR24ObjectExplorationContextE22_4_FUNES2_S4_
                0x0000dcca        0xe ./build/./RepRapFirmware/src/PrintMonitor.o
 .text._ZN12PrintMonitor4SpinEv
                0x0000dcd8      0x1a8 ./build/./RepRapFirmware/src/PrintMonitor.o
                0x0000dcd8                PrintMonitor::Spin()
 .text._ZN6RepRapUlPK11ObjectModelRK24ObjectExplorationContextE_4_FUNES2_S5_
                0x0000de80        0x4 ./build/./RepRapFirmware/src/RepRap.o
 .text._ZN6RepRapUlPK11ObjectModelR24ObjectExplorationContextE0_4_FUNES2_S4_
                0x0000de84       0x18 ./build/./RepRapFirmware/src/RepRap.o
 .text._ZN6RepRapUlPK11ObjectModelRK24ObjectExplorationContextE3_4_FUNES2_S5_
                0x0000de9c        0x4 ./build/./RepRapFirmware/src/RepRap.o
 .text._ZN6RepRapUlPK11ObjectModelRK24ObjectExplorationContextE7_4_FUNES2_S5_
                0x0000dea0        0x4 ./build/./RepRapFirmware/src/RepRap.o
 .text._ZN6RepRapUlPK11ObjectModelRK24ObjectExplorationContextE9_4_FUNES2_S5_
                0x0000dea4        0x6 ./build/./RepRapFirmware/src/RepRap.o
 .text._ZN6RepRapUlPK11ObjectModelRK24ObjectExplorationContextE11_4_FUNES2_S5_
                0x0000deaa        0x4 ./build/./RepRapFirmware/src/RepRap.o
 .text._ZN6RepRapUlPK11ObjectModelRK24ObjectExplorationContextE13_4_FUNES2_S5_
                0x0000deae        0x4 ./build/./RepRapFirmware/src/RepRap.o
 *fill*         0x0000deb2        0x2 
 .text._ZN6RepRapUlPK11ObjectModelR24ObjectExplorationContextE15_4_FUNES2_S4_
                0x0000deb4       0x10 ./build/./RepRapFirmware/src/RepRap.o
 .text._ZN6RepRapUlPK11ObjectModelR24ObjectExplorationContextE16_4_FUNES2_S4_
                0x0000dec4       0x1a ./build/./RepRapFirmware/src/RepRap.o
 *fill*         0x0000dede        0x2 
 .text._ZN6RepRapUlPK11ObjectModelR24ObjectExplorationContextE17_4_FUNES2_S4_
                0x0000dee0       0x10 ./build/./RepRapFirmware/src/RepRap.o
 .text._ZN6RepRapUlPK11ObjectModelR24ObjectExplorationContextE19_4_FUNES2_S4_
                0x0000def0       0x10 ./build/./RepRapFirmware/src/RepRap.o
 .text._ZN6RepRapUlPK11ObjectModelR24ObjectExplorationContextE21_4_FUNES2_S4_
                0x0000df00       0x1a ./build/./RepRapFirmware/src/RepRap.o
 .text._ZN6RepRapUlPK11ObjectModelR24ObjectExplorationContextE25_4_FUNES2_S4_
                0x0000df1a       0x1a ./build/./RepRapFirmware/src/RepRap.o
 .text._ZN6RepRapUlPK11ObjectModelR24ObjectExplorationContextE26_4_FUNES2_S4_
                0x0000df34       0x10 ./build/./RepRapFirmware/src/RepRap.o
 .text._ZN6RepRapUlPK11ObjectModelR24ObjectExplorationContextE27_4_FUNES2_S4_
                0x0000df44       0x1a ./build/./RepRapFirmware/src/RepRap.o
 *fill*         0x0000df5e        0x2 
 .text._ZN6RepRapUlPK11ObjectModelR24ObjectExplorationContextE28_4_FUNES2_S4_
                0x0000df60       0x10 ./build/./RepRapFirmware/src/RepRap.o
 .text._ZN6RepRapUlPK11ObjectModelR24ObjectExplorationContextE29_4_FUNES2_S4_
                0x0000df70       0x10 ./build/./RepRapFirmware/src/RepRap.o
 .text._ZN6RepRapUlPK11ObjectModelR24ObjectExplorationContextE30_4_FUNES2_S4_
                0x0000df80       0x10 ./build/./RepRapFirmware/src/RepRap.o
 .text._ZN6RepRapUlPK11ObjectModelR24ObjectExplorationContextE31_4_FUNES2_S4_
                0x0000df90       0x10 ./build/./RepRapFirmware/src/RepRap.o
 .text._ZN6RepRapUlPK11ObjectModelR24ObjectExplorationContextE32_4_FUNES2_S4_
                0x0000dfa0       0x10 ./build/./RepRapFirmware/src/RepRap.o
 .text._ZN6RepRapUlPK11ObjectModelR24ObjectExplorationContextE33_4_FUNES2_S4_
                0x0000dfb0       0x10 ./build/./RepRapFirmware/src/RepRap.o
 .text._ZN6RepRapUlPK11ObjectModelR24ObjectExplorationContextE34_4_FUNES2_S4_
                0x0000dfc0       0x10 ./build/./RepRapFirmware/src/RepRap.o
 .text._ZN6RepRapUlPK11ObjectModelR24ObjectExplorationContextE35_4_FUNES2_S4_
                0x0000dfd0       0x10 ./build/./RepRapFirmware/src/RepRap.o
 .text._ZN6RepRapUlPK11ObjectModelR24ObjectExplorationContextE36_4_FUNES2_S4_
                0x0000dfe0        0xa ./build/./RepRapFirmware/src/RepRap.o
 *fill*         0x0000dfea        0x2 
 .text._ZN6RepRapUlPK11ObjectModelR24ObjectExplorationContextE37_4_FUNES2_S4_
                0x0000dfec       0x10 ./build/./RepRapFirmware/src/RepRap.o
 .text._ZN6RepRapUlPK11ObjectModelR24ObjectExplorationContextE38_4_FUNES2_S4_
                0x0000dffc        0xa ./build/./RepRapFirmware/src/RepRap.o
 .text._ZN6RepRapUlPK11ObjectModelR24ObjectExplorationContextE39_4_FUNES2_S4_
                0x0000e006        0xa ./build/./RepRapFirmware/src/RepRap.o
 .text._ZN6RepRapUlPK11ObjectModelR24ObjectExplorationContextE40_4_FUNES2_S4_
                0x0000e010        0xa ./build/./RepRapFirmware/src/RepRap.o
 .text._ZN6RepRapUlPK11ObjectModelR24ObjectExplorationContextE44_4_FUNES2_S4_
                0x0000e01a        0xa ./build/./RepRapFirmware/src/RepRap.o
 .text._ZN6RepRapUlPK11ObjectModelR24ObjectExplorationContextE47_4_FUNES2_S4_
                0x0000e024        0xa ./build/./RepRapFirmware/src/RepRap.o
 .text._ZN6RepRapUlPK11ObjectModelR24ObjectExplorationContextE48_4_FUNES2_S4_
                0x0000e02e        0xa ./build/./RepRapFirmware/src/RepRap.o
 .text._ZN6RepRapUlPK11ObjectModelR24ObjectExplorationContextE53_4_FUNES2_S4_
                0x0000e038        0xa ./build/./RepRapFirmware/src/RepRap.o
 .text._ZN6RepRapUlPK11ObjectModelR24ObjectExplorationContextE54_4_FUNES2_S4_
                0x0000e042        0xa ./build/./RepRapFirmware/src/RepRap.o
 .text._ZN6RepRapUlPK11ObjectModelR24ObjectExplorationContextE55_4_FUNES2_S4_
                0x0000e04c        0x8 ./build/./RepRapFirmware/src/RepRap.o
 .text._ZN6RepRapUlPK11ObjectModelR24ObjectExplorationContextE56_4_FUNES2_S4_
                0x0000e054        0xa ./build/./RepRapFirmware/src/RepRap.o
 .text._ZN6RepRapUlPK11ObjectModelR24ObjectExplorationContextE57_4_FUNES2_S4_
                0x0000e05e        0xa ./build/./RepRapFirmware/src/RepRap.o
 .text._ZN6RepRapUlPK11ObjectModelR24ObjectExplorationContextE58_4_FUNES2_S4_
                0x0000e068        0xa ./build/./RepRapFirmware/src/RepRap.o
 .text._ZN6RepRapUlPK11ObjectModelR24ObjectExplorationContextE60_4_FUNES2_S4_
                0x0000e072        0xa ./build/./RepRapFirmware/src/RepRap.o
 .text._ZN6RepRapUlPK11ObjectModelR24ObjectExplorationContextE61_4_FUNES2_S4_
                0x0000e07c        0xa ./build/./RepRapFirmware/src/RepRap.o
 .text._ZN6RepRapUlPK11ObjectModelR24ObjectExplorationContextE66_4_FUNES2_S4_
                0x0000e086        0xc ./build/./RepRapFirmware/src/RepRap.o
 *fill*         0x0000e092        0x2 
 .text._ZN6RepRapUlPK11ObjectModelR24ObjectExplorationContextE67_4_FUNES2_S4_
                0x0000e094       0x10 ./build/./RepRapFirmware/src/RepRap.o
 .text._ZN6RepRapUlPK11ObjectModelR24ObjectExplorationContextE72_4_FUNES2_S4_
                0x0000e0a4        0xe ./build/./RepRapFirmware/src/RepRap.o
 .text._ZN6RepRapUlPK11ObjectModelR24ObjectExplorationContextE73_4_FUNES2_S4_
                0x0000e0b2        0xc ./build/./RepRapFirmware/src/RepRap.o
 *fill*         0x0000e0be        0x2 
 .text._ZN6RepRapUlPK11ObjectModelR24ObjectExplorationContextE74_4_FUNES2_S4_
                0x0000e0c0       0x10 ./build/./RepRapFirmware/src/RepRap.o
 .text._ZN6RepRapUlPK11ObjectModelR24ObjectExplorationContextE78_4_FUNES2_S4_
                0x0000e0d0        0xc ./build/./RepRapFirmware/src/RepRap.o
 .text._ZN6RepRapUlPK11ObjectModelR24ObjectExplorationContextE79_4_FUNES2_S4_
                0x0000e0dc        0xc ./build/./RepRapFirmware/src/RepRap.o
 .text._ZN6RepRapUlPK11ObjectModelR24ObjectExplorationContextE80_4_FUNES2_S4_
                0x0000e0e8        0xc ./build/./RepRapFirmware/src/RepRap.o
 .text._ZN6RepRapUlPK11ObjectModelR24ObjectExplorationContextE81_4_FUNES2_S4_
                0x0000e0f4        0xc ./build/./RepRapFirmware/src/RepRap.o
 .text._ZN6RepRapUlPK11ObjectModelR24ObjectExplorationContextE82_4_FUNES2_S4_
                0x0000e100        0xc ./build/./RepRapFirmware/src/RepRap.o
 .text._ZN6RepRapUlPK11ObjectModelR24ObjectExplorationContextE83_4_FUNES2_S4_
                0x0000e10c        0xc ./build/./RepRapFirmware/src/RepRap.o
 .text._ZN6RepRapUlPK11ObjectModelR24ObjectExplorationContextE84_4_FUNES2_S4_
                0x0000e118        0xc ./build/./RepRapFirmware/src/RepRap.o
 .text._ZN6RepRapUlPK11ObjectModelR24ObjectExplorationContextE85_4_FUNES2_S4_
                0x0000e124        0xc ./build/./RepRapFirmware/src/RepRap.o
 .text._ZN6RepRapUlPK11ObjectModelR24ObjectExplorationContextE86_4_FUNES2_S4_
                0x0000e130        0xc ./build/./RepRapFirmware/src/RepRap.o
 .text._ZN6RepRapUlPK11ObjectModelR24ObjectExplorationContextE87_4_FUNES2_S4_
                0x0000e13c        0xc ./build/./RepRapFirmware/src/RepRap.o
 .text._ZN6RepRapUlPK11ObjectModelR24ObjectExplorationContextE88_4_FUNES2_S4_
                0x0000e148        0xc ./build/./RepRapFirmware/src/RepRap.o
 .text._ZN6RepRapUlPK11ObjectModelR24ObjectExplorationContextE89_4_FUNES2_S4_
                0x0000e154        0xc ./build/./RepRapFirmware/src/RepRap.o
 .text._ZN6RepRapUlPK11ObjectModelR24ObjectExplorationContextE90_4_FUNES2_S4_
                0x0000e160        0xc ./build/./RepRapFirmware/src/RepRap.o
 .text._ZN6RepRapUlPK11ObjectModelR24ObjectExplorationContextE91_4_FUNES2_S4_
                0x0000e16c        0xc ./build/./RepRapFirmware/src/RepRap.o
 .text._ZN6RepRapUlPK11ObjectModelR24ObjectExplorationContextE92_4_FUNES2_S4_
                0x0000e178        0xc ./build/./RepRapFirmware/src/RepRap.o
 .text._ZN6RepRapUlPK11ObjectModelR24ObjectExplorationContextE93_4_FUNES2_S4_
                0x0000e184        0xc ./build/./RepRapFirmware/src/RepRap.o
 .text._ZN6RepRapUlPK11ObjectModelR24ObjectExplorationContextE94_4_FUNES2_S4_
                0x0000e190       0x10 ./build/./RepRapFirmware/src/RepRap.o
 .text._ZN6RepRapUlPK11ObjectModelR24ObjectExplorationContextE95_4_FUNES2_S4_
                0x0000e1a0        0xc ./build/./RepRapFirmware/src/RepRap.o
 .text._ZN6RepRapUlPK11ObjectModelR24ObjectExplorationContextE96_4_FUNES2_S4_
                0x0000e1ac        0xc ./build/./RepRapFirmware/src/RepRap.o
 .text._ZN6RepRapUlPK11ObjectModelR24ObjectExplorationContextE97_4_FUNES2_S4_
                0x0000e1b8        0xc ./build/./RepRapFirmware/src/RepRap.o
 .text._ZN6RepRapUlPK11ObjectModelR24ObjectExplorationContextE98_4_FUNES2_S4_
                0x0000e1c4        0xc ./build/./RepRapFirmware/src/RepRap.o
 .text._ZN6RepRapUlPK11ObjectModelR24ObjectExplorationContextE99_4_FUNES2_S4_
                0x0000e1d0        0xc ./build/./RepRapFirmware/src/RepRap.o
 .text._ZNK6RepRap29GetObjectModelClassDescriptorEv
                0x0000e1dc        0x8 ./build/./RepRapFirmware/src/RepRap.o
                0x0000e1dc                RepRap::GetObjectModelClassDescriptor() const
 .text._ZNSt14_Function_base13_Base_managerIZNK6RepRap17GetStatusResponseEh14ResponseSourceEUljE_E10_M_managerERSt9_Any_dataRKS5_St18_Manager_operation
                0x0000e1e4       0x16 ./build/./RepRapFirmware/src/RepRap.o
 .text._ZNSt14_Function_base13_Base_managerIZNK6RepRap17GetStatusResponseEh14ResponseSourceEUljE0_E10_M_managerERSt9_Any_dataRKS5_St18_Manager_operation
                0x0000e1fa       0x16 ./build/./RepRapFirmware/src/RepRap.o
 .text._ZNSt14_Function_base13_Base_managerIZNK6RepRap17GetStatusResponseEh14ResponseSourceEUljE1_E10_M_managerERSt9_Any_dataRKS5_St18_Manager_operation
                0x0000e210       0x16 ./build/./RepRapFirmware/src/RepRap.o
 .text._ZNSt14_Function_base13_Base_managerIZNK6RepRap17GetStatusResponseEh14ResponseSourceEUljE2_E10_M_managerERSt9_Any_dataRKS5_St18_Manager_operation
                0x0000e226       0x16 ./build/./RepRapFirmware/src/RepRap.o
 .text._ZNSt14_Function_base13_Base_managerIZNK6RepRap17GetStatusResponseEh14ResponseSourceEUljE3_E10_M_managerERSt9_Any_dataRKS5_St18_Manager_operation
                0x0000e23c       0x16 ./build/./RepRapFirmware/src/RepRap.o
 .text._ZNSt14_Function_base13_Base_managerIZNK6RepRap17GetStatusResponseEh14ResponseSourceEUljE4_E10_M_managerERSt9_Any_dataRKS5_St18_Manager_operation
                0x0000e252       0x16 ./build/./RepRapFirmware/src/RepRap.o
 .text._ZNSt14_Function_base13_Base_managerIZNK6RepRap17GetStatusResponseEh14ResponseSourceEUljE5_E10_M_managerERSt9_Any_dataRKS5_St18_Manager_operation
                0x0000e268       0x16 ./build/./RepRapFirmware/src/RepRap.o
 .text._ZNSt14_Function_base13_Base_managerIZNK6RepRap17GetStatusResponseEh14ResponseSourceEUljE6_E10_M_managerERSt9_Any_dataRKS5_St18_Manager_operation
                0x0000e27e       0x16 ./build/./RepRapFirmware/src/RepRap.o
 .text._ZNSt14_Function_base13_Base_managerIZNK6RepRap17GetStatusResponseEh14ResponseSourceEUljE7_E10_M_managerERSt9_Any_dataRKS5_St18_Manager_operation
                0x0000e294       0x16 ./build/./RepRapFirmware/src/RepRap.o
 .text._ZNSt14_Function_base13_Base_managerIZNK6RepRap17GetStatusResponseEh14ResponseSourceEUljE8_E10_M_managerERSt9_Any_dataRKS5_St18_Manager_operation
                0x0000e2aa       0x16 ./build/./RepRapFirmware/src/RepRap.o
 .text._ZNSt14_Function_base13_Base_managerIZNK6RepRap17GetStatusResponseEh14ResponseSourceEUljE9_E10_M_managerERSt9_Any_dataRKS5_St18_Manager_operation
                0x0000e2c0       0x16 ./build/./RepRapFirmware/src/RepRap.o
 .text._ZNSt17_Function_handlerIFfjEZNK6RepRap17GetStatusResponseEh14ResponseSourceEUljE10_E9_M_invokeERKSt9_Any_dataOj
                0x0000e2d6        0xc ./build/./RepRapFirmware/src/RepRap.o
 .text._ZNSt14_Function_base13_Base_managerIZNK6RepRap17GetStatusResponseEh14ResponseSourceEUljE10_E10_M_managerERSt9_Any_dataRKS5_St18_Manager_operation
                0x0000e2e2       0x16 ./build/./RepRapFirmware/src/RepRap.o
 .text._ZNSt17_Function_handlerIFfjEZNK6RepRap17GetStatusResponseEh14ResponseSourceEUljE11_E9_M_invokeERKSt9_Any_dataOj
                0x0000e2f8        0xc ./build/./RepRapFirmware/src/RepRap.o
 .text._ZNSt14_Function_base13_Base_managerIZNK6RepRap17GetStatusResponseEh14ResponseSourceEUljE11_E10_M_managerERSt9_Any_dataRKS5_St18_Manager_operation
                0x0000e304       0x16 ./build/./RepRapFirmware/src/RepRap.o
 .text._ZNSt17_Function_handlerIFijEZNK6RepRap17GetStatusResponseEh14ResponseSourceEUljE12_E9_M_invokeERKSt9_Any_dataOj
                0x0000e31a        0xc ./build/./RepRapFirmware/src/RepRap.o
 .text._ZNSt14_Function_base13_Base_managerIZNK6RepRap17GetStatusResponseEh14ResponseSourceEUljE12_E10_M_managerERSt9_Any_dataRKS5_St18_Manager_operation
                0x0000e326       0x16 ./build/./RepRapFirmware/src/RepRap.o
 .text._ZNSt17_Function_handlerIFijEZNK6RepRap17GetStatusResponseEh14ResponseSourceEUljE13_E9_M_invokeERKSt9_Any_dataOj
                0x0000e33c        0xc ./build/./RepRapFirmware/src/RepRap.o
 .text._ZNSt14_Function_base13_Base_managerIZNK6RepRap17GetStatusResponseEh14ResponseSourceEUljE13_E10_M_managerERSt9_Any_dataRKS5_St18_Manager_operation
                0x0000e348       0x16 ./build/./RepRapFirmware/src/RepRap.o
 .text._ZNSt14_Function_base13_Base_managerIZNK6RepRap17GetStatusResponseEh14ResponseSourceEUljjE14_E10_M_managerERSt9_Any_dataRKS5_St18_Manager_operation
                0x0000e35e       0x16 ./build/./RepRapFirmware/src/RepRap.o
 .text._ZNSt14_Function_base13_Base_managerIZNK6RepRap17GetStatusResponseEh14ResponseSourceEUljjE15_E10_M_managerERSt9_Any_dataRKS5_St18_Manager_operation
                0x0000e374       0x16 ./build/./RepRapFirmware/src/RepRap.o
 .text._ZNSt17_Function_handlerIFfjEZNK6RepRap17GetStatusResponseEh14ResponseSourceEUljE16_E9_M_invokeERKSt9_Any_dataOj
                0x0000e38a        0xc ./build/./RepRapFirmware/src/RepRap.o
 .text._ZNSt14_Function_base13_Base_managerIZNK6RepRap17GetStatusResponseEh14ResponseSourceEUljE16_E10_M_managerERSt9_Any_dataRKS5_St18_Manager_operation
                0x0000e396       0x16 ./build/./RepRapFirmware/src/RepRap.o
 .text._ZNSt14_Function_base13_Base_managerIZNK6RepRap17GetStatusResponseEh14ResponseSourceEUljE17_E10_M_managerERSt9_Any_dataRKS5_St18_Manager_operation
                0x0000e3ac       0x16 ./build/./RepRapFirmware/src/RepRap.o
 .text._ZNSt17_Function_handlerIFfjEZN6RepRap17GetConfigResponseEvEUljE_E9_M_invokeERKSt9_Any_dataOj
                0x0000e3c2       0x10 ./build/./RepRapFirmware/src/RepRap.o
 .text._ZNSt14_Function_base13_Base_managerIZN6RepRap17GetConfigResponseEvEUljE_E10_M_managerERSt9_Any_dataRKS4_St18_Manager_operation
                0x0000e3d2       0x16 ./build/./RepRapFirmware/src/RepRap.o
 .text._ZNSt17_Function_handlerIFfjEZN6RepRap17GetConfigResponseEvEUljE0_E9_M_invokeERKSt9_Any_dataOj
                0x0000e3e8        0xe ./build/./RepRapFirmware/src/RepRap.o
 .text._ZNSt14_Function_base13_Base_managerIZN6RepRap17GetConfigResponseEvEUljE0_E10_M_managerERSt9_Any_dataRKS4_St18_Manager_operation
                0x0000e3f6       0x16 ./build/./RepRapFirmware/src/RepRap.o
 .text._ZNSt17_Function_handlerIFfjEZN6RepRap17GetConfigResponseEvEUljE1_E9_M_invokeERKSt9_Any_dataOj
                0x0000e40c        0xe ./build/./RepRapFirmware/src/RepRap.o
 .text._ZNSt14_Function_base13_Base_managerIZN6RepRap17GetConfigResponseEvEUljE1_E10_M_managerERSt9_Any_dataRKS4_St18_Manager_operation
                0x0000e41a       0x16 ./build/./RepRapFirmware/src/RepRap.o
 .text._ZNSt14_Function_base13_Base_managerIZN6RepRap17GetConfigResponseEvEUljE2_E10_M_managerERSt9_Any_dataRKS4_St18_Manager_operation
                0x0000e430       0x16 ./build/./RepRapFirmware/src/RepRap.o
 .text._ZNSt17_Function_handlerIFfjEZN6RepRap17GetConfigResponseEvEUljE3_E9_M_invokeERKSt9_Any_dataOj
                0x0000e446        0xe ./build/./RepRapFirmware/src/RepRap.o
 .text._ZNSt14_Function_base13_Base_managerIZN6RepRap17GetConfigResponseEvEUljE3_E10_M_managerERSt9_Any_dataRKS4_St18_Manager_operation
                0x0000e454       0x16 ./build/./RepRapFirmware/src/RepRap.o
 .text._ZNSt17_Function_handlerIFfjEZN6RepRap17GetConfigResponseEvEUljE4_E9_M_invokeERKSt9_Any_dataOj
                0x0000e46a       0x10 ./build/./RepRapFirmware/src/RepRap.o
 .text._ZNSt14_Function_base13_Base_managerIZN6RepRap17GetConfigResponseEvEUljE4_E10_M_managerERSt9_Any_dataRKS4_St18_Manager_operation
                0x0000e47a       0x16 ./build/./RepRapFirmware/src/RepRap.o
 .text._ZNSt14_Function_base13_Base_managerIZNK6RepRap23GetLegacyStatusResponseEhiEUljE_E10_M_managerERSt9_Any_dataRKS4_St18_Manager_operation
                0x0000e490       0x16 ./build/./RepRapFirmware/src/RepRap.o
 .text._ZNSt14_Function_base13_Base_managerIZNK6RepRap23GetLegacyStatusResponseEhiEUljE0_E10_M_managerERSt9_Any_dataRKS4_St18_Manager_operation
                0x0000e4a6       0x16 ./build/./RepRapFirmware/src/RepRap.o
 .text._ZNSt14_Function_base13_Base_managerIZNK6RepRap23GetLegacyStatusResponseEhiEUljE1_E10_M_managerERSt9_Any_dataRKS4_St18_Manager_operation
                0x0000e4bc       0x16 ./build/./RepRapFirmware/src/RepRap.o
 .text._ZNSt14_Function_base13_Base_managerIZNK6RepRap23GetLegacyStatusResponseEhiEUljE2_E10_M_managerERSt9_Any_dataRKS4_St18_Manager_operation
                0x0000e4d2       0x16 ./build/./RepRapFirmware/src/RepRap.o
 .text._ZNSt14_Function_base13_Base_managerIZNK6RepRap23GetLegacyStatusResponseEhiEUljE3_E10_M_managerERSt9_Any_dataRKS4_St18_Manager_operation
                0x0000e4e8       0x16 ./build/./RepRapFirmware/src/RepRap.o
 .text._ZN6RepRapD2Ev
                0x0000e4fe        0x2 ./build/./RepRapFirmware/src/RepRap.o
                0x0000e4fe                RepRap::~RepRap()
                0x0000e4fe                RepRap::~RepRap()
 .text._ZN6RepRapD0Ev
                0x0000e500       0x10 ./build/./RepRapFirmware/src/RepRap.o
                0x0000e500                RepRap::~RepRap()
 .text._ZN6RepRapUlPK11ObjectModelRK24ObjectExplorationContextE1_4_FUNES2_S5_
                0x0000e510        0x6 ./build/./RepRapFirmware/src/RepRap.o
 *fill*         0x0000e516        0x2 
 .text._ZNSt17_Function_handlerIFvjjEZNK6RepRap17GetStatusResponseEh14ResponseSourceEUljjE15_E9_M_invokeERKSt9_Any_dataOjS8_
                0x0000e518       0x24 ./build/./RepRapFirmware/src/RepRap.o
 .text._ZNSt17_Function_handlerIFfjEZNK6RepRap23GetLegacyStatusResponseEhiEUljE_E9_M_invokeERKSt9_Any_dataOj
                0x0000e53c        0xa ./build/./RepRapFirmware/src/RepRap.o
 .text._ZNSt17_Function_handlerIFfjEZNK6RepRap17GetStatusResponseEh14ResponseSourceEUljE1_E9_M_invokeERKSt9_Any_dataOj
                0x0000e546        0xe ./build/./RepRapFirmware/src/RepRap.o
 .text._ZNSt17_Function_handlerIFijEZNK6RepRap17GetStatusResponseEh14ResponseSourceEUljE3_E9_M_invokeERKSt9_Any_dataOj
                0x0000e554       0x30 ./build/./RepRapFirmware/src/RepRap.o
 .text._ZNSt17_Function_handlerIFPKcjEZNK6RepRap17GetStatusResponseEh14ResponseSourceEUljE4_E9_M_invokeERKSt9_Any_dataOj
                0x0000e584        0xa ./build/./RepRapFirmware/src/RepRap.o
 *fill*         0x0000e58e        0x2 
 .text._ZNSt17_Function_handlerIFfjEZNK6RepRap17GetStatusResponseEh14ResponseSourceEUljE5_E9_M_invokeERKSt9_Any_dataOj
                0x0000e590       0x18 ./build/./RepRapFirmware/src/RepRap.o
 .text._ZNSt17_Function_handlerIFijEZNK6RepRap23GetLegacyStatusResponseEhiEUljE2_E9_M_invokeERKSt9_Any_dataOj
                0x0000e5a8        0xa ./build/./RepRapFirmware/src/RepRap.o
 .text._ZNSt17_Function_handlerIFfjEZNK6RepRap17GetStatusResponseEh14ResponseSourceEUljE7_E9_M_invokeERKSt9_Any_dataOj
                0x0000e5b2        0xa ./build/./RepRapFirmware/src/RepRap.o
 .text._ZNSt17_Function_handlerIFPKcjEZNK6RepRap17GetStatusResponseEh14ResponseSourceEUljE9_E9_M_invokeERKSt9_Any_dataOj
                0x0000e5bc        0xa ./build/./RepRapFirmware/src/RepRap.o
 .text._ZNSt17_Function_handlerIFfjEZNK6RepRap17GetStatusResponseEh14ResponseSourceEUljE17_E9_M_invokeERKSt9_Any_dataOj
                0x0000e5c6        0xa ./build/./RepRapFirmware/src/RepRap.o
 .text._ZNSt17_Function_handlerIFijEZN6RepRap17GetConfigResponseEvEUljE2_E9_M_invokeERKSt9_Any_dataOj
                0x0000e5d0       0x16 ./build/./RepRapFirmware/src/RepRap.o
 .text._ZNSt17_Function_handlerIFfjEZNK6RepRap17GetStatusResponseEh14ResponseSourceEUljE2_E9_M_invokeERKSt9_Any_dataOj
                0x0000e5e6       0x12 ./build/./RepRapFirmware/src/RepRap.o
 .text._ZN6RepRapUlPK11ObjectModelR24ObjectExplorationContextE77_4_FUNES2_S4_
                0x0000e5f8       0x20 ./build/./RepRapFirmware/src/RepRap.o
 .text._ZN6RepRapUlPK11ObjectModelR24ObjectExplorationContextE70_4_FUNES2_S4_
                0x0000e618       0x14 ./build/./RepRapFirmware/src/RepRap.o
 .text._ZN6RepRapUlPK11ObjectModelR24ObjectExplorationContextE69_4_FUNES2_S4_
                0x0000e62c       0x14 ./build/./RepRapFirmware/src/RepRap.o
 .text._ZN6RepRapUlPK11ObjectModelR24ObjectExplorationContextE71_4_FUNES2_S4_
                0x0000e640       0x16 ./build/./RepRapFirmware/src/RepRap.o
 .text._ZN6RepRapUlPK11ObjectModelR24ObjectExplorationContextE64_4_FUNES2_S4_
                0x0000e656       0x16 ./build/./RepRapFirmware/src/RepRap.o
 .text._ZN6RepRapUlPK11ObjectModelRK24ObjectExplorationContextE5_4_FUNES2_S5_
                0x0000e66c        0xc ./build/./RepRapFirmware/src/RepRap.o
 .text._ZN6RepRapUlPK11ObjectModelR24ObjectExplorationContextE76_4_FUNES2_S4_
                0x0000e678       0x24 ./build/./RepRapFirmware/src/RepRap.o
 .text._ZN6RepRapUlPK11ObjectModelR24ObjectExplorationContextE63_4_FUNES2_S4_
                0x0000e69c       0x22 ./build/./RepRapFirmware/src/RepRap.o
 *fill*         0x0000e6be        0x2 
 .text._ZN6RepRapUlPK11ObjectModelR24ObjectExplorationContextE68_4_FUNES2_S4_
                0x0000e6c0       0x34 ./build/./RepRapFirmware/src/RepRap.o
 .text._ZNSt17_Function_handlerIFijEZNK6RepRap17GetStatusResponseEh14ResponseSourceEUljE8_E9_M_invokeERKSt9_Any_dataOj
                0x0000e6f4       0x18 ./build/./RepRapFirmware/src/RepRap.o
 .text._ZNSt17_Function_handlerIFijEZNK6RepRap17GetStatusResponseEh14ResponseSourceEUljE_E9_M_invokeERKSt9_Any_dataOj
                0x0000e70c       0x12 ./build/./RepRapFirmware/src/RepRap.o
 .text._ZNK6BitmapItE7IterateESt8functionIFvjjEE.isra.295
                0x0000e71e       0x40 ./build/./RepRapFirmware/src/RepRap.o
 .text._ZN6RepRapUlPK11ObjectModelR24ObjectExplorationContextE59_4_FUNES2_S4_
                0x0000e75e        0xa ./build/./RepRapFirmware/src/RepRap.o
 .text._ZN6RepRapUlPK11ObjectModelR24ObjectExplorationContextE42_4_FUNES2_S4_
                0x0000e768        0xa ./build/./RepRapFirmware/src/RepRap.o
 .text._ZN6RepRapUlPK11ObjectModelR24ObjectExplorationContextE62_4_FUNES2_S4_
                0x0000e772        0xa ./build/./RepRapFirmware/src/RepRap.o
 .text._ZN6RepRapUlPK11ObjectModelR24ObjectExplorationContextE41_4_FUNES2_S4_
                0x0000e77c        0xa ./build/./RepRapFirmware/src/RepRap.o
 .text._ZN6RepRapUlPK11ObjectModelR24ObjectExplorationContextE43_4_FUNES2_S4_
                0x0000e786        0xa ./build/./RepRapFirmware/src/RepRap.o
 .text._ZN6RepRapUlPK11ObjectModelR24ObjectExplorationContextE45_4_FUNES2_S4_
                0x0000e790        0xa ./build/./RepRapFirmware/src/RepRap.o
 .text._ZN6RepRapUlPK11ObjectModelR24ObjectExplorationContextE46_4_FUNES2_S4_
                0x0000e79a        0xa ./build/./RepRapFirmware/src/RepRap.o
 .text._ZN6RepRapUlPK11ObjectModelR24ObjectExplorationContextE49_4_FUNES2_S4_
                0x0000e7a4        0xa ./build/./RepRapFirmware/src/RepRap.o
 .text._ZN6RepRapUlPK11ObjectModelR24ObjectExplorationContextE50_4_FUNES2_S4_
                0x0000e7ae        0xa ./build/./RepRapFirmware/src/RepRap.o
 .text._ZN6RepRapUlPK11ObjectModelR24ObjectExplorationContextE51_4_FUNES2_S4_
                0x0000e7b8        0xa ./build/./RepRapFirmware/src/RepRap.o
 .text._ZN6RepRapUlPK11ObjectModelR24ObjectExplorationContextE52_4_FUNES2_S4_
                0x0000e7c2        0xa ./build/./RepRapFirmware/src/RepRap.o
 .text._ZNSt17_Function_handlerIFijEZNK6RepRap23GetLegacyStatusResponseEhiEUljE3_E9_M_invokeERKSt9_Any_dataOj
                0x0000e7cc       0x12 ./build/./RepRapFirmware/src/RepRap.o
 .text._ZNSt17_Function_handlerIFfjEZNK6RepRap17GetStatusResponseEh14ResponseSourceEUljE0_E9_M_invokeERKSt9_Any_dataOj
                0x0000e7de        0xa ./build/./RepRapFirmware/src/RepRap.o
 .text._ZNSt17_Function_handlerIFijEZNK6RepRap17GetStatusResponseEh14ResponseSourceEUljE6_E9_M_invokeERKSt9_Any_dataOj
                0x0000e7e8        0xa ./build/./RepRapFirmware/src/RepRap.o
 .text._ZNSt17_Function_handlerIFfjEZNK6RepRap23GetLegacyStatusResponseEhiEUljE0_E9_M_invokeERKSt9_Any_dataOj
                0x0000e7f2        0xe ./build/./RepRapFirmware/src/RepRap.o
 .text._ZNSt17_Function_handlerIFfjEZNK6RepRap23GetLegacyStatusResponseEhiEUljE1_E9_M_invokeERKSt9_Any_dataOj
                0x0000e800       0x18 ./build/./RepRapFirmware/src/RepRap.o
 .text._ZNSt17_Function_handlerIFvjjEZNK6RepRap17GetStatusResponseEh14ResponseSourceEUljjE14_E9_M_invokeERKSt9_Any_dataOjS8_
                0x0000e818       0x24 ./build/./RepRapFirmware/src/RepRap.o
 .text._ZN10ReadLockerD2Ev
                0x0000e83c       0x10 ./build/./RepRapFirmware/src/RepRap.o
                0x0000e83c                ReadLocker::~ReadLocker()
                0x0000e83c                ReadLocker::~ReadLocker()
 .text._ZN15ExpressionValueC2EPK11ObjectModel
                0x0000e84c       0x16 ./build/./RepRapFirmware/src/RepRap.o
                0x0000e84c                ExpressionValue::ExpressionValue(ObjectModel const*)
                0x0000e84c                ExpressionValue::ExpressionValue(ObjectModel const*)
 .text._ZN6RepRapUlPK11ObjectModelR24ObjectExplorationContextE14_4_FUNES2_S4_
                0x0000e862       0x1a ./build/./RepRapFirmware/src/RepRap.o
 .text._ZN6RepRapUlPK11ObjectModelR24ObjectExplorationContextE23_4_FUNES2_S4_
                0x0000e87c        0xe ./build/./RepRapFirmware/src/RepRap.o
 .text._ZN6RepRapUlPK11ObjectModelR24ObjectExplorationContextE22_4_FUNES2_S4_
                0x0000e88a        0xe ./build/./RepRapFirmware/src/RepRap.o
 .text._ZN6RepRapUlPK11ObjectModelR24ObjectExplorationContextE20_4_FUNES2_S4_
                0x0000e898        0xe ./build/./RepRapFirmware/src/RepRap.o
 .text._ZN6RepRapUlPK11ObjectModelR24ObjectExplorationContextE18_4_FUNES2_S4_
                0x0000e8a6        0xe ./build/./RepRapFirmware/src/RepRap.o
 .text._ZN6RepRapUlPK11ObjectModelR24ObjectExplorationContextE24_4_FUNES2_S4_
                0x0000e8b4       0x12 ./build/./RepRapFirmware/src/RepRap.o
 .text._ZN6RepRapUlPK11ObjectModelR24ObjectExplorationContextE8_4_FUNES2_S4_
                0x0000e8c6       0x20 ./build/./RepRapFirmware/src/RepRap.o
 *fill*         0x0000e8e6        0x2 
 .text._ZN6RepRapUlPK11ObjectModelR24ObjectExplorationContextE6_4_FUNES2_S4_
                0x0000e8e8       0x38 ./build/./RepRapFirmware/src/RepRap.o
 .text._ZN6RepRapUlPK11ObjectModelR24ObjectExplorationContextE4_4_FUNES2_S4_
                0x0000e920       0x1c ./build/./RepRapFirmware/src/RepRap.o
 .text._ZN6RepRapUlPK11ObjectModelR24ObjectExplorationContextE12_4_FUNES2_S4_
                0x0000e93c       0x20 ./build/./RepRapFirmware/src/RepRap.o
 .text._ZN6RepRapUlPK11ObjectModelR24ObjectExplorationContextE2_4_FUNES2_S4_
                0x0000e95c       0x2a ./build/./RepRapFirmware/src/RepRap.o
 .text._ZNK4Move17GetGeometryStringEv
                0x0000e986        0xc ./build/./RepRapFirmware/src/RepRap.o
                0x0000e986                Move::GetGeometryString() const
 *fill*         0x0000e992        0x2 
 .text._ZN6RepRapC2Ev
                0x0000e994       0x7c ./build/./RepRapFirmware/src/RepRap.o
                0x0000e994                RepRap::RepRap()
                0x0000e994                RepRap::RepRap()
 .text._ZN6RepRap6TimingE11MessageType
                0x0000ea10       0x54 ./build/./RepRapFirmware/src/RepRap.o
                0x0000ea10                RepRap::Timing(MessageType)
 .text._ZN6RepRap11DiagnosticsE11MessageType
                0x0000ea64       0xa0 ./build/./RepRapFirmware/src/RepRap.o
                0x0000ea64                RepRap::Diagnostics(MessageType)
 .text._ZN6RepRap4SpinEv
                0x0000eb04      0x17c ./build/./RepRapFirmware/src/RepRap.o
                0x0000eb04                RepRap::Spin()
 .text._ZN6RepRap14RunStartupFileEPKc
                0x0000ec80       0x44 ./build/./RepRapFirmware/src/RepRap.o
                0x0000ec80                RepRap::RunStartupFile(char const*)
 .text._ZN6RepRap13EmergencyStopEv
                0x0000ecc4       0x66 ./build/./RepRapFirmware/src/RepRap.o
                0x0000ecc4                RepRap::EmergencyStop()
 .text._ZN6RepRap8SetDebugE6Moduleb
                0x0000ed2a       0x20 ./build/./RepRapFirmware/src/RepRap.o
                0x0000ed2a                RepRap::SetDebug(Module, bool)
 .text._ZN6RepRap10ClearDebugEv
                0x0000ed4a        0x8 ./build/./RepRapFirmware/src/RepRap.o
                0x0000ed4a                RepRap::ClearDebug()
 *fill*         0x0000ed52        0x2 
 .text._ZN6RepRap10PrintDebugE11MessageType
                0x0000ed54       0xa8 ./build/./RepRapFirmware/src/RepRap.o
                0x0000ed54                RepRap::PrintDebug(MessageType)
 .text._ZN6RepRap7AddToolEP4Tool
                0x0000edfc       0x58 ./build/./RepRapFirmware/src/RepRap.o
                0x0000edfc                RepRap::AddTool(Tool*)
 .text._ZNK6RepRap20GetLockedCurrentToolEv
                0x0000ee54       0x20 ./build/./RepRapFirmware/src/RepRap.o
                0x0000ee54                RepRap::GetLockedCurrentTool() const
 .text._ZNK6RepRap7GetToolEi
                0x0000ee74       0x44 ./build/./RepRapFirmware/src/RepRap.o
                0x0000ee74                RepRap::GetTool(int) const
 .text._ZN6RepRapUlPK11ObjectModelR24ObjectExplorationContextE10_4_FUNES2_S4_
                0x0000eeb8       0x2a ./build/./RepRapFirmware/src/RepRap.o
 .text._ZN6RepRap10SelectToolEib
                0x0000eee2       0x3a ./build/./RepRapFirmware/src/RepRap.o
                0x0000eee2                RepRap::SelectTool(int, bool)
 .text._ZN6RepRap10DeleteToolEi
                0x0000ef1c       0xb4 ./build/./RepRapFirmware/src/RepRap.o
                0x0000ef1c                RepRap::DeleteTool(int)
 .text._ZNK6RepRap9PrintToolEiRK9StringRef
                0x0000efd0       0x30 ./build/./RepRapFirmware/src/RepRap.o
                0x0000efd0                RepRap::PrintTool(int, StringRef const&) const
 .text._ZN6RepRap11StandbyToolEib
                0x0000f000       0x4c ./build/./RepRapFirmware/src/RepRap.o
                0x0000f000                RepRap::StandbyTool(int, bool)
 .text._ZNK6RepRap20GetCurrentToolNumberEv
                0x0000f04c       0x12 ./build/./RepRapFirmware/src/RepRap.o
                0x0000f04c                RepRap::GetCurrentToolNumber() const
 .text._ZN6RepRapUlPK11ObjectModelR24ObjectExplorationContextE65_4_FUNES2_S4_
                0x0000f05e       0x14 ./build/./RepRapFirmware/src/RepRap.o
 *fill*         0x0000f072        0x2 
 .text._ZNK6RepRap23GetCurrentOrDefaultToolEv
                0x0000f074       0x24 ./build/./RepRapFirmware/src/RepRap.o
                0x0000f074                RepRap::GetCurrentOrDefaultTool() const
 .text._ZNK6RepRap22IsHeaterAssignedToToolEa
                0x0000f098       0x4c ./build/./RepRapFirmware/src/RepRap.o
                0x0000f098                RepRap::IsHeaterAssignedToTool(signed char) const
 .text._ZNK6RepRap26GetNumberOfContiguousToolsEv
                0x0000f0e4       0x34 ./build/./RepRapFirmware/src/RepRap.o
                0x0000f0e4                RepRap::GetNumberOfContiguousTools() const
 .text._ZNK6RepRap22ReportToolTemperaturesERK9StringRefPK4Toolb
                0x0000f118       0xac ./build/./RepRapFirmware/src/RepRap.o
                0x0000f118                RepRap::ReportToolTemperatures(StringRef const&, Tool const*, bool) const
 .text._ZNK6RepRap25ReportAllToolTemperaturesERK9StringRef
                0x0000f1c4       0x40 ./build/./RepRapFirmware/src/RepRap.o
                0x0000f1c4                RepRap::ReportAllToolTemperatures(StringRef const&) const
 .text._ZN6RepRap29SetAllToolsFirmwareRetractionER11GCodeBufferRK9StringRefRP12OutputBuffer
                0x0000f204       0x26 ./build/./RepRapFirmware/src/RepRap.o
                0x0000f204                RepRap::SetAllToolsFirmwareRetraction(GCodeBuffer&, StringRef const&, OutputBuffer*&)
 .text._ZNK6RepRap15GetCurrentXAxesEv
                0x0000f22a        0x8 ./build/./RepRapFirmware/src/RepRap.o
                0x0000f22a                RepRap::GetCurrentXAxes() const
 .text._ZNK6RepRap15GetCurrentYAxesEv
                0x0000f232        0x8 ./build/./RepRapFirmware/src/RepRap.o
                0x0000f232                RepRap::GetCurrentYAxes() const
 .text._ZN6RepRap21SetPreviousToolNumberEv
                0x0000f23a       0x16 ./build/./RepRapFirmware/src/RepRap.o
                0x0000f23a                RepRap::SetPreviousToolNumber()
 .text._ZN6RepRap4TickEv
                0x0000f250       0x6c ./build/./RepRapFirmware/src/RepRap.o
                0x0000f250                RepRap::Tick()
 .text._ZNK6RepRap19SpinTimeoutImminentEv
                0x0000f2bc       0x10 ./build/./RepRapFirmware/src/RepRap.o
                0x0000f2bc                RepRap::SpinTimeoutImminent() const
 .text._ZN6RepRap16GetFilesResponseEPKcjb
                0x0000f2cc       0xf0 ./build/./RepRapFirmware/src/RepRap.o
                0x0000f2cc                RepRap::GetFilesResponse(char const*, unsigned int, bool)
 .text._ZN6RepRap19GetFilelistResponseEPKcj
                0x0000f3bc      0x150 ./build/./RepRapFirmware/src/RepRap.o
                0x0000f3bc                RepRap::GetFilelistResponse(char const*, unsigned int)
 .text._ZN6RepRap19GetFileInfoResponseEPKcRP12OutputBufferb
                0x0000f50c      0x1ec ./build/./RepRapFirmware/src/RepRap.o
                0x0000f50c                RepRap::GetFileInfoResponse(char const*, OutputBuffer*&, bool)
 .text._ZN6RepRap16AppendFloatArrayEP12OutputBufferPKcjSt8functionIFfjEEj
                0x0000f6f8       0x6c ./build/./RepRapFirmware/src/RepRap.o
                0x0000f6f8                RepRap::AppendFloatArray(OutputBuffer*, char const*, unsigned int, std::function<float (unsigned int)>, unsigned int)
 .text._ZN6RepRap14AppendIntArrayEP12OutputBufferPKcjSt8functionIFijEE
                0x0000f764       0x64 ./build/./RepRapFirmware/src/RepRap.o
