:020000040800F2
:20000000682B00206D020008C10B0008B90B0008BD0B0008410600082D17000800000000AB
:20002000000000000000000000000000791500084506000800000000D90B00089D16000830
:20004000870200088702000887020008870200088702000887020008870200088702000818
:200060008702000887020008870200088702000887020008870200088702000887020008F8
:200080008702000887020008870200088702000887020008870200088702000887020008D8
:2000A0008702000887020008870200088702000887020008870200088702000887020008B8
:2000C000870200088702000887020008870200088702000887020008870200088702000898
:2000E000870200088702000887020008870200088702000887020008870200088702000878
:20010000870200088702000887020008870200088702000887020008870200088702000857
:20012000870200088702000887020008870200088702000800000000000000008702000859
:20014000870200088702000887020008870200088702000887020008870200088702000817
:20016000870200088702000887020008870200088702000887020008870200080000000088
:200180000000000087020008000000000000000087020008000000000000000087020008AC
:2001A00000000000000000000000000087020008870200088702000887020008870200086A
:2001C0008702000800F002F800F040F80AA090E8000C82448344AAF10107DA4501D100F03D
:2001E00035F8AFF2090EBAE80F0013F0010F18BFFB1A43F001031847D04C0000F04C00007C
:20020000103A24BF78C878C1FAD8520724BF30C830C144BF04680C60704700000023002468
:2002200000250026103A28BF78C1FBD8520728BF30C148BF0B6070471FB504F0ECFB9DE8A8
:20024000030000F01FF91FBD10B510BD00F076F91146FFF7F1FF03F055FD00F094F903B410
:20026000FFF7F2FF03BC00F0C5F900000948804709480047FEE7FEE7FEE7FEE7FEE7FEE71C
:20028000FEE7FEE7FEE7FEE704480549054A064B70470000C5160008C50100086807002099
:2002A000682B0020682700206827002070B5064600F0CCF8056806F10B0020F00704B44288
:2002C0009CBF002070BD2B466A68BAB11068A04210D304F1080188423CBF5068586007D37E
:2002E0005168101941601168091B016058601460101D70BD13465268002AE7D1214628462D
:2003000000F0ACF80028DED170BD70B50446051F00F09CF80068002C14BF446870BD002CC2
:2003200018BFAC423CBF20466468F8D301680A18AA4218BF456003D12A68054611440160A6
:2003400028684119A1421CBF6C6070BD6168696021680844286070BD53EA020C00F06980BC
:200360002DE9F04B4FF00006002B1FBFB3FA83F503FA05F424FA05F65E4012BF1643B2FA36
:2003800082F502FA05F4C5F120051EBF22FA05FC44EA0C04203556EA044C4FEA144418BF91
:2003A000641C4FF000084FF00009904271EB030C39D3002919BFB1FA81F701FA07F6B0FA1F
:2003C00080F700FA07F6C7F120071EBF20FA07FC46EA0C062037B6FBF4FCA7EB0507103FAF
:2003E00007F01F0BCBF120060CFA0BFB2CFA06F644BFB3460026202FA4BF5E464FF0000B0A
:200400005BEA060C08BF4FF0010B19EB0B09ABFB027C48EB0608C01B06FB02CC0BFB03CC77
:2004200071EB0C01C1E70B46024641464846BDE8F08B13B54FF000004FF00001AFF3008074
:20044000BDE81C4070477047704770470048704710070020704770477047704738B5044676
:200460000A4600206946AFF30080002808BF38BD02460099204600F03FF8012038BD0120B2
:2004800000F054B8F8B5AFF30080054600200C46102000BF0646A819A0420DD932466946E9
:2004A0000020AFF30080070008BF00F03FF80098A04218BF0546C419FFF7C8FF056007461D
:2004C000F01D20F007004619284600F00AF8B44208BFF8BDA21B31463868BDE8F84000F026
:2004E0000BB800210160C0E901107047102070470048704708070020034640688C46002846
:2005000018BF88423CBF03464068F8D318681844884207D00CF1030020F00700001D411A77
:20052000521A0146081D0A60FFF7EFBE10B500F039F8BDE8104000F02FB870477546FFF7BC
:20054000D7FFAE4605006946534620F00700854618B020B5FFF798FEBDE820404FF000062F
:200560004FF000074FF000084FF0000B21F00701AC46ACE8C009ACE8C009ACE8C009ACE8EE
:20058000C0098D46704710B50446AFF300802046BDE81040FFF763BE002801D000F02AB89A
:2005A0007047000010B5012805D0002103A000F027F8012010BD09A1F8E700005349475242
:2005C000544D454D3A204F7574206F662068656170206D656D6F7279000000003A204865E3
:2005E0006170206D656D6F727920636F727275707465640001491820ABBEFEE72600020081
:2006000070B505460C460A2000E06D1C00F011F835B128780028F8D102E0641C00F009F8C2
:2006200014B120780028F8D1BDE870400A20AFF3008008B569468DF800000320ABBE08BD89
:2006400000BFFEE77047000001490860704700000C3C024030B10749096841F48061054A45
:20066000116005E00349096821F48061014A116070470000003C024070B504460A4600269B
:20068000092502B909E0012A01D1160205E0022A01D1160201E04FF4407600F09FF80546CC
:2006A000092D28D11548006820F440701349086008460068304308600846006820F0F8006F
:2006C00008600846006844F0020108430B4908600846006840F48030086000F07FF805460A
:2006E0000648006820F00200044908600846006820F0F8000860284670BD0000103C02402E
:2007000009201349096801F48031B1F5803F01D101201CE00E49096801F0100109B106203F
:2007200015E00B49096801F4807109B102200EE00749096801F0E00109B1072007E00449A7
:20074000096801F0020109B1082000E0092070470C3C02400348006840F000400149086033
:2007600070470000103C024030B502460C46092500F034F80546092D19D10E48006820F42E
:2007800040700C4908600846006840F4007008600846006840F001000860146000F01EF861
:2007A00005460448006820F0010002490860284630BD0000103C02400548006800F00040A8
:2007C00028B1044802490C390860034808607047103C024023016745AB89EFCD08B509205E
:2007E0000090FFF78DFF009002E0FFF789FF00909DF800000128F8D09DF8000008BD000087
:2008000010B504464148844208D10121084600F0F5F90021012000F0F1F976E03C48844297
:2008200008D10121022000F0E9F90021022000F0E5F96AE03748844208D10121042000F01A
:20084000DDF90021042000F0D9F95EE03248844208D10121082000F0D1F90021082000F027
:20086000CDF952E02D48844208D10121102000F0C5F90021102000F0C1F946E02848844215
:2008800008D10121202000F0B9F90021202000F0B5F93AE02348844208D10121402000F0E6
:2008A000ADF90021402000F0A9F92EE01E48844208D10121802000F0A1F90021802000F06F
:2008C0009DF922E01948844208D10121801500F095F90021A01500F091F916E014488442E3
:2008E00008D10121401500F089F90021601500F085F90AE00F48844207D10121001500F02C
:200900007DF90021201500F079F910BD000002400004024000080240000C0240001002406A
:200920000014024000180240001C024000200240002402400028024010B501460A0ACBB2DA
:20094000054850F82200006901249C40204008B1012010BD0020FCE7204A0008F0B50A4605
:2009600000210023002400BF3DE0012505FA01F3156805EA03049C4234D105684F000326DF
:20098000BE40B543056015794E00B5400668354305601579012D02D01579022D16D18568C1
:2009A0004F000326BE40B543856055794E00B540866835438560456801268E40B543456049
:2009C000456896798E40B6B235434560C5684F000326BE40B543C560D5794E00B540C66889
:2009E0003543C560491C1029BFD3F0BDF0B504460B46200AE1B24E4D2D68012686403543EB
:200A00004B4E35604B4D55F820502D684F000326BE40B543474E56F82060356003F003055D
:200A20004E00B540434E56F8206036683543414E56F8206035603F4D55F82050ED684F001F
:200A40000326BE40B5433B4E56F82060F560394D55F82050ED684F00C3F34116BE40354361
:200A6000344E56F82060F56003F00305012D03D003F00305022D2FD12E4D55F820506D689E
:200A800001268E40B5432B4E56F820607560294D55F820506D68C3F380068E403543254E50
:200AA00056F820607560234D55F82050AD684F000326BE40B5431F4E56F82060B5601D4D29
:200AC00055F82050AD684F00C3F3C106BE403543184E56F82060B56003F00305022D25D199
:200AE000144D55F820502035CE1055F826504E07F70E0F26BE40B5430E4E56F820602036DD
:200B0000CF1046F827500B4D55F820502035CE1055F826504E07F60E02FA06F63543054E1A
:200B200056F820602036CF1046F82750F0BD000030380240204A0008F0B5002300244D07F4
:200B4000ED0E02FA05F3CE1000F1200555F826504E07F70E0F26BE40B543CF1000F1200674
:200B600046F82750CE1000F1200555F8265045EA0304CE1000F1200545F82640F0BD4183CB
:200B8000704701837047000030B5020AC3B231B101249C40054D55F822502C8305E0012450
:200BA0009C40024D55F822506C8330BD204A000842694A404261704700BFFEE700BFFEE726
:200BC0007047000002490143024A1160704700000000FA050CED00E07047000029B1064AA2
:200BE00012680243044B1A6004E0034A12688243014B1A60704700003038024029B1064AAC
:200C000012680243044B1A6004E0034A12688243014B1A60704700001038024029B1064AAB
:200C200012680243044B1A6004E0034A12688243014B1A60704700002038024029B1064A7B
:200C400012680243044B1A6004E0034A12688243014B1A60704700004438024029B1064A37
:200C600012680243044B1A6004E0034A12688243014B1A60704700002438024010B54FF459
:200C80008570FFF759FE08B9012010BD0020FCE710B5002238214FF48570FFF7A7FE10BD80
:200CA00010B50824012000F04DF902E0FF2000F05DF9201EA4F10101CCB2F7D110BD10B5F8
:200CC000002218210420FFF791FE002000F04AFA10BD70B505464FF6FF7401E0601E84B232
:200CE000FF2000F043F9A84201D0002CF6D10CB9FF2070BD0020FCE7F8B5FFF7C9FFFFF786
:200D0000BDFF08B9AA20F8BD00F023F900F0B3F9002504E0FF2000F029F9681C85B20A2D03
:200D2000F8DB142600BF95220021084600F033F90446012C04D0301EA6F101018EB2F2D170
:200D4000002054490870012C75D192E087224FF4D571082000F01FF9012847D1002506E0CB
:200D6000FF2000F003F90DF80500681C85B2042DF6DB9DF8020001287BD19DF80300AA282B
:200D800077D14FF6FE7600BF01220021372000F002F901229107292000F0FDF8044624B105
:200DA000301EA6F101018EB2EED1002E61D0012200213A2000F0EFF800285AD1002506E01B
:200DC000FF2000F0D3F80DF80500681C85B2042DF6DB9DF8000000F0400018B106202D4948
:200DE000087002E004202B49087043E001220021372000F0D0F801220021292000F0CBF8D3
:200E00000446012C18DC0220224908704FF6FE7600BF01220021372000F0BDF80122002166
:200E2000292000F0B8F80446C4B1301EA6F101018EB2EED112E01EE00120164908704FF6F7
:200E4000FE7600BF01220021104600F0A4F8044624B1301EA6F101018EB2F3D12EB101222D
:200E60005102102000F097F810B100200949087000E06BE700BFFFF713FF00F0F6F80548A1
:200E8000007808B100203EE70CB120463BE7AA2039E70000140000202DE9F04106460F4691
:200EA000154619480078062800D07F02012D0CD101223946112000F06EF80446FCB96902E1
:200EC000304600F023F8044619E001223946122000F061F8044600BF4FF40071304600F00E
:200EE00015F8044606F50076681EC0B2051E01D0002CF1D0012200210C2000F04CF8FFF7B7
:200F0000CFFE2046BDE8F0811400002070B504460D46FE20FFF7DDFE08B1012070BD04E0B8
:200F2000FF2000F023F82070641C281EA5F101018DB2F5D1FF2000F019F8FF2000F016F857
:200F40000020EBE710B5044621460420FFF71CFE10BD10B5002219210420FFF747FD002089
:200F600000F0F6F80120FFF7EDFF10BD10B504462146002000F038FAC0B210BD10B50020E7
:200F8000FFF7E0FF00F07DF808B9002010BDFFF787FE0120FAE72DE9F04105460C461746AB
:200FA0004FF00008FFF77CFEFFF7E8FF10B1FF20BDE8F08100F065F808B1FF20F8E745F06E
:200FC0004000FFF7D3FF200EFFF7D0FFC4F30740FFF7CCFFC4F30720FFF7C8FFE0B2FFF734
:200FE000C5FF3846FFF7C2FF0C2D02D1FF20FFF7BDFF4FF01F0800BFFF20FFF7B7FF0646DF
:2010000006F0800030B1B8F10000A8F1010101F0FF08F1D13046CBE770B506460D4600F09F
:2010200030F808B1012070BD2846FFF79FFFFD2D19D0002404E0305DFFF798FF601C84B298
:20104000B4F5007FF7DBFF20FFF790FFFF20FFF78DFFFF20FFF78AFF044604F01F00052829
:2010600001D00220DFE70020DDE710B50721002000F062F910BD10B50721002000F05CF95C
:2010800010BD10B5002406E0FF20FFF76FFFFF2801D1002010BD2046641C4FF6FF718842E6
:2010A000F2D30120F6E700002DE9F04106460F46154620480078062800D07F02012D0CD1C0
:2010C000012239461820FFF766FF04466CBBFE213046FFF7A1FF044627E0164800780128EF
:2010E00009D0012200213720FFF755FF012229461720FFF750FF012239461920FFF74BFF09
:20110000044694B900BFFC213046FFF785FF044606F50076681EC0B2051E01D0002CF2D0D7
:20112000FD210020FFF778FF0446FFF7B9FD2046BDE8F0811400002021B1028842F040028E
:20114000028004E002884FF6BF731A400280704710B50446204600F017F80721204600F0A3
:20116000EBF810BD10B50446054951F82400FFF747FB044951F8240000F05AF810BD0000F4
:2011800018000020444A00081CB504461E4951F824000121FFF752FD1C4830F814001C4926
:2011A00031F8141008431B4931F814100843009002208DF8040000208DF8060003208DF80D
:2011C000050001208DF8070069461348FFF7C6FB124B1A5D124B195D124B53F82400FFF733
:2011E000ABFC0E4B1A5D104B195D0E4B53F82400FFF7A2FC094B1A5D0C4B195D094B53F814
:201200002400FFF799FC1CBD504A00085C4A0008624A0008684A000800000240774A00087D
:201220006E4A000818000020714A0008744A000810B504462448844208D101218014FFF767
:201240000DFD0021A014FFF709FD3CE01F48844208D101210014FFF7E1FC00212014FFF73D
:20126000DDFC30E01A48844208D10121C013FFF7D5FC0021E013FFF7D1FC24E015488442CA
:2012800008D101214014FFF7E9FC00216014FFF7E5FC18E01048844209D101210805FFF7A3
:2012A000DDFC00214FF48010FFF7D8FC0BE00B48844208D101214805FFF7D0FC00214FF425
:2012C0000010FFF7CBFC10BD0030014000380040003C004000340140005001400054014074
:2012E0000246002013890B400BB1012000E0002070470146888970478181704710B500225C
:20130000028802F441520B884C8823438C882343CC8823430C8923434C8923438C89234308
:20132000CC8923431A430280838B4FF2FF74234083830B8A038210BD70B586B005460E4607
:20134000082E15D2DFE806F012100E0C0A08060438240FE030240DE028240BE0202409E06B
:20136000182407E0102405E0082403E0002401E0382400BF00BF45B901210803FFF76EFCB8
:2013800000214FF48050FFF769FC0020ADF804004FF48270ADF806000020ADF80800022026
:2013A000ADF80A000120ADF80C004002ADF80E00ADF810400020ADF812000720ADF814000B
:2013C000084951F8250001A9FFF798FF054951F825000121FFF7B0FEFF21002000F004F869
:2013E00006B070BD444A00082DE9F04104460F46002506E0681CC5B2C82D02DD0020BDE8EF
:20140000F081134951F824000221FFF769FF0028F0D00F4951F824003946FFF76DFF00255E
:2014200005E0681CC5B2C82D01DD0020E7E7084951F824000121FFF753FF0028F1D00449AD
:2014400051F82400FFF755FFC6B23046D7E70000444A000801461C48814201D2002070477B
:201460001A48814201D20820F9E71948814201D21020F4E71748814201D21820EFE7164809
:20148000814201D22020EAE71448814201D22820E5E71348814201D23020E0E7114881427B
:2014A00001D23820DBE71048814201D24020D6E70E48814201D24820D1E70D48814201D23D
:2014C0005020CCE75820CAE7004000080080000800C0000800000108000002080000040809
:2014E000000006080000080800000A0800000C0800000E0801460868704710B5FFF75CF914
:2015000040F2F310FFF7A0F8FFF724F910BD000070B50925FFF750F90020FFF79BF8134C8E
:201520001348844215D210E02046FFF7E3FF401C50B12046FFF78EFF06460221FFF79CF836
:201540000546092D01D003E0241D0A488442EBD300BF0120FFF77EF8FFF7FCF8092D01D101
:20156000002070BD4FF0FF30FBE70000008000080000FF1FFBFF0708704700000CB5002087
:20158000019000904148006840F480303F49086000BF3E48006800F4003000900198401C0F
:2015A0000190009818B90198B0F5A04FF1D13748006800F4003010B10120009001E00020C4
:2015C00000900098012860D130484030006840F080502E49403108602D48006840F4404058
:2015E0002B4908602948083000682849083108600846006840F4004008600846006840F470
:20160000A05008602348091F0860081F006840F08070091F086000BF1C48006800F000704D
:201620000028F9D01A48006840F480301849086000BF1748406800F480300028F9D014488B
:20164000006840F400301249086000BF1048406800F400300028F9D040F205700E490860C1
:201660000A480830006820F003000849083108600846006840F00200086000BF03480830E1
:20168000006800F00C000828F8D10CBD0038024000700040085A4077003C024010B508484E
:2016A0000068401C0649086008460068401C08B9002008600248006800F08CF910BD000060
:2016C0002400002010B51548006840F47000134908601348006840F00100114908600020FE
:2016E0000F49083108600E4800680E4908400C4908600D48091D0860081F006820F48020B1
:20170000091F0860002006490C310860FFF736FF4FF0006001498039086010BD88ED00E0CE
:2017200000380240FFFFF6FE1030002400BFFEE72DE9FC4100F0ABF800F0A1F810B10520E0
:20174000BDE8FC8100F0E8F805460DB12846F7E7002600BF4FF0FF30009001AB04226946DE
:201760002B4801F007FB0446019868B1009800F0FFF805460DB9761C06E0254801F040F968
:2017800002F01EF80620DBE714B901980028E1D100F0E4F801221FA11D4801F06DF9044664
:2017A0001CB102F00DF80720CAE71E4F002600BF4FF0FF30009001AB04226946144801F06F
:2017C000D9FA0446019868B138680099884202D13F1D761C06E00E4801F012F901F0F0FF5E
:2017E0000720ADE714B901980028E1D1084801F007F90DA001F0CDFF10B10BA001F09AFD4F
:2018000009A104A001F0BDFB01F0DAFF002097E7B80400206669726D776172652E62696EC9
:2018200000000000008000086F6C642E62696E0000B500F005F808B9002000BD0420FCE733
:2018400005480068A0F10050B0F5003F01D8002070470220FCE700000080000802460B4638
:201860004FF4F0210020891A984101D3002070470320FCE710B5FFF722FA002010BD10B53E
:20188000FFF746FE08B9002010BD0520FCE710B5FFF733FE002010BD10B501F08DFF08B97C
:2018A000012010BD01220EA1114801F0E5F818B101F086FF0220F4E70D48D0E9042110467C
:2018C000FFF7CCFF30B10A4801F09AF801F078FF0320E6E7064801F093F80020E1E7000087
:2018E0006669726D776172652E62696E00000000B804002070B50648446825460549086008
:201900000146086880F3088800BFA84770BD00000080000808ED00E010B5012208A10C48F0
:2019200001F0AAF804461CB101F04AFF022010BD084809490860FEF73FFF0020F7E7000099
:201940006669726D776172652E62696E00000000B8040020008000083800002010B5FEF74D
:20196000F9FE024801F04CF8002010BDB804002010B50446144800681449884204D81248F8
:2019800000681349884203D2FEF7E4FE062010BD21460D480068FEF7E7FE09280ED10A48BA
:2019A00000680068A04203D0FEF7D4FE0620EEE705480068001D0449086003E0FEF7CAFEB9
:2019C0000620E4E70020E2E738000020FCFF07080080000810B504466420B4FBF0F100FB25
:2019E000114018B908210248FFF7E2F810BD0000000C024010B508210348FFF7C0F800215F
:201A00000820FFF7EBF810BD000C02401CB501210820FFF7E3F801208DF8040002208DF86D
:201A200005000820009069460348FEF797FF08210148FFF7A6F81CBD000C02402DE9F047EA
:201A400004460D4690469946AD1E606B00EB153AC5F3C80605F0070101208840C7B200BFC0
:201A600051460AF1010A204602F01EFC10B10120BDE8F08700BF00BF04F13C00805D384055
:201A800008B1012000E00020484501D10220EFE704F13C00805D784004F13C01885501201F
:201AA000E070A8F10100B0F1000800D1E0E77806000E071EE0D10127701C0646B0F5007F75
:201AC000D9D30026CCE7000070B504460D460020E070401EA0632946204602F0E5FB08B18E
:201AE000042070BD04F23A2002F05FF84AF65521884201D00320F4E70B2214A104F13C009A
:201B000002F01FF908B90120EBE794F83C00E92807D094F83C00EB2803D094F83C00E828D1
:201B200011D103220CA104F1720002F00AF908B90020D6E7052209A104F18E0002F001F9B7
:201B400008B90020CDE70220CBE70000EB769045584641542020200046415400464154336A
:201B600032000000024600E0521C107810B110788842F9D1107870470246891ED069801E33
:201B8000884201D8002070475389106B03FB0100F9E700002DE9F04780460C4604F11A0021
:201BA00002F003F810B10020BDE8F087207800F03F00401E00EB800101EBC0054FF00109B0
:201BC000002621E01849895D081901F0EEFF0746B9F1000F11D0FF2D0BD8384601F054FCE3
:201BE000824629466D1C38F8110001F04DFC824501D00020D8E7B94605E04FF6FF708742D2
:201C000001D00020D0E7761C0D2EDBD3207800F0400038B1B9F1000F04D038F8150008B165
:201C20000020C1E70120BFE7844A00082DE9F04706468A463468BAF1000F0AD1D4F8148045
:201C4000B8F1000F02D0E069404516D84FF0010813E05146304601F01DFE0746022F02D298
:201C60000120BDE8F087781C08B93846F9E7E069B84201D93846F4E7D046A06908B90020FE
:201C8000EFE7207804284ED101224146204601F090FC05460DB1681C08B92846E1E7012356
:201CA0001A4629462046FFF7C9FE8146B9F1020F01D10120D5E7B9F1010F02D14FF0FF3006
:201CC000CFE7BAF1000F02D10220F0710CE0F079022809D108F10100854205D0B068A8EBA4
:201CE0000000B0610320F071F079022869D00AF10100854207D1F06910B1F069401C00E039
:201D00000220F0615DE0F06908B90120F0612A465146304601F02BFC8146B9F1000F50D151
:201D20000120F0614DE00025D04519D108F10105E069A84200D802252946304601F0AAFD32
:201D40000746012F01D0781C08B9384689E73FB16769022F03D3E069B84200D9B8460025EC
:201D6000E5B9454600BF6D1CE069A84204D80225454501D9002074E72946304601F08AFD80
:201D8000074607B909E0012F01D0781C08B9384667E74545E7D1002063E700BF4FF0FF3250
:201DA0002946204602F0E0FA8146B9F1000F08D1BAF1000F05D02A465146204602F0D4FA6D
:201DC0008146B9F1000F0DD16561D4E90610801E814202D8A069401EA061207940F001009F
:201DE000207107E0B9F1010F02D14FF0FF3000E001200546284634E72DE9F34F83B0814649
:201E0000049800680090D9F80000D0F80CA0002500BF684602F038FD83460BF1010018B999
:201E2000062005B0BDE8F08FBBF5803F05D34FEA1B4228466D1C2AF810201FFA8BF4202C99
:201E400003DB2F2C01D05C2C00D111E0802C06DA21467BA0FFF786FE08B10620E1E7FF2DD3
:201E600001D30620DDE728466D1C2AF81040D0E700BF202C01DA04260CE0002602E00098E8
:201E8000401C0090009800782F28F8D0009800785C28F4D000990498016008E0681E3AF899
:201EA0001040202C02D02E2C00D002E06D1E002DF4D100BF00202AF815000DB90620B0E792
:201EC000002700E07F1C3AF817002028FAD01FB93AF817002E2801D146F0030600E06D1E12
:201EE00025B1681E3AF810002E28F8D10B22202109F1400001F044FF4FF00008CDF80880B5
:201F00000820019000BF38467F1C3AF8104004B96AE0202C03D02E2C04D1AF4202D046F060
:201F20000306F0E7DDE90110884201D2AF4216D101980B2802D146F0030655E0AF4201D0A0
:201F400046F00306AF4200D94EE02F46082002900B2001904FEA88604FEA1068D3E7802C27
:201F60000EDB46F0020640F2B511204601F06CFA044604F0800018B104F07F0033490C5CA7
:201F8000FF2C11DD0198401E0299884204D846F0030601980290B6E722120298411C02912B
:201FA00009F140010A5418E024B1214628A0FFF7D9FD18B15F2446F003060EE0412C03DBFC
:201FC0005A2C01DC48F00208612C06DB7A2C04DC48F00108A4F1200084B20298411C0291B2
:201FE00009F140010C548EE700BF99F84000E52802D1052089F840000198082803D14FEAA5
:020000040800F2
:2020000088604FEA106808F00C000C2803D008F00300032801D146F0020606F0020048B9ED
:2020200008F0010008B146F0100608F0040008B146F008064B2000F809600020F1E60000E6
:20204000222A3A3C3E3F7C7F00000000914A00082B2C3B3D5B5D00002DE9F04704460E46F1
:2020600040220021204601F08BFE85202070C02084F8200040250020804607464FF001096B
:2020800000BFC12228466D1C2254002228466D1C225400BFB9F1000F06D036F81700B0F16E
:2020A000000901D0781CC7B26019494602F02FFBAD1C05F01F000028ECD108F1010000F069
:2020C000FF0836F817000028DBD184F8237008F101006070304602F078FC8246514604F1D7
:2020E000240002F014FBBDE8F087014609B1002070470020FCE72DE9F04104460E46D4F813
:2021000000800021204600F0A2FB05465DBB002700BF4046A16B02F0C7F8054605B121E09D
:2021200098F80000042805D1E06B0078012121EAD01009E0E06B0078E52802D0E06B0078EF
:2021400008B9012000E0002020B1781C0746B04201D107E000270121204600F041F905461C
:20216000002DD6D000BF042D00D107252846BDE8F0812DE9F04704468946204602F05EFB04
:2021800010B10120BDE8F08749462046FFF7F4FC0746A7634FF40072002104F13C0001F017
:2021A000EFFD60894FF40041B1EB402F01D8084601E06089400206464FF0000800E0760897
:2021C000B6F5007F05D9304601F032F9B0F10008F5D0B6F5007F17D932460021404601F0CD
:2021E000CFFD760A002500E035446089A84207D97A1960783346414600F0D6FB0028F3D04B
:20220000404601F01BF910E004F13C080126002500E035446089A84207D97A1960783346CE
:20222000414600F0C1FB0028F3D06089A84201D00120A7E70020A5E72DE9F04F85B00446AD
:2022400025680021204600F002FB07461FB1384605B0BDE8F08F287804284CD1E86802F0DE
:20226000B4FB01903EE0296901F1240001F09DFC0199884200D035E0286990F823000390B6
:202280004FF0400A002002901FE00AF01F0008B90AF1020A296901EB0A0001F086FC009098
:2022A00001F0F2F88346EA68029932F8110001F0EBF8834500D00BE00398401EC0B20390FD
:2022C0000AF1020A0298401C029003980028DCD100BF039828B9E968029831F8100000B9E7
:2022E00006E000BF0021204600F0EAF8071EBAD000BF3846ACE74FF0FF09CDF810904FF076
:20230000FF30E06400BF2846A16B01F0CDFF074607B162E0E06B06780EB904275DE0E06BCA
:20232000C07A00F03F0884F80680E52E05D008F0080040B1B8F10F0F05D04FF0FF094FF02F
:20234000FF30E06442E0B8F10F0F22D14B20005D00F04000A0BB06F0400038B1E06B407BB6
:20236000049006F0BF06B146206BE0644E450CD1E06B417B0498814207D1E16BE868FFF708
:2023800009FC10B1A9F1010000E0FF2000F0FF091CE0B9F1000F06D1E06B02F0F7F904998F
:2023A000884200D119E04B20005D00F0010040B90B2204F14001E06B01F0C3FC08B90CE0CC
:2023C00004E04FF0FF094FF0FF30E0640021204600F006F80746002F95D000BF384637E76F
:2023E0002DE9F041044688462768206B00F120063878042801D1800601E04FF40010B042F3
:2024000001D80020A063A06B10B90420BDE8F081C6F3080000284AD1A06B401CA063606B79
:2024200038B93889B0EB561F41D80020A0630420ECE77889401E00EA5620002837D1204652
:20244000616B01F027FA0546012D01D80220DDE7681C08B90120D9E7F869A84221D8B8F153
:20246000000F03D10020A0630420CFE72046616BFFF7DCFB05460DB90720C7E7012D01D197
:202480000220C3E7681C08B90120BFE729463846FFF76FFE08B10120B8E7E07940F004000E
:2024A000E071656329463846FFF766FBA0632663C6F3080107F13C000844E0630020A5E702
:2024C0002DE9F05F04468A46042627684FF0FF09CB4667E03846A16B01F0E6FE064606B1C3
:2024E00063E0E06B05780DB904265EE0387804280FD100BF852D4ED1206BE064204601F031
:202500007AFB064626B93869007900F03F00A0714BE0E06BC07A00F03F0884F80680E52DC6
:202520000AD02E2D08D028F02000082801D1012000E00020504502D04FF0FF092BE0B8F1D1
:202540000F0F1CD105F0400038B1E06B90F80DB005F0BF05A946206BE0644D450BD1E06B92
:20256000407B584507D1E16BF86801F0B7FE10B1A9F1010000E0FF2000F0FF090BE0B9F1F1
:20258000000F04D1E06B02F001F9584502D04FF0FF30E06409E000212046FFF721FF06462D
:2025A00006B102E0A06B002894D100BF0EB10020A0633046BDE8F09F2DE9F04F99B00446B7
:2025C00026684B20005D00F0A00018B1062019B0BDE8F08F4FF0000B01E00BF1010BF068AE
:2025E00030F81B000028F8D13078042866D10BF10E000F21B0FBF1F000F1020949462046E5
:20260000FFF779FD05460DB12846E0E7A9F101002022216B02FB1010E064E07900F00400F9
:20262000002845D0E07920F00400E071204600F083FF05460DB12846C9E74FF0FF322046CA
:20264000616B00F094FF05460DB12846BFE7A06870B32146684601F0AEFA05460DB12846BE
:20266000B5E770894002D4E90431181841F10001C4E90401D4E90473316901F138003A4604
:2026800002F017F8D4E90473316901F128003A4602F00FF8E07940F00100316981F821001A
:2026A000684602F03AF805460DB128468FE700BFD6E90310FFF7D0FC002088E70C2204F156
:2026C000400115A801F04FFB9DF85F0000F0010028B340214B2001554FF0010A0EE053460E
:2026E00015A904F14000F26801F06EF82046FFF7A3FD054605B104E00AF1010ABAF1640F31
:20270000EDD300BFBAF1640F01D107205FE7042D01D028465BE79DF85F104B2001559DF8D1
:202720005F0000F0020030B10BF10C000D21B0FBF1F0401C00E00120814649462046FFF796
:20274000DAFC054675BBA9F10100B0F1000929D0206BA0EB4911204600F079F805460DBBA0
:2027600004F1400002F012F8149000BF3046A16B01F09AFD054605B113E009F0FF02E16B81
:20278000F068149B01F092FE0120F07000212046FFF726FE054625B9A9F10100B0F1000921
:2027A000E4D100BFC5B93046A16B01F07DFD054695B920220021E06B01F0E2FA0B2204F104
:2027C0004001E06B01F0CFFA4B20005D00F01800E16B08730120F0702846F8E62DE9F04108
:2027E00004462668276BE06C401C08B9002003E02046E16C00F02BF805462DBB00BF3046D5
:20280000A16B01F051FD054605B119E03078042806D1E06B007800F07F00E16B087002E0F0
:20282000E520E16B08700120F070206BB84200D306E000212046FFF7D3FD0546002DDED09D
:2028400000BF042D00D102252846BDE8F0812DE9F04104460D4626683078042801D180066E
:2028600001E04FF40010A84202D905F01F0010B10220BDE8F0812563A7682FB93078032800
:2028800002DBF76A0020E07147B93089B0EB551F01D80220EDE7F06AA0631CE070894FEA67
:2028A000402811E03946204600F0F4FF0746781C08B90120DDE7022F02D3F069B84201D83E
:2028C0000220D6E7A5EB08054545EBD239463046FFF752F9A0636763A06B08B90220C8E795
:2028E000A06B00EB5520A063C5F3080106F13C000844E0630020BCE770B50446002504E0AC
:2029000001200D494855681CC5B2022DF8DB14B1012C0BD109E0FEF7EFF928B90648005D86
:2029200020F001000449085502E001E0042070BD00BF0148005DFAE72800002003460BB92D
:20294000002070470420FCE72DE9F04104460E4617461D4615B90420BDE8F0810C48005D3B
:2029600000F0010008B10320F6E714B1012C0CD109E0EAB239463046FEF78EFA08B9002006
:20298000EAE70120E8E70120E6E70420E4E70000280000200146022901DB012070470148E2
:2029A000405CFBE7280000202DE9F04104460E4617461D4615B90420BDE8F0810F48005DF0
:2029C00000F0010008B10320F6E70C48005D00F0040008B10220EFE714B1012C0CD109E03F
:2029E000EAB239463046FEF75FFB08B90020E3E70120E1E70120DFE70420DDE7280000204C
:202A000038B50546284600F0BFFB04463CB96946284601F09FFF04460CB90020286020465E
:202A200038BD0000F7B582B016460398019001A800F0F8FF0546002D02DA0B2005B0F0BDCA
:202A40000C4850F825400CB100202070029810B10020029908700749029841F825000EB96B
:202A60000020EBE7002202A903A801F0E3F907463846E3E72C0000202DE9F74F98B0044650
:202A800016461CB909201BB0BDE8F08F06F03F06324603A919A801F0CDF90546002D7AD153
:202AA000039804904FF48C6000F0C2FC8346BBF1000F01D11120E6E70398C0F80CB00BF5A7
:202AC00000700399086104A8199900F000FE05462DB99DF85B0000F0800000B1062506F0D2
:202AE0001C0000287DD045B1042D03D104A8FFF763FD054646F008060AE09DF8160000F034
:202B0000110008B1072503E006F0040000B10825002D3FD106F0080000283BD00398007883
:202B2000042839D1039820602146039800F0D4FF03990969881C1E22002101F021F90399C5
:202B4000096901F126001A22002101F019F920200399096908710399096901F108008449EF
:202B600001F09BFD01200399096981F8210004A801F0D3FD0546002D53D1A068002850D0AA
:202B800000222046A16801F0D1FC0546A068401E0399486145E0E5E01399039800F0B5FF1B
:202BA0000290139901F10E00714901F076FD20201399C87200221399039801F05CFD139934
:202BC00001F11C00002101F068FD01200399C870029830B30398806B0190002204A802997E
:202BE00000E00DE001F0A2FC0546D5B90199039801F05AFB05460298401E0399486110E0AD
:202C00007DB99DF8160000F0100008B1042508E006F0020028B19DF8160000F0010000B1EB
:202C200007254DB906F0080008B146F040060398806BA0641398E064002D7BD1039800782A
:202C400004280FD106982062089820F0FF009DF81710084360621798A0622146039800F02D
:202C60003BFF0CE01399039800F04FFFA060139901F11C0000F05CFF0021C4E90401039836
:202C800020600398C088A08084F83060002084F8310060640021A163E1634FF4007204F101
:202CA000500001F06DF806F02000002857D00023D4E9041059405840014350D0D4E90401BE
:202CC000C4E90E01039840894FEA4029D4F808A0D4E9047810E05146204600F0DBFD824608
:202CE000BAF1010F00D802250AF1010000B90125B7EB090768F100082DB90020B9EB07017A
:202D000070EB0800E7D3C4F840A09DB94FF40072002338464146FDF71FFB00214A404B4083
:202D20001A431CD051460398FEF726FF0190019808B9022513E04FF400720023384641461C
:202D4000FDF70AFB019908446064626C03994878012304F15001FFF7F7FD00B101255846DD
:202D600000F06CFB0DB10020206028468BE600000000214E2DE9FF4F87B004461546089870
:202D8000039000210A98016005A9204601F0E2FD0690069818B994F83100069018B10698D9
:202DA0000BB0BDE8F08F94F8300000F0010008B90720F5E7D4E90430D4E90E125F1A60EB31
:202DC0000208791B78F1000000D23D46D4E0D4E90E014FF400720023CDE90001FDF7BCFADE
:202DE00000214A404B401A4370D1D4E90E014FF400720023CDE90001FDF7AEFA0599498998
:202E0000491E00EA010ABAF1000F1ED10023D4E90E1059405840014302D1A068049004E0E7
:202E20002046216C00F036FD04900498022803D2022084F83100B3E70498401C18B90120FA
:202E400084F83100ACE704982064216C0598FEF793FE8146B9F1000F03D1022084F831003F
:202E60009EE7D1444FEA552BBBF1000F2FD00AEB0B0005994989884203D905984089A0EB3E
:202E80000A0B059948785B464A460399FFF75CFD18B1012084F8310082E794F8300000F0F7
:202EA000800080B1606CA0EB090058450BD2616CA1EB0901039A02EB41204FF4007204F18F
:202EC000500100F050FF4FEA4B2645E029E0606C484524D094F8300000F0800090B1626C02
:202EE00005994878012304F15001FFF75DFD18B1012084F8310053E794F8300000F07F00BE
:202F000084F830000599487801234A4604F15001FFF71AFD18B1012084F8310040E7C4F826
:202F20004490208FC0F30800C0F50076AE4200D92E46D4E90E014FF400720023CDE9000190
:202F4000FDF70AFA04F150001044324601460290039800F008FF00BFAD1B0A9800688119D2
:202F60000A980160039830440390D4E90E20921940F10000C4E90E20002D7FF428AF002073
:202F80000EE72DE9F347BAB03BA800F04BFD022211A93AA800F04EFF0446002C7DD11198FD
:202FA00026904FF48C6000F043FA06461EB911203CB0BDE8F0871198C66006F500701199BF
:202FC000086126A83A9900F082FB04462CB99DF8E30000F0A00000B10624002C7BD1119847
:202FE000007804285DD111984022016901A800F0BAFE502226A912A800F0B5FE12A83B990D
:2030000000F065FB04465CB928991498884205D132991E98884201D1042000E00820044661
:20302000042C3DD112A8FFF7C7FA0446B4BB1198006990F801801198006990F82390119916
:20304000096901F1240000F0B0FD824611994022086901A900F087FE1198006980F80180DC
:203060001198006980F823901199096901F12400514601F04CFB11980069007900F0100087
:2030800038B911980069007940F0200011990969087112A801F041FB01E072E000E004468B
:2030A00062E0202201A8359900F05DFE502226A912A800F058FE12A83B9900F008FB0446BE
:2030C00064B928991498884206D132991E98884202D1042001E051E008200446042C43D1BB
:2030E00012A8FFF769FA04464CBB219D13220DF1110105F10D0000F036FE9DF80F00E87244
:20310000E87A00F0100018B9E87A40F02000E87201201199C870E87A00F0100078B1149935
:203120002898884220D02946119800F0EEFC804641461198FEF720FD07460FB9022413E0ED
:203140003946119801F0B0F80446119800F15C0554B968782E2807D12946149A119801F097
:203160008AFA01201199C87044B926A8FFF736FB04461CB9119801F019FB0446304600F059
:203180005DF9204614E700002DE9F04796B0044614A9204601F0DEFB0546002D7ED194F85B
:2031A000300000F04000002878D094F8300000F0800090B1626C14994878012304F150012D
:2031C000FFF7F2FB18B1012016B0BDE8F08794F8300000F07F0084F83000DFF854A11498F1
:2031E0000078042875D1204600F0A6F9054635B94FF0FF322046216C00F0B9F90546002D3A
:20320000CCD14FF48C6000F013F98146B9F1000F01D11120D8E71498C0F80C9009F5007036
:20322000149908612146684600F0C5FC0546002D4AD114980069007940F020001499096922
:203240000871E07940F001001499096981F82100A168149A126902F1340001F01EFAD4E993
:2032600004731499096901F138003A4601F021FAD4E904731499096901F128003A4601F024
:2032800018FA1499096901F10C00514601F005FA0020149909694875149900E045E0096958
:2032A00001F11000002101F0F8F9684601F035FA05464DB9149801F079FA054694F83000D3
:2032C00000F0BF0084F83000484600F0B7F82CE0FFE7A16C149800F0E7FF05462DBBE66C60
:2032E000F07A40F02000F0723146A268206801F0C2F906F11C00216901F0CFF9514606F119
:20330000160001F0CAF9002106F1120001F0FFF901201499C870149801F048FA054694F814
:20332000300000F0BF0084F8300028464CE700000000214E71B5B7B0002602220DA937A886
:2033400000F078FD0446002C70D10D9822904FF48C6000F06DF8054615B9112038B070BD17
:203360000D98C56005F500700D99086122A8379900F0ADF9044600BF002C54D19DF8D30018
:2033800000F0800008B1062405E09DF88E0000F0010000B10724A4BB0D9800900D98007854
:2033A000042805D169460D9800F096FB029E04E031990D9800F0A9FB06469DF88E0000F050
:2033C0001000F0B10D980E9010960D980078042807D1DDE90401CDE912019DF807008DF87D
:2033E0003F0000210EA8FFF732FA04464CB900210EA8FFF765F8044604B90724042C00D1E9
:20340000002484B922A8FFF7E9F9044634B92EB100223146684601F089F804461CB90D9816
:2034200001F0C4F90446284600F008F8204695E710B504462046FCF739FF10BD10B50446D8
:203440002046FCF762FF10BD10B5024600200D4B802A01D290B213E0B2F5803F10D240F234
:20346000B514A1420CD1002001E0441CA0B2802803DA33F810409442F7D100F18004E0B26B
:2034800010BD0000124B000870B5B0F5803F4DD281B2B1F5805F01DA254E00E0254E324681
:2034A00000BF32F8023B0BB1994200DA3CE032F8024B2512E4B21E198E4230DD092D2CD2CD
:2034C000DFE805F005090F13171B1F232700CE1A32F8161021E0CE1A06F001068E1BB1B23B
:2034E0001BE0A1F11006B1B217E0A1F12006B1B213E0A1F13006B1B20FE0A1F11A06B1B292
:203500000BE001F10806B1B207E0A1F15006B1B203E0A1F5E356B1B200BF00BF04E0002D87
:20352000BFD102EB4402BCE700BF084670BD0000124C0008044E00082DE9F0410446E07941
:20354000032812D1A568A7690BE06A1C2946206800F00AFF064616B13046BDE8F0816D1CB7
:203560007F1E002FF1D10020E0710020F5E72DE9F04104460D46174616E0E369012B03D9C5
:20358000E369EB1A9B1C00E03B461A46E369EB1A591C206800F0E8FE064616B13046BDE810
:2035A000F081E069401EE061E0690028E5D100BFF5E72DE9F74F05460E46B61EE869801E32
:2035C000B04200D800263446A2464FF0000B00BF686B00EB1431284600F066FE18B14FF0C3
:2035E000FF30BDE8FE8FC4F3C80904F0070101208840C7B200BF00BF05F13C0010F80900C3
:2036000000EA07087806070E601C0446E969891E884203D3002400274FF40079B8F1000F00
:2036200008D10BF1010083460299884205D10AF10200D6E7A2464FF0000BB44201D10020DC
:20364000CFE7002FD8D1012709F101008146B0F5007FD0D3BCE72DE9FF4107460D46002171
:203660003846FEF731FA0646022E06D0032E00D21DB9304604B0BDE8F08100BF00240AE074
:2036800007F5FD7101EB041101F1080000F050FA4DF82400641C042CF2D30DB1681E00E089
:2036A0000020044600BF5DF8240028B15DF824103846FEF709FA00E0032006462DB9022E2B
:2036C00003D3601C04460428EDD33046D2E72DE9F3410446276802E00198401C019001980F
:2036E00000782F28F8D0019800785C28F4D00020A060E06101980078202808D280214B203A
:20370000015500212046FFF7A2F805463EE000BF01A92046FEF770FB054605B135E0204628
:20372000FEF78AFD05464B20065D3DB1042D04D100BF06F0040000B9052526E006F0040064
:2037400000B122E0A07900F0100008B905251CE0387804280ED1A0682062206920F0FF00D9
:20376000E17908436062E06CA0622146384600F0B3F909E0208EC0F3080207F13C00111862
:20378000384600F0C2F9A060C2E700BF2846BDE8FC8110B5ADF5147D04460022214668468F
:2037A000FFF76AF930B96846FFF72AF901200DF5147D10BD0020FAE710B500F02BFB10BDD6
:2037C00010B501F0B9F810BD2DE9FF4F83B0804691461E460B224046049900F0C4FA052EEC
:2037E00018D9374611E039F802BB00250BE0584667F35F0007464FEA6B0B07F4803008B1B5
:20380000234847406D1C102DF1D3B9F800000028E9D13E46072500BF06F00F0000F1300AFA
:20382000BAF1390F03DD0AF1070000F0FF0A28466D1E01A901F800A03609002EECD17E20B6
:20384000485500240AE018F80400FEF74EFC20B1681EA04200D107E0641C641CAC4203D2B6
:2038600018F804002028EED100BF00BF082D04D228466D1C01A9085C00E020202146641C98
:2038800008F80100082CF1D307B0BDE8F08F0000211001002DE9FC5F06460C463568022C48
:2038A00002D3E869A04202D84FF00109B7E04FF0FF392878012806D0022830D0032841D0CA
:2038C00004287CD152E0274607EB5707A86A00EB5721284600F0E8FC00B19FE038467F1C80
:2038E000C0F3080105F13C0010F80180A86A00EB5721284600F0D8FC00B18FE0C7F30801C7
:2039000005F13C00405C48EA002804F0010010B14FEA181001E0C8F30B0081467EE0A86A8A
:2039200000EB1421284600F0BFFC00B176E040F2FF1101EA440205F13C01501800F035F91B
:2039400081466BE0A86A00EBD411284600F0ACFC00B163E040F2FF1101EA840205F13C0193
:20396000501800F0E5F820F0704957E00022D6E9041051405040014301D0B06808B9F079A5
:2039800090BBB068A4EB000AD6E90420521E60F10000CDE900204FF400720023DDE9000112
:2039A000FCF7DAFC6989B0FBF1FBF07902280AD1DA4508D8DA4503D16FF0004001E02AE0CB
:2039C000601C81462AE0F079032805D1B069504502D904F1010921E0F079022819D0F069D2
:2039E00018B16FF0004913E014E0A86A00EBD411284600F059FC00B110E040F2FF1101EA0C
:203A0000840205F13C01501800F092F820F0004904E000BF00BF4FF0010900BF00BF4846FB
:203A2000BDE8FC9FF0B506464FF0FF30D6F800C06146634601B9F0BD00BF13F8012B202A62
:203A400001D33A2AF9D13A2A40D1022591F800C0BCF1300F0DDB91F800C0BCF1390F08DC89
:203A600001F1020C9C4504D191F800C0ACF1300527E0002500BFDFF85CC05CF82570316815
:203A800000BF17F8014B11F8012B612C05DB7A2C03DCA4F1200C0CF0FF04612A05DB7A2A16
:203AA00003DCA2F1200C0CF0FF020CB19442E8D00CB9994205D005F1010C6546BCF1020F3F
:203AC000D9DB022D01DA28463360B4E7002000BFB1E700007C4A000870B505460C462969F3
:203AE00001F1340000F024F8A060296901F1380000F02AF8C4E90401286990F8210000F0EA
:203B00000200E0710020E06170BD70B505460C4604F11A0000F049F806462878032805D1D5
:203B200004F1140000F041F846EA0046304670BD0146C8788A7842EA00204A7842EA002057
:203B40000A7842EA0020704770B50246D3790024250245EA1364907940EA0323250245EA87
:203B60001364507940EA0323250245EA1364107940EA0323250245EA1364D07840EA0323AA
:203B8000200240EA1364917841EA0323210241EA1364507840EA0323250245EA13641178D5
:203BA00041EA03231846214670BD014648780A7842EA0020704770B504460D462868206064
:203BC000286AA06095F82400E071686A20F0FF000021C4E904010020E061A86AE064204680
:203BE000E16CFEF734FE06461EB9204600F003F80646304670BD2DE9F04704462068066960
:203C0000A16B206800F050FB054615B12846BDE8F087E06B0078852801D00220F7E72022B7
:203C20003046E16B00F09FF87078401C4FEA4018B8F1600F02D3B8F5187F01D90220E6E76C
:203C400000212046FEF7CCFB0546042D00D102250DB12846DBE7A16B206800F025FB0546D0
:203C60000DB12846D3E7E06B0078C02801D00220CDE7202206F12000E16B00F074F896F87D
:203C800023002C300F21B0FBF1F0B8EB401F01D20220BCE7402700BF00212046FEF7A0FB12
:203CA0000546042D00D102250DB12846AFE7A16B206800F0F9FA05460DB12846A7E7E06B07
:203CC0000078C12801D00220A1E7B7F5187F04D2F0192022E16B00F046F807F120000746C5
:203CE0004045D9D3B7F5187F0AD8304600F050FE8146B01CFFF759FF814501D0022086E7B3
:203D0000002084E74FF4A060FCF75CFF00F04CF8FDF77CFEFDF7C0FD00B108E0FDF708FDA2
:203D200000B104E0FDF784FD00B100E000BFFDF7A1FD00F02EF8FDF75DFEFDF7DBFD00BFA7
:203D4000FEE7F0B503461D460C46002000BF15F8017B14F801CBA7EB0C00561E321E01D068
:203D60000028F4D0F0BD30B503460C463AB100BF14F8015B03F8015B551E2A1EF8D130BD50
:203D800010B5034600BF03F8011B541E221EFAD110BD4FF0E020006920F003004FF0E021FA
:203DA000086100207047000030B5174800684FF47A72B0FBF2F1481EB0F1807F01D301205F
:203DC0001BE0481E4FF0E022506150170F22002807DA13071D0E0D4B00F00F04241F1D559A
:203DE00003E013071C0E0A4B1C5400BF00204FF0E022906107201061002010B14FF0FF30DF
:203E000030BD0020FCE700000000002018ED00E000E400E010B5012204A10548FEF702FE1A
:203E200008B9012010BD0020FCE7000053443A003C0000202DE9F74F8CB000210D980160E4
:203E40000C98FFF7EFFD0A900A98002803DA0B200FB0BDE8F08FFE490A9851F820400CB936
:203E60000C20F5E70D9804600E9800F0FE000E90207878B16078FEF78DFD83460BF0010022
:203E800040B90E9820B10BF0040008B10A20DFE70020DDE7002020700A9860706078FEF737
:203EA0002BFD83460BF0010008B10320D0E70E9820B10BF0040008B10A20C9E700212046F2
:203EC000FFF7C9FB0746042F01D10120C0E7022F01D30D20BCE7A56B012F76D14FF00B095F
:203EE00001E009F10109B9F1400F05D204F13C0010F809000028F4D0B9F1400F01D20D20E6
:203F0000A6E704F1A400FFF750FEB0F5807F01D00D209DE794F8A81001208840B0F5007FC0
:203F200001D00D2094E704F18400FFF70DFE03460846591940F10000CDE90410DDE90410B0
:203F4000091E70F1010001D30D2081E704F19000FFF7EEFD206294F8AA00A070A078012800
:203F600001D00D2074E794F8A910012088406081608908B90D206BE704F19800FFF7D8FD58
:203F80000646B4498E4201D90D2061E7B01CE061656204F19400FFF7CBFD2844206304F1BA
:203FA0008C00FFF7C5FD2844A0624FF0000C608900FB06F1226B53184CEB0C01DDE9042003
:203FC000D21A884102D20D2042E76CE004F19C00FFF7AEFDE06200208146039000BFB9F15F
:203FE000000F16D161890398814201D80D202FE72046E16AFDF7C0FD039908440146019045
:020000040800F2
:20400000204600F051F908B1012021E70398401C039004F13C0010F80900812800D104E0F4
:2040200009F12000C0F30809D9E700BF04F13C01494401F11400FFF77BFD8046B8F1020F70
:2040400002D3E069404501D80D2001E76289A8F10200216B02FB0010606300BFA06A00EB39
:20406000D811204600F020F908B10120F0E608F07F0104F13C0202EB8100FFF759FD029041
:204080000298401C00B907E008F10100804602998842E3D00D20DBE600BF4FF0FF30A06196
:2040A00060610427F0E004F14700FFF77EFDB0F5007F01D00D20CBE604F15200FFF775FD15
:2040C0008246BAF1000F04D104F16000FFF730FD8246C4F820A04C20005DA070A0780128B3
:2040E00004D0A078022801D00D20B1E6A0780AFB00FA4920005D6081608918B16089411E5D
:20410000084008B10D20A3E604F14D00FFF74DFD2081207A00F00F0008B10D2098E604F1D3
:204120004F00FFF742FD0990099820B904F15C00FFF7FEFC099004F14A00FFF736FD069010
:20414000069808B90D2083E606985044218900EB11100890DDE90801814201D20D2077E6FB
:20416000DDE90810401A6189B0FBF1F60EB90D206EE600273848864200D803274FF6F57028
:20418000864200D8022740F6F570864200D801270FB90D205CE6B01CE061656206982844DE
:2041A000A062089828442063032F13D104F16600FFF7FBFC08B10D204AE6208908B10D206B
:2041C00046E604F16800FFF7B3FCE062E0698000079014E0208908B90D2039E6A06A5044C7
:2041E000E062022F02D1E069400007E0207F00F00100E16901EB410100EB51000790216AA3
:20420000079800F2FF10B1EB502F01D20D201FE64FF0FF30A061606180202071032F33D147
:2042200004F16C00FFF7C1FC01282DD1691C204600F03AF840BB0020207104F23A20FFF744
:20424000B4FC4AF6552188421ED104F13C0005E02C000020FDFFFF7FF5FFFF0FFFF768FC07
:204260000E49884210D104F50870FFF761FC0C49884209D104F50970FFF75AFCA06104F5C7
:204280000A70FFF755FC6061277006480088401C80B204490880E0800020D9E55252614148
:2042A000727241613400002070B504460D460026A06BA84210D0204600F0C0FA06465EB9F4
:2042C000607801232A4604F13C01FEF73DFB10B14FF0FF350126A563304670BD2DE9F047C0
:2042E00080460C4604F11A00FFF75FFC10B10020BDE8F087207820F04000401E00EB800197
:2043000001EBC0054FF00109002619E01549895D0819FFF74AFC0746B9F1000F09D0FF2DD8
:2043200001D90020E4E7B94628466D1C28F8107005E04FF6FF70874201D00020D8E7761C7E
:204340000D2EE3D3207800F0400048B1B9F1000F06D0FF2D01D90020CAE7002028F81500F0
:204360000120C5E7844A00082DE9F04704460D4616464FF00209022D77D3E069A84274D911
:204380002078012806D002284BD0032861D004280DD15FE02F4607EB5707A06A00EB57216A
:2043A0002046FFF781FF8146B9F1000F00D079E038467F1CC0F3080104F13C0001EB00087E
:2043C00005F0010028B1F1B298F8000061F31F1000E0304688F800000120E070A06A00EB1C
:2043E00057212046FFF760FF8146B9F1000F00D058E0C7F3080104F13C0001EB000805F025
:20440000010010B1C6F3071006E098F8000000F0F000C6F30321084388F800000120E0709B
:2044200040E0A06A00EB15212046FFF73DFF8146B9F1000F00D035E0B1B240F2FF1202EAA2
:20444000450304F13C02981800F061F90120E07028E000BFA06A00EBD5112046FFF724FF55
:204460008146B9F1000F01D01CE01CE0207804280BD040F2FF1101EA850204F13C01501806
:20448000FFF756FB66F31B00064640F2FF1101EA850204F13C015018314600F0FEF8012049
:2044A000E07000BF00BF4846BDE8F0872DE9F04707460C461546984684F80D800F20E072D5
:2044C00000202073002104F11A0000F020F9681E00EB800101EBC00900200646824600BF56
:2044E0004FF6FF70864204D0484609F1010937F810600D4911F80A100819314600F007F93A
:204500000EB94FF6FF760AF1010082460D28E7D34FF6FF70864202D037F8190008B945F0DB
:2045200040052570BDE8F087844A00082DE9F05F06460F4690464FF000093568BA46BB46ED
:20454000022F02D3E869B84202D80220BDE8F09FB8F1000F11D02878042802D1F07902280F
:204560000BD04FF0FF3241462846FFF7FDFE8146B9F1000F01D04846E8E700BF39463046A8
:20458000FFF788F9044604B93EE0012C01D10220DCE7601C08B90120D8E7287804280AD0D8
:2045A000002239462846FFF7DFFE8146B9F1000F01D04846CAE7D5E90610801E814206D27C
:2045C000A869401CA861287940F0010028710BF10100A04201D1A34612E0287804280DD1C4
:2045E000ABEB0A00421C002351462846FDF726FA8146B9F1000F01D04846A7E7A346A24643
:204600002746E869B842B9D800BF2878042830D1B8F1000F02D10020F0712AE0F079D8B9B5
:20462000B76811E039463046FFF734F90446022C01D202208AE7601C08B9012086E7781C15
:20464000844200D002E07F1C4745EBD100BF47450FD10220F0710CE0F079032809D1B068DF
:20466000404506D8B169B0680844404501D30220F07100206AE770B506460C461546A9B293
:2046800004F11A0000F043F83078032804D1290C04F1140000F03BF870BD00F8011B090A83
:2046A00000F8011B090A00F8011B090A00F8011B704730B500F8012B110A41EA03621B0A08
:2046C00000F8012B110A41EA03621B0A00F8012B110A41EA03621B0A00F8012B110A41EA88
:2046E00003621B0A00F8012B110A41EA03621B0A00F8012B110A41EA03621B0A00F8012B24
:20470000110A41EA03621B0A00F8012B30BD00F8011B091200F8011B70472DE9F04104462D
:2047200020680569284600F033F980464146A81CFFF7EDFF6878471C2046E16CFEF787F89C
:20474000064618E0A16B2068FFF7AEFD064606B113E020222946E06BFFF705FB012021684E
:20476000C870781E071E00D107E0203500212046FDF736FE0646002EE4D000BF0EB1012EAF
:2047800002D13046BDE8F0810220FBE730B5014600200B2200BF431003EBC01411F8015B04
:2047A0006319D8B2531E1A1EF5D130BD70B50446204600F043F80546002D38D12078032853
:2047C0002ED1207901282BD14202002104F13C00FFF7D6FA4AF6552104F23A20FFF797FF2E
:2047E000144904F13C00FFF758FF134904F50870FFF753FF04F50970A169FFF74EFF04F511
:204800000A706169FFF749FF606A401CA0636078012304F13C01A26BFEF7C6F8002020714E
:20482000607800221146FEF789F800B10125284670BD0000525261417272416170B5044604
:204840000025E078E8B16078012304F13C01A26BFEF7AAF8A0B90020E070A16AA06B401A37
:20486000216A88420DD2A07802280AD1236AA16BCA186078012304F13C01FEF795F800E0DC
:204880000125284670BD000070B50446226812F8011B01F08000002847D001F0E000C028CF
:2048A00003D101F01F01012312E001F0F000E02803D101F00F0102230AE001F0F800F0282F
:2048C00003D101F00701032302E04FF0FF3070BD00BF12F8015B05F0C000802802D04FF0D5
:2048E000FF30F4E7284661F39F100146581E031EEFD1802908D3B1F5584F02D3B1F5604FA4
:2049000002D3B1F5881F02D34FF0FF30DFE7B1F5803F0AD3A1F58030054E06EA8010054EBE
:204920003043C1F3090640EA060122600846CEE70000FF0300DC00D810B5012204A1002028
:20494000FEF770F808B9012010BD0020FCE7000053443A0070B504460D4609268CB12068C1
:2049600078B12068007860B1A0882168C988884207D121684878FEF70DF800F0010000B96C
:2049800000260EB9206800E000202860304670BD30B502465478641C6301002420462146A9
:2049A00010E0022901D1491C0BE000F0010414B14FF4004400E0002404EB6004555C2C4401
:2049C000A0B2491C9942ECD330BD70B5064600241BE02846FEF758FD85B204F0010010B164
:2049E0004FF4004000E0002000EB6400E9B2084484B204F0010010B14FF4004000E000208F
:204A000000EB640000EB252084B236F8021B0D1EDFD1204670BD4FF04070E1EE100A704799
:204A2000000002400004024000080240000C0240001002400014024000180240001C0240F6
:204A4000002002400030014000380040003C0040011000000240000002800000200000207A
:204A60000800400000401000800000802000050D08060E10070F200505060000C04E0008E4
:204A8000C44E000801030507090E10121416181C1E809A45418E418F804545454949498E81
:204AA0008F9092924F994F555559999A9B9C9D9E9F41494F55A5A5A6A7A8A9AAABACADAEC3
:204AC000AFB0B1B2B3B4B5B6B7B8B9BABBBCBDBEBFC0C1C2C3C4C5C6C7C8C9CACBCCCDCE06
:204AE000CFD0D1D2D3D4D5D6D7D8D9DADBDCDDDEDFE0E1E2E3E4E5E6E7E8E9EAEBECEDEEE6
:204B0000EFF0F1F2F3F4F5F6F7F8F9FAFBFCFDFEFF00C700FC00E900E200E400E000E500F7
:204B2000E700EA00EB00E800EF00EE00EC00C400C500C900E600C600F400F600F200FB0033
:204B4000F900FF00D600DC00A200A300A500A7209201E100ED00F300FA00F100D100AA0040
:204B6000BA00BF001023AC00BD00BC00A100AB00BB009125922593250225242561256225BB
:204B8000562555256325512557255D255C255B251025142534252C251C2500253C255E25C1
:204BA0005F255A25542569256625602550256C2567256825642565255925582552255325BF
:204BC0006B256A2518250C25882584258C2590258025B103DF009303C003A303C303B500DA
:204BE000C403A6039803A903B4031E22C603B50329226122B1006522642220232123F7007C
:204C00004822B0001922B7001A227F20B200A025A00061001A03E0001703F8000703FF001D
:204C2000010078010001300132010601390110014A012E017901060180014D0043028101B3
:204C4000820182018401840186018701870189018A018B018B018D018E018F0190019101B0
:204C6000910193019401F60196019701980198013D029B019C019D0120029F01A001A00107
:204C8000A201A201A401A401A601A701A701A901AA01AB01AC01AC01AE01AF01AF01B10171
:204CA000B201B301B301B501B501B701B801B801BA01BB01BC01BC01BE01F701C001C10118
:204CC000C201C301C401C501C401C701C801C701CA01CB01CA01CD011001DD0101008E01F5
:204CE000DE011201F3010300F101F401F401F8012801220212013A020900652C3B023B0246
:204D00003D02662C3F0240024102410246020A015302400081018601550289018A01580202
:204D20008F015A0290015C025D025E025F0293016102620294016402650266026702970152
:204D400096016A02622C6C026D026E029C01700271029D01730274029F017602770278025F
:204D600079027A027B027C02642C7E027F02A60181028202A9018402850286028702AE018B
:204D80004402B101B20145028D028E028F0290029102B7017B030300FD03FE03FF03AC0361
:204DA00004008603880389038A03B1031103C2030200A303A303C4030803CC0303008C03B4
:204DC0008E038F03D8031801F2030A00F903F303F403F503F603F703F703F903FA03FA03F9
:204DE0003004200350041007600422018A043601C1040E01CF040100C004D00444016105BA
:204E0000260400007D1D0100632C001E9601A01E5A01001F0806101F0606201F0806301F6C
:204E20000806401F0606511F0700591F521F5B1F541F5D1F561F5F1F601F0806701F0E0013
:204E4000BA1FBB1FC81FC91FCA1FCB1FDA1FDB1FF81FF91FEA1FEB1FFA1FFB1F801F0806E8
:204E6000901F0806A01F0806B01F0400B81FB91FB21FBC1FCC1F0100C31FD01F0206E01FB6
:204E80000206E51F0100EC1FF31F0100FC1F4E210100322170211002842101008321D02428
:204EA0001A05302C2F04602C0201672C0601752C0201802C6401002D260841FF1A030000AE
:204EC0005344000055000000E84E0008000000203C00000000020008244F00083C0000206B
:204EE0002C2B00001C0200080095BA0A0000000000000000010203040607080900000000B4
:204F00000000024000040240000402400000000001010000000000000000000000000000C1
:204F200000800008FFFFFFFFFFFFFFFFFFFFFFFFFFFFFFFFFFFFFFFFFFFFFFFFFFFFFFFF05
:204F4000FFFFFFFFFFFFFFFFFFFFFFFFFFFFFFFFFFFFFFFFFFFFFFFFFFFFFFFFFFFFFFFF71
:204F6000FFFFFFFFFFFFFFFFFFFFFFFFFFFFFFFFFFFFFFFFFFFFFFFFFFFFFFFFFFFFFFFF51
:204F8000FFFFFFFFFFFFFFFFFFFFFFFFFFFFFFFFFFFFFFFFFFFFFFFFFFFFFFFFFFFFFFFF31
:204FA000FFFFFFFFFFFFFFFFFFFFFFFFFFFFFFFFFFFFFFFFFFFFFFFFFFFFFFFFFFFFFFFF11
:020000040800F2
:020000040800F2
:20800000FCFF012045AB00083BA6040885A5040895AB000895AB000843A6040800000000A4
:20802000000000000000000000000000411F0608B5A5040800000000D11F0608352006080B
:208040009DA5040895AB000895AB000895AB000895AB000895AB0008A1760608A77606081A
:20806000AD760608B3760608B976060855FB050895AB000895AB00083DFB050849FB0508D8
:2080800061FB050895AB000895AB000895AB000895AB000895AB000895AB0008BF76060884
:2080A000DDF605083DF60508F1F6050861F6050875F6050889F605089DF6050895AB00085C
:2080C00095AB000895AB000895AB000895AB000895AB0008358506084D8506086585060898
:2080E000D576060895AB00080588060805F70508C5F6050819F70508D9F6050895AB000832
:2081000095AB0008CD05060805EA020895AB00088185060899850608B1F605084D020608A5
:2081200095AB000895AB000895AB0008B105060895AB0008000000000000000095AB000813
:2081400095AB000895AB000895AB0008F98706086D480508BD05060895AB0008B18506089B
:2081600095AB000895AB000895AB000895AB000895AB000895AB000895AB00080000000007
:208180000000000095AB0008000000000000000095AB0008000000000000000095AB000807
:2081A00000000000000000000000000095AB000895AB000895AB000895AB000895AB000857
:2081C00095AB000810B5054C237833B9044B13B10448AFF300800123237010BD300700205E
:2081E000000000002CA7060808B5034B1BB103490348AFF3008008BD0000000034070020EE
:208200002CA70608000000000000000000000000000000000000000000000000000000007D
:20822000A2EB0300704700BF02780B78012A28BF9A42F5D16DE9044540EA0104CDE902679A
:208240006FF0000C4FEA447212B380EA010414F0070F6AD100F0070420F0070004F003052D
:2082600021F007014FEAC505F0E8042314F0040FF1E804670CFA05F462EA040266EA0406DD
:208280000AD063EA0403624667EA0407664603E0F0E80423F1E8046782FA4CF582EA0604A7
:2082A000A4FA8CF46CBB83FA4CF583EA0705A5FA8CF595B950E9022351E9026782FA4CF516
:2082C00082EA0604A4FA8CF483FA4CF583EA0705A5FA8CF52543DBD09CB92DBAB5FA85F43C
:2082E00024F0070427FA04F1DDE9026723FA04F303F0FF0001F0FF01FDE80445A0EB010069
:20830000704724BAB4FA84F424F0070426FA04F1DDE9026722FA04F202F0FF0001F0FF014B
:20832000FDE80445A0EB0100704714F0030F3CD110F0030428D150F8082B51F8083B82FA26
:208340004CF582EA0305A5FA8CF55DB950F8042C51F8043C82FA4CF582EA0305A5FA8CF5E0
:20836000002DE8D02DBAB5FA85F424F0070423FA04F122FA04F202F0FF0001F0FF01FDE8FF
:208380000445A0EB010070474FEAC40420F0030050F8082B21F0030151F8083B0CFA04F423
:2083A00062EA040263EA0403C9E710F003041AD0A1EB040120F00300E40750F8042B06D09A
:2083C0000FD28B785FFAA2F4E41A06D12BB1CB785FFAB2F4E41A00D11BB920465DF8104B1E
:2083E000704701F1040150F8042BCC0721F0030151F8043B48D824D222F07F4482FA4CF540
:2084000094EA1325A5FA8CF50AD165B951F8043B84EA0204B4EB036F0ED150F8042BEBE758
:208420004FEA132355E035F07F454DD10878FDE80445C0F1000070474FEA126203F0FF03D9
:2084400047E002EA1C4482FA4CF594EA1345A5FA8CF50AD165B951F8043B84EA0204B4EB62
:20846000034F0CD150F8042BEBE74FEA134330E015EA1C4528D10B884FEA124229E04FEA2A
:20848000124203EA1C4324E002F0FF0482FA4CF594EA1365A5FA8CF50AD165B951F8043BEF
:2084A00084EA0204B4EB032F09D150F8042BEBE74FEA13630DE015F0FF0F05D10B684FEA23
:2084C000122223F07F4304E04FF00000FDE80445704712BA1BBA82FA4CF482EA0304A4FA1D
:2084E0008CF5B5FA85F402FA04F203FA04F34FEA1260FDE80445A0EB13607047000000005F
:2085000090F800F06DE9024520F007016FF0000C10F0070491F820F040F049804FF00004E3
:208520006FF00700D1E9002391F840F000F1080082FA4CF2A4FA8CF283FA4CF3A2FA8CF399
:208540004BBBD1E9022382FA4CF200F10800A4FA8CF283FA4CF3A2FA8CF3E3B9D1E9042313
:2085600082FA4CF200F10800A4FA8CF283FA4CF3A2FA8CF37BB9D1E9062301F1200182FAAF
:208580004CF200F10800A4FA8CF283FA4CF3A2FA8CF3002BC6D0002A04BF04301A4612BAA3
:2085A000B2FA82F2FDE8024500EBD2007047D1E9002304F00305C4F100004FEAC50514F066
:2085C000040F91F840F00CFA05F562EA05021CBF63EA050362464FF00004A9E781F000411F
:2085E00002E000BF83F0004330B54FEA41044FEA430594EA050F08BF90EA020F1FBF54EA40
:20860000000C55EA020C7FEA645C7FEA655C00F0E2804FEA5454D4EB5555B8BF6D420CDD03
:208620002C4480EA020281EA030382EA000083EA010180EA020281EA0303362D88BF30BD9A
:2086400011F0004F4FEA01314FF4801C4CEA113102D0404261EB410113F0004F4FEA033365
:208660004CEA133302D0524263EB430394EA050F00F0A780A4F10104D5F1200E0DDB02FA69
:208680000EFC22FA05F2801841F1000103FA0EF2801843FA05F359410EE0A5F120050EF1E6
:2086A000200E012A03FA0EFC28BF4CF0020C43FA05F3C01851EBE37101F0004507D54FF03B
:2086C000000EDCF1000C7EEB00006EEB0101B1F5801F1BD3B1F5001F0CD349085FEA30004E
:2086E0004FEA3C0C04F101044FEA445212F5800F80F09A80BCF1004F08BF5FEA500C50F167
:20870000000041EB045141EA050130BD5FEA4C0C404141EB0101013C28BFB1F5801FE9D246
:2087200091F0000F04BF01460020B1FA81F308BF2033A3F10B03B3F120020CDA0C3208DDD5
:2087400002F1140CC2F10C0201FA0CF021FA02F10CE002F11402D8BFC2F1200C01FA02F1E7
:2087600020FA0CFCDCBF41EA0C019040E41AA2BF01EB0451294330BD6FEA04041F3C1CDA89
:208780000C340EDC04F11404C4F1200220FA04F001FA02F340EA030021FA04F345EA03015B
:2087A00030BDC4F10C04C4F1200220FA02F001FA04F340EA0300294630BD21FA04F029462B
:2087C00030BD94F0000F83F4801306BF81F480110134013D4EE77FEA645C18BF7FEA655C72
:2087E00029D094EA050F08BF90EA020F05D054EA000C04BF1946104630BD91EA030F1EBFAE
:208800000021002030BD5FEA545C05D14000494128BF41F0004130BD14F580043CBF01F5CD
:20882000801130BD01F0004545F0FE4141F470014FF0000030BD7FEA645C1ABF1946104687
:208840007FEA655C1CBF0B46024650EA013406BF52EA033591EA030F41F4002130BD00BF43
:2088600090F0000F04BF0021704730B54FF4806404F132044FF000054FF0000150E700BF1D
:2088800090F0000F04BF0021704730B54FF4806404F1320410F0004548BF40424FF0000169
:2088A0003EE700BF42004FEAE2014FEA31014FEA02701FBF12F07F4393F07F4F81F060514B
:2088C000704732F07F4208BF704793F07F4F04BF41F40021704730B54FF4607401F000452D
:2088E00021F000411CE700BF50EA010208BF704730B54FF000050AE050EA010208BF7047DB
:2089000030B511F0004502D5404261EB41014FF4806404F132045FEA915C3FF4D8AE4FF0C5
:2089200003025FEADC0C18BF03325FEADC0C18BF033202EBDC02C2F1200300FA03FC20FA04
:2089400002F001FA03FE40EA0E0021FA02F11444BDE600BF70B54FF0FF0C4CF4E06C1CEA28
:2089600011541DBF1CEA135594EA0C0F95EA0C0F00F0DEF82C4481EA030621EA4C5123EAB6
:208980004C5350EA013518BF52EA033541F4801143F4801338D0A0FB02CE4FF00005E1FB5A
:2089A00002E506F00042E0FB03E54FF00006E1FB03569CF0000F18BF4EF0010EA4F1FF0404
:2089C000B6F5007F64F5407404D25FEA4E0E6D4146EB060642EAC62141EA55514FEAC520F8
:2089E00040EA5E504FEACE2EB4F1FD0C88BFBCF5E06F1ED8BEF1004F08BF5FEA500E50F1D2
:208A0000000041EB045170BD06F0004646EA010140EA020081EA0301B4EB5C04C2BFD4EB60
:208A20000C0541EA045170BD41F480114FF0000E013C00F3AB8014F1360FDEBF002001F012
:208A4000004170BDC4F10004203C35DA0C341BDC04F11404C4F1200500FA05F320FA04F066
:208A600001FA05F240EA020001F0004221F0004110EBD37021FA04F642EB06015EEA430E33
:208A800008BF20EAD37070BDC4F10C04C4F1200500FA04F320FA05F001FA04F240EA0200D9
:208AA00001F0004110EBD37041F100015EEA430E08BF20EAD37070BDC4F1200500FA05F26E
:208AC0004EEA020E20FA04F301FA05F243EA020321FA04F001F0004121FA04F220EA0200BB
:208AE00000EBD3705EEA430E08BF20EAD37070BD94F0000F0FD101F00046400041EB010156
:208B000011F4801F08BF013CF7D041EA060195F0000F18BF704703F00046520043EB0303D3
:208B200013F4801F08BF013DF7D043EA0603704794EA0C0F0CEA135518BF95EA0C0F0CD092
:208B400050EA410618BF52EA4306D1D181EA030101F000414FF0000070BD50EA410606BF43
:208B60001046194652EA430619D094EA0C0F02D150EA013613D195EA0C0F05D152EA03362C
:208B80001CBF104619460AD181EA030101F0004141F0FE4141F470014FF0000070BD41F016
:208BA000FE4141F4780170BD70B54FF0FF0C4CF4E06C1CEA11541DBF1CEA135594EA0C0F52
:208BC00095EA0C0F00F0A7F8A4EB050481EA030E52EA03354FEA013100F088804FEA033312
:208BE0004FF0805545EA131343EA12634FEA022245EA111545EA10654FEA00260EF0004176
:208C00009D4208BF964244F1FD0404F5407402D25B084FEA3202B61A65EB03055B084FEA8B
:208C200032024FF480104FF4002CB6EB020E75EB030E22BFB61A754640EA0C005B084FEA5E
:208C40003202B6EB020E75EB030E22BFB61A754640EA5C005B084FEA3202B6EB020E75EBEB
:208C6000030E22BFB61A754640EA9C005B084FEA3202B6EB020E75EB030E22BFB61A754653
:208C800040EADC0055EA060E18D04FEA051545EA16754FEA06164FEAC30343EA52734FEA07
:208CA000C2025FEA1C1CC0D111F4801F0BD141EA00014FF000004FF0004CB6E711F4801F27
:208CC00004BF01430020B4F1FD0C88BFBCF5E06F3FF6AFAEB5EB030C04BFB6EB020C5FEA7C
:208CE000500C50F1000041EB045170BD0EF0004E4EEA113114EB5C04C2BFD4EB0C0541EA88
:208D0000045170BD41F480114FF0000E013C90E645EA060E8DE60CEA135594EA0C0F08BF97
:208D200095EA0C0F3FF43BAF94EA0C0F0AD150EA01347FF434AF95EA0C0F7FF425AF10460C
:208D400019462CE795EA0C0F06D152EA03353FF4FDAE1046194622E750EA410618BF52EA8C
:208D600043067FF4C5AE50EA41047FF40DAF52EA43057FF4EBAE12E74FF0FF3C06E000BF6E
:208D80004FF0010C02E000BF4FF0010C4DF804CD4FEA410C7FEA6C5C4FEA430C18BF7FEA05
:208DA0006C5C1BD001B050EA410C0CBF52EA430C91EA030F02BF90EA020F0020704710F1C1
:208DC000000F91EA030F58BF994208BF90422CBFD8176FEAE37040F0010070474FEA410C78
:208DE0007FEA6C5C02D150EA013C07D14FEA430C7FEA6C5CD6D152EA033CD3D05DF8040B3E
:208E0000704700BF8446104662468C461946634600E000BF01B5FFF7B7FF002848BF10F109
:208E2000000F01BD4DF808EDFFF7F4FF0CBF012000205DF808FB00BF4DF808EDFFF7EAFF06
:208E400034BF012000205DF808FB00BF4DF808EDFFF7E0FF94BF012000205DF808FB00BF0D
:208E60004DF808EDFFF7CEFF94BF012000205DF808FB00BF4DF808EDFFF7C4FF34BF012043
:208E800000205DF808FB00BF4FEA410C7FEA6C5C02D150EA013C0AD14FEA430C7FEA6C5C06
:208EA00002D152EA033C02D14FF0000070474FF0010070474A0011D212F5001211D20DD599
:208EC0006FF47873B3EB62520ED44FEAC12343F0004343EA505323FA02F070474FF00000A8
:208EE000704750EA013002D14FF0FF3070474FF0000070474FEA4102B2F1E04324BFB3F595
:208F0000001CDCF1FE5C0DD901F0004C4FEAC0024CEA5070B2F1004F40EB830008BF20F083
:208F20000100704711F0804F21D113F13872BCBF01F00040704741F480114FEA5252C2F150
:208F40001802C2F1200C10FA0CF320FA02F018BF40F001004FEAC1234FEAD32303FA0CFCAA
:208F600040EA0C0023FA02F34FEA4303CCE77FEA625307D150EA01331EBF4FF0FE4040F485
:208F80004000704701F0004040F0FE4040F40000704700BF80F0004002E000BF81F000418E
:208FA00042001FBF5FEA410392EA030F7FEA226C7FEA236C6AD04FEA1262D2EB1363C1BFED
:208FC000D218414048404140B8BF5B42192B88BF704710F0004F40F4000020F07F4018BF9E
:208FE000404211F0004F41F4000121F07F4118BF494292EA030F3FD0A2F1010241FA03FCC9
:2090000010EB0C00C3F1200301FA03F100F0004302D5494260EB4000B0F5000F13D3B0F128
:20902000807F06D340084FEA310102F10102FE2A51D2B1F1004F40EBC25008BF20F001005E
:2090400040EA03007047490040EB0000013A28BFB0F5000FEDD2B0FA80FCACF1080CB2EBAF
:209060000C0200FA0CF0AABF00EBC25052421843BCBFD0401843704792F0000F81F40001F3
:2090800006BF80F400000132013BB5E74FEA41037FEA226C18BF7FEA236C21D092EA030FCA
:2090A00004D092F0000F08BF0846704790EA010F1CBF0020704712F07F4F04D1400028BF77
:2090C00040F00040704712F100723CBF00F50000704700F0004343F0FE4040F400007047BE
:2090E0007FEA226216BF08467FEA23630146420206BF5FEA412390EA010F40F4800070477F
:209100004FF0000304E000BF10F0004348BF40425FEA000C08BF704743F0964301464FF039
:2091200000001CE050EA010208BF70474FF000030AE000BF50EA010208BF704711F000438E
:2091400002D5404261EB41015FEA010C02BF84460146002043F0B64308BFA3F18053A3F5EE
:209160000003BCFA8CF2083AA3EBC25310DB01FA02FC634400FA02FCC2F12002BCF1004F7F
:2091800020FA02F243EB020008BF20F00100704702F1200201FA02FCC2F1200250EA4C0099
:2091A00021FA02F243EB020008BF20EADC7070477BB972B90029BEBF00204FF0004106E011
:2091C00008BF00281CBF6FF000414FF0FF3001F08FB9ADF1080C6DE904CE002909DB002B6C
:2091E0001ADB00F0B3F8DDF804E0DDE9022304B07047404261EB4101002B1BDB00F0A6F811
:20920000DDF804E0DDE9022304B0404261EB4101524263EB43037047524263EB430300F0EF
:2092200095F8DDF804E0DDE9022304B0404261EB41017047524263EB430300F087F8DDF816
:2092400004E0DDE9022304B0524263EB4303704753B94AB9002908BF00281CBF4FF0FF313B
:209260004FF0FF3001F044B9ADF1080C6DE904CE00F06CF8DDF804E0DDE9022304B0704755
:2092800038B1014691FAA1F1B1FA81F100200844704791FAA1F1B1FA81F1202008447047C4
:2092A00038B50022002304460D46FFF7C5FD28B920462946BDE8384000F02AB8204605F126
:2092C000004100F025F8404261EB410138BD00BFD0B5FFF7E7FA0C4B002206460F46FFF710
:2092E00039FBFFF7E7FD0446FFF7BAFA074B0022FFF730FB02460B4630463946FFF772F9E8
:20930000FFF7D8FD2146D0BD0000F03D0000F041D0B50C4B002206460F46FFF71BFBFFF78F
:20932000C9FD0446FFF79CFA074B0022FFF712FB02460B4630463946FFF754F9FFF7BAFD9C
:209340002146D0BD0000F03D0000F0412DE9F047089D04468E46002B4DD18A42944669D97A
:20936000B2FA82F252B101FA02F3C2F1200120FA01F10CFA02FC41EA030E94404FEA1C4849
:20938000210CBEFBF8F61FFA8CF708FB16E341EA034306FB07F199420AD91CEB030306F135
:2093A000FF3080F01F81994240F21C81023E63445B1AA4B2B3FBF8F008FB103344EA0344C1
:2093C00000FB07F7A7420AD91CEB040400F1FF3380F00A81A74240F207816444023840EAEC
:2093E0000640E41B00261DB1D4400023C5E900433146BDE8F0878B4209D9002D00F0EF803E
:209400000026C5E9000130463146BDE8F087B3FA83F6002E4AD18B4202D3824200F2F9802E
:20942000841A61EB030301209E46002DE0D0C5E9004EDDE702B9FFDEB2FA82F2002A40F088
:209440009280A1EB0C014FEA1C471FFA8CFE0126200CB1FBF7F307FB131140EA01410EFB9E
:2094600003F0884208D91CEB010103F1FF3802D2884200F2CB804346091AA4B2B1FBF7F0AA
:2094800007FB101144EA01440EFB00FEA64508D91CEB040400F1FF3102D2A64500F2BB8047
:2094A0000846A4EB0E0440EA03409CE7C6F12007B34022FA07FC4CEA030C20FA07F401FA88
:2094C00006F31C43F9404FEA1C4900FA06F3B1FBF9F8200C1FFA8CFE09FB181140EA014165
:2094E00008FB0EF0884202FA06F20BD91CEB010108F1FF3A80F08880884240F28580A8F17C
:2095000002086144091AA4B2B1FBF9F009FB101144EA014100FB0EFE8E4508D91CEB010135
:2095200000F1FF346CD28E456AD90238614440EA0840A0FB0294A1EB0E01A142C846A646B9
:2095400056D353D05DB1B3EB080261EB0E0101FA07F722FA06F3F1401F43C5E900710026C8
:209560003146BDE8F087C2F12003D8400CFA02FC21FA03F3914001434FEA1C471FFA8CFE01
:20958000B3FBF7F007FB10360B0C43EA064300FB0EF69E4204FA02F408D91CEB030300F1AF
:2095A000FF382FD29E422DD9023863449B1B89B2B3FBF7F607FB163341EA034106FB0EF364
:2095C0008B4208D91CEB010106F1FF3816D28B4214D9023E6144C91A46EA004638E72E4633
:2095E000284605E70646E3E61846F8E64B45A9D2B9EB020864EB0C0E0138A3E74646EAE77E
:20960000204694E74046D1E7D0467BE7023B614432E7304609E76444023842E703685A0082
:209620004CBF43F0004323F000431844704700BF2DE9F84329B34F1E044615463E464FF07F
:20964000000808EB060101EBD171491004EBC1094846FFF7E3FF0346C80008308F422044E4
:2096600009D0AB4209D8FFF7D9FF0138A8420AD201F10108E5E7AB4205D9884501D04E1EDA
:20968000DFE74FF000094846BDE8F883012807D0022807D0044B00280CBF18460020704796
:2096A0000248704702487047659D0008699D00086D9D000830B5234B83B004468D1E3BB315
:2096C00001A92846AFF30080E8B101992A46FFF7AFFF0146B8B1FFF7A1FF4B68A064012BE0
:2096E0002CD0002B01F1040024DBFFF797FF0023C4E913030368002B11DBFFF78FFF206155
:20970000002003B030BD00230920236103B030BD0D4B0E49C91AC91018460191D6E7C3F34B
:209720000360FFF7B3FF0028206114BF0020092003B030BD0123C4E91303DBE70023236169
:209740000520DEE700000000F0E00708D8F407080368DA0710B5044606D49B0700F1480055
:2097600009D500F05BFC2368590709D51A070ED5DB0613D510BD00F049FC23685907F5D478
:2097800004F1D00000F052FC23681A07F0D404F5A87000F053FC2368DB06EBD404F5E8708A
:2097A000BDE8104000F08EBC092070470346006800B11844704700BF704700BF70B5044681
:2097C0000E46316C2046FFF775FF054688B9326C6261236932462146012098470828F0D080
:2097E000072806D12846316CFFF7E6FF301D00F001FC4EF02BFB00BF2DE9F0470D1DD0F8E1
:209800000C80D0F81890074614460FCDADF5727D0DF10C0CACE80F000FCDACE80F000FCD24
:20982000ACE80F0095E80F0002AE4FF0000E8CE80F00C6F800E020E0336C7B614FF4F072BB
:2098400031467AA800F07AFE3B697AAA394650469847889B73642146CDE9006905463B46FF
:209860003A460120C0470446E0B94FF4F0727AA9304600F063FE082D1AD1316C3846FFF79D
:2098800019FF09345FFA84FA05460028D4D0B36B73643A46CDE900693B464AF01001012004
:2098A000C04700B1092528460DF5727DBDE8F087072DF7D12046316CFFF77EFF03A800F03A
:2098C00099FB00BF406C7047F0B5CB6B0B6401F1040C0E460546BCE80F00F9B001AC0FC40B
:2098E000BCE80F000FC4BCE80F000FC49CE80F004FF0FF3784E80F00009706E02B696A4618
:20990000294698470828044608D110992846FFF7D1FE0028F2D0092079B0F0BD6846FFF73D
:2099200017FF062CF7D131462846FFF747FF00BFC160D96B82611964002219465CE700BFEF
:2099400070B5C66843690B64AEB903690A4604460D46014602209847072805D008280FD17D
:2099600029462046FFF72AFF3046296CFFF724FF281D00F03FFB0122FFF73EFF4EF066FA6C
:209980004EF064FAC2681AB1CA6B0A64002233E79AE700BF704700BF836801460BB1012092
:2099A00018477047012912D009D873B90F2A0CD800EB820218465368009A136070470339D3
:2099C000012994BF012002207047022070470846704700BF00B585B00A46002303A90091D9
:2099E0001946FFF7DFFF039805B05DF804FB00BF012912D009D873B90F2A0CD800EB82002E
:209A0000009A12684260184670470339012994BF012002207047022070470846704700BF2B
:209A200010B584B0002303AC039200940A461946FFF7DEFF04B010BD70B5D36B136402F162
:209A4000040C05460C46BCE80F00ADF50E7D0DF15C0EAEE80F00BCE80F00AEE80F00BCE870
:209A60000F00AEE80F009CE80F004FF0FF368EE80F00169610E0FFF7D3FF214616A8A8472E
:209A8000034616AA6946082083B9049B9847052806460CD0092809D026996846FFF70AFE62
:209AA00003466A460C2116A8002BE4D0092616A8FFF74EFE30460DF50E7D70BD2DE9F04F2F
:209AC000CC6C89B01E4654F8043B06940D46174600F00308002E79D01A0C1B0405938DF808
:209AE0001D200223D2B204EB82048DF81C302B6DB8F1020F08BFAC6B13F001030CD005A979
:209B0000384600F079FB18B9082009B0BDE8F08F092009B0BDE8F08FD4F800A0BAF1000F61
:209B2000EDD0019300F008030293022E4AD0B4F800A0B4F802900434AB6C29F0010B0F21CC
:209B400038469B44FFF746FF834539D82AF001039B44834594BF002001204FEA490303F0C3
:209B600002030AF0010A43EA0A03012B49D0022B32D0002BCCD1B8F1000F02D0002840F083
:209B8000CD800434D4F800A0BAF1000FCDD105A9384600F031FB0028BAD1019B002BB3D037
:209BA0000F213846FFF716FF0E2102463846FFF737FF38466A4A0F21FFF732FF0720A8E78C
:209BC0000020CAE7D4F804900834B5E71B0205930323ADF81C308AE7236823F0004BB8F1AD
:209BE000000F45D128B1029A002A5CD0BBF1000F74D0002B00DA04340BF1010B04EB8B04B3
:209C0000C0E7B8F1000F19D1B0B163682268991C4FEAD2723FF47CAF05F15801013304919D
:209C200000F09080201DFFF7C1FD04AB0146284653F0ACF900285BD10834A3E70D21384621
:209C4000D5F82090FFF7C6FE8145F5D1AB6A9C42F2D12046FFF7E2FC0F2102463846FFF765
:209C6000DFFE38462A460021FFF7DAFE072050E70D213846D5F82090FFF7ACFE814501D06C
:209C80002368B6E7AB6A9C42FAD104230022C5E90B23E318C5F828B06B632368002B59DB71
:209CA00001230193A8E705F15803CDF80C8004F1040AB04691461E460EE050460496FFF773
:209CC00075FD0022014604AB284609F101090AF1040A53F05BF9E0B9D945EED10D213846C6
:209CE000FFF778FE049BAC62C5E90803062010E781460D213846FFF76DFEB9F1020F28625C
:209D000025D12B46049A43F82C2F6B62AC620620FFE646462368DDF80C806AE72046FFF79D
:209D20007DFC04340246AC632846144653F088F900283FF4EDAE384622460F21FFF770FE1F
:209D40000720E6E60D213846FFF744FE2862049B6B62DBE70BF1010004EB80007AE700BFE8
:209D6000D1DC05080023A9E60123A7E60223A5E62DE9F0430646C3B015461C46042900F232
:209D8000BF80DFE801F09E57BD2D0300002C40F0B780102A00F2B4800368D80600F1F98044
:209DA00020AF384600F098F9B46B394600234FF0010C0CFA03F22A42204603F1010303D030
:209DC00050F8042B0A600446042B01F10401F0D13846B46300F076F9002043B0BDE8F08352
:209DE000032C40F08D8094B204EB1243102B4FEA124500F2858003681F0700F1D28020AF08
:209E0000384600F03DF9B26B07EBC50154B10B46D01A01EBC401E4001D5843F8045B8B4218
:209E2000FAD122443846B26300F008F9002043B0BDE8F083012C4FEA124895B25CD0052CDE
:209E40005ED108EB0509B9F1200F59D8B8F10F0F79D9A946002D40F08A80B36B6DB320AF4C
:209E60004FF0000907EBC807043F03EBC50553F8041B47F8041FAB42F9D1B9F1000F0FD0C3
:209E80006F464146102938BF102107EBC101843903EBC90553F8040B41F8040FAB42F9D19B
:209EA000012C00F08680B8F10F0FB56347D9B9F1000F02D0684600F0B9F8002043B0BDE8EE
:209EC000F083ECB9806B23461FFA82FC0124371D04FA03F212EA0C0F014604D051F8042B69
:209EE00047F8232008460133102BF1D115F40055E3D1B063284604E008EB0503102B03D9D8
:209F0000022043B0BDE8F083B8F10F0FF8D83368DA0706D5304623F0030340F8483B00F0EC
:209F200079F820AF384600F075F8B36B002D97D11D460435B563384600F068F8BDE720A865
:209F400000F06CF8B3E7B9F1100F40D9A9F110093368D90708D523F00103304643F0020361
:209F600040F8483B00F05EF8B9F1000F32D033685A0720D4B8F10F0F25D96F463846C8F184
:209F8000100500F057F8002DB36B7FF77AAF20AF68E723F01003336006F5E87000F09CF8D5
:209FA000FEE623F00803036000F5A87000F068F825E720AFBDE7304623F0040340F8D03B8D
:209FC00000F038F8D6E720A800F02CF8D5E74FF00009BDE7B8F10F0F3FF63FAF20AF3846E9
:209FE00000F020F8B36B002D7FF43AAF384600F015F862E700F1340191E838009C46A64649
:020000040800F2
:20A000004CF8045D90E8FF0FE54600BD90EC210B704700BF80EC210B704700BF90EC200B5A
:20A02000704700BF80EC200B704700BFD0EC200B704700BFC0EC200B704700BFF0EC020114
:20A04000F0EC0211F0EC0221F0EC0231F0EC0241F0EC0251F0EC0261F0EC0271F0EC0281C8
:20A06000F0EC0291F0EC02A1F0EC02B1F0EC02C1F0EC02D1F0EC02E1F0EC02F1704700BF11
:20A08000E0EC0201E0EC0211E0EC0221E0EC0231E0EC0241E0EC0251E0EC0261E0EC027188
:20A0A000E0EC0281E0EC0291E0EC02A1E0EC02B1E0EC02C1E0EC02D1E0EC02E1E0EC02F168
:20A0C000704700BFB0FC0181B0FC0191B0FC01A1B0FC01B1704700BFA0FC0181A0FC019130
:20A0E000A0FC01A1A0FC01B1704700BFEC4600B52DE900502DE9FF1F4FF000032DE90C0079
:20A1000001A9FFF7E1FBDDF840E012B0704700BFEC4600B52DE900502DE9FF1F4FF00003D3
:20A120002DE90C0001A9FFF70BFCDDF840E012B0704700BFEC4600B52DE900502DE9FF1FA8
:20A140004FF000032DE90C0001A9FFF71BFCDDF840E012B0704700BFEC4600B52DE900506A
:20A160002DE9FF1F4FF000032DE90C0001ABFFF7DFFBDDF840E012B0704700BFEC4600B5B7
:20A180002DE900502DE9FF1F4FF000032DE90C0001AAFFF751FCDDF840E012B0704700BFA6
:20A1A000027A03467AB9427AA2B14168013A10B44272086803220C1D1A7202025C60000E24
:20A1C00010BC1A6070470068013A1A7202021A60000E7047B020704700B585B0002303AACF
:20A1E000009219460C22FFF7DDFB039805B05DF804FB00BFF0E700BF2DE9F043054685B0B0
:20A200000E464FF000083046FFF7CAFFB028044600F0BA80070620D500F0F003802B4DD075
:20A22000902B36D0A02B60D0B02B74D0C02B00F08B8000F0F803D02B0BD100F0070201326F
:20A24000052342F4002201212846FFF791FD0028D9D0092005B0BDE8F0838300DBB21F1D57
:20A260000DF10C0900231946CDF800900D222846FFF798FB039BCDF8009060064CBFDF1B70
:20A28000FF1800230D22194628460397FFF7B0FBB9E700F00D030D2BDBD003AF002300F005
:20A2A0000F02194600972846FFF77CFB002300970D2219462846FFF79BFBA4E73046FFF783
:20A2C0006FFF24022043B0F5004FC2D004010023A2B219462846FFF74BFD0028B9D114F4C0
:20A2E000004F18BF4FF001088DE7C24302F007034FF47F621A41010702F47F624FF00003DB
:20A3000048BF42F4804219462846FFF731FD00283FF479AF9DE7B1283BD0B22800F0938085
:20A32000B32841D000F0FC03B42B92D000F007020132012342F4002219462846FFF718FD81
:20A3400000283FF460AF84E7C6284AD0C72854D000F0F803C02B63D0C82868D0C9287FF478
:20A3600078AF3046FFF71CFF020300F00F0002F4702201300243012105232846FFF7F8FC8B
:20A3800000283FF440AF64E7B8F1000F18D0002060E73046FFF704FF024600283FF459AF07
:20A3A00010F0F003C8D054E73046FFF7F9FE020300F00F03013302F470221A430123BBE78E
:20A3C00003AC43460E22414600942846FFF7EAFA009443460F2241462846FFF709FB4046EF
:20A3E00038E73046FFF7DCFE020300F00F03013302F470221A4303239EE73046FFF7D0FEF3
:20A40000024600283FF425AF10F0F0037FF421AF04212846FFF7ACFC00283FF4F4AE18E762
:20A4200000F00F020132032342F4202284E73046FFF7B6FE00F0F00200F00F031032013365
:20A4400043EA023297E700230DF10C090D221946CDF800902846FFF7A5FA3046FFF7A0FEF7
:20A4600002064FF002040CD5039B00F07F00A040184403903046FFF793FE030604F10704CC
:20A48000F2D4039BCDF8009000F07F02A24003F501731A440023039219460D222846FFF73C
:20A4A000A7FAB0E610B5C26C536884B04FF0030C08321C0208461B0E01A9019402928DF80E
:20A4C0000CC08DF80D30FFF797FE04B010BD00BF08B5FFF78FFE806C08BD00BF08B5FFF7C0
:20A4E00089FEC06CC379023300EB830008BD00BF704700BF430803F05533C01A830803F0B2
:20A50000333300F03330184400EB101000F00F3000EB002000EB0040000E704710B50139F2
:20A520000244904201D1002005E0037811F8014FA34201D0181B10BD0130F2E70A44914277
:20A5400000F1FF3300D1704710B511F8014B03F8014F9142F9D110BD884210B501EB020400
:20A5600002D98442234607D8431EA14208D011F8012B03F8012FF8E7024401468A4200D16D
:20A5800010BD13F8014D02F8014DF7E702440346934200D1704703F8011BF9E770B5C51C86
:20A5A00025F0030508350C2D38BF0C25002D01DBA84205D94DF05EFC0C230360002070BD99
:20A5C00038F0A8FF1F490A68144694B91E4E33681BB9204638F06AFF3060284638F066FFCE
:20A5E000431C23D14DF046FC0C23036038F0A2FFE4E723685B1B16D40B2B03D923601C4483
:20A60000256004E06368A2420CBF0B60536038F091FF04F10B00231D20F00700C21ACED0B0
:20A620001B1AA350CBE722466468CEE7C41C24F00304A042E4D0201A38F038FF0130DFD14C
:20A64000D0E700BF740700207807002010B5002843D050F8043C041F002BB8BFE41838F0D9
:20A6600059FF1E4A13682BB963601460BDE8104038F060BFA34208D9206821188B4201BF34
:20A6800019685B6809182160EEE71A465B680BB1A342FAD911685018A0420BD120680144FC
:20A6A000501883421160E1D118685B68536001441160DBE705D90A494FF4E7703FF08CFF57
:20A6C000D4E7206821188B4204BF19685B68636004BF091821605460C8E710BD7407002037
:20A6E000FCA7060870B5144C054638F013FF23683BB1002038F0DAFE421C03461CBF2068FE
:20A700001B1A0E4A126800208AB90D4C23601B1A2062E36138F00EFF0FCC2E460FC60FCCC4
:20A720000FC694E8030086E80300284670BD116852680844E8E700BF780700207407002072
:20A740004C070020431E034270B502D00025284670BD082838BF0820042938BF0421CC1CA9
:20A76000064624F0030408382044FFF717FF0028ECD050F8042C031F002AB8BF9B18F51CDF
:20A780001D4476423540181D2A1A0AD00B2A03EB020616D91968891A99501A60FFF756FFEC
:20A7A00033461A6804F10C01981829448842CED92819C11A521A196004302A51FFF746FF23
:20A7C000C5E751429950ECE710B58030FFF7E6FE044608B953F074F880220021FFF7D6FEE8
:20A7E00004F1800010BD8038FFF730BF2DE9F3410E4615460446002796F80080B8F1000F4A
:20A8000000F0A88040464DF051FC50B1A046444608F1010820784DF049FC0028F7D101365C
:20A82000EAE7B8F1250F40F092807378002B00F08E80452B15D04F2B13D00136592B75D062
:20A840001FD8482B4CD00FD8002B7CD0252B7BD02278252A03D062789A4262D1013401346A
:20A86000DDE7B3780236E9E74D2B4ED0532BEFD101A920464CF096F8019BA34251D0286009
:20A880002CE05A2BCBD0A3F16402D1B20A29DFD80A2ADDD801A151F822F000BFC9A8000807
:20A8A000C9A8000851A8000851A8000851A8000851A8000851A80008E1A8000851A8000888
:20A8C000F3A800081DA9000801A920464CF06AF8019BA34225D0E86047F001071C469EE775
:20A8E00001A920464CF05EF8019BA34219D0A860F4E701A920464CF055F8019BA34210D06F
:20A900000138286147F00207E8E701A920464CF049F8019BA34204D06860DFE723780A2B26
:20A920009DD00024204602B0BDE8F08101A920464CF038F8019BA342F3D0A0F26C70686161
:20A9400047F00407CAE7013E2378252BE8E723784345E5E7072FE5D12869254BEA6869690B
:20A9600053F82030134401F26C728907EB610ED1642692FBF6F106FB112131B94FF4C876BD
:20A9800092FBF6F106FB112109B9012801DC013BEB61042340F2B17C64204FF4C876072707
:20A9A000013A62451ADD03F26D1E930712D192FBF0F100FB112179B992FBF6F106FB11214D
:20A9C000B1FA81F35B097344B3FBF7F1C1EBC1015B1AE5E70023F6E70123F4E7EA6913444F
:20A9E000072293FBF2F2C2EBC2029B1AAB6199E724A80608704708B572B6032000F080F908
:20AA000000F0CAF800F03CF9BDE8084000F008B808B5FFF7EFFF45F03AF838F099FD0000FC
:20AA200000B5ADB0102200210AA8FFF7AFFD1422002103A8FFF7AAFD5C22002115A8FFF76C
:20AA4000A5FD3D4B002101911A6C42F080521A641B6C03F080530193019B384B02911A68FC
:20AA600042F440421A601B6803F440430293029B01214FF480334FF48002CDE908130223A2
:20AA80000C20CDE90E324FF4B472CDE91002072208A8CDE91323129300F078FF18B1284859
:20AAA000A12100F097F800F0FBF918B12448A72100F090F803234FF00F0ECDE903E30022BC
:20AAC0004FF4A053CDE9052305214FF4805303A8079300F01FFA18B11948B42100F07AF877
:20AAE0004FF480731593062160230220CDE91B130423CDE91D300123209315A84FF0006368
:20AB00002A9300F03DFB18B10D48BF2100F062F800F0F2FA4FF47A73B0FBF3F000F07EF907
:20AB2000042000F0A5F9002211464FF0FF3000F003F92DB05DF804FB003802400070004035
:20AB400054A80608DFF834D0002103E00C4B5B58435004310B480C4B42189A42F6D30B4A3C
:20AB600002E0002342F8043B094B9A42F9D300F03BF84DF06FFAFFF74BFF7047FCFF01207F
:20AB80008CF50708000000203007002030070020D8880020FEE700000C4BD3F8FC20D201E1
:20ABA0005EBFD3F8FC2042F08072C3F8FC20084B00225A601A6842F001021A6000BF00BFB8
:20ABC00000BF5868B0FA80F04009704700ED00E0001000E00A4608B50146024803F06AFC28
:20ABE000FEE700BF87A806080E49D1F8883043F47003C1F888300C4B1A68002042F0010253
:20AC00001A6098601A6822F0847222F480321A60064A5A601A6822F480221A60D860044BB1
:20AC20008B60704700ED00E00038024010300024008000087047000038B50E4A0E4B05469F
:20AC400018784FF47A73B3FBF0F31068B0FBF3F000F0E4F8044658B90F2D09D802462946A2
:20AC60004FF0FF3000F068F8044B20461D6038BD0120FCE704000020080000200C00002073
:20AC800008B50B4B1A6842F400721A601A6842F480621A601A6842F480721A60032000F0B2
:20ACA0002FF80020FFF7C8FFFFF7C4FF002008BD003C0240034A044B11681B780B4413600A
:20ACC000704700BF7C07002008000020014B1868704700BF7C07002038B50446FFF7F6FF2C
:20ACE000631C1CBF054B1B78054618BFE418FFF7EDFF431BA342FAD338BD00BF080000202B
:20AD0000C31E042B10B5044603D90948922143F0CBFA0849CA6823024FF6FF0403F4E06312
:20AD20001440234343F0BF6343F40033CB6010BDAFA8060800ED00E00F2A70B505460C4675
:20AD4000164603D91B48AA2143F0AEFA0F2C03D91848AB2143F0A8FA174BD868C0F3022023
:20AD6000C0F10703021D042B28BF0423062A4FF0FF3202FA03F38CBF0338002024EA030370
:20AD8000834002FA00F026EA0006002D43EA0603ACBF05F16045094A4FEA0313B8BF05F077
:20ADA0000F05DBB2AABF05F56145535585F8003370BD00BFAFA8060800ED00E014ED00E092
:20ADC000002803DA0648BE2143F06EBA4209012300F01F0003FA00F0024B43F8220070471A
:20ADE000AFA8060800E100E0002803DA0948CE2143F05ABA4309012200F01F0002FA00F037
:20AE00002033054A42F82300BFF34F8FBFF36F8F704700BFAFA8060800E100E00138B0F17D
:20AE2000807F0BD24FF0E023054A5861F02182F823100020072298611A61704701207047E2
:20AE400000ED00E0002804DA074840F2A71143F02BBA4309012200F01F0002FA00F06033D1
:20AE6000024A42F823007047AFA8060800E100E0042808B50CD020B1084840F2C91143F027
:20AE800013FA4FF0E022136923F00403136108BD4FF0E022136943F00403F7E7AFA806085B
:20AEA00037B500230193184B184D1A6C42F080521A641B6C03F080530193019B144B012220
:20AEC0001A64FFF703FF04466B68DA030BD5104B0E4D01225A64FFF7F9FE04466B689B03E3
:20AEE0000AD5002006E0FFF7F1FE001BB0F57A7FEAD9032003B030BDFFF7E8FE001BB0F5AD
:20AF00007A7FEBD9F5E700BF003802400070004000000E422DE9F0410D46044610B9012091
:20AF2000BDE8F0810368013B0E2B04D96D484FF4107143F0B9F90F2D04D96A4840F2412181
:20AF400043F0B2F9684B1A6802F00F02AA423CD32268960741D42368D9076BD4624B1A68CB
:20AF600002F00F02AA4200F29A8023685A0700F19F8023681B0718D5236933F480520CD0DF
:20AF800023F40062B2F5A05F07D0B3F5C05F04D054484FF42C7143F087F9544A21699368CE
:20AFA00023F4604343EAC103936000F0A7FC4F4B4F4A9B68C3F30313D35CD8404D4B186007
:20AFC0000020FFF739FE0020AAE7EAB21A701B6803F00F03AB42A2D1BAE7444B12F0040F20
:20AFE0001EBF996841F4E0519960100742BF9A6842F460429A60A36833F0800212D023F083
:20B000002002902A0ED023F04002A02A0AD023F01002C02A06D0F02B04D032484FF4197162
:20B0200043F042F9314AA168936823F0F0030B43936090E76368032B04D92A4840F26B215F
:20B0400043F032F96268294B012A1ED11B6813F4003F3FF464AF254EB36823F0030313432E
:20B06000B360FFF733FE41F288380746B368626803F00C03B3EB820F3FF470AFFFF726FED4
:20B08000C01B4045F2D903204AE7911E01291B6802D813F0007FDCE713F0020FD9E7EAB246
:20B0A0001A701B6803F00F03AB427FF438AF5CE7E36833F480520CD023F40062B2F5A05FB5
:20B0C00007D0B3F5C05F04D0064840F2A92143F0EBF8064AE168936823F4E0530B4393607F
:20B0E00047E700BF02A90608003C02400038024097A8060804000020014B1868704700BFFF
:20B1000004000020044B054A9B68C3F38223D35C034A1068D840704700380240A7A8060875
:20B1200004000020044B054A9B68C3F34233D35C034A1068D840704700380240A7A8060885
:20B14000040000200F2303600B4B9A6802F0030242609A6802F0F00282609A6802F4E05253
:20B16000C2609B68DB0803F4E0530361034B1B6803F00F030B60704700380240003C024049
:20B1800003682DE9F743013B40F6FE729342044603D9AA48662143F087F8266816F0010651
:20B1A00013D0A36B33F0C06303D0A4486C2143F07BF8A34AA66BD2F88C3023F0C063334336
:20B1C000B6FA86F6C2F88C3076092368980713D5E36B33F0C05303D098487C2143F064F8D9
:20B1E0009749E26BD1F88C3023F0C0531343002AC1F88C3008BF0126256815F004051AD00F
:20B20000236B33F4401303D08C488C2143F04CF88B4A256BD2F88C30B5F5801F23F44013BD
:20B2200043EA050318BFB5FA85F5C2F88C3012BF6D09002501262368190717D5636B33F444
:20B24000400303D07D48A12143F02EF87C49626BD1F88C3023F440031343B2F5800FC1F842
:20B260008C3000F0D781002A08BF012523689A0665D5236CB3F5807F2DD0B3F5007F2AD0FA
:20B28000704A23F4A020904223F4803123D023F4102002F5003290421DD06B4823F4403225
:20B2A000824218D023F4881300F5C020834212D0664B9A420FD003F580239A420BD003F5FE
:20B2C00080239A4207D003F58023994203D05B48B72142F0E9FF00230193594B5C4F1A6CAE
:20B2E00042F080521A641B6C03F080530193019B3B6843F480733B60FFF7E8FC80463B68A4
:20B30000DB0540F189814E4F3B6F13F4407340F08E81236C03F44072B2F5407F484A40F072
:20B32000AB81916823F0704021F4F81120F4407001439160116FC3F30B030B431367236877
:20B34000DA0642BF434B94F85820C3F8E02123681B0613D5E36C33F4800206D0B3F5000FA5
:20B3600003D03648F52142F09FFF354AE16CD2F8943023F440030B43C2F8943023685F0626
:20B3800011D5A36C33F0806304D02C484FF4807142F08AFF2A4AA16CD2F8943023F0806376
:20B3A0000B43C2F894302368D80515D5636D33F0006304D0214840F20B1142F075FF20497F
:20B3C000626DD1F8943023F000631343B2F1006FC1F8943008BF01252368990511D5636CEB
:20B3E00033F0805304D015484FF48E7142F05CFF134A616CD2F8943023F080530B43C2F8B1
:20B40000943023685A0500F13B81012E40F05681114B0B4F00229A66FFF758FC06463B688A
:20B420001B0100F1D3816368023B3D2B16D9034840F2471142F038FF10E000BF52A9060856
:20B4400000380240000302000003080000031000007000400010474200004742A368323B05
:20B46000B3F5BF7F04D992484FF4A47142F01CFF2368D80701D5A26B1AB199071ED5E36B91
:20B48000E3B96369023B052B04D9894840F24F1142F00AFF874AD2F88430D2F8841003F4B8
:20B4A000403301F070610B4361680B43A16843EA8113616943EA0173C2F8843023685A0763
:20B4C00003D5226BB2F5801F05D01F0732D5636BB3F5800F2ED12369023B0D2B04D9744821
:20B4E00040F25F1142F0E0FEA36A013B1F2B04D96F4840F2611142F0D7FE6E4AD2F8843092
:20B50000D2F8841003F4403301F0E0410B4361680B43A16843EA8113216943EA0163C2F84D
:20B520008430D2F88C10A36A21F01F01013B0B43C2F88C3023685E0528D5236DB3F1005F35
:20B5400024D1E268082A04D84FF4AA73D340D80704D457484FF4BA7142F0A6FE554960682B
:20B56000D1F88420D1F8843003F0E0430343A068C2F30142013243EA801343EA4263E26876
:20B580005208013A43EA0243C1F884302368190530D5E268082A04D84FF4AA73D340DA07DD
:20B5A00004D443484FF4C17142F07EFE6369023B052B04D93E4840F2831142F075FE236972
:20B5C000023B0D2B04D93A484FF4C27142F06CFE2369A2681B0643EA821362681343626921
:20B5E00043EA0273E2685208013A43EA0243314AC2F88430304B2F4F01229A66FFF766FBFC
:20B6000006463B681B015ED4FFF760FB801B0228F7D908E0012629E6FFF758FBA0EB08000D
:20B6200002287FF66CAE032003B0BDE8F083226C02F4407293423FF46CAE3B6F1E4A0121D7
:20B64000C2F8401E23F440730021C2F8401E3B673B6FD8077FF55DAEFFF738FB41F2883908
:20B6600080463B6F99073FF554AEFFF72FFBA0EB08004845F5D9D6E7916821F4F81158E664
:20B68000236D33F0005304D0094840F2271142F00BFE0849226DD1F8943023F000531343B1
:20B6A000B2F1005FC1F894307FF4AFAEB0E600BF52A9060800380240000047422368B3F5A7
:20B6C000006F3FF4A5AE012D7ED14A4B4A4E00221A67FFF7FBFA054633689F007DD4A3695B
:20B6E0003F2B04D945484FF4D77142F0DDFDE369323BB3F5BF7F04D9404840F2AF1142F0B7
:20B70000D3FD23685D0701D5226B1AB118072CD5636B53BB636A023B0D2B04D937484FF45F
:20B72000DB7142F0C1FDE36A013B1F2B04D933484FF4DC7142F0B8FD2F4AA169D2F8883026
:20B7400003F440330B43E16943EA8113616A43EA0163C2F88830D2F88C30E16A23F4F85325
:20B76000013943EA0123C2F88C302368D90521D5636DB3F1006F1DD1226A082A04D84FF4BB
:20B78000AA73D340DA0704D41C484FF4E57142F08BFD1949A269D1F8883003F070631343FF
:20B7A000E26943EA8213226A5208013A43EA0243C1F888300F4B104D01221A67FFF786FAA7
:20B7C00004462B689B000FD500202DE7FFF77EFA801B02287FF623AE25E7FFF777FA401B92
:20B7E00002287FF679AF1EE7FFF770FA001B0228E7D918E7000047420038024052A906080D
:20B8000040F2FF7303603C4BD3F8842002F03F024260D3F88420C2F388128260D3F8842047
:20B82000C2F3014201325200C260D3F88420C2F303620261D3F88420C2F302724261D3F877
:20B84000882002F03F028261D3F88820C2F38812C261D3F88820C2F30142013252000262F1
:20B86000D3F88820C2F303624262D3F88C2002F01F028262D3F88C20C2F30422C262D3F8E8
:20B880008C2002F440120263D3F88C2002F440024263D3F88C2002F0C0628263D3F88C2014
:20B8A00002F0C052C26399681A6F01F4F81102F440720A430264D3F8942002F08062826443
:20B8C000D3F8942002F44002C264D3F8942002F000624265D3F8942002F080524264D3F85D
:20B8E000942002F000520265D3F88C30C3F3006380F85830704700BF00380240204908B533
:20B900008B6803F00C03082B07D00C2B20D01D481D4A042B08BF104608BD4A684B6849680E
:20B9200013F4800314BF18481648C1F3881118BF002302F03F02A1FB0001FDF789FC104B01
:20B940005B68C3F3014301335B00B0FBF3F0E3E74A684B68496813F4800314BF0A4809482D
:20B96000C1F3881118BF002302F03F02A1FB0001FDF76EFC024B5B68C3F30273E5E700BF8C
:20B98000003802400024F400001BB70003680F2B2DE9F341044604D985484FF4506142F03A
:20B9A00083FC2368DD0718D42368980777D42368190700F1D18023685A0700F1FF80A369E3
:20B9C000022B04D97A4840F6F35142F06DFCA269002A40F06281002029E0636833F4803271
:20B9E00007D0B3F5A02F04D0714840F6055142F05BFC704B9A6802F00C02042A0FD09A688B
:20BA000002F00C02082A02D15A68510207D49A6802F00C020C2A0DD15B685A020AD5654B6D
:20BA20001B689B03C0D56368002BBDD1012002B0BDE8F08163685F4DB3F5803F11D12B6890
:20BA400043F480332B60FFF741F95A4E054633689F03A9D4FFF73AF9401B6428F7D9032091
:20BA6000E5E7B3F5A02F04D12B6843F480232B60E5E72A6822F480322A602A6822F48022BC
:20BA80002A60002BDFD1FFF721F906462B6898038AD5FFF71BF9801B6428F7D9DFE7E36846
:20BAA000012B04D9424840F63D5142F0FDFB23691F2B04D93E4840F63E5142F0F5FB3D4B5D
:20BAC0009A6812F00C0F0FD09A6802F00C02082A02D15A68510207D59A6802F00C020C2A38
:20BAE00011D15B685A020ED4324A13689B0702D5E368012B9AD11368216923F0F80343EAD1
:20BB0000C103136053E7E2682B4BB2B101221A60FFF7DCF8274D06462B689F0707D52B68C2
:20BB2000226923F0F80343EAC2032B603FE7FFF7CDF8801B0228EFD991E71A60FFF7C6F8DB
:20BB40001C4E0546336898077FF531AFFFF7BEF8401B0228F6D982E76369012B04D9144808
:20BB600040F6845142F0A0FB6269134B82B10122C3F8802EFFF7AAF80E4E0546736F9B0742
:20BB80003FF519AFFFF7A2F8401B0228F6D966E7C3F8802EFFF79AF8064E0546736F9F0760
:20BBA0007FF509AFFFF792F8401B0228F6D956E752A906080038024000004742A368012B05
:20BBC00006D9052B04D078484FF45B6142F06CFB764B1A6C12F0805228D101921A6C42F0CB
:20BBE00080521A641B6C03F080530193019B01276F4D2B68D8051BD5A3686C4D012B27D14C
:20BC00002B6F43F001032B67FFF760F8674E054641F28838336F9A0739D5002F3FF4CFAE50
:20BC2000624A136C23F080531364C8E60027DFE72B6843F480732B60FFF748F806462B6884
:20BC4000D905D9D4FFF742F8801B0228F7D906E7052B04D12B6F43F004032B67D0E72A6FEC
:20BC600022F001022A672A6F22F004022A67002BCAD1FFF72BF841F2883806462B6F9B0782
:20BC8000CBD5FFF723F8801B4045F7D9E7E6FFF71DF8401B4045BDD9E1E6444DAB6803F057
:20BCA0000C03082B3FF4C2AE022A6CD1E36933F4800304D03C4840F6FC5142F0F5FA236AB7
:20BCC0003F2B04D9384840F6FD5142F0EDFA636A323BB3F5BF7F04D9334840F6FE5142F0D1
:20BCE000E3FAA26A082A04D84FF4AA73D340D80704D42D4840F6FF5142F0D6FAE36A023B9C
:20BD00000D2B04D928484FF4606142F0CDFA236B023B052B04D9244840F6016142F0C4FAD5
:20BD2000244B224D00221A66FEF7D0FF06462B68990122D4D4E907321343626A43EA821376
:20BD4000E26A43EA0263226B43EA0273A26A5208013A43EA02436B60164B144D01221A6693
:20BD6000FEF7B4FF04462B689A013FF534AEFEF7ADFF001B0228F6D971E6FEF7A7FF801B4B
:20BD80000228D4D96BE60B4B00221A66FEF79EFF04462B689B017FF51EAEFEF797FF001B92
:20BDA0000228F6D95BE600BF52A90608003802400070004000004742974B98422DE9F74FB6
:20BDC00004460D461FD003F5806398421BD003F58063984217D003F58063984213D003F50B
:20BDE000806398420FD003F5806398420BD003F58063984207D003F58063984203D0874834
:20BE0000B32142F051FA2B689AB212B11B0C1B041BB18248B42142F047FA6B68032B17D91A
:20BE2000A3F11102012A13D97D4923F400128A420ED001F580118B420AD0A1F570218A428A
:20BE400006D0784A934203D07448B52142F02CFAAB68022B03D97148B62142F025FADFF8E4
:20BE6000CC8100262A68012303FA06F737EA020307EA020940F0BF806A6822F01002022AEC
:20BE800018D12A690D2A05D90F2A03D06348C72142F00AFAF10804EB810106F00702900043
:20BEA0000B6A0F22824023EA020C2A69824042EA0C020A6220684FEA460B032202FA0BF2D4
:20BEC00020EA02006FEA020A6A6802F0030122F0100201FA0BF1013A0143012A216017D8F4
:20BEE000EA68032A03D94D48DA2142F0DDF9A168EA686B680AEA010102FA0BF20A43A260E3
:20BF00006268C3F3001322EA0702B34013436360E36868680AEA030AAB6803FA0BF343EA16
:20BF20000A03E360C30066D53F4A00230193516C41F480415164526C26F0030101F1804180
:20BF400002F4804201F59C31019206F0030C019AD1F808E04FEA8C0C0F2202FA0CF22EEA6E
:20BF6000020E2D4A94421BD003F1804303F501339C4247D003F580639C4245D003F58063F8
:20BF80009C4243D003F580639C4241D003F580639C423FD003F580639C420CBF0623072347
:20BFA00003FA0CF343EA0E038B60D8F800206FEA0901C70354BF0A4049EA0202C8F80020CB
:20BFC000D8F80420830354BF0A4049EA0202C8F80420D8F80820C70254BF0A4049EA02021A
:20BFE000C8F80820D8F80C30820254BF0B4049EA0303C8F80C300136102E7FF433AF03B0B9
:020000040800F2
:20C00000BDE8F08F0123CBE70223C9E70323C7E70423C5E70523C3E700000240A5A906083A
:20C02000000011100000221000380240003C0140044A5169014208B502D050615BF01CFBC9
:20C0400008BD00BF003C01400B4A026002F18832426002F12942A2F59612A2F68B628260D5
:20C06000A2F188320023C260044A0261C0E90533C365A0F86030704701234567F0E1D2C35F
:20C080002DE9F04FD3B002A9024600F140050C46537F167F1B0443EA0663D67F3343967F51
:20C0A000043243EA0623954244F8043BF0D110240A460134156A536B6B40956812686B401E
:20C0C000043153404FEAF373502CCB63F0D1D0E902C3D0E9008E00930369009CDFF8FCB0AB
:20C0E00001931F46E1467546C246002302A90BEBFA6251F82310114489EA04022A406240E7
:20C1000001330A44142B3A444FEAB5062746554653D1DFF8CCB08AEA060585EA09010BEB7F
:20C12000F2650D4402A94FEABA0751F8231001330D44282B254492464C4642D1DFF8A4A05D
:20C1400047EA0604144007EA060144EA010B02AC0AEBF56154F823400133214459443C2BD9
:20C1600049444FEAB204B1462A462ED1DFF8789085EA040A8AEA070209EBF16A924402AA33
:20C1800052F8232001335244502B32444FEAB50A3E460D461DD10CEB0A038360009B2344B1
:20C1A000C360019B3B44424471440361002302604160C36553B0BDE8F08F4C469246B146CC
:20C1C00094E7B1462A463E46A5E73E460D462746B6E7274611465446CAE700BF9979825AD0
:20C1E000A1EBD96EDCBC1B8FD6C162CA70B51AB3B0F86030EBB90C468D180126AC421BD0A2
:20C2000090F86130C3B9C36D5A1CC265034414F8011B19774369083343612BB9836901332E
:20C2200083610BB980F86160402AE7D1FFF728FFE4E7012380F8613070BD08B5C36D591C57
:20C24000372B03444FF08002C1651A774FF0000220DDC36D3F2B0FDDFFF712FF0022C36DA0
:20C26000372B0EDD83691BBA436543691BBA8365BDE80840FFF704BF591C0344C1651A7786
:20C28000E7E7591C0344C1651A77E8E7591C0344C1651A77C36D372BF8DDE3E790F86130D1
:20C2A00010B54BB990F8603023B9FFF7C6FF012380F86030184610BD0023FBE7006870478B
:20C2C0000B0A017043700B0C090E8370C1707047C3690239023B8B4283BF4389006B01FB36
:20C2E000030000207047C2F307238A76CB760378032B01BF120C0A75120A4A75704700F1BB
:20C300000B010022D30143EA520310F8012B52FA83F38842DAB2F5D110467047026810B54B
:20C3200004465AB1114611F8013B1F2B11D93A2BF9D11378303BD8B2092802D94FF0FF30AF
:20C3400006E002329142F9D1012B1846F6DC216010BD0020FCE77F2804D8002A54D0087030
:20C3600001207047B0F5006F0CD2012A4CD9830900F03F0063F03F0360F07F0048700B7051
:20C3800002207047B0F5803F16D2022A3CD9A0F55843B3F5006F37D3030B63F01F030B70E8
:20C3A000C0F3851300F03F0063F07F0360F07F0088704B7003207047032A25D9030C1B0479
:20C3C00003F120539B09B3F5801F1DD280B2A0F55C40B0F5806F17D2184300F58030830CAD
:20C3E00063F00F030B70C0F3053363F07F034B70C0F3851300F03F0063F07F0360F07F00C4
:20C40000C8708B7004207047002070472DE9F8430027D0F800908F75836906460C46002BAE
:20C4200000F08D80C36A013361D100252F464FF02E08F269D05D20283B4607F1010765D0D7
:20C44000052808BFE520092F05D10B2D9EBF6319013583F8098040F2523101F083FF00283A
:20C460004AD10025631900225A72A37D002B5AD1002D4ED06FF0080504F1090108202D1B76
:20C480006B1811F8012B002A46D02E2A93B258D0A3F14102192A04D8F269127B104200D0DF
:20C4A00020330B73ECE7B8F1000F05D100F520539BB2B3F5006F0BD305F11601C5F1780263
:20C4C000214440EA0840FFF746FF98B10544002002378046D9F80C30D85B0028E3D1B8F1D4
:20C4E000000F18BF002525440023AB759DE7B8463D46EFE70546F2E705F10901C5F10C02C2
:20C500002144FFF728FF0028ABD005440B2F90D1A8E73F23A3750123234400229A75F369F1
:20C520001B7B03B96372F369DA7A227203F11C00FFF7C4FE2060DA8AE2801B8BA380BDE814
:20C54000F88310201346ACE737B5C37804461BB90025284603B030BD00F13801426B40783D
:20C560000191012343F08EF8054680B9A36AE070606B226AC31A9342EAD2A3780199022BC4
:20C58000E6D102440123607843F07CF8E1E70125DFE738B5436B8B4205460C4610D0FFF76C
:20C5A000D3FF60B922466878012305F1380143F015F800281CBF4FF0FF3401206C6338BD5B
:20C5C0000020FCE738B50023C3704FF0FF3343630546FFF7DEFF0446F8B9B5F836224AF6A0
:20C5E00055239A421BD195F83830EB2B03D01833DBB2012B15D80C49032205F16E00FDF75A
:20C600008DFF40B10949052205F18A00FDF786FF002818BF0224204638BD0424FBE703247A
:20C62000F9E70224F7E700BFF6A90608FAA9060801292DE9F04706460C46174673D9C3690F
:20C640008B4270D90378022B3FD0032B50D0012B69D101EB5108816A01EB5821FFF799FF36
:20C66000054638BB06F1380908F1010AC8F3080814F001041FBF19F8083003F00F023B0105
:20C6800003F0F00314BF1343FBB209F80830B16A0123F37001EB5A213046FFF77AFF05466C
:20C6A00040B9CAF3080A44B1C7F3071709F80A700123F3702846BDE8F08719F80A30C7F354
:20C6C000032723F00F031F43F0E7816A01EB1421FFF75FFF05460028ECD1640006F13803AC
:20C6E00004F4FF7418191F55C7F307274770DFE7816A01EBD411FFF74CFF05460028D9D1AB
:20C70000A40006F1380304F4FE741C442046FFF7D5FD27F0704700F0704047EA0001204645
:20C72000FFF7CEFDC4E70225C4E740B1A1F10B03012B04D90F2902D000692EF0DAB9704746
:20C74000F7B505460191FFF7FFFE044600BB01992846FFF7BDFD05F13807064668634FF411
:20C76000007221463846FDF711FF6B899C4205D36889001B18BF012003B0F0BD687801234C
:20C780003219394642F07EFF0028F1D10134ECE70120F1E7F8B50446FFF7D6FE0546002801
:20C7A00042D12378032B37D12779012F34D104F1380601464FF400723046FDF7E7FE5523CA
:20C7C00084F83632AA2384F8373252234122722184F8383084F83930612384F83A3084F8A9
:20C7E0001F3284F83B2084F81C1284F81D1284F81E22A16904F50870FFF762FD616904F56D
:20C800000970FFF75DFD626A6078013262633B46314642F037FF257100226078114642F03A
:20C8200085FF003818BF0120F8BD03284B8B04BF8A8A43EA0243184670470129F8B506460D
:20C840000C464ED9C36999424BD20378022B29D0032B34D0012B44D101EB5105816A01EB0E
:20C860005521FFF796FE10B14FF0FF30F8BD6F1CB16AC5F30805354401EB5721304695F889
:20C880003850FFF786FE0028EED1C7F308073E44E30796F8380045EA00204CBF0009C0F39E
:20C8A0000B00E3E7816A01EB1421FFF772FE0028DAD1640004F4FF742644308FD6E7816ABE
:20C8C00001EBD411FFF765FE0028CDD1A40006F1380004F4FE742044FFF7F0FC20F0704025
:20C8E000C4E70120C2E737B50C46012C054611462BD9C3699C4228D222B14FF0FF32FFF775
:20C9000097FE40B9214628460194FFF796FF0199044610B9002003B030BD012815D0431CBA
:20C9200015D000222846FFF783FE0028F3D1D5E90632911E8B4205D20133AB612B7943F0BF
:20C9400001032B719442DDD3E4E70220E3E70120E1E7F8B505460F4649B94669B6B1C36980
:20C960009E4228BF0126AB6993B9002405E0FFF764FF0128044602D801242046F8BD421C1C
:20C9800050D0EB699842F8D33E46ECE70126EAE7B74215D1EB697C1C9C4228BF0224214612
:20C9A0002846FFF74AFF0128E6D0431C3AD0D8B16B69012B04D9EA69934234BF1E463E4619
:20C9C0003446EB6901349C4202D3012ECDD9022421462846FFF731FF40B10128CCD00130C4
:20C9E00020D0A642EDD1C0E7002CE9D04FF0FF3221462846FFF71CFE90B957B9D5E9063271
:20CA0000023A93426C6110D92B7943F001032B71B3E7224639462846FFF70AFE0028EDD006
:20CA20000128A9D14FF0FF34A7E7013BAB61EBE72DE9F843076906682037B7F5001F24BF05
:20CA40000023836183690446894673B1C7F30808B8F1000F39D141690133836139B93389AA
:20CA6000B3EB571F31D80023A36104200BE07389013B13EA572328D13046FFF7DEFE01284A
:20CA8000054602D80220BDE8F883421C01D10120F9E7F369834212D8B9F1000FE3D06169BD
:20CAA0002068FFF756FF0546A8B10128EAD0431CEDD001463046FFF743FE0028E7D1656166
:20CAC00029463046FFF704FCA061383646442761E6610020D7E70720D5E700002DE9F843A1
:20CAE000FF27D0F8008006463C4604254FF6FF79B16911B9002D5ED04EE04046FFF749FDE5
:20CB00000546002848D1F0690378002B5BD0C27AE52B02F03F02B27143D02E2B41D022F02E
:20CB2000200108293DD00F2A40D1590637D503F0BF043369477BF362437BBB4231D1428BEE
:20CB40007ABB0378D8F80C50DFF880E023F040030D21013B4B4301211EF801CB30F80CC07C
:20CB600009B3782B1DD825F813C06146013301320D2AF1D10278520605D521B1782B10D861
:20CB8000002225F81320013CE4B200213046FFF74FFF05460028ABD00023B3610CE0A3427F
:20CBA000CAD0FF24F1E7CC45E1D0FAE73CB9FFF7A6FBB84203D100252846BDE8F8834FF0F1
:20CBC000FF33F362F8E70425E6E700BF90AA0608B1F5001FF8B506460C4601D30220F8BD37
:20CBE000CA06FBD1826805680161CAB92B78022B01D9EB6A9BB92B89B3EB541FEED9EB6A29
:20CC0000B361B3697261002BE8D003EB54233835C4F308042C44B361F4610020DFE71A467A
:20CC20006F897F02BC42114604D22846FFF750FBB061E6E73068FFF700FE431C024606D0BA
:20CC40000128CBD9EB698342C8D9E41BEAE70120C5E7C16A4B1C2DE9F041056806690446B1
:20CC600018D1E5274FF00108A1692846FFF791FC60B9E3691F7085F803802369B3420DD228
:20CC800001462046FFF7D4FE0028EDD0042808BF022003E0FFF79CFF0028E2D0BDE8F081C1
:20CCA0002DE9F04F002185B0D0F800B00446FFF78FFF0546002840F08D804FF0FF3A4FF01C
:20CCC000FF08C4F82CA0C146A1695846FFF761FC054600287ED1E6693778002F7ED0F27A1A
:20CCE000E52F02F03F03A37103D0100704D50F2B04D0C4F82CA050E00F2B56D194F82B3007
:20CD0000590640D47A0646D5236996F80D80E36207F0BF07737B43453FD1738B002B3CD1A0
:20CD20003578DBF80C30009305F03F05013D0D23DFF8B0905D43012219F8013BF35A7AB35C
:20CD4000782D2AD81846039301F020FB009B0290691C33F81500019101F018FB029A824244
:20CD60001BD1039B01991A460D461D4B9945E3D133785B0604D51AB1009B33F8153063B90B
:20CD8000013F5FFA87F900212046FFF751FE0546002899D01EE0B945BCD04FF0FF09F2E72A
:20CDA0004FF6FF718B42E0D0F7E7B9F1000F04D13046FFF7A4FA40450CD094F82B5015F05E
:20CDC000010596D10B2204F120013046FDF7A6FB00288ED1284605B0BDE8F08F0425F9E7C1
:20CDE0009DAA060890AA06082DE9F04F90F82BB01BF0A00589B0044640F095800768FA6895
:20CE000032F81530002B69D104F1200696E807000DF1140A1BF0010F8AE8070000F08A80F4
:20CE2000402384F82B304FF001089AE80700B446FB68ACE803002CF8022BB8F1050F4FEAAC
:20CE400012428CF800205DD9981E424630F8021F002945D10DF1130C072102F00F0E0EF18B
:20CE60003000392888BF0EF137000F2A0CF8010901F1FF314FEA121046D808AB5A187E20FF
:20CE800002F8140C30460022914206D010F801CBBCF1200F02F1010E38D104F11F0C07292C
:20CEA0009CBF08AB581802F1010296BF10F8140C20200131072A0CF80200F0D92046FFF7B3
:20CEC000EFFE814690BB08F10108B8F1640FACD14FF00709484609B0BDE8F08F01358FE752
:20CEE0004FF0100C01F0010E0EEB4202D30344BF82F4883282F02102BCF1010C4FEA5101B7
:20CF0000F0D1A3E74246A5E70246A6E77246BBE7804601212046FFF78BFD814600B3B9F193
:20CF2000040FD5D0D6E74FF00609D3E70428D1D184F82BB01BF0020F18BF0C354FF00001DB
:20CF4000204618BF0D23D4F800A016BFB5FBF3F501250135FFF73CFE81460028DFD180469A
:20CF6000A1695046FFF715FB81460028D7D1E3691B78E52B01D0002BCAD108F10108454562
:20CF8000C7D1013D55D021692046A1EB4511FFF71FFE814600289DD13046FFF7B0F94FF6FA
:20CFA000FF780190A1693846FFF7F3FA8146002890D1E369019AD7F80CE05A73E9B24FF065
:20CFC0000F024FF00D0CDA72DFF8A4A018734A1E0CFB02F29876D87684461AF8019B40453A
:20CFE00018BF3EF8120003F8090003EB090B0CF1010C18BF01324FEA1029002808BF404611
:20D00000BCF10D0F8BF80190E7D1404502D03EF812200AB941F0400119700123FB7000214E
:20D020002046FFF705FD814600287FF453AF013DB8D1A1693846FFF7ACFA814600287FF4E1
:20D0400049AF01462022E069FDF7A0FA03CEE36918605960B278318819819A7294F82B30BA
:20D06000E26903F0180313730123FB7032E700BF90AA06082DE9FF4100230B600F4615468E
:20D08000FFF74CF9061EC0F20F818F4B53F82640002C00F00B8120692DF024FD002800F0DD
:20D0A00007813C60237805F0FE056BB1607842F08DFAC70708D41DB110F0040500D00A258C
:20D0C000284604B0BDE8F0810023F0B22370607042F074FAC10700F1ED800DB14207EED461
:20D0E00000212046FFF76EFA022840F0C6806E4604F5FF7304F23E21324613F8040C10B1E3
:20D100001846FFF7DBF810338B4242F8040BF4D1002556F8047B002F00F0A68039462046AE
:20D12000FFF750FA012800F2A080B4F84330B3F5007F40F0A680B4F84E6026B904F15C004E
:20D14000FFF7BCF8064694F84880266208F1FF33012B84F8028000F2948094F8455065819B
:20D16000002D00F08E806B1E2B4240F08A80B4F8491021810B0740F08480B4F84B0018B99F
:20D1800004F15800FFF79AF8B4F84620002A78D006FB08F802EB111CC444604571D3A0EB9F
:20D1A0000C00A842B0FBF5F36BD34848834268D84FF6F57083427FD9032502333A440CEB7A
:20D1C0000700032DE3616762A26220635DD1B4F862200A4355D104F16400FFF76FF89B0064
:20D1E000E06203F2FF13B6EB532F4AD34FF0FF33C4E90533032D4FF0800323712BD1B4F822
:20D200006830012B27D1791C2046FFF7C2F910BBB4F8362220714AF655239A421BD104F1D1
:20D220003800FFF74BF82A4B984214D104F50770FFF744F803F1FF5303F5005320339842E9
:20D2400009D104F50870FFF739F8A06104F50970FFF734F860611F4A2570138801339BB2EC
:20D260001380E38000252BE703200135042D7FF450AF042805D1012522E70428FBD0012834
:20D2800001D90D251CE700274FE70029F9D04244022DE2624FEA43021BBFD21803F00103FE
:20D2A000134603EB52039CE70B2509E70C2507E70F2505E7032503E740F6F575AB428CBF06
:20D2C0000225012579E700BF80070020F5FFFF0F52526141880700202DE9F04F85B003684F
:20D2E00001930646894611F8013B2F2BFAD05C2BF8D00021B16099F800301F2B00F2008117
:20D300008023304686F82B3005B0BDE8F04FFFF75FBC03F0E002C02A2DD103F01F0301227C
:20D3200001324A44814619F8010B00F0C004802C3AD100F03F00914540EA8313F3D1A74865
:20D34000A3F1800282422FD8A3F55842B2F5006F2AD3B3F5803FC0F0DF80A148A3F58032FE
:20D3600000EA8212C3F3090313430B431A0C2BF815200135D0E003F0F002E02A03D103F0AF
:20D380000F030222CCE703F0F802F02A0CD103F007030322C4E77F2A08D8924C9BB214F833
:20D3A000010B18B18342FAD106204CE0772DFBD82BF815200135A8E032F81530202B02D09D
:20D3C0002E2B40F0C380013DBDE0D04505D2AB4249D1BAF10B0F3ED102E0BAF10B0F35D132
:20D3E00044F003044FF00B0A96F82030E52B04BF052386F82030BAF1080F04BFBF00FFB202
:20D4000007F00C030C2B03D007F00303032B01D144F00204A50707D4F80748BF44F01004F0
:20D42000790748BF44F0080486F82B403046FFF737FC96F82B30002852D0042803D113F067
:20D44000040F08BF052005B0BDE8F08FAB4202D044F00304C8D8BF00FFB22B464FF00B0A25
:20D460004FF00808A7E07F2812D944F0020240F252310393029200F055FF10F0800FDDE994
:20D48000022311D0584900F07F00085C144638B1564911F8012B002A00F091808242F8D143
:20D4A00044F003045F2011E0FF28EFD90AF1FF31884503D344F00304D0467CE006EB08015D
:20D4C000040A81F8204008F10108144606EB080208F1010882F820006DE047F00207F5E709
:20D4E0005A07B0D4B379DB0667D5019B31693833C1F308011944019B1878FFF796F9B06082
:20D5000033683B49D3F80CB00025484610F8013B1F063FF5FEAE81469AB21F2A04D92F2AD7
:20D5200002D05C2A7FF437AF49460B782F2B894601F10101F9D05C2BF7D0202A34BF04248F
:20D540000024ABF10202002D7FF436AF00232BF81530002D3FF428AF3BF8131020291A46C1
:20D5600003F10103F8D00AB92E2901D144F00304ABF1020131F815302E2B01D0013DF9D185
:20D580004FF020334FF0000873623362C6F827304FF0080A47463BF81200531C00283FF446
:20D5A00023AF202805D02E287FF40FAFAB423FF410AF44F003041A46EDE7052043E7A0F1C7
:20D5C000410292B2192A88D9A0F1610292B2192A9EBF203847F0010780B277E77FFF100093
:20D5E0000000FF0300AA060810AA060809AA060800DC00D838B50D460446F0B10368DBB112
:20D600001A78B2B18188DA88914212D118692DF069FA034698B12368587841F0D7FF10F0FF
:20D62000010002D124682C6038BD20680021FFF77CF809200024F6E71C460920F3E70F2038
:20D640001C46F0E7F0B585B0CDE9001003A814460391FEF763FE051E28DB154F57F82560A4
:20D660004EB130692DF047FA18B90224204605B0F0BD00233370019979B9019B47F8253033
:20D68000002CF3D001A900226846FFF7F3FC044601460198FFF749F8E8E7002301F8103BA5
:20D6A000E8B22DF013FA0028E7D1DEE70B24DDE7800700202DE9F041CCB01746019105466A
:20D6C000002800F0C78002F03F06324602A901A8FFF7D0FC002840F0B580029B01990393CC
:20D6E0000FAADA6003A8FFF7F7FD044620B99DF93730002BB8BF062417F01C0F6FD0002C19
:20D700003CD0042C37D103A8FFF76EFB044690BB46F00806029B0A9C18782146FFF785F835
:20D72000074642F00BF8014604F10E00FEF7C8FD0A9B02982022DA720A990022FEF7D3FD0C
:20D740000A9B00221A775A779A77DA77029B0121D970E7B10398D3F834803946FFF7C3F854
:20D76000044640B902984146FEF713FF029B013F5F61044658B100232B6028E09DF81230C1
:20D7800013F0110F35D178075ED43907C2D4029C0A99636B2B6269623007207848BF46F066
:20D7A0004006FFF742F8A860034601F11C00FEF785FDE288AA80B1064FF000020746E860FC
:20D7C0002C602E746A74EA616A6114D4002402982146FEF7AAFF20464CB0BDE8F081002CD8
:20D7E000C9D19DF81230DA0630D4BF07CFD5DC07CDD50724BFE70028E8D064896861640218
:20D80000BC4210D30024AB61002CB4D1C7F30802002ADBD002981946FEF75AFDC0B100EB0C
:20D820005720E861D3E719462868FFF706F801280346A7EB040703D9421CE1D10124E2E7A2
:20D840000224E0E7044696E7082494E7042492E7022490E70924BEE72DE9F04F984685B0F5
:20D8600000230F46C8F8003003A906469146FFF7C1FE044608B9747C24B121460398FEF7F5
:20D8800054FF08E0347C14F0010408D103980721FEF74BFF0724204605B0BDE8F08FF268F5
:20D8A0007369D21A914528BF91460398B9F1000F04D14946FEF739FF4C46ECE77369C3F330
:20D8C0000802002A5BD1B0F80AA00AF1FF3A1AEA532A11D12BB9B068012807D802247474ED
:20D8E000CBE7B1693068FEF7A8FFF5E7421C02D101217174C2E7B061DDF80CB0B169584611
:20D90000FEF7E6FC20B90224747421465846B6E7B9F5007F0AEB000230D3BB072ED1BBF80C
:20D920000A309BF8010001920AEB592199424FEA592588BFA3EB0A05EBB2394641F04EFE08
:20D94000019A0028D4D10399CB7853B1486B801AA84206D24FF40072383107EB4020FCF70A
:20D96000EDFD6D02D8F800302B44C8F8003073692B44A9EB05092F44736196E7F26175690D
:20D98000F1690398C5F30805C5F500754D4528BF4D46FEF7FEFD0028AAD10399736938311E
:20D9A000C3F308032A4619443846FCF7C7FDD9E72DE9F04F9A4685B000238846CAF8003097
:20D9C00003A905461746FFF715FE044608B96C7C0CB121462BE02B7C9A0708D403980721E1
:20D9E000FEF7A3FE0724204605B0BDE8F08F6B69FB4200D3DF43AFB16B69C3F30802002A03
:20DA000040F08A80039AB2F80A9009F1FF3919EA53291FD17BB9A86878B901462868FEF709
:20DA200098FF50B92B7C43F040032B7400210398FEF77BFED7E7A969F0E7012802D1022497
:20DA40006C74C6E7431C01D10124F9E7AB68A86103B9A8600398EB69426B9A4203D1FEF7E2
:20DA600073FD0028F0D1DDF80CB0A9695846FEF72FFC20B902246C7421465846D8E7B7F59D
:20DA8000007F09EB000239D318F0030F36D1BBF80A309BF80100019209EB572199424FEA50
:20DAA000572688BFA3EB0906F3B2414641F0EAFD019A81460028C7D1DDF80CB0DBF83410F7
:20DAC000891AB14209D24FF4007208EB41210BF13800FCF733FD8BF803907602DAF80030E4
:20DAE0006A693344CAF80030BF1BEB68B04416446E61B3422CBFEB60EE607CE76969EB689F
:20DB0000994208D358460192FEF71EFD019A00289AD1039B5A63EA616E69E9690398C6F3BD
:20DB20000806C6F50076BE4228BF3E46FEF731FD002889D103986B693830C3F30803324686
:20DB400018444146FCF7FAFC039B4FF00102DA70C4E7F7B501A90546FFF74CFD044660BBDF
:20DB60002C7C14F0400428D041F0E8FD296A07460198FEF70EFD0446F8B96E6AF37A43F0BB
:20DB80002003F372AA6828683146FEF7ACFBE96806F11C00FEF794FB394606F11600FEF7DF
:20DBA0008FFB0198B4740123F474C370FEF7F2FD2B7C23F0400304462B7401982146FEF79C
:20DBC000B4FD204603B0F0BD37B50546FFF7C1FF044650B901A92846FFF70CFD044620B954
:20DBE000286001460198FEF7A0FD204603B030BD2DE9F3410E4601A90546FFF7FBFC04465B
:20DC000008B96C7C14B12146019870E0EB68B34204D22A7C12F0020F08BF1E4600226B694E
:20DC20006A619EB90026EA686B69934282BF2A7CEB6042F04002C3F3080388BF2A741BB189
:20DC4000EB69B34218BFEE610021DDE7019A57897F021BB3013B721EB3FBF7F1B2FBF7F2AE
:20DC60008A421BD37A421340A9696B61F61A0029D8D0BE426B6923D86B6933446B61C6F37D
:20DC80000803002BCED0019A1046FEF721FB00283ED102246C742146104628E0A96869B979
:20DCA0002868FEF756FE0128014602D102246C74A9E7481C01D10124F9E7A960A961D6E7A7
:20DCC0003B446B612B7C28689A07A6EB070805D5FEF73FFE064620B90146CDE7FEF7ADFDB6
:20DCE0000646731C019808D101246C742146FEF71CFD204602B0BDE8F081012E02D9C369F9
:20DD0000B34201D80224F0E7AE6131464646B0E700EB562687E730B5C1B00546019100285F
:20DD200033D0002202A901A8FFF7A4F9044690B9029B2B6003AA0199DA602846FFF7CCFA71
:20DD4000044620BB95F92B30029C002B0BDBAB79DB0603D4052400232B600FE02078E9697A
:20DD6000FEF763FDA860E388AB8000212846FEF72FFF04280446EDD00028ECD102982146E5
:20DD8000FEF7D3FC204641B030BD0924FAE70428E0D0E0E737B501A90546FFF72BFC044682
:20DDA00020B9286001460198FEF7BFFC204603B030BDF0B5BFB00E4669460546FFF71AFCFE
:20DDC000044628B95EB901462846FEF701FF044600982146FEF7A9FC20463FB0F0BD009BD7
:20DDE00001AADA602846FEF779FE10F0FB070446EED131462846FEF709FB39462846FEF799
:20DE000017FE0428044614BF04460024E0E730B5CDB00D460190002203A901A8FFF72AF999
:20DE2000044688B9039B01990FAADA6003A8FFF753FA044640B99DF93730002B0BDB1DB11F
:20DE4000294603A8FEF7E2FA03982146FEF76DFC20464DB030BD0624F6E72DE9F04385B0A2
:20DE60000F460190154603A9002201A8FFF702F9044640B9039E2E60D6E90638A8F10202ED
:20DE8000934208D83B6003982146FEF74EFC204605B0BDE8F0833378012B1AD14FF00208B3
:20DEA000054641463046FEF7C8FC431C36D0012836D000B90135039BDB6908F10108434572
:20DEC000EFD8039B3D601A799D6142F001021A71D9E7B16A0546064636B9039801F10109F7
:20DEE000FEF757FBF0B94946039A02F138031278022A03EB060009D19B5B03B90135023634
:20DF0000B8F10108C6F30806E6D1DAE7FEF7D6F930F0704308BF01350436F1E70124D0E78E
:20DF20000224CEE70446CCE773B501A90446FFF761FB054608B9657C25B129460198FEF7DB
:20DF4000F4FB07E0237C9A0707D401980721FEF7ECFB0725284602B070BD6369E2689342CF
:20DF60002DD220689BB9A1682A46FEF7BCFCA56006466369E360237C43F040032374F6B1ED
:20DF8000019866743146FEF7D0FB3546E2E7A169FEF753FC431C01460BD001280BD0019B24
:20DFA000DB69834209D9A2692068FEF79CFC0646DFE70126DDE70226DBE72E46D9E700211A
:20DFC000BCE7F0B5D9B00222019002A901A8FFF751F8044690B9029B019903931BAADA60C9
:20DFE00003A8FFF779F9044640B99DF93730002B3ADB9DF81270FA0707D50724029821466E
:020000040800F2
:20E00000FEF793FB204659B0F0BD029E0A993078FEF70BFCFB0605460BD403A8FEF719FE98
:20E0200004460028EAD1B5B90298FEF7B3FB0446E4E7119021460FA80F96FEF7C9FD04468A
:20E040000028DBD10FA8FEF749FD04460028D4D00428D3D1E1E7024629460398FEF743FCC6
:20E0600004460028CAD1DFE70624C7E72DE9F041CCB00222019002A901A8FEF7FBFF0446F0
:20E08000054600286BD1029B019903930FAADA6003A8FFF721F90446002872D004285ED147
:20E0A000029F29463846FEF754FC054600285ED001285ED0431C5C425C4141F03FFB064644
:20E0C000002C58D102982946FEF73AFB0446002851D102984FF020328263C263C0F83F20D8
:20E0E0002E2280F83820102280F8432031464E30FEF7E6F802982A4600F13801FEF7F3F817
:20E10000029800F1580300F138011A4651F8044B42F8044B9942F9D12E2380F85930059AD8
:20E12000FEF7E1F8029B4FF0010883F8038003A8FEF75AFE0446F0B90A9831461630FEF7EF
:20E14000BFF82A460A990298FEF7CDF80A9B02981022DA7280F80380FEF71CFB04460298F9
:20E160002146FEF7E2FA20464CB0BDE8F0810724A3E70224A1E7002229463846FEF7B3FBDA
:20E18000EDE70824EBE730B5E1B0CDE900106846FEF7C4F8022202A901A8FEF76BFF0446F1
:20E1A000002840F08380029B01990B9323AADA600BA8FFF791F80446002877D19DF8573020
:20E1C00013F0A00F79D1129B03AC03F1200518685968224603C20833AB421446F7D10BAD5E
:20E1E0000FCD17AC0FC40FCD0FC495E80F0084E80F00009917A8FFF76FF8044648B9199A44
:20E200000D9B9A4203D11B9A0F9B9A4203D008244CE004284AD117A8FEF7E6FD04460028F0
:20E2200044D11E990DF1190301F10D020DF1290053F8044B42F8044B8342F9D118881080EE
:20E240009B7893709DF81730029CDA0658BF43F020030125CB72E570CB7ADB061DD50D9A6A
:20E26000199B9A4219D02078FEF7DFFA01462046FEF72EF8014610B32046FEF78AF90446C5
:20E28000A0B9029890F859302E2B06D1199A00F15801FEF728F8029BDD700BA8FEF7D9FCD1
:20E2A000044618B90298FEF775FA044602982146FEF73BFA204661B030BD0624F6E702243F
:20E2C000F4E730B5CDB00D460190022202A901A8FEF7D0FE0446E0B9029B019903930FAA79
:20E2E000DA6003A8FEF7F8FF044690B99DF8373013F0A00F14D1EB88A9880A9843EA014172
:20E300001630FDF7DDFF02980123C370FEF742FA044602982146FEF708FA20464DB030BD33
:20E320000624F6E77F2810B501D880B210BDB0F5803F13D240F2523399420FD10849002264
:20E3400031F8024B844293B203D103F18000C0B2ECE70132802AF3D11346F6E70020E5E7EC
:20E360004CAD06087F280DD940F25233994208D1FF2806D800F10040034B803833F8100027
:20E3800070470020704700BF4CAD0608B0F5803FF0B522D21F4A204983B2B0F5805F28BFBA
:20E3A0000A46141D34F8042C2146AAB1934213D334F8025C2E0AEFB252FA85F5A84222DAF4
:20E3C000082E09D8DFE806F0050A10121416181A1C00801A34F810301846F0BD981A00F00D
:20E3E00001001B1A9BB2F7E7103BFBE7203BF9E7303BF7E71A3BF5E70833F3E7503BF1E762
:20E40000A3F5E353EEE70434002ECBD101EB4702C7E700BF9EAA060890AC06080A4600685D
:20E42000014948F0DBBF00BFA4D4060810B5054B0360054BC0F8983004469C303AF08AF970
:20E44000204610BDB8630708947207080728034B28BF072053F82000704700BF30AF0608F1
:20E4600012289ABF024B53F820000248704700BFE4AE060884DF060810B5044650F0D4F964
:20E4800001232060237110BD38B5044600790D4638B150F0C9F92368C01A85428CBF0020F2
:20E4A000012038BD10B50446FFF7EEFF08B10023237110BD0FB407B5EFF30583C3F308036D
:20E4C00033B9064B0499586805AA01922FF03EFC03B05DF804EB04B0704700BF8C07002033
:20E4E000B4EE400AF1EE10FA08B50FD69FED0C7AF0EEC07AF4EE477AF1EE10FA06DC10EE0F
:20E50000100AFAF7CFF941EC100B08BD9FED020BFBE700BFAFF3008000000040F387C34002
:20E52000FFFF7F7FF7B50C4601900026012774B194FAA4F5B5FA85F53246294601A807FAFC
:20E5400005F5FFF76BFF24EA05040136EFE703B0F0BD10B50446FFF769FF20464FF47371E3
:20E560004EF00CFD204610BD10B5054C204632F0A7FB2046034A0449BDE8104049F06EBC89
:20E580008C070020000000202DE40008F8B51A4B1B681B685F6AD0F82851D0F824316E1CC6
:20E5A00006F03F069E42044621D014303CF052FA05F00103A8B123B9236A013323620020B5
:20E5C0000EE094F83B0180B9D4F82421AA4202D1237E83F0010004EB85056F62C4F82861D8
:20E5E000F8BD002BE8D1283FF5E70020F3E7C3690133C361E3E700BFC01A00200123C0F862
:20E600002831C0F82431044B1B681B685B6A4362002380F83B317047C01A002010B504460E
:20E6200000F03CF9044B236000232046C4E90733FFF7E4FF10BD00BF64AF06082DE9F74F91
:20E64000744B01911B681B68009304464FF0040E4FF005084FF006094FF0010A4FF0030B04
:20E6600094F83B11009BD4F828715B6A012929D002295AD0002940F0BF80D4F82431BB42CF
:20E6800000F0B180D90705D4013303F03F03C4F82431E5E75A1E02F03F0204EB830104EB4D
:20E6A0008202496A526A8A1AB2F5FA5F3FBF013303F03F03C4F8243184F83BB128BF84F880
:20E6C0003BA1CDE7D4F82421B91A11F03E0102F108001AD0013202F03F0204EB820304EBD8
:20E6E00080005B6A4168C4F834215B1AC4F824216FF44072C4F82C311344B3F5057F11D211
:20E700004FF00073C4F83831AAE704EB800040681B1A40F21450834265D9013202F03F0246
:20E72000C4F8242184F83BE19AE7D4F83421D4F82C6104EB8201D1F824C00D21A3EB0C035B
:20E740007143B3EB510F63D906EB46000132400802F03F0205250021D4F82831934219D0B8
:20E7600004EB82035B6AA3EB0C03834212D2C4F83421013202F03F0297420BD004EB82037B
:20E780005B6AA3EB0C03834204D2C4F8242184F83B8165E7D4F834314900013DC9B203F0D1
:20E7A000010315F0FF0541EA03013044D4D14B0881EA510111F0010119D0B4F8380143EAF6
:20E7C000001394F83A010130C0B29BB20428A4F8383184F83A017FF443AFC4F82421019A86
:20E7E000138084F83B51084603B0BDE8F08FC4F8242184F83B9133E7074BD3F8FC3013B1E9
:20E800000648FFF757FE002384F83B310221EAE70021E8E7C01A00208C07002050AF0608B6
:20E8200090F83B01013801288CBF00200120704790F83B01B0FA80F04009704714303BF022
:20E8400043BF0000036810B51B6A0446984760B1064BE168D86804F117021FF031FE01237D
:20E86000606023764FF0E0FFA06010BD8C07002010B50446006808B149F0C8FA204610BD43
:20E88000054908200346013851F820200AB1184601E00028F6D17047580B002070B5044665
:20E8A0000D46164638F04EFE094B2360C4E9035604F114003BF000FF0023A37502236376EC
:20E8C000044B59680D44204695F8F432A37570BDF0B006088C07002010B5044B044640F882
:20E8E000143B3BF0F1FE204610BD00BFF0B006082DE9F743884605464321404616461F46FB
:20E9000014F016F90124F0B10A9B4FF000091C7005F11404CDF800900A23324641462046B0
:20E920003CF065F968B185F8189067B108492B463A4620463BF0EEFE28B90649304648F05A
:20E940007EFD042000E0012003B0BDE8F08300BF45E800088CAF0608084BC2685969D1F807
:20E9600094138A4208D25B68807D134493F8F4321B1A584258417047002070478C070020D9
:20E980007047000037B5054618464B1E0A46062B30D8DFE803F0040410101B1B26002020BB
:20E9A00001924FF05BF8019A2946044601F0C6FF204603B030BD4FF4D07001924FF04EF887
:20E9C000019A2946044601F0DBFAF1E74FF4D07001924FF043F8019A2946044600F054FA23
:20E9E000E6E76C204FF03AF807222946044600F063FFDDE7024948F0DCFC0024D8E700BF58
:20EA00009BAF06082DE9F04385B00DF1070316460F4602AA5021002504468DF8075014F0FB
:20EA2000EBF837480390DFF8E48049F0C3F99DF8073058F82600002B3ED080B103685B6AD5
:20EA4000984758F8260048F8265010B103685B6898472C4AB2F88C300133A2F88C30029BDA
:20EA600083B34321204614F0E3F902993B4622463046FFF787FF054678B303683A46D3F814
:20EA8000109021460DF10703C847022804460ED81C4A48F82650B2F88C300133A2F88C30F2
:20EAA00003A8FFF7E5FE204605B0BDE8F0832B6828465B689847F3E730B9134932463846E7
:20EAC00048F077FC0124EBE703683A461D6921460DF10703A8470446E2E70424E0E74EF085
:20EAE00019FB2B6828465B6898474EF07FFF4EF04FFB03A8FFF7BCFE4EF042FAF9E700BFA7
:20EB0000780B00208C070020BCAF0608580B00202DE9F04F2DED028B3D48DFF804813D4E3B
:20EB2000DFF8009185B049F010F9002558F8044B9CB372B694F818A0BAF1000F38D0E27D56
:20EB40008DF80F20002294ED018AD4F808B0227662B67769384602F089FED4F800C090B3F9
:20EB600097F8C8257ABB7268C5F16B0002EB8002D2ED017ACDF800B0B8EEC80A534680EE4C
:20EB8000270ADCF814B09DF80F20214602A8D8479DF808306376012B1ED10135082DC5D1F6
:20EBA0001B4805B0BDEC028BBDE8F04F49F0EFB862B6F0680DF10F0229461FF081FCD346B0
:20EBC00008EE100AC5E7DCF81830214603A898479DF80C306376E0E7D6F8FC207AB1062BB5
:20EBE0000BD80D4A52F8232013785F2B00D1013229464846FFF75EFCCFE7084AF8E703AA54
:20EC0000294638468DF80C3002F010FEC5E700BF780B00208C070020CCB00608DFAF06085F
:20EC2000580B0020E7AF06082DE9F0410E4E0F4FDFF83C8005460024012356F8042B6AB1EE
:20EC400023B178684246294630F00AFB56F8040C03682246DB692946984700230134082C95
:20EC6000EBD1BDE8F08100BF580B00208C0700200FB006082DE9F74380461448019049F0C4
:20EC800099F80024124DDFF84C90274655F8040B88B1FFF761FE064668B92246494640466C
:20ECA00048F05DFC55F8040C45F8046C10B103685B68984701270134082CE7D101A8FFF703
:20ECC000D7FD384603B0BDE8F08300BF780B0020580B002029B00608024B00221A705A6098
:20ECE000704700BF780B002000290CBF00220B2210B502700268022464F31F22C0E900218F
:20ED000010BD91F84C21027101210160704700000C220260014A4260704700BF18B10608B9
:20ED2000D1F8942142604FF4837101607047D1F83C21426040F2063101607047D1F84821E9
:20ED400042604FF4837101607047000000487047DCB306084B7E062B0AD8064A52F823305D
:20ED60001A785F2A00D101330C22C0E900237047014BF9E7CCB00608DFAF060810B5034B5D
:20ED800003600446FFF7A8FD204610BD64AF060810B50446FFF7F2FF20464FF4D0714EF0B9
:20EDA000EDF8204610BD0000DFED027A20EE270A4AF02ABC0000C84210B591ED500A0446A3
:20EDC000FFF7F2FF0423C4E90030204610BD10B591ED510A0446FFF7E7FF0423C4E900304D
:20EDE000204610BD10B591ED630A0446FFF7DCFF0423C4E90030204610BD10B591ED640A2D
:20EE00000446FFF7D1FF0423C4E90030204610BD91ED660AD1ED657A10B580EE270A044672
:20EE2000FFF7C2FF0423C4E90030204610BD0023C0F86C31C0F88831C0F86831C0F884313D
:20EE4000002380F89E3180F87F3180F88031704710B5002301220446C0E90733C0E95433D8
:20EE6000A0F87431C0F85831C0F87031A0F89C31C0F87821A0F87C31FFF7C0FB2046BDE804
:20EE80001040FFF7D4BF000038B504461546FFF7C5FB0F4B23604FF07E53C4F83C310D4BE3
:20EEA000C4F840310C4BC4F844310C4BC4F84831062D4FF00003A4F84C3108BF4FF48053A6
:20EEC0002046A4F87631FFF7C3FF204638BD00BFF0B306089A99193FCDCCCC3F0000404057
:20EEE00090F89E31012B0BD090ED657AF2EE047AB4EEE77AF1EE10FACCBF0120002070478B
:20EF0000002070472DE9F0418CB01F460093032304460E461546FFF7EBFC022880465FD87C
:20EF20003B4604F59E724C21304613F044FE45213B4604F5A472304613F03DFE522130468C
:20EF400013F0F6FD08B301233B700223099309AA00230AA9304613F028FE099BABB1DDED7E
:20EF60000A7ADFED6F6A012BB8EE677A1CBFDDED0B7AF8EE677A27EE267A18BF67EEA67AC3
:20EF800084ED507A18BFC4ED517A5321304613F0CFFD50B101233B70304613F0D1FD0028EB
:20EFA000D4BF0020012084F84C014121304613F0BFFD50B101233B70304613F0C1FD0028EE
:20EFC000D4BF0020012084F84D013B7863B12046FFF73EFF534AB2F88C300133A2F88C30A6
:20EFE00040460CB0BDE8F081B4F876114E4A4F4B2846002908BF134694F878214C4948F0AB
:20F00000D8F9294604F114003BF08EFC494B94F84C11494A94ED500A002918BF1A4607920E
:20F02000FFF7C2FE94ED510A0690FFF7BDFE0646D4F83C01F9F736FCCDE90401D4F84801B0
:20F04000F9F730FCDDE90632CDE9020100963B49284648F0C3F994F89C3123B9384928463D
:20F0600048F021FABCE794F878213649284648F0B5F9B4F876314BB1B4F874213249134242
:20F08000324B284608BF194648F00DFA94F879211AB12F49284648F0A1F994F87831012B16
:20F0A00007D994F87A3194F87B212A49284648F095F994F87D3163B12749284648F0F3F91A
:20F0C00094F87C21002A8BD02449284648F086F986E72046FFF704FF00B394ED630AFFF78D
:20F0E00063FED4ED657A94ED660A079080EE270AFFF75AFE069094ED640AFFF755FE064680
:20F10000D4F89401F9F7CEFBDDE90632CDE9020100961349284648F061F961E711499EE705
:20F120000AD7233C8C0700201F3407081EB106084CB10608FC7E07083AD6060878B10608B4
:20F14000C2B10608D3B106082BB1060839B10608E0B10608EDB1060871070708A4D4060862
:20F1600009B206083CB2060808B591F89C3102464BB10846FFF7B4FE28B140F20B13C2E9A9
:20F180000031104608BD0023C2E90033F9E70000B0F874119FED0D7A9FED0D0A11F40060FA
:20F1A00014BF4FF400624FF48062531E0B40B3EB520FC8BF9B1A07EE903A0028F8EEE77A8D
:20F1C00008BFB0EE470A27EE800A70470AD7A33C0AD7233C70B52DED028B9FED678ADFED0E
:20F1E000678A82B0044600260DF106012046FFF725FA002800F0BC80012840F0B380BDF867
:20F200000630D9B281EA132282EA121282EA920282EA5202D2074FEA132508D5D4F85431C5
:20F220000133C4F85431002384F87F31DCE703F4C042B2F5804F00F0818008D8C2B1B2F5ED
:20F24000005FF0D184F87C1184F87D01EBE7B2F5C04FE8D103F4F853B3F5007F7FD074D846
:20F26000002B79D0B3F5807FDDD184F87911DAE713F4006584F87D21B4F8742184F89C011E
:20F2800014BF4FF400604FF48060411E9A1A0A4011B292B2B2EB500F00D9091A07EE901ADA
:20F2A00094ED5B7AA4F87431F8EEE77A002D0CBFF0EE686AF0EE486AA7EEA67A84ED5B7A3D
:20F2C0004FF0B2FA94F87F31C4F87001002BAAD094F8802194F84D31D4ED586AE2B16BB9C4
:20F2E00094F87E21C2B1264AD268D2F81821D2F80411D4F86421521A092A0DDD94ED617AAE
:20F30000D4ED5B7A37EE267A84ED617A94ED627A37EE277A84ED627AD4ED5A7AD4F85C21F8
:20F32000C4F8642177EEE67AC4F86C61C4ED5A7A0BB994F87E3184F8803174E705F01F031B
:20F3400084F87B1184F87A316DE7B3F5407F7FF46AAF84F87A1166E784F8781163E784F818
:20F360007B1160E7D4F850310133C4F850315AE702B0BDEC028B70BD0AD7233C0AD7A33CA6
:20F380008C07002038B50C4605460846FFF74FFDFFF720FF94F84C3183B194F89C317BB1C9
:20F3A00094F87D3173B9B4F87631B4F874211A420CBF012303232B70284638BD0123FAE7DF
:20F3C0000223F8E70623F6E72DE9F0412DED028B91F89C3186B005460C46F0EE408AB0EEC6
:20F3E000608A90463BB9022328462B7006B0BDEC028BBDE8F081584BD3F8FC30DBB110EE05
:20F40000100AF9F74FFA02460B4618EE100ACDE90423F9F747FA06460F4650485049B8F157
:20F42000000F08BF0146CDE90067DDE904234D480291FFF73FF894F89E31D4ED4F0A012BAF
:20F4400068EE200A0BD0022B4AD001222BB984F89E21C4ED658AC4ED660A0123C4E794EDB7
:20F46000650AD4ED667A78EE808A70EEA70AF2EE047AF4EEE78AF1EE10FAC4ED658AC4ED12
:20F48000660AEADBF5EEC00AF1EE10FA44BFF1EE600AC4ED660A94ED667AC7EE287A4CBF71
:20F4A0000122002284F89D2194F84C21C4ED647AC4ED637A72B194ED507AF4EEC77AF1EE47
:20F4C00010FA0BD494ED517AF4EE477AF1EE10FAC8BF0523022284F89E2185E70423F9E7EA
:20F4E000D4ED657A94F89D3177EEA87AC4ED657A0BB1F1EE600AD4ED667A94ED647A77EE91
:20F50000A07AC4ED667AC0EEA87AB4EEE77AF1EE10FA15D5C4ED647A94F84C31002B9CD06B
:20F5200094ED507AB4EEE77AF1EE10FA12DC94ED517AB4EEE77AF1EE10FA8ED5052353E7A9
:20F5400094ED637AB4EEE77AF1EE10FAC8BFC4ED637AE1E7042347E78C0700201F3407081A
:20F5600050B2060859B20608D1ED5A7A37EE800A73B505460C46164681ED5A0A7BB10846B4
:20F58000FFF756F958B1D4F86831C4F86031069BC4F85C31012384F87E6184F87F31204670
:20F5A000FFF718FE94F87D31002B59D1B4F87631B4F874211A4055D194ED610AD4ED527A23
:20F5C000B4EEE70AF1EE10FA0DDBD4ED620A214601A8FFF7F9FE00229DF80430C4F888214D
:20F5E000C4F884210DE094ED5A7A30EE070AB0EE087A67EE877AB4EEE70AF1EE10FA07DA66
:20F60000012394F84C217AB328462B7002B070BD4FF00AF9D4F87031C01AB0F5FA7FEFD949
:20F620002046FFF7FDF80028EAD1D4ED620A94ED5B7A94ED610AD4ED5A7A012270EE870A80
:20F6400030EE270A214601A8FFF7BEFE00229DF80430C4F86C21C4F88821C4F86821BFE715
:20F660000623CEE70323CCE70123CDE70EB40FB505AA40F2011352F8041B0393CDE90120AA
:20F6800002A847F0A5FE04B05DF804EB03B070470EB40FB505AA40F2011352F8041B03930A
:20F6A000CDE9012002A847F0B3FE04B05DF804EB03B0704770B5CAB0044609AD00230E4669
:20F6C000284619492B70FFF7D1FF94F89C310BB32046FFF75DFD10EE100AF9F7E3F80B46F8
:20F6E000D4F858110491216A0391E1690291D4F854110191D4F85011009102460B492846B9
:20F70000FFF7C6FF0A4B2A46586831462FF0A8FD4AB070BD40F201130649079507A80893CC
:20F7200047F0C1FEEEE700BF74B2060882B206088C070020C4B2060800290CBF00220B224F
:20F7400010B502700268022464F31F22C0E9002110BD91F82C200271012101607047000031
:20F760000C220260014A4260704700BF18B40608D1ED186A91ED197AC6EE877A40F206324C
:20F780000260C0ED017A70470A6E42604FF4837101607047CA69426040F206310160704769
:20F7A0008A6A42604FF483710160704700487047B4B5060810B5036B0133036390F8683001
:20F7C000632B9CBF013380F8683004464FF02CF8E36BC01A312804D94FF026F8E063012030
:20F7E00010BD0020FCE7000010B5034B03600446FFF772F8204610BDC8B5060810B504464C
:20F80000FFF7F2FF20466C214DF0B8FB204610BD4B7E062B0AD8064A52F823301A785F2A07
:20F8200000D101330C22C0E900237047014BF9E7CCB00608DFAF060810B591ED080A044621
:20F84000FFF7B2FA0423C4E90030204610BD10B591ED090A0446FFF7A7FA0423C4E9003094
:20F86000204610BD10B591ED160A0446FFF79CFA0423C4E90030204610BD10B591ED170A81
:20F880000446FFF791FA0423C4E90030204610BD002300224365036580F869204364836482
:20F8A000A0F84C2070470022026380F86A2080F86820C263FFF7ECBF10B50446FEF7EEFF4D
:20F8C000084B23604FF07E53E361074B2362074B6362074BA3620023204684F82C30FFF762
:20F8E000E2FF10BDC8B506089A99193FCDCCCC3F0000A04090F86A30ABB1D0ED197AB7EE4D
:20F90000007AF0EEE77AF4EEC77AF1EE10FA0CDD90ED187AF3EE047AB4EEE77AF1EE10FADF
:20F92000CCBF01230023184670470023FBE700002DE9F0478CB01E460093052304460F4694
:20F940001546FEF7D5FF022880464FD8334604F11C024C21384613F02EF94521334604F1F7
:20F960002802384613F027F95221384613F0E0F808B3012333700223099309AA00230AA924
:20F98000384613F012F9099BABB1DDED0A7ADFED4B6A012BB8EE677A1CBFDDED0B7AF8EE49
:20F9A000677A27EE267A18BF67EEA67A84ED087A18BFC4ED097A5321384613F0B9F850B1C0
:20F9C00001233370384613F0BBF80028D4BF0020012084F82C00337863B12046FFF763FF0B
:20F9E000374AB2F88C300133A2F88C3040460CB0BDE8F0873349284647F021FD294604F195
:20FA000014003AF091FF304B94F82C102F4AE069002918BF1A460692F8F744FF94ED080A56
:20FA20000F460646FFF7C0F994ED090A8146FFF7BBF98246A06AF8F735FFCDE9029ACDE974
:20FA40000401CDE90067069A2149284647F0C6FC94F86830012B04D81E49284647F023FDBB
:20FA6000C4E72046FFF746FF28B394ED187AD4ED197AC7EE277A17EE900AF8F713FF94ED81
:20FA8000160A02460B46CDE90623FFF78DF994ED170A0646FFF788F90746206EF8F702FF22
:20FAA000CDE90067CDE90201DDE906230A49284647F094FC9AE70949CFE700BF0AD7233C71
:20FAC0008C0700201FB40608FC7E07083AD6060843B40608C2B1060899B406083CB206080E
:20FAE00008B591F86830012B024609D90846FFF701FF28B140F20B13C2E90031104608BD6E
:20FB00000023C2E90033F9E772B60023D0ED0C7A036362B690ED127A90F84D30F8EE677A23
:20FB200077EE877AC0ED127A3BB390F84C30D0ED106AABB1114BDB68D3F81831D3F80421FE
:20FB4000836B9B1A0A2B0BDD90ED147A37EE267A80ED147A90ED157A77EE277AC0ED157ACC
:20FB6000D0ED117A436B836377EEE67A002383640023C0ED117A80F84D3070478C07002020
:20FB800010B504460846FFF7BFFFFFF781FE01232370204610BD00001FB50392FFF7B4FFE3
:20FBA00090F86840064A0748039B012C88BF0246054800924068054A2FF096FB04B010BD15
:20FBC000C2B1060881B006088C070020EFB406082DE9F0414C4B2DED028BD3F8FC3086B04F
:20FBE00005460C46B0EE408AF0EE608A9046DBB110EE100AF8F756FE02460B4618EE900A42
:20FC0000CDE90423F8F74EFE06460F463F484049B8F1000F08BF0146CDE90067DDE904234B
:20FC20003C480291FEF746FC94ED077A94F86930012228EE877A2A706BBB84F8692084F8D4
:20FC40006A3094F86A30C7EE087A002B4FD094ED167A94ED180AD4ED190AB4EEE77A94ED47
:20FC6000177AF1EE10FA30EE088A70EEA88AB4EEE77AC8BFC4ED167AF1EE10FA48BFC4ED5E
:20FC8000177A84ED188AC4ED198A284606B0BDEC028BBDE8F08194F82C30002BD1D0B5EEA5
:20FCA000C08AF1EE10FA13DBD4ED087A68EE277AB4EEE77AF1EE10FA13D4D4ED097A68EE7C
:20FCC000277AF4EEC77AF1EE10FABAD5052309E0D4ED097A68EE277AB4EEE77AF1EE10FAB0
:20FCE00002D504232B70ACE7D4ED087AE7E70123C4ED177AC4ED167A84ED188AC4ED198AB9
:20FD000084F86A30C1E700BF8C0700201F34070850B2060859B20608D1ED117A30EE270A90
:20FD200037B505460C4681ED110A43B1069B4B63012381ED100A81F84C2081F84D30204681
:20FD4000FFF7E2FE94ED140AD4ED0A7AB4EEE70AF1EE10FA0CDB0022D4ED150A214601A874
:20FD6000FFF736FF00239DF80420636523650BE094ED117A77EEA77A30EE070AB4EEE70AED
:20FD8000F1EE10FA07DA012294F82C300BB32A70284603B030BD4EF047FDE36BC01ADC287A
:20FDA000F1D9D4ED150A94ED127A94ED140AD4ED117A012270EE870A30EE270A214601A830
:20FDC000FFF706FF00239DF80420A36463656364CCE701232B70DBE700290CBF00220B223F
:20FDE00010B502700268022464F31F22C0E9002110BD91F84C21027101210160704700006A
:20FE00000C220260014A4260704700BFF0B50608D1ED656A91ED667AC6EE877A40F2062242
:20FE20000260C0ED017A7047D1F8942142604FF4837101607047D1F83C21426040F20621F1
:20FE400001607047D1F8482142604FF48371016070470000004870477CB706084B7E062B2D
:20FE60000AD8064A52F823301A785F2A00D101330C22C0E900237047014BF9E7CCB006082C
:20FE8000DFAF060810B5034B03600446FEF724FD204610BD64AF060810B50446FFF7F2FFA6
:20FEA00020464FF4D0714DF069F8204610BD10B591ED500A0446FEF777FF0423C4E9003031
:20FEC000204610BD10B591ED510A0446FEF76CFF0423C4E90030204610BDD1ED667A91ED54
:20FEE000657A87EE270A10B50446D1ED637A20EE270AFEF759FF0423C4E90030204610BD10
:20FF0000D1ED667A91ED657A87EE270A10B50446D1ED647A20EE270AFEF746FF0423C4E948
:20FF20000030204610BD0023C0F86C31C0F88831C0F86831C0F88431002380F89E31A0F8B5
:20FF40008031704710B5002301220446C0E90733C0E95433A0F87031C0F85831C0F87431FA
:20FF6000A0F89C31A0F87A21A0F87C3180F87E31FEF744FB2046BDE81040FFF7D4BF000065
:20FF800038B504461546FEF749FB0E4B23600E4BC4F83C310D4BC4F840310D4BC4F844312A
:20FFA0000C4BC4F84831042D4FF00003A4F84C3108BF4FF480432046A4F87831FFF7C2FFFA
:20FFC000204638BD90B706086666E6419A99193FCDCCCC3F0000404090F89E31012B0BD071
:20FFE00090ED657AF2EE047AB4EEE77AF1EE10FACCBF012000207047002070472DE9F047B4
:020000040801F1
:200000002DED028B8CB01F460093032304460E461546FEF76DFC022880465FD83B4604F5E7
:200020009E724C21304612F0C6FD45213B4604F5A472304612F0BFFD5221304612F078FD7E
:2000400008B301233B700223099309AA00230AA9304612F0AAFD099BABB1DDED0A7ADFED93
:20006000736A012BB8EE677A1CBFDDED0B7AF8EE677A27EE267A18BF67EEA67A84ED507AC3
:2000800018BFC4ED517A5321304612F051FD50B101233B70304612F053FD0028D4BF002060
:2000A000012084F84C014121304612F041FD50B101233B70304612F043FD0028D4BF0020DB
:2000C000012084F84D013B7873B12046FFF73AFF574AB2F88C300133A2F88C3040460CB0F6
:2000E000BDEC028BBDE8F087B4F87811514A524B2846002908BF134694F87A214F4947F094
:2001000058F9294604F114003AF00EFC4C4B94F84C114C4AD4F83C01002918BF1A460692CB
:20012000F8F7C0FB94ED500A0F460646FEF73CFE94ED510A8146FEF737FE8246D4F84801C0
:20014000F8F7B0FBCDE9029ACDE90401CDE90067069A3D49284647F041F994F89C3123B9A1
:200160003A49284647F09FF9B8E794F87A213849284647F033F9B4F878314BB1B4F8702119
:2001800034491342344B284608BF194647F08BF994F87A31022B07D994F87D3194F87C2118
:2001A0002E49284647F01AF994F87E3163B12C49284647F078F994F87B21002A8ED0294914
:2001C000284647F00BF989E72046FFF705FF50B394ED657AD4ED667A94ED630A87EE278A8E
:2001E00028EE000AFEF7E0FD94ED640A28EE000A0646FEF7D9FD074618EE100AF8F752FB3E
:2002000002460B46D4F89401CDE90623F8F74AFBCDE90067CDE90201DDE906231249284643
:2002200047F0DCF85AE711499BE700BF0AD7233C8C0700201F3407081EB10608FFB50608E3
:20024000FC7E07083AD6060835B60608C2B10608D3B106082BB1060839B106087EB60608C7
:2002600071070708A4D406088EB606083CB2060808B591F89C3102464BB10846FFF7ACFEDE
:2002800028B140F20B13C2E90031104608BD0023C2E90033F9E70000B0F870319FED050A79
:2002A000C3F3090307EE903AF8EEE77A27EE800A704700BF0000B43EF0B52DED028B6C4D6A
:2002C0009FED6C8A83B0044600270DF106012046FEF7B4F9002800F0C780012840F0BE80F5
:2002E000BDF806309DF8061094F87A6181EA132282EA121282EA920282EA5202012E02F0F0
:2003000001027AD1A2B903F4FE42B2F5C04F0FD113F0FE0F0CD0B4F8783184F87A111BB153
:200320004FF48053A4F87831002384F88031CCE7B3F5004F06D1012384F87E31002384F8A3
:200340007B31F1E713F43C42EED1012184F89C1184F87E21B4F8702194ED5B7AA4F870319F
:200360009A1AC2F30902B2F5007F88BFA2F5806207EE902AF8EEE77AA7EE887A84ED5B7A50
:200380004EF052FA94F88031C4F87401002BCBD094F8812194F84D31D4ED586ADAB163B93D
:2003A00094F87F21BAB1EA68D2F81821D2F80411D4F86421521A092A0DDD94ED617AD4ED7B
:2003C0005B7A37EE267A84ED617A94ED627A37EE277A84ED627AD4ED5A7AD4F85C21C4F82D
:2003E000642177EEE67AC4F86C71C4ED5A7A0BB994F87F3184F8813196E72AB1D4F85431BE
:200400000133C4F854318FE703F4D846B6F5005F08D0B6F5C04F0DD0B6F5006F84D184F878
:200420009C0195E784F87B11003918BF012184F87E1179E703F4F853B3F5007F08D0B3F515
:20044000407F08D0002B7FF46FAF84F87A116BE784F87C1168E784F87D1165E7D4F85031F5
:200460000133C4F850315FE703B0BDEC028BF0BD8C0700200000803A38B50C4605460846EA
:20048000FFF751FDFFF718FF94F84C3183B194F89C317BB194F87E3173B9B4F87831B4F8E1
:2004A00070211A420CBF012303232B70284638BD0123FAE70223F8E70623F6E72DE9F041E6
:2004C0002DED028B91F89C3186B005460C46F0EE408AB0EE608A90463BB9022328462B7024
:2004E00006B0BDEC028BBDE8F0815A4BD3F8FC30DBB110EE100AF8F7D5F902460B4618EE5E
:20050000100ACDE90423F8F7CDF906460F4652485249B8F1000F08BF0146CDE90067DDE9B0
:2005200004234F480291FDF7C5FF94F89E31012B0BD0022B4ED001222BB984F89E21C4ED12
:20054000658A84ED668A0123C8E794ED650AD4ED660A78EE808AF2EE047A38EE208AF4EED7
:20056000E78AF1EE10FAC4ED658A84ED668AEADBB5EEC08AF1EE10FA44BFB1EE488A84EDA0
:20058000668A94ED667AC7EE287A4CBF0122002284F89D2194F84C21C4ED647AC4ED637A13
:2005A00092B194ED4F7A67EE877A94ED507AB4EEE77AF1EE10FA0BDC94ED517AB4EE677A6B
:2005C000F1EE10FA48BF0523022284F89E2185E70423F9E7D4ED657A94F89D3177EEA87AB0
:2005E000C4ED657A0BB1B1EE488AD4ED667A94ED647A77EE887AC4ED667AC8EE287AB4EE4C
:20060000E77AF1EE10FA19D5C4ED647A94F84C31002B98D094ED4F7A67EE877A94ED507A8C
:20062000B4EEE77AF1EE10FA12DC94ED517AB4EEE77AF1EE10FA86D505234FE794ED637A91
:20064000B4EEE77AF1EE10FAC8BFC4ED637ADDE7042343E78C0700201F34070850B206085F
:2006600059B20608D1ED5A7A37EE800A73B505460C46164681ED5A0A7BB10846FEF7D8F8EE
:2006800058B1D4F86831C4F86031069BC4F85C31012384F87F6184F880312046FFF70CFEA2
:2006A00094F87E31002B59D1B4F87831B4F870211A4055D194ED610AD4ED527AB4EEE70A8C
:2006C000F1EE10FA0DDBD4ED620A214601A8FFF7F5FE00229DF80430C4F88821C4F8842172
:2006E0000DE094ED5A7A30EE070AB0EE087A67EE877AB4EEE70AF1EE10FA07DA012394F806
:200700004C217AB328462B7002B070BD4EF08CF8D4F87431C01AB0F5FA7FEFD92046FEF709
:200720007FF80028EAD1D4ED620A94ED5B7A94ED610AD4ED5A7A012270EE870A30EE270AFA
:20074000214601A8FFF7BAFE00229DF80430C4F86C21C4F88821C4F86821BFE70623CEE779
:200760000323CCE70123CDE770B5CAB0044609AD00230E46284619492B70FEF777FF94F850
:200780009C310BB32046FFF787FD10EE100AF8F789F80B46D4F858110491216A0391E169E2
:2007A0000291D4F854110191D4F85011009102460B492846FEF76CFF0A4B2A4658683146BF
:2007C0002EF04EFD4AB070BD40F201130649079507A8089346F067FEEEE700BF74B20608AB
:2007E00082B206088C070020C4B206080A7F027101210160704700000C220260014A4260CD
:20080000704700BFB8B706080048704750B8060808B5143039F08EFF002008BD10B5034B21
:2008200003600446FEF758F8204610BD64B8060810B50446FFF7F2FF204620214CF09EFBF7
:20084000204610BD2DE9FF411E4600930023044688461546FEF74CF80228074620D8532166
:20086000404612F065F948B101233370404612F067F90028D4BF00200120207733789BB160
:2008800000232268009355699FED180A1A46214603A8A847164AB2F88C300133A2F88C30FB
:2008A000384604B0BDE8F0811249284646F0C7FD294604F114003AF037F8E27E0E4B0F494B
:2008C000A67E207F002A08BF19460D4A0D4B0091002E08BF13460C490C4A002808BF0A468D
:2008E0000B49284646F07AFDDAE700BF000000008C070020C6B70608C3B70608BFB70608BF
:2009000086EF06089DEF06083AD60608FC7E0708E5B706084B7E062B0AD8064A52F82330A0
:200920001A785F2A00D101330C22C0E900237047014BF9E7CCB00608DFAF060838B504465D
:200940001546FDF7ABFF054B2360AB1E5D425D410023A576E3762377204638BD64B806080F
:2009600010B5044614303AF075F8A37E13B180F00103D8B2E07610BD38B50C4605460846AF
:20098000FFF7EEFF237F3BB1E37E002B14BF012303232B70284638BD0123FAE738B50C46FB
:2009A00005460846FFF7DCFF237F3BB1E37E002B14BF012303232B70284638BD0123FAE793
:2009C0001FB5044603910292FFF7CAFFE47E0748074A029B0399002C08BF024605480092BD
:2009E0004068054A2EF080FC04B010BD1CB8060881B006088C070020EFB4060873B50646EC
:200A00000C46154682B3D2F8C40000F0DFFAF8B1D5F8C430264993F8B43013F0100F254BC3
:200A2000204608BF194646F00AFD3268002A0BDB2149204646F0D2FC7268002A04DB1F4924
:200A40000132204646F0CAFC1D49204646F02BFD284612F050F8472817D012D8452803D19E
:200A60001849204646F01FFD337CB1683BB106F11102204602B0BDE8704046F0AFBCF26837
:200A8000F7E74D2801D05428EED1284612F036F80028E9D0284612F02EF80190284612F0E1
:200AA00030F8019A08490346204646F097FCDBE78CB806089AB8060887D80608F8140708AE
:200AC00022F20608A8B80608B7B806080023436183610361002200230021C0E902234FF483
:200AE0008073C0E90F114164A0F8483080F84A10202240F81C1BF9F749BD000090ED047A11
:200B0000B5EEC07AF1EE10FA21D9D0ED056AD0ED067AF5EEC06AF1EE10FAC9BF77EEE67A69
:200B200087EE870A87EE870AF7EE007AC8BF30EE270AB4EE400AF1EE10FA06D6B5EEC00A56
:200B4000F1EE10FAD8BF9FED030A48F05DBD0020704700BF0000000010B504466068036852
:200B60001B699847002804DD606803685B699847F4E710BD406808B503685B699847C0B2A6
:200B800008BD406803681B6918470023C0E9023343607047C268511C02440346C160B1F552
:200BA000807F107C04BF0022DA607047D0E90230181AC0B27047002310B5C0E9023304467E
:200BC0004360D4F8100103681B699847002805DDD4F8100103685B699847F2E710BD002309
:200BE000C0E90233C0F810314360704703682DE9F0419B680F46064698478046384612F049
:200C0000F1FA044668B1002444451FD033683046DB6898470146384612F0ECFAB0B901346C
:200C2000F2E7444512D033683046DB6898470146384611F045FF054630B1384612F0C9FAC4
:200C400028B1384612F0CBFA0134EAE700252846BDE8F08173B50A2205460E4600F58871E6
:200C6000684647F00EF89DF8044024B131462846FFF7BCFF0446684647F018F8204602B0EE
:200C800070BD0000034A02600022C0E90122C260704700BF20B90608C3688068013B181A8A
:200CA000C0B2704770B50446FFF7F6FF7F280E46024610D9D4E90253D4F81001AB4203683E
:200CC00004F110011B6A98BFC5F58072294498472844C0B2A06031462046BDE87040FFF734
:200CE00085BF000070B50446FFF7D6FF38B36368072B1AD8DFE803F00410242A32363A4D91
:200D0000202A1CD94D2A05D06D2A14BF0123022363600AE00223FBE70D2A06D842F2014354
:200D2000D340DB4313F00103F2D0A368591C2344B1F5807FA1601A7404BF0023A36070BD88
:200D4000312A08BF032318BF0123E1E7312A03D0322A08BF0523F6E70423D9E7322A08BF28
:200D60000623F0E7322A08BF0723ECE7202A01D93B2A0CD10B4D28462FF068FF686901F0DF
:200D800097FF236820461B68BDE8704018470123BEE71F2A01D93B2AF9D1024BC3F8C0139F
:200DA000EFE700BF8C0700202DE9F3410546104688461446F7F7A4FBC822064605F5887122
:200DC000684646F05EFF9DF804307BB12846FFF763FF731C984209D3671E344417F8012F96
:200DE00041462846FFF77EFFBC42F7D1684646F05DFF02B0BDE8F08110B50023074AC36061
:200E0000C0E90133C0E9573304460260044900F5887046F009FF204610BD00BF08B90608DD
:200E2000BEB806080968D0F81021914202D103681B6818477047F8B5036804469B680E4661
:200E40009847D4F81071054677B133689F420BD030B1384628F014FC411B384628F0F4FB34
:200E60000023C4E9023363603768C4F810717F2D1ED8D4E902329A4204BF0023C4E9023397
:200E80002046FFF709FFA26804F110011144C2F58072824228BF0246384628F01FFC002814
:200EA0000ADB05D0A3681844C0B2A0600020F8BDB5FA85F04009FAE70220F8E710B504466C
:200EC000006818B128F096FD0023236010BD00000D494160B0F8B41001F480410022A0F8F0
:200EE000B4100121C0E90222C0E92F220260C0F8B02080F8B610A0F8C42080F8C61082775A
:200F000082618283704700BF01004842002370B503604B68436004468868A0600D461646FE
:200F200008B128F049FCEB6895F8B520E36095F8B430C2F3800043EA8023C2F3C00243EA89
:200F4000C223B4F8B42043EAC63302F480421343A4F8B43095F8B63084F8B6300021C4E9D5
:200F60002F51C4F8B0100EB395F8C43084F8C430012384F8C51084F8C630CEB10022013208
:200F800005EB021304EB021103F10C0053F8046B41F8046B8342F9D1188808809B788B7023
:200FA00094F8C4309342EAD2204670BD3346DDE7A677A661A683F7E710B504460830FFF7E8
:200FC0007DFF204637F0C6FB204610BD8068003818BF012070470830FFF770BF90F8B5307B
:200FE00043F0100380F8B530836813B10830FFF765BF704791F8B42090F8B43062F3010374
:2010000080F8B43091F8B43090F8B420C3F3800363F3820280F8B42091F8B430D2B2C3F3A5
:20102000C00363F3C30280F8B4204B6891F8B520436090F8B53062F3000380F8B53091F827
:20104000B53090F8B520C3F3C00363F3C30280F8B520704790F8C630042B1EBF0423C0F84D
:20106000C01080F8C6307047034610B410460C7893F8C620944207D80A70D3F8C01019B18F
:201080005DF8044B46F0DBB95DF8044B7047D0E92F322AB1C3F8C02090F8C62083F8C62028
:2010A0001846704790F8C5302BB921B1012280F8C620C0F8C03080F8C510704790F8C4303F
:2010C000013300EB0310704710B590F8C43000F11E011A018C5C042C02D11044806910BDC6
:2010E000013BF6D21846FAE790F8C430092B0BD00133DBB280F8C43000EB031000238377DA
:2011000083618183012070470020704790F8C41029B10139C9B280F8C41037F0F1BA704778
:201120000020704770B50026C0E90166074B0360044610254C204CF091FC63680360013DA8
:2011400046646060F6D1204670BD00BFB4B9060830B5464DEB68D3F81831D3F8A420D3F858
:20116000A030934285B0044602D1002005B030BD11F0C1FC47280FD04D28F6D1204611F007
:20118000C0FC752854D02EDC05284AD022DC032847D00428E9D139E0204611F0B2FC0A28FB
:2011A000E3D15021204611F0C3FC0028DDD04C21204611F0BDFC0028D7D15221204611F0D8
:2011C000B7FC0028D2D15321204605B0BDE8304011F0AEBC682819D001DC2A28DAE76A3877
:2011E0000128C2D812E040F2231398422CD0B0F5927F10DA96280BDC8B28B6DD01238C3889
:2012000003FA00F040F213431842AED00120ADE7B0F58C7FBEE7B0F5967FF7D0B0F50E7FC4
:20122000B8E76B6993F8B400013818BF01209DE701AB0022029302A9022320468DF8042005
:20124000039311F08AFCE1E700238DF804300123029302AA01AB5321204611F0BDFC02988E
:201260000128CCBF0020012080E700BF8C07002083685BB1064A986CD268D2F81821D2F84E
:20128000A420904294BF002001207047012070478C0700200C4A836870B5D468002293B1DA
:2012A000D4F818519E6CD5F8A0501968AE4205D945681D60436022B9816000E01A460B46C9
:2012C000EDE71160FBE770BD8C07002083682BB11A68826042681A604360F7E77047FFF78A
:2012E000F5BF00002DE9F341154A164E164B04468068002818BF1346144A70680D462DF09C
:20130000F3FFA468C4B1DFF84C800027A36C0193231D0093636C7068424629462DF0E4FF7C
:2013200024680137002CF1D110230093084A70683B4629462DF0D8FF02B0BDE8F08100BFA0
:201340004FB906088C07002048B906085AB9060888B906086CB9060837B5054608460C463B
:2013600011F05FFF0190204611F05EFF01990246281DF9F7E3F8204611F056FF686403B08C
:2013800030BD43682DE9F04104460E46904613B90020BDE8F081084611F046FF4028F7D82D
:2013A000304611F0C1FB07460028F1D165682B68636031462846FFF7CFFF2F60A368C5F8A0
:2013C000488013B9A5600120E3E71A461B68002BFBD11560F7E7034608465A6C191D11F0C8
:2013E00079BB000038B5846805469CB10A4BA26CDB68D3F81831D3F8A4309A420AD82046CB
:20140000FFF7E9FFAB681B68AB606B68236001206C6038BD0020FCE78C070020436800684C
:20142000194491F8BF1446F089B807B540F2011300906846019346F036F803B05DF804FB3D
:20144000FFF730BE90F8B400C0F30010704710B50446006818B128F0CDFA0023236010BD60
:2014600050F04EB810B50446006808B146F08FFC204610BD03462DE9F74F43F80C1BC363D5
:2014800000F11003036400F11403436400F11803836400F11C03C36400F12003036500F19B
:2014A0002403436500F12803836500F12C03C36500F13003036600F13403436600F1380387
:2014C000044683667C300FF0BBFC0023A4F8B43004F5E2700FF09CFC04F5017504F56176B3
:2014E000284640350FF094FCB542F9D104F51173C4F8843304F52173C4F888330023C4F8E6
:20150000B434A4F8C834A4F8CA34A4F8CC3404F5AA601DF0E3FB04F2CC5504F2AC6628469A
:201520000E350FF015FDB542F9D10025012384F82037C4F8AC56A4F8B05684F8B25604F59D
:20154000E76035F0FFFF6C4BC4F8383704F23C700FF05EFCC4F87C57C4F8805740F28C73F1
:2015600040F67C02E5500C339342FBD1C4F88058A4F8845884F88658C4F88858C4F8B856D6
:201580004FF48A704CF06AFA0646FFF77BFB5B4B3360C6F810514FF4CE704CF05FFA012720
:2015A0004FF01B08002202213346CDE90087814611F0F6FE636C4FF4B270C3F800904CF057
:2015C0004DFA8146FFF718FCC4F804904FF4CE704CF044FA626800213346CDE90077814650
:2015E00011F0DEFEE36BC3F80090236C4FF48A701D604CF033FA8146FFF744FB404BC9F87B
:201600000030404BC9F810314FF4CE704CF026FA4FF0080B02234A460321CDE900B3334623
:20162000824611F0BDFEA36C5846C3F800A04CF015FA354B0360354B436081464FF4CE7085
:201640004CF00CFA10234A460093042133460197824611F0A5FEE36C4FF4CE70C3F800A025
:201660004CF0FCF9002205213346CDE90087814611F096FE236D0C20C3F800904CF0EEF9B5
:201680008146FFF74FFDC4F8B4964FF4CE704CF0E5F9D4F8B42633460621CDE90087814656
:2016A00011F07EFE636DC3F80090A36D1D60E36D4FF4CE701D604CF0D1F9334600220921EC
:2016C000CDE90087814611F06BFE236EC3F80090636E4FF4CE701D604CF0C0F93346CDE9CD
:2016E000008700220B21054611F05AFEA36E20461D6003B0BDE8F08F30E80608D8B80608E2
:2017000038B90608F85E0020F0B80608FC5E002010B5034600F10C0100F13C04A1420ED026
:2017200051F8042B002AF9D0186E00689042F5D0D2F8C400FFF786FE0028EFD010BD0020DD
:20174000FCE700F10C033C3083420BD053F8042B002AF9D0D2F8C42092F8B520D206F3D580
:201760000120704700207047436C10B50446186811F039FB82680AB9002010BD636C1B685B
:20178000D3F8C400FFF75EFE28B1104627F078FF431CF2D1F0E7184611F00BFDF8E7036DFC
:2017A0001B68D3F8C400FFF711BC0000F8B590F8BD3004460D4643B3D1F8C410D1F8BC007D
:2017C000FFF718FCD5F8C430D3F8BC30D3F8BC30ABB904F10C0604F13C07B7420CD056F80A
:2017E000043B002BF9D09D42F7D0D5F8C410D3F8C400FFF7FFFBF0E7002384F8BD30034A40
:20180000B2F880300133A2F88030F8BD8C07002000F5B463494280F8BB15002200F2A450A1
:201820001A60014B0360704700007A4490F82037012B02BF1378C0F8241780F8203770473A
:2018400038B5436C1B688B4204460DD1D3F8C400FFF7F8FD054638B9D4F8B81021B11846FA
:2018600011F03BF9C4F8B85038BD0000054AD2690346107C20B193F8BC00B0FA80F04009A0
:20188000704700BF8C070020436C10B50446186890F8C0300A2B01D0002010BD11F02BF951
:2018A0004D28F9D1636C186811F02BF96D2807D0742805D0BE3801288CBF00200120ECE71A
:2018C0000120EAE7F8B504461B4A00680D462DF0C7FCD4F85C312068184A29462DF004FD4F
:2018E000236F2068E3B193F858300B2B1AD8144A52F823301A785F2A00D10133114A29461A
:201900002DF0F2FC04F10C0604F13C07B7420BD056F8040B0028F9D0294611F09DFCF5E776
:20192000094BEBE7094BE9E7D4F8B4062946BDE8F840FFF7D7BC00BFC0B90608D0B9060825
:2019400064C80608E3B9060884EE0608DFAF060810B504460846114611F0C0FB20B9064AEE
:20196000064920682DF07CFC054AB2F880300133A2F8803010BD00BFFDB906081B000081E8
:201980008C0700202DE9F04F90F837319146DA068BB004460E4603D490F8B420002A6BD126
:2019A00094F83631002B63D1B9F1000F62D0D6F8C400FFF747FD80F00100C0B294F8373147
:2019C00060F3000384F837314621304611F0B0F850B1304611F056FBDFEDB37AD6F8C430C3
:2019E00020EE270A83ED010AD6F8C430D3ED017A94F83731DF0744BF04F2F44393ED007A2C
:201A000094F8373148BF67EE877A43F02003C4ED477AD4F88C0384F837310E28C0F10E0277
:201A200000F137004FEA82024FF0000188BF002204EB8000F8F7AAFD94F837316FF3C303F7
:201A400084F83731D4F8B033C4F820314521304611F06EF8002800F02381944BD3F8AC5041
:201A600085B9012384F89B3828460BB0BDE8F08F0020A3E74846A1E78D4AC0F81C2123F0C9
:201A80002103C6E795F86470002F00F08E80002301AA02A93046019711F080F8019B012B1F
:201AA00040F0938030469DED020A11F0DDFAD6F8C41091F8B4305E075EBFD4EDEC7A84EDD6
:201AC000EC0A30EE670A94F83661B5EEC00AF1EE10FAC2BF94F8373143F0080384F8373171
:201AE0004EB90846FFF7AEFC28B9D4EDF57A77EE807AC4EDF57A4FF000089FED6E7A05F1B0
:201B00002C0A42466E354FF0010BFAEC017AF5EE407AF1EE10FA37D091F8B500AB5CC0071F
:201B200044BF03F5A37004EB800037EE277A48BFD0ED006A60EE277A48BF67EEA67A62B9AE
:201B40005EB90846FFF77EFC38B904EB8300D0EDED6A76EEA76AC0EDED6A94F83701C00735
:201B600042BF03F59F7004EB8000D0ED006AC3F1430048BF67EEA67A04EB80000BFA03F3EA
:201B8000C0ED017A48EA030801329742BDD8B9F1000F09D194F83731980605D5D4ED477ABE
:201BA00067EE877AC4ED477A474694F83631012B01D0042B07D12068394600F55D7037F0E9
:201BC000B9F900286ED000254EE7D6F8C43093F8B430590762D54FF000086E350DF10809D2
:201BE000C3464FF0010A019B5B45DDD9B9EC010A15F8017B304611F037FAB5EE400AF1EEF3
:201C000010FA48D0B5EEC00AF1EE10FAC8BF94F83731D6F8C400C4BF43F0080384F837319A
:201C200090F8B530DA0742BF07F5A37304EB8303D3ED007A019B48BF20EE270A5B4513D926
:201C400094F8363183B9FFF7FDFB68B904EB8703D3EDED7A77EE807AC3EDED7AD4EDF57A00
:201C600077EE807AC4EDF57A94F83731DB0742BF07F59F7304EB8303D3ED007AC7F1430353
:201C800048BF20EE270A04EB83030AFA07F783ED010A48EA07080BF1010BA4E7064DE3E61C
:201CA000074682E7054DDFE68988883C8C07002000A08C460000000015BA060867BA060851
:201CC0000A4BDB6803F5805310B50446D3F8A80194F8C72403685B6E9847B4F8CC3420EADE
:201CE000030080B2003818BF012010BD8C07002010B504464FF048FB0023C4F85C3184F886
:201D0000A63184F8A431B4F8363103F47853A4F836310023C4F8B031BDE81040FFF7A0BBBD
:201D20002DE9F0412DED028B0446D0F85C0184B00D46002800F0DA8004F1DC0617223146C6
:201D400028464CF093FDD4F85C31012B2FD1D4F8AC31012BF7EE006A19D1D4ED6D7AF5EE2B
:201D6000407AF1EE10FA12D0D4F8942305F13803A3EB820293420AD0D4ED6D7A36EEE77A3C
:201D800073ED017A67EE877AC3ED007AF2E794F8A431C5ED136A2BB195F85B3043F0040351
:201DA00085F85B302046FFF7A3FF01209EE094F8A401002869D094ED628AD4ED657AD4F813
:201DC000A03138EE278A84ED628A002B42D10823C4F8A031B0EE480A47F090FB84ED640A77
:201DE000B0EE480A47F05CFC84ED630AD4F86411D4F8300139F0D4FCD4F868111FFA80F879
:201E0000D4F8300139F0CCFC94F8A53180B2CBB3D4F89C31C4F82C31D4F8903332462F4694
:201E200000218B4258D094F8A4C1BCF1000F33D040FA01FC1CF0010F29D094ED617AD2ED75
:201E4000AF7AD4ED636A27EE277AD2ED247AE7EE267A2FE0D4ED636AD4ED665AD4ED647A86
:201E600094ED676A25EEE67A013BA7EE867AC4F8A03167EEA57A84ED647AE6EE267AC4ED57
:201E8000637AB3E74FF07E53C4E78046C4E748FA01FC1CF0010F16D192ED176AD4ED577ACB
:201EA000D2ED006AB8EE677A76EEC66AC6EE877A77EE867AC2ED177AD2F85CC047F804CB90
:201EC00001310432ADE794ED617AD2EDAF7AD4ED646A27EE277AB8E7D4F85C21D4F8AC110C
:201EE000914208D2013AC4F85C21002004B0BDEC028BBDE8F081244A94F8C614D26802F59C
:201F00008052D2F8A8010268029101210191B4F8CC14ADF80010976B29460022B84740B107
:201F20000020022384F8A63184F8A401C4F85C01DCE7D4F85C21D4F8AC3193421BD1D4ED98
:201F40006D7AF5EE407AF1EE10FA14D0D4F8941305F13803A3EB8101F7EE006A8B420AD086
:201F6000D4ED6D7A36EEE77A73ED017A67EE877AC3ED007AF2E7013AC4F85C2130461CF00A
:201F8000B9FC85ED130A10E78C070020C0F86011BFF35F8F024BC0F85C11D8681BF0AEBC63
:201FA0008C070020D0F86031BFF35F8FC0F85C31014BD8681BF0A2BC8C07002038B52DED81
:201FC000028B90F8373190F837215B0656BF90F8A431002383F0010363F38202436C80F836
:201FE00037211B688B4204460D4616D1084611F0E0F80122C4F8240185F8D12094F87E38DA
:020000040801F1
:2020000073B194F8B430934262D1BDEC028B20680021BDE838402CF011BB4FF0FF30E8E703
:20202000D4F86011012948D9D5F8C40084F8A6210321FFF705FAD4F89423D4F8605104F532
:202040008A73A3EB820293420AD007EE905A73ED016AF8EE677A86EEA77A83ED007AF2E7F9
:20206000D4ED6C7AF5EE407AF1EE10FA27D007EE105AB8EE478A28EE278A18EE100AF6F792
:2020800011FC41EC100B46F0F7FF51EC100BF6F731FF07EE900ABCEEE77A38EE678A17EE94
:2020A000103AED1AC4F8AC5184ED6D8ABDEC028B2046BDE83840FFF775BF84F8A631D4F8AC
:2020C0006031C4F8AC31D4F8B031C4F8B431EDE7BDEC028B38BD38B5D1F8C45028460C46FF
:2020E000FFF7B0F980B108352946206EFEF79AFE2846FFF7ACF92046012110F0EFFF204664
:20210000BDE8384010F09EBC38BD00002DE9F34106460D46104619461746019310F008FDBF
:202120000199044628B101230022384610F040FF0446174B5968224601F55D71304636F0AA
:2021400081FCD6F80480B8F1000F1BD12820F8F73BFB0546384610F04EFED0F8B0302B6057
:202160004FF0FF336B600B4B0B49AB60A5F81080EC60424628464BF01DFC3046FFF772F9D4
:202180004AF0FEFE304685F8BC4502B0BDE8F0818C0700208ABA060840C80608F0B52DED73
:2021A000048B0D4685B0044653212846164610F0BFFC48BB6FF00303C4F890354821284605
:2021C00010F0B6FC90B3284610F0B6FC04F2945383ED000A4FF0FF33C4F88C3500238DF8FD
:2021E000073004F28C520DF107035021284610F0F3FC9DF80730002B00F08780D4F88C3583
:202200001F2B16D952490CE0284610F099FCC4F890050230D2D14F4BD3F8AC30002BCDD1CB
:202220004D49304645F00BF904204AE09FED4B0ACCE794F8BF14284610F07AFC002844D0F8
:20224000284610F079FCF0EE408A94F8C014284610F06EFC00283BD0284610F06DFCB0EE13
:20226000409A94F8C114284610F062FC98B3284610F062FCB0EE408A364FD4F88C15F86886
:20228000F0EE490AB0EE680A1CF032F9DFED347AB4EEE78AF1EE10FA20DD0023D4F88C15C3
:2022A000F8681A46B0EE480A1CF034F9D4F890154B1C05DBF86832461CF082F80028B3D173
:2022C000012005B0BDEC048BF0BDD4ED308ABCE794ED319AC5E794ED328ACDE721464B2367
:2022E0002A4602A8FFF712FF3121D5F8C400FFF7A7F8039B5B7A092B03D0294620460BF0FB
:20230000CDFE02A8FFF7AEF8DAE721464B232A4602A8FFF7FBFE039B93ED107AD3ED0F7A1C
:20232000B4EE677A9FED0D7AF1EE10FAF7EE007A08BFF0EE477AF4EE477AF1EE10FA14BFFA
:20234000012100212046FFF763FA3321CDE700BFC8BA06088C070020A0BA0608000000000F
:20236000003C1CC610B50446084610F020FF1B2805D194F99838002BACBF1020012010BD99
:202380002DE9F0419CB002AC65234FF000080068019316460A4669468DF8088000942CF019
:2023A000EBF842460121204627F00EFE2246074640B91049304645F011F8012528461CB0EC
:2023C000BDE8F0810C4B0146D8681BF091FF0546384627F00FFB4DB14146204627F0F2FE92
:2023E00006492246304644F0F9FFE7E704492246F8E700BFE9BA06088C0700200DBB060829
:2024000032BB0608F0B5184B0446D8689FB00E4604300190154645F098FC5021304610F0BC
:2024200087FBC8B1002204AF652302A930468DF810200297039310F093FB2A46394620465C
:20244000FFF79EFF002801A814BF04240124FFF709F820461FB0F0BD04492A46EFE701A8E3
:20246000FFF700F84AF08CFD8C0700204EBB06082DE9F3414FF00008CDF8008005460E466C
:202480000068174643460A460D492BF0D9FF044670B105F2B440FEF7DAFF0023C5F8B44459
:2024A000C5F8B884C5F8B831012002B0BDE8F08104493246384644F07CFF2046F5E700BFA1
:2024C0005CBB060867BB0608F0B587B0164605460DF11702006803930C462BF055FA0C9AAD
:2024E0000092039B32460746214628682BF016FA064640B1286800EB840393ED5F0A3A461D
:2025000021462BF0A1F9304607B0F0BD064BD3F8AC1000F59E6080ED000A11B9186A34F013
:2025200099BA084639F014BD8C070020064BD3F8AC301BB9B1FA81F040097047186EC840D7
:2025400000F00100704700BF8C07002070B5074E00F59A6500242146306A34F03FFA01343C
:20256000082CA5EC010AF6D170BD00BF8C070020F0B51E461B7885B005460C461746CBB9D6
:20258000436C1B688B424CD0436D1B688B4248D0036D1B688B4244D0836E1B688B4240D0E3
:2025A000036E1B688B423CD0D1F8C400FEF74AFF002836D1204610F0FAFD042F014618D194
:2025C00020F0404141F00141D4F8C43093F8B630022B28D014D9062B25D0286800F282800A
:2025E000414A52F823301A785F2A00D101333F4A64E0022F04BF20F0404141F00241E3E703
:2026000033781BB13A4A2868334657E02046039110F080FA03990028F4D1EB6B1B68A342C4
:20262000F0D005B0F0BD2046039110F073FA039920B1D4F8C400FEF705FF18B13378002B7C
:20264000EFD0DFE72046039110F055FA4D28039914D0284F0391204610F04DFA4D280399EE
:2026600020D1204610F04DFA6928039911D1224A00963B4628682CF037FED2E72046039196
:2026800010F03FFA40F2E63398420399E1D11B4FE0E72046039110F034FA40F2E633984210
:2026A0000399E4D02046039110F025FA4D28039909D0337828688BB90D4A3B4605B0BDE816
:2026C000F0402CF011BE2046039110F01AFA1C280399EED10A4A00963B46CBE7084A00972C
:2026E0003346C8E7074B82E748C8060894BB060800C5060881B0060886BB060882BB0608D0
:202700008DBB0608DFAF060881F86820FFF730BFF0B585B0012304460D46039281F86830A0
:20272000D2B1C36C1B688B4218D1002100682BF05EFA014690B9039A02901046246801927E
:2027400029F051FD0378A3F17B02534253412046DDE901212BF07AFA05B0F0BD284610F0B0
:2027600026FD0646284610F0C6F94D281AD0434FD5F8C43093F8B630022B1CD030D9062B47
:2027800019D0206878D83E4A52F823301A785F2A00D101333B4A31462CF0A6FD03A829F0B4
:2027A00043FED9E7284610F0ACF940F2E6339842DDD1354FDCE7284610F09DF94D2815D08D
:2027C000284610F098F94D2826D1284610F099F91C2821D12D4A3B46206831462CF084FDC4
:2027E000039A206831462BF049FAB5E7284610F088F91428E4D1264A206831462CF030FDAB
:20280000039A206831462BF039FA224A3B46206831462CF069FD9FE7284610F06CF94D2892
:202820000ED1284610F06DF9692802D11A4A3B46D2E7284610F065F940F2E6339842F5D02D
:20284000039829F0C7FC20B1D5F8C400FEF7FAFD50B1039829F0BEFC0028C1D103A829F0C6
:20286000E3FD0A4A3B46D2E7039A206831462BF005FA0A4A3B46CAE7094B8BE781B00608A9
:2028800048C8060894BB060882BB060800C50608BBBB0608CCBB0608DEBB0608FFC406080E
:2028A000DFAF060870B516462DED028B0C46B0EE408A69B92820F7F787FF4FF0FF32C0E9A3
:2028C00000220F4A82600F49048222464BF072F8002594F865309D420ED2B0EE480A29464C
:2028E000204639F0DBF92EB1B0EE480A2946204639F042FA0135ECE7BDEC028B70BD00BF41
:20290000E2BB060840C80608D0F894338B4286BF00EB810090EDED0A9FED010A704700BF68
:2029200000000000436D10B50446186810F037FA28B1D4F8B406BDE81040FEF799BC10BDBC
:202940002DE9F04190462DED028B0C46B0EE408AC1B16FF071070C4E01F172057F1A94F8C8
:2029600065107B1999420DD915F9011B3069B0EE480A424613F0F8FA0028F0D1BDEC028B3E
:20298000BDE8F0810120F9E78C07002070B5054600F1C0030C46081DD5F8901303EB8101F2
:2029A0008B4204D053F8046B40F8046BF8E7D2F8C4305B68E361D5F8B0332362104610F0E6
:2029C000F8FBA06205482EF04CFB05F59E6360631B68A363B5F83431A38770BD8C070020ED
:2029E00070B5D0F890430B1D00F1C00503EB8404A34204D053F8046B45F8046BF8E71AB1FA
:202A0000D2F8C430CA695A60CB6AC0F814310B6BC0F818318B8FA0F8343170BD2DE9F74FC2
:202A20001F46324BD0F890C3D3F8AC6000F566737EB9144601EB8C0C61454CD0B3EC017A03
:202A4000F1EC016AD3ED677AE6EE877AE4EC017AF2E7B6F86A80B6F86890C8F340040194C2
:202A6000BFB296461436002409F0010A644532D044B9BAF1000F0AD1013404330EF1040EDD
:202A80000436F3E7012C02D1019D002DF4D0D3ED687A96ED007A47FA04F515F0010577EE4A
:202AA000C77A16D149FA04FB1BF0010F06D148FA04F515F0010F0CBF2546012501EB850598
:202AC000D5ED006A93ED007AE6EE877ACEED007AD2E72546F2E7D2ED027A90ED367A77EEFC
:202AE000877AC2ED027A03B0BDE8F08F8C07002070B5104D04460A4600F5E271FFF770FF57
:202B000004F1DC06D0F8F811012228462EF0DCF94FF00003324604F1C0012046FFF77EFF40
:202B2000E868012231461BF0C3FAB4F8CA34A4F8CC3470BD8C0700202DE9F047414DD5F815
:202B4000AC9007460C46164600F5667AB9F1000F15D1D0F89033554601EB83038B4262D033
:202B6000284690ED687AF1EC017AD0ED006A77EEC77A043587EEA67AA2EC017AEEE7284649
:202B80002EF065FB804628462EF065FB9FED2E7AD7F890230023A4461FFA88F880B25546DC
:202BA00009F11409B64619461C46F0EE476A9A4227D0AA46F9EC015ADAED687ABCEC016AF3
:202BC00077EEE57ADAED005A36EE676A48FA03FAC6EE257A1AF0010F40FA03FA18BF01342C
:202BE00005F1040503F1010318BF76EEA76A1AF0010F18BF37EE277AEEEC017A18BF01317D
:202C0000D5E73CB107EE904AF8EE677A86EEA76A86ED006A39B107EE901AF8EE677AC7EE0E
:202C2000276AC6ED016AD7EDE87AD7ED366A86EEA77AD6ED027A77EEC77AC6ED027ABDE80D
:202C4000F08700BF8C0700200000000037B50B4D0446E8681BF0C6FA04F1DC01E868D5F8F3
:202C6000AC30019100221BF013FC019904F1C002204603B0BDE83040FFF75EBF8C07002065
:202C800013B5044600F1DC0108480191D0F8AC30C06800221BF0FCFB019904F1C0022046CB
:202CA00002B0BDE81040FFF747BF00BF8C070020F8B5044600F10C0500F13C06B54206D006
:202CC00055F8040B0028F9D010F02AFAF6E7E36C186810B1012110F081F80023E36604F219
:202CE000B440FEF7B4FB04F2F4434FF07E51196004F5A36204F59F63196243F8041B9342E5
:202D0000FAD104F5667204F56C75002713461160A2F56670A3F530730432C0F8DC7318301F
:202D20009842FAD1AA42F1D1002504F1DC0629463822C4F8D8533046F7F728FC2046FEF7B1
:202D4000D7FF2946182204F5A760F7F71FFC4FF6FF73A4F8BC34314BD4F89013DB68C4F8BE
:202D6000305103F580533246D3F8A801A4F834510368C4F8D8701B6CC4F820719847314661
:202D800004F1C0022046FFF7D7FE04F5617684F8A85104F50175B54204D028460EF020F848
:202DA0004035F8E704F2CC5504F2AC66B54204D028460EF0D6F80E35F8E704F5B863002540
:202DC0001F604FF0FF33C4F82431012384F8203704F5E760C4F8C455A4F8C85584F8CA5592
:202DE00084F8BC5084F8BE5084F8B855C4F8B850C4F8AC56A4F8B05684F8B25684F8BC5503
:202E00000DF0B6FCD4F8B406FEF760FAC4E91C5584F89958A4F89A58A567F8BD8C070020A1
:202E200010B5044606482DF011FF2046FFF740FF2068044ABDE810401B212CF011BA00BFC0
:202E40008C07002009BC0608054BD3F8AC3023B103EB810393ED050A70479FED020A70471A
:202E60008C07002000000000D0F88C338B4210B50FD9D0F8D823062400EB810304FB021130
:202E800000EB810093ED300AD0EDF77A30EE670A10BD9FED010AFBE7000000002DE9F041C2
:202EA0002DED028B0B68DFF8508100268AB005460C461E7000F2BF47D5F89033B34211D95E
:202EC00017F8012B039231462846FFF7CDFFFBF707FB039A8DED000B4146204644F07EFACC
:202EE0000136E9E7D5F8B0033D4FDFF81081F5F7D9FC02460B4620463A4944F06FFA002651
:202F0000D5F89433B34213D9D7F8AC20F868C6F10D011BF013FC10EE100AF5F7C3FC324627
:202F2000CDE900014146204644F058FA0136E7E72D49DFF8AC802D4F204644F0B4FA0026FF
:202F4000D5F89033B3420DD9D8F80C3006F11802D3F81831394653F82220204644F03EFAF7
:202F60000136EDE72249DFF89880204644F09BFA04AA4FF0000305F1C0012846FFF74EFD67
:202F800017460026D5F89033B3420BD9B7EC010AFBF7A6FA414653EC102B204644F01EFA52
:202FA0000136EFE70E489DED068AD0F8AC20C068012304A91AF09BFFDDED067A77EEC87A72
:202FC00017EE900AF5F76EFC02460B462046094944F004FA0AB0BDEC028BBDE8F08100BFB4
:202FE0008C07002045BC06089B7C0708F5CE060857BC060860BC06083CBC06084DBC0608B0
:20300000A0D5060813B50023009304460A46006806492BF015FAC4F8B80620B104F2BC60D7
:20302000F9F712F8012002B010BD00BF6FBC06082DE9F041A0B004460F46D0F8B8068022A0
:20304000694626F04BFB431C064617D004F2BC65024669462846F9F7C9F8802E19D02846A1
:20306000F9F71CF9DFF8308004F5DA6655F8042B4146384644F0B2F9B542F7D1D4F8B806E2
:2030800026F0B8FC0023C4F8B836012020B0BDE8F0810020FAE700BF32490708D0F89023CD
:2030A00001239340013BB0F8CC249BB293430CBF0120002070470000F7B5234E0446F068A0
:2030C00004300D46174644F075FE94F8883553B9F068043044F09AFE1C49384644F0AFF9F9
:2030E000042003B0F0BD2046FFF7D8FF28B9F068043044F08BFE1649EFE74B232A46214675
:203100006846FFF703F8F06804F5AA6100F5AA701CF068F82046FFF799FD0023C4F8B4357F
:20312000C4F8B035D5F8C4002821FEF789F9019B5B7A092B03D0294620460AF0AFFF6846FA
:20314000FEF790F90120CCE78C07002072BC060898BC060890F8C8357BB90123074A03FAA1
:2031600001F1B0F8CA341943B2F88430A0F8CA140133A0F8CC14A2F8843070478C07002023
:2031800010B590F8C845ACB9012303FA01F2B0F8CA3423EA0203084AA0F8CA34A0F8CC3424
:2031A000B2F88430022903F1010308BF80F8BA45A2F8843010BD00BF8C07002090F8C8353E
:2031C0005BB9064AA0F8CA34A0F8CC3480F8BA35B2F884300133A2F8843070478C070020AC
:2031E000F8B50323C0E9E33358230446002580F8BF34012745F65923A0F8C0340026C0F89F
:20320000C254C0F89473FFF753FD20222946C4F8D463C4F8B06304F56D70F7F7B7F940F27A
:203220000113A4F8C634204684F8BD50A4F89C5884F8BE5084F8B570FFF7C0FF29462022D4
:2032400004F59A60F7F7A2F904F59E63094A1E60FF2384F8983804F5E5631A60064BA4F811
:203260002C57C4F83057C4F83437BDE8F8403CF095BA00BF00007F43C027090010B5044689
:2032800000682AF049F92046BDE81040FFF796BFF0B5344D85B028460C462DF0A5FF2D6952
:2032A00095F95D30002B2BDB204644F07DF818B12021204644F042F92B49204644F0F3F8DB
:2032C00095F95D100291284612F0D4FF0299284610EE107A12F0EEFF384610EE106AF5F7BB
:2032E000E1FA02460B463046CDE90223F5F7DAFADDE90223CDE900011C49204644F06EF842
:2033000095F95E30002B2BDB204644F04DF818B12021204644F012F91549204644F0C3F81F
:2033200095F95E100291284612F0A4FF2846029910EE106A12F0BEFF304610EE105AF5F7E1
:20334000B1FA02460B462846CDE90223F5F7AAFADDE90223CDE900010449204644F03EF891
:2033600005B0F0BD8C070020BDBC060893500708C0BC060807B504294FF0000001900ADC96
:20338000012901DC0DD9022101391A46C9B210482EF040FF0AE00529F5D10D482EF00EFAFA
:2033A00004E002310A48C9B22EF08AFC0190019848B10A2129F072F8019B93F8153113B183
:2033C00001A829F031F8019803B05DF804FB00BF8C070020836C70B50446186888420E46F4
:2033E00015461DD1D0F8C43093F8B630022B16D10FF054FB98B120462946FFF749FF28462B
:2034000043F0D2FF58B10A21284644F097F82A68206808212BF024FF2B6800221A7070BD56
:20342000E36C1B688B42FAD194F99838002BF6DB206800212AF0CAFB0028F0D030460FF0E4
:203440002DFB0028EBD094F99818642921D1154A154916482EF0CCFA0028E0D00123024662
:20346000002120682AF0F2FB104BD3F8D430002BD5D096F858300B2B12D80D4A52F8231098
:203480000B785F2B00D10131BDE870400948FBF711B801234FF0FF322046FFF76BFFDBE79F
:2034A0000549F1E7C3BC06081F3407088C07002064C80608C8BC0608DFAF060810B4A0F880
:2034C000BC2490F8C825002A0C4618BF002380F8BE34D4F8C4005DF8044B1021FDF7B0BFEF
:2034E000D0F88C13DC301BF0EBB970B5044615460E464DF049FF04EB8500036FB3420DD04F
:2035000073B90667D6F8C4300124DA6804FA05F51543DD60FDF7A4FF204670BD0124F9E72D
:203520000024F7E770B5044616460D464DF02CFF04EB8600036FAB420ED063B1012404FA1A
:2035400006F2D3F8C430D243D9681140D960D3F8BC30002BF8D10567BDE87040FDF780BF35
:203560000122FFF7C2BF0022FFF7BFBFF8B505460E46FFF7F8FF10B900242046F8BDD5F80D
:203580005C71002FF8D10C4BD8681AF0C3F904460028F1D086F8D1704EF0FCF9064630F078
:2035A0003BF9864203D12846FFF76AFBE5E7012385F8A831E1E700BF8C07002038B50446BB
:2035C000FFF7D4FF054600B32046FFF789FF204604F59C7204F1C0014FF0000304F23C7435
:2035E000FFF71CFA4FF0000300F5E86100F1DC02FFF714FAE369C0F81C31054BD3F8AC3024
:20360000C0F830310121FEF7C1FC284638BD00BF8C07002038B591F8D13005460C465BB9C0
:20362000532120460FF084FA58B9502120460FF07FFAB0BB012003E0FFF798FF0028EFD1EF
:2036400038BD20460FF078FADFED1C7A60EE277AFDEEE77AF8EEE77AFDEEE77A17EE903A9F
:20366000002BE7DD95F8C8350BB32B6E1B68A3421DD02B6D1B68A34219D06B6C1B68A342FD
:2036800002D095F8C93593B905F5B86595ED007ADFED0B6AF8EEE77AA7EEA67A85ED007A45
:2036A000C8E720460FF04CFA07EE900AD2E7204617EE901ABDE838400FF0D7B900007A44E9
:2036C0006F12833A2DE9F04104460E461746FFF74DFF10B3B4F8C854D5B904F2BF474FF0D4
:2036E0000108D4F88C33AB4219D917F8011B30460FF01EFA50B1B4F8C82408FA05F31343B6
:20370000A4F8C83429462046FFF73AFD0135E8E70D49384643F093FE0420BDE8F081B4F88C
:20372000C8344BB92046FFF749FDD4F8902301239340013BA4F8C834D6F8C4000E21FDF7E8
:203740007FFE0120E9E700BFECBC06082DE9F84390F87E3804460F461646002B40F08A8097
:20376000DFF8C881D8F8AC50002D00F0838095F87E3093427ED0D5ED137AF5EE407AF1EE14
:2037800010FA0FD1D5ED177AF5EE407AF1EE10FA08D1002A6ED1D5ED147AF5EE407AF1EE58
:2037A00010FA67D039462046FFF7DDFE002862D0D4F85C91B9F1000F40F0B6802046FFF784
:2037C0008FFED8F8AC30C4F83031D8F80C004A4604F1DC011AF05CFE636C1B68BB4224D1AD
:2037E00038460FF0E6FCC4F82401002E45D0D8F8AC208AB392F8643073B36FF06D0002F16A
:203800006E01801A92F8643000EB010C63450FD911F8013BD5ED137AC3F1430304EB8303F6
:20382000F1EE677AC3ED017AECE74FF0FF30DAE707EE903A95ED157A94F83731F8EE677A10
:203840006FF3820367EE877A84F83731C4ED477A01212046FEF79AFBD5ED177AF5EEC07A53
:20386000F1EE10FA04DD3F21D7F8C400FDF7E8FD85F87E600120BDE8F88394ED367AB5EE42
:20388000C07AF1EE10FA19DD2368D4ED397AD3F81431C4F81C310023C4F8D83094F837311C
:2038A00077EEC77A66F382030121C4ED397A84F837312046FEF76AFB4021D5E7D8F8AC20A1
:2038C000002AD5D092F86430002BD1D06FF06D0002F16E01801A92F864304718BB420ED906
:2038E00011F8013BD5ED147A95ED137AC3F1430377EE877A04EB8303C3ED017AEBE707EE5D
:20390000903A95ED167A94F83731F8EE677A43F0040367EE877A84F83731C4ED477A012108
:203920002046FEF733FBA3E70020A4E78C0700202DE9F04FA7B08A469846002306938DF87B
:20394000163081460DF116031746502106AA50460FF052F99DF81630B3B1069AA74908A866
:203960002DF090FA099BCBB99DF816308BB1069AA349384643F01DFD042508A8FDF772FDCE
:20398000284627B0BDE8F08F9C4908A82DF06AFAE8E79C49384643F00CFDEDE7B8F10A0FA4
:2039A00019D14E460025D9F89033A6EB090B5B4534D996F8BF1450460FF0BAF860B351462C
:2039C0004846FFF7D0FD05460028D6D05046099C0FF0B2F816E00025099B93F8654007940F
:2039E000002C53D0522150460FF0A2F8064670B399F8C8355BBB012307AA0CA950460FF0A4
:203A0000CDF815E0DAF8C43093F8B4205946C2F38012204638F010F90136C4E7002DDAD091
:203A200009F1C00209F1DC014846FFF785F8D3E70CAC4FF0000B079B5B4508D9B4EC010A68
:203A40000998594638F098F90BF1010BF3E7532150460FF06DF80446B8B199F8C835ABB978
:203A6000012307AA0CA950460FF098F80CAE4FF0000B079B5B4509D9B6EC010A0998594682
:203A800038F00CF90BF1010BF3E734460023B8F50E7F8DF8173017D1099B93F97430002B8D
:203AA0003ADA032300930CAA0DF11703412150460FF0B6FA40B10C9B012B43D0022B45D0AB
:203AC00013B9099838F078FA002D7ED1002C7CD19DF81730002B78D1099B4B49B3F8662031
:203AE0004A4E384643F065FC09F2BF45D9F89033A3422FD9099B15F8012B029203EB8403B6
:203B000001345869F4F7CEFE029ACDE900013146384643F063FCE9E7462150460FF008F852
:203B20000028BED001238DF8173099F8C835002BB7D15046099E0FF007F80146304638F07E
:203B40008FF9AEE7099838F057FABDE7099838F0BFFAB9E7079B4BB32D49DFF8BC903846B1
:203B600043F0A1FC0024079BA3421FD92146099838F078F82146099810EE106A38F080F812
:203B8000304610EE105AF4F78DFE02460B462846CDE90223F4F786FEDDE90223CDE90001DE
:203BA0004946384643F01AFC0134DCE7B8F50E7F09D1099B93F97420002A04DB9B6F15496E
:203BC000384643F00BFC0125D7E600238DF830300CAC65230AA950460A940B930FF02AFB59
:203BE000D9F8000022464FF080412BF039FBEAE708A8FDF737FC49F0C3F900BF8C0700202E
:203C000015BD060828BD060839BD060827C506084ABD060876BD06086BBD06080022FFF72F
:203C200081BC0000F8B5836E044618680FF0BFF8064600287FD0A36E20461968FFF7EEFF8B
:203C40004DF0A2FB3D4BD4F88413D86819F0EEFE04F1C005D8B1D4F884132A4604312046B9
:203C6000FEF76AFF2046FEF743F8D4F8B406FDF711FBD4F890030023984248D0D4F88423E3
:203C800055F8041B02EB830201335160F4E7D4F85C3133B3D4F82431013322D02A4604F597
:203CA0009C712046FEF748FFD4F88473D4F81C31FB61D4F820313B62D4F82431BB6204F130
:203CC000DC001AF017FED4F8843387ED090AD4F81421DA62D4F818211A63B4F834219A87FE
:203CE000C0E7636CD4F884731868D0F8C4305B68FB61D4F8B0333B620FF05BFAD4F884330D
:203D0000B86200225A62B4F834219A87ADE72046FEF71CFC0948D4F884532DF0A2F904F5DD
:203D20009E6368631A68D4F884339A63022384F8BC30FDF795FB3046F8BD00BF8C07002007
:203D400070B5044615460E464DF01EFB04EB8500036FB3420DD1012101FA05F2D3F8C43063
:203D6000D243D9681140D960D3F8BC30002BF8D10367BDE87040FDF773BB0022FFF7E0BF20
:203D8000F8B50D4604464DF0FFFAD5F8C400D0F8BC2002B1D268002304F170019C464FF0D7
:203DA000010E51F8046BAE420ED122FA03F6F6070AD40BB9A4F8C834C66841F804CC0EFAE2
:203DC00003F726EA0706C6600133032BE9D1BDE8F840FDF745BB00002DE9F04700232DED2F
:203DE000028BC0F85C31C0F8B83080F8BC30436C044686B018680F460EF0F5FF636C1B68A5
:203E000000F1080605463146186EFDF70BF8636C18680EF017FEAB6813B13046FDF717FBAF
:203E2000D4F8B4066B4EFDF751FA636C20461968FFF7A6FFD6F8AC3083B193F87E206AB191
:203E4000D4ED327A94ED367A002277EE877AC4F8D8200022C4ED327A83F87E20F5692B7CEB
:203E6000002B52D005F5907594F8C985B8F1000F54D0F368D3F8182104F5B863D3ED007A93
:203E800092ED308A94F8CA3538EE278A43B13FB9B0EE480A45F0B8FB0146284626F02EFECC
:203EA0004FF00008F068A4F8C88541461AF07AFB41462046FEF71CFE9FED470A88EE000A1B
:203EC00045F0A2FB3C22B0FBF2F302FB1300F7B9CDE900302B46BCEEC88A18EE102AC4F813
:203EE000C4253E4A3E4920682BF0FEF90023F06984F8CA352FF01CFF04F5E76006B0BDEC60
:203F0000028BBDE8F0470CF033BC364DACE7CDE90030354AC4F8C4852B46E3E7002BE5D0B2
:203F2000022F1AD13069012112F086FA94F8B430012B47D0022B10D140F2D4784FF0010A9F
:203F400040F6640920688DF814A0404405A908F1240837F087F9C845F4D1A36C1B68D3F8D0
:203F6000C43093F8B630022B04D1204A206808212BF076F9F06930F0F1F845F045FB3C2200
:203F8000002FB0FBF2F3B3FBF2F102FB1133184A009518BF0020CDE90113C4F8C405154BF3
:203FA0000F49206808BF1346134A2BF09DF9002F9CD194F8C835002B98D1104920682AF03F
:203FC00018FB93E7206841462AF038FBA4F83481C3E700BF8C07002000007042A8BD060866
:203FE0001B0000808BBD0608DBBD060818BE060895BD06089EBD06082CBE06085BBE06085E
:020000040801F1
:2040000038B501220D460446114628460FF095F8636C1B68AB4205D120460221BDE83840E7
:20402000FFF7DABE38BD000070B50E460546114630460FF09FF9044640B905492868054A65
:204040002BF00EF931462846FFF7DAFF204670BD1B00008167BE06082DE9F843914680463A
:204060000C460068089E002249461D462AF0ABFA074650B935B1384A3849D8F800004B466D
:204080002BF032F92846BDE8F883002221464046FFF7CAFF054620B9384625F0ABFC0125FA
:2040A000F0E720460FF0CCF8099934F059FBD4F8C48008F10800FDF7CAF92046C8F8087080
:2040C0000EF00EFDD4F8C410206E0831FCF7AAFED4F8C42092F8B43043F0100382F8B43013
:2040E00040F2F513D4F8C420F11A4B424B4192F8B41063F3861182F8B410D4F8C430A6F5DE
:20410000FB7093F8B4204142414161F3C71283F8B420F31C012B1CD91D2E1AD0A6F1200335
:204120005E425E41D4F8C43093F8B52066F3820283F8B520D4F8C4000021FDF781F920466E
:204140000EF080FC064AB2F880300133A2F8803098E72E46E6E700BF7FBE06081B00008256
:204160008C0700202DE9F04186B01746DDF830800022904506460C46059205AD06DB4246E6
:204180002946204603930FF058F8039B21463A46CDE900853046FFF75FFF0446284634F0FF
:2041A000D9FA204606B0BDE8F08137B56FF00203056D00930A46002329680446FFF7D2FF90
:2041C00084F8BD0003B030BD2DE9F341384F044600F5E7600D460CF0CBFAFB68D3F81861F4
:2041E0000023C6F8A430C6F8A0304FF000085DB1626C1268D2F8C42092F8B51063F300018B
:2042000082F8B510C4F8B0832022002104F56D70F6F7BCF93046C4F8D48317F091FE636CA7
:2042200018680EF0E0FD06460830FDF710F9D4F8B434B3600023C4F8B434636C1868066E51
:204240000EF0D1FD00F108013046FCF7EBFD636C18680EF045FC0123F86984F820372FF042
:204260008CFD94F8C815134B134A2068002918BF1A46F9690B7C0BB101F590734FF000418B
:204280002BF032F88DB1636C1968D1F8C43093F8B4206FF3010283F8B4206FF00203009384
:2042A000064A00232046FFF75DFF02B0BDE8F0818C070020B2BE060898BE0608D7BE0608D3
:2042C0002DE9F04F87B004468846FDF7CFFA00286AD02046FFF7A6FC0746002860D0002553
:2042E000DFF8CC900395AA4604F2BF4BD4F89033AB423CD9236805EB8502991802F2512258
:2043000091F8500213440022904227D913F8011B28FA01F1C90728D51BF805308DF808306A
:2043200004220123CDE904238DF809A04DF02CF8D9F80060A6B13368C9F80030FDF790F837
:204340004FF0FF3304AA02A9304634F07BF903A8314634F0B0F904A833F067F80135C5E786
:20436000182049F07BFB0646E8E70132CCE7A36E1B682121D3F8C400FDF762F80323A16E6D
:2043800084F8BC3003AD6FF0020300930195074A096801232046FFF75FFE284634F0DAF974
:2043A000384607B0BDE8F08F0127F9E7DFBE0608800B0020F7B51646012204460D461F4619
:2043C000FFF732FEA0B128460EF0F6FE29462046FDF7C8FFBDF82030ADF80430022301462C
:2043E00000939FED040A20683B4632462BF0BEFB03B0F0BD0000000007B50423ADF8003023
:20440000034A044BFFF7D6FF03B05DF804FB00BFFBBE0608E8BE060870B5044600F10C0583
:2044200000F13C06B54207D055F8041B0029F9D02046FFF7E5FDF5E70023A4F8343170BDB2
:204440002DE9F8430C46D1F8C41001F1080805464146206E1646FCF7EEFC074630B101282A
:2044600018D021462846FFF7CBFD10E0206E036821465B68984750B1314620460EF027FBD1
:20448000C8B13368012221462846FEF771F80120BDE8F88320460EF02BFB8146E0B1314618
:2044A00020460EF014FB30B13368012221462846FEF72AF9EBE720460EF006FB94F8C0304A
:2044C000092BE4D121463246284607F03BFF014620460EF07BFCDAE720460EF0B3FAD4F8B5
:2044E000C430D3F8BC607EB921462846FFF73EF80028CCD02846FEF715FA0028C7D031463D
:204500002846FFF769FCC2E74146206EFCF78AFC4046FCF79CFF21462846FDF747F94A46EE
:2045200021462846FDF714FA20460EF08BFAD4F8C43093F8C530002BA9D121462846FFF70B
:204540001FFC21462846194B3A46FEF7DDF821462846FDF775F99AE7012901D049F0B0F928
:2045600048F0D8FD22463146FCF748FA3368042221462846FDF7FCFF20460EF063FA21466D
:204580002846FFF73DFD48F003FE80E70129E5D148F0C0FD22463146FCF730FA336804224B
:2045A00021462846FEF7B0F8E6E700BF1F340708436C1B688B42F7B506460C46174613D111
:2045C00090F8BC30012B09D8D1F8C400FCF73AFF50B9D6F8B8200AB9012B05D12146304650
:2045E000FFF7CEFB00251BE094F8C030093B012B0CD9D4F8C400FCF7E9FCA0B13A4621466B
:20460000304603B0BDE8F040FFF71ABF3A462146304607F097FE014620460EF0D7FB012541
:20462000284603B0F0BD336E1B68A3421FD1284B93F8C853002DD5D196F89D38002B42F205
:204640001071204608BF4FF47A710EF00EFA0028C8D0012386F89D386FF0020300931D4AE3
:204660002B4621463046FFF77DFD0546D8E7E06D0028B7D0036821465B689847054600288F
:20468000B0D020460EF020FA394620460EF01FFA05460028A6D03B68012221463046FDF7A0
:2046A00067FFBDE7012901D049F00AF948F032FD22463946FCF7A2F93B6804222146304637
:2046C000FDF756FF20460EF0BDF948F061FDA7E78C0700203EBF0608F0B5C7B00D4605AF72
:2046E0000023043106464FF0FF3201A83B7043F0C8FAD5F8C43093F8C51000293CD193F87B
:20470000B540A30615D528460EF0E8FC14F0400419D0D5F8C430D3F8BC302BB9012130469C
:20472000FFF75AFB01240EE029463046FDF7D3FCF8E740F2011303AA29463046039704938B
:20474000FFF736FF044695F8C0300A2B05D096F899385BB196F89A3843B940F2011303AAA3
:204760002946304603970493FEF734FE01A843F09DFA204647B0F0BD40F2011303AA29461D
:2047800030460397049309F051FECBE72DE9F04F2DED048BD0ED6C7A8FB0F5EEC07AF1EE9C
:2047A00010FA04460D46069340F35081D0F8BC31C0F81431D0F8C031C4F81831B4F8363132
:2047C000DFF890B3120303F4345322F434521A430023A4F88438DBF8AC30A4F836214821AD
:2047E000C4F8303128460EF0A3F908BB94F8B430012B17D194F83621002A3BD094F8B430C5
:20480000012B4CD1532128460EF092F9002840F0DA8294F83621002A00F09A82A4F8340146
:2048200005903EE0532128460EF082F90028E1D028460EF085F9431E032B06460BD829467A
:204840002046FEF793FE002800F07882002384F83661C4F83031482128460EF069F90028A8
:20486000C8D1B84AB84920682AF0FAFC94F83621002AC3D1522128460EF05AF903460028C0
:2048800040F0818294F8B420012ABBD094F83621059332B904F1DC0309EE103A0CE0002345
:2048A000059304F1DC0309EE103A1946DBF80C00DBF8AC3019F0ECFD04F59C731846D4F83A
:2048C000902319EE101A09EE903A49F0CFFF04F1C0031946D4F89023079308A81E4649F0AF
:2048E000C5FFD4F89033002B6BD0059BDFED978A4FF0000AB7EE008A04F2BF481F1DD146AA
:204900001CE0D5F8C43093F8B4301B0745BF94ED6C7AD6ED077A86ED070A38EE477A44BF2C
:20492000E7EE007AC6ED077AD4F890330AF1010A534506F1040607F1040743D918F8011B7B
:2049400028460EF0F5F803460028EDD094F8361179B1D5F8C41091F8B4100A0709D4DBF824
:204960000C1001F58051D1F8A811497C032900F00182012303FA0AF3284643EA09090EF0A5
:2049800081FB94F836311FFA89F9002BB9D1059B33B1D7ED007A37EE800A86ED000AC3E7C0
:2049A000D5F8C43093F8B410080741D594ED6C7AD6ED007A38EE477AE7EE007AC6ED007ABB
:2049C000B2E7994694F83621042A1ED8DFE802F096031DB00300D4F88C3301219940013976
:2049E00009EA01012068A2F10102B2FA82F2520900F55D7034F06CF8002800F0B78194F803
:204A0000373143F0400384F83731B9F1000218BF012229462046FCF7B5FF069B064618604D
:204A200050B3012318460FB0BDEC048BBDE8F08F93F8B530990753D5DBF8AC30002B00F0D4
:204A4000848103EB8A03D3ED057AA4E7D1F8C43093F8B43003F00303022B00F08481002B9A
:204A6000D0F8C0100CBF0123022304EB8303C4F81411D3F8C0309FE694F8373113F00803F2
:204A80006AD0B9F1000F00F08F8194F87F38002B40F04D8107994A4604F5E7600BF0C2FE8C
:204AA00094F83631002B64D00123D5F8C400C4F860310221FCF7F6FA00262946204684F825
:204AC000A461FDF77BFA20462946FFF759F9069A0123184616600FB0BDEC048BBDE8F08F98
:204AE0005A073FF55AAFD4F8D83303EB43030AEB430304EB8303D3EDF77A4CE794F8B83580
:204B0000002B82D1DBF80C3094F8C72403F580534946D3F8A80103685B6E9847B4F8CC3404
:204B200020EA030080B200283FF46FAF084B1EE1D4F88C3301219940013909EA0101A4F81A
:204B400084184FE748BF06081B0000820000000004C006088C07002094F87F28002A40F0BF
:204B60002C8194F83631002B9ED1B9F1000F00F020814B4619EE102A07992046FDF74EFF98
:204B800094F8B835B4F8CC6413B126F00406B6B2DBF80C3003F5805319EE101AD3F8A801F5
:204BA00094F837310268C3F30013976B0193ADF8006094F8C6340293D4F8903319EE902AC8
:204BC000B8470228074600F01F8100F0FD03012B00F04181D5F8C47097F8B630062B00F06A
:204BE0004E8194F8373113F0080304D029F00403003B18BF012394F83721DBF80C0063F3A1
:204C0000410200F5805384F83721D3F8A821117CCE0740F1288194F8C865012E00F0238169
:204C200094F8376101F0040706F018063E4300F01A81D4ED317A9DED096ADDED086A94ED0E
:204C4000307A92ED030A77EEC67A37EE667A67EEA77A8907E7EE077A42BFDDED0A6A94ED58
:204C6000327A37EE667AD4ED476A48BFE7EE077AF1EEE77A87EEA67A27EE800AD2ED016A16
:204C8000B4EE400AF1EE10FA67EE267A06D6B4EEE70AF1EE10FA58BFB0EE670A44F0B4FCE8
:204CA0000128B8BF0120C4F86001DBF80C0000F5805393F80632002B3FF4FEAE94F83731AE
:204CC000DB0604D494F8B430002B7FF4F5AE061D304643F03AF8DBF80C0090F8792190F8E3
:204CE000783104EB8201D1ED300A0EA901EB820252ED067A04EB830201EB830370EEE70A86
:204D000092ED300A53ED067A00F5AA7030EE670A1AF0AEFAD4F86031012838BF0120834267
:204D200038BFC4F86001304643F031F8C4E629462046FEF743FC08B184F87F68002318463D
:204D40000FB0BDEC048BBDE8F08FF0EE687A22E694F82C37002B4BD004F1DC0309EE103A26
:204D600000230593A8E5D0F8C4107EE6504B069A136056E64F4A069918460A600FB0BDEC99
:204D8000048BBDE8F08F059028460DF0DDFE0528059B66D804EB80131846B3F84032A4F8E1
:204DA000343100F5017371E594F83631002B7FF47BAE0123C4F860317EE6B9F1000FF3D0C4
:204DC00084F87F386CE628460DF0B6FEDFED3A7A04F5E56320EE270AD3ED007A80EE270A56
:204DE00044F012FC80F31000A4F8340100234DE5A4F83431B0E7079A19EE101A2046FDF704
:204E00009BFE012F3FF4E6AE94F83721D30634D594F8B4305BBB17072FD4DBF80C3094F8FA
:204E2000C67403F5805319EE902AD3F8A8010368ADF800600026029701969E6BD4F89033DA
:204E400019EE101AB047C0B994F8373160F3041384F83731BEE694F8B430002BCBD0174B33
:204E600085E7174A87E70122C4F8602121E7012B03D1B4F83431002BCFD0124B77E704F104
:204E8000080304F1380653F8042F52B1216E09688A4206D0D2F8C400FCF7D4FA00287FF4C7
:204EA000A0AE9E42EFD138460221FCF7FBF898E624C00608B0BF060800FF7F4740C00608BD
:204EC00090BF060870C00608F7B5CDE9001094B20026012774B194FAA4F5B5FA85F5324644
:204EE0002946684607FA05F5FCF798FA24EA05040136EFE703B0F0BD90F8B430022B9ABF9F
:204F0000024A52F823000248704700BF94C80608ABC0060890F82D3710B504466BB9436C67
:204F200018680DF060FFFCF751F830B1012384F82D3749F079FCC4F8300710BDD0F8943377
:204F40008B4283BF01F59F7100EB810090ED000A9FED010A704700BF0000000010B5D0F8AF
:204F60008C2300F2BF430020824205D013F8014B8C4202D00130F7E7062010BDDFED087A8E
:204F800000F5E56020EE270AD0ED007A08B580EE270A44F039FB80F3100080B208BD00BF64
:204FA00000FF7F472DE9F04F2DED088B91B0CDE90632D1F8C43093F8B43003F003030A9339
:204FC000C94B04460D4693E8070010AB03E907001A460A9BD4ED6C7A02EB8303F5EEC07AB4
:204FE00053F80C9CF1EE10FA09F101024FF00303B2FBF3F303EB4303A2EB0308D7BF04EBAF
:205000008903D4F8BC31D3F8C030C4F81431D5BF04EB8803C4F81431D3F8C030D4F8C03108
:20502000C4F8183104EB0903284693F8BF140DF07FFD00283ED028460EF024F8D5F8C430AC
:2050400093F8B4201207B0EE409A04D5D4ED457A39EE279A09E093F8B5309F071ED549469E
:205060002046FDF7F1FE39EE009A04EB0803284693F8BF140DF05CFD002859D028460EF04D
:2050800001F8D5F8C43093F8B4201007F0EE408A13D5D4ED467A78EEA78A18E05E07E4D423
:2050A000D4F8D833062202FB039304EB8303D3EDF77ACDE794ED459AD7E793F8B5309907D6
:2050C0002AD541462046FDF7BFFE78EE808A522128460DF02DFD0646002800F0C7802846A2
:2050E0000DF0D0FF94ED467A94ED458A38EEC77A39EE488A67EE076AE8EE086AF5EE406A58
:20510000F1EE10FA17D1794B069A1360304611B0BDEC088BBDE8F08F5A07D8D4D4F8D8336C
:20512000062202FB038304EB8303D3EDF77AB2E7D4ED468ACBE760EE007AF5EE005AB0EE9F
:20514000676AA6EEE56AB5EEC06AF1EE10FA0DDBC6EE267AF1EEE77A079BB5EEC00A9BB10E
:20516000F1EE10FA13D5F1EE677A10E0DFED606A67EEA67AF4EEC67AF1EE10FA01DD5D4B12
:20518000C2E7DFED5D7AE7E7F1EE10FAEBDC67EE879AF6EE006AE8EE269A28EE678AA7EE4F
:2051A000268A04F1DC0AD4F89023514604F59C7049F05CFB04EB890394ED45AA94ED46BA4D
:2051C000049383ED309A04EB8803C3ED308A0993049BD3ED307AB4EE67AAF1EE10FA73D195
:2051E000B4EE68BAF1EE10FA0CBF012300230893012303FA09F703FA08F31F4304F2BF43E2
:20520000BFB204F1C0064FF0000B0B93D4F890235A4540F28680CB4524D0C34522D00B9B80
:20522000284613F80B100DF083FCD8B128460DF029FFD5F8C42092F8B4100B07F0EE407A99
:2052400044D594ED6C7AF7EE006A76EEC76A96ED007AA6EE807A86ED007A012303FA0BF254
:205260001743BFB20BF1010B0436CFE709F14901C9B228460DF05CFC18B328460DF002FFB2
:20528000F0EE409A08F14901C9B228460DF050FC002800F0EB8128460DF0F4FEF5EE409A43
:2052A000F1EE10FAB0EE408A7FF47BAFB5EE400AF1EE10FA7FF475AF104B069A13600126FE
:2052C00024E7DFED0D9ADDE7002390E792F8B520900715D559462046FDF7B6FD30EE270A17
:2052E00086ED000AB9E700BF44A70608B3C006080AD7A3BC0AC106080000000037C1060839
:2053000051075FBFD4F8D823062303FB02B204EB82025CBF92EDF70A70EE277AC6ED007A3B
:205320009BE739462046FCF7CBFC064608B1D44BEAE604F1C0030BEE903A52463B461BEEBB
:20534000901A2046FDF76AFBCE4B94F8C624DB6803F580534FF0010BD3F8A8010368029289
:20536000B4F8CC24ADF80020CDF804B09B6B32461F465146D4F89033B84708B1C24B9CE702
:20538000049B7AEE298AD3ED307A77EEE87A3BEE08BA17EE900AF3F785FA099BD3ED307A21
:2053A00077EECB7A41EC1A0B17EE900AF3F77AFAB0EE4A1AF0EE6A1A41EC100B44F0D4F947
:2053C000B04BB048D3F8AC30C4F83031B4F8363103F43C5343F48053A4F8363149468DED67
:2053E000040B2BF03CFF41468246A6482BF037FF83B204F5B67B31461FFA8AFA1F46D4F816
:2054000090338B4223D94AFA01F3DA0714D5DBED8B7A9BEDF39AA7EEA89A9A4B0991D3F8FB
:20542000AC0036F0C7F939EE400A09998BED000A01310BF1040BE2E73B460B41DB07F7D5C4
:20544000DBED8B7A9BEDF39AA7EE8B9AE5E7012229462046FCF796FA069B074618600028DB
:205460007FF42DAF94F8373194F87F2803F00803002A00F0D9804BB129462046FEF79EF8E9
:20548000002800F0F18084F87F783FE684F87F3894F8B430012B0ED1532128460DF048FB1B
:2054A000002800F0CD8028460DF046FB2046FFF765FDA4F8340194F8373168EE087AC3F3CA
:2054C000C00262F34103E9EEA97AF1EEE77A84F83731C4ED617AF1EE697A17EE900AF3F77C
:2054E000E1F9F1EE487A41EC190B17EE900AF3F7D9F9B0EE491AF0EE691A41EC100B44F0A7
:2055000033F951EC100BF3F7F5FC089BC4F8880108EE100A002B40F09E80DDE90401F3F706
:20552000E9FC079B07EE100A002B00F0918038EE477AB5EEC07AF1EE10FA03D5DFED537A8B
:2055400037EE277A94ED616ADFED515AD4ED476AF2EE007A66EE277A66EEA56A67EEA57A2A
:20556000F1EEE77AF4EE677AF1EE10FA1BD6F4EEE76AF1EE10FA06DCF4EE666AF1EE10FAB5
:20558000F0EE667A0FD6F7EE006AF4EEE67AF1EE10FA63D5DFED3F6AF4EEE67AF1EE10FA16
:2055A000D8BFF0EE667A26EE076AC6EE276ADFED3A7A76EEA77AFCEEE77A17EE903A012B81
:2055C00038BF012307EE903AC4F86031F8EE677A079BC7EE276A002B43D10126C4ED656A0F
:2055E00094ED658AB0EE480A44F05AF884ED660AB0EE480A43F082FF0023C4F8A0310A9BEB
:2056000084ED670AB3FA83F35B0929462046C4E9599884F8A46184F8A531FCF7CFFC2946AE
:205620002046FEF7ADFB71E5002B3FF431AF1BEE901A4FF0030204F5E7600BF0F3F827E7A8
:2056400094F82C37002B7FF436AFA4F8343132E737EE487A6DE79FED0D7A73E7F0EE667A58
:20566000A1E7F1EE666AB8E706464FE5F5EE409AF1EE10FA3FF420AE9FED088A91E500BFDA
:2056800056C106088C07002075C10608DB0FC9400AD7A33BCDCCCC3DCDCC4C3F0000000076
:2056A00073B50D4D04460E46E86818F049FE8EB104F1DC01E868D5F8AC300191002218F065
:2056C000E7FE019904F1C002204602B0BDE87040FDF732BA02B070BD8C0700202DE9F0436C
:2056E000BBB088460646144620ADFDF7AFFA00238DF818308DF80F30009306AF0DF10F0355
:205700004FF065092A46502140462097CDF884900DF0E6FA9DF80F302BB930492846CDE9B3
:20572000207941F08CFE4FF0000865233A4604A9306805938DF88080049528F01DFF42460F
:205740004146284624F040FC2A46074640B92046234941F02EFE042420463BB0BDE8F0838E
:20576000DFF888901F49204641F023FED9F80C3003F10408404642F01DFB2A4639462346E5
:20578000D9F80C0018F098FD0546384624F032F985F00101C9B23046FFF782FFE5B923687F
:2057A0001D7096F8BA250AB1012411E0316804A801F55D7133F074F9059B5D7A04A8FBF770
:2057C00051FE002DF0D02046074941F038FE0224404642F01BFBBFE70424F9E74EBB0608B7
:2057E00093C10608B0C10608D9C106088C070020D1F8C43093F8B400C043C0F3C010704734
:2058000070B52DED028B0C4682B005465321204616460DF08DF970B320460DF08DF9B0EE8A
:20582000408A432120460DF083F928B120460DF08BF9003818BF01209FED1D0A1D4A1E49EA
:2058400028EE008A0028FCEEC87A2868CDED007A17EE903AC5F88C3814BF0223012328F00C
:20586000EFFD58B91549304641F0E9FD042002B0BDEC028B70BDB2EE048AD2E7C5F88808D3
:2058800020462E680DF093FC0D4A0146304629F0E7FC0023C5F8903848F0C6FF4421C5F8A9
:2058A0009408D4F8C400FBF7CBFD0120DFE700BF000080494EC206085CBB060857C2060829
:2058C0006DC206080EB40FB505AA152352F8041B0393CDE9012002A841F07AFD04B05DF8ED
:2058E00004EB03B070470EB40FB505AA332352F8041B0393CDE9012002A841F069FD04B0F9
:205900005DF804EB03B0704770B5184BD3F8AC600546C4B00C4610462EB9154941F08FFD11
:20592000042044B070BDB3680BB91249F6E71B7ACBB1D4F8C4004221FBF782FD00238DF8EE
:205940000C30B3680C4A0D49009208330C4A03A8F9F78CFE6FF00103009303AA01232146CE
:205960002846FEF7FFFB0120DBE700BF8C07002028BD06088DC20608D6C20608CEC20608E1
:20598000C0C206082DE9F041364BD3F8AC70CCB080460E4614463FB93349204641F04FFD81
:2059A00004204CB0BDE8F081BB680BB92F49F4E7532130460DF0BCF8002845D002AD0022CE
:2059C00021230BA930462A700B950C930DF0C8F82C21284642F0C6FE20B1431B002B01DBDC
:2059E0002349DAE7B9682846083141F04CFC48BBBB681B7A0BB11F49CFE7284635F0EAFA2D
:205A0000074608B11C49C8E72022294608F69E0041F0C0FCD6F8C4004121FBF711FD174BDC
:205A2000174A184900930BA82B468DF82C70F9F71DFE6FF0010300930BAA012331464046F5
:205A4000FEF790FB0120ACE7BA68137A2BB10E490832204641F0ADFCF4E70C49204641F0EF
:205A6000A8FCEFE78C07002028BD0608DFC2060818C306083FC3060882C30608D8C2060863
:205A8000C0C20608CEC20608BAC30608E3C306082DE9F04FDFF80492D9F81C703B7CD9B03A
:205AA00004468846002B54D06F490068012228F08AFD07F59077054640B96B4B6B4A6C4936
:205AC000206859B0BDE8F04F29F00EBC17AE0023684A3370684B6949B8F1000F18BF1346E4
:205AE00030463A46F9F7C2FDD4F800800EA908F5F96042F0C5F9A0B1D8F8C827D8F8CC37D5
:205B000013430ED0DDE912320F990291109901911199009101335A4902F26C723046F9F787
:205B2000B7FD58493046FBF780FC3146284623F0ECFE88B90026284623F05CFF002800F0EF
:205B40005E82002E00F05B824F4A5049206829F087FB59B0BDE8F08FD9F81000294610F098
:205B600071FF0028E6D0D9F80C00294618F068FD0028DFD040F2011304F2BF4944490D93D6
:205B80000CA804F5A76A0C96CB4641F058FC4FF00008CDF820905346D4F89023424524D9B7
:205BA000F3EC017A414620460B93FDF74DF9D4F88413089B01EB880137EEC00AD1ED017A23
:205BC00013F8012B089377EEC07A0A9217EE900AF2F768FE0A9ACDE900012E493046F9F792
:205BE00057FD08F101080B9BD6E72B4917A8FBF71CFC17A9284623F088FE00289AD02748E7
:205C000029462DF083FB002894D02549254A17A8F9F72CFD17A9284623F077FE002889D002
:205C200017AB0C932049DFF884801A4E40F201130CA80D9341F003FCA8EB0408D4F890236F
:205C400008EB0B039A4233D91BF8012B5AF8040B0892F2F727FE089ACDE90001314617A884
:205C6000F9F716FDEAE700BF5BBE060836C406081B0000810BC4060819C4060850C40608DC
:205C80000D15070872C406085FC506081B00008078C4060827C5060883C406088C07002076
:205CA000A1C406088CC40608ACC4060841FBFFFF9F49DFF8B48217A8FBF7B7FB17A92846D5
:205CC00023F023FED8F8AC3000283FF433AF002B40F0EA802946204608F08CF900283FF435
:205CE00029AFD4F8D823052A95BF924992493632053A17A8F9F7BAFC17A9284623F005FE7C
:205D000000283FF417AF636C18680DF06CF890F8B530DB0700F1D68004F59E631868F2F7B9
:205D2000C1FD02460B4617A88449F9F79FFC17A9284623F0EAFD00283FF4FCAED8F82000D8
:205D4000294630F06DFD00283FF4F4AED4F8B003F2F7A8FD0B46616C02460868CDE9082389
:205D60000DF041F890F8B410754811F0040F754908BF01460091DDE90823734917A8F9F717
:205D800075FC17A9284623F0C0FD00283FF4D2AE294604F5E7600AF059FF00283FF4CAAEE5
:205DA000636C18680DF01FF8D4F8843390F8B4609B6A009306F003063B46644906F1110292
:205DC00017A8F9F753FCD4F88473D7ED097AF5EEC07AF1EE10FA26DD17EE900AF2F762FDCB
:205DE000022E02460B46F86ACDE908230CBF4FF059084FF05808F2F755FD002E8246386BB9
:205E00008B460CBF59265A26F2F74CFDCDE902ABCDE90601DDE908234D490496CDF800802F
:205E200017A8F9F735FC17AB0C930A2140F201130CA80D9341F082FB17A9284623F065FD0B
:205E400000283FF477AED4F88433424F93ED037AF0EE007A77EE277A002617EE900AF2F7A5
:205E600021FD02460B4617A83B49F9F7FFFB3B4917A8FBF7DAFAD4F89023D4F88433B2423F
:205E800076D9022E0ED003EB860319F8062058680892F2F707FD089ACDE90001394617A819
:205EA000F9F7F6FB0136E6E72D49B3F8662017A8F9F7DCFB17A9284623F027FD00283FF410
:205EC00039AE07E717AB0C932649DFF8A0B040F201130CA80D93002641F0B1FA4FF0440ACD
:205EE00004F5A363D4F89423B24210D953F8040B0893F2F7D7FC5246CDE90001594617A8E5
:205F0000F9F7C6FB0136089B4FF03A0AEAE717AB0C930A2140F201130CA80D9341F00EFB42
:205F200017A9284623F0F1FC00287FF4F5AE01E6B6C40608CAC40608CFC40608D7C40608A0
:205F40002AC4060826C40608F1C4060804C506081AC5060827C5060839C506082FC50608BE
:205F6000BBC40608E3C406088C070020E9C40608D868F2F797FC02460B4617A82549F9F7FF
:205F800087FBD4F88433DFED247A93ED077A67EE277A17EE900AF2F785FC0B4602461F4991
:205FA00017A8F9F775FB94F8B430012B06D1D4F884331B499A8F17A8F9F76AFB194917A80A
:205FC000FBF733FA17A9284623F09FFC00283FF4B1AD636C18680CF006FF90F8B530124AF4
:205FE000124913F0080F124B17A808BF1A46F9F73DFB17A9284623F088FC06469BE50D49DA
:020000040801F1
:20600000206828F0F6FA0B4B0B4A0C49206829F06BF99EE538C506080000704249C506088F
:2060200052C50608DF8B07082EC4060857C5060832C406085BBE060873C506081B0000818B
:206040002DE9F3479946436C1B680E46B342D0F884130446904629D13246FCF797FC94F893
:20606000B430012B04BF0023A4F834312046FCF76DFA6448D4F884532AF0F3FF04F59E6314
:2060800068631A68D4F884339A6394F8C81511B92046FFF7FDFCB8F1020F00F0B0807DDC78
:2060A000B8F1010F40F29C801B217CE0D3F8C430DFF850A15B68DAF80C00CB6117F0B2FC38
:2060C00004F1C007D4F88453A8B13A46291D2046FCF732FD2046FBF70BFED4F89053D4F8DE
:2060E000842300239D4237D002EB830157F8040B48600133F6E7D4F85C31CBB1D4F8203176
:206100002B62D4F82431AB62D4F81C31EB6104F1DC0018F0EFFBD4F8841385ED090AD4F8E8
:206120001431CB62D4F818310B633A460431CEE7636C1868D0F8C4305B68EB61D4F8B03337
:206140002B6200236B620DF034F8D4F88433B4F83421A8629A87C0E7916A4B1C0CD0636C36
:206160001868D0F8C4309B6833B10DF046F8636C20461968FDF704FED4F8B406FBF78AF81B
:20618000DAF8D430002B3FF46AAFD4F884331E4A9B6A20681B2129F0A7F860E7B8F1050F42
:2061A00014BF1B211F21D6F8C400BDF82830A0F8B830FAF777FF012384F8BC30B9F1000FC5
:2061C0000BD00022ADF8042000939FED100A104B20684A461B2129F0C9FC02B0BDE8F08765
:2061E000502130460CF0A4FC00283FF45DAF30460CF0AAFC00287FF457AF1C21D3E71D21C7
:20620000D1E700BF8C07002095C5060800000000B4C5060830B590F82037012B93B00446E8
:206220003ED0FBF723FB00283AD0A36E18680CF0BEFD002834D0A36E20461968FDF793F922
:2062400070B300238DF8143094F82037D4F82427062B27D8144951F8233019785F2900D122
:20626000013305AD11492846FFF73DFBB4F82437A16E0093052209682B462046FFF7E0FE56
:20628000012384F820370A21332303A80395049341F054F920682A464FF0004128F0E0FFBF
:2062A00013B030BD024BDCE7CCB00608C4C50608DFAF06082DE9F04192B004460E46FBF748
:2062C000D5FA002838D0A36E18680CF070FD20B90025284612B0BDE8F081A36E2046196889
:2062E000FDF741F905460028F2D04FF0000813498DF8148005A8FFF7F6FA332705AB31466B
:2063000003A803930497F8F70DF9A16ECDF8008005AB062220460968FFF792FE05AB0A2148
:2063200003A8CDE9033741F009F9206805AA4FF0004128F095FFCCE70125CAE7DEC50608F1
:2063400090F82D37022B13B5044628D0032B4CD0012B48D1FBF78AFAE0B1A36E18680CF0F7
:2063600026FDB8B1A36E20461968FDF7FCF888B1264B0021186910F05FF80023A16E009349
:206380000968234B04222046FFF75AFE022384F82D3704E094F8BC30013B012BF6D948F074
:2063A00043FAD4F83037C01AD4F8343798421AD302212046FDF710FD144B0121186910F009
:2063C0003BF8D4F83427134920684FF47A73B2FBF3F3114A28F088FF032384F82D3748F084
:2063E00023FAC4F8300702B010BD48F01DFAD4F83037C01AB0F57A7FF5D32068002127F08C
:206400004FFF042384F82D37EDE700BF8C070020FAC506081B00008107C60608F0B50446AE
:2064200089B000F2CC5600250127D4F8AC36EB40DB070AD430460AF0A9FD30B1D4F8AC3684
:2064400007FA05F21343C4F8AC360135102D06F10E06EAD1D4F8AC362BB393FAA3F5B5FAB7
:2064600085F54DB923F001032046C4F8AC3609B0BDE8F040FCF7D4BC2046FBF790F990B946
:20648000236D1968D1F8C43093F8C5605EB9012D1FD12046FBF7EAF938B9D4F8AC3623F05C
:2064A0000203C4F8AC3609B0F0BD2046FDF75BF80028F8D0D4F8AC36216D009623F002034C
:2064C000C4F8AC360968104B03222046FFF7B8FDE9E7D4F8AC260D498DF80860012707FA42
:2064E00005F322EA0302C4F8AC2602A82A46FFF7E9F9216D6FF00203009309683B4602AAF0
:206500002046FDF72FFECEE747C6060868C6060810B500EB810100230124884208D050F884
:20652000042B0F2AF9D804FA02F213439BB2F4E7184610BD2DE9F04F0C46A7B032235021C3
:2065400080469346204600220CF032FD00258246532120468DF874500CF0EAFA064640B1BC
:206560001DAB15932A46212315A9204616930CF0F7FA0423442120460C930CF0D9FA054692
:20658000002852D000230CAA11A920460CF00AFB0223482120460D930CF0CAFA06460028EF
:2065A00046D000230DAA0FA920460CF0FBFA582120460CF0BDFA074600283CD0D8F8903336
:2065C0000E930EAA002315A920460CF0EEFA0E9915A8FFF79DFFD8F890530123AB40013B43
:2065E000184085B2592120460CF0A2FA814630B3D8F890330E930EAA002315A920460CF0BB
:20660000D4FA0E9915A8FFF783FFD8F890630123B340013B184086B216EA050713D04F49A3
:20662000584640F00CFF04207EE00C903546AFE70D902E46BBE74A4B37461D88D2E7494B9B
:20664000B9461E88E8E7462120460CF071FA0B9000286CD008220E923B460EAA204615A96C
:206660000CF0A3FADDF838C015AA3B4638464FF0010E9C4508D052F8041B1F299CBF0EFADB
:2066800001F108430133F4E7C3B2DDF82C900A93522120460CF04CFA00284BD004234FF047
:2066A000FF32522120460CF04DFC01274FFA80F921464046FCF75AFF002835D04C21204668
:2066C0000CF036FA00283CD020460CF039FA0446254851462AF016FC0C9B0D98012B0AD1F8
:2066E000012808D1119A0F990A40013203D1DFB1B9F1FF3F18D00A9A04920FAA019000927E
:206700001DA9CDE9079BCDE90547ADF80C60ADF8085011AA504634F0FFFE0146002882D018
:2067200011482AF073FB012027B0BDE8F08F01230A93ADE7B9F1000F0AD007464FF0FF39B0
:20674000B6E70C9B012B0CBF119C4FF0FF34BFE705485A4651462AF02FFCE4E774C606085D
:20676000840B0020860B00208C0700200EB40FB505AA652352F8041B0393CDE9012002A8C9
:2067800040F046FE04B05DF804EB03B07047000030B5ABB0002304468DF8403010AB07932C
:2067A0000D4665231949089307A840F048FE246807A904F5F96041F063FBA0B1D4F8C827B3
:2067C000D4F8CC3713430ED0089B0293099B01930A9B0C9A00930B9B0D49013302F26C7266
:2067E00010A8FFF7C3FF10AB05930A21652305A8069340F0A3FE10A9284623F086F818B18B
:206800000449284623F081F82BB030BD9DC606080D150708D4C606082DE9F043054685B056
:206820000068894617464049012227F0CCFE044640B93D4A3D49384640F0BBFD042005B0A8
:20684000BDE8F08301462846FFF7A2FF18BB4FF00008502148460CF06BF90646002842D0D5
:206860000223019301AA002302A948460CF09DF90023DDF804E002A91A4618469E451ED0B0
:2068800051F804CBBCF10A0F17D0BCF11F0F08BF32460133F2E7264EF36803F5805321460B
:2068A000D3F8A8010368DB6A98470028CFD0306921460FF011FE8046CBE73046E9E70646F6
:2068C000B8F1000F11D10026204623F093F800B1F6B9154A1749384640F06BFD12492868D4
:2068E00027F087FEAAE70246EAE72868214628F045FA0028E7D00E48324621462CF046FD91
:206900000028E0D02146284607F074FB0646DBE795F89C382BB90849384640F090FD022063
:206920008DE701208BE700BF05C7060817C706088C07002030C7060848C70608034B012285
:206940001A80034B02221A80704700BF840B0020860B002090F8B53070B5044663B1334E4A
:20696000357855B1FCF75CFA314C204648F0ACFF0028FADA0023337070BD90F8A8311BB139
:20698000FCF77EF984F8A8512046FFF747FD2046FFF7D6FC2046FFF73DFCA36E18680CF028
:2069A00006FAE0B9A36E20461968FDF795FE47F03BFFD4F88038C31AB3F57A6F0546DBD363
:2069C00094F89B38002BD7D01A4A1B49206828F047FC002384F89B38C4F88058CCE7A36E11
:2069E0001B68D3F8C400FAF7F1FA05460028D9D1E66EE36E04EB83020A2BD16803F101020E
:206A000094F8B23608BF2A46E2663BB1E36C1B688B4203D1E36EB342EBD1C8E70029F9D081
:206A20002046FDF759FE0028F4D0C0E7880B0020FC5E002071C706081B0000818368DFED4C
:206A40000C7A01F59F7103EB810393ED007A67EE277A10B5044617EE900AF1F723FF024648
:206A60000B4620460349BDE8104040F0B7BC00BF0000C84283D0060890ED010A006807F06A
:206A8000D3B900002DE9F041074690B00D4616461C46082A0FD8DFE802F0830E680568212C
:206AA000334A5900214628460CF0C1FB3E49204640F0F9FC0226D5F8C43093F8C5305BB9E4
:206AC00085F8D03029463846FDF75AF92368324629463846FBF718FE012062E0D1F8C4001D
:206AE000FAF774FA38B9214628460CF0A0FB2F49204640F0D8FC2E49204640F0D4FC14E027
:206B0000D1F8C400FAF762FA38B9214628460CF08EFB2649204640F0C6FC3846FEF7ECF931
:206B200024490246204640F059FC0426C3E7D1F8C400FAF74BFA38B9214628460CF077FBEA
:206B40001A49204640F0AFFC1B49D5E7D1F8C400FAF73CFA38B9214628460CF068FB13493C
:206B6000204640F0A0FC1549C6E7D1F8C400FAF72DFA00289FD133238DF80C000DF10C08A2
:206B800001A928460293CDF804800CF050FB0749204640F026FD4146204640F022FD8AE702
:206BA000002010B0BDE8F081A0C8060822F20608A2C80608BBC80608E7C8060800C90608AA
:206BC000134600220CF0F4B9D1F8C43093F9B430002B2DE9F04105460C46904654DB084602
:206BE0000BF08CFF50B120460BF08BFF074621462846FCF7BBFC88BB002622E05421204611
:206C00000BF096FF18B120460BF09AFFEEE7522120460BF08DFF0646B0B120460BF090FF4F
:206C2000052804D805EB8013D3F83872DFE721462846FDF7A5F82A4B042221462846FBF7C5
:206C400063FD3046BDE8F081264BD3F8AC30002B3ED12549404640F0F2FB0AE02846FBF79B
:206C600061FE06460028C7D095F87E3873B1C5F8887721462846FDF783F8D8F80030012220
:206C800021462846FBF740FD0126DAE71548D0F8AC3063B1B3F866309F4208D195F8C8257E
:206CA000003A18BF012239462AF00EF9E1E7502120460BF03DFF48B120460BF045FFC3B217
:206CC0003A4621462846FCF7F9FBBAE70723F7E7B3F866200549404640F06BFBC9E700BFC5
:206CE0002CC906088C07002048C906085CC9060813B504460846019200910BF002FFDDE946
:206D0000001228B9204602B0BDE8104007F0B2B8012002B010BD70B5049E05460C461EB937
:206D2000BDE87040FFF7AEBE002381F8D030FDF727F8284632462146FBF7EAFC012070BD7A
:206D40002DE9F043054689B008460C4616460BF0D8FE95F8C83507460BB3042822DD0A28A7
:206D600000F0AE800B2800F00281142800F01281152800F01E81A0F13503062B40F2FB811C
:206D8000A0F15A03022B40F2F6812846AC4B01222146FBF7B9FC012009B0BDE8F0833C2843
:206DA00000F3EC81002FC0F2EF813C2F00F2EC81DFE817F03D003D00630063007900EA01E6
:206DC000EA01EA01EA01EA018600DD00EA01EA01EA01EA01EA01DF00DF00DF00F000FF0081
:206DE000EA01EA01EA01EA01EA01EA0108010E014E0170017801EA01EA01EA01EA01EA0129
:206E00008C01EA01EA01EA01EA01EA01EA01EA01EA01EA01EA01EA01EA01EA01EA01990171
:206E2000A201A201A201A201A201A201C001D5F85C81B8F1000F01D00020ADE72146284603
:206E4000FCF791FB0028F7D002AB07F0010221462846CDF80880FDF799FC00289CD0029B41
:206E60004BB1D4F8C4000121FAF71CF90299D4F8C400FAF7EFF8012019E0D5F85C81B8F1EE
:206E8000000FD9D121462846FCF76DFB0028D3D0B91E4A424A4102AB21462846CDF8088081
:206EA000FEF780F8D9E721462846FCF7B3FB024633462146284609B0BDE8F043FFF7E2BD73
:206EC0004C2120460BF034FE98B120460BF03CFE022805D014280AD001283BD00720E6E791
:206EE000002332462146284605F0FAFBDFE70123F7E7502120460BF01BFEA0B10127DFF835
:206F00004C9105F2BF48A9EB0509D5F8902309EB08039A4219D918F8011B20460BF008FE14
:206F20003843C7B2F1E7522120460BF001FE0028E4D1532120460BF0FBFD0028DED14621CA
:206F400020460BF0F5FD0746D9E757B195F8C835002B90D10A23324621462846FCF7E8FC62
:206F6000A5E7012221462846FCF7F0FB9FE70022F8E721462846FCF7F9FA00283FF45CAF07
:206F8000D4F8C43093F8B420113F67F3010283F8B42070E7D4F8C42092F8B53043F0080322
:206FA00082F8B530274AB2F880300133A2F8803061E7D4F8C43093F8B5206FF3C30283F81F
:206FC000B520EFE7324621462846FCF77BFB6EE721462846FCF7CAFA00283FF42DAF5321C4
:206FE00020460BF0A5FD48B120460BF0A9FD03283FF674AFDFE800F00D13191D1D2300932B
:20700000114A034621462846FDF7ACF800287FF432AF324621462846FCF74EF847E73246B7
:2070200021462846FEF75AFB41E72846FBF70EFE21E7324621462846FBF7E4F937E700BF9C
:207040001F3407088C07002070C9060841FBFFFF21462846FCF78AFA00283FF4EDAE574BB6
:20706000DB6803F58053D3F8A8010368DB6B9847B5F8CC3420EA030080B228B1504930462A
:2070800040F0DDF9042012E7324621462846FBF785F80CE728683246214600F55D7031F0CC
:2070A0000DFF04E721462846FCF760FA00283FF4C3AE21462846FCF763FE20230093414A61
:2070C000012321462846FDF74DF8D4E621462846FCF74CFA00283FF4AFAE324621462846B1
:2070E00006F088F8E3E6D4F8C42092F8B53043F0020382F8B530BEE63B2FA7F1360808D1DE
:2071000020460BF004FD002803DD8044B8F1080F2DD82A4AC5F8D883B2F884300133A2F8C4
:207120008430D4F8C43093F8B5206FF3410283F8B520A0E632462146284605F0BEF9B6E66B
:20714000D4F8C43093F8B4206FF3C30283F8B42028E7D4F8C42092F8B43043F0080382F8B5
:20716000B4301FE72146284605F0C2F99FE605209DE603209BE63C2F7FF717AE5B2FE8D0E7
:207180005C2FEFD05A2FDBD042F20F739F42F0D84FF000080C498DF808803A4602A8FEF74A
:2071A00091FB6223009302AA434621462846FCF7D9FF404514BF0120032078E68C070020A9
:2071C00077C906088D2607089FC90608000000002DE9F04F2DED068B0546ADF5177D08465A
:2071E0000C4616460BF08DFC95F8C835804653B3A0F11403112B26D9012824D9A0F1520219
:207200001E2A1CD97A281ED028F00403C82B1AD0B8F1CF0F17D0A8F5CC73012B13D9B8F596
:20722000F37F10D040F2E73398450CD0D94B012221462846FBF768FA012701F0D9BCD64BB8
:20724000D340DB07E0D500220123B8F5BC7F0C928DF82E3003F0188000F36283B8F1960F24
:2072600000F3D482904580F29B8142F20F73984512D8CA490027424654A88DF85071FEF7EC
:2072800021FBCDF800803B4654AA21462846FCF769FF002840F05B8403238DF82E3000F0AE
:2072A00056BCA8F5E173972BDFD801A252F823F001A5010815A5010839A50108F3A5010858
:2072C0006B7201086B7201086B7201086B7201086B7201086B7201086B7201086B7201087E
:2072E0006B7201086B7201086B7201086B7201086B7201086B7201086B7201086B7201085E
:207300003BA601086FA601086B7201086B7201086B7201086B7201086B7201086B72010801
:207320006B7201086B7201086B7201086B7201086B7201086B7201086B7201086B7201081D
:20734000E5A601086B7201086B7201086B7201086B7201086B7201086B7201086B7201084F
:207360006B7201086B7201086B7201086B7201086B7201086B720108FBA6010821A701082E
:207380005BA70108B7A701086B7201082DA801086B7201086B7201086B7201086B7201081F
:2073A0006B7201086B7201086B7201086B7201086B7201086B7201086B7201086B7201089D
:2073C0006B7201086B7201086B7201086B7201086B7201086B7201086B7201086B7201087D
:2073E0006B7201086B7201086B7201086B7201086B7201086B7201086B7201086B7201085D
:207400006B7201086B7201086B7201086B7201086B7201086B7201088FA801086B720108E2
:207420006B7201086B7201086B7201086B7201086B7201086B7201086B7201086B7201081C
:207440000BA901084DA901087FA901089DAA0108F3AA010849AB010897AB010889AC0108C3
:207460009BAC0108B1AC0108B1AC010853AD01086BAD0108BDAD010801AE01086B720108B5
:207480006BAE01083FB00108EDB001083DB1010899B10108FBB101080DB201088FB201081B
:2074A000BFB20108E5B201086B72010815B401086B72010827B401086B720108ADB40108E0
:2074C000BFB401086B720108D1B40108E3B401082DB501085BB601085BB601085BB60108E3
:2074E0006B72010889B60108A7B6010847B701086B7201086FB701086B7201086B72010810
:207500006B7201086B72010835820108D5810108A8F58C731C2B3FF6A8AE01A252F823F012
:20752000EF9A01086B7201086B7201086B7201086B7201086B7201086B7201086B7201086F
:207540006B7201086B7201088F9B0108979D0108CD9E01086B7201086B7201086B720108C9
:207560006B7201086B7201086B7201086B720108279F0108659F01087B9F010899A0010832
:20758000ADA00108C3A001086B720108D5A00108E9A001081F34070803008068D6D806082A
:2075A000B8F1960F3FF661AE01A353F828F000BF297B0108297B01086B720108117C01089D
:2075C000117C0108F57C01086B7201086B7201086B7201086B7201086B7201086B72010837
:2075E0006B7201086B7201086B7201086B7201086B7201089D7D01088F7D01086B720108EF
:20760000D17E0108EF7F01081B80010845800108198101087D82010805830108B1830108B0
:20762000F18301083D840108858401086B720108458001086B7201086B7201086B7201088B
:20764000B3840108F7840108BD8501081B8601086B7201086B7201082D8701086B72010802
:207660006B7201086B7201086B7201086B7201086B7201086B7201086B7201086B720108DA
:207680006B7201086B7201086B7201086B7201086B7201086B7201086B7201086B720108BA
:2076A0006B7201086B7201086B7201086B7201086B7201086B7201086B7201086B7201089A
:2076C0006B7201086B7201086B7201086B7201086B7201086B8701086B7201086B72010865
:2076E0006B7201086B7201086B7201086B7201087F870108D9870108118801083188010816
:207700008F7D01084F7B01086B7201086B7201086B7201086B7201086B7201086B7201081D
:20772000518801086B7201086B7201086B7201086B7201086B7201088B890108BB8901087F
:207740006B720108C78901084F7B0108D9890108218B0108EB890108F7890108D38A01088B
:20776000E18A0108F58A01084F7B0108738C0108138D01086B7201081D8D0108298D010831
:207780004D8D0108C98E0108EB8E0108A38F0108B38F0108C18F0108CF8F01086B720108F8
:2077A0006B7201086B7201086B7201086B7201086B7201086B7201086B7201086B72010899
:2077C0006B7201086B7201086B7201086B7201086B7201086B7201086B7201086B72010879
:2077E0001B9001081B9001086B72010899910108D19101086B7201086B7201086B720108EB
:207800006B7201086B7201082B920108B8F59A7F6CDCB8F58C7FBFF67BAEB8F1E20F55DC67
:20782000B8F1BD0F7FF721ADA8F1BE03242B3FF61CAD01A252F823F03B9201083B9201083C
:207840006B7201086B7201086B7201086B7201086B7201086B7201086B7201086B720108F8
:20786000DF920108F57A01086B7201083D950108359701086BAE0108499701085B9701087A
:20788000B99701086B7201086B7201086B7201086B7201086B7201086B7201086B72010845
:2078A0006B7201086B7201086B7201086B72010819990108F19901086B7201086B72010816
:2078C0006B7201086B720108D5810108B8F5827F02F0008140F2051398457FF4C6AC3246D8
