Archive member included to satisfy reference by file (symbol)

./build/\libLPCCore.a(startup_LPC17xx.o)
                              (Reset_Handler)
./build/\libLPCCore.a(main.o)
                              c:/users/andy/.vscode/extensions/metalcode-eu.windows-arm-none-eabi-0.1.6/bin/../lib/gcc/arm-none-eabi/8.2.1/../../../../arm-none-eabi/lib/thumb/v7-m/nofp/crt0.o (main)
./build/\libLPCCore.a(variant.o)
                              ./build/\libLPCCore.a(main.o) (init())
./build/\libLPCCore.a(heap_5.o)
                              ./build/\libLPCCore.a(main.o) (vPortDefineHeapRegions)
./build/\libLPCCore.a(systick.o)
                              ./build/\libLPCCore.a(main.o) (SysTick_Init)
./build/\libLPCCore.a(system_LPC17xx.o)
                              ./build/\libLPCCore.a(main.o) (SystemInit)
./build/\libLPCCore.a(clock_17xx_40xx.o)
                              ./build/\libLPCCore.a(system_LPC17xx.o) (Chip_Clock_EnablePLL)
./build/\libLPCCore.a(iap.o)  ./build/\libLPCCore.a(system_LPC17xx.o) (Chip_IAP_ReadPID)
./build/\libLPCCore.a(AnalogIn.o)
                              ./build/\libLPCCore.a(variant.o) (AnalogInInit())
./build/\libLPCCore.a(AnalogOut.o)
                              ./build/\libLPCCore.a(variant.o) (AnalogOutInit())
./build/\libLPCCore.a(AnalogOutServo.o)
                              ./build/\libLPCCore.a(AnalogOut.o) (AnalogWriteServo(float, unsigned short, gpioPins_et))
./build/\libLPCCore.a(AnalogOutSoftwarePWM.o)
                              ./build/\libLPCCore.a(AnalogOut.o) (CanDoSoftwarePWM(gpioPins_et))
./build/\libLPCCore.a(new.o)  ./build/\libLPCCore.a(AnalogOutSoftwarePWM.o) (operator new(unsigned int))
./build/\libLPCCore.a(wiring_digital.o)
                              ./build/\libLPCCore.a(AnalogOut.o) (pinModeDuet)
./build/\libLPCCore.a(SoftwarePWM.o)
                              ./build/\libLPCCore.a(AnalogOutSoftwarePWM.o) (SoftwarePWM::SoftwarePWM(gpioPins_et))
./build/\libLPCCore.a(SoftwarePWMTimer.o)
                              ./build/\libLPCCore.a(SoftwarePWM.o) (SoftwarePWMTimer::disable(int))
./build/\libLPCCore.a(tasks.o)
                              ./build/\libLPCCore.a(heap_5.o) (vTaskSuspendAll)
./build/\libLPCCore.a(port.o)
                              ./build/\libLPCCore.a(tasks.o) (pxPortInitialiseStack)
./build/\libLPCCore.a(gpio.o)
                              ./build/\libLPCCore.a(AnalogIn.o) (GPIO_PinFunction)
./build/\libLPCCore.a(adc_17xx_40xx.o)
                              ./build/\libLPCCore.a(AnalogIn.o) (Chip_ADC_Init)
./build/\libLPCCore.a(ADCPreFilter.o)
                              ./build/\libLPCCore.a(AnalogIn.o) (ADCPreFilter::UpdateChannels(unsigned char))
./build/\libLPCCore.a(DMA.o)  ./build/\libLPCCore.a(ADCPreFilter.o) (InitialiseDMA())
./build/\libLPCCore.a(list.o)
                              ./build/\libLPCCore.a(tasks.o) (vListInitialise)
./build/\libLPCCore.a(gpdma_17xx_40xx.o)
                              ./build/\libLPCCore.a(DMA.o) (Chip_GPDMA_Init)
c:/users/andy/.vscode/extensions/metalcode-eu.windows-arm-none-eabi-0.1.6/bin/../lib/gcc/arm-none-eabi/8.2.1/../../../../arm-none-eabi/lib/thumb/v7-m/nofp\libsupc++.a(atexit_arm.o)
                              ./build/./RepRapFirmware/src/RepRapFirmware.o (__aeabi_atexit)
c:/users/andy/.vscode/extensions/metalcode-eu.windows-arm-none-eabi-0.1.6/bin/../lib/gcc/arm-none-eabi/8.2.1/../../../../arm-none-eabi/lib/thumb/v7-m/nofp\libsupc++.a(class_type_info.o)
                              ./build/./RepRapFirmware/src/GCodes/GCodes.o (vtable for __cxxabiv1::__class_type_info)
c:/users/andy/.vscode/extensions/metalcode-eu.windows-arm-none-eabi-0.1.6/bin/../lib/gcc/arm-none-eabi/8.2.1/../../../../arm-none-eabi/lib/thumb/v7-m/nofp\libsupc++.a(eh_arm.o)
                              ./build/./RepRapFirmware/src/Platform.o (__cxa_end_cleanup)
c:/users/andy/.vscode/extensions/metalcode-eu.windows-arm-none-eabi-0.1.6/bin/../lib/gcc/arm-none-eabi/8.2.1/../../../../arm-none-eabi/lib/thumb/v7-m/nofp\libsupc++.a(eh_catch.o)
                              ./build/./RepRapFirmware/src/GCodes/GCodes.o (__cxa_begin_catch)
c:/users/andy/.vscode/extensions/metalcode-eu.windows-arm-none-eabi-0.1.6/bin/../lib/gcc/arm-none-eabi/8.2.1/../../../../arm-none-eabi/lib/thumb/v7-m/nofp\libsupc++.a(eh_exception.o)
                              c:/users/andy/.vscode/extensions/metalcode-eu.windows-arm-none-eabi-0.1.6/bin/../lib/gcc/arm-none-eabi/8.2.1/../../../../arm-none-eabi/lib/thumb/v7-m/nofp\libsupc++.a(eh_arm.o) (typeinfo for __cxxabiv1::__forced_unwind)
c:/users/andy/.vscode/extensions/metalcode-eu.windows-arm-none-eabi-0.1.6/bin/../lib/gcc/arm-none-eabi/8.2.1/../../../../arm-none-eabi/lib/thumb/v7-m/nofp\libsupc++.a(eh_globals.o)
                              c:/users/andy/.vscode/extensions/metalcode-eu.windows-arm-none-eabi-0.1.6/bin/../lib/gcc/arm-none-eabi/8.2.1/../../../../arm-none-eabi/lib/thumb/v7-m/nofp\libsupc++.a(eh_catch.o) (__cxa_get_globals_fast)
c:/users/andy/.vscode/extensions/metalcode-eu.windows-arm-none-eabi-0.1.6/bin/../lib/gcc/arm-none-eabi/8.2.1/../../../../arm-none-eabi/lib/thumb/v7-m/nofp\libsupc++.a(eh_personality.o)
                              ./build/./RepRapFirmware/src/OutputMemory.o (__gxx_personality_v0)
c:/users/andy/.vscode/extensions/metalcode-eu.windows-arm-none-eabi-0.1.6/bin/../lib/gcc/arm-none-eabi/8.2.1/../../../../arm-none-eabi/lib/thumb/v7-m/nofp\libsupc++.a(eh_terminate.o)
                              ./build/./RepRapFirmware/src/libcpp/eh_alloc.o (std::terminate())
c:/users/andy/.vscode/extensions/metalcode-eu.windows-arm-none-eabi-0.1.6/bin/../lib/gcc/arm-none-eabi/8.2.1/../../../../arm-none-eabi/lib/thumb/v7-m/nofp\libsupc++.a(eh_throw.o)
                              ./build/./RepRapFirmware/src/GCodes/GCodes.o (__cxa_throw)
c:/users/andy/.vscode/extensions/metalcode-eu.windows-arm-none-eabi-0.1.6/bin/../lib/gcc/arm-none-eabi/8.2.1/../../../../arm-none-eabi/lib/thumb/v7-m/nofp\libsupc++.a(eh_unex_handler.o)
                              c:/users/andy/.vscode/extensions/metalcode-eu.windows-arm-none-eabi-0.1.6/bin/../lib/gcc/arm-none-eabi/8.2.1/../../../../arm-none-eabi/lib/thumb/v7-m/nofp\libsupc++.a(eh_terminate.o) (__cxxabiv1::__unexpected_handler)
c:/users/andy/.vscode/extensions/metalcode-eu.windows-arm-none-eabi-0.1.6/bin/../lib/gcc/arm-none-eabi/8.2.1/../../../../arm-none-eabi/lib/thumb/v7-m/nofp\libsupc++.a(si_class_type_info.o)
                              c:/users/andy/.vscode/extensions/metalcode-eu.windows-arm-none-eabi-0.1.6/bin/../lib/gcc/arm-none-eabi/8.2.1/../../../../arm-none-eabi/lib/thumb/v7-m/nofp\libsupc++.a(class_type_info.o) (vtable for __cxxabiv1::__si_class_type_info)
c:/users/andy/.vscode/extensions/metalcode-eu.windows-arm-none-eabi-0.1.6/bin/../lib/gcc/arm-none-eabi/8.2.1/../../../../arm-none-eabi/lib/thumb/v7-m/nofp\libsupc++.a(tinfo.o)
                              c:/users/andy/.vscode/extensions/metalcode-eu.windows-arm-none-eabi-0.1.6/bin/../lib/gcc/arm-none-eabi/8.2.1/../../../../arm-none-eabi/lib/thumb/v7-m/nofp\libsupc++.a(class_type_info.o) (std::type_info::~type_info())
c:/users/andy/.vscode/extensions/metalcode-eu.windows-arm-none-eabi-0.1.6/bin/../lib/gcc/arm-none-eabi/8.2.1/../../../../arm-none-eabi/lib/thumb/v7-m/nofp\libsupc++.a(eh_call.o)
                              c:/users/andy/.vscode/extensions/metalcode-eu.windows-arm-none-eabi-0.1.6/bin/../lib/gcc/arm-none-eabi/8.2.1/../../../../arm-none-eabi/lib/thumb/v7-m/nofp\libsupc++.a(eh_personality.o) (__cxa_call_terminate)
./build/\libRRFLibraries.a(IP4String.o)
                              ./build/./RepRapFirmware/src/ObjectModel/ObjectModel.o (IP4String::IP4String(unsigned long))
./build/\libRRFLibraries.a(IPAddress.o)
                              ./build/./RepRapFirmware/src/GCodes/GCodeBuffer/BinaryParser.o (IPAddress::SetV4(unsigned char const*))
./build/\libRRFLibraries.a(NamedEnum.o)
                              ./build/./RepRapFirmware/src/GCodes/GCodeBuffer/ExpressionParser.o (NamedEnumLookup(char const*, char const* const*, unsigned int))
./build/\libRRFLibraries.a(NumericConverter.o)
                              ./build/./RepRapFirmware/src/GCodes/GCodeBuffer/ExpressionParser.o (NumericConverter::FitsInInt32() const)
./build/\libRRFLibraries.a(SafeStrtod.o)
                              ./build/./RepRapFirmware/src/GCodes/GCodes3.o (SafeStrtof(char const*, char const**))
./build/\libRRFLibraries.a(SafeVsnprintf.o)
                              ./build/./RepRapFirmware/src/OutputMemory.o (SafeVsnprintf(char*, unsigned int, char const*, std::__va_list))
./build/\libRRFLibraries.a(StringBuffer.o)
                              ./build/./RepRapFirmware/src/GCodes/GCodeBuffer/ExpressionParser.o (StringBuffer::Fix())
./build/\libRRFLibraries.a(StringFunctions.o)
                              ./build/./RepRapFirmware/src/GCodes/GCodes.o (StringEqualsIgnoreCase(char const*, char const*))
./build/\libRRFLibraries.a(StringRef.o)
                              ./build/./RepRapFirmware/src/OutputMemory.o (StringRef::strlen() const)
./build/\libRRFLibraries.a(Strnlen.o)
                              ./build/./RepRapFirmware/src/Heating/Sensors/ThermocoupleSensor31856.o (Strnlen(char const*, unsigned int))
./build/\libRRFLibraries.a(Deviation.o)
                              ./build/./RepRapFirmware/src/GCodes/GCodes4.o (Deviation::Deviation())
./build/\libRRFLibraries.a(Isqrt.o)
                              ./build/./RepRapFirmware/src/Platform.o (isqrt64(unsigned long long))
./build/\libRRFLibraries.a(RTOSIface.o)
                              ./build/./RepRapFirmware/src/Platform.o (Mutex::Create(char const*))
./build/\libLPCCore.a(wdt.o)  ./build/./RepRapFirmware/src/RepRap.o (wdt_init)
./build/\libLPCCore.a(timer.o)
                              ./build/./RepRapFirmware/src/Movement/StepTimer.o (getPclk)
./build/\libLPCCore.a(Reset.o)
                              ./build/./RepRapFirmware/src/Hardware/ExceptionHandlers.o (Reset)
./build/\libLPCCore.a(WMath.o)
                              ./build/./RepRapFirmware/src/GCodes/GCodeBuffer/ExpressionParser.o (random(long))
./build/\libLPCCore.a(exti.o)
                              ./build/./RepRapFirmware/src/Hardware/IoPorts.o (attachInterrupt(gpioPins_et, void (*)(CallbackParameter) noexcept, InterruptMode, CallbackParameter))
./build/\libLPCCore.a(SerialUSB.o)
                              ./build/./RepRapFirmware/src/Platform.o (SerialUSB::write(unsigned char const*, unsigned int))
./build/\libLPCCore.a(wirish_time.o)
                              ./build/./RepRapFirmware/src/Hardware/SharedSpi/SharedSpiClient.o (delayMicroseconds)
./build/\libLPCCore.a(USBCDC.o)
                              ./build/\libLPCCore.a(SerialUSB.o) (USBCDC::send_nb(unsigned char*, unsigned long, unsigned long*, bool))
./build/\libLPCCore.a(USBSerial.o)
                              ./build/\libLPCCore.a(SerialUSB.o) (USBSerial::USBSerial(bool, unsigned short, unsigned short, unsigned short))
./build/\libLPCCore.a(ConfigurableUART.o)
                              ./build/./RepRapFirmware/src/GCodes/GCodes.o (ConfigurableUART::read())
./build/\libLPCCore.a(HardwareSPI.o)
                              ./build/./RepRapFirmware/src/Linux/DataTransfer.o (HardwareSPI::disable())
./build/\libLPCCore.a(SPI.o)  ./build/./RepRapFirmware/src/Hardware/SharedSpi/SharedSpiDevice.o (SPI::getSSPDevice(SSPChannel))
./build/\libLPCCore.a(Wire.o)
                              ./build/./RepRapFirmware/src/LPC/MCP4461/MCP4461.o (TwoWire::begin(unsigned char))
./build/\libLPCCore.a(WireBase.o)
                              ./build/./RepRapFirmware/src/LPC/MCP4461/MCP4461.o (WireBase::beginTransmission(unsigned char))
./build/\libLPCCore.a(queue.o)
                              ./build/\libRRFLibraries.a(RTOSIface.o) (xQueueGenericCreateStatic)
./build/\libLPCCore.a(delay.o)
                              ./build/\libLPCCore.a(wirish_time.o) (delay_us)
./build/\libLPCCore.a(iocon_17xx_40xx.o)
                              ./build/\libLPCCore.a(HardwareSPI.o) (Chip_IOCON_PinMux)
./build/\libLPCCore.a(ssp_17xx_40xx.o)
                              ./build/\libLPCCore.a(HardwareSPI.o) (Chip_SSP_SetBitRate)
./build/\libLPCCore.a(HardwareSerial.o)
                              ./build/\libLPCCore.a(ConfigurableUART.o) (HardwareSerial::begin(unsigned long))
./build/\libLPCCore.a(usart.o)
                              ./build/\libLPCCore.a(HardwareSerial.o) (usart_init)
./build/\libLPCCore.a(USBHAL_LPC17.o)
                              ./build/\libLPCCore.a(USBCDC.o) (get_usb_phy())
./build/\libLPCCore.a(EndpointResolver.o)
                              ./build/\libLPCCore.a(USBCDC.o) (EndpointResolver::EndpointResolver(usb_ep_table_t const*))
./build/\libLPCCore.a(USBDevice.o)
                              ./build/\libLPCCore.a(USBCDC.o) (USBDevice::out_packet(unsigned char))
./build/\libLPCCore.a(SoftwareSPI.o)
                              ./build/\libLPCCore.a(SPI.o) (SoftwareSPI::SWSSP0)
./build/\libLPCCore.a(ring_buffer.o)
                              ./build/\libLPCCore.a(HardwareSerial.o) (RingBuffer_Init)
./build/\libLPCCore.a(uart_17xx_40xx.o)
                              ./build/\libLPCCore.a(usart.o) (Chip_UART_TXEnable)
./build/\libLPCCore.a(mbed_critical.o)
                              ./build/\libLPCCore.a(USBDevice.o) (core_util_critical_section_enter)
c:/users/andy/.vscode/extensions/metalcode-eu.windows-arm-none-eabi-0.1.6/bin/../lib/gcc/arm-none-eabi/8.2.1/../../../../arm-none-eabi/lib/thumb/v7-m/nofp\libm.a(lib_a-s_llrint.o)
                              ./build/\libRRFLibraries.a(SafeVsnprintf.o) (llrint)
c:/users/andy/.vscode/extensions/metalcode-eu.windows-arm-none-eabi-0.1.6/bin/../lib/gcc/arm-none-eabi/8.2.1/../../../../arm-none-eabi/lib/thumb/v7-m/nofp\libm.a(lib_a-sf_atan.o)
                              ./build/./RepRapFirmware/src/GCodes/GCodes2.o (atanf)
c:/users/andy/.vscode/extensions/metalcode-eu.windows-arm-none-eabi-0.1.6/bin/../lib/gcc/arm-none-eabi/8.2.1/../../../../arm-none-eabi/lib/thumb/v7-m/nofp\libm.a(lib_a-sf_cos.o)
                              ./build/./RepRapFirmware/src/RepRap.o (cosf)
c:/users/andy/.vscode/extensions/metalcode-eu.windows-arm-none-eabi-0.1.6/bin/../lib/gcc/arm-none-eabi/8.2.1/../../../../arm-none-eabi/lib/thumb/v7-m/nofp\libm.a(lib_a-sf_fabs.o)
                              c:/users/andy/.vscode/extensions/metalcode-eu.windows-arm-none-eabi-0.1.6/bin/../lib/gcc/arm-none-eabi/8.2.1/../../../../arm-none-eabi/lib/thumb/v7-m/nofp\libm.a(lib_a-sf_atan.o) (fabsf)
c:/users/andy/.vscode/extensions/metalcode-eu.windows-arm-none-eabi-0.1.6/bin/../lib/gcc/arm-none-eabi/8.2.1/../../../../arm-none-eabi/lib/thumb/v7-m/nofp\libm.a(lib_a-sf_floor.o)
                              ./build/./RepRapFirmware/src/GCodes/GCodes.o (floorf)
c:/users/andy/.vscode/extensions/metalcode-eu.windows-arm-none-eabi-0.1.6/bin/../lib/gcc/arm-none-eabi/8.2.1/../../../../arm-none-eabi/lib/thumb/v7-m/nofp\libm.a(lib_a-sf_lrint.o)
                              ./build/./RepRapFirmware/src/Platform.o (lrintf)
c:/users/andy/.vscode/extensions/metalcode-eu.windows-arm-none-eabi-0.1.6/bin/../lib/gcc/arm-none-eabi/8.2.1/../../../../arm-none-eabi/lib/thumb/v7-m/nofp\libm.a(lib_a-sf_rint.o)
                              ./build/./RepRapFirmware/src/GCodes/GCodeFileInfo.o (rintf)
c:/users/andy/.vscode/extensions/metalcode-eu.windows-arm-none-eabi-0.1.6/bin/../lib/gcc/arm-none-eabi/8.2.1/../../../../arm-none-eabi/lib/thumb/v7-m/nofp\libm.a(lib_a-sf_round.o)
                              ./build/./RepRapFirmware/src/RepRap.o (roundf)
c:/users/andy/.vscode/extensions/metalcode-eu.windows-arm-none-eabi-0.1.6/bin/../lib/gcc/arm-none-eabi/8.2.1/../../../../arm-none-eabi/lib/thumb/v7-m/nofp\libm.a(lib_a-sf_sin.o)
                              ./build/./RepRapFirmware/src/RepRap.o (sinf)
c:/users/andy/.vscode/extensions/metalcode-eu.windows-arm-none-eabi-0.1.6/bin/../lib/gcc/arm-none-eabi/8.2.1/../../../../arm-none-eabi/lib/thumb/v7-m/nofp\libm.a(lib_a-sf_tan.o)
                              ./build/./RepRapFirmware/src/GCodes/GCodeBuffer/ExpressionParser.o (tanf)
c:/users/andy/.vscode/extensions/metalcode-eu.windows-arm-none-eabi-0.1.6/bin/../lib/gcc/arm-none-eabi/8.2.1/../../../../arm-none-eabi/lib/thumb/v7-m/nofp\libm.a(lib_a-w_pow.o)
                              ./build/\libRRFLibraries.a(NumericConverter.o) (pow)
c:/users/andy/.vscode/extensions/metalcode-eu.windows-arm-none-eabi-0.1.6/bin/../lib/gcc/arm-none-eabi/8.2.1/../../../../arm-none-eabi/lib/thumb/v7-m/nofp\libm.a(lib_a-wf_acos.o)
                              ./build/./RepRapFirmware/src/GCodes/GCodeBuffer/ExpressionParser.o (acosf)
c:/users/andy/.vscode/extensions/metalcode-eu.windows-arm-none-eabi-0.1.6/bin/../lib/gcc/arm-none-eabi/8.2.1/../../../../arm-none-eabi/lib/thumb/v7-m/nofp\libm.a(lib_a-wf_asin.o)
                              ./build/./RepRapFirmware/src/GCodes/GCodeBuffer/ExpressionParser.o (asinf)
c:/users/andy/.vscode/extensions/metalcode-eu.windows-arm-none-eabi-0.1.6/bin/../lib/gcc/arm-none-eabi/8.2.1/../../../../arm-none-eabi/lib/thumb/v7-m/nofp\libm.a(lib_a-wf_atan2.o)
                              ./build/./RepRapFirmware/src/GCodes/GCodes.o (atan2f)
c:/users/andy/.vscode/extensions/metalcode-eu.windows-arm-none-eabi-0.1.6/bin/../lib/gcc/arm-none-eabi/8.2.1/../../../../arm-none-eabi/lib/thumb/v7-m/nofp\libm.a(lib_a-wf_exp.o)
                              ./build/./RepRapFirmware/src/Heating/LocalHeater.o (expf)
c:/users/andy/.vscode/extensions/metalcode-eu.windows-arm-none-eabi-0.1.6/bin/../lib/gcc/arm-none-eabi/8.2.1/../../../../arm-none-eabi/lib/thumb/v7-m/nofp\libm.a(lib_a-wf_fmod.o)
                              ./build/./RepRapFirmware/src/GCodes/GCodeBuffer/ExpressionParser.o (fmodf)
c:/users/andy/.vscode/extensions/metalcode-eu.windows-arm-none-eabi-0.1.6/bin/../lib/gcc/arm-none-eabi/8.2.1/../../../../arm-none-eabi/lib/thumb/v7-m/nofp\libm.a(lib_a-wf_log.o)
                              ./build/./RepRapFirmware/src/Heating/LocalHeater.o (logf)
c:/users/andy/.vscode/extensions/metalcode-eu.windows-arm-none-eabi-0.1.6/bin/../lib/gcc/arm-none-eabi/8.2.1/../../../../arm-none-eabi/lib/thumb/v7-m/nofp\libm.a(lib_a-wf_pow.o)
                              ./build/./RepRapFirmware/src/Heating/FOPDT.o (powf)
c:/users/andy/.vscode/extensions/metalcode-eu.windows-arm-none-eabi-0.1.6/bin/../lib/gcc/arm-none-eabi/8.2.1/../../../../arm-none-eabi/lib/thumb/v7-m/nofp\libm.a(lib_a-wf_sqrt.o)
                              ./build/./RepRapFirmware/src/GCodes/GCodes.o (sqrtf)
c:/users/andy/.vscode/extensions/metalcode-eu.windows-arm-none-eabi-0.1.6/bin/../lib/gcc/arm-none-eabi/8.2.1/../../../../arm-none-eabi/lib/thumb/v7-m/nofp\libm.a(lib_a-e_pow.o)
                              c:/users/andy/.vscode/extensions/metalcode-eu.windows-arm-none-eabi-0.1.6/bin/../lib/gcc/arm-none-eabi/8.2.1/../../../../arm-none-eabi/lib/thumb/v7-m/nofp\libm.a(lib_a-w_pow.o) (__ieee754_pow)
c:/users/andy/.vscode/extensions/metalcode-eu.windows-arm-none-eabi-0.1.6/bin/../lib/gcc/arm-none-eabi/8.2.1/../../../../arm-none-eabi/lib/thumb/v7-m/nofp\libm.a(lib_a-e_sqrt.o)
                              c:/users/andy/.vscode/extensions/metalcode-eu.windows-arm-none-eabi-0.1.6/bin/../lib/gcc/arm-none-eabi/8.2.1/../../../../arm-none-eabi/lib/thumb/v7-m/nofp\libm.a(lib_a-e_pow.o) (__ieee754_sqrt)
c:/users/andy/.vscode/extensions/metalcode-eu.windows-arm-none-eabi-0.1.6/bin/../lib/gcc/arm-none-eabi/8.2.1/../../../../arm-none-eabi/lib/thumb/v7-m/nofp\libm.a(lib_a-ef_acos.o)
                              c:/users/andy/.vscode/extensions/metalcode-eu.windows-arm-none-eabi-0.1.6/bin/../lib/gcc/arm-none-eabi/8.2.1/../../../../arm-none-eabi/lib/thumb/v7-m/nofp\libm.a(lib_a-wf_acos.o) (__ieee754_acosf)
c:/users/andy/.vscode/extensions/metalcode-eu.windows-arm-none-eabi-0.1.6/bin/../lib/gcc/arm-none-eabi/8.2.1/../../../../arm-none-eabi/lib/thumb/v7-m/nofp\libm.a(lib_a-ef_asin.o)
                              c:/users/andy/.vscode/extensions/metalcode-eu.windows-arm-none-eabi-0.1.6/bin/../lib/gcc/arm-none-eabi/8.2.1/../../../../arm-none-eabi/lib/thumb/v7-m/nofp\libm.a(lib_a-wf_asin.o) (__ieee754_asinf)
c:/users/andy/.vscode/extensions/metalcode-eu.windows-arm-none-eabi-0.1.6/bin/../lib/gcc/arm-none-eabi/8.2.1/../../../../arm-none-eabi/lib/thumb/v7-m/nofp\libm.a(lib_a-ef_atan2.o)
                              c:/users/andy/.vscode/extensions/metalcode-eu.windows-arm-none-eabi-0.1.6/bin/../lib/gcc/arm-none-eabi/8.2.1/../../../../arm-none-eabi/lib/thumb/v7-m/nofp\libm.a(lib_a-wf_atan2.o) (__ieee754_atan2f)
c:/users/andy/.vscode/extensions/metalcode-eu.windows-arm-none-eabi-0.1.6/bin/../lib/gcc/arm-none-eabi/8.2.1/../../../../arm-none-eabi/lib/thumb/v7-m/nofp\libm.a(lib_a-ef_exp.o)
                              c:/users/andy/.vscode/extensions/metalcode-eu.windows-arm-none-eabi-0.1.6/bin/../lib/gcc/arm-none-eabi/8.2.1/../../../../arm-none-eabi/lib/thumb/v7-m/nofp\libm.a(lib_a-wf_exp.o) (__ieee754_expf)
c:/users/andy/.vscode/extensions/metalcode-eu.windows-arm-none-eabi-0.1.6/bin/../lib/gcc/arm-none-eabi/8.2.1/../../../../arm-none-eabi/lib/thumb/v7-m/nofp\libm.a(lib_a-ef_fmod.o)
                              c:/users/andy/.vscode/extensions/metalcode-eu.windows-arm-none-eabi-0.1.6/bin/../lib/gcc/arm-none-eabi/8.2.1/../../../../arm-none-eabi/lib/thumb/v7-m/nofp\libm.a(lib_a-wf_fmod.o) (__ieee754_fmodf)
c:/users/andy/.vscode/extensions/metalcode-eu.windows-arm-none-eabi-0.1.6/bin/../lib/gcc/arm-none-eabi/8.2.1/../../../../arm-none-eabi/lib/thumb/v7-m/nofp\libm.a(lib_a-ef_log.o)
                              c:/users/andy/.vscode/extensions/metalcode-eu.windows-arm-none-eabi-0.1.6/bin/../lib/gcc/arm-none-eabi/8.2.1/../../../../arm-none-eabi/lib/thumb/v7-m/nofp\libm.a(lib_a-wf_log.o) (__ieee754_logf)
c:/users/andy/.vscode/extensions/metalcode-eu.windows-arm-none-eabi-0.1.6/bin/../lib/gcc/arm-none-eabi/8.2.1/../../../../arm-none-eabi/lib/thumb/v7-m/nofp\libm.a(lib_a-ef_pow.o)
                              c:/users/andy/.vscode/extensions/metalcode-eu.windows-arm-none-eabi-0.1.6/bin/../lib/gcc/arm-none-eabi/8.2.1/../../../../arm-none-eabi/lib/thumb/v7-m/nofp\libm.a(lib_a-wf_pow.o) (__ieee754_powf)
c:/users/andy/.vscode/extensions/metalcode-eu.windows-arm-none-eabi-0.1.6/bin/../lib/gcc/arm-none-eabi/8.2.1/../../../../arm-none-eabi/lib/thumb/v7-m/nofp\libm.a(lib_a-ef_rem_pio2.o)
                              c:/users/andy/.vscode/extensions/metalcode-eu.windows-arm-none-eabi-0.1.6/bin/../lib/gcc/arm-none-eabi/8.2.1/../../../../arm-none-eabi/lib/thumb/v7-m/nofp\libm.a(lib_a-sf_cos.o) (__ieee754_rem_pio2f)
c:/users/andy/.vscode/extensions/metalcode-eu.windows-arm-none-eabi-0.1.6/bin/../lib/gcc/arm-none-eabi/8.2.1/../../../../arm-none-eabi/lib/thumb/v7-m/nofp\libm.a(lib_a-ef_sqrt.o)
                              c:/users/andy/.vscode/extensions/metalcode-eu.windows-arm-none-eabi-0.1.6/bin/../lib/gcc/arm-none-eabi/8.2.1/../../../../arm-none-eabi/lib/thumb/v7-m/nofp\libm.a(lib_a-wf_sqrt.o) (__ieee754_sqrtf)
c:/users/andy/.vscode/extensions/metalcode-eu.windows-arm-none-eabi-0.1.6/bin/../lib/gcc/arm-none-eabi/8.2.1/../../../../arm-none-eabi/lib/thumb/v7-m/nofp\libm.a(lib_a-kf_cos.o)
                              c:/users/andy/.vscode/extensions/metalcode-eu.windows-arm-none-eabi-0.1.6/bin/../lib/gcc/arm-none-eabi/8.2.1/../../../../arm-none-eabi/lib/thumb/v7-m/nofp\libm.a(lib_a-sf_cos.o) (__kernel_cosf)
c:/users/andy/.vscode/extensions/metalcode-eu.windows-arm-none-eabi-0.1.6/bin/../lib/gcc/arm-none-eabi/8.2.1/../../../../arm-none-eabi/lib/thumb/v7-m/nofp\libm.a(lib_a-kf_rem_pio2.o)
                              c:/users/andy/.vscode/extensions/metalcode-eu.windows-arm-none-eabi-0.1.6/bin/../lib/gcc/arm-none-eabi/8.2.1/../../../../arm-none-eabi/lib/thumb/v7-m/nofp\libm.a(lib_a-ef_rem_pio2.o) (__kernel_rem_pio2f)
c:/users/andy/.vscode/extensions/metalcode-eu.windows-arm-none-eabi-0.1.6/bin/../lib/gcc/arm-none-eabi/8.2.1/../../../../arm-none-eabi/lib/thumb/v7-m/nofp\libm.a(lib_a-kf_sin.o)
                              c:/users/andy/.vscode/extensions/metalcode-eu.windows-arm-none-eabi-0.1.6/bin/../lib/gcc/arm-none-eabi/8.2.1/../../../../arm-none-eabi/lib/thumb/v7-m/nofp\libm.a(lib_a-sf_cos.o) (__kernel_sinf)
c:/users/andy/.vscode/extensions/metalcode-eu.windows-arm-none-eabi-0.1.6/bin/../lib/gcc/arm-none-eabi/8.2.1/../../../../arm-none-eabi/lib/thumb/v7-m/nofp\libm.a(lib_a-kf_tan.o)
                              c:/users/andy/.vscode/extensions/metalcode-eu.windows-arm-none-eabi-0.1.6/bin/../lib/gcc/arm-none-eabi/8.2.1/../../../../arm-none-eabi/lib/thumb/v7-m/nofp\libm.a(lib_a-sf_tan.o) (__kernel_tanf)
c:/users/andy/.vscode/extensions/metalcode-eu.windows-arm-none-eabi-0.1.6/bin/../lib/gcc/arm-none-eabi/8.2.1/../../../../arm-none-eabi/lib/thumb/v7-m/nofp\libm.a(lib_a-s_fabs.o)
                              c:/users/andy/.vscode/extensions/metalcode-eu.windows-arm-none-eabi-0.1.6/bin/../lib/gcc/arm-none-eabi/8.2.1/../../../../arm-none-eabi/lib/thumb/v7-m/nofp\libm.a(lib_a-e_pow.o) (fabs)
c:/users/andy/.vscode/extensions/metalcode-eu.windows-arm-none-eabi-0.1.6/bin/../lib/gcc/arm-none-eabi/8.2.1/../../../../arm-none-eabi/lib/thumb/v7-m/nofp\libm.a(lib_a-s_finite.o)
                              c:/users/andy/.vscode/extensions/metalcode-eu.windows-arm-none-eabi-0.1.6/bin/../lib/gcc/arm-none-eabi/8.2.1/../../../../arm-none-eabi/lib/thumb/v7-m/nofp\libm.a(lib_a-w_pow.o) (finite)
c:/users/andy/.vscode/extensions/metalcode-eu.windows-arm-none-eabi-0.1.6/bin/../lib/gcc/arm-none-eabi/8.2.1/../../../../arm-none-eabi/lib/thumb/v7-m/nofp\libm.a(lib_a-s_lib_ver.o)
                              c:/users/andy/.vscode/extensions/metalcode-eu.windows-arm-none-eabi-0.1.6/bin/../lib/gcc/arm-none-eabi/8.2.1/../../../../arm-none-eabi/lib/thumb/v7-m/nofp\libm.a(lib_a-w_pow.o) (__fdlib_version)
c:/users/andy/.vscode/extensions/metalcode-eu.windows-arm-none-eabi-0.1.6/bin/../lib/gcc/arm-none-eabi/8.2.1/../../../../arm-none-eabi/lib/thumb/v7-m/nofp\libm.a(lib_a-s_matherr.o)
                              c:/users/andy/.vscode/extensions/metalcode-eu.windows-arm-none-eabi-0.1.6/bin/../lib/gcc/arm-none-eabi/8.2.1/../../../../arm-none-eabi/lib/thumb/v7-m/nofp\libm.a(lib_a-w_pow.o) (matherr)
c:/users/andy/.vscode/extensions/metalcode-eu.windows-arm-none-eabi-0.1.6/bin/../lib/gcc/arm-none-eabi/8.2.1/../../../../arm-none-eabi/lib/thumb/v7-m/nofp\libm.a(lib_a-s_nan.o)
                              c:/users/andy/.vscode/extensions/metalcode-eu.windows-arm-none-eabi-0.1.6/bin/../lib/gcc/arm-none-eabi/8.2.1/../../../../arm-none-eabi/lib/thumb/v7-m/nofp\libm.a(lib_a-wf_acos.o) (nan)
c:/users/andy/.vscode/extensions/metalcode-eu.windows-arm-none-eabi-0.1.6/bin/../lib/gcc/arm-none-eabi/8.2.1/../../../../arm-none-eabi/lib/thumb/v7-m/nofp\libm.a(lib_a-s_rint.o)
                              c:/users/andy/.vscode/extensions/metalcode-eu.windows-arm-none-eabi-0.1.6/bin/../lib/gcc/arm-none-eabi/8.2.1/../../../../arm-none-eabi/lib/thumb/v7-m/nofp\libm.a(lib_a-w_pow.o) (rint)
c:/users/andy/.vscode/extensions/metalcode-eu.windows-arm-none-eabi-0.1.6/bin/../lib/gcc/arm-none-eabi/8.2.1/../../../../arm-none-eabi/lib/thumb/v7-m/nofp\libm.a(lib_a-s_scalbn.o)
                              c:/users/andy/.vscode/extensions/metalcode-eu.windows-arm-none-eabi-0.1.6/bin/../lib/gcc/arm-none-eabi/8.2.1/../../../../arm-none-eabi/lib/thumb/v7-m/nofp\libm.a(lib_a-e_pow.o) (scalbn)
c:/users/andy/.vscode/extensions/metalcode-eu.windows-arm-none-eabi-0.1.6/bin/../lib/gcc/arm-none-eabi/8.2.1/../../../../arm-none-eabi/lib/thumb/v7-m/nofp\libm.a(lib_a-sf_finite.o)
                              c:/users/andy/.vscode/extensions/metalcode-eu.windows-arm-none-eabi-0.1.6/bin/../lib/gcc/arm-none-eabi/8.2.1/../../../../arm-none-eabi/lib/thumb/v7-m/nofp\libm.a(lib_a-wf_exp.o) (finitef)
c:/users/andy/.vscode/extensions/metalcode-eu.windows-arm-none-eabi-0.1.6/bin/../lib/gcc/arm-none-eabi/8.2.1/../../../../arm-none-eabi/lib/thumb/v7-m/nofp\libm.a(lib_a-sf_nan.o)
                              c:/users/andy/.vscode/extensions/metalcode-eu.windows-arm-none-eabi-0.1.6/bin/../lib/gcc/arm-none-eabi/8.2.1/../../../../arm-none-eabi/lib/thumb/v7-m/nofp\libm.a(lib_a-ef_pow.o) (nanf)
c:/users/andy/.vscode/extensions/metalcode-eu.windows-arm-none-eabi-0.1.6/bin/../lib/gcc/arm-none-eabi/8.2.1/../../../../arm-none-eabi/lib/thumb/v7-m/nofp\libm.a(lib_a-sf_scalbn.o)
                              c:/users/andy/.vscode/extensions/metalcode-eu.windows-arm-none-eabi-0.1.6/bin/../lib/gcc/arm-none-eabi/8.2.1/../../../../arm-none-eabi/lib/thumb/v7-m/nofp\libm.a(lib_a-ef_pow.o) (scalbnf)
c:/users/andy/.vscode/extensions/metalcode-eu.windows-arm-none-eabi-0.1.6/bin/../lib/gcc/arm-none-eabi/8.2.1/thumb/v7-m/nofp\libgcc.a(_arm_addsubdf3.o)
                              c:/users/andy/.vscode/extensions/metalcode-eu.windows-arm-none-eabi-0.1.6/bin/../lib/gcc/arm-none-eabi/8.2.1/../../../../arm-none-eabi/lib/thumb/v7-m/nofp\libm.a(lib_a-s_llrint.o) (__aeabi_dsub)
c:/users/andy/.vscode/extensions/metalcode-eu.windows-arm-none-eabi-0.1.6/bin/../lib/gcc/arm-none-eabi/8.2.1/thumb/v7-m/nofp\libgcc.a(_arm_muldivdf3.o)
                              ./build/./RepRapFirmware/src/Movement/DriveMovement.o (__aeabi_dmul)
c:/users/andy/.vscode/extensions/metalcode-eu.windows-arm-none-eabi-0.1.6/bin/../lib/gcc/arm-none-eabi/8.2.1/thumb/v7-m/nofp\libgcc.a(_arm_cmpdf2.o)
                              ./build/\libRRFLibraries.a(SafeVsnprintf.o) (__aeabi_dcmpeq)
c:/users/andy/.vscode/extensions/metalcode-eu.windows-arm-none-eabi-0.1.6/bin/../lib/gcc/arm-none-eabi/8.2.1/thumb/v7-m/nofp\libgcc.a(_arm_unorddf2.o)
                              ./build/\libRRFLibraries.a(SafeVsnprintf.o) (__aeabi_dcmpun)
c:/users/andy/.vscode/extensions/metalcode-eu.windows-arm-none-eabi-0.1.6/bin/../lib/gcc/arm-none-eabi/8.2.1/thumb/v7-m/nofp\libgcc.a(_arm_truncdfsf2.o)
                              ./build/./RepRapFirmware/src/Movement/BedProbing/Grid.o (__aeabi_d2f)
c:/users/andy/.vscode/extensions/metalcode-eu.windows-arm-none-eabi-0.1.6/bin/../lib/gcc/arm-none-eabi/8.2.1/thumb/v7-m/nofp\libgcc.a(_arm_addsubsf3.o)
                              ./build/./RepRapFirmware/src/PrintMonitor.o (__aeabi_fsub)
c:/users/andy/.vscode/extensions/metalcode-eu.windows-arm-none-eabi-0.1.6/bin/../lib/gcc/arm-none-eabi/8.2.1/thumb/v7-m/nofp\libgcc.a(_arm_muldivsf3.o)
                              ./build/\libLPCCore.a(AnalogOutServo.o) (__aeabi_fmul)
c:/users/andy/.vscode/extensions/metalcode-eu.windows-arm-none-eabi-0.1.6/bin/../lib/gcc/arm-none-eabi/8.2.1/thumb/v7-m/nofp\libgcc.a(_arm_cmpsf2.o)
                              ./build/./RepRapFirmware/src/Platform.o (__aeabi_fcmpeq)
c:/users/andy/.vscode/extensions/metalcode-eu.windows-arm-none-eabi-0.1.6/bin/../lib/gcc/arm-none-eabi/8.2.1/thumb/v7-m/nofp\libgcc.a(_arm_unordsf2.o)
                              ./build/\libLPCCore.a(AnalogOut.o) (__aeabi_fcmpun)
c:/users/andy/.vscode/extensions/metalcode-eu.windows-arm-none-eabi-0.1.6/bin/../lib/gcc/arm-none-eabi/8.2.1/thumb/v7-m/nofp\libgcc.a(_arm_fixsfsi.o)
                              ./build/./RepRapFirmware/src/RepRap.o (__aeabi_f2iz)
c:/users/andy/.vscode/extensions/metalcode-eu.windows-arm-none-eabi-0.1.6/bin/../lib/gcc/arm-none-eabi/8.2.1/thumb/v7-m/nofp\libgcc.a(_arm_fixunssfsi.o)
                              ./build/\libLPCCore.a(AnalogOutServo.o) (__aeabi_f2uiz)
c:/users/andy/.vscode/extensions/metalcode-eu.windows-arm-none-eabi-0.1.6/bin/../lib/gcc/arm-none-eabi/8.2.1/thumb/v7-m/nofp\libgcc.a(_aeabi_uldivmod.o)
                              ./build/./RepRapFirmware/src/Platform.o (__aeabi_uldivmod)
c:/users/andy/.vscode/extensions/metalcode-eu.windows-arm-none-eabi-0.1.6/bin/../lib/gcc/arm-none-eabi/8.2.1/thumb/v7-m/nofp\libgcc.a(_ctzdi2.o)
                              ./build/./RepRapFirmware/src/ObjectModel/ObjectModel.o (__ctzdi2)
c:/users/andy/.vscode/extensions/metalcode-eu.windows-arm-none-eabi-0.1.6/bin/../lib/gcc/arm-none-eabi/8.2.1/thumb/v7-m/nofp\libgcc.a(_fixsfdi.o)
                              ./build/./RepRapFirmware/src/Movement/DriveMovement.o (__aeabi_f2lz)
c:/users/andy/.vscode/extensions/metalcode-eu.windows-arm-none-eabi-0.1.6/bin/../lib/gcc/arm-none-eabi/8.2.1/thumb/v7-m/nofp\libgcc.a(_fixdfdi.o)
                              c:/users/andy/.vscode/extensions/metalcode-eu.windows-arm-none-eabi-0.1.6/bin/../lib/gcc/arm-none-eabi/8.2.1/../../../../arm-none-eabi/lib/thumb/v7-m/nofp\libm.a(lib_a-s_llrint.o) (__aeabi_d2lz)
c:/users/andy/.vscode/extensions/metalcode-eu.windows-arm-none-eabi-0.1.6/bin/../lib/gcc/arm-none-eabi/8.2.1/thumb/v7-m/nofp\libgcc.a(_fixunssfdi.o)
                              ./build/./RepRapFirmware/src/Movement/DriveMovement.o (__aeabi_f2ulz)
c:/users/andy/.vscode/extensions/metalcode-eu.windows-arm-none-eabi-0.1.6/bin/../lib/gcc/arm-none-eabi/8.2.1/thumb/v7-m/nofp\libgcc.a(_fixunsdfdi.o)
                              ./build/./RepRapFirmware/src/Movement/DriveMovement.o (__aeabi_d2ulz)
c:/users/andy/.vscode/extensions/metalcode-eu.windows-arm-none-eabi-0.1.6/bin/../lib/gcc/arm-none-eabi/8.2.1/thumb/v7-m/nofp\libgcc.a(_udivmoddi4.o)
                              c:/users/andy/.vscode/extensions/metalcode-eu.windows-arm-none-eabi-0.1.6/bin/../lib/gcc/arm-none-eabi/8.2.1/thumb/v7-m/nofp\libgcc.a(_aeabi_uldivmod.o) (__udivmoddi4)
c:/users/andy/.vscode/extensions/metalcode-eu.windows-arm-none-eabi-0.1.6/bin/../lib/gcc/arm-none-eabi/8.2.1/thumb/v7-m/nofp\libgcc.a(unwind-arm.o)
                              ./build/./RepRapFirmware/src/Platform.o (__aeabi_unwind_cpp_pr0)
c:/users/andy/.vscode/extensions/metalcode-eu.windows-arm-none-eabi-0.1.6/bin/../lib/gcc/arm-none-eabi/8.2.1/thumb/v7-m/nofp\libgcc.a(libunwind.o)
                              c:/users/andy/.vscode/extensions/metalcode-eu.windows-arm-none-eabi-0.1.6/bin/../lib/gcc/arm-none-eabi/8.2.1/thumb/v7-m/nofp\libgcc.a(unwind-arm.o) (restore_core_regs)
c:/users/andy/.vscode/extensions/metalcode-eu.windows-arm-none-eabi-0.1.6/bin/../lib/gcc/arm-none-eabi/8.2.1/thumb/v7-m/nofp\libgcc.a(pr-support.o)
                              c:/users/andy/.vscode/extensions/metalcode-eu.windows-arm-none-eabi-0.1.6/bin/../lib/gcc/arm-none-eabi/8.2.1/thumb/v7-m/nofp\libgcc.a(unwind-arm.o) (__gnu_unwind_execute)
c:/users/andy/.vscode/extensions/metalcode-eu.windows-arm-none-eabi-0.1.6/bin/../lib/gcc/arm-none-eabi/8.2.1/thumb/v7-m/nofp\libgcc.a(_dvmd_tls.o)
                              c:/users/andy/.vscode/extensions/metalcode-eu.windows-arm-none-eabi-0.1.6/bin/../lib/gcc/arm-none-eabi/8.2.1/thumb/v7-m/nofp\libgcc.a(_aeabi_uldivmod.o) (__aeabi_ldiv0)
c:/users/andy/.vscode/extensions/metalcode-eu.windows-arm-none-eabi-0.1.6/bin/../lib/gcc/arm-none-eabi/8.2.1/thumb/v7-m/nofp\libgcc.a(_arm_fixunsdfsi.o)
                              c:/users/andy/.vscode/extensions/metalcode-eu.windows-arm-none-eabi-0.1.6/bin/../lib/gcc/arm-none-eabi/8.2.1/thumb/v7-m/nofp\libgcc.a(_fixunssfdi.o) (__aeabi_d2uiz)
c:/users/andy/.vscode/extensions/metalcode-eu.windows-arm-none-eabi-0.1.6/bin/../lib/gcc/arm-none-eabi/8.2.1/../../../../arm-none-eabi/lib/thumb/v7-m/nofp\libc.a(lib_a-abort.o)
                              ./build/./RepRapFirmware/src/libcpp/vterminate.o (abort)
c:/users/andy/.vscode/extensions/metalcode-eu.windows-arm-none-eabi-0.1.6/bin/../lib/gcc/arm-none-eabi/8.2.1/../../../../arm-none-eabi/lib/thumb/v7-m/nofp\libc.a(lib_a-cxa_atexit.o)
                              c:/users/andy/.vscode/extensions/metalcode-eu.windows-arm-none-eabi-0.1.6/bin/../lib/gcc/arm-none-eabi/8.2.1/../../../../arm-none-eabi/lib/thumb/v7-m/nofp\libsupc++.a(atexit_arm.o) (__cxa_atexit)
c:/users/andy/.vscode/extensions/metalcode-eu.windows-arm-none-eabi-0.1.6/bin/../lib/gcc/arm-none-eabi/8.2.1/../../../../arm-none-eabi/lib/thumb/v7-m/nofp\libc.a(lib_a-errno.o)
                              ./build/./RepRapFirmware/src/libc/nano-mallocr.o (__errno)
c:/users/andy/.vscode/extensions/metalcode-eu.windows-arm-none-eabi-0.1.6/bin/../lib/gcc/arm-none-eabi/8.2.1/../../../../arm-none-eabi/lib/thumb/v7-m/nofp\libc.a(lib_a-exit.o)
                              c:/users/andy/.vscode/extensions/metalcode-eu.windows-arm-none-eabi-0.1.6/bin/../lib/gcc/arm-none-eabi/8.2.1/../../../../arm-none-eabi/lib/thumb/v7-m/nofp/crt0.o (exit)
c:/users/andy/.vscode/extensions/metalcode-eu.windows-arm-none-eabi-0.1.6/bin/../lib/gcc/arm-none-eabi/8.2.1/../../../../arm-none-eabi/lib/thumb/v7-m/nofp\libc.a(lib_a-gmtime_r.o)
                              ./build/./RepRapFirmware/src/Platform.o (gmtime_r)
c:/users/andy/.vscode/extensions/metalcode-eu.windows-arm-none-eabi-0.1.6/bin/../lib/gcc/arm-none-eabi/8.2.1/../../../../arm-none-eabi/lib/thumb/v7-m/nofp\libc.a(lib_a-impure.o)
                              c:/users/andy/.vscode/extensions/metalcode-eu.windows-arm-none-eabi-0.1.6/bin/../lib/gcc/arm-none-eabi/8.2.1/../../../../arm-none-eabi/lib/thumb/v7-m/nofp\libc.a(lib_a-exit.o) (_global_impure_ptr)
c:/users/andy/.vscode/extensions/metalcode-eu.windows-arm-none-eabi-0.1.6/bin/../lib/gcc/arm-none-eabi/8.2.1/../../../../arm-none-eabi/lib/thumb/v7-m/nofp\libc.a(lib_a-init.o)
                              c:/users/andy/.vscode/extensions/metalcode-eu.windows-arm-none-eabi-0.1.6/bin/../lib/gcc/arm-none-eabi/8.2.1/../../../../arm-none-eabi/lib/thumb/v7-m/nofp/crt0.o (__libc_init_array)
c:/users/andy/.vscode/extensions/metalcode-eu.windows-arm-none-eabi-0.1.6/bin/../lib/gcc/arm-none-eabi/8.2.1/../../../../arm-none-eabi/lib/thumb/v7-m/nofp\libc.a(lib_a-isalpha.o)
                              ./build/./RepRapFirmware/src/GCodes/GCodeBuffer/ExpressionParser.o (isalpha)
c:/users/andy/.vscode/extensions/metalcode-eu.windows-arm-none-eabi-0.1.6/bin/../lib/gcc/arm-none-eabi/8.2.1/../../../../arm-none-eabi/lib/thumb/v7-m/nofp\libc.a(lib_a-isspace.o)
                              ./build/./RepRapFirmware/src/libc/strptime.o (isspace)
c:/users/andy/.vscode/extensions/metalcode-eu.windows-arm-none-eabi-0.1.6/bin/../lib/gcc/arm-none-eabi/8.2.1/../../../../arm-none-eabi/lib/thumb/v7-m/nofp\libc.a(lib_a-isxdigit.o)
                              ./build/\libRRFLibraries.a(NumericConverter.o) (isxdigit)
c:/users/andy/.vscode/extensions/metalcode-eu.windows-arm-none-eabi-0.1.6/bin/../lib/gcc/arm-none-eabi/8.2.1/../../../../arm-none-eabi/lib/thumb/v7-m/nofp\libc.a(lib_a-lldiv.o)
                              ./build/\libRRFLibraries.a(SafeVsnprintf.o) (lldiv)
c:/users/andy/.vscode/extensions/metalcode-eu.windows-arm-none-eabi-0.1.6/bin/../lib/gcc/arm-none-eabi/8.2.1/../../../../arm-none-eabi/lib/thumb/v7-m/nofp\libc.a(lib_a-mktime.o)
                              ./build/./RepRapFirmware/src/GCodes/GCodes3.o (mktime)
c:/users/andy/.vscode/extensions/metalcode-eu.windows-arm-none-eabi-0.1.6/bin/../lib/gcc/arm-none-eabi/8.2.1/../../../../arm-none-eabi/lib/thumb/v7-m/nofp\libc.a(lib_a-rand.o)
                              ./build/\libLPCCore.a(WMath.o) (srand)
c:/users/andy/.vscode/extensions/metalcode-eu.windows-arm-none-eabi-0.1.6/bin/../lib/gcc/arm-none-eabi/8.2.1/../../../../arm-none-eabi/lib/thumb/v7-m/nofp\libc.a(lib_a-signal.o)
                              c:/users/andy/.vscode/extensions/metalcode-eu.windows-arm-none-eabi-0.1.6/bin/../lib/gcc/arm-none-eabi/8.2.1/../../../../arm-none-eabi/lib/thumb/v7-m/nofp\libc.a(lib_a-abort.o) (raise)
c:/users/andy/.vscode/extensions/metalcode-eu.windows-arm-none-eabi-0.1.6/bin/../lib/gcc/arm-none-eabi/8.2.1/../../../../arm-none-eabi/lib/thumb/v7-m/nofp\libc.a(lib_a-signalr.o)
                              c:/users/andy/.vscode/extensions/metalcode-eu.windows-arm-none-eabi-0.1.6/bin/../lib/gcc/arm-none-eabi/8.2.1/../../../../arm-none-eabi/lib/thumb/v7-m/nofp\libc.a(lib_a-signal.o) (_kill_r)
c:/users/andy/.vscode/extensions/metalcode-eu.windows-arm-none-eabi-0.1.6/bin/../lib/gcc/arm-none-eabi/8.2.1/../../../../arm-none-eabi/lib/thumb/v7-m/nofp\libc.a(lib_a-strchr.o)
                              ./build/./RepRapFirmware/src/GCodes/GCodes.o (strchr)
c:/users/andy/.vscode/extensions/metalcode-eu.windows-arm-none-eabi-0.1.6/bin/../lib/gcc/arm-none-eabi/8.2.1/../../../../arm-none-eabi/lib/thumb/v7-m/nofp\libc.a(lib_a-strcmp.o)
                              ./build/./RepRapFirmware/src/GCodes/GCodes2.o (strcmp)
c:/users/andy/.vscode/extensions/metalcode-eu.windows-arm-none-eabi-0.1.6/bin/../lib/gcc/arm-none-eabi/8.2.1/../../../../arm-none-eabi/lib/thumb/v7-m/nofp\libc.a(lib_a-strcpy.o)
                              ./build/./RepRapFirmware/src/Heating/Sensors/TemperatureSensor.o (strcpy)
c:/users/andy/.vscode/extensions/metalcode-eu.windows-arm-none-eabi-0.1.6/bin/../lib/gcc/arm-none-eabi/8.2.1/../../../../arm-none-eabi/lib/thumb/v7-m/nofp\libc.a(lib_a-strlen-stub.o)
                              ./build/./RepRapFirmware/src/OutputMemory.o (strlen)
c:/users/andy/.vscode/extensions/metalcode-eu.windows-arm-none-eabi-0.1.6/bin/../lib/gcc/arm-none-eabi/8.2.1/../../../../arm-none-eabi/lib/thumb/v7-m/nofp\libc.a(lib_a-strncat.o)
                              ./build/\libRRFLibraries.a(StringFunctions.o) (strncat)
c:/users/andy/.vscode/extensions/metalcode-eu.windows-arm-none-eabi-0.1.6/bin/../lib/gcc/arm-none-eabi/8.2.1/../../../../arm-none-eabi/lib/thumb/v7-m/nofp\libc.a(lib_a-strncpy.o)
                              ./build/\libRRFLibraries.a(StringFunctions.o) (strncpy)
c:/users/andy/.vscode/extensions/metalcode-eu.windows-arm-none-eabi-0.1.6/bin/../lib/gcc/arm-none-eabi/8.2.1/../../../../arm-none-eabi/lib/thumb/v7-m/nofp\libc.a(lib_a-strstr.o)
                              ./build/\libRRFLibraries.a(StringRef.o) (strstr)
c:/users/andy/.vscode/extensions/metalcode-eu.windows-arm-none-eabi-0.1.6/bin/../lib/gcc/arm-none-eabi/8.2.1/../../../../arm-none-eabi/lib/thumb/v7-m/nofp\libc.a(lib_a-strtoul.o)
                              ./build/\libRRFLibraries.a(SafeStrtod.o) (strtoul)
c:/users/andy/.vscode/extensions/metalcode-eu.windows-arm-none-eabi-0.1.6/bin/../lib/gcc/arm-none-eabi/8.2.1/../../../../arm-none-eabi/lib/thumb/v7-m/nofp\libc.a(lib_a-syssbrk.o)
                              ./build/./RepRapFirmware/src/libc/nano-mallocr.o (sbrk)
c:/users/andy/.vscode/extensions/metalcode-eu.windows-arm-none-eabi-0.1.6/bin/../lib/gcc/arm-none-eabi/8.2.1/../../../../arm-none-eabi/lib/thumb/v7-m/nofp\libc.a(lib_a-tolower.o)
                              ./build/./RepRapFirmware/src/GCodes/GCodeBuffer/BinaryParser.o (tolower)
c:/users/andy/.vscode/extensions/metalcode-eu.windows-arm-none-eabi-0.1.6/bin/../lib/gcc/arm-none-eabi/8.2.1/../../../../arm-none-eabi/lib/thumb/v7-m/nofp\libc.a(lib_a-toupper.o)
                              ./build/./RepRapFirmware/src/GCodes/GCodes2.o (toupper)
c:/users/andy/.vscode/extensions/metalcode-eu.windows-arm-none-eabi-0.1.6/bin/../lib/gcc/arm-none-eabi/8.2.1/../../../../arm-none-eabi/lib/thumb/v7-m/nofp\libc.a(lib_a-tzcalc_limits.o)
                              c:/users/andy/.vscode/extensions/metalcode-eu.windows-arm-none-eabi-0.1.6/bin/../lib/gcc/arm-none-eabi/8.2.1/../../../../arm-none-eabi/lib/thumb/v7-m/nofp\libc.a(lib_a-mktime.o) (__tzcalc_limits)
c:/users/andy/.vscode/extensions/metalcode-eu.windows-arm-none-eabi-0.1.6/bin/../lib/gcc/arm-none-eabi/8.2.1/../../../../arm-none-eabi/lib/thumb/v7-m/nofp\libc.a(lib_a-tzvars.o)
                              c:/users/andy/.vscode/extensions/metalcode-eu.windows-arm-none-eabi-0.1.6/bin/../lib/gcc/arm-none-eabi/8.2.1/../../../../arm-none-eabi/lib/thumb/v7-m/nofp\libc.a(lib_a-mktime.o) (_daylight)
c:/users/andy/.vscode/extensions/metalcode-eu.windows-arm-none-eabi-0.1.6/bin/../lib/gcc/arm-none-eabi/8.2.1/../../../../arm-none-eabi/lib/thumb/v7-m/nofp\libc.a(lib_a-__atexit.o)
                              c:/users/andy/.vscode/extensions/metalcode-eu.windows-arm-none-eabi-0.1.6/bin/../lib/gcc/arm-none-eabi/8.2.1/../../../../arm-none-eabi/lib/thumb/v7-m/nofp\libc.a(lib_a-cxa_atexit.o) (__register_exitproc)
c:/users/andy/.vscode/extensions/metalcode-eu.windows-arm-none-eabi-0.1.6/bin/../lib/gcc/arm-none-eabi/8.2.1/../../../../arm-none-eabi/lib/thumb/v7-m/nofp\libc.a(lib_a-__call_atexit.o)
                              c:/users/andy/.vscode/extensions/metalcode-eu.windows-arm-none-eabi-0.1.6/bin/../lib/gcc/arm-none-eabi/8.2.1/../../../../arm-none-eabi/lib/thumb/v7-m/nofp\libc.a(lib_a-exit.o) (__call_exitprocs)
c:/users/andy/.vscode/extensions/metalcode-eu.windows-arm-none-eabi-0.1.6/bin/../lib/gcc/arm-none-eabi/8.2.1/../../../../arm-none-eabi/lib/thumb/v7-m/nofp\libc.a(lib_a-atexit.o)
                              c:/users/andy/.vscode/extensions/metalcode-eu.windows-arm-none-eabi-0.1.6/bin/../lib/gcc/arm-none-eabi/8.2.1/../../../../arm-none-eabi/lib/thumb/v7-m/nofp\libc.a(lib_a-__call_atexit.o) (atexit)
c:/users/andy/.vscode/extensions/metalcode-eu.windows-arm-none-eabi-0.1.6/bin/../lib/gcc/arm-none-eabi/8.2.1/../../../../arm-none-eabi/lib/thumb/v7-m/nofp\libc.a(lib_a-ctype_.o)
                              c:/users/andy/.vscode/extensions/metalcode-eu.windows-arm-none-eabi-0.1.6/bin/../lib/gcc/arm-none-eabi/8.2.1/../../../../arm-none-eabi/lib/thumb/v7-m/nofp\libc.a(lib_a-isalpha.o) (_ctype_)
c:/users/andy/.vscode/extensions/metalcode-eu.windows-arm-none-eabi-0.1.6/bin/../lib/gcc/arm-none-eabi/8.2.1/../../../../arm-none-eabi/lib/thumb/v7-m/nofp\libc.a(lib_a-div.o)
                              c:/users/andy/.vscode/extensions/metalcode-eu.windows-arm-none-eabi-0.1.6/bin/../lib/gcc/arm-none-eabi/8.2.1/../../../../arm-none-eabi/lib/thumb/v7-m/nofp\libc.a(lib_a-mktime.o) (div)
c:/users/andy/.vscode/extensions/metalcode-eu.windows-arm-none-eabi-0.1.6/bin/../lib/gcc/arm-none-eabi/8.2.1/../../../../arm-none-eabi/lib/thumb/v7-m/nofp\libc.a(lib_a-fini.o)
                              c:/users/andy/.vscode/extensions/metalcode-eu.windows-arm-none-eabi-0.1.6/bin/../lib/gcc/arm-none-eabi/8.2.1/../../../../arm-none-eabi/lib/thumb/v7-m/nofp\libc.a(lib_a-__call_atexit.o) (__libc_fini_array)
c:/users/andy/.vscode/extensions/metalcode-eu.windows-arm-none-eabi-0.1.6/bin/../lib/gcc/arm-none-eabi/8.2.1/../../../../arm-none-eabi/lib/thumb/v7-m/nofp\libc.a(lib_a-gettzinfo.o)
                              c:/users/andy/.vscode/extensions/metalcode-eu.windows-arm-none-eabi-0.1.6/bin/../lib/gcc/arm-none-eabi/8.2.1/../../../../arm-none-eabi/lib/thumb/v7-m/nofp\libc.a(lib_a-mktime.o) (__gettzinfo)
c:/users/andy/.vscode/extensions/metalcode-eu.windows-arm-none-eabi-0.1.6/bin/../lib/gcc/arm-none-eabi/8.2.1/../../../../arm-none-eabi/lib/thumb/v7-m/nofp\libc.a(lib_a-lock.o)
                              c:/users/andy/.vscode/extensions/metalcode-eu.windows-arm-none-eabi-0.1.6/bin/../lib/gcc/arm-none-eabi/8.2.1/../../../../arm-none-eabi/lib/thumb/v7-m/nofp\libc.a(lib_a-__atexit.o) (__retarget_lock_acquire_recursive)
c:/users/andy/.vscode/extensions/metalcode-eu.windows-arm-none-eabi-0.1.6/bin/../lib/gcc/arm-none-eabi/8.2.1/../../../../arm-none-eabi/lib/thumb/v7-m/nofp\libc.a(lib_a-month_lengths.o)
                              c:/users/andy/.vscode/extensions/metalcode-eu.windows-arm-none-eabi-0.1.6/bin/../lib/gcc/arm-none-eabi/8.2.1/../../../../arm-none-eabi/lib/thumb/v7-m/nofp\libc.a(lib_a-tzcalc_limits.o) (__month_lengths)
c:/users/andy/.vscode/extensions/metalcode-eu.windows-arm-none-eabi-0.1.6/bin/../lib/gcc/arm-none-eabi/8.2.1/../../../../arm-none-eabi/lib/thumb/v7-m/nofp\libc.a(lib_a-sbrkr.o)
                              c:/users/andy/.vscode/extensions/metalcode-eu.windows-arm-none-eabi-0.1.6/bin/../lib/gcc/arm-none-eabi/8.2.1/../../../../arm-none-eabi/lib/thumb/v7-m/nofp\libc.a(lib_a-syssbrk.o) (_sbrk_r)
c:/users/andy/.vscode/extensions/metalcode-eu.windows-arm-none-eabi-0.1.6/bin/../lib/gcc/arm-none-eabi/8.2.1/../../../../arm-none-eabi/lib/thumb/v7-m/nofp\libc.a(lib_a-strnlen.o)
                              c:/users/andy/.vscode/extensions/metalcode-eu.windows-arm-none-eabi-0.1.6/bin/../lib/gcc/arm-none-eabi/8.2.1/../../../../arm-none-eabi/lib/thumb/v7-m/nofp\libc.a(lib_a-strstr.o) (strnlen)
c:/users/andy/.vscode/extensions/metalcode-eu.windows-arm-none-eabi-0.1.6/bin/../lib/gcc/arm-none-eabi/8.2.1/thumb/v7-m/nofp\libgcc.a(_aeabi_ldivmod.o)
                              c:/users/andy/.vscode/extensions/metalcode-eu.windows-arm-none-eabi-0.1.6/bin/../lib/gcc/arm-none-eabi/8.2.1/../../../../arm-none-eabi/lib/thumb/v7-m/nofp\libc.a(lib_a-gmtime_r.o) (__aeabi_ldivmod)

Allocating common symbols
Common symbol       size              file

__lock___malloc_recursive_mutex
                    0x1               c:/users/andy/.vscode/extensions/metalcode-eu.windows-arm-none-eabi-0.1.6/bin/../lib/gcc/arm-none-eabi/8.2.1/../../../../arm-none-eabi/lib/thumb/v7-m/nofp\libc.a(lib_a-lock.o)
__lock___atexit_recursive_mutex
                    0x1               c:/users/andy/.vscode/extensions/metalcode-eu.windows-arm-none-eabi-0.1.6/bin/../lib/gcc/arm-none-eabi/8.2.1/../../../../arm-none-eabi/lib/thumb/v7-m/nofp\libc.a(lib_a-lock.o)
SystemCoreClock     0x4               ./build/\libLPCCore.a(system_LPC17xx.o)
xQueueRegistry      0x40              ./build/\libLPCCore.a(queue.o)
__lock___dd_hash_mutex
                    0x1               c:/users/andy/.vscode/extensions/metalcode-eu.windows-arm-none-eabi-0.1.6/bin/../lib/gcc/arm-none-eabi/8.2.1/../../../../arm-none-eabi/lib/thumb/v7-m/nofp\libc.a(lib_a-lock.o)
__lock___sinit_recursive_mutex
                    0x1               c:/users/andy/.vscode/extensions/metalcode-eu.windows-arm-none-eabi-0.1.6/bin/../lib/gcc/arm-none-eabi/8.2.1/../../../../arm-none-eabi/lib/thumb/v7-m/nofp\libc.a(lib_a-lock.o)
__lock___sfp_recursive_mutex
                    0x1               c:/users/andy/.vscode/extensions/metalcode-eu.windows-arm-none-eabi-0.1.6/bin/../lib/gcc/arm-none-eabi/8.2.1/../../../../arm-none-eabi/lib/thumb/v7-m/nofp\libc.a(lib_a-lock.o)
__lock___at_quick_exit_mutex
                    0x1               c:/users/andy/.vscode/extensions/metalcode-eu.windows-arm-none-eabi-0.1.6/bin/../lib/gcc/arm-none-eabi/8.2.1/../../../../arm-none-eabi/lib/thumb/v7-m/nofp\libc.a(lib_a-lock.o)
__lock___env_recursive_mutex
                    0x1               c:/users/andy/.vscode/extensions/metalcode-eu.windows-arm-none-eabi-0.1.6/bin/../lib/gcc/arm-none-eabi/8.2.1/../../../../arm-none-eabi/lib/thumb/v7-m/nofp\libc.a(lib_a-lock.o)
__lock___tz_mutex   0x1               c:/users/andy/.vscode/extensions/metalcode-eu.windows-arm-none-eabi-0.1.6/bin/../lib/gcc/arm-none-eabi/8.2.1/../../../../arm-none-eabi/lib/thumb/v7-m/nofp\libc.a(lib_a-lock.o)
__lock___arc4random_mutex
                    0x1               c:/users/andy/.vscode/extensions/metalcode-eu.windows-arm-none-eabi-0.1.6/bin/../lib/gcc/arm-none-eabi/8.2.1/../../../../arm-none-eabi/lib/thumb/v7-m/nofp\libc.a(lib_a-lock.o)

Discarded input sections

 .text          0x00000000        0x0 c:/users/andy/.vscode/extensions/metalcode-eu.windows-arm-none-eabi-0.1.6/bin/../lib/gcc/arm-none-eabi/8.2.1/thumb/v7-m/nofp/crti.o
 .data          0x00000000        0x0 c:/users/andy/.vscode/extensions/metalcode-eu.windows-arm-none-eabi-0.1.6/bin/../lib/gcc/arm-none-eabi/8.2.1/thumb/v7-m/nofp/crti.o
 .bss           0x00000000        0x0 c:/users/andy/.vscode/extensions/metalcode-eu.windows-arm-none-eabi-0.1.6/bin/../lib/gcc/arm-none-eabi/8.2.1/thumb/v7-m/nofp/crti.o
 .text          0x00000000       0x74 c:/users/andy/.vscode/extensions/metalcode-eu.windows-arm-none-eabi-0.1.6/bin/../lib/gcc/arm-none-eabi/8.2.1/../../../../arm-none-eabi/lib/thumb/v7-m/nofp/crt0.o
 .data          0x00000000        0x0 c:/users/andy/.vscode/extensions/metalcode-eu.windows-arm-none-eabi-0.1.6/bin/../lib/gcc/arm-none-eabi/8.2.1/../../../../arm-none-eabi/lib/thumb/v7-m/nofp/crt0.o
 .bss           0x00000000        0x0 c:/users/andy/.vscode/extensions/metalcode-eu.windows-arm-none-eabi-0.1.6/bin/../lib/gcc/arm-none-eabi/8.2.1/../../../../arm-none-eabi/lib/thumb/v7-m/nofp/crt0.o
 .ARM.extab     0x00000000        0x0 c:/users/andy/.vscode/extensions/metalcode-eu.windows-arm-none-eabi-0.1.6/bin/../lib/gcc/arm-none-eabi/8.2.1/../../../../arm-none-eabi/lib/thumb/v7-m/nofp/crt0.o
 .ARM.exidx     0x00000000        0x8 c:/users/andy/.vscode/extensions/metalcode-eu.windows-arm-none-eabi-0.1.6/bin/../lib/gcc/arm-none-eabi/8.2.1/../../../../arm-none-eabi/lib/thumb/v7-m/nofp/crt0.o
 .ARM.attributes
                0x00000000       0x1b c:/users/andy/.vscode/extensions/metalcode-eu.windows-arm-none-eabi-0.1.6/bin/../lib/gcc/arm-none-eabi/8.2.1/../../../../arm-none-eabi/lib/thumb/v7-m/nofp/crt0.o
 .text          0x00000000        0x0 ./build/./CoreLPC/cores/arduino/syscalls.o
 .data          0x00000000        0x0 ./build/./CoreLPC/cores/arduino/syscalls.o
 .bss           0x00000000        0x0 ./build/./CoreLPC/cores/arduino/syscalls.o
 .text.link     0x00000000        0x6 ./build/./CoreLPC/cores/arduino/syscalls.o
 .text._close   0x00000000        0x6 ./build/./CoreLPC/cores/arduino/syscalls.o
 .text._fstat   0x00000000        0xa ./build/./CoreLPC/cores/arduino/syscalls.o
 .text._isatty  0x00000000        0x4 ./build/./CoreLPC/cores/arduino/syscalls.o
 .text._lseek   0x00000000        0x4 ./build/./CoreLPC/cores/arduino/syscalls.o
Memory Configuration

Name             Origin             Length             Attributes
FLASH            0x00004000         0x00074000         xr
RAM              0x10000000         0x00007fe0         xrw
AHB_RAM          0x2007c000         0x00008000         xrw
*default*        0x00000000         0xffffffff

Linker script and memory map

LOAD c:/users/andy/.vscode/extensions/metalcode-eu.windows-arm-none-eabi-0.1.6/bin/../lib/gcc/arm-none-eabi/8.2.1/thumb/v7-m/nofp/crti.o
LOAD c:/users/andy/.vscode/extensions/metalcode-eu.windows-arm-none-eabi-0.1.6/bin/../lib/gcc/arm-none-eabi/8.2.1/thumb/v7-m/nofp/crtbegin.o
LOAD c:/users/andy/.vscode/extensions/metalcode-eu.windows-arm-none-eabi-0.1.6/bin/../lib/gcc/arm-none-eabi/8.2.1/../../../../arm-none-eabi/lib/thumb/v7-m/nofp/crt0.o
START GROUP
LOAD ./build/./CoreLPC/cores/arduino/syscalls.o
LOAD ./build/./RepRapFirmware/src/libc/memcmp.o
LOAD ./build/./RepRapFirmware/src/libc/memcpy.o
LOAD ./build/./RepRapFirmware/src/libc/memmove.o
LOAD ./build/./RepRapFirmware/src/libc/memset.o
LOAD ./build/./RepRapFirmware/src/libc/nano-mallocr.o
LOAD ./build/./RepRapFirmware/src/libcpp/eh_alloc.o
LOAD ./build/./RepRapFirmware/src/libc/strptime.o
LOAD ./build/./RepRapFirmware/src/libcpp/vterminate.o
LOAD ./build/\libLPCCore.a
LOAD ./build/./RepRapFirmware/src/Libraries/sha1/sha1.o
LOAD ./build/./RepRapFirmware/src/LPC/FatFS/ff.o
LOAD ./build/./RepRapFirmware/src/LPC/FatFS/ffunicode.o
LOAD ./build/./RepRapFirmware/src/Logger.o
LOAD ./build/./RepRapFirmware/src/OutputMemory.o
LOAD ./build/./RepRapFirmware/src/Platform.o
LOAD ./build/./RepRapFirmware/src/PortControl.o
LOAD ./build/./RepRapFirmware/src/PrintMonitor.o
LOAD ./build/./RepRapFirmware/src/RepRap.o
LOAD ./build/./RepRapFirmware/src/RepRapFirmware.o
LOAD ./build/./RepRapFirmware/src/Roland.o
LOAD ./build/./RepRapFirmware/src/Scanner.o
LOAD ./build/./RepRapFirmware/src/Stream.o
LOAD ./build/./RepRapFirmware/src/Tasks.o
LOAD ./build/./RepRapFirmware/src/FilamentMonitors/Duet3DFilamentMonitor.o
LOAD ./build/./RepRapFirmware/src/FilamentMonitors/FilamentMonitor.o
LOAD ./build/./RepRapFirmware/src/FilamentMonitors/LaserFilamentMonitor.o
LOAD ./build/./RepRapFirmware/src/FilamentMonitors/PulsedFilamentMonitor.o
LOAD ./build/./RepRapFirmware/src/FilamentMonitors/RotatingMagnetFilamentMonitor.o
LOAD ./build/./RepRapFirmware/src/FilamentMonitors/SimpleFilamentMonitor.o
LOAD ./build/./RepRapFirmware/src/GCodes/GCodeException.o
LOAD ./build/./RepRapFirmware/src/GCodes/GCodeFileInfo.o
LOAD ./build/./RepRapFirmware/src/GCodes/GCodeInput.o
LOAD ./build/./RepRapFirmware/src/GCodes/GCodeMachineState.o
LOAD ./build/./RepRapFirmware/src/GCodes/GCodeQueue.o
LOAD ./build/./RepRapFirmware/src/GCodes/GCodes.o
LOAD ./build/./RepRapFirmware/src/GCodes/GCodes2.o
LOAD ./build/./RepRapFirmware/src/GCodes/GCodes3.o
LOAD ./build/./RepRapFirmware/src/GCodes/GCodes4.o
LOAD ./build/./RepRapFirmware/src/GCodes/ObjectTracker.o
LOAD ./build/./RepRapFirmware/src/GCodes/RestorePoint.o
LOAD ./build/./RepRapFirmware/src/GCodes/Trigger.o
LOAD ./build/./RepRapFirmware/src/GCodes/GCodeBuffer/BinaryParser.o
LOAD ./build/./RepRapFirmware/src/GCodes/GCodeBuffer/ExpressionParser.o
LOAD ./build/./RepRapFirmware/src/GCodes/GCodeBuffer/GCodeBuffer.o
LOAD ./build/./RepRapFirmware/src/GCodes/GCodeBuffer/StringParser.o
LOAD ./build/./RepRapFirmware/src/Heating/FOPDT.o
LOAD ./build/./RepRapFirmware/src/Heating/Heat.o
LOAD ./build/./RepRapFirmware/src/Heating/Heater.o
LOAD ./build/./RepRapFirmware/src/Heating/HeaterMonitor.o
LOAD ./build/./RepRapFirmware/src/Heating/LocalHeater.o
LOAD ./build/./RepRapFirmware/src/Heating/RemoteHeater.o
LOAD ./build/./RepRapFirmware/src/Heating/TemperatureError.o
LOAD ./build/./RepRapFirmware/src/Movement/DDA.o
LOAD ./build/./RepRapFirmware/src/Movement/DDARing.o
LOAD ./build/./RepRapFirmware/src/Movement/DriveMovement.o
LOAD ./build/./RepRapFirmware/src/Movement/Move.o
LOAD ./build/./RepRapFirmware/src/Movement/RawMove.o
LOAD ./build/./RepRapFirmware/src/Movement/StepTimer.o
LOAD ./build/./RepRapFirmware/src/Movement/StraightProbeSettings.o
LOAD ./build/./RepRapFirmware/src/Movement/BedProbing/Grid.o
LOAD ./build/./RepRapFirmware/src/Movement/BedProbing/RandomProbePointSet.o
LOAD ./build/./RepRapFirmware/src/Movement/Kinematics/CoreKinematics.o
LOAD ./build/./RepRapFirmware/src/Movement/Kinematics/FiveBarScaraKinematics.o
LOAD ./build/./RepRapFirmware/src/Movement/Kinematics/HangprinterKinematics.o
LOAD ./build/./RepRapFirmware/src/Movement/Kinematics/Kinematics.o
LOAD ./build/./RepRapFirmware/src/Movement/Kinematics/LinearDeltaKinematics.o
LOAD ./build/./RepRapFirmware/src/Movement/Kinematics/PolarKinematics.o
LOAD ./build/./RepRapFirmware/src/Movement/Kinematics/RotaryDeltaKinematics.o
LOAD ./build/./RepRapFirmware/src/Movement/Kinematics/ScaraKinematics.o
LOAD ./build/./RepRapFirmware/src/Movement/Kinematics/ZLeadscrewKinematics.o
LOAD ./build/./RepRapFirmware/src/Storage/CRC32.o
LOAD ./build/./RepRapFirmware/src/Storage/FileInfoParser.o
LOAD ./build/./RepRapFirmware/src/Storage/FileStore.o
LOAD ./build/./RepRapFirmware/src/Storage/MassStorage.o
LOAD ./build/./RepRapFirmware/src/Hardware/SharedSpi/SharedSpiClient.o
LOAD ./build/./RepRapFirmware/src/Hardware/SharedSpi/SharedSpiDevice.o
LOAD ./build/./RepRapFirmware/src/Comms/AuxDevice.o
LOAD ./build/./RepRapFirmware/src/Heating/Sensors/AdditionalOutputSensor.o
LOAD ./build/./RepRapFirmware/src/Heating/Sensors/CpuTemperatureSensor.o
LOAD ./build/./RepRapFirmware/src/Heating/Sensors/CurrentLoopTemperatureSensor.o
LOAD ./build/./RepRapFirmware/src/Heating/Sensors/DhtSensor.o
LOAD ./build/./RepRapFirmware/src/Heating/Sensors/LinearAnalogSensor.o
LOAD ./build/./RepRapFirmware/src/Heating/Sensors/RemoteSensor.o
LOAD ./build/./RepRapFirmware/src/Heating/Sensors/RtdSensor31865.o
LOAD ./build/./RepRapFirmware/src/Heating/Sensors/SensorWithPort.o
LOAD ./build/./RepRapFirmware/src/Heating/Sensors/SpiTemperatureSensor.o
LOAD ./build/./RepRapFirmware/src/Heating/Sensors/TemperatureSensor.o
LOAD ./build/./RepRapFirmware/src/Heating/Sensors/Thermistor.o
LOAD ./build/./RepRapFirmware/src/Heating/Sensors/ThermocoupleSensor31855.o
LOAD ./build/./RepRapFirmware/src/Heating/Sensors/ThermocoupleSensor31856.o
LOAD ./build/./RepRapFirmware/src/Heating/Sensors/TmcDriverTemperatureSensor.o
LOAD ./build/./RepRapFirmware/src/Fans/DotStarLed.o
LOAD ./build/./RepRapFirmware/src/Fans/Fan.o
LOAD ./build/./RepRapFirmware/src/Fans/FansManager.o
LOAD ./build/./RepRapFirmware/src/Fans/LocalFan.o
LOAD ./build/./RepRapFirmware/src/Fans/RemoteFan.o
LOAD ./build/./RepRapFirmware/src/ObjectModel/ObjectModel.o
LOAD ./build/./RepRapFirmware/src/Endstops/Endstop.o
LOAD ./build/./RepRapFirmware/src/Endstops/EndstopsManager.o
LOAD ./build/./RepRapFirmware/src/Endstops/LocalZProbe.o
LOAD ./build/./RepRapFirmware/src/Endstops/RemoteZProbe.o
LOAD ./build/./RepRapFirmware/src/Endstops/StallDetectionEndstop.o
LOAD ./build/./RepRapFirmware/src/Endstops/SwitchEndstop.o
LOAD ./build/./RepRapFirmware/src/Endstops/ZProbe.o
LOAD ./build/./RepRapFirmware/src/Endstops/ZProbeEndstop.o
LOAD ./build/./RepRapFirmware/src/Hardware/ExceptionHandlers.o
LOAD ./build/./RepRapFirmware/src/Hardware/I2C.o
LOAD ./build/./RepRapFirmware/src/Hardware/IoPorts.o
LOAD ./build/./RepRapFirmware/src/Hardware/NonVolatileMemory.o
LOAD ./build/./RepRapFirmware/src/Hardware/SoftwareReset.o
LOAD ./build/./RepRapFirmware/src/Tools/Filament.o
LOAD ./build/./RepRapFirmware/src/Tools/Spindle.o
LOAD ./build/./RepRapFirmware/src/Tools/Tool.o
LOAD ./build/./RepRapFirmware/src/Display/Display.o
LOAD ./build/./RepRapFirmware/src/Display/Menu.o
LOAD ./build/./RepRapFirmware/src/Display/MenuItem.o
LOAD ./build/./RepRapFirmware/src/Display/RotaryEncoder.o
LOAD ./build/./RepRapFirmware/src/GPIO/GpInPort.o
LOAD ./build/./RepRapFirmware/src/GPIO/GpOutPort.o
LOAD ./build/./RepRapFirmware/src/LPC/BoardConfig.o
LOAD ./build/./RepRapFirmware/src/LPC/Microstepping.o
LOAD ./build/./RepRapFirmware/src/LPC/NVMEmulation.o
LOAD ./build/./RepRapFirmware/src/LPC/Pins_LPC.o
LOAD ./build/./RepRapFirmware/src/LPC/MCP4461/MCP4461.o
LOAD ./build/./RepRapFirmware/src/LPC/FatFS/diskio.o
LOAD ./build/./RepRapFirmware/src/LPC/FatFS/fattime_rtc.o
LOAD ./build/./RepRapFirmware/src/LPC/FatFS/sd_mmc_wrapper.o
LOAD ./build/./RepRapFirmware/src/LPC/FatFS/SDCard.o
LOAD ./build/./RepRapFirmware/src/Linux/DataTransfer.o
LOAD ./build/./RepRapFirmware/src/Linux/LinuxInterface.o
LOAD ./build/./RepRapFirmware/src/LPC/NoNetwork/Network.o
LOAD ./build/./RepRapFirmware/src/LPC/Movement/StepperDrivers/TMC22xx.o
LOAD ./build/./RepRapFirmware/src/LPC/Movement/StepperDrivers/TMCSoftUART.o
LOAD ./build/./RepRapFirmware/src/Movement/StepperDrivers/DriverMode.o
LOAD ./build/./RepRapFirmware/src/Movement/StepperDrivers/TMC22xx.o
LOAD ./build/./RepRapFirmware/src/Movement/StepperDrivers/TMC2660.o
LOAD ./build/./RepRapFirmware/src/Movement/StepperDrivers/TMC51xx.o
LOAD c:/users/andy/.vscode/extensions/metalcode-eu.windows-arm-none-eabi-0.1.6/bin/../lib/gcc/arm-none-eabi/8.2.1/../../../../arm-none-eabi/lib/thumb/v7-m/nofp\libsupc++.a
LOAD ./build/\libRRFLibraries.a
END GROUP
LOAD c:/users/andy/.vscode/extensions/metalcode-eu.windows-arm-none-eabi-0.1.6/bin/../lib/gcc/arm-none-eabi/8.2.1/../../../../arm-none-eabi/lib/thumb/v7-m/nofp\libm.a
START GROUP
LOAD c:/users/andy/.vscode/extensions/metalcode-eu.windows-arm-none-eabi-0.1.6/bin/../lib/gcc/arm-none-eabi/8.2.1/thumb/v7-m/nofp\libgcc.a
LOAD c:/users/andy/.vscode/extensions/metalcode-eu.windows-arm-none-eabi-0.1.6/bin/../lib/gcc/arm-none-eabi/8.2.1/../../../../arm-none-eabi/lib/thumb/v7-m/nofp\libc.a
END GROUP
START GROUP
LOAD c:/users/andy/.vscode/extensions/metalcode-eu.windows-arm-none-eabi-0.1.6/bin/../lib/gcc/arm-none-eabi/8.2.1/thumb/v7-m/nofp\libgcc.a
LOAD c:/users/andy/.vscode/extensions/metalcode-eu.windows-arm-none-eabi-0.1.6/bin/../lib/gcc/arm-none-eabi/8.2.1/../../../../arm-none-eabi/lib/thumb/v7-m/nofp\libc.a
LOAD c:/users/andy/.vscode/extensions/metalcode-eu.windows-arm-none-eabi-0.1.6/bin/../lib/gcc/arm-none-eabi/8.2.1/../../../../arm-none-eabi/lib/thumb/v7-m/nofp\libnosys.a
END GROUP
LOAD c:/users/andy/.vscode/extensions/metalcode-eu.windows-arm-none-eabi-0.1.6/bin/../lib/gcc/arm-none-eabi/8.2.1/thumb/v7-m/nofp/crtend.o
LOAD c:/users/andy/.vscode/extensions/metalcode-eu.windows-arm-none-eabi-0.1.6/bin/../lib/gcc/arm-none-eabi/8.2.1/thumb/v7-m/nofp/crtn.o
START GROUP
LOAD c:/users/andy/.vscode/extensions/metalcode-eu.windows-arm-none-eabi-0.1.6/bin/../lib/gcc/arm-none-eabi/8.2.1/thumb/v7-m/nofp\libgcc.a
LOAD c:/users/andy/.vscode/extensions/metalcode-eu.windows-arm-none-eabi-0.1.6/bin/../lib/gcc/arm-none-eabi/8.2.1/../../../../arm-none-eabi/lib/thumb/v7-m/nofp\libg.a
LOAD c:/users/andy/.vscode/extensions/metalcode-eu.windows-arm-none-eabi-0.1.6/bin/../lib/gcc/arm-none-eabi/8.2.1/../../../../arm-none-eabi/lib/thumb/v7-m/nofp\libc.a
LOAD c:/users/andy/.vscode/extensions/metalcode-eu.windows-arm-none-eabi-0.1.6/bin/../lib/gcc/arm-none-eabi/8.2.1/../../../../arm-none-eabi/lib/thumb/v7-m/nofp\libm.a
LOAD c:/users/andy/.vscode/extensions/metalcode-eu.windows-arm-none-eabi-0.1.6/bin/../lib/gcc/arm-none-eabi/8.2.1/../../../../arm-none-eabi/lib/thumb/v7-m/nofp\libnosys.a
END GROUP

.AHBSRAM0       0x2007c000     0x1e18
                0x2007c000                Image$$RW_IRAM2$$Base = .
                0x2007c000                PROVIDE (__AHB0_block_start = .)
 *(AHBSRAM0)
 AHBSRAM0       0x2007c000      0x16c ./build/./RepRapFirmware/src/LPC/Movement/StepperDrivers/TMCSoftUART.o
                0x2007c004                SUDmaBits
 AHBSRAM0       0x2007c16c       0x18 ./build/\libLPCCore.a(exti.o)
 AHBSRAM0       0x2007c184       0x58 ./build/\libLPCCore.a(Wire.o)
                0x2007c184                Wire
 *(.bss.*DataTransfer*)
 *(.bss.reprap)
 .bss.reprap    0x2007c1dc      0x384 ./build/./RepRapFirmware/src/RepRapFirmware.o
                0x2007c1dc                reprap
 *(.bss._*heaterTask)
 .bss._ZL10heaterTask
                0x2007c560      0x6a8 ./build/./RepRapFirmware/src/Heating/Heat.o
 *(.bss._*mainTask)
 .bss._ZL8mainTask
                0x2007cc08      0xf80 ./build/./RepRapFirmware/src/Tasks.o
 *(.bss.*IdleTaskStack)
 *(.bss.*TimerTaskStack)
 *(.bss.*tcpPlusTask)
 *(.bss._time_locale)
 *(.bss.*Mutex*)
 .bss._ZL11mallocMutex
                0x2007db88       0x60 ./build/./RepRapFirmware/src/Tasks.o
 .bss._ZL11sysDirMutex
                0x2007dbe8       0x60 ./build/./RepRapFirmware/src/Tasks.o
 .bss._ZL8i2cMutex
                0x2007dc48       0x60 ./build/./RepRapFirmware/src/Tasks.o
 .bss._ZN14LinuxInterface15gcodeReplyMutexE
                0x2007dca8       0x60 ./build/./RepRapFirmware/src/Linux/LinuxInterface.o
                0x2007dca8                LinuxInterface::gcodeReplyMutex
 .bss._ZN5Mutex9mutexListE
                0x2007dd08        0x4 ./build/\libRRFLibraries.a(RTOSIface.o)
                0x2007dd08                Mutex::mutexList
 *(.bss.*Queue*)
 *(.bss.*TCB)
 .bss.pxCurrentTCB
                0x2007dd0c        0x4 ./build/\libLPCCore.a(tasks.o)
                0x2007dd0c                pxCurrentTCB
 *(.bss.xNetworkBuffers)
 *(.bss.*networkTask)
 *(.bss.*descriptors*)
 *(.bss.*HttpResponder*)
 *(.bss.*emacTask)
 *(.bss.*idleTask)
 .bss._ZL8idleTask
                0x2007dd10      0x108 ./build/./RepRapFirmware/src/Tasks.o
 *(.bss.xARPCache)
 *(.bss.xDHCPData)
 *(.bss.*assembleConfigDescriptor*)
 *(.bss.*bufferIn)
 *(.bss.*bufferOut)
 *(.bss.*infoParser)
 *(.bss.*info)
 *(.bss.*files)
                0x2007de18                Image$$RW_IRAM2$$ZI$$Limit = .
                0x2007de18                PROVIDE (__AHB0_dyn_start = .)
                0x20084000                PROVIDE (__AHB0_end = (ORIGIN (AHB_RAM) + LENGTH (AHB_RAM)))

.text           0x00004000    0x58be4
                0x00004000                _sfixed = .
 *(.isr_vector)
 .isr_vector    0x00004000       0xc4 ./build/\libLPCCore.a(startup_LPC17xx.o)
                0x00004000                g_pfnVectors
 *(.text*)
 .text          0x000040c4       0x40 c:/users/andy/.vscode/extensions/metalcode-eu.windows-arm-none-eabi-0.1.6/bin/../lib/gcc/arm-none-eabi/8.2.1/thumb/v7-m/nofp/crtbegin.o
 .text._sbrk    0x00004104       0x1c ./build/./CoreLPC/cores/arduino/syscalls.o
                0x00004104                _sbrk
 .text._exit    0x00004120        0x2 ./build/./CoreLPC/cores/arduino/syscalls.o
                0x00004120                _exit
 .text._kill    0x00004122        0x2 ./build/./CoreLPC/cores/arduino/syscalls.o
                0x00004122                _kill
 .text._getpid  0x00004124        0x6 ./build/./CoreLPC/cores/arduino/syscalls.o
                0x00004124                _getpid
 .text.memcmp   0x0000412a       0x1c ./build/./RepRapFirmware/src/libc/memcmp.o
                0x0000412a                memcmp
 .text.memcpy   0x00004146       0x1c ./build/./RepRapFirmware/src/libc/memcpy.o
                0x00004146                memcpy
 .text.memmove  0x00004162       0x34 ./build/./RepRapFirmware/src/libc/memmove.o
                0x00004162                memmove
 .text.memset   0x00004196       0x10 ./build/./RepRapFirmware/src/libc/memset.o
                0x00004196                memset
 *fill*         0x000041a6        0x2 
 .text.malloc   0x000041a8       0x98 ./build/./RepRapFirmware/src/libc/nano-mallocr.o
                0x000041a8                malloc
 .text.free     0x00004240       0x88 ./build/./RepRapFirmware/src/libc/nano-mallocr.o
                0x00004240                free
 .text.__cxa_allocate_exception
                0x000042c8       0x1e ./build/./RepRapFirmware/src/libcpp/eh_alloc.o
                0x000042c8                __cxa_allocate_exception
 .text.__cxa_free_exception
                0x000042e6        0x6 ./build/./RepRapFirmware/src/libcpp/eh_alloc.o
                0x000042e6                __cxa_free_exception
 .text._Z12SafeStrptimePKcS0_P2tm
                0x000042ec      0x1d8 ./build/./RepRapFirmware/src/libc/strptime.o
                0x000042ec                SafeStrptime(char const*, char const*, tm*)
 .text.Default_Handler
                0x000044c4        0x4 ./build/\libLPCCore.a(startup_LPC17xx.o)
                0x000044c4                CAN_IRQHandler
                0x000044c4                EINT2_IRQHandler
                0x000044c4                ADC_IRQHandler
                0x000044c4                TIMER3_IRQHandler
                0x000044c4                QEI_IRQHandler
                0x000044c4                UART2_IRQHandler
                0x000044c4                BOD_IRQHandler
                0x000044c4                EINT0_IRQHandler
                0x000044c4                RTC_IRQHandler
                0x000044c4                I2C1_IRQHandler
                0x000044c4                I2S_IRQHandler
                0x000044c4                PLL0_IRQHandler
                0x000044c4                PWM1_IRQHandler
                0x000044c4                MCPWM_IRQHandler
                0x000044c4                Default_Handler
                0x000044c4                I2C2_IRQHandler
                0x000044c4                ENET_IRQHandler
                0x000044c4                TIMER1_IRQHandler
                0x000044c4                PLL1_IRQHandler
                0x000044c4                UART1_IRQHandler
                0x000044c4                EINT1_IRQHandler
                0x000044c4                TIMER2_IRQHandler
                0x000044c4                I2C0_IRQHandler
                0x000044c4                SPI_IRQHandler
 .text.Reset_Handler
                0x000044c8       0x68 ./build/\libLPCCore.a(startup_LPC17xx.o)
                0x000044c8                Reset_Handler
 .text.startup.main
                0x00004530       0x6c ./build/\libLPCCore.a(main.o)
                0x00004530                main
 .text._Z4initv
                0x0000459c        0xe ./build/\libLPCCore.a(variant.o)
                0x0000459c                init()
 *fill*         0x000045aa        0x2 
 .text.prvInsertBlockIntoFreeList
                0x000045ac       0x48 ./build/\libLPCCore.a(heap_5.o)
 .text.pvPortMalloc
                0x000045f4       0xd0 ./build/\libLPCCore.a(heap_5.o)
                0x000045f4                pvPortMalloc
 .text.vPortFree
                0x000046c4       0x80 ./build/\libLPCCore.a(heap_5.o)
                0x000046c4                vPortFree
 .text.xPortGetFreeHeapSize
                0x00004744        0xc ./build/\libLPCCore.a(heap_5.o)
                0x00004744                xPortGetFreeHeapSize
 .text.xPortGetMinimumEverFreeHeapSize
                0x00004750        0xc ./build/\libLPCCore.a(heap_5.o)
                0x00004750                xPortGetMinimumEverFreeHeapSize
 .text.vPortDefineHeapRegions
                0x0000475c       0xd8 ./build/\libLPCCore.a(heap_5.o)
                0x0000475c                vPortDefineHeapRegions
 .text.SysTick_Init
                0x00004834       0x1c ./build/\libLPCCore.a(systick.o)
                0x00004834                SysTick_Init
 .text.millis   0x00004850        0xc ./build/\libLPCCore.a(systick.o)
                0x00004850                millis
 .text.millis64
                0x0000485c       0x20 ./build/\libLPCCore.a(systick.o)
                0x0000485c                millis64
 .text.CoreSysTick
                0x0000487c       0x2c ./build/\libLPCCore.a(systick.o)
                0x0000487c                CoreSysTick
 .text.SystemInit
                0x000048a8      0x134 ./build/\libLPCCore.a(system_LPC17xx.o)
                0x000048a8                SystemInit
 .text.Chip_Clock_EnablePLL
                0x000049dc       0x24 ./build/\libLPCCore.a(clock_17xx_40xx.o)
                0x000049dc                Chip_Clock_EnablePLL
 .text.Chip_Clock_DisablePLL
                0x00004a00       0x26 ./build/\libLPCCore.a(clock_17xx_40xx.o)
                0x00004a00                Chip_Clock_DisablePLL
 .text.Chip_Clock_SetupPLL
                0x00004a26       0x30 ./build/\libLPCCore.a(clock_17xx_40xx.o)
                0x00004a26                Chip_Clock_SetupPLL
 *fill*         0x00004a56        0x2 
 .text.Chip_Clock_EnablePeriphClock
                0x00004a58       0x18 ./build/\libLPCCore.a(clock_17xx_40xx.o)
                0x00004a58                Chip_Clock_EnablePeriphClock
 .text.Chip_Clock_DisablePeriphClock
                0x00004a70       0x1c ./build/\libLPCCore.a(clock_17xx_40xx.o)
                0x00004a70                Chip_Clock_DisablePeriphClock
 .text.Chip_Clock_GetCPUClockSource
                0x00004a8c       0x10 ./build/\libLPCCore.a(clock_17xx_40xx.o)
                0x00004a8c                Chip_Clock_GetCPUClockSource
 .text.Chip_Clock_SetCPUClockDiv
                0x00004a9c        0xc ./build/\libLPCCore.a(clock_17xx_40xx.o)
                0x00004a9c                Chip_Clock_SetCPUClockDiv
 .text.Chip_Clock_GetCPUClockDiv
                0x00004aa8       0x10 ./build/\libLPCCore.a(clock_17xx_40xx.o)
                0x00004aa8                Chip_Clock_GetCPUClockDiv
 .text.Chip_Clock_SetPCLKDiv
                0x00004ab8       0x2a ./build/\libLPCCore.a(clock_17xx_40xx.o)
                0x00004ab8                Chip_Clock_SetPCLKDiv
 *fill*         0x00004ae2        0x2 
 .text.Chip_Clock_GetPCLKDiv
                0x00004ae4       0x38 ./build/\libLPCCore.a(clock_17xx_40xx.o)
                0x00004ae4                Chip_Clock_GetPCLKDiv
 .text.Chip_Clock_GetSYSCLKRate
                0x00004b1c       0x38 ./build/\libLPCCore.a(clock_17xx_40xx.o)
                0x00004b1c                Chip_Clock_GetSYSCLKRate
 .text.Chip_Clock_GetMainPLLOutClockRate
                0x00004b54       0x34 ./build/\libLPCCore.a(clock_17xx_40xx.o)
                0x00004b54                Chip_Clock_GetMainPLLOutClockRate
 .text.Chip_Clock_GetMainClockRate
                0x00004b88       0x20 ./build/\libLPCCore.a(clock_17xx_40xx.o)
                0x00004b88                Chip_Clock_GetMainClockRate
 .text.Chip_Clock_GetSystemClockRate
                0x00004ba8       0x12 ./build/\libLPCCore.a(clock_17xx_40xx.o)
                0x00004ba8                Chip_Clock_GetSystemClockRate
 .text.Chip_Clock_GetPeripheralClockRate
                0x00004bba       0x16 ./build/\libLPCCore.a(clock_17xx_40xx.o)
                0x00004bba                Chip_Clock_GetPeripheralClockRate
 .text.iap_entry
                0x00004bd0        0x8 ./build/\libLPCCore.a(iap.o)
 .text.Chip_IAP_PreSectorForReadWrite
                0x00004bd8       0x1e ./build/\libLPCCore.a(iap.o)
                0x00004bd8                Chip_IAP_PreSectorForReadWrite
 *fill*         0x00004bf6        0x2 
 .text.Chip_IAP_CopyRamToFlash
                0x00004bf8       0x34 ./build/\libLPCCore.a(iap.o)
                0x00004bf8                Chip_IAP_CopyRamToFlash
 .text.Chip_IAP_EraseSector
                0x00004c2c       0x30 ./build/\libLPCCore.a(iap.o)
                0x00004c2c                Chip_IAP_EraseSector
 .text.Chip_IAP_ReadPID
                0x00004c5c       0x18 ./build/\libLPCCore.a(iap.o)
                0x00004c5c                Chip_IAP_ReadPID
 .text._Z12AnalogInInitv
                0x00004c74       0x58 ./build/\libLPCCore.a(AnalogIn.o)
                0x00004c74                AnalogInInit()
 .text._Z21ConfigureADCPreFilterb
                0x00004ccc       0x18 ./build/\libLPCCore.a(AnalogIn.o)
                0x00004ccc                ConfigureADCPreFilter(bool)
 .text._Z21AnalogInEnableChannel19AnalogChannelNumberb
                0x00004ce4       0x6c ./build/\libLPCCore.a(AnalogIn.o)
                0x00004ce4                AnalogInEnableChannel(AnalogChannelNumber, bool)
 .text._Z19AnalogInReadChannel19AnalogChannelNumber
                0x00004d50      0x25c ./build/\libLPCCore.a(AnalogIn.o)
                0x00004d50                AnalogInReadChannel(AnalogChannelNumber)
 .text._Z23AnalogInStartConversionm
                0x00004fac        0x2 ./build/\libLPCCore.a(AnalogIn.o)
                0x00004fac                AnalogInStartConversion(unsigned long)
 *fill*         0x00004fae        0x2 
 .text._Z15PinToAdcChannelm
                0x00004fb0       0x10 ./build/\libLPCCore.a(AnalogIn.o)
                0x00004fb0                PinToAdcChannel(unsigned long)
 .text.startup._GLOBAL__sub_I_ADCNotReadyCnt
                0x00004fc0        0xc ./build/\libLPCCore.a(AnalogIn.o)
 .text._Z13AnalogOutInitv
                0x00004fcc        0x2 ./build/\libLPCCore.a(AnalogOut.o)
                0x00004fcc                AnalogOutInit()
 .text._Z9AnalogOut11gpioPins_etft
                0x00004fce       0x6c ./build/\libLPCCore.a(AnalogOut.o)
                0x00004fce                AnalogOut(gpioPins_et, float, unsigned short)
 .text._Z12IsPwmCapable11gpioPins_et
                0x0000503a        0xc ./build/\libLPCCore.a(AnalogOut.o)
                0x0000503a                IsPwmCapable(gpioPins_et)
 .text._Z18ConfigurePinForPWM11gpioPins_etb
                0x00005046        0x4 ./build/\libLPCCore.a(AnalogOut.o)
                0x00005046                ConfigurePinForPWM(gpioPins_et, bool)
 .text._Z13ReleasePWMPin11gpioPins_et
                0x0000504a        0x4 ./build/\libLPCCore.a(AnalogOut.o)
                0x0000504a                ReleasePWMPin(gpioPins_et)
 *fill*         0x0000504e        0x2 
 .text._Z7PWM_Set11gpioPins_etm
                0x00005050       0xb0 ./build/\libLPCCore.a(AnalogOutServo.o)
                0x00005050                PWM_Set(gpioPins_et, unsigned long)
 .text._Z9PWM_Clear11gpioPins_et
                0x00005100       0x64 ./build/\libLPCCore.a(AnalogOutServo.o)
                0x00005100                PWM_Clear(gpioPins_et)
 .text._Z16AnalogWriteHWPWMRK14PinDescriptionft11gpioPins_et
                0x00005164       0x94 ./build/\libLPCCore.a(AnalogOutServo.o)
                0x00005164                AnalogWriteHWPWM(PinDescription const&, float, unsigned short, gpioPins_et)
 .text._Z15ReleaseHWPWMPin11gpioPins_et
                0x000051f8       0x2c ./build/\libLPCCore.a(AnalogOutServo.o)
                0x000051f8                ReleaseHWPWMPin(gpioPins_et)
 .text._Z10CanDoHWPWM11gpioPins_et
                0x00005224       0x30 ./build/\libLPCCore.a(AnalogOutServo.o)
                0x00005224                CanDoHWPWM(gpioPins_et)
 .text._Z20ConfigurePinForHWPWM11gpioPins_etb
                0x00005254       0x3c ./build/\libLPCCore.a(AnalogOutServo.o)
                0x00005254                ConfigurePinForHWPWM(gpioPins_et, bool)
 .text._Z14IsServoCapable11gpioPins_et
                0x00005290       0x22 ./build/\libLPCCore.a(AnalogOutServo.o)
                0x00005290                IsServoCapable(gpioPins_et)
 .text._Z15ReleaseServoPin11gpioPins_et
                0x000052b2       0x16 ./build/\libLPCCore.a(AnalogOutServo.o)
                0x000052b2                ReleaseServoPin(gpioPins_et)
 .text._Z20ConfigurePinForServo11gpioPins_etb
                0x000052c8       0x26 ./build/\libLPCCore.a(AnalogOutServo.o)
                0x000052c8                ConfigurePinForServo(gpioPins_et, bool)
 *fill*         0x000052ee        0x2 
 .text._Z16AnalogWriteServoft11gpioPins_et
                0x000052f0       0x38 ./build/\libLPCCore.a(AnalogOutServo.o)
                0x000052f0                AnalogWriteServo(float, unsigned short, gpioPins_et)
 .text._Z16CanDoSoftwarePWM11gpioPins_et
                0x00005328       0x1c ./build/\libLPCCore.a(AnalogOutSoftwarePWM.o)
                0x00005328                CanDoSoftwarePWM(gpioPins_et)
 .text._Z26ConfigurePinForSoftwarePWM11gpioPins_et
                0x00005344       0x5c ./build/\libLPCCore.a(AnalogOutSoftwarePWM.o)
                0x00005344                ConfigurePinForSoftwarePWM(gpioPins_et)
 .text._Z21ReleaseSoftwarePWMPin11gpioPins_et
                0x000053a0       0x60 ./build/\libLPCCore.a(AnalogOutSoftwarePWM.o)
                0x000053a0                ReleaseSoftwarePWMPin(gpioPins_et)
 .text._Z22AnalogWriteSoftwarePWMft11gpioPins_et
                0x00005400       0x64 ./build/\libLPCCore.a(AnalogOutSoftwarePWM.o)
                0x00005400                AnalogWriteSoftwarePWM(float, unsigned short, gpioPins_et)
 .text._Znwj    0x00005464       0x18 ./build/\libLPCCore.a(new.o)
                0x00005464                operator new(unsigned int)
 .text._Znaj    0x0000547c        0x4 ./build/\libLPCCore.a(new.o)
                0x0000547c                operator new[](unsigned int)
 .text._ZdlPvj  0x00005480        0x4 ./build/\libLPCCore.a(new.o)
                0x00005480                operator delete(void*, unsigned int)
 .text.GPIO_PinInputMode
                0x00005484      0x3c4 ./build/\libLPCCore.a(wiring_digital.o)
                0x00005484                GPIO_PinInputMode
 .text.pinModeDuet
                0x00005848       0xa6 ./build/\libLPCCore.a(wiring_digital.o)
                0x00005848                pinModeDuet
 .text.digitalWrite
                0x000058ee        0xa ./build/\libLPCCore.a(wiring_digital.o)
                0x000058ee                digitalWrite
 .text.digitalRead
                0x000058f8       0x16 ./build/\libLPCCore.a(wiring_digital.o)
                0x000058f8                digitalRead
 .text.setPullup
                0x0000590e        0x8 ./build/\libLPCCore.a(wiring_digital.o)
                0x0000590e                setPullup
 .text._ZN11SoftwarePWMC2E11gpioPins_et
                0x00005916       0x38 ./build/\libLPCCore.a(SoftwarePWM.o)
                0x00005916                SoftwarePWM::SoftwarePWM(gpioPins_et)
                0x00005916                SoftwarePWM::SoftwarePWM(gpioPins_et)
 *fill*         0x0000594e        0x2 
 .text._ZN11SoftwarePWM11AttachTimerEv
                0x00005950       0x24 ./build/\libLPCCore.a(SoftwarePWM.o)
                0x00005950                SoftwarePWM::AttachTimer()
 .text._ZN11SoftwarePWM12ReleaseTimerEv
                0x00005974       0x1c ./build/\libLPCCore.a(SoftwarePWM.o)
                0x00005974                SoftwarePWM::ReleaseTimer()
 .text._ZN11SoftwarePWM6EnableEv
                0x00005990        0x8 ./build/\libLPCCore.a(SoftwarePWM.o)
                0x00005990                SoftwarePWM::Enable()
 .text._ZN11SoftwarePWM7DisableEv
                0x00005998       0x1a ./build/\libLPCCore.a(SoftwarePWM.o)
                0x00005998                SoftwarePWM::Disable()
 *fill*         0x000059b2        0x2 
 .text._ZN11SoftwarePWM11AnalogWriteEft11gpioPins_et
                0x000059b4       0xb0 ./build/\libLPCCore.a(SoftwarePWM.o)
                0x000059b4                SoftwarePWM::AnalogWrite(float, unsigned short, gpioPins_et)
 .text._ZL12updateActivev
                0x00005a64       0x78 ./build/\libLPCCore.a(SoftwarePWMTimer.o)
 .text._ZN16SoftwarePWMTimerC2Ev
                0x00005adc       0x68 ./build/\libLPCCore.a(SoftwarePWMTimer.o)
                0x00005adc                SoftwarePWMTimer::SoftwarePWMTimer()
                0x00005adc                SoftwarePWMTimer::SoftwarePWMTimer()
 .text._Z7syncAllv
                0x00005b44       0x48 ./build/\libLPCCore.a(SoftwarePWMTimer.o)
                0x00005b44                syncAll()
 .text._ZN16SoftwarePWMTimer7disableEi
                0x00005b8c       0x14 ./build/\libLPCCore.a(SoftwarePWMTimer.o)
                0x00005b8c                SoftwarePWMTimer::disable(int)
 .text._ZN16SoftwarePWMTimer6enableEP11SoftwarePWMmm
                0x00005ba0       0x68 ./build/\libLPCCore.a(SoftwarePWMTimer.o)
                0x00005ba0                SoftwarePWMTimer::enable(SoftwarePWM*, unsigned long, unsigned long)
 .text._ZN16SoftwarePWMTimer15adjustOnOffTimeEimm
                0x00005c08       0x38 ./build/\libLPCCore.a(SoftwarePWMTimer.o)
                0x00005c08                SoftwarePWMTimer::adjustOnOffTime(int, unsigned long, unsigned long)
 .text.hot.RIT_IRQHandler
                0x00005c40      0x164 ./build/\libLPCCore.a(SoftwarePWMTimer.o)
                0x00005c40                RIT_IRQHandler
 .text._ZN16SoftwarePWMTimer11DiagnosticsE11MessageType
                0x00005da4      0x14c ./build/\libLPCCore.a(SoftwarePWMTimer.o)
                0x00005da4                SoftwarePWMTimer::Diagnostics(MessageType)
 .text.startup._GLOBAL__sub_I_pwmInts
                0x00005ef0        0xc ./build/\libLPCCore.a(SoftwarePWMTimer.o)
 .text.prvAddNewTaskToReadyList
                0x00005efc      0x124 ./build/\libLPCCore.a(tasks.o)
 .text.prvResetNextTaskUnblockTime
                0x00006020       0x24 ./build/\libLPCCore.a(tasks.o)
 .text.prvInitialiseNewTask.isra.2
                0x00006044       0x92 ./build/\libLPCCore.a(tasks.o)
 *fill*         0x000060d6        0x2 
 .text.prvDeleteTCB
                0x000060d8       0x38 ./build/\libLPCCore.a(tasks.o)
 .text.prvIdleTask
                0x00006110       0x64 ./build/\libLPCCore.a(tasks.o)
 .text.prvAddCurrentTaskToDelayedList
                0x00006174       0x8c ./build/\libLPCCore.a(tasks.o)
 .text.xTaskCreateStatic
                0x00006200       0x7c ./build/\libLPCCore.a(tasks.o)
                0x00006200                xTaskCreateStatic
 .text.vTaskDelete
                0x0000627c       0xd0 ./build/\libLPCCore.a(tasks.o)
                0x0000627c                vTaskDelete
 .text.eTaskGetState
                0x0000634c       0x80 ./build/\libLPCCore.a(tasks.o)
                0x0000634c                eTaskGetState
 .text.vTaskStartScheduler
                0x000063cc       0x6c ./build/\libLPCCore.a(tasks.o)
                0x000063cc                vTaskStartScheduler
 .text.vTaskSuspendAll
                0x00006438       0x10 ./build/\libLPCCore.a(tasks.o)
                0x00006438                vTaskSuspendAll
 .text.xTaskGetTickCount
                0x00006448        0xc ./build/\libLPCCore.a(tasks.o)
                0x00006448                xTaskGetTickCount
 .text.pcTaskGetName
                0x00006454       0x24 ./build/\libLPCCore.a(tasks.o)
                0x00006454                pcTaskGetName
 .text.xTaskIncrementTick
                0x00006478      0x130 ./build/\libLPCCore.a(tasks.o)
                0x00006478                xTaskIncrementTick
 .text.xTaskResumeAll
                0x000065a8       0xe8 ./build/\libLPCCore.a(tasks.o)
                0x000065a8                xTaskResumeAll
 .text.vTaskDelayUntil
                0x00006690       0x80 ./build/\libLPCCore.a(tasks.o)
                0x00006690                vTaskDelayUntil
 .text.vTaskDelay
                0x00006710       0x4c ./build/\libLPCCore.a(tasks.o)
                0x00006710                vTaskDelay
 .text.vTaskSwitchContext
                0x0000675c       0xa4 ./build/\libLPCCore.a(tasks.o)
                0x0000675c                vTaskSwitchContext
 .text.vTaskSuspend
                0x00006800       0xd4 ./build/\libLPCCore.a(tasks.o)
                0x00006800                vTaskSuspend
 .text.vTaskPlaceOnEventList
                0x000068d4       0x34 ./build/\libLPCCore.a(tasks.o)
                0x000068d4                vTaskPlaceOnEventList
 .text.xTaskRemoveFromEventList
                0x00006908       0x80 ./build/\libLPCCore.a(tasks.o)
                0x00006908                xTaskRemoveFromEventList
 .text.vTaskInternalSetTimeOutState
                0x00006988       0x18 ./build/\libLPCCore.a(tasks.o)
                0x00006988                vTaskInternalSetTimeOutState
 .text.xTaskCheckForTimeOut
                0x000069a0       0x6c ./build/\libLPCCore.a(tasks.o)
                0x000069a0                xTaskCheckForTimeOut
 .text.vTaskMissedYield
                0x00006a0c        0xc ./build/\libLPCCore.a(tasks.o)
                0x00006a0c                vTaskMissedYield
 .text.vTaskGetInfo
                0x00006a18       0x7c ./build/\libLPCCore.a(tasks.o)
                0x00006a18                vTaskGetInfo
 .text.xTaskGetCurrentTaskHandle
                0x00006a94        0xc ./build/\libLPCCore.a(tasks.o)
                0x00006a94                xTaskGetCurrentTaskHandle
 .text.xTaskGetSchedulerState
                0x00006aa0       0x20 ./build/\libLPCCore.a(tasks.o)
                0x00006aa0                xTaskGetSchedulerState
 .text.xTaskPriorityInherit
                0x00006ac0       0x98 ./build/\libLPCCore.a(tasks.o)
                0x00006ac0                xTaskPriorityInherit
 .text.xTaskPriorityDisinherit
                0x00006b58       0x98 ./build/\libLPCCore.a(tasks.o)
                0x00006b58                xTaskPriorityDisinherit
 .text.vTaskPriorityDisinheritAfterTimeout
                0x00006bf0       0xa4 ./build/\libLPCCore.a(tasks.o)
                0x00006bf0                vTaskPriorityDisinheritAfterTimeout
 .text.pvTaskIncrementMutexHeldCount
                0x00006c94       0x18 ./build/\libLPCCore.a(tasks.o)
                0x00006c94                pvTaskIncrementMutexHeldCount
 .text.ulTaskNotifyTake
                0x00006cac       0x64 ./build/\libLPCCore.a(tasks.o)
                0x00006cac                ulTaskNotifyTake
 .text.xTaskGenericNotify
                0x00006d10       0xd4 ./build/\libLPCCore.a(tasks.o)
                0x00006d10                xTaskGenericNotify
 .text.vTaskNotifyGiveFromISR
                0x00006de4       0xb8 ./build/\libLPCCore.a(tasks.o)
                0x00006de4                vTaskNotifyGiveFromISR
 .text.CheckSPCurrentTaskStack
                0x00006e9c       0x28 ./build/\libLPCCore.a(tasks.o)
                0x00006e9c                CheckSPCurrentTaskStack
 .text.prvPortStartFirstTask
                0x00006ec4       0x20 ./build/\libLPCCore.a(port.o)
 .text.prvTaskExitError
                0x00006ee4       0x3c ./build/\libLPCCore.a(port.o)
 .text.pxPortInitialiseStack
                0x00006f20       0x24 ./build/\libLPCCore.a(port.o)
                0x00006f20                pxPortInitialiseStack
 *fill*         0x00006f44        0xc 
 .text.SVC_Handler
                0x00006f50       0x24 ./build/\libLPCCore.a(port.o)
                0x00006f50                SVC_Handler
 .text.vPortEnterCritical
                0x00006f74       0x40 ./build/\libLPCCore.a(port.o)
                0x00006f74                vPortEnterCritical
 .text.vPortExitCritical
                0x00006fb4       0x28 ./build/\libLPCCore.a(port.o)
                0x00006fb4                vPortExitCritical
 *fill*         0x00006fdc        0x4 
 .text.PendSV_Handler
                0x00006fe0       0x44 ./build/\libLPCCore.a(port.o)
                0x00006fe0                PendSV_Handler
 .text.SysTick_Handler
                0x00007024       0x2c ./build/\libLPCCore.a(port.o)
                0x00007024                SysTick_Handler
 .text.vPortSetupTimerInterrupt
                0x00007050       0x34 ./build/\libLPCCore.a(port.o)
                0x00007050                vPortSetupTimerInterrupt
 .text.xPortStartScheduler
                0x00007084       0xb0 ./build/\libLPCCore.a(port.o)
                0x00007084                xPortStartScheduler
 .text.vPortValidateInterruptPriority
                0x00007134       0x54 ./build/\libLPCCore.a(port.o)
                0x00007134                vPortValidateInterruptPriority
 .text.bb_alias_sram_dword
                0x00007188       0x1c ./build/\libLPCCore.a(gpio.o)
                0x00007188                bb_alias_sram_dword
 .text.bb_alias_periph_dword
                0x000071a4       0x1c ./build/\libLPCCore.a(gpio.o)
                0x000071a4                bb_alias_periph_dword
 .text.GPIO_PinFunction
                0x000071c0       0x48 ./build/\libLPCCore.a(gpio.o)
                0x000071c0                GPIO_PinFunction
 .text.GPIO_PinDirection
                0x00007208       0x20 ./build/\libLPCCore.a(gpio.o)
                0x00007208                GPIO_PinDirection
 .text.GPIO_PinWrite
                0x00007228       0x1e ./build/\libLPCCore.a(gpio.o)
                0x00007228                GPIO_PinWrite
 .text.GPIO_PinRead
                0x00007246       0x1c ./build/\libLPCCore.a(gpio.o)
                0x00007246                GPIO_PinRead
 *fill*         0x00007262        0x2 
 .text.Chip_ADC_Init
                0x00007264       0x48 ./build/\libLPCCore.a(adc_17xx_40xx.o)
                0x00007264                Chip_ADC_Init
 .text.Chip_ADC_DeInit
                0x000072ac       0x10 ./build/\libLPCCore.a(adc_17xx_40xx.o)
                0x000072ac                Chip_ADC_DeInit
 .text.Chip_ADC_ReadValue
                0x000072bc       0x16 ./build/\libLPCCore.a(adc_17xx_40xx.o)
                0x000072bc                Chip_ADC_ReadValue
 .text.Chip_ADC_SetSampleRate
                0x000072d2       0x30 ./build/\libLPCCore.a(adc_17xx_40xx.o)
                0x000072d2                Chip_ADC_SetSampleRate
 .text.Chip_ADC_SetBurstCmd
                0x00007302       0x1a ./build/\libLPCCore.a(adc_17xx_40xx.o)
                0x00007302                Chip_ADC_SetBurstCmd
 .text._ZN12ADCPreFilter14UpdateChannelsEh
                0x0000731c       0x1c ./build/\libLPCCore.a(ADCPreFilter.o)
                0x0000731c                ADCPreFilter::UpdateChannels(unsigned char)
 .text._ZN12ADCPreFilter13PrepareAdcDmaEv
                0x00007338       0x5c ./build/\libLPCCore.a(ADCPreFilter.o)
                0x00007338                ADCPreFilter::PrepareAdcDma()
 .text._ZN12ADCPreFilter4InitEv
                0x00007394       0x2c ./build/\libLPCCore.a(ADCPreFilter.o)
                0x00007394                ADCPreFilter::Init()
 .text._ZL19checkAndCallHandlerm20LPC175X_6X_IRQn_Type
                0x000073c0       0x44 ./build/\libLPCCore.a(DMA.o)
 .text._Z13InitialiseDMAv
                0x00007404       0x6c ./build/\libLPCCore.a(DMA.o)
                0x00007404                InitialiseDMA()
 .text._Z19DMAGetChannelNumber13DMA_Channel_t
                0x00007470        0xc ./build/\libLPCCore.a(DMA.o)
                0x00007470                DMAGetChannelNumber(DMA_Channel_t)
 .text._Z32AttachDMAChannelInterruptHandlerPFvvE13DMA_Channel_t
                0x0000747c        0xc ./build/\libLPCCore.a(DMA.o)
                0x0000747c                AttachDMAChannelInterruptHandler(void (*)(), DMA_Channel_t)
 .text.DMA_IRQHandler
                0x00007488       0x36 ./build/\libLPCCore.a(DMA.o)
                0x00007488                DMA_IRQHandler
 *fill*         0x000074be        0x2 
 .text._Z16SspDmaRxTransfer13DMA_Channel_tPKvm19DMA_TransferWidth_t
                0x000074c0       0x80 ./build/\libLPCCore.a(DMA.o)
                0x000074c0                SspDmaRxTransfer(DMA_Channel_t, void const*, unsigned long, DMA_TransferWidth_t)
 .text._Z16SspDmaTxTransfer13DMA_Channel_tPKvm19DMA_TransferWidth_t
                0x00007540       0x80 ./build/\libLPCCore.a(DMA.o)
                0x00007540                SspDmaTxTransfer(DMA_Channel_t, void const*, unsigned long, DMA_TransferWidth_t)
 .text._Z18SspDmaRxTransferNI13DMA_Channel_tPKvm19DMA_TransferWidth_t
                0x000075c0       0x80 ./build/\libLPCCore.a(DMA.o)
                0x000075c0                SspDmaRxTransferNI(DMA_Channel_t, void const*, unsigned long, DMA_TransferWidth_t)
 .text._Z18SspDmaTxTransferNI13DMA_Channel_tPKvm19DMA_TransferWidth_t
                0x00007640       0x80 ./build/\libLPCCore.a(DMA.o)
                0x00007640                SspDmaTxTransferNI(DMA_Channel_t, void const*, unsigned long, DMA_TransferWidth_t)
 .text.vListInitialise
                0x000076c0       0x16 ./build/\libLPCCore.a(list.o)
                0x000076c0                vListInitialise
 .text.vListInitialiseItem
                0x000076d6        0x6 ./build/\libLPCCore.a(list.o)
                0x000076d6                vListInitialiseItem
 .text.vListInsertEnd
                0x000076dc       0x18 ./build/\libLPCCore.a(list.o)
                0x000076dc                vListInsertEnd
 .text.vListInsert
                0x000076f4       0x2e ./build/\libLPCCore.a(list.o)
                0x000076f4                vListInsert
 .text.uxListRemove
                0x00007722       0x20 ./build/\libLPCCore.a(list.o)
                0x00007722                uxListRemove
 *fill*         0x00007742        0x2 
 .text.Chip_GPDMA_Init
                0x00007744       0x4c ./build/\libLPCCore.a(gpdma_17xx_40xx.o)
                0x00007744                Chip_GPDMA_Init
 .text.Chip_GPDMA_Interrupt
                0x00007790       0x2c ./build/\libLPCCore.a(gpdma_17xx_40xx.o)
                0x00007790                Chip_GPDMA_Interrupt
 .text.Chip_GPDMA_ChannelCmd
                0x000077bc       0x1a ./build/\libLPCCore.a(gpdma_17xx_40xx.o)
                0x000077bc                Chip_GPDMA_ChannelCmd
 *fill*         0x000077d6        0x2 
 .text.Chip_GPDMA_GetFreeChannel
                0x000077d8       0x30 ./build/\libLPCCore.a(gpdma_17xx_40xx.o)
                0x000077d8                Chip_GPDMA_GetFreeChannel
 .text.ld_dword
                0x00007808       0x10 ./build/./RepRapFirmware/src/LPC/FatFS/ff.o
 .text.st_dword
                0x00007818       0x10 ./build/./RepRapFirmware/src/LPC/FatFS/ff.o
 .text.clst2sect
                0x00007828       0x16 ./build/./RepRapFirmware/src/LPC/FatFS/ff.o
 .text.sum_sfn  0x0000783e       0x1e ./build/./RepRapFirmware/src/LPC/FatFS/ff.o
 .text.get_ldnumber
                0x0000785c       0x3a ./build/./RepRapFirmware/src/LPC/FatFS/ff.o
 .text.ld_clust.isra.3
                0x00007896       0x1c ./build/./RepRapFirmware/src/LPC/FatFS/ff.o
 .text.st_clust.isra.4
                0x000078b2       0x18 ./build/./RepRapFirmware/src/LPC/FatFS/ff.o
 .text.sync_window
                0x000078ca       0x44 ./build/./RepRapFirmware/src/LPC/FatFS/ff.o
 .text.move_window
                0x0000790e       0x36 ./build/./RepRapFirmware/src/LPC/FatFS/ff.o
 .text.check_fs
                0x00007944       0x70 ./build/./RepRapFirmware/src/LPC/FatFS/ff.o
 .text.find_volume
                0x000079b4      0x2c0 ./build/./RepRapFirmware/src/LPC/FatFS/ff.o
 .text.put_fat  0x00007c74       0xf8 ./build/./RepRapFirmware/src/LPC/FatFS/ff.o
 .text.get_fat.isra.10
                0x00007d6c       0xb4 ./build/./RepRapFirmware/src/LPC/FatFS/ff.o
 .text.dir_sdi  0x00007e20       0x82 ./build/./RepRapFirmware/src/LPC/FatFS/ff.o
 .text.create_chain
                0x00007ea2       0xe8 ./build/./RepRapFirmware/src/LPC/FatFS/ff.o
 .text.remove_chain
                0x00007f8a       0x6e ./build/./RepRapFirmware/src/LPC/FatFS/ff.o
 .text.unlock_fs
                0x00007ff8       0x16 ./build/./RepRapFirmware/src/LPC/FatFS/ff.o
 .text.validate
                0x0000800e       0x4c ./build/./RepRapFirmware/src/LPC/FatFS/ff.o
 .text.dir_clear
                0x0000805a       0x52 ./build/./RepRapFirmware/src/LPC/FatFS/ff.o
 .text.dir_next
                0x000080ac       0xaa ./build/./RepRapFirmware/src/LPC/FatFS/ff.o
 *fill*         0x00008156        0x2 
 .text.dir_find
                0x00008158      0x148 ./build/./RepRapFirmware/src/LPC/FatFS/ff.o
 .text.dir_register
                0x000082a0      0x28c ./build/./RepRapFirmware/src/LPC/FatFS/ff.o
 .text.sync_fs  0x0000852c       0x96 ./build/./RepRapFirmware/src/LPC/FatFS/ff.o
 *fill*         0x000085c2        0x2 
 .text.follow_path
                0x000085c4      0x31c ./build/./RepRapFirmware/src/LPC/FatFS/ff.o
 .text.f_mount  0x000088e0       0x70 ./build/./RepRapFirmware/src/LPC/FatFS/ff.o
                0x000088e0                f_mount
 .text.f_open   0x00008950      0x1a2 ./build/./RepRapFirmware/src/LPC/FatFS/ff.o
                0x00008950                f_open
 .text.f_read   0x00008af2      0x148 ./build/./RepRapFirmware/src/LPC/FatFS/ff.o
                0x00008af2                f_read
 .text.f_write  0x00008c3a      0x1a4 ./build/./RepRapFirmware/src/LPC/FatFS/ff.o
                0x00008c3a                f_write
 .text.f_sync   0x00008dde       0x74 ./build/./RepRapFirmware/src/LPC/FatFS/ff.o
                0x00008dde                f_sync
 .text.f_close  0x00008e52       0x28 ./build/./RepRapFirmware/src/LPC/FatFS/ff.o
                0x00008e52                f_close
 .text.f_lseek  0x00008e7a      0x11e ./build/./RepRapFirmware/src/LPC/FatFS/ff.o
                0x00008e7a                f_lseek
 .text.ff_uni2oem
                0x00008f98       0x40 ./build/./RepRapFirmware/src/LPC/FatFS/ffunicode.o
                0x00008f98                ff_uni2oem
 .text.ff_wtoupper
                0x00008fd8       0x8c ./build/./RepRapFirmware/src/LPC/FatFS/ffunicode.o
                0x00008fd8                ff_wtoupper
 .text._ZN9RTOSIface24LeaveTaskCriticalSectionEv
                0x00009064        0xe ./build/./RepRapFirmware/src/OutputMemory.o
                0x00009064                RTOSIface::LeaveTaskCriticalSection()
 .text._ZN12OutputBuffer18IncreaseReferencesEj
                0x00009072       0x28 ./build/./RepRapFirmware/src/OutputMemory.o
                0x00009072                OutputBuffer::IncreaseReferences(unsigned int)
 .text._ZNK12OutputBuffer6LengthEv
                0x0000909a       0x12 ./build/./RepRapFirmware/src/OutputMemory.o
                0x0000909a                OutputBuffer::Length() const
 .text._ZN12OutputBufferixEj
                0x000090ac       0x14 ./build/./RepRapFirmware/src/OutputMemory.o
                0x000090ac                OutputBuffer::operator[](unsigned int)
 .text._ZN12OutputBuffer4ReadEj
                0x000090c0       0x10 ./build/./RepRapFirmware/src/OutputMemory.o
                0x000090c0                OutputBuffer::Read(unsigned int)
 .text._ZN12OutputBuffer4InitEv
                0x000090d0       0x24 ./build/./RepRapFirmware/src/OutputMemory.o
                0x000090d0                OutputBuffer::Init()
 .text._ZN12OutputBuffer8AllocateERPS_
                0x000090f4       0x84 ./build/./RepRapFirmware/src/OutputMemory.o
                0x000090f4                OutputBuffer::Allocate(OutputBuffer*&)
 .text._ZN12OutputBuffer3catEPKcj
                0x00009178       0x84 ./build/./RepRapFirmware/src/OutputMemory.o
                0x00009178                OutputBuffer::cat(char const*, unsigned int)
 .text._ZN12OutputBuffer3catEPKc
                0x000091fc       0x1a ./build/./RepRapFirmware/src/OutputMemory.o
                0x000091fc                OutputBuffer::cat(char const*)
 .text._ZN12OutputBuffer4catfEPKcz
                0x00009216       0x32 ./build/./RepRapFirmware/src/OutputMemory.o
                0x00009216                OutputBuffer::catf(char const*, ...)
 .text._ZN12OutputBuffer7ReleaseEPS_
                0x00009248       0x44 ./build/./RepRapFirmware/src/OutputMemory.o
                0x00009248                OutputBuffer::Release(OutputBuffer*)
 .text._ZN12OutputBuffer10ReleaseAllERVPS_
                0x0000928c       0x14 ./build/./RepRapFirmware/src/OutputMemory.o
                0x0000928c                OutputBuffer::ReleaseAll(OutputBuffer* volatile&)
 .text._ZN12OutputBuffer4copyEc
                0x000092a0       0x1a ./build/./RepRapFirmware/src/OutputMemory.o
                0x000092a0                OutputBuffer::copy(char)
 .text._ZN12OutputBuffer3catEc
                0x000092ba       0x52 ./build/./RepRapFirmware/src/OutputMemory.o
                0x000092ba                OutputBuffer::cat(char)
 .text._ZN12OutputBuffer10EncodeCharEc
                0x0000930c       0x48 ./build/./RepRapFirmware/src/OutputMemory.o
                0x0000930c                OutputBuffer::EncodeChar(char)
 .text._ZN12OutputBuffer12EncodeStringEPKcbb
                0x00009354       0x4a ./build/./RepRapFirmware/src/OutputMemory.o
                0x00009354                OutputBuffer::EncodeString(char const*, bool, bool)
 .text._ZN12OutputBuffer11EncodeReplyEPS_
                0x0000939e       0x50 ./build/./RepRapFirmware/src/OutputMemory.o
                0x0000939e                OutputBuffer::EncodeReply(OutputBuffer*)
 .text._ZN12OutputBuffer4lcatEPKcj
                0x000093ee       0x24 ./build/./RepRapFirmware/src/OutputMemory.o
                0x000093ee                OutputBuffer::lcat(char const*, unsigned int)
 .text._ZN12OutputBuffer4lcatEPKc
                0x00009412       0x1a ./build/./RepRapFirmware/src/OutputMemory.o
                0x00009412                OutputBuffer::lcat(char const*)
 .text._ZN12OutputBuffer5lcatfEPKcz
                0x0000942c       0x32 ./build/./RepRapFirmware/src/OutputMemory.o
                0x0000942c                OutputBuffer::lcatf(char const*, ...)
 .text._ZN12OutputBuffer4copyEPKcj
                0x0000945e       0x26 ./build/./RepRapFirmware/src/OutputMemory.o
                0x0000945e                OutputBuffer::copy(char const*, unsigned int)
 .text._ZN12OutputBuffer4copyEPKc
                0x00009484       0x1a ./build/./RepRapFirmware/src/OutputMemory.o
                0x00009484                OutputBuffer::copy(char const*)
 .text._ZN12OutputBuffer6printfEPKcz
                0x0000949e       0x2c ./build/./RepRapFirmware/src/OutputMemory.o
                0x0000949e                OutputBuffer::printf(char const*, ...)
 *fill*         0x000094ca        0x2 
 .text._ZN12OutputBuffer11DiagnosticsE11MessageType
                0x000094cc       0x34 ./build/./RepRapFirmware/src/OutputMemory.o
                0x000094cc                OutputBuffer::Diagnostics(MessageType)
 .text._ZNV11OutputStack4PushEP12OutputBuffer11MessageType
                0x00009500       0x60 ./build/./RepRapFirmware/src/OutputMemory.o
                0x00009500                OutputStack::Push(OutputBuffer*, MessageType) volatile
 .text._ZNV11OutputStack3PopEv
                0x00009560       0x3a ./build/./RepRapFirmware/src/OutputMemory.o
                0x00009560                OutputStack::Pop() volatile
 .text._ZNVK11OutputStack12GetFirstItemEv
                0x0000959a        0xc ./build/./RepRapFirmware/src/OutputMemory.o
                0x0000959a                OutputStack::GetFirstItem() const volatile
 .text._ZNVK11OutputStack16GetFirstItemTypeEv
                0x000095a6        0xe ./build/./RepRapFirmware/src/OutputMemory.o
                0x000095a6                OutputStack::GetFirstItemType() const volatile
 .text._ZNV11OutputStack12SetFirstItemEP12OutputBuffer
                0x000095b4       0x1e ./build/./RepRapFirmware/src/OutputMemory.o
                0x000095b4                OutputStack::SetFirstItem(OutputBuffer*) volatile
 .text._ZNV11OutputStack16ReleaseFirstItemEv
                0x000095d2       0x22 ./build/./RepRapFirmware/src/OutputMemory.o
                0x000095d2                OutputStack::ReleaseFirstItem() volatile
 .text._ZNV11OutputStack12ApplyTimeoutEm
                0x000095f4       0x3a ./build/./RepRapFirmware/src/OutputMemory.o
                0x000095f4                OutputStack::ApplyTimeout(unsigned long) volatile
 .text._ZNVK11OutputStack11GetLastItemEv
                0x0000962e       0x14 ./build/./RepRapFirmware/src/OutputMemory.o
                0x0000962e                OutputStack::GetLastItem() const volatile
 .text._ZNVK11OutputStack15GetLastItemTypeEv
                0x00009642       0x14 ./build/./RepRapFirmware/src/OutputMemory.o
                0x00009642                OutputStack::GetLastItemType() const volatile
 .text._ZNV11OutputStack10ReleaseAllEv
                0x00009656       0x1e ./build/./RepRapFirmware/src/OutputMemory.o
                0x00009656                OutputStack::ReleaseAll() volatile
 .text._ZN8PlatformUlPK11ObjectModelRK24ObjectExplorationContextE1_4_FUNES2_S5_
                0x00009674        0x4 ./build/./RepRapFirmware/src/Platform.o
 .text._ZN8PlatformUlPK11ObjectModelR24ObjectExplorationContextE3_4_FUNES2_S4_
                0x00009678       0x10 ./build/./RepRapFirmware/src/Platform.o
 .text._ZN8PlatformUlPK11ObjectModelR24ObjectExplorationContextE4_4_FUNES2_S4_
                0x00009688       0x10 ./build/./RepRapFirmware/src/Platform.o
 .text._ZN8PlatformUlPK11ObjectModelR24ObjectExplorationContextE5_4_FUNES2_S4_
                0x00009698       0x10 ./build/./RepRapFirmware/src/Platform.o
 .text._ZN8PlatformUlPK11ObjectModelR24ObjectExplorationContextE6_4_FUNES2_S4_
                0x000096a8       0x10 ./build/./RepRapFirmware/src/Platform.o
 .text._ZN8PlatformUlPK11ObjectModelR24ObjectExplorationContextE8_4_FUNES2_S4_
                0x000096b8       0x10 ./build/./RepRapFirmware/src/Platform.o
 .text._ZN8PlatformUlPK11ObjectModelR24ObjectExplorationContextE9_4_FUNES2_S4_
                0x000096c8        0xa ./build/./RepRapFirmware/src/Platform.o
 .text._ZN8PlatformUlPK11ObjectModelR24ObjectExplorationContextE10_4_FUNES2_S4_
                0x000096d2        0xa ./build/./RepRapFirmware/src/Platform.o
 .text._ZN8PlatformUlPK11ObjectModelR24ObjectExplorationContextE11_4_FUNES2_S4_
                0x000096dc       0x1a ./build/./RepRapFirmware/src/Platform.o
 *fill*         0x000096f6        0x2 
 .text._ZN8PlatformUlPK11ObjectModelR24ObjectExplorationContextE12_4_FUNES2_S4_
                0x000096f8       0x10 ./build/./RepRapFirmware/src/Platform.o
 .text._ZN8PlatformUlPK11ObjectModelR24ObjectExplorationContextE13_4_FUNES2_S4_
                0x00009708       0x10 ./build/./RepRapFirmware/src/Platform.o
 .text._ZN8PlatformUlPK11ObjectModelR24ObjectExplorationContextE14_4_FUNES2_S4_
                0x00009718        0xa ./build/./RepRapFirmware/src/Platform.o
 .text._ZN8PlatformUlPK11ObjectModelR24ObjectExplorationContextE15_4_FUNES2_S4_
                0x00009722       0x1a ./build/./RepRapFirmware/src/Platform.o
 .text._ZN8PlatformUlPK11ObjectModelR24ObjectExplorationContextE19_4_FUNES2_S4_
                0x0000973c       0x10 ./build/./RepRapFirmware/src/Platform.o
 .text._ZN8PlatformUlPK11ObjectModelR24ObjectExplorationContextE26_4_FUNES2_S4_
                0x0000974c       0x1a ./build/./RepRapFirmware/src/Platform.o
 *fill*         0x00009766        0x2 
 .text._ZN8PlatformUlPK11ObjectModelR24ObjectExplorationContextE33_4_FUNES2_S4_
                0x00009768       0x10 ./build/./RepRapFirmware/src/Platform.o
 .text._ZN8PlatformUlPK11ObjectModelR24ObjectExplorationContextE40_4_FUNES2_S4_
                0x00009778       0x1a ./build/./RepRapFirmware/src/Platform.o
 .text._ZN8PlatformUlPK11ObjectModelR24ObjectExplorationContextE41_4_FUNES2_S4_
                0x00009792       0x1a ./build/./RepRapFirmware/src/Platform.o
 .text._ZNK8Platform29GetObjectModelClassDescriptorEv
                0x000097ac        0x8 ./build/./RepRapFirmware/src/Platform.o
                0x000097ac                Platform::GetObjectModelClassDescriptor() const
 .text._ZNSt14_Function_base13_Base_managerIZN8Platform13ReportDriversE11MessageTypeR6BitmapImEPKcRbEUljjE_E10_M_managerERSt9_Any_dataRKSB_St18_Manager_operation
                0x000097b4       0x16 ./build/./RepRapFirmware/src/Platform.o
 .text._ZNSt14_Function_base13_Base_managerIZN8Platform22DriverCoolingFansOnOffE6BitmapItEbEUljjE_E10_M_managerERSt9_Any_dataRKS6_St18_Manager_operation
                0x000097ca       0x1a ./build/./RepRapFirmware/src/Platform.o
 .text._ZNSt14_Function_base13_Base_managerIZN8Platform12SetDirectionEjbEUlhE_E10_M_managerERSt9_Any_dataRKS4_St18_Manager_operation
                0x000097e4       0x1a ./build/./RepRapFirmware/src/Platform.o
 .text._ZNSt14_Function_base13_Base_managerIZN8Platform18EnableLocalDriversEjEUlhE_E10_M_managerERSt9_Any_dataRKS4_St18_Manager_operation
                0x000097fe       0x1a ./build/./RepRapFirmware/src/Platform.o
 .text._ZNSt14_Function_base13_Base_managerIZN8Platform14DisableDriversEjEUlhE_E10_M_managerERSt9_Any_dataRKS4_St18_Manager_operation
                0x00009818       0x16 ./build/./RepRapFirmware/src/Platform.o
 .text._ZNSt14_Function_base13_Base_managerIZN8Platform14SetDriversIdleEvEUlhE_E10_M_managerERSt9_Any_dataRKS4_St18_Manager_operation
                0x0000982e       0x1a ./build/./RepRapFirmware/src/Platform.o
 .text._ZNSt14_Function_base13_Base_managerIZN8Platform20SetIdleCurrentFactorEfEUlhE_E10_M_managerERSt9_Any_dataRKS4_St18_Manager_operation
                0x00009848       0x1a ./build/./RepRapFirmware/src/Platform.o
 .text._ZNSt17_Function_handlerIFvjEZN8Platform18SetPressureAdvanceEfR11GCodeBufferRK9StringRefEUljE_E9_M_invokeERKSt9_Any_dataOj
                0x00009862        0xe ./build/./RepRapFirmware/src/Platform.o
 .text._ZNSt14_Function_base13_Base_managerIZN8Platform18SetPressureAdvanceEfR11GCodeBufferRK9StringRefEUljE_E10_M_managerERSt9_Any_dataRKS9_St18_Manager_operation
                0x00009870       0x1a ./build/./RepRapFirmware/src/Platform.o
 .text._ZNSt17_Function_handlerIFvhEZN8Platform23ConfigureStallDetectionER11GCodeBufferRK9StringRefRP12OutputBufferEUlhE_E9_M_invokeERKSt9_Any_dataOh
                0x0000988a       0x12 ./build/./RepRapFirmware/src/Platform.o
 .text._ZNSt14_Function_base13_Base_managerIZN8Platform23ConfigureStallDetectionER11GCodeBufferRK9StringRefRP12OutputBufferEUlhE_E10_M_managerERSt9_Any_dataRKSC_St18_Manager_operation
                0x0000989c       0x16 ./build/./RepRapFirmware/src/Platform.o
 .text._ZNSt14_Function_base13_Base_managerIZN8Platform23ConfigureStallDetectionER11GCodeBufferRK9StringRefRP12OutputBufferEUljjE0_E10_M_managerERSt9_Any_dataRKSC_St18_Manager_operation
                0x000098b2       0x16 ./build/./RepRapFirmware/src/Platform.o
 .text._ZNSt14_Function_base13_Base_managerIZN8Platform23ConfigureStallDetectionER11GCodeBufferRK9StringRefRP12OutputBufferEUljjE1_E10_M_managerERSt9_Any_dataRKSC_St18_Manager_operation
                0x000098c8       0x16 ./build/./RepRapFirmware/src/Platform.o
 .text._ZNSt14_Function_base13_Base_managerIZN8Platform23ConfigureStallDetectionER11GCodeBufferRK9StringRefRP12OutputBufferEUljjE2_E10_M_managerERSt9_Any_dataRKSC_St18_Manager_operation
                0x000098de       0x16 ./build/./RepRapFirmware/src/Platform.o
 .text._ZNSt14_Function_base13_Base_managerIZN8Platform23ConfigureStallDetectionER11GCodeBufferRK9StringRefRP12OutputBufferEUljjE3_E10_M_managerERSt9_Any_dataRKSC_St18_Manager_operation
                0x000098f4       0x16 ./build/./RepRapFirmware/src/Platform.o
 *fill*         0x0000990a        0x2 
 .text._ZN8PlatformD2Ev
                0x0000990c       0x58 ./build/./RepRapFirmware/src/Platform.o
                0x0000990c                Platform::~Platform()
                0x0000990c                Platform::~Platform()
 .text._ZN8PlatformUlPK11ObjectModelRK24ObjectExplorationContextE_4_FUNES2_S5_
                0x00009964       0x16 ./build/./RepRapFirmware/src/Platform.o
 .text._ZN8PlatformUlPK11ObjectModelR24ObjectExplorationContextE49_4_FUNES2_S4_
                0x0000997a       0x1e ./build/./RepRapFirmware/src/Platform.o
 .text._ZN8PlatformUlPK11ObjectModelR24ObjectExplorationContextE48_4_FUNES2_S4_
                0x00009998       0x1e ./build/./RepRapFirmware/src/Platform.o
 .text._ZN8PlatformUlPK11ObjectModelR24ObjectExplorationContextE47_4_FUNES2_S4_
                0x000099b6       0x1e ./build/./RepRapFirmware/src/Platform.o
 .text._ZN8PlatformUlPK11ObjectModelR24ObjectExplorationContextE30_4_FUNES2_S4_
                0x000099d4       0x1e ./build/./RepRapFirmware/src/Platform.o
 .text._ZN8PlatformUlPK11ObjectModelR24ObjectExplorationContextE16_4_FUNES2_S4_
                0x000099f2       0x20 ./build/./RepRapFirmware/src/Platform.o
 .text._ZN8PlatformUlPK11ObjectModelR24ObjectExplorationContextE24_4_FUNES2_S4_
                0x00009a12       0x20 ./build/./RepRapFirmware/src/Platform.o
 .text._ZN8PlatformUlPK11ObjectModelR24ObjectExplorationContextE27_4_FUNES2_S4_
                0x00009a32       0x1e ./build/./RepRapFirmware/src/Platform.o
 .text._ZN8PlatformD0Ev
                0x00009a50       0x16 ./build/./RepRapFirmware/src/Platform.o
                0x00009a50                Platform::~Platform()
 .text.pinMode  0x00009a66        0x6 ./build/./RepRapFirmware/src/Platform.o
 .text._ZNSt17_Function_handlerIFvjjEZN8Platform23ConfigureStallDetectionER11GCodeBufferRK9StringRefRP12OutputBufferEUljjE0_E9_M_invokeERKSt9_Any_dataOjSF_
                0x00009a6c        0xa ./build/./RepRapFirmware/src/Platform.o
 .text._ZNSt17_Function_handlerIFvjjEZN8Platform23ConfigureStallDetectionER11GCodeBufferRK9StringRefRP12OutputBufferEUljjE1_E9_M_invokeERKSt9_Any_dataOjSF_
                0x00009a76        0xa ./build/./RepRapFirmware/src/Platform.o
 .text._ZNSt17_Function_handlerIFvjjEZN8Platform23ConfigureStallDetectionER11GCodeBufferRK9StringRefRP12OutputBufferEUljjE2_E9_M_invokeERKSt9_Any_dataOjSF_
                0x00009a80        0xa ./build/./RepRapFirmware/src/Platform.o
 *fill*         0x00009a8a        0x2 
 .text._ZN8StepPinsL16CalcDriverBitmapEj
                0x00009a8c       0x2c ./build/./RepRapFirmware/src/Platform.o
 .text._ZNSt17_Function_handlerIFvjjEZN8Platform23ConfigureStallDetectionER11GCodeBufferRK9StringRefRP12OutputBufferEUljjE3_E9_M_invokeERKSt9_Any_dataOjSF_
                0x00009ab8        0xc ./build/./RepRapFirmware/src/Platform.o
 .text._ZNSt14_Function_base13_Base_managerIZN8Platform15SetMotorCurrentEjfiRK9StringRefEUlhE_E10_M_managerERSt9_Any_dataRKS7_St18_Manager_operation
                0x00009ac4       0x36 ./build/./RepRapFirmware/src/Platform.o
 .text._ZNSt14_Function_base13_Base_managerIZN8Platform16SetMicrosteppingEjibRK9StringRefEUlhE_E10_M_managerERSt9_Any_dataRKS7_St18_Manager_operation
                0x00009afa       0x3e ./build/./RepRapFirmware/src/Platform.o
 .text._ZNSt14_Function_base13_Base_managerIZN8Platform23ConfigureStallDetectionER11GCodeBufferRK9StringRefRP12OutputBufferEUljjE4_E10_M_managerERSt9_Any_dataRKSC_St18_Manager_operation
                0x00009b38       0x36 ./build/./RepRapFirmware/src/Platform.o
 .text._ZNSt17_Function_handlerIFvjjEZN8Platform22DriverCoolingFansOnOffE6BitmapItEbEUljjE_E9_M_invokeERKSt9_Any_dataOjS9_
                0x00009b6e       0x1a ./build/./RepRapFirmware/src/Platform.o
 .text._ZN8PlatformUlPK11ObjectModelR24ObjectExplorationContextE52_4_FUNES2_S4_
                0x00009b88       0x20 ./build/./RepRapFirmware/src/Platform.o
 .text._ZN8PlatformUlPK11ObjectModelR24ObjectExplorationContextE50_4_FUNES2_S4_
                0x00009ba8       0x1e ./build/./RepRapFirmware/src/Platform.o
 .text._ZN8PlatformUlPK11ObjectModelR24ObjectExplorationContextE46_4_FUNES2_S4_
                0x00009bc6       0x20 ./build/./RepRapFirmware/src/Platform.o
 .text._ZN8PlatformUlPK11ObjectModelR24ObjectExplorationContextE53_4_FUNES2_S4_
                0x00009be6       0x22 ./build/./RepRapFirmware/src/Platform.o
 .text._ZN8PlatformUlPK11ObjectModelR24ObjectExplorationContextE51_4_FUNES2_S4_
                0x00009c08       0x20 ./build/./RepRapFirmware/src/Platform.o
 .text._ZN8PlatformUlPK11ObjectModelR24ObjectExplorationContextE36_4_FUNES2_S4_
                0x00009c28       0x1c ./build/./RepRapFirmware/src/Platform.o
 .text._ZN8PlatformUlPK11ObjectModelR24ObjectExplorationContextE0_4_FUNES2_S4_
                0x00009c44       0x2e ./build/./RepRapFirmware/src/Platform.o
 .text._ZN8PlatformUlPK11ObjectModelR24ObjectExplorationContextE34_4_FUNES2_S4_
                0x00009c72       0x22 ./build/./RepRapFirmware/src/Platform.o
 .text._ZN8PlatformUlPK11ObjectModelR24ObjectExplorationContextE45_4_FUNES2_S4_
                0x00009c94       0x2c ./build/./RepRapFirmware/src/Platform.o
 .text._ZN8PlatformUlPK11ObjectModelR24ObjectExplorationContextE29_4_FUNES2_S4_
                0x00009cc0       0x28 ./build/./RepRapFirmware/src/Platform.o
 .text._ZN8PlatformUlPK11ObjectModelR24ObjectExplorationContextE39_4_FUNES2_S4_
                0x00009ce8       0x2c ./build/./RepRapFirmware/src/Platform.o
 .text._ZN8PlatformUlPK11ObjectModelR24ObjectExplorationContextE21_4_FUNES2_S4_
                0x00009d14       0x2c ./build/./RepRapFirmware/src/Platform.o
 .text._ZN8PlatformUlPK11ObjectModelR24ObjectExplorationContextE43_4_FUNES2_S4_
                0x00009d40       0x26 ./build/./RepRapFirmware/src/Platform.o
 *fill*         0x00009d66        0x2 
 .text._ZN8PlatformUlPK11ObjectModelR24ObjectExplorationContextE44_4_FUNES2_S4_
                0x00009d68       0x28 ./build/./RepRapFirmware/src/Platform.o
 .text._ZN8PlatformUlPK11ObjectModelR24ObjectExplorationContextE37_4_FUNES2_S4_
                0x00009d90       0x28 ./build/./RepRapFirmware/src/Platform.o
 .text._ZN8PlatformUlPK11ObjectModelR24ObjectExplorationContextE31_4_FUNES2_S4_
                0x00009db8       0x28 ./build/./RepRapFirmware/src/Platform.o
 .text._ZN8PlatformUlPK11ObjectModelR24ObjectExplorationContextE42_4_FUNES2_S4_
                0x00009de0       0x2c ./build/./RepRapFirmware/src/Platform.o
 .text._ZN8PlatformUlPK11ObjectModelR24ObjectExplorationContextE23_4_FUNES2_S4_
                0x00009e0c       0x2c ./build/./RepRapFirmware/src/Platform.o
 .text._ZN8PlatformUlPK11ObjectModelR24ObjectExplorationContextE38_4_FUNES2_S4_
                0x00009e38       0x24 ./build/./RepRapFirmware/src/Platform.o
 .text._ZN8PlatformUlPK11ObjectModelR24ObjectExplorationContextE32_4_FUNES2_S4_
                0x00009e5c       0x28 ./build/./RepRapFirmware/src/Platform.o
 .text._ZN8PlatformUlPK11ObjectModelR24ObjectExplorationContextE22_4_FUNES2_S4_
                0x00009e84       0x24 ./build/./RepRapFirmware/src/Platform.o
 .text._ZN8PlatformUlPK11ObjectModelR24ObjectExplorationContextE2_4_FUNES2_S4_
                0x00009ea8       0x3c ./build/./RepRapFirmware/src/Platform.o
 .text._ZN8PlatformUlPK11ObjectModelR24ObjectExplorationContextE17_4_FUNES2_S4_
                0x00009ee4       0x28 ./build/./RepRapFirmware/src/Platform.o
 .text._ZN8PlatformUlPK11ObjectModelR24ObjectExplorationContextE35_4_FUNES2_S4_
                0x00009f0c       0x24 ./build/./RepRapFirmware/src/Platform.o
 .text._ZN8PlatformUlPK11ObjectModelR24ObjectExplorationContextE18_4_FUNES2_S4_
                0x00009f30       0x20 ./build/./RepRapFirmware/src/Platform.o
 .text._ZNSt17_Function_handlerIFvjjEZN8Platform23ConfigureStallDetectionER11GCodeBufferRK9StringRefRP12OutputBufferEUljjE4_E9_M_invokeERKSt9_Any_dataOjSF_
                0x00009f50       0x80 ./build/./RepRapFirmware/src/Platform.o
 .text._ZN8PlatformUlPK11ObjectModelR24ObjectExplorationContextE28_4_FUNES2_S4_
                0x00009fd0       0x22 ./build/./RepRapFirmware/src/Platform.o
 .text._ZN8PlatformUlPK11ObjectModelR24ObjectExplorationContextE25_4_FUNES2_S4_
                0x00009ff2       0x22 ./build/./RepRapFirmware/src/Platform.o
 .text._ZN8PlatformUlPK11ObjectModelR24ObjectExplorationContextE20_4_FUNES2_S4_
                0x0000a014       0x28 ./build/./RepRapFirmware/src/Platform.o
 .text._ZN8PlatformUlPK11ObjectModelR24ObjectExplorationContextE7_4_FUNES2_S4_
                0x0000a03c       0x10 ./build/./RepRapFirmware/src/Platform.o
 .text._ZNSt17_Function_handlerIFvhEZN8Platform12SetDirectionEjbEUlhE_E9_M_invokeERKSt9_Any_dataOh
                0x0000a04c       0x24 ./build/./RepRapFirmware/src/Platform.o
 .text._ZNSt14_Function_baseD2Ev
                0x0000a070       0x12 ./build/./RepRapFirmware/src/Platform.o
                0x0000a070                std::_Function_base::~_Function_base()
                0x0000a070                std::_Function_base::~_Function_base()
 .text.UrgentInit
                0x0000a082        0x2 ./build/./RepRapFirmware/src/Platform.o
                0x0000a082                UrgentInit
 .text._ZNK17AxisDriversConfig16GetDriversBitmapEv
                0x0000a084       0x24 ./build/./RepRapFirmware/src/Platform.o
                0x0000a084                AxisDriversConfig::GetDriversBitmap() const
 .text._ZNK8Platform22GetNumGpInputsToReportEv
                0x0000a0a8       0x1e ./build/./RepRapFirmware/src/Platform.o
                0x0000a0a8                Platform::GetNumGpInputsToReport() const
 .text._ZNK8Platform23GetNumGpOutputsToReportEv
                0x0000a0c6       0x1e ./build/./RepRapFirmware/src/Platform.o
                0x0000a0c6                Platform::GetNumGpOutputsToReport() const
 .text._ZN8Platform19SendPanelDueMessageEjPKc
                0x0000a0e4       0x12 ./build/./RepRapFirmware/src/Platform.o
                0x0000a0e4                Platform::SendPanelDueMessage(unsigned int, char const*)
 .text._ZN8Platform12SetIPAddressE9IPAddress
                0x0000a0f6        0x4 ./build/./RepRapFirmware/src/Platform.o
                0x0000a0f6                Platform::SetIPAddress(IPAddress)
 .text._ZN8Platform10SetGateWayE9IPAddress
                0x0000a0fa        0x4 ./build/./RepRapFirmware/src/Platform.o
                0x0000a0fa                Platform::SetGateWay(IPAddress)
 .text._ZN8Platform10SetNetMaskE9IPAddress
                0x0000a0fe        0x4 ./build/./RepRapFirmware/src/Platform.o
                0x0000a0fe                Platform::SetNetMask(IPAddress)
 *fill*         0x0000a102        0x2 
 .text._ZN8Platform20InitialiseInterruptsEv
                0x0000a104       0x54 ./build/./RepRapFirmware/src/Platform.o
                0x0000a104                Platform::InitialiseInterrupts()
 .text._ZNK8Platform23GetAveragingFilterIndexERK6IoPort
                0x0000a158       0x2c ./build/./RepRapFirmware/src/Platform.o
                0x0000a158                Platform::GetAveragingFilterIndex(IoPort const&) const
 .text._ZN8Platform23UpdateConfiguredHeatersEv
                0x0000a184       0x64 ./build/./RepRapFirmware/src/Platform.o
                0x0000a184                Platform::UpdateConfiguredHeaters()
 .text._ZN8Platform21DisableOneLocalDriverEj
                0x0000a1e8       0x34 ./build/./RepRapFirmware/src/Platform.o
                0x0000a1e8                Platform::DisableOneLocalDriver(unsigned int)
 .text._ZNSt17_Function_handlerIFvhEZN8Platform14DisableDriversEjEUlhE_E9_M_invokeERKSt9_Any_dataOh
                0x0000a21c        0x8 ./build/./RepRapFirmware/src/Platform.o
 .text._ZN8Platform18UpdateMotorCurrentEjf
                0x0000a224       0x18 ./build/./RepRapFirmware/src/Platform.o
                0x0000a224                Platform::UpdateMotorCurrent(unsigned int, float)
 .text._ZN8Platform20EnableOneLocalDriverEjf
                0x0000a23c       0x40 ./build/./RepRapFirmware/src/Platform.o
                0x0000a23c                Platform::EnableOneLocalDriver(unsigned int, float)
 .text._ZNSt17_Function_handlerIFvhEZN8Platform18EnableLocalDriversEjEUlhE_E9_M_invokeERKSt9_Any_dataOh
                0x0000a27c        0xa ./build/./RepRapFirmware/src/Platform.o
 .text._ZN8Platform23EmergencyDisableDriversEv
                0x0000a286       0x2c ./build/./RepRapFirmware/src/Platform.o
                0x0000a286                Platform::EmergencyDisableDrivers()
 .text._ZNSt17_Function_handlerIFvhEZN8Platform14SetDriversIdleEvEUlhE_E9_M_invokeERKSt9_Any_dataOh
                0x0000a2b2        0xa ./build/./RepRapFirmware/src/Platform.o
 .text._ZNSt17_Function_handlerIFvhEZN8Platform15SetMotorCurrentEjfiRK9StringRefEUlhE_E9_M_invokeERKSt9_Any_dataOh
                0x0000a2bc       0x3e ./build/./RepRapFirmware/src/Platform.o
 .text._ZNSt17_Function_handlerIFvhEZN8Platform20SetIdleCurrentFactorEfEUlhE_E9_M_invokeERKSt9_Any_dataOh
                0x0000a2fa        0xa ./build/./RepRapFirmware/src/Platform.o
 .text._ZNK8Platform15GetMotorCurrentEji
                0x0000a304       0x44 ./build/./RepRapFirmware/src/Platform.o
                0x0000a304                Platform::GetMotorCurrent(unsigned int, int) const
 .text._ZN8Platform20SetDriveStepsPerUnitEjfm
                0x0000a348       0x6c ./build/./RepRapFirmware/src/Platform.o
                0x0000a348                Platform::SetDriveStepsPerUnit(unsigned int, float, unsigned long)
 .text._ZN8Platform22SetDriverMicrosteppingEjji
                0x0000a3b4       0x30 ./build/./RepRapFirmware/src/Platform.o
                0x0000a3b4                Platform::SetDriverMicrostepping(unsigned int, unsigned int, int)
 .text._ZNSt17_Function_handlerIFvhEZN8Platform16SetMicrosteppingEjibRK9StringRefEUlhE_E9_M_invokeERKSt9_Any_dataOh
                0x0000a3e4       0x40 ./build/./RepRapFirmware/src/Platform.o
 .text._ZNK8Platform16GetMicrosteppingEjRb
                0x0000a424       0x16 ./build/./RepRapFirmware/src/Platform.o
                0x0000a424                Platform::GetMicrostepping(unsigned int, bool&) const
 .text._ZN8Platform14SetEnableValueEja
                0x0000a43a       0x54 ./build/./RepRapFirmware/src/Platform.o
                0x0000a43a                Platform::SetEnableValue(unsigned int, signed char)
 .text._ZN8Platform20SetAxisDriversConfigEjjPK8DriverId
                0x0000a48e       0x4c ./build/./RepRapFirmware/src/Platform.o
                0x0000a48e                Platform::SetAxisDriversConfig(unsigned int, unsigned int, DriverId const*)
 .text._ZN8Platform17SetExtruderDriverEj8DriverId
                0x0000a4da       0x26 ./build/./RepRapFirmware/src/Platform.o
                0x0000a4da                Platform::SetExtruderDriver(unsigned int, DriverId)
 .text._ZN8Platform19SetDriverStepTimingEjPKf
                0x0000a500       0xa0 ./build/./RepRapFirmware/src/Platform.o
                0x0000a500                Platform::SetDriverStepTiming(unsigned int, float const*)
 .text._ZNK8Platform19GetDriverStepTimingEjPf
                0x0000a5a0       0x5c ./build/./RepRapFirmware/src/Platform.o
                0x0000a5a0                Platform::GetDriverStepTiming(unsigned int, float*) const
 .text._ZN8Platform14AppendUsbReplyEP12OutputBuffer
                0x0000a5fc       0x40 ./build/./RepRapFirmware/src/Platform.o
                0x0000a5fc                Platform::AppendUsbReply(OutputBuffer*)
 .text._ZNK8Platform12IsAuxEnabledEj
                0x0000a63c        0xc ./build/./RepRapFirmware/src/Platform.o
                0x0000a63c                Platform::IsAuxEnabled(unsigned int) const
 .text._ZN8Platform9EnableAuxEj
                0x0000a648       0x16 ./build/./RepRapFirmware/src/Platform.o
                0x0000a648                Platform::EnableAux(unsigned int)
 .text._ZNK8Platform8IsAuxRawEj
                0x0000a65e        0xc ./build/./RepRapFirmware/src/Platform.o
                0x0000a65e                Platform::IsAuxRaw(unsigned int) const
 .text._ZN8Platform9SetAuxRawEjb
                0x0000a66a        0x8 ./build/./RepRapFirmware/src/Platform.o
                0x0000a66a                Platform::SetAuxRaw(unsigned int, bool)
 .text._ZN8Platform14AppendAuxReplyEjP12OutputBufferb
                0x0000a672       0x20 ./build/./RepRapFirmware/src/Platform.o
                0x0000a672                Platform::AppendAuxReply(unsigned int, OutputBuffer*, bool)
 *fill*         0x0000a692        0x2 
 .text._ZN8Platform7MessageE11MessageTypeP12OutputBuffer
                0x0000a694       0xe8 ./build/./RepRapFirmware/src/Platform.o
                0x0000a694                Platform::Message(MessageType, OutputBuffer*)
 .text._ZN8Platform11StopLoggingEv
                0x0000a77c        0x2 ./build/./RepRapFirmware/src/Platform.o
                0x0000a77c                Platform::StopLogging()
 *fill*         0x0000a77e        0x2 
 .text._ZNK8Platform8AtxPowerEv
                0x0000a780       0x20 ./build/./RepRapFirmware/src/Platform.o
                0x0000a780                Platform::AtxPower() const
 .text._ZN8Platform10AtxPowerOnEv
                0x0000a7a0       0x20 ./build/./RepRapFirmware/src/Platform.o
                0x0000a7a0                Platform::AtxPowerOn()
 .text._ZN8Platform11AtxPowerOffEb
                0x0000a7c0       0x1c ./build/./RepRapFirmware/src/Platform.o
                0x0000a7c0                Platform::AtxPowerOff(bool)
 .text._ZN8Platform18SetPressureAdvanceEfR11GCodeBufferRK9StringRef
                0x0000a7dc       0xac ./build/./RepRapFirmware/src/Platform.o
                0x0000a7dc                Platform::SetPressureAdvance(float, GCodeBuffer&, StringRef const&)
 .text._ZNK8Platform24GetExtrusionCoefficientsEjRfS0_S0_
                0x0000a888       0x24 ./build/./RepRapFirmware/src/Platform.o
                0x0000a888                Platform::GetExtrusionCoefficients(unsigned int, float&, float&, float&) const
 .text._ZN8Platform21SetNonlinearExtrusionEjfff
                0x0000a8ac       0x2a ./build/./RepRapFirmware/src/Platform.o
                0x0000a8ac                Platform::SetNonlinearExtrusion(unsigned int, float, float, float)
 .text._ZN8Platform11SetBaudRateEjm
                0x0000a8d6        0xe ./build/./RepRapFirmware/src/Platform.o
                0x0000a8d6                Platform::SetBaudRate(unsigned int, unsigned long)
 .text._ZNK8Platform11GetBaudRateEj
                0x0000a8e4       0x10 ./build/./RepRapFirmware/src/Platform.o
                0x0000a8e4                Platform::GetBaudRate(unsigned int) const
 .text._ZN8Platform18SetCommsPropertiesEjm
                0x0000a8f4        0xc ./build/./RepRapFirmware/src/Platform.o
                0x0000a8f4                Platform::SetCommsProperties(unsigned int, unsigned long)
 .text._ZNK8Platform18GetCommsPropertiesEj
                0x0000a900        0xe ./build/./RepRapFirmware/src/Platform.o
                0x0000a900                Platform::GetCommsProperties(unsigned int) const
 *fill*         0x0000a90e        0x2 
 .text._ZN8Platform12ResetChannelEj
                0x0000a910       0x3c ./build/./RepRapFirmware/src/Platform.o
                0x0000a910                Platform::ResetChannel(unsigned int)
 .text._ZNK8Platform20GetElectronicsStringEv
                0x0000a94c       0x18 ./build/./RepRapFirmware/src/Platform.o
                0x0000a94c                Platform::GetElectronicsString() const
 .text._ZN8Platform11SetLaserPwmEt
                0x0000a964       0x28 ./build/./RepRapFirmware/src/Platform.o
                0x0000a964                Platform::SetLaserPwm(unsigned short)
 .text._ZNK8Platform11GetLaserPwmEv
                0x0000a98c        0x6 ./build/./RepRapFirmware/src/Platform.o
                0x0000a98c                Platform::GetLaserPwm() const
 .text._ZN8Platform14AssignLaserPinER11GCodeBufferRK9StringRef
                0x0000a992       0x24 ./build/./RepRapFirmware/src/Platform.o
                0x0000a992                Platform::AssignLaserPin(GCodeBuffer&, StringRef const&)
 .text._ZN8Platform20SetLaserPwmFrequencyEt
                0x0000a9b6        0x6 ./build/./RepRapFirmware/src/Platform.o
                0x0000a9b6                Platform::SetLaserPwmFrequency(unsigned short)
 .text._ZN8Platform14SetAxisMaximumEjfb
                0x0000a9bc       0x2c ./build/./RepRapFirmware/src/Platform.o
                0x0000a9bc                Platform::SetAxisMaximum(unsigned int, float, bool)
 .text._ZN8Platform14SetAxisMinimumEjfb
                0x0000a9e8       0x2c ./build/./RepRapFirmware/src/Platform.o
                0x0000a9e8                Platform::SetAxisMinimum(unsigned int, float, bool)
 .text._ZNK8Platform24GetTmcDriversTemperatureEj
                0x0000aa14       0x24 ./build/./RepRapFirmware/src/Platform.o
                0x0000aa14                Platform::GetTmcDriversTemperature(unsigned int) const
 .text._ZN8Platform13ConfigurePortER11GCodeBufferRK9StringRef
                0x0000aa38       0xec ./build/./RepRapFirmware/src/Platform.o
                0x0000aa38                Platform::ConfigurePort(GCodeBuffer&, StringRef const&)
 .text._ZN8Platform18GetSetAncillaryPwmER11GCodeBufferRK9StringRef
                0x0000ab24       0x98 ./build/./RepRapFirmware/src/Platform.o
                0x0000ab24                Platform::GetSetAncillaryPwm(GCodeBuffer&, StringRef const&)
 .text._ZNSt8functionIFvhEEC2ERKS1_
                0x0000abbc       0x28 ./build/./RepRapFirmware/src/Platform.o
                0x0000abbc                std::function<void (unsigned char)>::function(std::function<void (unsigned char)> const&)
                0x0000abbc                std::function<void (unsigned char)>::function(std::function<void (unsigned char)> const&)
 .text._ZNV15AveragingFilterILj16EE4InitEt
                0x0000abe4       0x2a ./build/./RepRapFirmware/src/Platform.o
                0x0000abe4                AveragingFilter<16u>::Init(unsigned short) volatile
 *fill*         0x0000ac0e        0x2 
 .text._ZN8Platform4InitEv
                0x0000ac10      0x388 ./build/./RepRapFirmware/src/Platform.o
                0x0000ac10                Platform::Init()
 .text._ZN6StringILj100EE6printfEPKcz
                0x0000af98       0x22 ./build/./RepRapFirmware/src/Platform.o
                0x0000af98                String<100u>::printf(char const*, ...)
 .text._ZN6StringILj100EE4catfEPKcz
                0x0000afba       0x22 ./build/./RepRapFirmware/src/Platform.o
                0x0000afba                String<100u>::catf(char const*, ...)
 .text._ZNSt17_Function_handlerIFvjjEZN8Platform13ReportDriversE11MessageTypeR6BitmapImEPKcRbEUljjE_E9_M_invokeERKSt9_Any_dataOjSE_
                0x0000afdc       0x14 ./build/./RepRapFirmware/src/Platform.o
 .text._ZN6StringILj256EE6printfEPKcz
                0x0000aff0       0x24 ./build/./RepRapFirmware/src/Platform.o
                0x0000aff0                String<256u>::printf(char const*, ...)
 .text._ZNKSt8functionIFvhEEclEh
                0x0000b014       0x1c ./build/./RepRapFirmware/src/Platform.o
                0x0000b014                std::function<void (unsigned char)>::operator()(unsigned char) const
 .text._ZN8Platform14IterateDriversEjSt8functionIFvhEE
                0x0000b030       0x4c ./build/./RepRapFirmware/src/Platform.o
                0x0000b030                Platform::IterateDrivers(unsigned int, std::function<void (unsigned char)>)
 .text._ZN8Platform14DisableDriversEj
                0x0000b07c       0x34 ./build/./RepRapFirmware/src/Platform.o
                0x0000b07c                Platform::DisableDrivers(unsigned int)
 .text._ZN8Platform17DisableAllDriversEv
                0x0000b0b0       0x16 ./build/./RepRapFirmware/src/Platform.o
                0x0000b0b0                Platform::DisableAllDrivers()
 *fill*         0x0000b0c6        0x2 
 .text._ZN8Platform14SetDriversIdleEv
                0x0000b0c8       0x88 ./build/./RepRapFirmware/src/Platform.o
                0x0000b0c8                Platform::SetDriversIdle()
 .text._ZN8Platform15SetMotorCurrentEjfiRK9StringRef
                0x0000b150       0xe0 ./build/./RepRapFirmware/src/Platform.o
                0x0000b150                Platform::SetMotorCurrent(unsigned int, float, int, StringRef const&)
 .text._ZN8Platform20SetIdleCurrentFactorEf
                0x0000b230       0xa0 ./build/./RepRapFirmware/src/Platform.o
                0x0000b230                Platform::SetIdleCurrentFactor(float)
 .text._ZN8Platform16SetMicrosteppingEjibRK9StringRef
                0x0000b2d0       0xb4 ./build/./RepRapFirmware/src/Platform.o
                0x0000b2d0                Platform::SetMicrostepping(unsigned int, int, bool, StringRef const&)
 .text._ZN8Platform12SetDirectionEjb
                0x0000b384       0xa8 ./build/./RepRapFirmware/src/Platform.o
                0x0000b384                Platform::SetDirection(unsigned int, bool)
 .text._ZN8Platform18EnableLocalDriversEj
                0x0000b42c       0x68 ./build/./RepRapFirmware/src/Platform.o
                0x0000b42c                Platform::EnableLocalDrivers(unsigned int)
 .text._ZN6StringILj256EE4copyEPKc
                0x0000b494       0x16 ./build/./RepRapFirmware/src/Platform.o
                0x0000b494                String<256u>::copy(char const*)
 .text._ZNV15AveragingFilterILj8EE4InitEt
                0x0000b4aa       0x2e ./build/./RepRapFirmware/src/Platform.o
                0x0000b4aa                AveragingFilter<8u>::Init(unsigned short) volatile
 .text._ZN8Platform17InitZProbeFiltersEv
                0x0000b4d8       0x1a ./build/./RepRapFirmware/src/Platform.o
                0x0000b4d8                Platform::InitZProbeFilters()
 *fill*         0x0000b4f2        0x2 
 .text._ZN8PlatformC2Ev
                0x0000b4f4      0x158 ./build/./RepRapFirmware/src/Platform.o
                0x0000b4f4                Platform::Platform()
                0x0000b4f4                Platform::Platform()
 .text._ZN15AveragingFilterILj8EE14ProcessReadingEt
                0x0000b64c       0x28 ./build/./RepRapFirmware/src/Platform.o
                0x0000b64c                AveragingFilter<8u>::ProcessReading(unsigned short)
 .text.hot._ZN8Platform4TickEv
                0x0000b674       0xf8 ./build/./RepRapFirmware/src/Platform.o
                0x0000b674                Platform::Tick()
 .text._ZNKSt8functionIFvjjEEclEjj
                0x0000b76c       0x1c ./build/./RepRapFirmware/src/Platform.o
                0x0000b76c                std::function<void (unsigned int, unsigned int)>::operator()(unsigned int, unsigned int) const
 .text._ZNK6BitmapImE7IterateESt8functionIFvjjEE.isra.174
                0x0000b788       0x30 ./build/./RepRapFirmware/src/Platform.o
 .text._ZN8Platform23ConfigureStallDetectionER11GCodeBufferRK9StringRefRP12OutputBuffer
                0x0000b7b8      0x2c0 ./build/./RepRapFirmware/src/Platform.o
                0x0000b7b8                Platform::ConfigureStallDetection(GCodeBuffer&, StringRef const&, OutputBuffer*&)
 .text._ZN8Platform22DriverCoolingFansOnOffE6BitmapItEb
                0x0000ba78       0x60 ./build/./RepRapFirmware/src/Platform.o
                0x0000ba78                Platform::DriverCoolingFansOnOff(Bitmap<unsigned short>, bool)
 .text._ZN8Platform10RawMessageE11MessageTypePKc
                0x0000bad8       0xd0 ./build/./RepRapFirmware/src/Platform.o
                0x0000bad8                Platform::RawMessage(MessageType, char const*)
 .text._ZN8Platform7MessageE11MessageTypePKc.part.172
                0x0000bba8       0x4c ./build/./RepRapFirmware/src/Platform.o
 .text._ZN8Platform7MessageE11MessageTypePKc
                0x0000bbf4       0x58 ./build/./RepRapFirmware/src/Platform.o
                0x0000bbf4                Platform::Message(MessageType, char const*)
 .text._ZN8Platform8MessageFE11MessageTypePKcSt9__va_list
                0x0000bc4c       0xac ./build/./RepRapFirmware/src/Platform.o
                0x0000bc4c                Platform::MessageF(MessageType, char const*, std::__va_list)
 .text._ZN8Platform8MessageFE11MessageTypePKcz
                0x0000bcf8       0x1a ./build/./RepRapFirmware/src/Platform.o
                0x0000bcf8                Platform::MessageF(MessageType, char const*, ...)
 *fill*         0x0000bd12        0x2 
 .text._ZN8Platform12PanelDueBeepEii
                0x0000bd14       0x18 ./build/./RepRapFirmware/src/Platform.o
                0x0000bd14                Platform::PanelDueBeep(int, int)
 .text._ZN8Platform11DiagnosticsE11MessageType
                0x0000bd2c      0x2b0 ./build/./RepRapFirmware/src/Platform.o
                0x0000bd2c                Platform::Diagnostics(MessageType)
 *fill*         0x0000bfdc        0x4 
 .text._ZN8Platform14DiagnosticTestER11GCodeBufferRK9StringRefRP12OutputBufferj
                0x0000bfe0      0x4e4 ./build/./RepRapFirmware/src/Platform.o
                0x0000bfe0                Platform::DiagnosticTest(GCodeBuffer&, StringRef const&, OutputBuffer*&, unsigned int)
 .text._ZN8Platform9SendAlertE11MessageTypePKcS2_if6BitmapItE
                0x0000c4c4       0x88 ./build/./RepRapFirmware/src/Platform.o
                0x0000c4c4                Platform::SendAlert(MessageType, char const*, char const*, int, float, Bitmap<unsigned short>)
 .text._ZN8Platform11SetDateTimeEx
                0x0000c54c       0x74 ./build/./RepRapFirmware/src/Platform.o
                0x0000c54c                Platform::SetDateTime(long long)
 .text._ZN8Platform13ReportDriversE11MessageTypeR6BitmapImEPKcRb
                0x0000c5c0       0x64 ./build/./RepRapFirmware/src/Platform.o
                0x0000c5c0                Platform::ReportDrivers(MessageType, Bitmap<unsigned long>&, char const*, bool&)
 .text._ZN8Platform13FlushMessagesEv
                0x0000c624       0xb0 ./build/./RepRapFirmware/src/Platform.o
                0x0000c624                Platform::FlushMessages()
 .text._ZN8Platform4SpinEv
                0x0000c6d4      0x3b0 ./build/./RepRapFirmware/src/Platform.o
                0x0000c6d4                Platform::Spin()
 .text._ZN12PrintMonitorUlPK11ObjectModelRK24ObjectExplorationContextE_4_FUNES2_S5_
                0x0000ca84        0x6 ./build/./RepRapFirmware/src/PrintMonitor.o
 .text._ZN12PrintMonitorUlPK11ObjectModelR24ObjectExplorationContextE2_4_FUNES2_S4_
                0x0000ca8a       0x1a ./build/./RepRapFirmware/src/PrintMonitor.o
 .text._ZN12PrintMonitorUlPK11ObjectModelR24ObjectExplorationContextE9_4_FUNES2_S4_
                0x0000caa4       0x1a ./build/./RepRapFirmware/src/PrintMonitor.o
 *fill*         0x0000cabe        0x2 
 .text._ZN12PrintMonitorUlPK11ObjectModelR24ObjectExplorationContextE11_4_FUNES2_S4_
                0x0000cac0       0x10 ./build/./RepRapFirmware/src/PrintMonitor.o
 .text._ZN12PrintMonitorUlPK11ObjectModelR24ObjectExplorationContextE13_4_FUNES2_S4_
                0x0000cad0        0xe ./build/./RepRapFirmware/src/PrintMonitor.o
 .text._ZN12PrintMonitorUlPK11ObjectModelR24ObjectExplorationContextE15_4_FUNES2_S4_
                0x0000cade        0xe ./build/./RepRapFirmware/src/PrintMonitor.o
 .text._ZN12PrintMonitorUlPK11ObjectModelR24ObjectExplorationContextE17_4_FUNES2_S4_
                0x0000caec        0xe ./build/./RepRapFirmware/src/PrintMonitor.o
 .text._ZN12PrintMonitorUlPK11ObjectModelR24ObjectExplorationContextE21_4_FUNES2_S4_
                0x0000cafa        0xc ./build/./RepRapFirmware/src/PrintMonitor.o
 *fill*         0x0000cb06        0x2 
 .text._ZNK12PrintMonitor29GetObjectModelClassDescriptorEv
                0x0000cb08        0x8 ./build/./RepRapFirmware/src/PrintMonitor.o
                0x0000cb08                PrintMonitor::GetObjectModelClassDescriptor() const
 .text._ZN12PrintMonitorD2Ev
                0x0000cb10        0x2 ./build/./RepRapFirmware/src/PrintMonitor.o
                0x0000cb10                PrintMonitor::~PrintMonitor()
                0x0000cb10                PrintMonitor::~PrintMonitor()
 .text._ZN12PrintMonitorD0Ev
                0x0000cb12       0x10 ./build/./RepRapFirmware/src/PrintMonitor.o
                0x0000cb12                PrintMonitor::~PrintMonitor()
 .text._ZN12PrintMonitorUlPK11ObjectModelR24ObjectExplorationContextE0_4_FUNES2_S4_
                0x0000cb22       0x22 ./build/./RepRapFirmware/src/PrintMonitor.o
 .text._ZN12PrintMonitorUlPK11ObjectModelR24ObjectExplorationContextE18_4_FUNES2_S4_
                0x0000cb44       0x16 ./build/./RepRapFirmware/src/PrintMonitor.o
 .text._ZN12PrintMonitorUlPK11ObjectModelR24ObjectExplorationContextE20_4_FUNES2_S4_
                0x0000cb5a       0x12 ./build/./RepRapFirmware/src/PrintMonitor.o
 .text._ZN12PrintMonitorUlPK11ObjectModelR24ObjectExplorationContextE19_4_FUNES2_S4_
                0x0000cb6c       0x12 ./build/./RepRapFirmware/src/PrintMonitor.o
 .text._ZN12PrintMonitorUlPK11ObjectModelR24ObjectExplorationContextE16_4_FUNES2_S4_
                0x0000cb7e       0x1e ./build/./RepRapFirmware/src/PrintMonitor.o
 .text._ZN12PrintMonitorUlPK11ObjectModelR24ObjectExplorationContextE7_4_FUNES2_S4_
                0x0000cb9c       0x12 ./build/./RepRapFirmware/src/PrintMonitor.o
 *fill*         0x0000cbae        0x2 
 .text._ZN12PrintMonitorUlPK11ObjectModelR24ObjectExplorationContextE3_4_FUNES2_S4_
                0x0000cbb0       0x1c ./build/./RepRapFirmware/src/PrintMonitor.o
 .text._ZN12PrintMonitorUlPK11ObjectModelR24ObjectExplorationContextE5_4_FUNES2_S4_
                0x0000cbcc       0x20 ./build/./RepRapFirmware/src/PrintMonitor.o
 .text._ZN12PrintMonitorUlPK11ObjectModelR24ObjectExplorationContextE12_4_FUNES2_S4_
                0x0000cbec       0x16 ./build/./RepRapFirmware/src/PrintMonitor.o
 .text._ZN12PrintMonitorUlPK11ObjectModelR24ObjectExplorationContextE6_4_FUNES2_S4_
                0x0000cc02       0x18 ./build/./RepRapFirmware/src/PrintMonitor.o
 .text._ZN12PrintMonitorUlPK11ObjectModelR24ObjectExplorationContextE14_4_FUNES2_S4_
                0x0000cc1a       0x16 ./build/./RepRapFirmware/src/PrintMonitor.o
 .text._ZN12PrintMonitorC2ER8PlatformR6GCodes
                0x0000cc30       0x5c ./build/./RepRapFirmware/src/PrintMonitor.o
                0x0000cc30                PrintMonitor::PrintMonitor(Platform&, GCodes&)
                0x0000cc30                PrintMonitor::PrintMonitor(Platform&, GCodes&)
 .text._ZN12PrintMonitor4InitEv
                0x0000cc8c        0xc ./build/./RepRapFirmware/src/PrintMonitor.o
                0x0000cc8c                PrintMonitor::Init()
 .text._ZN12PrintMonitor19GetPrintingFileInfoER13GCodeFileInfo
                0x0000cc98       0x26 ./build/./RepRapFirmware/src/PrintMonitor.o
                0x0000cc98                PrintMonitor::GetPrintingFileInfo(GCodeFileInfo&)
 *fill*         0x0000ccbe        0x2 
 .text._ZN12PrintMonitor19SetPrintingFileInfoEPKcR13GCodeFileInfo
                0x0000ccc0       0x3c ./build/./RepRapFirmware/src/PrintMonitor.o
                0x0000ccc0                PrintMonitor::SetPrintingFileInfo(char const*, GCodeFileInfo&)
 .text._ZNK12PrintMonitor17GetWarmUpDurationEv
                0x0000ccfc       0x34 ./build/./RepRapFirmware/src/PrintMonitor.o
                0x0000ccfc                PrintMonitor::GetWarmUpDuration() const
 .text._ZN12PrintMonitorUlPK11ObjectModelR24ObjectExplorationContextE10_4_FUNES2_S4_
                0x0000cd30       0x22 ./build/./RepRapFirmware/src/PrintMonitor.o
 .text._ZN12PrintMonitor13StartingPrintEPKc
                0x0000cd52        0x2 ./build/./RepRapFirmware/src/PrintMonitor.o
                0x0000cd52                PrintMonitor::StartingPrint(char const*)
 .text._ZN12PrintMonitor5ResetEv
                0x0000cd54       0x48 ./build/./RepRapFirmware/src/PrintMonitor.o
                0x0000cd54                PrintMonitor::Reset()
 .text._ZN12PrintMonitor12StartedPrintEv
                0x0000cd9c       0x16 ./build/./RepRapFirmware/src/PrintMonitor.o
                0x0000cd9c                PrintMonitor::StartedPrint()
 .text._ZN12PrintMonitor12StoppedPrintEv
                0x0000cdb2       0x10 ./build/./RepRapFirmware/src/PrintMonitor.o
                0x0000cdb2                PrintMonitor::StoppedPrint()
 .text._ZN12PrintMonitor14SetLayerNumberEm
                0x0000cdc2        0x6 ./build/./RepRapFirmware/src/PrintMonitor.o
                0x0000cdc2                PrintMonitor::SetLayerNumber(unsigned long)
 .text._ZN12PrintMonitor9SetLayerZEf
                0x0000cdc8        0x6 ./build/./RepRapFirmware/src/PrintMonitor.o
                0x0000cdc8                PrintMonitor::SetLayerZ(float)
 *fill*         0x0000cdce        0x2 
 .text._ZNK12PrintMonitor21FractionOfFilePrintedEv
                0x0000cdd0       0x3c ./build/./RepRapFirmware/src/PrintMonitor.o
                0x0000cdd0                PrintMonitor::FractionOfFilePrinted() const
 .text._ZNK12PrintMonitor16GetPrintDurationEv
                0x0000ce0c       0x44 ./build/./RepRapFirmware/src/PrintMonitor.o
                0x0000ce0c                PrintMonitor::GetPrintDuration() const
 .text._ZN12PrintMonitorUlPK11ObjectModelR24ObjectExplorationContextE8_4_FUNES2_S4_
                0x0000ce50       0x3c ./build/./RepRapFirmware/src/PrintMonitor.o
 .text._ZNK12PrintMonitor27GetPrintOrSimulatedDurationEv
                0x0000ce8c       0x2c ./build/./RepRapFirmware/src/PrintMonitor.o
                0x0000ce8c                PrintMonitor::GetPrintOrSimulatedDuration() const
 .text._ZN12PrintMonitorUlPK11ObjectModelR24ObjectExplorationContextE1_4_FUNES2_S4_
                0x0000ceb8       0x1e ./build/./RepRapFirmware/src/PrintMonitor.o
 .text._ZNK12PrintMonitor21GetFirstLayerDurationEv
                0x0000ced6       0x2a ./build/./RepRapFirmware/src/PrintMonitor.o
                0x0000ced6                PrintMonitor::GetFirstLayerDuration() const
 .text._ZN12PrintMonitorUlPK11ObjectModelR24ObjectExplorationContextE4_4_FUNES2_S4_
                0x0000cf00       0x22 ./build/./RepRapFirmware/src/PrintMonitor.o
 .text._ZN12PrintMonitor18FirstLayerCompleteEv
                0x0000cf22       0x72 ./build/./RepRapFirmware/src/PrintMonitor.o
                0x0000cf22                PrintMonitor::FirstLayerComplete()
 .text._ZN12PrintMonitor13LayerCompleteEv
                0x0000cf94      0x15c ./build/./RepRapFirmware/src/PrintMonitor.o
                0x0000cf94                PrintMonitor::LayerComplete()
 .text._ZN12PrintMonitor4SpinEv
                0x0000d0f0      0x194 ./build/./RepRapFirmware/src/PrintMonitor.o
                0x0000d0f0                PrintMonitor::Spin()
 .text._ZNK12PrintMonitor16EstimateTimeLeftE21PrintEstimationMethod
                0x0000d284      0x204 ./build/./RepRapFirmware/src/PrintMonitor.o
                0x0000d284                PrintMonitor::EstimateTimeLeft(PrintEstimationMethod) const
 .text._ZNK12PrintMonitor28EstimateTimeLeftAsExpressionE21PrintEstimationMethod
                0x0000d488       0x2a ./build/./RepRapFirmware/src/PrintMonitor.o
                0x0000d488                PrintMonitor::EstimateTimeLeftAsExpression(PrintEstimationMethod) const
 .text._ZN12PrintMonitorUlPK11ObjectModelR24ObjectExplorationContextE24_4_FUNES2_S4_
                0x0000d4b2        0xe ./build/./RepRapFirmware/src/PrintMonitor.o
 .text._ZN12PrintMonitorUlPK11ObjectModelR24ObjectExplorationContextE23_4_FUNES2_S4_
                0x0000d4c0        0xe ./build/./RepRapFirmware/src/PrintMonitor.o
 .text._ZN12PrintMonitorUlPK11ObjectModelR24ObjectExplorationContextE22_4_FUNES2_S4_
                0x0000d4ce        0xe ./build/./RepRapFirmware/src/PrintMonitor.o
 .text._ZN6RepRapUlPK11ObjectModelRK24ObjectExplorationContextE_4_FUNES2_S5_
                0x0000d4dc        0x4 ./build/./RepRapFirmware/src/RepRap.o
 .text._ZN6RepRapUlPK11ObjectModelR24ObjectExplorationContextE0_4_FUNES2_S4_
                0x0000d4e0       0x18 ./build/./RepRapFirmware/src/RepRap.o
 .text._ZN6RepRapUlPK11ObjectModelRK24ObjectExplorationContextE3_4_FUNES2_S5_
                0x0000d4f8        0x4 ./build/./RepRapFirmware/src/RepRap.o
 .text._ZN6RepRapUlPK11ObjectModelRK24ObjectExplorationContextE7_4_FUNES2_S5_
                0x0000d4fc        0x4 ./build/./RepRapFirmware/src/RepRap.o
 .text._ZN6RepRapUlPK11ObjectModelRK24ObjectExplorationContextE9_4_FUNES2_S5_
                0x0000d500        0x6 ./build/./RepRapFirmware/src/RepRap.o
 .text._ZN6RepRapUlPK11ObjectModelRK24ObjectExplorationContextE11_4_FUNES2_S5_
                0x0000d506        0x4 ./build/./RepRapFirmware/src/RepRap.o
 .text._ZN6RepRapUlPK11ObjectModelRK24ObjectExplorationContextE13_4_FUNES2_S5_
                0x0000d50a        0x4 ./build/./RepRapFirmware/src/RepRap.o
 .text._ZN6RepRapUlPK11ObjectModelR24ObjectExplorationContextE14_4_FUNES2_S4_
                0x0000d50e        0x8 ./build/./RepRapFirmware/src/RepRap.o
 *fill*         0x0000d516        0x2 
 .text._ZN6RepRapUlPK11ObjectModelR24ObjectExplorationContextE15_4_FUNES2_S4_
                0x0000d518       0x10 ./build/./RepRapFirmware/src/RepRap.o
 .text._ZN6RepRapUlPK11ObjectModelR24ObjectExplorationContextE16_4_FUNES2_S4_
                0x0000d528       0x10 ./build/./RepRapFirmware/src/RepRap.o
 .text._ZN6RepRapUlPK11ObjectModelR24ObjectExplorationContextE18_4_FUNES2_S4_
                0x0000d538       0x10 ./build/./RepRapFirmware/src/RepRap.o
 .text._ZN6RepRapUlPK11ObjectModelR24ObjectExplorationContextE20_4_FUNES2_S4_
                0x0000d548       0x1a ./build/./RepRapFirmware/src/RepRap.o
 .text._ZN6RepRapUlPK11ObjectModelR24ObjectExplorationContextE22_4_FUNES2_S4_
                0x0000d562       0x10 ./build/./RepRapFirmware/src/RepRap.o
 .text._ZN6RepRapUlPK11ObjectModelR24ObjectExplorationContextE24_4_FUNES2_S4_
                0x0000d572       0x1a ./build/./RepRapFirmware/src/RepRap.o
 .text._ZN6RepRapUlPK11ObjectModelR24ObjectExplorationContextE25_4_FUNES2_S4_
                0x0000d58c       0x10 ./build/./RepRapFirmware/src/RepRap.o
 .text._ZN6RepRapUlPK11ObjectModelR24ObjectExplorationContextE26_4_FUNES2_S4_
                0x0000d59c       0x1a ./build/./RepRapFirmware/src/RepRap.o
 *fill*         0x0000d5b6        0x2 
 .text._ZN6RepRapUlPK11ObjectModelR24ObjectExplorationContextE27_4_FUNES2_S4_
                0x0000d5b8       0x10 ./build/./RepRapFirmware/src/RepRap.o
 .text._ZN6RepRapUlPK11ObjectModelR24ObjectExplorationContextE28_4_FUNES2_S4_
                0x0000d5c8       0x10 ./build/./RepRapFirmware/src/RepRap.o
 .text._ZN6RepRapUlPK11ObjectModelR24ObjectExplorationContextE29_4_FUNES2_S4_
                0x0000d5d8        0xa ./build/./RepRapFirmware/src/RepRap.o
 .text._ZN6RepRapUlPK11ObjectModelR24ObjectExplorationContextE30_4_FUNES2_S4_
                0x0000d5e2        0xa ./build/./RepRapFirmware/src/RepRap.o
 .text._ZN6RepRapUlPK11ObjectModelR24ObjectExplorationContextE31_4_FUNES2_S4_
                0x0000d5ec        0xa ./build/./RepRapFirmware/src/RepRap.o
 .text._ZN6RepRapUlPK11ObjectModelR24ObjectExplorationContextE35_4_FUNES2_S4_
                0x0000d5f6        0xa ./build/./RepRapFirmware/src/RepRap.o
 .text._ZN6RepRapUlPK11ObjectModelR24ObjectExplorationContextE38_4_FUNES2_S4_
                0x0000d600        0xa ./build/./RepRapFirmware/src/RepRap.o
 .text._ZN6RepRapUlPK11ObjectModelR24ObjectExplorationContextE39_4_FUNES2_S4_
                0x0000d60a        0xa ./build/./RepRapFirmware/src/RepRap.o
 .text._ZN6RepRapUlPK11ObjectModelR24ObjectExplorationContextE44_4_FUNES2_S4_
                0x0000d614        0xa ./build/./RepRapFirmware/src/RepRap.o
 .text._ZN6RepRapUlPK11ObjectModelR24ObjectExplorationContextE45_4_FUNES2_S4_
                0x0000d61e        0xa ./build/./RepRapFirmware/src/RepRap.o
 .text._ZN6RepRapUlPK11ObjectModelR24ObjectExplorationContextE46_4_FUNES2_S4_
                0x0000d628        0x8 ./build/./RepRapFirmware/src/RepRap.o
 .text._ZN6RepRapUlPK11ObjectModelR24ObjectExplorationContextE47_4_FUNES2_S4_
                0x0000d630        0xa ./build/./RepRapFirmware/src/RepRap.o
 .text._ZN6RepRapUlPK11ObjectModelR24ObjectExplorationContextE48_4_FUNES2_S4_
                0x0000d63a        0xa ./build/./RepRapFirmware/src/RepRap.o
 .text._ZN6RepRapUlPK11ObjectModelR24ObjectExplorationContextE49_4_FUNES2_S4_
                0x0000d644        0xa ./build/./RepRapFirmware/src/RepRap.o
 .text._ZN6RepRapUlPK11ObjectModelR24ObjectExplorationContextE50_4_FUNES2_S4_
                0x0000d64e        0xa ./build/./RepRapFirmware/src/RepRap.o
 .text._ZN6RepRapUlPK11ObjectModelR24ObjectExplorationContextE51_4_FUNES2_S4_
                0x0000d658        0xa ./build/./RepRapFirmware/src/RepRap.o
 .text._ZN6RepRapUlPK11ObjectModelR24ObjectExplorationContextE52_4_FUNES2_S4_
                0x0000d662        0xa ./build/./RepRapFirmware/src/RepRap.o
 .text._ZN6RepRapUlPK11ObjectModelR24ObjectExplorationContextE57_4_FUNES2_S4_
                0x0000d66c        0xc ./build/./RepRapFirmware/src/RepRap.o
 .text._ZN6RepRapUlPK11ObjectModelR24ObjectExplorationContextE58_4_FUNES2_S4_
                0x0000d678       0x10 ./build/./RepRapFirmware/src/RepRap.o
 .text._ZN6RepRapUlPK11ObjectModelR24ObjectExplorationContextE63_4_FUNES2_S4_
                0x0000d688        0xe ./build/./RepRapFirmware/src/RepRap.o
 .text._ZN6RepRapUlPK11ObjectModelR24ObjectExplorationContextE64_4_FUNES2_S4_
                0x0000d696        0xc ./build/./RepRapFirmware/src/RepRap.o
 *fill*         0x0000d6a2        0x2 
 .text._ZN6RepRapUlPK11ObjectModelR24ObjectExplorationContextE65_4_FUNES2_S4_
                0x0000d6a4       0x10 ./build/./RepRapFirmware/src/RepRap.o
 .text._ZN6RepRapUlPK11ObjectModelR24ObjectExplorationContextE69_4_FUNES2_S4_
                0x0000d6b4        0xc ./build/./RepRapFirmware/src/RepRap.o
 .text._ZN6RepRapUlPK11ObjectModelR24ObjectExplorationContextE70_4_FUNES2_S4_
                0x0000d6c0        0xc ./build/./RepRapFirmware/src/RepRap.o
 .text._ZN6RepRapUlPK11ObjectModelR24ObjectExplorationContextE71_4_FUNES2_S4_
                0x0000d6cc        0xc ./build/./RepRapFirmware/src/RepRap.o
 .text._ZN6RepRapUlPK11ObjectModelR24ObjectExplorationContextE72_4_FUNES2_S4_
                0x0000d6d8        0xc ./build/./RepRapFirmware/src/RepRap.o
 .text._ZN6RepRapUlPK11ObjectModelR24ObjectExplorationContextE73_4_FUNES2_S4_
                0x0000d6e4        0xc ./build/./RepRapFirmware/src/RepRap.o
 .text._ZN6RepRapUlPK11ObjectModelR24ObjectExplorationContextE74_4_FUNES2_S4_
                0x0000d6f0        0xc ./build/./RepRapFirmware/src/RepRap.o
 .text._ZN6RepRapUlPK11ObjectModelR24ObjectExplorationContextE75_4_FUNES2_S4_
                0x0000d6fc        0xc ./build/./RepRapFirmware/src/RepRap.o
 .text._ZN6RepRapUlPK11ObjectModelR24ObjectExplorationContextE76_4_FUNES2_S4_
                0x0000d708        0xc ./build/./RepRapFirmware/src/RepRap.o
 .text._ZN6RepRapUlPK11ObjectModelR24ObjectExplorationContextE77_4_FUNES2_S4_
                0x0000d714        0xc ./build/./RepRapFirmware/src/RepRap.o
 .text._ZN6RepRapUlPK11ObjectModelR24ObjectExplorationContextE78_4_FUNES2_S4_
                0x0000d720        0xc ./build/./RepRapFirmware/src/RepRap.o
 .text._ZN6RepRapUlPK11ObjectModelR24ObjectExplorationContextE79_4_FUNES2_S4_
                0x0000d72c        0xc ./build/./RepRapFirmware/src/RepRap.o
 .text._ZN6RepRapUlPK11ObjectModelR24ObjectExplorationContextE80_4_FUNES2_S4_
                0x0000d738        0xc ./build/./RepRapFirmware/src/RepRap.o
 .text._ZN6RepRapUlPK11ObjectModelR24ObjectExplorationContextE81_4_FUNES2_S4_
                0x0000d744        0xc ./build/./RepRapFirmware/src/RepRap.o
 .text._ZN6RepRapUlPK11ObjectModelR24ObjectExplorationContextE82_4_FUNES2_S4_
                0x0000d750        0xc ./build/./RepRapFirmware/src/RepRap.o
 .text._ZN6RepRapUlPK11ObjectModelR24ObjectExplorationContextE83_4_FUNES2_S4_
                0x0000d75c        0xc ./build/./RepRapFirmware/src/RepRap.o
 .text._ZN6RepRapUlPK11ObjectModelR24ObjectExplorationContextE84_4_FUNES2_S4_
                0x0000d768        0xc ./build/./RepRapFirmware/src/RepRap.o
 .text._ZN6RepRapUlPK11ObjectModelR24ObjectExplorationContextE85_4_FUNES2_S4_
                0x0000d774        0xc ./build/./RepRapFirmware/src/RepRap.o
 .text._ZN6RepRapUlPK11ObjectModelR24ObjectExplorationContextE86_4_FUNES2_S4_
                0x0000d780        0xc ./build/./RepRapFirmware/src/RepRap.o
 .text._ZNK6RepRap29GetObjectModelClassDescriptorEv
                0x0000d78c        0x8 ./build/./RepRapFirmware/src/RepRap.o
                0x0000d78c                RepRap::GetObjectModelClassDescriptor() const
 .text._ZNSt14_Function_base13_Base_managerIZNK6RepRap17GetStatusResponseEh14ResponseSourceEUljE_E10_M_managerERSt9_Any_dataRKS5_St18_Manager_operation
                0x0000d794       0x16 ./build/./RepRapFirmware/src/RepRap.o
 .text._ZNSt14_Function_base13_Base_managerIZNK6RepRap17GetStatusResponseEh14ResponseSourceEUljE0_E10_M_managerERSt9_Any_dataRKS5_St18_Manager_operation
                0x0000d7aa       0x16 ./build/./RepRapFirmware/src/RepRap.o
 .text._ZNSt14_Function_base13_Base_managerIZNK6RepRap17GetStatusResponseEh14ResponseSourceEUljE1_E10_M_managerERSt9_Any_dataRKS5_St18_Manager_operation
                0x0000d7c0       0x16 ./build/./RepRapFirmware/src/RepRap.o
 .text._ZNSt14_Function_base13_Base_managerIZNK6RepRap17GetStatusResponseEh14ResponseSourceEUljE2_E10_M_managerERSt9_Any_dataRKS5_St18_Manager_operation
                0x0000d7d6       0x16 ./build/./RepRapFirmware/src/RepRap.o
 .text._ZNSt14_Function_base13_Base_managerIZNK6RepRap17GetStatusResponseEh14ResponseSourceEUljE3_E10_M_managerERSt9_Any_dataRKS5_St18_Manager_operation
                0x0000d7ec       0x16 ./build/./RepRapFirmware/src/RepRap.o
 .text._ZNSt14_Function_base13_Base_managerIZNK6RepRap17GetStatusResponseEh14ResponseSourceEUljE4_E10_M_managerERSt9_Any_dataRKS5_St18_Manager_operation
                0x0000d802       0x16 ./build/./RepRapFirmware/src/RepRap.o
 .text._ZNSt14_Function_base13_Base_managerIZNK6RepRap17GetStatusResponseEh14ResponseSourceEUljE5_E10_M_managerERSt9_Any_dataRKS5_St18_Manager_operation
                0x0000d818       0x16 ./build/./RepRapFirmware/src/RepRap.o
 .text._ZNSt14_Function_base13_Base_managerIZNK6RepRap17GetStatusResponseEh14ResponseSourceEUljE6_E10_M_managerERSt9_Any_dataRKS5_St18_Manager_operation
                0x0000d82e       0x16 ./build/./RepRapFirmware/src/RepRap.o
 .text._ZNSt14_Function_base13_Base_managerIZNK6RepRap17GetStatusResponseEh14ResponseSourceEUljE7_E10_M_managerERSt9_Any_dataRKS5_St18_Manager_operation
                0x0000d844       0x16 ./build/./RepRapFirmware/src/RepRap.o
 .text._ZNSt14_Function_base13_Base_managerIZNK6RepRap17GetStatusResponseEh14ResponseSourceEUljE8_E10_M_managerERSt9_Any_dataRKS5_St18_Manager_operation
                0x0000d85a       0x16 ./build/./RepRapFirmware/src/RepRap.o
 .text._ZNSt14_Function_base13_Base_managerIZNK6RepRap17GetStatusResponseEh14ResponseSourceEUljE9_E10_M_managerERSt9_Any_dataRKS5_St18_Manager_operation
                0x0000d870       0x16 ./build/./RepRapFirmware/src/RepRap.o
 .text._ZNSt17_Function_handlerIFfjEZNK6RepRap17GetStatusResponseEh14ResponseSourceEUljE10_E9_M_invokeERKSt9_Any_dataOj
                0x0000d886        0xc ./build/./RepRapFirmware/src/RepRap.o
 .text._ZNSt14_Function_base13_Base_managerIZNK6RepRap17GetStatusResponseEh14ResponseSourceEUljE10_E10_M_managerERSt9_Any_dataRKS5_St18_Manager_operation
                0x0000d892       0x16 ./build/./RepRapFirmware/src/RepRap.o
 .text._ZNSt17_Function_handlerIFfjEZNK6RepRap17GetStatusResponseEh14ResponseSourceEUljE11_E9_M_invokeERKSt9_Any_dataOj
                0x0000d8a8        0xc ./build/./RepRapFirmware/src/RepRap.o
 .text._ZNSt14_Function_base13_Base_managerIZNK6RepRap17GetStatusResponseEh14ResponseSourceEUljE11_E10_M_managerERSt9_Any_dataRKS5_St18_Manager_operation
                0x0000d8b4       0x16 ./build/./RepRapFirmware/src/RepRap.o
 .text._ZNSt17_Function_handlerIFijEZNK6RepRap17GetStatusResponseEh14ResponseSourceEUljE12_E9_M_invokeERKSt9_Any_dataOj
                0x0000d8ca        0xc ./build/./RepRapFirmware/src/RepRap.o
 .text._ZNSt14_Function_base13_Base_managerIZNK6RepRap17GetStatusResponseEh14ResponseSourceEUljE12_E10_M_managerERSt9_Any_dataRKS5_St18_Manager_operation
                0x0000d8d6       0x16 ./build/./RepRapFirmware/src/RepRap.o
 .text._ZNSt17_Function_handlerIFijEZNK6RepRap17GetStatusResponseEh14ResponseSourceEUljE13_E9_M_invokeERKSt9_Any_dataOj
                0x0000d8ec        0xc ./build/./RepRapFirmware/src/RepRap.o
 .text._ZNSt14_Function_base13_Base_managerIZNK6RepRap17GetStatusResponseEh14ResponseSourceEUljE13_E10_M_managerERSt9_Any_dataRKS5_St18_Manager_operation
                0x0000d8f8       0x16 ./build/./RepRapFirmware/src/RepRap.o
 .text._ZNSt14_Function_base13_Base_managerIZNK6RepRap17GetStatusResponseEh14ResponseSourceEUljjE14_E10_M_managerERSt9_Any_dataRKS5_St18_Manager_operation
                0x0000d90e       0x16 ./build/./RepRapFirmware/src/RepRap.o
 .text._ZNSt14_Function_base13_Base_managerIZNK6RepRap17GetStatusResponseEh14ResponseSourceEUljjE15_E10_M_managerERSt9_Any_dataRKS5_St18_Manager_operation
                0x0000d924       0x16 ./build/./RepRapFirmware/src/RepRap.o
 .text._ZNSt17_Function_handlerIFfjEZNK6RepRap17GetStatusResponseEh14ResponseSourceEUljE16_E9_M_invokeERKSt9_Any_dataOj
                0x0000d93a        0xc ./build/./RepRapFirmware/src/RepRap.o
 .text._ZNSt14_Function_base13_Base_managerIZNK6RepRap17GetStatusResponseEh14ResponseSourceEUljE16_E10_M_managerERSt9_Any_dataRKS5_St18_Manager_operation
                0x0000d946       0x16 ./build/./RepRapFirmware/src/RepRap.o
 .text._ZNSt14_Function_base13_Base_managerIZNK6RepRap17GetStatusResponseEh14ResponseSourceEUljE17_E10_M_managerERSt9_Any_dataRKS5_St18_Manager_operation
                0x0000d95c       0x16 ./build/./RepRapFirmware/src/RepRap.o
 .text._ZNSt17_Function_handlerIFfjEZN6RepRap17GetConfigResponseEvEUljE_E9_M_invokeERKSt9_Any_dataOj
                0x0000d972        0xe ./build/./RepRapFirmware/src/RepRap.o
 .text._ZNSt14_Function_base13_Base_managerIZN6RepRap17GetConfigResponseEvEUljE_E10_M_managerERSt9_Any_dataRKS4_St18_Manager_operation
                0x0000d980       0x16 ./build/./RepRapFirmware/src/RepRap.o
 .text._ZNSt17_Function_handlerIFfjEZN6RepRap17GetConfigResponseEvEUljE0_E9_M_invokeERKSt9_Any_dataOj
                0x0000d996       0x10 ./build/./RepRapFirmware/src/RepRap.o
 .text._ZNSt14_Function_base13_Base_managerIZN6RepRap17GetConfigResponseEvEUljE0_E10_M_managerERSt9_Any_dataRKS4_St18_Manager_operation
                0x0000d9a6       0x16 ./build/./RepRapFirmware/src/RepRap.o
 .text._ZNSt17_Function_handlerIFfjEZN6RepRap17GetConfigResponseEvEUljE1_E9_M_invokeERKSt9_Any_dataOj
                0x0000d9bc       0x10 ./build/./RepRapFirmware/src/RepRap.o
 .text._ZNSt14_Function_base13_Base_managerIZN6RepRap17GetConfigResponseEvEUljE1_E10_M_managerERSt9_Any_dataRKS4_St18_Manager_operation
                0x0000d9cc       0x16 ./build/./RepRapFirmware/src/RepRap.o
 .text._ZNSt14_Function_base13_Base_managerIZN6RepRap17GetConfigResponseEvEUljE2_E10_M_managerERSt9_Any_dataRKS4_St18_Manager_operation
                0x0000d9e2       0x16 ./build/./RepRapFirmware/src/RepRap.o
 .text._ZNSt17_Function_handlerIFfjEZN6RepRap17GetConfigResponseEvEUljE3_E9_M_invokeERKSt9_Any_dataOj
                0x0000d9f8       0x10 ./build/./RepRapFirmware/src/RepRap.o
 .text._ZNSt14_Function_base13_Base_managerIZN6RepRap17GetConfigResponseEvEUljE3_E10_M_managerERSt9_Any_dataRKS4_St18_Manager_operation
                0x0000da08       0x16 ./build/./RepRapFirmware/src/RepRap.o
 .text._ZNSt17_Function_handlerIFfjEZN6RepRap17GetConfigResponseEvEUljE4_E9_M_invokeERKSt9_Any_dataOj
                0x0000da1e        0xe ./build/./RepRapFirmware/src/RepRap.o
 .text._ZNSt14_Function_base13_Base_managerIZN6RepRap17GetConfigResponseEvEUljE4_E10_M_managerERSt9_Any_dataRKS4_St18_Manager_operation
                0x0000da2c       0x16 ./build/./RepRapFirmware/src/RepRap.o
 .text._ZNSt14_Function_base13_Base_managerIZNK6RepRap23GetLegacyStatusResponseEhiEUljE_E10_M_managerERSt9_Any_dataRKS4_St18_Manager_operation
                0x0000da42       0x16 ./build/./RepRapFirmware/src/RepRap.o
 .text._ZNSt14_Function_base13_Base_managerIZNK6RepRap23GetLegacyStatusResponseEhiEUljE0_E10_M_managerERSt9_Any_dataRKS4_St18_Manager_operation
                0x0000da58       0x16 ./build/./RepRapFirmware/src/RepRap.o
 .text._ZNSt14_Function_base13_Base_managerIZNK6RepRap23GetLegacyStatusResponseEhiEUljE1_E10_M_managerERSt9_Any_dataRKS4_St18_Manager_operation
                0x0000da6e       0x16 ./build/./RepRapFirmware/src/RepRap.o
 .text._ZNSt14_Function_base13_Base_managerIZNK6RepRap23GetLegacyStatusResponseEhiEUljE2_E10_M_managerERSt9_Any_dataRKS4_St18_Manager_operation
                0x0000da84       0x16 ./build/./RepRapFirmware/src/RepRap.o
 .text._ZNSt14_Function_base13_Base_managerIZNK6RepRap23GetLegacyStatusResponseEhiEUljE3_E10_M_managerERSt9_Any_dataRKS4_St18_Manager_operation
                0x0000da9a       0x16 ./build/./RepRapFirmware/src/RepRap.o
 .text._ZN6RepRapD2Ev
                0x0000dab0        0x2 ./build/./RepRapFirmware/src/RepRap.o
                0x0000dab0                RepRap::~RepRap()
                0x0000dab0                RepRap::~RepRap()
 .text._ZN6RepRapD0Ev
                0x0000dab2       0x10 ./build/./RepRapFirmware/src/RepRap.o
                0x0000dab2                RepRap::~RepRap()
 .text._ZN6RepRapUlPK11ObjectModelRK24ObjectExplorationContextE1_4_FUNES2_S5_
                0x0000dac2        0x6 ./build/./RepRapFirmware/src/RepRap.o
 .text._ZNSt17_Function_handlerIFvjjEZNK6RepRap17GetStatusResponseEh14ResponseSourceEUljjE15_E9_M_invokeERKSt9_Any_dataOjS8_
                0x0000dac8       0x24 ./build/./RepRapFirmware/src/RepRap.o
 .text._ZNSt17_Function_handlerIFfjEZNK6RepRap17GetStatusResponseEh14ResponseSourceEUljE0_E9_M_invokeERKSt9_Any_dataOj
                0x0000daec        0xa ./build/./RepRapFirmware/src/RepRap.o
 .text._ZNSt17_Function_handlerIFfjEZNK6RepRap23GetLegacyStatusResponseEhiEUljE0_E9_M_invokeERKSt9_Any_dataOj
                0x0000daf6        0xe ./build/./RepRapFirmware/src/RepRap.o
 .text._ZNSt17_Function_handlerIFijEZNK6RepRap17GetStatusResponseEh14ResponseSourceEUljE3_E9_M_invokeERKSt9_Any_dataOj
                0x0000db04       0x30 ./build/./RepRapFirmware/src/RepRap.o
 .text._ZNSt17_Function_handlerIFPKcjEZNK6RepRap17GetStatusResponseEh14ResponseSourceEUljE4_E9_M_invokeERKSt9_Any_dataOj
                0x0000db34        0xa ./build/./RepRapFirmware/src/RepRap.o
 *fill*         0x0000db3e        0x2 
 .text._ZNSt17_Function_handlerIFfjEZNK6RepRap23GetLegacyStatusResponseEhiEUljE1_E9_M_invokeERKSt9_Any_dataOj
                0x0000db40       0x18 ./build/./RepRapFirmware/src/RepRap.o
 .text._ZNSt17_Function_handlerIFijEZNK6RepRap17GetStatusResponseEh14ResponseSourceEUljE6_E9_M_invokeERKSt9_Any_dataOj
                0x0000db58        0xa ./build/./RepRapFirmware/src/RepRap.o
 .text._ZNSt17_Function_handlerIFfjEZNK6RepRap17GetStatusResponseEh14ResponseSourceEUljE7_E9_M_invokeERKSt9_Any_dataOj
                0x0000db62        0xa ./build/./RepRapFirmware/src/RepRap.o
 .text._ZNSt17_Function_handlerIFPKcjEZNK6RepRap17GetStatusResponseEh14ResponseSourceEUljE9_E9_M_invokeERKSt9_Any_dataOj
                0x0000db6c        0xa ./build/./RepRapFirmware/src/RepRap.o
 .text._ZNSt17_Function_handlerIFfjEZNK6RepRap17GetStatusResponseEh14ResponseSourceEUljE17_E9_M_invokeERKSt9_Any_dataOj
                0x0000db76        0xa ./build/./RepRapFirmware/src/RepRap.o
 .text._ZNSt17_Function_handlerIFijEZN6RepRap17GetConfigResponseEvEUljE2_E9_M_invokeERKSt9_Any_dataOj
                0x0000db80       0x16 ./build/./RepRapFirmware/src/RepRap.o
 .text._ZNSt17_Function_handlerIFfjEZNK6RepRap17GetStatusResponseEh14ResponseSourceEUljE2_E9_M_invokeERKSt9_Any_dataOj
                0x0000db96       0x12 ./build/./RepRapFirmware/src/RepRap.o
 .text._ZN6RepRapUlPK11ObjectModelR24ObjectExplorationContextE68_4_FUNES2_S4_
                0x0000dba8       0x20 ./build/./RepRapFirmware/src/RepRap.o
 .text._ZN6RepRapUlPK11ObjectModelR24ObjectExplorationContextE61_4_FUNES2_S4_
                0x0000dbc8       0x14 ./build/./RepRapFirmware/src/RepRap.o
 .text._ZN6RepRapUlPK11ObjectModelR24ObjectExplorationContextE62_4_FUNES2_S4_
                0x0000dbdc       0x16 ./build/./RepRapFirmware/src/RepRap.o
 .text._ZN6RepRapUlPK11ObjectModelR24ObjectExplorationContextE55_4_FUNES2_S4_
                0x0000dbf2       0x16 ./build/./RepRapFirmware/src/RepRap.o
 .text._ZN6RepRapUlPK11ObjectModelRK24ObjectExplorationContextE5_4_FUNES2_S5_
                0x0000dc08        0xc ./build/./RepRapFirmware/src/RepRap.o
 .text._ZN6RepRapUlPK11ObjectModelR24ObjectExplorationContextE67_4_FUNES2_S4_
                0x0000dc14       0x24 ./build/./RepRapFirmware/src/RepRap.o
 .text._ZN6RepRapUlPK11ObjectModelR24ObjectExplorationContextE54_4_FUNES2_S4_
                0x0000dc38       0x22 ./build/./RepRapFirmware/src/RepRap.o
 *fill*         0x0000dc5a        0x2 
 .text._ZN6RepRapUlPK11ObjectModelR24ObjectExplorationContextE59_4_FUNES2_S4_
                0x0000dc5c       0x34 ./build/./RepRapFirmware/src/RepRap.o
 .text._ZNSt17_Function_handlerIFijEZNK6RepRap17GetStatusResponseEh14ResponseSourceEUljE8_E9_M_invokeERKSt9_Any_dataOj
                0x0000dc90       0x18 ./build/./RepRapFirmware/src/RepRap.o
 .text._ZNSt17_Function_handlerIFijEZNK6RepRap17GetStatusResponseEh14ResponseSourceEUljE_E9_M_invokeERKSt9_Any_dataOj
                0x0000dca8       0x12 ./build/./RepRapFirmware/src/RepRap.o
 .text._ZNK6BitmapItE7IterateESt8functionIFvjjEE.isra.283
                0x0000dcba       0x40 ./build/./RepRapFirmware/src/RepRap.o
 .text._ZN6RepRapUlPK11ObjectModelR24ObjectExplorationContextE43_4_FUNES2_S4_
                0x0000dcfa        0xa ./build/./RepRapFirmware/src/RepRap.o
 .text._ZN6RepRapUlPK11ObjectModelR24ObjectExplorationContextE53_4_FUNES2_S4_
                0x0000dd04        0xa ./build/./RepRapFirmware/src/RepRap.o
 .text._ZN6RepRapUlPK11ObjectModelR24ObjectExplorationContextE60_4_FUNES2_S4_
                0x0000dd0e        0x8 ./build/./RepRapFirmware/src/RepRap.o
 .text._ZN6RepRapUlPK11ObjectModelR24ObjectExplorationContextE32_4_FUNES2_S4_
                0x0000dd16        0xa ./build/./RepRapFirmware/src/RepRap.o
 .text._ZN6RepRapUlPK11ObjectModelR24ObjectExplorationContextE33_4_FUNES2_S4_
                0x0000dd20        0xa ./build/./RepRapFirmware/src/RepRap.o
 .text._ZN6RepRapUlPK11ObjectModelR24ObjectExplorationContextE34_4_FUNES2_S4_
                0x0000dd2a        0xa ./build/./RepRapFirmware/src/RepRap.o
 .text._ZN6RepRapUlPK11ObjectModelR24ObjectExplorationContextE36_4_FUNES2_S4_
                0x0000dd34        0xa ./build/./RepRapFirmware/src/RepRap.o
 .text._ZN6RepRapUlPK11ObjectModelR24ObjectExplorationContextE37_4_FUNES2_S4_
                0x0000dd3e        0xa ./build/./RepRapFirmware/src/RepRap.o
 .text._ZN6RepRapUlPK11ObjectModelR24ObjectExplorationContextE40_4_FUNES2_S4_
                0x0000dd48        0xa ./build/./RepRapFirmware/src/RepRap.o
 .text._ZN6RepRapUlPK11ObjectModelR24ObjectExplorationContextE41_4_FUNES2_S4_
                0x0000dd52        0xa ./build/./RepRapFirmware/src/RepRap.o
 .text._ZN6RepRapUlPK11ObjectModelR24ObjectExplorationContextE42_4_FUNES2_S4_
                0x0000dd5c        0xa ./build/./RepRapFirmware/src/RepRap.o
 .text._ZNSt17_Function_handlerIFijEZNK6RepRap23GetLegacyStatusResponseEhiEUljE3_E9_M_invokeERKSt9_Any_dataOj
                0x0000dd66       0x12 ./build/./RepRapFirmware/src/RepRap.o
 .text._ZNSt17_Function_handlerIFfjEZNK6RepRap23GetLegacyStatusResponseEhiEUljE_E9_M_invokeERKSt9_Any_dataOj
                0x0000dd78        0xa ./build/./RepRapFirmware/src/RepRap.o
 .text._ZNSt17_Function_handlerIFijEZNK6RepRap23GetLegacyStatusResponseEhiEUljE2_E9_M_invokeERKSt9_Any_dataOj
                0x0000dd82        0xa ./build/./RepRapFirmware/src/RepRap.o
 .text._ZNSt17_Function_handlerIFfjEZNK6RepRap17GetStatusResponseEh14ResponseSourceEUljE1_E9_M_invokeERKSt9_Any_dataOj
                0x0000dd8c        0xe ./build/./RepRapFirmware/src/RepRap.o
 *fill*         0x0000dd9a        0x2 
 .text._ZNSt17_Function_handlerIFfjEZNK6RepRap17GetStatusResponseEh14ResponseSourceEUljE5_E9_M_invokeERKSt9_Any_dataOj
                0x0000dd9c       0x18 ./build/./RepRapFirmware/src/RepRap.o
 .text._ZNSt17_Function_handlerIFvjjEZNK6RepRap17GetStatusResponseEh14ResponseSourceEUljjE14_E9_M_invokeERKSt9_Any_dataOjS8_
                0x0000ddb4       0x24 ./build/./RepRapFirmware/src/RepRap.o
 .text._ZN10ReadLockerD2Ev
                0x0000ddd8       0x10 ./build/./RepRapFirmware/src/RepRap.o
                0x0000ddd8                ReadLocker::~ReadLocker()
                0x0000ddd8                ReadLocker::~ReadLocker()
 .text._ZN15ExpressionValueC2EPK11ObjectModel
                0x0000dde8       0x16 ./build/./RepRapFirmware/src/RepRap.o
                0x0000dde8                ExpressionValue::ExpressionValue(ObjectModel const*)
                0x0000dde8                ExpressionValue::ExpressionValue(ObjectModel const*)
 .text._ZN6RepRapUlPK11ObjectModelR24ObjectExplorationContextE21_4_FUNES2_S4_
                0x0000ddfe        0xe ./build/./RepRapFirmware/src/RepRap.o
 .text._ZN6RepRapUlPK11ObjectModelR24ObjectExplorationContextE19_4_FUNES2_S4_
                0x0000de0c        0xe ./build/./RepRapFirmware/src/RepRap.o
 .text._ZN6RepRapUlPK11ObjectModelR24ObjectExplorationContextE17_4_FUNES2_S4_
                0x0000de1a        0xe ./build/./RepRapFirmware/src/RepRap.o
 .text._ZN6RepRapUlPK11ObjectModelR24ObjectExplorationContextE23_4_FUNES2_S4_
                0x0000de28       0x12 ./build/./RepRapFirmware/src/RepRap.o
 .text._ZN6RepRapUlPK11ObjectModelR24ObjectExplorationContextE8_4_FUNES2_S4_
                0x0000de3a       0x20 ./build/./RepRapFirmware/src/RepRap.o
 *fill*         0x0000de5a        0x2 
 .text._ZN6RepRapUlPK11ObjectModelR24ObjectExplorationContextE6_4_FUNES2_S4_
                0x0000de5c       0x38 ./build/./RepRapFirmware/src/RepRap.o
 .text._ZN6RepRapUlPK11ObjectModelR24ObjectExplorationContextE4_4_FUNES2_S4_
                0x0000de94       0x1c ./build/./RepRapFirmware/src/RepRap.o
 .text._ZN6RepRapUlPK11ObjectModelR24ObjectExplorationContextE12_4_FUNES2_S4_
                0x0000deb0       0x20 ./build/./RepRapFirmware/src/RepRap.o
 .text._ZN6RepRapUlPK11ObjectModelR24ObjectExplorationContextE2_4_FUNES2_S4_
                0x0000ded0       0x2a ./build/./RepRapFirmware/src/RepRap.o
 .text._ZNK4Move17GetGeometryStringEv
                0x0000defa        0xc ./build/./RepRapFirmware/src/RepRap.o
                0x0000defa                Move::GetGeometryString() const
 *fill*         0x0000df06        0x2 
 .text._ZN6RepRapC2Ev
                0x0000df08       0x7c ./build/./RepRapFirmware/src/RepRap.o
                0x0000df08                RepRap::RepRap()
                0x0000df08                RepRap::RepRap()
 .text._ZN6RepRap6TimingE11MessageType
                0x0000df84       0x54 ./build/./RepRapFirmware/src/RepRap.o
                0x0000df84                RepRap::Timing(MessageType)
 .text._ZN6RepRap11DiagnosticsE11MessageType
                0x0000dfd8       0xa0 ./build/./RepRapFirmware/src/RepRap.o
                0x0000dfd8                RepRap::Diagnostics(MessageType)
 .text._ZN6RepRap4SpinEv
                0x0000e078      0x194 ./build/./RepRapFirmware/src/RepRap.o
                0x0000e078                RepRap::Spin()
 .text._ZN6RepRap13EmergencyStopEv
                0x0000e20c       0x66 ./build/./RepRapFirmware/src/RepRap.o
                0x0000e20c                RepRap::EmergencyStop()
 .text._ZN6RepRap8SetDebugE6Moduleb
                0x0000e272       0x20 ./build/./RepRapFirmware/src/RepRap.o
                0x0000e272                RepRap::SetDebug(Module, bool)
 .text._ZN6RepRap10ClearDebugEv
                0x0000e292        0x8 ./build/./RepRapFirmware/src/RepRap.o
                0x0000e292                RepRap::ClearDebug()
 *fill*         0x0000e29a        0x2 
 .text._ZN6RepRap10PrintDebugE11MessageType
                0x0000e29c       0xa8 ./build/./RepRapFirmware/src/RepRap.o
                0x0000e29c                RepRap::PrintDebug(MessageType)
 .text._ZN6RepRap7AddToolEP4Tool
                0x0000e344       0x58 ./build/./RepRapFirmware/src/RepRap.o
                0x0000e344                RepRap::AddTool(Tool*)
 .text._ZNK6RepRap20GetLockedCurrentToolEv
                0x0000e39c       0x20 ./build/./RepRapFirmware/src/RepRap.o
                0x0000e39c                RepRap::GetLockedCurrentTool() const
 .text._ZNK6RepRap7GetToolEi
                0x0000e3bc       0x44 ./build/./RepRapFirmware/src/RepRap.o
                0x0000e3bc                RepRap::GetTool(int) const
 .text._ZN6RepRapUlPK11ObjectModelR24ObjectExplorationContextE10_4_FUNES2_S4_
                0x0000e400       0x2a ./build/./RepRapFirmware/src/RepRap.o
 .text._ZN6RepRap10SelectToolEib
                0x0000e42a       0x3a ./build/./RepRapFirmware/src/RepRap.o
                0x0000e42a                RepRap::SelectTool(int, bool)
 .text._ZN6RepRap10DeleteToolEi
                0x0000e464       0xb4 ./build/./RepRapFirmware/src/RepRap.o
                0x0000e464                RepRap::DeleteTool(int)
 .text._ZNK6RepRap9PrintToolEiRK9StringRef
                0x0000e518       0x30 ./build/./RepRapFirmware/src/RepRap.o
                0x0000e518                RepRap::PrintTool(int, StringRef const&) const
 .text._ZN6RepRap11StandbyToolEib
                0x0000e548       0x4c ./build/./RepRapFirmware/src/RepRap.o
                0x0000e548                RepRap::StandbyTool(int, bool)
 .text._ZNK6RepRap20GetCurrentToolNumberEv
                0x0000e594       0x12 ./build/./RepRapFirmware/src/RepRap.o
                0x0000e594                RepRap::GetCurrentToolNumber() const
 .text._ZN6RepRapUlPK11ObjectModelR24ObjectExplorationContextE56_4_FUNES2_S4_
                0x0000e5a6       0x14 ./build/./RepRapFirmware/src/RepRap.o
 *fill*         0x0000e5ba        0x2 
 .text._ZNK6RepRap23GetCurrentOrDefaultToolEv
                0x0000e5bc       0x24 ./build/./RepRapFirmware/src/RepRap.o
                0x0000e5bc                RepRap::GetCurrentOrDefaultTool() const
 .text._ZNK6RepRap22IsHeaterAssignedToToolEa
                0x0000e5e0       0x4c ./build/./RepRapFirmware/src/RepRap.o
                0x0000e5e0                RepRap::IsHeaterAssignedToTool(signed char) const
 .text._ZNK6RepRap26GetNumberOfContiguousToolsEv
                0x0000e62c       0x34 ./build/./RepRapFirmware/src/RepRap.o
                0x0000e62c                RepRap::GetNumberOfContiguousTools() const
 .text._ZNK6RepRap22ReportToolTemperaturesERK9StringRefPK4Toolb
                0x0000e660       0xac ./build/./RepRapFirmware/src/RepRap.o
                0x0000e660                RepRap::ReportToolTemperatures(StringRef const&, Tool const*, bool) const
 .text._ZNK6RepRap25ReportAllToolTemperaturesERK9StringRef
                0x0000e70c       0x40 ./build/./RepRapFirmware/src/RepRap.o
                0x0000e70c                RepRap::ReportAllToolTemperatures(StringRef const&) const
 .text._ZN6RepRap29SetAllToolsFirmwareRetractionER11GCodeBufferRK9StringRefRP12OutputBuffer
                0x0000e74c       0x26 ./build/./RepRapFirmware/src/RepRap.o
                0x0000e74c                RepRap::SetAllToolsFirmwareRetraction(GCodeBuffer&, StringRef const&, OutputBuffer*&)
 .text._ZNK6RepRap15GetCurrentXAxesEv
                0x0000e772        0x8 ./build/./RepRapFirmware/src/RepRap.o
                0x0000e772                RepRap::GetCurrentXAxes() const
 .text._ZNK6RepRap15GetCurrentYAxesEv
                0x0000e77a        0x8 ./build/./RepRapFirmware/src/RepRap.o
                0x0000e77a                RepRap::GetCurrentYAxes() const
 .text._ZN6RepRap21SetPreviousToolNumberEv
                0x0000e782       0x16 ./build/./RepRapFirmware/src/RepRap.o
                0x0000e782                RepRap::SetPreviousToolNumber()
 .text._ZN6RepRap4TickEv
                0x0000e798       0x6c ./build/./RepRapFirmware/src/RepRap.o
                0x0000e798                RepRap::Tick()
 .text._ZNK6RepRap19SpinTimeoutImminentEv
                0x0000e804       0x10 ./build/./RepRapFirmware/src/RepRap.o
                0x0000e804                RepRap::SpinTimeoutImminent() const
 .text._ZN6RepRap19GetFileInfoResponseEPKcRP12OutputBufferb
                0x0000e814      0x19c ./build/./RepRapFirmware/src/RepRap.o
                0x0000e814                RepRap::GetFileInfoResponse(char const*, OutputBuffer*&, bool)
 .text._ZN6RepRap16AppendFloatArrayEP12OutputBufferPKcjSt8functionIFfjEEj
                0x0000e9b0       0x6c ./build/./RepRapFirmware/src/RepRap.o
                0x0000e9b0                RepRap::AppendFloatArray(OutputBuffer*, char const*, unsigned int, std::function<float (unsigned int)>, unsigned int)
 .text._ZN6RepRap14AppendIntArrayEP12OutputBufferPKcjSt8functionIFijEE
                0x0000ea1c       0x64 ./build/./RepRapFirmware/src/RepRap.o
                0x0000ea1c                RepRap::AppendIntArray(OutputBuffer*, char const*, unsigned int, std::function<int (unsigned int)>)
 .text._ZN6RepRap17GetConfigResponseEv
                0x0000ea80      0x208 ./build/./RepRapFirmware/src/RepRap.o
                0x0000ea80                RepRap::GetConfigResponse()
 .text._ZN6RepRap17AppendStringArrayEP12OutputBufferPKcjSt8functionIFS3_jEE
                0x0000ec88       0x5c ./build/./RepRapFirmware/src/RepRap.o
                0x0000ec88                RepRap::AppendStringArray(OutputBuffer*, char const*, unsigned int, std::function<char const* (unsigned int)>)
 .text._ZNK6RepRap16GetModelResponseEPKcS1_
                0x0000ece4       0x8c ./build/./RepRapFirmware/src/RepRap.o
                0x0000ece4                RepRap::GetModelResponse(char const*, char const*) const
 .text._ZN6RepRap4BeepEjj
                0x0000ed70       0x66 ./build/./RepRapFirmware/src/RepRap.o
                0x0000ed70                RepRap::Beep(unsigned int, unsigned int)
 .text._ZN6RepRap10SetMessageEPKc
                0x0000edd6       0x44 ./build/./RepRapFirmware/src/RepRap.o
                0x0000edd6                RepRap::SetMessage(char const*)
 *fill*         0x0000ee1a        0x2 
 .text._ZN6RepRap8SetAlertEPKcS1_if6BitmapItE
                0x0000ee1c       0xb8 ./build/./RepRapFirmware/src/RepRap.o
                0x0000ee1c                RepRap::SetAlert(char const*, char const*, int, float, Bitmap<unsigned short>)
 .text._ZN6RepRap10ClearAlertEv
                0x0000eed4       0x2c ./build/./RepRapFirmware/src/RepRap.o
                0x0000eed4                RepRap::ClearAlert()
 .text._ZNK6RepRap14GetStatusIndexEv
                0x0000ef00       0x8c ./build/./RepRapFirmware/src/RepRap.o
                0x0000ef00                RepRap::GetStatusIndex() const
 .text._ZNK6RepRap23GetLegacyStatusResponseEhi
                0x0000ef8c      0x5a4 ./build/./RepRapFirmware/src/RepRap.o
                0x0000ef8c                RepRap::GetLegacyStatusResponse(unsigned char, int) const
 .text._ZNK6RepRap17GetStatusResponseEh14ResponseSource
                0x0000f530      0xd50 ./build/./RepRapFirmware/src/RepRap.o
                0x0000f530                RepRap::GetStatusResponse(unsigned char, ResponseSource) const
 .text._ZNK6RepRap15GetStatusStringEv
                0x00010280       0x14 ./build/./RepRapFirmware/src/RepRap.o
                0x00010280                RepRap::GetStatusString() const
 .text._ZN6RepRapUlPK11ObjectModelR24ObjectExplorationContextE66_4_FUNES2_S4_
                0x00010294       0x14 ./build/./RepRapFirmware/src/RepRap.o
 .text._ZNK6RepRap7GetNameEv
                0x000102a8        0x4 ./build/./RepRapFirmware/src/RepRap.o
                0x000102a8                RepRap::GetName() const
 .text._ZN6RepRap7SetNameEPKc
                0x000102ac       0x22 ./build/./RepRapFirmware/src/RepRap.o
                0x000102ac                RepRap::SetName(char const*)
 .text._ZN6RepRap30GetProhibitedExtruderMovementsEjj
                0x000102ce       0x66 ./build/./RepRapFirmware/src/RepRap.o
                0x000102ce                RepRap::GetProhibitedExtruderMovements(unsigned int, unsigned int)
 .text._ZN6RepRap20FlagTemperatureFaultEa
                0x00010334       0x28 ./build/./RepRapFirmware/src/RepRap.o
                0x00010334                RepRap::FlagTemperatureFault(signed char)
 .text._ZN6RepRap21ClearTemperatureFaultEaRK9StringRef
                0x0001035c       0x34 ./build/./RepRapFirmware/src/RepRap.o
                0x0001035c                RepRap::ClearTemperatureFault(signed char, StringRef const&)
 .text._ZN6RepRap32CheckFirmwareUpdatePrerequisitesERK9StringRef
                0x00010390       0x14 ./build/./RepRapFirmware/src/RepRap.o
                0x00010390                RepRap::CheckFirmwareUpdatePrerequisites(StringRef const&)
 .text._ZN6RepRap14UpdateFirmwareEv
                0x000103a4        0x2 ./build/./RepRapFirmware/src/RepRap.o
                0x000103a4                RepRap::UpdateFirmware()
 .text._ZN6RepRap8DoDivideEmm
                0x000103a6        0x6 ./build/./RepRapFirmware/src/RepRap.o
                0x000103a6                RepRap::DoDivide(unsigned long, unsigned long)
 .text._ZN6RepRap16GenerateBusFaultEv
                0x000103ac        0x8 ./build/./RepRapFirmware/src/RepRap.o
                0x000103ac                RepRap::GenerateBusFault()
 .text._ZN6RepRap8SinfCosfEf
                0x000103b4       0x1a ./build/./RepRapFirmware/src/RepRap.o
                0x000103b4                RepRap::SinfCosf(float)
 *fill*         0x000103ce        0x2 
 .text._ZNK6RepRap19ReportInternalErrorEPKcS1_i
                0x000103d0       0x20 ./build/./RepRapFirmware/src/RepRap.o
                0x000103d0                RepRap::ReportInternalError(char const*, char const*, int) const
 .text._ZN6StringILj20EE10CopyAndPadEPKc
                0x000103f0       0x1e ./build/./RepRapFirmware/src/RepRap.o
                0x000103f0                String<20u>::CopyAndPad(char const*)
 .text._ZN6RepRap11SetPasswordEPKc
                0x0001040e        0xa ./build/./RepRapFirmware/src/RepRap.o
                0x0001040e                RepRap::SetPassword(char const*)
 .text._ZN6RepRap4InitEv
                0x00010418      0x14c ./build/./RepRapFirmware/src/RepRap.o
                0x00010418                RepRap::Init()
 .text.startup._GLOBAL__sub_I__ZN6RepRap26objectModelClassDescriptorE
                0x00010564       0x10 ./build/./RepRapFirmware/src/RepRap.o
 .text._ZNSt14_Function_base13_Base_managerIZ11ListDriversRK9StringRef6BitmapImEEUljjE_E10_M_managerERSt9_Any_dataRKS8_St18_Manager_operation
                0x00010574       0x1a ./build/./RepRapFirmware/src/RepRapFirmware.o
 *fill*         0x0001058e        0x2 
 .text._ZNSt17_Function_handlerIFvjjEZ11ListDriversRK9StringRef6BitmapImEEUljjE_E9_M_invokeERKSt9_Any_dataOjSB_
                0x00010590        0xc ./build/./RepRapFirmware/src/RepRapFirmware.o
 .text._Z20GetFloatFormatStringj
                0x0001059c       0x14 ./build/./RepRapFirmware/src/RepRapFirmware.o
                0x0001059c                GetFloatFormatString(unsigned int)
 .text._Z13GetModuleNameh
                0x000105b0       0x18 ./build/./RepRapFirmware/src/RepRapFirmware.o
                0x000105b0                GetModuleName(unsigned char)
 .text._ZN11MillisTimer5StartEv
                0x000105c8       0x10 ./build/./RepRapFirmware/src/RepRapFirmware.o
                0x000105c8                MillisTimer::Start()
 .text._ZNK11MillisTimer5CheckEm
                0x000105d8       0x1c ./build/./RepRapFirmware/src/RepRapFirmware.o
                0x000105d8                MillisTimer::Check(unsigned long) const
 .text._ZN11MillisTimer12CheckAndStopEm
                0x000105f4       0x10 ./build/./RepRapFirmware/src/RepRapFirmware.o
                0x000105f4                MillisTimer::CheckAndStop(unsigned long)
 .text.debugPrintf
                0x00010604       0x30 ./build/./RepRapFirmware/src/RepRapFirmware.o
                0x00010604                debugPrintf
 .text._Z5delaym
                0x00010634        0x4 ./build/./RepRapFirmware/src/RepRapFirmware.o
                0x00010634                delay(unsigned long)
 .text._Z7HideNanf
                0x00010638       0x44 ./build/./RepRapFirmware/src/RepRapFirmware.o
                0x00010638                HideNan(float)
 .text._Z11ListDriversRK9StringRef6BitmapImE
                0x0001067c       0x70 ./build/./RepRapFirmware/src/RepRapFirmware.o
                0x0001067c                ListDrivers(StringRef const&, Bitmap<unsigned long>)
 .text.startup._GLOBAL__sub_I_reprap
                0x000106ec       0x24 ./build/./RepRapFirmware/src/RepRapFirmware.o
 .text.MainTask
                0x00010710       0x48 ./build/./RepRapFirmware/src/Tasks.o
                0x00010710                MainTask
 .text._ZN4TaskILj40EED2Ev
                0x00010758        0xc ./build/./RepRapFirmware/src/Tasks.o
                0x00010758                Task<40u>::~Task()
                0x00010758                Task<40u>::~Task()
 .text._ZN4TaskILj966EED2Ev
                0x00010764        0xc ./build/./RepRapFirmware/src/Tasks.o
                0x00010764                Task<966u>::~Task()
                0x00010764                Task<966u>::~Task()
 .text.vApplicationGetIdleTaskMemory
                0x00010770       0x18 ./build/./RepRapFirmware/src/Tasks.o
                0x00010770                vApplicationGetIdleTaskMemory
 .text.AppMain  0x00010788       0x94 ./build/./RepRapFirmware/src/Tasks.o
                0x00010788                AppMain
 .text._ZN5Tasks15GetNeverUsedRamEv
                0x0001081c       0x24 ./build/./RepRapFirmware/src/Tasks.o
                0x0001081c                Tasks::GetNeverUsedRam()
 .text._ZN5Tasks11DiagnosticsE11MessageType
                0x00010840      0x164 ./build/./RepRapFirmware/src/Tasks.o
                0x00010840                Tasks::Diagnostics(MessageType)
 .text.vApplicationTickHook
                0x000109a4       0x14 ./build/./RepRapFirmware/src/Tasks.o
                0x000109a4                vApplicationTickHook
 .text.__tz_lock
                0x000109b8        0x2 ./build/./RepRapFirmware/src/Tasks.o
                0x000109b8                __tz_lock
 .text.__tz_unlock
                0x000109ba        0x2 ./build/./RepRapFirmware/src/Tasks.o
                0x000109ba                __tz_unlock
 .text._tzset_unlocked
                0x000109bc        0x2 ./build/./RepRapFirmware/src/Tasks.o
                0x000109bc                _tzset_unlocked
 *fill*         0x000109be        0x2 
 .text.startup._GLOBAL__sub_I_vApplicationGetIdleTaskMemory
                0x000109c0       0x60 ./build/./RepRapFirmware/src/Tasks.o
 .text._ZN21Duet3DFilamentMonitor9InterruptEv
                0x00010a20       0x68 ./build/./RepRapFirmware/src/FilamentMonitors/Duet3DFilamentMonitor.o
                0x00010a20                Duet3DFilamentMonitor::Interrupt()
 .text._ZN21Duet3DFilamentMonitor17InitReceiveBufferEv
                0x00010a88       0x1a ./build/./RepRapFirmware/src/FilamentMonitors/Duet3DFilamentMonitor.o
                0x00010a88                Duet3DFilamentMonitor::InitReceiveBuffer()
 *fill*         0x00010aa2        0x2 
 .text._ZN21Duet3DFilamentMonitorC2Ejj
                0x00010aa4       0x38 ./build/./RepRapFirmware/src/FilamentMonitors/Duet3DFilamentMonitor.o
                0x00010aa4                Duet3DFilamentMonitor::Duet3DFilamentMonitor(unsigned int, unsigned int)
                0x00010aa4                Duet3DFilamentMonitor::Duet3DFilamentMonitor(unsigned int, unsigned int)
 .text._ZN21Duet3DFilamentMonitor17PollReceiveBufferERt
