Archive member included to satisfy reference by file (symbol)

./build/\libSTMCore.a(uart.o)
                              ./build/./CoreSTM32F4/cores/arduino/syscalls.o (uart_debug_write)
./build/\libSTMCore.a(stm32f4xx_hal.o)
                              ./build/\libSTMCore.a(uart.o) (HAL_GetTick)
./build/\libSTMCore.a(stm32f4xx_hal_cortex.o)
                              ./build/\libSTMCore.a(stm32f4xx_hal.o) (HAL_NVIC_SetPriorityGrouping)
./build/\libSTMCore.a(stm32f4xx_hal_uart.o)
                              ./build/\libSTMCore.a(uart.o) (HAL_UART_Init)
./build/\libSTMCore.a(PeripheralPins.o)
                              ./build/\libSTMCore.a(uart.o) (PinMap_UART_RX)
./build/\libSTMCore.a(main.o)
                              c:/users/andy/.vscode/extensions/metalcode-eu.windows-arm-none-eabi-0.1.6/bin/../lib/gcc/arm-none-eabi/8.2.1/../../../../arm-none-eabi/lib/thumb/v7e-m+fp/hard/crt0.o (main)
./build/\libSTMCore.a(startup_stm32yyxx.o)
                              (Reset_Handler)
./build/\libSTMCore.a(board.o)
                              ./build/\libSTMCore.a(main.o) (init)
./build/\libSTMCore.a(hw_config.o)
                              ./build/\libSTMCore.a(board.o) (hw_config_init)
./build/\libSTMCore.a(pinmap.o)
                              ./build/\libSTMCore.a(uart.o) (pinmap_pinout)
./build/\libSTMCore.a(PortNames.o)
                              ./build/\libSTMCore.a(pinmap.o) (set_GPIO_Port_Clock)
./build/\libSTMCore.a(stm32_def.o)
                              ./build/\libSTMCore.a(pinmap.o) (_Error_Handler)
./build/\libSTMCore.a(system_stm32yyxx.o)
                              ./build/\libSTMCore.a(startup_stm32yyxx.o) (SystemInit)
./build/\libSTMCore.a(stm32f4xx_hal_dma.o)
                              ./build/\libSTMCore.a(stm32f4xx_hal_uart.o) (HAL_DMA_Start_IT)
./build/\libSTMCore.a(stm32f4xx_hal_rcc.o)
                              ./build/\libSTMCore.a(stm32f4xx_hal_uart.o) (HAL_RCC_GetPCLK1Freq)
./build/\libSTMCore.a(variant.o)
                              ./build/\libSTMCore.a(hw_config.o) (SystemClock_Config)
./build/\libSTMCore.a(dwt.o)  ./build/\libSTMCore.a(hw_config.o) (dwt_init)
./build/\libSTMCore.a(stm32f4xx_hal_gpio.o)
                              ./build/\libSTMCore.a(stm32f4xx_hal_rcc.o) (HAL_GPIO_Init)
./build/\libRRFLibraries.a(IP4String.o)
                              ./build/./RepRapFirmware/src/ObjectModel/ObjectModel.o (IP4String::IP4String(unsigned long))
./build/\libRRFLibraries.a(IPAddress.o)
                              ./build/./RepRapFirmware/src/GCodes/GCodeBuffer/BinaryParser.o (IPAddress::SetV4(unsigned char const*))
./build/\libRRFLibraries.a(NamedEnum.o)
                              ./build/./RepRapFirmware/src/GCodes/GCodeBuffer/ExpressionParser.o (NamedEnumLookup(char const*, char const* const*, unsigned int))
./build/\libRRFLibraries.a(NumericConverter.o)
                              ./build/./RepRapFirmware/src/GCodes/GCodeBuffer/ExpressionParser.o (NumericConverter::FitsInInt32() const)
./build/\libRRFLibraries.a(SafeStrtod.o)
                              ./build/./RepRapFirmware/src/GCodes/GCodes3.o (SafeStrtof(char const*, char const**))
./build/\libRRFLibraries.a(SafeVsnprintf.o)
                              ./build/./RepRapFirmware/src/OutputMemory.o (SafeVsnprintf(char*, unsigned int, char const*, std::__va_list))
./build/\libRRFLibraries.a(StringBuffer.o)
                              ./build/./RepRapFirmware/src/GCodes/GCodeBuffer/ExpressionParser.o (StringBuffer::Fix())
./build/\libRRFLibraries.a(StringFunctions.o)
                              ./build/./RepRapFirmware/src/GCodes/GCodes.o (StringEqualsIgnoreCase(char const*, char const*))
./build/\libRRFLibraries.a(StringRef.o)
                              ./build/./RepRapFirmware/src/OutputMemory.o (StringRef::strlen() const)
./build/\libRRFLibraries.a(Strnlen.o)
                              ./build/./RepRapFirmware/src/Heating/Sensors/ThermocoupleSensor31856.o (Strnlen(char const*, unsigned int))
./build/\libRRFLibraries.a(Deviation.o)
                              ./build/./RepRapFirmware/src/GCodes/GCodes4.o (Deviation::Deviation())
./build/\libRRFLibraries.a(Isqrt.o)
                              ./build/./RepRapFirmware/src/Platform.o (isqrt64(unsigned long long))
./build/\libRRFLibraries.a(RTOSIface.o)
                              ./build/./RepRapFirmware/src/Platform.o (Mutex::Create(char const*))
c:/users/andy/.vscode/extensions/metalcode-eu.windows-arm-none-eabi-0.1.6/bin/../lib/gcc/arm-none-eabi/8.2.1/../../../../arm-none-eabi/lib/thumb/v7e-m+fp/hard\libc.a(lib_a-abort.o)
                              ./build/./RepRapFirmware/src/libcpp/vterminate.o (abort)
c:/users/andy/.vscode/extensions/metalcode-eu.windows-arm-none-eabi-0.1.6/bin/../lib/gcc/arm-none-eabi/8.2.1/../../../../arm-none-eabi/lib/thumb/v7e-m+fp/hard\libc.a(lib_a-aeabi_atexit.o)
                              ./build/./RepRapFirmware/src/RepRapFirmware.o (__aeabi_atexit)
c:/users/andy/.vscode/extensions/metalcode-eu.windows-arm-none-eabi-0.1.6/bin/../lib/gcc/arm-none-eabi/8.2.1/../../../../arm-none-eabi/lib/thumb/v7e-m+fp/hard\libc.a(lib_a-cxa_atexit.o)
                              c:/users/andy/.vscode/extensions/metalcode-eu.windows-arm-none-eabi-0.1.6/bin/../lib/gcc/arm-none-eabi/8.2.1/../../../../arm-none-eabi/lib/thumb/v7e-m+fp/hard\libc.a(lib_a-aeabi_atexit.o) (__cxa_atexit)
c:/users/andy/.vscode/extensions/metalcode-eu.windows-arm-none-eabi-0.1.6/bin/../lib/gcc/arm-none-eabi/8.2.1/../../../../arm-none-eabi/lib/thumb/v7e-m+fp/hard\libc.a(lib_a-errno.o)
                              ./build/./RepRapFirmware/src/libc/nano-mallocr.o (__errno)
c:/users/andy/.vscode/extensions/metalcode-eu.windows-arm-none-eabi-0.1.6/bin/../lib/gcc/arm-none-eabi/8.2.1/../../../../arm-none-eabi/lib/thumb/v7e-m+fp/hard\libc.a(lib_a-exit.o)
                              c:/users/andy/.vscode/extensions/metalcode-eu.windows-arm-none-eabi-0.1.6/bin/../lib/gcc/arm-none-eabi/8.2.1/../../../../arm-none-eabi/lib/thumb/v7e-m+fp/hard/crt0.o (exit)
c:/users/andy/.vscode/extensions/metalcode-eu.windows-arm-none-eabi-0.1.6/bin/../lib/gcc/arm-none-eabi/8.2.1/../../../../arm-none-eabi/lib/thumb/v7e-m+fp/hard\libc.a(lib_a-gmtime_r.o)
                              ./build/./RepRapFirmware/src/Platform.o (gmtime_r)
c:/users/andy/.vscode/extensions/metalcode-eu.windows-arm-none-eabi-0.1.6/bin/../lib/gcc/arm-none-eabi/8.2.1/../../../../arm-none-eabi/lib/thumb/v7e-m+fp/hard\libc.a(lib_a-impure.o)
                              c:/users/andy/.vscode/extensions/metalcode-eu.windows-arm-none-eabi-0.1.6/bin/../lib/gcc/arm-none-eabi/8.2.1/../../../../arm-none-eabi/lib/thumb/v7e-m+fp/hard\libc.a(lib_a-exit.o) (_global_impure_ptr)
c:/users/andy/.vscode/extensions/metalcode-eu.windows-arm-none-eabi-0.1.6/bin/../lib/gcc/arm-none-eabi/8.2.1/../../../../arm-none-eabi/lib/thumb/v7e-m+fp/hard\libc.a(lib_a-init.o)
                              c:/users/andy/.vscode/extensions/metalcode-eu.windows-arm-none-eabi-0.1.6/bin/../lib/gcc/arm-none-eabi/8.2.1/../../../../arm-none-eabi/lib/thumb/v7e-m+fp/hard/crt0.o (__libc_init_array)
c:/users/andy/.vscode/extensions/metalcode-eu.windows-arm-none-eabi-0.1.6/bin/../lib/gcc/arm-none-eabi/8.2.1/../../../../arm-none-eabi/lib/thumb/v7e-m+fp/hard\libc.a(lib_a-isalpha.o)
                              ./build/./RepRapFirmware/src/GCodes/GCodeBuffer/ExpressionParser.o (isalpha)
c:/users/andy/.vscode/extensions/metalcode-eu.windows-arm-none-eabi-0.1.6/bin/../lib/gcc/arm-none-eabi/8.2.1/../../../../arm-none-eabi/lib/thumb/v7e-m+fp/hard\libc.a(lib_a-isspace.o)
                              ./build/./RepRapFirmware/src/libc/strptime.o (isspace)
c:/users/andy/.vscode/extensions/metalcode-eu.windows-arm-none-eabi-0.1.6/bin/../lib/gcc/arm-none-eabi/8.2.1/../../../../arm-none-eabi/lib/thumb/v7e-m+fp/hard\libc.a(lib_a-isxdigit.o)
                              ./build/\libRRFLibraries.a(NumericConverter.o) (isxdigit)
c:/users/andy/.vscode/extensions/metalcode-eu.windows-arm-none-eabi-0.1.6/bin/../lib/gcc/arm-none-eabi/8.2.1/../../../../arm-none-eabi/lib/thumb/v7e-m+fp/hard\libc.a(lib_a-lldiv.o)
                              ./build/\libRRFLibraries.a(SafeVsnprintf.o) (lldiv)
c:/users/andy/.vscode/extensions/metalcode-eu.windows-arm-none-eabi-0.1.6/bin/../lib/gcc/arm-none-eabi/8.2.1/../../../../arm-none-eabi/lib/thumb/v7e-m+fp/hard\libc.a(lib_a-mktime.o)
                              ./build/./RepRapFirmware/src/GCodes/GCodes3.o (mktime)
c:/users/andy/.vscode/extensions/metalcode-eu.windows-arm-none-eabi-0.1.6/bin/../lib/gcc/arm-none-eabi/8.2.1/../../../../arm-none-eabi/lib/thumb/v7e-m+fp/hard\libc.a(lib_a-reent.o)
                              ./build/./CoreSTM32F4/cores/arduino/syscalls.o (errno)
c:/users/andy/.vscode/extensions/metalcode-eu.windows-arm-none-eabi-0.1.6/bin/../lib/gcc/arm-none-eabi/8.2.1/../../../../arm-none-eabi/lib/thumb/v7e-m+fp/hard\libc.a(lib_a-signal.o)
                              c:/users/andy/.vscode/extensions/metalcode-eu.windows-arm-none-eabi-0.1.6/bin/../lib/gcc/arm-none-eabi/8.2.1/../../../../arm-none-eabi/lib/thumb/v7e-m+fp/hard\libc.a(lib_a-abort.o) (raise)
c:/users/andy/.vscode/extensions/metalcode-eu.windows-arm-none-eabi-0.1.6/bin/../lib/gcc/arm-none-eabi/8.2.1/../../../../arm-none-eabi/lib/thumb/v7e-m+fp/hard\libc.a(lib_a-signalr.o)
                              c:/users/andy/.vscode/extensions/metalcode-eu.windows-arm-none-eabi-0.1.6/bin/../lib/gcc/arm-none-eabi/8.2.1/../../../../arm-none-eabi/lib/thumb/v7e-m+fp/hard\libc.a(lib_a-signal.o) (_kill_r)
c:/users/andy/.vscode/extensions/metalcode-eu.windows-arm-none-eabi-0.1.6/bin/../lib/gcc/arm-none-eabi/8.2.1/../../../../arm-none-eabi/lib/thumb/v7e-m+fp/hard\libc.a(lib_a-strchr.o)
                              ./build/./RepRapFirmware/src/GCodes/GCodes.o (strchr)
c:/users/andy/.vscode/extensions/metalcode-eu.windows-arm-none-eabi-0.1.6/bin/../lib/gcc/arm-none-eabi/8.2.1/../../../../arm-none-eabi/lib/thumb/v7e-m+fp/hard\libc.a(lib_a-strcmp.o)
                              ./build/./RepRapFirmware/src/GCodes/GCodes2.o (strcmp)
c:/users/andy/.vscode/extensions/metalcode-eu.windows-arm-none-eabi-0.1.6/bin/../lib/gcc/arm-none-eabi/8.2.1/../../../../arm-none-eabi/lib/thumb/v7e-m+fp/hard\libc.a(lib_a-strcpy.o)
                              ./build/./RepRapFirmware/src/Heating/Sensors/TemperatureSensor.o (strcpy)
c:/users/andy/.vscode/extensions/metalcode-eu.windows-arm-none-eabi-0.1.6/bin/../lib/gcc/arm-none-eabi/8.2.1/../../../../arm-none-eabi/lib/thumb/v7e-m+fp/hard\libc.a(lib_a-strlen.o)
                              ./build/./RepRapFirmware/src/OutputMemory.o (strlen)
c:/users/andy/.vscode/extensions/metalcode-eu.windows-arm-none-eabi-0.1.6/bin/../lib/gcc/arm-none-eabi/8.2.1/../../../../arm-none-eabi/lib/thumb/v7e-m+fp/hard\libc.a(lib_a-strncat.o)
                              ./build/\libRRFLibraries.a(StringFunctions.o) (strncat)
c:/users/andy/.vscode/extensions/metalcode-eu.windows-arm-none-eabi-0.1.6/bin/../lib/gcc/arm-none-eabi/8.2.1/../../../../arm-none-eabi/lib/thumb/v7e-m+fp/hard\libc.a(lib_a-strncpy.o)
                              ./build/\libRRFLibraries.a(StringFunctions.o) (strncpy)
c:/users/andy/.vscode/extensions/metalcode-eu.windows-arm-none-eabi-0.1.6/bin/../lib/gcc/arm-none-eabi/8.2.1/../../../../arm-none-eabi/lib/thumb/v7e-m+fp/hard\libc.a(lib_a-strstr.o)
                              ./build/\libRRFLibraries.a(StringRef.o) (strstr)
c:/users/andy/.vscode/extensions/metalcode-eu.windows-arm-none-eabi-0.1.6/bin/../lib/gcc/arm-none-eabi/8.2.1/../../../../arm-none-eabi/lib/thumb/v7e-m+fp/hard\libc.a(lib_a-strtoul.o)
                              ./build/\libRRFLibraries.a(SafeStrtod.o) (strtoul)
c:/users/andy/.vscode/extensions/metalcode-eu.windows-arm-none-eabi-0.1.6/bin/../lib/gcc/arm-none-eabi/8.2.1/../../../../arm-none-eabi/lib/thumb/v7e-m+fp/hard\libc.a(lib_a-syssbrk.o)
                              ./build/./RepRapFirmware/src/libc/nano-mallocr.o (sbrk)
c:/users/andy/.vscode/extensions/metalcode-eu.windows-arm-none-eabi-0.1.6/bin/../lib/gcc/arm-none-eabi/8.2.1/../../../../arm-none-eabi/lib/thumb/v7e-m+fp/hard\libc.a(lib_a-tolower.o)
                              ./build/./RepRapFirmware/src/GCodes/GCodeBuffer/BinaryParser.o (tolower)
c:/users/andy/.vscode/extensions/metalcode-eu.windows-arm-none-eabi-0.1.6/bin/../lib/gcc/arm-none-eabi/8.2.1/../../../../arm-none-eabi/lib/thumb/v7e-m+fp/hard\libc.a(lib_a-toupper.o)
                              ./build/./RepRapFirmware/src/GCodes/GCodes2.o (toupper)
c:/users/andy/.vscode/extensions/metalcode-eu.windows-arm-none-eabi-0.1.6/bin/../lib/gcc/arm-none-eabi/8.2.1/../../../../arm-none-eabi/lib/thumb/v7e-m+fp/hard\libc.a(lib_a-tzcalc_limits.o)
                              c:/users/andy/.vscode/extensions/metalcode-eu.windows-arm-none-eabi-0.1.6/bin/../lib/gcc/arm-none-eabi/8.2.1/../../../../arm-none-eabi/lib/thumb/v7e-m+fp/hard\libc.a(lib_a-mktime.o) (__tzcalc_limits)
c:/users/andy/.vscode/extensions/metalcode-eu.windows-arm-none-eabi-0.1.6/bin/../lib/gcc/arm-none-eabi/8.2.1/../../../../arm-none-eabi/lib/thumb/v7e-m+fp/hard\libc.a(lib_a-tzvars.o)
                              c:/users/andy/.vscode/extensions/metalcode-eu.windows-arm-none-eabi-0.1.6/bin/../lib/gcc/arm-none-eabi/8.2.1/../../../../arm-none-eabi/lib/thumb/v7e-m+fp/hard\libc.a(lib_a-mktime.o) (_daylight)
c:/users/andy/.vscode/extensions/metalcode-eu.windows-arm-none-eabi-0.1.6/bin/../lib/gcc/arm-none-eabi/8.2.1/../../../../arm-none-eabi/lib/thumb/v7e-m+fp/hard\libc.a(lib_a-__atexit.o)
                              c:/users/andy/.vscode/extensions/metalcode-eu.windows-arm-none-eabi-0.1.6/bin/../lib/gcc/arm-none-eabi/8.2.1/../../../../arm-none-eabi/lib/thumb/v7e-m+fp/hard\libc.a(lib_a-cxa_atexit.o) (__register_exitproc)
c:/users/andy/.vscode/extensions/metalcode-eu.windows-arm-none-eabi-0.1.6/bin/../lib/gcc/arm-none-eabi/8.2.1/../../../../arm-none-eabi/lib/thumb/v7e-m+fp/hard\libc.a(lib_a-__call_atexit.o)
                              c:/users/andy/.vscode/extensions/metalcode-eu.windows-arm-none-eabi-0.1.6/bin/../lib/gcc/arm-none-eabi/8.2.1/../../../../arm-none-eabi/lib/thumb/v7e-m+fp/hard\libc.a(lib_a-exit.o) (__call_exitprocs)
c:/users/andy/.vscode/extensions/metalcode-eu.windows-arm-none-eabi-0.1.6/bin/../lib/gcc/arm-none-eabi/8.2.1/../../../../arm-none-eabi/lib/thumb/v7e-m+fp/hard\libc.a(lib_a-atexit.o)
                              c:/users/andy/.vscode/extensions/metalcode-eu.windows-arm-none-eabi-0.1.6/bin/../lib/gcc/arm-none-eabi/8.2.1/../../../../arm-none-eabi/lib/thumb/v7e-m+fp/hard\libc.a(lib_a-__call_atexit.o) (atexit)
c:/users/andy/.vscode/extensions/metalcode-eu.windows-arm-none-eabi-0.1.6/bin/../lib/gcc/arm-none-eabi/8.2.1/../../../../arm-none-eabi/lib/thumb/v7e-m+fp/hard\libc.a(lib_a-ctype_.o)
                              c:/users/andy/.vscode/extensions/metalcode-eu.windows-arm-none-eabi-0.1.6/bin/../lib/gcc/arm-none-eabi/8.2.1/../../../../arm-none-eabi/lib/thumb/v7e-m+fp/hard\libc.a(lib_a-isalpha.o) (_ctype_)
c:/users/andy/.vscode/extensions/metalcode-eu.windows-arm-none-eabi-0.1.6/bin/../lib/gcc/arm-none-eabi/8.2.1/../../../../arm-none-eabi/lib/thumb/v7e-m+fp/hard\libc.a(lib_a-div.o)
                              c:/users/andy/.vscode/extensions/metalcode-eu.windows-arm-none-eabi-0.1.6/bin/../lib/gcc/arm-none-eabi/8.2.1/../../../../arm-none-eabi/lib/thumb/v7e-m+fp/hard\libc.a(lib_a-mktime.o) (div)
c:/users/andy/.vscode/extensions/metalcode-eu.windows-arm-none-eabi-0.1.6/bin/../lib/gcc/arm-none-eabi/8.2.1/../../../../arm-none-eabi/lib/thumb/v7e-m+fp/hard\libc.a(lib_a-fini.o)
                              c:/users/andy/.vscode/extensions/metalcode-eu.windows-arm-none-eabi-0.1.6/bin/../lib/gcc/arm-none-eabi/8.2.1/../../../../arm-none-eabi/lib/thumb/v7e-m+fp/hard\libc.a(lib_a-__call_atexit.o) (__libc_fini_array)
c:/users/andy/.vscode/extensions/metalcode-eu.windows-arm-none-eabi-0.1.6/bin/../lib/gcc/arm-none-eabi/8.2.1/../../../../arm-none-eabi/lib/thumb/v7e-m+fp/hard\libc.a(lib_a-freer.o)
                              c:/users/andy/.vscode/extensions/metalcode-eu.windows-arm-none-eabi-0.1.6/bin/../lib/gcc/arm-none-eabi/8.2.1/../../../../arm-none-eabi/lib/thumb/v7e-m+fp/hard\libc.a(lib_a-reent.o) (_free_r)
c:/users/andy/.vscode/extensions/metalcode-eu.windows-arm-none-eabi-0.1.6/bin/../lib/gcc/arm-none-eabi/8.2.1/../../../../arm-none-eabi/lib/thumb/v7e-m+fp/hard\libc.a(lib_a-gettzinfo.o)
                              c:/users/andy/.vscode/extensions/metalcode-eu.windows-arm-none-eabi-0.1.6/bin/../lib/gcc/arm-none-eabi/8.2.1/../../../../arm-none-eabi/lib/thumb/v7e-m+fp/hard\libc.a(lib_a-mktime.o) (__gettzinfo)
c:/users/andy/.vscode/extensions/metalcode-eu.windows-arm-none-eabi-0.1.6/bin/../lib/gcc/arm-none-eabi/8.2.1/../../../../arm-none-eabi/lib/thumb/v7e-m+fp/hard\libc.a(lib_a-lock.o)
                              c:/users/andy/.vscode/extensions/metalcode-eu.windows-arm-none-eabi-0.1.6/bin/../lib/gcc/arm-none-eabi/8.2.1/../../../../arm-none-eabi/lib/thumb/v7e-m+fp/hard\libc.a(lib_a-__atexit.o) (__retarget_lock_acquire_recursive)
c:/users/andy/.vscode/extensions/metalcode-eu.windows-arm-none-eabi-0.1.6/bin/../lib/gcc/arm-none-eabi/8.2.1/../../../../arm-none-eabi/lib/thumb/v7e-m+fp/hard\libc.a(lib_a-mallocr.o)
                              c:/users/andy/.vscode/extensions/metalcode-eu.windows-arm-none-eabi-0.1.6/bin/../lib/gcc/arm-none-eabi/8.2.1/../../../../arm-none-eabi/lib/thumb/v7e-m+fp/hard\libc.a(lib_a-freer.o) (__malloc_sbrk_base)
c:/users/andy/.vscode/extensions/metalcode-eu.windows-arm-none-eabi-0.1.6/bin/../lib/gcc/arm-none-eabi/8.2.1/../../../../arm-none-eabi/lib/thumb/v7e-m+fp/hard\libc.a(lib_a-month_lengths.o)
                              c:/users/andy/.vscode/extensions/metalcode-eu.windows-arm-none-eabi-0.1.6/bin/../lib/gcc/arm-none-eabi/8.2.1/../../../../arm-none-eabi/lib/thumb/v7e-m+fp/hard\libc.a(lib_a-tzcalc_limits.o) (__month_lengths)
c:/users/andy/.vscode/extensions/metalcode-eu.windows-arm-none-eabi-0.1.6/bin/../lib/gcc/arm-none-eabi/8.2.1/../../../../arm-none-eabi/lib/thumb/v7e-m+fp/hard\libc.a(lib_a-sbrkr.o)
                              c:/users/andy/.vscode/extensions/metalcode-eu.windows-arm-none-eabi-0.1.6/bin/../lib/gcc/arm-none-eabi/8.2.1/../../../../arm-none-eabi/lib/thumb/v7e-m+fp/hard\libc.a(lib_a-syssbrk.o) (_sbrk_r)
c:/users/andy/.vscode/extensions/metalcode-eu.windows-arm-none-eabi-0.1.6/bin/../lib/gcc/arm-none-eabi/8.2.1/../../../../arm-none-eabi/lib/thumb/v7e-m+fp/hard\libc.a(lib_a-strnlen.o)
                              c:/users/andy/.vscode/extensions/metalcode-eu.windows-arm-none-eabi-0.1.6/bin/../lib/gcc/arm-none-eabi/8.2.1/../../../../arm-none-eabi/lib/thumb/v7e-m+fp/hard\libc.a(lib_a-strstr.o) (strnlen)
c:/users/andy/.vscode/extensions/metalcode-eu.windows-arm-none-eabi-0.1.6/bin/../lib/gcc/arm-none-eabi/8.2.1/../../../../arm-none-eabi/lib/thumb/v7e-m+fp/hard\libm.a(lib_a-s_llrint.o)
                              ./build/\libRRFLibraries.a(SafeVsnprintf.o) (llrint)
c:/users/andy/.vscode/extensions/metalcode-eu.windows-arm-none-eabi-0.1.6/bin/../lib/gcc/arm-none-eabi/8.2.1/../../../../arm-none-eabi/lib/thumb/v7e-m+fp/hard\libm.a(lib_a-sf_atan.o)
                              ./build/./RepRapFirmware/src/GCodes/GCodes2.o (atanf)
c:/users/andy/.vscode/extensions/metalcode-eu.windows-arm-none-eabi-0.1.6/bin/../lib/gcc/arm-none-eabi/8.2.1/../../../../arm-none-eabi/lib/thumb/v7e-m+fp/hard\libm.a(lib_a-sf_cos.o)
                              ./build/./RepRapFirmware/src/RepRap.o (cosf)
c:/users/andy/.vscode/extensions/metalcode-eu.windows-arm-none-eabi-0.1.6/bin/../lib/gcc/arm-none-eabi/8.2.1/../../../../arm-none-eabi/lib/thumb/v7e-m+fp/hard\libm.a(lib_a-sf_fabs.o)
                              c:/users/andy/.vscode/extensions/metalcode-eu.windows-arm-none-eabi-0.1.6/bin/../lib/gcc/arm-none-eabi/8.2.1/../../../../arm-none-eabi/lib/thumb/v7e-m+fp/hard\libm.a(lib_a-sf_atan.o) (fabsf)
c:/users/andy/.vscode/extensions/metalcode-eu.windows-arm-none-eabi-0.1.6/bin/../lib/gcc/arm-none-eabi/8.2.1/../../../../arm-none-eabi/lib/thumb/v7e-m+fp/hard\libm.a(lib_a-sf_floor.o)
                              ./build/./RepRapFirmware/src/GCodes/GCodes.o (floorf)
c:/users/andy/.vscode/extensions/metalcode-eu.windows-arm-none-eabi-0.1.6/bin/../lib/gcc/arm-none-eabi/8.2.1/../../../../arm-none-eabi/lib/thumb/v7e-m+fp/hard\libm.a(lib_a-sf_lrint.o)
                              ./build/./RepRapFirmware/src/Platform.o (lrintf)
c:/users/andy/.vscode/extensions/metalcode-eu.windows-arm-none-eabi-0.1.6/bin/../lib/gcc/arm-none-eabi/8.2.1/../../../../arm-none-eabi/lib/thumb/v7e-m+fp/hard\libm.a(lib_a-sf_rint.o)
                              ./build/./RepRapFirmware/src/GCodes/GCodeFileInfo.o (rintf)
c:/users/andy/.vscode/extensions/metalcode-eu.windows-arm-none-eabi-0.1.6/bin/../lib/gcc/arm-none-eabi/8.2.1/../../../../arm-none-eabi/lib/thumb/v7e-m+fp/hard\libm.a(lib_a-sf_round.o)
                              ./build/./RepRapFirmware/src/RepRap.o (roundf)
c:/users/andy/.vscode/extensions/metalcode-eu.windows-arm-none-eabi-0.1.6/bin/../lib/gcc/arm-none-eabi/8.2.1/../../../../arm-none-eabi/lib/thumb/v7e-m+fp/hard\libm.a(lib_a-sf_sin.o)
                              ./build/./RepRapFirmware/src/RepRap.o (sinf)
c:/users/andy/.vscode/extensions/metalcode-eu.windows-arm-none-eabi-0.1.6/bin/../lib/gcc/arm-none-eabi/8.2.1/../../../../arm-none-eabi/lib/thumb/v7e-m+fp/hard\libm.a(lib_a-sf_tan.o)
                              ./build/./RepRapFirmware/src/GCodes/GCodeBuffer/ExpressionParser.o (tanf)
c:/users/andy/.vscode/extensions/metalcode-eu.windows-arm-none-eabi-0.1.6/bin/../lib/gcc/arm-none-eabi/8.2.1/../../../../arm-none-eabi/lib/thumb/v7e-m+fp/hard\libm.a(lib_a-w_pow.o)
                              ./build/\libRRFLibraries.a(NumericConverter.o) (pow)
c:/users/andy/.vscode/extensions/metalcode-eu.windows-arm-none-eabi-0.1.6/bin/../lib/gcc/arm-none-eabi/8.2.1/../../../../arm-none-eabi/lib/thumb/v7e-m+fp/hard\libm.a(lib_a-wf_acos.o)
                              ./build/./RepRapFirmware/src/GCodes/GCodeBuffer/ExpressionParser.o (acosf)
c:/users/andy/.vscode/extensions/metalcode-eu.windows-arm-none-eabi-0.1.6/bin/../lib/gcc/arm-none-eabi/8.2.1/../../../../arm-none-eabi/lib/thumb/v7e-m+fp/hard\libm.a(lib_a-wf_asin.o)
                              ./build/./RepRapFirmware/src/GCodes/GCodeBuffer/ExpressionParser.o (asinf)
c:/users/andy/.vscode/extensions/metalcode-eu.windows-arm-none-eabi-0.1.6/bin/../lib/gcc/arm-none-eabi/8.2.1/../../../../arm-none-eabi/lib/thumb/v7e-m+fp/hard\libm.a(lib_a-wf_atan2.o)
                              ./build/./RepRapFirmware/src/GCodes/GCodes.o (atan2f)
c:/users/andy/.vscode/extensions/metalcode-eu.windows-arm-none-eabi-0.1.6/bin/../lib/gcc/arm-none-eabi/8.2.1/../../../../arm-none-eabi/lib/thumb/v7e-m+fp/hard\libm.a(lib_a-wf_exp.o)
                              ./build/./RepRapFirmware/src/Heating/LocalHeater.o (expf)
c:/users/andy/.vscode/extensions/metalcode-eu.windows-arm-none-eabi-0.1.6/bin/../lib/gcc/arm-none-eabi/8.2.1/../../../../arm-none-eabi/lib/thumb/v7e-m+fp/hard\libm.a(lib_a-wf_fmod.o)
                              ./build/./RepRapFirmware/src/GCodes/GCodeBuffer/ExpressionParser.o (fmodf)
c:/users/andy/.vscode/extensions/metalcode-eu.windows-arm-none-eabi-0.1.6/bin/../lib/gcc/arm-none-eabi/8.2.1/../../../../arm-none-eabi/lib/thumb/v7e-m+fp/hard\libm.a(lib_a-wf_log.o)
                              ./build/./RepRapFirmware/src/Heating/LocalHeater.o (logf)
c:/users/andy/.vscode/extensions/metalcode-eu.windows-arm-none-eabi-0.1.6/bin/../lib/gcc/arm-none-eabi/8.2.1/../../../../arm-none-eabi/lib/thumb/v7e-m+fp/hard\libm.a(lib_a-wf_pow.o)
                              ./build/./RepRapFirmware/src/Heating/FOPDT.o (powf)
c:/users/andy/.vscode/extensions/metalcode-eu.windows-arm-none-eabi-0.1.6/bin/../lib/gcc/arm-none-eabi/8.2.1/../../../../arm-none-eabi/lib/thumb/v7e-m+fp/hard\libm.a(lib_a-wf_sqrt.o)
                              ./build/./RepRapFirmware/src/GCodes/GCodes.o (sqrtf)
c:/users/andy/.vscode/extensions/metalcode-eu.windows-arm-none-eabi-0.1.6/bin/../lib/gcc/arm-none-eabi/8.2.1/../../../../arm-none-eabi/lib/thumb/v7e-m+fp/hard\libm.a(lib_a-e_pow.o)
                              c:/users/andy/.vscode/extensions/metalcode-eu.windows-arm-none-eabi-0.1.6/bin/../lib/gcc/arm-none-eabi/8.2.1/../../../../arm-none-eabi/lib/thumb/v7e-m+fp/hard\libm.a(lib_a-w_pow.o) (__ieee754_pow)
c:/users/andy/.vscode/extensions/metalcode-eu.windows-arm-none-eabi-0.1.6/bin/../lib/gcc/arm-none-eabi/8.2.1/../../../../arm-none-eabi/lib/thumb/v7e-m+fp/hard\libm.a(lib_a-e_sqrt.o)
                              c:/users/andy/.vscode/extensions/metalcode-eu.windows-arm-none-eabi-0.1.6/bin/../lib/gcc/arm-none-eabi/8.2.1/../../../../arm-none-eabi/lib/thumb/v7e-m+fp/hard\libm.a(lib_a-e_pow.o) (__ieee754_sqrt)
c:/users/andy/.vscode/extensions/metalcode-eu.windows-arm-none-eabi-0.1.6/bin/../lib/gcc/arm-none-eabi/8.2.1/../../../../arm-none-eabi/lib/thumb/v7e-m+fp/hard\libm.a(lib_a-ef_acos.o)
                              c:/users/andy/.vscode/extensions/metalcode-eu.windows-arm-none-eabi-0.1.6/bin/../lib/gcc/arm-none-eabi/8.2.1/../../../../arm-none-eabi/lib/thumb/v7e-m+fp/hard\libm.a(lib_a-wf_acos.o) (__ieee754_acosf)
c:/users/andy/.vscode/extensions/metalcode-eu.windows-arm-none-eabi-0.1.6/bin/../lib/gcc/arm-none-eabi/8.2.1/../../../../arm-none-eabi/lib/thumb/v7e-m+fp/hard\libm.a(lib_a-ef_asin.o)
                              c:/users/andy/.vscode/extensions/metalcode-eu.windows-arm-none-eabi-0.1.6/bin/../lib/gcc/arm-none-eabi/8.2.1/../../../../arm-none-eabi/lib/thumb/v7e-m+fp/hard\libm.a(lib_a-wf_asin.o) (__ieee754_asinf)
c:/users/andy/.vscode/extensions/metalcode-eu.windows-arm-none-eabi-0.1.6/bin/../lib/gcc/arm-none-eabi/8.2.1/../../../../arm-none-eabi/lib/thumb/v7e-m+fp/hard\libm.a(lib_a-ef_atan2.o)
                              c:/users/andy/.vscode/extensions/metalcode-eu.windows-arm-none-eabi-0.1.6/bin/../lib/gcc/arm-none-eabi/8.2.1/../../../../arm-none-eabi/lib/thumb/v7e-m+fp/hard\libm.a(lib_a-wf_atan2.o) (__ieee754_atan2f)
c:/users/andy/.vscode/extensions/metalcode-eu.windows-arm-none-eabi-0.1.6/bin/../lib/gcc/arm-none-eabi/8.2.1/../../../../arm-none-eabi/lib/thumb/v7e-m+fp/hard\libm.a(lib_a-ef_exp.o)
                              c:/users/andy/.vscode/extensions/metalcode-eu.windows-arm-none-eabi-0.1.6/bin/../lib/gcc/arm-none-eabi/8.2.1/../../../../arm-none-eabi/lib/thumb/v7e-m+fp/hard\libm.a(lib_a-wf_exp.o) (__ieee754_expf)
c:/users/andy/.vscode/extensions/metalcode-eu.windows-arm-none-eabi-0.1.6/bin/../lib/gcc/arm-none-eabi/8.2.1/../../../../arm-none-eabi/lib/thumb/v7e-m+fp/hard\libm.a(lib_a-ef_fmod.o)
                              c:/users/andy/.vscode/extensions/metalcode-eu.windows-arm-none-eabi-0.1.6/bin/../lib/gcc/arm-none-eabi/8.2.1/../../../../arm-none-eabi/lib/thumb/v7e-m+fp/hard\libm.a(lib_a-wf_fmod.o) (__ieee754_fmodf)
c:/users/andy/.vscode/extensions/metalcode-eu.windows-arm-none-eabi-0.1.6/bin/../lib/gcc/arm-none-eabi/8.2.1/../../../../arm-none-eabi/lib/thumb/v7e-m+fp/hard\libm.a(lib_a-ef_log.o)
                              c:/users/andy/.vscode/extensions/metalcode-eu.windows-arm-none-eabi-0.1.6/bin/../lib/gcc/arm-none-eabi/8.2.1/../../../../arm-none-eabi/lib/thumb/v7e-m+fp/hard\libm.a(lib_a-wf_log.o) (__ieee754_logf)
c:/users/andy/.vscode/extensions/metalcode-eu.windows-arm-none-eabi-0.1.6/bin/../lib/gcc/arm-none-eabi/8.2.1/../../../../arm-none-eabi/lib/thumb/v7e-m+fp/hard\libm.a(lib_a-ef_pow.o)
                              c:/users/andy/.vscode/extensions/metalcode-eu.windows-arm-none-eabi-0.1.6/bin/../lib/gcc/arm-none-eabi/8.2.1/../../../../arm-none-eabi/lib/thumb/v7e-m+fp/hard\libm.a(lib_a-wf_pow.o) (__ieee754_powf)
c:/users/andy/.vscode/extensions/metalcode-eu.windows-arm-none-eabi-0.1.6/bin/../lib/gcc/arm-none-eabi/8.2.1/../../../../arm-none-eabi/lib/thumb/v7e-m+fp/hard\libm.a(lib_a-ef_rem_pio2.o)
                              c:/users/andy/.vscode/extensions/metalcode-eu.windows-arm-none-eabi-0.1.6/bin/../lib/gcc/arm-none-eabi/8.2.1/../../../../arm-none-eabi/lib/thumb/v7e-m+fp/hard\libm.a(lib_a-sf_cos.o) (__ieee754_rem_pio2f)
c:/users/andy/.vscode/extensions/metalcode-eu.windows-arm-none-eabi-0.1.6/bin/../lib/gcc/arm-none-eabi/8.2.1/../../../../arm-none-eabi/lib/thumb/v7e-m+fp/hard\libm.a(lib_a-ef_sqrt.o)
                              c:/users/andy/.vscode/extensions/metalcode-eu.windows-arm-none-eabi-0.1.6/bin/../lib/gcc/arm-none-eabi/8.2.1/../../../../arm-none-eabi/lib/thumb/v7e-m+fp/hard\libm.a(lib_a-wf_sqrt.o) (__ieee754_sqrtf)
c:/users/andy/.vscode/extensions/metalcode-eu.windows-arm-none-eabi-0.1.6/bin/../lib/gcc/arm-none-eabi/8.2.1/../../../../arm-none-eabi/lib/thumb/v7e-m+fp/hard\libm.a(lib_a-kf_cos.o)
                              c:/users/andy/.vscode/extensions/metalcode-eu.windows-arm-none-eabi-0.1.6/bin/../lib/gcc/arm-none-eabi/8.2.1/../../../../arm-none-eabi/lib/thumb/v7e-m+fp/hard\libm.a(lib_a-sf_cos.o) (__kernel_cosf)
c:/users/andy/.vscode/extensions/metalcode-eu.windows-arm-none-eabi-0.1.6/bin/../lib/gcc/arm-none-eabi/8.2.1/../../../../arm-none-eabi/lib/thumb/v7e-m+fp/hard\libm.a(lib_a-kf_rem_pio2.o)
                              c:/users/andy/.vscode/extensions/metalcode-eu.windows-arm-none-eabi-0.1.6/bin/../lib/gcc/arm-none-eabi/8.2.1/../../../../arm-none-eabi/lib/thumb/v7e-m+fp/hard\libm.a(lib_a-ef_rem_pio2.o) (__kernel_rem_pio2f)
c:/users/andy/.vscode/extensions/metalcode-eu.windows-arm-none-eabi-0.1.6/bin/../lib/gcc/arm-none-eabi/8.2.1/../../../../arm-none-eabi/lib/thumb/v7e-m+fp/hard\libm.a(lib_a-kf_sin.o)
                              c:/users/andy/.vscode/extensions/metalcode-eu.windows-arm-none-eabi-0.1.6/bin/../lib/gcc/arm-none-eabi/8.2.1/../../../../arm-none-eabi/lib/thumb/v7e-m+fp/hard\libm.a(lib_a-sf_cos.o) (__kernel_sinf)
c:/users/andy/.vscode/extensions/metalcode-eu.windows-arm-none-eabi-0.1.6/bin/../lib/gcc/arm-none-eabi/8.2.1/../../../../arm-none-eabi/lib/thumb/v7e-m+fp/hard\libm.a(lib_a-kf_tan.o)
                              c:/users/andy/.vscode/extensions/metalcode-eu.windows-arm-none-eabi-0.1.6/bin/../lib/gcc/arm-none-eabi/8.2.1/../../../../arm-none-eabi/lib/thumb/v7e-m+fp/hard\libm.a(lib_a-sf_tan.o) (__kernel_tanf)
c:/users/andy/.vscode/extensions/metalcode-eu.windows-arm-none-eabi-0.1.6/bin/../lib/gcc/arm-none-eabi/8.2.1/../../../../arm-none-eabi/lib/thumb/v7e-m+fp/hard\libm.a(lib_a-s_fabs.o)
                              c:/users/andy/.vscode/extensions/metalcode-eu.windows-arm-none-eabi-0.1.6/bin/../lib/gcc/arm-none-eabi/8.2.1/../../../../arm-none-eabi/lib/thumb/v7e-m+fp/hard\libm.a(lib_a-e_pow.o) (fabs)
c:/users/andy/.vscode/extensions/metalcode-eu.windows-arm-none-eabi-0.1.6/bin/../lib/gcc/arm-none-eabi/8.2.1/../../../../arm-none-eabi/lib/thumb/v7e-m+fp/hard\libm.a(lib_a-s_finite.o)
                              c:/users/andy/.vscode/extensions/metalcode-eu.windows-arm-none-eabi-0.1.6/bin/../lib/gcc/arm-none-eabi/8.2.1/../../../../arm-none-eabi/lib/thumb/v7e-m+fp/hard\libm.a(lib_a-w_pow.o) (finite)
c:/users/andy/.vscode/extensions/metalcode-eu.windows-arm-none-eabi-0.1.6/bin/../lib/gcc/arm-none-eabi/8.2.1/../../../../arm-none-eabi/lib/thumb/v7e-m+fp/hard\libm.a(lib_a-s_lib_ver.o)
                              c:/users/andy/.vscode/extensions/metalcode-eu.windows-arm-none-eabi-0.1.6/bin/../lib/gcc/arm-none-eabi/8.2.1/../../../../arm-none-eabi/lib/thumb/v7e-m+fp/hard\libm.a(lib_a-w_pow.o) (__fdlib_version)
c:/users/andy/.vscode/extensions/metalcode-eu.windows-arm-none-eabi-0.1.6/bin/../lib/gcc/arm-none-eabi/8.2.1/../../../../arm-none-eabi/lib/thumb/v7e-m+fp/hard\libm.a(lib_a-s_matherr.o)
                              c:/users/andy/.vscode/extensions/metalcode-eu.windows-arm-none-eabi-0.1.6/bin/../lib/gcc/arm-none-eabi/8.2.1/../../../../arm-none-eabi/lib/thumb/v7e-m+fp/hard\libm.a(lib_a-w_pow.o) (matherr)
c:/users/andy/.vscode/extensions/metalcode-eu.windows-arm-none-eabi-0.1.6/bin/../lib/gcc/arm-none-eabi/8.2.1/../../../../arm-none-eabi/lib/thumb/v7e-m+fp/hard\libm.a(lib_a-s_nan.o)
                              c:/users/andy/.vscode/extensions/metalcode-eu.windows-arm-none-eabi-0.1.6/bin/../lib/gcc/arm-none-eabi/8.2.1/../../../../arm-none-eabi/lib/thumb/v7e-m+fp/hard\libm.a(lib_a-wf_acos.o) (nan)
c:/users/andy/.vscode/extensions/metalcode-eu.windows-arm-none-eabi-0.1.6/bin/../lib/gcc/arm-none-eabi/8.2.1/../../../../arm-none-eabi/lib/thumb/v7e-m+fp/hard\libm.a(lib_a-s_rint.o)
                              c:/users/andy/.vscode/extensions/metalcode-eu.windows-arm-none-eabi-0.1.6/bin/../lib/gcc/arm-none-eabi/8.2.1/../../../../arm-none-eabi/lib/thumb/v7e-m+fp/hard\libm.a(lib_a-w_pow.o) (rint)
c:/users/andy/.vscode/extensions/metalcode-eu.windows-arm-none-eabi-0.1.6/bin/../lib/gcc/arm-none-eabi/8.2.1/../../../../arm-none-eabi/lib/thumb/v7e-m+fp/hard\libm.a(lib_a-s_scalbn.o)
                              c:/users/andy/.vscode/extensions/metalcode-eu.windows-arm-none-eabi-0.1.6/bin/../lib/gcc/arm-none-eabi/8.2.1/../../../../arm-none-eabi/lib/thumb/v7e-m+fp/hard\libm.a(lib_a-e_pow.o) (scalbn)
c:/users/andy/.vscode/extensions/metalcode-eu.windows-arm-none-eabi-0.1.6/bin/../lib/gcc/arm-none-eabi/8.2.1/../../../../arm-none-eabi/lib/thumb/v7e-m+fp/hard\libm.a(lib_a-sf_finite.o)
                              c:/users/andy/.vscode/extensions/metalcode-eu.windows-arm-none-eabi-0.1.6/bin/../lib/gcc/arm-none-eabi/8.2.1/../../../../arm-none-eabi/lib/thumb/v7e-m+fp/hard\libm.a(lib_a-wf_exp.o) (finitef)
c:/users/andy/.vscode/extensions/metalcode-eu.windows-arm-none-eabi-0.1.6/bin/../lib/gcc/arm-none-eabi/8.2.1/../../../../arm-none-eabi/lib/thumb/v7e-m+fp/hard\libm.a(lib_a-sf_nan.o)
                              c:/users/andy/.vscode/extensions/metalcode-eu.windows-arm-none-eabi-0.1.6/bin/../lib/gcc/arm-none-eabi/8.2.1/../../../../arm-none-eabi/lib/thumb/v7e-m+fp/hard\libm.a(lib_a-ef_pow.o) (nanf)
c:/users/andy/.vscode/extensions/metalcode-eu.windows-arm-none-eabi-0.1.6/bin/../lib/gcc/arm-none-eabi/8.2.1/../../../../arm-none-eabi/lib/thumb/v7e-m+fp/hard\libm.a(lib_a-sf_scalbn.o)
                              c:/users/andy/.vscode/extensions/metalcode-eu.windows-arm-none-eabi-0.1.6/bin/../lib/gcc/arm-none-eabi/8.2.1/../../../../arm-none-eabi/lib/thumb/v7e-m+fp/hard\libm.a(lib_a-ef_pow.o) (scalbnf)
c:/users/andy/.vscode/extensions/metalcode-eu.windows-arm-none-eabi-0.1.6/bin/../lib/gcc/arm-none-eabi/8.2.1/thumb/v7e-m+fp/hard\libgcc.a(_arm_addsubdf3.o)
                              c:/users/andy/.vscode/extensions/metalcode-eu.windows-arm-none-eabi-0.1.6/bin/../lib/gcc/arm-none-eabi/8.2.1/../../../../arm-none-eabi/lib/thumb/v7e-m+fp/hard\libm.a(lib_a-s_llrint.o) (__aeabi_dsub)
c:/users/andy/.vscode/extensions/metalcode-eu.windows-arm-none-eabi-0.1.6/bin/../lib/gcc/arm-none-eabi/8.2.1/thumb/v7e-m+fp/hard\libgcc.a(_arm_muldivdf3.o)
                              ./build/./RepRapFirmware/src/Movement/DriveMovement.o (__aeabi_dmul)
c:/users/andy/.vscode/extensions/metalcode-eu.windows-arm-none-eabi-0.1.6/bin/../lib/gcc/arm-none-eabi/8.2.1/thumb/v7e-m+fp/hard\libgcc.a(_arm_cmpdf2.o)
                              ./build/\libRRFLibraries.a(SafeVsnprintf.o) (__aeabi_dcmpeq)
c:/users/andy/.vscode/extensions/metalcode-eu.windows-arm-none-eabi-0.1.6/bin/../lib/gcc/arm-none-eabi/8.2.1/thumb/v7e-m+fp/hard\libgcc.a(_arm_unorddf2.o)
                              ./build/\libRRFLibraries.a(SafeVsnprintf.o) (__aeabi_dcmpun)
c:/users/andy/.vscode/extensions/metalcode-eu.windows-arm-none-eabi-0.1.6/bin/../lib/gcc/arm-none-eabi/8.2.1/thumb/v7e-m+fp/hard\libgcc.a(_arm_truncdfsf2.o)
                              ./build/./RepRapFirmware/src/Movement/BedProbing/Grid.o (__aeabi_d2f)
c:/users/andy/.vscode/extensions/metalcode-eu.windows-arm-none-eabi-0.1.6/bin/../lib/gcc/arm-none-eabi/8.2.1/thumb/v7e-m+fp/hard\libgcc.a(_arm_addsubsf3.o)
                              ./build/./RepRapFirmware/src/PrintMonitor.o (__aeabi_ul2f)
c:/users/andy/.vscode/extensions/metalcode-eu.windows-arm-none-eabi-0.1.6/bin/../lib/gcc/arm-none-eabi/8.2.1/thumb/v7e-m+fp/hard\libgcc.a(_aeabi_ldivmod.o)
                              ./build/\libSTMCore.a(stm32f4xx_hal_rcc.o) (__aeabi_ldivmod)
c:/users/andy/.vscode/extensions/metalcode-eu.windows-arm-none-eabi-0.1.6/bin/../lib/gcc/arm-none-eabi/8.2.1/thumb/v7e-m+fp/hard\libgcc.a(_aeabi_uldivmod.o)
                              ./build/\libSTMCore.a(stm32f4xx_hal_rcc.o) (__aeabi_uldivmod)
c:/users/andy/.vscode/extensions/metalcode-eu.windows-arm-none-eabi-0.1.6/bin/../lib/gcc/arm-none-eabi/8.2.1/thumb/v7e-m+fp/hard\libgcc.a(_ctzdi2.o)
                              ./build/./RepRapFirmware/src/ObjectModel/ObjectModel.o (__ctzdi2)
c:/users/andy/.vscode/extensions/metalcode-eu.windows-arm-none-eabi-0.1.6/bin/../lib/gcc/arm-none-eabi/8.2.1/thumb/v7e-m+fp/hard\libgcc.a(_fixsfdi.o)
                              ./build/./RepRapFirmware/src/Movement/DriveMovement.o (__aeabi_f2lz)
c:/users/andy/.vscode/extensions/metalcode-eu.windows-arm-none-eabi-0.1.6/bin/../lib/gcc/arm-none-eabi/8.2.1/thumb/v7e-m+fp/hard\libgcc.a(_fixdfdi.o)
                              c:/users/andy/.vscode/extensions/metalcode-eu.windows-arm-none-eabi-0.1.6/bin/../lib/gcc/arm-none-eabi/8.2.1/../../../../arm-none-eabi/lib/thumb/v7e-m+fp/hard\libm.a(lib_a-s_llrint.o) (__aeabi_d2lz)
c:/users/andy/.vscode/extensions/metalcode-eu.windows-arm-none-eabi-0.1.6/bin/../lib/gcc/arm-none-eabi/8.2.1/thumb/v7e-m+fp/hard\libgcc.a(_fixunssfdi.o)
                              ./build/./RepRapFirmware/src/Movement/DriveMovement.o (__aeabi_f2ulz)
c:/users/andy/.vscode/extensions/metalcode-eu.windows-arm-none-eabi-0.1.6/bin/../lib/gcc/arm-none-eabi/8.2.1/thumb/v7e-m+fp/hard\libgcc.a(_fixunsdfdi.o)
                              ./build/./RepRapFirmware/src/Movement/DriveMovement.o (__aeabi_d2ulz)
c:/users/andy/.vscode/extensions/metalcode-eu.windows-arm-none-eabi-0.1.6/bin/../lib/gcc/arm-none-eabi/8.2.1/thumb/v7e-m+fp/hard\libgcc.a(_udivmoddi4.o)
                              c:/users/andy/.vscode/extensions/metalcode-eu.windows-arm-none-eabi-0.1.6/bin/../lib/gcc/arm-none-eabi/8.2.1/thumb/v7e-m+fp/hard\libgcc.a(_aeabi_ldivmod.o) (__udivmoddi4)
c:/users/andy/.vscode/extensions/metalcode-eu.windows-arm-none-eabi-0.1.6/bin/../lib/gcc/arm-none-eabi/8.2.1/thumb/v7e-m+fp/hard\libgcc.a(unwind-arm.o)
                              ./build/./RepRapFirmware/src/Platform.o (__aeabi_unwind_cpp_pr0)
c:/users/andy/.vscode/extensions/metalcode-eu.windows-arm-none-eabi-0.1.6/bin/../lib/gcc/arm-none-eabi/8.2.1/thumb/v7e-m+fp/hard\libgcc.a(libunwind.o)
                              c:/users/andy/.vscode/extensions/metalcode-eu.windows-arm-none-eabi-0.1.6/bin/../lib/gcc/arm-none-eabi/8.2.1/thumb/v7e-m+fp/hard\libgcc.a(unwind-arm.o) (restore_core_regs)
c:/users/andy/.vscode/extensions/metalcode-eu.windows-arm-none-eabi-0.1.6/bin/../lib/gcc/arm-none-eabi/8.2.1/thumb/v7e-m+fp/hard\libgcc.a(pr-support.o)
                              c:/users/andy/.vscode/extensions/metalcode-eu.windows-arm-none-eabi-0.1.6/bin/../lib/gcc/arm-none-eabi/8.2.1/thumb/v7e-m+fp/hard\libgcc.a(unwind-arm.o) (__gnu_unwind_execute)
c:/users/andy/.vscode/extensions/metalcode-eu.windows-arm-none-eabi-0.1.6/bin/../lib/gcc/arm-none-eabi/8.2.1/thumb/v7e-m+fp/hard\libgcc.a(_dvmd_tls.o)
                              c:/users/andy/.vscode/extensions/metalcode-eu.windows-arm-none-eabi-0.1.6/bin/../lib/gcc/arm-none-eabi/8.2.1/thumb/v7e-m+fp/hard\libgcc.a(_aeabi_ldivmod.o) (__aeabi_ldiv0)
c:/users/andy/.vscode/extensions/metalcode-eu.windows-arm-none-eabi-0.1.6/bin/../lib/gcc/arm-none-eabi/8.2.1/thumb/v7e-m+fp/hard\libgcc.a(_arm_fixunsdfsi.o)
                              c:/users/andy/.vscode/extensions/metalcode-eu.windows-arm-none-eabi-0.1.6/bin/../lib/gcc/arm-none-eabi/8.2.1/thumb/v7e-m+fp/hard\libgcc.a(_fixunssfdi.o) (__aeabi_d2uiz)
c:/users/andy/.vscode/extensions/metalcode-eu.windows-arm-none-eabi-0.1.6/bin/../lib/gcc/arm-none-eabi/8.2.1/../../../../arm-none-eabi/lib/thumb/v7e-m+fp/hard\libstdc++.a(new_op.o)
                              ./build/./RepRapFirmware/src/OutputMemory.o (operator new(unsigned int))
c:/users/andy/.vscode/extensions/metalcode-eu.windows-arm-none-eabi-0.1.6/bin/../lib/gcc/arm-none-eabi/8.2.1/../../../../arm-none-eabi/lib/thumb/v7e-m+fp/hard\libstdc++.a(eh_personality.o)
                              ./build/./RepRapFirmware/src/OutputMemory.o (__gxx_personality_v0)
c:/users/andy/.vscode/extensions/metalcode-eu.windows-arm-none-eabi-0.1.6/bin/../lib/gcc/arm-none-eabi/8.2.1/../../../../arm-none-eabi/lib/thumb/v7e-m+fp/hard\libstdc++.a(bad_alloc.o)
                              c:/users/andy/.vscode/extensions/metalcode-eu.windows-arm-none-eabi-0.1.6/bin/../lib/gcc/arm-none-eabi/8.2.1/../../../../arm-none-eabi/lib/thumb/v7e-m+fp/hard\libstdc++.a(new_op.o) (std::bad_alloc::~bad_alloc())
c:/users/andy/.vscode/extensions/metalcode-eu.windows-arm-none-eabi-0.1.6/bin/../lib/gcc/arm-none-eabi/8.2.1/../../../../arm-none-eabi/lib/thumb/v7e-m+fp/hard\libstdc++.a(eh_call.o)
                              c:/users/andy/.vscode/extensions/metalcode-eu.windows-arm-none-eabi-0.1.6/bin/../lib/gcc/arm-none-eabi/8.2.1/../../../../arm-none-eabi/lib/thumb/v7e-m+fp/hard\libstdc++.a(eh_personality.o) (__cxa_call_terminate)
c:/users/andy/.vscode/extensions/metalcode-eu.windows-arm-none-eabi-0.1.6/bin/../lib/gcc/arm-none-eabi/8.2.1/../../../../arm-none-eabi/lib/thumb/v7e-m+fp/hard\libstdc++.a(new_handler.o)
                              c:/users/andy/.vscode/extensions/metalcode-eu.windows-arm-none-eabi-0.1.6/bin/../lib/gcc/arm-none-eabi/8.2.1/../../../../arm-none-eabi/lib/thumb/v7e-m+fp/hard\libstdc++.a(new_op.o) (std::get_new_handler())
c:/users/andy/.vscode/extensions/metalcode-eu.windows-arm-none-eabi-0.1.6/bin/../lib/gcc/arm-none-eabi/8.2.1/../../../../arm-none-eabi/lib/thumb/v7e-m+fp/hard\libstdc++.a(eh_catch.o)
                              ./build/./RepRapFirmware/src/GCodes/GCodes.o (__cxa_begin_catch)
c:/users/andy/.vscode/extensions/metalcode-eu.windows-arm-none-eabi-0.1.6/bin/../lib/gcc/arm-none-eabi/8.2.1/../../../../arm-none-eabi/lib/thumb/v7e-m+fp/hard\libstdc++.a(eh_globals.o)
                              c:/users/andy/.vscode/extensions/metalcode-eu.windows-arm-none-eabi-0.1.6/bin/../lib/gcc/arm-none-eabi/8.2.1/../../../../arm-none-eabi/lib/thumb/v7e-m+fp/hard\libstdc++.a(eh_call.o) (__cxa_get_globals_fast)
c:/users/andy/.vscode/extensions/metalcode-eu.windows-arm-none-eabi-0.1.6/bin/../lib/gcc/arm-none-eabi/8.2.1/../../../../arm-none-eabi/lib/thumb/v7e-m+fp/hard\libstdc++.a(eh_terminate.o)
                              c:/users/andy/.vscode/extensions/metalcode-eu.windows-arm-none-eabi-0.1.6/bin/../lib/gcc/arm-none-eabi/8.2.1/../../../../arm-none-eabi/lib/thumb/v7e-m+fp/hard\libstdc++.a(eh_call.o) (__cxxabiv1::__terminate(void (*)()))
c:/users/andy/.vscode/extensions/metalcode-eu.windows-arm-none-eabi-0.1.6/bin/../lib/gcc/arm-none-eabi/8.2.1/../../../../arm-none-eabi/lib/thumb/v7e-m+fp/hard\libstdc++.a(eh_arm.o)
                              ./build/./RepRapFirmware/src/Platform.o (__cxa_end_cleanup)
c:/users/andy/.vscode/extensions/metalcode-eu.windows-arm-none-eabi-0.1.6/bin/../lib/gcc/arm-none-eabi/8.2.1/../../../../arm-none-eabi/lib/thumb/v7e-m+fp/hard\libstdc++.a(del_ops.o)
                              ./build/./RepRapFirmware/src/Platform.o (operator delete(void*, unsigned int))
c:/users/andy/.vscode/extensions/metalcode-eu.windows-arm-none-eabi-0.1.6/bin/../lib/gcc/arm-none-eabi/8.2.1/../../../../arm-none-eabi/lib/thumb/v7e-m+fp/hard\libstdc++.a(eh_throw.o)
                              ./build/./RepRapFirmware/src/GCodes/GCodes.o (__cxa_throw)
c:/users/andy/.vscode/extensions/metalcode-eu.windows-arm-none-eabi-0.1.6/bin/../lib/gcc/arm-none-eabi/8.2.1/../../../../arm-none-eabi/lib/thumb/v7e-m+fp/hard\libstdc++.a(new_opv.o)
                              ./build/./RepRapFirmware/src/Heating/LocalHeater.o (operator new[](unsigned int))
c:/users/andy/.vscode/extensions/metalcode-eu.windows-arm-none-eabi-0.1.6/bin/../lib/gcc/arm-none-eabi/8.2.1/../../../../arm-none-eabi/lib/thumb/v7e-m+fp/hard\libstdc++.a(si_class_type_info.o)
                              c:/users/andy/.vscode/extensions/metalcode-eu.windows-arm-none-eabi-0.1.6/bin/../lib/gcc/arm-none-eabi/8.2.1/../../../../arm-none-eabi/lib/thumb/v7e-m+fp/hard\libstdc++.a(bad_alloc.o) (vtable for __cxxabiv1::__si_class_type_info)
c:/users/andy/.vscode/extensions/metalcode-eu.windows-arm-none-eabi-0.1.6/bin/../lib/gcc/arm-none-eabi/8.2.1/../../../../arm-none-eabi/lib/thumb/v7e-m+fp/hard\libstdc++.a(tinfo.o)
                              c:/users/andy/.vscode/extensions/metalcode-eu.windows-arm-none-eabi-0.1.6/bin/../lib/gcc/arm-none-eabi/8.2.1/../../../../arm-none-eabi/lib/thumb/v7e-m+fp/hard\libstdc++.a(si_class_type_info.o) (std::type_info::__is_pointer_p() const)
c:/users/andy/.vscode/extensions/metalcode-eu.windows-arm-none-eabi-0.1.6/bin/../lib/gcc/arm-none-eabi/8.2.1/../../../../arm-none-eabi/lib/thumb/v7e-m+fp/hard\libstdc++.a(class_type_info.o)
                              c:/users/andy/.vscode/extensions/metalcode-eu.windows-arm-none-eabi-0.1.6/bin/../lib/gcc/arm-none-eabi/8.2.1/../../../../arm-none-eabi/lib/thumb/v7e-m+fp/hard\libstdc++.a(si_class_type_info.o) (__cxxabiv1::__class_type_info::__do_upcast(__cxxabiv1::__class_type_info const*, void**) const)
c:/users/andy/.vscode/extensions/metalcode-eu.windows-arm-none-eabi-0.1.6/bin/../lib/gcc/arm-none-eabi/8.2.1/../../../../arm-none-eabi/lib/thumb/v7e-m+fp/hard\libstdc++.a(eh_exception.o)
                              c:/users/andy/.vscode/extensions/metalcode-eu.windows-arm-none-eabi-0.1.6/bin/../lib/gcc/arm-none-eabi/8.2.1/../../../../arm-none-eabi/lib/thumb/v7e-m+fp/hard\libstdc++.a(bad_alloc.o) (std::exception::~exception())
c:/users/andy/.vscode/extensions/metalcode-eu.windows-arm-none-eabi-0.1.6/bin/../lib/gcc/arm-none-eabi/8.2.1/../../../../arm-none-eabi/lib/thumb/v7e-m+fp/hard\libstdc++.a(del_op.o)
                              c:/users/andy/.vscode/extensions/metalcode-eu.windows-arm-none-eabi-0.1.6/bin/../lib/gcc/arm-none-eabi/8.2.1/../../../../arm-none-eabi/lib/thumb/v7e-m+fp/hard\libstdc++.a(del_ops.o) (operator delete(void*))
c:/users/andy/.vscode/extensions/metalcode-eu.windows-arm-none-eabi-0.1.6/bin/../lib/gcc/arm-none-eabi/8.2.1/../../../../arm-none-eabi/lib/thumb/v7e-m+fp/hard\libstdc++.a(eh_unex_handler.o)
                              c:/users/andy/.vscode/extensions/metalcode-eu.windows-arm-none-eabi-0.1.6/bin/../lib/gcc/arm-none-eabi/8.2.1/../../../../arm-none-eabi/lib/thumb/v7e-m+fp/hard\libstdc++.a(eh_terminate.o) (__cxxabiv1::__unexpected_handler)
./build/\libSTMCore.a(wiring_analog.o)
                              ./build/./RepRapFirmware/src/STM32/BoardConfig.o (analogReadResolution)
./build/\libSTMCore.a(wiring_time.o)
                              ./build/./RepRapFirmware/src/OutputMemory.o (millis)
./build/\libSTMCore.a(clock.o)
                              ./build/\libSTMCore.a(wiring_time.o) (getCurrentMicros)
./build/\libSTMCore.a(stm32f4xx_hal_flash.o)
                              ./build/./RepRapFirmware/src/STM32/NVMEmulation.o (HAL_FLASH_Unlock)
./build/\libSTMCore.a(stm32f4xx_hal_flash_ex.o)
                              ./build/\libSTMCore.a(stm32f4xx_hal_flash.o) (FLASH_Erase_Sector)
./build/\libSTMCore.a(stm32f4xx_hal_pwr.o)
                              ./build/\libSTMCore.a(clock.o) (HAL_PWR_EnableBkUpAccess)
./build/\libSTMCore.a(AnalogIn.o)
                              ./build/./RepRapFirmware/src/STM32/BoardConfig.o (AnalogInInit())
./build/\libSTMCore.a(AnalogOut.o)
                              ./build/./RepRapFirmware/src/Hardware/IoPorts.o (AnalogOut(PinName, float, unsigned short))
./build/\libSTMCore.a(HardwareTimer.o)
                              ./build/./RepRapFirmware/src/STM32/Movement/StepperDrivers/TMCSoftUART.o (HardwareTimer::pause())
./build/\libSTMCore.a(Print.o)
                              ./build/./RepRapFirmware/src/Stream.o (Print::write(unsigned char const*, unsigned int))
./build/\libSTMCore.a(Reset.o)
                              ./build/./RepRapFirmware/src/Hardware/ExceptionHandlers.o (Reset)
./build/\libSTMCore.a(USBSerial.o)
                              ./build/./RepRapFirmware/src/Platform.o (USBSerial::write(unsigned char const*, unsigned int))
./build/\libSTMCore.a(watchdog.o)
                              ./build/./RepRapFirmware/src/RepRap.o (watchdogEnable(unsigned long))
./build/\libSTMCore.a(WInterrupts.o)
                              ./build/./RepRapFirmware/src/Hardware/IoPorts.o (attachInterrupt(unsigned long, void (*)(CallbackParameter) noexcept, InterruptMode, CallbackParameter))
./build/\libSTMCore.a(wiring_digital.o)
                              ./build/./RepRapFirmware/src/Platform.o (pinModeDuet)
./build/\libSTMCore.a(WMath.o)
                              ./build/./RepRapFirmware/src/GCodes/GCodeBuffer/ExpressionParser.o (random32)
./build/\libSTMCore.a(analog.o)
                              ./build/\libSTMCore.a(HardwareTimer.o) (get_pwm_channel)
./build/\libSTMCore.a(interrupt.o)
                              ./build/\libSTMCore.a(WInterrupts.o) (stm32_interrupt_enable(GPIO_TypeDef*, unsigned short, void (*)(CallbackParameter) noexcept, unsigned long, CallbackParameter))
./build/\libSTMCore.a(ConfigurableUART.o)
                              ./build/./RepRapFirmware/src/GCodes/GCodes.o (ConfigurableUART::read())
./build/\libSTMCore.a(HardwareSPI.o)
                              ./build/./RepRapFirmware/src/Linux/DataTransfer.o (HardwareSPI::flushRx())
./build/\libSTMCore.a(SPI.o)  ./build/./RepRapFirmware/src/Hardware/SharedSpi/SharedSpiDevice.o (SPI::getSSPDevice(SSPChannel))
./build/\libSTMCore.a(HybridPWM.o)
                              ./build/\libSTMCore.a(AnalogOut.o) (HybridPWMPin::find(PinName))
./build/\libSTMCore.a(SoftwarePWM.o)
                              ./build/\libSTMCore.a(HybridPWM.o) (SoftwarePWM::allocate(PinName, unsigned long, float))
./build/\libSTMCore.a(queue.o)
                              ./build/\libRRFLibraries.a(RTOSIface.o) (xQueueGenericCreateStatic)
./build/\libSTMCore.a(tasks.o)
                              ./build/./RepRapFirmware/src/Tasks.o (xTaskCreateStatic)
./build/\libSTMCore.a(port.o)
                              ./build/\libSTMCore.a(tasks.o) (pxPortInitialiseStack)
./build/\libSTMCore.a(hooks.o)
                              ./build/\libSTMCore.a(wiring_time.o) (yield)
./build/\libSTMCore.a(spi_com.o)
                              ./build/\libSTMCore.a(HardwareSPI.o) (spi_init)
./build/\libSTMCore.a(timer.o)
                              ./build/\libSTMCore.a(HardwareTimer.o) (enableTimerClock)
./build/\libSTMCore.a(cdc_queue.o)
                              ./build/\libSTMCore.a(USBSerial.o) (CDC_TransmitQueue_WriteSize)
./build/\libSTMCore.a(usbd_cdc_if.o)
                              ./build/\libSTMCore.a(USBSerial.o) (ReceiveQueue)
./build/\libSTMCore.a(usbd_core.o)
                              ./build/\libSTMCore.a(usbd_cdc_if.o) (USBD_Init)
./build/\libSTMCore.a(usbd_ctlreq.o)
                              ./build/\libSTMCore.a(usbd_core.o) (USBD_StdDevReq)
./build/\libSTMCore.a(usbd_ioreq.o)
                              ./build/\libSTMCore.a(usbd_ctlreq.o) (USBD_CtlSendData)
./build/\libSTMCore.a(stm32f4xx_hal_adc.o)
                              ./build/\libSTMCore.a(AnalogIn.o) (HAL_ADC_Init)
./build/\libSTMCore.a(stm32f4xx_hal_adc_ex.o)
                              ./build/\libSTMCore.a(stm32f4xx_hal_adc.o) (HAL_ADCEx_InjectedConvCpltCallback)
./build/\libSTMCore.a(stm32f4xx_hal_spi.o)
                              ./build/\libSTMCore.a(spi_com.o) (HAL_SPI_Init)
./build/\libSTMCore.a(stm32f4xx_hal_tim.o)
                              ./build/\libSTMCore.a(HardwareTimer.o) (HAL_TIM_Base_DeInit)
./build/\libSTMCore.a(stm32f4xx_hal_tim_ex.o)
                              ./build/\libSTMCore.a(HardwareTimer.o) (HAL_TIMEx_OCN_Start)
./build/\libSTMCore.a(stm32f4xx_hal_wwdg.o)
                              ./build/\libSTMCore.a(watchdog.o) (HAL_WWDG_Init)
./build/\libSTMCore.a(HardwareSerial.o)
                              ./build/\libSTMCore.a(ConfigurableUART.o) (HardwareSerial::begin(unsigned long, unsigned char))
./build/\libSTMCore.a(SoftwareSPI.o)
                              ./build/\libSTMCore.a(SPI.o) (SoftwareSPI::SWSSP0)
./build/\libSTMCore.a(HardwarePWM.o)
                              ./build/\libSTMCore.a(HybridPWM.o) (HardwarePWM::allocate(PinName, unsigned long, float))
./build/\libSTMCore.a(list.o)
                              ./build/\libSTMCore.a(queue.o) (vListInitialise)
./build/\libSTMCore.a(usbd_conf.o)
                              ./build/\libSTMCore.a(usbd_core.o) (USBD_LL_Init)
./build/\libSTMCore.a(usbd_desc.o)
                              ./build/\libSTMCore.a(usbd_cdc_if.o) (USBD_Desc)
./build/\libSTMCore.a(usbd_ep_conf.o)
                              ./build/\libSTMCore.a(usbd_conf.o) (ep_def)
./build/\libSTMCore.a(usbd_if.o)
                              ./build/\libSTMCore.a(usbd_conf.o) (USBD_reenumerate)
./build/\libSTMCore.a(usbd_cdc.o)
                              ./build/\libSTMCore.a(usbd_cdc_if.o) (USBD_CDC_RegisterInterface)
./build/\libSTMCore.a(stm32f4xx_hal_pcd.o)
                              ./build/\libSTMCore.a(usbd_conf.o) (HAL_PCD_Init)
./build/\libSTMCore.a(stm32f4xx_hal_pcd_ex.o)
                              ./build/\libSTMCore.a(usbd_conf.o) (HAL_PCDEx_SetTxFiFo)
./build/\libSTMCore.a(stm32f4xx_ll_usb.o)
                              ./build/\libSTMCore.a(stm32f4xx_hal_pcd.o) (USB_CoreInit)
c:/users/andy/.vscode/extensions/metalcode-eu.windows-arm-none-eabi-0.1.6/bin/../lib/gcc/arm-none-eabi/8.2.1/../../../../arm-none-eabi/lib/thumb/v7e-m+fp/hard\libc.a(lib_a-rand.o)
                              ./build/\libSTMCore.a(WMath.o) (srand)
c:/users/andy/.vscode/extensions/metalcode-eu.windows-arm-none-eabi-0.1.6/bin/../lib/gcc/arm-none-eabi/8.2.1/thumb/v7e-m+fp/hard\libgcc.a(_arm_fixdfsi.o)
                              ./build/\libSTMCore.a(Print.o) (__aeabi_d2iz)

Allocating common symbols
Common symbol       size              file

errno               0x4               c:/users/andy/.vscode/extensions/metalcode-eu.windows-arm-none-eabi-0.1.6/bin/../lib/gcc/arm-none-eabi/8.2.1/../../../../arm-none-eabi/lib/thumb/v7e-m+fp/hard\libc.a(lib_a-reent.o)
g_hpcd              0x408             ./build/\libSTMCore.a(usbd_conf.o)
__lock___malloc_recursive_mutex
                    0x1               c:/users/andy/.vscode/extensions/metalcode-eu.windows-arm-none-eabi-0.1.6/bin/../lib/gcc/arm-none-eabi/8.2.1/../../../../arm-none-eabi/lib/thumb/v7e-m+fp/hard\libc.a(lib_a-lock.o)
__lock___atexit_recursive_mutex
                    0x1               c:/users/andy/.vscode/extensions/metalcode-eu.windows-arm-none-eabi-0.1.6/bin/../lib/gcc/arm-none-eabi/8.2.1/../../../../arm-none-eabi/lib/thumb/v7e-m+fp/hard\libc.a(lib_a-lock.o)
pFlash              0x20              ./build/\libSTMCore.a(stm32f4xx_hal_flash.o)
TransmitQueue       0x86              ./build/\libSTMCore.a(usbd_cdc_if.o)
uwTick              0x4               ./build/\libSTMCore.a(stm32f4xx_hal.o)
xQueueRegistry      0x40              ./build/\libSTMCore.a(queue.o)
__lock___dd_hash_mutex
                    0x1               c:/users/andy/.vscode/extensions/metalcode-eu.windows-arm-none-eabi-0.1.6/bin/../lib/gcc/arm-none-eabi/8.2.1/../../../../arm-none-eabi/lib/thumb/v7e-m+fp/hard\libc.a(lib_a-lock.o)
__lock___sinit_recursive_mutex
                    0x1               c:/users/andy/.vscode/extensions/metalcode-eu.windows-arm-none-eabi-0.1.6/bin/../lib/gcc/arm-none-eabi/8.2.1/../../../../arm-none-eabi/lib/thumb/v7e-m+fp/hard\libc.a(lib_a-lock.o)
USBD_StrDesc        0x100             ./build/\libSTMCore.a(usbd_desc.o)
hUSBD_Device_CDC    0x2c4             ./build/\libSTMCore.a(usbd_cdc_if.o)
__lock___sfp_recursive_mutex
                    0x1               c:/users/andy/.vscode/extensions/metalcode-eu.windows-arm-none-eabi-0.1.6/bin/../lib/gcc/arm-none-eabi/8.2.1/../../../../arm-none-eabi/lib/thumb/v7e-m+fp/hard\libc.a(lib_a-lock.o)
__lock___at_quick_exit_mutex
                    0x1               c:/users/andy/.vscode/extensions/metalcode-eu.windows-arm-none-eabi-0.1.6/bin/../lib/gcc/arm-none-eabi/8.2.1/../../../../arm-none-eabi/lib/thumb/v7e-m+fp/hard\libc.a(lib_a-lock.o)
__lock___env_recursive_mutex
                    0x1               c:/users/andy/.vscode/extensions/metalcode-eu.windows-arm-none-eabi-0.1.6/bin/../lib/gcc/arm-none-eabi/8.2.1/../../../../arm-none-eabi/lib/thumb/v7e-m+fp/hard\libc.a(lib_a-lock.o)
ReceiveQueue        0xc6              ./build/\libSTMCore.a(usbd_cdc_if.o)
__lock___tz_mutex   0x1               c:/users/andy/.vscode/extensions/metalcode-eu.windows-arm-none-eabi-0.1.6/bin/../lib/gcc/arm-none-eabi/8.2.1/../../../../arm-none-eabi/lib/thumb/v7e-m+fp/hard\libc.a(lib_a-lock.o)
__lock___arc4random_mutex
                    0x1               c:/users/andy/.vscode/extensions/metalcode-eu.windows-arm-none-eabi-0.1.6/bin/../lib/gcc/arm-none-eabi/8.2.1/../../../../arm-none-eabi/lib/thumb/v7e-m+fp/hard\libc.a(lib_a-lock.o)

Discarded input sections

 .text          0x00000000        0x0 c:/users/andy/.vscode/extensions/metalcode-eu.windows-arm-none-eabi-0.1.6/bin/../lib/gcc/arm-none-eabi/8.2.1/thumb/v7e-m+fp/hard/crti.o
 .data          0x00000000        0x0 c:/users/andy/.vscode/extensions/metalcode-eu.windows-arm-none-eabi-0.1.6/bin/../lib/gcc/arm-none-eabi/8.2.1/thumb/v7e-m+fp/hard/crti.o
 .bss           0x00000000        0x0 c:/users/andy/.vscode/extensions/metalcode-eu.windows-arm-none-eabi-0.1.6/bin/../lib/gcc/arm-none-eabi/8.2.1/thumb/v7e-m+fp/hard/crti.o
 .text          0x00000000       0x74 c:/users/andy/.vscode/extensions/metalcode-eu.windows-arm-none-eabi-0.1.6/bin/../lib/gcc/arm-none-eabi/8.2.1/../../../../arm-none-eabi/lib/thumb/v7e-m+fp/hard/crt0.o
 .data          0x00000000        0x0 c:/users/andy/.vscode/extensions/metalcode-eu.windows-arm-none-eabi-0.1.6/bin/../lib/gcc/arm-none-eabi/8.2.1/../../../../arm-none-eabi/lib/thumb/v7e-m+fp/hard/crt0.o
 .bss           0x00000000        0x0 c:/users/andy/.vscode/extensions/metalcode-eu.windows-arm-none-eabi-0.1.6/bin/../lib/gcc/arm-none-eabi/8.2.1/../../../../arm-none-eabi/lib/thumb/v7e-m+fp/hard/crt0.o
 .ARM.extab     0x00000000        0x0 c:/users/andy/.vscode/extensions/metalcode-eu.windows-arm-none-eabi-0.1.6/bin/../lib/gcc/arm-none-eabi/8.2.1/../../../../arm-none-eabi/lib/thumb/v7e-m+fp/hard/crt0.o
 .ARM.exidx     0x00000000        0x8 c:/users/andy/.vscode/extensions/metalcode-eu.windows-arm-none-eabi-0.1.6/bin/../lib/gcc/arm-none-eabi/8.2.1/../../../../arm-none-eabi/lib/thumb/v7e-m+fp/hard/crt0.o
 .ARM.attributes
                0x00000000       0x1c c:/users/andy/.vscode/extensions/metalcode-eu.windows-arm-none-eabi-0.1.6/bin/../lib/gcc/arm-none-eabi/8.2.1/../../../../arm-none-eabi/lib/thumb/v7e-m+fp/hard/crt0.o
 .text          0x00000000        0x0 ./build/./CoreSTM32F4/cores/arduino/syscalls.o
 .data          0x00000000        0x0 ./build/./CoreSTM32F4/cores/arduino/syscalls.o
 .bss           0x00000000        0x0 ./build/./CoreSTM32F4/cores/arduino/syscalls.o
 .text._close   0x00000000        0x6 ./build/./CoreSTM32F4/cores/arduino/syscalls.o
 .text._fstat   0x00000000        0xa ./build/./CoreSTM32F4/cores/arduino/syscalls.o
 .text._isatty  0x00000000        0x4 ./build/./CoreSTM32F4/cores/arduino/syscalls.o
 .text._lseek   0x00000000        0x4 ./build/./CoreSTM32F4/cores/arduino/syscalls.o
 .text._read    0x00000000        0x4 ./build/./CoreSTM32F4/cores/arduino/syscalls.o
Memory Configuration

Name             Origin             Length             Attributes
VECTOR           0x08008000         0x00004000         xr
RESETDATA        0x0800c000         0x00004000         xr
FLASH            0x08010000         0x000f0000         xr
RAM              0x20000000         0x00020000         xrw
CCMRAM           0x10000000         0x00010000         rw
*default*        0x00000000         0xffffffff

Linker script and memory map

LOAD c:/users/andy/.vscode/extensions/metalcode-eu.windows-arm-none-eabi-0.1.6/bin/../lib/gcc/arm-none-eabi/8.2.1/thumb/v7e-m+fp/hard/crti.o
LOAD c:/users/andy/.vscode/extensions/metalcode-eu.windows-arm-none-eabi-0.1.6/bin/../lib/gcc/arm-none-eabi/8.2.1/thumb/v7e-m+fp/hard/crtbegin.o
LOAD c:/users/andy/.vscode/extensions/metalcode-eu.windows-arm-none-eabi-0.1.6/bin/../lib/gcc/arm-none-eabi/8.2.1/../../../../arm-none-eabi/lib/thumb/v7e-m+fp/hard/crt0.o
                0x00100000                LD_MAX_SIZE = 0x100000
                0x00030000                LD_MAX_DATA_SIZE = 0x30000
                0x00000000                LD_FLASH_OFFSET = 0x0
START GROUP
LOAD ./build/./CoreSTM32F4/cores/arduino/syscalls.o
LOAD ./build/./RepRapFirmware/src/libc/memcmp.o
LOAD ./build/./RepRapFirmware/src/libc/memcpy.o
LOAD ./build/./RepRapFirmware/src/libc/memmove.o
LOAD ./build/./RepRapFirmware/src/libc/memset.o
LOAD ./build/./RepRapFirmware/src/libc/nano-mallocr.o
LOAD ./build/./RepRapFirmware/src/libcpp/eh_alloc.o
LOAD ./build/./RepRapFirmware/src/libc/strptime.o
LOAD ./build/./RepRapFirmware/src/libcpp/vterminate.o
LOAD ./build/\libSTMCore.a
LOAD ./build/./RepRapFirmware/src/Libraries/sha1/sha1.o
LOAD ./build/./RepRapFirmware/src/STM32/FatFS/ff.o
LOAD ./build/./RepRapFirmware/src/STM32/FatFS/ffunicode.o
LOAD ./build/./RepRapFirmware/src/Logger.o
LOAD ./build/./RepRapFirmware/src/OutputMemory.o
LOAD ./build/./RepRapFirmware/src/Platform.o
LOAD ./build/./RepRapFirmware/src/PortControl.o
LOAD ./build/./RepRapFirmware/src/PrintMonitor.o
LOAD ./build/./RepRapFirmware/src/RepRap.o
LOAD ./build/./RepRapFirmware/src/RepRapFirmware.o
LOAD ./build/./RepRapFirmware/src/Roland.o
LOAD ./build/./RepRapFirmware/src/Scanner.o
LOAD ./build/./RepRapFirmware/src/Stream.o
LOAD ./build/./RepRapFirmware/src/Tasks.o
LOAD ./build/./RepRapFirmware/src/FilamentMonitors/Duet3DFilamentMonitor.o
LOAD ./build/./RepRapFirmware/src/FilamentMonitors/FilamentMonitor.o
LOAD ./build/./RepRapFirmware/src/FilamentMonitors/LaserFilamentMonitor.o
LOAD ./build/./RepRapFirmware/src/FilamentMonitors/PulsedFilamentMonitor.o
LOAD ./build/./RepRapFirmware/src/FilamentMonitors/RotatingMagnetFilamentMonitor.o
LOAD ./build/./RepRapFirmware/src/FilamentMonitors/SimpleFilamentMonitor.o
LOAD ./build/./RepRapFirmware/src/GCodes/GCodeException.o
LOAD ./build/./RepRapFirmware/src/GCodes/GCodeFileInfo.o
LOAD ./build/./RepRapFirmware/src/GCodes/GCodeInput.o
LOAD ./build/./RepRapFirmware/src/GCodes/GCodeMachineState.o
LOAD ./build/./RepRapFirmware/src/GCodes/GCodeQueue.o
LOAD ./build/./RepRapFirmware/src/GCodes/GCodes.o
LOAD ./build/./RepRapFirmware/src/GCodes/GCodes2.o
LOAD ./build/./RepRapFirmware/src/GCodes/GCodes3.o
LOAD ./build/./RepRapFirmware/src/GCodes/GCodes4.o
LOAD ./build/./RepRapFirmware/src/GCodes/ObjectTracker.o
LOAD ./build/./RepRapFirmware/src/GCodes/RestorePoint.o
LOAD ./build/./RepRapFirmware/src/GCodes/Trigger.o
LOAD ./build/./RepRapFirmware/src/GCodes/GCodeBuffer/BinaryParser.o
LOAD ./build/./RepRapFirmware/src/GCodes/GCodeBuffer/ExpressionParser.o
LOAD ./build/./RepRapFirmware/src/GCodes/GCodeBuffer/GCodeBuffer.o
LOAD ./build/./RepRapFirmware/src/GCodes/GCodeBuffer/StringParser.o
LOAD ./build/./RepRapFirmware/src/Heating/FOPDT.o
LOAD ./build/./RepRapFirmware/src/Heating/Heat.o
LOAD ./build/./RepRapFirmware/src/Heating/Heater.o
LOAD ./build/./RepRapFirmware/src/Heating/HeaterMonitor.o
LOAD ./build/./RepRapFirmware/src/Heating/LocalHeater.o
LOAD ./build/./RepRapFirmware/src/Heating/RemoteHeater.o
LOAD ./build/./RepRapFirmware/src/Heating/TemperatureError.o
LOAD ./build/./RepRapFirmware/src/Movement/DDA.o
LOAD ./build/./RepRapFirmware/src/Movement/DDARing.o
LOAD ./build/./RepRapFirmware/src/Movement/DriveMovement.o
LOAD ./build/./RepRapFirmware/src/Movement/Move.o
LOAD ./build/./RepRapFirmware/src/Movement/RawMove.o
LOAD ./build/./RepRapFirmware/src/Movement/StepTimer.o
LOAD ./build/./RepRapFirmware/src/Movement/StraightProbeSettings.o
LOAD ./build/./RepRapFirmware/src/Movement/BedProbing/Grid.o
LOAD ./build/./RepRapFirmware/src/Movement/BedProbing/RandomProbePointSet.o
LOAD ./build/./RepRapFirmware/src/Movement/Kinematics/CoreKinematics.o
LOAD ./build/./RepRapFirmware/src/Movement/Kinematics/FiveBarScaraKinematics.o
LOAD ./build/./RepRapFirmware/src/Movement/Kinematics/HangprinterKinematics.o
LOAD ./build/./RepRapFirmware/src/Movement/Kinematics/Kinematics.o
LOAD ./build/./RepRapFirmware/src/Movement/Kinematics/LinearDeltaKinematics.o
LOAD ./build/./RepRapFirmware/src/Movement/Kinematics/PolarKinematics.o
LOAD ./build/./RepRapFirmware/src/Movement/Kinematics/RotaryDeltaKinematics.o
LOAD ./build/./RepRapFirmware/src/Movement/Kinematics/ScaraKinematics.o
LOAD ./build/./RepRapFirmware/src/Movement/Kinematics/ZLeadscrewKinematics.o
LOAD ./build/./RepRapFirmware/src/Storage/CRC32.o
LOAD ./build/./RepRapFirmware/src/Storage/FileInfoParser.o
LOAD ./build/./RepRapFirmware/src/Storage/FileStore.o
LOAD ./build/./RepRapFirmware/src/Storage/MassStorage.o
LOAD ./build/./RepRapFirmware/src/Comms/AuxDevice.o
LOAD ./build/./RepRapFirmware/src/Heating/Sensors/AdditionalOutputSensor.o
LOAD ./build/./RepRapFirmware/src/Heating/Sensors/CpuTemperatureSensor.o
LOAD ./build/./RepRapFirmware/src/Heating/Sensors/CurrentLoopTemperatureSensor.o
LOAD ./build/./RepRapFirmware/src/Heating/Sensors/DhtSensor.o
LOAD ./build/./RepRapFirmware/src/Heating/Sensors/LinearAnalogSensor.o
LOAD ./build/./RepRapFirmware/src/Heating/Sensors/RemoteSensor.o
LOAD ./build/./RepRapFirmware/src/Heating/Sensors/RtdSensor31865.o
LOAD ./build/./RepRapFirmware/src/Heating/Sensors/SensorWithPort.o
LOAD ./build/./RepRapFirmware/src/Heating/Sensors/SpiTemperatureSensor.o
LOAD ./build/./RepRapFirmware/src/Heating/Sensors/TemperatureSensor.o
LOAD ./build/./RepRapFirmware/src/Heating/Sensors/Thermistor.o
LOAD ./build/./RepRapFirmware/src/Heating/Sensors/ThermocoupleSensor31855.o
LOAD ./build/./RepRapFirmware/src/Heating/Sensors/ThermocoupleSensor31856.o
LOAD ./build/./RepRapFirmware/src/Heating/Sensors/TmcDriverTemperatureSensor.o
LOAD ./build/./RepRapFirmware/src/Fans/DotStarLed.o
LOAD ./build/./RepRapFirmware/src/Fans/Fan.o
LOAD ./build/./RepRapFirmware/src/Fans/FansManager.o
LOAD ./build/./RepRapFirmware/src/Fans/LocalFan.o
LOAD ./build/./RepRapFirmware/src/Fans/RemoteFan.o
LOAD ./build/./RepRapFirmware/src/ObjectModel/ObjectModel.o
LOAD ./build/./RepRapFirmware/src/Endstops/Endstop.o
LOAD ./build/./RepRapFirmware/src/Endstops/EndstopsManager.o
LOAD ./build/./RepRapFirmware/src/Endstops/LocalZProbe.o
LOAD ./build/./RepRapFirmware/src/Endstops/RemoteZProbe.o
LOAD ./build/./RepRapFirmware/src/Endstops/StallDetectionEndstop.o
LOAD ./build/./RepRapFirmware/src/Endstops/SwitchEndstop.o
LOAD ./build/./RepRapFirmware/src/Endstops/ZProbe.o
LOAD ./build/./RepRapFirmware/src/Endstops/ZProbeEndstop.o
LOAD ./build/./RepRapFirmware/src/Hardware/ExceptionHandlers.o
LOAD ./build/./RepRapFirmware/src/Hardware/I2C.o
LOAD ./build/./RepRapFirmware/src/Hardware/IoPorts.o
LOAD ./build/./RepRapFirmware/src/Hardware/NonVolatileMemory.o
LOAD ./build/./RepRapFirmware/src/Hardware/SoftwareReset.o
LOAD ./build/./RepRapFirmware/src/Hardware/SharedSpi/SharedSpiClient.o
LOAD ./build/./RepRapFirmware/src/Hardware/SharedSpi/SharedSpiDevice.o
LOAD ./build/./RepRapFirmware/src/Tools/Filament.o
LOAD ./build/./RepRapFirmware/src/Tools/Spindle.o
LOAD ./build/./RepRapFirmware/src/Tools/Tool.o
LOAD ./build/./RepRapFirmware/src/Display/Display.o
LOAD ./build/./RepRapFirmware/src/Display/Menu.o
LOAD ./build/./RepRapFirmware/src/Display/MenuItem.o
LOAD ./build/./RepRapFirmware/src/Display/RotaryEncoder.o
LOAD ./build/./RepRapFirmware/src/GPIO/GpInPort.o
LOAD ./build/./RepRapFirmware/src/GPIO/GpOutPort.o
LOAD ./build/./RepRapFirmware/src/STM32/BoardConfig.o
LOAD ./build/./RepRapFirmware/src/STM32/Microstepping.o
LOAD ./build/./RepRapFirmware/src/STM32/NVMEmulation.o
LOAD ./build/./RepRapFirmware/src/STM32/Pins_STM32.o
LOAD ./build/./RepRapFirmware/src/STM32/ResetCause.o
LOAD ./build/./RepRapFirmware/src/STM32/FatFS/diskio.o
LOAD ./build/./RepRapFirmware/src/STM32/FatFS/fattime_rtc.o
LOAD ./build/./RepRapFirmware/src/STM32/FatFS/sd_mmc_wrapper.o
LOAD ./build/./RepRapFirmware/src/STM32/FatFS/SDCard.o
LOAD ./build/./RepRapFirmware/src/Linux/DataTransfer.o
LOAD ./build/./RepRapFirmware/src/Linux/LinuxInterface.o
LOAD ./build/./RepRapFirmware/src/STM32/NoNetwork/Network.o
LOAD ./build/./RepRapFirmware/src/STM32/Movement/StepperDrivers/TMC22xx.o
LOAD ./build/./RepRapFirmware/src/STM32/Movement/StepperDrivers/TMCSoftUART.o
LOAD ./build/./RepRapFirmware/src/Movement/StepperDrivers/DriverMode.o
LOAD ./build/./RepRapFirmware/src/Movement/StepperDrivers/TMC22xx.o
LOAD ./build/./RepRapFirmware/src/Movement/StepperDrivers/TMC2660.o
LOAD ./build/./RepRapFirmware/src/Movement/StepperDrivers/TMC51xx.o
LOAD ./build/\libRRFLibraries.a
LOAD ./CoreSTM32F4/CMSIS/CMSIS/DSP/Lib/GCC\libarm_cortexM4l_math.a
LOAD c:/users/andy/.vscode/extensions/metalcode-eu.windows-arm-none-eabi-0.1.6/bin/../lib/gcc/arm-none-eabi/8.2.1/../../../../arm-none-eabi/lib/thumb/v7e-m+fp/hard\libc.a
LOAD c:/users/andy/.vscode/extensions/metalcode-eu.windows-arm-none-eabi-0.1.6/bin/../lib/gcc/arm-none-eabi/8.2.1/../../../../arm-none-eabi/lib/thumb/v7e-m+fp/hard\libm.a
LOAD c:/users/andy/.vscode/extensions/metalcode-eu.windows-arm-none-eabi-0.1.6/bin/../lib/gcc/arm-none-eabi/8.2.1/thumb/v7e-m+fp/hard\libgcc.a
LOAD c:/users/andy/.vscode/extensions/metalcode-eu.windows-arm-none-eabi-0.1.6/bin/../lib/gcc/arm-none-eabi/8.2.1/../../../../arm-none-eabi/lib/thumb/v7e-m+fp/hard\libstdc++.a
END GROUP
START GROUP
LOAD c:/users/andy/.vscode/extensions/metalcode-eu.windows-arm-none-eabi-0.1.6/bin/../lib/gcc/arm-none-eabi/8.2.1/thumb/v7e-m+fp/hard\libgcc.a
LOAD c:/users/andy/.vscode/extensions/metalcode-eu.windows-arm-none-eabi-0.1.6/bin/../lib/gcc/arm-none-eabi/8.2.1/../../../../arm-none-eabi/lib/thumb/v7e-m+fp/hard\libc.a
END GROUP
START GROUP
LOAD c:/users/andy/.vscode/extensions/metalcode-eu.windows-arm-none-eabi-0.1.6/bin/../lib/gcc/arm-none-eabi/8.2.1/thumb/v7e-m+fp/hard\libgcc.a
LOAD c:/users/andy/.vscode/extensions/metalcode-eu.windows-arm-none-eabi-0.1.6/bin/../lib/gcc/arm-none-eabi/8.2.1/../../../../arm-none-eabi/lib/thumb/v7e-m+fp/hard\libc.a
LOAD c:/users/andy/.vscode/extensions/metalcode-eu.windows-arm-none-eabi-0.1.6/bin/../lib/gcc/arm-none-eabi/8.2.1/../../../../arm-none-eabi/lib/thumb/v7e-m+fp/hard\libnosys.a
END GROUP
LOAD c:/users/andy/.vscode/extensions/metalcode-eu.windows-arm-none-eabi-0.1.6/bin/../lib/gcc/arm-none-eabi/8.2.1/thumb/v7e-m+fp/hard/crtend.o
LOAD c:/users/andy/.vscode/extensions/metalcode-eu.windows-arm-none-eabi-0.1.6/bin/../lib/gcc/arm-none-eabi/8.2.1/thumb/v7e-m+fp/hard/crtn.o
                0x20020000                _estack = 0x20020000
                0x00000200                _Min_Heap_Size = 0x200
                0x00000400                _Min_Stack_Size = 0x400

.isr_vector     0x08008000      0x188
                0x08008000                . = ALIGN (0x4)
 *(.isr_vector)
 .isr_vector    0x08008000      0x188 ./build/\libSTMCore.a(startup_stm32yyxx.o)
                0x08008000                g_pfnVectors
                0x08008188                . = ALIGN (0x4)

.reset_data     0x0800c000     0x4000
                0x0800c000                . = ALIGN (0x4)
                0x0800c000                __reset_data_start = .
 *(.reset_data)
 .reset_data    0x0800c000     0x4000 ./build/./RepRapFirmware/src/STM32/NVMEmulation.o
                0x0800c000                ResetData
                0x08010000                . = ALIGN (0x4)

.text           0x08010000    0x4eb00
                0x08010000                . = ALIGN (0x4)
 *(.text)
 .text          0x08010000       0x40 c:/users/andy/.vscode/extensions/metalcode-eu.windows-arm-none-eabi-0.1.6/bin/../lib/gcc/arm-none-eabi/8.2.1/thumb/v7e-m+fp/hard/crtbegin.o
 .text          0x08010040      0x2dc c:/users/andy/.vscode/extensions/metalcode-eu.windows-arm-none-eabi-0.1.6/bin/../lib/gcc/arm-none-eabi/8.2.1/../../../../arm-none-eabi/lib/thumb/v7e-m+fp/hard\libc.a(lib_a-strcmp.o)
                0x08010048                strcmp
 *fill*         0x0801031c       0x24 
 .text          0x08010340       0xdc c:/users/andy/.vscode/extensions/metalcode-eu.windows-arm-none-eabi-0.1.6/bin/../lib/gcc/arm-none-eabi/8.2.1/../../../../arm-none-eabi/lib/thumb/v7e-m+fp/hard\libc.a(lib_a-strlen.o)
                0x08010340                strlen
 .text          0x0801041c      0x378 c:/users/andy/.vscode/extensions/metalcode-eu.windows-arm-none-eabi-0.1.6/bin/../lib/gcc/arm-none-eabi/8.2.1/thumb/v7e-m+fp/hard\libgcc.a(_arm_addsubdf3.o)
                0x0801041c                __aeabi_drsub
                0x08010424                __subdf3
                0x08010424                __aeabi_dsub
                0x08010428                __aeabi_dadd
                0x08010428                __adddf3
                0x080106a0                __floatunsidf
                0x080106a0                __aeabi_ui2d
                0x080106c0                __aeabi_i2d
                0x080106c0                __floatsidf
                0x080106e4                __extendsfdf2
                0x080106e4                __aeabi_f2d
                0x08010728                __floatundidf
                0x08010728                __aeabi_ul2d
                0x08010738                __aeabi_l2d
                0x08010738                __floatdidf
 .text          0x08010794      0x424 c:/users/andy/.vscode/extensions/metalcode-eu.windows-arm-none-eabi-0.1.6/bin/../lib/gcc/arm-none-eabi/8.2.1/thumb/v7e-m+fp/hard\libgcc.a(_arm_muldivdf3.o)
                0x08010794                __aeabi_dmul
                0x08010794                __muldf3
                0x080109e8                __divdf3
                0x080109e8                __aeabi_ddiv
 .text          0x08010bb8      0x110 c:/users/andy/.vscode/extensions/metalcode-eu.windows-arm-none-eabi-0.1.6/bin/../lib/gcc/arm-none-eabi/8.2.1/thumb/v7e-m+fp/hard\libgcc.a(_arm_cmpdf2.o)
                0x08010bb8                __gtdf2
                0x08010bb8                __gedf2
                0x08010bc0                __ltdf2
                0x08010bc0                __ledf2
                0x08010bc8                __nedf2
                0x08010bc8                __cmpdf2
                0x08010bc8                __eqdf2
                0x08010c44                __aeabi_cdrcmple
                0x08010c54                __aeabi_cdcmple
                0x08010c54                __aeabi_cdcmpeq
                0x08010c64                __aeabi_dcmpeq
                0x08010c78                __aeabi_dcmplt
                0x08010c8c                __aeabi_dcmple
                0x08010ca0                __aeabi_dcmpge
                0x08010cb4                __aeabi_dcmpgt
 .text          0x08010cc8       0x2c c:/users/andy/.vscode/extensions/metalcode-eu.windows-arm-none-eabi-0.1.6/bin/../lib/gcc/arm-none-eabi/8.2.1/thumb/v7e-m+fp/hard\libgcc.a(_arm_unorddf2.o)
                0x08010cc8                __unorddf2
                0x08010cc8                __aeabi_dcmpun
 .text          0x08010cf4       0xa0 c:/users/andy/.vscode/extensions/metalcode-eu.windows-arm-none-eabi-0.1.6/bin/../lib/gcc/arm-none-eabi/8.2.1/thumb/v7e-m+fp/hard\libgcc.a(_arm_truncdfsf2.o)
                0x08010cf4                __truncdfsf2
                0x08010cf4                __aeabi_d2f
 .text          0x08010d94      0x21c c:/users/andy/.vscode/extensions/metalcode-eu.windows-arm-none-eabi-0.1.6/bin/../lib/gcc/arm-none-eabi/8.2.1/thumb/v7e-m+fp/hard\libgcc.a(_arm_addsubsf3.o)
                0x08010d94                __aeabi_frsub
                0x08010d9c                __subsf3
                0x08010d9c                __aeabi_fsub
                0x08010da0                __addsf3
                0x08010da0                __aeabi_fadd
                0x08010f00                __aeabi_ui2f
                0x08010f00                __floatunsisf
                0x08010f08                __floatsisf
                0x08010f08                __aeabi_i2f
                0x08010f24                __aeabi_ul2f
                0x08010f24                __floatundisf
                0x08010f34                __aeabi_l2f
                0x08010f34                __floatdisf
 .text          0x08010fb0       0xa0 c:/users/andy/.vscode/extensions/metalcode-eu.windows-arm-none-eabi-0.1.6/bin/../lib/gcc/arm-none-eabi/8.2.1/thumb/v7e-m+fp/hard\libgcc.a(_aeabi_ldivmod.o)
                0x08010fb0                __aeabi_ldivmod
 .text          0x08011050       0x30 c:/users/andy/.vscode/extensions/metalcode-eu.windows-arm-none-eabi-0.1.6/bin/../lib/gcc/arm-none-eabi/8.2.1/thumb/v7e-m+fp/hard\libgcc.a(_aeabi_uldivmod.o)
                0x08011050                __aeabi_uldivmod
 .text          0x08011080       0x20 c:/users/andy/.vscode/extensions/metalcode-eu.windows-arm-none-eabi-0.1.6/bin/../lib/gcc/arm-none-eabi/8.2.1/thumb/v7e-m+fp/hard\libgcc.a(_ctzdi2.o)
                0x08011080                __ctzdi2
 .text          0x080110a0       0x24 c:/users/andy/.vscode/extensions/metalcode-eu.windows-arm-none-eabi-0.1.6/bin/../lib/gcc/arm-none-eabi/8.2.1/thumb/v7e-m+fp/hard\libgcc.a(_fixsfdi.o)
                0x080110a0                __aeabi_f2lz
                0x080110a0                __fixsfdi
 .text          0x080110c4       0x30 c:/users/andy/.vscode/extensions/metalcode-eu.windows-arm-none-eabi-0.1.6/bin/../lib/gcc/arm-none-eabi/8.2.1/thumb/v7e-m+fp/hard\libgcc.a(_fixdfdi.o)
                0x080110c4                __aeabi_d2lz
                0x080110c4                __fixdfdi
 .text          0x080110f4       0x40 c:/users/andy/.vscode/extensions/metalcode-eu.windows-arm-none-eabi-0.1.6/bin/../lib/gcc/arm-none-eabi/8.2.1/thumb/v7e-m+fp/hard\libgcc.a(_fixunssfdi.o)
                0x080110f4                __aeabi_f2ulz
                0x080110f4                __fixunssfdi
 .text          0x08011134       0x3c c:/users/andy/.vscode/extensions/metalcode-eu.windows-arm-none-eabi-0.1.6/bin/../lib/gcc/arm-none-eabi/8.2.1/thumb/v7e-m+fp/hard\libgcc.a(_fixunsdfdi.o)
                0x08011134                __fixunsdfdi
                0x08011134                __aeabi_d2ulz
 .text          0x08011170      0x2d0 c:/users/andy/.vscode/extensions/metalcode-eu.windows-arm-none-eabi-0.1.6/bin/../lib/gcc/arm-none-eabi/8.2.1/thumb/v7e-m+fp/hard\libgcc.a(_udivmoddi4.o)
                0x08011170                __udivmoddi4
 .text          0x08011440      0x9d8 c:/users/andy/.vscode/extensions/metalcode-eu.windows-arm-none-eabi-0.1.6/bin/../lib/gcc/arm-none-eabi/8.2.1/thumb/v7e-m+fp/hard\libgcc.a(unwind-arm.o)
                0x080116f8                _Unwind_GetCFA
                0x080116fc                __gnu_Unwind_RaiseException
                0x0801175c                __gnu_Unwind_ForcedUnwind
                0x08011770                __gnu_Unwind_Resume
                0x080117b4                __gnu_Unwind_Resume_or_Rethrow
                0x080117c4                _Unwind_Complete
                0x080117c8                _Unwind_DeleteException
                0x080117d4                _Unwind_VRS_Get
                0x08011818                _Unwind_VRS_Set
                0x0801185c                __gnu_Unwind_Backtrace
                0x08011b94                __aeabi_unwind_cpp_pr0
                0x08011b98                __aeabi_unwind_cpp_pr1
                0x08011b9c                __aeabi_unwind_cpp_pr2
                0x08011ba0                _Unwind_VRS_Pop
 .text          0x08011e18      0x1ac c:/users/andy/.vscode/extensions/metalcode-eu.windows-arm-none-eabi-0.1.6/bin/../lib/gcc/arm-none-eabi/8.2.1/thumb/v7e-m+fp/hard\libgcc.a(libunwind.o)
                0x08011e18                __restore_core_regs
                0x08011e18                restore_core_regs
                0x08011e30                __gnu_Unwind_Restore_VFP
                0x08011e38                __gnu_Unwind_Save_VFP
                0x08011e40                __gnu_Unwind_Restore_VFP_D
                0x08011e48                __gnu_Unwind_Save_VFP_D
                0x08011e50                __gnu_Unwind_Restore_VFP_D_16_to_31
                0x08011e58                __gnu_Unwind_Save_VFP_D_16_to_31
                0x08011e60                __gnu_Unwind_Restore_WMMXD
                0x08011ea4                __gnu_Unwind_Save_WMMXD
                0x08011ee8                __gnu_Unwind_Restore_WMMXC
                0x08011efc                __gnu_Unwind_Save_WMMXC
                0x08011f10                ___Unwind_RaiseException
                0x08011f10                _Unwind_RaiseException
                0x08011f34                ___Unwind_Resume
                0x08011f34                _Unwind_Resume
                0x08011f58                ___Unwind_Resume_or_Rethrow
                0x08011f58                _Unwind_Resume_or_Rethrow
                0x08011f7c                _Unwind_ForcedUnwind
                0x08011f7c                ___Unwind_ForcedUnwind
                0x08011fa0                ___Unwind_Backtrace
                0x08011fa0                _Unwind_Backtrace
 .text          0x08011fc4      0x368 c:/users/andy/.vscode/extensions/metalcode-eu.windows-arm-none-eabi-0.1.6/bin/../lib/gcc/arm-none-eabi/8.2.1/thumb/v7e-m+fp/hard\libgcc.a(pr-support.o)
                0x0801201c                __gnu_unwind_execute
                0x080122e4                __gnu_unwind_frame
                0x0801230c                _Unwind_GetRegionStart
                0x08012318                _Unwind_GetLanguageSpecificData
 .text          0x0801232c        0x4 c:/users/andy/.vscode/extensions/metalcode-eu.windows-arm-none-eabi-0.1.6/bin/../lib/gcc/arm-none-eabi/8.2.1/thumb/v7e-m+fp/hard\libgcc.a(_dvmd_tls.o)
                0x0801232c                __aeabi_idiv0
                0x0801232c                __aeabi_ldiv0
 .text          0x08012330       0x40 c:/users/andy/.vscode/extensions/metalcode-eu.windows-arm-none-eabi-0.1.6/bin/../lib/gcc/arm-none-eabi/8.2.1/thumb/v7e-m+fp/hard\libgcc.a(_arm_fixunsdfsi.o)
                0x08012330                __fixunsdfsi
                0x08012330                __aeabi_d2uiz
 *(.text*)
 .text._sbrk    0x08012370       0x3c ./build/./CoreSTM32F4/cores/arduino/syscalls.o
                0x08012370                _sbrk
 .text._exit    0x080123ac        0x2 ./build/./CoreSTM32F4/cores/arduino/syscalls.o
                0x080123ac                _exit
 *fill*         0x080123ae        0x2 
 .text._kill    0x080123b0       0x10 ./build/./CoreSTM32F4/cores/arduino/syscalls.o
                0x080123b0                _kill
 .text._getpid  0x080123c0        0x4 ./build/./CoreSTM32F4/cores/arduino/syscalls.o
                0x080123c0                _getpid
 .text.memcmp   0x080123c4       0x1c ./build/./RepRapFirmware/src/libc/memcmp.o
                0x080123c4                memcmp
 .text.memcpy   0x080123e0       0x1c ./build/./RepRapFirmware/src/libc/memcpy.o
                0x080123e0                memcpy
 .text.memmove  0x080123fc       0x34 ./build/./RepRapFirmware/src/libc/memmove.o
                0x080123fc                memmove
 .text.memset   0x08012430       0x10 ./build/./RepRapFirmware/src/libc/memset.o
                0x08012430                memset
 .text.malloc   0x08012440       0x98 ./build/./RepRapFirmware/src/libc/nano-mallocr.o
                0x08012440                malloc
 .text.free     0x080124d8       0x8c ./build/./RepRapFirmware/src/libc/nano-mallocr.o
                0x080124d8                free
 .text.mallinfo
                0x08012564       0x54 ./build/./RepRapFirmware/src/libc/nano-mallocr.o
                0x08012564                mallinfo
 .text.__cxa_allocate_exception
                0x080125b8       0x1e ./build/./RepRapFirmware/src/libcpp/eh_alloc.o
                0x080125b8                __cxa_allocate_exception
 .text.__cxa_free_exception
                0x080125d6        0x6 ./build/./RepRapFirmware/src/libcpp/eh_alloc.o
                0x080125d6                __cxa_free_exception
 .text._Z12SafeStrptimePKcS0_P2tm
                0x080125dc      0x1d8 ./build/./RepRapFirmware/src/libc/strptime.o
                0x080125dc                SafeStrptime(char const*, char const*, tm*)
 .text.uart_init
                0x080127b4      0x200 ./build/\libSTMCore.a(uart.o)
                0x080127b4                uart_init
 .text.uart_deinit
                0x080129b4       0xe0 ./build/\libSTMCore.a(uart.o)
                0x080129b4                uart_deinit
 .text.serial_rx_active
                0x08012a94       0x24 ./build/\libSTMCore.a(uart.o)
                0x08012a94                serial_rx_active
 .text.serial_tx_active
                0x08012ab8       0x24 ./build/\libSTMCore.a(uart.o)
                0x08012ab8                serial_tx_active
 .text.uart_getc
                0x08012adc       0x38 ./build/\libSTMCore.a(uart.o)
                0x08012adc                uart_getc
 .text.uart_attach_rx_callback
                0x08012b14       0x40 ./build/\libSTMCore.a(uart.o)
                0x08012b14                uart_attach_rx_callback
 .text.uart_attach_tx_callback
                0x08012b54       0x3c ./build/\libSTMCore.a(uart.o)
                0x08012b54                uart_attach_tx_callback
 .text.uart_set_interrupt_priority
                0x08012b90        0xa ./build/\libSTMCore.a(uart.o)
                0x08012b90                uart_set_interrupt_priority
 .text.HAL_UART_RxCpltCallback
                0x08012b9a        0xc ./build/\libSTMCore.a(uart.o)
                0x08012b9a                HAL_UART_RxCpltCallback
 .text.HAL_UART_TxCpltCallback
                0x08012ba6       0x26 ./build/\libSTMCore.a(uart.o)
                0x08012ba6                HAL_UART_TxCpltCallback
 .text.HAL_UART_ErrorCallback
                0x08012bcc       0x7c ./build/\libSTMCore.a(uart.o)
                0x08012bcc                HAL_UART_ErrorCallback
 .text.USART1_IRQHandler
                0x08012c48       0x18 ./build/\libSTMCore.a(uart.o)
                0x08012c48                USART1_IRQHandler
 .text.USART2_IRQHandler
                0x08012c60       0x18 ./build/\libSTMCore.a(uart.o)
                0x08012c60                USART2_IRQHandler
 .text.USART3_IRQHandler
                0x08012c78       0x1c ./build/\libSTMCore.a(uart.o)
                0x08012c78                USART3_IRQHandler
 .text.UART4_IRQHandler
                0x08012c94       0x18 ./build/\libSTMCore.a(uart.o)
                0x08012c94                UART4_IRQHandler
 .text.UART5_IRQHandler
                0x08012cac       0x18 ./build/\libSTMCore.a(uart.o)
                0x08012cac                UART5_IRQHandler
 .text.USART6_IRQHandler
                0x08012cc4       0x18 ./build/\libSTMCore.a(uart.o)
                0x08012cc4                USART6_IRQHandler
 .text.HAL_MspInit
                0x08012cdc        0x2 ./build/\libSTMCore.a(stm32f4xx_hal.o)
                0x08012cdc                HAL_MspInit
 *fill*         0x08012cde        0x2 
 .text.HAL_InitTick
                0x08012ce0       0x48 ./build/\libSTMCore.a(stm32f4xx_hal.o)
                0x08012ce0                HAL_InitTick
 .text.HAL_Init
                0x08012d28       0x34 ./build/\libSTMCore.a(stm32f4xx_hal.o)
                0x08012d28                HAL_Init
 .text.HAL_IncTick
                0x08012d5c       0x18 ./build/\libSTMCore.a(stm32f4xx_hal.o)
                0x08012d5c                HAL_IncTick
 .text.HAL_GetTick
                0x08012d74        0xc ./build/\libSTMCore.a(stm32f4xx_hal.o)
                0x08012d74                HAL_GetTick
 .text.HAL_Delay
                0x08012d80       0x28 ./build/\libSTMCore.a(stm32f4xx_hal.o)
                0x08012d80                HAL_Delay
 .text.HAL_NVIC_SetPriorityGrouping
                0x08012da8       0x38 ./build/\libSTMCore.a(stm32f4xx_hal_cortex.o)
                0x08012da8                HAL_NVIC_SetPriorityGrouping
 .text.HAL_NVIC_SetPriority
                0x08012de0       0x88 ./build/\libSTMCore.a(stm32f4xx_hal_cortex.o)
                0x08012de0                HAL_NVIC_SetPriority
 .text.HAL_NVIC_EnableIRQ
                0x08012e68       0x28 ./build/\libSTMCore.a(stm32f4xx_hal_cortex.o)
                0x08012e68                HAL_NVIC_EnableIRQ
 .text.HAL_NVIC_DisableIRQ
                0x08012e90       0x34 ./build/\libSTMCore.a(stm32f4xx_hal_cortex.o)
                0x08012e90                HAL_NVIC_DisableIRQ
 .text.HAL_SYSTICK_Config
                0x08012ec4       0x2c ./build/\libSTMCore.a(stm32f4xx_hal_cortex.o)
                0x08012ec4                HAL_SYSTICK_Config
 .text.HAL_NVIC_ClearPendingIRQ
                0x08012ef0       0x2c ./build/\libSTMCore.a(stm32f4xx_hal_cortex.o)
                0x08012ef0                HAL_NVIC_ClearPendingIRQ
 .text.HAL_SYSTICK_CLKSourceConfig
                0x08012f1c       0x30 ./build/\libSTMCore.a(stm32f4xx_hal_cortex.o)
                0x08012f1c                HAL_SYSTICK_CLKSourceConfig
 .text.HAL_SYSTICK_Callback
                0x08012f4c        0x2 ./build/\libSTMCore.a(stm32f4xx_hal_cortex.o)
                0x08012f4c                HAL_SYSTICK_Callback
 .text.HAL_SYSTICK_IRQHandler
                0x08012f4e        0x8 ./build/\libSTMCore.a(stm32f4xx_hal_cortex.o)
                0x08012f4e                HAL_SYSTICK_IRQHandler
 .text.UART_EndRxTransfer
                0x08012f56       0x1a ./build/\libSTMCore.a(stm32f4xx_hal_uart.o)
 .text.UART_SetConfig
                0x08012f70      0x28c ./build/\libSTMCore.a(stm32f4xx_hal_uart.o)
 .text.HAL_UART_MspInit
                0x080131fc        0x2 ./build/\libSTMCore.a(stm32f4xx_hal_uart.o)
                0x080131fc                HAL_UART_MspInit
 *fill*         0x080131fe        0x2 
 .text.HAL_UART_Init
                0x08013200      0x104 ./build/\libSTMCore.a(stm32f4xx_hal_uart.o)
                0x08013200                HAL_UART_Init
 .text.HAL_UART_MspDeInit
                0x08013304        0x2 ./build/\libSTMCore.a(stm32f4xx_hal_uart.o)
                0x08013304                HAL_UART_MspDeInit
 *fill*         0x08013306        0x2 
 .text.HAL_UART_DeInit
                0x08013308       0x74 ./build/\libSTMCore.a(stm32f4xx_hal_uart.o)
                0x08013308                HAL_UART_DeInit
 .text.HAL_UART_Transmit_IT
                0x0801337c       0x3e ./build/\libSTMCore.a(stm32f4xx_hal_uart.o)
                0x0801337c                HAL_UART_Transmit_IT
 .text.HAL_UART_Receive_IT
                0x080133ba       0x4e ./build/\libSTMCore.a(stm32f4xx_hal_uart.o)
                0x080133ba                HAL_UART_Receive_IT
 .text.UART_Receive_IT
                0x08013408       0x76 ./build/\libSTMCore.a(stm32f4xx_hal_uart.o)
 *fill*         0x0801347e        0x2 
 .text.HAL_UART_IRQHandler
                0x08013480      0x140 ./build/\libSTMCore.a(stm32f4xx_hal_uart.o)
                0x08013480                HAL_UART_IRQHandler
 .text.UART_DMAAbortOnError
                0x080135c0       0x10 ./build/\libSTMCore.a(stm32f4xx_hal_uart.o)
 .text.HAL_UART_GetState
                0x080135d0        0xc ./build/\libSTMCore.a(stm32f4xx_hal_uart.o)
                0x080135d0                HAL_UART_GetState
 .text._Z11initVariantv
                0x080135dc        0x2 ./build/\libSTMCore.a(main.o)
                0x080135dc                initVariant()
 .text.startup._Z7premainv
                0x080135de       0x14 ./build/\libSTMCore.a(main.o)
                0x080135de                premain()
 .text.startup.main
                0x080135f2        0xc ./build/\libSTMCore.a(main.o)
                0x080135f2                main
 *fill*         0x080135fe        0x2 
 .text.Reset_Handler
                0x08013600       0x50 ./build/\libSTMCore.a(startup_stm32yyxx.o)
                0x08013600                Reset_Handler
 .text.Default_Handler
                0x08013650        0x2 ./build/\libSTMCore.a(startup_stm32yyxx.o)
                0x08013650                OTG_HS_WKUP_IRQHandler
                0x08013650                DMA2_Stream7_IRQHandler
                0x08013650                ETH_IRQHandler
                0x08013650                SPI2_IRQHandler
                0x08013650                SPI1_IRQHandler
                0x08013650                PVD_IRQHandler
                0x08013650                ADC_IRQHandler
                0x08013650                DMA1_Stream6_IRQHandler
                0x08013650                DMA1_Stream1_IRQHandler
                0x08013650                DMA2_Stream0_IRQHandler
                0x08013650                I2C3_EV_IRQHandler
                0x08013650                DMA1_Stream2_IRQHandler
                0x08013650                RCC_IRQHandler
                0x08013650                I2C1_ER_IRQHandler
                0x08013650                OTG_HS_EP1_OUT_IRQHandler
                0x08013650                DMA2_Stream4_IRQHandler
                0x08013650                I2C2_EV_IRQHandler
                0x08013650                CAN1_RX0_IRQHandler
                0x08013650                DMA1_Stream0_IRQHandler
                0x08013650                DMA1_Stream7_IRQHandler
                0x08013650                CAN2_TX_IRQHandler
                0x08013650                FLASH_IRQHandler
                0x08013650                CAN1_TX_IRQHandler
                0x08013650                SDIO_IRQHandler
                0x08013650                RTC_WKUP_IRQHandler
                0x08013650                FSMC_IRQHandler
                0x08013650                CAN1_SCE_IRQHandler
                0x08013650                BusFault_Handler
                0x08013650                TAMP_STAMP_IRQHandler
                0x08013650                HASH_RNG_IRQHandler
                0x08013650                DMA2_Stream6_IRQHandler
                0x08013650                OTG_HS_EP1_IN_IRQHandler
                0x08013650                Default_Handler
                0x08013650                ETH_WKUP_IRQHandler
                0x08013650                DMA1_Stream5_IRQHandler
                0x08013650                I2C3_ER_IRQHandler
                0x08013650                I2C2_ER_IRQHandler
                0x08013650                CAN2_RX0_IRQHandler
                0x08013650                DMA2_Stream1_IRQHandler
                0x08013650                FPU_IRQHandler
                0x08013650                DCMI_IRQHandler
                0x08013650                CAN2_RX1_IRQHandler
                0x08013650                I2C1_EV_IRQHandler
                0x08013650                SPI3_IRQHandler
                0x08013650                OTG_HS_IRQHandler
                0x08013650                MemManage_Handler
                0x08013650                RTC_Alarm_IRQHandler
                0x08013650                CAN1_RX1_IRQHandler
                0x08013650                CAN2_SCE_IRQHandler
 .text.init     0x08013652        0x4 ./build/\libSTMCore.a(board.o)
                0x08013652                init
 .text.hw_config_init
                0x08013656       0x12 ./build/\libSTMCore.a(hw_config.o)
                0x08013656                hw_config_init
 .text.LL_GPIO_SetPinPull
                0x08013668       0x2a ./build/\libSTMCore.a(pinmap.o)
 *fill*         0x08013692        0x2 
 .text.pin_function
                0x08013694      0x138 ./build/\libSTMCore.a(pinmap.o)
                0x08013694                pin_function
 .text.pinmap_pinout
                0x080137cc       0x28 ./build/\libSTMCore.a(pinmap.o)
                0x080137cc                pinmap_pinout
 .text.pinmap_find_peripheral
                0x080137f4       0x18 ./build/\libSTMCore.a(pinmap.o)
                0x080137f4                pinmap_find_peripheral
 .text.pinmap_peripheral
                0x0801380c        0xc ./build/\libSTMCore.a(pinmap.o)
                0x0801380c                pinmap_peripheral
 .text.pinmap_find_pin
                0x08013818       0x18 ./build/\libSTMCore.a(pinmap.o)
                0x08013818                pinmap_find_pin
 .text.pinmap_pin
                0x08013830        0xc ./build/\libSTMCore.a(pinmap.o)
                0x08013830                pinmap_pin
 .text.pinmap_find_function
                0x0801383c       0x18 ./build/\libSTMCore.a(pinmap.o)
                0x0801383c                pinmap_find_function
 .text.pinmap_function
                0x08013854        0xa ./build/\libSTMCore.a(pinmap.o)
                0x08013854                pinmap_function
 .text.pinmap_merge_peripheral
                0x0801385e       0x12 ./build/\libSTMCore.a(pinmap.o)
                0x0801385e                pinmap_merge_peripheral
 .text.set_GPIO_Port_Clock
                0x08013870      0x130 ./build/\libSTMCore.a(PortNames.o)
                0x08013870                set_GPIO_Port_Clock
 .text._Error_Handler
                0x080139a0        0x2 ./build/\libSTMCore.a(stm32_def.o)
                0x080139a0                _Error_Handler
 *fill*         0x080139a2        0x2 
 .text.SystemInit
                0x080139a4       0x4c ./build/\libSTMCore.a(system_stm32yyxx.o)
                0x080139a4                SystemInit
 .text.DMA_CalcBaseAndBitshift
                0x080139f0       0x2c ./build/\libSTMCore.a(stm32f4xx_hal_dma.o)
 .text.HAL_DMA_Init
                0x08013a1c      0x254 ./build/\libSTMCore.a(stm32f4xx_hal_dma.o)
                0x08013a1c                HAL_DMA_Init
 .text.HAL_DMA_Start_IT
                0x08013c70       0xb4 ./build/\libSTMCore.a(stm32f4xx_hal_dma.o)
                0x08013c70                HAL_DMA_Start_IT
 .text.HAL_DMA_Abort
                0x08013d24       0x86 ./build/\libSTMCore.a(stm32f4xx_hal_dma.o)
                0x08013d24                HAL_DMA_Abort
 .text.HAL_DMA_Abort_IT
                0x08013daa       0x24 ./build/\libSTMCore.a(stm32f4xx_hal_dma.o)
                0x08013daa                HAL_DMA_Abort_IT
 *fill*         0x08013dce        0x2 
 .text.HAL_DMA_IRQHandler
                0x08013dd0      0x17c ./build/\libSTMCore.a(stm32f4xx_hal_dma.o)
                0x08013dd0                HAL_DMA_IRQHandler
 .text.HAL_DMA_RegisterCallback
                0x08013f4c       0x50 ./build/\libSTMCore.a(stm32f4xx_hal_dma.o)
                0x08013f4c                HAL_DMA_RegisterCallback
 .text.HAL_DMA_GetState
                0x08013f9c        0x6 ./build/\libSTMCore.a(stm32f4xx_hal_dma.o)
                0x08013f9c                HAL_DMA_GetState
 *fill*         0x08013fa2        0x2 
 .text.HAL_RCC_OscConfig
                0x08013fa4      0x3fc ./build/\libSTMCore.a(stm32f4xx_hal_rcc.o)
                0x08013fa4                HAL_RCC_OscConfig
 .text.HAL_RCC_GetSysClockFreq
                0x080143a0       0x5c ./build/\libSTMCore.a(stm32f4xx_hal_rcc.o)
                0x080143a0                HAL_RCC_GetSysClockFreq
 .text.HAL_RCC_ClockConfig
                0x080143fc      0x1e4 ./build/\libSTMCore.a(stm32f4xx_hal_rcc.o)
                0x080143fc                HAL_RCC_ClockConfig
 .text.HAL_RCC_GetHCLKFreq
                0x080145e0        0xc ./build/\libSTMCore.a(stm32f4xx_hal_rcc.o)
                0x080145e0                HAL_RCC_GetHCLKFreq
 .text.HAL_RCC_GetPCLK1Freq
                0x080145ec       0x20 ./build/\libSTMCore.a(stm32f4xx_hal_rcc.o)
                0x080145ec                HAL_RCC_GetPCLK1Freq
 .text.HAL_RCC_GetPCLK2Freq
                0x0801460c       0x20 ./build/\libSTMCore.a(stm32f4xx_hal_rcc.o)
                0x0801460c                HAL_RCC_GetPCLK2Freq
 .text.HAL_RCC_GetClockConfig
                0x0801462c       0x3c ./build/\libSTMCore.a(stm32f4xx_hal_rcc.o)
                0x0801462c                HAL_RCC_GetClockConfig
 .text.SystemClock_Config
                0x08014668       0xc8 ./build/\libSTMCore.a(variant.o)
                0x08014668                SystemClock_Config
 .text.dwt_init
                0x08014730       0x38 ./build/\libSTMCore.a(dwt.o)
                0x08014730                dwt_init
 .text.HAL_GPIO_Init
                0x08014768      0x28c ./build/\libSTMCore.a(stm32f4xx_hal_gpio.o)
                0x08014768                HAL_GPIO_Init
 .text.HAL_GPIO_EXTI_IRQHandler
                0x080149f4       0x18 ./build/\libSTMCore.a(stm32f4xx_hal_gpio.o)
                0x080149f4                HAL_GPIO_EXTI_IRQHandler
 .text.ld_dword
                0x08014a0c       0x10 ./build/./RepRapFirmware/src/STM32/FatFS/ff.o
 .text.st_dword
                0x08014a1c       0x10 ./build/./RepRapFirmware/src/STM32/FatFS/ff.o
 .text.clst2sect
                0x08014a2c       0x16 ./build/./RepRapFirmware/src/STM32/FatFS/ff.o
 .text.sum_sfn  0x08014a42       0x1e ./build/./RepRapFirmware/src/STM32/FatFS/ff.o
 .text.get_ldnumber
                0x08014a60       0x3a ./build/./RepRapFirmware/src/STM32/FatFS/ff.o
 .text.ld_clust.isra.3
                0x08014a9a       0x1c ./build/./RepRapFirmware/src/STM32/FatFS/ff.o
 .text.st_clust.isra.4
                0x08014ab6       0x18 ./build/./RepRapFirmware/src/STM32/FatFS/ff.o
 .text.sync_window
                0x08014ace       0x44 ./build/./RepRapFirmware/src/STM32/FatFS/ff.o
 .text.move_window
                0x08014b12       0x36 ./build/./RepRapFirmware/src/STM32/FatFS/ff.o
 .text.check_fs
                0x08014b48       0x70 ./build/./RepRapFirmware/src/STM32/FatFS/ff.o
 .text.find_volume
                0x08014bb8      0x2c4 ./build/./RepRapFirmware/src/STM32/FatFS/ff.o
 .text.put_fat  0x08014e7c       0xf8 ./build/./RepRapFirmware/src/STM32/FatFS/ff.o
 .text.get_fat.isra.10
                0x08014f74       0xb4 ./build/./RepRapFirmware/src/STM32/FatFS/ff.o
 .text.dir_sdi  0x08015028       0x82 ./build/./RepRapFirmware/src/STM32/FatFS/ff.o
 .text.create_chain
                0x080150aa       0xe8 ./build/./RepRapFirmware/src/STM32/FatFS/ff.o
 .text.remove_chain
                0x08015192       0x6e ./build/./RepRapFirmware/src/STM32/FatFS/ff.o
 .text.unlock_fs
                0x08015200       0x16 ./build/./RepRapFirmware/src/STM32/FatFS/ff.o
 .text.validate
                0x08015216       0x4c ./build/./RepRapFirmware/src/STM32/FatFS/ff.o
 .text.dir_clear
                0x08015262       0x52 ./build/./RepRapFirmware/src/STM32/FatFS/ff.o
 .text.dir_next
                0x080152b4       0xaa ./build/./RepRapFirmware/src/STM32/FatFS/ff.o
 *fill*         0x0801535e        0x2 
 .text.dir_find
                0x08015360      0x148 ./build/./RepRapFirmware/src/STM32/FatFS/ff.o
 .text.dir_register
                0x080154a8      0x290 ./build/./RepRapFirmware/src/STM32/FatFS/ff.o
 .text.sync_fs  0x08015738       0x96 ./build/./RepRapFirmware/src/STM32/FatFS/ff.o
 *fill*         0x080157ce        0x2 
 .text.follow_path
                0x080157d0      0x320 ./build/./RepRapFirmware/src/STM32/FatFS/ff.o
 .text.f_mount  0x08015af0       0x70 ./build/./RepRapFirmware/src/STM32/FatFS/ff.o
                0x08015af0                f_mount
 .text.f_open   0x08015b60      0x1a2 ./build/./RepRapFirmware/src/STM32/FatFS/ff.o
                0x08015b60                f_open
 .text.f_read   0x08015d02      0x148 ./build/./RepRapFirmware/src/STM32/FatFS/ff.o
                0x08015d02                f_read
 .text.f_write  0x08015e4a      0x1a2 ./build/./RepRapFirmware/src/STM32/FatFS/ff.o
                0x08015e4a                f_write
 .text.f_sync   0x08015fec       0x74 ./build/./RepRapFirmware/src/STM32/FatFS/ff.o
                0x08015fec                f_sync
 .text.f_close  0x08016060       0x28 ./build/./RepRapFirmware/src/STM32/FatFS/ff.o
                0x08016060                f_close
 .text.f_lseek  0x08016088      0x120 ./build/./RepRapFirmware/src/STM32/FatFS/ff.o
                0x08016088                f_lseek
 .text.ff_uni2oem
                0x080161a8       0x40 ./build/./RepRapFirmware/src/STM32/FatFS/ffunicode.o
                0x080161a8                ff_uni2oem
 .text.ff_wtoupper
                0x080161e8       0x8c ./build/./RepRapFirmware/src/STM32/FatFS/ffunicode.o
                0x080161e8                ff_wtoupper
 .text._ZN9RTOSIface24LeaveTaskCriticalSectionEv
                0x08016274        0xe ./build/./RepRapFirmware/src/OutputMemory.o
                0x08016274                RTOSIface::LeaveTaskCriticalSection()
 .text._ZN12OutputBuffer18IncreaseReferencesEj
                0x08016282       0x28 ./build/./RepRapFirmware/src/OutputMemory.o
                0x08016282                OutputBuffer::IncreaseReferences(unsigned int)
 .text._ZNK12OutputBuffer6LengthEv
                0x080162aa       0x12 ./build/./RepRapFirmware/src/OutputMemory.o
                0x080162aa                OutputBuffer::Length() const
 .text._ZN12OutputBufferixEj
                0x080162bc       0x14 ./build/./RepRapFirmware/src/OutputMemory.o
                0x080162bc                OutputBuffer::operator[](unsigned int)
 .text._ZN12OutputBuffer4ReadEj
                0x080162d0       0x10 ./build/./RepRapFirmware/src/OutputMemory.o
                0x080162d0                OutputBuffer::Read(unsigned int)
 .text._ZN12OutputBuffer4InitEv
                0x080162e0       0x24 ./build/./RepRapFirmware/src/OutputMemory.o
                0x080162e0                OutputBuffer::Init()
 .text._ZN12OutputBuffer8AllocateERPS_
                0x08016304       0x84 ./build/./RepRapFirmware/src/OutputMemory.o
                0x08016304                OutputBuffer::Allocate(OutputBuffer*&)
 .text._ZN12OutputBuffer3catEPKcj
                0x08016388       0x84 ./build/./RepRapFirmware/src/OutputMemory.o
                0x08016388                OutputBuffer::cat(char const*, unsigned int)
 .text._ZN12OutputBuffer3catEPKc
                0x0801640c       0x1a ./build/./RepRapFirmware/src/OutputMemory.o
                0x0801640c                OutputBuffer::cat(char const*)
 .text._ZN12OutputBuffer4catfEPKcz
                0x08016426       0x32 ./build/./RepRapFirmware/src/OutputMemory.o
                0x08016426                OutputBuffer::catf(char const*, ...)
 .text._ZN12OutputBuffer7ReleaseEPS_
                0x08016458       0x44 ./build/./RepRapFirmware/src/OutputMemory.o
                0x08016458                OutputBuffer::Release(OutputBuffer*)
 .text._ZN12OutputBuffer10ReleaseAllERVPS_
                0x0801649c       0x14 ./build/./RepRapFirmware/src/OutputMemory.o
                0x0801649c                OutputBuffer::ReleaseAll(OutputBuffer* volatile&)
 .text._ZN12OutputBuffer4copyEc
                0x080164b0       0x1a ./build/./RepRapFirmware/src/OutputMemory.o
                0x080164b0                OutputBuffer::copy(char)
 .text._ZN12OutputBuffer3catEc
                0x080164ca       0x52 ./build/./RepRapFirmware/src/OutputMemory.o
                0x080164ca                OutputBuffer::cat(char)
 .text._ZN12OutputBuffer10EncodeCharEc
                0x0801651c       0x48 ./build/./RepRapFirmware/src/OutputMemory.o
                0x0801651c                OutputBuffer::EncodeChar(char)
 .text._ZN12OutputBuffer12EncodeStringEPKcbb
                0x08016564       0x4a ./build/./RepRapFirmware/src/OutputMemory.o
                0x08016564                OutputBuffer::EncodeString(char const*, bool, bool)
 .text._ZN12OutputBuffer11EncodeReplyEPS_
                0x080165ae       0x50 ./build/./RepRapFirmware/src/OutputMemory.o
                0x080165ae                OutputBuffer::EncodeReply(OutputBuffer*)
 .text._ZN12OutputBuffer4lcatEPKcj
                0x080165fe       0x24 ./build/./RepRapFirmware/src/OutputMemory.o
                0x080165fe                OutputBuffer::lcat(char const*, unsigned int)
 .text._ZN12OutputBuffer4lcatEPKc
                0x08016622       0x1a ./build/./RepRapFirmware/src/OutputMemory.o
                0x08016622                OutputBuffer::lcat(char const*)
 .text._ZN12OutputBuffer5lcatfEPKcz
                0x0801663c       0x32 ./build/./RepRapFirmware/src/OutputMemory.o
                0x0801663c                OutputBuffer::lcatf(char const*, ...)
 .text._ZN12OutputBuffer4copyEPKcj
                0x0801666e       0x26 ./build/./RepRapFirmware/src/OutputMemory.o
                0x0801666e                OutputBuffer::copy(char const*, unsigned int)
 .text._ZN12OutputBuffer4copyEPKc
                0x08016694       0x1a ./build/./RepRapFirmware/src/OutputMemory.o
                0x08016694                OutputBuffer::copy(char const*)
 .text._ZN12OutputBuffer6printfEPKcz
                0x080166ae       0x2c ./build/./RepRapFirmware/src/OutputMemory.o
                0x080166ae                OutputBuffer::printf(char const*, ...)
 *fill*         0x080166da        0x2 
 .text._ZN12OutputBuffer11DiagnosticsE11MessageType
                0x080166dc       0x34 ./build/./RepRapFirmware/src/OutputMemory.o
                0x080166dc                OutputBuffer::Diagnostics(MessageType)
 .text._ZNV11OutputStack4PushEP12OutputBuffer11MessageType
                0x08016710       0x60 ./build/./RepRapFirmware/src/OutputMemory.o
                0x08016710                OutputStack::Push(OutputBuffer*, MessageType) volatile
 .text._ZNV11OutputStack3PopEv
                0x08016770       0x3a ./build/./RepRapFirmware/src/OutputMemory.o
                0x08016770                OutputStack::Pop() volatile
 .text._ZNVK11OutputStack12GetFirstItemEv
                0x080167aa        0xc ./build/./RepRapFirmware/src/OutputMemory.o
                0x080167aa                OutputStack::GetFirstItem() const volatile
 .text._ZNVK11OutputStack16GetFirstItemTypeEv
                0x080167b6        0xe ./build/./RepRapFirmware/src/OutputMemory.o
                0x080167b6                OutputStack::GetFirstItemType() const volatile
 .text._ZNV11OutputStack12SetFirstItemEP12OutputBuffer
                0x080167c4       0x1e ./build/./RepRapFirmware/src/OutputMemory.o
                0x080167c4                OutputStack::SetFirstItem(OutputBuffer*) volatile
 .text._ZNV11OutputStack16ReleaseFirstItemEv
                0x080167e2       0x22 ./build/./RepRapFirmware/src/OutputMemory.o
                0x080167e2                OutputStack::ReleaseFirstItem() volatile
 .text._ZNV11OutputStack12ApplyTimeoutEm
                0x08016804       0x3a ./build/./RepRapFirmware/src/OutputMemory.o
                0x08016804                OutputStack::ApplyTimeout(unsigned long) volatile
 .text._ZNVK11OutputStack11GetLastItemEv
                0x0801683e       0x14 ./build/./RepRapFirmware/src/OutputMemory.o
                0x0801683e                OutputStack::GetLastItem() const volatile
 .text._ZNVK11OutputStack15GetLastItemTypeEv
                0x08016852       0x14 ./build/./RepRapFirmware/src/OutputMemory.o
                0x08016852                OutputStack::GetLastItemType() const volatile
 .text._ZNV11OutputStack10ReleaseAllEv
                0x08016866       0x1e ./build/./RepRapFirmware/src/OutputMemory.o
                0x08016866                OutputStack::ReleaseAll() volatile
 .text._ZN8PlatformUlPK11ObjectModelRK24ObjectExplorationContextE1_4_FUNES2_S5_
                0x08016884        0x4 ./build/./RepRapFirmware/src/Platform.o
 .text._ZN8PlatformUlPK11ObjectModelR24ObjectExplorationContextE3_4_FUNES2_S4_
                0x08016888       0x10 ./build/./RepRapFirmware/src/Platform.o
 .text._ZN8PlatformUlPK11ObjectModelR24ObjectExplorationContextE4_4_FUNES2_S4_
                0x08016898       0x10 ./build/./RepRapFirmware/src/Platform.o
 .text._ZN8PlatformUlPK11ObjectModelR24ObjectExplorationContextE5_4_FUNES2_S4_
                0x080168a8       0x10 ./build/./RepRapFirmware/src/Platform.o
 .text._ZN8PlatformUlPK11ObjectModelR24ObjectExplorationContextE6_4_FUNES2_S4_
                0x080168b8       0x10 ./build/./RepRapFirmware/src/Platform.o
 .text._ZN8PlatformUlPK11ObjectModelR24ObjectExplorationContextE8_4_FUNES2_S4_
                0x080168c8       0x10 ./build/./RepRapFirmware/src/Platform.o
 .text._ZN8PlatformUlPK11ObjectModelR24ObjectExplorationContextE9_4_FUNES2_S4_
                0x080168d8        0x8 ./build/./RepRapFirmware/src/Platform.o
 .text._ZN8PlatformUlPK11ObjectModelR24ObjectExplorationContextE10_4_FUNES2_S4_
                0x080168e0        0xa ./build/./RepRapFirmware/src/Platform.o
 .text._ZN8PlatformUlPK11ObjectModelR24ObjectExplorationContextE11_4_FUNES2_S4_
                0x080168ea       0x1a ./build/./RepRapFirmware/src/Platform.o
 .text._ZN8PlatformUlPK11ObjectModelR24ObjectExplorationContextE12_4_FUNES2_S4_
                0x08016904       0x10 ./build/./RepRapFirmware/src/Platform.o
 .text._ZN8PlatformUlPK11ObjectModelR24ObjectExplorationContextE13_4_FUNES2_S4_
                0x08016914       0x10 ./build/./RepRapFirmware/src/Platform.o
 .text._ZN8PlatformUlPK11ObjectModelR24ObjectExplorationContextE14_4_FUNES2_S4_
                0x08016924        0xa ./build/./RepRapFirmware/src/Platform.o
 .text._ZN8PlatformUlPK11ObjectModelR24ObjectExplorationContextE15_4_FUNES2_S4_
                0x0801692e       0x1a ./build/./RepRapFirmware/src/Platform.o
 .text._ZN8PlatformUlPK11ObjectModelR24ObjectExplorationContextE22_4_FUNES2_S4_
                0x08016948       0x10 ./build/./RepRapFirmware/src/Platform.o
 .text._ZN8PlatformUlPK11ObjectModelR24ObjectExplorationContextE29_4_FUNES2_S4_
                0x08016958       0x1a ./build/./RepRapFirmware/src/Platform.o
 *fill*         0x08016972        0x2 
 .text._ZN8PlatformUlPK11ObjectModelR24ObjectExplorationContextE36_4_FUNES2_S4_
                0x08016974       0x10 ./build/./RepRapFirmware/src/Platform.o
 .text._ZN8PlatformUlPK11ObjectModelR24ObjectExplorationContextE43_4_FUNES2_S4_
                0x08016984       0x1a ./build/./RepRapFirmware/src/Platform.o
 .text._ZN8PlatformUlPK11ObjectModelR24ObjectExplorationContextE44_4_FUNES2_S4_
                0x0801699e       0x1a ./build/./RepRapFirmware/src/Platform.o
 .text._ZNK8Platform29GetObjectModelClassDescriptorEv
                0x080169b8        0x8 ./build/./RepRapFirmware/src/Platform.o
                0x080169b8                Platform::GetObjectModelClassDescriptor() const
 .text._ZNSt14_Function_base13_Base_managerIZN8Platform13ReportDriversE11MessageTypeR6BitmapImEPKcRbEUljjE_E10_M_managerERSt9_Any_dataRKSB_St18_Manager_operation
                0x080169c0       0x16 ./build/./RepRapFirmware/src/Platform.o
 .text._ZNSt14_Function_base13_Base_managerIZN8Platform22DriverCoolingFansOnOffE6BitmapItEbEUljjE_E10_M_managerERSt9_Any_dataRKS6_St18_Manager_operation
                0x080169d6       0x1a ./build/./RepRapFirmware/src/Platform.o
 .text._ZNSt14_Function_base13_Base_managerIZN8Platform12SetDirectionEjbEUlhE_E10_M_managerERSt9_Any_dataRKS4_St18_Manager_operation
                0x080169f0       0x1a ./build/./RepRapFirmware/src/Platform.o
 .text._ZNSt14_Function_base13_Base_managerIZN8Platform18EnableLocalDriversEjEUlhE_E10_M_managerERSt9_Any_dataRKS4_St18_Manager_operation
                0x08016a0a       0x1a ./build/./RepRapFirmware/src/Platform.o
 .text._ZNSt14_Function_base13_Base_managerIZN8Platform14DisableDriversEjEUlhE_E10_M_managerERSt9_Any_dataRKS4_St18_Manager_operation
                0x08016a24       0x16 ./build/./RepRapFirmware/src/Platform.o
 .text._ZNSt14_Function_base13_Base_managerIZN8Platform14SetDriversIdleEvEUlhE_E10_M_managerERSt9_Any_dataRKS4_St18_Manager_operation
                0x08016a3a       0x1a ./build/./RepRapFirmware/src/Platform.o
 .text._ZNSt14_Function_base13_Base_managerIZN8Platform20SetIdleCurrentFactorEfEUlhE_E10_M_managerERSt9_Any_dataRKS4_St18_Manager_operation
                0x08016a54       0x1a ./build/./RepRapFirmware/src/Platform.o
 .text._ZNSt17_Function_handlerIFvjEZN8Platform18SetPressureAdvanceEfR11GCodeBufferRK9StringRefEUljE_E9_M_invokeERKSt9_Any_dataOj
                0x08016a6e       0x10 ./build/./RepRapFirmware/src/Platform.o
 .text._ZNSt14_Function_base13_Base_managerIZN8Platform18SetPressureAdvanceEfR11GCodeBufferRK9StringRefEUljE_E10_M_managerERSt9_Any_dataRKS9_St18_Manager_operation
                0x08016a7e       0x1a ./build/./RepRapFirmware/src/Platform.o
 .text._ZNSt17_Function_handlerIFvhEZN8Platform23ConfigureStallDetectionER11GCodeBufferRK9StringRefRP12OutputBufferEUlhE_E9_M_invokeERKSt9_Any_dataOh
                0x08016a98       0x12 ./build/./RepRapFirmware/src/Platform.o
 .text._ZNSt14_Function_base13_Base_managerIZN8Platform23ConfigureStallDetectionER11GCodeBufferRK9StringRefRP12OutputBufferEUlhE_E10_M_managerERSt9_Any_dataRKSC_St18_Manager_operation
                0x08016aaa       0x16 ./build/./RepRapFirmware/src/Platform.o
 .text._ZNSt14_Function_base13_Base_managerIZN8Platform23ConfigureStallDetectionER11GCodeBufferRK9StringRefRP12OutputBufferEUljjE0_E10_M_managerERSt9_Any_dataRKSC_St18_Manager_operation
                0x08016ac0       0x16 ./build/./RepRapFirmware/src/Platform.o
 .text._ZNSt14_Function_base13_Base_managerIZN8Platform23ConfigureStallDetectionER11GCodeBufferRK9StringRefRP12OutputBufferEUljjE1_E10_M_managerERSt9_Any_dataRKSC_St18_Manager_operation
                0x08016ad6       0x16 ./build/./RepRapFirmware/src/Platform.o
 .text._ZNSt14_Function_base13_Base_managerIZN8Platform23ConfigureStallDetectionER11GCodeBufferRK9StringRefRP12OutputBufferEUljjE2_E10_M_managerERSt9_Any_dataRKSC_St18_Manager_operation
                0x08016aec       0x16 ./build/./RepRapFirmware/src/Platform.o
 .text._ZNSt14_Function_base13_Base_managerIZN8Platform23ConfigureStallDetectionER11GCodeBufferRK9StringRefRP12OutputBufferEUljjE3_E10_M_managerERSt9_Any_dataRKSC_St18_Manager_operation
                0x08016b02       0x16 ./build/./RepRapFirmware/src/Platform.o
 .text._ZN8PlatformD2Ev
                0x08016b18       0x58 ./build/./RepRapFirmware/src/Platform.o
                0x08016b18                Platform::~Platform()
                0x08016b18                Platform::~Platform()
 .text._ZN8PlatformUlPK11ObjectModelRK24ObjectExplorationContextE_4_FUNES2_S5_
                0x08016b70       0x12 ./build/./RepRapFirmware/src/Platform.o
 .text._ZN8PlatformUlPK11ObjectModelR24ObjectExplorationContextE52_4_FUNES2_S4_
                0x08016b82       0x20 ./build/./RepRapFirmware/src/Platform.o
 .text._ZN8PlatformUlPK11ObjectModelR24ObjectExplorationContextE51_4_FUNES2_S4_
                0x08016ba2       0x20 ./build/./RepRapFirmware/src/Platform.o
 .text._ZN8PlatformUlPK11ObjectModelR24ObjectExplorationContextE50_4_FUNES2_S4_
                0x08016bc2       0x20 ./build/./RepRapFirmware/src/Platform.o
 .text._ZN8PlatformUlPK11ObjectModelR24ObjectExplorationContextE33_4_FUNES2_S4_
                0x08016be2       0x20 ./build/./RepRapFirmware/src/Platform.o
 .text._ZN8PlatformUlPK11ObjectModelR24ObjectExplorationContextE19_4_FUNES2_S4_
                0x08016c02       0x20 ./build/./RepRapFirmware/src/Platform.o
 .text._ZN8PlatformUlPK11ObjectModelR24ObjectExplorationContextE27_4_FUNES2_S4_
                0x08016c22       0x22 ./build/./RepRapFirmware/src/Platform.o
 .text._ZN8PlatformUlPK11ObjectModelR24ObjectExplorationContextE30_4_FUNES2_S4_
                0x08016c44       0x22 ./build/./RepRapFirmware/src/Platform.o
 .text._ZN8PlatformD0Ev
                0x08016c66       0x16 ./build/./RepRapFirmware/src/Platform.o
                0x08016c66                Platform::~Platform()
 .text.pinMode  0x08016c7c        0x6 ./build/./RepRapFirmware/src/Platform.o
 .text._ZNSt17_Function_handlerIFvjjEZN8Platform23ConfigureStallDetectionER11GCodeBufferRK9StringRefRP12OutputBufferEUljjE0_E9_M_invokeERKSt9_Any_dataOjSF_
                0x08016c82        0xa ./build/./RepRapFirmware/src/Platform.o
 .text._ZNSt17_Function_handlerIFvjjEZN8Platform23ConfigureStallDetectionER11GCodeBufferRK9StringRefRP12OutputBufferEUljjE1_E9_M_invokeERKSt9_Any_dataOjSF_
                0x08016c8c        0xa ./build/./RepRapFirmware/src/Platform.o
 .text._ZNSt17_Function_handlerIFvjjEZN8Platform23ConfigureStallDetectionER11GCodeBufferRK9StringRefRP12OutputBufferEUljjE2_E9_M_invokeERKSt9_Any_dataOjSF_
                0x08016c96        0xa ./build/./RepRapFirmware/src/Platform.o
 .text._ZN8StepPinsL16CalcDriverBitmapEj
                0x08016ca0       0x30 ./build/./RepRapFirmware/src/Platform.o
 .text._ZNSt17_Function_handlerIFvjjEZN8Platform23ConfigureStallDetectionER11GCodeBufferRK9StringRefRP12OutputBufferEUljjE3_E9_M_invokeERKSt9_Any_dataOjSF_
                0x08016cd0        0xc ./build/./RepRapFirmware/src/Platform.o
 .text._ZNSt14_Function_base13_Base_managerIZN8Platform15SetMotorCurrentEjfiRK9StringRefEUlhE_E10_M_managerERSt9_Any_dataRKS7_St18_Manager_operation
                0x08016cdc       0x36 ./build/./RepRapFirmware/src/Platform.o
 .text._ZNSt14_Function_base13_Base_managerIZN8Platform16SetMicrosteppingEjibRK9StringRefEUlhE_E10_M_managerERSt9_Any_dataRKS7_St18_Manager_operation
                0x08016d12       0x3e ./build/./RepRapFirmware/src/Platform.o
 .text._ZNSt14_Function_base13_Base_managerIZN8Platform23ConfigureStallDetectionER11GCodeBufferRK9StringRefRP12OutputBufferEUljjE4_E10_M_managerERSt9_Any_dataRKSC_St18_Manager_operation
                0x08016d50       0x36 ./build/./RepRapFirmware/src/Platform.o
 .text._ZNSt17_Function_handlerIFvjjEZN8Platform22DriverCoolingFansOnOffE6BitmapItEbEUljjE_E9_M_invokeERKSt9_Any_dataOjS9_
                0x08016d86       0x1a ./build/./RepRapFirmware/src/Platform.o
 .text._ZN8PlatformUlPK11ObjectModelR24ObjectExplorationContextE55_4_FUNES2_S4_
                0x08016da0       0x20 ./build/./RepRapFirmware/src/Platform.o
 .text._ZN8PlatformUlPK11ObjectModelR24ObjectExplorationContextE53_4_FUNES2_S4_
                0x08016dc0       0x1e ./build/./RepRapFirmware/src/Platform.o
 .text._ZN8PlatformUlPK11ObjectModelR24ObjectExplorationContextE49_4_FUNES2_S4_
                0x08016dde       0x22 ./build/./RepRapFirmware/src/Platform.o
 .text._ZN8PlatformUlPK11ObjectModelR24ObjectExplorationContextE56_4_FUNES2_S4_
                0x08016e00       0x22 ./build/./RepRapFirmware/src/Platform.o
 .text._ZN8PlatformUlPK11ObjectModelR24ObjectExplorationContextE54_4_FUNES2_S4_
                0x08016e22       0x20 ./build/./RepRapFirmware/src/Platform.o
 .text._ZN8PlatformUlPK11ObjectModelR24ObjectExplorationContextE39_4_FUNES2_S4_
                0x08016e42       0x1c ./build/./RepRapFirmware/src/Platform.o
 .text._ZN8PlatformUlPK11ObjectModelR24ObjectExplorationContextE0_4_FUNES2_S4_
                0x08016e5e       0x2c ./build/./RepRapFirmware/src/Platform.o
 .text._ZN8PlatformUlPK11ObjectModelR24ObjectExplorationContextE37_4_FUNES2_S4_
                0x08016e8a       0x22 ./build/./RepRapFirmware/src/Platform.o
 .text._ZN8PlatformUlPK11ObjectModelR24ObjectExplorationContextE48_4_FUNES2_S4_
                0x08016eac       0x34 ./build/./RepRapFirmware/src/Platform.o
 .text._ZN8PlatformUlPK11ObjectModelR24ObjectExplorationContextE32_4_FUNES2_S4_
                0x08016ee0       0x30 ./build/./RepRapFirmware/src/Platform.o
 .text._ZN8PlatformUlPK11ObjectModelR24ObjectExplorationContextE42_4_FUNES2_S4_
                0x08016f10       0x34 ./build/./RepRapFirmware/src/Platform.o
 .text._ZN8PlatformUlPK11ObjectModelR24ObjectExplorationContextE24_4_FUNES2_S4_
                0x08016f44       0x30 ./build/./RepRapFirmware/src/Platform.o
 .text._ZN8PlatformUlPK11ObjectModelR24ObjectExplorationContextE46_4_FUNES2_S4_
                0x08016f74       0x26 ./build/./RepRapFirmware/src/Platform.o
 *fill*         0x08016f9a        0x2 
 .text._ZN8PlatformUlPK11ObjectModelR24ObjectExplorationContextE47_4_FUNES2_S4_
                0x08016f9c       0x28 ./build/./RepRapFirmware/src/Platform.o
 .text._ZN8PlatformUlPK11ObjectModelR24ObjectExplorationContextE40_4_FUNES2_S4_
                0x08016fc4       0x28 ./build/./RepRapFirmware/src/Platform.o
 .text._ZN8PlatformUlPK11ObjectModelR24ObjectExplorationContextE34_4_FUNES2_S4_
                0x08016fec       0x28 ./build/./RepRapFirmware/src/Platform.o
 .text._ZN8PlatformUlPK11ObjectModelR24ObjectExplorationContextE45_4_FUNES2_S4_
                0x08017014       0x30 ./build/./RepRapFirmware/src/Platform.o
 .text._ZN8PlatformUlPK11ObjectModelR24ObjectExplorationContextE26_4_FUNES2_S4_
                0x08017044       0x2c ./build/./RepRapFirmware/src/Platform.o
 .text._ZN8PlatformUlPK11ObjectModelR24ObjectExplorationContextE41_4_FUNES2_S4_
                0x08017070       0x24 ./build/./RepRapFirmware/src/Platform.o
 .text._ZN8PlatformUlPK11ObjectModelR24ObjectExplorationContextE35_4_FUNES2_S4_
                0x08017094       0x28 ./build/./RepRapFirmware/src/Platform.o
 .text._ZN8PlatformUlPK11ObjectModelR24ObjectExplorationContextE25_4_FUNES2_S4_
                0x080170bc       0x24 ./build/./RepRapFirmware/src/Platform.o
 .text._ZN8PlatformUlPK11ObjectModelR24ObjectExplorationContextE2_4_FUNES2_S4_
                0x080170e0       0x3c ./build/./RepRapFirmware/src/Platform.o
 .text._ZN8PlatformUlPK11ObjectModelR24ObjectExplorationContextE20_4_FUNES2_S4_
                0x0801711c       0x28 ./build/./RepRapFirmware/src/Platform.o
 .text._ZN8PlatformUlPK11ObjectModelR24ObjectExplorationContextE38_4_FUNES2_S4_
                0x08017144       0x26 ./build/./RepRapFirmware/src/Platform.o
 .text._ZN8PlatformUlPK11ObjectModelR24ObjectExplorationContextE21_4_FUNES2_S4_
                0x0801716a       0x22 ./build/./RepRapFirmware/src/Platform.o
 .text._ZNSt17_Function_handlerIFvjjEZN8Platform23ConfigureStallDetectionER11GCodeBufferRK9StringRefRP12OutputBufferEUljjE4_E9_M_invokeERKSt9_Any_dataOjSF_
                0x0801718c       0x80 ./build/./RepRapFirmware/src/Platform.o
 .text._ZN8PlatformUlPK11ObjectModelR24ObjectExplorationContextE31_4_FUNES2_S4_
                0x0801720c       0x22 ./build/./RepRapFirmware/src/Platform.o
 .text._ZN8PlatformUlPK11ObjectModelR24ObjectExplorationContextE28_4_FUNES2_S4_
                0x0801722e       0x22 ./build/./RepRapFirmware/src/Platform.o
 .text._ZN8PlatformUlPK11ObjectModelR24ObjectExplorationContextE23_4_FUNES2_S4_
                0x08017250       0x28 ./build/./RepRapFirmware/src/Platform.o
 .text._ZN8PlatformUlPK11ObjectModelR24ObjectExplorationContextE7_4_FUNES2_S4_
                0x08017278       0x10 ./build/./RepRapFirmware/src/Platform.o
 .text._ZNSt17_Function_handlerIFvhEZN8Platform12SetDirectionEjbEUlhE_E9_M_invokeERKSt9_Any_dataOh
                0x08017288       0x24 ./build/./RepRapFirmware/src/Platform.o
 .text._ZNSt14_Function_baseD2Ev
                0x080172ac       0x12 ./build/./RepRapFirmware/src/Platform.o
                0x080172ac                std::_Function_base::~_Function_base()
                0x080172ac                std::_Function_base::~_Function_base()
 .text.UrgentInit
                0x080172be        0x4 ./build/./RepRapFirmware/src/Platform.o
                0x080172be                UrgentInit
 .text._ZNK17AxisDriversConfig16GetDriversBitmapEv
                0x080172c2       0x24 ./build/./RepRapFirmware/src/Platform.o
                0x080172c2                AxisDriversConfig::GetDriversBitmap() const
 .text._ZNK8Platform22GetNumGpInputsToReportEv
                0x080172e6       0x1e ./build/./RepRapFirmware/src/Platform.o
                0x080172e6                Platform::GetNumGpInputsToReport() const
 .text._ZNK8Platform23GetNumGpOutputsToReportEv
                0x08017304       0x1e ./build/./RepRapFirmware/src/Platform.o
                0x08017304                Platform::GetNumGpOutputsToReport() const
 .text._ZN8Platform19SendPanelDueMessageEjPKc
                0x08017322       0x12 ./build/./RepRapFirmware/src/Platform.o
                0x08017322                Platform::SendPanelDueMessage(unsigned int, char const*)
 .text._ZN8Platform12SetIPAddressE9IPAddress
                0x08017334        0x4 ./build/./RepRapFirmware/src/Platform.o
                0x08017334                Platform::SetIPAddress(IPAddress)
 .text._ZN8Platform10SetGateWayE9IPAddress
                0x08017338        0x4 ./build/./RepRapFirmware/src/Platform.o
                0x08017338                Platform::SetGateWay(IPAddress)
 .text._ZN8Platform10SetNetMaskE9IPAddress
                0x0801733c        0x4 ./build/./RepRapFirmware/src/Platform.o
                0x0801733c                Platform::SetNetMask(IPAddress)
 .text._ZNK8Platform17GetCpuTemperatureEv
                0x08017340       0x70 ./build/./RepRapFirmware/src/Platform.o
                0x08017340                Platform::GetCpuTemperature() const
 .text._ZN8Platform20InitialiseInterruptsEv
                0x080173b0       0x50 ./build/./RepRapFirmware/src/Platform.o
                0x080173b0                Platform::InitialiseInterrupts()
 .text._ZNK8Platform23GetAveragingFilterIndexERK6IoPort
                0x08017400       0x2c ./build/./RepRapFirmware/src/Platform.o
                0x08017400                Platform::GetAveragingFilterIndex(IoPort const&) const
 .text._ZN8Platform23UpdateConfiguredHeatersEv
                0x0801742c       0x64 ./build/./RepRapFirmware/src/Platform.o
                0x0801742c                Platform::UpdateConfiguredHeaters()
 .text._ZN8Platform21DisableOneLocalDriverEj
                0x08017490       0x34 ./build/./RepRapFirmware/src/Platform.o
                0x08017490                Platform::DisableOneLocalDriver(unsigned int)
 .text._ZNSt17_Function_handlerIFvhEZN8Platform14DisableDriversEjEUlhE_E9_M_invokeERKSt9_Any_dataOh
                0x080174c4        0x8 ./build/./RepRapFirmware/src/Platform.o
 .text._ZN8Platform18UpdateMotorCurrentEjf
                0x080174cc       0x14 ./build/./RepRapFirmware/src/Platform.o
                0x080174cc                Platform::UpdateMotorCurrent(unsigned int, float)
 .text._ZN8Platform20EnableOneLocalDriverEjf
                0x080174e0       0x40 ./build/./RepRapFirmware/src/Platform.o
                0x080174e0                Platform::EnableOneLocalDriver(unsigned int, float)
 .text._ZNSt17_Function_handlerIFvhEZN8Platform18EnableLocalDriversEjEUlhE_E9_M_invokeERKSt9_Any_dataOh
                0x08017520        0xc ./build/./RepRapFirmware/src/Platform.o
 .text._ZN8Platform23EmergencyDisableDriversEv
                0x0801752c       0x3c ./build/./RepRapFirmware/src/Platform.o
                0x0801752c                Platform::EmergencyDisableDrivers()
 .text._ZNSt17_Function_handlerIFvhEZN8Platform14SetDriversIdleEvEUlhE_E9_M_invokeERKSt9_Any_dataOh
                0x08017568        0xc ./build/./RepRapFirmware/src/Platform.o
 .text._ZNSt17_Function_handlerIFvhEZN8Platform15SetMotorCurrentEjfiRK9StringRefEUlhE_E9_M_invokeERKSt9_Any_dataOh
                0x08017574       0x40 ./build/./RepRapFirmware/src/Platform.o
 .text._ZNSt17_Function_handlerIFvhEZN8Platform20SetIdleCurrentFactorEfEUlhE_E9_M_invokeERKSt9_Any_dataOh
                0x080175b4        0xc ./build/./RepRapFirmware/src/Platform.o
 .text._ZNK8Platform15GetMotorCurrentEji
                0x080175c0       0x4c ./build/./RepRapFirmware/src/Platform.o
                0x080175c0                Platform::GetMotorCurrent(unsigned int, int) const
 .text._ZN8Platform20SetDriveStepsPerUnitEjfm
                0x0801760c       0x60 ./build/./RepRapFirmware/src/Platform.o
                0x0801760c                Platform::SetDriveStepsPerUnit(unsigned int, float, unsigned long)
 .text._ZN8Platform22SetDriverMicrosteppingEjji
                0x0801766c       0x34 ./build/./RepRapFirmware/src/Platform.o
                0x0801766c                Platform::SetDriverMicrostepping(unsigned int, unsigned int, int)
 .text._ZNSt17_Function_handlerIFvhEZN8Platform16SetMicrosteppingEjibRK9StringRefEUlhE_E9_M_invokeERKSt9_Any_dataOh
                0x080176a0       0x40 ./build/./RepRapFirmware/src/Platform.o
 .text._ZNK8Platform16GetMicrosteppingEjRb
                0x080176e0       0x16 ./build/./RepRapFirmware/src/Platform.o
                0x080176e0                Platform::GetMicrostepping(unsigned int, bool&) const
 .text._ZN8Platform14SetEnableValueEja
                0x080176f6       0x54 ./build/./RepRapFirmware/src/Platform.o
                0x080176f6                Platform::SetEnableValue(unsigned int, signed char)
 .text._ZN8Platform20SetAxisDriversConfigEjjPK8DriverId
                0x0801774a       0x46 ./build/./RepRapFirmware/src/Platform.o
                0x0801774a                Platform::SetAxisDriversConfig(unsigned int, unsigned int, DriverId const*)
 .text._ZN8Platform17SetExtruderDriverEj8DriverId
                0x08017790       0x26 ./build/./RepRapFirmware/src/Platform.o
                0x08017790                Platform::SetExtruderDriver(unsigned int, DriverId)
 *fill*         0x080177b6        0x2 
 .text._ZN8Platform19SetDriverStepTimingEjPKf
                0x080177b8       0x98 ./build/./RepRapFirmware/src/Platform.o
                0x080177b8                Platform::SetDriverStepTiming(unsigned int, float const*)
 .text._ZNK8Platform19GetDriverStepTimingEjPf
                0x08017850       0x58 ./build/./RepRapFirmware/src/Platform.o
                0x08017850                Platform::GetDriverStepTiming(unsigned int, float*) const
 .text._ZN8Platform14AppendUsbReplyEP12OutputBuffer
                0x080178a8       0x40 ./build/./RepRapFirmware/src/Platform.o
                0x080178a8                Platform::AppendUsbReply(OutputBuffer*)
 .text._ZNK8Platform12IsAuxEnabledEj
                0x080178e8        0xc ./build/./RepRapFirmware/src/Platform.o
                0x080178e8                Platform::IsAuxEnabled(unsigned int) const
 .text._ZN8Platform9EnableAuxEj
                0x080178f4       0x16 ./build/./RepRapFirmware/src/Platform.o
                0x080178f4                Platform::EnableAux(unsigned int)
 .text._ZNK8Platform8IsAuxRawEj
                0x0801790a        0xc ./build/./RepRapFirmware/src/Platform.o
                0x0801790a                Platform::IsAuxRaw(unsigned int) const
 .text._ZN8Platform9SetAuxRawEjb
                0x08017916        0x8 ./build/./RepRapFirmware/src/Platform.o
                0x08017916                Platform::SetAuxRaw(unsigned int, bool)
 .text._ZN8Platform14AppendAuxReplyEjP12OutputBufferb
                0x0801791e       0x20 ./build/./RepRapFirmware/src/Platform.o
                0x0801791e                Platform::AppendAuxReply(unsigned int, OutputBuffer*, bool)
 *fill*         0x0801793e        0x2 
 .text._ZN8Platform7MessageE11MessageTypeP12OutputBuffer
                0x08017940       0xe8 ./build/./RepRapFirmware/src/Platform.o
                0x08017940                Platform::Message(MessageType, OutputBuffer*)
 .text._ZN8Platform11StopLoggingEv
                0x08017a28        0x2 ./build/./RepRapFirmware/src/Platform.o
                0x08017a28                Platform::StopLogging()
 *fill*         0x08017a2a        0x2 
 .text._ZNK8Platform8AtxPowerEv
                0x08017a2c       0x10 ./build/./RepRapFirmware/src/Platform.o
                0x08017a2c                Platform::AtxPower() const
 .text._ZN8Platform10AtxPowerOnEv
                0x08017a3c       0x18 ./build/./RepRapFirmware/src/Platform.o
                0x08017a3c                Platform::AtxPowerOn()
 .text._ZN8Platform11AtxPowerOffEb
                0x08017a54       0x18 ./build/./RepRapFirmware/src/Platform.o
                0x08017a54                Platform::AtxPowerOff(bool)
 .text._ZN8Platform18SetPressureAdvanceEfR11GCodeBufferRK9StringRef
                0x08017a6c       0xb8 ./build/./RepRapFirmware/src/Platform.o
                0x08017a6c                Platform::SetPressureAdvance(float, GCodeBuffer&, StringRef const&)
 .text._ZNK8Platform24GetExtrusionCoefficientsEjRfS0_S0_
                0x08017b24       0x24 ./build/./RepRapFirmware/src/Platform.o
                0x08017b24                Platform::GetExtrusionCoefficients(unsigned int, float&, float&, float&) const
 .text._ZN8Platform21SetNonlinearExtrusionEjfff
                0x08017b48       0x24 ./build/./RepRapFirmware/src/Platform.o
                0x08017b48                Platform::SetNonlinearExtrusion(unsigned int, float, float, float)
 .text._ZN8Platform11SetBaudRateEjm
                0x08017b6c        0xe ./build/./RepRapFirmware/src/Platform.o
                0x08017b6c                Platform::SetBaudRate(unsigned int, unsigned long)
 .text._ZNK8Platform11GetBaudRateEj
                0x08017b7a       0x10 ./build/./RepRapFirmware/src/Platform.o
                0x08017b7a                Platform::GetBaudRate(unsigned int) const
 .text._ZN8Platform18SetCommsPropertiesEjm
                0x08017b8a        0xc ./build/./RepRapFirmware/src/Platform.o
                0x08017b8a                Platform::SetCommsProperties(unsigned int, unsigned long)
 .text._ZNK8Platform18GetCommsPropertiesEj
                0x08017b96        0xe ./build/./RepRapFirmware/src/Platform.o
                0x08017b96                Platform::GetCommsProperties(unsigned int) const
 .text._ZN8Platform12ResetChannelEj
                0x08017ba4       0x3c ./build/./RepRapFirmware/src/Platform.o
                0x08017ba4                Platform::ResetChannel(unsigned int)
 .text._ZNK8Platform20GetElectronicsStringEv
                0x08017be0       0x18 ./build/./RepRapFirmware/src/Platform.o
                0x08017be0                Platform::GetElectronicsString() const
 .text._ZN8Platform11SetLaserPwmEt
                0x08017bf8       0x24 ./build/./RepRapFirmware/src/Platform.o
                0x08017bf8                Platform::SetLaserPwm(unsigned short)
 .text._ZNK8Platform11GetLaserPwmEv
                0x08017c1c        0xa ./build/./RepRapFirmware/src/Platform.o
                0x08017c1c                Platform::GetLaserPwm() const
 .text._ZN8Platform14AssignLaserPinER11GCodeBufferRK9StringRef
                0x08017c26       0x24 ./build/./RepRapFirmware/src/Platform.o
                0x08017c26                Platform::AssignLaserPin(GCodeBuffer&, StringRef const&)
 .text._ZN8Platform20SetLaserPwmFrequencyEt
                0x08017c4a        0x6 ./build/./RepRapFirmware/src/Platform.o
                0x08017c4a                Platform::SetLaserPwmFrequency(unsigned short)
 .text._ZN8Platform14SetAxisMaximumEjfb
                0x08017c50       0x30 ./build/./RepRapFirmware/src/Platform.o
                0x08017c50                Platform::SetAxisMaximum(unsigned int, float, bool)
 .text._ZN8Platform14SetAxisMinimumEjfb
                0x08017c80       0x30 ./build/./RepRapFirmware/src/Platform.o
                0x08017c80                Platform::SetAxisMinimum(unsigned int, float, bool)
 .text._ZNK8Platform18GetMcuTemperaturesEv
                0x08017cb0       0x26 ./build/./RepRapFirmware/src/Platform.o
                0x08017cb0                Platform::GetMcuTemperatures() const
 .text._ZN8PlatformUlPK11ObjectModelR24ObjectExplorationContextE18_4_FUNES2_S4_
                0x08017cd6       0x1a ./build/./RepRapFirmware/src/Platform.o
 .text._ZN8PlatformUlPK11ObjectModelR24ObjectExplorationContextE17_4_FUNES2_S4_
                0x08017cf0       0x1a ./build/./RepRapFirmware/src/Platform.o
 .text._ZN8PlatformUlPK11ObjectModelR24ObjectExplorationContextE16_4_FUNES2_S4_
                0x08017d0a       0x1a ./build/./RepRapFirmware/src/Platform.o
 .text._ZNK8Platform24GetTmcDriversTemperatureEj
                0x08017d24       0x34 ./build/./RepRapFirmware/src/Platform.o
                0x08017d24                Platform::GetTmcDriversTemperature(unsigned int) const
 .text._ZN8Platform13ConfigurePortER11GCodeBufferRK9StringRef
                0x08017d58       0xec ./build/./RepRapFirmware/src/Platform.o
                0x08017d58                Platform::ConfigurePort(GCodeBuffer&, StringRef const&)
 .text._ZN8Platform18GetSetAncillaryPwmER11GCodeBufferRK9StringRef
                0x08017e44       0xa0 ./build/./RepRapFirmware/src/Platform.o
                0x08017e44                Platform::GetSetAncillaryPwm(GCodeBuffer&, StringRef const&)
 .text._ZNSt8functionIFvhEEC2ERKS1_
                0x08017ee4       0x28 ./build/./RepRapFirmware/src/Platform.o
                0x08017ee4                std::function<void (unsigned char)>::function(std::function<void (unsigned char)> const&)
                0x08017ee4                std::function<void (unsigned char)>::function(std::function<void (unsigned char)> const&)
 .text._ZNV15AveragingFilterILj16EE4InitEt
                0x08017f0c       0x2a ./build/./RepRapFirmware/src/Platform.o
                0x08017f0c                AveragingFilter<16u>::Init(unsigned short) volatile
 *fill*         0x08017f36        0x2 
 .text._ZN8Platform4InitEv
                0x08017f38      0x3b4 ./build/./RepRapFirmware/src/Platform.o
                0x08017f38                Platform::Init()
 .text._ZN6StringILj100EE6printfEPKcz
                0x080182ec       0x22 ./build/./RepRapFirmware/src/Platform.o
                0x080182ec                String<100u>::printf(char const*, ...)
 .text._ZN6StringILj100EE4catfEPKcz
                0x0801830e       0x22 ./build/./RepRapFirmware/src/Platform.o
                0x0801830e                String<100u>::catf(char const*, ...)
 .text._ZNSt17_Function_handlerIFvjjEZN8Platform13ReportDriversE11MessageTypeR6BitmapImEPKcRbEUljjE_E9_M_invokeERKSt9_Any_dataOjSE_
                0x08018330       0x14 ./build/./RepRapFirmware/src/Platform.o
 .text._ZN6StringILj256EE6printfEPKcz
                0x08018344       0x24 ./build/./RepRapFirmware/src/Platform.o
                0x08018344                String<256u>::printf(char const*, ...)
 .text._ZNKSt8functionIFvhEEclEh
                0x08018368       0x1c ./build/./RepRapFirmware/src/Platform.o
                0x08018368                std::function<void (unsigned char)>::operator()(unsigned char) const
 .text._ZN8Platform14IterateDriversEjSt8functionIFvhEE
                0x08018384       0x54 ./build/./RepRapFirmware/src/Platform.o
                0x08018384                Platform::IterateDrivers(unsigned int, std::function<void (unsigned char)>)
 .text._ZN8Platform14DisableDriversEj
                0x080183d8       0x34 ./build/./RepRapFirmware/src/Platform.o
                0x080183d8                Platform::DisableDrivers(unsigned int)
 .text._ZN8Platform17DisableAllDriversEv
                0x0801840c       0x16 ./build/./RepRapFirmware/src/Platform.o
                0x0801840c                Platform::DisableAllDrivers()
 *fill*         0x08018422        0x2 
 .text._ZN8Platform14SetDriversIdleEv
                0x08018424       0x8c ./build/./RepRapFirmware/src/Platform.o
                0x08018424                Platform::SetDriversIdle()
 .text._ZN8Platform15SetMotorCurrentEjfiRK9StringRef
                0x080184b0       0xf0 ./build/./RepRapFirmware/src/Platform.o
                0x080184b0                Platform::SetMotorCurrent(unsigned int, float, int, StringRef const&)
 .text._ZN8Platform20SetIdleCurrentFactorEf
                0x080185a0       0xa8 ./build/./RepRapFirmware/src/Platform.o
                0x080185a0                Platform::SetIdleCurrentFactor(float)
 .text._ZN8Platform16SetMicrosteppingEjibRK9StringRef
                0x08018648       0xb4 ./build/./RepRapFirmware/src/Platform.o
                0x08018648                Platform::SetMicrostepping(unsigned int, int, bool, StringRef const&)
 .text._ZN8Platform12SetDirectionEjb
                0x080186fc       0xb4 ./build/./RepRapFirmware/src/Platform.o
                0x080186fc                Platform::SetDirection(unsigned int, bool)
 .text._ZN8Platform18EnableLocalDriversEj
                0x080187b0       0x6c ./build/./RepRapFirmware/src/Platform.o
                0x080187b0                Platform::EnableLocalDrivers(unsigned int)
 .text._ZN6StringILj256EE4copyEPKc
                0x0801881c       0x16 ./build/./RepRapFirmware/src/Platform.o
                0x0801881c                String<256u>::copy(char const*)
 .text._ZNV15AveragingFilterILj8EE4InitEt
                0x08018832       0x2e ./build/./RepRapFirmware/src/Platform.o
                0x08018832                AveragingFilter<8u>::Init(unsigned short) volatile
 .text._ZN8Platform17InitZProbeFiltersEv
                0x08018860       0x1a ./build/./RepRapFirmware/src/Platform.o
                0x08018860                Platform::InitZProbeFilters()
 *fill*         0x0801887a        0x2 
 .text._ZN8PlatformC2Ev
                0x0801887c      0x150 ./build/./RepRapFirmware/src/Platform.o
                0x0801887c                Platform::Platform()
                0x0801887c                Platform::Platform()
 .text._ZN15AveragingFilterILj8EE14ProcessReadingEt
                0x080189cc       0x28 ./build/./RepRapFirmware/src/Platform.o
                0x080189cc                AveragingFilter<8u>::ProcessReading(unsigned short)
 .text.hot._ZN8Platform4TickEv
                0x080189f4       0xf8 ./build/./RepRapFirmware/src/Platform.o
                0x080189f4                Platform::Tick()
 .text._ZNKSt8functionIFvjjEEclEjj
                0x08018aec       0x1c ./build/./RepRapFirmware/src/Platform.o
                0x08018aec                std::function<void (unsigned int, unsigned int)>::operator()(unsigned int, unsigned int) const
 .text._ZNK6BitmapImE7IterateESt8functionIFvjjEE.isra.177
                0x08018b08       0x30 ./build/./RepRapFirmware/src/Platform.o
 .text._ZN8Platform23ConfigureStallDetectionER11GCodeBufferRK9StringRefRP12OutputBuffer
                0x08018b38      0x2c0 ./build/./RepRapFirmware/src/Platform.o
                0x08018b38                Platform::ConfigureStallDetection(GCodeBuffer&, StringRef const&, OutputBuffer*&)
 .text._ZN8Platform22DriverCoolingFansOnOffE6BitmapItEb
                0x08018df8       0x60 ./build/./RepRapFirmware/src/Platform.o
                0x08018df8                Platform::DriverCoolingFansOnOff(Bitmap<unsigned short>, bool)
 .text._ZN8Platform10RawMessageE11MessageTypePKc
                0x08018e58       0xd0 ./build/./RepRapFirmware/src/Platform.o
                0x08018e58                Platform::RawMessage(MessageType, char const*)
 .text._ZN8Platform7MessageE11MessageTypePKc.part.175
                0x08018f28       0x4c ./build/./RepRapFirmware/src/Platform.o
 .text._ZN8Platform7MessageE11MessageTypePKc
                0x08018f74       0x58 ./build/./RepRapFirmware/src/Platform.o
                0x08018f74                Platform::Message(MessageType, char const*)
 .text._ZN8Platform8MessageFE11MessageTypePKcSt9__va_list
                0x08018fcc       0xac ./build/./RepRapFirmware/src/Platform.o
                0x08018fcc                Platform::MessageF(MessageType, char const*, std::__va_list)
 .text._ZN8Platform8MessageFE11MessageTypePKcz
                0x08019078       0x1a ./build/./RepRapFirmware/src/Platform.o
                0x08019078                Platform::MessageF(MessageType, char const*, ...)
 *fill*         0x08019092        0x2 
 .text._ZN8Platform12PanelDueBeepEii
                0x08019094       0x18 ./build/./RepRapFirmware/src/Platform.o
                0x08019094                Platform::PanelDueBeep(int, int)
 .text._ZN8Platform11DiagnosticsE11MessageType
                0x080190ac      0x204 ./build/./RepRapFirmware/src/Platform.o
                0x080190ac                Platform::Diagnostics(MessageType)
 .text._ZN8Platform14DiagnosticTestER11GCodeBufferRK9StringRefRP12OutputBufferj
                0x080192b0      0x598 ./build/./RepRapFirmware/src/Platform.o
                0x080192b0                Platform::DiagnosticTest(GCodeBuffer&, StringRef const&, OutputBuffer*&, unsigned int)
 .text._ZN8Platform9SendAlertE11MessageTypePKcS2_if6BitmapItE
                0x08019848       0x84 ./build/./RepRapFirmware/src/Platform.o
                0x08019848                Platform::SendAlert(MessageType, char const*, char const*, int, float, Bitmap<unsigned short>)
 .text._ZN8Platform11SetDateTimeEx
                0x080198cc       0x74 ./build/./RepRapFirmware/src/Platform.o
                0x080198cc                Platform::SetDateTime(long long)
 .text._ZN8Platform13ReportDriversE11MessageTypeR6BitmapImEPKcRb
                0x08019940       0x64 ./build/./RepRapFirmware/src/Platform.o
                0x08019940                Platform::ReportDrivers(MessageType, Bitmap<unsigned long>&, char const*, bool&)
 .text._ZN8Platform13FlushMessagesEv
                0x080199a4       0xa0 ./build/./RepRapFirmware/src/Platform.o
                0x080199a4                Platform::FlushMessages()
 .text._ZN8Platform4SpinEv
                0x08019a44      0x3e8 ./build/./RepRapFirmware/src/Platform.o
                0x08019a44                Platform::Spin()
 .text._ZN12PrintMonitorUlPK11ObjectModelRK24ObjectExplorationContextE_4_FUNES2_S5_
                0x08019e2c        0x6 ./build/./RepRapFirmware/src/PrintMonitor.o
 .text._ZN12PrintMonitorUlPK11ObjectModelR24ObjectExplorationContextE2_4_FUNES2_S4_
                0x08019e32       0x1a ./build/./RepRapFirmware/src/PrintMonitor.o
 .text._ZN12PrintMonitorUlPK11ObjectModelR24ObjectExplorationContextE9_4_FUNES2_S4_
                0x08019e4c       0x1a ./build/./RepRapFirmware/src/PrintMonitor.o
 *fill*         0x08019e66        0x2 
 .text._ZN12PrintMonitorUlPK11ObjectModelR24ObjectExplorationContextE11_4_FUNES2_S4_
                0x08019e68       0x10 ./build/./RepRapFirmware/src/PrintMonitor.o
 .text._ZN12PrintMonitorUlPK11ObjectModelR24ObjectExplorationContextE13_4_FUNES2_S4_
                0x08019e78        0xe ./build/./RepRapFirmware/src/PrintMonitor.o
 .text._ZN12PrintMonitorUlPK11ObjectModelR24ObjectExplorationContextE15_4_FUNES2_S4_
                0x08019e86        0xe ./build/./RepRapFirmware/src/PrintMonitor.o
 .text._ZN12PrintMonitorUlPK11ObjectModelR24ObjectExplorationContextE17_4_FUNES2_S4_
                0x08019e94        0xe ./build/./RepRapFirmware/src/PrintMonitor.o
 .text._ZN12PrintMonitorUlPK11ObjectModelR24ObjectExplorationContextE21_4_FUNES2_S4_
                0x08019ea2        0xc ./build/./RepRapFirmware/src/PrintMonitor.o
 *fill*         0x08019eae        0x2 
 .text._ZNK12PrintMonitor29GetObjectModelClassDescriptorEv
                0x08019eb0        0x8 ./build/./RepRapFirmware/src/PrintMonitor.o
                0x08019eb0                PrintMonitor::GetObjectModelClassDescriptor() const
 .text._ZN12PrintMonitorD2Ev
                0x08019eb8        0x2 ./build/./RepRapFirmware/src/PrintMonitor.o
                0x08019eb8                PrintMonitor::~PrintMonitor()
                0x08019eb8                PrintMonitor::~PrintMonitor()
 .text._ZN12PrintMonitorD0Ev
                0x08019eba       0x10 ./build/./RepRapFirmware/src/PrintMonitor.o
                0x08019eba                PrintMonitor::~PrintMonitor()
 .text._ZN12PrintMonitorUlPK11ObjectModelR24ObjectExplorationContextE0_4_FUNES2_S4_
                0x08019eca       0x22 ./build/./RepRapFirmware/src/PrintMonitor.o
 .text._ZN12PrintMonitorUlPK11ObjectModelR24ObjectExplorationContextE18_4_FUNES2_S4_
                0x08019eec       0x16 ./build/./RepRapFirmware/src/PrintMonitor.o
 .text._ZN12PrintMonitorUlPK11ObjectModelR24ObjectExplorationContextE20_4_FUNES2_S4_
                0x08019f02       0x12 ./build/./RepRapFirmware/src/PrintMonitor.o
 .text._ZN12PrintMonitorUlPK11ObjectModelR24ObjectExplorationContextE19_4_FUNES2_S4_
                0x08019f14       0x12 ./build/./RepRapFirmware/src/PrintMonitor.o
 .text._ZN12PrintMonitorUlPK11ObjectModelR24ObjectExplorationContextE16_4_FUNES2_S4_
                0x08019f26       0x1e ./build/./RepRapFirmware/src/PrintMonitor.o
 .text._ZN12PrintMonitorUlPK11ObjectModelR24ObjectExplorationContextE7_4_FUNES2_S4_
                0x08019f44       0x12 ./build/./RepRapFirmware/src/PrintMonitor.o
 *fill*         0x08019f56        0x2 
 .text._ZN12PrintMonitorUlPK11ObjectModelR24ObjectExplorationContextE3_4_FUNES2_S4_
                0x08019f58       0x1c ./build/./RepRapFirmware/src/PrintMonitor.o
 .text._ZN12PrintMonitorUlPK11ObjectModelR24ObjectExplorationContextE5_4_FUNES2_S4_
                0x08019f74       0x20 ./build/./RepRapFirmware/src/PrintMonitor.o
 .text._ZN12PrintMonitorUlPK11ObjectModelR24ObjectExplorationContextE12_4_FUNES2_S4_
                0x08019f94       0x16 ./build/./RepRapFirmware/src/PrintMonitor.o
 .text._ZN12PrintMonitorUlPK11ObjectModelR24ObjectExplorationContextE6_4_FUNES2_S4_
                0x08019faa       0x18 ./build/./RepRapFirmware/src/PrintMonitor.o
 .text._ZN12PrintMonitorUlPK11ObjectModelR24ObjectExplorationContextE14_4_FUNES2_S4_
                0x08019fc2       0x16 ./build/./RepRapFirmware/src/PrintMonitor.o
 .text._ZN12PrintMonitorC2ER8PlatformR6GCodes
                0x08019fd8       0x5c ./build/./RepRapFirmware/src/PrintMonitor.o
                0x08019fd8                PrintMonitor::PrintMonitor(Platform&, GCodes&)
                0x08019fd8                PrintMonitor::PrintMonitor(Platform&, GCodes&)
 .text._ZN12PrintMonitor4InitEv
                0x0801a034        0xc ./build/./RepRapFirmware/src/PrintMonitor.o
                0x0801a034                PrintMonitor::Init()
 .text._ZN12PrintMonitor19GetPrintingFileInfoER13GCodeFileInfo
                0x0801a040       0x26 ./build/./RepRapFirmware/src/PrintMonitor.o
                0x0801a040                PrintMonitor::GetPrintingFileInfo(GCodeFileInfo&)
 *fill*         0x0801a066        0x2 
 .text._ZN12PrintMonitor19SetPrintingFileInfoEPKcR13GCodeFileInfo
                0x0801a068       0x3c ./build/./RepRapFirmware/src/PrintMonitor.o
                0x0801a068                PrintMonitor::SetPrintingFileInfo(char const*, GCodeFileInfo&)
 .text._ZNK12PrintMonitor17GetWarmUpDurationEv
                0x0801a0a4       0x3c ./build/./RepRapFirmware/src/PrintMonitor.o
                0x0801a0a4                PrintMonitor::GetWarmUpDuration() const
 .text._ZN12PrintMonitorUlPK11ObjectModelR24ObjectExplorationContextE10_4_FUNES2_S4_
                0x0801a0e0       0x22 ./build/./RepRapFirmware/src/PrintMonitor.o
 .text._ZN12PrintMonitor13StartingPrintEPKc
                0x0801a102        0x2 ./build/./RepRapFirmware/src/PrintMonitor.o
                0x0801a102                PrintMonitor::StartingPrint(char const*)
 .text._ZN12PrintMonitor5ResetEv
                0x0801a104       0x48 ./build/./RepRapFirmware/src/PrintMonitor.o
                0x0801a104                PrintMonitor::Reset()
 .text._ZN12PrintMonitor12StartedPrintEv
                0x0801a14c       0x16 ./build/./RepRapFirmware/src/PrintMonitor.o
                0x0801a14c                PrintMonitor::StartedPrint()
 .text._ZN12PrintMonitor12StoppedPrintEv
                0x0801a162       0x10 ./build/./RepRapFirmware/src/PrintMonitor.o
                0x0801a162                PrintMonitor::StoppedPrint()
 .text._ZN12PrintMonitor14SetLayerNumberEm
                0x0801a172        0x6 ./build/./RepRapFirmware/src/PrintMonitor.o
                0x0801a172                PrintMonitor::SetLayerNumber(unsigned long)
 .text._ZN12PrintMonitor9SetLayerZEf
                0x0801a178        0x6 ./build/./RepRapFirmware/src/PrintMonitor.o
                0x0801a178                PrintMonitor::SetLayerZ(float)
 *fill*         0x0801a17e        0x2 
 .text._ZNK12PrintMonitor21FractionOfFilePrintedEv
                0x0801a180       0x38 ./build/./RepRapFirmware/src/PrintMonitor.o
                0x0801a180                PrintMonitor::FractionOfFilePrinted() const
 .text._ZNK12PrintMonitor16GetPrintDurationEv
                0x0801a1b8       0x50 ./build/./RepRapFirmware/src/PrintMonitor.o
                0x0801a1b8                PrintMonitor::GetPrintDuration() const
 .text._ZN12PrintMonitorUlPK11ObjectModelR24ObjectExplorationContextE8_4_FUNES2_S4_
                0x0801a208       0x44 ./build/./RepRapFirmware/src/PrintMonitor.o
 .text._ZNK12PrintMonitor27GetPrintOrSimulatedDurationEv
                0x0801a24c       0x30 ./build/./RepRapFirmware/src/PrintMonitor.o
                0x0801a24c                PrintMonitor::GetPrintOrSimulatedDuration() const
 .text._ZN12PrintMonitorUlPK11ObjectModelR24ObjectExplorationContextE1_4_FUNES2_S4_
                0x0801a27c       0x1e ./build/./RepRapFirmware/src/PrintMonitor.o
 *fill*         0x0801a29a        0x2 
 .text._ZNK12PrintMonitor21GetFirstLayerDurationEv
                0x0801a29c       0x30 ./build/./RepRapFirmware/src/PrintMonitor.o
                0x0801a29c                PrintMonitor::GetFirstLayerDuration() const
 .text._ZN12PrintMonitorUlPK11ObjectModelR24ObjectExplorationContextE4_4_FUNES2_S4_
                0x0801a2cc       0x22 ./build/./RepRapFirmware/src/PrintMonitor.o
 .text._ZN12PrintMonitor18FirstLayerCompleteEv
                0x0801a2ee       0x70 ./build/./RepRapFirmware/src/PrintMonitor.o
                0x0801a2ee                PrintMonitor::FirstLayerComplete()
 *fill*         0x0801a35e        0x2 
 .text._ZN12PrintMonitor13LayerCompleteEv
                0x0801a360      0x15c ./build/./RepRapFirmware/src/PrintMonitor.o
                0x0801a360                PrintMonitor::LayerComplete()
 .text._ZN12PrintMonitor4SpinEv
                0x0801a4bc      0x1a4 ./build/./RepRapFirmware/src/PrintMonitor.o
                0x0801a4bc                PrintMonitor::Spin()
 .text._ZNK12PrintMonitor16EstimateTimeLeftE21PrintEstimationMethod
                0x0801a660      0x1e8 ./build/./RepRapFirmware/src/PrintMonitor.o
                0x0801a660                PrintMonitor::EstimateTimeLeft(PrintEstimationMethod) const
 .text._ZNK12PrintMonitor28EstimateTimeLeftAsExpressionE21PrintEstimationMethod
                0x0801a848       0x2c ./build/./RepRapFirmware/src/PrintMonitor.o
                0x0801a848                PrintMonitor::EstimateTimeLeftAsExpression(PrintEstimationMethod) const
 .text._ZN12PrintMonitorUlPK11ObjectModelR24ObjectExplorationContextE24_4_FUNES2_S4_
                0x0801a874        0xe ./build/./RepRapFirmware/src/PrintMonitor.o
 .text._ZN12PrintMonitorUlPK11ObjectModelR24ObjectExplorationContextE23_4_FUNES2_S4_
                0x0801a882        0xe ./build/./RepRapFirmware/src/PrintMonitor.o
 .text._ZN12PrintMonitorUlPK11ObjectModelR24ObjectExplorationContextE22_4_FUNES2_S4_
                0x0801a890        0xe ./build/./RepRapFirmware/src/PrintMonitor.o
 .text._ZN6RepRapUlPK11ObjectModelRK24ObjectExplorationContextE_4_FUNES2_S5_
                0x0801a89e        0x4 ./build/./RepRapFirmware/src/RepRap.o
 .text._ZN6RepRapUlPK11ObjectModelR24ObjectExplorationContextE0_4_FUNES2_S4_
                0x0801a8a2       0x18 ./build/./RepRapFirmware/src/RepRap.o
 .text._ZN6RepRapUlPK11ObjectModelRK24ObjectExplorationContextE3_4_FUNES2_S5_
                0x0801a8ba        0x4 ./build/./RepRapFirmware/src/RepRap.o
 .text._ZN6RepRapUlPK11ObjectModelRK24ObjectExplorationContextE7_4_FUNES2_S5_
                0x0801a8be        0x4 ./build/./RepRapFirmware/src/RepRap.o
 .text._ZN6RepRapUlPK11ObjectModelRK24ObjectExplorationContextE9_4_FUNES2_S5_
                0x0801a8c2        0x6 ./build/./RepRapFirmware/src/RepRap.o
 .text._ZN6RepRapUlPK11ObjectModelRK24ObjectExplorationContextE11_4_FUNES2_S5_
                0x0801a8c8        0x4 ./build/./RepRapFirmware/src/RepRap.o
 .text._ZN6RepRapUlPK11ObjectModelRK24ObjectExplorationContextE13_4_FUNES2_S5_
                0x0801a8cc        0x4 ./build/./RepRapFirmware/src/RepRap.o
 .text._ZN6RepRapUlPK11ObjectModelR24ObjectExplorationContextE14_4_FUNES2_S4_
                0x0801a8d0        0x8 ./build/./RepRapFirmware/src/RepRap.o
 .text._ZN6RepRapUlPK11ObjectModelR24ObjectExplorationContextE15_4_FUNES2_S4_
                0x0801a8d8       0x10 ./build/./RepRapFirmware/src/RepRap.o
 .text._ZN6RepRapUlPK11ObjectModelR24ObjectExplorationContextE16_4_FUNES2_S4_
                0x0801a8e8       0x10 ./build/./RepRapFirmware/src/RepRap.o
 .text._ZN6RepRapUlPK11ObjectModelR24ObjectExplorationContextE18_4_FUNES2_S4_
                0x0801a8f8       0x10 ./build/./RepRapFirmware/src/RepRap.o
 .text._ZN6RepRapUlPK11ObjectModelR24ObjectExplorationContextE20_4_FUNES2_S4_
                0x0801a908       0x1a ./build/./RepRapFirmware/src/RepRap.o
 .text._ZN6RepRapUlPK11ObjectModelR24ObjectExplorationContextE22_4_FUNES2_S4_
                0x0801a922       0x10 ./build/./RepRapFirmware/src/RepRap.o
 .text._ZN6RepRapUlPK11ObjectModelR24ObjectExplorationContextE24_4_FUNES2_S4_
                0x0801a932       0x1a ./build/./RepRapFirmware/src/RepRap.o
 .text._ZN6RepRapUlPK11ObjectModelR24ObjectExplorationContextE25_4_FUNES2_S4_
                0x0801a94c       0x10 ./build/./RepRapFirmware/src/RepRap.o
 .text._ZN6RepRapUlPK11ObjectModelR24ObjectExplorationContextE26_4_FUNES2_S4_
                0x0801a95c       0x1a ./build/./RepRapFirmware/src/RepRap.o
 *fill*         0x0801a976        0x2 
 .text._ZN6RepRapUlPK11ObjectModelR24ObjectExplorationContextE27_4_FUNES2_S4_
                0x0801a978       0x10 ./build/./RepRapFirmware/src/RepRap.o
 .text._ZN6RepRapUlPK11ObjectModelR24ObjectExplorationContextE28_4_FUNES2_S4_
                0x0801a988       0x10 ./build/./RepRapFirmware/src/RepRap.o
 .text._ZN6RepRapUlPK11ObjectModelR24ObjectExplorationContextE29_4_FUNES2_S4_
                0x0801a998        0xa ./build/./RepRapFirmware/src/RepRap.o
 .text._ZN6RepRapUlPK11ObjectModelR24ObjectExplorationContextE30_4_FUNES2_S4_
                0x0801a9a2        0xa ./build/./RepRapFirmware/src/RepRap.o
 .text._ZN6RepRapUlPK11ObjectModelR24ObjectExplorationContextE31_4_FUNES2_S4_
                0x0801a9ac        0xa ./build/./RepRapFirmware/src/RepRap.o
 .text._ZN6RepRapUlPK11ObjectModelR24ObjectExplorationContextE35_4_FUNES2_S4_
                0x0801a9b6        0xa ./build/./RepRapFirmware/src/RepRap.o
 .text._ZN6RepRapUlPK11ObjectModelR24ObjectExplorationContextE37_4_FUNES2_S4_
                0x0801a9c0        0xa ./build/./RepRapFirmware/src/RepRap.o
 .text._ZN6RepRapUlPK11ObjectModelR24ObjectExplorationContextE39_4_FUNES2_S4_
                0x0801a9ca        0xa ./build/./RepRapFirmware/src/RepRap.o
 .text._ZN6RepRapUlPK11ObjectModelR24ObjectExplorationContextE41_4_FUNES2_S4_
                0x0801a9d4        0x8 ./build/./RepRapFirmware/src/RepRap.o
 .text._ZN6RepRapUlPK11ObjectModelR24ObjectExplorationContextE45_4_FUNES2_S4_
                0x0801a9dc        0xa ./build/./RepRapFirmware/src/RepRap.o
 .text._ZN6RepRapUlPK11ObjectModelR24ObjectExplorationContextE47_4_FUNES2_S4_
                0x0801a9e6        0xa ./build/./RepRapFirmware/src/RepRap.o
 .text._ZN6RepRapUlPK11ObjectModelR24ObjectExplorationContextE48_4_FUNES2_S4_
                0x0801a9f0        0xa ./build/./RepRapFirmware/src/RepRap.o
 .text._ZN6RepRapUlPK11ObjectModelR24ObjectExplorationContextE49_4_FUNES2_S4_
                0x0801a9fa        0xa ./build/./RepRapFirmware/src/RepRap.o
 .text._ZN6RepRapUlPK11ObjectModelR24ObjectExplorationContextE50_4_FUNES2_S4_
                0x0801aa04        0xa ./build/./RepRapFirmware/src/RepRap.o
 .text._ZN6RepRapUlPK11ObjectModelR24ObjectExplorationContextE51_4_FUNES2_S4_
                0x0801aa0e        0xa ./build/./RepRapFirmware/src/RepRap.o
 .text._ZN6RepRapUlPK11ObjectModelR24ObjectExplorationContextE57_4_FUNES2_S4_
                0x0801aa18        0xc ./build/./RepRapFirmware/src/RepRap.o
 .text._ZN6RepRapUlPK11ObjectModelR24ObjectExplorationContextE58_4_FUNES2_S4_
                0x0801aa24       0x10 ./build/./RepRapFirmware/src/RepRap.o
 .text._ZN6RepRapUlPK11ObjectModelR24ObjectExplorationContextE63_4_FUNES2_S4_
                0x0801aa34        0xe ./build/./RepRapFirmware/src/RepRap.o
 .text._ZN6RepRapUlPK11ObjectModelR24ObjectExplorationContextE64_4_FUNES2_S4_
                0x0801aa42        0xc ./build/./RepRapFirmware/src/RepRap.o
 *fill*         0x0801aa4e        0x2 
 .text._ZN6RepRapUlPK11ObjectModelR24ObjectExplorationContextE65_4_FUNES2_S4_
                0x0801aa50       0x10 ./build/./RepRapFirmware/src/RepRap.o
 .text._ZN6RepRapUlPK11ObjectModelR24ObjectExplorationContextE69_4_FUNES2_S4_
                0x0801aa60        0xc ./build/./RepRapFirmware/src/RepRap.o
 .text._ZN6RepRapUlPK11ObjectModelR24ObjectExplorationContextE70_4_FUNES2_S4_
                0x0801aa6c        0xc ./build/./RepRapFirmware/src/RepRap.o
 .text._ZN6RepRapUlPK11ObjectModelR24ObjectExplorationContextE71_4_FUNES2_S4_
                0x0801aa78        0xc ./build/./RepRapFirmware/src/RepRap.o
 .text._ZN6RepRapUlPK11ObjectModelR24ObjectExplorationContextE72_4_FUNES2_S4_
                0x0801aa84        0xc ./build/./RepRapFirmware/src/RepRap.o
 .text._ZN6RepRapUlPK11ObjectModelR24ObjectExplorationContextE73_4_FUNES2_S4_
                0x0801aa90        0xc ./build/./RepRapFirmware/src/RepRap.o
 .text._ZN6RepRapUlPK11ObjectModelR24ObjectExplorationContextE74_4_FUNES2_S4_
                0x0801aa9c        0xc ./build/./RepRapFirmware/src/RepRap.o
 .text._ZN6RepRapUlPK11ObjectModelR24ObjectExplorationContextE75_4_FUNES2_S4_
                0x0801aaa8        0xc ./build/./RepRapFirmware/src/RepRap.o
 .text._ZN6RepRapUlPK11ObjectModelR24ObjectExplorationContextE76_4_FUNES2_S4_
                0x0801aab4        0xc ./build/./RepRapFirmware/src/RepRap.o
 .text._ZN6RepRapUlPK11ObjectModelR24ObjectExplorationContextE77_4_FUNES2_S4_
                0x0801aac0        0xc ./build/./RepRapFirmware/src/RepRap.o
 .text._ZN6RepRapUlPK11ObjectModelR24ObjectExplorationContextE78_4_FUNES2_S4_
                0x0801aacc        0xc ./build/./RepRapFirmware/src/RepRap.o
 .text._ZN6RepRapUlPK11ObjectModelR24ObjectExplorationContextE79_4_FUNES2_S4_
                0x0801aad8        0xc ./build/./RepRapFirmware/src/RepRap.o
 .text._ZN6RepRapUlPK11ObjectModelR24ObjectExplorationContextE80_4_FUNES2_S4_
                0x0801aae4        0xc ./build/./RepRapFirmware/src/RepRap.o
 .text._ZN6RepRapUlPK11ObjectModelR24ObjectExplorationContextE81_4_FUNES2_S4_
                0x0801aaf0        0xc ./build/./RepRapFirmware/src/RepRap.o
 .text._ZN6RepRapUlPK11ObjectModelR24ObjectExplorationContextE82_4_FUNES2_S4_
                0x0801aafc        0xc ./build/./RepRapFirmware/src/RepRap.o
 .text._ZN6RepRapUlPK11ObjectModelR24ObjectExplorationContextE83_4_FUNES2_S4_
                0x0801ab08        0xc ./build/./RepRapFirmware/src/RepRap.o
 .text._ZN6RepRapUlPK11ObjectModelR24ObjectExplorationContextE84_4_FUNES2_S4_
                0x0801ab14        0xc ./build/./RepRapFirmware/src/RepRap.o
 .text._ZN6RepRapUlPK11ObjectModelR24ObjectExplorationContextE85_4_FUNES2_S4_
                0x0801ab20        0xc ./build/./RepRapFirmware/src/RepRap.o
 .text._ZN6RepRapUlPK11ObjectModelR24ObjectExplorationContextE86_4_FUNES2_S4_
                0x0801ab2c        0xc ./build/./RepRapFirmware/src/RepRap.o
 .text._ZNK6RepRap29GetObjectModelClassDescriptorEv
                0x0801ab38        0x8 ./build/./RepRapFirmware/src/RepRap.o
                0x0801ab38                RepRap::GetObjectModelClassDescriptor() const
 .text._ZNSt14_Function_base13_Base_managerIZNK6RepRap17GetStatusResponseEh14ResponseSourceEUljE_E10_M_managerERSt9_Any_dataRKS5_St18_Manager_operation
                0x0801ab40       0x16 ./build/./RepRapFirmware/src/RepRap.o
 .text._ZNSt14_Function_base13_Base_managerIZNK6RepRap17GetStatusResponseEh14ResponseSourceEUljE0_E10_M_managerERSt9_Any_dataRKS5_St18_Manager_operation
                0x0801ab56       0x16 ./build/./RepRapFirmware/src/RepRap.o
 .text._ZNSt14_Function_base13_Base_managerIZNK6RepRap17GetStatusResponseEh14ResponseSourceEUljE1_E10_M_managerERSt9_Any_dataRKS5_St18_Manager_operation
                0x0801ab6c       0x16 ./build/./RepRapFirmware/src/RepRap.o
 .text._ZNSt14_Function_base13_Base_managerIZNK6RepRap17GetStatusResponseEh14ResponseSourceEUljE2_E10_M_managerERSt9_Any_dataRKS5_St18_Manager_operation
                0x0801ab82       0x16 ./build/./RepRapFirmware/src/RepRap.o
 .text._ZNSt14_Function_base13_Base_managerIZNK6RepRap17GetStatusResponseEh14ResponseSourceEUljE3_E10_M_managerERSt9_Any_dataRKS5_St18_Manager_operation
                0x0801ab98       0x16 ./build/./RepRapFirmware/src/RepRap.o
 .text._ZNSt14_Function_base13_Base_managerIZNK6RepRap17GetStatusResponseEh14ResponseSourceEUljE4_E10_M_managerERSt9_Any_dataRKS5_St18_Manager_operation
                0x0801abae       0x16 ./build/./RepRapFirmware/src/RepRap.o
 .text._ZNSt14_Function_base13_Base_managerIZNK6RepRap17GetStatusResponseEh14ResponseSourceEUljE5_E10_M_managerERSt9_Any_dataRKS5_St18_Manager_operation
                0x0801abc4       0x16 ./build/./RepRapFirmware/src/RepRap.o
 .text._ZNSt14_Function_base13_Base_managerIZNK6RepRap17GetStatusResponseEh14ResponseSourceEUljE6_E10_M_managerERSt9_Any_dataRKS5_St18_Manager_operation
                0x0801abda       0x16 ./build/./RepRapFirmware/src/RepRap.o
 .text._ZNSt14_Function_base13_Base_managerIZNK6RepRap17GetStatusResponseEh14ResponseSourceEUljE7_E10_M_managerERSt9_Any_dataRKS5_St18_Manager_operation
                0x0801abf0       0x16 ./build/./RepRapFirmware/src/RepRap.o
 .text._ZNSt14_Function_base13_Base_managerIZNK6RepRap17GetStatusResponseEh14ResponseSourceEUljE8_E10_M_managerERSt9_Any_dataRKS5_St18_Manager_operation
                0x0801ac06       0x16 ./build/./RepRapFirmware/src/RepRap.o
 .text._ZNSt14_Function_base13_Base_managerIZNK6RepRap17GetStatusResponseEh14ResponseSourceEUljE9_E10_M_managerERSt9_Any_dataRKS5_St18_Manager_operation
                0x0801ac1c       0x16 ./build/./RepRapFirmware/src/RepRap.o
 .text._ZNSt17_Function_handlerIFfjEZNK6RepRap17GetStatusResponseEh14ResponseSourceEUljE10_E9_M_invokeERKSt9_Any_dataOj
                0x0801ac32        0xe ./build/./RepRapFirmware/src/RepRap.o
 .text._ZNSt14_Function_base13_Base_managerIZNK6RepRap17GetStatusResponseEh14ResponseSourceEUljE10_E10_M_managerERSt9_Any_dataRKS5_St18_Manager_operation
                0x0801ac40       0x16 ./build/./RepRapFirmware/src/RepRap.o
 .text._ZNSt17_Function_handlerIFfjEZNK6RepRap17GetStatusResponseEh14ResponseSourceEUljE11_E9_M_invokeERKSt9_Any_dataOj
                0x0801ac56        0xe ./build/./RepRapFirmware/src/RepRap.o
 .text._ZNSt14_Function_base13_Base_managerIZNK6RepRap17GetStatusResponseEh14ResponseSourceEUljE11_E10_M_managerERSt9_Any_dataRKS5_St18_Manager_operation
                0x0801ac64       0x16 ./build/./RepRapFirmware/src/RepRap.o
 .text._ZNSt17_Function_handlerIFijEZNK6RepRap17GetStatusResponseEh14ResponseSourceEUljE12_E9_M_invokeERKSt9_Any_dataOj
                0x0801ac7a        0xc ./build/./RepRapFirmware/src/RepRap.o
 .text._ZNSt14_Function_base13_Base_managerIZNK6RepRap17GetStatusResponseEh14ResponseSourceEUljE12_E10_M_managerERSt9_Any_dataRKS5_St18_Manager_operation
                0x0801ac86       0x16 ./build/./RepRapFirmware/src/RepRap.o
 .text._ZNSt17_Function_handlerIFijEZNK6RepRap17GetStatusResponseEh14ResponseSourceEUljE13_E9_M_invokeERKSt9_Any_dataOj
                0x0801ac9c        0xc ./build/./RepRapFirmware/src/RepRap.o
 .text._ZNSt14_Function_base13_Base_managerIZNK6RepRap17GetStatusResponseEh14ResponseSourceEUljE13_E10_M_managerERSt9_Any_dataRKS5_St18_Manager_operation
                0x0801aca8       0x16 ./build/./RepRapFirmware/src/RepRap.o
 .text._ZNSt14_Function_base13_Base_managerIZNK6RepRap17GetStatusResponseEh14ResponseSourceEUljjE14_E10_M_managerERSt9_Any_dataRKS5_St18_Manager_operation
                0x0801acbe       0x16 ./build/./RepRapFirmware/src/RepRap.o
 .text._ZNSt14_Function_base13_Base_managerIZNK6RepRap17GetStatusResponseEh14ResponseSourceEUljjE15_E10_M_managerERSt9_Any_dataRKS5_St18_Manager_operation
                0x0801acd4       0x16 ./build/./RepRapFirmware/src/RepRap.o
 .text._ZNSt17_Function_handlerIFfjEZNK6RepRap17GetStatusResponseEh14ResponseSourceEUljE16_E9_M_invokeERKSt9_Any_dataOj
                0x0801acea        0xe ./build/./RepRapFirmware/src/RepRap.o
 .text._ZNSt14_Function_base13_Base_managerIZNK6RepRap17GetStatusResponseEh14ResponseSourceEUljE16_E10_M_managerERSt9_Any_dataRKS5_St18_Manager_operation
                0x0801acf8       0x16 ./build/./RepRapFirmware/src/RepRap.o
 .text._ZNSt14_Function_base13_Base_managerIZNK6RepRap17GetStatusResponseEh14ResponseSourceEUljE17_E10_M_managerERSt9_Any_dataRKS5_St18_Manager_operation
                0x0801ad0e       0x16 ./build/./RepRapFirmware/src/RepRap.o
 .text._ZNSt17_Function_handlerIFfjEZN6RepRap17GetConfigResponseEvEUljE_E9_M_invokeERKSt9_Any_dataOj
                0x0801ad24       0x14 ./build/./RepRapFirmware/src/RepRap.o
 .text._ZNSt14_Function_base13_Base_managerIZN6RepRap17GetConfigResponseEvEUljE_E10_M_managerERSt9_Any_dataRKS4_St18_Manager_operation
                0x0801ad38       0x16 ./build/./RepRapFirmware/src/RepRap.o
 .text._ZNSt17_Function_handlerIFfjEZN6RepRap17GetConfigResponseEvEUljE0_E9_M_invokeERKSt9_Any_dataOj
                0x0801ad4e       0x14 ./build/./RepRapFirmware/src/RepRap.o
 .text._ZNSt14_Function_base13_Base_managerIZN6RepRap17GetConfigResponseEvEUljE0_E10_M_managerERSt9_Any_dataRKS4_St18_Manager_operation
                0x0801ad62       0x16 ./build/./RepRapFirmware/src/RepRap.o
 .text._ZNSt17_Function_handlerIFfjEZN6RepRap17GetConfigResponseEvEUljE1_E9_M_invokeERKSt9_Any_dataOj
                0x0801ad78       0x10 ./build/./RepRapFirmware/src/RepRap.o
 .text._ZNSt14_Function_base13_Base_managerIZN6RepRap17GetConfigResponseEvEUljE1_E10_M_managerERSt9_Any_dataRKS4_St18_Manager_operation
                0x0801ad88       0x16 ./build/./RepRapFirmware/src/RepRap.o
 .text._ZNSt14_Function_base13_Base_managerIZN6RepRap17GetConfigResponseEvEUljE2_E10_M_managerERSt9_Any_dataRKS4_St18_Manager_operation
                0x0801ad9e       0x16 ./build/./RepRapFirmware/src/RepRap.o
 .text._ZNSt17_Function_handlerIFfjEZN6RepRap17GetConfigResponseEvEUljE3_E9_M_invokeERKSt9_Any_dataOj
                0x0801adb4       0x10 ./build/./RepRapFirmware/src/RepRap.o
 .text._ZNSt14_Function_base13_Base_managerIZN6RepRap17GetConfigResponseEvEUljE3_E10_M_managerERSt9_Any_dataRKS4_St18_Manager_operation
                0x0801adc4       0x16 ./build/./RepRapFirmware/src/RepRap.o
 .text._ZNSt17_Function_handlerIFfjEZN6RepRap17GetConfigResponseEvEUljE4_E9_M_invokeERKSt9_Any_dataOj
                0x0801adda       0x10 ./build/./RepRapFirmware/src/RepRap.o
 .text._ZNSt14_Function_base13_Base_managerIZN6RepRap17GetConfigResponseEvEUljE4_E10_M_managerERSt9_Any_dataRKS4_St18_Manager_operation
                0x0801adea       0x16 ./build/./RepRapFirmware/src/RepRap.o
 .text._ZNSt14_Function_base13_Base_managerIZNK6RepRap23GetLegacyStatusResponseEhiEUljE_E10_M_managerERSt9_Any_dataRKS4_St18_Manager_operation
                0x0801ae00       0x16 ./build/./RepRapFirmware/src/RepRap.o
 .text._ZNSt14_Function_base13_Base_managerIZNK6RepRap23GetLegacyStatusResponseEhiEUljE0_E10_M_managerERSt9_Any_dataRKS4_St18_Manager_operation
                0x0801ae16       0x16 ./build/./RepRapFirmware/src/RepRap.o
 .text._ZNSt14_Function_base13_Base_managerIZNK6RepRap23GetLegacyStatusResponseEhiEUljE1_E10_M_managerERSt9_Any_dataRKS4_St18_Manager_operation
                0x0801ae2c       0x16 ./build/./RepRapFirmware/src/RepRap.o
 .text._ZNSt14_Function_base13_Base_managerIZNK6RepRap23GetLegacyStatusResponseEhiEUljE2_E10_M_managerERSt9_Any_dataRKS4_St18_Manager_operation
                0x0801ae42       0x16 ./build/./RepRapFirmware/src/RepRap.o
 .text._ZNSt14_Function_base13_Base_managerIZNK6RepRap23GetLegacyStatusResponseEhiEUljE3_E10_M_managerERSt9_Any_dataRKS4_St18_Manager_operation
                0x0801ae58       0x16 ./build/./RepRapFirmware/src/RepRap.o
 .text._ZN6RepRapD2Ev
                0x0801ae6e        0x2 ./build/./RepRapFirmware/src/RepRap.o
                0x0801ae6e                RepRap::~RepRap()
                0x0801ae6e                RepRap::~RepRap()
 .text._ZN6RepRapD0Ev
                0x0801ae70       0x10 ./build/./RepRapFirmware/src/RepRap.o
                0x0801ae70                RepRap::~RepRap()
 .text._ZN6RepRapUlPK11ObjectModelRK24ObjectExplorationContextE1_4_FUNES2_S5_
                0x0801ae80        0x6 ./build/./RepRapFirmware/src/RepRap.o
 *fill*         0x0801ae86        0x2 
 .text._ZNSt17_Function_handlerIFvjjEZNK6RepRap17GetStatusResponseEh14ResponseSourceEUljjE15_E9_M_invokeERKSt9_Any_dataOjS8_
                0x0801ae88       0x24 ./build/./RepRapFirmware/src/RepRap.o
 .text._ZNSt17_Function_handlerIFfjEZNK6RepRap23GetLegacyStatusResponseEhiEUljE_E9_M_invokeERKSt9_Any_dataOj
                0x0801aeac        0xa ./build/./RepRapFirmware/src/RepRap.o
 .text._ZNSt17_Function_handlerIFfjEZNK6RepRap17GetStatusResponseEh14ResponseSourceEUljE1_E9_M_invokeERKSt9_Any_dataOj
                0x0801aeb6        0xe ./build/./RepRapFirmware/src/RepRap.o
 .text._ZNSt17_Function_handlerIFijEZNK6RepRap17GetStatusResponseEh14ResponseSourceEUljE3_E9_M_invokeERKSt9_Any_dataOj
                0x0801aec4       0x30 ./build/./RepRapFirmware/src/RepRap.o
 .text._ZNSt17_Function_handlerIFPKcjEZNK6RepRap17GetStatusResponseEh14ResponseSourceEUljE4_E9_M_invokeERKSt9_Any_dataOj
                0x0801aef4        0xa ./build/./RepRapFirmware/src/RepRap.o
 *fill*         0x0801aefe        0x2 
 .text._ZNSt17_Function_handlerIFfjEZNK6RepRap23GetLegacyStatusResponseEhiEUljE1_E9_M_invokeERKSt9_Any_dataOj
                0x0801af00       0x1c ./build/./RepRapFirmware/src/RepRap.o
 .text._ZNSt17_Function_handlerIFijEZNK6RepRap17GetStatusResponseEh14ResponseSourceEUljE6_E9_M_invokeERKSt9_Any_dataOj
                0x0801af1c        0xa ./build/./RepRapFirmware/src/RepRap.o
 .text._ZNSt17_Function_handlerIFfjEZNK6RepRap17GetStatusResponseEh14ResponseSourceEUljE7_E9_M_invokeERKSt9_Any_dataOj
                0x0801af26        0xa ./build/./RepRapFirmware/src/RepRap.o
 .text._ZNSt17_Function_handlerIFPKcjEZNK6RepRap17GetStatusResponseEh14ResponseSourceEUljE9_E9_M_invokeERKSt9_Any_dataOj
                0x0801af30        0xa ./build/./RepRapFirmware/src/RepRap.o
 .text._ZNSt17_Function_handlerIFfjEZNK6RepRap17GetStatusResponseEh14ResponseSourceEUljE17_E9_M_invokeERKSt9_Any_dataOj
                0x0801af3a        0xa ./build/./RepRapFirmware/src/RepRap.o
 .text._ZNSt17_Function_handlerIFijEZN6RepRap17GetConfigResponseEvEUljE2_E9_M_invokeERKSt9_Any_dataOj
                0x0801af44       0x1a ./build/./RepRapFirmware/src/RepRap.o
 .text._ZNSt17_Function_handlerIFfjEZNK6RepRap17GetStatusResponseEh14ResponseSourceEUljE2_E9_M_invokeERKSt9_Any_dataOj
                0x0801af5e       0x12 ./build/./RepRapFirmware/src/RepRap.o
 .text._ZN6RepRapUlPK11ObjectModelR24ObjectExplorationContextE68_4_FUNES2_S4_
                0x0801af70       0x20 ./build/./RepRapFirmware/src/RepRap.o
 .text._ZN6RepRapUlPK11ObjectModelR24ObjectExplorationContextE61_4_FUNES2_S4_
                0x0801af90       0x14 ./build/./RepRapFirmware/src/RepRap.o
 .text._ZN6RepRapUlPK11ObjectModelR24ObjectExplorationContextE62_4_FUNES2_S4_
                0x0801afa4       0x16 ./build/./RepRapFirmware/src/RepRap.o
 .text._ZN6RepRapUlPK11ObjectModelR24ObjectExplorationContextE55_4_FUNES2_S4_
                0x0801afba       0x16 ./build/./RepRapFirmware/src/RepRap.o
 .text._ZN6RepRapUlPK11ObjectModelRK24ObjectExplorationContextE5_4_FUNES2_S5_
                0x0801afd0        0xc ./build/./RepRapFirmware/src/RepRap.o
 .text._ZN6RepRapUlPK11ObjectModelR24ObjectExplorationContextE67_4_FUNES2_S4_
                0x0801afdc       0x24 ./build/./RepRapFirmware/src/RepRap.o
 .text._ZN6RepRapUlPK11ObjectModelR24ObjectExplorationContextE54_4_FUNES2_S4_
                0x0801b000       0x22 ./build/./RepRapFirmware/src/RepRap.o
 *fill*         0x0801b022        0x2 
 .text._ZN6RepRapUlPK11ObjectModelR24ObjectExplorationContextE59_4_FUNES2_S4_
                0x0801b024       0x38 ./build/./RepRapFirmware/src/RepRap.o
 .text._ZNSt17_Function_handlerIFijEZNK6RepRap17GetStatusResponseEh14ResponseSourceEUljE8_E9_M_invokeERKSt9_Any_dataOj
                0x0801b05c       0x18 ./build/./RepRapFirmware/src/RepRap.o
 .text._ZNSt17_Function_handlerIFijEZNK6RepRap17GetStatusResponseEh14ResponseSourceEUljE_E9_M_invokeERKSt9_Any_dataOj
                0x0801b074       0x12 ./build/./RepRapFirmware/src/RepRap.o
 .text._ZNK6BitmapItE7IterateESt8functionIFvjjEE.isra.284
                0x0801b086       0x40 ./build/./RepRapFirmware/src/RepRap.o
 .text._ZN6RepRapUlPK11ObjectModelR24ObjectExplorationContextE53_4_FUNES2_S4_
                0x0801b0c6        0xa ./build/./RepRapFirmware/src/RepRap.o
 .text._ZN6RepRapUlPK11ObjectModelR24ObjectExplorationContextE60_4_FUNES2_S4_
                0x0801b0d0        0x8 ./build/./RepRapFirmware/src/RepRap.o
 .text._ZN6RepRapUlPK11ObjectModelR24ObjectExplorationContextE32_4_FUNES2_S4_
                0x0801b0d8        0xa ./build/./RepRapFirmware/src/RepRap.o
 .text._ZN6RepRapUlPK11ObjectModelR24ObjectExplorationContextE33_4_FUNES2_S4_
                0x0801b0e2        0xa ./build/./RepRapFirmware/src/RepRap.o
 .text._ZN6RepRapUlPK11ObjectModelR24ObjectExplorationContextE34_4_FUNES2_S4_
                0x0801b0ec        0xa ./build/./RepRapFirmware/src/RepRap.o
 .text._ZN6RepRapUlPK11ObjectModelR24ObjectExplorationContextE36_4_FUNES2_S4_
                0x0801b0f6        0xa ./build/./RepRapFirmware/src/RepRap.o
 .text._ZN6RepRapUlPK11ObjectModelR24ObjectExplorationContextE38_4_FUNES2_S4_
                0x0801b100        0xa ./build/./RepRapFirmware/src/RepRap.o
 .text._ZN6RepRapUlPK11ObjectModelR24ObjectExplorationContextE40_4_FUNES2_S4_
                0x0801b10a        0xa ./build/./RepRapFirmware/src/RepRap.o
 .text._ZN6RepRapUlPK11ObjectModelR24ObjectExplorationContextE42_4_FUNES2_S4_
                0x0801b114        0xa ./build/./RepRapFirmware/src/RepRap.o
 .text._ZN6RepRapUlPK11ObjectModelR24ObjectExplorationContextE43_4_FUNES2_S4_
                0x0801b11e        0xa ./build/./RepRapFirmware/src/RepRap.o
 .text._ZN6RepRapUlPK11ObjectModelR24ObjectExplorationContextE44_4_FUNES2_S4_
                0x0801b128        0xa ./build/./RepRapFirmware/src/RepRap.o
 .text._ZN6RepRapUlPK11ObjectModelR24ObjectExplorationContextE46_4_FUNES2_S4_
                0x0801b132        0x8 ./build/./RepRapFirmware/src/RepRap.o
 .text._ZN6RepRapUlPK11ObjectModelR24ObjectExplorationContextE52_4_FUNES2_S4_
                0x0801b13a        0xa ./build/./RepRapFirmware/src/RepRap.o
 .text._ZNSt17_Function_handlerIFijEZNK6RepRap23GetLegacyStatusResponseEhiEUljE3_E9_M_invokeERKSt9_Any_dataOj
                0x0801b144       0x12 ./build/./RepRapFirmware/src/RepRap.o
 .text._ZNSt17_Function_handlerIFijEZNK6RepRap23GetLegacyStatusResponseEhiEUljE2_E9_M_invokeERKSt9_Any_dataOj
                0x0801b156        0xa ./build/./RepRapFirmware/src/RepRap.o
 .text._ZNSt17_Function_handlerIFfjEZNK6RepRap17GetStatusResponseEh14ResponseSourceEUljE0_E9_M_invokeERKSt9_Any_dataOj
                0x0801b160        0xa ./build/./RepRapFirmware/src/RepRap.o
 .text._ZNSt17_Function_handlerIFfjEZNK6RepRap23GetLegacyStatusResponseEhiEUljE0_E9_M_invokeERKSt9_Any_dataOj
                0x0801b16a        0xe ./build/./RepRapFirmware/src/RepRap.o
 .text._ZNSt17_Function_handlerIFfjEZNK6RepRap17GetStatusResponseEh14ResponseSourceEUljE5_E9_M_invokeERKSt9_Any_dataOj
                0x0801b178       0x1c ./build/./RepRapFirmware/src/RepRap.o
 .text._ZNSt17_Function_handlerIFvjjEZNK6RepRap17GetStatusResponseEh14ResponseSourceEUljjE14_E9_M_invokeERKSt9_Any_dataOjS8_
                0x0801b194       0x24 ./build/./RepRapFirmware/src/RepRap.o
 .text._ZN10ReadLockerD2Ev
                0x0801b1b8       0x10 ./build/./RepRapFirmware/src/RepRap.o
                0x0801b1b8                ReadLocker::~ReadLocker()
                0x0801b1b8                ReadLocker::~ReadLocker()
 .text._ZN15ExpressionValueC2EPK11ObjectModel
                0x0801b1c8       0x16 ./build/./RepRapFirmware/src/RepRap.o
                0x0801b1c8                ExpressionValue::ExpressionValue(ObjectModel const*)
                0x0801b1c8                ExpressionValue::ExpressionValue(ObjectModel const*)
 .text._ZN6RepRapUlPK11ObjectModelR24ObjectExplorationContextE21_4_FUNES2_S4_
                0x0801b1de        0xe ./build/./RepRapFirmware/src/RepRap.o
 .text._ZN6RepRapUlPK11ObjectModelR24ObjectExplorationContextE19_4_FUNES2_S4_
                0x0801b1ec        0xe ./build/./RepRapFirmware/src/RepRap.o
 .text._ZN6RepRapUlPK11ObjectModelR24ObjectExplorationContextE17_4_FUNES2_S4_
                0x0801b1fa        0xe ./build/./RepRapFirmware/src/RepRap.o
 .text._ZN6RepRapUlPK11ObjectModelR24ObjectExplorationContextE23_4_FUNES2_S4_
                0x0801b208       0x12 ./build/./RepRapFirmware/src/RepRap.o
 .text._ZN6RepRapUlPK11ObjectModelR24ObjectExplorationContextE8_4_FUNES2_S4_
                0x0801b21a       0x20 ./build/./RepRapFirmware/src/RepRap.o
 *fill*         0x0801b23a        0x2 
 .text._ZN6RepRapUlPK11ObjectModelR24ObjectExplorationContextE6_4_FUNES2_S4_
                0x0801b23c       0x38 ./build/./RepRapFirmware/src/RepRap.o
 .text._ZN6RepRapUlPK11ObjectModelR24ObjectExplorationContextE4_4_FUNES2_S4_
                0x0801b274       0x1c ./build/./RepRapFirmware/src/RepRap.o
 .text._ZN6RepRapUlPK11ObjectModelR24ObjectExplorationContextE12_4_FUNES2_S4_
                0x0801b290       0x20 ./build/./RepRapFirmware/src/RepRap.o
 .text._ZN6RepRapUlPK11ObjectModelR24ObjectExplorationContextE2_4_FUNES2_S4_
                0x0801b2b0       0x2a ./build/./RepRapFirmware/src/RepRap.o
 .text._ZNK4Move17GetGeometryStringEv
                0x0801b2da        0xe ./build/./RepRapFirmware/src/RepRap.o
                0x0801b2da                Move::GetGeometryString() const
 .text._ZN6RepRapC2Ev
                0x0801b2e8       0x7c ./build/./RepRapFirmware/src/RepRap.o
                0x0801b2e8                RepRap::RepRap()
                0x0801b2e8                RepRap::RepRap()
 .text._ZN6RepRap6TimingE11MessageType
                0x0801b364       0x64 ./build/./RepRapFirmware/src/RepRap.o
                0x0801b364                RepRap::Timing(MessageType)
 .text._ZN6RepRap11DiagnosticsE11MessageType
                0x0801b3c8       0x9c ./build/./RepRapFirmware/src/RepRap.o
                0x0801b3c8                RepRap::Diagnostics(MessageType)
 .text._ZN6RepRap4SpinEv
                0x0801b464      0x1a0 ./build/./RepRapFirmware/src/RepRap.o
                0x0801b464                RepRap::Spin()
 .text._ZN6RepRap13EmergencyStopEv
                0x0801b604       0x66 ./build/./RepRapFirmware/src/RepRap.o
                0x0801b604                RepRap::EmergencyStop()
 .text._ZN6RepRap8SetDebugE6Moduleb
                0x0801b66a       0x20 ./build/./RepRapFirmware/src/RepRap.o
                0x0801b66a                RepRap::SetDebug(Module, bool)
 .text._ZN6RepRap10ClearDebugEv
                0x0801b68a        0x8 ./build/./RepRapFirmware/src/RepRap.o
                0x0801b68a                RepRap::ClearDebug()
 *fill*         0x0801b692        0x2 
 .text._ZN6RepRap10PrintDebugE11MessageType
                0x0801b694       0xa8 ./build/./RepRapFirmware/src/RepRap.o
                0x0801b694                RepRap::PrintDebug(MessageType)
 .text._ZN6RepRap7AddToolEP4Tool
                0x0801b73c       0x58 ./build/./RepRapFirmware/src/RepRap.o
                0x0801b73c                RepRap::AddTool(Tool*)
 .text._ZNK6RepRap20GetLockedCurrentToolEv
                0x0801b794       0x20 ./build/./RepRapFirmware/src/RepRap.o
                0x0801b794                RepRap::GetLockedCurrentTool() const
 .text._ZNK6RepRap7GetToolEi
                0x0801b7b4       0x44 ./build/./RepRapFirmware/src/RepRap.o
                0x0801b7b4                RepRap::GetTool(int) const
 .text._ZN6RepRapUlPK11ObjectModelR24ObjectExplorationContextE10_4_FUNES2_S4_
                0x0801b7f8       0x2a ./build/./RepRapFirmware/src/RepRap.o
 .text._ZN6RepRap10SelectToolEib
                0x0801b822       0x3a ./build/./RepRapFirmware/src/RepRap.o
                0x0801b822                RepRap::SelectTool(int, bool)
 .text._ZN6RepRap10DeleteToolEi
                0x0801b85c       0xb4 ./build/./RepRapFirmware/src/RepRap.o
                0x0801b85c                RepRap::DeleteTool(int)
 .text._ZNK6RepRap9PrintToolEiRK9StringRef
                0x0801b910       0x30 ./build/./RepRapFirmware/src/RepRap.o
                0x0801b910                RepRap::PrintTool(int, StringRef const&) const
 .text._ZN6RepRap11StandbyToolEib
                0x0801b940       0x4c ./build/./RepRapFirmware/src/RepRap.o
                0x0801b940                RepRap::StandbyTool(int, bool)
 .text._ZNK6RepRap20GetCurrentToolNumberEv
                0x0801b98c       0x12 ./build/./RepRapFirmware/src/RepRap.o
                0x0801b98c                RepRap::GetCurrentToolNumber() const
 .text._ZN6RepRapUlPK11ObjectModelR24ObjectExplorationContextE56_4_FUNES2_S4_
                0x0801b99e       0x14 ./build/./RepRapFirmware/src/RepRap.o
 *fill*         0x0801b9b2        0x2 
 .text._ZNK6RepRap23GetCurrentOrDefaultToolEv
                0x0801b9b4       0x24 ./build/./RepRapFirmware/src/RepRap.o
                0x0801b9b4                RepRap::GetCurrentOrDefaultTool() const
 .text._ZNK6RepRap22IsHeaterAssignedToToolEa
                0x0801b9d8       0x4c ./build/./RepRapFirmware/src/RepRap.o
                0x0801b9d8                RepRap::IsHeaterAssignedToTool(signed char) const
 .text._ZNK6RepRap26GetNumberOfContiguousToolsEv
                0x0801ba24       0x34 ./build/./RepRapFirmware/src/RepRap.o
                0x0801ba24                RepRap::GetNumberOfContiguousTools() const
 .text._ZNK6RepRap22ReportToolTemperaturesERK9StringRefPK4Toolb
                0x0801ba58       0xc0 ./build/./RepRapFirmware/src/RepRap.o
                0x0801ba58                RepRap::ReportToolTemperatures(StringRef const&, Tool const*, bool) const
 .text._ZNK6RepRap25ReportAllToolTemperaturesERK9StringRef
                0x0801bb18       0x40 ./build/./RepRapFirmware/src/RepRap.o
                0x0801bb18                RepRap::ReportAllToolTemperatures(StringRef const&) const
 .text._ZN6RepRap29SetAllToolsFirmwareRetractionER11GCodeBufferRK9StringRefRP12OutputBuffer
                0x0801bb58       0x26 ./build/./RepRapFirmware/src/RepRap.o
                0x0801bb58                RepRap::SetAllToolsFirmwareRetraction(GCodeBuffer&, StringRef const&, OutputBuffer*&)
 .text._ZNK6RepRap15GetCurrentXAxesEv
                0x0801bb7e        0x8 ./build/./RepRapFirmware/src/RepRap.o
                0x0801bb7e                RepRap::GetCurrentXAxes() const
 .text._ZNK6RepRap15GetCurrentYAxesEv
                0x0801bb86        0x8 ./build/./RepRapFirmware/src/RepRap.o
                0x0801bb86                RepRap::GetCurrentYAxes() const
 .text._ZN6RepRap21SetPreviousToolNumberEv
                0x0801bb8e       0x16 ./build/./RepRapFirmware/src/RepRap.o
                0x0801bb8e                RepRap::SetPreviousToolNumber()
 .text._ZN6RepRap4TickEv
                0x0801bba4       0x6c ./build/./RepRapFirmware/src/RepRap.o
                0x0801bba4                RepRap::Tick()
 .text._ZNK6RepRap19SpinTimeoutImminentEv
                0x0801bc10       0x10 ./build/./RepRapFirmware/src/RepRap.o
                0x0801bc10                RepRap::SpinTimeoutImminent() const
 .text._ZN6RepRap19GetFileInfoResponseEPKcRP12OutputBufferb
                0x0801bc20      0x19c ./build/./RepRapFirmware/src/RepRap.o
                0x0801bc20                RepRap::GetFileInfoResponse(char const*, OutputBuffer*&, bool)
 .text._ZN6RepRap16AppendFloatArrayEP12OutputBufferPKcjSt8functionIFfjEEj
                0x0801bdbc       0x6c ./build/./RepRapFirmware/src/RepRap.o
                0x0801bdbc                RepRap::AppendFloatArray(OutputBuffer*, char const*, unsigned int, std::function<float (unsigned int)>, unsigned int)
 .text._ZN6RepRap14AppendIntArrayEP12OutputBufferPKcjSt8functionIFijEE
                0x0801be28       0x64 ./build/./RepRapFirmware/src/RepRap.o
                0x0801be28                RepRap::AppendIntArray(OutputBuffer*, char const*, unsigned int, std::function<int (unsigned int)>)
 .text._ZN6RepRap17GetConfigResponseEv
                0x0801be8c      0x210 ./build/./RepRapFirmware/src/RepRap.o
                0x0801be8c                RepRap::GetConfigResponse()
 .text._ZN6RepRap17AppendStringArrayEP12OutputBufferPKcjSt8functionIFS3_jEE
                0x0801c09c       0x5c ./build/./RepRapFirmware/src/RepRap.o
                0x0801c09c                RepRap::AppendStringArray(OutputBuffer*, char const*, unsigned int, std::function<char const* (unsigned int)>)
 .text._ZNK6RepRap16GetModelResponseEPKcS1_
                0x0801c0f8       0x8c ./build/./RepRapFirmware/src/RepRap.o
                0x0801c0f8                RepRap::GetModelResponse(char const*, char const*) const
 .text._ZN6RepRap4BeepEjj
                0x0801c184       0x66 ./build/./RepRapFirmware/src/RepRap.o
                0x0801c184                RepRap::Beep(unsigned int, unsigned int)
 .text._ZN6RepRap10SetMessageEPKc
                0x0801c1ea       0x44 ./build/./RepRapFirmware/src/RepRap.o
                0x0801c1ea                RepRap::SetMessage(char const*)
 *fill*         0x0801c22e        0x2 
 .text._ZN6RepRap8SetAlertEPKcS1_if6BitmapItE
                0x0801c230       0xc8 ./build/./RepRapFirmware/src/RepRap.o
                0x0801c230                RepRap::SetAlert(char const*, char const*, int, float, Bitmap<unsigned short>)
 .text._ZN6RepRap10ClearAlertEv
                0x0801c2f8       0x2c ./build/./RepRapFirmware/src/RepRap.o
                0x0801c2f8                RepRap::ClearAlert()
 .text._ZNK6RepRap14GetStatusIndexEv
                0x0801c324       0x8c ./build/./RepRapFirmware/src/RepRap.o
                0x0801c324                RepRap::GetStatusIndex() const
 .text._ZNK6RepRap23GetLegacyStatusResponseEhi
                0x0801c3b0      0x5dc ./build/./RepRapFirmware/src/RepRap.o
                0x0801c3b0                RepRap::GetLegacyStatusResponse(unsigned char, int) const
 .text._ZNK6RepRap17GetStatusResponseEh14ResponseSource
                0x0801c98c      0xe48 ./build/./RepRapFirmware/src/RepRap.o
                0x0801c98c                RepRap::GetStatusResponse(unsigned char, ResponseSource) const
 .text._ZNK6RepRap15GetStatusStringEv
                0x0801d7d4       0x14 ./build/./RepRapFirmware/src/RepRap.o
                0x0801d7d4                RepRap::GetStatusString() const
 .text._ZN6RepRapUlPK11ObjectModelR24ObjectExplorationContextE66_4_FUNES2_S4_
                0x0801d7e8       0x14 ./build/./RepRapFirmware/src/RepRap.o
 .text._ZNK6RepRap7GetNameEv
                0x0801d7fc        0x4 ./build/./RepRapFirmware/src/RepRap.o
                0x0801d7fc                RepRap::GetName() const
 .text._ZN6RepRap7SetNameEPKc
                0x0801d800       0x22 ./build/./RepRapFirmware/src/RepRap.o
                0x0801d800                RepRap::SetName(char const*)
 .text._ZN6RepRap30GetProhibitedExtruderMovementsEjj
                0x0801d822       0x66 ./build/./RepRapFirmware/src/RepRap.o
                0x0801d822                RepRap::GetProhibitedExtruderMovements(unsigned int, unsigned int)
 .text._ZN6RepRap20FlagTemperatureFaultEa
                0x0801d888       0x28 ./build/./RepRapFirmware/src/RepRap.o
                0x0801d888                RepRap::FlagTemperatureFault(signed char)
 .text._ZN6RepRap21ClearTemperatureFaultEaRK9StringRef
                0x0801d8b0       0x34 ./build/./RepRapFirmware/src/RepRap.o
                0x0801d8b0                RepRap::ClearTemperatureFault(signed char, StringRef const&)
 .text._ZN6RepRap32CheckFirmwareUpdatePrerequisitesERK9StringRef
                0x0801d8e4       0x14 ./build/./RepRapFirmware/src/RepRap.o
                0x0801d8e4                RepRap::CheckFirmwareUpdatePrerequisites(StringRef const&)
 .text._ZN6RepRap14UpdateFirmwareEv
                0x0801d8f8        0x2 ./build/./RepRapFirmware/src/RepRap.o
                0x0801d8f8                RepRap::UpdateFirmware()
 .text._ZN6RepRap8DoDivideEmm
                0x0801d8fa        0x6 ./build/./RepRapFirmware/src/RepRap.o
                0x0801d8fa                RepRap::DoDivide(unsigned long, unsigned long)
 .text._ZN6RepRap16GenerateBusFaultEv
                0x0801d900        0x8 ./build/./RepRapFirmware/src/RepRap.o
                0x0801d900                RepRap::GenerateBusFault()
 .text._ZN6RepRap8SinfCosfEf
                0x0801d908       0x24 ./build/./RepRapFirmware/src/RepRap.o
                0x0801d908                RepRap::SinfCosf(float)
 .text._ZNK6RepRap19ReportInternalErrorEPKcS1_i
                0x0801d92c       0x20 ./build/./RepRapFirmware/src/RepRap.o
                0x0801d92c                RepRap::ReportInternalError(char const*, char const*, int) const
 .text._ZN6StringILj20EE10CopyAndPadEPKc
                0x0801d94c       0x1e ./build/./RepRapFirmware/src/RepRap.o
                0x0801d94c                String<20u>::CopyAndPad(char const*)
 .text._ZN6RepRap11SetPasswordEPKc
                0x0801d96a        0xa ./build/./RepRapFirmware/src/RepRap.o
                0x0801d96a                RepRap::SetPassword(char const*)
 .text._ZN6RepRap4InitEv
                0x0801d974      0x150 ./build/./RepRapFirmware/src/RepRap.o
                0x0801d974                RepRap::Init()
 .text.startup._GLOBAL__sub_I__ZN6RepRap26objectModelClassDescriptorE
                0x0801dac4       0x10 ./build/./RepRapFirmware/src/RepRap.o
 .text._ZNSt14_Function_base13_Base_managerIZ11ListDriversRK9StringRef6BitmapImEEUljjE_E10_M_managerERSt9_Any_dataRKS8_St18_Manager_operation
                0x0801dad4       0x1a ./build/./RepRapFirmware/src/RepRapFirmware.o
 *fill*         0x0801daee        0x2 
 .text._ZNSt17_Function_handlerIFvjjEZ11ListDriversRK9StringRef6BitmapImEEUljjE_E9_M_invokeERKSt9_Any_dataOjSB_
                0x0801daf0        0xc ./build/./RepRapFirmware/src/RepRapFirmware.o
 .text._Z20GetFloatFormatStringj
                0x0801dafc       0x14 ./build/./RepRapFirmware/src/RepRapFirmware.o
                0x0801dafc                GetFloatFormatString(unsigned int)
 .text._Z13GetModuleNameh
                0x0801db10       0x18 ./build/./RepRapFirmware/src/RepRapFirmware.o
                0x0801db10                GetModuleName(unsigned char)
 .text._ZN11MillisTimer5StartEv
                0x0801db28       0x10 ./build/./RepRapFirmware/src/RepRapFirmware.o
                0x0801db28                MillisTimer::Start()
 .text._ZNK11MillisTimer5CheckEm
                0x0801db38       0x1c ./build/./RepRapFirmware/src/RepRapFirmware.o
                0x0801db38                MillisTimer::Check(unsigned long) const
 .text._ZN11MillisTimer12CheckAndStopEm
                0x0801db54       0x10 ./build/./RepRapFirmware/src/RepRapFirmware.o
                0x0801db54                MillisTimer::CheckAndStop(unsigned long)
 .text.debugPrintf
                0x0801db64       0x30 ./build/./RepRapFirmware/src/RepRapFirmware.o
                0x0801db64                debugPrintf
 .text.delay    0x0801db94        0x4 ./build/./RepRapFirmware/src/RepRapFirmware.o
                0x0801db94                delay
 .text._Z7HideNanf
                0x0801db98       0x44 ./build/./RepRapFirmware/src/RepRapFirmware.o
                0x0801db98                HideNan(float)
 .text._Z11ListDriversRK9StringRef6BitmapImE
                0x0801dbdc       0x70 ./build/./RepRapFirmware/src/RepRapFirmware.o
                0x0801dbdc                ListDrivers(StringRef const&, Bitmap<unsigned long>)
