:020000040800F2
:20000000682B00206D020008C10B0008B90B0008BD0B0008410600082D17000800000000AB
:20002000000000000000000000000000791500084506000800000000D90B00089D16000830
:20004000870200088702000887020008870200088702000887020008870200088702000818
:200060008702000887020008870200088702000887020008870200088702000887020008F8
:200080008702000887020008870200088702000887020008870200088702000887020008D8
:2000A0008702000887020008870200088702000887020008870200088702000887020008B8
:2000C000870200088702000887020008870200088702000887020008870200088702000898
:2000E000870200088702000887020008870200088702000887020008870200088702000878
:20010000870200088702000887020008870200088702000887020008870200088702000857
:20012000870200088702000887020008870200088702000800000000000000008702000859
:20014000870200088702000887020008870200088702000887020008870200088702000817
:20016000870200088702000887020008870200088702000887020008870200080000000088
:200180000000000087020008000000000000000087020008000000000000000087020008AC
:2001A00000000000000000000000000087020008870200088702000887020008870200086A
:2001C0008702000800F002F800F040F80AA090E8000C82448344AAF10107DA4501D100F03D
:2001E00035F8AFF2090EBAE80F0013F0010F18BFFB1A43F001031847D04C0000F04C00007C
:20020000103A24BF78C878C1FAD8520724BF30C830C144BF04680C60704700000023002468
:2002200000250026103A28BF78C1FBD8520728BF30C148BF0B6070471FB504F0ECFB9DE8A8
:20024000030000F01FF91FBD10B510BD00F076F91146FFF7F1FF03F055FD00F094F903B410
:20026000FFF7F2FF03BC00F0C5F900000948804709480047FEE7FEE7FEE7FEE7FEE7FEE71C
:20028000FEE7FEE7FEE7FEE704480549054A064B70470000C5160008C50100086807002099
:2002A000682B0020682700206827002070B5064600F0CCF8056806F10B0020F00704B44288
:2002C0009CBF002070BD2B466A68BAB11068A04210D304F1080188423CBF5068586007D37E
:2002E0005168101941601168091B016058601460101D70BD13465268002AE7D1214628462D
:2003000000F0ACF80028DED170BD70B50446051F00F09CF80068002C14BF446870BD002CC2
:2003200018BFAC423CBF20466468F8D301680A18AA4218BF456003D12A68054611440160A6
:2003400028684119A1421CBF6C6070BD6168696021680844286070BD53EA020C00F06980BC
:200360002DE9F04B4FF00006002B1FBFB3FA83F503FA05F424FA05F65E4012BF1643B2FA36
:2003800082F502FA05F4C5F120051EBF22FA05FC44EA0C04203556EA044C4FEA144418BF91
:2003A000641C4FF000084FF00009904271EB030C39D3002919BFB1FA81F701FA07F6B0FA1F
:2003C00080F700FA07F6C7F120071EBF20FA07FC46EA0C062037B6FBF4FCA7EB0507103FAF
:2003E00007F01F0BCBF120060CFA0BFB2CFA06F644BFB3460026202FA4BF5E464FF0000B0A
:200400005BEA060C08BF4FF0010B19EB0B09ABFB027C48EB0608C01B06FB02CC0BFB03CC77
:2004200071EB0C01C1E70B46024641464846BDE8F08B13B54FF000004FF00001AFF3008074
:20044000BDE81C4070477047704770470048704710070020704770477047704738B5044676
:200460000A4600206946AFF30080002808BF38BD02460099204600F03FF8012038BD0120B2
:2004800000F054B8F8B5AFF30080054600200C46102000BF0646A819A0420DD932466946E9
:2004A0000020AFF30080070008BF00F03FF80098A04218BF0546C419FFF7C8FF056007461D
:2004C000F01D20F007004619284600F00AF8B44208BFF8BDA21B31463868BDE8F84000F026
:2004E0000BB800210160C0E901107047102070470048704708070020034640688C46002846
:2005000018BF88423CBF03464068F8D318681844884207D00CF1030020F00700001D411A77
:20052000521A0146081D0A60FFF7EFBE10B500F039F8BDE8104000F02FB870477546FFF7BC
:20054000D7FFAE4605006946534620F00700854618B020B5FFF798FEBDE820404FF000062F
:200560004FF000074FF000084FF0000B21F00701AC46ACE8C009ACE8C009ACE8C009ACE8EE
:20058000C0098D46704710B50446AFF300802046BDE81040FFF763BE002801D000F02AB89A
:2005A0007047000010B5012805D0002103A000F027F8012010BD09A1F8E700005349475242
:2005C000544D454D3A204F7574206F662068656170206D656D6F7279000000003A204865E3
:2005E0006170206D656D6F727920636F727275707465640001491820ABBEFEE72600020081
:2006000070B505460C460A2000E06D1C00F011F835B128780028F8D102E0641C00F009F8C2
:2006200014B120780028F8D1BDE870400A20AFF3008008B569468DF800000320ABBE08BD89
:2006400000BFFEE77047000001490860704700000C3C024030B10749096841F48061054A45
:20066000116005E00349096821F48061014A116070470000003C024070B504460A4600269B
:20068000092502B909E0012A01D1160205E0022A01D1160201E04FF4407600F09FF80546CC
:2006A000092D28D11548006820F440701349086008460068304308600846006820F0F8006F
:2006C00008600846006844F0020108430B4908600846006840F48030086000F07FF805460A
:2006E0000648006820F00200044908600846006820F0F8000860284670BD0000103C02402E
:2007000009201349096801F48031B1F5803F01D101201CE00E49096801F0100109B106203F
:2007200015E00B49096801F4807109B102200EE00749096801F0E00109B1072007E00449A7
:20074000096801F0020109B1082000E0092070470C3C02400348006840F000400149086033
:2007600070470000103C024030B502460C46092500F034F80546092D19D10E48006820F42E
:2007800040700C4908600846006840F4007008600846006840F001000860146000F01EF861
:2007A00005460448006820F0010002490860284630BD0000103C02400548006800F00040A8
:2007C00028B1044802490C390860034808607047103C024023016745AB89EFCD08B509205E
:2007E0000090FFF78DFF009002E0FFF789FF00909DF800000128F8D09DF8000008BD000087
:2008000010B504464148844208D10121084600F0F5F90021012000F0F1F976E03C48844297
:2008200008D10121022000F0E9F90021022000F0E5F96AE03748844208D10121042000F01A
:20084000DDF90021042000F0D9F95EE03248844208D10121082000F0D1F90021082000F027
:20086000CDF952E02D48844208D10121102000F0C5F90021102000F0C1F946E02848844215
:2008800008D10121202000F0B9F90021202000F0B5F93AE02348844208D10121402000F0E6
:2008A000ADF90021402000F0A9F92EE01E48844208D10121802000F0A1F90021802000F06F
:2008C0009DF922E01948844208D10121801500F095F90021A01500F091F916E014488442E3
:2008E00008D10121401500F089F90021601500F085F90AE00F48844207D10121001500F02C
:200900007DF90021201500F079F910BD000002400004024000080240000C0240001002406A
:200920000014024000180240001C024000200240002402400028024010B501460A0ACBB2DA
:20094000054850F82200006901249C40204008B1012010BD0020FCE7204A0008F0B50A4605
:2009600000210023002400BF3DE0012505FA01F3156805EA03049C4234D105684F000326DF
:20098000BE40B543056015794E00B5400668354305601579012D02D01579022D16D18568C1
:2009A0004F000326BE40B543856055794E00B540866835438560456801268E40B543456049
:2009C000456896798E40B6B235434560C5684F000326BE40B543C560D5794E00B540C66889
:2009E0003543C560491C1029BFD3F0BDF0B504460B46200AE1B24E4D2D68012686403543EB
:200A00004B4E35604B4D55F820502D684F000326BE40B543474E56F82060356003F003055D
:200A20004E00B540434E56F8206036683543414E56F8206035603F4D55F82050ED684F001F
:200A40000326BE40B5433B4E56F82060F560394D55F82050ED684F00C3F34116BE40354361
:200A6000344E56F82060F56003F00305012D03D003F00305022D2FD12E4D55F820506D689E
:200A800001268E40B5432B4E56F820607560294D55F820506D68C3F380068E403543254E50
:200AA00056F820607560234D55F82050AD684F000326BE40B5431F4E56F82060B5601D4D29
:200AC00055F82050AD684F00C3F3C106BE403543184E56F82060B56003F00305022D25D199
:200AE000144D55F820502035CE1055F826504E07F70E0F26BE40B5430E4E56F820602036DD
:200B0000CF1046F827500B4D55F820502035CE1055F826504E07F60E02FA06F63543054E1A
:200B200056F820602036CF1046F82750F0BD000030380240204A0008F0B5002300244D07F4
:200B4000ED0E02FA05F3CE1000F1200555F826504E07F70E0F26BE40B543CF1000F1200674
:200B600046F82750CE1000F1200555F8265045EA0304CE1000F1200545F82640F0BD4183CB
:200B8000704701837047000030B5020AC3B231B101249C40054D55F822502C8305E0012450
:200BA0009C40024D55F822506C8330BD204A000842694A404261704700BFFEE700BFFEE726
:200BC0007047000002490143024A1160704700000000FA050CED00E07047000029B1064AA2
:200BE00012680243044B1A6004E0034A12688243014B1A60704700003038024029B1064AAC
:200C000012680243044B1A6004E0034A12688243014B1A60704700001038024029B1064AAB
:200C200012680243044B1A6004E0034A12688243014B1A60704700002038024029B1064A7B
:200C400012680243044B1A6004E0034A12688243014B1A60704700004438024029B1064A37
:200C600012680243044B1A6004E0034A12688243014B1A60704700002438024010B54FF459
:200C80008570FFF759FE08B9012010BD0020FCE710B5002238214FF48570FFF7A7FE10BD80
:200CA00010B50824012000F04DF902E0FF2000F05DF9201EA4F10101CCB2F7D110BD10B5F8
:200CC000002218210420FFF791FE002000F04AFA10BD70B505464FF6FF7401E0601E84B232
:200CE000FF2000F043F9A84201D0002CF6D10CB9FF2070BD0020FCE7F8B5FFF7C9FFFFF786
:200D0000BDFF08B9AA20F8BD00F023F900F0B3F9002504E0FF2000F029F9681C85B20A2D03
:200D2000F8DB142600BF95220021084600F033F90446012C04D0301EA6F101018EB2F2D170
:200D4000002054490870012C75D192E087224FF4D571082000F01FF9012847D1002506E0CB
:200D6000FF2000F003F90DF80500681C85B2042DF6DB9DF8020001287BD19DF80300AA282B
:200D800077D14FF6FE7600BF01220021372000F002F901229107292000F0FDF8044624B105
:200DA000301EA6F101018EB2EED1002E61D0012200213A2000F0EFF800285AD1002506E01B
:200DC000FF2000F0D3F80DF80500681C85B2042DF6DB9DF8000000F0400018B106202D4948
:200DE000087002E004202B49087043E001220021372000F0D0F801220021292000F0CBF8D3
:200E00000446012C18DC0220224908704FF6FE7600BF01220021372000F0BDF80122002166
:200E2000292000F0B8F80446C4B1301EA6F101018EB2EED112E01EE00120164908704FF6F7
:200E4000FE7600BF01220021104600F0A4F8044624B1301EA6F101018EB2F3D12EB101222D
:200E60005102102000F097F810B100200949087000E06BE700BFFFF713FF00F0F6F80548A1
:200E8000007808B100203EE70CB120463BE7AA2039E70000140000202DE9F04106460F4691
:200EA000154619480078062800D07F02012D0CD101223946112000F06EF80446FCB96902E1
:200EC000304600F023F8044619E001223946122000F061F8044600BF4FF40071304600F00E
:200EE00015F8044606F50076681EC0B2051E01D0002CF1D0012200210C2000F04CF8FFF7B7
:200F0000CFFE2046BDE8F0811400002070B504460D46FE20FFF7DDFE08B1012070BD04E0B8
:200F2000FF2000F023F82070641C281EA5F101018DB2F5D1FF2000F019F8FF2000F016F857
:200F40000020EBE710B5044621460420FFF71CFE10BD10B5002219210420FFF747FD002089
:200F600000F0F6F80120FFF7EDFF10BD10B504462146002000F038FAC0B210BD10B50020E7
:200F8000FFF7E0FF00F07DF808B9002010BDFFF787FE0120FAE72DE9F04105460C461746AB
:200FA0004FF00008FFF77CFEFFF7E8FF10B1FF20BDE8F08100F065F808B1FF20F8E745F06E
:200FC0004000FFF7D3FF200EFFF7D0FFC4F30740FFF7CCFFC4F30720FFF7C8FFE0B2FFF734
:200FE000C5FF3846FFF7C2FF0C2D02D1FF20FFF7BDFF4FF01F0800BFFF20FFF7B7FF0646DF
:2010000006F0800030B1B8F10000A8F1010101F0FF08F1D13046CBE770B506460D4600F09F
:2010200030F808B1012070BD2846FFF79FFFFD2D19D0002404E0305DFFF798FF601C84B298
:20104000B4F5007FF7DBFF20FFF790FFFF20FFF78DFFFF20FFF78AFF044604F01F00052829
:2010600001D00220DFE70020DDE710B50721002000F062F910BD10B50721002000F05CF95C
:2010800010BD10B5002406E0FF20FFF76FFFFF2801D1002010BD2046641C4FF6FF718842E6
:2010A000F2D30120F6E700002DE9F04106460F46154620480078062800D07F02012D0CD1C0
:2010C000012239461820FFF766FF04466CBBFE213046FFF7A1FF044627E0164800780128EF
:2010E00009D0012200213720FFF755FF012229461720FFF750FF012239461920FFF74BFF09
:20110000044694B900BFFC213046FFF785FF044606F50076681EC0B2051E01D0002CF2D0D7
:20112000FD210020FFF778FF0446FFF7B9FD2046BDE8F0811400002021B1028842F040028E
:20114000028004E002884FF6BF731A400280704710B50446204600F017F80721204600F0A3
:20116000EBF810BD10B50446054951F82400FFF747FB044951F8240000F05AF810BD0000F4
:2011800018000020444A00081CB504461E4951F824000121FFF752FD1C4830F814001C4926
:2011A00031F8141008431B4931F814100843009002208DF8040000208DF8060003208DF80D
:2011C000050001208DF8070069461348FFF7C6FB124B1A5D124B195D124B53F82400FFF733
:2011E000ABFC0E4B1A5D104B195D0E4B53F82400FFF7A2FC094B1A5D0C4B195D094B53F814
:201200002400FFF799FC1CBD504A00085C4A0008624A0008684A000800000240774A00087D
:201220006E4A000818000020714A0008744A000810B504462448844208D101218014FFF767
:201240000DFD0021A014FFF709FD3CE01F48844208D101210014FFF7E1FC00212014FFF73D
:20126000DDFC30E01A48844208D10121C013FFF7D5FC0021E013FFF7D1FC24E015488442CA
:2012800008D101214014FFF7E9FC00216014FFF7E5FC18E01048844209D101210805FFF7A3
:2012A000DDFC00214FF48010FFF7D8FC0BE00B48844208D101214805FFF7D0FC00214FF425
:2012C0000010FFF7CBFC10BD0030014000380040003C004000340140005001400054014074
:2012E0000246002013890B400BB1012000E0002070470146888970478181704710B500225C
:20130000028802F441520B884C8823438C882343CC8823430C8923434C8923438C89234308
:20132000CC8923431A430280838B4FF2FF74234083830B8A038210BD70B586B005460E4607
:20134000082E15D2DFE806F012100E0C0A08060438240FE030240DE028240BE0202409E06B
:20136000182407E0102405E0082403E0002401E0382400BF00BF45B901210803FFF76EFCB8
:2013800000214FF48050FFF769FC0020ADF804004FF48270ADF806000020ADF80800022026
:2013A000ADF80A000120ADF80C004002ADF80E00ADF810400020ADF812000720ADF814000B
:2013C000084951F8250001A9FFF798FF054951F825000121FFF7B0FEFF21002000F004F869
:2013E00006B070BD444A00082DE9F04104460F46002506E0681CC5B2C82D02DD0020BDE8EF
:20140000F081134951F824000221FFF769FF0028F0D00F4951F824003946FFF76DFF00255E
:2014200005E0681CC5B2C82D01DD0020E7E7084951F824000121FFF753FF0028F1D00449AD
:2014400051F82400FFF755FFC6B23046D7E70000444A000801461C48814201D2002070477B
:201460001A48814201D20820F9E71948814201D21020F4E71748814201D21820EFE7164809
:20148000814201D22020EAE71448814201D22820E5E71348814201D23020E0E7114881427B
:2014A00001D23820DBE71048814201D24020D6E70E48814201D24820D1E70D48814201D23D
:2014C0005020CCE75820CAE7004000080080000800C0000800000108000002080000040809
:2014E000000006080000080800000A0800000C0800000E0801460868704710B5FFF75CF914
:2015000040F2F310FFF7A0F8FFF724F910BD000070B50925FFF750F90020FFF79BF8134C8E
:201520001348844215D210E02046FFF7E3FF401C50B12046FFF78EFF06460221FFF79CF836
:201540000546092D01D003E0241D0A488442EBD300BF0120FFF77EF8FFF7FCF8092D01D101
:20156000002070BD4FF0FF30FBE70000008000080000FF1FFBFF0708704700000CB5002087
:20158000019000904148006840F480303F49086000BF3E48006800F4003000900198401C0F
:2015A0000190009818B90198B0F5A04FF1D13748006800F4003010B10120009001E00020C4
:2015C00000900098012860D130484030006840F080502E49403108602D48006840F4404058
:2015E0002B4908602948083000682849083108600846006840F4004008600846006840F470
:20160000A05008602348091F0860081F006840F08070091F086000BF1C48006800F000704D
:201620000028F9D01A48006840F480301849086000BF1748406800F480300028F9D014488B
:20164000006840F400301249086000BF1048406800F400300028F9D040F205700E490860C1
:201660000A480830006820F003000849083108600846006840F00200086000BF03480830E1
:20168000006800F00C000828F8D10CBD0038024000700040085A4077003C024010B508484E
:2016A0000068401C0649086008460068401C08B9002008600248006800F08CF910BD000060
:2016C0002400002010B51548006840F47000134908601348006840F00100114908600020FE
:2016E0000F49083108600E4800680E4908400C4908600D48091D0860081F006820F48020B1
:20170000091F0860002006490C310860FFF736FF4FF0006001498039086010BD88ED00E0CE
:2017200000380240FFFFF6FE1030002400BFFEE72DE9FC4100F0ABF800F0A1F810B10520E0
:20174000BDE8FC8100F0E8F805460DB12846F7E7002600BF4FF0FF30009001AB04226946DE
:201760002B4801F007FB0446019868B1009800F0FFF805460DB9761C06E0254801F040F968
:2017800002F01EF80620DBE714B901980028E1D100F0E4F801221FA11D4801F06DF9044664
:2017A0001CB102F00DF80720CAE71E4F002600BF4FF0FF30009001AB04226946144801F06F
:2017C000D9FA0446019868B138680099884202D13F1D761C06E00E4801F012F901F0F0FF5E
:2017E0000720ADE714B901980028E1D1084801F007F90DA001F0CDFF10B10BA001F09AFD4F
:2018000009A104A001F0BDFB01F0DAFF002097E7B80400206669726D776172652E62696EC9
:2018200000000000008000086F6C642E62696E0000B500F005F808B9002000BD0420FCE733
:2018400005480068A0F10050B0F5003F01D8002070470220FCE700000080000802460B4638
:201860004FF4F0210020891A984101D3002070470320FCE710B5FFF722FA002010BD10B53E
:20188000FFF746FE08B9002010BD0520FCE710B5FFF733FE002010BD10B501F08DFF08B97C
:2018A000012010BD01220EA1114801F0E5F818B101F086FF0220F4E70D48D0E9042110467C
:2018C000FFF7CCFF30B10A4801F09AF801F078FF0320E6E7064801F093F80020E1E7000087
:2018E0006669726D776172652E62696E00000000B804002070B50648446825460549086008
:201900000146086880F3088800BFA84770BD00000080000808ED00E010B5012208A10C48F0
:2019200001F0AAF804461CB101F04AFF022010BD084809490860FEF73FFF0020F7E7000099
:201940006669726D776172652E62696E00000000B8040020008000083800002010B5FEF74D
:20196000F9FE024801F04CF8002010BDB804002010B50446144800681449884204D81248F8
:2019800000681349884203D2FEF7E4FE062010BD21460D480068FEF7E7FE09280ED10A48BA
:2019A00000680068A04203D0FEF7D4FE0620EEE705480068001D0449086003E0FEF7CAFEB9
:2019C0000620E4E70020E2E738000020FCFF07080080000810B504466420B4FBF0F100FB25
:2019E000114018B908210248FFF7E2F810BD0000000C024010B508210348FFF7C0F800215F
:201A00000820FFF7EBF810BD000C02401CB501210820FFF7E3F801208DF8040002208DF86D
:201A200005000820009069460348FEF797FF08210148FFF7A6F81CBD000C02402DE9F047EA
:201A400004460D4690469946AD1E606B00EB153AC5F3C80605F0070101208840C7B200BFC0
:201A600051460AF1010A204602F01EFC10B10120BDE8F08700BF00BF04F13C00805D384055
:201A800008B1012000E00020484501D10220EFE704F13C00805D784004F13C01885501201F
:201AA000E070A8F10100B0F1000800D1E0E77806000E071EE0D10127701C0646B0F5007F75
:201AC000D9D30026CCE7000070B504460D460020E070401EA0632946204602F0E5FB08B18E
:201AE000042070BD04F23A2002F05FF84AF65521884201D00320F4E70B2214A104F13C009A
:201B000002F01FF908B90120EBE794F83C00E92807D094F83C00EB2803D094F83C00E828D1
:201B200011D103220CA104F1720002F00AF908B90020D6E7052209A104F18E0002F001F9B7
:201B400008B90020CDE70220CBE70000EB769045584641542020200046415400464154336A
:201B600032000000024600E0521C107810B110788842F9D1107870470246891ED069801E33
:201B8000884201D8002070475389106B03FB0100F9E700002DE9F04780460C4604F11A0021
:201BA00002F003F810B10020BDE8F087207800F03F00401E00EB800101EBC0054FF00109B0
:201BC000002621E01849895D081901F0EEFF0746B9F1000F11D0FF2D0BD8384601F054FCE3
:201BE000824629466D1C38F8110001F04DFC824501D00020D8E7B94605E04FF6FF708742D2
:201C000001D00020D0E7761C0D2EDBD3207800F0400038B1B9F1000F04D038F8150008B165
:201C20000020C1E70120BFE7844A00082DE9F04706468A463468BAF1000F0AD1D4F8148045
:201C4000B8F1000F02D0E069404516D84FF0010813E05146304601F01DFE0746022F02D298
:201C60000120BDE8F087781C08B93846F9E7E069B84201D93846F4E7D046A06908B90020FE
:201C8000EFE7207804284ED101224146204601F090FC05460DB1681C08B92846E1E7012356
:201CA0001A4629462046FFF7C9FE8146B9F1020F01D10120D5E7B9F1010F02D14FF0FF3006
:201CC000CFE7BAF1000F02D10220F0710CE0F079022809D108F10100854205D0B068A8EBA4
:201CE0000000B0610320F071F079022869D00AF10100854207D1F06910B1F069401C00E039
:201D00000220F0615DE0F06908B90120F0612A465146304601F02BFC8146B9F1000F50D151
:201D20000120F0614DE00025D04519D108F10105E069A84200D802252946304601F0AAFD32
:201D40000746012F01D0781C08B9384689E73FB16769022F03D3E069B84200D9B8460025EC
:201D6000E5B9454600BF6D1CE069A84204D80225454501D9002074E72946304601F08AFD80
:201D8000074607B909E0012F01D0781C08B9384667E74545E7D1002063E700BF4FF0FF3250
:201DA0002946204602F0E0FA8146B9F1000F08D1BAF1000F05D02A465146204602F0D4FA6D
:201DC0008146B9F1000F0DD16561D4E90610801E814202D8A069401EA061207940F001009F
:201DE000207107E0B9F1010F02D14FF0FF3000E001200546284634E72DE9F34F83B0814649
:201E0000049800680090D9F80000D0F80CA0002500BF684602F038FD83460BF1010018B999
:201E2000062005B0BDE8F08FBBF5803F05D34FEA1B4228466D1C2AF810201FFA8BF4202C99
:201E400003DB2F2C01D05C2C00D111E0802C06DA21467BA0FFF786FE08B10620E1E7FF2DD3
:201E600001D30620DDE728466D1C2AF81040D0E700BF202C01DA04260CE0002602E00098E8
:201E8000401C0090009800782F28F8D0009800785C28F4D000990498016008E0681E3AF899
:201EA0001040202C02D02E2C00D002E06D1E002DF4D100BF00202AF815000DB90620B0E792
:201EC000002700E07F1C3AF817002028FAD01FB93AF817002E2801D146F0030600E06D1E12
:201EE00025B1681E3AF810002E28F8D10B22202109F1400001F044FF4FF00008CDF80880B5
:201F00000820019000BF38467F1C3AF8104004B96AE0202C03D02E2C04D1AF4202D046F060
:201F20000306F0E7DDE90110884201D2AF4216D101980B2802D146F0030655E0AF4201D0A0
:201F400046F00306AF4200D94EE02F46082002900B2001904FEA88604FEA1068D3E7802C27
:201F60000EDB46F0020640F2B511204601F06CFA044604F0800018B104F07F0033490C5CA7
:201F8000FF2C11DD0198401E0299884204D846F0030601980290B6E722120298411C02912B
:201FA00009F140010A5418E024B1214628A0FFF7D9FD18B15F2446F003060EE0412C03DBFC
:201FC0005A2C01DC48F00208612C06DB7A2C04DC48F00108A4F1200084B20298411C0291B2
:201FE00009F140010C548EE700BF99F84000E52802D1052089F840000198082803D14FEAA5
:020000040800F2
:2020000088604FEA106808F00C000C2803D008F00300032801D146F0020606F0020048B9ED
:2020200008F0010008B146F0100608F0040008B146F008064B2000F809600020F1E60000E6
:20204000222A3A3C3E3F7C7F00000000914A00082B2C3B3D5B5D00002DE9F04704460E46F1
:2020600040220021204601F08BFE85202070C02084F8200040250020804607464FF001096B
:2020800000BFC12228466D1C2254002228466D1C225400BFB9F1000F06D036F81700B0F16E
:2020A000000901D0781CC7B26019494602F02FFBAD1C05F01F000028ECD108F1010000F069
:2020C000FF0836F817000028DBD184F8237008F101006070304602F078FC8246514604F1D7
:2020E000240002F014FBBDE8F087014609B1002070470020FCE72DE9F04104460E46D4F813
:2021000000800021204600F0A2FB05465DBB002700BF4046A16B02F0C7F8054605B121E09D
:2021200098F80000042805D1E06B0078012121EAD01009E0E06B0078E52802D0E06B0078EF
:2021400008B9012000E0002020B1781C0746B04201D107E000270121204600F041F905461C
:20216000002DD6D000BF042D00D107252846BDE8F0812DE9F04704468946204602F05EFB04
:2021800010B10120BDE8F08749462046FFF7F4FC0746A7634FF40072002104F13C0001F017
:2021A000EFFD60894FF40041B1EB402F01D8084601E06089400206464FF0000800E0760897
:2021C000B6F5007F05D9304601F032F9B0F10008F5D0B6F5007F17D932460021404601F0CD
:2021E000CFFD760A002500E035446089A84207D97A1960783346414600F0D6FB0028F3D04B
:20220000404601F01BF910E004F13C080126002500E035446089A84207D97A1960783346CE
:20222000414600F0C1FB0028F3D06089A84201D00120A7E70020A5E72DE9F04F85B00446AD
:2022400025680021204600F002FB07461FB1384605B0BDE8F08F287804284CD1E86802F0DE
:20226000B4FB01903EE0296901F1240001F09DFC0199884200D035E0286990F823000390B6
:202280004FF0400A002002901FE00AF01F0008B90AF1020A296901EB0A0001F086FC009098
:2022A00001F0F2F88346EA68029932F8110001F0EBF8834500D00BE00398401EC0B20390FD
:2022C0000AF1020A0298401C029003980028DCD100BF039828B9E968029831F8100000B9E7
:2022E00006E000BF0021204600F0EAF8071EBAD000BF3846ACE74FF0FF09CDF810904FF076
:20230000FF30E06400BF2846A16B01F0CDFF074607B162E0E06B06780EB904275DE0E06BCA
:20232000C07A00F03F0884F80680E52E05D008F0080040B1B8F10F0F05D04FF0FF094FF02F
:20234000FF30E06442E0B8F10F0F22D14B20005D00F04000A0BB06F0400038B1E06B407BB6
:20236000049006F0BF06B146206BE0644E450CD1E06B417B0498814207D1E16BE868FFF708
:2023800009FC10B1A9F1010000E0FF2000F0FF091CE0B9F1000F06D1E06B02F0F7F904998F
:2023A000884200D119E04B20005D00F0010040B90B2204F14001E06B01F0C3FC08B90CE0CC
:2023C00004E04FF0FF094FF0FF30E0640021204600F006F80746002F95D000BF384637E76F
:2023E0002DE9F041044688462768206B00F120063878042801D1800601E04FF40010B042F3
:2024000001D80020A063A06B10B90420BDE8F081C6F3080000284AD1A06B401CA063606B79
:2024200038B93889B0EB561F41D80020A0630420ECE77889401E00EA5620002837D1204652
:20244000616B01F027FA0546012D01D80220DDE7681C08B90120D9E7F869A84221D8B8F153
:20246000000F03D10020A0630420CFE72046616BFFF7DCFB05460DB90720C7E7012D01D197
:202480000220C3E7681C08B90120BFE729463846FFF76FFE08B10120B8E7E07940F004000E
:2024A000E071656329463846FFF766FBA0632663C6F3080107F13C000844E0630020A5E702
:2024C0002DE9F05F04468A46042627684FF0FF09CB4667E03846A16B01F0E6FE064606B1C3
:2024E00063E0E06B05780DB904265EE0387804280FD100BF852D4ED1206BE064204601F031
:202500007AFB064626B93869007900F03F00A0714BE0E06BC07A00F03F0884F80680E52DC6
:202520000AD02E2D08D028F02000082801D1012000E00020504502D04FF0FF092BE0B8F1D1
:202540000F0F1CD105F0400038B1E06B90F80DB005F0BF05A946206BE0644D450BD1E06B92
:20256000407B584507D1E16BF86801F0B7FE10B1A9F1010000E0FF2000F0FF090BE0B9F1F1
:20258000000F04D1E06B02F001F9584502D04FF0FF30E06409E000212046FFF721FF06462D
:2025A00006B102E0A06B002894D100BF0EB10020A0633046BDE8F09F2DE9F04F99B00446B7
:2025C00026684B20005D00F0A00018B1062019B0BDE8F08F4FF0000B01E00BF1010BF068AE
:2025E00030F81B000028F8D13078042866D10BF10E000F21B0FBF1F000F1020949462046E5
:20260000FFF779FD05460DB12846E0E7A9F101002022216B02FB1010E064E07900F00400F9
:20262000002845D0E07920F00400E071204600F083FF05460DB12846C9E74FF0FF322046CA
:20264000616B00F094FF05460DB12846BFE7A06870B32146684601F0AEFA05460DB12846BE
:20266000B5E770894002D4E90431181841F10001C4E90401D4E90473316901F138003A4604
:2026800002F017F8D4E90473316901F128003A4602F00FF8E07940F00100316981F821001A
:2026A000684602F03AF805460DB128468FE700BFD6E90310FFF7D0FC002088E70C2204F156
:2026C000400115A801F04FFB9DF85F0000F0010028B340214B2001554FF0010A0EE053460E
:2026E00015A904F14000F26801F06EF82046FFF7A3FD054605B104E00AF1010ABAF1640F31
:20270000EDD300BFBAF1640F01D107205FE7042D01D028465BE79DF85F104B2001559DF8D1
:202720005F0000F0020030B10BF10C000D21B0FBF1F0401C00E00120814649462046FFF796
:20274000DAFC054675BBA9F10100B0F1000929D0206BA0EB4911204600F079F805460DBBA0
:2027600004F1400002F012F8149000BF3046A16B01F09AFD054605B113E009F0FF02E16B81
:20278000F068149B01F092FE0120F07000212046FFF726FE054625B9A9F10100B0F1000921
:2027A000E4D100BFC5B93046A16B01F07DFD054695B920220021E06B01F0E2FA0B2204F104
:2027C0004001E06B01F0CFFA4B20005D00F01800E16B08730120F0702846F8E62DE9F04108
:2027E00004462668276BE06C401C08B9002003E02046E16C00F02BF805462DBB00BF3046D5
:20280000A16B01F051FD054605B119E03078042806D1E06B007800F07F00E16B087002E0F0
:20282000E520E16B08700120F070206BB84200D306E000212046FFF7D3FD0546002DDED09D
:2028400000BF042D00D102252846BDE8F0812DE9F04104460D4626683078042801D180066E
:2028600001E04FF40010A84202D905F01F0010B10220BDE8F0812563A7682FB93078032800
:2028800002DBF76A0020E07147B93089B0EB551F01D80220EDE7F06AA0631CE070894FEA67
:2028A000402811E03946204600F0F4FF0746781C08B90120DDE7022F02D3F069B84201D83E
:2028C0000220D6E7A5EB08054545EBD239463046FFF752F9A0636763A06B08B90220C8E795
:2028E000A06B00EB5520A063C5F3080106F13C000844E0630020BCE770B50446002504E0AC
:2029000001200D494855681CC5B2022DF8DB14B1012C0BD109E0FEF7EFF928B90648005D86
:2029200020F001000449085502E001E0042070BD00BF0148005DFAE72800002003460BB92D
:20294000002070470420FCE72DE9F04104460E4617461D4615B90420BDE8F0810C48005D3B
:2029600000F0010008B10320F6E714B1012C0CD109E0EAB239463046FEF78EFA08B9002006
:20298000EAE70120E8E70120E6E70420E4E70000280000200146022901DB012070470148E2
:2029A000405CFBE7280000202DE9F04104460E4617461D4615B90420BDE8F0810F48005DF0
:2029C00000F0010008B10320F6E70C48005D00F0040008B10220EFE714B1012C0CD109E03F
:2029E000EAB239463046FEF75FFB08B90020E3E70120E1E70120DFE70420DDE7280000204C
:202A000038B50546284600F0BFFB04463CB96946284601F09FFF04460CB90020286020465E
:202A200038BD0000F7B582B016460398019001A800F0F8FF0546002D02DA0B2005B0F0BDCA
:202A40000C4850F825400CB100202070029810B10020029908700749029841F825000EB96B
:202A60000020EBE7002202A903A801F0E3F907463846E3E72C0000202DE9F74F98B0044650
:202A800016461CB909201BB0BDE8F08F06F03F06324603A919A801F0CDF90546002D7AD153
:202AA000039804904FF48C6000F0C2FC8346BBF1000F01D11120E6E70398C0F80CB00BF5A7
:202AC00000700399086104A8199900F000FE05462DB99DF85B0000F0800000B1062506F0D2
:202AE0001C0000287DD045B1042D03D104A8FFF763FD054646F008060AE09DF8160000F034
:202B0000110008B1072503E006F0040000B10825002D3FD106F0080000283BD00398007883
:202B2000042839D1039820602146039800F0D4FF03990969881C1E22002101F021F90399C5
:202B4000096901F126001A22002101F019F920200399096908710399096901F108008449EF
:202B600001F09BFD01200399096981F8210004A801F0D3FD0546002D53D1A068002850D0AA
:202B800000222046A16801F0D1FC0546A068401E0399486145E0E5E01399039800F0B5FF1B
:202BA0000290139901F10E00714901F076FD20201399C87200221399039801F05CFD139934
:202BC00001F11C00002101F068FD01200399C870029830B30398806B0190002204A802997E
:202BE00000E00DE001F0A2FC0546D5B90199039801F05AFB05460298401E0399486110E0AD
:202C00007DB99DF8160000F0100008B1042508E006F0020028B19DF8160000F0010000B1EB
:202C200007254DB906F0080008B146F040060398806BA0641398E064002D7BD1039800782A
:202C400004280FD106982062089820F0FF009DF81710084360621798A0622146039800F02D
:202C60003BFF0CE01399039800F04FFFA060139901F11C0000F05CFF0021C4E90401039836
:202C800020600398C088A08084F83060002084F8310060640021A163E1634FF4007204F101
:202CA000500001F06DF806F02000002857D00023D4E9041059405840014350D0D4E90401BE
:202CC000C4E90E01039840894FEA4029D4F808A0D4E9047810E05146204600F0DBFD824608
:202CE000BAF1010F00D802250AF1010000B90125B7EB090768F100082DB90020B9EB07017A
:202D000070EB0800E7D3C4F840A09DB94FF40072002338464146FDF71FFB00214A404B4083
:202D20001A431CD051460398FEF726FF0190019808B9022513E04FF400720023384641461C
:202D4000FDF70AFB019908446064626C03994878012304F15001FFF7F7FD00B101255846DD
:202D600000F06CFB0DB10020206028468BE600000000214E2DE9FF4F87B004461546089870
:202D8000039000210A98016005A9204601F0E2FD0690069818B994F83100069018B10698D9
:202DA0000BB0BDE8F08F94F8300000F0010008B90720F5E7D4E90430D4E90E125F1A60EB31
:202DC0000208791B78F1000000D23D46D4E0D4E90E014FF400720023CDE90001FDF7BCFADE
:202DE00000214A404B401A4370D1D4E90E014FF400720023CDE90001FDF7AEFA0599498998
:202E0000491E00EA010ABAF1000F1ED10023D4E90E1059405840014302D1A068049004E0E7
:202E20002046216C00F036FD04900498022803D2022084F83100B3E70498401C18B90120FA
:202E400084F83100ACE704982064216C0598FEF793FE8146B9F1000F03D1022084F831003F
:202E60009EE7D1444FEA552BBBF1000F2FD00AEB0B0005994989884203D905984089A0EB3E
:202E80000A0B059948785B464A460399FFF75CFD18B1012084F8310082E794F8300000F0F7
:202EA000800080B1606CA0EB090058450BD2616CA1EB0901039A02EB41204FF4007204F18F
:202EC000500100F050FF4FEA4B2645E029E0606C484524D094F8300000F0800090B1626C02
:202EE00005994878012304F15001FFF75DFD18B1012084F8310053E794F8300000F07F00BE
:202F000084F830000599487801234A4604F15001FFF71AFD18B1012084F8310040E7C4F826
:202F20004490208FC0F30800C0F50076AE4200D92E46D4E90E014FF400720023CDE9000190
:202F4000FDF70AFA04F150001044324601460290039800F008FF00BFAD1B0A9800688119D2
:202F60000A980160039830440390D4E90E20921940F10000C4E90E20002D7FF428AF002073
:202F80000EE72DE9F347BAB03BA800F04BFD022211A93AA800F04EFF0446002C7DD11198FD
:202FA00026904FF48C6000F043FA06461EB911203CB0BDE8F0871198C66006F500701199BF
:202FC000086126A83A9900F082FB04462CB99DF8E30000F0A00000B10624002C7BD1119847
:202FE000007804285DD111984022016901A800F0BAFE502226A912A800F0B5FE12A83B990D
:2030000000F065FB04465CB928991498884205D132991E98884201D1042000E00820044661
:20302000042C3DD112A8FFF7C7FA0446B4BB1198006990F801801198006990F82390119916
:20304000096901F1240000F0B0FD824611994022086901A900F087FE1198006980F80180DC
:203060001198006980F823901199096901F12400514601F04CFB11980069007900F0100087
:2030800038B911980069007940F0200011990969087112A801F041FB01E072E000E004468B
:2030A00062E0202201A8359900F05DFE502226A912A800F058FE12A83B9900F008FB0446BE
:2030C00064B928991498884206D132991E98884202D1042001E051E008200446042C43D1BB
:2030E00012A8FFF769FA04464CBB219D13220DF1110105F10D0000F036FE9DF80F00E87244
:20310000E87A00F0100018B9E87A40F02000E87201201199C870E87A00F0100078B1149935
:203120002898884220D02946119800F0EEFC804641461198FEF720FD07460FB9022413E0ED
:203140003946119801F0B0F80446119800F15C0554B968782E2807D12946149A119801F097
:203160008AFA01201199C87044B926A8FFF736FB04461CB9119801F019FB0446304600F059
:203180005DF9204614E700002DE9F04796B0044614A9204601F0DEFB0546002D7ED194F85B
:2031A000300000F04000002878D094F8300000F0800090B1626C14994878012304F150012D
:2031C000FFF7F2FB18B1012016B0BDE8F08794F8300000F07F0084F83000DFF854A11498F1
:2031E0000078042875D1204600F0A6F9054635B94FF0FF322046216C00F0B9F90546002D3A
:20320000CCD14FF48C6000F013F98146B9F1000F01D11120D8E71498C0F80C9009F5007036
:20322000149908612146684600F0C5FC0546002D4AD114980069007940F020001499096922
:203240000871E07940F001001499096981F82100A168149A126902F1340001F01EFAD4E993
:2032600004731499096901F138003A4601F021FAD4E904731499096901F128003A4601F024
:2032800018FA1499096901F10C00514601F005FA0020149909694875149900E045E0096958
:2032A00001F11000002101F0F8F9684601F035FA05464DB9149801F079FA054694F83000D3
:2032C00000F0BF0084F83000484600F0B7F82CE0FFE7A16C149800F0E7FF05462DBBE66C60
:2032E000F07A40F02000F0723146A268206801F0C2F906F11C00216901F0CFF9514606F119
:20330000160001F0CAF9002106F1120001F0FFF901201499C870149801F048FA054694F814
:20332000300000F0BF0084F8300028464CE700000000214E71B5B7B0002602220DA937A886
:2033400000F078FD0446002C70D10D9822904FF48C6000F06DF8054615B9112038B070BD17
:203360000D98C56005F500700D99086122A8379900F0ADF9044600BF002C54D19DF8D30018
:2033800000F0800008B1062405E09DF88E0000F0010000B10724A4BB0D9800900D98007854
:2033A000042805D169460D9800F096FB029E04E031990D9800F0A9FB06469DF88E0000F050
:2033C0001000F0B10D980E9010960D980078042807D1DDE90401CDE912019DF807008DF87D
:2033E0003F0000210EA8FFF732FA04464CB900210EA8FFF765F8044604B90724042C00D1E9
:20340000002484B922A8FFF7E9F9044634B92EB100223146684601F089F804461CB90D9816
:2034200001F0C4F90446284600F008F8204695E710B504462046FCF739FF10BD10B50446D8
:203440002046FCF762FF10BD10B5024600200D4B802A01D290B213E0B2F5803F10D240F234
:20346000B514A1420CD1002001E0441CA0B2802803DA33F810409442F7D100F18004E0B26B
:2034800010BD0000124B000870B5B0F5803F4DD281B2B1F5805F01DA254E00E0254E324681
:2034A00000BF32F8023B0BB1994200DA3CE032F8024B2512E4B21E198E4230DD092D2CD2CD
:2034C000DFE805F005090F13171B1F232700CE1A32F8161021E0CE1A06F001068E1BB1B23B
:2034E0001BE0A1F11006B1B217E0A1F12006B1B213E0A1F13006B1B20FE0A1F11A06B1B292
:203500000BE001F10806B1B207E0A1F15006B1B203E0A1F5E356B1B200BF00BF04E0002D87
:20352000BFD102EB4402BCE700BF084670BD0000124C0008044E00082DE9F0410446E07941
:20354000032812D1A568A7690BE06A1C2946206800F00AFF064616B13046BDE8F0816D1CB7
:203560007F1E002FF1D10020E0710020F5E72DE9F04104460D46174616E0E369012B03D9C5
:20358000E369EB1A9B1C00E03B461A46E369EB1A591C206800F0E8FE064616B13046BDE810
:2035A000F081E069401EE061E0690028E5D100BFF5E72DE9F74F05460E46B61EE869801E32
:2035C000B04200D800263446A2464FF0000B00BF686B00EB1431284600F066FE18B14FF0C3
:2035E000FF30BDE8FE8FC4F3C80904F0070101208840C7B200BF00BF05F13C0010F80900C3
:2036000000EA07087806070E601C0446E969891E884203D3002400274FF40079B8F1000F00
:2036200008D10BF1010083460299884205D10AF10200D6E7A2464FF0000BB44201D10020DC
:20364000CFE7002FD8D1012709F101008146B0F5007FD0D3BCE72DE9FF4107460D46002171
:203660003846FEF731FA0646022E06D0032E00D21DB9304604B0BDE8F08100BF00240AE074
:2036800007F5FD7101EB041101F1080000F050FA4DF82400641C042CF2D30DB1681E00E089
:2036A0000020044600BF5DF8240028B15DF824103846FEF709FA00E0032006462DB9022E2B
:2036C00003D3601C04460428EDD33046D2E72DE9F3410446276802E00198401C019001980F
:2036E00000782F28F8D0019800785C28F4D00020A060E06101980078202808D280214B203A
:20370000015500212046FFF7A2F805463EE000BF01A92046FEF770FB054605B135E0204628
:20372000FEF78AFD05464B20065D3DB1042D04D100BF06F0040000B9052526E006F0040064
:2037400000B122E0A07900F0100008B905251CE0387804280ED1A0682062206920F0FF00D9
:20376000E17908436062E06CA0622146384600F0B3F909E0208EC0F3080207F13C00111862
:20378000384600F0C2F9A060C2E700BF2846BDE8FC8110B5ADF5147D04460022214668468F
:2037A000FFF76AF930B96846FFF72AF901200DF5147D10BD0020FAE710B500F02BFB10BDD6
:2037C00010B501F0B9F810BD2DE9FF4F83B0804691461E460B224046049900F0C4FA052EEC
:2037E00018D9374611E039F802BB00250BE0584667F35F0007464FEA6B0B07F4803008B1B5
:20380000234847406D1C102DF1D3B9F800000028E9D13E46072500BF06F00F0000F1300AFA
:20382000BAF1390F03DD0AF1070000F0FF0A28466D1E01A901F800A03609002EECD17E20B6
:20384000485500240AE018F80400FEF74EFC20B1681EA04200D107E0641C641CAC4203D2B6
:2038600018F804002028EED100BF00BF082D04D228466D1C01A9085C00E020202146641C98
:2038800008F80100082CF1D307B0BDE8F08F0000211001002DE9FC5F06460C463568022C48
:2038A00002D3E869A04202D84FF00109B7E04FF0FF392878012806D0022830D0032841D0CA
:2038C00004287CD152E0274607EB5707A86A00EB5721284600F0E8FC00B19FE038467F1C80
:2038E000C0F3080105F13C0010F80180A86A00EB5721284600F0D8FC00B18FE0C7F30801C7
:2039000005F13C00405C48EA002804F0010010B14FEA181001E0C8F30B0081467EE0A86A8A
:2039200000EB1421284600F0BFFC00B176E040F2FF1101EA440205F13C01501800F035F91B
:2039400081466BE0A86A00EBD411284600F0ACFC00B163E040F2FF1101EA840205F13C0193
:20396000501800F0E5F820F0704957E00022D6E9041051405040014301D0B06808B9F079A5
:2039800090BBB068A4EB000AD6E90420521E60F10000CDE900204FF400720023DDE9000112
:2039A000FCF7DAFC6989B0FBF1FBF07902280AD1DA4508D8DA4503D16FF0004001E02AE0CB
:2039C000601C81462AE0F079032805D1B069504502D904F1010921E0F079022819D0F069D2
:2039E00018B16FF0004913E014E0A86A00EBD411284600F059FC00B110E040F2FF1101EA0C
:203A0000840205F13C01501800F092F820F0004904E000BF00BF4FF0010900BF00BF4846FB
:203A2000BDE8FC9FF0B506464FF0FF30D6F800C06146634601B9F0BD00BF13F8012B202A62
:203A400001D33A2AF9D13A2A40D1022591F800C0BCF1300F0DDB91F800C0BCF1390F08DC89
:203A600001F1020C9C4504D191F800C0ACF1300527E0002500BFDFF85CC05CF82570316815
:203A800000BF17F8014B11F8012B612C05DB7A2C03DCA4F1200C0CF0FF04612A05DB7A2A16
:203AA00003DCA2F1200C0CF0FF020CB19442E8D00CB9994205D005F1010C6546BCF1020F3F
:203AC000D9DB022D01DA28463360B4E7002000BFB1E700007C4A000870B505460C462969F3
:203AE00001F1340000F024F8A060296901F1380000F02AF8C4E90401286990F8210000F0EA
:203B00000200E0710020E06170BD70B505460C4604F11A0000F049F806462878032805D1D5
:203B200004F1140000F041F846EA0046304670BD0146C8788A7842EA00204A7842EA002057
:203B40000A7842EA0020704770B50246D3790024250245EA1364907940EA0323250245EA87
:203B60001364507940EA0323250245EA1364107940EA0323250245EA1364D07840EA0323AA
:203B8000200240EA1364917841EA0323210241EA1364507840EA0323250245EA13641178D5
:203BA00041EA03231846214670BD014648780A7842EA0020704770B504460D462868206064
:203BC000286AA06095F82400E071686A20F0FF000021C4E904010020E061A86AE064204680
:203BE000E16CFEF734FE06461EB9204600F003F80646304670BD2DE9F04704462068066960
:203C0000A16B206800F050FB054615B12846BDE8F087E06B0078852801D00220F7E72022B7
:203C20003046E16B00F09FF87078401C4FEA4018B8F1600F02D3B8F5187F01D90220E6E76C
:203C400000212046FEF7CCFB0546042D00D102250DB12846DBE7A16B206800F025FB0546D0
:203C60000DB12846D3E7E06B0078C02801D00220CDE7202206F12000E16B00F074F896F87D
:203C800023002C300F21B0FBF1F0B8EB401F01D20220BCE7402700BF00212046FEF7A0FB12
:203CA0000546042D00D102250DB12846AFE7A16B206800F0F9FA05460DB12846A7E7E06B07
:203CC0000078C12801D00220A1E7B7F5187F04D2F0192022E16B00F046F807F120000746C5
:203CE0004045D9D3B7F5187F0AD8304600F050FE8146B01CFFF759FF814501D0022086E7B3
:203D0000002084E74FF4A060FCF75CFF00F04CF8FDF77CFEFDF7C0FD00B108E0FDF708FDA2
:203D200000B104E0FDF784FD00B100E000BFFDF7A1FD00F02EF8FDF75DFEFDF7DBFD00BFA7
:203D4000FEE7F0B503461D460C46002000BF15F8017B14F801CBA7EB0C00561E321E01D068
:203D60000028F4D0F0BD30B503460C463AB100BF14F8015B03F8015B551E2A1EF8D130BD50
:203D800010B5034600BF03F8011B541E221EFAD110BD4FF0E020006920F003004FF0E021FA
:203DA000086100207047000030B5174800684FF47A72B0FBF2F1481EB0F1807F01D301205F
:203DC0001BE0481E4FF0E022506150170F22002807DA13071D0E0D4B00F00F04241F1D559A
:203DE00003E013071C0E0A4B1C5400BF00204FF0E022906107201061002010B14FF0FF30DF
:203E000030BD0020FCE700000000002018ED00E000E400E010B5012204A10548FEF702FE1A
:203E200008B9012010BD0020FCE7000053443A003C0000202DE9F74F8CB000210D980160E4
:203E40000C98FFF7EFFD0A900A98002803DA0B200FB0BDE8F08FFE490A9851F820400CB936
:203E60000C20F5E70D9804600E9800F0FE000E90207878B16078FEF78DFD83460BF0010022
:203E800040B90E9820B10BF0040008B10A20DFE70020DDE7002020700A9860706078FEF737
:203EA0002BFD83460BF0010008B10320D0E70E9820B10BF0040008B10A20C9E700212046F2
:203EC000FFF7C9FB0746042F01D10120C0E7022F01D30D20BCE7A56B012F76D14FF00B095F
:203EE00001E009F10109B9F1400F05D204F13C0010F809000028F4D0B9F1400F01D20D20E6
:203F0000A6E704F1A400FFF750FEB0F5807F01D00D209DE794F8A81001208840B0F5007FC0
:203F200001D00D2094E704F18400FFF70DFE03460846591940F10000CDE90410DDE90410B0
:203F4000091E70F1010001D30D2081E704F19000FFF7EEFD206294F8AA00A070A078012800
:203F600001D00D2074E794F8A910012088406081608908B90D206BE704F19800FFF7D8FD58
:203F80000646B4498E4201D90D2061E7B01CE061656204F19400FFF7CBFD2844206304F1BA
:203FA0008C00FFF7C5FD2844A0624FF0000C608900FB06F1226B53184CEB0C01DDE9042003
:203FC000D21A884102D20D2042E76CE004F19C00FFF7AEFDE06200208146039000BFB9F15F
:203FE000000F16D161890398814201D80D202FE72046E16AFDF7C0FD039908440146019045
:020000040800F2
:20400000204600F051F908B1012021E70398401C039004F13C0010F80900812800D104E0F4
:2040200009F12000C0F30809D9E700BF04F13C01494401F11400FFF77BFD8046B8F1020F70
:2040400002D3E069404501D80D2001E76289A8F10200216B02FB0010606300BFA06A00EB39
:20406000D811204600F020F908B10120F0E608F07F0104F13C0202EB8100FFF759FD029041
:204080000298401C00B907E008F10100804602998842E3D00D20DBE600BF4FF0FF30A06196
:2040A00060610427F0E004F14700FFF77EFDB0F5007F01D00D20CBE604F15200FFF775FD15
:2040C0008246BAF1000F04D104F16000FFF730FD8246C4F820A04C20005DA070A0780128B3
:2040E00004D0A078022801D00D20B1E6A0780AFB00FA4920005D6081608918B16089411E5D
:20410000084008B10D20A3E604F14D00FFF74DFD2081207A00F00F0008B10D2098E604F1D3
:204120004F00FFF742FD0990099820B904F15C00FFF7FEFC099004F14A00FFF736FD069010
:20414000069808B90D2083E606985044218900EB11100890DDE90801814201D20D2077E6FB
:20416000DDE90810401A6189B0FBF1F60EB90D206EE600273848864200D803274FF6F57028
:20418000864200D8022740F6F570864200D801270FB90D205CE6B01CE061656206982844DE
:2041A000A062089828442063032F13D104F16600FFF7FBFC08B10D204AE6208908B10D206B
:2041C00046E604F16800FFF7B3FCE062E0698000079014E0208908B90D2039E6A06A5044C7
:2041E000E062022F02D1E069400007E0207F00F00100E16901EB410100EB51000790216AA3
:20420000079800F2FF10B1EB502F01D20D201FE64FF0FF30A061606180202071032F33D147
:2042200004F16C00FFF7C1FC01282DD1691C204600F03AF840BB0020207104F23A20FFF744
:20424000B4FC4AF6552188421ED104F13C0005E02C000020FDFFFF7FF5FFFF0FFFF768FC07
:204260000E49884210D104F50870FFF761FC0C49884209D104F50970FFF75AFCA06104F5C7
:204280000A70FFF755FC6061277006480088401C80B204490880E0800020D9E55252614148
:2042A000727241613400002070B504460D460026A06BA84210D0204600F0C0FA06465EB9F4
:2042C000607801232A4604F13C01FEF73DFB10B14FF0FF350126A563304670BD2DE9F047C0
:2042E00080460C4604F11A00FFF75FFC10B10020BDE8F087207820F04000401E00EB800197
:2043000001EBC0054FF00109002619E01549895D0819FFF74AFC0746B9F1000F09D0FF2DD8
:2043200001D90020E4E7B94628466D1C28F8107005E04FF6FF70874201D00020D8E7761C7E
:204340000D2EE3D3207800F0400048B1B9F1000F06D0FF2D01D90020CAE7002028F81500F0
:204360000120C5E7844A00082DE9F04704460D4616464FF00209022D77D3E069A84274D911
:204380002078012806D002284BD0032861D004280DD15FE02F4607EB5707A06A00EB57216A
:2043A0002046FFF781FF8146B9F1000F00D079E038467F1CC0F3080104F13C0001EB00087E
:2043C00005F0010028B1F1B298F8000061F31F1000E0304688F800000120E070A06A00EB1C
:2043E00057212046FFF760FF8146B9F1000F00D058E0C7F3080104F13C0001EB000805F025
:20440000010010B1C6F3071006E098F8000000F0F000C6F30321084388F800000120E0709B
:2044200040E0A06A00EB15212046FFF73DFF8146B9F1000F00D035E0B1B240F2FF1202EAA2
:20444000450304F13C02981800F061F90120E07028E000BFA06A00EBD5112046FFF724FF55
:204460008146B9F1000F01D01CE01CE0207804280BD040F2FF1101EA850204F13C01501806
:20448000FFF756FB66F31B00064640F2FF1101EA850204F13C015018314600F0FEF8012049
:2044A000E07000BF00BF4846BDE8F0872DE9F04707460C461546984684F80D800F20E072D5
:2044C00000202073002104F11A0000F020F9681E00EB800101EBC00900200646824600BF56
:2044E0004FF6FF70864204D0484609F1010937F810600D4911F80A100819314600F007F93A
:204500000EB94FF6FF760AF1010082460D28E7D34FF6FF70864202D037F8190008B945F0DB
:2045200040052570BDE8F087844A00082DE9F05F06460F4690464FF000093568BA46BB46ED
:20454000022F02D3E869B84202D80220BDE8F09FB8F1000F11D02878042802D1F07902280F
:204560000BD04FF0FF3241462846FFF7FDFE8146B9F1000F01D04846E8E700BF39463046A8
:20458000FFF788F9044604B93EE0012C01D10220DCE7601C08B90120D8E7287804280AD0D8
:2045A000002239462846FFF7DFFE8146B9F1000F01D04846CAE7D5E90610801E814206D27C
:2045C000A869401CA861287940F0010028710BF10100A04201D1A34612E0287804280DD1C4
:2045E000ABEB0A00421C002351462846FDF726FA8146B9F1000F01D04846A7E7A346A24643
:204600002746E869B842B9D800BF2878042830D1B8F1000F02D10020F0712AE0F079D8B9B5
:20462000B76811E039463046FFF734F90446022C01D202208AE7601C08B9012086E7781C15
:20464000844200D002E07F1C4745EBD100BF47450FD10220F0710CE0F079032809D1B068DF
:20466000404506D8B169B0680844404501D30220F07100206AE770B506460C461546A9B293
:2046800004F11A0000F043F83078032804D1290C04F1140000F03BF870BD00F8011B090A83
:2046A00000F8011B090A00F8011B090A00F8011B704730B500F8012B110A41EA03621B0A08
:2046C00000F8012B110A41EA03621B0A00F8012B110A41EA03621B0A00F8012B110A41EA88
:2046E00003621B0A00F8012B110A41EA03621B0A00F8012B110A41EA03621B0A00F8012B24
:20470000110A41EA03621B0A00F8012B30BD00F8011B091200F8011B70472DE9F04104462D
:2047200020680569284600F033F980464146A81CFFF7EDFF6878471C2046E16CFEF787F89C
:20474000064618E0A16B2068FFF7AEFD064606B113E020222946E06BFFF705FB012021684E
:20476000C870781E071E00D107E0203500212046FDF736FE0646002EE4D000BF0EB1012EAF
:2047800002D13046BDE8F0810220FBE730B5014600200B2200BF431003EBC01411F8015B04
:2047A0006319D8B2531E1A1EF5D130BD70B50446204600F043F80546002D38D12078032853
:2047C0002ED1207901282BD14202002104F13C00FFF7D6FA4AF6552104F23A20FFF797FF2E
:2047E000144904F13C00FFF758FF134904F50870FFF753FF04F50970A169FFF74EFF04F511
:204800000A706169FFF749FF606A401CA0636078012304F13C01A26BFEF7C6F8002020714E
:20482000607800221146FEF789F800B10125284670BD0000525261417272416170B5044604
:204840000025E078E8B16078012304F13C01A26BFEF7AAF8A0B90020E070A16AA06B401A37
:20486000216A88420DD2A07802280AD1236AA16BCA186078012304F13C01FEF795F800E0DC
:204880000125284670BD000070B50446226812F8011B01F08000002847D001F0E000C028CF
:2048A00003D101F01F01012312E001F0F000E02803D101F00F0102230AE001F0F800F0282F
:2048C00003D101F00701032302E04FF0FF3070BD00BF12F8015B05F0C000802802D04FF0D5
:2048E000FF30F4E7284661F39F100146581E031EEFD1802908D3B1F5584F02D3B1F5604FA4
:2049000002D3B1F5881F02D34FF0FF30DFE7B1F5803F0AD3A1F58030054E06EA8010054EBE
:204920003043C1F3090640EA060122600846CEE70000FF0300DC00D810B5012204A1002028
:20494000FEF770F808B9012010BD0020FCE7000053443A0070B504460D4609268CB12068C1
:2049600078B12068007860B1A0882168C988884207D121684878FEF70DF800F0010000B96C
:2049800000260EB9206800E000202860304670BD30B502465478641C6301002420462146A9
:2049A00010E0022901D1491C0BE000F0010414B14FF4004400E0002404EB6004555C2C4401
:2049C000A0B2491C9942ECD330BD70B5064600241BE02846FEF758FD85B204F0010010B164
:2049E0004FF4004000E0002000EB6400E9B2084484B204F0010010B14FF4004000E000208F
:204A000000EB640000EB252084B236F8021B0D1EDFD1204670BD4FF04070E1EE100A704799
:204A2000000002400004024000080240000C0240001002400014024000180240001C0240F6
:204A4000002002400030014000380040003C0040011000000240000002800000200000207A
:204A60000800400000401000800000802000050D08060E10070F200505060000C04E0008E4
:204A8000C44E000801030507090E10121416181C1E809A45418E418F804545454949498E81
:204AA0008F9092924F994F555559999A9B9C9D9E9F41494F55A5A5A6A7A8A9AAABACADAEC3
:204AC000AFB0B1B2B3B4B5B6B7B8B9BABBBCBDBEBFC0C1C2C3C4C5C6C7C8C9CACBCCCDCE06
:204AE000CFD0D1D2D3D4D5D6D7D8D9DADBDCDDDEDFE0E1E2E3E4E5E6E7E8E9EAEBECEDEEE6
:204B0000EFF0F1F2F3F4F5F6F7F8F9FAFBFCFDFEFF00C700FC00E900E200E400E000E500F7
:204B2000E700EA00EB00E800EF00EE00EC00C400C500C900E600C600F400F600F200FB0033
:204B4000F900FF00D600DC00A200A300A500A7209201E100ED00F300FA00F100D100AA0040
:204B6000BA00BF001023AC00BD00BC00A100AB00BB009125922593250225242561256225BB
:204B8000562555256325512557255D255C255B251025142534252C251C2500253C255E25C1
:204BA0005F255A25542569256625602550256C2567256825642565255925582552255325BF
:204BC0006B256A2518250C25882584258C2590258025B103DF009303C003A303C303B500DA
:204BE000C403A6039803A903B4031E22C603B50329226122B1006522642220232123F7007C
:204C00004822B0001922B7001A227F20B200A025A00061001A03E0001703F8000703FF001D
:204C2000010078010001300132010601390110014A012E017901060180014D0043028101B3
:204C4000820182018401840186018701870189018A018B018B018D018E018F0190019101B0
:204C6000910193019401F60196019701980198013D029B019C019D0120029F01A001A00107
:204C8000A201A201A401A401A601A701A701A901AA01AB01AC01AC01AE01AF01AF01B10171
:204CA000B201B301B301B501B501B701B801B801BA01BB01BC01BC01BE01F701C001C10118
:204CC000C201C301C401C501C401C701C801C701CA01CB01CA01CD011001DD0101008E01F5
:204CE000DE011201F3010300F101F401F401F8012801220212013A020900652C3B023B0246
:204D00003D02662C3F0240024102410246020A015302400081018601550289018A01580202
:204D20008F015A0290015C025D025E025F0293016102620294016402650266026702970152
:204D400096016A02622C6C026D026E029C01700271029D01730274029F017602770278025F
:204D600079027A027B027C02642C7E027F02A60181028202A9018402850286028702AE018B
:204D80004402B101B20145028D028E028F0290029102B7017B030300FD03FE03FF03AC0361
:204DA00004008603880389038A03B1031103C2030200A303A303C4030803CC0303008C03B4
:204DC0008E038F03D8031801F2030A00F903F303F403F503F603F703F703F903FA03FA03F9
:204DE0003004200350041007600422018A043601C1040E01CF040100C004D00444016105BA
:204E0000260400007D1D0100632C001E9601A01E5A01001F0806101F0606201F0806301F6C
:204E20000806401F0606511F0700591F521F5B1F541F5D1F561F5F1F601F0806701F0E0013
:204E4000BA1FBB1FC81FC91FCA1FCB1FDA1FDB1FF81FF91FEA1FEB1FFA1FFB1F801F0806E8
:204E6000901F0806A01F0806B01F0400B81FB91FB21FBC1FCC1F0100C31FD01F0206E01FB6
:204E80000206E51F0100EC1FF31F0100FC1F4E210100322170211002842101008321D02428
:204EA0001A05302C2F04602C0201672C0601752C0201802C6401002D260841FF1A030000AE
:204EC0005344000055000000E84E0008000000203C00000000020008244F00083C0000206B
:204EE0002C2B00001C0200080095BA0A0000000000000000010203040607080900000000B4
:204F00000000024000040240000402400000000001010000000000000000000000000000C1
:204F200000800008FFFFFFFFFFFFFFFFFFFFFFFFFFFFFFFFFFFFFFFFFFFFFFFFFFFFFFFF05
:204F4000FFFFFFFFFFFFFFFFFFFFFFFFFFFFFFFFFFFFFFFFFFFFFFFFFFFFFFFFFFFFFFFF71
:204F6000FFFFFFFFFFFFFFFFFFFFFFFFFFFFFFFFFFFFFFFFFFFFFFFFFFFFFFFFFFFFFFFF51
:204F8000FFFFFFFFFFFFFFFFFFFFFFFFFFFFFFFFFFFFFFFFFFFFFFFFFFFFFFFFFFFFFFFF31
:204FA000FFFFFFFFFFFFFFFFFFFFFFFFFFFFFFFFFFFFFFFFFFFFFFFFFFFFFFFFFFFFFFFF11
:020000040800F2
:020000040800F2
:208000000000022035A1000885A1000885A1000885A1000885A1000885A10008000000007A
:2080200000000000000000000000000085A1000885A100080000000085A100089301010819
:2080400085A1000885A1000885A1000885A1000885A1000885A100082102010827020108AE
:208060002D020108330201083902010885A1000885A1000885A1000885A1000885A1000860
:2080800085A1000885A1000885A1000885A1000885A1000885A1000885A100083F02010854
:2080A000A9980008E1970008BD98000805980008199800082D98000841980008410403083E
:2080C0004D040308590403086504030885A1000885A100086D0F0108850F01089D0F010835
:2080E000550201086905010809B40008D198000891980008E5980008A598000885A100084A
:2081000085A1000885A100085598000885A10008B90F0108D10F0108699800087D98000800
:2081200085A1000885A1000885A1000885A1000885A10008000000000000000085A100082B
:2081400085A1000885A1000885A10008FDB3000885A1000885A1000885A10008E90F010852
:20816000710403087D04030885A1000885A1000885A1000885A1000885A10008000000000D
:208180000000000085A10008000000000000000085A10008000000000000000085A1000855
:2081A00000000000000000000000000085A1000885A1000885A1000885A1000885A10008D9
:2081C00085A1000881F0004102E000BF83F0004330B54FEA41044FEA430594EA050F08BF2B
:2081E00090EA020F1FBF54EA000C55EA020C7FEA645C7FEA655C00F0E2804FEA5454D4EB3A
:208200005555B8BF6D420CDD2C4480EA020281EA030382EA000083EA010180EA020281EAA2
:208220000303362D88BF30BD11F0004F4FEA01314FF4801C4CEA113102D0404261EB4101AD
:2082400013F0004F4FEA03334CEA133302D0524263EB430394EA050F00F0A780A4F10104A4
:20826000D5F1200E0DDB02FA0EFC22FA05F2801841F1000103FA0EF2801843FA05F35941DA
:208280000EE0A5F120050EF1200E012A03FA0EFC28BF4CF0020C43FA05F3C01851EBE37108
:2082A00001F0004507D54FF0000EDCF1000C7EEB00006EEB0101B1F5801F1BD3B1F5001FCA
:2082C0000CD349085FEA30004FEA3C0C04F101044FEA445212F5800F80F09A80BCF1004F8F
:2082E00008BF5FEA500C50F1000041EB045141EA050130BD5FEA4C0C404141EB0101013CA5
:2083000028BFB1F5801FE9D291F0000F04BF01460020B1FA81F308BF2033A3F10B03B3F13D
:2083200020020CDA0C3208DD02F1140CC2F10C0201FA0CF021FA02F10CE002F11402D8BFAD
:20834000C2F1200C01FA02F120FA0CFCDCBF41EA0C019040E41AA2BF01EB0451294330BD92
:208360006FEA04041F3C1CDA0C340EDC04F11404C4F1200220FA04F001FA02F340EA030012
:2083800021FA04F345EA030130BDC4F10C04C4F1200220FA02F001FA04F340EA0300294675
:2083A00030BD21FA04F0294630BD94F0000F83F4801306BF81F480110134013D4EE77FEAEC
:2083C000645C18BF7FEA655C29D094EA050F08BF90EA020F05D054EA000C04BF1946104668
:2083E00030BD91EA030F1EBF0021002030BD5FEA545C05D14000494128BF41F0004130BD19
:2084000014F580043CBF01F5801130BD01F0004545F0FE4141F470014FF0000030BD7FEA7B
:20842000645C1ABF194610467FEA655C1CBF0B46024650EA013406BF52EA033591EA030F1B
:2084400041F4002130BD00BF90F0000F04BF0021704730B54FF4806404F132044FF0000575
:208460004FF0000150E700BF90F0000F04BF0021704730B54FF4806404F1320410F0004520
:2084800048BF40424FF000013EE700BF42004FEAE2014FEA31014FEA02701FBF12F07F4319
:2084A00093F07F4F81F06051704732F07F4208BF704793F07F4F04BF41F40021704730B52B
:2084C0004FF4607401F0004521F000411CE700BF50EA010208BF704730B54FF000050AE06D
:2084E00050EA010208BF704730B511F0004502D5404261EB41014FF4806404F132045FEA14
:20850000915C3FF4D8AE4FF003025FEADC0C18BF03325FEADC0C18BF033202EBDC02C2F179
:20852000200300FA03FC20FA02F001FA03FE40EA0E0021FA02F11444BDE600BF70B54FF0B3
:20854000FF0C4CF4E06C1CEA11541DBF1CEA135594EA0C0F95EA0C0F00F0DEF82C4481EAFB
:20856000030621EA4C5123EA4C5350EA013518BF52EA033541F4801143F4801338D0A0FBB0
:2085800002CE4FF00005E1FB02E506F00042E0FB03E54FF00006E1FB03569CF0000F18BF1D
:2085A0004EF0010EA4F1FF04B6F5007F64F5407404D25FEA4E0E6D4146EB060642EAC62126
:2085C00041EA55514FEAC52040EA5E504FEACE2EB4F1FD0C88BFBCF5E06F1ED8BEF1004FB6
:2085E00008BF5FEA500E50F1000041EB045170BD06F0004646EA010140EA020081EA030115
:20860000B4EB5C04C2BFD4EB0C0541EA045170BD41F480114FF0000E013C00F3AB8014F1EA
:20862000360FDEBF002001F0004170BDC4F10004203C35DA0C341BDC04F11404C4F1200597
:2086400000FA05F320FA04F001FA05F240EA020001F0004221F0004110EBD37021FA04F624
:2086600042EB06015EEA430E08BF20EAD37070BDC4F10C04C4F1200500FA04F320FA05F04D
:2086800001FA04F240EA020001F0004110EBD37041F100015EEA430E08BF20EAD37070BD40
:2086A000C4F1200500FA05F24EEA020E20FA04F301FA05F243EA020321FA04F001F0004131
:2086C00021FA04F220EA020000EBD3705EEA430E08BF20EAD37070BD94F0000F0FD101F011
:2086E0000046400041EB010111F4801F08BF013CF7D041EA060195F0000F18BF704703F010
:208700000046520043EB030313F4801F08BF013DF7D043EA0603704794EA0C0F0CEA135537
:2087200018BF95EA0C0F0CD050EA410618BF52EA4306D1D181EA030101F000414FF000008D
:2087400070BD50EA410606BF1046194652EA430619D094EA0C0F02D150EA013613D195EA43
:208760000C0F05D152EA03361CBF104619460AD181EA030101F0004141F0FE4141F4700171
:208780004FF0000070BD41F0FE4141F4780170BD70B54FF0FF0C4CF4E06C1CEA11541DBFE0
:2087A0001CEA135594EA0C0F95EA0C0F00F0A7F8A4EB050481EA030E52EA03354FEA013196
:2087C00000F088804FEA03334FF0805545EA131343EA12634FEA022245EA111545EA1065D1
:2087E0004FEA00260EF000419D4208BF964244F1FD0404F5407402D25B084FEA3202B61A06
:2088000065EB03055B084FEA32024FF480104FF4002CB6EB020E75EB030E22BFB61A754660
:2088200040EA0C005B084FEA3202B6EB020E75EB030E22BFB61A754640EA5C005B084FEA82
:208840003202B6EB020E75EB030E22BFB61A754640EA9C005B084FEA3202B6EB020E75EBAF
:20886000030E22BFB61A754640EADC0055EA060E18D04FEA051545EA16754FEA06164FEA9F
:20888000C30343EA52734FEAC2025FEA1C1CC0D111F4801F0BD141EA00014FF000004FF0E7
:2088A000004CB6E711F4801F04BF01430020B4F1FD0C88BFBCF5E06F3FF6AFAEB5EB030CCE
:2088C00004BFB6EB020C5FEA500C50F1000041EB045170BD0EF0004E4EEA113114EB5C046D
:2088E000C2BFD4EB0C0541EA045170BD41F480114FF0000E013C90E645EA060E8DE60CEA08
:20890000135594EA0C0F08BF95EA0C0F3FF43BAF94EA0C0F0AD150EA01347FF434AF95EA20
:208920000C0F7FF425AF104619462CE795EA0C0F06D152EA03353FF4FDAE1046194622E78C
:2089400050EA410618BF52EA43067FF4C5AE50EA41047FF40DAF52EA43057FF4EBAE12E71D
:208960004FF0FF3C06E000BF4FF0010C02E000BF4FF0010C4DF804CD4FEA410C7FEA6C5CD2
:208980004FEA430C18BF7FEA6C5C1BD001B050EA410C0CBF52EA430C91EA030F02BF90EA06
:2089A000020F0020704710F1000F91EA030F58BF994208BF90422CBFD8176FEAE37040F0F1
:2089C000010070474FEA410C7FEA6C5C02D150EA013C07D14FEA430C7FEA6C5CD6D152EA6A
:2089E000033CD3D05DF8040B704700BF8446104662468C461946634600E000BF01B5FFF7CE
:208A0000B7FF002848BF10F1000F01BD4DF808EDFFF7F4FF0CBF012000205DF808FB00BF5D
:208A20004DF808EDFFF7EAFF34BF012000205DF808FB00BF4DF808EDFFF7E0FF94BF01204F
:208A400000205DF808FB00BF4DF808EDFFF7CEFF94BF012000205DF808FB00BF4DF808EDFD
:208A6000FFF7C4FF34BF012000205DF808FB00BF4FEA410C7FEA6C5C02D150EA013C0AD116
:208A80004FEA430C7FEA6C5C02D152EA033C02D14FF0000070474FF0010070474FEA410293
:208AA00012F5001215D211D56FF47873B3EB625212D94FEAC12343F0004343EA505311F0E1
:208AC000004F23FA02F018BF404270474FF00000704750EA013005D111F0004008BF6FF08A
:208AE000004070474FF00000704700BF4A0011D212F5001211D20DD56FF47873B3EB62521F
:208B00000ED44FEAC12343F0004343EA505323FA02F070474FF00000704750EA013002D116
:208B20004FF0FF3070474FF0000070474FEA4102B2F1E04324BFB3F5001CDCF1FE5C0DD924
:208B400001F0004C4FEAC0024CEA5070B2F1004F40EB830008BF20F00100704711F0804FE8
:208B600021D113F13872BCBF01F00040704741F480114FEA5252C2F11802C2F1200C10FA99
:208B80000CF320FA02F018BF40F001004FEAC1234FEAD32303FA0CFC40EA0C0023FA02F329
:208BA0004FEA4303CCE77FEA625307D150EA01331EBF4FF0FE4040F44000704701F0004069
:208BC00040F0FE4040F40000704700BF53B94AB9002908BF00281CBF4FF0FF314FF0FF309E
:208BE00000F00CB8ADF1080C6DE904CE28F0E4FADDF804E0DDE9022304B07047704700BF6C
:208C000010F8012B11F8013B012A28BF9A42F7D0D01A7047034613F8012B002AFBD1181ADD
:208C20000138704700000000000000000000000001F0FF01102A2BDB10F0070F08D010F81D
:208C4000013B013A8B422DD010F0070F42B3F6D1F0B441EA012141EA014122F007047FF017
:208C600000070023F0E80256083C85EA010586EA010685FA47F5A3FA87F586FA47F6A5FA3A
:208C800087F68EB9EED1F0BC01F0FF0102F0070232B110F8013B013A83EA010313B1F8D159
:208CA0000020704701387047002D06BF35460338073815F0010F07D1013015F4807F02BF1F
:208CC000013015F4C03F0130F0BC0138704700BF10B5054C237833B9044B13B10448AFF331
:208CE00000800123237010BD5404002000000000DC51030808B5034B1BB103490348AFF3B0
:208D0000008008BD0000000058040020DC510308F0B5ADB00025274B01951A6C42F08052A1
:208D20001A641B6C03F080530193019B224B02951A6842F440421A601B6803F440430293EE
:208D4000029B01264FF480330224CDE908634FF48003CDE90E430627B423CDE9107308A858
:208D60000723CDE91334129405F0DEFA04F0EEFE0F220323CDE903234FF4A0514FF48053FC
:208D8000CDE9061303A80521059504F01BFF4FF48073159360231C9304231D9315A84FF0A8
:208DA00000631B971E9420962A9304F0EBFF2DB0F0BD00BF0038024000700040B0F86230EE
:208DC000013303F03F03A0F86230B0F86230B0F85E009BB298424FF0FF3018BF002070477D
:208DE000B0F8F430B0F8F000181A00F03F007047B0F8F430B0F8F0209BB293421ABFD0F8B0
:208E0000E830985C4FF0FF30704713B50DF10701044607F0D1FF90B9B4F86030B4F85C2095
:208E2000013303F03F03934209D0B4F86020616D9DF8070092B29BB28854A4F8603002B03A
:208E400010BD0000012370B50374B0F9E230013304460E4600F1940508D190F8F8302BB109
:208E6000002380F8F830284608F00CF8B4F8F2104B1C03F03F03B4F8F62092B29342FAD0D6
:208E8000D4F8EC2028465654A4F8F23007F082FF18B90349284607F0D1FF012070BD00BF4D
:208EA000BD8D0008037C33B1B0F8F220B0F8F6309BB29A42FAD1704700F11103914208BF2B
:208EC0004FF0FF31A0F8E020C0F8E83000F151020023A0F8F430C0E93B23A0F8E210A0F86F
:208EE000F630704770B54FF47A7316460022C0E90123164B03604FF6FF73A0F8E230144B71
:208F0000984204460D4614D1124B9A8AA0F8E2205B8AA0F8E030012E04BF4FF6FF73A4F808
:208F2000E2302046B4F9E020B4F9E210FFF7C4FF70BD0949284607F0EBFA0849A4F8E2001C
:208F4000284607F0E5FAA4F8E000E4E740560308A80600201C550308B0540308D454030859
:208F6000B0F9E230013310B504460ED103685B69984794F8F83043B9012384F8F83004F199
:208F80009400BDE8104007F08DBF10BD02F00703023BDBB2042B2DE9F7430E46C0F8FC10DB
:208FA00098BF1F4980F8F92098BFCC5C02F0300388BF0024302B054626D101344FF4C06716
:208FC00012F0080F14BF4FF400594FF00009082C21D0092C21D013484FF4C17107F0CAFAEB
:208FE00005F1940831463B4622464046CDF8009007F0BAFE2846FFF7B3FF0B49404603B052
:20900000BDE8F04307F0F4BE12F020071CBF01344FF48067D4E70024E2E74FF48054DFE7E7
:2090200030560308CA5503080B8E000810B50446FFF796FFB4F8F420B4F8F03092B29A428E
:209040001FBFD4F8E820D05C013303F03F0314BFA4F8F0304FF0FF3010BD000008B50649F3
:2090600006480022FFF73EFFBDE80840044905480022FFF737BF00BF001001407004002014
:209080000048004070050020836810B504462BB10322014698470023C4E90233204610BD5A
:2090A000836810B5044613B1032201469847204610BD4B1E032B9ABF880004384FF0FF3052
:2090C000704700000139435C2BB1022907D8054B33F811007047032901D8034BF8E74FF066
:2090E000FF307047C6560308CC5603082DE9F04104460F46FFF7DDFF431C054604D13F4878
:2091000040F24D1107F036FA7E1E032E28D83C4B13F8068039462046FFF7D4FF013004D1FF
:20912000364840F2571107F025FA04EB07175837BB683BB123696FEA08021A61DA6842EA7E
:209140000802DA6004EB46039B88013B0B2B4BD8DFE803F01B1B1B1B0E0E1B1B4C4C4C2857
:2091600026484FF4A9714FF0FF3807F003FAD1E7A35D04F1100029461BB1BDE8F04105F0F7
:2091800095BEBDE8F04105F059BEA35D04F1100029461BB1BDE8F04105F072BEBDE8F04189
:2091A00005F02CBE294604F1100005F049FE032E98BF144B256994BF9A574FF0FF321146A0
:2091C0002046FFF77FFF2B6A1843BB6828625BB1013A032A9ABF0A4B9A5C4FF0FF32D3437A
:2091E0002B61EB681343EB60BDE8F081294604F11000BDE8F04105F023BE00BF6056030839
:20920000D4560308D8560308036E10B5044653B150F8103F6FF001021A61DA6842F0010271
:20922000DA6005F00FFB20460121FFF75FFF20460221FFF75BFF20460321FFF757FF204604
:209240000421BDE81040FFF751BF036901399962704700002DE9F0418CB00E46044690469F
:209260001F46FFF726FF411C054604D14B4840F24D2107F07FF9013E04EB4603A3F80480B9
:209280004FF6FF7305932369D5B95B6B069300204FF6FF720123CDE90900CDE90123CDE9BD
:2092A0000300079008900B90B8F10C0F1ED8DFE808F0101016323537404244464E51530096
:2092C000042D01D19B6BE1E7082D0CBFDB6B1B6CDCE705902A4605A904F1100004E010235E
:2092E00005932A4605A9E01805F02AFC7B1C0FD0384606F077FDA8424AD12949384607F05B
:20930000D5F82749384607F015F9C0F30050A0550CB0BDE8F08120230593DBE73023FBE7F1
:2093200060232A4605A904F11000059305F034FCDCE77023F5E75023EEE74023ECE7019089
:209340002A4601A904F1100005F0C0FCCEE702230193F5E70A23FBE704F1100801A901909C
:209360002A46404605F0B2FC032E9ABF0D4B99574FF0FF3104EB41030C225A80204602234D
:20938000CDE90133FFF795FE01A902464046DBE7024840F2B72107F0EDF8B2E76056030896
:2093A000DC520308D8560308013903299ABF00EB410080880020704703691A6819B142F087
:2093C00080021A60704722F08002FAE7F8B504460E461546006907F081FA2A46314602F00B
:2093E00027FD206907F0DCFA0746206907F076FA874206D0206907F0D3FA2A46314602F0F1
:2094000017FDC4E91465F8BD0269D36823F00103D3605830FFF738BE006E003818BF01205B
:2094200070470121103005F01FBA0000264A904203462ED0B0F1804F2DD0A2F57C42904228
:209440002BD002F58062904229D002F58062904227D04FF6FF701D4A934224D01C4A9342AC
:2094600023D01C4A934222D002F57052934220D0194A93421FD0194A93421ED0184A9342CA
:209480001DD0184A93421CD0174A934208BF0D2070470020DFE70120DDE70220DEE7032006
:2094A000DFE70420E4E70520E5E70620E6E70720E7E70820E8E7092070470A2070470B203B
:2094C00070470C20704700BF000001400010004000140040000401400044014000480140FB
:2094E00000180040001C004000200040014670B5044651F8100FFFF799FF0546084607F01C
:209500005BF9094A002342F8253004F15806E36004F1A805B54204D0103D2846FFF7C0FD81
:20952000F8E7204670BD00BF70060020F8B5002303660367C0F88030C0F89030C0F8A03059
:20954000044608460D46FFF771FF4FF6FF739842064603D11E482F2107F00CF81D4A25616B
:2095600004F10C0342F8263000230D2204F11006C4E90C33C4E90E33C4E91033C4E914234C
:2095800084F82C30A36484F84C3084F84D30E460304607F019F804F1580504F1A8072846D5
:2095A0001035FFF771FDBD42F9D100234FF6FF72C4E90033C4E90632C4E90833A3606361EC
:2095C0008023A362304605F06BFA2046F8BD00BF605603087006002030B59FB0142204462E
:2095E000002102A829F0CEF8002501A902A8019504F0AAFB206907F061FA012808D0022813
:2096000021D01B4840F2FF4106F0B4FF2C4603E0059D04F079FB04465C22002107A829F0CB
:20962000B1F807A804F0BAFD9DF87430012B10D125F48065B5F5C05F09D004F05FFB0446A9
:2096400020461FB030BD069D04F06EFBE3E7A400F6E7B5F5C05F05D006D825F48065B5F579
:20966000805FEDD16400EBE7B5F5E05FF9E700BF60560308012A38B505460C4607D0022A16
:2096800012D004B1013C2B69DC62EC6138BDFFF7A3FF0849B0FBF1F044432B69210C99622A
:2096A0000131B4FBF1F4ECE7FFF796FFB0FBF4F4F3E700BF40420F00036970B55C6A9D6A6B
:2096C000012905F1010503D002291CD0204670BDFFF782FF064604FB05F0FEF7B5FE0EA3D7
:2096E000D3E90023FEF72AFF044630460D46FEF7ABFE02460B4620462946FFF749F8FFF721
:20970000F5F90446E2E7FFF767FF6C43B0FBF4F4DCE700BFAFF300800000000080842E4193
:209720002DE9F04180461D461446FFF7C2FCD8F810309E6A431C074606F1010604D12648A6
:2097400040F2F62106F016FF822D34D01ED8102D0BD865B1D8F81030DA6A02FB044201241A
:20976000AC40013CB2FBF4F401E0812D19D0D8F81030DA6A4FF6FF718A4203D1B4F5803FA2
:2097800008BF1446F7B95C63BDE8F081832DEED1D8F81030DA6A02FB04446422B4FBF2F400
:2097A000E5E74046FFF718FF0C4AB0FBF2F04443B4FBF6F4DBE74046FFF70EFF7443B0FB9A
:2097C000F4F4D4E7042F01D19C63DDE7082F0CBFDC631C64D8E700BF6056030840420F008D
:2097E00010B5074C206810B1043005F051F8606A20B1BDE81040043005F04AB810BD00BF4F
:2098000070060020034B186810B1043005F040B8704700BF70060020034B586810B10430F3
:2098200005F036B8704700BF70060020034B986810B1043005F02CB8704700BF7006002011
:20984000034BD86810B1043005F022B8704700BF70060020034B186910B1043005F018B821
:20986000704700BF70060020034B586910B1043005F00EB8704700BF70060020034B9869C2
:2098800010B1043005F004B8704700BF70060020034BD86910B1043004F0FABF704700BF6F
:2098A00070060020FFF7F4BF034B186A10B1043004F0EEBF704700BF70060020034B986AA7
:2098C00010B1043004F0E4BF704700BF70060020034BD86A10B1043004F0DABF704700BF68
:2098E00070060020034B586B10B1043004F0D0BF704700BF7006002038B5002383608B6857
:2099000004460D462BB102229847EB68E360AB68A360204638BD30B587B002AD0446284641
:20992000FFF7EAFF95E803006B4683E8030094E8030085E8030093E80300049BA268A36090
:20994000059B049284E80300E268E36028460592FFF7A6FB204607B030BD38B504460D46A5
:20996000236E583013B1FFF7D6FF38BDFFF7D3FFAB68002BF9D023696FF001021A61DA68D0
:2099800042F00102DA60F0E7826810B50AB927F075FDBDE81040C3681847000010B50446F8
:2099A00020B9074840F2264106F0E4FD204606F009FE0068036E13B15830FFF7E5FF10BDE0
:2099C00060560308FFF7EABF38B5054620B9114840F2394106F0CEFD2B7F013B072B11D84F
:2099E000DFE803F015041011101010130224284606F0E8FD240100685834204483680BB19D
:209A0000FFF7C2FF38BD0324F1E70424EFE70124EDE700BF60560308FFF7D6BFFFF7D4BF10
:209A2000F8B505460E4617460024BC4207D02B68315D1B682846984708B10134F5E7204663
:209A4000F8BD13B50446084659B10191FFF7E2F8236801995B680246204602B0BDE8104048
:209A6000184702B010BD08B5FFF7EBFF08BD03681B68184708B50249FFF7E3FF08BD00BFF5
:209A8000DC56030838B50546FFF7DBFF04462846FFF7F0FF204438BD30B58BB000238DF8C3
:209AA0002430012A98BF0A2209AC0D46B1FBF2F101FB125303F0FF03092B94BF3033373363
:209AC000DBB2AA4204F8013DEFD92146FFF7B9FF0BB030BD2DE9F04107460E4614462AB929
:209AE0000368BDE8F0411B68C9B218470A2A0DD100290CDA2D21FFF7BAFF22460546714244
:209B00003846FFF7C9FF2844BDE8F081D2B2BDE8F041FFF7C1BFFFF7DDBF38B50546FFF7F7
:209B2000D9FF04462846FFF7A5FF204438BD38B50546FFF7CFFF04462846FFF79BFF2044FA
:209B400038BD10B42AB902685DF8044B1268C9B210475DF8044BD2B2FFF79EBFFFF7F1BFEE
:209B600038B50546FFF7EDFF04462846FFF782FF204438BD2DE9F84F55EC104B06460F46A9
:209B800010EE102A10EE100A2B462946FEF770FF38B14B493046FFF754FF82465046BDE8F2
:209BA000F88F25F00049474B4FF0FF3220464946FEF75EFF48B9434B4FF0FF322046494683
:209BC000FEF738FF08B94049E4E7404B4FF0604220462946FEF742FF08B13D49DAE73D4B45
:209BE0004FF0604220462946FEF71AFF0028F4D10022002320462946FEF712FFD0B12D21C5
:209C00003046FFF734FF05F1004382461D463249DFF8CC904FF0000B00204FF000085FFA89
:209C20008BF39F4208D942464B46FEF7B1FD0BF1010BF4E78246EAE722462B46FEF7C8FA1C
:209C40000D460446FEF752FF8046FEF7FDFB02460B4620462946FEF7B9FA0A2204460D468F
:209C600030464146FFF718FF824427B11B493046FFF7E7FE8244DFF868904FF00008013F6B
:209C8000FFB2FF2F8AD04B46424620462946FEF755FC0D460446FEF701FF0A220146834689
:209CA0003046FFF717FF82445846FEF7DDFB02460B4620462946FEF789FA04460D46DEE7A9
:209CC000DF560308FFFFEF7FE3560308FFFFEF41E7560308FFFFEFC10000E03F407703088F
:209CE00000002440C9B2FFF745BF10B5044601F0D5FDE06023682046DB689847002808DA5C
:209D000001F0CCFDE368C01AA3689842F2D34FF0FF3010BDF8B506460D4617460024BC42B4
:209D200007D03046FFF7E1FF031E02DB2B550134F5E72046F8BD2DE9F04107468846164698
:209D40001D4673B100243846FFF7CFFF031E05DB434503D033550134A542F4D12046BDE846
:209D6000F0811C46FAE703681847012A03D0022A03D0002070470160FBE70B680360F8E799
:209D800007B503688DF807105B6801220DF10701984703B05DF804FB014800F0FAB900BF83
:209DA000042200202DE9F041DFF83C800E4614461746AFB100F0EAFD90B1404600F0E9F9A8
:209DC000B84228BF384605460028F2D002463146404600F0FFF97F1B2E4400F0F3FDE8E707
:209DE000E01BBDE8F08100BF04220020014800F096BA00BF5025002010B5044800F0B7FABE
:209E0000044600F015FE204610BD00BF502500202DE9F84306460F46154694B201F03EFDAF
:209E2000DFF83490F06022463946484600F0FCFA8046A4EB0804A4B200F0FAFD47443CB1C6
:209E400001F02CFDF368C01AB3689842EBD32D1B2846BDE8F88300BF502500202DE9F04F81
:209E600085B00646884617461C469DB201F016FDDFF84CA0F0600DF10E093A462B464146E1
:209E8000CDF80090504600F017FB834600F0D0FDBDF80E20AD1AADB21744BBF1000F04D05C
:209EA000641B204605B0BDE8F08F002DF9D001F0F5FCF368C01AB3689842DED3F0E700BF9B
:209EC00050250020014800F089BA00BF5025002010B5034C204600F06CF90028FADC10BD83
:209EE0000422002000F02EBD044B10B51C680A2001F0D8FC631E5842584110BDBC06002057
:209F0000044B4FF47A720021C3E90112024A1A60704700BFA8060020F456030810B5029C21
:209F2000401AE41A4443511A94FBF1F4E01810BD08B50C4B2BB10C48FEF752FF08B1AFF3B9
:209F400000800A4B2BB10A48FEF74AFF08B1AFF30080084B2BB10848FFF748FF08B1AFF3CE
:209F6000008008BD0000000070040020000000007005002000000000A80600202DE9F04F50
:209F800057EC106BA5B004468846154610EE100A002200233946FEF743FD00286DD007F1CD
:209FA00000431F464FF0010A3F494FF000090020C84564DC02460B4630463946FEF708F9EE
:209FC0000F460646FEF792FD8146FEF73DFA02460B4630463946FEF7F9F80F4633490646D8
:209FE0004FF0000B0020D84550DC32463B46FEF7A5FAFEF753FD434600904A46BAF1000F79
:020000040800F2
:20A000004BD02B490026284628F0CAFC31467D2204A8039628F0B6FBB4422846BCBF644296
:20A020000126FEF7F7FDA04223D28022202103A828F0A8FB2846FEF7EDFD24AB241A1C4436
:20A04000002304F8843C56BB2846FEF7E3FD013028F052FB2946044628F0FAFC03A9284656
:20A0600028F0F6FC2146284628F0D6FC204628F04BFB284625B0BDE8F08F824694E70D4B51
:20A080000022FEF785FB09F1010991E7094B0022FEF754FA0BF1010BA5E70749B2E703A9CB
:20A0A000284628F0B9FCE4E70000E03F0000F03F18570308000024401957030806F08EB8B7
:20A0C000704708B5032001F0A1FEBDE80840FFF7F5BF08B5AFF3008007F03EFD07F0F6FCC8
:20A0E000FFF726FFFAE728F007BB28F00DBB0000062803D9562808D8034601E000F15003D4
:20A100000B4A32F913305A1C09D15A2809D05B280AD0582840F2011318BF4FF0FF33184608
:20A1200070474FF48173FAE740F20313F7E700BF1C550308DFF834D0002103E00C4B5B5806
:20A14000435004310B480C4B42189A42F6D30B4A02E0002342F8043B094B9A42F9D306F0C9
:20A160000BFA28F0A5FAFFF7B4FF704700000220188F0308000000205404002054040020DF
:20A18000342B0020FEE70023A0F88230A0F880307047B0F88230B0F880009BB280B2181ABC
:20A1A0007F30434203F07F0300F07F0058BF58427047B0F88030B0F882009BB282B203F128
:20A1C0008000801A434203F07F0300F07F0058BF58427047F8B5B0F88050ADB2C5F18005D5
:20A1E000954204460F46B0F8800016460CD914FA80F028F09FFAB4F8803016FA83F202F07E
:20A200007F02A4F88020F8BD2A4614FA80F028F091FA721B79192046EBE7B0F88020B0F8F4
:20A22000823092B29BB29A422BBFB0F88030B0F88230B0F88220C3F1800328BF9B1A9BB2F9
:20A240000B80A0F88430B0F8823010FA83F07047B0F88220B0F88430134403F07F03A0F88F
:20A26000823070470023A0F8C230A0F8C030C023A0F8C4307047B0F8C23082B09BB2ADF85C
:20A280000630B0F8C020BDF8063092B29BB29A42B0F8C0309BB21FD37F2B08D9B0F8C030AE
:20A2A0009BB2802B09D1BDF806309BB22BB1B0F8C03010FA83F002B07047BDF806309BB202
:20A2C000402B4FF000030DD9B0F8C02092B2A0F8C420A0F8C030EAE7BDF80620403392B2B8
:20A2E0009342E4D30020E6E7B0F8C03011FA83F189B2A0F8C010B0F8C020B0F8C43092B2C3
:20A300009BB29A4224BFC023A0F8C430B0F8C0309BB2BF2B84BF0023A0F8C0307047B0F8A6
:20A32000C03082B09BB2ADF80430B0F8C4309BB2ADF80630B0F8C220BDF8043092B29BB20D
:20A340009A4208D8BDF80430B0F8C2009BB280B2181A02B07047BDF80630BDF80410B0F878
:20A36000C22089B292B211FA83F0801AF1E7B0F8C03082B09BB2ADF80430B0F8C4309BB2B3
:20A38000ADF80630B0F8C220BDF8063092B29BB29A4204BF0023A0F8C230B0F8C220BDF851
:20A3A000043092B29BB29A4215D0B0F8C2309BB25A1C92B2A0F8C220B0F8C210BDF80620A7
:20A3C000C35C92B289B2914224BF0022A0F8C220184602B070474FF0FF30FAE7B0F8C030DF
:20A3E00082B09BB2ADF80430B0F8C4309BB2ADF80630B0F8C220BDF8063092B29BB29A425F
:20A4000024BF0023A0F8C230B0F8C220BDF8043092B29BB29A421BBFB0F8C2309BB24FF0CC
:20A42000FF30C05C02B0704737B504460846B4F8C0309BB2ADF80430B4F8C4309BB2ADF890
:20A440000630B4F8C210BDF8063089B29BB2994224BF0023A4F8C230B4F8C210BDF80430FF
:20A4600089B29BB2994294BFBDF80430BDF80630B4F8C250B4F8C2105B1B9DB2954228BF93
:20A4800015462A4614FA81F128F054F9B4F8C23015FA83F39BB2A4F8C230B4F8C220BDF8CB
:20A4A000063092B29BB29A4228BF0023284628BFA4F8C23003B030BDF7B5B0F8C040089D73
:20A4C000A4B2ADF80440B0F8C440A4B2ADF80640B0F8C260BDF80640B6B2A4B2A64224BF02
:20A4E0000024A0F8C240B0F8C260BDF80440B6B2A4B2A64294BFBDF80440BDF80640B0F846
:20A50000C260B0F8C270A41BA4B2A34228BF234610FA87F70024A6B2B34215D82B80B0F8BC
:20A52000C22013FA82F39BB2A0F8C230B0F8C220BDF8063092B29BB29A424FF0000328BFD5
:20A54000A0F8C230184618E017F804C08C4516D1B0F8C2309BB2013333449BB2A0F8C23027
:20A56000B0F8C220BDF8063092B29BB29A4224BF0023A0F8C2302E80012003B0F0BD02F840
:20A5800004C00134C7E7D0F8BC3210B56BB1D0F8B84294F80002FF2807D09B6894F801227D
:20A5A00021469847FF2384F80032002010BD0000432303800048704738000020432303806F
:20A5C000004870477C0000204323038000487047CC0000200A23038000487047C00000207D
:20A5E00038B50446D0F8B85200F0B8FFD4F8B832C5F80C024BB1D4F8BC32D5F80402DB685E
:20A6000005F503719847002038BD0220FCE7D0F8B822F8B505460AB3142707FB0107FB69D3
:20A6200093B1D0F8C0424FF01C0C0CFB0146766CB3FBF6F406FB143434B9FC612346224679
:20A6400000F07EFF2046F8BDD5F8BC3218690024C2F814420028F6D08047F3E70220F2E778
:20A660002DE9F7430A78D0F8B8724FF0000812F0600405460E468DF80580ADF8068028D09D
:20A68000202C42D1CC884B78E4B1120611D5D0F8BC223946D2F8089018462246C847F288DB
:20A6A0003946284600F061FD4446204603B0BDE8F08387F8003287F801422246394600F05A
:20A6C00069FDF1E7D0F8BC22184695682246A847EBE74B780A2B0CD00B2B12D0ABB990F83A
:20A6E0009C32032B11D102220DF1060100F03DFDDBE790F89C32032B07D101220DF10501E4
:20A70000F4E790F89C32032BCFD03146284600F005FD0224C9E738B504460025822100F09F
:20A72000E0FE01212564204600F0DBFEC4F86C518321204600F0D5FED4F8B83265654BB19F
:20A74000D4F8BC325B689847D4F8B80227F0DCFFC4F8B852002038BD2DE9F041037C04463A
:20A76000BBBB4FF4007302228221012500F0AFFE25644FF4007329460222204600F0A7FE56
:20A780000127C4F86C51082303228321204600F09EFE67654FF4077027F0AEFF0546C4F8E1
:20A7A000B80240B3D4F8BC321B689847267C4FF00008C5F81482C5F818829EB9D5F80422F3
:20A7C0004FF400733946204600F0C1FE3046BDE8F081402302228221012500F078FE256464
:20A7E0004023C8E7D5F8042240233946204600F0AEFE4646EAE73E46E8E719B1C0F8BC1270
:20A800000020704702207047D0F8B8320020C3F80812C3F810227047D0F8B8320020C3F8B0
:20A8200004127047D0F8B82210B582B1D2F81442012374B9C2F81432D2F810324364D2F8C3
:20A8400008229BB2822100F07BFE204610BD0220FCE71846FAE7D0F8B82210B582B1047CE4
:20A86000D2F8042234B94FF40073012100F06FFE204610BD4023012100F069FE0024F7E7B5
:20A880000224F5E708B5D0F8B83233B100231A46012100F05CFE002008BD0220FCE700206A
:20A8A0007047000008B50948FFF76DFC0848FFF7D9FC084B064801221A70FFF7DCFC0146F6
:20A8C0000548FFF7A9FF002008BD00BF04220020502500202C0100208C22002021280ED0CC
:20A8E00022281DD0202808D1134B0A681A600A791A714A795A718A799A71002070470E4BDC
:20A900001A680A701A68120A4A705A888A70DA78CA701A790A715A794A719B798B71ECE7FC
:20A920004B88064A03F0010313601368002BE4D0034B00221A60E0E724010020BC06002058
:20A94000C006002010B50C4C22789AB90B490C4800F0A0F870B90B49094800F0B0F848B970
:20A9600009490748FFF749FF20B9054800F0AEF80123237010BD00BFB806002044010020B6
:20A980008C22002000000020100100200A4B10B51C6814B100F0E0FF041B084B93F89C329B
:20A9A000032B07D1022C05D8054B1868003818BF012010BD0020FCE7C00600208C22002002
:20A9C000BC0600201FB50F4CD4F8B832D3F81432ABB90D480DF10E01FFF71FFCBDF80E30D5
:20A9E0006BB1019000F0B8FF084BBDF80E20186001992046FFF708FF2046FFF713FF04B036
:20AA000010BD00BF8C22002004220020C006002010B5054B054800241C60FFF719FCFFF7AD
:20AA2000D1FF204610BD00BFC00600200422002038B50A4D2B780BB1002038BD0848FFF72A
:20AA40001AFC01460028F7D0012406482C70FFF7E3FE0448FFF7FFFE2046EEE72C010020FD
:20AA6000502500208C22002008B509880648FFF73BFC064B00221A70FFF7DAFF10B90448C9
:20AA8000FFF700FF002008BD502500202C0100208C22002008B580B1D0F8B43213B10023A9
:20AAA000C0F8B43209B1C0F8B012012380F89C32027000F0C7FC002008BD0220FCE719B181
:20AAC000C0F8B412002070470220704708B500F0F7FC002008BD08B5D0F8B4320BB9022072
:20AAE00008BD1B6898470028FAD0F8E708B5D0F8B4325B689847002008BD38B5044600F540
:20AB00002A75284600F0F6FA012394F8A812C4F89432B4F8AE32C4F8983201F01F03012B0B
:20AB200008D0022B0BD07BB92946204600F00CF9002038BD2946204600F030FAF8E72946E5
:20AB4000204600F04FFAF3E701F08001204600F0CFFCEDE770B5044616460D4639BBD0F83B
:20AB60009432032B1CD1D0E9581291420BD9891A8A42C0F860118CBF8AB292B2314600F050
:20AB800016FB284670BDD0F8B4321B6923B190F89C22032A00D19847204600F010FBF0E7A8
:20ABA000052BEED1C4F8941200F0A2FCE9E7D0F8B4329B6933B190F89C22032A02D198472B
:20ABC0000025DEE70225DCE7F8B5044617460D46002947D1D0F89432022B3CD1D0E90863CD
:20ABE0009E4214D9F31A03629AB2394600F0CAFA2B462A462946204600F0A9FC94F8A032EE
:20AC0000012B02D1002384F8A0322846F8BDC269B2FBF3F603FB16265EB9934209D8D0F811
:20AC200098329A4205D20A4600F0ACFAC4F89852DEE794F89C32032B09D1D4F8B432DB68EF
:20AC40000BB1204698478021204600F051FC204600F0C0FAD2E733F00403CFD1802100F08B
:20AC600047FCCBE7D0F8B4325B6933B190F89C22032A02D198470025C7E70225C5E770B599
:20AC800000220446114601254026402300F01FFC33468021C4F85851C4F86461002220466F
:20ACA00000F015FCD4F8B832A5610021666284F89C52C4F894126160C4F8A41223B1D4F84F
:20ACC000B43220465B689847002070BD01740020704790F89C3280F89D32042380F89C32E3
:20ACE0000020704790F89C32042B04BF90F89D3280F89C320020704708B590F89C22032A91
:20AD000004D1D0F8B432DB6903B19847002008BD00207047002070470020704708B501228F
:20AD200080F89C22D0F8B422017952689047002008BD10B58021044600F0DAFB2046002153
:20AD4000BDE8104000F0D4BB37B50B7803F06003202B04460D4612D0402B10D0002B51D158
:20AD60004B78092B4ED8DFE813F0EE000A014D0003014D00870013004D00D600A300D4F829
:20AD8000B43229469B6820469847002003B030BD0023ADF806304B881A0A013A062A31D8ED
:20ADA000DFE802F00416233030485200D0F8B0321B68207C0DF106019847BDF80620002AF1
:20ADC00056D0EB88002B4AD1204600F0F8F9DCE7027CD0F8B43232B99B6A0DF1060098478B
:20ADE00002234370E9E7DB6AF7E7DBB2052B09D8DFE803F0030C1014181CD0F8B0325B685C
:20AE0000002BD6D12046FFF794FFBEE7D0F8B0329B68F5E7D0F8B032DB68F1E7D0F8B032D4
:20AE20001B69EDE7D0F8B0325B69E9E7D0F8B0329B69E5E7037C002BE4D1D0F8B4320DF1F7
:20AE400006005B6B9847B8E7037C002BDAD1D0F8B4320DF106001B6B98470723C1E79A428E
:20AE600028BF1A4601462046ADF8062000F07DF9EB88002B89D1A7E78B88002BC2D1CB8803
:20AE8000002BBFD14D887F2DBCD890F89C32032BB8D0E9B280F89E1200F04BFB204600F087
:20AEA0008EF91DB1022384F89C326EE70123FAE78978394D01292970A4D890F89C32022B2B
:20AEC00008D0032B15D0FFF734FF29782046FFF70DFE5AE700293FF477AF012103234160AA
:20AEE00080F89C322046FFF7F6FD02287FF46CAF88E731B9022380F89C324160FFF7F6FDB7
:20AF000062E7416801293FF45FAFC9B2FFF7EEFD29786160E6E7CA88012A7FF473AF90F8AF
:20AF20009C32022B0AD8002B3FF46CAF0146002341F8083F204600F018F926E7032B7FF4BC
:20AF400061AF011DF6E790F89C32013B022B3FF659AFCB88022B7FF455AF0123C360D0F8E4
:20AF6000A4320BB10323C360022204F10C01E1E74B88012B7FF409AFC4F8A43224E790F8B9
:20AF80009C32013B022B3FF63DAF4B88012B7FF4FCAE0023F0E700BFC406002038B50B782A
:20AFA00003F06002402A04460D4601D05B0615D494F89C32013B022B10D82B79022B0DD8B9
:20AFC000D4F8B43229469B6820469847EB881BB910B9204600F0F3F8002038BD2046FFF746
:20AFE000A8FEF9E738B50A7802F06002202A04460B4627D0402A25D092BB5A788D88097917
:20B00000012A3DD0032A25D052BB90F89C32022B4DD0032B24D101F00F03142215F0800F39
:20B0200002FB030352D09B69D3B101F07F05142305FB0333C51811F07F0353D12B6002224E
:20B0400029463FE0D4F8B4221946926820469047002038BD90F89C22022A1FD0032A03D0B4
:20B060002046FFF766FEF3E75A882AB94A0603D0DB880BB900F03CFA204600F0A0F8E7E745
:20B0800090F89C22022A09D0032AE9D15B88002BDED14D06F0D000F032FAEDE74B06DFD0BE
:20B0A00000F026FA8021204600F022FAD0E74A06D6D12B064CBF00F1140100F5AA7100234A
:20B0C0000B600222204600F050F8C1E7D3F85831002BC5D001F07F05142303FB050505F5D9
:20B0E000AA75A8E7204600F011FA08B10123A5E72860A4E70B7803704B784370CA788B7814
:20B1000003EB022343804A790B7903EB02238380CA798B7903EB0223C380704710B5802142
:20B12000044600F0E5F920460021BDE8104000F0DFB930B588B1002501382B460135445D2F
:20B14000002CFAD1DBB201335B0013800B7003234B70022310F8015F05B930BD5A1CD2B2BB
:20B16000CD5402338C54DBB2F4E710B502241346C0E90722C0F894420A46002100F0E0F953
:20B18000002010BD08B513460A46002100F0D8F9002008BD10B503241346C0E95722C0F876
:20B1A00094420A46002100F0D2F9002010BD08B513460A46002100F0CAF9002008BD08B5C4
:20B1C0000423C0F8943200231A46194600F0B8F9002008BD08B50523C0F8943200231A467C
:20B1E000194600F0B4F9002008BD000030B50368B3F1A04F85B004463BD1434D03E0A9687C
:20B2000005F0BCF80C35B5F90000421CF7D13F4B5A6B42F080025A6300220192596C41F401
:20B22000804159645B6C03F48043012101934320019B00F0FDFD432000F02CFE216A01293E
:20B240004FF0000215D1324B4FF480205861D86820F48020D860986840F480209860186836
:20B2600040F4802018602A2000F0E2FD2A2000F011FE2268274B9A4244D1274D03E0A968CB
:20B2800005F07CF80C35B5F90000431CF7D11F4B002502951A6B42F080421A631A6B02F09C
:20B2A00080420292029A03951A6B42F000521A631B6B03F00053012103932A464D20039B7F
:20B2C00000F0B6FD4D2000F0E5FD216A012919D10F4B4FF480125A61DA6822F48012DA60DF
:20B2E0009A6842F480129A601A6842F480121A604C202A4600F09CFD4C2005B0BDE830402B
:20B3000000F0C8BD05B030BDF854030800380240003C014000000440A454030800F57171AA
:20B32000D0F80404FFF7E9BB1C2303FB0103D0F80404D3F80822FFF70DBC1C2303FB01039D
:20B34000D0F804049A6CFFF73FBCD0F80404FFF7D3BC13B5C168003918BF01210446D0F89C
:20B3600004040191FFF78BFC0199D4F8040402B0BDE81040FFF7AABC10B50446D0F8040466
:20B38000FFF7A7FC2268D2F8003E43F00103C2F8003E236A23B1034A136943F00603136179
:20B3A00010BD00BF00ED00E0036A10B5044633B1FDF7AEFC084A136923F00603136122684E
:20B3C000D4F80404D2F8003E23F00103BDE81040C2F8003EFFF786BC00ED00E0D0F80404B8
:20B3E000FFF798BCD0F80404FFF792BCD0F80404FFF792BCD0F80404FFF790BC014801F08F
:20B4000059BF00BF1826002010B50B4C236A6BB10A4A136923F006031361FDF779FC2268DF
:20B42000D2F8003E23F00103C2F8003E044B4FF480225A6110BD00BF1826002000ED00E04F
:20B44000003C014070B5044600F00AF91948042343600023C0E90933C0E9073343614FF014
:20B46000A04203630361C3624363C0F804440223C4F8C00202608361C36001F070FE20B119
:20B480000D4840F2FD1105F075F80C4C0948A188084E02F042FB0125A28954F8081F304624
:20B4A00001F00F01013502F018FB052DF4D1002070BD00BF18260020235703081C580308EB
:20B4C00008B5D0F8C00201F0D5FE002008BD10B51446D0F8C0021A46234602F0DDF9002022
:20B4E00010BD08B5D0F8C00202F00EFA002008BD08B5D0F8C00202F082FA002008BD08B502
:20B50000D0F8C00202F0B3FA002008BD11F0800FD0F8C0324FF01C021BBF01F07F0102FB2E
:20B52000013102FB013191F83E0008BF91F8FE01704708B5D0F8C00202F09AF9002008BD2C
:20B5400008B5D0F8C00202F03AFA002008BD08B5D0F8C00202F007FA002008BDD0F8C002F0
:20B5600002F025BA122301480B80704730010020042301480B80704760010020002370B56E
:20B580004D1C1E46040FB0F1204F34BF3034373401F8134005F813600133DCB294424FEA6C
:20B5A0000010EFD370BD00001A2310B50B80094B186808331B68C0180AD0074B07491C6895
:20B5C0000822FFF7DBFF064904222046FFF7D6FF044810BD107AFF1F147AFF1F66010020D7
:20B5E000760100206401002010B5044C04480A462146FFF79EFD204610BD00BF202A00202A
:20B600008C5703080A4608B5044920B90448FFF790FD024808BD0348F9E700BF202A0020D7
:20B620009F570308BF57030810B5044C04480A462146FFF77EFD204610BD00BF202A002003
:20B64000DF57030810B5044C04480A462146FFF770FD204610BD00BF202A0020FB57030875
:20B6600008B54FF0A04004F0B3FA0A2000F01AF9BDE808404FF0A04004F09EBAFFF762B9B7
:20B6800091420FD008D9891A01238B40984208D30130C8400138704720B10130511A884072
:20B6A000F8E700207047000010B5FEF721FD431C0AD0064C216804F019FC054B21681A6884
:20B6C000BDE81040FFF7DCBF002010BD800100208801002056282DE9F04104460F4641D830
:20B6E000214B33F910506A1C3CD02049DFF88C80284604F034FE064600B3C5F303111C4AAF
:20B7000052F8210005F00F0420FA04F3DB075FBF0123A340034342F82130164BD8F800108C
:20B720001C6838462246FFF7ABFF13490246E3B228460968BDE8F04104F088BC2046012151
:20B7400000F01EF8D8F8001038460822FFF798FF7F2898BF3146204688BF0121BDE8F041B4
:20B7600000F05CB8BDE8F0811C550308DC520308C8060020840100208C0100209001002009
:20B7800056282DE9F0410E463DD8204B33F91040621C38D01E4DC4F3031704F00F0855F87A
:20B7A000273023FA08F3DB0710D51A49204604F0D6FD10B1204604F09BFC012303FA08F2F6
:20B7C00055F8273023EA020345F82730052E14D8DFE806F0030F090B0D1100212046BDE8D3
:20B7E000F04104F0CBBD1021F8E72021F6E70321F4E70121F2E70921F0E7BDE8F04106484F
:20B80000492104F0B7BEBDE8F08100BF1C550308C8060020DC52030844580308562811D8CF
:20B820000B4B33F910301A060ED40A4AC3F3031052F82020084803F00F0350F8233029B1D3
:20B84000936170474FF0FF330022F3E71B04F7E71C5503089C01002024590308562814D8A8
:20B860000B4B33F910301A060FD4C3F30311094A03F00F0352F821200749126951F82330EF
:20B8800093430CBF01200020704700231B69FFDE1C5503089C0100202459030804F076BCA4
:20B8A00004F056BC38B5044648B104F06FFC0546FEF706FC04F06AFC431BA342F8D338BD54
:20B8C0007047000038B50E4A0E4B054618784FF47A73B3FBF0F31068B0FBF3F000F0FCFA8B
:20B8E000044658B90F2D09D8024629464FF0FF3000F09EFA044B20461D6038BD0120FCE7F8
:20B90000C0010020940100209801002008B50B4B1A6842F400721A601A6842F480621A600D
:20B920001A6842F480721A60032000F06FFA0020FFF7C8FFFFF7C4FF002008BD003C02406E
:20B94000034A044B11681B780B441360704700BF202B002094010020014B1868704700BFA5
:20B96000202B002038B50446FFF7F6FF631C1CBF054B1B78054618BFE418FFF7EDFF431B9F
:20B98000A342FAD338BD00BF9401002038B50446002800F09B80056C25B904F033FA6564E9
:20B9A00084F83C50236CDB0600F18E80236C23F4885323F0020343F002032364444B5A6867
:20B9C00022F440325A605A6861680A435A60236821695A6822F480725A605A6842EA0122E9
:20B9E0005A605A68A16822F040725A605A680A435A609A68E16822F400629A609A680A436F
:20BA00009A603449A26A8A4252D0996821F07061996099680A439A609A68E16A22F04052A0
:20BA20009A609A680A439A609A6822F002029A609A68217E42EA41029A6094F82020002AB1
:20BA40003ED05A68616A42F400625A605A6822F460425A605A68013942EA41325A60DA6A2C
:20BA6000E16922F47002DA62DA6A013942EA0152DA629A6822F400729A609A6894F830102D
:20BA800042EA41229A609A68616922F480629A609A68002042EA81229A606064236C23F00E
:20BAA000030343F001032364002384F83C3038BD9A6822F070629A609A6822F04052B2E7A3
:20BAC0005A6822F40062C9E70120EDE70120EEE7002301400100000F38B50446A0B1036C26
:20BAE00043F00203036403689A6822F001029A609D6815F0010503D104F0CCF9656425643C
:20BB0000002084F83C0038BD0120FCE782B00023019390F83C30012B60D0012380F83C3013
:20BB200003689A68D20705D59A68D10714D4002002B070479A682A4942F001029A60294A83
:20BB40001268B2FBF1F202EB42020192019A002AEAD0019A013AF8E7026C22F4E06222F00B
:20BB6000010242F4807202645A68520541BF026C22F4405242F480520264026C12F4805251
:20BB80001CBF426C22F006024264002280F83C206FF022021A60144A516811F01F0F1349C7
:20BBA00019D18B4207D001F580718B420CD1526812F01F0FBBD1986810F04050B7D19A68D6
:20BBC00042F080429A60B3E709498B42AFD1526812F0100FEEE78B42A9D1ECE70220A7E7C4
:20BBE00040420F00C001002000230140002001400022014090F83C30012B14D003689A683A
:20BC000022F001029A609B68DB0707D4036C23F4885323F0010343F001030364002380F8A4
:20BC20003C30184670470220704703689A68520570B504460D460BD59B68DE0508D5036C12
:20BC400043F020030364002380F83C30012070BDFFF782FE064623681A6891070CD56FF02B
:20BC600012021A60226C42F4007222649A6812F0405F13D00020EAE7681CEDD045B9236C35
:20BC800043F004032364002384F83C300320DEE7FFF762FE801BA842DDD9F0E7207E0028C2
:20BCA000E8D1DA6A12F4700F02D09B685A05E1D4236C23F480732364236CDB04DAD4236C4E
:20BCC00043F001032364C2E70368D86C70470000F7B50023019390F83C30012B69D00123B7
:20BCE00080F83C300D6803688E68092DACB234D904EB4402DF681E3A4FF0070C0CFA02FCBF
:20BD000027EA0C07DF60DF6806FA02F23A43DA604968062901EB81022FD8596B053A1F2630
:20BD2000964021EA06015963596B04FA02F20A435A63304A93420AD1122D3CD12E4B5A68EE
:20BD400022F400025A605A6842F480025A60002380F83C30184603B0F0BD1F6905EB450259
:20BD60004FF0070C0CFA02FC27EA0C071F611F6906FA02F23A431A61CAE70C294FF01F0110
:20BD80000BD81E6B233A914026EA01011963196B04FA02F20A431A63CBE7DE6A413A9140F5
:20BDA00026EA0101D962D96A04FA02F20A43DA62BFE70220CFE7114B9D4201D0112DC6D119
:20BDC0000D4B5A6822F480025A605A6842F400025A600A4B9D42BAD1094B0A4A1B68B3FBAB
:20BDE000F2F20A2353430193019B002BAFD0019B013BF8E700200140002301401200001024
:20BE0000C001002040420F00006C70470749CA6822F4E0620302120403F4E063120C1343EA
:20BE200043F0BF6343F40033CB60704700ED00E0164B30B5DC68C4F30224C4F10705231D2C
:20BE4000042D28BF0425062B4FF0FF338CBF033C002403FA05F521EA0501A34022EA030255
:20BE6000A140002841EA0203ACBF00F16040084A4FEA0313B8BF00F00F00DBB2AABF00F58B
:20BE80006140135480F8003330BD00BF00ED00E014ED00E0002808DB4209012300F01F000C
:20BEA00003FA00F0014B43F82200704700E100E000280DDB4309012200F01F0002FA00F0FA
:20BEC0002033044A42F82300BFF34F8FBFF36F8F704700BF00E100E00138B0F1807F0AD238
:20BEE000064B074A5860F02182F823100020072298601A6070470120704700BF10E000E051
:20BF000000ED00E0002809DB4309012200F01F0002FA00F06033024A42F82300704700BF2C
:20BF200000E100E008B505F0EDF808BD90F83530022B03D080234365012070470268052342
:20BF400080F83530136823F0010313600020704790F8350070470000044A5169014208B5AC
:20BF600002D0506104F046F908BD00BF003C0140036D83B9C36C0268012B836C05D1DBB247
:20BF80001361036D023303657047C3F307231361036D0133F7E7036D012B03D1836C0268CA
:20BFA000DBB2F4E7036D022B17D190F83D30222B05D10268136843F480731360704790F8BB
:20BFC0003D30212B09D1436A026813F8011B11614362438D013B9BB2438570472DE9F8464D
:20BFE00006460F4691461D464FEA114A3368BAF1010F0CBF5C699C6927EA0404A4B2B4FACA
:020000040800F2
:20C0000084F46409A14501D0002017E06A1CEED0FFF7A2FC089BC01AA84201D8002DE5D172
:20C0200000232022336386F83D2086F83E30326C86F83C3042F0200232640120BDE8F88688
:20C040007047000070B5044608B9012070BD90F83D3003F0FF021BB980F83C20FFF7F0FF35
:20C06000242384F83D3023681A6822F001021A601A6842F400421A601A6822F400421A602C
:20C0800001F042FE3F4A6368934294BF3E4A3F4A90428CBF00220122002AD6D121683C4E9C
:20C0A0004A68B0FBF6F622F03F0232434A60354A0D6A934284BF4FF49672724325F03F055E
:20C0C00091BF721C4FF47A76B2FBF6F201322A430A62CD69421E2B4825F44F45834225F01E
:20C0E000FF0532D85B00B2FBF3F340F6FC720133134242D0C3F30B032B43CB61D4E90730B3
:20C100000A68034322F0C00213430B608A68D4E9030322F40342034322F0FF0213438B6028
:20C12000D4E90530CA68034322F0FF021343CB600B6843F001030B6000202023206484F889
:20C140003D30206384F83E0080E7A06850B903EB4303B2FBF3F30133C3F30B037BB143F49B
:20C160000043C9E719204343B2FBF3F30133C3F30B0323B143F44043BEE70423BCE7012361
:20C18000BAE700BFA08601007F841E00FF083D0040420F002DE9F04F044685B01E460F4695
:20C1A0009146FFF7D9FB94F83D30202B054603D0022005B0BDE8F08F00904D4919230122FC
:20C1C0002046FFF70BFF0028F2D194F83C30012BEED0012384F83C302368DFF814B11A6877
:20C1E000D2075EBF1A6842F001021A601A6822F400621A60242384F83D3000232364A3F532
:20C200008033E3624FF0010A07F0FE072268136843F4807313604FF00111334600950022BD
:20C220002046FFF7DBFE236838B11B68DB0502D54FF4007323640320BBE71F61FFF78CFB1C
:20C2400023685A695B690546C2F34002C3F380234FF0A00894F83D10A02901D013431DD094
:20C2600023684FF0200884F83D805A6912F0020F1A6842F400721A6025D0002203925A69AA
:20C2800003929B690393039B19490095192301222046FFF7A3FE88B101208AE7FFF75CFB66
:20C2A000401BB04200D80EB984F83D8023685A695B69C2F34002C3F38023CBE784F83D800C
:20C2C00084F83C0075E76FF480625A6159460095192301222046FFF781FE0028DCD10AF10C
:20C2E000010ACA4592D384F83D8084F83C00D3E702001000F7B500240094019490F83D4004
:20C30000089D202C02D0022003B0F0BD082D354F01D0012D1ED13C6846F2A816B4FBF6F6FC
:20C32000192474430194019C013C0194019C6CB92023046380F83D3080F83E40036C80F8D7
:20C340003C4043F0200303640120DDE70468A469A407E8D43C6846F2A816B4FBF6F619246D
:20C3600074430194019C013C0194019C002CDFD004682668B705F5D490F83C60012EC2D026
:20C380002668F6075EBF266846F001062660266826F400662660212680F83D60102680F806
:20C3A0003E60002606644385438DC56241640385036B0093009B4262112B05D1B5F52A0F2E
:20C3C00002D0B5F12A4F03D1236843F480732360002380F83C30626842F4E06262601846F7
:20C3E00092E700BFC0010020F7B500240094019490F83D40089D202C02D0022003B0F0BDE1
:20C40000082D444F01D0012D1ED13C6846F2A816B4FBF6F6192474430194019C013C019439
:20C42000019C6CB92023046380F83D3080F83E40036C80F83C4043F0200303640120DDE7B0
:20C440000468A469A407E8D43C6846F2A816B4FBF6F6192474430194019C013C0194019C32
:20C46000002CDFD004682668B705F5D490F83C60012EC2D0012680F83C602668F6075EBF9A
:20C48000266846F001062660266826F400662660222680F83D60102680F83E60002606647E
:20C4A0004385438DC56241640385036B0093438D42629BB2022B25D1202D01D0102D21D15E
:20C4C000009B122B23681ED123F480632360236843F4006323604FF44071009B122B05D143
:20C4E000B5F52A0F02D0B5F12A4F03D1236843F480732360002380F83C3062680A4362607C
:20C5000018467BE7236843F4806323604FF4E061E3E700BFC001002037B590F83D4004F060
:20C520002804282C31D100292DD0002A2BD090F83C40012C29D005682C68E4075EBF2C6867
:20C5400044F001042C602C6824F400642C60292480F83D40202480F83E40002404644285AB
:20C56000428DC36201946B690193AB69019380F83C40019B6B68416243F4E06302856B6050
:20C58000204603B030BD0120FBE70220F9E737B590F83D4004F02804282C31D100292DD003
:20C5A000002A2BD090F83C40012C29D005682C68E4075EBF2C6844F001042C602C6824F41E
:20C5C00000642C602A2480F83D40202480F83E40002404644285428DC36201946B690193AA
:20C5E000AB69019380F83C40019B6B68416243F4E06302856B60204603B030BD0120FBE7B8
:20C600000220F9E790F83D30202B14D1282380F83D3003681A68D2075EBF1A6842F0010229
:20C620001A601A6842F480621A605A6842F440725A60002070470220704770477047704733
:20C640007047704738B5806B90F83D20456BD2B20DB10023EB63846B0CB10023E3630368CC
:20C66000196821F4806119600021418505B1296504B12165196821F00101196090F83D1082
:20C68000602909D1202380F83D30002380F83E300364FFF7D6FF38BD02F02802282A0ED192
:20C6A000196841F001011960196841F4806119600023036380F83D2023F0BCFEEBE72023FD
:20C6C00080F83D30002380F83E30F5E710B590F83D2090F83E10036810290446D2B212D1BB
:20C6E000222A10D1196821F4006119605968080504D4602A1CBF202284F83D2000222263D0
:20C7000084F83E2007E002F028012829EED10022226384F83D105A6812F400624FD05A68B2
:20C72000606B22F400625A6090F83530012B374B2BD00365FFF7FAFB50B12268606B136842
:20C7400023F001031360202384F83D30036D9847236C19071FBF2268536823F4E0635360F5
:20C7600094F83D30226C5207DBB20DD5282B0BD1274BE362202200232363204684F83D205A
:20C7800084F83E3023F02BFE10BDA06B0365FFF7CDFB0028DCD023685A69510605D51A699F
:20C7A000636A1A70636A013363622268A06B136823F001031360202384F83D30C6E794F85D
:20C7C0003D10602915D1202184F83D1022645A69520605D51A69636A1A70636A0133636278
:20C7E0002268136823F0010313602046FFF729FFAEE75A69500605D51A69636A1A70636AF7
:20C8000001336362204623F015FEA1E745C600080000FFFF70B503685A68C16A90F83E5067
:20C82000044690F83D00102D8CB0EEB2C0B202D0402E40F099829D695869C60707D4B1F5BE
:20C840002A0F02D0B1F12A4F50D10CB070BD91054CD5E26AB2F52A0F0CD10122E26294F8F5
:20C860003E20402A11D1226D52B9626C02F0FE021A61EAE7E26AB2F12A4FF0D10822EDE741
:20C88000626C42F00102D2B2F2E72269B2F5804F19D194F83D20212A626C16BF42F0010241
:20C8A00002F0FE02D2B21A61626B0AB1D26B2AB9A26B002AC9D0D26B002AC6D05A6842F41A
:20C8C00000625A60C1E7226D32B9626CD21102F0060242F0F002CBE7226D012AB5D1626C8B
:20C8E000D21102F0060242F0F102C1E706070ED591050CD5626CD2B21A61626B12B9A16BB6
:20C900000029A2D0D26B002AD8D1A26BD3E7860740F1DD80910540F1DA8094F83E10E26A43
:20C92000256B94F83D002228C9B240F0C880206D40B9402906D101905A6901929B6901931C
:20C94000019B82E7216D89B92069B0F5404F0DD102915A6902929A690292029A1A6842F492
:20C9600080721A60236D013323656EE7618D89B251B903915A6903929A690392039A1A68D4
:20C9800042F400721A6019E0618D89B2012949D112F5803F1BD11A6822F480621A605A68A7
:20C9A00012F400620CD01A6822F480621A60002204925A6904929B690493049B0023D3E717
:20C9C00005925A6905929A690592059AD7E7082A1CD0202A1AD0122D0DD1012A16D11A686C
:20C9E00022F480621A60002206925A6906929B690693069BE2E7102AF1D8A44921FA02F2AA
:20CA0000D207ECD51A6842F48062EBE71A6822F480621A60002207925A6907929A69079269
:20CA2000079AACE7618D89B202292AD1102A03D89649D140CE0720D4196821F480611960B5
:20CA4000196841F40061196059680D050DD512F5803F06D0511E1F2907D88D4ACA40D007A7
:20CA600003D55A6842F480525A60002208925A6908929B690893089BA0E7196841F48061E1
:20CA8000E1E7196841F480611960596809050ED512F5803F07D0013A1F2A08D87C4921FA2B
:20CAA00002F2D60703D55A6842F480525A60002209925A6909929B690993099B7EE7002263
:20CAC0000A925A690A929B690A930A9BBDE66D07596840F18B800E053FF5B7AE0506C0F397
:20CAE00080013ED550053CD500293DD194F83D20258D94F83E10E06AD2B2C9B2C5B9212A7E
:20CB000018D1082855D0202853D010F5803F50D05A6822F4E0625A6011232363002384F85B
:20CB20003E30202384F83D302046FFF786FD8CE6212A05D040297FF488AE222A7FF485AEE6
:20CB4000628D92B21AB95A6822F48062B9E694F83E20402A13D120460CB0BDE87040FFF7D1
:20CB600007BA00293FF471AE92057FF56EAEE16A94F83D20212A33D1628D92B24AB1626AD5
:20CB800012F8011B19616262638D013B9BB263855BE608290DD020290BD011F5803F08D0C0
:20CBA000596821F4E06159601123236384F83E20B7E75A6822F4E0625A601A6842F4007275
:20CBC0001A6000232022236384F83D2094F83E2084F83E30402A2046A7D1FFF730FD34E6BE
:20CBE00094F83E30402B7FF430AEB4E70E053FF52CAE4506C0F380014CD550054AD5002986
:20CC00004BD194F83D20222A7FF41FAE628D92B2032A14D91A69636A1A70636A0133636296
:20CC2000638D013B9BB26385638D9BB2032B7FF40CAE2268536823F48063536005E6E06AD4
:20CC400002283FF402AE012A3FF6FFAD1A6822F480621A605A6822F4E0625A601A69636AA3
:20CC60001A70636A01336362638D013B9BB26385202384F83D3094F83E3084F83E10402BA8
:20CC80006CD121632046FFF7DBFCDEE5140001008180008000293FF4D8AD92057FF5D5ADD9
:20CCA000E26A608D616A80B2042809D15A6822F480625A601B690B70636A0133636263E7B5
:20CCC000608D80B203280CD15868042A20F480605860EFD0022AEDD01A6822F480621A60F7
:20CCE000E8E7608D80B20228E4D1012A01D0102A28D11A6822F480621A601B690B70626A79
:20CD0000531C6362638D013B9BB2638523681B695370636A226801336362638D013B9BB2E3
:20CD20006385536823F440735360202384F83D3094F83E30402B4FF0000384F83E300DD138
:20CD400023639FE7042A01D0022A03D11A6842F48062D1E71A6842F40072CDE712232363DD
:20CD60002046FFF76BFC70E5216C11B3596900258E0728D5960526D5226C02B19D6994F868
:20CD80003D2002F02802282A16D15A6822F480625A606FEA95012B064FF0000354BFA289CD
:20CDA000228B84F83C3001F00101204623F0F3FA4BE59D695969DBE76FF002025A6100238A
:20CDC00084F83C3041E5CE0640F1B180950540F1AE8094F83D505A6822F4E0625A60002207
:20CDE0000B925A690B921A6842F001021A600B9A1A6822F480621A605A681205EDB220D5FF
:20CE000005F0F702222A4AD1A06B0268526892B26285628D92B21AB1226C42F00402226419
:20CE20005A6822F400625A60FFF792F8012808D0A06B794B0365FFF779F810B1A06B036DA3
:20CE40009847638D9BB213B323685A69560709D51A69636A1A70636A01336362638D013B9B
:20CE60009BB2638523685A69500609D51A69636A1A70636A01336362638D013B9BB26385FA
:20CE8000638D9BB21BB1236C43F004032364236C13B320460CB0BDE87040FFF717BC606BD9
:20CEA0000268526892B26285628D92B21AB1226C42F0040222645A6822F400625A60FFF7EF
:20CEC00047F80128BDD0606B534B0365FFF72EF80028B6D0606BB2E72A2D06D1236328235F
:20CEE00084F83D30204623F08FFA94F83D30282B0CD14A4BE362202200232363204684F877
:20CF00003D2084F83E3023F06AFA9EE4236B222B02D0222D7FF499AC00232022236384F8B6
:20CF20003D2084F83E30204623F06EFA8DE400F0F7002128C1F3800535D1090627D5560583
:20CF400025D53DBB94F83D10628D92B2C9B2002A3FF47BAC626A12F8015B1D616262628D71
:20CF6000013A92B26285628D92B2002A7FF46DAC29297FF46AAC5A6822F480625A602823C8
:20CF8000206384F83D30204623F050FA5DE4002D3FF45BAC95057FF558AC628D92B2002A4B
:20CFA0003FF453ACEBE5480627D5510525D53DBB94F83D20618D89B2D2B200293FF445ACFA
:20CFC0001969636A1970636A01336362638D013B9BB26385638D9BB2002B7FF436AC2A2A41
:20CFE0007FF433AC2268536823F48063536022232363282384F83D3095E7002D3FF425AC41
:20D0000092057FF522AC628D92B2002A3FF41DAC1A69636A1A704FE645C600080000FFFFBE
:20D02000F8B503685F695E6890F83E200446F805D2B2C7F3002508D5F10548BF6FF480718C
:20D04000C6F3002544BF59610125B80506D5F10542BF6FF4007145F002055961780536D52E
:20D06000F10534D5608D94F83D10D4F830C0202A80B2C9B25BD1002859D101F0F700212889
:20D0800004D0282953D1BCF1210F50D194F83D20E16A0829D2B201D020292AD1282A28D100
:20D0A0002B4AE2625A6822F4E0625A606FF480625A611A6822F480621A6000232022236304
:20D0C000204684F83D2084F83E3023F088F93A053BD5F30539D523686FF4006245F00805AC
:20D0E0005A61236C1D4325642046BDE8F840FFF7EDBA212A17D11649E1622263202284F805
:20D100003D20002284F83E205A6822F4E0625A606FF480625A611A6822F480621A60204688
:20D1200023F084F9D3E76FF480625A61CFE76FF48061102A596145F0040501D0402AC6D1A7
:20D140001A6842F400721A60C1E7002DC9D1F8BD0000FFFF90F83D007047006C7047F0B5C5
:20D1600004468BB060B390F8BD33056803F0FF021BB980F8BC23FEF739F8032384F8BD335B
:20D18000EB6B254613F4807355F8100B08BF236102F09EF90FCD6E460FC60FCD0FC695E805
:20D1A000030086E803002546271D97E80E0055F8100B02F0D7F8064620B1022384F8BD33E8
:20D1C000012554E00146206802F088F93046D4F804C01C264FF0010E0146C2B2944500F198
:20D1E00001001CD800231C261946D8B2844503F1010322D80FCD6E460FC60FCD0FC695E89E
:20D20000030086E8030097E80E00206802F0A8F901230546F0B1022284F8BD23D0E706FBAA
:20D220000243C3E9111183F83DE083F83C20A3F8422083F83F101965CFE706FB0042C2E983
:20D24000811182F8FD1182F8FC0182F8FF11C2F81012CAE784F8380084F8BD33636A012B0D
:20D2600002D1204600F05DFC206802F0B1FC28460BB0F0BD10B50446006894F8BC33012B11
:20D2800015D0012384F8BC33A36A012B06D1A369012B1EBF836B43F48033836302F08CFCBD
:20D2A000206802F00FF9002084F8BC0310BD0220FCE700002DE9F04F066887B00446304605
:20D2C00002F0C1FC0290002840F03E81206802F08BFC002800F03881206802F085FC83079F
:20D2E00048BF2268206842BF536903F00203536102F07AFC070300F12A81206802F074FCB4
:20D3000045030CD5206802F07BFC2546039006F510694FF00008039B002B40F0D781206861
:20D3200002F062FC002815DAD6F8043823F00103C6F8043894F8F433012B40F05B8200215E
:20D3400084F8F413204600F0FFFB2268536903F000435361206802F047FC05050BD5D6F855
:20D360000838D80702D52046FEF706F82268536903F400635361206802F036FC010114D573
:20D3800023685A6902F000625A6194F8F423002A40F03482012184F8F4135B6DC3F38303D4
:20D3A000C4F8F833204600F0CFFB206802F01CFCC20437D5D6F80438206823F00103102128
:20D3C000C6F8043802F0A2F806F5006506F510634FF67F3162680298824200F21382EB6901
:20D3E00043F00113EB61236B002B00F01D82D5F8843043F00B03C5F884306B6C43F00B0307
:20D400006B64D6F80038217C206823F4FE63C6F8003804F5717202F037FC2268536903F466
:20D4200080535361206802F0DFFB830416D5206802F00DFC206802F057F9E060256800F095
:20D440005DFC227B0146284601F0CCFF2046FDF780FF2268536903F400535361206802F0CE
:20D46000C3FBC7062AD52268936923F010039361376AC7F34343022B07F00F0540F0DF81D9
:20D4800047F6F0731F4214D01C2303FB0545C7F30A184246D5F80812304602F01BFBD5F88A
:20D4A0000822D5F8143242444344C5F80822C5F814322268936943F010039361206802F0FE
:20D4C00093FB060707D52046FDF73FFF2268536903F008035361206802F086FBC50208D5A6
:20D4E00000212046FDF77EFF2268536903F480135361206802F078FB800208D500212046DD
:20D50000FDF76CFF2268536903F400135361206802F06AFB410007D52046FDF767FF226862
:20D52000536903F080435361206802F05DFB42070AD523685D686B0702D52046FDF75AFF7F
:20D54000226853682B43536007B0BDE8F08F2068DFF818B302F04CFB06F53065804604F5D8
:20D56000017A4FF00009B8F1000F3FF4C6AE18F0010F00F0A3805FFA89F12068039102F07D
:20D5800047FB10F0010F039907464DD00123AB6023682069D3F840C003F5306303EB491350
:20D5A00001289A6854D1100714D5DC4504D9120444BF4FF400429A6020460393FDF7AEFEE9
:20D5C00004F571722068012102F05EFB039B08229A6029E0900601D52022F9E712F0280FE8
:20D5E00022D1DC4504D9120402D54FF40042EFE71B69DAF80020C3F31203D31ACAF81030C2
:20D60000DAF804301A44CAF804202046FDF78CFEB9F1000F08D1D4F810322BB9206804F5D7
:20D620007172012102F030FB380732D5236820691A6C03F5306303EB49130128996814D104
:20D640005A4515D9090444BF4FF4004199600FE08548844505D11004C7D4920644BF2022C9
:20D660009A602046FDF760FEDEE77F488242E9D020460392FDF752FE039A5A4507D921690A
:20D68000012904D1206804F5717202F0FDFA0823AB60FB0644BF1023AB60B80609D52169A0
:20D6A000012904D1206804F5717202F0EDFA2023AB60B90444BF4FF40053AB6009F101097B
:20D6C0004FEA580820350AF11C0A4CE7039BDA0740F187805FFA88FB2068594602F0A1FAC1
:20D6E000C307074624D5D6F83438012008F00F0200FA02F223EA0203C6F834382369C9F83F
:20D700000800834202BFD5E911239B18AB6459462046FDF712FE2169012909D1B8F1000F78
:20D7200006D1236D23B9206804F5717202F0ACFA380744BF0823C9F80830F90644BF10230F
:20D74000C9F808307A0644BF4023C9F80830BB0744BF0223C9F808303F0642D5D5E91432AE
:20D760009A423ED89B1A6A6CD4F800A0934228BF134603339B0804930AF5106303EB481380
:20D780000593059B04999A6992B28A42D5E9147325D39F4200D95FB9DAF8343808F00F024B
:20D7A000012101FA02F223EA0203CAF8343818E0FF1A6B6C9F4228BF1F46FB1C9B080493B2
:20D7C000237C0093A96CBBB25A46504602F080F8AB6C3B44AB646B6D1F446F65D1E79F42A8
:20D7E000DAD9039B5B0808F1010803931C3509F1200990E52046FDF7D7FDA6E52046FDF7E1
:20D80000BBFDD2E599601A6822F400121A60C3F80812D3F8002222F40012C3F80022029A19
:20D82000013202922033D5E56B6943F4005343F02B036B612B6943F00B032B61E1E5062B31
:20D840007FF437AE082204F57171304602F042F91C2303FB0545C7F30A17D5F814321F44F0
:20D86000C5F8147225E600BF0A31544F0A30544F10B590F8BC23012A04460BD0012280F8C9
:20D88000BC2380F83810006802F086F9002084F8BC0310BD0220FCE770B501F00F06C6EB07
:20D8A000C60411F0800F05464FEA84044FF01C001FD000FB065004F13C010124294480F82B
:20D8C0003D408A604A780E70CB7002B1CE80022B04BF00230B7195F8BC33012B12D0012328
:20D8E000286885F8BC3301F00AFF002085F8BC0370BD00FB065004F5FE710024294480F8E7
:20D90000FD41DEE70220F3E710B5044601F00F00C0EBC00311F0800F4FEA83034FF01C02DF
:20D9200016D002FB004203F13C010123214482F83D30087094F8BC33012B12D00123206874
:20D9400084F8BC3301F01AFF002084F8BC0310BD02FB004203F5FE710023214482F8FD3154
:20D96000E7E70220F3E738B501F00F051C2404FB050104FB050401F5FE71C4F81032002318
:20D98000C4F80822C4F8143284F8FD3184F8FC5103690068012B08BFC4F80C22DAB21DB919
:20D9A00001F01CFF002038BD01F0A6FFFAE701F00F011C2303FB0100D0F81402704738B50E
:20D9C00001F00F051C2404FB050104FB05043C312365002363650123A26484F83D3084F886
:20D9E0003C5003690068012B08BFE264DAB21DB901F0F4FE002038BD01F07EFFFAE738B5F8
:20DA0000436801F00F059D4204462CD811F0800F4FF01C001ED000FB054200FB05410123A9
:20DA20003C3182F83D3001238B700D7094F8BC239A421AD0206884F8BC3302F059F82DB9A9
:20DA4000217C206804F5717202F01EF9002084F8BC0338BD00FB01431A4603F5FE71002343
:20DA600082F8FD31DFE70120F3E70220F1E738B5436801F00F029A4204462AD8C2EBC2030F
:20DA800011F0800F4FEA83034FF01C0018D000FB024003F13C010123214480F83D300025F3
:20DAA0008D700A7094F8BC33012B14D00123206884F8BC3302F047F884F8BC53284638BD2E
:20DAC00000FB024003F5FE710023214480F8FD31E5E70120F3E70220F1E7006870B5120410
:20DAE000446A19B922438262002070BD836A4D1E04EB134400235E1CDBB29D4205D83F311C
:20DB000000EB810022434260EEE7403300EB83035B6804EB13443346EDE70368002059623D
:20DB200070470268002180F8F4130123C0F8FC33936943F000639361536D43F0805343F09A
:20DB400003035365084670477047000037B500230193184B184D1A6C42F080521A641B6C51
:20DB600003F080530193019B144B01221A60FDF7F3FE04466B68DA030BD5114B0E4D01221A
:20DB80001A60FDF7E9FE04466B689B030AD5002006E0FDF7E1FE001BB0F57A7FEAD903201E
:20DBA00003B030BDFDF7D8FE001BB0F57A7FEBD9F5E700BF003802400070004040000E4229
:20DBC00044000E422DE9F0410D46044610B90120BDE8F081444B1A6802F00F028A4228D3F2
:20DBE000226897072DD4D00741D43F4B1A6802F00F02AA4266D8226851076CD4130707D5BF
:20DC00003A4A2169936823F4604343EAC103936000F042FB354B364A9B68C3F30313D35C32
:20DC2000D840344B1860344B1868FDF74BFE0020CEE7CAB21A701B6803F00F038B42C6D1D2
:20DC4000CEE72A4B12F0040F1EBF996841F4E0519960160742BF996841F4604199602349EE
:20DC6000A0688B6823F0F00303438B60BBE762681E4B012A1CD11B6813F4003FA7D01B4EDC
:20DC8000B36823F003031343B360FDF765FE41F288380746B368626803F00C03B3EB820F3A
:20DCA000A3D0FDF759FEC01B4045F3D903208FE7911E01291B6802D813F0007FDEE713F061
:20DCC000020FDBE7EAB21A701B6803F00F03AB427FF47DAF8FE70549E0688B6823F4E053EE
:20DCE00003438B608AE700BF003C02400038024064590308C001002098010020014B18689D
:20DD0000704700BFC0010020044B054A9B68C3F38223D35C034A1068D84070470038024073
:20DD200074590308C0010020044B054A9B68C3F34233D35C034A1068D84070470038024021
:20DD400074590308C00100200F2303600B4B9A6802F0030242609A6802F0F00282609A68BA
:20DD600002F4E052C2609B68DB0803F4E0530361034B1B6803F00F030B6070470038024073
:20DD8000003C024003682DE9F74313F0010604460BD0AB49866BD1F88C2022F0C062324318
:20DDA000B6FA86F6C1F88C2076099D070BD5A448E16BD0F88C2022F0C0520A430029C0F8D1
:20DDC0008C2008BF012613F0040512D09C49256BD1F88C20B5F5801F22F4401242EA0502ED
:20DDE00018BFB5FA85F5C1F88C2012BF6D090025012618070FD59248616BD0F88C2022F4F8
:20DE000040020A43B1F5800FC0F88C2000F00B81002908BF0125990633D500230193884B17
:20DE2000884F1A6C42F080521A641B6C03F080530193019B3B6843F480733B60FDF78CFDA1
:20DE400080463B68DA0540F1F0807D4F3B6F13F4407340F0FD80236C03F44072B2F5407F5E
:20DE6000774A40F01881916823F0704021F4F81120F4407001439160116FC3F30B030B43B3
:20DE800013672368D90642BF6F4B94F858201A6023681A0608D56A49E06CD1F8942022F44B
:20DEA00040020243C1F894205F0608D56449A06CD1F8942022F080620243C1F89420D80573
:20DEC0000CD55F48616DD0F8942022F000620A43B1F1006FC0F8942008BF0125990508D5CA
:20DEE0005749606CD1F8942022F080520243C1F894205A0500F1D380012E40F0DE80534EA2
:20DF0000DFF83C9100233360FDF726FD4F468046D9F800301B0100F126812268D00701D549
:20DF2000A36B1BB1910714D5E36B93B9D7F88430D7F8841003F4403301F070610B436168C3
:20DF40000B43A16843EA8113616943EA0173C7F88430530703D5236BB3F5801F05D01707D1
:20DF600020D5636BB3F5800F1CD13549D1F88430D1F8840003F4403300F0E04003436068EA
:20DF80000343A06843EA8013206943EA0063C1F88430D1F88C00A36A20F01F00013B0343DA
:20DFA000C1F88C3050051BD5236DB3F1005F17D123486768D0F88410D0F8843003F0E04304
:20DFC0003B43A768C1F30141013143EA871343EA4163E1684908013943EA0143C0F8843043
:20DFE000110511D52369A2681B0643EA821362681343626943EA0273E2685208013A43EA13
:020000040800F2
:20E0000002430F4AC2F8843001233360FDF7A4FC0B4F06463B681A0153D4FDF79DFC801BF6
:20E020000228F7D908E00126F5E6FDF795FCA0EB080002287FF605AF032003B0BDE8F083A3
:20E040000038024000700040E011474268004742226C02F440729A423FF4FDAE3B6F4C4AFB
:20E060000121116023F44073002111603B673B6FDB077FF5F0AEFDF76FFC41F28839804658
:20E080003B6F98073FF5E7AEFDF766FCA0EB08004845F5D9D0E7916821F4F811EBE63D4806
:20E0A000216DD0F8942022F000520A43B1F1005FC0F894207FF420AF21E7B3F5006F3FF4A4
:20E0C0001EAF012D4DD1344DDFF8C88000232B60FDF742FC46460746D8F800309B004AD415
:20E0E0002268500701D5236B1BB1110719D5636BBBB9D6F88830A16903F440330B43E16935
:20E1000043EA8113616A43EA0163C6F88830D6F88C30E16A23F4F853013943EA0123C6F8EC
:20E120008C30D20514D5636DB3F1006F10D11949A269D1F8883003F070631343E26943EA1D
:20E140008213226A5208013A43EA0243C1F8883001232B60FDF700FC0E4D04462B689B00B4
:20E160000FD5002069E7FDF7F7FBA0EB080002287FF6CEAE60E7FDF7EFFBC01B0228ABD909
:20E180005AE7FDF7E9FB001B0228E7D954E700BF400E4742003802407000474240F2FF7379
:20E1A00003603C4BD3F8842002F03F024260D3F88420C2F388128260D3F88420C2F301422A
:20E1C00001325200C260D3F88420C2F303620261D3F88420C2F302724261D3F8882002F00C
:20E1E0003F028261D3F88820C2F38812C261D3F88820C2F30142013252000262D3F888204F
:20E20000C2F303624262D3F88C2002F01F028262D3F88C20C2F30422C262D3F88C2002F4EF
:20E2200040120263D3F88C2002F440024263D3F88C2002F0C0628263D3F88C2002F0C052E8
:20E24000C26399681A6F01F4F81102F440720A430264D3F8942002F080628264D3F89420FE
:20E2600002F44002C264D3F8942002F000624265D3F8942002F080524264D3F8942002F06C
:20E2800000520265D3F88C30C3F3006380F85830704700BF00380240204908B58B6803F029
:20E2A0000C03082B07D00C2B20D01D481D4A042B08BF104608BD4A684B68496813F48003A1
:20E2C00014BF18481648C1F3881118BF002302F03F02A1FB0001FAF779FC104B5B68C3F35C
:20E2E000014301335B00B0FBF3F0E3E74A684B68496813F4800314BF0A480948C1F3881190
:20E3000018BF002302F03F02A1FB0001FAF75EFC024B5B68C3F30273E5E700BF00380240A8
:20E320000024F400001BB70003682DE9F341DF07044610D423689E0763D423681A0700F126
:20E34000AD8023685B0700F1CB80A269002A40F0358100201DE0954B9A6802F00C02042A1F
:20E360000FD09A6802F00C02082A02D15A68550207D49A6802F00C020C2A0DD15B68580290
:20E380000AD58A4B1B689903D4D56368002BD1D1012002B0BDE8F0816368844DB3F5803F7D
:20E3A00011D12B6843F480332B60FDF7D5FA7F4E054633689A03BDD4FDF7CEFA401B64282C
:20E3C000F7D90320E5E7B3F5A02F04D12B6843F480232B60E5E72A6822F480322A602A68F8
:20E3E00022F480222A60002BDFD1FDF7B5FA06462B689B039ED5FDF7AFFA801B6428F7D9D9
:20E40000DFE76A4B9A6812F00C0F0FD09A6802F00C02082A02D15A68570207D59A6802F091
:20E420000C020C2A11D15B685E020ED45F4B1A68950702D5E268012AAAD11A68216922F004
:20E44000F80242EAC1021A6077E7E268584BB2B101221A60FDF780FA544D06462B68980781
:20E4600007D52B68226923F0F80343EAC2032B6063E7FDF771FA801B0228EFD9A1E71A60DF
:20E48000FDF76AFA494E0546336899077FF555AFFDF762FA401B0228F6D992E76269454B17
:20E4A0007AB101221A60FDF757FA404E0546736F9F073FF546AFFDF74FFA401B0228F6D934
:20E4C0007FE71A60FDF748FA384E0546736F98077FF537AFFDF740FA401B0228F6D970E7A1
:20E4E000324B1A6C12F0805228D101921A6C42F080521A641B6C03F080530193019B01270C
:20E500002D4D2B68D9051BD5A368284D012B27D12B6F43F001032B67FDF71EFA234E054651
:20E5200041F28838336F9B0739D5002F3FF40DAF1E4A136C23F08053136406E70027DFE75A
:20E540002B6843F480732B60FDF706FA06462B68DA05D9D4FDF700FA801B0228F7D930E77A
:20E56000052B04D12B6F43F004032B67D0E72A6F22F001022A672A6F22F004022A67002BCD
:20E58000CAD1FDF7E9F941F2883806462B6F9807CBD5FDF7E1F9801B4045F7D911E7FDF748
:20E5A000DBF9401B4045BDD90BE700BF0038024000004742800E474200700040234DAB6813
:20E5C00003F00C03082B3FF4E3AE214E0023022A33602DD1FDF7C0F907462B68990121D4D7
:20E5E000D4E907321343626A43EA8213E26A43EA0263226B43EA0273A26A5208013A43EA66
:20E6000002436B6001233360FDF7A6F90F4D04462B689A013FF59DAEFDF79EF9001B02287D
:20E62000F6D9CEE6FDF798F9C01B0228D5D9C8E6FDF792F904462B689B017FF58AAEFDF7D9
:20E640008BF9001B0228F6D9BBE600BF003802406000474203689A68D20410B504460AD52E
:20E66000DB68D90507D501F073FF2268D368DBB263F4C073D36023689A6892040BD5DB68E5
:20E680009B0508D5204600F00FF82268D368DBB263F42073D360034B4FF400325A6101238F
:20E6A000637710BD003C01407047704710B50446002836D00023836290F8513003F0FF0286
:20E6C0001BB980F85020FFF7F0FF2168A269022384F851300B6823F040030B60D4E90130C1
:20E6E0000343E06803432069034360690343E0690343206A0343A06A034302F4007003430D
:20E700000B60120C636A02F004021A434A60CB6923F40063CB6100200123606584F85130C4
:20E7200010BD0120FCE70000036A23F001030362036A70B5446882690D6822F073022A438D
:20E740008D6823F002032B430E4DA84202D00E4EB04210D1CE6823F008033343A84223F031
:20E76000040302D0084DA84205D1D1E9055624F4407435432C43446082614A6842630362A0
:20E7800070BD00BF0000014000040140036A23F480730362036A70B54468C2690D6822F03B
:20E7A00073022A438D6823F4007343EA0523114DA84203D005F58065A84214D1CD6823F48E
:20E7C000006343EA05230B4DA84223F4806303D005F58065A84206D1D1E9055624F4405411
:20E7E000354344EA05144460C2614A68C263036270BD00BF00000140036A23F4805303626E
:20E80000036A30B54468C2690D6822F4E64242EA05228D6823F4005343EA0533084DA842C6
:20E8200003D005F58065A84204D14D6924F4804444EA85144460C2614A680264036230BDDD
:20E8400000000140022380F83D3003689A6802F00702062A1EBF1A6842F001021A600123A3
:20E8600080F83D300020704790F83C30012B4FF0020309D080F83D3003685961012380F8F9
:20E880003D30002380F83C30184670477047704703681A69910710B504460ED5DA6892072E
:20E8A0000BD56FF002021A61012202779B699B0777D0FBF7B3F80023237723681A69500752
:20E8C00010D5DA6851070DD56FF004021A61022222779B6913F4407F204668D0FBF79EF84A
:20E8E0000023237723681A6912070FD5DA6810070CD56FF008021A6104222277DB6999078F
:20E9000020465AD0FBF78AF80023237723681A69D20610D5DA68D0060DD56FF010021A6185
:20E9200008222277DB6913F4407F20464BD0FBF775F80023237723681A69D10708D5DA6868
:20E94000D20705D56FF001021A612046FBF73AF823681A69100608D5DA68110605D56FF00A
:20E9600080021A61204600F0A4FA23681A69520608D5DA68500605D56FF040021A6120466F
:20E98000FFF785FF23681A69910622D5DA6892061FD56FF0200220461A61BDE8104000F04C
:20E9A00087BAFBF739F82046FFF770FF83E7FBF733F82046FFF76AFF92E7FBF72DF82046E6
:20E9C000FFF764FFA0E7FBF727F82046FFF75EFFAFE710BD304A0368904212D0B0F1804F21
:20E9E0000FD0A2F57C4290420BD002F58062904207D002F58062904203D002F578429042B3
:20EA000019D14A6823F070031343234A904229D0B0F1804F26D0A2F57C42904222D002F5D0
:20EA2000806290421ED002F5806290421AD002F57842904216D0194A904213D002F5806245
:20EA400090420FD002F5806290420BD0A2F59832904207D002F58062904203D002F580621E
:20EA6000904203D1CA6823F4407313434A6923F08003134303608B68C3620B688362064BDB
:20EA8000984203D003F58063984201D10B69036301234361704700BF000001400040014068
:20EAA00010B50446A0B190F83D3003F0FF021BB980F83C2001F0DAFF0223206884F83D3005
:20EAC000211DFFF787FF012384F83D30002010BD0120FCE7036A23F010030362036A70B5F4
:20EAE000446882690D6822F4E64242EA05228D6823F0200343EA0513104DA84203D005F5F5
:20EB00008065A84214D1CD6823F0800343EA05130A4DA84223F0400303D005F58065A842FE
:20EB200006D1D1E9055624F44064354344EA8504446082614A688263036270BD000001400D
:20EB400010B590F83C30012B04464FF0020010D00123082A84F83C3084F83D0018D009D8A5
:20EB600072B1042A10D00123002084F83D3084F83C0010BD0C2AF6D12068FFF73DFEF2E723
:20EB80002068FFF7D1FDEEE72068FFF7A3FFEAE72068FFF7FBFDE6E738B590F83C30012B13
:20EBA00004464FF0020010D00123082A84F83C3084F83D003FD009D8DAB1042A2AD001232C
:20EBC000002084F83D3084F83C0038BD0C2AF6D12068FFF711FE23680969DA6942F400621D
:20EBE000DA61DA6922F48062DA61DA6942EA012230E02068FFF798FD236809699A6942F07D
:20EC000008029A619A6922F004029A619A690A439A61D4E72068FFF75DFF236809699A69F9
:20EC200042F400629A619A6922F480629A619A6942EA0122ECE72068FFF7A8FD2368096906
:20EC4000DA6942F00802DA61DA6922F00402DA61DA690A43DA61B2E770B5046A1A4E24F0F1
:20EC600001040462B0428469056A29D0B0F1804F26D0A6F57C46B04222D006F58066B04268
:20EC80001ED006F58066B0421AD006F57846B04216D006F57056B04212D0A6F59436B0424C
:20ECA0000ED044F001021B01DBB222F0F0021A4301F00A0125F00A0319438261016270BD48
:20ECC00024F003042243EEE700000140F8B590F83C30012B04460E4615464FF002001AD0AD
:20ECE000012384F83D0084F83C30D1E900122068F3688DB9FFF7B0FF2368B1689A6922F0FC
:20ED00000C029A619A690A439A610123002084F83D3084F83C00F8BD042DB66822D1056A54
:20ED200025F0100505628769D0F820E027F4407C1D034CEA022C09012CF4704CADB22EF0CC
:20ED4000A00E01F0A00145EA0C0541EA0E0185610162836923F440638361836943EA0626E1
:20ED60008661D2E7082D056A1CD125F480750562C769056A27F0030717431B010902DBB21F
:20ED800027F0F00725F4206501F420611F432943C7610162C36923F00C03C361C3691E43F9
:20EDA000C661B2E725F480550562C569076A25F4407545EA02251B03090325F470459BB236
:20EDC00027F4204701F420412B433943C3610162C36923F44063C361C36943EA0626DFE795
:20EDE000036A01F01F0110B501248C4023EA04030362036A8A401A43026210BD10B5044692
:20EE000001220068FFF7ECFF23680B4A934203D002F58062934203D15A6C42F400425A6480
:20EE20009A6802F00702062A1EBF1A6842F001021A60002010BD00BF00000140FFF7DEBF17
:20EE400010B5044601220068FFF7CAFF23689A6802F00702062A1EBF1A6842F001021A6093
:20EE6000002010BD036A01F01F0110B504248C4023EA04030362036A8A401A43026210BD30
:20EE800010B5044604220068FFF7ECFF23685A6C42F400425A649A6802F00702062A1EBF63
:20EEA0001A6842F001021A60002010BDFFF7E8BF704770470368DA6822F49072DA605A6967
:20EEC00022F001025A61202380F83A307047000038B50368C1681A69044622F440520A4343
:20EEE0001A612569A268D968C0692A43656921F416412A4321F00C0102430A43DA605A69D4
:20EF0000A16922F440720A43B0F5004F5A61254A28D1934203D002F5806293421FD1FEF780
:20EF200003FF6268002392184FF019015B41A0FB0101F9F74BFE6421B0FBF1F501FB150343
:20EF4000DB003233B3FBF1F303F007025B00216802EB051203F4F87313448B6038BDFEF76D
:20EF6000D3FEDEE7934202D00F4A934217D1FEF7DBFE636819219A00A0FB01019B0FF9F79A
:20EF800025FE6422B0FBF2F102FB110324681B013233B3FBF2F303EB0113A360DEE7FEF7CA
:20EFA000B3FEE6E70010014000140140704710B5044640B390F8393003F0FF021BB980F843
:20EFC0003820FFF7F3FF2268242384F83930D36823F40053D3602046FFF77AFF23681A6980
:20EFE00022F490421A615A6922F02A025A61DA6842F40052DA6000202023E06384F8393063
:20F0000084F83A3010BD0120FCE710B5044660B390F8393003F0FF021BB980F83820FFF798
:20F02000C5FF2268242384F83930D36823F40053D3602046FFF74CFF23681A6922F49042E1
:20F040001A615A6922F022025A615A6942F008025A61DA6842F40052DA6000202023E0631D
:20F0600084F8393084F83A3010BD0120FCE790F83930202B18D1A9B1A2B190F83830012B06
:20F0800012D0C28401628284016800232122C36380F8383080F83920CA6842F08002CA6029
:20F0A00018467047012070470220704790F83A30202B20D1E9B1E2B190F83830012B1AD029
:20F0C000C285828500232222C36380F83A20026880F838308162D16841F48071D16051690C
:20F0E00041F001015161D16841F02001D16018467047012070470220704710B590F83A30F2
:20F10000222B33D181680469836A0268B1F5805F23D15268ECB9C2F3080223F8022B83622D
:20F12000C48D013CA4B2C4858CB90368DA6822F02002DA60DA6822F48072DA605A6922F0E9
:20F1400001025A61202380F83A3001F0BBFE00200DE0D2B223F8012BE1E7591C5268816270
:20F160000CB91A70DCE702F07F02FAE7022010BD03681A68D96870B516075D69044607D1E2
:20F1800096065CD58D065AD5BDE87040FFF7B5BF05F0010001F49075054350D0D60705D512
:20F1A000CD0542BFE36B43F00103E363530704D518B1E36B43F00203E363960704D518B1AA
:20F1C000E36B43F00403E363150707D501F0200303431EBFE36B43F00803E363E36B4BB314
:20F1E000900604D5890602D52046FFF786FF23685B69E56B03F0400305F008051D432046BC
:20F2000019D0FFF757FE23685A6952060FD55A69606B22F040025A6148B1264B0365FCF7CE
:20F2200085FE38B1606BBDE87040036D1847204601F05EFE70BD01F05BFEE563FAE7160604
:20F2400028D50D0626D594F83920212AF2D1A168226AB1F5805F18D11188C1F3080159609E
:20F26000216981B902322262E28C013A92B2E284002ADFD1DA6822F08002DA60DA6842F061
:20F280004002DA60D6E70132EDE7511C216212785A60E9E75006CDD54A06CBD5DA6822F0EE
:20F2A0004002DA60202384F83930204601F00DFEC0E700BFB9F2000808B5806B0023C3851C
:20F2C000C38401F015FE08BD90F83830012B11D00268242380F83930D36823F00C0343F0FF
:20F2E0000803D360202380F83930002380F83830184670470220704790F83830012B11D0BE
:20F300000268242380F83930D36823F00C0343F00403D360202380F83930002380F838306A
:20F32000184670470220704790F8392090F83A00104370470A4B013B0FD00269002AFADA59
:20F340000369074A43F001030361013A05D0036913F00103F9D1184670470320704700BF5A
:20F36000410D030084B038B505AD85E80E000A9B012B044625D1836B23F480338363C36814
:20F3800023F4840323F04003C360C36823F44013C360119B012B02BFC36843F48013C360ED
:20F3A000FFF7C8FF089B012B07D1A36843F00603A360A36843F02003A360BDE8384004B06A
:20F3C0007047C36843F04003C360FFF7B3FF0E9B23B9A36B43F48033A363E3E7A36B23F498
:20F3E0008033F9E7022A4AD1274B284A0B44934239D9274B274A0B44934236D9264AA1F5FD
:20F400007403A3F51053934231D9244AA1F18373A3F5E74393422CD3214B224A0B44934213
:20F4200029D9214B214A0B44934226D3204B214A0B44934223D3204AA1F1B773A3F558537D
:20F4400093421ED31D4B1E4A0B44934234BF07230623C26822F47052C260C26842EA83238C
:20F46000C360002070470F23F3E70E23F1E70D23EFE70C23EDE70B23EBE70A23E9E709234B
:20F48000E7E70823E5E700BF405327FFFF340C00401E1BFF3F420F007F4F120020D61300FF
:20F4A00060B6E5FE5FE3160000D3CEFE40771B00C05BB3FEC091210020753800E05459FEF4
:20F4C000E09C4100836843F00103836000207047836823F0010383600020704708B5C368EF
:20F4E000012923F0C043C36008D1C36843F00053C3603220FCF736FA002008BD19B9C368A5
:20F5000043F08043F4E70120F7E70000890141F02001064A0161013A05D0036913F02003EB
:20F52000F9D1184670470320704700BF410D03001023064A0361013A05D0036913F0100389
:20F54000F9D1184670470320704700BF410D0300D0F800381943C0F80018002070470000DF
:20F5600084B02DE9F047044609A880E80E0000230C9E139D0F46194603F1400204EB8202BF
:20F5800001330F2B5160F7D1A36B002D7AD123F40013A363236843F040032360236843F08C
:20F5A000800323600023C4F8003ED4F80038C4F800380E9B012B04F5006869D10B990029F3
:20F5C00064D12046FFF7C4FF10212046FFF79EFF01462046FFF7ACFF0843C0B20023003847
:20F5E000C8F8103018BF0120C8F8143004F51062C8F81C3019464FF0904C4FF0006E4FF62C
:20F600007F39BB4246D1002204F5306311464FF0904C4FF0006E4FF67F39BA424DD1D8F86A
:20F620001030012E23F48073C8F810300AD12C4BC8F83030D8F8303043F4803343F003038C
:20F64000C8F830300023A3616FF0804363611EB9A36943F01003A361A269224B1343A3617E
:20F660000F9B1BB1A36943F00803A361012D01BFA36943F0804343F00403A361BDE8F047BC
:20F6800004B0704743F40013A3638BE7194698E7032196E7D2F800A0BAF1000F0BDA3BB9C1
:20F6A000C2F800E011610133C2F808902032A8E7C2F800C0F6E71160F4E7D3F800A0BAF11E
:20F6C000000F0BDA3AB9C3F800E019610132C3F808902033A1E7C3F800C0F6E71960F4E721
:20F6E0000001800000383C80D0F8083813F0060004D013F0020F14BF02200F20704730B5DC
:20F700000D78012405F00F039C404B7800F50062012B00EB4510D36918D11C43D461D0F855
:20F7200000391A0410D48A68D0F80049C2F30A03CA78234343EA824343EA855343F0805324
:20F7400043F40043C0F80039002030BD43EA0444D461D0F8003B1B04F6D48B68D0F8002BB5
:20F76000C3F30A031343CA7843EA824343F0805343F40043C0F8003BE6E7000030B50C7893
:20F78000497800F5006204F00F050123012903FA05F3D16B00EB44100ED121EA0301D16369
:20F7A000D16921EA0303D361D0F80029094B1340C0F80039002030BD21EA0341D163D16977
:20F7C00021EA0343D361D0F8002B034B1340C0F8003BEFE7007833EC0078F3EF4B78DFF8BC
:20F7E000ECC0F0B50E784D69374F012B00EB461446D104F51063BDB91D692F401F611D6991
:20F8000045F400251D611D6905EA0C05012A1D6123D10A6902B15A61D4F8003943F0044389
:20F82000C4F800390020F0BDD3F810E00EEA0C0CC3F810C0D3F810C00CEA07071F618F689A
:20F84000AF421D6938BF4F6145F400251D614D691F69C5F312053D43D8E7D4F8003943F02A
:20F860000443C4F800394B69002BDBD0D0F8342806F00F060123B3401343C0F83438D1E74A
:20F88000D4F8100B00EA0C00C4F8100BD4F8100B384004F530631861886805B148611D697B
:20F8A00045F400251D611D69C0F312002843012A186102D1CA6802B15A61D4F8003B43F065
:20F8C0000443C4F8003BADE7FFFF07E00000F8FF10B59DF8084044B9033301329B0800EBE4
:20F8E000023001EB83038B4201D1002010BD51F8042B0260F7E700002DE9F3414D780F788A
:20F900004B69CE78DFF8C0C1DFF8C0E1012D00EB471440F08E8004F51065D5F810806BBB7A
:20F9200008EA0C0CC5F810C0D5F810C04CF4002CC5F810C0D5F810C00CEA0E0EC5F810E03E
:20F94000012A4ED10B6903B16B61012E0CD1D0F8083813F4807FD4F800390CBF43F00053F9
:20F9600043F08053C4F80039D4F8003943F00443C4F80039002002B0BDE8F08108EA0E0E22
:20F98000C5F810E0D5F810E00EEA0C0CD1F808E0C5F810C00EEB030C0CF1FF3CBCFBFEFEBC
:20F9A000DFF82CC1D5F810800CEACE4C4CEA080CC5F810C0D5F810E0C3F3120C4CEA0E0C5E
:20F9C000012EC5F810C0BBD1D5F810C02CF0C04CC5F810C0D5F810C04CF0005CC5F810C0CB
:20F9E000AEE7D4F80059012E45F00445C4F800590BD0002BBED0D0F8343807F00F02012793
:20FA000097401F43C0F83478B4E7D0F8085815F4807FD4F800590CBF45F0005545F08055FA
:20FA2000C4F800590092C9689BB23A46FFF750FFA0E7D4F8105B05EA0E05C4F8105BD4F829
:20FA4000105B05EA0C0504F530673D618D681BBB3B69C5F312051D433D613B6943F40023D3
:20FA6000012A3B6102D1CB6803B17B61012E0CD1D0F8083813F4807FD4F8003B0CBF43F00A
:20FA8000005343F08053C4F8003BD4F8003B43F00443C4F8003B6DE7DFF834C0D7F810E0C0
:20FAA0002B44013BB3FBF5F30CEAC34C4CEA0E0CC7F810C09BB2D7F810C06B43C3F31203BC
:20FAC00043EA0C03CCE700BFFFFF07E00000F8FF0000F81F0332920801EB820200F5805081
:20FAE000914201D108467047036841F8043BF7E74A780B78012A00EB431012D1D0F8002919
:20FB0000002A06DB2BB1D0F8003923F08043C0F80039D0F8003943F40013C0F800390020DA
:20FB20007047D0F8002B002A06DB2BB1D0F8003B23F08043C0F8003BD0F8003B43F400131B
:20FB4000C0F8003BEBE70B784A7800EB4310CB78012AA3F10203DBB20FD1D0F80029012BCC
:20FB600022F40012C0F8002905D8D0F8003943F08053C0F8003900207047D0F8002B22F4C7
:20FB80000012012BC0F8002B9EBFD0F8003B43F08053C0F8003BEEE7D0F8003823F4FE639E
:20FBA000C0F80038D0F80038090101F4FE611943C0F800180020704708B5D0F8043823F020
:20FBC0000203C0F804380320FBF7CCFE002008BD08B5D0F8043843F00203C0F80438032058
:20FBE000FBF7C0FE002008BD4269806910407047D0F8183800F50060C0691840000C704724
:20FC0000D0F8183800F50060C069184080B2704700EB411100F50060D1F8082B4069104086
:20FC2000704710B5D0F81048D0F8343800EB411001F00F01CB4000F51060DB018068DBB2F6
:20FC40002343184010BD406900F001007047D0F8003923F4FF6323F00703C0F80039D0F878
:20FC6000082802F00602042A02BFD0F8002942F00302C0F80029D0F8042842F4807200F551
:20FC8000006300205A60704730B5056C104CA54200F5306303D9D0F8004B002C16DB00241F
:20FCA0001C611C6944F400241C611C6944F018041C611C69012944F0C0441C6101BF5A6138
:20FCC000D0F8003B43F08023C0F8003B002030BD0A30544F88B0002307286ED8DFE800F0E7
:20FCE00004121F2C394653600093354B35481A6B42F001021A631B6B03F001030093009BFF
:20FD000008B0704701932E4B2F481A6B42F002021A631B6B03F002030193019BF0E702939E
:20FD2000274B2A481A6B42F004021A631B6B03F004030293029BE3E70393214B24481A6B36
:20FD400042F008021A631B6B03F008030393039BD6E704931A4B1F481A6B42F010021A63CC
:20FD60001B6B03F010030493049BC9E70593144B19481A6B42F020021A631B6B03F02003C7
:20FD80000593059BBCE706930D4B14481A6B42F040021A631B6B03F040030693069BAFE739
:20FDA0000793074B0E481A6B42F080021A631B6B03F080030793079BA2E70020A0E700BF24
:20FDC00000380240000002400004024000080240000C024000100240001402400018024087
:20FDE000001C024008B5064900F0A4FBC0F3C430831E022B9ABF80000438002008BD00BFDC
:20FE0000DC52030803681D4A934284B014D1002301931B4B5A6C42F480725A645B6C03F462
:20FE200080730193019B174BB3F90000C30523D4154904B000F03ABB144A93420CD10023A8
:20FE400002930F4B5A6C42F400725A645B6C03F400730293029BE6E70D4A9342E3D1002354
:20FE60000393074B5A6C42F480625A645B6C03F480630393039BD6E704B0704700200140A0
:20FE800000380240BC0100204C5203080021014000220140114B12495A6A42F480725A623E
:20FEA0005A6A22F480725A6202688A4204D15A6C22F480725A6470470A498A4207D15A6CAF
:20FEC00022F400725A645A6C22F40072F2E706498A42F0D15A6C22F48062EBE700380240CF
:20FEE000002001400021014000220140F0B599B0054648220E4606A8002122F043FC0021A4
:20FF0000102202A822F03EFC0024E905ADF80640ABB20FD5B5F5827F0CDA454A06926FF460
:20FF2000807213449BB2022B02D8424A52F82340072710E04049284600F0D8FA3E490690F7
:20FF4000284600F0F7FAC0F3C434631E112B4FF0010788BF0024069B13B9002019B0F0BD35
:20FF60004FF48033082E07935AD00A2E5BD0062E5CD14FF04073314A08930023CDE90933B0
:20FF8000CDE910238DF830308DF838300F938DF84830169314938DF85430294B012606A865
:20FFA0000B960D961D80FBF7F1FC0028D5D1122C029402D9234B9C42CFD1002302A906A89C
:20FFC000CDE903670593FBF783FE0028C5D106A8FBF79CFD0028C0D10A2106A8FBF725FE58
:20FFE0000028BAD106A8FBF70FFF830505D506A8FBF76AFE80B2ADF8060006A8FBF7FAFDC2
:020000040801F1
:200000000028AAD106A8FBF767FD0028A5D10E4A536823F440035360BDF8060080B29DE70A
:200020004FF00073A7E74FF08073A4E70023A2E700200140A85803084C5203080100000FF2
:20004000BC01002012000010002301402DE9F34789462549254C98461746064600F046FA88
:20006000F9F7E4F954F8203005467BB91E49304600F03CFA0190A820FAF735F801998246BC
:20008000F9F754FA54F82530C3F800A054F8253015491C68304600F04DFAC0F3C4352946DB
:2000A0002046F9F781F90528824605D03346052229462046F9F7CEF8022249462046F9F772
:2000C000D9FA43463A4629462046F9F729FBBAF1050F05D0204602B0BDE8F047F9F794B897
:2000E00002B0BDE8F08700BFDC5203087006002073B51549154C064600F0F8F9F9F796F911
:2001000054F82030054673B90F49304600F0EEF90190A820F9F7E7FF01990646F9F706FA22
:2001200054F825301E6054F825301C684CB12046F9F7DCF9A821204602B0BDE87040F9F72D
:20014000D4BF02B070BD00BFDC5203087006002037B50D4D2B68FBF7FFFB6C68AB680134BE
:20016000E31A01932B68DB0304D5FBF7F5FBAB68E31A0193019B4FF47A725343B3FBF4F328
:2001800002FB003003B030BD10E000E0FBF7E4BB704708B5FBF7D4FBFBF7C4FEFFF7F8FF5B
:2001A00008BD00000B4BDA68D2015EBFDA6842F08072DA60084B00225A601A6842F001026C
:2001C0001A6000BF00BF00BF5868B0FA80F04009704700BFF0ED00E0001000E008B5FFF76F
:2001E000E1FFFBF793FBF8F793FDBDE80840FBF745BA00000023012803F1010202D04008E5
:200200001346F8E71421DBB24B43044A181D1044816811B11A44136918477047E8060020D6
:200220000120FBF799BE0220FBF796BE0420FBF793BE0820FBF790BE1020FBF78DBE38B5C3
:2002400005242025A8B2FBF787FE013C4FEA4505F8D138BD38B506244FF48065A8B2FBF756
:200260007BFE013C4FEA4505F8D138BD204B07211975082183F82810092183F83C100A216E
:20028000062283F8501017211A7083F86410002283F8781083F88C1083F8A01083F8B41004
:2002A0002821DA601A625A639A64DA651A67C3F88420C3F89820C3F8AC20C3F8C02083F855
:2002C000C810C3F8D42083F8DC10C3F8E82083F8F010C3F8FC2083F80411C3F8102183F824
:2002E0001811C3F8242183F82C11C3F838217047E806002038B5054CA4F5A075143C201DCB
:20030000F8F7CEFEAC42F9D138BD00BF2808002030B5436891FAA1F4B4FA84F50124AC407E
:2003200023EA040391FAA1F1B1FA81F18A401343436030BD30B5C46891FAA1F3B3FA83F36C
:2003400003255B0005FA03F324EA030391FAA1F1B1FA81F149008A401343C36030BD431CFF
:2003600004D00C3131F90C3C5A1C01D100207047834201F10C01F5D10120704700F00F0278
:20038000484B2DE9F041C0F303141FFA80F8013053F822500E4601F0070703D14248482120
:2003A00000F0E8F82046FFF795FC8368044695FAA5F2B2FA82F20321520001FA02F223EA93
:2003C000020195FAA5F3B3FA83F35A00032393400B438360032F35D8DFE807F01D1D021DF6
:2003E00018F0080FC6F3062217D0406A2B0A93FAA3F1B1FA81F14FF00F0C89000CFA01F11E
:2004000020EA010193FAA3F3B3FA83F39B0002FA03F30B4363623B4619E0036A95FAA5F1DE
:20042000B1FA81F10F20890000FA01F123EA010195FAA5F3B3FA83F39B0002FA03F30B43C7
:200440002362E8E718488D2100F094F80023216895FAA5F2B2FA82F20320520000FA02F269
:2004600021EA020195FAA5F2B2FA82F252009340013F0B43012F236007D816F0080218BFFC
:20048000012229462046FFF743FFC6F30112012A02D0022A18BF002229462046BDE8F04193
:2004A000FFF748BF24590308B4580308431C06D17047834202D18968FFF760BF0C31B1F92E
:2004C00000305A1CF5D10248B92100F053B800BFB4580308B1F900305A1C01D100207047C2
:2004E000834201D1486870470C31F3E7431C01D0FFF7F0BF002070474B6813B94FF0FF304E
:200500007047834202D1B1F9000070470C31F3E708B1FFF7F1BF4FF0FF307047B1F90030B6
:200520005A1C01D118467047834201D1886870470C31F3E7431C01D0FFF7F0BF70478842B3
:2005400004D018B100290CBF0146002108467047034B1B6813B1034A10681847704700BF6E
:20056000280800204C0800200148FEF773B800BF2C080020FEE700000E49D1F8883043F447
:200580007003C1F888300C4B1A68002042F001021A6098601A6822F0847222F480321A600B
:2005A000064A5A601A6822F480221A60D860044B8B60704700ED00E00038024010300024A9
:2005C000008000080438704703686D4A93428EB02AD1002200926B4A516C41F00101516462
:2005E000526C02F001020092009A674A93425DD100220592634A116C41F010011164126C50
:2006000002F010020592059A604A93425DD100230A935C4B5A6C42F480225A645B6C03F472
:2006200080230A930A9B26E0B3F1804F25D0584A93422FD0574A934257D0574A9342D4D139
:20064000002204924F4A116C41F008011164126C02F008020492049A504A9342D4D1002338
:200660000993484B5A6C42F400325A645B6C03F400330993099B0EB0704700220192414A79
:20068000116C41F001011164126C02F001020192019AAAE7002202923A4A116C41F0020118
:2006A0001164126C02F002020292029A3C4A934227D100220692334A116C41F02001116453
:2006C000126C02F020020692069A364A934246D100230B932B4B1A6C42F040021A641B6CAE
:2006E00003F040030B930B9BC5E700220392254A116C41F004011164126C02F0040203927B
:20070000039A294A93421ED0284A9342A4D1002208921C4A516C41F480315164526C02F41C
:2007200080320892089A224A9342A4D100230D93144B1A6C42F480721A641B6C03F4807356
:200740000D930D9B97E7002207920E4A516C41F002015164526C02F002020792079A154ACD
:200760009342E0D100230C93064B1A6C42F080021A641B6C03F080030C930C9B7BE700BFC4
:20078000000001400038024000100040004801400004004000080040000C00400044014068
:2007A0000014004000180040000401400040014000200040001C004003683A4A934214D162
:2007C00039494A6C22F001024A64384A934231D135490A6C22F010020A64354A934231D1E9
:2007E000314A536C23F4802317E0B3F1804F16D0304A934219D0304A93422CD02F4A9342E4
:20080000E3D129490A6C22F008020A642C4A9342E3D1254A536C23F4003353647047224962
:200820000A6C22F001020A64CFE71F490A6C22F002020A64234A934212D11B490A6C22F096
:2008400020020A64204A93421ED1174A136C23F040031364704714490A6C22F004020A641D
:200860001A4A93420BD01A4A9342CFD10E494A6C22F480324A64174A93420DD070470A49EB
:200880004A6C22F002024A64134A9342F3D1064A136C23F08003DCE7034A136C23F48073EA
:2008A000D7E700BF000001400038024000100040004801400004004000080040000C00404F
:2008C000004401400014004000180040000401400040014000200040001C004008B5431C49
:2008E000014616D0294B98423ED01ED8A3F5406398423BD010D8A3F50063984238D003F59C
:200900008063984236D0B0F1804F35D02048FFF731FE6FF00D0008BD1E4B98422ED003F5A8
:2009200080639842F2D13720F5E71B4B98420CD00DD8A3F56443984222D003F56043984283
:2009400020D0A3F564439842E0D12C20E3E7134B984217D003F58063984215D0A3F5006313
:200960009842D3D11820D6E72B20D4E73220D2E71D20D0E71E20CEE71C20CCE73620CAE716
:200980002D20C8E71920C6E71A20C4E7001800407C5903080010004000040140004401403E
:2009A00008B5431C014616D02B4B98423ED022D8A3F5805398423BD010D8A3F50063984289
:2009C00038D003F58063984236D0B0F1804F35D02248FFF7CFFD6FF00D0008BD204B98423D
:2009E0002ED003F5806398422CD0A3F500639842EED13620F1E71B4B984225D00DD8A3F5D4
:200A00008043984222D003F58063984220D0A3F564439842DCD12D20DFE7134B984219D0A8
:200A200003F580639842D3D11A20D6E72C20D4E73220D2E71D20D0E71E20CEE71C20CCE77E
:200A40003720CAE72B20C8E71820C6E71B20C4E72E20C2E71920C0E7001C00407C590308B6
:200A600000140040004001400044014038B50446FFF7AAFD0068FFF731FFD4E91012FBF7E9
:200A8000D7F92068FFF72AFFFBF704FA2068FFF787FF05462068FFF721FF85420DD02068D6
:200AA000FFF77EFFD4E91012FBF7C2F92068FFF777FFBDE83840FBF7EDB938BD08B5431C7D
:200AC000014633D01C4B984234D020D8A3F5704398420AD00ED8A3F50063984205D006D822
:200AE00020F48063B3F1804F1DD101201FE0134B9942F9E7124B9842F7D006D8A3F500638E
:200B00009842F2D003F58063F2E70E4BF0E70E4B98420FD00CD8A3F5804398420AD003F558
:200B20007053994206D00948FFF724FD002008BD074BF6E70220FAE700000140000C004035
:200B4000001C0040002000400044014094590308004801402DE9F04786B004468846B0F98F
:200B60004C007849DDF8389017461E46FFF7BEFC75498246B4F94E00FFF7B8FC0546BAF139
:200B8000000F00F0DB80B4F94E30013302D0002800F0D48029465046FFF7D1FC20600028EE
:200BA00000F0CC80694B98423BD103F594335A6A42F010025A625A6A22F010025A62002216
:200BC00000925A6C42F010025A645B6C03F010030093009B2523A4F850305A49B4F94C00C0
:200BE000FFF764FC25B15849B4F94E00FFF75EFC94F85120564B6661201D43F82200236853
:200C00000C22C4E901380023C4E90379C4E906232362002D40F08D8006B0BDE8F047FEF728
:200C2000F4B94C4B984217D103F5FA331A6A42F400321A621A6A22F400321A620022019224
:200C40001A6C42F400321A641B6C03F400330193019B4FF49373BEE73F4B984217D103F515
:200C6000F8331A6A42F480221A621A6A22F480221A62002202921A6C42F480221A641B6CA0
:200C800003F480230293029B40F22723A3E7334B984217D103F5F6331A6A42F400221A62C9
:200CA0001A6A22F400221A62002203921A6C42F400221A641B6C03F400230393039B4FF4D1
:200CC0004D7388E7264B984217D103F5F4331A6A42F480121A621A6A22F480121A62002201
:200CE00004921A6C42F480121A641B6C03F480130493049B40F235436DE71A4B98427FF49B
:200D00006CAF03F592335A6A42F020025A625A6A22F020025A62002205925A6C42F02002A0
:200D20005A645B6C03F020030593059B40F2475351E706B0BDE8F047FEF739B906B0BDE808
:200D4000F08700BFD4540308B054030800100140500800200044004000480040004C0040BA
:200D6000005000400014014008B1FFF7F3BE704708B5074B90F8512053F82200FEF7D4FA3F
:200D800000F02200A0F122035842584108BD00BF5008002008B5074B90F8512053F82200E7
:200DA000FEF7C2FA00F02100A0F121035842584108BD00BF5008002070B50E46054610B900
:200DC0004FF0FF3070BDFFF7D3FF04460028F7D12946012211F8523F337095F85100034B7B
:200DE00053F82000FEF762F92046EBE75008002070B50E460446F0B1FFF7BAFF0546D0B9A1
:200E000094F950006664FBF753F894F851000A4B04F1520153F820000122FEF747F994F924
:200E200050002A460121FBF703F894F95000BDE87040FBF72FB870BD5008002010B5044624
:200E4000E8B1816490F95000FBF732F8A36DB4F8621094F8510013FA81F1094B012253F8D3
:200E60002000FEF704F994F9500000220121FAF7DFFF94F95000BDE81040FBF70BB810BD1C
:200E80005008002050B1B0F94E30013306D190F85120034B53F82200FEF716BA704700BFB8
:200EA0005008002050B1B0F94E30013306D190F85120034B53F82200FEF71EBA704700BF90
:200EC00050080020036C0438184710B5436C04460438984701300AD0B4F85E10636D20465C
:200EE0000122BDE8104013FA81F1FEF7C0B810BD1FB503680446186810F0010013D0002212
:200F000000921A6800925B680093009B201FFFF72FFF40BB012204F14E01204604B0BDE8B6
:200F20001040FEF7C3B8196811F0020106D001901A6801925B680193019BE7E71A6812F0AB
:200F4000040206D002911A6802925B680293029BDCE719680907D9D503921A6803925B68A6
:200F60000393039BD2E704B010BD000008B52520FAF7C8FF024B1868BDE80840FEF7F8B8EA
:200F80005008002008B52620FAF7BCFF024B5868BDE80840FEF7ECB85008002008B527201B
:200FA000FAF7B0FF034B986818B1BDE80840FEF7DFB808BD5008002008B53420FAF7A2FF21
:200FC000024BD868BDE80840FEF7D2B85008002008B53520FAF796FF024B1869BDE808404D
:200FE000FEF7C6B85008002008B54720FAF78AFF024B5869BDE80840FEF7BAB8500800208E
:2010000010B50A4C22681318EFF308818B4206D9074B0C221A604FF0FF32104610BD05490E
:201020000548091A8B42F3D22360F6E7C4010020242B00200000022000040000FEE70000EF
:20104000024B16221A604FF0FF307047242B00200120704708B500F07BF901210420FAF7CD
:201060008FFB094B094AB3F90830C3F3031103F00F0352F82110012202FA03F38B61BDE86B
:20108000084000F025BA00BF1C55030874090020024A536F43F08073536770470038024042
:2010A000094B5A6F900009D45A6FD10008D45A6F520107D4586FC0F3C06070470820704709
:2010C000202070470220704700380240FAF7EABB08B5FAF7E9FA014B188008BD6808002066
:2010E000BFF34F8F0549064BCA6802F4E0621343CB60BFF34F8F00BFFDE700BF00ED00E017
:201100000400FA05024B1B6803B11847704700BF6C08002002729DF80020416082720BB95D
:20112000437205E0012BFBD0022BF9D0032BF7D07047000008B501210420FAF721FB074B1A
:20114000074AB3F90830C3F3031103F00F0352F82110012202FA03F38B6108BD1C550308CE
:20116000740900207FB5062896BF084B084953F8201000230093012203A8FFF7CBFF05486B
:2011800057211DF00BFB07B05DF804FBB059030800093D004C1F002002480123FF225721CD
:2011A0001DF07CBB4C1F00201FB5044661B10A460391FF2121F0E6FA01220092039B03489D
:2011C000224657211DF0B9FB04B010BD4C1F002002460123014857211DF060BB4C1F002082
:2011E00030B50C4DADF5037D02460C460123572128461DF053FB4FF400730122CDE90032CF
:20120000572102AB224628461DF0E7FB0DF5037D30BD00BF4C1F0020F7F7B8BE13B50C46AD
:2012200020460DF10701FFF7C7FD90B9B4F86030B4F85C20013303F03F03934209D0B4F818
:201240006020616D9DF8070092B29BB28854A4F8603002B010BD000001460148FFF7DEBF69
:201260007008002010B5064C064900222046F7F739FE054B2360054BC4F8003110BD00BF27
:201280007008002000100140D45903085912010808B500F035F9012008BD01207047000020
:2012A0002DE9F34105461E460C468F18BC4229D0D5F8008014F8013B8DF80730404600F07E
:2012C00043F99DF80710884212D0404600F01EF9404600F039F99DF80730834208D000F0EC
:2012E00073FD094800F04EFD012002B0BDE8F0810DF107010122304612F092FF2968013114
:201300002960D3E70020F0E7F45903082DE9F3419DF8208005460C461F468E18286800F094
:2013200013F98DF80700B8F1000F00D0207001220DF10701384612F073FF2A6801340132E8
:20134000B4422A60EAD1002002B0BDE8F081000030B50A480A4D0B4C002330F9021B0133E8
:20136000C1F30312DBB2090654BF55F822100021572B44F82210F0D130BD00BF1C5503087C
:201380009C0100207409002030B5124D044655F8200085B028B1F8F73FF810B91CB1012C01
:2013A0000FD005B030BD0C4B00930C4B039328680B4B02936946F8F7D0FA6846F7F770FEE8
:2013C000EFE7084B0093054B0393054B686802936946F0E794090020519F0208679D00086D
:2013E0006B9D00086DB202082DE9F041294D55F8203004460F468BB990B1012833D055F8BD
:2014000024000021F7F7D8FF2046FFF7BDFF55F82400F7F7F9FE94B3012C37D0BDE8F081C3
:20142000A820F8F760FEDFF87C801B491B4F0646F8F77CF8D8F80010B1FBF7F130462E60CF
:20144000F7F703FFD8F8003028685908B3FBF7F3B1FBF3F34FF6FF719942224628BF194643
:20146000F8F708F9CBE7A820F8F73DFE0C490646F8F75CF86E60022239463046F0E72868A6
:2014800022460221BDE8F041F7F7A0BF686800220E21F7E7940900200010004000093D004C
:2014A00000200040C0010020034B53F8200008B1F7F7AABF704700BF94090020034B53F856
:2014C000200008B1F7F7A8BF704700BF9409002070470000024A034903481FF03DBE00BF48
:2014E000C0E0F30100093D00C020002001481FF057BE00BFC02000200368C9B21B6818471E
:20150000014800211EF0C2BCE81F002070B50D4C05460E46204650211EF0BCFC290A20465B
:20152000FFF7EAFFE9B22046FFF7E6FF314620461EF014FC20461EF079FDBDE87040052091
:20154000FAF7B0B9E81F002010B5502104460F481EF0A0FC210A0D48FFF7CEFFE1B20B4860
:20156000FFF7CAFF09481EF061FD0848012250211EF059FD05481EF0B7FB20B103481EF070
:20158000B7FBC0B210BDFF20FCE700BFE81F002070470368C9B21B681847000008B5012114
:2015A0002920FAF7EDF80A4B0A4AB3F95230C3F3031103F00F0352F821101033012202FA89
:2015C00003F38B618B61044B00225A6008BD00BF1C55030874090020940F002008B514F0F1
:2015E0006DFE14F0D7FEFE2013F0B8FEBDE8084013F08ABE14481549B0F96830C3F30312D2
:2016000003F00F0310B5103351F82240012202FA03F3A361B0F98A30C3F3031403F00F03C4
:2016200051F82440103302FA03F3A361B0F98630C3F3031003F00F0351F82010103302FADF
:2016400003F38B6110BD00BF1C5503087409002021482249B0F99230C3F3031203F00F03F4
:2016600010B4103351F82240012202FA03F3A361B0F99030C3F3031403F00F0351F82440B7
:20168000103302FA03F3A361B0F97230C3F3031403F00F0351F82440103302FA03F3A3610E
:2016A000B0F97E30C3F3031403F00F0351F82440103302FA03F3A361B0F94A305DF8044B54
:2016C000C3F3031003F00F0351F8201010339A408A61FFF78FBF00BF1C550308740900209F
:2016E00012481349B0F96830C3F3031210B503F00F0351F82240012202FA03F3A361B0F9F1
:201700008A30C3F3031403F00F0351F8244002FA03F3A361B0F98630C3F3031003F00F036D
:2017200051F820109A408A6110BD00BF1C5503087409002020482149B0F99230C3F30312BE
:2017400070B451F8224003F00F02012303FA02F2A261B0F99020C2F3031402F00F0251F82D
:20176000244003FA02F2A261B0F97220144CC2F3031602F00F0251F82660257803FA02F248
:20178000B261B0F97E20C2F3031602F00F0251F8266003FA02F2B261B0F94A20C2F3031070
:2017A00002F00F0251F8201093408B6125F00703237070BCFFF794BF1C55030874090020AE
:2017C000D40F0020044B187801281EBF034B1878C0F38000704700BFC40F00207C1E0020ED
:2017E0000A4B1B78022B0ED0094B1B781A07C3F3C00009D5074AD07830B1C3F3800080F07A
:201800000100C0B270470120704700BFC40F00207C1E00205C1E002013F0AEBA194A1A498F
:201820001368B3FBF1F14FF416734B4310B59B08044640F2E931013906D0002BFBD01846E1
:20184000013800BFFCD1F6E772B613680E4AB3FBF2F2FA2353439B0840F2E932013A06D0A5
:20186000002BFBD01946013900BFFCD1F6E719F01BFA24B1FFF75EFFFFF738FEFCE7FFF725
:201880002FFFF9E7C001002040420F0008B50D461646044619F008FA00F09CFA074800F042
:2018A00071FA07490748002D18BF2946002C18BF204612F009FB3046FFF7B0FF0E5A0308AE
:2018C000685B03088A5B030801481BF0E9BE00BFA2090020F8B54E4B1B78032B054601D89A
:2018E00008F0F8FEF9F7DAFF04460DB1494B1860494B1B68C3B1474A12681344E31A002B08
:2019000012DB00F067FA454B454C1968454800F067FA94F90020A2B943480A21F8F730FA32
:2019200094F900309BB10EE0404F3B68A3B9404D2B68E31A002B03DB643414F03BFC2C609D
:20194000F8BD7F2AE8D03B480A21FFF722FE002211461046FFF79AFF374B1A78374B1B7826
:201960009A4202D02B4B1C60E1E7354E15B100233370DCE7F9F792FF264B3A681B681344BF
:20198000C01A0028F3DB3378002BD0D12D482E49B0F99220C2F30315012351F82550337067
:2019A00002F00F0203FA02F2AA61B0F99020274EC2F3031502F00F0251F8255003FA02F2DB
:2019C000AA61B0F972203578C2F3031702F00F0251F8277003FA02F2BA61B0F97E20C2F35A
:2019E000031702F00F0251F8277003FA02F2BA61B0F94A20C2F3031002F00F0251F8201087
:201A0000934025F007058B613570FFF769FE8EE7480C0020280A0020300A00203C0A0020E9
:201A2000A60900202E5A0308A8060020CC0100209C09002070080020091600200A160020AD
:201A4000A00900201C55030874090020D40F002008B50020FFF73EFF19F060FC094B1B7845
:201A600073B11CF0C9F907F07BF912F065FB12F085F8054B1B781BB9BDE808401AF07CB945
:201A800008BD00BFA30900202C0A0020F8B50D4E0D4D37780322327001222A70044610B100
:201AA000F9F7FCFE04442B7843B114B9FFF7D0FFF9E7F9F7F3FE001B0028F7DB00232B7037
:201AC0003770F8BD240A0020A409002010B5FFF7BFFF1CF037F9194B1B785B061BD51BF087
:201AE000CBFE08F00DFAFFF779FD13F0EDF819F0DBF80021084618F03DFD0021012018F0F3
:201B000039FD0021022018F035FD0D4B00221A700C4B0D4A1A600D4C2378102B05D10C488D
:201B200008F0C4FA08B10123237008F0F3FB13F019FBBDE81040074800F036BB7C1E0020A3
:201B4000C8010020340C00206B5A0308A3090020715A0308C109002037B57548744D4FF433
:201B6000E131F8F7BFF9F9F799FE00F57A742846F8F7BAF920B9F9F791FE001B0028F6DBC6
:201B800006224FF4E1316B48FFF746FBF9F786FE00F01AF9684800F0F5F8FFF75BFA00F09F
:201BA000DBFEFFF7F5FCFFF77BFAC507044602D5624800F0E7F8A00702D5614800F0E2F8A3
:201BC000610702D55F4800F0DDF8220702D55E4800F0D8F8A30602D55C4800F0D3F85C4C6D
:201BE000FFF756FA5B4800F0CDF894F90030002B00F081807F2B7ED04E482021FFF7C9FCE4
:201C0000554800F0BFF894F90030002B7DD07F2B7BD048480A21FFF7BCFC00F0D5F84F4899
:201C200000F0B0F800F0D0F84D4800F0ABF800F0CBF80020FFF7E4F90DF10701091A4948CC
:201C400000F0F0F848484FF4B06100F0EBF894F90030002B63D07F2B61D036480A21FFF760
:201C600098FC424CFFF79AFC00F03EFC00F05EFC11F06CFF0AF036F9002012F06BF923788C
:201C800023B917F045F908B101232370384B394A93ED007AD2ED007A77EE877A92ED017A1A
:201CA000C3ED007AD3ED017A77EE877A92ED027AC3ED017AD3ED027A77EE877AC3ED027A65
:201CC00013F022FB2C4818F059FE13F025F813F09FF817F0D1FBFFF7FDFB012319461A46B3
:201CE000184601F073F8254B254801221A7000F0B7F903B030BD0E482021F8F741F894F914
:201D00000030002B3FF47CAF76E709480A21F8F737F894F90030002B3FF47FAF79E704481E
:201D20000A21F8F72DF894F90030002B99D094E7A806002070080020DA810308775A0308F0
:201D4000805A0308915A0308A35A0308B45A0308A6090020935B0308C55A0308CE5A030862
:201D60000A5B0308215B0308305B0308A1090020E40F0020041000206D1A0020A309002052
:201D8000C109002073B50D4D0D4E044614F8011B91B195F900302BB17F2B03D00948FFF76A
:201DA000F8FBF3E730460191F7F7EAFF95F900300199002BEAD0F1E702B070BDA6090020B4
:201DC000A8060020700800200148FFF7DBBF00BFAC5B03080148FFF7D5BF00BFA55B030856
:201DE00013B50D4C0191FFF7CDFF94F9002001993AB17F2A05D0094802B0BDE81040F7F7D8
:201E000032BE07480191F7F72EFE94F900300199002BF0D102B010BDA609002070080020AE
:201E2000A806002013B50E4C0191FFF7ABFF94F90020019942B17F2A06D00A480A2202B097
:201E4000BDE81040F7F767BE074801910A22F7F762FE94F900300199002BEED102B010BD5F
:201E6000A609002070080020A806002013B50E4C0191FFF787FF94F90020019942B17F2A1A
:201E800006D00A480A2202B0BDE81040F7F722BE074801910A22F7F71DFE94F9003001990C
:201EA000002BEED102B010BDA609002070080020A806002038B5114C10EE105AFFF762FF7B
:201EC00094F9002062B17F2A0AD02846F6F7DEFABDE8384041EC100B09480221F7F702BF04
:201EE0002846F6F7D3FA41EC100B06480221F7F7F9FE94F90030002BE7D138BDA6090020B8
:201F000070080020A806002013B50E4C0191FFF739FF94F90020019942B17F2A06D00A486E
:201F20000A2202B0BDE81040F7F70BBE074801910A22F7F706FE94F900300199002BEED1D7
:201F400002B010BDA609002070080020A8060020034A044B002814BF10461846FFF712BFBB
:201F6000E1610308D1600308034A044B002814BF10461846FFF706BF9A5B03089F5B0308CD
:201F8000F8B5069F06460D46144618460BB1FFF7F9FE96ED000A1348FFF78CFF95ED000AFA
:201FA0001148FFF787FF94ED000A1048FFF782FF27B13846BDE8F840FFF7E4BE0C4C94F942
:201FC000002032B17F2A04D00A480A21FFF7E1FAF8BD09480A21F7F7D3FE94F90030002B5B
:201FE000F6D0F1E7765B03087D5B0308845B0308A609002070080020A806002010B5044656
:020000040801F1
:20200000322C06D93220323CF9F74CFC19F086F9F6E72046F9F746FCBDE8104019F07EB959
:202020000A4A0B4B02EBC10210B4B2F90620182404FB0134A2F10F039842A8BF184620815C
:202040005DF8044B084618F0E5BD00BF560200206C190020014B1878704700BFC9010020CC
:202060004C4B1B782DE9F341002B00F08D804FF4FA70FFF7C3FF0025FF2668468DF804508E
:20208000009600F055FA4FF4FA70FFF7B7FF4FF47F43684600938DF8045000F049FA4FF47D
:2020A000FA70FFF7ABFF4FF47F03684600938DF8045000F03DFA4FF4FA70FFF79FFFDFF8F8
:2020C000E4808DF804506FF07F436846009300F02FFA01211620F9F753FBB8F92C302E4F28
:2020E000C3F3031203F00F03012457F82220103304FA03F3936121461520F9F741FBB8F9B6
:202100002A30C3F3031203F00F0357F82220103304FA03F3936121461720F9F731FBB8F96E
:202120002E30C3F3031203F00F0357F82220103304FA03F3936129466420FFF771FF2146F5
:202140006420FFF76DFF02216420FFF769FF134B3C221A8118F086FD2846314618F00AFAC1
:202160003146204618F006FA3146022018F002FA15F02AF90A4D50B14FF47A70F9F792FBB3
:2021800016F0C6FE18B12C7002B0BDE8F08100232B70F9E7C9010020740900200C1A0020DD
:2021A000C00900201C5503082DE9F043874B1B7889B0002B00F0CC80F9F770FB844B854D70
:2021C0001A6812F0010F01BF00F5FA622A6001221A602B68C31A002B04461CDB7E4E7F4FBD
:2021E0003178002900F0B78000210846FFF718FF01210020FFF714FF4FF000080221002095
:20220000FFF70EFFA7F8088018F02CFD86F8008004F5FA632B60724D2B68E31A002B33DBFC
:20222000DFF8F0E16F4EBEF92C303078DFF8E8C1002803F00F01C3F3031314BF00271027D6
:202240005CF823300122394402FA01F19961BEF92A30C3F3031103F00F035CF821103B446B
:2022600002FA03F38B61BEF92E30C3F3031103F00F035CF821103B4402FA03F38B6150402A
:2022800004F5AF6330702B60574B584E5968186802AA03C2197A53F80A0F11701B798DF87D
:2022A0001830336805900022E31A93428DF81120CDF819208DF81D2010DB4D4B4D4D1B788C
:2022C000C3F3C00213F0080F114656D14A482A7011F00EFE04F5A55314333360DFF83C9146
:2022E000D9F80030E31A002B32DBDFF83481434F434D6423A8F8003000233B70414BEB60FE
:202300000026AB606B602B6013F0ECF9EE60AE606E602E6013F0E6F91E23A8F80030DFF8CC
:202320000481C5F80C8001233B7013F0DBF9EE6013F0D8F904F5DA540223C5F80C803B70C7
:20234000183413F0CFF9EE6013F0CCF9C9F8004009B0BDE8F0836420FFF762FE01216420FE
:20236000FFF75EFE02216420FFF75AFE3C233B8118F078FC012333704AE729780029A9D143
:2023800002A801911CF062F805A81BF0D7FA019908461BF005FB019902A81BF045FF1A482A
:2023A0001A4B82681A601AF09DFB4D28019908D1174811F09DFD01232B7000201BF0F0FAFC
:2023C00088E70D4811F094FDF7E700BFC9010020A8090020B0090020B90900200C1A00204E
:2023E000AC090020B8090020F4510308B40900207C1E0020BA090020BB5B0308D20F00203B
:20240000F40F00200000A0405C1E0020A01E0020B25B03081C55030874090020BC0900202B
:202420000C020020000040407FB54FF07F4304460E46029301467F23052202A88DF80C300B
:2024400020F06AF958B32278E378120442EA0362A3781A43637842EA03221F4D2179019225
:2024600028461DF017FC019AE6B11C4C284621881DF0E0FB28461DF0E7FA28461DF0E4FA80
:202480002C2128461DF084FB23886A8801339BB29A42238001D80023238004B070BD6FF079
:2024A0007F42DAE7104600F0DBF8237862781344A2781344E2781344022B094BCCBF012264
:2024C00000221A70E9DD074B9C421FBF22681A6022791A71E1E700BFDC090020D8090020C5
:2024E000D7090020D209002008B500F0DBF8BDE8084002480021FFF797BF00BFCD09002008
:20250000084B07B5197851B100217F2300918DF804306846FFF788FF03B05DF804FB024890
:20252000F8E700BFD7090020D209002000F008B937B54FF07F430446009301467F23052277
:2025400068468DF8043020F0E7F838B32578E3782D0445EA0365A3781D43637845EA0325CD
:20256000217910481DF096FB284600F0B3F8237862781344A2781344E2781344022B0A4B52
:20258000CCBF012200221A7006DD084B9C421FBF22681A6022791A7103B030BD6FF07F4502
:2025A000DEE700BF000A0020CC090020C7090020084B1B7807B553B1002300937F238DF805
:2025C00004306846FFF7B4FF03B05DF804FB0248F8E700BFCC090020C70900200E4A10B57F
:2025E000FF2380240020137054709070D37013710A4A7F21137053709370D3701171084A93
:20260000137054709070D3701371064A137053709370D370117110BDCD090020D209002090
:20262000C2090020C709002008B506481DF00CFA04481DF009FABDE8084002482C211DF0B4
:20264000A7BA00BFDC09002008B504481DF0FCF9BDE80840014833211DF09ABA000A002035
:2026600037B50E4C94F900100029024609DB0C4889B21DF0DFFAFF232370FFF7D5FF03B07B
:2026800030BD074D00246B88A1B28B42F5D92846019201341DF0CEFA019AF4E7FC0900204E
:2026A000DC09002008B5084B0848FF227F211A701DF0F0FA05481DF071F9FFF7B5FFBDE860
:2026C00008400348FFF7CCBFFC090020DC0900200080FFFF37B50E4C94F9001000290246EA
:2026E00009DB0C4889B21DF0A5FAFF232370FFF7ABFF03B030BD074D00246B88A1B28B423B
:20270000F5D92846019201341DF094FA019AF4E7200A0020000A002070B5084E0546002446
:202720007388A1B28B4205D92A4630461DF082FA0134F5E7FFF788FF70BD00BF000A00208D
:2027400010B5144B1448FF2421461C701DF0A2FA11481DF023F9FFF777FF4FF47F00FFF794
:20276000DBFF4FF4FA70FFF749FC4FF47F40FFF7D3FF4FF4FA70FFF741FC2046FFF7CCFFC6
:202780004FF4FA70FFF73AFCBDE810400020FFF7A1BF00BF200A0020000A002010B50623D4
:2027A0002C221E2105481DF02FFABDE810400448062333220F211DF027BA00BFDC09002068
:2027C000000A002008B504481DF0DAF8BDE8084002481DF0D5B800BF000A0020DC09002028
:2027E000FDEEC07A07B5F4EEC00A17EE901AFDEEC17AF1EE10FA17EE902A11D4F4EEC10A3D
:20280000F1EE10FA0EDCFDEEE07A17EE900AFF2300930023F7F782FBC0B203B05DF804FB45
:202820000846F4E717EE900AF1E7000073B506460A480D4614461DF053FA00238DF804007F
:20284000012168468DF800608DF801508DF802408DF80330FFF7E8FD02B070BDDC090020AF
:2028600008B592ED001AD1ED000A90ED000AFFF7B7FF064B1A78824206D01870C043C2B28B
:202880000021FF20FFF7D2FF08BD00BF210A002092ED001AD1ED000A90ED000A08B5FFF7C7
:2028A0009FFF054A1178814204D010700021FF22FFF7BCFF08BD00BF210A0020102938B5A3
:2028C00004463DD01B291ED00A291BD11F4D95F900205AB17F2A09D020461CF006FEBDE88E
:2028E000384001460A221A48F7F738B920461CF0FCFD0A2201461748F7F730F995F900309A
:20290000002BE9D138BD114D95F900205AB17F2A09D020461CF018FBBDE8384001460A222F
:202920000B48F7F7F8B820461CF00EFB0A2201460848F7F7F0F895F90030002BE2D0E8E728
:202940001CF08EFBBDE83840FFF70EBBA609002070080020A806002070B53D4E3D4D012175
:202960004720F8F70DFFB6F98E30C3F30312012455F8222003F00F0304FA03F393612146B5
:202980004F20F8F7FDFEB6F99E30C3F3031203F00F0355F8222004FA03F3936121463A2059
:2029A000F8F7EEFEB6F97430C3F3031203F00F0355F8222004FA03F3936121460F20F8F71D
:2029C000DFFEB6F91E30C3F3031203F00F0355F8222004FA03F3936121463B20F8F7D0FE57
:2029E000B6F97630C3F3031203F00F0355F8222004FA03F3936121463720F8F7C1FEB6F920
:202A00006E30C3F3031203F00F0355F8222004FA03F3936121462E20F8F7B2FEB6F95C3042
:202A2000C3F3031203F00F0355F8222004FA03F3214693612F20F8F7A3FEB6F95E10C1F338
:202A4000031301F00F0155F823308C409C6170BD1C5503087409002010B50A4C94F90020E8
:202A600032B17F2A04D008485821FEF792FD10BD06485821F7F784F994F90030002BF6D0FC
:202A8000F1E700BFA609002070080020A806002010B5134C94F900307BB17F2B0DD011487D
:202AA0005821FEF776FD94F900307BB17F2B0DD00C483221FEF76DFD10BD0B485821F7F738
:202AC0005FF994F90030002BEDD0E8E706483221F7F756F994F90030002BEDD0E8E700BF19
:202AE000A609002070080020A806002010B50A4C94F9002032B17F2A04D008485921FEF7BA
:202B000048FD10BD06485921F7F73AF994F90030002BF6D0F1E700BFA6090020700800200E
:202B2000A806002010B50A4C94F9002032B17F2A04D008485A21FEF72CFD10BD06485A2120
:202B4000F7F71EF994F90030002BF6D0F1E700BFA609002070080020A806002010B5134CD2
:202B600094F900307BB17F2B0DD011485A21FEF710FD94F900307BB17F2B0DD00C483221F8
:202B8000FEF707FD10BD0B485A21F7F7F9F894F90030002BEDD0E8E706483221F7F7F0F8D7
:202BA00094F90030002BEDD0E8E700BFA609002070080020A806002010B50A4C94F90020E5
:202BC00032B17F2A04D008484521FEF7E2FC10BD06484521F7F7D4F894F90030002BF6D023
:202BE000F1E700BFA609002070080020A806002010B5134C94F900307BB17F2B0DD011481C
:202C00004521FEF7C6FC94F900307BB17F2B0DD00C483121FEF7BDFC10BD0B484521F7F75F
:202C2000AFF894F90030002BEDD0E8E706483121F7F7A6F894F90030002BEDD0E8E700BF1A
:202C4000A609002070080020A806002010B5134C94F900307BB17F2B0DD011484521FEF7F7
:202C600098FC94F900307BB17F2B0DD00C483221FEF78FFC10BD0B484521F7F781F894F9AF
:202C80000030002BEDD0E8E706483221F7F778F894F90030002BEDD0E8E700BFA60900204C
:202CA00070080020A8060020083938B50446032910D8DFE801F002392D101CF071F948B183
:202CC000284C94F9002032B37F2A24D026482A21FEF75FFC38BD234D95F900205AB17F2A81
:202CE00009D020461CF041F9BDE8384001460A221D48F6F710BF20461CF037F90A22014689
:202D00001A48F6F708FF95F90030002BE2D0E8E71CF034F9D3E715482A21F7F731F894F9B4
:202D20000030002BD6D0D1E70E4D95F900205AB17F2A09D020461CF02AF9BDE8384001464B
:202D40000A220948F6F70ABF20461CF020F90A2201460648F6F702FF95F90030002BB9D094
:202D6000E8E700BFA609002070080020A8060020092910B50AD00B290BD008290CD11CF096
:202D800054FBBDE810403A2111F09EBA1CF062FBF7E71CF0B9F8F4E7094C94F9002032B177
:202DA0007F2A04D007480921FEF7F3FB10BD06480921F6F7E5FF94F90030002BF6D0F1E79E
:202DC000A609002070080020A80600202DE9F843B94C894690461F4600285DD0B748FEF715
:202DE000D1FFFFF739FEB648FEF7CCFFB5481CF0CDFC0546002800F0A281B348FEF7C2FF0F
:202E0000012D00F09E81B148B14B022D18BF1846B04EFEF7B7FF96F90030002B00F0938185
:202E20007F2B00F09081AC480A21FEF7B2FB2078002D0CBF0546451CA0482570FEF7A2FFD7
:202E4000A648FFF725FE9E48FEF79CFFA4481CF09DFC0546002800F080819B48FEF792FF97
:202E6000012D00F07C819948994B022D18BF1846FEF788FF96F90030002B00F072817F2B1B
:202E800000F06F8194480A21FEF783FB2078002D0CBF0546451C2570B9F1000F2ED0874881
:202EA000FEF770FFFFF722FE8548FEF76BFF8D481CF06CFC0546002800F05D818248FEF723
:202EC00061FF012D00F059818048814B022D18BF1846804EFEF756FF96F90020002A00F0C1
:202EE0004E817F2A00F04B817B480A21FEF751FB2078002D0CBF0546451C2570B8F1000FE6
:202F00005DD06E48FEF73EFFFFF70CFE6C48FEF739FF75481CF03AFC0546002800F039819F
:202F20006948FEF72FFF012D00F035816748684B022D18BF1846674EFEF724FF96F9003097
:202F4000002B00F02A817F2B00F0278162480A21FEF71FFB2078002D0CBF0546451C5748AA
:202F60002570FEF70FFF6148FFF7F8FD5448FEF709FF5F481CF00AFC0546002800F01781D8
:202F80005148FEF7FFFE012D00F013814F48504B022D18BF1846FEF7F5FE96F90030002B8C
:202FA00000F009817F2B00F006814B480A21FEF7F0FA2078002D0CBF0546451C2570002FD9
:202FC00000F0B4803D48FEF7DDFEFFF7F5FD3C48FEF7D8FE47481CF0D9FB0646002800F06E
:202FE000F4803948FEF7CEFE012E00F0F0803748374B022E18BF1846364DFEF7C3FE95F95F
:203000000030002B00F0E5807F2B00F0E28032480A21FEF7BEFA2078002E0CBF0646461C73
:2030200026482670FEF7AEFE3348FFF7E1FD2448FEF7A8FE31481CF0A9FB0646002800F008
:20304000D2802148FEF79EFE012E00F0CE801F481F4B022E18BF1846FEF794FE95F900303C
:20306000002B00F0C4807F2B00F0C1801A480A21FEF78FFA2078002E0CBF0646461C0F4875
:203080002670FEF77FFE1E48FFF7E0FD0C48FEF779FE1C481CF07AFB0646002800F0B180B5
:2030A0000948FEF76FFE012E00F0AD800748084B022E18BF184627E0230A0020CD5B030883
:2030C000D65B030818180020E65B0308C45B0308F1640308A6090020700800209A18002055
:2030E0005C180020A0180020E418002066190020281900204C170020CE17002090170020F9
:2031000012180020D4170020FEF73CFE95F90030002B7AD07F2B78D041480A21FEF739FA2A
:203120002078002E0CBF0646461C26702378002B74D0BDE8F8433B48002110F0D9BE3A4813
:2031400066E63A4864E63A480A21F6F719FE96F90030002B3FF46BAE65E6334888E63348C1
:2031600086E633480A21F6F70BFE96F90030002B3FF48CAE86E62C48ABE62C48A9E62C4808
:203180000A21F6F7FDFD96F90030002B3FF4B0AEAAE62548CFE62548CDE625480A21F6F74B
:2031A000EFFD96F90030002B3FF4D4AECEE61E48F1E61E48EFE61E480A21F6F7E1FD96F96D
:2031C0000030002B3FF4F5AEEFE6174814E7174812E717480A21F6F7D3FD95F90030002B07
:2031E0003FF419AF13E7104836E7104834E710480A21F6F7C5FD95F90030002B3FF43AAFBB
:2032000034E7094880E709487EE709480A21F6F7B7FD95F90030002B82D07DE7BDE8F88349
:2032200070080020E75D0308F1640308C85B0308A80600200000000037B5A94C94F90030AD
:2032400005463BB37F2B25D0A6480921FEF7A1F91C2D00F2C381DFE815F02600C1012B0091
:2032600033004B0063009C00BC00C101D200C101C101C101C101C101E800C101F200090111
:20328000C101C1012A01C1012E0165017C019301C101AA0194480921F6F772FD94F900308B
:2032A000002BD5D0D0E79148FFF7A2FC03B030BD8F481CF0ACF803B0BDE83040FEF754BE24
:2032C00094F900308A4D4BB17F2B07D0E98F0A22844803B0BDE83040F6F71DBCE98F82489D
:2032E0000A22F6F718FC94F90030002BDED0EDE794F900303BB17F2B05D07D481CF03CFA08
:2033000001460A22E4E77A481CF036FA0A2201467548F6F700FC94F90030002BC6D0ECE707
:2033200094F90030D3B17F2B18D071481CF024FA07EE900AF8EE677A17EE900AF5F7A6F858
:2033400065A3D3E90023F5F7F9F841EC100B6548002103B0BDE83040F6F7C4BC64481CF0A6
:203360000BFA07EE900AF8EE677A17EE900AF5F78DF859A3D3E90023F5F7E0F841EC100BFB
:2033800059480021F6F7AEFC94F90030002B8DD0CBE794F9003053B17F2B08D054481BF0F3
:2033A0009AFE01460A224F48F6F7D8FB0BE050481BF091FE0A2201464B48F6F7CFFB94F944
:2033C0000030002BEAD14B4803B0BDE83040FEF7D9BC94F900302BB17F2B03D044481BF045
:2033E00076FEDEE742481BF072FE0A2201463E48F6F7B4FB94F90030002BE4D0EEE794F9FC
:2034000000302BB17F2B03D039481BF0C0FDC8E737481BF0BCFD0A2201463348F6F79EFB74
:2034200094F90030002BCED0EEE731481BF03DFD314A324B002814BF10461846C4E794F994
:2034400000302BB17F2B03D029481CF0F9F957E727481CF0F5F90A2201462348F6F75BFBAC
:2034600094F90030002B3FF421AFEDE720481CF010FA234B9842014617D094F9003043B1E8
:203480007F2B06D017480A2203B0BDE83040F6F758BB154801910A22F6F753FB94F9003046
:2034A0000199002B3FF402AFECE716488CE710481BF088FDFFE694F900302BB37F2B23D0BA
:2034C0000B481BF019FD014606480A2203B0BDE83040F6F743BB00BF8FC2F5285C8FF63FB7
:2034E000A609002070080020A8060020CE17002090170020FF5B0308F25B0308F85B0308B0
:20350000FFFF0F00035C030838481BF0F5FC0A2201463748F6F722FB94F90030002B3FF4A1
:20352000C5AECDE794F900302BB17F2B03D02F481CF094F9C7E72D481CF090F90A22014613
:203540002B48F6F70BFB94F90030002B3FF4AEAEEDE794F900302BB17F2B03D023481CF02D
:2035600020F9CDE621481CF01CF90A2201462048F6F7D1FA94F90030002B3FF497AEEDE72E
:2035800094F900302BB17F2B03D018481CF010F999E716481CF00CF90A2201461448F6F7F5
:2035A000DDFA94F90030002B3FF480AEEDE794F900302BB17F2B03D00C481CF083F99FE6A0
:2035C0000A481CF07FF90A2201460948F6F7A3FA94F90030002B3FF469AEEDE70348294607
:2035E00003B0BDE83040FFF769B900BF90170020A8060020000000002DE9F743A64C9DF8C0
:203600002860054690461F46002900F0008294F900303BB37F2B25D0A0480921FDF7B9FFF9
:203620001C2D00F2E281DFE815F02600E00156005C0075008D00C500E300E001F900E00102
:20364000E001E001E001E0010F01E00119014501E001E0016401E001680184019B01B20150
:20366000E001C9018E480921F6F78AFB94F90030002BD5D0D0E7FFF7EFF994F90030002B23
:2036800000F0B8817F2B00F0B58184480921FDF780FF1C2D00F27683DFE815F0B60174039A
:2036A000EB01F1010A0222025A028C027403A20274037403740374037403B8027403C202AF
:2036C000D90274037403F8027403FC0218032F03460374035D0373481BF099FEFEF744FCB3
:2036E000CBE794F90030DFF8BC9143B17F2B06D0B9F83E100A226948F6F70DFABDE7B9F89E
:203700003E1067480A22F6F706FA94F90030002BB3D0EDE794F900303BB17F2B05D0614883
:203720001CF02AF801460A22E5E75E481CF024F80A2201465A48F6F7EEF994F90030002B7D
:203740009BD0ECE794F90030C3B17F2B16D055481CF012F807EE900AF8EE677A17EE900AC2
:20376000F4F794FE4AA3D3E90023F4F7E7FE41EC100B00214948F6F7B5FA7EE749481BF099
:20378000FBFF07EE900AF8EE677A17EE900AF4F77DFE3FA3D3E90023F4F7D0FE41EC100B12
:2037A0003F480021F6F79EFA94F90030002B3FF464AFCCE794F9003053B17F2B08D0394837
:2037C0001BF089FC01460A223448F6F7C7F90BE034481BF080FC0A2201463148F6F7BEF93F
:2037E00094F90030002BEAD12F48FEF7CBFA44E794F900302BB17F2B03D02A481BF067FCD4
:20380000E0E728481BF063FC0A2201462448F6F7A5F994F90030002BE6D0EEE794F900306D
:203820002BB17F2B03D01F481BF0B1FBCAE71D481BF0ADFB0A2201461948F6F78FF994F972
:203840000030002BD0D0EEE716481BF02EFB174A174B002814BF10461846C6E794F900302A
:203860002BB17F2B03D00F481BF0EAFF5AE70D481BF0E6FF0A2201460948F6F74CF994F99B
:203880000030002B3FF4F9AEEDE700BFAFF300808FC2F5285C8FF63FA60900207008002049
:2038A000A806002018180020FF5B0308F25B0308F85B0308B0481BF0ECFFB04B98420146C5
:2038C00015D094F9003033B17F2B04D00A22AC48F6F737F9D1E6AB4801910A22F6F731F928
:2038E00094F900300199002B3FF4C7AEEEE7A6487BE7A1481BF066FBF0E694F9003053B18D
:203900007F2B08D09C481BF0F7FA01460A229C48F6F724F9B1E698481BF0EEFA0A22014607
:203920009848F6F71BF994F90030002B3FF4A5AEE8E794F900302BB17F2B03D08E481BF072
:203940008DFFE2E78C481BF089FF0A2201468D48F6F704F994F90030002B3FF48EAEEDE74E
:2039600094F900302BB17F2B03D083481BF019FFD8E681481BF015FF0A2201468148F6F774
:20398000CAF894F90030002B3FF477AEEDE794F900302BB17F2B03D077481BF009FFB4E7CE
:2039A00075481BF005FF0A2201467648F6F7D6F894F90030002B3FF460AEEDE794F9003095
:2039C0002BB17F2B03D06C481BF07CFFAAE66A481BF078FF0A2201466A48F6F79CF894F95D
:2039E0000030002B3FF449AEEDE763482946FEF765FF42E663480921F6F7C2F994F9003099
:203A0000002B3FF446AE40E66048FFF741F8B8F1000F00F0C88194F90030002B00F0B78156
:203A20007F2B00F0B48156480921FDF7B2FD1C2D00F28683DFE815F0B5018403E801EE0127
:203A4000190231026902870284039D0284038403840384038403B3028403BD02D402840303
:203A60008403F3028403F70213032A0341038403580347481BF0CBFCFEF776FAC7E794F9E0
:203A80000030DFF80C9143B17F2B06D0B9F83E100A223B48F6F73FF8B9E7B9F83E1039481C
:203AA0000A22F6F738F894F90030002BAFD0EDE794F900303BB17F2B05D035481BF05CFE78
:203AC00001460A22E5E732481BF056FE0A2201462C48F6F720F894F90030002B97D0ECE7C0
:203AE00094F90030C3B17F2B16D029481BF044FE07EE900AF8EE677A17EE900AF4F7C6FCA5
:203B00001BA3D3E90023F4F719FD41EC100B00211B48F6F7E7F87AE71D481BF02DFE07EE7E
:203B2000900AF8EE677A17EE900AF4F7AFFC10A3D3E90023F4F702FD41EC100B11480021B1
:203B4000F6F7D0F894F90030002B3FF460AFCCE794F90030F3B17F2B1CD00D481BF0BBFAC7
:203B600001460A220648F5F7F9FF1FE0AFF300808FC2F5285C8FF63F18180020FFFF0F0094
:203B800070080020A8060020035C03089A1800205C180020A6481BF09EFA0A220146A548FE
:203BA000F5F7DCFF94F90030002BD6D1A248FEF7E9F82CE794F900302BB17F2B03D09C48E2
:203BC0001BF085FACCE79A481BF081FA0A2201469848F5F7C3FF94F90030002BE6D0EEE7CC
:203BE00094F900302BB17F2B03D091481BF0CFF9B6E78F481BF0CBF90A2201468D48F5F78C
:203C0000ADFF94F90030002BD0D0EEE788481BF04CF98A4A8A4B002814BF10461846C6E776
:203C200094F900302BB17F2B03D081481BF008FE46E77F481BF004FE0A2201467D48F5F76F
:203C40006AFF94F90030002B3FF4E1AEEDE778481BF01FFE7B4B9842014615D094F900300C
:203C600033B17F2B04D00A227748F5F76AFFCEE6704801910A22F5F764FF94F900300199D2
:203C8000002B3FF4C4AEEEE7704890E768481BF099F9F1E694F9003053B17F2B08D064483D
:203CA0001BF02AF901460A226748F5F757FFAEE65F481BF021F90A2201465E48F5F74EFFC0
:203CC00094F90030002B3FF4A2AEE8E794F900302BB17F2B03D056481BF0C0FDE2E75448C9
:203CE0001BF0BCFD0A2201465248F5F737FF94F90030002B3FF48BAEEDE794F900302BB110
:203D00007F2B03D04A481BF04CFDD9E648481BF048FD0A2201464748F5F7FDFE94F90030FB
:203D2000002B3FF474AEEDE794F900302BB17F2B03D03F481BF03CFDB4E73D481BF038FDEE
:203D40000A2201463B48F5F709FF94F90030002B3FF45DAEEDE794F900302BB17F2B03D069
:203D600033481BF0AFFDABE631481BF0ABFD0A2201463048F5F7CFFE94F90030002B3FF495
:203D800046AEEDE72A482946FEF798FD3FE629480921F5F7F5FF94F90030002B3FF447AE40
:203DA00041E6FEF7A3FE002F00F0A68394F90030002B00F0CA817F2B00F0C7812248092165
:203DC000FDF7E7FB1C2D00F28583DFE815F0C8018303F801FE0114022C0264028202830303
:203DE000980283038303830383038303AE028303B802CF0283038303EE028303F20227032A
:203E00003E03550383036C0311481BF000FBFEF7ABF8C8E794F90030DFF83480D3B17F2BF8
:203E200018D0B8F83E100A220748F5F774FEBAE75C180020A8060020FF5B0308F25B030803
:203E4000F85B0308FFFF0F0070080020035C0308A0180020B8F83E10B1480A22F5F75BFEB5
:203E600094F90030002B9ED0DBE794F900303BB17F2B05D0AB481BF07FFC01460A22D3E75C
:203E8000A8481BF079FC0A220146A548F5F743FE94F90030002B86D0ECE794F90030C3B1E3
:203EA0007F2B16D09F481BF067FC07EE900AF8EE677A17EE900AF4F7E9FA97A3D3E9002341
:203EC000F4F73CFB41EC100B00219748F5F70AFF69E794481BF050FC07EE900AF8EE677AAA
:203EE00017EE900AF4F7D2FA8BA3D3E90023F4F725FB41EC100B8A480021F5F7F3FE94F9AF
:203F00000030002B3FF44FAFCCE794F9003053B17F2B08D083481BF0DEF801460A22824836
:203F2000F5F71CFE0BE07F481BF0D5F80A2201467B48F5F713FE94F90030002BEAD17B4858
:203F4000FDF720FF2FE794F900302BB17F2B03D074481BF0BCF8E0E772481BF0B8F80A223F
:203F600001466F48F5F7FAFD94F90030002BE6D0EEE794F900302BB17F2B03D069481BF01B
:203F800006F8CAE767481BF002F80A2201466448F5F7E4FD94F90030002BD0D0EEE76148CC
:203FA0001AF083FF624A634B002814BF10461846C6E794F900302BB17F2B03D059481BF0FD
:203FC0003FFC5AE757481BF03BFC0A2201465448F5F7A1FD94F90030002B3FF4E4AEEDE76A
:203FE00050481BF056FC544B9842014615D094F9003033B17F2B04D00A224B48F5F7A1FDBF
:020000040801F1
:20400000D1E6474801910A22F5F79BFD94F900300199002B3FF4C7AEEEE7484890E7414889
:204020001AF0D0FFF3E694F9003053B17F2B08D03C481AF061FF01460A223B48F5F78EFD30
:20404000B1E638481AF058FF0A2201463448F5F785FD94F90030002B3FF4A5AEE8E794F9C1
:2040600000302BB17F2B03D02E481BF0F7FBE2E72C481BF0F3FB0A2201462948F5F76EFDD3
:2040800094F90030002B3FF48EAEEDE794F900302BB17F2B03D023481BF083FBEDE62148AF
:2040A0001BF07FFB0A2201461D48F5F734FD94F90030002B3FF477AEEDE794F900302BB1D9
:2040C0007F2B03D017481BF073FBB4E715481BF06FFB0A2201461248F5F740FD94F900306B
:2040E000002B3FF460AEEDE794F900302BB17F2B03D00C481BF0E6FBBFE60A481BF0E2FB4B
:204100000A2201460648F5F706FD94F90030002B3FF449AEEDE700BF8FC2F5285C8FF63FBC
:20412000A8060020A018002070080020FF5B0308F25B0308F85B0308FFFF0F00035C0308AF
:20414000AD482946FEF7BAFB2DE6AC480921F5F717FE94F90030002B3FF434AE2EE6FEF719
:20416000E1FC94F90030002B00F0B9817F2B00F0B681A3480921FDF70CFA1C2D00F2708342
:20418000DFE815F0B7016E03EB01F10107021F02570275026E038B026E036E036E036E0390
:2041A0006E03B2026E03BC02D3026E036E03F2026E03F6021203290340036E03570391486F
:2041C0001BF025F9FDF7D0FECBE794F900308D4F3BB17F2B05D0F98F0A228948F5F79BFC36
:2041E000BFE7F98F85480A22F5F795FC94F90030002BB6D0EFE794F900303BB17F2B05D0AF
:2042000080481BF0B9FA01460A22E6E77D481BF0B3FA0A2201467948F5F77DFC94F9003005
:20422000002B9ED0ECE794F90030C3B17F2B16D074481BF0A1FA07EE900AF8EE677A17EE94
:20424000900AF4F723F96AA3D3E90023F4F776F941EC100B00216A48F5F744FD81E7694816
:204260001BF08AFA07EE900AF8EE677A17EE900AF4F70CF95EA3D3E90023F4F75FF941EC7A
:20428000100B5E480021F5F72DFD94F90030002B3FF467AFCCE794F9003053B17F2B08D0FF
:2042A00058481AF018FF01460A225548F5F756FC0BE054481AF00FFF0A2201464F48F5F75A
:2042C0004DFC94F90030002BEAD14F48FDF75AFD47E794F900302BB17F2B03D049481AF031
:2042E000F6FEE0E747481AF0F2FE0A2201464348F5F734FC94F90030002BE6D0EEE794F960
:2043000000302BB17F2B03D03E481AF040FECAE73C481AF03CFE0A2201463848F5F71EFCD4
:2043200094F90030002BD0D0EEE736481AF0BDFD364A374B002814BF10461846C6E794F9F3
:2043400000302BB17F2B03D02E481BF079FA5AE72C481BF075FA0A2201462848F5F7DBFB0C
:2043600094F90030002B3FF4FCAEEDE725481BF090FA284B9842014615D094F9003033B188
:204380007F2B04D00A221E48F5F7DBFBE9E61B4801910A22F5F7D5FB94F900300199002B1D
:2043A0003FF4DFAEEEE71C4890E716481AF00AFE08E794F9003053B17F2B08D011481AF088
:2043C0009BFD01460A220E48F5F7C8FBC9E60D481AF092FD0A2201460848F5F7BFFB94F93A
:2043E0000030002B3FF4BDAEE8E700BFAFF300808FC2F5285C8FF63FA0180020A8060020E0
:2044000070080020E4180020FF5B0308F25B0308F85B0308FFFF0F00035C030894F9003099
:204420002BB17F2B03D0AA481BF018FAC9E7A8481BF014FA0A220146A648F5F78FFB94F9F7
:204440000030002B3FF48DAEEDE794F900302BB17F2B03D09E481BF0A4F9D4E69C481BF072
:20446000A0F90A2201469B48F5F755FB94F90030002B3FF476AEEDE794F900302BB17F2BBB
:2044800003D093481BF094F99BE791481BF090F90A2201468F48F5F761FB94F90030002B6D
:2044A0003FF45FAEEDE794F900302BB17F2B03D087481BF007FAA6E685481BF003FA0A226A
:2044C00001468448F5F727FB94F90030002B3FF448AEEDE77E482946FEF7F0F941E67D48D7
:2044E0000921F5F74DFC94F90030002B3FF445AE3FE67948FEF732FB002E00F08D8394F98C
:204500000030002B00F0B1817F2B00F0AE8173480921FDF73EF81C2D00F26C83DFE815F050
:20452000AF016A03E201E801FE011602640282026A0398026A036A036A036A036A03AE02B9
:204540006A03B802CF026A036A03EE026A03F2020E0325033C036A03530361481AF057FFF4
:20456000FDF702FDC8E794F900305D4F3BB17F2B05D0F98F0A225948F5F7CDFABCE7F98F92
:2045800054480A22F5F7C7FA94F90030002BB3D0EFE794F900303BB17F2B05D050481BF09A
:2045A000EBF801460A22E6E74D481BF0E5F80A2201464848F5F7AFFA94F90030002B9BD070
:2045C000ECE794F90030C3B17F2B16D044481BF0D3F807EE900AF8EE677A17EE900AF3F706
:2045E00055FF39A3D3E90023F3F7A8FF41EC100B00213A48F5F776FB7EE739481BF0BCF82E
:2046000007EE900AF8EE677A17EE900AF3F73EFF2DA3D3E90023F3F791FF41EC100B2D4898
:204620000021F5F75FFB94F90030002B3FF464AFCCE794F9003053B17F2B08D028481AF075
:204640004AFD01460A222548F5F788FA0BE024481AF041FD0A2201461E48F5F77FFA94F95B
:204660000030002BEAD11F48FDF78CFB44E794F900302BB17F2B03D019481AF028FDE0E7AA
:2046800017481AF024FD0A2201461248F5F766FA94F90030002BE6D0EEE794F900302BB16B
:2046A0007F2B03D00E481AF072FCCAE70C481AF06EFC0A2201460748F5F750FA94F9003081
:2046C000002BD0D0EEE700BF8FC2F5285C8FF63FE4180020A80600206619002070080020CC
:2046E00028190020FF5B0308A9481AF0DEFBA94AA94B002814BF10461846B5E794F9003031
:204700002BB17F2B03D0A2481BF09AF849E7A0481BF096F80A220146A048F5F7FCF994F93F
:204720000030002B3FF4E8AEEDE799481BF0B1F89B4B9842014615D094F9003033B17F2BB5
:2047400004D00A229748F5F7FCF9D5E6934801910A22F5F7F6F994F900300199002B3FF4B5
:20476000CBAEEEE790487FE789481AF02BFCF7E694F9003053B17F2B08D085481AF0BCFBFD
:2047800001460A228748F5F7E9F9B5E680481AF0B3FB0A2201468148F5F7E0F994F9003030
:2047A000002B3FF4A9AEE8E794F900302BB17F2B03D077481BF052F8E2E775481BF04EF874
:2047C0000A2201467548F5F7C9F994F90030002B3FF492AEEDE794F900302BB17F2B03D0B6
:2047E0006B481AF0DEFFDCE669481AF0DAFF0A2201466A48F5F78FF994F90030002B3FF415
:204800007BAEEDE794F900302BB17F2B03D060481AF0CEFFB4E75E481AF0CAFF0A2201467F
:204820005E48F5F79BF994F90030002B3FF464AEEDE794F900302BB17F2B03D054481BF094
:2048400041F8AEE652481BF03DF80A2201465348F5F761F994F90030002B3FF44DAEEDE773
:204860004B482946FEF72AF846E64C480921F5F787FA94F90030002B3FF44DAE47E6FEF790
:204880009BF92846FEF7D8FC94F90030002B00F0B6817F2B00F0B38142480921FCF779FE52
:2048A0001C2D00F25383DFE815F0B4015103C601CC01FB0113024B02690251037F0251038C
:2048C0005103510351035103950251039F02B60251035103D5025103D902F5020C0323036A
:2048E00051033A0331481AF092FDFDF73DFBC8E794F900302D4E3BB17F2B05D0F18F0A22EB
:204900002848F5F708F9BCE7F18F24480A22F5F702F994F90030002BB3D0EFE794F900309A
:204920003BB17F2B05D021481AF026FF01460A22E6E71E481AF020FF0A2201461748F5F7E7
:20494000EAF894F90030002B9BD0ECE794F9003073B37F2B2CD015481AF00EFF07EE900AC3
:20496000F8EE677A17EE900AF3F790FD06A3D3E90023F3F7E3FD41EC100B00210948F5F762
:20498000B1F97EE7AFF300808FC2F5285C8FF63F28190020F25B0308F85B0308A806002073
:2049A000FFFF0F0070080020035C03084C170020B1481AF0E1FE07EE900AF8EE677A17EE28
:2049C000900AF3F763FDAAA3D3E90023F3F7B6FD41EC100BA9480021F5F784F994F90030AA
:2049E000002B3FF44EAFB6E794F9003053B17F2B08D0A1481AF06FFB01460A22A048F5F7D8
:204A0000ADF80BE09C481AF066FB0A2201469B48F5F7A4F894F90030002BEAD19948FDF761
:204A2000B1F92EE794F900302BB17F2B03D092481AF04DFBE0E790481AF049FB0A22014615
:204A40008E48F5F78BF894F90030002BE6D0EEE794F900302BB17F2B03D087481AF097FA1E
:204A6000CAE785481AF093FA0A2201468348F5F775F894F90030002BD0D0EEE77E481AF05D
:204A800014FA814A814B002814BF10461846C6E794F900302BB17F2B03D077481AF0D0FE68
:204AA00044E775481AF0CCFE0A2201467348F5F732F894F90030002B3FF4E3AEEDE76E48C0
:204AC0001AF0E7FE724B9842014615D094F9003033B17F2B04D00A226948F5F732F8D0E65C
:204AE000664801910A22F5F72CF894F900300199002B3FF4C6AEEEE7664890E75E481AF067
:204B000061FAF2E694F9003053B17F2B08D05A481AF0F2F901460A225948F5F71FF8B0E6DB
:204B200055481AF0E9F90A2201465448F5F716F894F90030002B3FF4A4AEE8E794F90030EA
:204B40002BB17F2B03D04C481AF088FEE2E74A481AF084FE0A2201464848F4F7FFFF94F978
:204B60000030002B3FF48DAEEDE794F900302BB17F2B03D040481AF014FED7E63E481AF091
:204B800010FE0A2201463D48F4F7C5FF94F90030002B3FF476AEEDE794F900302BB17F2B0A
:204BA00003D035481AF004FEB4E733481AF000FE0A2201463148F4F7D1FF94F90030002BEC
:204BC0003FF45FAEEDE794F900302BB17F2B03D029481AF077FEA9E627481AF073FE0A2216
:204BE00001462648F4F797FF94F90030002B3FF448AEEDE720482946FDF760FE41E61F48E3
:204C00000921F5F7BDF894F90030002B3FF448AE42E62148FEF71AF894F90030002B00F048
:204C20009A817F2B00F0978115480A21FCF7B1FC03B0BDE8F08319481AF0E9FBFDF794F9E4
:204C4000EAE794F90030154D3BB17F2B05D0E98F0A220B48F4F75FFFDEE7E98F07480A2201
:204C6000F4F759FF94F90030002BD5D0EFE700BF8FC2F5285C8FF63F4C170020A8060020F0
:204C800070080020FF5B0308F25B0308F85B0308FFFF0F00035C030812180020D417002095
:204CA00094F900303BB17F2B05D0B3481AF064FD01460A22CDE7B0481AF05EFD0A2201466F
:204CC000AE48F4F728FF94F90030002BA4D0ECE794F90030C3B17F2B16D0A7481AF04CFD9A
:204CE00007EE900AF8EE677A17EE900AF3F7CEFB9FA3D3E90023F3F721FC41EC100B00217B
:204D00009F48F4F7EFFF87E79B481AF035FD07EE900AF8EE677A17EE900AF3F7B7FB94A37E
:204D2000D3E90023F3F70AFC41EC100B93480021F4F7D8FF94F90030002B3FF46DAFCCE7B4
:204D400094F9003053B17F2B08D08B481AF0C3F901460A228A48F4F701FF0BE086481AF084
:204D6000BAF90A2201468548F4F7F8FE94F90030002BEAD18348FDF705F84DE794F900300F
:204D80002BB17F2B03D07C481AF0A1F9E0E77A481AF09DF90A2201467848F4F7DFFE94F9A1
:204DA0000030002BE6D0EEE794F900302BB17F2B03D071481AF0EBF8CAE76F481AF0E7F800
:204DC0000A2201466D48F4F7C9FE94F90030002BD0D0EEE768481AF068F86B4A6B4B0028EF
:204DE00014BF10461846C6E794F900302BB17F2B03D061481AF024FD5AE75F481AF020FD86
:204E00000A2201465D48F4F786FE94F90030002B3FF402AFEDE758481AF03BFD5C4B984208
:204E2000014615D094F9003033B17F2B04D00A225348F4F786FEEFE6504801910A22F4F7DB
:204E400080FE94F900300199002B3FF4E5AEEEE7504890E748481AF0B5F8EFE694F90030CF
:204E600053B17F2B08D044481AF046F801460A224348F4F773FECFE63F481AF03DF80A22D7
:204E800001463E48F4F76AFE94F90030002B3FF4C3AEE8E794F900302BB17F2B03D0364803
:204EA0001AF0DCFCE2E734481AF0D8FC0A2201463248F4F753FE94F90030002B3FF4ACAE4F
:204EC000EDE794F900302BB17F2B03D02A481AF068FCEDE628481AF064FC0A220146274879
:204EE000F4F719FE94F90030002B3FF495AEEDE794F900302BB17F2B03D01F481AF058FCA3
:204F0000B4E71D481AF054FC0A2201461B48F4F725FE94F90030002B3FF47EAEEDE794F9AB
:204F200000302BB17F2B03D013481AF0CBFCBFE611481AF0C7FC0A2201461048F4F7EBFD53
:204F400094F90030002B3FF467AEEDE70A482946FDF7B4FC60E609480A21F4F711FF94F99E
:204F60000030002B3FF464AE5EE600BFAFF300808FC2F5285C8FF63FD4170020A806002005
:204F800070080020FF5B0308F25B0308F85B0308FFFF0F00035C03082DE9F041924C9DF82D
:204FA0001880054617461E46002900F08A800E2863D8DFE800F008333A3E42464A4E62626B
:204FC0005262565A5E0094F90030F3B17F2B1CD086480921FCF7DDFAFDF73EFD94F900306A
:204FE000002B4FD07F2B4DD080480921FCF7D1FA0E2D00F2AD80DFE805F04E7C83878B8FEC
:205000009397ABAB9BAB9FA3A70079480921F4F7B7FE94F90030002BDED0D9E775481AF039
:2050200006F83A210FF050F9D8E772481AF020F8F7E770481AF01EFCF3E76E481AF0DBF90C
:20504000EFE76C481AF01DFCEBE76A481AF021FCE7E768481AF021FCE3E7664819F009FFCA
:20506000DFE764481AF03BF8DBE762481AF03DFAD7E7604819F075FFD3E701465D48FDF757
:2050800077FEABE75A480921F4F77AFE94F90030002BADD0A8E794F900300BB37F2B1FD0D2
:2050A00052480921FCF775FA5348FDF7F1FC94F90030002B51D07F2B4FD04C480921FCF7CB
:2050C00068FA002F67D00E2D00F2BC80DFE805F04E7C83879A9EA2A6BABAAABAAEB2B600A1
:2050E00043480921F4F74CFE94F90030002BDBD0D6E7424819F09BFF3A210FF0E5F8D6E755
:205100003E4819F0B5FFF7E73C481AF0B3FBF3E73A481AF070F9EFE738481AF0B2FBEBE784
:2051200036481AF0B6FBE7E734481AF0B6FBE3E7324819F09EFEDFE7304819F0D0FFDBE770
:205140002E481AF0D2F9D7E72C4819F00AFFD3E72A482946FDF70CFEA9E725480921F4F715
:205160000FFE94F90030002BABD0A6E794F900300BB37F2B1FD01D480921FCF70AFAFDF7A4
:20518000B5FC94F90030002B61D07F2B5FD017480921FCF7FEF9002E00F0E0800E2D00F24E
:2051A000B980DFE805F05D888F93979B9FA3B7B7A7B7ABAFB3000E480921F4F7E1FD94F9D0
:2051C0000030002BDBD0D6E70D4819F030FF3A210FF07AF8D5E70A4819F04AFFF7E7084825
:2051E0001AF048FBF3E700BFA609002070080020A8060020181800209A1800205C180020DE
:20520000A01800209A481AF0F6F8E0E798481AF038FBDCE796481AF03CFBD8E794481AF071
:205220003CFBD4E7924819F024FED0E7904819F056FFCCE78E481AF058F9C8E78C4819F01A
:2052400090FEC4E78A482946FDF792FD99E789480921F4F795FD94F90030002B9BD096E789
:2052600094F90030F3B17F2B1CD083480921FCF790F9FDF757FC94F90030002B4FD07F2BCE
:205280004DD07D480921FCF784F90E2D00F2AF80DFE805F04E7E85898D919599ADAD9DADB0
:2052A000A1A5A90073480921F4F76AFD94F90030002BDED0D9E7714819F0B9FE3A210FF09F
:2052C00003F8D8E76D4819F0D3FEF7E76B481AF0D1FAF3E769481AF08EF8EFE767481AF075
:2052E000D0FAEBE765481AF0D4FAE7E763481AF0D4FAE3E7614819F0BCFDDFE75F4819F091
:20530000EEFEDBE75D481AF0F0F8D7E75B4819F028FED3E759482946FDF72AFDABE75548A4
:205320000921F4F72DFD94F90030002BADD0A8E794F900301BB37F2B21D04F480921FCF760
:2053400028F94F48FDF70AFC94F90030002B53D07F2B51D048480921FCF71BF9B8F1000F4C
:2053600000F049810E2D00F2B980DFE805F04E798F93979B9FA3B7B7A7B7ABAFB3003D4896
:205380000921F4F7FDFC94F90030002BD9D0D4E73C4819F04CFE3A210EF096FFD4E73948B2
:2053A00019F066FEF7E737481AF064FAF3E735481AF021F8EFE733481AF063FAEBE731483E
:2053C0001AF067FAE7E72F481AF067FAE3E72D4819F04FFDDFE72B4819F081FEDBE729482A
:2053E0001AF083F8D7E7274819F0BBFDD3E725482946FDF7BDFCA7E71E480921F4F7C0FC32
:2054000094F90030002BA9D0A4E794F90030F3B17F2B1CD018480921FCF7BBF8FDF7CCFBBE
:2054200094F90030002B5ED07F2B5CD012480921FCF7AFF80E2D00F2BA80DFE805F05D8959
:205440009094989CA0A4B8B8A8B8ACB0B40009480921F4F795FC94F90030002BDED0D9E783
:20546000094819F0E4FD3A210EF02EFFD8E700BFA0180020A806002070080020E418002093
:2054800066190020281900204C170020874819F0EFFDE8E785481AF0EDF9E4E7834819F09A
:2054A000AAFFE0E781481AF0ECF9DCE77F481AF0F0F9D8E77D481AF0F0F9D4E77B4819F049
:2054C000D8FCD0E7794819F00AFECCE777481AF00CF8C8E7754819F044FDC4E77348294664
:2054E000FDF746FC9CE772480921F4F749FC94F90030002B9ED099E794F90030FBB17F2BF6
:205500001DD06C480921FCF744F86B48FDF770FB94F90030002B4FD07F2B4DD065480921DA
:20552000FCF737F80E2D00F2AA80DFE805F04E798084888C9094A8A898A89CA0A4005C481F
:205540000921F4F71DFC94F90030002BDDD0D8E75A4819F06CFD3A210EF0B6FED8E757484A
:2055600019F086FDF7E755481AF084F9F3E7534819F041FFEFE751481AF083F9EBE74F4881
:205580001AF087F9E7E74D481AF087F9E3E74B4819F06FFCDFE7494819F0A1FDDBE7474874
:2055A00019F0A3FFD7E7454819F0DBFCD3E743482946FDF7DDFBABE73D480921F4F7E0FB8E
:2055C00094F90030002BADD0A8E794F90030F3B17F2B1CD037480921FBF7DBFF3848FDF7F7
:2055E00035FB94F90030002B4ED07F2B4CD031480921FBF7CEFF94F90030002B4DD07F2B9E
:205600004BD02C480A21FBF7C4FFBDE8F08128480921F4F7B5FB94F90030002BDED0D9E77A
:20562000284819F004FD3A210EF04EFED9E7254819F01EFDF7E723481AF01CF9F3E721484F
:2056400019F0D9FEEFE71F481AF01BF9EBE71D481AF01FF9E7E71B481AF01FF9E3E7194838
:2056600019F007FCDFE7174819F039FDDBE7154819F03BFFD7E7134819F073FCD3E71148B4
:205680002946FDF775FBACE709480921F4F778FB94F90030002BAED0A9E705480A21F4F772
:2056A0006FFB94F90030002BAFD0AAE74C170020A806002070080020CE17002090170020D3
:2056C00012180020D4170020F7B50D4616461F4604464C48FCF756FB33462A4621460097AC
:2056E0000020FFF759FC4848FCF74CFB33462A46214600970120FFF74FFC4448FCF742FB70
:2057000033462A46214600970220FFF745FC4048FCF738FB33462A46214600970320FFF79B
:205720003BFC3C48FCF72EFB33462A46214600970420FFF731FC3848FCF724FB33462A46E9
:20574000214600970520FFF727FC3448FCF71AFB33462A46214600970620FFF71DFC3048F5
:20576000FCF710FB33462A46214600970720FFF713FC2C48FCF706FB33462A4621460097C9
:205780000820FFF709FC2848FCF7FCFA33462A46214600970920FFF7FFFB2448FCF7F2FA42
:2057A00033462A46214600970A20FFF7F5FB2048FCF7E8FA33462A46214600970B20FFF7AD
:2057C000EBFB1C48FCF7DEFA33462A46214600970C20FFF7E1FB1848FCF7D4FA33462A46C5
:2057E000214600970D20FFF7D7FB1448FCF7CAFA009733462A4621460E20FFF7CDFB03B01D
:20580000F0BD00BF0D5C0308075C03080F5C03081B5C0308235C03082A5C0308365C03088A
:205820003E5C0308485C0308535C03085B5C0308655C03086F5C0308785C0308835C03082D
:205840002DE9F843914C9DF82070054691469846002900F0C78094F900308BB17F2B0FD013
:205860008B480921FBF795FE0C2D00F2A980DFE805F010303F45494D5155A7A7A7A7620098
:2058800084480921F4F77CFA94F90030002BEBD0E6E7FDF7E1F894F90030002B00F0958087
:2058A0007F2B00F092807A480921FBF772FE0C2D00F24081DFE815F09300B800C700CD0057
:2058C000D100D500D900DD003E013E013E013E01F800714819F0A3FB0028DCD194F9003086
:2058E00003B37F2B1ED02A216948FBF752FED2E7694819F08BFB0028CDD0EFE7664819F0D1
:205900007CFBF8E7644819F06FFBF4E7624819F062FBF0E7604819F055FBECE75E4819F0CD
:2059200048FBE8E75B482A21F4F72AFA94F90030002BB0D0D7E7584819F013FB94F90030BE
:2059400006460BB37F2B1FD051480921FBF721FEFDF782F894F90030FBB17F2B1DD04C48CE
:205960000921FBF716FE30463A21013E0EF0ACFC033602D94948FCF705FA94F90030ABB191
:205980007F2B13D00A21AFE742480921F4F7F8F994F90030002BDBD0D6E73E480921F4F73E
:2059A000EFF994F90030002BDDD0D8E739480A21F4F7E6F994F90030002B3FF46CAFE1E737
:2059C00035482946FDF770F965E732480921F4F7D7F994F90030002B3FF469AF63E73048DE
:2059E000FDF756F8B9F1000F00F0B58094F90030002B00F0A4807F2B00F0A180244809213A
:205A0000FBF7C7FD0C2D00F23F81DFE815F0A200C600D500DB00DF00E300E700EB003D012F
:205A20003D013D013D01F8001E4819F0F8FA0028D8D194F9003003B37F2B1ED02A211448D0
:205A4000FBF7A7FDCEE7174819F0E0FA0028C9D0EFE7144819F0D1FAF8E7124819F0C4FAF2
:205A6000F4E7104819F0B7FAF0E70E4819F0AAFAECE70C4819F09DFAE8E706482A21F4F745
:205A80007FF994F90030002BACD0D7E7A609002070080020A8060020181800208F5C0308F1
:205AA0009A1800205C180020A84819F05AFA94F90030064613B37F2B20D0A5480921FBF7C1
:205AC00068FDA448FCF7E4FF94F90030FBB17F2B1DD09F480921FBF75CFD30463A21013E33
:205AE0000EF0F2FB033602D99B48FCF74BF994F90030ABB17F2B13D00A21A0E7974809212C
:205B0000F4F73EF994F90030002BDAD0D5E793480921F4F735F994F90030002BDDD0D8E7A3
:205B20008E480A21F4F72CF994F90030002B3FF459AFE1E785482946FDF7B6F852E7874883
:205B40000921F4F71DF994F90030002B3FF45AAF54E7FCF7CBFFB8F1000F00F05C8194F9EC
:205B60000030002B00F095807F2B00F0928078480921FBF70EFD0C2D00F23B81DFE815F07F
:205B80009300B300C200C800CC00D000D400D8003901390139013901F400714819F03FFA16
:205BA0000028D8D194F9003003B37F2B1ED02A216748FBF7EEFCCEE7694819F027FA00287B
:205BC000C9D0EFE7664819F018FAF8E7644819F00BFAF4E7624819F0FEF9F0E7604819F0E7
:205BE000F1F9ECE75E4819F0E4F9E8E75B482A21F4F7C6F894F90030002BACD0D7E7584834
:205C000019F0AFF994F9003006460BB37F2B1FD04F480921FBF7BDFCFCF768FF94F90030F0
:205C2000FBB17F2B1DD04A480921FBF7B2FC30463A21013E0EF048FB033602D94648FCF7DF
:205C4000A1F894F90030ABB17F2B13D00A21AFE742480921F4F794F894F90030002BDBD086
:205C6000D6E73E480921F4F78BF894F90030002BDDD0D8E739480A21F4F782F894F9003027
:205C8000002B3FF468AFE1E735482946FDF70CF861E732480921F4F773F894F90030002BB9
:205CA0003FF469AF63E7FCF73DFF94F90030002B00F0A4807F2B00F0A18025480921FBF7E0
:205CC00068FC0C2D00F24081DFE815F0A200C600D500DB00DF00E300E700EB003E013E017E
:205CE0003E013E01F8001F4819F099F90028DCD194F9003003B37F2B1ED02A211448FBF7B3
:205D000048FCD2E7174819F081F90028CDD0EFE7144819F072F9F8E7124819F065F9F4E7BE
:205D2000104819F058F9F0E70E4819F04BF9ECE70C4819F03EF9E8E708482A21F4F720F863
:205D400094F90030002BB0D0D7E700BF5C180020700800209A1800208F5C0308A80600209C
:205D6000A0180020E4180020A84819F0FAF894F9003006460BB37F2B1FD0A5480921FBF7DB
:205D800008FCFCF7CFFE94F90030FBB17F2B1DD09F480921FBF7FDFB30463A21013E0EF036
:205DA00093FA033602D99B48FBF7ECFF94F90030ABB17F2B13D00A21A0E797480921F3F737
:205DC000DFFF94F90030002BDBD0D6E792480921F3F7D6FF94F90030002BDDD0D8E78E48A8
:205DE0000A21F3F7CDFF94F90030002B3FF45DAFE1E786482946FCF757FF56E78648092118
:205E0000F3F7BEFF94F90030002B3FF45AAF54E78248FCF7A3FE002F00F0058294F90030BB
:205E2000002B00F096807F2B00F0938078480921FBF7AFFB0C2D00F23C81DFE815F09400B6
:205E4000B400C300C900CD00D100D500D9003A013A013A013A01F500714819F0E0F8002813
:205E6000D9D194F9003003B37F2B1ED02A216848FBF78FFBCFE76A4819F0C8F80028CAD003
:205E8000EFE7674819F0B9F8F8E7654819F0ACF8F4E7634819F09FF8F0E7614819F092F851
:205EA000ECE75F4819F085F8E8E75B482A21F3F767FF94F90030002BADD0D7E7584819F009
:205EC00050F894F90030064613B37F2B20D050480921FBF75EFB5148FCF740FE94F900307D
:205EE000FBB17F2B1DD04A480921FBF752FB30463A21013E0EF0E8F9033602D94548FBF7E2
:205F000041FF94F90030ABB17F2B13D00A21AEE741480921F3F734FF94F90030002BDAD079
:205F2000D5E73D480921F3F72BFF94F90030002BDDD0D8E738480A21F3F722FF94F900301B
:205F4000002B3FF468AFE1E735482946FCF7ACFE61E731480921F3F713FF94F90030002BAC
:205F60003FF468AF62E7FCF727FE94F90030002B00F0A4807F2B00F0A18025480921FBF736
:205F800008FB0C2D00F23D81DFE815F0A200C300D200D800DC00E000E400E8003B013B013A
:205FA0003B013B01F5001F4819F039F80028DCD194F9003003B37F2B1ED02A211448FBF75A
:205FC000E8FAD2E7174819F021F80028CDD0EFE7144819F012F8F8E7124819F005F8F4E781
:205FE000104818F0F8FFF0E70E4818F0EBFFECE70C4818F0DEFFE8E707482A21F3F7C0FE0E
:020000040801F1
:2060000094F90030002BB0D0D7E700BFE4180020700800208F5C0308A80600206619002084
:20602000281900204C1700209F4818F09AFF94F9003006460BB37F2B1FD09C480921FBF794
:20604000A8FAFCF7B9FD94F90030FBB17F2B1DD096480921FBF79DFA30463A21013E0EF056
:2060600033F9033602D99248FBF78CFE94F90030ABB17F2B13D00A21A0E78E480921F3F748
:206080007FFE94F90030002BDBD0D6E789480921F3F776FE94F90030002BDDD0D8E78548B9
:2060A0000A21F3F76DFE94F90030002B3FF45DAFE1E77D482946FCF7F7FD56E77D4809212A
:2060C000F3F75EFE94F90030002B3FF45AAF54E77948FCF78DFD94F90030002B00F09680EF
:2060E0007F2B00F0938071480921FBF752FA0C2D00F23081DFE815F09400A500B400BA0083
:20610000BE00C200C600CA002E012E012E012E01E8006A4818F083FF0028DCD194F90030FD
:2061200003B37F2B1ED02A216048FBF732FAD2E7624818F06BFF0028CDD0EFE75F4818F0E1
:206140005CFFF8E75D4818F04FFFF4E75B4818F042FFF0E7594818F035FFECE7574818F015
:2061600028FFE8E753482A21F3F70AFE94F90030002BB0D0D7E7514818F0F3FE94F90030DC
:20618000064613B37F2B20D048480921FBF701FA4948FCF72DFD94F90030FBB17F2B1DD0FE
:2061A00042480921FBF7F5F930463A21013E0EF08BF8033602D93E48FBF7E4FD94F9003090
:2061C000ABB17F2B13D00A21AEE73A480921F3F7D7FD94F90030002BDAD0D5E735480921B7
:2061E000F3F7CEFD94F90030002BDDD0D8E731480A21F3F7C5FD94F90030002B3FF46BAF11
:20620000E1E72E482946FCF74FFD64E729480921F3F7B6FD94F90030002B3FF468AF62E794
:206220002748FCF713FD94F90030002B00F097807F2B00F094801D480A21FBF7AAF9BDE885
:20624000F883204818F0EBFE0028ECD194F9003003B37F2B1ED02A211448FBF79AF9E2E785
:20626000184818F0D3FE0028DDD0EFE7154818F0C4FEF8E7134818F0B7FEF4E7114818F0E0
:20628000AAFEF0E70F4818F09DFEECE70D4818F090FEE8E707482A21F3F772FD94F9003048
:2062A000002BC0D0D7E700BF4C170020700800208F5C0308A8060020CE17002090170020FB
:2062C00012180020D41700202A4818F04AFE94F90030054613B37F2B20D027480921FBF7B4
:2062E00058F92648FCF7B2FC94F90030FBB17F2B1DD021480921FBF74CF928463A21013D6D
:206300000DF0E2FF033502D91D48FBF73BFD94F90030ABB17F2B13D00A219DE7194809211D
:20632000F3F72EFD94F90030002BDAD0D5E715480921F3F725FD94F90030002BDDD0D8E713
:2063400010480A21F3F71CFD94F90030002B3FF46AAFE1E707482946FCF7A6FC63E70948CD
:206360000A21F3F70DFD94F90030002B3FF467AF61E700BFD41700207008002012180020D9
:206380008F5C0308A8060020F7B504460D4616461F46B448FBF7F6FC214633462A460020DF
:2063A0000097FDF729F9B048FBF7ECFC214633462A4602200097FDF71FF9AC48FBF7E2FC85
:2063C000214633462A4603200097FDF715F9A848FBF7D8FC214633462A4604200097FDF7FC
:2063E0000BF9A448FBF7CEFC214633462A4605200097FDF701F9A048FBF7C4FC214633467D
:206400002A4606200097FDF7F7F89C48FBF7BAFC214633462A4607200097FDF7EDF8984819
:20642000FBF7B0FC214633462A4609200097FDF7E3F89448FBF7A6FC214633462A460A20F5
:206440000097FDF7D9F89048FBF79CFC214633462A460F200097FDF7CFF88C48FBF792FC59
:20646000214633462A4610200097FDF7C5F88848FBF788FC214633462A4611200097FDF702
:20648000BBF88448FBF77EFC214633462A4612200097FDF7B1F88048FBF774FC2146334651
:2064A0002A4613200097FDF7A7F87C48FBF76AFC214633462A4614200097FDF79DF878488F
:2064C000FBF760FC214633462A4615200097FDF793F87448FBF756FC214633462A4617204C
:2064E0000097FDF789F87048FBF74CFC214633462A4618200097FDF77FF86C48FBF742FC30
:20650000214633462A4619200097FDF775F86848FBF738FC214633462A461A200097FDF70F
:206520006BF86448FBF72EFC214633462A461B200097FDF761F86048FBF724FC2146334627
:206540002A461C200097FDF757F85C48FBF71AFC214633462A4600200097FFF771F9584802
:20656000FBF710FC214633462A460B200097FFF767F95448FBF706FC214633462A460820AD
:206580000097FFF75DF95048FBF7FCFB214633462A460A200097FFF753F94C48FBF7F2FBD1
:2065A000214633462A4601200097FFF749F94848FBF7E8FB214633462A4602200097FFF737
:2065C0003FF94448FBF7DEFB214633462A4603200097FFF735F94048FBF7D4FB21463346D5
:2065E0002A4604200097FFF72BF93C48FBF7CAFB214633462A4605200097FFF721F938487F
:20660000FBF7C0FB214633462A4606200097FFF717F93448FBF7B6FB214633462A46072024
:206620000097FFF70DF93048FBF7ACFB21462F4C00972A4633460C20FFF702F994F900208A
:206640003AB17F2A05D02A480A21FAF7A2FF03B0F0BD28480A21F3F793FB94F90030002B47
:20666000F5D0F0E70D5C03089F5C0308A85C0308B45C0308C05C0308CC5C0308D85C030841
:20668000E55C0308EF5C0308F95C0308015D03080D5D0308155D03081C5D0308285D030889
:2066A000305D03083B5D0308445D03084F5D0308615D03086A5D03087A5D0308865D0308D1
:2066C000905D03089A5D0308A55D0308AE5D0308B45D0308B95D0308BE5D0308C45D03080E
:2066E000CA5D0308D05D0308D45D0308A609002070080020A80600204138C3B2192B10B5C8
:206700002CD8174A1268DA4002F00100D20713D5144A1549D25CFAB1144B1C68A318A25C9B
:20672000A2F13004092C06D92E2A06D15A78303A092A88BF00230B6010BD2D2A01D02B2AC1
:2067400008D15A78A2F13004092CF4D92E2A01D19A78ECE70023EEE70A60EDE70020EBE78E
:20676000600A0020420A0020640A00203C0A002008B5FFF7C1FF20B1024B1868003818BF0F
:20678000012008BD640A0020034B186818B10A2200211DF0AFB87047640A00202DE9F74398
:2067A0004C4B1B7803F00703072B1BD14F20FFF7DFFF90B1484B1B6863B1FFF7E5FF0028E4
:2067C00010DBFFF7E1FFFF2804DCFFF7DDFF10F0FF0F07D003B0BDE8F0834F20FFF78CFF7F
:2067E0000028F7D10FF0D6FD3C4B00245C70F5F755F83B4B18603B4B0121204693F8008010
:2068000015F092FD0EF0B4FE01200EF01FFB5A20FFF772FF06465820FFF76EFF0446592030
:20682000FFF76AFF8442054604D1A64202BF0124254626465220FFF79BFF002844D0264BBF
:206840001868002843D00246914612F8017B17F0DF0136D0452F01D0652FF5D1002189F8AA
:20686000001018681CF072FF89F80070B5EE400AF1EE10FA8DED010A07D004B96DB10122EA
:206880000023114601A80EF02DFE14B100200FF0CBF815B101200FF0C7F816B102200FF078
:2068A000C3F80EF031FD0EF085FA0EF06BFE0121404615F039FD0C4B03221A700EF00CFD1D
:2068C00088E71CF043FFD1E7B1EE040ACEE79FED070ACBE7D30F0020640A002010020020D0
:2068E000280A0020D20F0020F50100200000000038B50E4B1868A8B10246154612F8014B17
:2069000014F0DF010AD0452C01D0652CF5D10021297018681CF01AFF2C7038BDBDE8384013
:206920001CF014BF9FED020AF7E700BF640A002000000000F8B502F04DFA051E65DB334EEB
:2069400044203478FFF714FF074600283FD0FFF7CFFFB5EE400AF1EE10FA05D10024347062
:20696000BDE8F8400FF066BC294BB5EEC00A03EB8505F1EE10FA85ED000A0CDDF6EE007A14
:2069800020EE270ADFED237A234A20EE000A20EE270A82ED000AD3ED007AF5EE407AD3ED7B
:2069A000017AF1EE10FA04BF1C4A1A60F5EE407AD3ED027AF1EE10FA04BF184A5A60F5EE4C
:2069C000407AF1EE10FA04BF144A9A603C465320FFF7CEFE98B1124B1B680BB90124BEE78B
:2069E000FFF7D2FE0028B9DBFFF7CEFEFF28F5DCFFF7CAFEC4B2003C18BF0124AFE75320E6
:206A0000FFF77AFE0028E9D1A9E7F8BD410A0020EC150020DB0F4940400200200000E03F61
:206A2000640A002038B502F0D5F900280FDB084D002415F8010BFFF75FFE20B1FFF758FF06
:206A4000204610F017FC0134E4B2042CF1D138BD2E5E030838B502F0BDF900280FDB084D78
:206A6000002415F8010BFFF747FE20B1FFF740FF204610F00BFC0134E4B2042CF1D138BD79
:206A80002E5E030808B5214B214A1B681A4235D04220FFF731FE40B11E4B186818B10A2291
:206AA00000211CF0ADFF1C4B18615320FFF724FE20B1FFF71DFF184B83ED100A5420FFF758
:206AC0001BFE20B1FFF714FF134B83ED110A4A20FFF712FE90B1FFF70BFFDFED107AB4EE31
:206AE000E70AF1EE10FA0ADBDFED0D7AB4EEE70AF1EE10FA03D80B4B83ED000A08BDFBF7A6
:206B000069F9BDE808400848FBF73CB9600A002002020C00640A0020501600200AD7233C01
:206B20009A99993E10160020FC5D0308294B1B6813F4682F10B524D1274C284894ED0D0AD7
:206B4000FBF7B8F994ED0E0A2548FBF7B3F994ED0F0A244C2448FBF7ADF994F900203AB148
:206B60007F2A05D0BDE8104020480A21F2F76AB91F480A21F3F704F994F90030002BF1D1E0
:206B800010BD5320FFF7F4FD30B1FFF7B1FE124B83ED0D0A83ED0F0A5020FFF7E9FD20B1BE
:206BA000FFF7A6FE0C4B83ED0D0A5220FFF7E0FD20B1FFF79DFE084B83ED0E0A5420FFF771
:206BC000D7FD0028DCD0FFF793FE034B83ED0F0AD6E700BF600A0020501600201B5E03089F
:206BE0002B5E0308A6090020735B030870080020A80600200D4B0E4893ED000A10B50D4C9D
:206C0000FBF758F994F900203AB17F2A05D0BDE8104009480A21F2F715B908480A21F3F78E
:206C2000AFF894F90030002BF1D110BD701A0020845B0308A609002070080020A80600206D
:206C400038B5264B1B68C3F340649B0114D5244B24495A7E002A3BD0234B18688318825C24
:206C6000A2F13000092806D92E2A22D15A78303A092A88BF00230B60B4B11A4B186898B11F
:206C80000246154612F8014B14F0DF0122D0452C01D0652CF5D10021297018681CF056FDF3
:206CA0002C70124B83ED000ABDE838400020FFF7A1BF2D2A01D02B2A08D15A78A2F13000E3
:206CC0000928D8D92E2A01D19A78D0E70023D2E70A60D1E71CF03AFDE3E700BF600A00208B
:206CE000420A0020640A00203C0A0020701A00202DE9F04102F06EF8041EC0F28F80582090
:206D0000FFF736FD38B1FFF7F3FD6C4A0C2303FB042383ED000A5920FFF72AFD38B1FFF782
:206D2000E7FD664A0C2303FB042383ED010A5A20FFF71EFD38B1FFF7DBFD60480C2303FBD9
:206D4000040484ED020A5E4B1B6813F0607F65D1FBF73AF85B48DFF87881584D5A4EFBF794
:206D600011F80327444698F90030002B58D07F2B56D056482021FAF70CFC94F90030002BB2
:206D800057D07F2B55D02868F1F780FB41EC100B4E480221F2F7A6FF94F90030002B56D06D
:206DA0007F2B54D049482C21FAF7F3FB94F90030002B55D07F2B53D06868F1F767FB41EC27
:206DC000100B42480221F2F78DFF94F90030002B54D07F2B52D03D482C21FAF7DAFB94F979
:206DE0000030002B53D07F2B51D0A868F1F74EFB41EC100B35480321F2F774FF7B1E13F028
:206E0000FF0705F10C05AED194F90030002B4CD07F2B4AD02D480A21FAF7BBFBBDE8F081C1
:206E200020213046F2F7ACFF94F90030002BA4D09FE72868F1F72AFB41EC100B02213046A7
:206E4000F2F750FF94F90030002BA5D09BE72C213046F2F795FF94F90030002BA6D0A1E7F5
:206E60006868F1F713FB41EC100B02213046F2F739FF94F90030002BA7D09DE72C213046A4
:206E8000F2F77EFF94F90030002BA8D0A3E7A868F1F7FCFA41EC100B03213046F2F722FFC8
:206EA00094F90030002BA9D09FE707480A21F2F767FF94F90030002BB0D0ABE710100020E8
:206EC000600A0020325E0308A806002070080020A609002038B5334C2368C3F380455B0388
:206EE00014D5314B31499A7C002A46D0304B18688318825CA2F13000092806D92E2A2DD1C0
:206F00005A78303A092A88BF00230B6045B1274B186828B10A2200211CF0ECFC254B188023
:206F20002368002B3CD1234B234CB3F900102348FAF778FF94F900300BB37F2B1FD02048A6
:206F40002521F1F77FFF94F900300BB37F2B1FD0BDE838401A480A21F1F774BF2D2A01D084
:206F60002B2A08D15A78A2F130000928CDD92E2A01D19A78C5E70023C7E70A60C6E711484E
:206F80002521F2F7FDFE94F90030002BDBD0D6E70C480A21F2F7F4FE94F90030002BD7D18D
:206FA00038BD00BF600A0020420A0020640A00203C0A00200C020020A6090020425E03088B
:206FC00070080020A8060020F8B501F003FF051E3ADB504B1B68C3F380445B0314D54E4BFB
:206FE0004E499A7C002A3FD04D4B18688318825CA2F13000092806D92E2A26D15A78303ABC
:20700000092A88BF00230B60464E7CB3434B186860B30A2200211CF06DFC00B207EE900A81
:2070200026F81500404B41489FED417AF8EEE77A03EB850300EB850567EE877A95ED007A3E
:2070400067EE877AC3ED007AF8BD2D2A01D02B2A08D15A78A2F130000928D4D92E2A01D108
:207060009A78CCE70023CEE70A60CDE7314CFAF7ABFE94F9003043B37F2B26D02E4845210F
:20708000FAF787FA94F9003005F1300733B37F2B24D029483946FAF77CFA36F915102748F6
:2070A000FAF7C0FE94F900300BB37F2B1FD022482521FAF76EFA94F900300BB37F2B1FD0F0
:2070C0000A211D48FAF765FABEE71D484521F2F757FE94F90030002BD4D0CFE71848F9B2D5
:2070E000F2F74EFE94F90030002BD6D0D1E714482521F2F745FE94F90030002BDBD0D6E7F7
:207100000F480A21F2F73CFE94F90030002B9BD0D6E700BF600A0020420A0020640A002077
:207120003C0A00203802002044020020141600200AD7233CA609002070080020465E030889
:20714000A806002010B545202DED028BFFF7D4FA002841D15020FFF7CFFA324C18B1FFF726
:20716000C7FB84ED030A4920FFF7C6FA9FED2E8A28B1FFF7BDFB20EE080A84ED040A4420E2
:20718000FFF7BAFA28B1FFF7B3FBC0EE087AC4ED057AFAF719FE94ED030A2448FAF78AFEED
:2071A00094ED040A224880EE080AFAF783FE214894ED050A204C20EE080AFAF77BFE94F968
:2071C00000201AB37F2A21D0BDEC028B1B48BDE810400A21F1F736BE194B1B68002BB9D0F8
:2071E000FFF7D2FA0028B5DBFFF7CEFAFF2804DCFFF7CAFAC0B20228ACD9FAF7EBFDBDECF3
:20720000028B1048BDE81040FAF7BCBD0E480A21F2F7B6FD94F90030002BD5D1BDEC028B49
:2072200010BD00BF6C1900200AD7233E4E5E0308525E0308565E0308A60900207008002043
:20724000640A00205A5E0308A806002038B5204C08B3FAF7B9FD1F4D1F4895ED050AFAF7FF
:2072600029FE95ED060A1D48FAF724FE95ED070A1B48FAF71FFE95ED080A1A48FAF71AFEDA
:2072800094F90030D3B17F2B18D0BDE8384016480A21F1F7D7BD94F9003033B17F2B04D0DA
:2072A00020211148F1F7CEFDD5E710482021F2F767FD94F90030002BCDD0F1E70B480A2104
:2072C000F2F75EFD94F90030002BDED138BD00BFA6090020501600206C5E03087D5B030812
:2072E000845B0308705B030870080020A80600202DE9F8432DED028B01F06CFD011E4CDBD0
:20730000284B294A1B681A4206D1BDEC028B0120BDE8F843FFF79ABF244D254FDFF894906B
:20732000DFF8948000242E46B3EE048A17F8010BFFF7E2F908B3D9F80030F3B1032C27D128
:20734000FFF7D6FAB4EEC80AF1EE10FA13D5D6ED087A96ED0C7AC7EE806AD8ED037AF8EE0D
:20736000677A27EE267A67EEA67A86ED0C7AFCEEE77AC8ED037A86ED080A0134042C05F1AC
:207380000405D3D1BDEC028BBDE8F8430FF050BFFFF7AEFA85ED050AEFE7BDEC028BBDE84C
:2073A000F88300BF600A00201000800350160020735E0308640A002030160020024A0023B1
:2073C0001370024A13707047A4090020C8010020024801220021FAF759BA00BF4B5B0308EC
:2073E000FAF7FCB82DE9F0415320FFF785F9314D28B15320FFF780F990BB00202870FAF78D
:20740000E3FC2D48FAF7BEFC2B78002B43D00024DFF8BC80294F23462A78E240D20710D5F2
:207420005E1CF6B243B197F900305BB37F2B29D023482C21F1F706FD58F82400FAF7A2FC1F
:2074400033460134052CE7D11C4C94F9002032B37F2A24D0BDE8F04119480A21F1F7F2BC06
:20746000184B1B68002BC8D0FFF78EF90028C4DBFFF78AF9FF2803DCFFF786F9C0B2BDE715
:20748000FF20BBE710482C21F2F77AFC97F90030002BD1D0CCE70D48FAF774FCD4E70A4825
:2074A0000A21F2F76DFC94F90030002BD2D1BDE8F08100BFA5090020775E0308A609002072
:2074C00070080020640A0020A80600207E5E0308A85E030801200DF091BC00200DF08EBCEE
:2074E000334B34491B68194010B558D05820FFF703F9D0B130483149B0F99230C3F30312B5
:2075000003F00F0351F822401033012202FA03F3A361B0F99030C3F3031003F00F0351F8DF
:207520002010103302FA03F38B615920FFF7E4F870B1214B214AB3F97230C3F3031103F0AC
:207540000F0352F821101033012202FA03F38B615A20FFF7D1F8D0B117481849B0F97E3089
:20756000C3F3031203F00F0351F822401033012202FA03F3A361B0F94A30C3F3031003F055
:207580000F0351F82010103302FA03F38B614520FFF7B2F850B1BDE81040FAF72BB8084820
:2075A0000CF0A6FCBDE81040FAF752B810BD00BF600A0020100080031C550308740900207B
:2075C000BC5E030870B55320FFF796F848B34B4D2B6833B3F4F762F9494B18602868E8B1E3
:2075E00003461E4613F8014B14F0DF0113D0452C01D0652CF5D10021317028681CF0A6F82B
:207600003470DFED407A404B20EE270ABCEEC00A83ED000A70BD1CF099F8F2E79FED3B0A14
:20762000EFE73B4B3B4A1B681A4263D00EF0B2FE5820FFF761F8E0B137483849B0F99230E6
:20764000C3F3031203F00F0351F82240012202FA03F3A361B0F99030C3F3031003F00F035F
:2076600051F820109A408A612D4A137823F0010313705920FFF740F890B1274B274AB3F9B9
:207680007230C3F3031103F00F0352F82110012202FA03F3224A8B61137823F0020313706B
:2076A0005A20FFF729F8E0B11B481C49B0F97E30C3F3031203F00F0351F82240012202FAEF
:2076C00003F3A361B0F94A30C3F3031003F00F0351F820109A408A61114A137823F0040381
:2076E00013704520FFF708F8002893D0BDE87040F9F7F6BFBDE870400EF022BE640A002066
:20770000280A002000007A44CC01002000000000600A0020100080031C5503087409002036
:20772000D40F002030B5444B444C93ED017AD4ED056AD4ED025AD3ED027A94ED036AD3ED10
:20774000004A94ED015A77EE255A37EE267AD4ED066A37EE866A77EEA67AD4ED046A35EE3D
:20776000245A76EEA46A89B08DED025ACDED035A8DED046ACDED056A8DED067ACDED077AAD
:20778000FAF722FB2E48FAF7FDFA2E4B1B68C3F380415B0313D52C4B2C489A7C8AB32C4B0F
:2077A0001D68AB18AA5CA2F13005092D06D92E2A18D15A78303A092A88BF0023036021B34D
:2077C000224B1B68FBB1FEF7DFFF002832DBFEF7DBFFFF2817DCFEF7D7FFC0B2003818BFD0
:2077E000012011E02D2A01D02B2A08D15A78A2F13005092DE2D92E2A01D19A78DAE7002376
:20780000DCE7026009B1012020702078FAF7A0FB104B009304AA03A902A80F4BFAF7B0FBCC
:207820000023009307AA0D4B06A905A8FAF7A8FB09B030BD0020E7E7401000201002002063
:20784000C55E0308600A0020420A0020640A00203C0A0020D37E0308D55E0308DD5E030830
:207860000EF098BD08B513F01FFA0DF02DFA0EF067FD0021084612F07DFE0021012012F026
:2078800079FE0021022012F075FE4FF47A70FAF7B5FBBDE80840024800210CF029BB00BFF4
:2078A000E55E030838B52A4B1B68C3F380445B0314D5284B28499A7C002A41D0274B1868AD
:2078C0008318825CA2F13000092806D92E2A28D15A78303A092A88BF00230B6004B3F3F726
