Archive member included to satisfy reference by file (symbol)

./build/\libSTMCore.a(uart.o)
                              ./build/./CoreSTM32F4/cores/arduino/syscalls.o (uart_debug_write)
./build/\libSTMCore.a(stm32f4xx_hal.o)
                              ./build/\libSTMCore.a(uart.o) (HAL_GetTick)
./build/\libSTMCore.a(stm32f4xx_hal_cortex.o)
                              ./build/\libSTMCore.a(stm32f4xx_hal.o) (HAL_NVIC_SetPriorityGrouping)
./build/\libSTMCore.a(stm32f4xx_hal_uart.o)
                              ./build/\libSTMCore.a(uart.o) (HAL_UART_Init)
./build/\libSTMCore.a(PeripheralPins.o)
                              ./build/\libSTMCore.a(uart.o) (PinMap_UART_RX)
./build/\libSTMCore.a(main.o)
                              c:/users/andy/.vscode/extensions/metalcode-eu.windows-arm-none-eabi-0.1.6/bin/../lib/gcc/arm-none-eabi/8.2.1/../../../../arm-none-eabi/lib/thumb/v7e-m+fp/hard/crt0.o (main)
./build/\libSTMCore.a(startup_stm32yyxx.o)
                              (Reset_Handler)
./build/\libSTMCore.a(board.o)
                              ./build/\libSTMCore.a(main.o) (init)
./build/\libSTMCore.a(hw_config.o)
                              ./build/\libSTMCore.a(board.o) (hw_config_init)
./build/\libSTMCore.a(pinmap.o)
                              ./build/\libSTMCore.a(uart.o) (pinmap_pinout)
./build/\libSTMCore.a(PortNames.o)
                              ./build/\libSTMCore.a(pinmap.o) (set_GPIO_Port_Clock)
./build/\libSTMCore.a(stm32_def.o)
                              ./build/\libSTMCore.a(pinmap.o) (_Error_Handler)
./build/\libSTMCore.a(system_stm32yyxx.o)
                              ./build/\libSTMCore.a(startup_stm32yyxx.o) (SystemInit)
./build/\libSTMCore.a(stm32f4xx_hal_dma.o)
                              ./build/\libSTMCore.a(stm32f4xx_hal_uart.o) (HAL_DMA_Start_IT)
./build/\libSTMCore.a(stm32f4xx_hal_rcc.o)
                              ./build/\libSTMCore.a(stm32f4xx_hal_uart.o) (HAL_RCC_GetPCLK1Freq)
./build/\libSTMCore.a(variant.o)
                              ./build/\libSTMCore.a(hw_config.o) (SystemClock_Config)
./build/\libSTMCore.a(dwt.o)  ./build/\libSTMCore.a(hw_config.o) (dwt_init)
./build/\libSTMCore.a(stm32f4xx_hal_gpio.o)
                              ./build/\libSTMCore.a(stm32f4xx_hal_rcc.o) (HAL_GPIO_Init)
./build/\libRRFLibraries.a(IP4String.o)
                              ./build/./RepRapFirmware/src/ObjectModel/ObjectModel.o (IP4String::IP4String(unsigned long))
./build/\libRRFLibraries.a(IPAddress.o)
                              ./build/./RepRapFirmware/src/GCodes/GCodeBuffer/BinaryParser.o (IPAddress::SetV4(unsigned char const*))
./build/\libRRFLibraries.a(NamedEnum.o)
                              ./build/./RepRapFirmware/src/GCodes/GCodeBuffer/ExpressionParser.o (NamedEnumLookup(char const*, char const* const*, unsigned int))
./build/\libRRFLibraries.a(NumericConverter.o)
                              ./build/./RepRapFirmware/src/GCodes/GCodeBuffer/ExpressionParser.o (NumericConverter::FitsInInt32() const)
./build/\libRRFLibraries.a(SafeStrtod.o)
                              ./build/./RepRapFirmware/src/GCodes/GCodes3.o (SafeStrtof(char const*, char const**))
./build/\libRRFLibraries.a(SafeVsnprintf.o)
                              ./build/./RepRapFirmware/src/bossa/Samba.o (SafeSnprintf(char*, unsigned int, char const*, ...))
./build/\libRRFLibraries.a(StringBuffer.o)
                              ./build/./RepRapFirmware/src/GCodes/GCodeBuffer/ExpressionParser.o (StringBuffer::Fix())
./build/\libRRFLibraries.a(StringFunctions.o)
                              ./build/./RepRapFirmware/src/GCodes/GCodes.o (StringEqualsIgnoreCase(char const*, char const*))
./build/\libRRFLibraries.a(StringRef.o)
                              ./build/./RepRapFirmware/src/OutputMemory.o (StringRef::strlen() const)
./build/\libRRFLibraries.a(Strnlen.o)
                              ./build/./RepRapFirmware/src/Heating/Sensors/ThermocoupleSensor31856.o (Strnlen(char const*, unsigned int))
./build/\libRRFLibraries.a(Deviation.o)
                              ./build/./RepRapFirmware/src/GCodes/GCodes4.o (Deviation::Deviation())
./build/\libRRFLibraries.a(DeviationAccumulator.o)
                              ./build/./RepRapFirmware/src/Heating/LocalHeater.o (DeviationAccumulator::DeviationAccumulator())
./build/\libRRFLibraries.a(Isqrt.o)
                              ./build/./RepRapFirmware/src/Platform.o (isqrt64(unsigned long long))
./build/\libRRFLibraries.a(RTOSIface.o)
                              ./build/./RepRapFirmware/src/Platform.o (Mutex::Create(char const*))
c:/users/andy/.vscode/extensions/metalcode-eu.windows-arm-none-eabi-0.1.6/bin/../lib/gcc/arm-none-eabi/8.2.1/../../../../arm-none-eabi/lib/thumb/v7e-m+fp/hard\libc.a(lib_a-abort.o)
                              ./build/./RepRapFirmware/src/libcpp/vterminate.o (abort)
c:/users/andy/.vscode/extensions/metalcode-eu.windows-arm-none-eabi-0.1.6/bin/../lib/gcc/arm-none-eabi/8.2.1/../../../../arm-none-eabi/lib/thumb/v7e-m+fp/hard\libc.a(lib_a-aeabi_atexit.o)
                              ./build/./RepRapFirmware/src/RepRapFirmware.o (__aeabi_atexit)
c:/users/andy/.vscode/extensions/metalcode-eu.windows-arm-none-eabi-0.1.6/bin/../lib/gcc/arm-none-eabi/8.2.1/../../../../arm-none-eabi/lib/thumb/v7e-m+fp/hard\libc.a(lib_a-cxa_atexit.o)
                              c:/users/andy/.vscode/extensions/metalcode-eu.windows-arm-none-eabi-0.1.6/bin/../lib/gcc/arm-none-eabi/8.2.1/../../../../arm-none-eabi/lib/thumb/v7e-m+fp/hard\libc.a(lib_a-aeabi_atexit.o) (__cxa_atexit)
c:/users/andy/.vscode/extensions/metalcode-eu.windows-arm-none-eabi-0.1.6/bin/../lib/gcc/arm-none-eabi/8.2.1/../../../../arm-none-eabi/lib/thumb/v7e-m+fp/hard\libc.a(lib_a-errno.o)
                              ./build/./RepRapFirmware/src/libc/nano-mallocr.o (__errno)
c:/users/andy/.vscode/extensions/metalcode-eu.windows-arm-none-eabi-0.1.6/bin/../lib/gcc/arm-none-eabi/8.2.1/../../../../arm-none-eabi/lib/thumb/v7e-m+fp/hard\libc.a(lib_a-exit.o)
                              c:/users/andy/.vscode/extensions/metalcode-eu.windows-arm-none-eabi-0.1.6/bin/../lib/gcc/arm-none-eabi/8.2.1/../../../../arm-none-eabi/lib/thumb/v7e-m+fp/hard/crt0.o (exit)
c:/users/andy/.vscode/extensions/metalcode-eu.windows-arm-none-eabi-0.1.6/bin/../lib/gcc/arm-none-eabi/8.2.1/../../../../arm-none-eabi/lib/thumb/v7e-m+fp/hard\libc.a(lib_a-gmtime_r.o)
                              ./build/./RepRapFirmware/src/Platform.o (gmtime_r)
c:/users/andy/.vscode/extensions/metalcode-eu.windows-arm-none-eabi-0.1.6/bin/../lib/gcc/arm-none-eabi/8.2.1/../../../../arm-none-eabi/lib/thumb/v7e-m+fp/hard\libc.a(lib_a-impure.o)
                              c:/users/andy/.vscode/extensions/metalcode-eu.windows-arm-none-eabi-0.1.6/bin/../lib/gcc/arm-none-eabi/8.2.1/../../../../arm-none-eabi/lib/thumb/v7e-m+fp/hard\libc.a(lib_a-exit.o) (_global_impure_ptr)
c:/users/andy/.vscode/extensions/metalcode-eu.windows-arm-none-eabi-0.1.6/bin/../lib/gcc/arm-none-eabi/8.2.1/../../../../arm-none-eabi/lib/thumb/v7e-m+fp/hard\libc.a(lib_a-init.o)
                              c:/users/andy/.vscode/extensions/metalcode-eu.windows-arm-none-eabi-0.1.6/bin/../lib/gcc/arm-none-eabi/8.2.1/../../../../arm-none-eabi/lib/thumb/v7e-m+fp/hard/crt0.o (__libc_init_array)
c:/users/andy/.vscode/extensions/metalcode-eu.windows-arm-none-eabi-0.1.6/bin/../lib/gcc/arm-none-eabi/8.2.1/../../../../arm-none-eabi/lib/thumb/v7e-m+fp/hard\libc.a(lib_a-isalpha.o)
                              ./build/./RepRapFirmware/src/GCodes/GCodeBuffer/ExpressionParser.o (isalpha)
c:/users/andy/.vscode/extensions/metalcode-eu.windows-arm-none-eabi-0.1.6/bin/../lib/gcc/arm-none-eabi/8.2.1/../../../../arm-none-eabi/lib/thumb/v7e-m+fp/hard\libc.a(lib_a-isspace.o)
                              ./build/./RepRapFirmware/src/libc/strptime.o (isspace)
c:/users/andy/.vscode/extensions/metalcode-eu.windows-arm-none-eabi-0.1.6/bin/../lib/gcc/arm-none-eabi/8.2.1/../../../../arm-none-eabi/lib/thumb/v7e-m+fp/hard\libc.a(lib_a-isxdigit.o)
                              ./build/\libRRFLibraries.a(NumericConverter.o) (isxdigit)
c:/users/andy/.vscode/extensions/metalcode-eu.windows-arm-none-eabi-0.1.6/bin/../lib/gcc/arm-none-eabi/8.2.1/../../../../arm-none-eabi/lib/thumb/v7e-m+fp/hard\libc.a(lib_a-lldiv.o)
                              ./build/\libRRFLibraries.a(SafeVsnprintf.o) (lldiv)
c:/users/andy/.vscode/extensions/metalcode-eu.windows-arm-none-eabi-0.1.6/bin/../lib/gcc/arm-none-eabi/8.2.1/../../../../arm-none-eabi/lib/thumb/v7e-m+fp/hard\libc.a(lib_a-mktime.o)
                              ./build/./RepRapFirmware/src/GCodes/GCodes3.o (mktime)
c:/users/andy/.vscode/extensions/metalcode-eu.windows-arm-none-eabi-0.1.6/bin/../lib/gcc/arm-none-eabi/8.2.1/../../../../arm-none-eabi/lib/thumb/v7e-m+fp/hard\libc.a(lib_a-reent.o)
                              ./build/./CoreSTM32F4/cores/arduino/syscalls.o (errno)
c:/users/andy/.vscode/extensions/metalcode-eu.windows-arm-none-eabi-0.1.6/bin/../lib/gcc/arm-none-eabi/8.2.1/../../../../arm-none-eabi/lib/thumb/v7e-m+fp/hard\libc.a(lib_a-signal.o)
                              c:/users/andy/.vscode/extensions/metalcode-eu.windows-arm-none-eabi-0.1.6/bin/../lib/gcc/arm-none-eabi/8.2.1/../../../../arm-none-eabi/lib/thumb/v7e-m+fp/hard\libc.a(lib_a-abort.o) (raise)
c:/users/andy/.vscode/extensions/metalcode-eu.windows-arm-none-eabi-0.1.6/bin/../lib/gcc/arm-none-eabi/8.2.1/../../../../arm-none-eabi/lib/thumb/v7e-m+fp/hard\libc.a(lib_a-signalr.o)
                              c:/users/andy/.vscode/extensions/metalcode-eu.windows-arm-none-eabi-0.1.6/bin/../lib/gcc/arm-none-eabi/8.2.1/../../../../arm-none-eabi/lib/thumb/v7e-m+fp/hard\libc.a(lib_a-signal.o) (_kill_r)
c:/users/andy/.vscode/extensions/metalcode-eu.windows-arm-none-eabi-0.1.6/bin/../lib/gcc/arm-none-eabi/8.2.1/../../../../arm-none-eabi/lib/thumb/v7e-m+fp/hard\libc.a(lib_a-strchr.o)
                              ./build/./RepRapFirmware/src/GCodes/GCodes.o (strchr)
c:/users/andy/.vscode/extensions/metalcode-eu.windows-arm-none-eabi-0.1.6/bin/../lib/gcc/arm-none-eabi/8.2.1/../../../../arm-none-eabi/lib/thumb/v7e-m+fp/hard\libc.a(lib_a-strcmp.o)
                              ./build/./RepRapFirmware/src/GCodes/GCodes2.o (strcmp)
c:/users/andy/.vscode/extensions/metalcode-eu.windows-arm-none-eabi-0.1.6/bin/../lib/gcc/arm-none-eabi/8.2.1/../../../../arm-none-eabi/lib/thumb/v7e-m+fp/hard\libc.a(lib_a-strcpy.o)
                              ./build/./RepRapFirmware/src/Storage/FileStore.o (strcpy)
c:/users/andy/.vscode/extensions/metalcode-eu.windows-arm-none-eabi-0.1.6/bin/../lib/gcc/arm-none-eabi/8.2.1/../../../../arm-none-eabi/lib/thumb/v7e-m+fp/hard\libc.a(lib_a-strlen.o)
                              ./build/./RepRapFirmware/src/OutputMemory.o (strlen)
c:/users/andy/.vscode/extensions/metalcode-eu.windows-arm-none-eabi-0.1.6/bin/../lib/gcc/arm-none-eabi/8.2.1/../../../../arm-none-eabi/lib/thumb/v7e-m+fp/hard\libc.a(lib_a-strncat.o)
                              ./build/\libRRFLibraries.a(StringFunctions.o) (strncat)
c:/users/andy/.vscode/extensions/metalcode-eu.windows-arm-none-eabi-0.1.6/bin/../lib/gcc/arm-none-eabi/8.2.1/../../../../arm-none-eabi/lib/thumb/v7e-m+fp/hard\libc.a(lib_a-strncpy.o)
                              ./build/\libRRFLibraries.a(StringFunctions.o) (strncpy)
c:/users/andy/.vscode/extensions/metalcode-eu.windows-arm-none-eabi-0.1.6/bin/../lib/gcc/arm-none-eabi/8.2.1/../../../../arm-none-eabi/lib/thumb/v7e-m+fp/hard\libc.a(lib_a-strstr.o)
                              ./build/\libRRFLibraries.a(StringRef.o) (strstr)
c:/users/andy/.vscode/extensions/metalcode-eu.windows-arm-none-eabi-0.1.6/bin/../lib/gcc/arm-none-eabi/8.2.1/../../../../arm-none-eabi/lib/thumb/v7e-m+fp/hard\libc.a(lib_a-strtoul.o)
                              ./build/\libRRFLibraries.a(SafeStrtod.o) (strtoul)
c:/users/andy/.vscode/extensions/metalcode-eu.windows-arm-none-eabi-0.1.6/bin/../lib/gcc/arm-none-eabi/8.2.1/../../../../arm-none-eabi/lib/thumb/v7e-m+fp/hard\libc.a(lib_a-tolower.o)
                              ./build/./RepRapFirmware/src/GCodes/GCodeBuffer/BinaryParser.o (tolower)
c:/users/andy/.vscode/extensions/metalcode-eu.windows-arm-none-eabi-0.1.6/bin/../lib/gcc/arm-none-eabi/8.2.1/../../../../arm-none-eabi/lib/thumb/v7e-m+fp/hard\libc.a(lib_a-toupper.o)
                              ./build/./RepRapFirmware/src/GCodes/GCodes2.o (toupper)
c:/users/andy/.vscode/extensions/metalcode-eu.windows-arm-none-eabi-0.1.6/bin/../lib/gcc/arm-none-eabi/8.2.1/../../../../arm-none-eabi/lib/thumb/v7e-m+fp/hard\libc.a(lib_a-tzcalc_limits.o)
                              c:/users/andy/.vscode/extensions/metalcode-eu.windows-arm-none-eabi-0.1.6/bin/../lib/gcc/arm-none-eabi/8.2.1/../../../../arm-none-eabi/lib/thumb/v7e-m+fp/hard\libc.a(lib_a-mktime.o) (__tzcalc_limits)
c:/users/andy/.vscode/extensions/metalcode-eu.windows-arm-none-eabi-0.1.6/bin/../lib/gcc/arm-none-eabi/8.2.1/../../../../arm-none-eabi/lib/thumb/v7e-m+fp/hard\libc.a(lib_a-tzvars.o)
                              c:/users/andy/.vscode/extensions/metalcode-eu.windows-arm-none-eabi-0.1.6/bin/../lib/gcc/arm-none-eabi/8.2.1/../../../../arm-none-eabi/lib/thumb/v7e-m+fp/hard\libc.a(lib_a-mktime.o) (_daylight)
c:/users/andy/.vscode/extensions/metalcode-eu.windows-arm-none-eabi-0.1.6/bin/../lib/gcc/arm-none-eabi/8.2.1/../../../../arm-none-eabi/lib/thumb/v7e-m+fp/hard\libc.a(lib_a-__atexit.o)
                              c:/users/andy/.vscode/extensions/metalcode-eu.windows-arm-none-eabi-0.1.6/bin/../lib/gcc/arm-none-eabi/8.2.1/../../../../arm-none-eabi/lib/thumb/v7e-m+fp/hard\libc.a(lib_a-cxa_atexit.o) (__register_exitproc)
c:/users/andy/.vscode/extensions/metalcode-eu.windows-arm-none-eabi-0.1.6/bin/../lib/gcc/arm-none-eabi/8.2.1/../../../../arm-none-eabi/lib/thumb/v7e-m+fp/hard\libc.a(lib_a-__call_atexit.o)
                              c:/users/andy/.vscode/extensions/metalcode-eu.windows-arm-none-eabi-0.1.6/bin/../lib/gcc/arm-none-eabi/8.2.1/../../../../arm-none-eabi/lib/thumb/v7e-m+fp/hard\libc.a(lib_a-exit.o) (__call_exitprocs)
c:/users/andy/.vscode/extensions/metalcode-eu.windows-arm-none-eabi-0.1.6/bin/../lib/gcc/arm-none-eabi/8.2.1/../../../../arm-none-eabi/lib/thumb/v7e-m+fp/hard\libc.a(lib_a-atexit.o)
                              c:/users/andy/.vscode/extensions/metalcode-eu.windows-arm-none-eabi-0.1.6/bin/../lib/gcc/arm-none-eabi/8.2.1/../../../../arm-none-eabi/lib/thumb/v7e-m+fp/hard\libc.a(lib_a-__call_atexit.o) (atexit)
c:/users/andy/.vscode/extensions/metalcode-eu.windows-arm-none-eabi-0.1.6/bin/../lib/gcc/arm-none-eabi/8.2.1/../../../../arm-none-eabi/lib/thumb/v7e-m+fp/hard\libc.a(lib_a-ctype_.o)
                              c:/users/andy/.vscode/extensions/metalcode-eu.windows-arm-none-eabi-0.1.6/bin/../lib/gcc/arm-none-eabi/8.2.1/../../../../arm-none-eabi/lib/thumb/v7e-m+fp/hard\libc.a(lib_a-isalpha.o) (_ctype_)
c:/users/andy/.vscode/extensions/metalcode-eu.windows-arm-none-eabi-0.1.6/bin/../lib/gcc/arm-none-eabi/8.2.1/../../../../arm-none-eabi/lib/thumb/v7e-m+fp/hard\libc.a(lib_a-div.o)
                              c:/users/andy/.vscode/extensions/metalcode-eu.windows-arm-none-eabi-0.1.6/bin/../lib/gcc/arm-none-eabi/8.2.1/../../../../arm-none-eabi/lib/thumb/v7e-m+fp/hard\libc.a(lib_a-mktime.o) (div)
c:/users/andy/.vscode/extensions/metalcode-eu.windows-arm-none-eabi-0.1.6/bin/../lib/gcc/arm-none-eabi/8.2.1/../../../../arm-none-eabi/lib/thumb/v7e-m+fp/hard\libc.a(lib_a-fini.o)
                              c:/users/andy/.vscode/extensions/metalcode-eu.windows-arm-none-eabi-0.1.6/bin/../lib/gcc/arm-none-eabi/8.2.1/../../../../arm-none-eabi/lib/thumb/v7e-m+fp/hard\libc.a(lib_a-__call_atexit.o) (__libc_fini_array)
c:/users/andy/.vscode/extensions/metalcode-eu.windows-arm-none-eabi-0.1.6/bin/../lib/gcc/arm-none-eabi/8.2.1/../../../../arm-none-eabi/lib/thumb/v7e-m+fp/hard\libc.a(lib_a-freer.o)
                              c:/users/andy/.vscode/extensions/metalcode-eu.windows-arm-none-eabi-0.1.6/bin/../lib/gcc/arm-none-eabi/8.2.1/../../../../arm-none-eabi/lib/thumb/v7e-m+fp/hard\libc.a(lib_a-reent.o) (_free_r)
c:/users/andy/.vscode/extensions/metalcode-eu.windows-arm-none-eabi-0.1.6/bin/../lib/gcc/arm-none-eabi/8.2.1/../../../../arm-none-eabi/lib/thumb/v7e-m+fp/hard\libc.a(lib_a-gettzinfo.o)
                              c:/users/andy/.vscode/extensions/metalcode-eu.windows-arm-none-eabi-0.1.6/bin/../lib/gcc/arm-none-eabi/8.2.1/../../../../arm-none-eabi/lib/thumb/v7e-m+fp/hard\libc.a(lib_a-mktime.o) (__gettzinfo)
c:/users/andy/.vscode/extensions/metalcode-eu.windows-arm-none-eabi-0.1.6/bin/../lib/gcc/arm-none-eabi/8.2.1/../../../../arm-none-eabi/lib/thumb/v7e-m+fp/hard\libc.a(lib_a-lock.o)
                              c:/users/andy/.vscode/extensions/metalcode-eu.windows-arm-none-eabi-0.1.6/bin/../lib/gcc/arm-none-eabi/8.2.1/../../../../arm-none-eabi/lib/thumb/v7e-m+fp/hard\libc.a(lib_a-__atexit.o) (__retarget_lock_acquire_recursive)
c:/users/andy/.vscode/extensions/metalcode-eu.windows-arm-none-eabi-0.1.6/bin/../lib/gcc/arm-none-eabi/8.2.1/../../../../arm-none-eabi/lib/thumb/v7e-m+fp/hard\libc.a(lib_a-mallocr.o)
                              c:/users/andy/.vscode/extensions/metalcode-eu.windows-arm-none-eabi-0.1.6/bin/../lib/gcc/arm-none-eabi/8.2.1/../../../../arm-none-eabi/lib/thumb/v7e-m+fp/hard\libc.a(lib_a-freer.o) (__malloc_sbrk_base)
c:/users/andy/.vscode/extensions/metalcode-eu.windows-arm-none-eabi-0.1.6/bin/../lib/gcc/arm-none-eabi/8.2.1/../../../../arm-none-eabi/lib/thumb/v7e-m+fp/hard\libc.a(lib_a-mlock.o)
                              c:/users/andy/.vscode/extensions/metalcode-eu.windows-arm-none-eabi-0.1.6/bin/../lib/gcc/arm-none-eabi/8.2.1/../../../../arm-none-eabi/lib/thumb/v7e-m+fp/hard\libc.a(lib_a-freer.o) (__malloc_lock)
c:/users/andy/.vscode/extensions/metalcode-eu.windows-arm-none-eabi-0.1.6/bin/../lib/gcc/arm-none-eabi/8.2.1/../../../../arm-none-eabi/lib/thumb/v7e-m+fp/hard\libc.a(lib_a-month_lengths.o)
                              c:/users/andy/.vscode/extensions/metalcode-eu.windows-arm-none-eabi-0.1.6/bin/../lib/gcc/arm-none-eabi/8.2.1/../../../../arm-none-eabi/lib/thumb/v7e-m+fp/hard\libc.a(lib_a-tzcalc_limits.o) (__month_lengths)
c:/users/andy/.vscode/extensions/metalcode-eu.windows-arm-none-eabi-0.1.6/bin/../lib/gcc/arm-none-eabi/8.2.1/../../../../arm-none-eabi/lib/thumb/v7e-m+fp/hard\libc.a(lib_a-sbrkr.o)
                              c:/users/andy/.vscode/extensions/metalcode-eu.windows-arm-none-eabi-0.1.6/bin/../lib/gcc/arm-none-eabi/8.2.1/../../../../arm-none-eabi/lib/thumb/v7e-m+fp/hard\libc.a(lib_a-freer.o) (_sbrk_r)
c:/users/andy/.vscode/extensions/metalcode-eu.windows-arm-none-eabi-0.1.6/bin/../lib/gcc/arm-none-eabi/8.2.1/../../../../arm-none-eabi/lib/thumb/v7e-m+fp/hard\libc.a(lib_a-strnlen.o)
                              c:/users/andy/.vscode/extensions/metalcode-eu.windows-arm-none-eabi-0.1.6/bin/../lib/gcc/arm-none-eabi/8.2.1/../../../../arm-none-eabi/lib/thumb/v7e-m+fp/hard\libc.a(lib_a-strstr.o) (strnlen)
c:/users/andy/.vscode/extensions/metalcode-eu.windows-arm-none-eabi-0.1.6/bin/../lib/gcc/arm-none-eabi/8.2.1/../../../../arm-none-eabi/lib/thumb/v7e-m+fp/hard\libm.a(lib_a-s_llrint.o)
                              ./build/\libRRFLibraries.a(SafeVsnprintf.o) (llrint)
c:/users/andy/.vscode/extensions/metalcode-eu.windows-arm-none-eabi-0.1.6/bin/../lib/gcc/arm-none-eabi/8.2.1/../../../../arm-none-eabi/lib/thumb/v7e-m+fp/hard\libm.a(lib_a-sf_atan.o)
                              ./build/./RepRapFirmware/src/GCodes/GCodes2.o (atanf)
c:/users/andy/.vscode/extensions/metalcode-eu.windows-arm-none-eabi-0.1.6/bin/../lib/gcc/arm-none-eabi/8.2.1/../../../../arm-none-eabi/lib/thumb/v7e-m+fp/hard\libm.a(lib_a-sf_cos.o)
                              ./build/./RepRapFirmware/src/RepRap.o (cosf)
c:/users/andy/.vscode/extensions/metalcode-eu.windows-arm-none-eabi-0.1.6/bin/../lib/gcc/arm-none-eabi/8.2.1/../../../../arm-none-eabi/lib/thumb/v7e-m+fp/hard\libm.a(lib_a-sf_fabs.o)
                              c:/users/andy/.vscode/extensions/metalcode-eu.windows-arm-none-eabi-0.1.6/bin/../lib/gcc/arm-none-eabi/8.2.1/../../../../arm-none-eabi/lib/thumb/v7e-m+fp/hard\libm.a(lib_a-sf_atan.o) (fabsf)
c:/users/andy/.vscode/extensions/metalcode-eu.windows-arm-none-eabi-0.1.6/bin/../lib/gcc/arm-none-eabi/8.2.1/../../../../arm-none-eabi/lib/thumb/v7e-m+fp/hard\libm.a(lib_a-sf_floor.o)
                              ./build/./RepRapFirmware/src/GCodes/GCodes.o (floorf)
c:/users/andy/.vscode/extensions/metalcode-eu.windows-arm-none-eabi-0.1.6/bin/../lib/gcc/arm-none-eabi/8.2.1/../../../../arm-none-eabi/lib/thumb/v7e-m+fp/hard\libm.a(lib_a-sf_lrint.o)
                              ./build/./RepRapFirmware/src/Platform.o (lrintf)
c:/users/andy/.vscode/extensions/metalcode-eu.windows-arm-none-eabi-0.1.6/bin/../lib/gcc/arm-none-eabi/8.2.1/../../../../arm-none-eabi/lib/thumb/v7e-m+fp/hard\libm.a(lib_a-sf_round.o)
                              ./build/./RepRapFirmware/src/RepRap.o (roundf)
c:/users/andy/.vscode/extensions/metalcode-eu.windows-arm-none-eabi-0.1.6/bin/../lib/gcc/arm-none-eabi/8.2.1/../../../../arm-none-eabi/lib/thumb/v7e-m+fp/hard\libm.a(lib_a-sf_sin.o)
                              ./build/./RepRapFirmware/src/RepRap.o (sinf)
c:/users/andy/.vscode/extensions/metalcode-eu.windows-arm-none-eabi-0.1.6/bin/../lib/gcc/arm-none-eabi/8.2.1/../../../../arm-none-eabi/lib/thumb/v7e-m+fp/hard\libm.a(lib_a-sf_tan.o)
                              ./build/./RepRapFirmware/src/GCodes/GCodeBuffer/ExpressionParser.o (tanf)
c:/users/andy/.vscode/extensions/metalcode-eu.windows-arm-none-eabi-0.1.6/bin/../lib/gcc/arm-none-eabi/8.2.1/../../../../arm-none-eabi/lib/thumb/v7e-m+fp/hard\libm.a(lib_a-w_pow.o)
                              ./build/\libRRFLibraries.a(NumericConverter.o) (pow)
c:/users/andy/.vscode/extensions/metalcode-eu.windows-arm-none-eabi-0.1.6/bin/../lib/gcc/arm-none-eabi/8.2.1/../../../../arm-none-eabi/lib/thumb/v7e-m+fp/hard\libm.a(lib_a-wf_acos.o)
                              ./build/./RepRapFirmware/src/GCodes/GCodeBuffer/ExpressionParser.o (acosf)
c:/users/andy/.vscode/extensions/metalcode-eu.windows-arm-none-eabi-0.1.6/bin/../lib/gcc/arm-none-eabi/8.2.1/../../../../arm-none-eabi/lib/thumb/v7e-m+fp/hard\libm.a(lib_a-wf_asin.o)
                              ./build/./RepRapFirmware/src/GCodes/GCodeBuffer/ExpressionParser.o (asinf)
c:/users/andy/.vscode/extensions/metalcode-eu.windows-arm-none-eabi-0.1.6/bin/../lib/gcc/arm-none-eabi/8.2.1/../../../../arm-none-eabi/lib/thumb/v7e-m+fp/hard\libm.a(lib_a-wf_atan2.o)
                              ./build/./RepRapFirmware/src/GCodes/GCodes.o (atan2f)
c:/users/andy/.vscode/extensions/metalcode-eu.windows-arm-none-eabi-0.1.6/bin/../lib/gcc/arm-none-eabi/8.2.1/../../../../arm-none-eabi/lib/thumb/v7e-m+fp/hard\libm.a(lib_a-wf_fmod.o)
                              ./build/./RepRapFirmware/src/GCodes/GCodeBuffer/ExpressionParser.o (fmodf)
c:/users/andy/.vscode/extensions/metalcode-eu.windows-arm-none-eabi-0.1.6/bin/../lib/gcc/arm-none-eabi/8.2.1/../../../../arm-none-eabi/lib/thumb/v7e-m+fp/hard\libm.a(lib_a-wf_log.o)
                              ./build/./RepRapFirmware/src/Heating/Sensors/Thermistor.o (logf)
c:/users/andy/.vscode/extensions/metalcode-eu.windows-arm-none-eabi-0.1.6/bin/../lib/gcc/arm-none-eabi/8.2.1/../../../../arm-none-eabi/lib/thumb/v7e-m+fp/hard\libm.a(lib_a-wf_pow.o)
                              ./build/./RepRapFirmware/src/Heating/FOPDT.o (powf)
c:/users/andy/.vscode/extensions/metalcode-eu.windows-arm-none-eabi-0.1.6/bin/../lib/gcc/arm-none-eabi/8.2.1/../../../../arm-none-eabi/lib/thumb/v7e-m+fp/hard\libm.a(lib_a-wf_sqrt.o)
                              ./build/./RepRapFirmware/src/GCodes/GCodes.o (sqrtf)
c:/users/andy/.vscode/extensions/metalcode-eu.windows-arm-none-eabi-0.1.6/bin/../lib/gcc/arm-none-eabi/8.2.1/../../../../arm-none-eabi/lib/thumb/v7e-m+fp/hard\libm.a(lib_a-e_pow.o)
                              c:/users/andy/.vscode/extensions/metalcode-eu.windows-arm-none-eabi-0.1.6/bin/../lib/gcc/arm-none-eabi/8.2.1/../../../../arm-none-eabi/lib/thumb/v7e-m+fp/hard\libm.a(lib_a-w_pow.o) (__ieee754_pow)
c:/users/andy/.vscode/extensions/metalcode-eu.windows-arm-none-eabi-0.1.6/bin/../lib/gcc/arm-none-eabi/8.2.1/../../../../arm-none-eabi/lib/thumb/v7e-m+fp/hard\libm.a(lib_a-e_sqrt.o)
                              c:/users/andy/.vscode/extensions/metalcode-eu.windows-arm-none-eabi-0.1.6/bin/../lib/gcc/arm-none-eabi/8.2.1/../../../../arm-none-eabi/lib/thumb/v7e-m+fp/hard\libm.a(lib_a-e_pow.o) (__ieee754_sqrt)
c:/users/andy/.vscode/extensions/metalcode-eu.windows-arm-none-eabi-0.1.6/bin/../lib/gcc/arm-none-eabi/8.2.1/../../../../arm-none-eabi/lib/thumb/v7e-m+fp/hard\libm.a(lib_a-ef_acos.o)
                              c:/users/andy/.vscode/extensions/metalcode-eu.windows-arm-none-eabi-0.1.6/bin/../lib/gcc/arm-none-eabi/8.2.1/../../../../arm-none-eabi/lib/thumb/v7e-m+fp/hard\libm.a(lib_a-wf_acos.o) (__ieee754_acosf)
c:/users/andy/.vscode/extensions/metalcode-eu.windows-arm-none-eabi-0.1.6/bin/../lib/gcc/arm-none-eabi/8.2.1/../../../../arm-none-eabi/lib/thumb/v7e-m+fp/hard\libm.a(lib_a-ef_asin.o)
                              c:/users/andy/.vscode/extensions/metalcode-eu.windows-arm-none-eabi-0.1.6/bin/../lib/gcc/arm-none-eabi/8.2.1/../../../../arm-none-eabi/lib/thumb/v7e-m+fp/hard\libm.a(lib_a-wf_asin.o) (__ieee754_asinf)
c:/users/andy/.vscode/extensions/metalcode-eu.windows-arm-none-eabi-0.1.6/bin/../lib/gcc/arm-none-eabi/8.2.1/../../../../arm-none-eabi/lib/thumb/v7e-m+fp/hard\libm.a(lib_a-ef_atan2.o)
                              c:/users/andy/.vscode/extensions/metalcode-eu.windows-arm-none-eabi-0.1.6/bin/../lib/gcc/arm-none-eabi/8.2.1/../../../../arm-none-eabi/lib/thumb/v7e-m+fp/hard\libm.a(lib_a-wf_atan2.o) (__ieee754_atan2f)
c:/users/andy/.vscode/extensions/metalcode-eu.windows-arm-none-eabi-0.1.6/bin/../lib/gcc/arm-none-eabi/8.2.1/../../../../arm-none-eabi/lib/thumb/v7e-m+fp/hard\libm.a(lib_a-ef_fmod.o)
                              c:/users/andy/.vscode/extensions/metalcode-eu.windows-arm-none-eabi-0.1.6/bin/../lib/gcc/arm-none-eabi/8.2.1/../../../../arm-none-eabi/lib/thumb/v7e-m+fp/hard\libm.a(lib_a-wf_fmod.o) (__ieee754_fmodf)
c:/users/andy/.vscode/extensions/metalcode-eu.windows-arm-none-eabi-0.1.6/bin/../lib/gcc/arm-none-eabi/8.2.1/../../../../arm-none-eabi/lib/thumb/v7e-m+fp/hard\libm.a(lib_a-ef_log.o)
                              c:/users/andy/.vscode/extensions/metalcode-eu.windows-arm-none-eabi-0.1.6/bin/../lib/gcc/arm-none-eabi/8.2.1/../../../../arm-none-eabi/lib/thumb/v7e-m+fp/hard\libm.a(lib_a-wf_log.o) (__ieee754_logf)
c:/users/andy/.vscode/extensions/metalcode-eu.windows-arm-none-eabi-0.1.6/bin/../lib/gcc/arm-none-eabi/8.2.1/../../../../arm-none-eabi/lib/thumb/v7e-m+fp/hard\libm.a(lib_a-ef_pow.o)
                              c:/users/andy/.vscode/extensions/metalcode-eu.windows-arm-none-eabi-0.1.6/bin/../lib/gcc/arm-none-eabi/8.2.1/../../../../arm-none-eabi/lib/thumb/v7e-m+fp/hard\libm.a(lib_a-wf_pow.o) (__ieee754_powf)
c:/users/andy/.vscode/extensions/metalcode-eu.windows-arm-none-eabi-0.1.6/bin/../lib/gcc/arm-none-eabi/8.2.1/../../../../arm-none-eabi/lib/thumb/v7e-m+fp/hard\libm.a(lib_a-ef_rem_pio2.o)
                              c:/users/andy/.vscode/extensions/metalcode-eu.windows-arm-none-eabi-0.1.6/bin/../lib/gcc/arm-none-eabi/8.2.1/../../../../arm-none-eabi/lib/thumb/v7e-m+fp/hard\libm.a(lib_a-sf_cos.o) (__ieee754_rem_pio2f)
c:/users/andy/.vscode/extensions/metalcode-eu.windows-arm-none-eabi-0.1.6/bin/../lib/gcc/arm-none-eabi/8.2.1/../../../../arm-none-eabi/lib/thumb/v7e-m+fp/hard\libm.a(lib_a-ef_sqrt.o)
                              c:/users/andy/.vscode/extensions/metalcode-eu.windows-arm-none-eabi-0.1.6/bin/../lib/gcc/arm-none-eabi/8.2.1/../../../../arm-none-eabi/lib/thumb/v7e-m+fp/hard\libm.a(lib_a-wf_sqrt.o) (__ieee754_sqrtf)
c:/users/andy/.vscode/extensions/metalcode-eu.windows-arm-none-eabi-0.1.6/bin/../lib/gcc/arm-none-eabi/8.2.1/../../../../arm-none-eabi/lib/thumb/v7e-m+fp/hard\libm.a(lib_a-kf_cos.o)
                              c:/users/andy/.vscode/extensions/metalcode-eu.windows-arm-none-eabi-0.1.6/bin/../lib/gcc/arm-none-eabi/8.2.1/../../../../arm-none-eabi/lib/thumb/v7e-m+fp/hard\libm.a(lib_a-sf_cos.o) (__kernel_cosf)
c:/users/andy/.vscode/extensions/metalcode-eu.windows-arm-none-eabi-0.1.6/bin/../lib/gcc/arm-none-eabi/8.2.1/../../../../arm-none-eabi/lib/thumb/v7e-m+fp/hard\libm.a(lib_a-kf_rem_pio2.o)
                              c:/users/andy/.vscode/extensions/metalcode-eu.windows-arm-none-eabi-0.1.6/bin/../lib/gcc/arm-none-eabi/8.2.1/../../../../arm-none-eabi/lib/thumb/v7e-m+fp/hard\libm.a(lib_a-ef_rem_pio2.o) (__kernel_rem_pio2f)
c:/users/andy/.vscode/extensions/metalcode-eu.windows-arm-none-eabi-0.1.6/bin/../lib/gcc/arm-none-eabi/8.2.1/../../../../arm-none-eabi/lib/thumb/v7e-m+fp/hard\libm.a(lib_a-kf_sin.o)
                              c:/users/andy/.vscode/extensions/metalcode-eu.windows-arm-none-eabi-0.1.6/bin/../lib/gcc/arm-none-eabi/8.2.1/../../../../arm-none-eabi/lib/thumb/v7e-m+fp/hard\libm.a(lib_a-sf_cos.o) (__kernel_sinf)
c:/users/andy/.vscode/extensions/metalcode-eu.windows-arm-none-eabi-0.1.6/bin/../lib/gcc/arm-none-eabi/8.2.1/../../../../arm-none-eabi/lib/thumb/v7e-m+fp/hard\libm.a(lib_a-kf_tan.o)
                              c:/users/andy/.vscode/extensions/metalcode-eu.windows-arm-none-eabi-0.1.6/bin/../lib/gcc/arm-none-eabi/8.2.1/../../../../arm-none-eabi/lib/thumb/v7e-m+fp/hard\libm.a(lib_a-sf_tan.o) (__kernel_tanf)
c:/users/andy/.vscode/extensions/metalcode-eu.windows-arm-none-eabi-0.1.6/bin/../lib/gcc/arm-none-eabi/8.2.1/../../../../arm-none-eabi/lib/thumb/v7e-m+fp/hard\libm.a(lib_a-s_fabs.o)
                              c:/users/andy/.vscode/extensions/metalcode-eu.windows-arm-none-eabi-0.1.6/bin/../lib/gcc/arm-none-eabi/8.2.1/../../../../arm-none-eabi/lib/thumb/v7e-m+fp/hard\libm.a(lib_a-e_pow.o) (fabs)
c:/users/andy/.vscode/extensions/metalcode-eu.windows-arm-none-eabi-0.1.6/bin/../lib/gcc/arm-none-eabi/8.2.1/../../../../arm-none-eabi/lib/thumb/v7e-m+fp/hard\libm.a(lib_a-s_finite.o)
                              c:/users/andy/.vscode/extensions/metalcode-eu.windows-arm-none-eabi-0.1.6/bin/../lib/gcc/arm-none-eabi/8.2.1/../../../../arm-none-eabi/lib/thumb/v7e-m+fp/hard\libm.a(lib_a-w_pow.o) (finite)
c:/users/andy/.vscode/extensions/metalcode-eu.windows-arm-none-eabi-0.1.6/bin/../lib/gcc/arm-none-eabi/8.2.1/../../../../arm-none-eabi/lib/thumb/v7e-m+fp/hard\libm.a(lib_a-s_lib_ver.o)
                              c:/users/andy/.vscode/extensions/metalcode-eu.windows-arm-none-eabi-0.1.6/bin/../lib/gcc/arm-none-eabi/8.2.1/../../../../arm-none-eabi/lib/thumb/v7e-m+fp/hard\libm.a(lib_a-w_pow.o) (__fdlib_version)
c:/users/andy/.vscode/extensions/metalcode-eu.windows-arm-none-eabi-0.1.6/bin/../lib/gcc/arm-none-eabi/8.2.1/../../../../arm-none-eabi/lib/thumb/v7e-m+fp/hard\libm.a(lib_a-s_matherr.o)
                              c:/users/andy/.vscode/extensions/metalcode-eu.windows-arm-none-eabi-0.1.6/bin/../lib/gcc/arm-none-eabi/8.2.1/../../../../arm-none-eabi/lib/thumb/v7e-m+fp/hard\libm.a(lib_a-w_pow.o) (matherr)
c:/users/andy/.vscode/extensions/metalcode-eu.windows-arm-none-eabi-0.1.6/bin/../lib/gcc/arm-none-eabi/8.2.1/../../../../arm-none-eabi/lib/thumb/v7e-m+fp/hard\libm.a(lib_a-s_nan.o)
                              c:/users/andy/.vscode/extensions/metalcode-eu.windows-arm-none-eabi-0.1.6/bin/../lib/gcc/arm-none-eabi/8.2.1/../../../../arm-none-eabi/lib/thumb/v7e-m+fp/hard\libm.a(lib_a-wf_acos.o) (nan)
c:/users/andy/.vscode/extensions/metalcode-eu.windows-arm-none-eabi-0.1.6/bin/../lib/gcc/arm-none-eabi/8.2.1/../../../../arm-none-eabi/lib/thumb/v7e-m+fp/hard\libm.a(lib_a-s_rint.o)
                              c:/users/andy/.vscode/extensions/metalcode-eu.windows-arm-none-eabi-0.1.6/bin/../lib/gcc/arm-none-eabi/8.2.1/../../../../arm-none-eabi/lib/thumb/v7e-m+fp/hard\libm.a(lib_a-w_pow.o) (rint)
c:/users/andy/.vscode/extensions/metalcode-eu.windows-arm-none-eabi-0.1.6/bin/../lib/gcc/arm-none-eabi/8.2.1/../../../../arm-none-eabi/lib/thumb/v7e-m+fp/hard\libm.a(lib_a-s_scalbn.o)
                              c:/users/andy/.vscode/extensions/metalcode-eu.windows-arm-none-eabi-0.1.6/bin/../lib/gcc/arm-none-eabi/8.2.1/../../../../arm-none-eabi/lib/thumb/v7e-m+fp/hard\libm.a(lib_a-e_pow.o) (scalbn)
c:/users/andy/.vscode/extensions/metalcode-eu.windows-arm-none-eabi-0.1.6/bin/../lib/gcc/arm-none-eabi/8.2.1/../../../../arm-none-eabi/lib/thumb/v7e-m+fp/hard\libm.a(lib_a-sf_finite.o)
                              c:/users/andy/.vscode/extensions/metalcode-eu.windows-arm-none-eabi-0.1.6/bin/../lib/gcc/arm-none-eabi/8.2.1/../../../../arm-none-eabi/lib/thumb/v7e-m+fp/hard\libm.a(lib_a-wf_pow.o) (finitef)
c:/users/andy/.vscode/extensions/metalcode-eu.windows-arm-none-eabi-0.1.6/bin/../lib/gcc/arm-none-eabi/8.2.1/../../../../arm-none-eabi/lib/thumb/v7e-m+fp/hard\libm.a(lib_a-sf_nan.o)
                              c:/users/andy/.vscode/extensions/metalcode-eu.windows-arm-none-eabi-0.1.6/bin/../lib/gcc/arm-none-eabi/8.2.1/../../../../arm-none-eabi/lib/thumb/v7e-m+fp/hard\libm.a(lib_a-ef_pow.o) (nanf)
c:/users/andy/.vscode/extensions/metalcode-eu.windows-arm-none-eabi-0.1.6/bin/../lib/gcc/arm-none-eabi/8.2.1/../../../../arm-none-eabi/lib/thumb/v7e-m+fp/hard\libm.a(lib_a-sf_rint.o)
                              c:/users/andy/.vscode/extensions/metalcode-eu.windows-arm-none-eabi-0.1.6/bin/../lib/gcc/arm-none-eabi/8.2.1/../../../../arm-none-eabi/lib/thumb/v7e-m+fp/hard\libm.a(lib_a-wf_pow.o) (rintf)
c:/users/andy/.vscode/extensions/metalcode-eu.windows-arm-none-eabi-0.1.6/bin/../lib/gcc/arm-none-eabi/8.2.1/../../../../arm-none-eabi/lib/thumb/v7e-m+fp/hard\libm.a(lib_a-sf_scalbn.o)
                              c:/users/andy/.vscode/extensions/metalcode-eu.windows-arm-none-eabi-0.1.6/bin/../lib/gcc/arm-none-eabi/8.2.1/../../../../arm-none-eabi/lib/thumb/v7e-m+fp/hard\libm.a(lib_a-ef_pow.o) (scalbnf)
c:/users/andy/.vscode/extensions/metalcode-eu.windows-arm-none-eabi-0.1.6/bin/../lib/gcc/arm-none-eabi/8.2.1/thumb/v7e-m+fp/hard\libgcc.a(_arm_addsubdf3.o)
                              c:/users/andy/.vscode/extensions/metalcode-eu.windows-arm-none-eabi-0.1.6/bin/../lib/gcc/arm-none-eabi/8.2.1/../../../../arm-none-eabi/lib/thumb/v7e-m+fp/hard\libm.a(lib_a-s_llrint.o) (__aeabi_dsub)
c:/users/andy/.vscode/extensions/metalcode-eu.windows-arm-none-eabi-0.1.6/bin/../lib/gcc/arm-none-eabi/8.2.1/thumb/v7e-m+fp/hard\libgcc.a(_arm_muldivdf3.o)
                              ./build/./RepRapFirmware/src/Movement/DriveMovement.o (__aeabi_dmul)
c:/users/andy/.vscode/extensions/metalcode-eu.windows-arm-none-eabi-0.1.6/bin/../lib/gcc/arm-none-eabi/8.2.1/thumb/v7e-m+fp/hard\libgcc.a(_arm_cmpdf2.o)
                              ./build/\libRRFLibraries.a(SafeVsnprintf.o) (__aeabi_dcmpeq)
c:/users/andy/.vscode/extensions/metalcode-eu.windows-arm-none-eabi-0.1.6/bin/../lib/gcc/arm-none-eabi/8.2.1/thumb/v7e-m+fp/hard\libgcc.a(_arm_unorddf2.o)
                              ./build/\libRRFLibraries.a(SafeVsnprintf.o) (__aeabi_dcmpun)
c:/users/andy/.vscode/extensions/metalcode-eu.windows-arm-none-eabi-0.1.6/bin/../lib/gcc/arm-none-eabi/8.2.1/thumb/v7e-m+fp/hard\libgcc.a(_arm_truncdfsf2.o)
                              ./build/./RepRapFirmware/src/Movement/BedProbing/Grid.o (__aeabi_d2f)
c:/users/andy/.vscode/extensions/metalcode-eu.windows-arm-none-eabi-0.1.6/bin/../lib/gcc/arm-none-eabi/8.2.1/thumb/v7e-m+fp/hard\libgcc.a(_arm_addsubsf3.o)
                              ./build/./RepRapFirmware/src/PrintMonitor.o (__aeabi_ul2f)
c:/users/andy/.vscode/extensions/metalcode-eu.windows-arm-none-eabi-0.1.6/bin/../lib/gcc/arm-none-eabi/8.2.1/thumb/v7e-m+fp/hard\libgcc.a(_aeabi_ldivmod.o)
                              ./build/\libSTMCore.a(stm32f4xx_hal_rcc.o) (__aeabi_ldivmod)
c:/users/andy/.vscode/extensions/metalcode-eu.windows-arm-none-eabi-0.1.6/bin/../lib/gcc/arm-none-eabi/8.2.1/thumb/v7e-m+fp/hard\libgcc.a(_aeabi_uldivmod.o)
                              ./build/\libSTMCore.a(stm32f4xx_hal_rcc.o) (__aeabi_uldivmod)
c:/users/andy/.vscode/extensions/metalcode-eu.windows-arm-none-eabi-0.1.6/bin/../lib/gcc/arm-none-eabi/8.2.1/thumb/v7e-m+fp/hard\libgcc.a(_ctzdi2.o)
                              ./build/./RepRapFirmware/src/ObjectModel/ObjectModel.o (__ctzdi2)
c:/users/andy/.vscode/extensions/metalcode-eu.windows-arm-none-eabi-0.1.6/bin/../lib/gcc/arm-none-eabi/8.2.1/thumb/v7e-m+fp/hard\libgcc.a(_fixsfdi.o)
                              ./build/./RepRapFirmware/src/Movement/DriveMovement.o (__aeabi_f2lz)
c:/users/andy/.vscode/extensions/metalcode-eu.windows-arm-none-eabi-0.1.6/bin/../lib/gcc/arm-none-eabi/8.2.1/thumb/v7e-m+fp/hard\libgcc.a(_fixdfdi.o)
                              c:/users/andy/.vscode/extensions/metalcode-eu.windows-arm-none-eabi-0.1.6/bin/../lib/gcc/arm-none-eabi/8.2.1/../../../../arm-none-eabi/lib/thumb/v7e-m+fp/hard\libm.a(lib_a-s_llrint.o) (__aeabi_d2lz)
c:/users/andy/.vscode/extensions/metalcode-eu.windows-arm-none-eabi-0.1.6/bin/../lib/gcc/arm-none-eabi/8.2.1/thumb/v7e-m+fp/hard\libgcc.a(_fixunssfdi.o)
                              ./build/./RepRapFirmware/src/Movement/DriveMovement.o (__aeabi_f2ulz)
c:/users/andy/.vscode/extensions/metalcode-eu.windows-arm-none-eabi-0.1.6/bin/../lib/gcc/arm-none-eabi/8.2.1/thumb/v7e-m+fp/hard\libgcc.a(_fixunsdfdi.o)
                              ./build/./RepRapFirmware/src/Movement/DriveMovement.o (__aeabi_d2ulz)
c:/users/andy/.vscode/extensions/metalcode-eu.windows-arm-none-eabi-0.1.6/bin/../lib/gcc/arm-none-eabi/8.2.1/thumb/v7e-m+fp/hard\libgcc.a(_udivmoddi4.o)
                              c:/users/andy/.vscode/extensions/metalcode-eu.windows-arm-none-eabi-0.1.6/bin/../lib/gcc/arm-none-eabi/8.2.1/thumb/v7e-m+fp/hard\libgcc.a(_aeabi_ldivmod.o) (__udivmoddi4)
c:/users/andy/.vscode/extensions/metalcode-eu.windows-arm-none-eabi-0.1.6/bin/../lib/gcc/arm-none-eabi/8.2.1/thumb/v7e-m+fp/hard\libgcc.a(unwind-arm.o)
                              ./build/./RepRapFirmware/src/Platform.o (__aeabi_unwind_cpp_pr0)
c:/users/andy/.vscode/extensions/metalcode-eu.windows-arm-none-eabi-0.1.6/bin/../lib/gcc/arm-none-eabi/8.2.1/thumb/v7e-m+fp/hard\libgcc.a(libunwind.o)
                              c:/users/andy/.vscode/extensions/metalcode-eu.windows-arm-none-eabi-0.1.6/bin/../lib/gcc/arm-none-eabi/8.2.1/thumb/v7e-m+fp/hard\libgcc.a(unwind-arm.o) (restore_core_regs)
c:/users/andy/.vscode/extensions/metalcode-eu.windows-arm-none-eabi-0.1.6/bin/../lib/gcc/arm-none-eabi/8.2.1/thumb/v7e-m+fp/hard\libgcc.a(pr-support.o)
                              c:/users/andy/.vscode/extensions/metalcode-eu.windows-arm-none-eabi-0.1.6/bin/../lib/gcc/arm-none-eabi/8.2.1/thumb/v7e-m+fp/hard\libgcc.a(unwind-arm.o) (__gnu_unwind_execute)
c:/users/andy/.vscode/extensions/metalcode-eu.windows-arm-none-eabi-0.1.6/bin/../lib/gcc/arm-none-eabi/8.2.1/thumb/v7e-m+fp/hard\libgcc.a(_dvmd_tls.o)
                              c:/users/andy/.vscode/extensions/metalcode-eu.windows-arm-none-eabi-0.1.6/bin/../lib/gcc/arm-none-eabi/8.2.1/thumb/v7e-m+fp/hard\libgcc.a(_aeabi_ldivmod.o) (__aeabi_ldiv0)
c:/users/andy/.vscode/extensions/metalcode-eu.windows-arm-none-eabi-0.1.6/bin/../lib/gcc/arm-none-eabi/8.2.1/thumb/v7e-m+fp/hard\libgcc.a(_arm_fixunsdfsi.o)
                              c:/users/andy/.vscode/extensions/metalcode-eu.windows-arm-none-eabi-0.1.6/bin/../lib/gcc/arm-none-eabi/8.2.1/thumb/v7e-m+fp/hard\libgcc.a(_fixunssfdi.o) (__aeabi_d2uiz)
c:/users/andy/.vscode/extensions/metalcode-eu.windows-arm-none-eabi-0.1.6/bin/../lib/gcc/arm-none-eabi/8.2.1/../../../../arm-none-eabi/lib/thumb/v7e-m+fp/hard\libstdc++.a(new_op.o)
                              ./build/./RepRapFirmware/src/OutputMemory.o (operator new(unsigned int))
c:/users/andy/.vscode/extensions/metalcode-eu.windows-arm-none-eabi-0.1.6/bin/../lib/gcc/arm-none-eabi/8.2.1/../../../../arm-none-eabi/lib/thumb/v7e-m+fp/hard\libstdc++.a(eh_personality.o)
                              ./build/./RepRapFirmware/src/OutputMemory.o (__gxx_personality_v0)
c:/users/andy/.vscode/extensions/metalcode-eu.windows-arm-none-eabi-0.1.6/bin/../lib/gcc/arm-none-eabi/8.2.1/../../../../arm-none-eabi/lib/thumb/v7e-m+fp/hard\libstdc++.a(bad_alloc.o)
                              c:/users/andy/.vscode/extensions/metalcode-eu.windows-arm-none-eabi-0.1.6/bin/../lib/gcc/arm-none-eabi/8.2.1/../../../../arm-none-eabi/lib/thumb/v7e-m+fp/hard\libstdc++.a(new_op.o) (std::bad_alloc::~bad_alloc())
c:/users/andy/.vscode/extensions/metalcode-eu.windows-arm-none-eabi-0.1.6/bin/../lib/gcc/arm-none-eabi/8.2.1/../../../../arm-none-eabi/lib/thumb/v7e-m+fp/hard\libstdc++.a(eh_call.o)
                              c:/users/andy/.vscode/extensions/metalcode-eu.windows-arm-none-eabi-0.1.6/bin/../lib/gcc/arm-none-eabi/8.2.1/../../../../arm-none-eabi/lib/thumb/v7e-m+fp/hard\libstdc++.a(eh_personality.o) (__cxa_call_terminate)
c:/users/andy/.vscode/extensions/metalcode-eu.windows-arm-none-eabi-0.1.6/bin/../lib/gcc/arm-none-eabi/8.2.1/../../../../arm-none-eabi/lib/thumb/v7e-m+fp/hard\libstdc++.a(new_handler.o)
                              c:/users/andy/.vscode/extensions/metalcode-eu.windows-arm-none-eabi-0.1.6/bin/../lib/gcc/arm-none-eabi/8.2.1/../../../../arm-none-eabi/lib/thumb/v7e-m+fp/hard\libstdc++.a(new_op.o) (std::get_new_handler())
c:/users/andy/.vscode/extensions/metalcode-eu.windows-arm-none-eabi-0.1.6/bin/../lib/gcc/arm-none-eabi/8.2.1/../../../../arm-none-eabi/lib/thumb/v7e-m+fp/hard\libstdc++.a(eh_catch.o)
                              ./build/./RepRapFirmware/src/RepRap.o (__cxa_begin_catch)
c:/users/andy/.vscode/extensions/metalcode-eu.windows-arm-none-eabi-0.1.6/bin/../lib/gcc/arm-none-eabi/8.2.1/../../../../arm-none-eabi/lib/thumb/v7e-m+fp/hard\libstdc++.a(eh_globals.o)
                              c:/users/andy/.vscode/extensions/metalcode-eu.windows-arm-none-eabi-0.1.6/bin/../lib/gcc/arm-none-eabi/8.2.1/../../../../arm-none-eabi/lib/thumb/v7e-m+fp/hard\libstdc++.a(eh_call.o) (__cxa_get_globals_fast)
c:/users/andy/.vscode/extensions/metalcode-eu.windows-arm-none-eabi-0.1.6/bin/../lib/gcc/arm-none-eabi/8.2.1/../../../../arm-none-eabi/lib/thumb/v7e-m+fp/hard\libstdc++.a(eh_terminate.o)
                              c:/users/andy/.vscode/extensions/metalcode-eu.windows-arm-none-eabi-0.1.6/bin/../lib/gcc/arm-none-eabi/8.2.1/../../../../arm-none-eabi/lib/thumb/v7e-m+fp/hard\libstdc++.a(eh_call.o) (__cxxabiv1::__terminate(void (*)()))
c:/users/andy/.vscode/extensions/metalcode-eu.windows-arm-none-eabi-0.1.6/bin/../lib/gcc/arm-none-eabi/8.2.1/../../../../arm-none-eabi/lib/thumb/v7e-m+fp/hard\libstdc++.a(eh_arm.o)
                              ./build/./RepRapFirmware/src/Platform.o (__cxa_end_cleanup)
c:/users/andy/.vscode/extensions/metalcode-eu.windows-arm-none-eabi-0.1.6/bin/../lib/gcc/arm-none-eabi/8.2.1/../../../../arm-none-eabi/lib/thumb/v7e-m+fp/hard\libstdc++.a(del_ops.o)
                              ./build/./RepRapFirmware/src/Platform.o (operator delete(void*, unsigned int))
c:/users/andy/.vscode/extensions/metalcode-eu.windows-arm-none-eabi-0.1.6/bin/../lib/gcc/arm-none-eabi/8.2.1/../../../../arm-none-eabi/lib/thumb/v7e-m+fp/hard\libstdc++.a(eh_throw.o)
                              ./build/./RepRapFirmware/src/GCodes/GCodes.o (__cxa_throw)
c:/users/andy/.vscode/extensions/metalcode-eu.windows-arm-none-eabi-0.1.6/bin/../lib/gcc/arm-none-eabi/8.2.1/../../../../arm-none-eabi/lib/thumb/v7e-m+fp/hard\libstdc++.a(new_opv.o)
                              ./build/./RepRapFirmware/src/Storage/FileStore.o (operator new[](unsigned int))
c:/users/andy/.vscode/extensions/metalcode-eu.windows-arm-none-eabi-0.1.6/bin/../lib/gcc/arm-none-eabi/8.2.1/../../../../arm-none-eabi/lib/thumb/v7e-m+fp/hard\libstdc++.a(si_class_type_info.o)
                              c:/users/andy/.vscode/extensions/metalcode-eu.windows-arm-none-eabi-0.1.6/bin/../lib/gcc/arm-none-eabi/8.2.1/../../../../arm-none-eabi/lib/thumb/v7e-m+fp/hard\libstdc++.a(bad_alloc.o) (vtable for __cxxabiv1::__si_class_type_info)
c:/users/andy/.vscode/extensions/metalcode-eu.windows-arm-none-eabi-0.1.6/bin/../lib/gcc/arm-none-eabi/8.2.1/../../../../arm-none-eabi/lib/thumb/v7e-m+fp/hard\libstdc++.a(tinfo.o)
                              c:/users/andy/.vscode/extensions/metalcode-eu.windows-arm-none-eabi-0.1.6/bin/../lib/gcc/arm-none-eabi/8.2.1/../../../../arm-none-eabi/lib/thumb/v7e-m+fp/hard\libstdc++.a(si_class_type_info.o) (std::type_info::__is_pointer_p() const)
c:/users/andy/.vscode/extensions/metalcode-eu.windows-arm-none-eabi-0.1.6/bin/../lib/gcc/arm-none-eabi/8.2.1/../../../../arm-none-eabi/lib/thumb/v7e-m+fp/hard\libstdc++.a(class_type_info.o)
                              c:/users/andy/.vscode/extensions/metalcode-eu.windows-arm-none-eabi-0.1.6/bin/../lib/gcc/arm-none-eabi/8.2.1/../../../../arm-none-eabi/lib/thumb/v7e-m+fp/hard\libstdc++.a(si_class_type_info.o) (__cxxabiv1::__class_type_info::__do_upcast(__cxxabiv1::__class_type_info const*, void**) const)
c:/users/andy/.vscode/extensions/metalcode-eu.windows-arm-none-eabi-0.1.6/bin/../lib/gcc/arm-none-eabi/8.2.1/../../../../arm-none-eabi/lib/thumb/v7e-m+fp/hard\libstdc++.a(eh_exception.o)
                              c:/users/andy/.vscode/extensions/metalcode-eu.windows-arm-none-eabi-0.1.6/bin/../lib/gcc/arm-none-eabi/8.2.1/../../../../arm-none-eabi/lib/thumb/v7e-m+fp/hard\libstdc++.a(bad_alloc.o) (std::exception::~exception())
c:/users/andy/.vscode/extensions/metalcode-eu.windows-arm-none-eabi-0.1.6/bin/../lib/gcc/arm-none-eabi/8.2.1/../../../../arm-none-eabi/lib/thumb/v7e-m+fp/hard\libstdc++.a(del_op.o)
                              c:/users/andy/.vscode/extensions/metalcode-eu.windows-arm-none-eabi-0.1.6/bin/../lib/gcc/arm-none-eabi/8.2.1/../../../../arm-none-eabi/lib/thumb/v7e-m+fp/hard\libstdc++.a(del_ops.o) (operator delete(void*))
c:/users/andy/.vscode/extensions/metalcode-eu.windows-arm-none-eabi-0.1.6/bin/../lib/gcc/arm-none-eabi/8.2.1/../../../../arm-none-eabi/lib/thumb/v7e-m+fp/hard\libstdc++.a(eh_unex_handler.o)
                              c:/users/andy/.vscode/extensions/metalcode-eu.windows-arm-none-eabi-0.1.6/bin/../lib/gcc/arm-none-eabi/8.2.1/../../../../arm-none-eabi/lib/thumb/v7e-m+fp/hard\libstdc++.a(eh_terminate.o) (__cxxabiv1::__unexpected_handler)
./build/\libSTMCore.a(wiring_analog.o)
                              ./build/./RepRapFirmware/src/targets/STM32/BoardConfig.o (analogReadResolution)
./build/\libSTMCore.a(wiring_time.o)
                              ./build/./RepRapFirmware/src/OutputMemory.o (millis)
./build/\libSTMCore.a(clock.o)
                              ./build/\libSTMCore.a(wiring_time.o) (getCurrentMicros)
./build/\libSTMCore.a(stm32f4xx_hal_flash.o)
                              ./build/./RepRapFirmware/src/targets/STM32/NVMEmulation.o (HAL_FLASH_Unlock)
./build/\libSTMCore.a(stm32f4xx_hal_flash_ex.o)
                              ./build/\libSTMCore.a(stm32f4xx_hal_flash.o) (FLASH_Erase_Sector)
./build/\libSTMCore.a(stm32f4xx_hal_pwr.o)
                              ./build/\libSTMCore.a(clock.o) (HAL_PWR_EnableBkUpAccess)
./build/\libSTMCore.a(AnalogIn.o)
                              ./build/./RepRapFirmware/src/targets/STM32/BoardConfig.o (AnalogInInit())
./build/\libSTMCore.a(AnalogOut.o)
                              ./build/./RepRapFirmware/src/Hardware/IoPorts.o (AnalogOut(PinName, float, unsigned short))
./build/\libSTMCore.a(Core.o)
                              ./build/./RepRapFirmware/src/GCodes/GCodes.o (memcpyu32(unsigned long*, unsigned long const*, unsigned int))
./build/\libSTMCore.a(HardwareTimer.o)
                              ./build/./RepRapFirmware/src/targets/STM32/Movement/StepperDrivers/TMCSoftUART.o (HardwareTimer::pause())
./build/\libSTMCore.a(Print.o)
                              ./build/./RepRapFirmware/src/Stream.o (Print::write(unsigned char const*, unsigned int))
./build/\libSTMCore.a(Reset.o)
                              ./build/./RepRapFirmware/src/Hardware/ExceptionHandlers.o (Reset)
./build/\libSTMCore.a(USBSerial.o)
                              ./build/./RepRapFirmware/src/Platform.o (USBSerial::write(unsigned char))
./build/\libSTMCore.a(watchdog.o)
                              ./build/./RepRapFirmware/src/RepRap.o (WatchdogEnable(unsigned long))
./build/\libSTMCore.a(WInterrupts.o)
                              ./build/./RepRapFirmware/src/Hardware/IoPorts.o (attachInterrupt(unsigned long, void (*)(CallbackParameter) noexcept, InterruptMode, CallbackParameter))
./build/\libSTMCore.a(wiring_digital.o)
                              ./build/./RepRapFirmware/src/Platform.o (pinModeDuet)
./build/\libSTMCore.a(WMath.o)
                              ./build/./RepRapFirmware/src/GCodes/GCodeBuffer/ExpressionParser.o (random32)
./build/\libSTMCore.a(analog.o)
                              ./build/\libSTMCore.a(HardwareTimer.o) (get_pwm_channel)
./build/\libSTMCore.a(interrupt.o)
                              ./build/\libSTMCore.a(WInterrupts.o) (stm32_interrupt_enable(GPIO_TypeDef*, unsigned short, void (*)(CallbackParameter) noexcept, unsigned long, CallbackParameter))
./build/\libSTMCore.a(ConfigurableUART.o)
                              ./build/./RepRapFirmware/src/GCodes/GCodes.o (ConfigurableUART::read())
./build/\libSTMCore.a(HardwareSPI.o)
                              ./build/./RepRapFirmware/src/Linux/DataTransfer.o (HardwareSPI::flushRx())
./build/\libSTMCore.a(SPI.o)  ./build/./RepRapFirmware/src/Hardware/SharedSpi/SharedSpiDevice.o (SPI::getSSPDevice(SSPChannel))
./build/\libSTMCore.a(HybridPWM.o)
                              ./build/\libSTMCore.a(AnalogOut.o) (HybridPWMPin::find(PinName))
./build/\libSTMCore.a(SoftwarePWM.o)
                              ./build/\libSTMCore.a(HybridPWM.o) (SoftwarePWM::allocate(PinName, unsigned long, float))
./build/\libSTMCore.a(HardwareSDIO.o)
                              ./build/./RepRapFirmware/src/targets/STM32/FatFS/SDCardSDIO.o (HardwareSDIO::Init())
./build/\libSTMCore.a(queue.o)
                              ./build/\libRRFLibraries.a(RTOSIface.o) (xQueueGenericCreateStatic)
./build/\libSTMCore.a(tasks.o)
                              ./build/./RepRapFirmware/src/Tasks.o (xTaskCreateStatic)
./build/\libSTMCore.a(port.o)
                              ./build/\libSTMCore.a(tasks.o) (pxPortInitialiseStack)
./build/\libSTMCore.a(hooks.o)
                              ./build/\libSTMCore.a(wiring_time.o) (yield)
./build/\libSTMCore.a(spi_com.o)
                              ./build/\libSTMCore.a(HardwareSPI.o) (spi_init)
./build/\libSTMCore.a(timer.o)
                              ./build/\libSTMCore.a(HardwareTimer.o) (enableTimerClock)
./build/\libSTMCore.a(cdc_queue.o)
                              ./build/\libSTMCore.a(USBSerial.o) (CDC_TransmitQueue_WriteSize)
./build/\libSTMCore.a(usbd_cdc_if.o)
                              ./build/\libSTMCore.a(USBSerial.o) (ReceiveQueue)
./build/\libSTMCore.a(usbd_core.o)
                              ./build/\libSTMCore.a(usbd_cdc_if.o) (USBD_Init)
./build/\libSTMCore.a(usbd_ctlreq.o)
                              ./build/\libSTMCore.a(usbd_core.o) (USBD_StdDevReq)
./build/\libSTMCore.a(usbd_ioreq.o)
                              ./build/\libSTMCore.a(usbd_ctlreq.o) (USBD_CtlSendData)
./build/\libSTMCore.a(stm32f4xx_hal_adc.o)
                              ./build/\libSTMCore.a(AnalogIn.o) (HAL_ADC_Init)
./build/\libSTMCore.a(stm32f4xx_hal_adc_ex.o)
                              ./build/\libSTMCore.a(stm32f4xx_hal_adc.o) (HAL_ADCEx_InjectedConvCpltCallback)
./build/\libSTMCore.a(stm32f4xx_hal_sd.o)
                              ./build/\libSTMCore.a(HardwareSDIO.o) (HAL_SD_ReadBlocks_DMA)
./build/\libSTMCore.a(stm32f4xx_hal_spi.o)
                              ./build/\libSTMCore.a(spi_com.o) (HAL_SPI_Init)
./build/\libSTMCore.a(stm32f4xx_hal_tim.o)
                              ./build/\libSTMCore.a(HardwareTimer.o) (HAL_TIM_Base_DeInit)
./build/\libSTMCore.a(stm32f4xx_hal_tim_ex.o)
                              ./build/\libSTMCore.a(HardwareTimer.o) (HAL_TIMEx_OCN_Start)
./build/\libSTMCore.a(stm32f4xx_hal_wwdg.o)
                              ./build/\libSTMCore.a(watchdog.o) (HAL_WWDG_Init)
./build/\libSTMCore.a(stm32f4xx_ll_sdmmc.o)
                              ./build/\libSTMCore.a(stm32f4xx_hal_sd.o) (SDIO_Init)
./build/\libSTMCore.a(HardwareSerial.o)
                              ./build/\libSTMCore.a(ConfigurableUART.o) (HardwareSerial::begin(unsigned long, unsigned char))
./build/\libSTMCore.a(SoftwareSPI.o)
                              ./build/\libSTMCore.a(SPI.o) (SoftwareSPI::SWSSP0)
./build/\libSTMCore.a(HardwarePWM.o)
                              ./build/\libSTMCore.a(HybridPWM.o) (HardwarePWM::allocate(PinName, unsigned long, float))
./build/\libSTMCore.a(list.o)
                              ./build/\libSTMCore.a(queue.o) (vListInitialise)
./build/\libSTMCore.a(usbd_conf.o)
                              ./build/\libSTMCore.a(usbd_core.o) (USBD_LL_Init)
./build/\libSTMCore.a(usbd_desc.o)
                              ./build/\libSTMCore.a(usbd_cdc_if.o) (USBD_Desc)
./build/\libSTMCore.a(usbd_ep_conf.o)
                              ./build/\libSTMCore.a(usbd_conf.o) (ep_def)
./build/\libSTMCore.a(usbd_if.o)
                              ./build/\libSTMCore.a(usbd_conf.o) (USBD_reenumerate)
./build/\libSTMCore.a(usbd_cdc.o)
                              ./build/\libSTMCore.a(usbd_cdc_if.o) (USBD_CDC_RegisterInterface)
./build/\libSTMCore.a(stm32f4xx_hal_pcd.o)
                              ./build/\libSTMCore.a(usbd_conf.o) (HAL_PCD_Init)
./build/\libSTMCore.a(stm32f4xx_hal_pcd_ex.o)
                              ./build/\libSTMCore.a(usbd_conf.o) (HAL_PCDEx_SetTxFiFo)
./build/\libSTMCore.a(stm32f4xx_ll_usb.o)
                              ./build/\libSTMCore.a(stm32f4xx_hal_pcd.o) (USB_CoreInit)
c:/users/andy/.vscode/extensions/metalcode-eu.windows-arm-none-eabi-0.1.6/bin/../lib/gcc/arm-none-eabi/8.2.1/../../../../arm-none-eabi/lib/thumb/v7e-m+fp/hard\libc.a(lib_a-rand.o)
                              ./build/\libSTMCore.a(WMath.o) (srand)
c:/users/andy/.vscode/extensions/metalcode-eu.windows-arm-none-eabi-0.1.6/bin/../lib/gcc/arm-none-eabi/8.2.1/thumb/v7e-m+fp/hard\libgcc.a(_arm_fixdfsi.o)
                              ./build/\libSTMCore.a(Print.o) (__aeabi_d2iz)

Allocating common symbols
Common symbol       size              file

errno               0x4               c:/users/andy/.vscode/extensions/metalcode-eu.windows-arm-none-eabi-0.1.6/bin/../lib/gcc/arm-none-eabi/8.2.1/../../../../arm-none-eabi/lib/thumb/v7e-m+fp/hard\libc.a(lib_a-reent.o)
g_hpcd              0x408             ./build/\libSTMCore.a(usbd_conf.o)
__lock___malloc_recursive_mutex
                    0x1               c:/users/andy/.vscode/extensions/metalcode-eu.windows-arm-none-eabi-0.1.6/bin/../lib/gcc/arm-none-eabi/8.2.1/../../../../arm-none-eabi/lib/thumb/v7e-m+fp/hard\libc.a(lib_a-lock.o)
__lock___atexit_recursive_mutex
                    0x1               c:/users/andy/.vscode/extensions/metalcode-eu.windows-arm-none-eabi-0.1.6/bin/../lib/gcc/arm-none-eabi/8.2.1/../../../../arm-none-eabi/lib/thumb/v7e-m+fp/hard\libc.a(lib_a-lock.o)
pFlash              0x20              ./build/\libSTMCore.a(stm32f4xx_hal_flash.o)
TransmitQueue       0x86              ./build/\libSTMCore.a(usbd_cdc_if.o)
uwTick              0x4               ./build/\libSTMCore.a(stm32f4xx_hal.o)
xQueueRegistry      0x40              ./build/\libSTMCore.a(queue.o)
__lock___dd_hash_mutex
                    0x1               c:/users/andy/.vscode/extensions/metalcode-eu.windows-arm-none-eabi-0.1.6/bin/../lib/gcc/arm-none-eabi/8.2.1/../../../../arm-none-eabi/lib/thumb/v7e-m+fp/hard\libc.a(lib_a-lock.o)
__lock___sinit_recursive_mutex
                    0x1               c:/users/andy/.vscode/extensions/metalcode-eu.windows-arm-none-eabi-0.1.6/bin/../lib/gcc/arm-none-eabi/8.2.1/../../../../arm-none-eabi/lib/thumb/v7e-m+fp/hard\libc.a(lib_a-lock.o)
USBD_StrDesc        0x100             ./build/\libSTMCore.a(usbd_desc.o)
hUSBD_Device_CDC    0x2c8             ./build/\libSTMCore.a(usbd_cdc_if.o)
__lock___sfp_recursive_mutex
                    0x1               c:/users/andy/.vscode/extensions/metalcode-eu.windows-arm-none-eabi-0.1.6/bin/../lib/gcc/arm-none-eabi/8.2.1/../../../../arm-none-eabi/lib/thumb/v7e-m+fp/hard\libc.a(lib_a-lock.o)
__lock___at_quick_exit_mutex
                    0x1               c:/users/andy/.vscode/extensions/metalcode-eu.windows-arm-none-eabi-0.1.6/bin/../lib/gcc/arm-none-eabi/8.2.1/../../../../arm-none-eabi/lib/thumb/v7e-m+fp/hard\libc.a(lib_a-lock.o)
__lock___env_recursive_mutex
                    0x1               c:/users/andy/.vscode/extensions/metalcode-eu.windows-arm-none-eabi-0.1.6/bin/../lib/gcc/arm-none-eabi/8.2.1/../../../../arm-none-eabi/lib/thumb/v7e-m+fp/hard\libc.a(lib_a-lock.o)
ReceiveQueue        0xc6              ./build/\libSTMCore.a(usbd_cdc_if.o)
__lock___tz_mutex   0x1               c:/users/andy/.vscode/extensions/metalcode-eu.windows-arm-none-eabi-0.1.6/bin/../lib/gcc/arm-none-eabi/8.2.1/../../../../arm-none-eabi/lib/thumb/v7e-m+fp/hard\libc.a(lib_a-lock.o)
__lock___arc4random_mutex
                    0x1               c:/users/andy/.vscode/extensions/metalcode-eu.windows-arm-none-eabi-0.1.6/bin/../lib/gcc/arm-none-eabi/8.2.1/../../../../arm-none-eabi/lib/thumb/v7e-m+fp/hard\libc.a(lib_a-lock.o)

Discarded input sections

 .text          0x00000000        0x0 c:/users/andy/.vscode/extensions/metalcode-eu.windows-arm-none-eabi-0.1.6/bin/../lib/gcc/arm-none-eabi/8.2.1/thumb/v7e-m+fp/hard/crti.o
 .data          0x00000000        0x0 c:/users/andy/.vscode/extensions/metalcode-eu.windows-arm-none-eabi-0.1.6/bin/../lib/gcc/arm-none-eabi/8.2.1/thumb/v7e-m+fp/hard/crti.o
 .bss           0x00000000        0x0 c:/users/andy/.vscode/extensions/metalcode-eu.windows-arm-none-eabi-0.1.6/bin/../lib/gcc/arm-none-eabi/8.2.1/thumb/v7e-m+fp/hard/crti.o
 .text          0x00000000       0x74 c:/users/andy/.vscode/extensions/metalcode-eu.windows-arm-none-eabi-0.1.6/bin/../lib/gcc/arm-none-eabi/8.2.1/../../../../arm-none-eabi/lib/thumb/v7e-m+fp/hard/crt0.o
 .data          0x00000000        0x0 c:/users/andy/.vscode/extensions/metalcode-eu.windows-arm-none-eabi-0.1.6/bin/../lib/gcc/arm-none-eabi/8.2.1/../../../../arm-none-eabi/lib/thumb/v7e-m+fp/hard/crt0.o
 .bss           0x00000000        0x0 c:/users/andy/.vscode/extensions/metalcode-eu.windows-arm-none-eabi-0.1.6/bin/../lib/gcc/arm-none-eabi/8.2.1/../../../../arm-none-eabi/lib/thumb/v7e-m+fp/hard/crt0.o
 .ARM.extab     0x00000000        0x0 c:/users/andy/.vscode/extensions/metalcode-eu.windows-arm-none-eabi-0.1.6/bin/../lib/gcc/arm-none-eabi/8.2.1/../../../../arm-none-eabi/lib/thumb/v7e-m+fp/hard/crt0.o
 .ARM.exidx     0x00000000        0x8 c:/users/andy/.vscode/extensions/metalcode-eu.windows-arm-none-eabi-0.1.6/bin/../lib/gcc/arm-none-eabi/8.2.1/../../../../arm-none-eabi/lib/thumb/v7e-m+fp/hard/crt0.o
 .ARM.attributes
                0x00000000       0x1c c:/users/andy/.vscode/extensions/metalcode-eu.windows-arm-none-eabi-0.1.6/bin/../lib/gcc/arm-none-eabi/8.2.1/../../../../arm-none-eabi/lib/thumb/v7e-m+fp/hard/crt0.o
 .text          0x00000000        0x0 ./build/./CoreSTM32F4/cores/arduino/syscalls.o
 .data          0x00000000        0x0 ./build/./CoreSTM32F4/cores/arduino/syscalls.o
 .bss           0x00000000        0x0 ./build/./CoreSTM32F4/cores/arduino/syscalls.o
 .text._close   0x00000000        0x6 ./build/./CoreSTM32F4/cores/arduino/syscalls.o
 .text._fstat   0x00000000        0xa ./build/./CoreSTM32F4/cores/arduino/syscalls.o
 .text._isatty  0x00000000        0x4 ./build/./CoreSTM32F4/cores/arduino/syscalls.o
 .text._lseek   0x00000000        0x4 ./build/./CoreSTM32F4/cores/arduino/syscalls.o
 .text._read    0x00000000        0x4 ./build/./CoreSTM32F4/cores/arduino/syscalls.o
Memory Configuration

Name             Origin             Length             Attributes
VECTOR           0x08008000         0x00004000         xr
RESETDATA        0x0800c000         0x00004000         xr
FLASH            0x08010000         0x000f0000         xr
RAM              0x20000000         0x00020000         xrw
CCMRAM           0x10000000         0x00010000         rw
*default*        0x00000000         0xffffffff

Linker script and memory map

LOAD c:/users/andy/.vscode/extensions/metalcode-eu.windows-arm-none-eabi-0.1.6/bin/../lib/gcc/arm-none-eabi/8.2.1/thumb/v7e-m+fp/hard/crti.o
LOAD c:/users/andy/.vscode/extensions/metalcode-eu.windows-arm-none-eabi-0.1.6/bin/../lib/gcc/arm-none-eabi/8.2.1/thumb/v7e-m+fp/hard/crtbegin.o
LOAD c:/users/andy/.vscode/extensions/metalcode-eu.windows-arm-none-eabi-0.1.6/bin/../lib/gcc/arm-none-eabi/8.2.1/../../../../arm-none-eabi/lib/thumb/v7e-m+fp/hard/crt0.o
                0x00100000                LD_MAX_SIZE = 0x100000
                0x00030000                LD_MAX_DATA_SIZE = 0x30000
                0x00000000                LD_FLASH_OFFSET = 0x0
START GROUP
LOAD ./build/./CoreSTM32F4/cores/arduino/syscalls.o
LOAD ./build/./RepRapFirmware/src/libc/memcmp.o
LOAD ./build/./RepRapFirmware/src/libc/memcpy.o
LOAD ./build/./RepRapFirmware/src/libc/memmove.o
LOAD ./build/./RepRapFirmware/src/libc/memset.o
LOAD ./build/./RepRapFirmware/src/libc/nano-mallocr.o
LOAD ./build/./RepRapFirmware/src/libcpp/eh_alloc.o
LOAD ./build/./RepRapFirmware/src/libc/strptime.o
LOAD ./build/./RepRapFirmware/src/libcpp/vterminate.o
LOAD ./build/\libSTMCore.a
LOAD ./build/./RepRapFirmware/src/Libraries/sha1/sha1.o
LOAD ./build/./RepRapFirmware/src/targets/common/FatFS/ff.o
LOAD ./build/./RepRapFirmware/src/targets/common/FatFS/ffunicode.o
LOAD ./build/./RepRapFirmware/src/Logger.o
LOAD ./build/./RepRapFirmware/src/OutputMemory.o
LOAD ./build/./RepRapFirmware/src/Platform.o
LOAD ./build/./RepRapFirmware/src/PortControl.o
LOAD ./build/./RepRapFirmware/src/PrintMonitor.o
LOAD ./build/./RepRapFirmware/src/RepRap.o
LOAD ./build/./RepRapFirmware/src/RepRapFirmware.o
LOAD ./build/./RepRapFirmware/src/Roland.o
LOAD ./build/./RepRapFirmware/src/Scanner.o
LOAD ./build/./RepRapFirmware/src/Stream.o
LOAD ./build/./RepRapFirmware/src/Tasks.o
LOAD ./build/./RepRapFirmware/src/FilamentMonitors/Duet3DFilamentMonitor.o
LOAD ./build/./RepRapFirmware/src/FilamentMonitors/FilamentMonitor.o
LOAD ./build/./RepRapFirmware/src/FilamentMonitors/LaserFilamentMonitor.o
LOAD ./build/./RepRapFirmware/src/FilamentMonitors/PulsedFilamentMonitor.o
LOAD ./build/./RepRapFirmware/src/FilamentMonitors/RotatingMagnetFilamentMonitor.o
LOAD ./build/./RepRapFirmware/src/FilamentMonitors/SimpleFilamentMonitor.o
LOAD ./build/./RepRapFirmware/src/GCodes/GCodeException.o
LOAD ./build/./RepRapFirmware/src/GCodes/GCodeFileInfo.o
LOAD ./build/./RepRapFirmware/src/GCodes/GCodeInput.o
LOAD ./build/./RepRapFirmware/src/GCodes/GCodeMachineState.o
LOAD ./build/./RepRapFirmware/src/GCodes/GCodeQueue.o
LOAD ./build/./RepRapFirmware/src/GCodes/GCodes.o
LOAD ./build/./RepRapFirmware/src/GCodes/GCodes2.o
LOAD ./build/./RepRapFirmware/src/GCodes/GCodes3.o
LOAD ./build/./RepRapFirmware/src/GCodes/GCodes4.o
LOAD ./build/./RepRapFirmware/src/GCodes/ObjectTracker.o
LOAD ./build/./RepRapFirmware/src/GCodes/RestorePoint.o
LOAD ./build/./RepRapFirmware/src/GCodes/Trigger.o
LOAD ./build/./RepRapFirmware/src/GCodes/GCodeBuffer/BinaryParser.o
LOAD ./build/./RepRapFirmware/src/GCodes/GCodeBuffer/ExpressionParser.o
LOAD ./build/./RepRapFirmware/src/GCodes/GCodeBuffer/GCodeBuffer.o
LOAD ./build/./RepRapFirmware/src/GCodes/GCodeBuffer/StringParser.o
LOAD ./build/./RepRapFirmware/src/Heating/FOPDT.o
LOAD ./build/./RepRapFirmware/src/Heating/Heat.o
LOAD ./build/./RepRapFirmware/src/Heating/Heater.o
LOAD ./build/./RepRapFirmware/src/Heating/HeaterMonitor.o
LOAD ./build/./RepRapFirmware/src/Heating/LocalHeater.o
LOAD ./build/./RepRapFirmware/src/Heating/RemoteHeater.o
LOAD ./build/./RepRapFirmware/src/Heating/TemperatureError.o
LOAD ./build/./RepRapFirmware/src/Movement/DDA.o
LOAD ./build/./RepRapFirmware/src/Movement/DDARing.o
LOAD ./build/./RepRapFirmware/src/Movement/DriveMovement.o
LOAD ./build/./RepRapFirmware/src/Movement/Move.o
LOAD ./build/./RepRapFirmware/src/Movement/RawMove.o
LOAD ./build/./RepRapFirmware/src/Movement/StepTimer.o
LOAD ./build/./RepRapFirmware/src/Movement/StraightProbeSettings.o
LOAD ./build/./RepRapFirmware/src/Movement/BedProbing/Grid.o
LOAD ./build/./RepRapFirmware/src/Movement/BedProbing/RandomProbePointSet.o
LOAD ./build/./RepRapFirmware/src/Movement/Kinematics/CoreKinematics.o
LOAD ./build/./RepRapFirmware/src/Movement/Kinematics/FiveBarScaraKinematics.o
LOAD ./build/./RepRapFirmware/src/Movement/Kinematics/HangprinterKinematics.o
LOAD ./build/./RepRapFirmware/src/Movement/Kinematics/Kinematics.o
LOAD ./build/./RepRapFirmware/src/Movement/Kinematics/LinearDeltaKinematics.o
LOAD ./build/./RepRapFirmware/src/Movement/Kinematics/PolarKinematics.o
LOAD ./build/./RepRapFirmware/src/Movement/Kinematics/RotaryDeltaKinematics.o
LOAD ./build/./RepRapFirmware/src/Movement/Kinematics/ScaraKinematics.o
LOAD ./build/./RepRapFirmware/src/Movement/Kinematics/ZLeadscrewKinematics.o
LOAD ./build/./RepRapFirmware/src/Storage/CRC16.o
LOAD ./build/./RepRapFirmware/src/Storage/CRC32.o
LOAD ./build/./RepRapFirmware/src/Storage/FileInfoParser.o
LOAD ./build/./RepRapFirmware/src/Storage/FileStore.o
LOAD ./build/./RepRapFirmware/src/Storage/MassStorage.o
LOAD ./build/./RepRapFirmware/src/Comms/AuxDevice.o
LOAD ./build/./RepRapFirmware/src/Comms/FirmwareUpdater.o
LOAD ./build/./RepRapFirmware/src/Comms/PanelDueUpdater.o
LOAD ./build/./RepRapFirmware/src/Heating/Sensors/AdditionalOutputSensor.o
LOAD ./build/./RepRapFirmware/src/Heating/Sensors/CpuTemperatureSensor.o
LOAD ./build/./RepRapFirmware/src/Heating/Sensors/CurrentLoopTemperatureSensor.o
LOAD ./build/./RepRapFirmware/src/Heating/Sensors/DhtSensor.o
LOAD ./build/./RepRapFirmware/src/Heating/Sensors/LinearAnalogSensor.o
LOAD ./build/./RepRapFirmware/src/Heating/Sensors/RemoteSensor.o
LOAD ./build/./RepRapFirmware/src/Heating/Sensors/RtdSensor31865.o
LOAD ./build/./RepRapFirmware/src/Heating/Sensors/SensorWithPort.o
LOAD ./build/./RepRapFirmware/src/Heating/Sensors/SpiTemperatureSensor.o
LOAD ./build/./RepRapFirmware/src/Heating/Sensors/TemperatureSensor.o
LOAD ./build/./RepRapFirmware/src/Heating/Sensors/Thermistor.o
LOAD ./build/./RepRapFirmware/src/Heating/Sensors/ThermocoupleSensor31855.o
LOAD ./build/./RepRapFirmware/src/Heating/Sensors/ThermocoupleSensor31856.o
LOAD ./build/./RepRapFirmware/src/Heating/Sensors/TmcDriverTemperatureSensor.o
LOAD ./build/./RepRapFirmware/src/Fans/Fan.o
LOAD ./build/./RepRapFirmware/src/Fans/FansManager.o
LOAD ./build/./RepRapFirmware/src/Fans/LedStripDriver.o
LOAD ./build/./RepRapFirmware/src/Fans/LocalFan.o
LOAD ./build/./RepRapFirmware/src/Fans/RemoteFan.o
LOAD ./build/./RepRapFirmware/src/ObjectModel/ObjectModel.o
LOAD ./build/./RepRapFirmware/src/Endstops/Endstop.o
LOAD ./build/./RepRapFirmware/src/Endstops/EndstopsManager.o
LOAD ./build/./RepRapFirmware/src/Endstops/LocalZProbe.o
LOAD ./build/./RepRapFirmware/src/Endstops/RemoteZProbe.o
LOAD ./build/./RepRapFirmware/src/Endstops/StallDetectionEndstop.o
LOAD ./build/./RepRapFirmware/src/Endstops/SwitchEndstop.o
LOAD ./build/./RepRapFirmware/src/Endstops/ZProbe.o
LOAD ./build/./RepRapFirmware/src/Endstops/ZProbeEndstop.o
LOAD ./build/./RepRapFirmware/src/Hardware/ExceptionHandlers.o
LOAD ./build/./RepRapFirmware/src/Hardware/I2C.o
LOAD ./build/./RepRapFirmware/src/Hardware/IoPorts.o
LOAD ./build/./RepRapFirmware/src/Hardware/NonVolatileMemory.o
LOAD ./build/./RepRapFirmware/src/Hardware/SoftwareReset.o
LOAD ./build/./RepRapFirmware/src/Hardware/SharedSpi/SharedSpiClient.o
LOAD ./build/./RepRapFirmware/src/Hardware/SharedSpi/SharedSpiDevice.o
LOAD ./build/./RepRapFirmware/src/Tools/Filament.o
LOAD ./build/./RepRapFirmware/src/Tools/Spindle.o
LOAD ./build/./RepRapFirmware/src/Tools/Tool.o
LOAD ./build/./RepRapFirmware/src/Display/Display.o
LOAD ./build/./RepRapFirmware/src/Display/Menu.o
LOAD ./build/./RepRapFirmware/src/Display/MenuItem.o
LOAD ./build/./RepRapFirmware/src/Display/RotaryEncoder.o
LOAD ./build/./RepRapFirmware/src/GPIO/GpInPort.o
LOAD ./build/./RepRapFirmware/src/GPIO/GpOutPort.o
LOAD ./build/./RepRapFirmware/src/bossa/Applet.o
LOAD ./build/./RepRapFirmware/src/bossa/Device.o
LOAD ./build/./RepRapFirmware/src/bossa/EefcFlash.o
LOAD ./build/./RepRapFirmware/src/bossa/Flash.o
LOAD ./build/./RepRapFirmware/src/bossa/Flasher.o
LOAD ./build/./RepRapFirmware/src/bossa/Samba.o
LOAD ./build/./RepRapFirmware/src/bossa/WordCopyApplet.o
LOAD ./build/./RepRapFirmware/src/bossa/WordCopyArm.o
LOAD ./build/./RepRapFirmware/src/targets/STM32/BoardConfig.o
LOAD ./build/./RepRapFirmware/src/targets/STM32/NVMEmulation.o
LOAD ./build/./RepRapFirmware/src/targets/STM32/Pins_STM32.o
LOAD ./build/./RepRapFirmware/src/targets/STM32/ResetCause.o
LOAD ./build/./RepRapFirmware/src/targets/common/Microstepping.o
LOAD ./build/./RepRapFirmware/src/targets/STM32/FatFS/sd_mmc_wrapper.o
LOAD ./build/./RepRapFirmware/src/targets/STM32/FatFS/SDCardSDIO.o
LOAD ./build/./RepRapFirmware/src/targets/STM32/FatFS/SDCardSPI.o
LOAD ./build/./RepRapFirmware/src/targets/common/FatFS/diskio.o
LOAD ./build/./RepRapFirmware/src/targets/common/FatFS/fattime_rtc.o
LOAD ./build/./RepRapFirmware/src/targets/common/Fans/LedStripDriver.o
LOAD ./build/./RepRapFirmware/src/Linux/DataTransfer.o
LOAD ./build/./RepRapFirmware/src/Linux/LinuxInterface.o
LOAD ./build/./RepRapFirmware/src/targets/common/NoNetwork/Network.o
LOAD ./build/./RepRapFirmware/src/targets/STM32/Movement/StepperDrivers/TMCSoftUART.o
LOAD ./build/./RepRapFirmware/src/targets/common/Movement/StepperDrivers/TMC22xx.o
LOAD ./build/./RepRapFirmware/src/Movement/StepperDrivers/DriverMode.o
LOAD ./build/./RepRapFirmware/src/Movement/StepperDrivers/TMC22xx.o
LOAD ./build/./RepRapFirmware/src/Movement/StepperDrivers/TMC2660.o
LOAD ./build/./RepRapFirmware/src/Movement/StepperDrivers/TMC51xx.o
LOAD ./build/\libRRFLibraries.a
LOAD ./CoreSTM32F4/CMSIS/CMSIS/DSP/Lib/GCC\libarm_cortexM4l_math.a
LOAD c:/users/andy/.vscode/extensions/metalcode-eu.windows-arm-none-eabi-0.1.6/bin/../lib/gcc/arm-none-eabi/8.2.1/../../../../arm-none-eabi/lib/thumb/v7e-m+fp/hard\libc.a
LOAD c:/users/andy/.vscode/extensions/metalcode-eu.windows-arm-none-eabi-0.1.6/bin/../lib/gcc/arm-none-eabi/8.2.1/../../../../arm-none-eabi/lib/thumb/v7e-m+fp/hard\libm.a
LOAD c:/users/andy/.vscode/extensions/metalcode-eu.windows-arm-none-eabi-0.1.6/bin/../lib/gcc/arm-none-eabi/8.2.1/thumb/v7e-m+fp/hard\libgcc.a
LOAD c:/users/andy/.vscode/extensions/metalcode-eu.windows-arm-none-eabi-0.1.6/bin/../lib/gcc/arm-none-eabi/8.2.1/../../../../arm-none-eabi/lib/thumb/v7e-m+fp/hard\libstdc++.a
END GROUP
START GROUP
LOAD c:/users/andy/.vscode/extensions/metalcode-eu.windows-arm-none-eabi-0.1.6/bin/../lib/gcc/arm-none-eabi/8.2.1/thumb/v7e-m+fp/hard\libgcc.a
LOAD c:/users/andy/.vscode/extensions/metalcode-eu.windows-arm-none-eabi-0.1.6/bin/../lib/gcc/arm-none-eabi/8.2.1/../../../../arm-none-eabi/lib/thumb/v7e-m+fp/hard\libc.a
END GROUP
START GROUP
LOAD c:/users/andy/.vscode/extensions/metalcode-eu.windows-arm-none-eabi-0.1.6/bin/../lib/gcc/arm-none-eabi/8.2.1/thumb/v7e-m+fp/hard\libgcc.a
LOAD c:/users/andy/.vscode/extensions/metalcode-eu.windows-arm-none-eabi-0.1.6/bin/../lib/gcc/arm-none-eabi/8.2.1/../../../../arm-none-eabi/lib/thumb/v7e-m+fp/hard\libc.a
LOAD c:/users/andy/.vscode/extensions/metalcode-eu.windows-arm-none-eabi-0.1.6/bin/../lib/gcc/arm-none-eabi/8.2.1/../../../../arm-none-eabi/lib/thumb/v7e-m+fp/hard\libnosys.a
END GROUP
LOAD c:/users/andy/.vscode/extensions/metalcode-eu.windows-arm-none-eabi-0.1.6/bin/../lib/gcc/arm-none-eabi/8.2.1/thumb/v7e-m+fp/hard/crtend.o
LOAD c:/users/andy/.vscode/extensions/metalcode-eu.windows-arm-none-eabi-0.1.6/bin/../lib/gcc/arm-none-eabi/8.2.1/thumb/v7e-m+fp/hard/crtn.o
                0x2001fffc                _estack = 0x2001fffc
                0x00000200                _Min_Heap_Size = 0x200
                0x00000400                _Min_Stack_Size = 0x400

.isr_vector     0x08008000      0x188
                0x08008000                . = ALIGN (0x4)
 *(.isr_vector)
 .isr_vector    0x08008000      0x188 ./build/\libSTMCore.a(startup_stm32yyxx.o)
                0x08008000                g_pfnVectors
                0x08008188                . = ALIGN (0x4)

.reset_data     0x0800c000     0x4000
                0x0800c000                . = ALIGN (0x4)
                0x0800c000                __reset_data_start = .
 *(.reset_data)
 .reset_data    0x0800c000     0x4000 ./build/./RepRapFirmware/src/targets/STM32/NVMEmulation.o
                0x0800c000                ResetData
                0x08010000                . = ALIGN (0x4)

.text           0x08010000    0x556bc
                0x08010000                . = ALIGN (0x4)
 *(.text)
 .text          0x08010000       0x40 c:/users/andy/.vscode/extensions/metalcode-eu.windows-arm-none-eabi-0.1.6/bin/../lib/gcc/arm-none-eabi/8.2.1/thumb/v7e-m+fp/hard/crtbegin.o
 .text          0x08010040      0x2dc c:/users/andy/.vscode/extensions/metalcode-eu.windows-arm-none-eabi-0.1.6/bin/../lib/gcc/arm-none-eabi/8.2.1/../../../../arm-none-eabi/lib/thumb/v7e-m+fp/hard\libc.a(lib_a-strcmp.o)
                0x08010048                strcmp
 *fill*         0x0801031c       0x24 
 .text          0x08010340       0xdc c:/users/andy/.vscode/extensions/metalcode-eu.windows-arm-none-eabi-0.1.6/bin/../lib/gcc/arm-none-eabi/8.2.1/../../../../arm-none-eabi/lib/thumb/v7e-m+fp/hard\libc.a(lib_a-strlen.o)
                0x08010340                strlen
 .text          0x0801041c      0x378 c:/users/andy/.vscode/extensions/metalcode-eu.windows-arm-none-eabi-0.1.6/bin/../lib/gcc/arm-none-eabi/8.2.1/thumb/v7e-m+fp/hard\libgcc.a(_arm_addsubdf3.o)
                0x0801041c                __aeabi_drsub
                0x08010424                __subdf3
                0x08010424                __aeabi_dsub
                0x08010428                __aeabi_dadd
                0x08010428                __adddf3
                0x080106a0                __floatunsidf
                0x080106a0                __aeabi_ui2d
                0x080106c0                __aeabi_i2d
                0x080106c0                __floatsidf
                0x080106e4                __extendsfdf2
                0x080106e4                __aeabi_f2d
                0x08010728                __floatundidf
                0x08010728                __aeabi_ul2d
                0x08010738                __aeabi_l2d
                0x08010738                __floatdidf
 .text          0x08010794      0x424 c:/users/andy/.vscode/extensions/metalcode-eu.windows-arm-none-eabi-0.1.6/bin/../lib/gcc/arm-none-eabi/8.2.1/thumb/v7e-m+fp/hard\libgcc.a(_arm_muldivdf3.o)
                0x08010794                __aeabi_dmul
                0x08010794                __muldf3
                0x080109e8                __divdf3
                0x080109e8                __aeabi_ddiv
 .text          0x08010bb8      0x110 c:/users/andy/.vscode/extensions/metalcode-eu.windows-arm-none-eabi-0.1.6/bin/../lib/gcc/arm-none-eabi/8.2.1/thumb/v7e-m+fp/hard\libgcc.a(_arm_cmpdf2.o)
                0x08010bb8                __gtdf2
                0x08010bb8                __gedf2
                0x08010bc0                __ltdf2
                0x08010bc0                __ledf2
                0x08010bc8                __nedf2
                0x08010bc8                __cmpdf2
                0x08010bc8                __eqdf2
                0x08010c44                __aeabi_cdrcmple
                0x08010c54                __aeabi_cdcmple
                0x08010c54                __aeabi_cdcmpeq
                0x08010c64                __aeabi_dcmpeq
                0x08010c78                __aeabi_dcmplt
                0x08010c8c                __aeabi_dcmple
                0x08010ca0                __aeabi_dcmpge
                0x08010cb4                __aeabi_dcmpgt
 .text          0x08010cc8       0x2c c:/users/andy/.vscode/extensions/metalcode-eu.windows-arm-none-eabi-0.1.6/bin/../lib/gcc/arm-none-eabi/8.2.1/thumb/v7e-m+fp/hard\libgcc.a(_arm_unorddf2.o)
                0x08010cc8                __unorddf2
                0x08010cc8                __aeabi_dcmpun
 .text          0x08010cf4       0xa0 c:/users/andy/.vscode/extensions/metalcode-eu.windows-arm-none-eabi-0.1.6/bin/../lib/gcc/arm-none-eabi/8.2.1/thumb/v7e-m+fp/hard\libgcc.a(_arm_truncdfsf2.o)
                0x08010cf4                __truncdfsf2
                0x08010cf4                __aeabi_d2f
 .text          0x08010d94      0x21c c:/users/andy/.vscode/extensions/metalcode-eu.windows-arm-none-eabi-0.1.6/bin/../lib/gcc/arm-none-eabi/8.2.1/thumb/v7e-m+fp/hard\libgcc.a(_arm_addsubsf3.o)
                0x08010d94                __aeabi_frsub
                0x08010d9c                __subsf3
                0x08010d9c                __aeabi_fsub
                0x08010da0                __addsf3
                0x08010da0                __aeabi_fadd
                0x08010f00                __aeabi_ui2f
                0x08010f00                __floatunsisf
                0x08010f08                __floatsisf
                0x08010f08                __aeabi_i2f
                0x08010f24                __aeabi_ul2f
                0x08010f24                __floatundisf
                0x08010f34                __aeabi_l2f
                0x08010f34                __floatdisf
 .text          0x08010fb0       0xa0 c:/users/andy/.vscode/extensions/metalcode-eu.windows-arm-none-eabi-0.1.6/bin/../lib/gcc/arm-none-eabi/8.2.1/thumb/v7e-m+fp/hard\libgcc.a(_aeabi_ldivmod.o)
                0x08010fb0                __aeabi_ldivmod
 .text          0x08011050       0x30 c:/users/andy/.vscode/extensions/metalcode-eu.windows-arm-none-eabi-0.1.6/bin/../lib/gcc/arm-none-eabi/8.2.1/thumb/v7e-m+fp/hard\libgcc.a(_aeabi_uldivmod.o)
                0x08011050                __aeabi_uldivmod
 .text          0x08011080       0x20 c:/users/andy/.vscode/extensions/metalcode-eu.windows-arm-none-eabi-0.1.6/bin/../lib/gcc/arm-none-eabi/8.2.1/thumb/v7e-m+fp/hard\libgcc.a(_ctzdi2.o)
                0x08011080                __ctzdi2
 .text          0x080110a0       0x24 c:/users/andy/.vscode/extensions/metalcode-eu.windows-arm-none-eabi-0.1.6/bin/../lib/gcc/arm-none-eabi/8.2.1/thumb/v7e-m+fp/hard\libgcc.a(_fixsfdi.o)
                0x080110a0                __aeabi_f2lz
                0x080110a0                __fixsfdi
 .text          0x080110c4       0x30 c:/users/andy/.vscode/extensions/metalcode-eu.windows-arm-none-eabi-0.1.6/bin/../lib/gcc/arm-none-eabi/8.2.1/thumb/v7e-m+fp/hard\libgcc.a(_fixdfdi.o)
                0x080110c4                __aeabi_d2lz
                0x080110c4                __fixdfdi
 .text          0x080110f4       0x40 c:/users/andy/.vscode/extensions/metalcode-eu.windows-arm-none-eabi-0.1.6/bin/../lib/gcc/arm-none-eabi/8.2.1/thumb/v7e-m+fp/hard\libgcc.a(_fixunssfdi.o)
                0x080110f4                __aeabi_f2ulz
                0x080110f4                __fixunssfdi
 .text          0x08011134       0x3c c:/users/andy/.vscode/extensions/metalcode-eu.windows-arm-none-eabi-0.1.6/bin/../lib/gcc/arm-none-eabi/8.2.1/thumb/v7e-m+fp/hard\libgcc.a(_fixunsdfdi.o)
                0x08011134                __fixunsdfdi
                0x08011134                __aeabi_d2ulz
 .text          0x08011170      0x2d0 c:/users/andy/.vscode/extensions/metalcode-eu.windows-arm-none-eabi-0.1.6/bin/../lib/gcc/arm-none-eabi/8.2.1/thumb/v7e-m+fp/hard\libgcc.a(_udivmoddi4.o)
                0x08011170                __udivmoddi4
 .text          0x08011440      0x9d8 c:/users/andy/.vscode/extensions/metalcode-eu.windows-arm-none-eabi-0.1.6/bin/../lib/gcc/arm-none-eabi/8.2.1/thumb/v7e-m+fp/hard\libgcc.a(unwind-arm.o)
                0x080116f8                _Unwind_GetCFA
                0x080116fc                __gnu_Unwind_RaiseException
                0x0801175c                __gnu_Unwind_ForcedUnwind
                0x08011770                __gnu_Unwind_Resume
                0x080117b4                __gnu_Unwind_Resume_or_Rethrow
                0x080117c4                _Unwind_Complete
                0x080117c8                _Unwind_DeleteException
                0x080117d4                _Unwind_VRS_Get
                0x08011818                _Unwind_VRS_Set
                0x0801185c                __gnu_Unwind_Backtrace
                0x08011b94                __aeabi_unwind_cpp_pr0
                0x08011b98                __aeabi_unwind_cpp_pr1
                0x08011b9c                __aeabi_unwind_cpp_pr2
                0x08011ba0                _Unwind_VRS_Pop
 .text          0x08011e18      0x1ac c:/users/andy/.vscode/extensions/metalcode-eu.windows-arm-none-eabi-0.1.6/bin/../lib/gcc/arm-none-eabi/8.2.1/thumb/v7e-m+fp/hard\libgcc.a(libunwind.o)
                0x08011e18                __restore_core_regs
                0x08011e18                restore_core_regs
                0x08011e30                __gnu_Unwind_Restore_VFP
                0x08011e38                __gnu_Unwind_Save_VFP
                0x08011e40                __gnu_Unwind_Restore_VFP_D
                0x08011e48                __gnu_Unwind_Save_VFP_D
                0x08011e50                __gnu_Unwind_Restore_VFP_D_16_to_31
                0x08011e58                __gnu_Unwind_Save_VFP_D_16_to_31
                0x08011e60                __gnu_Unwind_Restore_WMMXD
                0x08011ea4                __gnu_Unwind_Save_WMMXD
                0x08011ee8                __gnu_Unwind_Restore_WMMXC
                0x08011efc                __gnu_Unwind_Save_WMMXC
                0x08011f10                ___Unwind_RaiseException
                0x08011f10                _Unwind_RaiseException
                0x08011f34                ___Unwind_Resume
                0x08011f34                _Unwind_Resume
                0x08011f58                ___Unwind_Resume_or_Rethrow
                0x08011f58                _Unwind_Resume_or_Rethrow
                0x08011f7c                _Unwind_ForcedUnwind
                0x08011f7c                ___Unwind_ForcedUnwind
                0x08011fa0                ___Unwind_Backtrace
                0x08011fa0                _Unwind_Backtrace
 .text          0x08011fc4      0x368 c:/users/andy/.vscode/extensions/metalcode-eu.windows-arm-none-eabi-0.1.6/bin/../lib/gcc/arm-none-eabi/8.2.1/thumb/v7e-m+fp/hard\libgcc.a(pr-support.o)
                0x0801201c                __gnu_unwind_execute
                0x080122e4                __gnu_unwind_frame
                0x0801230c                _Unwind_GetRegionStart
                0x08012318                _Unwind_GetLanguageSpecificData
 .text          0x0801232c        0x4 c:/users/andy/.vscode/extensions/metalcode-eu.windows-arm-none-eabi-0.1.6/bin/../lib/gcc/arm-none-eabi/8.2.1/thumb/v7e-m+fp/hard\libgcc.a(_dvmd_tls.o)
                0x0801232c                __aeabi_idiv0
                0x0801232c                __aeabi_ldiv0
 .text          0x08012330       0x40 c:/users/andy/.vscode/extensions/metalcode-eu.windows-arm-none-eabi-0.1.6/bin/../lib/gcc/arm-none-eabi/8.2.1/thumb/v7e-m+fp/hard\libgcc.a(_arm_fixunsdfsi.o)
                0x08012330                __fixunsdfsi
                0x08012330                __aeabi_d2uiz
 *(.text*)
 .text._sbrk    0x08012370       0x34 ./build/./CoreSTM32F4/cores/arduino/syscalls.o
                0x08012370                _sbrk
 .text._exit    0x080123a4        0x2 ./build/./CoreSTM32F4/cores/arduino/syscalls.o
                0x080123a4                _exit
 *fill*         0x080123a6        0x2 
 .text._kill    0x080123a8       0x10 ./build/./CoreSTM32F4/cores/arduino/syscalls.o
                0x080123a8                _kill
 .text._getpid  0x080123b8        0x4 ./build/./CoreSTM32F4/cores/arduino/syscalls.o
                0x080123b8                _getpid
 .text.memcmp   0x080123bc       0x1c ./build/./RepRapFirmware/src/libc/memcmp.o
                0x080123bc                memcmp
 .text.memcpy   0x080123d8       0x1c ./build/./RepRapFirmware/src/libc/memcpy.o
                0x080123d8                memcpy
 .text.memmove  0x080123f4       0x34 ./build/./RepRapFirmware/src/libc/memmove.o
                0x080123f4                memmove
 .text.memset   0x08012428       0x10 ./build/./RepRapFirmware/src/libc/memset.o
                0x08012428                memset
 .text.malloc   0x08012438       0xb0 ./build/./RepRapFirmware/src/libc/nano-mallocr.o
                0x08012438                malloc
 .text.free     0x080124e8       0xa0 ./build/./RepRapFirmware/src/libc/nano-mallocr.o
                0x080124e8                free
 .text.mallinfo
                0x08012588       0x5c ./build/./RepRapFirmware/src/libc/nano-mallocr.o
                0x08012588                mallinfo
 .text.__cxa_allocate_exception
                0x080125e4       0x1e ./build/./RepRapFirmware/src/libcpp/eh_alloc.o
                0x080125e4                __cxa_allocate_exception
 .text.__cxa_free_exception
                0x08012602        0x6 ./build/./RepRapFirmware/src/libcpp/eh_alloc.o
                0x08012602                __cxa_free_exception
 .text._Z12SafeStrptimePKcS0_P2tm
                0x08012608      0x1d8 ./build/./RepRapFirmware/src/libc/strptime.o
                0x08012608                SafeStrptime(char const*, char const*, tm*)
 .text.uart_init
                0x080127e0      0x200 ./build/\libSTMCore.a(uart.o)
                0x080127e0                uart_init
 .text.uart_deinit
                0x080129e0       0xe0 ./build/\libSTMCore.a(uart.o)
                0x080129e0                uart_deinit
 .text.serial_rx_active
                0x08012ac0       0x24 ./build/\libSTMCore.a(uart.o)
                0x08012ac0                serial_rx_active
 .text.serial_tx_active
                0x08012ae4       0x24 ./build/\libSTMCore.a(uart.o)
                0x08012ae4                serial_tx_active
 .text.uart_getc
                0x08012b08       0x38 ./build/\libSTMCore.a(uart.o)
                0x08012b08                uart_getc
 .text.uart_attach_rx_callback
                0x08012b40       0x40 ./build/\libSTMCore.a(uart.o)
                0x08012b40                uart_attach_rx_callback
 .text.uart_attach_tx_callback
                0x08012b80       0x3c ./build/\libSTMCore.a(uart.o)
                0x08012b80                uart_attach_tx_callback
 .text.uart_set_interrupt_priority
                0x08012bbc        0xa ./build/\libSTMCore.a(uart.o)
                0x08012bbc                uart_set_interrupt_priority
 .text.HAL_UART_RxCpltCallback
                0x08012bc6        0xc ./build/\libSTMCore.a(uart.o)
                0x08012bc6                HAL_UART_RxCpltCallback
 .text.HAL_UART_TxCpltCallback
                0x08012bd2       0x26 ./build/\libSTMCore.a(uart.o)
                0x08012bd2                HAL_UART_TxCpltCallback
 .text.HAL_UART_ErrorCallback
                0x08012bf8       0x7c ./build/\libSTMCore.a(uart.o)
                0x08012bf8                HAL_UART_ErrorCallback
 .text.USART1_IRQHandler
                0x08012c74       0x18 ./build/\libSTMCore.a(uart.o)
                0x08012c74                USART1_IRQHandler
 .text.USART2_IRQHandler
                0x08012c8c       0x18 ./build/\libSTMCore.a(uart.o)
                0x08012c8c                USART2_IRQHandler
 .text.USART3_IRQHandler
                0x08012ca4       0x1c ./build/\libSTMCore.a(uart.o)
                0x08012ca4                USART3_IRQHandler
 .text.UART4_IRQHandler
                0x08012cc0       0x18 ./build/\libSTMCore.a(uart.o)
                0x08012cc0                UART4_IRQHandler
 .text.UART5_IRQHandler
                0x08012cd8       0x18 ./build/\libSTMCore.a(uart.o)
                0x08012cd8                UART5_IRQHandler
 .text.USART6_IRQHandler
                0x08012cf0       0x18 ./build/\libSTMCore.a(uart.o)
                0x08012cf0                USART6_IRQHandler
 .text.HAL_MspInit
                0x08012d08        0x2 ./build/\libSTMCore.a(stm32f4xx_hal.o)
                0x08012d08                HAL_MspInit
 *fill*         0x08012d0a        0x2 
 .text.HAL_InitTick
                0x08012d0c       0x48 ./build/\libSTMCore.a(stm32f4xx_hal.o)
                0x08012d0c                HAL_InitTick
 .text.HAL_Init
                0x08012d54       0x34 ./build/\libSTMCore.a(stm32f4xx_hal.o)
                0x08012d54                HAL_Init
 .text.HAL_IncTick
                0x08012d88       0x18 ./build/\libSTMCore.a(stm32f4xx_hal.o)
                0x08012d88                HAL_IncTick
 .text.HAL_GetTick
                0x08012da0        0xc ./build/\libSTMCore.a(stm32f4xx_hal.o)
                0x08012da0                HAL_GetTick
 .text.HAL_Delay
                0x08012dac       0x28 ./build/\libSTMCore.a(stm32f4xx_hal.o)
                0x08012dac                HAL_Delay
 .text.HAL_NVIC_SetPriorityGrouping
                0x08012dd4       0x38 ./build/\libSTMCore.a(stm32f4xx_hal_cortex.o)
                0x08012dd4                HAL_NVIC_SetPriorityGrouping
 .text.HAL_NVIC_SetPriority
                0x08012e0c       0x88 ./build/\libSTMCore.a(stm32f4xx_hal_cortex.o)
                0x08012e0c                HAL_NVIC_SetPriority
 .text.HAL_NVIC_EnableIRQ
                0x08012e94       0x28 ./build/\libSTMCore.a(stm32f4xx_hal_cortex.o)
                0x08012e94                HAL_NVIC_EnableIRQ
 .text.HAL_NVIC_DisableIRQ
                0x08012ebc       0x34 ./build/\libSTMCore.a(stm32f4xx_hal_cortex.o)
                0x08012ebc                HAL_NVIC_DisableIRQ
 .text.HAL_SYSTICK_Config
                0x08012ef0       0x2c ./build/\libSTMCore.a(stm32f4xx_hal_cortex.o)
                0x08012ef0                HAL_SYSTICK_Config
 .text.HAL_NVIC_ClearPendingIRQ
                0x08012f1c       0x2c ./build/\libSTMCore.a(stm32f4xx_hal_cortex.o)
                0x08012f1c                HAL_NVIC_ClearPendingIRQ
 .text.HAL_SYSTICK_CLKSourceConfig
                0x08012f48       0x30 ./build/\libSTMCore.a(stm32f4xx_hal_cortex.o)
                0x08012f48                HAL_SYSTICK_CLKSourceConfig
 .text.HAL_SYSTICK_Callback
                0x08012f78        0x2 ./build/\libSTMCore.a(stm32f4xx_hal_cortex.o)
                0x08012f78                HAL_SYSTICK_Callback
 .text.HAL_SYSTICK_IRQHandler
                0x08012f7a        0x8 ./build/\libSTMCore.a(stm32f4xx_hal_cortex.o)
                0x08012f7a                HAL_SYSTICK_IRQHandler
 .text.UART_EndRxTransfer
                0x08012f82       0x1a ./build/\libSTMCore.a(stm32f4xx_hal_uart.o)
 .text.UART_SetConfig
                0x08012f9c      0x28c ./build/\libSTMCore.a(stm32f4xx_hal_uart.o)
 .text.HAL_UART_MspInit
                0x08013228        0x2 ./build/\libSTMCore.a(stm32f4xx_hal_uart.o)
                0x08013228                HAL_UART_MspInit
 *fill*         0x0801322a        0x2 
 .text.HAL_UART_Init
                0x0801322c      0x104 ./build/\libSTMCore.a(stm32f4xx_hal_uart.o)
                0x0801322c                HAL_UART_Init
 .text.HAL_UART_MspDeInit
                0x08013330        0x2 ./build/\libSTMCore.a(stm32f4xx_hal_uart.o)
                0x08013330                HAL_UART_MspDeInit
 *fill*         0x08013332        0x2 
 .text.HAL_UART_DeInit
                0x08013334       0x74 ./build/\libSTMCore.a(stm32f4xx_hal_uart.o)
                0x08013334                HAL_UART_DeInit
 .text.HAL_UART_Transmit_IT
                0x080133a8       0x3e ./build/\libSTMCore.a(stm32f4xx_hal_uart.o)
                0x080133a8                HAL_UART_Transmit_IT
 .text.HAL_UART_Receive_IT
                0x080133e6       0x4e ./build/\libSTMCore.a(stm32f4xx_hal_uart.o)
                0x080133e6                HAL_UART_Receive_IT
 .text.UART_Receive_IT
                0x08013434       0x76 ./build/\libSTMCore.a(stm32f4xx_hal_uart.o)
 *fill*         0x080134aa        0x2 
 .text.HAL_UART_IRQHandler
                0x080134ac      0x140 ./build/\libSTMCore.a(stm32f4xx_hal_uart.o)
                0x080134ac                HAL_UART_IRQHandler
 .text.UART_DMAAbortOnError
                0x080135ec       0x10 ./build/\libSTMCore.a(stm32f4xx_hal_uart.o)
 .text.HAL_UART_GetState
                0x080135fc        0xc ./build/\libSTMCore.a(stm32f4xx_hal_uart.o)
                0x080135fc                HAL_UART_GetState
 .text._Z11initVariantv
                0x08013608        0x2 ./build/\libSTMCore.a(main.o)
                0x08013608                initVariant()
 .text.startup._Z7premainv
                0x0801360a       0x14 ./build/\libSTMCore.a(main.o)
                0x0801360a                premain()
 .text.startup.main
                0x0801361e        0xc ./build/\libSTMCore.a(main.o)
                0x0801361e                main
 *fill*         0x0801362a        0x2 
 .text.Reset_Handler
                0x0801362c       0x50 ./build/\libSTMCore.a(startup_stm32yyxx.o)
                0x0801362c                Reset_Handler
 .text.Default_Handler
                0x0801367c        0x2 ./build/\libSTMCore.a(startup_stm32yyxx.o)
                0x0801367c                OTG_HS_WKUP_IRQHandler
                0x0801367c                DMA2_Stream7_IRQHandler
                0x0801367c                ETH_IRQHandler
                0x0801367c                SPI2_IRQHandler
                0x0801367c                SPI1_IRQHandler
                0x0801367c                PVD_IRQHandler
                0x0801367c                ADC_IRQHandler
                0x0801367c                DMA1_Stream6_IRQHandler
                0x0801367c                DMA1_Stream1_IRQHandler
                0x0801367c                DMA2_Stream0_IRQHandler
                0x0801367c                I2C3_EV_IRQHandler
                0x0801367c                DMA1_Stream2_IRQHandler
                0x0801367c                RCC_IRQHandler
                0x0801367c                I2C1_ER_IRQHandler
                0x0801367c                OTG_HS_EP1_OUT_IRQHandler
                0x0801367c                DMA2_Stream4_IRQHandler
                0x0801367c                I2C2_EV_IRQHandler
                0x0801367c                CAN1_RX0_IRQHandler
                0x0801367c                DMA1_Stream0_IRQHandler
                0x0801367c                DMA1_Stream7_IRQHandler
                0x0801367c                CAN2_TX_IRQHandler
                0x0801367c                FLASH_IRQHandler
                0x0801367c                CAN1_TX_IRQHandler
                0x0801367c                RTC_WKUP_IRQHandler
                0x0801367c                FSMC_IRQHandler
                0x0801367c                CAN1_SCE_IRQHandler
                0x0801367c                BusFault_Handler
                0x0801367c                TAMP_STAMP_IRQHandler
                0x0801367c                HASH_RNG_IRQHandler
                0x0801367c                OTG_HS_EP1_IN_IRQHandler
                0x0801367c                Default_Handler
                0x0801367c                ETH_WKUP_IRQHandler
                0x0801367c                DMA1_Stream5_IRQHandler
                0x0801367c                I2C3_ER_IRQHandler
                0x0801367c                I2C2_ER_IRQHandler
                0x0801367c                CAN2_RX0_IRQHandler
                0x0801367c                DMA2_Stream2_IRQHandler
                0x0801367c                DMA2_Stream1_IRQHandler
                0x0801367c                FPU_IRQHandler
                0x0801367c                DCMI_IRQHandler
                0x0801367c                CAN2_RX1_IRQHandler
                0x0801367c                I2C1_EV_IRQHandler
                0x0801367c                SPI3_IRQHandler
                0x0801367c                OTG_HS_IRQHandler
                0x0801367c                MemManage_Handler
                0x0801367c                RTC_Alarm_IRQHandler
                0x0801367c                CAN1_RX1_IRQHandler
                0x0801367c                CAN2_SCE_IRQHandler
 .text.init     0x0801367e        0x4 ./build/\libSTMCore.a(board.o)
                0x0801367e                init
 .text.hw_config_init
                0x08013682       0x12 ./build/\libSTMCore.a(hw_config.o)
                0x08013682                hw_config_init
 .text.LL_GPIO_SetPinPull
                0x08013694       0x2a ./build/\libSTMCore.a(pinmap.o)
 *fill*         0x080136be        0x2 
 .text.pin_function
                0x080136c0      0x138 ./build/\libSTMCore.a(pinmap.o)
                0x080136c0                pin_function
 .text.pinmap_pinout
                0x080137f8       0x28 ./build/\libSTMCore.a(pinmap.o)
                0x080137f8                pinmap_pinout
 .text.pinmap_find_peripheral
                0x08013820       0x18 ./build/\libSTMCore.a(pinmap.o)
                0x08013820                pinmap_find_peripheral
 .text.pinmap_peripheral
                0x08013838        0xc ./build/\libSTMCore.a(pinmap.o)
                0x08013838                pinmap_peripheral
 .text.pinmap_find_pin
                0x08013844       0x18 ./build/\libSTMCore.a(pinmap.o)
                0x08013844                pinmap_find_pin
 .text.pinmap_pin
                0x0801385c        0xc ./build/\libSTMCore.a(pinmap.o)
                0x0801385c                pinmap_pin
 .text.pinmap_find_function
                0x08013868       0x18 ./build/\libSTMCore.a(pinmap.o)
                0x08013868                pinmap_find_function
 .text.pinmap_function
                0x08013880        0xa ./build/\libSTMCore.a(pinmap.o)
                0x08013880                pinmap_function
 .text.pinmap_merge_peripheral
                0x0801388a       0x12 ./build/\libSTMCore.a(pinmap.o)
                0x0801388a                pinmap_merge_peripheral
 .text.set_GPIO_Port_Clock
                0x0801389c      0x130 ./build/\libSTMCore.a(PortNames.o)
                0x0801389c                set_GPIO_Port_Clock
 .text._Error_Handler
                0x080139cc        0x2 ./build/\libSTMCore.a(stm32_def.o)
                0x080139cc                _Error_Handler
 *fill*         0x080139ce        0x2 
 .text.SystemInit
                0x080139d0       0x4c ./build/\libSTMCore.a(system_stm32yyxx.o)
                0x080139d0                SystemInit
 .text.DMA_CalcBaseAndBitshift
                0x08013a1c       0x2c ./build/\libSTMCore.a(stm32f4xx_hal_dma.o)
 .text.HAL_DMA_Init
                0x08013a48      0x254 ./build/\libSTMCore.a(stm32f4xx_hal_dma.o)
                0x08013a48                HAL_DMA_Init
 .text.HAL_DMA_Start_IT
                0x08013c9c       0xb4 ./build/\libSTMCore.a(stm32f4xx_hal_dma.o)
                0x08013c9c                HAL_DMA_Start_IT
 .text.HAL_DMA_Abort
                0x08013d50       0x86 ./build/\libSTMCore.a(stm32f4xx_hal_dma.o)
                0x08013d50                HAL_DMA_Abort
 .text.HAL_DMA_Abort_IT
                0x08013dd6       0x24 ./build/\libSTMCore.a(stm32f4xx_hal_dma.o)
                0x08013dd6                HAL_DMA_Abort_IT
 *fill*         0x08013dfa        0x2 
 .text.HAL_DMA_IRQHandler
                0x08013dfc      0x17c ./build/\libSTMCore.a(stm32f4xx_hal_dma.o)
                0x08013dfc                HAL_DMA_IRQHandler
 .text.HAL_DMA_RegisterCallback
                0x08013f78       0x50 ./build/\libSTMCore.a(stm32f4xx_hal_dma.o)
                0x08013f78                HAL_DMA_RegisterCallback
 .text.HAL_DMA_GetState
                0x08013fc8        0x6 ./build/\libSTMCore.a(stm32f4xx_hal_dma.o)
                0x08013fc8                HAL_DMA_GetState
 *fill*         0x08013fce        0x2 
 .text.HAL_RCC_OscConfig
                0x08013fd0      0x3fc ./build/\libSTMCore.a(stm32f4xx_hal_rcc.o)
                0x08013fd0                HAL_RCC_OscConfig
 .text.HAL_RCC_GetSysClockFreq
                0x080143cc       0x5c ./build/\libSTMCore.a(stm32f4xx_hal_rcc.o)
                0x080143cc                HAL_RCC_GetSysClockFreq
 .text.HAL_RCC_ClockConfig
                0x08014428      0x1e4 ./build/\libSTMCore.a(stm32f4xx_hal_rcc.o)
                0x08014428                HAL_RCC_ClockConfig
 .text.HAL_RCC_GetHCLKFreq
                0x0801460c        0xc ./build/\libSTMCore.a(stm32f4xx_hal_rcc.o)
                0x0801460c                HAL_RCC_GetHCLKFreq
 .text.HAL_RCC_GetPCLK1Freq
                0x08014618       0x20 ./build/\libSTMCore.a(stm32f4xx_hal_rcc.o)
                0x08014618                HAL_RCC_GetPCLK1Freq
 .text.HAL_RCC_GetPCLK2Freq
                0x08014638       0x20 ./build/\libSTMCore.a(stm32f4xx_hal_rcc.o)
                0x08014638                HAL_RCC_GetPCLK2Freq
 .text.HAL_RCC_GetClockConfig
                0x08014658       0x3c ./build/\libSTMCore.a(stm32f4xx_hal_rcc.o)
                0x08014658                HAL_RCC_GetClockConfig
 .text.SystemClock_Config
                0x08014694       0xc8 ./build/\libSTMCore.a(variant.o)
                0x08014694                SystemClock_Config
 .text.dwt_init
                0x0801475c       0x38 ./build/\libSTMCore.a(dwt.o)
                0x0801475c                dwt_init
 .text.HAL_GPIO_Init
                0x08014794      0x28c ./build/\libSTMCore.a(stm32f4xx_hal_gpio.o)
                0x08014794                HAL_GPIO_Init
 .text.HAL_GPIO_EXTI_IRQHandler
                0x08014a20       0x18 ./build/\libSTMCore.a(stm32f4xx_hal_gpio.o)
                0x08014a20                HAL_GPIO_EXTI_IRQHandler
 .text.ld_dword
                0x08014a38       0x10 ./build/./RepRapFirmware/src/targets/common/FatFS/ff.o
 .text.st_dword
                0x08014a48       0x10 ./build/./RepRapFirmware/src/targets/common/FatFS/ff.o
 .text.clst2sect
                0x08014a58       0x16 ./build/./RepRapFirmware/src/targets/common/FatFS/ff.o
 .text.sum_sfn  0x08014a6e       0x1e ./build/./RepRapFirmware/src/targets/common/FatFS/ff.o
 .text.get_ldnumber
                0x08014a8c       0x3a ./build/./RepRapFirmware/src/targets/common/FatFS/ff.o
 .text.ld_clust.isra.3
                0x08014ac6       0x1c ./build/./RepRapFirmware/src/targets/common/FatFS/ff.o
 .text.st_clust.isra.4
                0x08014ae2       0x18 ./build/./RepRapFirmware/src/targets/common/FatFS/ff.o
 .text.sync_window
                0x08014afa       0x44 ./build/./RepRapFirmware/src/targets/common/FatFS/ff.o
 .text.move_window
                0x08014b3e       0x36 ./build/./RepRapFirmware/src/targets/common/FatFS/ff.o
 .text.check_fs
                0x08014b74       0x70 ./build/./RepRapFirmware/src/targets/common/FatFS/ff.o
 .text.find_volume
                0x08014be4      0x2c4 ./build/./RepRapFirmware/src/targets/common/FatFS/ff.o
 .text.put_fat  0x08014ea8       0xf8 ./build/./RepRapFirmware/src/targets/common/FatFS/ff.o
 .text.get_fat.isra.10
                0x08014fa0       0xb4 ./build/./RepRapFirmware/src/targets/common/FatFS/ff.o
 .text.dir_sdi  0x08015054       0x82 ./build/./RepRapFirmware/src/targets/common/FatFS/ff.o
 .text.create_chain
                0x080150d6       0xe8 ./build/./RepRapFirmware/src/targets/common/FatFS/ff.o
 .text.remove_chain
                0x080151be       0x6e ./build/./RepRapFirmware/src/targets/common/FatFS/ff.o
 .text.unlock_fs
                0x0801522c       0x16 ./build/./RepRapFirmware/src/targets/common/FatFS/ff.o
 .text.validate
                0x08015242       0x4c ./build/./RepRapFirmware/src/targets/common/FatFS/ff.o
 .text.dir_clear
                0x0801528e       0x52 ./build/./RepRapFirmware/src/targets/common/FatFS/ff.o
 .text.dir_next
                0x080152e0       0xaa ./build/./RepRapFirmware/src/targets/common/FatFS/ff.o
 *fill*         0x0801538a        0x2 
 .text.dir_find
                0x0801538c      0x148 ./build/./RepRapFirmware/src/targets/common/FatFS/ff.o
 .text.dir_register
                0x080154d4      0x290 ./build/./RepRapFirmware/src/targets/common/FatFS/ff.o
 .text.sync_fs  0x08015764       0x96 ./build/./RepRapFirmware/src/targets/common/FatFS/ff.o
 *fill*         0x080157fa        0x2 
 .text.follow_path
                0x080157fc      0x320 ./build/./RepRapFirmware/src/targets/common/FatFS/ff.o
 .text.f_mount  0x08015b1c       0x70 ./build/./RepRapFirmware/src/targets/common/FatFS/ff.o
                0x08015b1c                f_mount
 .text.f_open   0x08015b8c      0x1a2 ./build/./RepRapFirmware/src/targets/common/FatFS/ff.o
                0x08015b8c                f_open
 .text.f_read   0x08015d2e      0x148 ./build/./RepRapFirmware/src/targets/common/FatFS/ff.o
                0x08015d2e                f_read
 .text.f_write  0x08015e76      0x1a2 ./build/./RepRapFirmware/src/targets/common/FatFS/ff.o
                0x08015e76                f_write
 .text.f_sync   0x08016018       0x74 ./build/./RepRapFirmware/src/targets/common/FatFS/ff.o
                0x08016018                f_sync
 .text.f_close  0x0801608c       0x28 ./build/./RepRapFirmware/src/targets/common/FatFS/ff.o
                0x0801608c                f_close
 .text.f_lseek  0x080160b4      0x120 ./build/./RepRapFirmware/src/targets/common/FatFS/ff.o
                0x080160b4                f_lseek
 .text.ff_uni2oem
                0x080161d4       0x40 ./build/./RepRapFirmware/src/targets/common/FatFS/ffunicode.o
                0x080161d4                ff_uni2oem
 .text.ff_wtoupper
                0x08016214       0x8c ./build/./RepRapFirmware/src/targets/common/FatFS/ffunicode.o
                0x08016214                ff_wtoupper
 .text._ZNSt14_Function_base13_Base_managerIZN12OutputBuffer5vcatfEPKcSt9__va_listEUlcE_E10_M_managerERSt9_Any_dataRKS7_St18_Manager_operation
                0x080162a0       0x16 ./build/./RepRapFirmware/src/OutputMemory.o
 .text._ZN9RTOSIface24LeaveTaskCriticalSectionEv
                0x080162b6        0xe ./build/./RepRapFirmware/src/OutputMemory.o
                0x080162b6                RTOSIface::LeaveTaskCriticalSection()
 .text._ZN12OutputBuffer18IncreaseReferencesEj
                0x080162c4       0x28 ./build/./RepRapFirmware/src/OutputMemory.o
                0x080162c4                OutputBuffer::IncreaseReferences(unsigned int)
 .text._ZNK12OutputBuffer6LengthEv
                0x080162ec       0x12 ./build/./RepRapFirmware/src/OutputMemory.o
                0x080162ec                OutputBuffer::Length() const
 .text._ZN12OutputBufferixEj
                0x080162fe       0x14 ./build/./RepRapFirmware/src/OutputMemory.o
                0x080162fe                OutputBuffer::operator[](unsigned int)
 .text._ZN12OutputBuffer4ReadEj
                0x08016312       0x10 ./build/./RepRapFirmware/src/OutputMemory.o
                0x08016312                OutputBuffer::Read(unsigned int)
 *fill*         0x08016322        0x2 
 .text._ZN12OutputBuffer5vcatfEPKcSt9__va_list
                0x08016324       0x30 ./build/./RepRapFirmware/src/OutputMemory.o
                0x08016324                OutputBuffer::vcatf(char const*, std::__va_list)
 .text._ZN12OutputBuffer4catfEPKcz
                0x08016354       0x1a ./build/./RepRapFirmware/src/OutputMemory.o
                0x08016354                OutputBuffer::catf(char const*, ...)
 *fill*         0x0801636e        0x2 
 .text._ZN12OutputBuffer4InitEv
                0x08016370       0x24 ./build/./RepRapFirmware/src/OutputMemory.o
                0x08016370                OutputBuffer::Init()
 .text._ZN12OutputBuffer8AllocateERPS_
                0x08016394       0x88 ./build/./RepRapFirmware/src/OutputMemory.o
                0x08016394                OutputBuffer::Allocate(OutputBuffer*&)
 .text._ZN12OutputBuffer3catEPKcj
                0x0801641c       0x84 ./build/./RepRapFirmware/src/OutputMemory.o
                0x0801641c                OutputBuffer::cat(char const*, unsigned int)
 .text._ZN12OutputBuffer3catEPKc
                0x080164a0       0x1a ./build/./RepRapFirmware/src/OutputMemory.o
                0x080164a0                OutputBuffer::cat(char const*)
 *fill*         0x080164ba        0x2 
 .text._ZN12OutputBuffer7ReleaseEPS_
                0x080164bc       0x44 ./build/./RepRapFirmware/src/OutputMemory.o
                0x080164bc                OutputBuffer::Release(OutputBuffer*)
 .text._ZN12OutputBuffer10ReleaseAllERVPS_
                0x08016500       0x14 ./build/./RepRapFirmware/src/OutputMemory.o
                0x08016500                OutputBuffer::ReleaseAll(OutputBuffer* volatile&)
 .text._ZN12OutputBuffer5ClearEv
                0x08016514       0x16 ./build/./RepRapFirmware/src/OutputMemory.o
                0x08016514                OutputBuffer::Clear()
 .text._ZN12OutputBuffer7vprintfEPKcSt9__va_list
                0x0801652a       0x1a ./build/./RepRapFirmware/src/OutputMemory.o
                0x0801652a                OutputBuffer::vprintf(char const*, std::__va_list)
 .text._ZN12OutputBuffer6printfEPKcz
                0x08016544       0x1a ./build/./RepRapFirmware/src/OutputMemory.o
                0x08016544                OutputBuffer::printf(char const*, ...)
 .text._ZN12OutputBuffer4copyEc
                0x0801655e       0x14 ./build/./RepRapFirmware/src/OutputMemory.o
                0x0801655e                OutputBuffer::copy(char)
 .text._ZN12OutputBuffer3catEc
                0x08016572       0x5c ./build/./RepRapFirmware/src/OutputMemory.o
                0x08016572                OutputBuffer::cat(char)
 .text._ZNSt17_Function_handlerIFbcEZN12OutputBuffer5vcatfEPKcSt9__va_listEUlcE_E9_M_invokeERKSt9_Any_dataOc
                0x080165ce       0x18 ./build/./RepRapFirmware/src/OutputMemory.o
 .text._ZN12OutputBuffer5lcatfEPKcz
                0x080165e6       0x42 ./build/./RepRapFirmware/src/OutputMemory.o
                0x080165e6                OutputBuffer::lcatf(char const*, ...)
 .text._ZN12OutputBuffer10EncodeCharEc
                0x08016628       0x48 ./build/./RepRapFirmware/src/OutputMemory.o
                0x08016628                OutputBuffer::EncodeChar(char)
 .text._ZN12OutputBuffer11EncodeReplyEPS_
                0x08016670       0x50 ./build/./RepRapFirmware/src/OutputMemory.o
                0x08016670                OutputBuffer::EncodeReply(OutputBuffer*)
 .text._ZN12OutputBuffer4lcatEPKcj
                0x080166c0       0x24 ./build/./RepRapFirmware/src/OutputMemory.o
                0x080166c0                OutputBuffer::lcat(char const*, unsigned int)
 .text._ZN12OutputBuffer4lcatEPKc
                0x080166e4       0x1a ./build/./RepRapFirmware/src/OutputMemory.o
                0x080166e4                OutputBuffer::lcat(char const*)
 .text._ZN12OutputBuffer4copyEPKcj
                0x080166fe       0x1a ./build/./RepRapFirmware/src/OutputMemory.o
                0x080166fe                OutputBuffer::copy(char const*, unsigned int)
 .text._ZN12OutputBuffer4copyEPKc
                0x08016718       0x1a ./build/./RepRapFirmware/src/OutputMemory.o
                0x08016718                OutputBuffer::copy(char const*)
 *fill*         0x08016732        0x2 
 .text._ZN12OutputBuffer11DiagnosticsE11MessageType
                0x08016734       0x34 ./build/./RepRapFirmware/src/OutputMemory.o
                0x08016734                OutputBuffer::Diagnostics(MessageType)
 .text._ZNV11OutputStack4PushEP12OutputBuffer11MessageType
                0x08016768       0x60 ./build/./RepRapFirmware/src/OutputMemory.o
                0x08016768                OutputStack::Push(OutputBuffer*, MessageType) volatile
 .text._ZNV11OutputStack3PopEv
                0x080167c8       0x3a ./build/./RepRapFirmware/src/OutputMemory.o
                0x080167c8                OutputStack::Pop() volatile
 .text._ZNVK11OutputStack12GetFirstItemEv
                0x08016802        0xc ./build/./RepRapFirmware/src/OutputMemory.o
                0x08016802                OutputStack::GetFirstItem() const volatile
 .text._ZNVK11OutputStack16GetFirstItemTypeEv
                0x0801680e        0xe ./build/./RepRapFirmware/src/OutputMemory.o
                0x0801680e                OutputStack::GetFirstItemType() const volatile
 .text._ZNV11OutputStack12SetFirstItemEP12OutputBuffer
                0x0801681c       0x1e ./build/./RepRapFirmware/src/OutputMemory.o
                0x0801681c                OutputStack::SetFirstItem(OutputBuffer*) volatile
 .text._ZNV11OutputStack16ReleaseFirstItemEv
                0x0801683a       0x22 ./build/./RepRapFirmware/src/OutputMemory.o
                0x0801683a                OutputStack::ReleaseFirstItem() volatile
 .text._ZNV11OutputStack12ApplyTimeoutEm
                0x0801685c       0x3a ./build/./RepRapFirmware/src/OutputMemory.o
                0x0801685c                OutputStack::ApplyTimeout(unsigned long) volatile
 .text._ZNVK11OutputStack11GetLastItemEv
                0x08016896       0x14 ./build/./RepRapFirmware/src/OutputMemory.o
                0x08016896                OutputStack::GetLastItem() const volatile
 .text._ZNVK11OutputStack15GetLastItemTypeEv
                0x080168aa       0x14 ./build/./RepRapFirmware/src/OutputMemory.o
                0x080168aa                OutputStack::GetLastItemType() const volatile
 .text._ZNV11OutputStack10ReleaseAllEv
                0x080168be       0x1e ./build/./RepRapFirmware/src/OutputMemory.o
                0x080168be                OutputStack::ReleaseAll() volatile
 .text._ZN8PlatformUlPK11ObjectModelRK24ObjectExplorationContextE1_4_FUNES2_S5_
                0x080168dc        0x4 ./build/./RepRapFirmware/src/Platform.o
 .text._ZN8PlatformUlPK11ObjectModelR24ObjectExplorationContextE3_4_FUNES2_S4_
                0x080168e0       0x10 ./build/./RepRapFirmware/src/Platform.o
 .text._ZN8PlatformUlPK11ObjectModelR24ObjectExplorationContextE4_4_FUNES2_S4_
                0x080168f0       0x10 ./build/./RepRapFirmware/src/Platform.o
 .text._ZN8PlatformUlPK11ObjectModelR24ObjectExplorationContextE5_4_FUNES2_S4_
                0x08016900       0x10 ./build/./RepRapFirmware/src/Platform.o
 .text._ZN8PlatformUlPK11ObjectModelR24ObjectExplorationContextE6_4_FUNES2_S4_
                0x08016910       0x10 ./build/./RepRapFirmware/src/Platform.o
 .text._ZN8PlatformUlPK11ObjectModelR24ObjectExplorationContextE8_4_FUNES2_S4_
                0x08016920        0xa ./build/./RepRapFirmware/src/Platform.o
 .text._ZN8PlatformUlPK11ObjectModelR24ObjectExplorationContextE9_4_FUNES2_S4_
                0x0801692a        0xa ./build/./RepRapFirmware/src/Platform.o
 .text._ZN8PlatformUlPK11ObjectModelR24ObjectExplorationContextE10_4_FUNES2_S4_
                0x08016934       0x1a ./build/./RepRapFirmware/src/Platform.o
 *fill*         0x0801694e        0x2 
 .text._ZN8PlatformUlPK11ObjectModelR24ObjectExplorationContextE11_4_FUNES2_S4_
                0x08016950       0x10 ./build/./RepRapFirmware/src/Platform.o
 .text._ZN8PlatformUlPK11ObjectModelR24ObjectExplorationContextE12_4_FUNES2_S4_
                0x08016960       0x10 ./build/./RepRapFirmware/src/Platform.o
 .text._ZN8PlatformUlPK11ObjectModelR24ObjectExplorationContextE13_4_FUNES2_S4_
                0x08016970        0xa ./build/./RepRapFirmware/src/Platform.o
 .text._ZN8PlatformUlPK11ObjectModelR24ObjectExplorationContextE14_4_FUNES2_S4_
                0x0801697a       0x1a ./build/./RepRapFirmware/src/Platform.o
 .text._ZN8PlatformUlPK11ObjectModelR24ObjectExplorationContextE21_4_FUNES2_S4_
                0x08016994       0x10 ./build/./RepRapFirmware/src/Platform.o
 .text._ZN8PlatformUlPK11ObjectModelR24ObjectExplorationContextE28_4_FUNES2_S4_
                0x080169a4       0x1a ./build/./RepRapFirmware/src/Platform.o
 *fill*         0x080169be        0x2 
 .text._ZN8PlatformUlPK11ObjectModelR24ObjectExplorationContextE35_4_FUNES2_S4_
                0x080169c0       0x10 ./build/./RepRapFirmware/src/Platform.o
 .text._ZN8PlatformUlPK11ObjectModelR24ObjectExplorationContextE42_4_FUNES2_S4_
                0x080169d0       0x1a ./build/./RepRapFirmware/src/Platform.o
 .text._ZN8PlatformUlPK11ObjectModelR24ObjectExplorationContextE43_4_FUNES2_S4_
                0x080169ea       0x1a ./build/./RepRapFirmware/src/Platform.o
 .text._ZNK8Platform29GetObjectModelClassDescriptorEv
                0x08016a04        0x8 ./build/./RepRapFirmware/src/Platform.o
                0x08016a04                Platform::GetObjectModelClassDescriptor() const
 .text._ZNSt14_Function_base13_Base_managerIZN8Platform13ReportDriversE11MessageTypeR6BitmapImEPKcRbEUljjE_E10_M_managerERSt9_Any_dataRKSB_St18_Manager_operation
                0x08016a0c       0x16 ./build/./RepRapFirmware/src/Platform.o
 .text._ZNSt14_Function_base13_Base_managerIZN8Platform22DriverCoolingFansOnOffE6BitmapItEbEUljjE_E10_M_managerERSt9_Any_dataRKS6_St18_Manager_operation
                0x08016a22       0x1a ./build/./RepRapFirmware/src/Platform.o
 .text._ZNSt14_Function_base13_Base_managerIZN8Platform12SetDirectionEjbEUlhE_E10_M_managerERSt9_Any_dataRKS4_St18_Manager_operation
                0x08016a3c       0x1a ./build/./RepRapFirmware/src/Platform.o
 .text._ZNSt14_Function_base13_Base_managerIZN8Platform13EnableDriversEjEUlhE_E10_M_managerERSt9_Any_dataRKS4_St18_Manager_operation
                0x08016a56       0x1a ./build/./RepRapFirmware/src/Platform.o
 .text._ZNSt14_Function_base13_Base_managerIZN8Platform14DisableDriversEjEUlhE_E10_M_managerERSt9_Any_dataRKS4_St18_Manager_operation
                0x08016a70       0x16 ./build/./RepRapFirmware/src/Platform.o
 .text._ZNSt14_Function_base13_Base_managerIZN8Platform14SetDriversIdleEvEUlhE_E10_M_managerERSt9_Any_dataRKS4_St18_Manager_operation
                0x08016a86       0x1a ./build/./RepRapFirmware/src/Platform.o
 .text._ZNSt14_Function_base13_Base_managerIZN8Platform20SetIdleCurrentFactorEfEUlhE_E10_M_managerERSt9_Any_dataRKS4_St18_Manager_operation
                0x08016aa0       0x1a ./build/./RepRapFirmware/src/Platform.o
 .text._ZNSt14_Function_base13_Base_managerIZN8Platform12DebugMessageEPKcSt9__va_listEUlcE_E10_M_managerERSt9_Any_dataRKS7_St18_Manager_operation
                0x08016aba        0xa ./build/./RepRapFirmware/src/Platform.o
 .text._ZNSt17_Function_handlerIFvjEZN8Platform18SetPressureAdvanceEfR11GCodeBufferRK9StringRefEUljE_E9_M_invokeERKSt9_Any_dataOj
                0x08016ac4       0x10 ./build/./RepRapFirmware/src/Platform.o
 .text._ZNSt14_Function_base13_Base_managerIZN8Platform18SetPressureAdvanceEfR11GCodeBufferRK9StringRefEUljE_E10_M_managerERSt9_Any_dataRKS9_St18_Manager_operation
                0x08016ad4       0x1a ./build/./RepRapFirmware/src/Platform.o
 .text._ZNSt17_Function_handlerIFvhEZN8Platform23ConfigureStallDetectionER11GCodeBufferRK9StringRefRP12OutputBufferEUlhE_E9_M_invokeERKSt9_Any_dataOh
                0x08016aee       0x12 ./build/./RepRapFirmware/src/Platform.o
 .text._ZNSt14_Function_base13_Base_managerIZN8Platform23ConfigureStallDetectionER11GCodeBufferRK9StringRefRP12OutputBufferEUlhE_E10_M_managerERSt9_Any_dataRKSC_St18_Manager_operation
                0x08016b00       0x16 ./build/./RepRapFirmware/src/Platform.o
 .text._ZNSt14_Function_base13_Base_managerIZN8Platform23ConfigureStallDetectionER11GCodeBufferRK9StringRefRP12OutputBufferEUljjE0_E10_M_managerERSt9_Any_dataRKSC_St18_Manager_operation
                0x08016b16       0x16 ./build/./RepRapFirmware/src/Platform.o
 .text._ZNSt14_Function_base13_Base_managerIZN8Platform23ConfigureStallDetectionER11GCodeBufferRK9StringRefRP12OutputBufferEUljjE1_E10_M_managerERSt9_Any_dataRKSC_St18_Manager_operation
                0x08016b2c       0x16 ./build/./RepRapFirmware/src/Platform.o
 .text._ZNSt14_Function_base13_Base_managerIZN8Platform23ConfigureStallDetectionER11GCodeBufferRK9StringRefRP12OutputBufferEUljjE2_E10_M_managerERSt9_Any_dataRKSC_St18_Manager_operation
                0x08016b42       0x16 ./build/./RepRapFirmware/src/Platform.o
 .text._ZNSt14_Function_base13_Base_managerIZN8Platform23ConfigureStallDetectionER11GCodeBufferRK9StringRefRP12OutputBufferEUljjE3_E10_M_managerERSt9_Any_dataRKSC_St18_Manager_operation
                0x08016b58       0x16 ./build/./RepRapFirmware/src/Platform.o
 .text._ZN8PlatformUlPK11ObjectModelRK24ObjectExplorationContextE_4_FUNES2_S5_
                0x08016b6e       0x16 ./build/./RepRapFirmware/src/Platform.o
 .text._ZN8PlatformUlPK11ObjectModelR24ObjectExplorationContextE51_4_FUNES2_S4_
                0x08016b84       0x20 ./build/./RepRapFirmware/src/Platform.o
 .text._ZN8PlatformUlPK11ObjectModelR24ObjectExplorationContextE50_4_FUNES2_S4_
                0x08016ba4       0x20 ./build/./RepRapFirmware/src/Platform.o
 .text._ZN8PlatformUlPK11ObjectModelR24ObjectExplorationContextE49_4_FUNES2_S4_
                0x08016bc4       0x20 ./build/./RepRapFirmware/src/Platform.o
 .text._ZN8PlatformUlPK11ObjectModelR24ObjectExplorationContextE32_4_FUNES2_S4_
                0x08016be4       0x20 ./build/./RepRapFirmware/src/Platform.o
 .text._ZN8PlatformUlPK11ObjectModelR24ObjectExplorationContextE18_4_FUNES2_S4_
                0x08016c04       0x20 ./build/./RepRapFirmware/src/Platform.o
 .text._ZN8PlatformUlPK11ObjectModelR24ObjectExplorationContextE26_4_FUNES2_S4_
                0x08016c24       0x22 ./build/./RepRapFirmware/src/Platform.o
 .text._ZN8PlatformUlPK11ObjectModelR24ObjectExplorationContextE29_4_FUNES2_S4_
                0x08016c46       0x22 ./build/./RepRapFirmware/src/Platform.o
 .text._ZN8PlatformD2Ev
                0x08016c68       0x68 ./build/./RepRapFirmware/src/Platform.o
                0x08016c68                Platform::~Platform()
                0x08016c68                Platform::~Platform()
 .text._ZN8PlatformD0Ev
                0x08016cd0       0x16 ./build/./RepRapFirmware/src/Platform.o
                0x08016cd0                Platform::~Platform()
 *fill*         0x08016ce6        0x2 
 .text._ZL9TimedSqrtyRm
                0x08016ce8       0x40 ./build/./RepRapFirmware/src/Platform.o
 .text._ZNSt17_Function_handlerIFvjjEZN8Platform23ConfigureStallDetectionER11GCodeBufferRK9StringRefRP12OutputBufferEUljjE0_E9_M_invokeERKSt9_Any_dataOjSF_
                0x08016d28        0xa ./build/./RepRapFirmware/src/Platform.o
 .text._ZNSt17_Function_handlerIFvjjEZN8Platform23ConfigureStallDetectionER11GCodeBufferRK9StringRefRP12OutputBufferEUljjE1_E9_M_invokeERKSt9_Any_dataOjSF_
                0x08016d32        0xa ./build/./RepRapFirmware/src/Platform.o
 .text._ZNSt17_Function_handlerIFvjjEZN8Platform23ConfigureStallDetectionER11GCodeBufferRK9StringRefRP12OutputBufferEUljjE2_E9_M_invokeERKSt9_Any_dataOjSF_
                0x08016d3c        0xa ./build/./RepRapFirmware/src/Platform.o
 *fill*         0x08016d46        0x2 
 .text._ZN8StepPinsL16CalcDriverBitmapEj
                0x08016d48       0x30 ./build/./RepRapFirmware/src/Platform.o
 .text._ZNSt17_Function_handlerIFvjjEZN8Platform23ConfigureStallDetectionER11GCodeBufferRK9StringRefRP12OutputBufferEUljjE3_E9_M_invokeERKSt9_Any_dataOjSF_
                0x08016d78        0xc ./build/./RepRapFirmware/src/Platform.o
 .text._ZNSt14_Function_base13_Base_managerIZN8Platform15SetMotorCurrentEjfiRK9StringRefEUlhE_E10_M_managerERSt9_Any_dataRKS7_St18_Manager_operation
                0x08016d84       0x36 ./build/./RepRapFirmware/src/Platform.o
 .text._ZNSt14_Function_base13_Base_managerIZN8Platform16SetMicrosteppingEjibRK9StringRefEUlhE_E10_M_managerERSt9_Any_dataRKS7_St18_Manager_operation
                0x08016dba       0x3e ./build/./RepRapFirmware/src/Platform.o
 .text._ZNSt14_Function_base13_Base_managerIZN8Platform23ConfigureStallDetectionER11GCodeBufferRK9StringRefRP12OutputBufferEUljjE4_E10_M_managerERSt9_Any_dataRKSC_St18_Manager_operation
                0x08016df8       0x36 ./build/./RepRapFirmware/src/Platform.o
 .text._ZNSt17_Function_handlerIFvjjEZN8Platform22DriverCoolingFansOnOffE6BitmapItEbEUljjE_E9_M_invokeERKSt9_Any_dataOjS9_
                0x08016e2e       0x18 ./build/./RepRapFirmware/src/Platform.o
 .text._ZN8PlatformUlPK11ObjectModelR24ObjectExplorationContextE54_4_FUNES2_S4_
                0x08016e46       0x22 ./build/./RepRapFirmware/src/Platform.o
 .text._ZN8PlatformUlPK11ObjectModelR24ObjectExplorationContextE52_4_FUNES2_S4_
                0x08016e68       0x20 ./build/./RepRapFirmware/src/Platform.o
 .text._ZN8PlatformUlPK11ObjectModelR24ObjectExplorationContextE48_4_FUNES2_S4_
                0x08016e88       0x22 ./build/./RepRapFirmware/src/Platform.o
 .text._ZN8PlatformUlPK11ObjectModelR24ObjectExplorationContextE55_4_FUNES2_S4_
                0x08016eaa       0x24 ./build/./RepRapFirmware/src/Platform.o
 .text._ZN8PlatformUlPK11ObjectModelR24ObjectExplorationContextE53_4_FUNES2_S4_
                0x08016ece       0x22 ./build/./RepRapFirmware/src/Platform.o
 .text._ZN8PlatformUlPK11ObjectModelR24ObjectExplorationContextE38_4_FUNES2_S4_
                0x08016ef0       0x1c ./build/./RepRapFirmware/src/Platform.o
 .text._ZN8PlatformUlPK11ObjectModelR24ObjectExplorationContextE0_4_FUNES2_S4_
                0x08016f0c       0x2e ./build/./RepRapFirmware/src/Platform.o
 .text._ZN8PlatformUlPK11ObjectModelR24ObjectExplorationContextE36_4_FUNES2_S4_
                0x08016f3a       0x22 ./build/./RepRapFirmware/src/Platform.o
 .text._ZN8PlatformUlPK11ObjectModelR24ObjectExplorationContextE47_4_FUNES2_S4_
                0x08016f5c       0x34 ./build/./RepRapFirmware/src/Platform.o
 .text._ZN8PlatformUlPK11ObjectModelR24ObjectExplorationContextE31_4_FUNES2_S4_
                0x08016f90       0x30 ./build/./RepRapFirmware/src/Platform.o
 .text._ZN8PlatformUlPK11ObjectModelR24ObjectExplorationContextE41_4_FUNES2_S4_
                0x08016fc0       0x34 ./build/./RepRapFirmware/src/Platform.o
 .text._ZN8PlatformUlPK11ObjectModelR24ObjectExplorationContextE23_4_FUNES2_S4_
                0x08016ff4       0x30 ./build/./RepRapFirmware/src/Platform.o
 .text._ZN8PlatformUlPK11ObjectModelR24ObjectExplorationContextE45_4_FUNES2_S4_
                0x08017024       0x26 ./build/./RepRapFirmware/src/Platform.o
 *fill*         0x0801704a        0x2 
 .text._ZN8PlatformUlPK11ObjectModelR24ObjectExplorationContextE46_4_FUNES2_S4_
                0x0801704c       0x28 ./build/./RepRapFirmware/src/Platform.o
 .text._ZN8PlatformUlPK11ObjectModelR24ObjectExplorationContextE39_4_FUNES2_S4_
                0x08017074       0x28 ./build/./RepRapFirmware/src/Platform.o
 .text._ZN8PlatformUlPK11ObjectModelR24ObjectExplorationContextE33_4_FUNES2_S4_
                0x0801709c       0x28 ./build/./RepRapFirmware/src/Platform.o
 .text._ZN8PlatformUlPK11ObjectModelR24ObjectExplorationContextE44_4_FUNES2_S4_
                0x080170c4       0x30 ./build/./RepRapFirmware/src/Platform.o
 .text._ZN8PlatformUlPK11ObjectModelR24ObjectExplorationContextE25_4_FUNES2_S4_
                0x080170f4       0x2c ./build/./RepRapFirmware/src/Platform.o
 .text._ZN8PlatformUlPK11ObjectModelR24ObjectExplorationContextE40_4_FUNES2_S4_
                0x08017120       0x24 ./build/./RepRapFirmware/src/Platform.o
 .text._ZN8PlatformUlPK11ObjectModelR24ObjectExplorationContextE34_4_FUNES2_S4_
                0x08017144       0x28 ./build/./RepRapFirmware/src/Platform.o
 .text._ZN8PlatformUlPK11ObjectModelR24ObjectExplorationContextE24_4_FUNES2_S4_
                0x0801716c       0x24 ./build/./RepRapFirmware/src/Platform.o
 .text._ZN8PlatformUlPK11ObjectModelR24ObjectExplorationContextE2_4_FUNES2_S4_
                0x08017190       0x3c ./build/./RepRapFirmware/src/Platform.o
 .text._ZN8PlatformUlPK11ObjectModelR24ObjectExplorationContextE19_4_FUNES2_S4_
                0x080171cc       0x28 ./build/./RepRapFirmware/src/Platform.o
 .text._ZN8PlatformUlPK11ObjectModelR24ObjectExplorationContextE37_4_FUNES2_S4_
                0x080171f4       0x26 ./build/./RepRapFirmware/src/Platform.o
 .text._ZN8PlatformUlPK11ObjectModelR24ObjectExplorationContextE20_4_FUNES2_S4_
                0x0801721a       0x22 ./build/./RepRapFirmware/src/Platform.o
 .text._ZN8Platform11AtxPowerOffEb.part.162
                0x0801723c       0x24 ./build/./RepRapFirmware/src/Platform.o
 .text._ZNSt17_Function_handlerIFvjjEZN8Platform23ConfigureStallDetectionER11GCodeBufferRK9StringRefRP12OutputBufferEUljjE4_E9_M_invokeERKSt9_Any_dataOjSF_
                0x08017260       0x80 ./build/./RepRapFirmware/src/Platform.o
 .text._ZN8PlatformUlPK11ObjectModelR24ObjectExplorationContextE30_4_FUNES2_S4_
                0x080172e0       0x22 ./build/./RepRapFirmware/src/Platform.o
 .text._ZN8PlatformUlPK11ObjectModelR24ObjectExplorationContextE27_4_FUNES2_S4_
                0x08017302       0x22 ./build/./RepRapFirmware/src/Platform.o
 .text._ZN8PlatformUlPK11ObjectModelR24ObjectExplorationContextE22_4_FUNES2_S4_
                0x08017324       0x28 ./build/./RepRapFirmware/src/Platform.o
 .text._ZN8PlatformUlPK11ObjectModelR24ObjectExplorationContextE7_4_FUNES2_S4_
                0x0801734c       0x10 ./build/./RepRapFirmware/src/Platform.o
 .text._ZNSt17_Function_handlerIFvhEZN8Platform12SetDirectionEjbEUlhE_E9_M_invokeERKSt9_Any_dataOh
                0x0801735c       0x24 ./build/./RepRapFirmware/src/Platform.o
 .text._ZNSt14_Function_baseD2Ev
                0x08017380       0x12 ./build/./RepRapFirmware/src/Platform.o
                0x08017380                std::_Function_base::~_Function_base()
                0x08017380                std::_Function_base::~_Function_base()
 .text.UrgentInit
                0x08017392        0x4 ./build/./RepRapFirmware/src/Platform.o
                0x08017392                UrgentInit
 .text._ZNK17AxisDriversConfig16GetDriversBitmapEv
                0x08017396       0x24 ./build/./RepRapFirmware/src/Platform.o
                0x08017396                AxisDriversConfig::GetDriversBitmap() const
 .text._ZNK8Platform22GetNumGpInputsToReportEv
                0x080173ba       0x1e ./build/./RepRapFirmware/src/Platform.o
                0x080173ba                Platform::GetNumGpInputsToReport() const
 .text._ZNK8Platform23GetNumGpOutputsToReportEv
                0x080173d8       0x1e ./build/./RepRapFirmware/src/Platform.o
                0x080173d8                Platform::GetNumGpOutputsToReport() const
 *fill*         0x080173f6        0x2 
 .text._ZN8Platform19SendPanelDueMessageEjPKc
                0x080173f8       0x24 ./build/./RepRapFirmware/src/Platform.o
                0x080173f8                Platform::SendPanelDueMessage(unsigned int, char const*)
 .text._ZN8Platform12SetIPAddressE9IPAddress
                0x0801741c        0x4 ./build/./RepRapFirmware/src/Platform.o
                0x0801741c                Platform::SetIPAddress(IPAddress)
 .text._ZN8Platform10SetGateWayE9IPAddress
                0x08017420        0x4 ./build/./RepRapFirmware/src/Platform.o
                0x08017420                Platform::SetGateWay(IPAddress)
 .text._ZN8Platform10SetNetMaskE9IPAddress
                0x08017424        0x4 ./build/./RepRapFirmware/src/Platform.o
                0x08017424                Platform::SetNetMask(IPAddress)
 .text._ZNK8Platform17GetCpuTemperatureEv
                0x08017428       0x70 ./build/./RepRapFirmware/src/Platform.o
                0x08017428                Platform::GetCpuTemperature() const
 .text._ZN8Platform20InitialiseInterruptsEv
                0x08017498       0x44 ./build/./RepRapFirmware/src/Platform.o
                0x08017498                Platform::InitialiseInterrupts()
 .text._ZNK8Platform23GetAveragingFilterIndexERK6IoPort
                0x080174dc       0x2c ./build/./RepRapFirmware/src/Platform.o
                0x080174dc                Platform::GetAveragingFilterIndex(IoPort const&) const
 .text._ZN8Platform23UpdateConfiguredHeatersEv
                0x08017508       0x64 ./build/./RepRapFirmware/src/Platform.o
                0x08017508                Platform::UpdateConfiguredHeaters()
 .text._ZN8Platform21DisableOneLocalDriverEj
                0x0801756c       0x34 ./build/./RepRapFirmware/src/Platform.o
                0x0801756c                Platform::DisableOneLocalDriver(unsigned int)
 .text._ZNSt17_Function_handlerIFvhEZN8Platform14DisableDriversEjEUlhE_E9_M_invokeERKSt9_Any_dataOh
                0x080175a0        0x8 ./build/./RepRapFirmware/src/Platform.o
 .text._ZN8Platform18UpdateMotorCurrentEjf
                0x080175a8       0x14 ./build/./RepRapFirmware/src/Platform.o
                0x080175a8                Platform::UpdateMotorCurrent(unsigned int, float)
 .text._ZN8Platform20EnableOneLocalDriverEjf
                0x080175bc       0x40 ./build/./RepRapFirmware/src/Platform.o
                0x080175bc                Platform::EnableOneLocalDriver(unsigned int, float)
 .text._ZNSt17_Function_handlerIFvhEZN8Platform13EnableDriversEjEUlhE_E9_M_invokeERKSt9_Any_dataOh
                0x080175fc        0xc ./build/./RepRapFirmware/src/Platform.o
 .text._ZN8Platform23EmergencyDisableDriversEv
                0x08017608       0x3c ./build/./RepRapFirmware/src/Platform.o
                0x08017608                Platform::EmergencyDisableDrivers()
 .text._ZNSt17_Function_handlerIFvhEZN8Platform14SetDriversIdleEvEUlhE_E9_M_invokeERKSt9_Any_dataOh
                0x08017644        0xc ./build/./RepRapFirmware/src/Platform.o
 .text._ZNSt17_Function_handlerIFvhEZN8Platform15SetMotorCurrentEjfiRK9StringRefEUlhE_E9_M_invokeERKSt9_Any_dataOh
                0x08017650       0x40 ./build/./RepRapFirmware/src/Platform.o
 .text._ZNSt17_Function_handlerIFvhEZN8Platform20SetIdleCurrentFactorEfEUlhE_E9_M_invokeERKSt9_Any_dataOh
                0x08017690        0xc ./build/./RepRapFirmware/src/Platform.o
 .text._ZNK8Platform15GetMotorCurrentEji
                0x0801769c       0x4c ./build/./RepRapFirmware/src/Platform.o
                0x0801769c                Platform::GetMotorCurrent(unsigned int, int) const
 .text._ZN8Platform20SetDriveStepsPerUnitEjfm
                0x080176e8       0x60 ./build/./RepRapFirmware/src/Platform.o
                0x080176e8                Platform::SetDriveStepsPerUnit(unsigned int, float, unsigned long)
 .text._ZN8Platform22SetDriverMicrosteppingEjji
                0x08017748       0x34 ./build/./RepRapFirmware/src/Platform.o
                0x08017748                Platform::SetDriverMicrostepping(unsigned int, unsigned int, int)
 .text._ZNSt17_Function_handlerIFvhEZN8Platform16SetMicrosteppingEjibRK9StringRefEUlhE_E9_M_invokeERKSt9_Any_dataOh
                0x0801777c       0x40 ./build/./RepRapFirmware/src/Platform.o
 .text._ZNK8Platform16GetMicrosteppingEjRb
                0x080177bc       0x16 ./build/./RepRapFirmware/src/Platform.o
                0x080177bc                Platform::GetMicrostepping(unsigned int, bool&) const
 .text._ZN8Platform14SetEnableValueEja
                0x080177d2       0x54 ./build/./RepRapFirmware/src/Platform.o
                0x080177d2                Platform::SetEnableValue(unsigned int, signed char)
 .text._ZN8Platform20SetAxisDriversConfigEjjPK8DriverId
                0x08017826       0x4c ./build/./RepRapFirmware/src/Platform.o
                0x08017826                Platform::SetAxisDriversConfig(unsigned int, unsigned int, DriverId const*)
 .text._ZN8Platform11SetAxisTypeEj12AxisWrapTypeb
                0x08017872       0x32 ./build/./RepRapFirmware/src/Platform.o
                0x08017872                Platform::SetAxisType(unsigned int, AxisWrapType, bool)
 .text._ZN8Platform17SetExtruderDriverEj8DriverId
                0x080178a4       0x26 ./build/./RepRapFirmware/src/Platform.o
                0x080178a4                Platform::SetExtruderDriver(unsigned int, DriverId)
 *fill*         0x080178ca        0x2 
 .text._ZN8Platform19SetDriverStepTimingEjPKf
                0x080178cc       0x98 ./build/./RepRapFirmware/src/Platform.o
                0x080178cc                Platform::SetDriverStepTiming(unsigned int, float const*)
 .text._ZNK8Platform19GetDriverStepTimingEjPf
                0x08017964       0x58 ./build/./RepRapFirmware/src/Platform.o
                0x08017964                Platform::GetDriverStepTiming(unsigned int, float*) const
 .text._ZN8Platform14AppendUsbReplyEP12OutputBuffer
                0x080179bc       0x40 ./build/./RepRapFirmware/src/Platform.o
                0x080179bc                Platform::AppendUsbReply(OutputBuffer*)
 .text._ZNK8Platform12IsAuxEnabledEj
                0x080179fc        0xc ./build/./RepRapFirmware/src/Platform.o
                0x080179fc                Platform::IsAuxEnabled(unsigned int) const
 .text._ZN8Platform9EnableAuxEj
                0x08017a08       0x16 ./build/./RepRapFirmware/src/Platform.o
                0x08017a08                Platform::EnableAux(unsigned int)
 .text._ZNK8Platform8IsAuxRawEj
                0x08017a1e        0xc ./build/./RepRapFirmware/src/Platform.o
                0x08017a1e                Platform::IsAuxRaw(unsigned int) const
 .text._ZN8Platform9SetAuxRawEjb
                0x08017a2a        0x8 ./build/./RepRapFirmware/src/Platform.o
                0x08017a2a                Platform::SetAuxRaw(unsigned int, bool)
 .text._ZN8Platform19InitPanelDueUpdaterEv
                0x08017a32       0x1c ./build/./RepRapFirmware/src/Platform.o
                0x08017a32                Platform::InitPanelDueUpdater()
 *fill*         0x08017a4e        0x2 
 .text._ZN8Platform14AppendAuxReplyEjPKcb
                0x08017a50       0x2c ./build/./RepRapFirmware/src/Platform.o
                0x08017a50                Platform::AppendAuxReply(unsigned int, char const*, bool)
 .text._ZN8Platform14AppendAuxReplyEjP12OutputBufferb
                0x08017a7c       0x30 ./build/./RepRapFirmware/src/Platform.o
                0x08017a7c                Platform::AppendAuxReply(unsigned int, OutputBuffer*, bool)
 .text._ZN8Platform7MessageE11MessageTypeP12OutputBuffer
                0x08017aac       0xe8 ./build/./RepRapFirmware/src/Platform.o
                0x08017aac                Platform::Message(MessageType, OutputBuffer*)
 .text._ZN8Platform12DebugMessageEPKcSt9__va_list
                0x08017b94       0x40 ./build/./RepRapFirmware/src/Platform.o
                0x08017b94                Platform::DebugMessage(char const*, std::__va_list)
 .text._ZNK8Platform11GetLogLevelEv
                0x08017bd4       0x3c ./build/./RepRapFirmware/src/Platform.o
                0x08017bd4                Platform::GetLogLevel() const
 .text._ZN8Platform11StopLoggingEv
                0x08017c10        0x2 ./build/./RepRapFirmware/src/Platform.o
                0x08017c10                Platform::StopLogging()
 *fill*         0x08017c12        0x2 
 .text._ZNK8Platform8AtxPowerEv
                0x08017c14        0xc ./build/./RepRapFirmware/src/Platform.o
                0x08017c14                Platform::AtxPower() const
 .text._ZN8Platform10AtxPowerOnEv
                0x08017c20       0x30 ./build/./RepRapFirmware/src/Platform.o
                0x08017c20                Platform::AtxPowerOn()
 .text._ZN8Platform11AtxPowerOffEb
                0x08017c50        0xc ./build/./RepRapFirmware/src/Platform.o
                0x08017c50                Platform::AtxPowerOff(bool)
 .text._ZN8Platform18SetPressureAdvanceEfR11GCodeBufferRK9StringRef
                0x08017c5c       0xbc ./build/./RepRapFirmware/src/Platform.o
                0x08017c5c                Platform::SetPressureAdvance(float, GCodeBuffer&, StringRef const&)
 .text._ZNK8Platform24GetExtrusionCoefficientsEjRfS0_S0_
                0x08017d18       0x24 ./build/./RepRapFirmware/src/Platform.o
                0x08017d18                Platform::GetExtrusionCoefficients(unsigned int, float&, float&, float&) const
 .text._ZN8Platform21SetNonlinearExtrusionEjfff
                0x08017d3c       0x24 ./build/./RepRapFirmware/src/Platform.o
                0x08017d3c                Platform::SetNonlinearExtrusion(unsigned int, float, float, float)
 .text._ZN8Platform11SetBaudRateEjm
                0x08017d60        0xe ./build/./RepRapFirmware/src/Platform.o
                0x08017d60                Platform::SetBaudRate(unsigned int, unsigned long)
 .text._ZNK8Platform11GetBaudRateEj
                0x08017d6e       0x10 ./build/./RepRapFirmware/src/Platform.o
                0x08017d6e                Platform::GetBaudRate(unsigned int) const
 .text._ZN8Platform18SetCommsPropertiesEjm
                0x08017d7e        0xc ./build/./RepRapFirmware/src/Platform.o
                0x08017d7e                Platform::SetCommsProperties(unsigned int, unsigned long)
 .text._ZNK8Platform18GetCommsPropertiesEj
                0x08017d8a        0xe ./build/./RepRapFirmware/src/Platform.o
                0x08017d8a                Platform::GetCommsProperties(unsigned int) const
 .text._ZN8Platform12ResetChannelEj
                0x08017d98       0x3c ./build/./RepRapFirmware/src/Platform.o
                0x08017d98                Platform::ResetChannel(unsigned int)
 .text._ZNK8Platform20GetElectronicsStringEv
                0x08017dd4       0x18 ./build/./RepRapFirmware/src/Platform.o
                0x08017dd4                Platform::GetElectronicsString() const
 .text._ZNK8Platform10FileExistsEPKcS1_
                0x08017dec       0x24 ./build/./RepRapFirmware/src/Platform.o
                0x08017dec                Platform::FileExists(char const*, char const*) const
 .text._ZN8Platform11SetLaserPwmEt
                0x08017e10       0x24 ./build/./RepRapFirmware/src/Platform.o
                0x08017e10                Platform::SetLaserPwm(unsigned short)
 .text._ZNK8Platform11GetLaserPwmEv
                0x08017e34        0xa ./build/./RepRapFirmware/src/Platform.o
                0x08017e34                Platform::GetLaserPwm() const
 .text._ZN8Platform14AssignLaserPinER11GCodeBufferRK9StringRef
                0x08017e3e       0x24 ./build/./RepRapFirmware/src/Platform.o
                0x08017e3e                Platform::AssignLaserPin(GCodeBuffer&, StringRef const&)
 .text._ZN8Platform20SetLaserPwmFrequencyEt
                0x08017e62        0x6 ./build/./RepRapFirmware/src/Platform.o
                0x08017e62                Platform::SetLaserPwmFrequency(unsigned short)
 .text._ZN8Platform14SetAxisMaximumEjfb
                0x08017e68       0x30 ./build/./RepRapFirmware/src/Platform.o
                0x08017e68                Platform::SetAxisMaximum(unsigned int, float, bool)
 .text._ZN8Platform14SetAxisMinimumEjfb
                0x08017e98       0x30 ./build/./RepRapFirmware/src/Platform.o
                0x08017e98                Platform::SetAxisMinimum(unsigned int, float, bool)
 .text._ZNK8Platform18GetMcuTemperaturesEv
                0x08017ec8       0x26 ./build/./RepRapFirmware/src/Platform.o
                0x08017ec8                Platform::GetMcuTemperatures() const
 .text._ZN8PlatformUlPK11ObjectModelR24ObjectExplorationContextE17_4_FUNES2_S4_
                0x08017eee       0x1a ./build/./RepRapFirmware/src/Platform.o
 .text._ZN8PlatformUlPK11ObjectModelR24ObjectExplorationContextE16_4_FUNES2_S4_
                0x08017f08       0x1a ./build/./RepRapFirmware/src/Platform.o
 .text._ZN8PlatformUlPK11ObjectModelR24ObjectExplorationContextE15_4_FUNES2_S4_
                0x08017f22       0x1a ./build/./RepRapFirmware/src/Platform.o
 .text._ZNK8Platform24GetTmcDriversTemperatureEj
                0x08017f3c       0x38 ./build/./RepRapFirmware/src/Platform.o
                0x08017f3c                Platform::GetTmcDriversTemperature(unsigned int) const
 .text._ZN8Platform13ConfigurePortER11GCodeBufferRK9StringRef
                0x08017f74       0xe8 ./build/./RepRapFirmware/src/Platform.o
                0x08017f74                Platform::ConfigurePort(GCodeBuffer&, StringRef const&)
 .text._ZN8Platform18GetSetAncillaryPwmER11GCodeBufferRK9StringRef
                0x0801805c       0xac ./build/./RepRapFirmware/src/Platform.o
                0x0801805c                Platform::GetSetAncillaryPwm(GCodeBuffer&, StringRef const&)
 .text._ZN8Platform4TickEv
                0x08018108      0x17c ./build/./RepRapFirmware/src/Platform.o
                0x08018108                Platform::Tick()
 .text._ZNSt8functionIFvhEEC2ERKS1_
                0x08018284       0x28 ./build/./RepRapFirmware/src/Platform.o
                0x08018284                std::function<void (unsigned char)>::function(std::function<void (unsigned char)> const&)
                0x08018284                std::function<void (unsigned char)>::function(std::function<void (unsigned char)> const&)
 .text._ZNV15AveragingFilterILj16EE4InitEt
                0x080182ac       0x2a ./build/./RepRapFirmware/src/Platform.o
                0x080182ac                AveragingFilter<16u>::Init(unsigned short) volatile
 *fill*         0x080182d6        0x2 
 .text._ZN8Platform4InitEv
                0x080182d8      0x3c0 ./build/./RepRapFirmware/src/Platform.o
                0x080182d8                Platform::Init()
 .text._ZN6StringILj100EE6printfEPKcz
                0x08018698       0x22 ./build/./RepRapFirmware/src/Platform.o
                0x08018698                String<100u>::printf(char const*, ...)
 .text._ZN6StringILj100EE4catfEPKcz
                0x080186ba       0x22 ./build/./RepRapFirmware/src/Platform.o
                0x080186ba                String<100u>::catf(char const*, ...)
 .text._ZNSt17_Function_handlerIFvjjEZN8Platform13ReportDriversE11MessageTypeR6BitmapImEPKcRbEUljjE_E9_M_invokeERKSt9_Any_dataOjSE_
                0x080186dc       0x14 ./build/./RepRapFirmware/src/Platform.o
 .text._ZN6StringILj256EE6printfEPKcz
                0x080186f0       0x24 ./build/./RepRapFirmware/src/Platform.o
                0x080186f0                String<256u>::printf(char const*, ...)
 .text._ZNKSt8functionIFvhEEclEh
                0x08018714       0x1c ./build/./RepRapFirmware/src/Platform.o
                0x08018714                std::function<void (unsigned char)>::operator()(unsigned char) const
 .text._ZN8Platform14IterateDriversEjSt8functionIFvhEE
                0x08018730       0x4c ./build/./RepRapFirmware/src/Platform.o
                0x08018730                Platform::IterateDrivers(unsigned int, std::function<void (unsigned char)>)
 .text._ZN8Platform13EnableDriversEj
                0x0801877c       0x5c ./build/./RepRapFirmware/src/Platform.o
                0x0801877c                Platform::EnableDrivers(unsigned int)
 .text._ZN8Platform14DisableDriversEj
                0x080187d8       0x34 ./build/./RepRapFirmware/src/Platform.o
                0x080187d8                Platform::DisableDrivers(unsigned int)
 .text._ZN8Platform17DisableAllDriversEv
                0x0801880c       0x16 ./build/./RepRapFirmware/src/Platform.o
                0x0801880c                Platform::DisableAllDrivers()
 *fill*         0x08018822        0x2 
 .text._ZN8Platform14SetDriversIdleEv
                0x08018824       0x8c ./build/./RepRapFirmware/src/Platform.o
                0x08018824                Platform::SetDriversIdle()
 .text._ZN8Platform15SetMotorCurrentEjfiRK9StringRef
                0x080188b0       0xf0 ./build/./RepRapFirmware/src/Platform.o
                0x080188b0                Platform::SetMotorCurrent(unsigned int, float, int, StringRef const&)
 .text._ZN8Platform20SetIdleCurrentFactorEf
                0x080189a0       0xa8 ./build/./RepRapFirmware/src/Platform.o
                0x080189a0                Platform::SetIdleCurrentFactor(float)
 .text._ZN8Platform12SetDirectionEjb
                0x08018a48       0xb4 ./build/./RepRapFirmware/src/Platform.o
                0x08018a48                Platform::SetDirection(unsigned int, bool)
 .text._ZN8Platform16SetMicrosteppingEjibRK9StringRef
                0x08018afc       0xc0 ./build/./RepRapFirmware/src/Platform.o
                0x08018afc                Platform::SetMicrostepping(unsigned int, int, bool, StringRef const&)
 .text._ZN6StringILj256EE4copyEPKc
                0x08018bbc       0x16 ./build/./RepRapFirmware/src/Platform.o
                0x08018bbc                String<256u>::copy(char const*)
 .text._ZNV15AveragingFilterILj8EE4InitEt
                0x08018bd2       0x2e ./build/./RepRapFirmware/src/Platform.o
                0x08018bd2                AveragingFilter<8u>::Init(unsigned short) volatile
 .text._ZN8Platform17InitZProbeFiltersEv
                0x08018c00       0x1a ./build/./RepRapFirmware/src/Platform.o
                0x08018c00                Platform::InitZProbeFilters()
 *fill*         0x08018c1a        0x2 
 .text._ZN8PlatformC2Ev
                0x08018c1c      0x178 ./build/./RepRapFirmware/src/Platform.o
                0x08018c1c                Platform::Platform()
                0x08018c1c                Platform::Platform()
 .text._ZNKSt8functionIFvjjEEclEjj
                0x08018d94       0x1c ./build/./RepRapFirmware/src/Platform.o
                0x08018d94                std::function<void (unsigned int, unsigned int)>::operator()(unsigned int, unsigned int) const
 .text._ZNK6BitmapImE7IterateESt8functionIFvjjEE.isra.184
                0x08018db0       0x30 ./build/./RepRapFirmware/src/Platform.o
 .text._ZN8Platform23ConfigureStallDetectionER11GCodeBufferRK9StringRefRP12OutputBuffer
                0x08018de0      0x2d0 ./build/./RepRapFirmware/src/Platform.o
                0x08018de0                Platform::ConfigureStallDetection(GCodeBuffer&, StringRef const&, OutputBuffer*&)
 .text._ZN8Platform22DriverCoolingFansOnOffE6BitmapItEb
                0x080190b0       0x60 ./build/./RepRapFirmware/src/Platform.o
                0x080190b0                Platform::DriverCoolingFansOnOff(Bitmap<unsigned short>, bool)
 .text._ZNSt17_Function_handlerIFbcEZN8Platform12DebugMessageEPKcSt9__va_listEUlcE_E9_M_invokeERKSt9_Any_dataOc
                0x08019110       0x34 ./build/./RepRapFirmware/src/Platform.o
 .text._ZN8Platform10RawMessageE11MessageTypePKc
                0x08019144       0xdc ./build/./RepRapFirmware/src/Platform.o
                0x08019144                Platform::RawMessage(MessageType, char const*)
 .text._ZN8Platform7MessageE11MessageTypePKc.part.182
                0x08019220       0x4c ./build/./RepRapFirmware/src/Platform.o
 .text._ZN8Platform7MessageE11MessageTypePKc
                0x0801926c       0x60 ./build/./RepRapFirmware/src/Platform.o
                0x0801926c                Platform::Message(MessageType, char const*)
 .text._ZN8Platform8MessageFE11MessageTypePKcSt9__va_list
                0x080192cc       0xac ./build/./RepRapFirmware/src/Platform.o
                0x080192cc                Platform::MessageF(MessageType, char const*, std::__va_list)
 .text._ZN8Platform8MessageFE11MessageTypePKcz
                0x08019378       0x1a ./build/./RepRapFirmware/src/Platform.o
                0x08019378                Platform::MessageF(MessageType, char const*, ...)
 *fill*         0x08019392        0x2 
 .text._ZN8Platform12PanelDueBeepEii
                0x08019394       0x18 ./build/./RepRapFirmware/src/Platform.o
                0x08019394                Platform::PanelDueBeep(int, int)
 .text._ZN8Platform11DiagnosticsE11MessageType
                0x080193ac      0x210 ./build/./RepRapFirmware/src/Platform.o
                0x080193ac                Platform::Diagnostics(MessageType)
 *fill*         0x080195bc        0x4 
 .text._ZN8Platform14DiagnosticTestER11GCodeBufferRK9StringRefRP12OutputBufferj
                0x080195c0      0x610 ./build/./RepRapFirmware/src/Platform.o
                0x080195c0                Platform::DiagnosticTest(GCodeBuffer&, StringRef const&, OutputBuffer*&, unsigned int)
 .text._ZN8Platform9SendAlertE11MessageTypePKcS2_if6BitmapItE
                0x08019bd0       0xa8 ./build/./RepRapFirmware/src/Platform.o
                0x08019bd0                Platform::SendAlert(MessageType, char const*, char const*, int, float, Bitmap<unsigned short>)
 .text._ZN8Platform11SetDateTimeEx
                0x08019c78       0x74 ./build/./RepRapFirmware/src/Platform.o
                0x08019c78                Platform::SetDateTime(long long)
 .text._ZN8Platform13ReportDriversE11MessageTypeR6BitmapImEPKcRb
                0x08019cec       0x64 ./build/./RepRapFirmware/src/Platform.o
                0x08019cec                Platform::ReportDrivers(MessageType, Bitmap<unsigned long>&, char const*, bool&)
 .text._ZN8Platform13FlushMessagesEv
                0x08019d50       0xa0 ./build/./RepRapFirmware/src/Platform.o
                0x08019d50                Platform::FlushMessages()
 .text._ZN8Platform4SpinEv
                0x08019df0      0x3f0 ./build/./RepRapFirmware/src/Platform.o
                0x08019df0                Platform::Spin()
 .text._ZN12PrintMonitorUlPK11ObjectModelRK24ObjectExplorationContextE_4_FUNES2_S5_
                0x0801a1e0        0x6 ./build/./RepRapFirmware/src/PrintMonitor.o
 .text._ZN12PrintMonitorUlPK11ObjectModelR24ObjectExplorationContextE2_4_FUNES2_S4_
                0x0801a1e6       0x1a ./build/./RepRapFirmware/src/PrintMonitor.o
 .text._ZN12PrintMonitorUlPK11ObjectModelR24ObjectExplorationContextE9_4_FUNES2_S4_
                0x0801a200       0x1a ./build/./RepRapFirmware/src/PrintMonitor.o
 *fill*         0x0801a21a        0x2 
 .text._ZN12PrintMonitorUlPK11ObjectModelR24ObjectExplorationContextE11_4_FUNES2_S4_
                0x0801a21c       0x10 ./build/./RepRapFirmware/src/PrintMonitor.o
 .text._ZN12PrintMonitorUlPK11ObjectModelR24ObjectExplorationContextE13_4_FUNES2_S4_
                0x0801a22c        0xe ./build/./RepRapFirmware/src/PrintMonitor.o
 .text._ZN12PrintMonitorUlPK11ObjectModelR24ObjectExplorationContextE15_4_FUNES2_S4_
                0x0801a23a        0xe ./build/./RepRapFirmware/src/PrintMonitor.o
 .text._ZN12PrintMonitorUlPK11ObjectModelR24ObjectExplorationContextE17_4_FUNES2_S4_
                0x0801a248        0xe ./build/./RepRapFirmware/src/PrintMonitor.o
 .text._ZN12PrintMonitorUlPK11ObjectModelR24ObjectExplorationContextE21_4_FUNES2_S4_
                0x0801a256        0xc ./build/./RepRapFirmware/src/PrintMonitor.o
 *fill*         0x0801a262        0x2 
 .text._ZNK12PrintMonitor29GetObjectModelClassDescriptorEv
                0x0801a264        0x8 ./build/./RepRapFirmware/src/PrintMonitor.o
                0x0801a264                PrintMonitor::GetObjectModelClassDescriptor() const
 .text._ZN12PrintMonitorD2Ev
                0x0801a26c        0x2 ./build/./RepRapFirmware/src/PrintMonitor.o
                0x0801a26c                PrintMonitor::~PrintMonitor()
                0x0801a26c                PrintMonitor::~PrintMonitor()
 .text._ZN12PrintMonitorD0Ev
                0x0801a26e       0x10 ./build/./RepRapFirmware/src/PrintMonitor.o
                0x0801a26e                PrintMonitor::~PrintMonitor()
 .text._ZN12PrintMonitorUlPK11ObjectModelR24ObjectExplorationContextE0_4_FUNES2_S4_
                0x0801a27e       0x22 ./build/./RepRapFirmware/src/PrintMonitor.o
 .text._ZN12PrintMonitorUlPK11ObjectModelR24ObjectExplorationContextE18_4_FUNES2_S4_
                0x0801a2a0       0x16 ./build/./RepRapFirmware/src/PrintMonitor.o
 .text._ZN12PrintMonitorUlPK11ObjectModelR24ObjectExplorationContextE20_4_FUNES2_S4_
                0x0801a2b6       0x14 ./build/./RepRapFirmware/src/PrintMonitor.o
 .text._ZN12PrintMonitorUlPK11ObjectModelR24ObjectExplorationContextE19_4_FUNES2_S4_
                0x0801a2ca       0x14 ./build/./RepRapFirmware/src/PrintMonitor.o
 .text._ZN12PrintMonitorUlPK11ObjectModelR24ObjectExplorationContextE16_4_FUNES2_S4_
                0x0801a2de       0x1e ./build/./RepRapFirmware/src/PrintMonitor.o
 .text._ZN12PrintMonitorUlPK11ObjectModelR24ObjectExplorationContextE7_4_FUNES2_S4_
                0x0801a2fc       0x14 ./build/./RepRapFirmware/src/PrintMonitor.o
 .text._ZN12PrintMonitorUlPK11ObjectModelR24ObjectExplorationContextE3_4_FUNES2_S4_
                0x0801a310       0x1c ./build/./RepRapFirmware/src/PrintMonitor.o
 .text._ZN12PrintMonitorUlPK11ObjectModelR24ObjectExplorationContextE5_4_FUNES2_S4_
                0x0801a32c       0x20 ./build/./RepRapFirmware/src/PrintMonitor.o
 .text._ZN12PrintMonitorUlPK11ObjectModelR24ObjectExplorationContextE12_4_FUNES2_S4_
                0x0801a34c       0x16 ./build/./RepRapFirmware/src/PrintMonitor.o
 .text._ZN12PrintMonitorUlPK11ObjectModelR24ObjectExplorationContextE6_4_FUNES2_S4_
                0x0801a362       0x18 ./build/./RepRapFirmware/src/PrintMonitor.o
 .text._ZN12PrintMonitorUlPK11ObjectModelR24ObjectExplorationContextE14_4_FUNES2_S4_
                0x0801a37a       0x16 ./build/./RepRapFirmware/src/PrintMonitor.o
 .text._ZN10ReadLockerD2Ev
                0x0801a390       0x10 ./build/./RepRapFirmware/src/PrintMonitor.o
                0x0801a390                ReadLocker::~ReadLocker()
                0x0801a390                ReadLocker::~ReadLocker()
 .text._ZN11WriteLockerD2Ev
                0x0801a3a0       0x10 ./build/./RepRapFirmware/src/PrintMonitor.o
                0x0801a3a0                WriteLocker::~WriteLocker()
                0x0801a3a0                WriteLocker::~WriteLocker()
 .text._ZN12PrintMonitorC2ER8PlatformR6GCodes
                0x0801a3b0       0x5c ./build/./RepRapFirmware/src/PrintMonitor.o
                0x0801a3b0                PrintMonitor::PrintMonitor(Platform&, GCodes&)
                0x0801a3b0                PrintMonitor::PrintMonitor(Platform&, GCodes&)
 .text._ZN12PrintMonitor4InitEv
                0x0801a40c        0xc ./build/./RepRapFirmware/src/PrintMonitor.o
                0x0801a40c                PrintMonitor::Init()
 .text._ZN12PrintMonitor19GetPrintingFileInfoER13GCodeFileInfo
                0x0801a418       0x26 ./build/./RepRapFirmware/src/PrintMonitor.o
                0x0801a418                PrintMonitor::GetPrintingFileInfo(GCodeFileInfo&)
 *fill*         0x0801a43e        0x2 
 .text._ZN12PrintMonitor19SetPrintingFileInfoEPKcR13GCodeFileInfo
                0x0801a440       0x5c ./build/./RepRapFirmware/src/PrintMonitor.o
                0x0801a440                PrintMonitor::SetPrintingFileInfo(char const*, GCodeFileInfo&)
 .text._ZNK12PrintMonitor17GetWarmUpDurationEv
                0x0801a49c       0x3c ./build/./RepRapFirmware/src/PrintMonitor.o
                0x0801a49c                PrintMonitor::GetWarmUpDuration() const
 .text._ZN12PrintMonitorUlPK11ObjectModelR24ObjectExplorationContextE10_4_FUNES2_S4_
                0x0801a4d8       0x22 ./build/./RepRapFirmware/src/PrintMonitor.o
 .text._ZN12PrintMonitor13StartingPrintEPKc
                0x0801a4fa        0x2 ./build/./RepRapFirmware/src/PrintMonitor.o
                0x0801a4fa                PrintMonitor::StartingPrint(char const*)
 .text._ZN12PrintMonitor5ResetEv
                0x0801a4fc       0x5c ./build/./RepRapFirmware/src/PrintMonitor.o
                0x0801a4fc                PrintMonitor::Reset()
 .text._ZN12PrintMonitor12StartedPrintEv
                0x0801a558       0x16 ./build/./RepRapFirmware/src/PrintMonitor.o
                0x0801a558                PrintMonitor::StartedPrint()
 .text._ZN12PrintMonitor12StoppedPrintEv
                0x0801a56e       0x12 ./build/./RepRapFirmware/src/PrintMonitor.o
                0x0801a56e                PrintMonitor::StoppedPrint()
 .text._ZN12PrintMonitor14SetLayerNumberEm
                0x0801a580        0x6 ./build/./RepRapFirmware/src/PrintMonitor.o
                0x0801a580                PrintMonitor::SetLayerNumber(unsigned long)
 .text._ZN12PrintMonitor9SetLayerZEf
                0x0801a586        0x6 ./build/./RepRapFirmware/src/PrintMonitor.o
                0x0801a586                PrintMonitor::SetLayerZ(float)
 .text._ZNK12PrintMonitor21FractionOfFilePrintedEv
                0x0801a58c       0x5c ./build/./RepRapFirmware/src/PrintMonitor.o
                0x0801a58c                PrintMonitor::FractionOfFilePrinted() const
 .text._ZNK12PrintMonitor16GetPrintDurationEv
                0x0801a5e8       0x50 ./build/./RepRapFirmware/src/PrintMonitor.o
                0x0801a5e8                PrintMonitor::GetPrintDuration() const
 .text._ZN12PrintMonitorUlPK11ObjectModelR24ObjectExplorationContextE8_4_FUNES2_S4_
                0x0801a638       0x44 ./build/./RepRapFirmware/src/PrintMonitor.o
 .text._ZNK12PrintMonitor27GetPrintOrSimulatedDurationEv
                0x0801a67c       0x30 ./build/./RepRapFirmware/src/PrintMonitor.o
                0x0801a67c                PrintMonitor::GetPrintOrSimulatedDuration() const
 .text._ZN12PrintMonitorUlPK11ObjectModelR24ObjectExplorationContextE1_4_FUNES2_S4_
                0x0801a6ac       0x1e ./build/./RepRapFirmware/src/PrintMonitor.o
 *fill*         0x0801a6ca        0x2 
 .text._ZNK12PrintMonitor21GetFirstLayerDurationEv
                0x0801a6cc       0x30 ./build/./RepRapFirmware/src/PrintMonitor.o
                0x0801a6cc                PrintMonitor::GetFirstLayerDuration() const
 .text._ZN12PrintMonitorUlPK11ObjectModelR24ObjectExplorationContextE4_4_FUNES2_S4_
                0x0801a6fc       0x22 ./build/./RepRapFirmware/src/PrintMonitor.o
 .text._ZN12PrintMonitor18FirstLayerCompleteEv
                0x0801a71e       0x70 ./build/./RepRapFirmware/src/PrintMonitor.o
                0x0801a71e                PrintMonitor::FirstLayerComplete()
 *fill*         0x0801a78e        0x2 
 .text._ZN12PrintMonitor13LayerCompleteEv
                0x0801a790      0x164 ./build/./RepRapFirmware/src/PrintMonitor.o
                0x0801a790                PrintMonitor::LayerComplete()
 .text._ZN12PrintMonitor4SpinEv
                0x0801a8f4      0x1e4 ./build/./RepRapFirmware/src/PrintMonitor.o
                0x0801a8f4                PrintMonitor::Spin()
 .text._ZNK12PrintMonitor16EstimateTimeLeftE21PrintEstimationMethod
                0x0801aad8      0x214 ./build/./RepRapFirmware/src/PrintMonitor.o
                0x0801aad8                PrintMonitor::EstimateTimeLeft(PrintEstimationMethod) const
 .text._ZNK12PrintMonitor28EstimateTimeLeftAsExpressionE21PrintEstimationMethod
                0x0801acec       0x2c ./build/./RepRapFirmware/src/PrintMonitor.o
                0x0801acec                PrintMonitor::EstimateTimeLeftAsExpression(PrintEstimationMethod) const
 .text._ZN12PrintMonitorUlPK11ObjectModelR24ObjectExplorationContextE24_4_FUNES2_S4_
                0x0801ad18        0xe ./build/./RepRapFirmware/src/PrintMonitor.o
 .text._ZN12PrintMonitorUlPK11ObjectModelR24ObjectExplorationContextE23_4_FUNES2_S4_
                0x0801ad26        0xe ./build/./RepRapFirmware/src/PrintMonitor.o
 .text._ZN12PrintMonitorUlPK11ObjectModelR24ObjectExplorationContextE22_4_FUNES2_S4_
                0x0801ad34        0xe ./build/./RepRapFirmware/src/PrintMonitor.o
 *fill*         0x0801ad42        0x2 
 .text.startup._GLOBAL__sub_I__ZN12PrintMonitor16printMonitorLockE
                0x0801ad44       0x10 ./build/./RepRapFirmware/src/PrintMonitor.o
 .text._ZN6RepRapUlPK11ObjectModelRK24ObjectExplorationContextE_4_FUNES2_S5_
                0x0801ad54        0x4 ./build/./RepRapFirmware/src/RepRap.o
 .text._ZN6RepRapUlPK11ObjectModelR24ObjectExplorationContextE0_4_FUNES2_S4_
                0x0801ad58       0x18 ./build/./RepRapFirmware/src/RepRap.o
 .text._ZN6RepRapUlPK11ObjectModelRK24ObjectExplorationContextE3_4_FUNES2_S5_
                0x0801ad70        0x4 ./build/./RepRapFirmware/src/RepRap.o
 .text._ZN6RepRapUlPK11ObjectModelRK24ObjectExplorationContextE7_4_FUNES2_S5_
                0x0801ad74        0x4 ./build/./RepRapFirmware/src/RepRap.o
 .text._ZN6RepRapUlPK11ObjectModelRK24ObjectExplorationContextE9_4_FUNES2_S5_
                0x0801ad78        0x6 ./build/./RepRapFirmware/src/RepRap.o
 .text._ZN6RepRapUlPK11ObjectModelRK24ObjectExplorationContextE11_4_FUNES2_S5_
                0x0801ad7e        0x4 ./build/./RepRapFirmware/src/RepRap.o
 .text._ZN6RepRapUlPK11ObjectModelRK24ObjectExplorationContextE13_4_FUNES2_S5_
                0x0801ad82        0x4 ./build/./RepRapFirmware/src/RepRap.o
 .text._ZN6RepRapUlPK11ObjectModelR24ObjectExplorationContextE14_4_FUNES2_S4_
                0x0801ad86        0x8 ./build/./RepRapFirmware/src/RepRap.o
 *fill*         0x0801ad8e        0x2 
 .text._ZN6RepRapUlPK11ObjectModelR24ObjectExplorationContextE15_4_FUNES2_S4_
                0x0801ad90       0x10 ./build/./RepRapFirmware/src/RepRap.o
 .text._ZN6RepRapUlPK11ObjectModelR24ObjectExplorationContextE16_4_FUNES2_S4_
                0x0801ada0       0x10 ./build/./RepRapFirmware/src/RepRap.o
 .text._ZN6RepRapUlPK11ObjectModelR24ObjectExplorationContextE18_4_FUNES2_S4_
                0x0801adb0       0x10 ./build/./RepRapFirmware/src/RepRap.o
 .text._ZN6RepRapUlPK11ObjectModelR24ObjectExplorationContextE20_4_FUNES2_S4_
                0x0801adc0       0x1a ./build/./RepRapFirmware/src/RepRap.o
 .text._ZN6RepRapUlPK11ObjectModelR24ObjectExplorationContextE24_4_FUNES2_S4_
                0x0801adda       0x1a ./build/./RepRapFirmware/src/RepRap.o
 .text._ZN6RepRapUlPK11ObjectModelR24ObjectExplorationContextE25_4_FUNES2_S4_
                0x0801adf4       0x10 ./build/./RepRapFirmware/src/RepRap.o
 .text._ZN6RepRapUlPK11ObjectModelR24ObjectExplorationContextE26_4_FUNES2_S4_
                0x0801ae04       0x1a ./build/./RepRapFirmware/src/RepRap.o
 *fill*         0x0801ae1e        0x2 
 .text._ZN6RepRapUlPK11ObjectModelR24ObjectExplorationContextE27_4_FUNES2_S4_
                0x0801ae20       0x10 ./build/./RepRapFirmware/src/RepRap.o
 .text._ZN6RepRapUlPK11ObjectModelR24ObjectExplorationContextE28_4_FUNES2_S4_
                0x0801ae30       0x10 ./build/./RepRapFirmware/src/RepRap.o
 .text._ZN6RepRapUlPK11ObjectModelR24ObjectExplorationContextE29_4_FUNES2_S4_
                0x0801ae40        0xa ./build/./RepRapFirmware/src/RepRap.o
 .text._ZN6RepRapUlPK11ObjectModelR24ObjectExplorationContextE30_4_FUNES2_S4_
                0x0801ae4a        0xa ./build/./RepRapFirmware/src/RepRap.o
 .text._ZN6RepRapUlPK11ObjectModelR24ObjectExplorationContextE31_4_FUNES2_S4_
                0x0801ae54        0xa ./build/./RepRapFirmware/src/RepRap.o
 .text._ZN6RepRapUlPK11ObjectModelR24ObjectExplorationContextE34_4_FUNES2_S4_
                0x0801ae5e        0xa ./build/./RepRapFirmware/src/RepRap.o
 .text._ZN6RepRapUlPK11ObjectModelR24ObjectExplorationContextE35_4_FUNES2_S4_
                0x0801ae68        0x8 ./build/./RepRapFirmware/src/RepRap.o
 .text._ZN6RepRapUlPK11ObjectModelR24ObjectExplorationContextE36_4_FUNES2_S4_
                0x0801ae70        0xa ./build/./RepRapFirmware/src/RepRap.o
 .text._ZN6RepRapUlPK11ObjectModelR24ObjectExplorationContextE37_4_FUNES2_S4_
                0x0801ae7a        0xa ./build/./RepRapFirmware/src/RepRap.o
 .text._ZN6RepRapUlPK11ObjectModelR24ObjectExplorationContextE39_4_FUNES2_S4_
                0x0801ae84        0xa ./build/./RepRapFirmware/src/RepRap.o
 .text._ZN6RepRapUlPK11ObjectModelR24ObjectExplorationContextE41_4_FUNES2_S4_
                0x0801ae8e        0xa ./build/./RepRapFirmware/src/RepRap.o
 .text._ZN6RepRapUlPK11ObjectModelR24ObjectExplorationContextE45_4_FUNES2_S4_
                0x0801ae98        0xa ./build/./RepRapFirmware/src/RepRap.o
 .text._ZN6RepRapUlPK11ObjectModelR24ObjectExplorationContextE47_4_FUNES2_S4_
                0x0801aea2        0xa ./build/./RepRapFirmware/src/RepRap.o
 .text._ZN6RepRapUlPK11ObjectModelR24ObjectExplorationContextE48_4_FUNES2_S4_
                0x0801aeac        0xa ./build/./RepRapFirmware/src/RepRap.o
 .text._ZN6RepRapUlPK11ObjectModelR24ObjectExplorationContextE49_4_FUNES2_S4_
                0x0801aeb6        0xa ./build/./RepRapFirmware/src/RepRap.o
 .text._ZN6RepRapUlPK11ObjectModelR24ObjectExplorationContextE50_4_FUNES2_S4_
                0x0801aec0        0xa ./build/./RepRapFirmware/src/RepRap.o
 .text._ZN6RepRapUlPK11ObjectModelR24ObjectExplorationContextE57_4_FUNES2_S4_
                0x0801aeca        0xc ./build/./RepRapFirmware/src/RepRap.o
 *fill*         0x0801aed6        0x2 
 .text._ZN6RepRapUlPK11ObjectModelR24ObjectExplorationContextE58_4_FUNES2_S4_
                0x0801aed8       0x10 ./build/./RepRapFirmware/src/RepRap.o
 .text._ZN6RepRapUlPK11ObjectModelR24ObjectExplorationContextE64_4_FUNES2_S4_
                0x0801aee8       0x1c ./build/./RepRapFirmware/src/RepRap.o
 .text._ZN6RepRapUlPK11ObjectModelR24ObjectExplorationContextE65_4_FUNES2_S4_
                0x0801af04        0xe ./build/./RepRapFirmware/src/RepRap.o
 .text._ZN6RepRapUlPK11ObjectModelR24ObjectExplorationContextE66_4_FUNES2_S4_
                0x0801af12        0xc ./build/./RepRapFirmware/src/RepRap.o
 *fill*         0x0801af1e        0x2 
 .text._ZN6RepRapUlPK11ObjectModelR24ObjectExplorationContextE67_4_FUNES2_S4_
                0x0801af20       0x10 ./build/./RepRapFirmware/src/RepRap.o
 .text._ZN6RepRapUlPK11ObjectModelR24ObjectExplorationContextE71_4_FUNES2_S4_
                0x0801af30        0xc ./build/./RepRapFirmware/src/RepRap.o
 .text._ZN6RepRapUlPK11ObjectModelR24ObjectExplorationContextE72_4_FUNES2_S4_
                0x0801af3c        0xc ./build/./RepRapFirmware/src/RepRap.o
 .text._ZN6RepRapUlPK11ObjectModelR24ObjectExplorationContextE73_4_FUNES2_S4_
                0x0801af48        0xc ./build/./RepRapFirmware/src/RepRap.o
 .text._ZN6RepRapUlPK11ObjectModelR24ObjectExplorationContextE74_4_FUNES2_S4_
                0x0801af54        0xc ./build/./RepRapFirmware/src/RepRap.o
 .text._ZN6RepRapUlPK11ObjectModelR24ObjectExplorationContextE75_4_FUNES2_S4_
                0x0801af60        0xc ./build/./RepRapFirmware/src/RepRap.o
 .text._ZN6RepRapUlPK11ObjectModelR24ObjectExplorationContextE76_4_FUNES2_S4_
                0x0801af6c        0xc ./build/./RepRapFirmware/src/RepRap.o
 .text._ZN6RepRapUlPK11ObjectModelR24ObjectExplorationContextE77_4_FUNES2_S4_
                0x0801af78        0xc ./build/./RepRapFirmware/src/RepRap.o
 .text._ZN6RepRapUlPK11ObjectModelR24ObjectExplorationContextE78_4_FUNES2_S4_
                0x0801af84        0xc ./build/./RepRapFirmware/src/RepRap.o
 .text._ZN6RepRapUlPK11ObjectModelR24ObjectExplorationContextE79_4_FUNES2_S4_
                0x0801af90        0xc ./build/./RepRapFirmware/src/RepRap.o
 .text._ZN6RepRapUlPK11ObjectModelR24ObjectExplorationContextE80_4_FUNES2_S4_
                0x0801af9c        0xc ./build/./RepRapFirmware/src/RepRap.o
 .text._ZN6RepRapUlPK11ObjectModelR24ObjectExplorationContextE81_4_FUNES2_S4_
                0x0801afa8        0xc ./build/./RepRapFirmware/src/RepRap.o
 .text._ZN6RepRapUlPK11ObjectModelR24ObjectExplorationContextE82_4_FUNES2_S4_
                0x0801afb4        0xc ./build/./RepRapFirmware/src/RepRap.o
 .text._ZN6RepRapUlPK11ObjectModelR24ObjectExplorationContextE83_4_FUNES2_S4_
                0x0801afc0        0xc ./build/./RepRapFirmware/src/RepRap.o
 .text._ZN6RepRapUlPK11ObjectModelR24ObjectExplorationContextE84_4_FUNES2_S4_
                0x0801afcc        0xc ./build/./RepRapFirmware/src/RepRap.o
 .text._ZN6RepRapUlPK11ObjectModelR24ObjectExplorationContextE85_4_FUNES2_S4_
                0x0801afd8        0xc ./build/./RepRapFirmware/src/RepRap.o
 .text._ZN6RepRapUlPK11ObjectModelR24ObjectExplorationContextE86_4_FUNES2_S4_
                0x0801afe4        0xc ./build/./RepRapFirmware/src/RepRap.o
 .text._ZN6RepRapUlPK11ObjectModelR24ObjectExplorationContextE87_4_FUNES2_S4_
                0x0801aff0        0xc ./build/./RepRapFirmware/src/RepRap.o
 .text._ZN6RepRapUlPK11ObjectModelR24ObjectExplorationContextE88_4_FUNES2_S4_
                0x0801affc        0xc ./build/./RepRapFirmware/src/RepRap.o
 .text._ZN6RepRapUlPK11ObjectModelR24ObjectExplorationContextE89_4_FUNES2_S4_
                0x0801b008        0xc ./build/./RepRapFirmware/src/RepRap.o
 .text._ZNK6RepRap29GetObjectModelClassDescriptorEv
                0x0801b014        0x8 ./build/./RepRapFirmware/src/RepRap.o
                0x0801b014                RepRap::GetObjectModelClassDescriptor() const
 .text._ZNSt14_Function_base13_Base_managerIZNK6RepRap17GetStatusResponseEh14ResponseSourceEUljE_E10_M_managerERSt9_Any_dataRKS5_St18_Manager_operation
                0x0801b01c       0x16 ./build/./RepRapFirmware/src/RepRap.o
 .text._ZNSt14_Function_base13_Base_managerIZNK6RepRap17GetStatusResponseEh14ResponseSourceEUljE0_E10_M_managerERSt9_Any_dataRKS5_St18_Manager_operation
                0x0801b032       0x16 ./build/./RepRapFirmware/src/RepRap.o
 .text._ZNSt14_Function_base13_Base_managerIZNK6RepRap17GetStatusResponseEh14ResponseSourceEUljE1_E10_M_managerERSt9_Any_dataRKS5_St18_Manager_operation
                0x0801b048       0x16 ./build/./RepRapFirmware/src/RepRap.o
 .text._ZNSt14_Function_base13_Base_managerIZNK6RepRap17GetStatusResponseEh14ResponseSourceEUljE2_E10_M_managerERSt9_Any_dataRKS5_St18_Manager_operation
                0x0801b05e       0x16 ./build/./RepRapFirmware/src/RepRap.o
 .text._ZNSt14_Function_base13_Base_managerIZNK6RepRap17GetStatusResponseEh14ResponseSourceEUljE3_E10_M_managerERSt9_Any_dataRKS5_St18_Manager_operation
                0x0801b074       0x16 ./build/./RepRapFirmware/src/RepRap.o
 .text._ZNSt14_Function_base13_Base_managerIZNK6RepRap17GetStatusResponseEh14ResponseSourceEUljE4_E10_M_managerERSt9_Any_dataRKS5_St18_Manager_operation
                0x0801b08a       0x16 ./build/./RepRapFirmware/src/RepRap.o
 .text._ZNSt14_Function_base13_Base_managerIZNK6RepRap17GetStatusResponseEh14ResponseSourceEUljE5_E10_M_managerERSt9_Any_dataRKS5_St18_Manager_operation
                0x0801b0a0       0x16 ./build/./RepRapFirmware/src/RepRap.o
 .text._ZNSt14_Function_base13_Base_managerIZNK6RepRap17GetStatusResponseEh14ResponseSourceEUljE6_E10_M_managerERSt9_Any_dataRKS5_St18_Manager_operation
                0x0801b0b6       0x16 ./build/./RepRapFirmware/src/RepRap.o
 .text._ZNSt14_Function_base13_Base_managerIZNK6RepRap17GetStatusResponseEh14ResponseSourceEUljE7_E10_M_managerERSt9_Any_dataRKS5_St18_Manager_operation
                0x0801b0cc       0x16 ./build/./RepRapFirmware/src/RepRap.o
 .text._ZNSt14_Function_base13_Base_managerIZNK6RepRap17GetStatusResponseEh14ResponseSourceEUljE8_E10_M_managerERSt9_Any_dataRKS5_St18_Manager_operation
                0x0801b0e2       0x16 ./build/./RepRapFirmware/src/RepRap.o
 .text._ZNSt14_Function_base13_Base_managerIZNK6RepRap17GetStatusResponseEh14ResponseSourceEUljE9_E10_M_managerERSt9_Any_dataRKS5_St18_Manager_operation
                0x0801b0f8       0x16 ./build/./RepRapFirmware/src/RepRap.o
 .text._ZNSt17_Function_handlerIFfjEZNK6RepRap17GetStatusResponseEh14ResponseSourceEUljE10_E9_M_invokeERKSt9_Any_dataOj
                0x0801b10e        0xe ./build/./RepRapFirmware/src/RepRap.o
 .text._ZNSt14_Function_base13_Base_managerIZNK6RepRap17GetStatusResponseEh14ResponseSourceEUljE10_E10_M_managerERSt9_Any_dataRKS5_St18_Manager_operation
                0x0801b11c       0x16 ./build/./RepRapFirmware/src/RepRap.o
 .text._ZNSt17_Function_handlerIFfjEZNK6RepRap17GetStatusResponseEh14ResponseSourceEUljE11_E9_M_invokeERKSt9_Any_dataOj
                0x0801b132        0xe ./build/./RepRapFirmware/src/RepRap.o
 .text._ZNSt14_Function_base13_Base_managerIZNK6RepRap17GetStatusResponseEh14ResponseSourceEUljE11_E10_M_managerERSt9_Any_dataRKS5_St18_Manager_operation
                0x0801b140       0x16 ./build/./RepRapFirmware/src/RepRap.o
 .text._ZNSt17_Function_handlerIFijEZNK6RepRap17GetStatusResponseEh14ResponseSourceEUljE12_E9_M_invokeERKSt9_Any_dataOj
                0x0801b156        0xc ./build/./RepRapFirmware/src/RepRap.o
 .text._ZNSt14_Function_base13_Base_managerIZNK6RepRap17GetStatusResponseEh14ResponseSourceEUljE12_E10_M_managerERSt9_Any_dataRKS5_St18_Manager_operation
                0x0801b162       0x16 ./build/./RepRapFirmware/src/RepRap.o
 .text._ZNSt17_Function_handlerIFijEZNK6RepRap17GetStatusResponseEh14ResponseSourceEUljE13_E9_M_invokeERKSt9_Any_dataOj
                0x0801b178        0xc ./build/./RepRapFirmware/src/RepRap.o
 .text._ZNSt14_Function_base13_Base_managerIZNK6RepRap17GetStatusResponseEh14ResponseSourceEUljE13_E10_M_managerERSt9_Any_dataRKS5_St18_Manager_operation
                0x0801b184       0x16 ./build/./RepRapFirmware/src/RepRap.o
 .text._ZNSt14_Function_base13_Base_managerIZNK6RepRap17GetStatusResponseEh14ResponseSourceEUljjE14_E10_M_managerERSt9_Any_dataRKS5_St18_Manager_operation
                0x0801b19a       0x16 ./build/./RepRapFirmware/src/RepRap.o
 .text._ZNSt14_Function_base13_Base_managerIZNK6RepRap17GetStatusResponseEh14ResponseSourceEUljjE15_E10_M_managerERSt9_Any_dataRKS5_St18_Manager_operation
                0x0801b1b0       0x16 ./build/./RepRapFirmware/src/RepRap.o
 .text._ZNSt17_Function_handlerIFfjEZNK6RepRap17GetStatusResponseEh14ResponseSourceEUljE16_E9_M_invokeERKSt9_Any_dataOj
                0x0801b1c6        0xe ./build/./RepRapFirmware/src/RepRap.o
 .text._ZNSt14_Function_base13_Base_managerIZNK6RepRap17GetStatusResponseEh14ResponseSourceEUljE16_E10_M_managerERSt9_Any_dataRKS5_St18_Manager_operation
                0x0801b1d4       0x16 ./build/./RepRapFirmware/src/RepRap.o
 .text._ZNSt14_Function_base13_Base_managerIZNK6RepRap17GetStatusResponseEh14ResponseSourceEUljE17_E10_M_managerERSt9_Any_dataRKS5_St18_Manager_operation
                0x0801b1ea       0x16 ./build/./RepRapFirmware/src/RepRap.o
 .text._ZNSt17_Function_handlerIFfjEZN6RepRap17GetConfigResponseEvEUljE_E9_M_invokeERKSt9_Any_dataOj
                0x0801b200       0x14 ./build/./RepRapFirmware/src/RepRap.o
 .text._ZNSt14_Function_base13_Base_managerIZN6RepRap17GetConfigResponseEvEUljE_E10_M_managerERSt9_Any_dataRKS4_St18_Manager_operation
                0x0801b214       0x16 ./build/./RepRapFirmware/src/RepRap.o
 .text._ZNSt17_Function_handlerIFfjEZN6RepRap17GetConfigResponseEvEUljE0_E9_M_invokeERKSt9_Any_dataOj
                0x0801b22a       0x14 ./build/./RepRapFirmware/src/RepRap.o
 .text._ZNSt14_Function_base13_Base_managerIZN6RepRap17GetConfigResponseEvEUljE0_E10_M_managerERSt9_Any_dataRKS4_St18_Manager_operation
                0x0801b23e       0x16 ./build/./RepRapFirmware/src/RepRap.o
 .text._ZNSt17_Function_handlerIFfjEZN6RepRap17GetConfigResponseEvEUljE1_E9_M_invokeERKSt9_Any_dataOj
                0x0801b254       0x10 ./build/./RepRapFirmware/src/RepRap.o
 .text._ZNSt14_Function_base13_Base_managerIZN6RepRap17GetConfigResponseEvEUljE1_E10_M_managerERSt9_Any_dataRKS4_St18_Manager_operation
                0x0801b264       0x16 ./build/./RepRapFirmware/src/RepRap.o
 .text._ZNSt14_Function_base13_Base_managerIZN6RepRap17GetConfigResponseEvEUljE2_E10_M_managerERSt9_Any_dataRKS4_St18_Manager_operation
                0x0801b27a       0x16 ./build/./RepRapFirmware/src/RepRap.o
 .text._ZNSt17_Function_handlerIFfjEZN6RepRap17GetConfigResponseEvEUljE3_E9_M_invokeERKSt9_Any_dataOj
                0x0801b290       0x10 ./build/./RepRapFirmware/src/RepRap.o
 .text._ZNSt14_Function_base13_Base_managerIZN6RepRap17GetConfigResponseEvEUljE3_E10_M_managerERSt9_Any_dataRKS4_St18_Manager_operation
                0x0801b2a0       0x16 ./build/./RepRapFirmware/src/RepRap.o
 .text._ZNSt17_Function_handlerIFfjEZN6RepRap17GetConfigResponseEvEUljE4_E9_M_invokeERKSt9_Any_dataOj
                0x0801b2b6       0x10 ./build/./RepRapFirmware/src/RepRap.o
 .text._ZNSt14_Function_base13_Base_managerIZN6RepRap17GetConfigResponseEvEUljE4_E10_M_managerERSt9_Any_dataRKS4_St18_Manager_operation
                0x0801b2c6       0x16 ./build/./RepRapFirmware/src/RepRap.o
 .text._ZNSt14_Function_base13_Base_managerIZNK6RepRap23GetLegacyStatusResponseEhiEUljE_E10_M_managerERSt9_Any_dataRKS4_St18_Manager_operation
                0x0801b2dc       0x16 ./build/./RepRapFirmware/src/RepRap.o
 .text._ZNSt14_Function_base13_Base_managerIZNK6RepRap23GetLegacyStatusResponseEhiEUljE0_E10_M_managerERSt9_Any_dataRKS4_St18_Manager_operation
                0x0801b2f2       0x16 ./build/./RepRapFirmware/src/RepRap.o
 .text._ZNSt14_Function_base13_Base_managerIZNK6RepRap23GetLegacyStatusResponseEhiEUljE1_E10_M_managerERSt9_Any_dataRKS4_St18_Manager_operation
                0x0801b308       0x16 ./build/./RepRapFirmware/src/RepRap.o
 .text._ZNSt14_Function_base13_Base_managerIZNK6RepRap23GetLegacyStatusResponseEhiEUljE2_E10_M_managerERSt9_Any_dataRKS4_St18_Manager_operation
                0x0801b31e       0x16 ./build/./RepRapFirmware/src/RepRap.o
 .text._ZNSt14_Function_base13_Base_managerIZNK6RepRap23GetLegacyStatusResponseEhiEUljE3_E10_M_managerERSt9_Any_dataRKS4_St18_Manager_operation
                0x0801b334       0x16 ./build/./RepRapFirmware/src/RepRap.o
 .text._ZN6RepRapD2Ev
                0x0801b34a        0x2 ./build/./RepRapFirmware/src/RepRap.o
                0x0801b34a                RepRap::~RepRap()
                0x0801b34a                RepRap::~RepRap()
 .text._ZN6RepRapD0Ev
                0x0801b34c       0x10 ./build/./RepRapFirmware/src/RepRap.o
                0x0801b34c                RepRap::~RepRap()
 .text._ZN6RepRapUlPK11ObjectModelRK24ObjectExplorationContextE1_4_FUNES2_S5_
                0x0801b35c        0x6 ./build/./RepRapFirmware/src/RepRap.o
 *fill*         0x0801b362        0x2 
 .text._ZNSt17_Function_handlerIFvjjEZNK6RepRap17GetStatusResponseEh14ResponseSourceEUljjE15_E9_M_invokeERKSt9_Any_dataOjS8_
                0x0801b364       0x24 ./build/./RepRapFirmware/src/RepRap.o
 .text._ZNSt17_Function_handlerIFfjEZNK6RepRap17GetStatusResponseEh14ResponseSourceEUljE0_E9_M_invokeERKSt9_Any_dataOj
                0x0801b388        0xa ./build/./RepRapFirmware/src/RepRap.o
 .text._ZNSt17_Function_handlerIFfjEZNK6RepRap23GetLegacyStatusResponseEhiEUljE0_E9_M_invokeERKSt9_Any_dataOj
                0x0801b392        0xe ./build/./RepRapFirmware/src/RepRap.o
 .text._ZNSt17_Function_handlerIFijEZNK6RepRap17GetStatusResponseEh14ResponseSourceEUljE3_E9_M_invokeERKSt9_Any_dataOj
                0x0801b3a0       0x30 ./build/./RepRapFirmware/src/RepRap.o
 .text._ZNSt17_Function_handlerIFPKcjEZNK6RepRap17GetStatusResponseEh14ResponseSourceEUljE4_E9_M_invokeERKSt9_Any_dataOj
                0x0801b3d0        0xa ./build/./RepRapFirmware/src/RepRap.o
 *fill*         0x0801b3da        0x2 
 .text._ZNSt17_Function_handlerIFfjEZNK6RepRap23GetLegacyStatusResponseEhiEUljE1_E9_M_invokeERKSt9_Any_dataOj
                0x0801b3dc       0x1c ./build/./RepRapFirmware/src/RepRap.o
 .text._ZNSt17_Function_handlerIFijEZNK6RepRap23GetLegacyStatusResponseEhiEUljE2_E9_M_invokeERKSt9_Any_dataOj
                0x0801b3f8        0xa ./build/./RepRapFirmware/src/RepRap.o
 .text._ZNSt17_Function_handlerIFfjEZNK6RepRap17GetStatusResponseEh14ResponseSourceEUljE7_E9_M_invokeERKSt9_Any_dataOj
                0x0801b402        0xa ./build/./RepRapFirmware/src/RepRap.o
 .text._ZNSt17_Function_handlerIFPKcjEZNK6RepRap17GetStatusResponseEh14ResponseSourceEUljE9_E9_M_invokeERKSt9_Any_dataOj
                0x0801b40c        0xa ./build/./RepRapFirmware/src/RepRap.o
 .text._ZNSt17_Function_handlerIFfjEZNK6RepRap17GetStatusResponseEh14ResponseSourceEUljE17_E9_M_invokeERKSt9_Any_dataOj
                0x0801b416        0xa ./build/./RepRapFirmware/src/RepRap.o
 .text._ZNSt17_Function_handlerIFijEZN6RepRap17GetConfigResponseEvEUljE2_E9_M_invokeERKSt9_Any_dataOj
                0x0801b420       0x1a ./build/./RepRapFirmware/src/RepRap.o
 .text._ZNSt17_Function_handlerIFfjEZNK6RepRap17GetStatusResponseEh14ResponseSourceEUljE2_E9_M_invokeERKSt9_Any_dataOj
                0x0801b43a       0x12 ./build/./RepRapFirmware/src/RepRap.o
 .text._ZN6RepRapUlPK11ObjectModelR24ObjectExplorationContextE62_4_FUNES2_S4_
                0x0801b44c       0x14 ./build/./RepRapFirmware/src/RepRap.o
 .text._ZN6RepRapUlPK11ObjectModelR24ObjectExplorationContextE61_4_FUNES2_S4_
                0x0801b460       0x14 ./build/./RepRapFirmware/src/RepRap.o
 .text._ZN6RepRapUlPK11ObjectModelR24ObjectExplorationContextE63_4_FUNES2_S4_
                0x0801b474       0x16 ./build/./RepRapFirmware/src/RepRap.o
 .text._ZN6RepRapUlPK11ObjectModelR24ObjectExplorationContextE55_4_FUNES2_S4_
                0x0801b48a       0x16 ./build/./RepRapFirmware/src/RepRap.o
 .text._ZN6RepRapUlPK11ObjectModelR24ObjectExplorationContextE70_4_FUNES2_S4_
                0x0801b4a0       0x20 ./build/./RepRapFirmware/src/RepRap.o
 .text._ZN6RepRapUlPK11ObjectModelRK24ObjectExplorationContextE5_4_FUNES2_S5_
                0x0801b4c0        0xc ./build/./RepRapFirmware/src/RepRap.o
 .text._ZN6RepRapUlPK11ObjectModelR24ObjectExplorationContextE69_4_FUNES2_S4_
                0x0801b4cc       0x24 ./build/./RepRapFirmware/src/RepRap.o
 .text._ZN6RepRapUlPK11ObjectModelR24ObjectExplorationContextE54_4_FUNES2_S4_
                0x0801b4f0       0x22 ./build/./RepRapFirmware/src/RepRap.o
 *fill*         0x0801b512        0x2 
 .text._ZN6RepRapUlPK11ObjectModelR24ObjectExplorationContextE59_4_FUNES2_S4_
                0x0801b514       0x38 ./build/./RepRapFirmware/src/RepRap.o
 .text._ZNSt17_Function_handlerIFijEZNK6RepRap17GetStatusResponseEh14ResponseSourceEUljE8_E9_M_invokeERKSt9_Any_dataOj
                0x0801b54c       0x18 ./build/./RepRapFirmware/src/RepRap.o
 .text._ZNSt17_Function_handlerIFijEZNK6RepRap23GetLegacyStatusResponseEhiEUljE3_E9_M_invokeERKSt9_Any_dataOj
                0x0801b564       0x12 ./build/./RepRapFirmware/src/RepRap.o
 .text._ZNK6BitmapItE7IterateESt8functionIFvjjEE.isra.288
                0x0801b576       0x40 ./build/./RepRapFirmware/src/RepRap.o
 .text._ZN6RepRapUlPK11ObjectModelR24ObjectExplorationContextE53_4_FUNES2_S4_
                0x0801b5b6        0xa ./build/./RepRapFirmware/src/RepRap.o
 .text._ZN6RepRapUlPK11ObjectModelR24ObjectExplorationContextE60_4_FUNES2_S4_
                0x0801b5c0        0x8 ./build/./RepRapFirmware/src/RepRap.o
 .text._ZN6RepRapUlPK11ObjectModelR24ObjectExplorationContextE32_4_FUNES2_S4_
                0x0801b5c8        0xa ./build/./RepRapFirmware/src/RepRap.o
 .text._ZN6RepRapUlPK11ObjectModelR24ObjectExplorationContextE33_4_FUNES2_S4_
                0x0801b5d2        0xa ./build/./RepRapFirmware/src/RepRap.o
 .text._ZN6RepRapUlPK11ObjectModelR24ObjectExplorationContextE38_4_FUNES2_S4_
                0x0801b5dc        0xa ./build/./RepRapFirmware/src/RepRap.o
 .text._ZN6RepRapUlPK11ObjectModelR24ObjectExplorationContextE40_4_FUNES2_S4_
                0x0801b5e6        0xa ./build/./RepRapFirmware/src/RepRap.o
 .text._ZN6RepRapUlPK11ObjectModelR24ObjectExplorationContextE42_4_FUNES2_S4_
                0x0801b5f0        0xa ./build/./RepRapFirmware/src/RepRap.o
 .text._ZN6RepRapUlPK11ObjectModelR24ObjectExplorationContextE43_4_FUNES2_S4_
                0x0801b5fa        0xa ./build/./RepRapFirmware/src/RepRap.o
 .text._ZN6RepRapUlPK11ObjectModelR24ObjectExplorationContextE44_4_FUNES2_S4_
                0x0801b604        0xa ./build/./RepRapFirmware/src/RepRap.o
 .text._ZN6RepRapUlPK11ObjectModelR24ObjectExplorationContextE46_4_FUNES2_S4_
                0x0801b60e        0x8 ./build/./RepRapFirmware/src/RepRap.o
 .text._ZN6RepRapUlPK11ObjectModelR24ObjectExplorationContextE51_4_FUNES2_S4_
                0x0801b616        0xa ./build/./RepRapFirmware/src/RepRap.o
 .text._ZN6RepRapUlPK11ObjectModelR24ObjectExplorationContextE52_4_FUNES2_S4_
                0x0801b620        0xa ./build/./RepRapFirmware/src/RepRap.o
 .text._ZNSt17_Function_handlerIFijEZNK6RepRap17GetStatusResponseEh14ResponseSourceEUljE_E9_M_invokeERKSt9_Any_dataOj
                0x0801b62a       0x12 ./build/./RepRapFirmware/src/RepRap.o
 .text._ZNSt17_Function_handlerIFijEZNK6RepRap17GetStatusResponseEh14ResponseSourceEUljE6_E9_M_invokeERKSt9_Any_dataOj
                0x0801b63c        0xa ./build/./RepRapFirmware/src/RepRap.o
 .text._ZNSt17_Function_handlerIFfjEZNK6RepRap23GetLegacyStatusResponseEhiEUljE_E9_M_invokeERKSt9_Any_dataOj
                0x0801b646        0xa ./build/./RepRapFirmware/src/RepRap.o
 .text._ZNSt17_Function_handlerIFfjEZNK6RepRap17GetStatusResponseEh14ResponseSourceEUljE1_E9_M_invokeERKSt9_Any_dataOj
                0x0801b650        0xe ./build/./RepRapFirmware/src/RepRap.o
 *fill*         0x0801b65e        0x2 
 .text._ZNSt17_Function_handlerIFfjEZNK6RepRap17GetStatusResponseEh14ResponseSourceEUljE5_E9_M_invokeERKSt9_Any_dataOj
                0x0801b660       0x1c ./build/./RepRapFirmware/src/RepRap.o
 .text._ZNSt17_Function_handlerIFvjjEZNK6RepRap17GetStatusResponseEh14ResponseSourceEUljjE14_E9_M_invokeERKSt9_Any_dataOjS8_
                0x0801b67c       0x24 ./build/./RepRapFirmware/src/RepRap.o
 .text._ZN15ExpressionValueC2EPK11ObjectModel
                0x0801b6a0       0x16 ./build/./RepRapFirmware/src/RepRap.o
                0x0801b6a0                ExpressionValue::ExpressionValue(ObjectModel const*)
                0x0801b6a0                ExpressionValue::ExpressionValue(ObjectModel const*)
 .text._ZN6RepRapUlPK11ObjectModelR24ObjectExplorationContextE22_4_FUNES2_S4_
                0x0801b6b6        0xe ./build/./RepRapFirmware/src/RepRap.o
 .text._ZN6RepRapUlPK11ObjectModelR24ObjectExplorationContextE21_4_FUNES2_S4_
                0x0801b6c4        0xe ./build/./RepRapFirmware/src/RepRap.o
 .text._ZN6RepRapUlPK11ObjectModelR24ObjectExplorationContextE19_4_FUNES2_S4_
                0x0801b6d2        0xe ./build/./RepRapFirmware/src/RepRap.o
 .text._ZN6RepRapUlPK11ObjectModelR24ObjectExplorationContextE17_4_FUNES2_S4_
                0x0801b6e0        0xe ./build/./RepRapFirmware/src/RepRap.o
 .text._ZN6RepRapUlPK11ObjectModelR24ObjectExplorationContextE23_4_FUNES2_S4_
                0x0801b6ee       0x12 ./build/./RepRapFirmware/src/RepRap.o
 .text._ZN6RepRapUlPK11ObjectModelR24ObjectExplorationContextE8_4_FUNES2_S4_
                0x0801b700       0x20 ./build/./RepRapFirmware/src/RepRap.o
 .text._ZN6RepRapUlPK11ObjectModelR24ObjectExplorationContextE6_4_FUNES2_S4_
                0x0801b720       0x38 ./build/./RepRapFirmware/src/RepRap.o
 .text._ZN6RepRapUlPK11ObjectModelR24ObjectExplorationContextE4_4_FUNES2_S4_
                0x0801b758       0x1c ./build/./RepRapFirmware/src/RepRap.o
 .text._ZN6RepRapUlPK11ObjectModelR24ObjectExplorationContextE12_4_FUNES2_S4_
                0x0801b774       0x20 ./build/./RepRapFirmware/src/RepRap.o
 .text._ZN6RepRapUlPK11ObjectModelR24ObjectExplorationContextE2_4_FUNES2_S4_
                0x0801b794       0x2a ./build/./RepRapFirmware/src/RepRap.o
 .text._ZNK4Move17GetGeometryStringEv
                0x0801b7be        0xe ./build/./RepRapFirmware/src/RepRap.o
                0x0801b7be                Move::GetGeometryString() const
 .text._ZN6RepRapC2Ev
                0x0801b7cc       0x78 ./build/./RepRapFirmware/src/RepRap.o
                0x0801b7cc                RepRap::RepRap()
                0x0801b7cc                RepRap::RepRap()
 .text._ZN6RepRap6TimingE11MessageType
                0x0801b844       0x64 ./build/./RepRapFirmware/src/RepRap.o
                0x0801b844                RepRap::Timing(MessageType)
 .text._ZN6RepRap11DiagnosticsE11MessageType
                0x0801b8a8       0x9c ./build/./RepRapFirmware/src/RepRap.o
                0x0801b8a8                RepRap::Diagnostics(MessageType)
 .text._ZN6RepRap4SpinEv
                0x0801b944      0x188 ./build/./RepRapFirmware/src/RepRap.o
                0x0801b944                RepRap::Spin()
 .text._ZN6RepRap14RunStartupFileEPKc
                0x0801bacc       0x44 ./build/./RepRapFirmware/src/RepRap.o
                0x0801bacc                RepRap::RunStartupFile(char const*)
 .text._ZN6RepRap13EmergencyStopEv
                0x0801bb10       0x66 ./build/./RepRapFirmware/src/RepRap.o
                0x0801bb10                RepRap::EmergencyStop()
 .text._ZN6RepRap8SetDebugE6Moduleb
                0x0801bb76       0x24 ./build/./RepRapFirmware/src/RepRap.o
                0x0801bb76                RepRap::SetDebug(Module, bool)
 .text._ZN6RepRap10ClearDebugEv
                0x0801bb9a        0x8 ./build/./RepRapFirmware/src/RepRap.o
                0x0801bb9a                RepRap::ClearDebug()
 *fill*         0x0801bba2        0x2 
 .text._ZN6RepRap10PrintDebugE11MessageType
                0x0801bba4       0xa8 ./build/./RepRapFirmware/src/RepRap.o
                0x0801bba4                RepRap::PrintDebug(MessageType)
 .text._ZN6RepRap7AddToolEP4Tool
                0x0801bc4c       0x58 ./build/./RepRapFirmware/src/RepRap.o
                0x0801bc4c                RepRap::AddTool(Tool*)
 .text._ZNK6RepRap20GetLockedCurrentToolEv
                0x0801bca4       0x20 ./build/./RepRapFirmware/src/RepRap.o
                0x0801bca4                RepRap::GetLockedCurrentTool() const
 .text._ZNK6RepRap7GetToolEi
                0x0801bcc4       0x48 ./build/./RepRapFirmware/src/RepRap.o
                0x0801bcc4                RepRap::GetTool(int) const
 .text._ZN6RepRapUlPK11ObjectModelR24ObjectExplorationContextE10_4_FUNES2_S4_
                0x0801bd0c       0x2a ./build/./RepRapFirmware/src/RepRap.o
 .text._ZN6RepRap10SelectToolEib
                0x0801bd36       0x3a ./build/./RepRapFirmware/src/RepRap.o
                0x0801bd36                RepRap::SelectTool(int, bool)
 .text._ZN6RepRap10DeleteToolEi
                0x0801bd70       0xb4 ./build/./RepRapFirmware/src/RepRap.o
                0x0801bd70                RepRap::DeleteTool(int)
 .text._ZNK6RepRap9PrintToolEiRK9StringRef
                0x0801be24       0x30 ./build/./RepRapFirmware/src/RepRap.o
                0x0801be24                RepRap::PrintTool(int, StringRef const&) const
 .text._ZN6RepRap11StandbyToolEib
                0x0801be54       0x4c ./build/./RepRapFirmware/src/RepRap.o
                0x0801be54                RepRap::StandbyTool(int, bool)
 .text._ZNK6RepRap20GetCurrentToolNumberEv
                0x0801bea0       0x12 ./build/./RepRapFirmware/src/RepRap.o
                0x0801bea0                RepRap::GetCurrentToolNumber() const
 .text._ZN6RepRapUlPK11ObjectModelR24ObjectExplorationContextE56_4_FUNES2_S4_
                0x0801beb2       0x14 ./build/./RepRapFirmware/src/RepRap.o
 *fill*         0x0801bec6        0x2 
 .text._ZNK6RepRap23GetCurrentOrDefaultToolEv
                0x0801bec8       0x24 ./build/./RepRapFirmware/src/RepRap.o
                0x0801bec8                RepRap::GetCurrentOrDefaultTool() const
 .text._ZNK6RepRap22IsHeaterAssignedToToolEa
                0x0801beec       0x4c ./build/./RepRapFirmware/src/RepRap.o
                0x0801beec                RepRap::IsHeaterAssignedToTool(signed char) const
 .text._ZNK6RepRap26GetNumberOfContiguousToolsEv
                0x0801bf38       0x34 ./build/./RepRapFirmware/src/RepRap.o
                0x0801bf38                RepRap::GetNumberOfContiguousTools() const
 .text._ZNK6RepRap22ReportToolTemperaturesERK9StringRefPK4Toolb
                0x0801bf6c       0xc0 ./build/./RepRapFirmware/src/RepRap.o
                0x0801bf6c                RepRap::ReportToolTemperatures(StringRef const&, Tool const*, bool) const
 .text._ZNK6RepRap25ReportAllToolTemperaturesERK9StringRef
                0x0801c02c       0x40 ./build/./RepRapFirmware/src/RepRap.o
                0x0801c02c                RepRap::ReportAllToolTemperatures(StringRef const&) const
 .text._ZN6RepRap29SetAllToolsFirmwareRetractionER11GCodeBufferRK9StringRefRP12OutputBuffer
                0x0801c06c       0x26 ./build/./RepRapFirmware/src/RepRap.o
                0x0801c06c                RepRap::SetAllToolsFirmwareRetraction(GCodeBuffer&, StringRef const&, OutputBuffer*&)
 .text._ZNK6RepRap15GetCurrentXAxesEv
                0x0801c092        0x8 ./build/./RepRapFirmware/src/RepRap.o
                0x0801c092                RepRap::GetCurrentXAxes() const
 .text._ZNK6RepRap15GetCurrentYAxesEv
                0x0801c09a        0x8 ./build/./RepRapFirmware/src/RepRap.o
                0x0801c09a                RepRap::GetCurrentYAxes() const
 .text._ZN6RepRap21SetPreviousToolNumberEv
                0x0801c0a2       0x16 ./build/./RepRapFirmware/src/RepRap.o
                0x0801c0a2                RepRap::SetPreviousToolNumber()
 .text._ZN6RepRap4TickEv
                0x0801c0b8       0x6c ./build/./RepRapFirmware/src/RepRap.o
                0x0801c0b8                RepRap::Tick()
 .text._ZNK6RepRap19SpinTimeoutImminentEv
                0x0801c124       0x10 ./build/./RepRapFirmware/src/RepRap.o
                0x0801c124                RepRap::SpinTimeoutImminent() const
 .text._ZN6RepRap19GetFileInfoResponseEPKcRP12OutputBufferb
                0x0801c134      0x17c ./build/./RepRapFirmware/src/RepRap.o
                0x0801c134                RepRap::GetFileInfoResponse(char const*, OutputBuffer*&, bool)
 .text._ZN6RepRap16AppendFloatArrayEP12OutputBufferPKcjSt8functionIFfjEEj
                0x0801c2b0       0x6c ./build/./RepRapFirmware/src/RepRap.o
                0x0801c2b0                RepRap::AppendFloatArray(OutputBuffer*, char const*, unsigned int, std::function<float (unsigned int)>, unsigned int)
 .text._ZN6RepRap14AppendIntArrayEP12OutputBufferPKcjSt8functionIFijEE
                0x0801c31c       0x64 ./build/./RepRapFirmware/src/RepRap.o
                0x0801c31c                RepRap::AppendIntArray(OutputBuffer*, char const*, unsigned int, std::function<int (unsigned int)>)
 .text._ZN6RepRap17GetConfigResponseEv
                0x0801c380      0x1e8 ./build/./RepRapFirmware/src/RepRap.o
                0x0801c380                RepRap::GetConfigResponse()
 .text._ZN6RepRap17AppendStringArrayEP12OutputBufferPKcjSt8functionIFS3_jEE
                0x0801c568       0x64 ./build/./RepRapFirmware/src/RepRap.o
                0x0801c568                RepRap::AppendStringArray(OutputBuffer*, char const*, unsigned int, std::function<char const* (unsigned int)>)
 .text._ZNK6RepRap16GetModelResponseEPKcS1_
                0x0801c5cc       0x90 ./build/./RepRapFirmware/src/RepRap.o
                0x0801c5cc                RepRap::GetModelResponse(char const*, char const*) const
 .text._ZN6RepRap4BeepEjj
                0x0801c65c       0x66 ./build/./RepRapFirmware/src/RepRap.o
                0x0801c65c                RepRap::Beep(unsigned int, unsigned int)
 .text._ZN6RepRap10SetMessageEPKc
                0x0801c6c2       0x50 ./build/./RepRapFirmware/src/RepRap.o
                0x0801c6c2                RepRap::SetMessage(char const*)
 *fill*         0x0801c712        0x2 
 .text._ZN6RepRap8SetAlertEPKcS1_if6BitmapItE
                0x0801c714       0xc8 ./build/./RepRapFirmware/src/RepRap.o
                0x0801c714                RepRap::SetAlert(char const*, char const*, int, float, Bitmap<unsigned short>)
 .text._ZN6RepRap10ClearAlertEv
                0x0801c7dc       0x2c ./build/./RepRapFirmware/src/RepRap.o
                0x0801c7dc                RepRap::ClearAlert()
 .text._ZNK6RepRap14GetStatusIndexEv
                0x0801c808       0x7e ./build/./RepRapFirmware/src/RepRap.o
                0x0801c808                RepRap::GetStatusIndex() const
 *fill*         0x0801c886        0x2 
 .text._ZNK6RepRap23GetLegacyStatusResponseEhi
                0x0801c888      0x590 ./build/./RepRapFirmware/src/RepRap.o
                0x0801c888                RepRap::GetLegacyStatusResponse(unsigned char, int) const
 .text._ZNK6RepRap17GetStatusResponseEh14ResponseSource
                0x0801ce18      0xdc8 ./build/./RepRapFirmware/src/RepRap.o
                0x0801ce18                RepRap::GetStatusResponse(unsigned char, ResponseSource) const
 .text._ZNK6RepRap15GetStatusStringEv
                0x0801dbe0       0x14 ./build/./RepRapFirmware/src/RepRap.o
                0x0801dbe0                RepRap::GetStatusString() const
 .text._ZN6RepRapUlPK11ObjectModelR24ObjectExplorationContextE68_4_FUNES2_S4_
