Archive member included to satisfy reference by file (symbol)

./build/\libLPCCore.a(startup_LPC17xx.o)
                              (Reset_Handler)
./build/\libLPCCore.a(main.o)
                              c:/users/andy/.vscode/extensions/metalcode-eu.windows-arm-none-eabi-0.1.6/bin/../lib/gcc/arm-none-eabi/8.2.1/../../../../arm-none-eabi/lib/thumb/v7-m/nofp/crt0.o (main)
./build/\libLPCCore.a(variant.o)
                              ./build/\libLPCCore.a(main.o) (init())
./build/\libLPCCore.a(heap_5.o)
                              ./build/\libLPCCore.a(main.o) (vPortDefineHeapRegions)
./build/\libLPCCore.a(systick.o)
                              ./build/\libLPCCore.a(main.o) (SysTick_Init)
./build/\libLPCCore.a(system_LPC17xx.o)
                              ./build/\libLPCCore.a(main.o) (SystemInit)
./build/\libLPCCore.a(clock_17xx_40xx.o)
                              ./build/\libLPCCore.a(system_LPC17xx.o) (Chip_Clock_EnablePLL)
./build/\libLPCCore.a(iap.o)  ./build/\libLPCCore.a(system_LPC17xx.o) (Chip_IAP_ReadPID)
./build/\libLPCCore.a(AnalogIn.o)
                              ./build/\libLPCCore.a(variant.o) (AnalogInInit())
./build/\libLPCCore.a(AnalogOut.o)
                              ./build/\libLPCCore.a(variant.o) (AnalogOutInit())
./build/\libLPCCore.a(AnalogOutServo.o)
                              ./build/\libLPCCore.a(AnalogOut.o) (AnalogWriteServo(float, unsigned short, gpioPins_et))
./build/\libLPCCore.a(AnalogOutSoftwarePWM.o)
                              ./build/\libLPCCore.a(AnalogOut.o) (CanDoSoftwarePWM(gpioPins_et))
./build/\libLPCCore.a(new.o)  ./build/\libLPCCore.a(AnalogOutSoftwarePWM.o) (operator new(unsigned int))
./build/\libLPCCore.a(wiring_digital.o)
                              ./build/\libLPCCore.a(AnalogOut.o) (pinModeDuet)
./build/\libLPCCore.a(SoftwarePWM.o)
                              ./build/\libLPCCore.a(AnalogOutSoftwarePWM.o) (SoftwarePWM::SoftwarePWM(gpioPins_et))
./build/\libLPCCore.a(SoftwarePWMTimer.o)
                              ./build/\libLPCCore.a(SoftwarePWM.o) (SoftwarePWMTimer::disable(int))
./build/\libLPCCore.a(tasks.o)
                              ./build/\libLPCCore.a(heap_5.o) (vTaskSuspendAll)
./build/\libLPCCore.a(port.o)
                              ./build/\libLPCCore.a(tasks.o) (pxPortInitialiseStack)
./build/\libLPCCore.a(gpio.o)
                              ./build/\libLPCCore.a(AnalogIn.o) (GPIO_PinFunction)
./build/\libLPCCore.a(adc_17xx_40xx.o)
                              ./build/\libLPCCore.a(AnalogIn.o) (Chip_ADC_Init)
./build/\libLPCCore.a(ADCPreFilter.o)
                              ./build/\libLPCCore.a(AnalogIn.o) (ADCPreFilter::UpdateChannels(unsigned char))
./build/\libLPCCore.a(DMA.o)  ./build/\libLPCCore.a(ADCPreFilter.o) (InitialiseDMA())
./build/\libLPCCore.a(list.o)
                              ./build/\libLPCCore.a(tasks.o) (vListInitialise)
./build/\libLPCCore.a(gpdma_17xx_40xx.o)
                              ./build/\libLPCCore.a(DMA.o) (Chip_GPDMA_Init)
c:/users/andy/.vscode/extensions/metalcode-eu.windows-arm-none-eabi-0.1.6/bin/../lib/gcc/arm-none-eabi/8.2.1/../../../../arm-none-eabi/lib/thumb/v7-m/nofp\libsupc++.a(atexit_arm.o)
                              ./build/./RepRapFirmware/src/RepRapFirmware.o (__aeabi_atexit)
c:/users/andy/.vscode/extensions/metalcode-eu.windows-arm-none-eabi-0.1.6/bin/../lib/gcc/arm-none-eabi/8.2.1/../../../../arm-none-eabi/lib/thumb/v7-m/nofp\libsupc++.a(class_type_info.o)
                              ./build/./RepRapFirmware/src/GCodes/GCodes.o (vtable for __cxxabiv1::__class_type_info)
c:/users/andy/.vscode/extensions/metalcode-eu.windows-arm-none-eabi-0.1.6/bin/../lib/gcc/arm-none-eabi/8.2.1/../../../../arm-none-eabi/lib/thumb/v7-m/nofp\libsupc++.a(eh_arm.o)
                              ./build/./RepRapFirmware/src/Platform.o (__cxa_end_cleanup)
c:/users/andy/.vscode/extensions/metalcode-eu.windows-arm-none-eabi-0.1.6/bin/../lib/gcc/arm-none-eabi/8.2.1/../../../../arm-none-eabi/lib/thumb/v7-m/nofp\libsupc++.a(eh_catch.o)
                              ./build/./RepRapFirmware/src/RepRap.o (__cxa_begin_catch)
c:/users/andy/.vscode/extensions/metalcode-eu.windows-arm-none-eabi-0.1.6/bin/../lib/gcc/arm-none-eabi/8.2.1/../../../../arm-none-eabi/lib/thumb/v7-m/nofp\libsupc++.a(eh_exception.o)
                              c:/users/andy/.vscode/extensions/metalcode-eu.windows-arm-none-eabi-0.1.6/bin/../lib/gcc/arm-none-eabi/8.2.1/../../../../arm-none-eabi/lib/thumb/v7-m/nofp\libsupc++.a(eh_arm.o) (typeinfo for __cxxabiv1::__forced_unwind)
c:/users/andy/.vscode/extensions/metalcode-eu.windows-arm-none-eabi-0.1.6/bin/../lib/gcc/arm-none-eabi/8.2.1/../../../../arm-none-eabi/lib/thumb/v7-m/nofp\libsupc++.a(eh_globals.o)
                              c:/users/andy/.vscode/extensions/metalcode-eu.windows-arm-none-eabi-0.1.6/bin/../lib/gcc/arm-none-eabi/8.2.1/../../../../arm-none-eabi/lib/thumb/v7-m/nofp\libsupc++.a(eh_catch.o) (__cxa_get_globals_fast)
c:/users/andy/.vscode/extensions/metalcode-eu.windows-arm-none-eabi-0.1.6/bin/../lib/gcc/arm-none-eabi/8.2.1/../../../../arm-none-eabi/lib/thumb/v7-m/nofp\libsupc++.a(eh_personality.o)
                              ./build/./RepRapFirmware/src/OutputMemory.o (__gxx_personality_v0)
c:/users/andy/.vscode/extensions/metalcode-eu.windows-arm-none-eabi-0.1.6/bin/../lib/gcc/arm-none-eabi/8.2.1/../../../../arm-none-eabi/lib/thumb/v7-m/nofp\libsupc++.a(eh_terminate.o)
                              ./build/./RepRapFirmware/src/libcpp/eh_alloc.o (std::terminate())
c:/users/andy/.vscode/extensions/metalcode-eu.windows-arm-none-eabi-0.1.6/bin/../lib/gcc/arm-none-eabi/8.2.1/../../../../arm-none-eabi/lib/thumb/v7-m/nofp\libsupc++.a(eh_throw.o)
                              ./build/./RepRapFirmware/src/GCodes/GCodes.o (__cxa_throw)
c:/users/andy/.vscode/extensions/metalcode-eu.windows-arm-none-eabi-0.1.6/bin/../lib/gcc/arm-none-eabi/8.2.1/../../../../arm-none-eabi/lib/thumb/v7-m/nofp\libsupc++.a(eh_unex_handler.o)
                              c:/users/andy/.vscode/extensions/metalcode-eu.windows-arm-none-eabi-0.1.6/bin/../lib/gcc/arm-none-eabi/8.2.1/../../../../arm-none-eabi/lib/thumb/v7-m/nofp\libsupc++.a(eh_terminate.o) (__cxxabiv1::__unexpected_handler)
c:/users/andy/.vscode/extensions/metalcode-eu.windows-arm-none-eabi-0.1.6/bin/../lib/gcc/arm-none-eabi/8.2.1/../../../../arm-none-eabi/lib/thumb/v7-m/nofp\libsupc++.a(si_class_type_info.o)
                              c:/users/andy/.vscode/extensions/metalcode-eu.windows-arm-none-eabi-0.1.6/bin/../lib/gcc/arm-none-eabi/8.2.1/../../../../arm-none-eabi/lib/thumb/v7-m/nofp\libsupc++.a(class_type_info.o) (vtable for __cxxabiv1::__si_class_type_info)
c:/users/andy/.vscode/extensions/metalcode-eu.windows-arm-none-eabi-0.1.6/bin/../lib/gcc/arm-none-eabi/8.2.1/../../../../arm-none-eabi/lib/thumb/v7-m/nofp\libsupc++.a(tinfo.o)
                              c:/users/andy/.vscode/extensions/metalcode-eu.windows-arm-none-eabi-0.1.6/bin/../lib/gcc/arm-none-eabi/8.2.1/../../../../arm-none-eabi/lib/thumb/v7-m/nofp\libsupc++.a(class_type_info.o) (std::type_info::~type_info())
c:/users/andy/.vscode/extensions/metalcode-eu.windows-arm-none-eabi-0.1.6/bin/../lib/gcc/arm-none-eabi/8.2.1/../../../../arm-none-eabi/lib/thumb/v7-m/nofp\libsupc++.a(eh_call.o)
                              c:/users/andy/.vscode/extensions/metalcode-eu.windows-arm-none-eabi-0.1.6/bin/../lib/gcc/arm-none-eabi/8.2.1/../../../../arm-none-eabi/lib/thumb/v7-m/nofp\libsupc++.a(eh_personality.o) (__cxa_call_terminate)
./build/\libRRFLibraries.a(IP4String.o)
                              ./build/./RepRapFirmware/src/ObjectModel/ObjectModel.o (IP4String::IP4String(unsigned long))
./build/\libRRFLibraries.a(IPAddress.o)
                              ./build/./RepRapFirmware/src/GCodes/GCodeBuffer/BinaryParser.o (IPAddress::SetV4(unsigned char const*))
./build/\libRRFLibraries.a(NamedEnum.o)
                              ./build/./RepRapFirmware/src/GCodes/GCodeBuffer/ExpressionParser.o (NamedEnumLookup(char const*, char const* const*, unsigned int))
./build/\libRRFLibraries.a(NumericConverter.o)
                              ./build/./RepRapFirmware/src/GCodes/GCodeBuffer/ExpressionParser.o (NumericConverter::FitsInInt32() const)
./build/\libRRFLibraries.a(SafeStrtod.o)
                              ./build/./RepRapFirmware/src/GCodes/GCodes3.o (SafeStrtof(char const*, char const**))
./build/\libRRFLibraries.a(SafeVsnprintf.o)
                              ./build/\libRRFLibraries.a(IP4String.o) (SafeSnprintf(char*, unsigned int, char const*, ...))
./build/\libRRFLibraries.a(StringBuffer.o)
                              ./build/./RepRapFirmware/src/GCodes/GCodeBuffer/ExpressionParser.o (StringBuffer::Fix())
./build/\libRRFLibraries.a(StringFunctions.o)
                              ./build/./RepRapFirmware/src/GCodes/GCodes.o (StringEqualsIgnoreCase(char const*, char const*))
./build/\libRRFLibraries.a(StringRef.o)
                              ./build/./RepRapFirmware/src/OutputMemory.o (StringRef::strlen() const)
./build/\libRRFLibraries.a(Strnlen.o)
                              ./build/./RepRapFirmware/src/Heating/Sensors/ThermocoupleSensor31856.o (Strnlen(char const*, unsigned int))
./build/\libRRFLibraries.a(Deviation.o)
                              ./build/./RepRapFirmware/src/GCodes/GCodes4.o (Deviation::Deviation())
./build/\libRRFLibraries.a(DeviationAccumulator.o)
                              ./build/./RepRapFirmware/src/Heating/LocalHeater.o (DeviationAccumulator::DeviationAccumulator())
./build/\libRRFLibraries.a(Isqrt.o)
                              ./build/./RepRapFirmware/src/Platform.o (isqrt64(unsigned long long))
./build/\libRRFLibraries.a(RTOSIface.o)
                              ./build/./RepRapFirmware/src/Platform.o (Mutex::Create(char const*))
./build/\libLPCCore.a(wdt.o)  ./build/./RepRapFirmware/src/RepRap.o (WatchdogEnable)
./build/\libLPCCore.a(timer.o)
                              ./build/./RepRapFirmware/src/Movement/StepTimer.o (getPclk)
./build/\libLPCCore.a(Reset.o)
                              ./build/./RepRapFirmware/src/Hardware/ExceptionHandlers.o (Reset)
./build/\libLPCCore.a(WMath.o)
                              ./build/./RepRapFirmware/src/GCodes/GCodeBuffer/ExpressionParser.o (random(long))
./build/\libLPCCore.a(exti.o)
                              ./build/./RepRapFirmware/src/Hardware/IoPorts.o (attachInterrupt(gpioPins_et, void (*)(CallbackParameter) noexcept, InterruptMode, CallbackParameter))
./build/\libLPCCore.a(SerialUSB.o)
                              ./build/./RepRapFirmware/src/Platform.o (SerialUSB::write(unsigned char))
./build/\libLPCCore.a(wirish_time.o)
                              ./build/./RepRapFirmware/src/Hardware/SharedSpi/SharedSpiClient.o (delayMicroseconds)
./build/\libLPCCore.a(USBCDC.o)
                              ./build/\libLPCCore.a(SerialUSB.o) (USBCDC::send_nb(unsigned char*, unsigned long, unsigned long*, bool))
./build/\libLPCCore.a(USBSerial.o)
                              ./build/\libLPCCore.a(SerialUSB.o) (USBSerial::USBSerial(bool, unsigned short, unsigned short, unsigned short))
./build/\libLPCCore.a(ConfigurableUART.o)
                              ./build/./RepRapFirmware/src/GCodes/GCodes.o (ConfigurableUART::read())
./build/\libLPCCore.a(HardwareSPI.o)
                              ./build/./RepRapFirmware/src/Linux/DataTransfer.o (HardwareSPI::disable())
./build/\libLPCCore.a(SPI.o)  ./build/./RepRapFirmware/src/Hardware/SharedSpi/SharedSpiDevice.o (SPI::getSSPDevice(SSPChannel))
./build/\libLPCCore.a(Wire.o)
                              ./build/./RepRapFirmware/src/targets/LPC/MCP4461/MCP4461.o (TwoWire::begin(unsigned char))
./build/\libLPCCore.a(WireBase.o)
                              ./build/./RepRapFirmware/src/targets/LPC/MCP4461/MCP4461.o (WireBase::beginTransmission(unsigned char))
./build/\libLPCCore.a(queue.o)
                              ./build/\libRRFLibraries.a(RTOSIface.o) (xQueueGenericCreateStatic)
./build/\libLPCCore.a(delay.o)
                              ./build/\libLPCCore.a(wirish_time.o) (delay_us)
./build/\libLPCCore.a(iocon_17xx_40xx.o)
                              ./build/\libLPCCore.a(HardwareSPI.o) (Chip_IOCON_PinMux)
./build/\libLPCCore.a(ssp_17xx_40xx.o)
                              ./build/\libLPCCore.a(HardwareSPI.o) (Chip_SSP_SetBitRate)
./build/\libLPCCore.a(HardwareSerial.o)
                              ./build/\libLPCCore.a(ConfigurableUART.o) (HardwareSerial::begin(unsigned long))
./build/\libLPCCore.a(usart.o)
                              ./build/\libLPCCore.a(HardwareSerial.o) (usart_init)
./build/\libLPCCore.a(USBHAL_LPC17.o)
                              ./build/\libLPCCore.a(USBCDC.o) (get_usb_phy())
./build/\libLPCCore.a(EndpointResolver.o)
                              ./build/\libLPCCore.a(USBCDC.o) (EndpointResolver::EndpointResolver(usb_ep_table_t const*))
./build/\libLPCCore.a(USBDevice.o)
                              ./build/\libLPCCore.a(USBCDC.o) (USBDevice::out_packet(unsigned char))
./build/\libLPCCore.a(SoftwareSPI.o)
                              ./build/\libLPCCore.a(SPI.o) (SoftwareSPI::SWSSP0)
./build/\libLPCCore.a(ring_buffer.o)
                              ./build/\libLPCCore.a(HardwareSerial.o) (RingBuffer_Init)
./build/\libLPCCore.a(uart_17xx_40xx.o)
                              ./build/\libLPCCore.a(usart.o) (Chip_UART_TXEnable)
./build/\libLPCCore.a(mbed_critical.o)
                              ./build/\libLPCCore.a(USBDevice.o) (core_util_critical_section_enter)
c:/users/andy/.vscode/extensions/metalcode-eu.windows-arm-none-eabi-0.1.6/bin/../lib/gcc/arm-none-eabi/8.2.1/../../../../arm-none-eabi/lib/thumb/v7-m/nofp\libm.a(lib_a-s_llrint.o)
                              ./build/\libRRFLibraries.a(SafeVsnprintf.o) (llrint)
c:/users/andy/.vscode/extensions/metalcode-eu.windows-arm-none-eabi-0.1.6/bin/../lib/gcc/arm-none-eabi/8.2.1/../../../../arm-none-eabi/lib/thumb/v7-m/nofp\libm.a(lib_a-sf_atan.o)
                              ./build/./RepRapFirmware/src/GCodes/GCodes2.o (atanf)
c:/users/andy/.vscode/extensions/metalcode-eu.windows-arm-none-eabi-0.1.6/bin/../lib/gcc/arm-none-eabi/8.2.1/../../../../arm-none-eabi/lib/thumb/v7-m/nofp\libm.a(lib_a-sf_cos.o)
                              ./build/./RepRapFirmware/src/RepRap.o (cosf)
c:/users/andy/.vscode/extensions/metalcode-eu.windows-arm-none-eabi-0.1.6/bin/../lib/gcc/arm-none-eabi/8.2.1/../../../../arm-none-eabi/lib/thumb/v7-m/nofp\libm.a(lib_a-sf_fabs.o)
                              c:/users/andy/.vscode/extensions/metalcode-eu.windows-arm-none-eabi-0.1.6/bin/../lib/gcc/arm-none-eabi/8.2.1/../../../../arm-none-eabi/lib/thumb/v7-m/nofp\libm.a(lib_a-sf_atan.o) (fabsf)
c:/users/andy/.vscode/extensions/metalcode-eu.windows-arm-none-eabi-0.1.6/bin/../lib/gcc/arm-none-eabi/8.2.1/../../../../arm-none-eabi/lib/thumb/v7-m/nofp\libm.a(lib_a-sf_floor.o)
                              ./build/./RepRapFirmware/src/GCodes/GCodes.o (floorf)
c:/users/andy/.vscode/extensions/metalcode-eu.windows-arm-none-eabi-0.1.6/bin/../lib/gcc/arm-none-eabi/8.2.1/../../../../arm-none-eabi/lib/thumb/v7-m/nofp\libm.a(lib_a-sf_lrint.o)
                              ./build/./RepRapFirmware/src/Platform.o (lrintf)
c:/users/andy/.vscode/extensions/metalcode-eu.windows-arm-none-eabi-0.1.6/bin/../lib/gcc/arm-none-eabi/8.2.1/../../../../arm-none-eabi/lib/thumb/v7-m/nofp\libm.a(lib_a-sf_round.o)
                              ./build/./RepRapFirmware/src/RepRap.o (roundf)
c:/users/andy/.vscode/extensions/metalcode-eu.windows-arm-none-eabi-0.1.6/bin/../lib/gcc/arm-none-eabi/8.2.1/../../../../arm-none-eabi/lib/thumb/v7-m/nofp\libm.a(lib_a-sf_sin.o)
                              ./build/./RepRapFirmware/src/RepRap.o (sinf)
c:/users/andy/.vscode/extensions/metalcode-eu.windows-arm-none-eabi-0.1.6/bin/../lib/gcc/arm-none-eabi/8.2.1/../../../../arm-none-eabi/lib/thumb/v7-m/nofp\libm.a(lib_a-sf_tan.o)
                              ./build/./RepRapFirmware/src/GCodes/GCodeBuffer/ExpressionParser.o (tanf)
c:/users/andy/.vscode/extensions/metalcode-eu.windows-arm-none-eabi-0.1.6/bin/../lib/gcc/arm-none-eabi/8.2.1/../../../../arm-none-eabi/lib/thumb/v7-m/nofp\libm.a(lib_a-w_pow.o)
                              ./build/\libRRFLibraries.a(NumericConverter.o) (pow)
c:/users/andy/.vscode/extensions/metalcode-eu.windows-arm-none-eabi-0.1.6/bin/../lib/gcc/arm-none-eabi/8.2.1/../../../../arm-none-eabi/lib/thumb/v7-m/nofp\libm.a(lib_a-wf_acos.o)
                              ./build/./RepRapFirmware/src/GCodes/GCodeBuffer/ExpressionParser.o (acosf)
c:/users/andy/.vscode/extensions/metalcode-eu.windows-arm-none-eabi-0.1.6/bin/../lib/gcc/arm-none-eabi/8.2.1/../../../../arm-none-eabi/lib/thumb/v7-m/nofp\libm.a(lib_a-wf_asin.o)
                              ./build/./RepRapFirmware/src/GCodes/GCodeBuffer/ExpressionParser.o (asinf)
c:/users/andy/.vscode/extensions/metalcode-eu.windows-arm-none-eabi-0.1.6/bin/../lib/gcc/arm-none-eabi/8.2.1/../../../../arm-none-eabi/lib/thumb/v7-m/nofp\libm.a(lib_a-wf_atan2.o)
                              ./build/./RepRapFirmware/src/GCodes/GCodes.o (atan2f)
c:/users/andy/.vscode/extensions/metalcode-eu.windows-arm-none-eabi-0.1.6/bin/../lib/gcc/arm-none-eabi/8.2.1/../../../../arm-none-eabi/lib/thumb/v7-m/nofp\libm.a(lib_a-wf_fmod.o)
                              ./build/./RepRapFirmware/src/GCodes/GCodeBuffer/ExpressionParser.o (fmodf)
c:/users/andy/.vscode/extensions/metalcode-eu.windows-arm-none-eabi-0.1.6/bin/../lib/gcc/arm-none-eabi/8.2.1/../../../../arm-none-eabi/lib/thumb/v7-m/nofp\libm.a(lib_a-wf_log.o)
                              ./build/./RepRapFirmware/src/Heating/Sensors/Thermistor.o (logf)
c:/users/andy/.vscode/extensions/metalcode-eu.windows-arm-none-eabi-0.1.6/bin/../lib/gcc/arm-none-eabi/8.2.1/../../../../arm-none-eabi/lib/thumb/v7-m/nofp\libm.a(lib_a-wf_pow.o)
                              ./build/./RepRapFirmware/src/Heating/FOPDT.o (powf)
c:/users/andy/.vscode/extensions/metalcode-eu.windows-arm-none-eabi-0.1.6/bin/../lib/gcc/arm-none-eabi/8.2.1/../../../../arm-none-eabi/lib/thumb/v7-m/nofp\libm.a(lib_a-wf_sqrt.o)
                              ./build/./RepRapFirmware/src/GCodes/GCodes.o (sqrtf)
c:/users/andy/.vscode/extensions/metalcode-eu.windows-arm-none-eabi-0.1.6/bin/../lib/gcc/arm-none-eabi/8.2.1/../../../../arm-none-eabi/lib/thumb/v7-m/nofp\libm.a(lib_a-e_pow.o)
                              c:/users/andy/.vscode/extensions/metalcode-eu.windows-arm-none-eabi-0.1.6/bin/../lib/gcc/arm-none-eabi/8.2.1/../../../../arm-none-eabi/lib/thumb/v7-m/nofp\libm.a(lib_a-w_pow.o) (__ieee754_pow)
c:/users/andy/.vscode/extensions/metalcode-eu.windows-arm-none-eabi-0.1.6/bin/../lib/gcc/arm-none-eabi/8.2.1/../../../../arm-none-eabi/lib/thumb/v7-m/nofp\libm.a(lib_a-e_sqrt.o)
                              c:/users/andy/.vscode/extensions/metalcode-eu.windows-arm-none-eabi-0.1.6/bin/../lib/gcc/arm-none-eabi/8.2.1/../../../../arm-none-eabi/lib/thumb/v7-m/nofp\libm.a(lib_a-e_pow.o) (__ieee754_sqrt)
c:/users/andy/.vscode/extensions/metalcode-eu.windows-arm-none-eabi-0.1.6/bin/../lib/gcc/arm-none-eabi/8.2.1/../../../../arm-none-eabi/lib/thumb/v7-m/nofp\libm.a(lib_a-ef_acos.o)
                              c:/users/andy/.vscode/extensions/metalcode-eu.windows-arm-none-eabi-0.1.6/bin/../lib/gcc/arm-none-eabi/8.2.1/../../../../arm-none-eabi/lib/thumb/v7-m/nofp\libm.a(lib_a-wf_acos.o) (__ieee754_acosf)
c:/users/andy/.vscode/extensions/metalcode-eu.windows-arm-none-eabi-0.1.6/bin/../lib/gcc/arm-none-eabi/8.2.1/../../../../arm-none-eabi/lib/thumb/v7-m/nofp\libm.a(lib_a-ef_asin.o)
                              c:/users/andy/.vscode/extensions/metalcode-eu.windows-arm-none-eabi-0.1.6/bin/../lib/gcc/arm-none-eabi/8.2.1/../../../../arm-none-eabi/lib/thumb/v7-m/nofp\libm.a(lib_a-wf_asin.o) (__ieee754_asinf)
c:/users/andy/.vscode/extensions/metalcode-eu.windows-arm-none-eabi-0.1.6/bin/../lib/gcc/arm-none-eabi/8.2.1/../../../../arm-none-eabi/lib/thumb/v7-m/nofp\libm.a(lib_a-ef_atan2.o)
                              c:/users/andy/.vscode/extensions/metalcode-eu.windows-arm-none-eabi-0.1.6/bin/../lib/gcc/arm-none-eabi/8.2.1/../../../../arm-none-eabi/lib/thumb/v7-m/nofp\libm.a(lib_a-wf_atan2.o) (__ieee754_atan2f)
c:/users/andy/.vscode/extensions/metalcode-eu.windows-arm-none-eabi-0.1.6/bin/../lib/gcc/arm-none-eabi/8.2.1/../../../../arm-none-eabi/lib/thumb/v7-m/nofp\libm.a(lib_a-ef_fmod.o)
                              c:/users/andy/.vscode/extensions/metalcode-eu.windows-arm-none-eabi-0.1.6/bin/../lib/gcc/arm-none-eabi/8.2.1/../../../../arm-none-eabi/lib/thumb/v7-m/nofp\libm.a(lib_a-wf_fmod.o) (__ieee754_fmodf)
c:/users/andy/.vscode/extensions/metalcode-eu.windows-arm-none-eabi-0.1.6/bin/../lib/gcc/arm-none-eabi/8.2.1/../../../../arm-none-eabi/lib/thumb/v7-m/nofp\libm.a(lib_a-ef_log.o)
                              c:/users/andy/.vscode/extensions/metalcode-eu.windows-arm-none-eabi-0.1.6/bin/../lib/gcc/arm-none-eabi/8.2.1/../../../../arm-none-eabi/lib/thumb/v7-m/nofp\libm.a(lib_a-wf_log.o) (__ieee754_logf)
c:/users/andy/.vscode/extensions/metalcode-eu.windows-arm-none-eabi-0.1.6/bin/../lib/gcc/arm-none-eabi/8.2.1/../../../../arm-none-eabi/lib/thumb/v7-m/nofp\libm.a(lib_a-ef_pow.o)
                              c:/users/andy/.vscode/extensions/metalcode-eu.windows-arm-none-eabi-0.1.6/bin/../lib/gcc/arm-none-eabi/8.2.1/../../../../arm-none-eabi/lib/thumb/v7-m/nofp\libm.a(lib_a-wf_pow.o) (__ieee754_powf)
c:/users/andy/.vscode/extensions/metalcode-eu.windows-arm-none-eabi-0.1.6/bin/../lib/gcc/arm-none-eabi/8.2.1/../../../../arm-none-eabi/lib/thumb/v7-m/nofp\libm.a(lib_a-ef_rem_pio2.o)
                              c:/users/andy/.vscode/extensions/metalcode-eu.windows-arm-none-eabi-0.1.6/bin/../lib/gcc/arm-none-eabi/8.2.1/../../../../arm-none-eabi/lib/thumb/v7-m/nofp\libm.a(lib_a-sf_cos.o) (__ieee754_rem_pio2f)
c:/users/andy/.vscode/extensions/metalcode-eu.windows-arm-none-eabi-0.1.6/bin/../lib/gcc/arm-none-eabi/8.2.1/../../../../arm-none-eabi/lib/thumb/v7-m/nofp\libm.a(lib_a-ef_sqrt.o)
                              c:/users/andy/.vscode/extensions/metalcode-eu.windows-arm-none-eabi-0.1.6/bin/../lib/gcc/arm-none-eabi/8.2.1/../../../../arm-none-eabi/lib/thumb/v7-m/nofp\libm.a(lib_a-wf_sqrt.o) (__ieee754_sqrtf)
c:/users/andy/.vscode/extensions/metalcode-eu.windows-arm-none-eabi-0.1.6/bin/../lib/gcc/arm-none-eabi/8.2.1/../../../../arm-none-eabi/lib/thumb/v7-m/nofp\libm.a(lib_a-kf_cos.o)
                              c:/users/andy/.vscode/extensions/metalcode-eu.windows-arm-none-eabi-0.1.6/bin/../lib/gcc/arm-none-eabi/8.2.1/../../../../arm-none-eabi/lib/thumb/v7-m/nofp\libm.a(lib_a-sf_cos.o) (__kernel_cosf)
c:/users/andy/.vscode/extensions/metalcode-eu.windows-arm-none-eabi-0.1.6/bin/../lib/gcc/arm-none-eabi/8.2.1/../../../../arm-none-eabi/lib/thumb/v7-m/nofp\libm.a(lib_a-kf_rem_pio2.o)
                              c:/users/andy/.vscode/extensions/metalcode-eu.windows-arm-none-eabi-0.1.6/bin/../lib/gcc/arm-none-eabi/8.2.1/../../../../arm-none-eabi/lib/thumb/v7-m/nofp\libm.a(lib_a-ef_rem_pio2.o) (__kernel_rem_pio2f)
c:/users/andy/.vscode/extensions/metalcode-eu.windows-arm-none-eabi-0.1.6/bin/../lib/gcc/arm-none-eabi/8.2.1/../../../../arm-none-eabi/lib/thumb/v7-m/nofp\libm.a(lib_a-kf_sin.o)
                              c:/users/andy/.vscode/extensions/metalcode-eu.windows-arm-none-eabi-0.1.6/bin/../lib/gcc/arm-none-eabi/8.2.1/../../../../arm-none-eabi/lib/thumb/v7-m/nofp\libm.a(lib_a-sf_cos.o) (__kernel_sinf)
c:/users/andy/.vscode/extensions/metalcode-eu.windows-arm-none-eabi-0.1.6/bin/../lib/gcc/arm-none-eabi/8.2.1/../../../../arm-none-eabi/lib/thumb/v7-m/nofp\libm.a(lib_a-kf_tan.o)
                              c:/users/andy/.vscode/extensions/metalcode-eu.windows-arm-none-eabi-0.1.6/bin/../lib/gcc/arm-none-eabi/8.2.1/../../../../arm-none-eabi/lib/thumb/v7-m/nofp\libm.a(lib_a-sf_tan.o) (__kernel_tanf)
c:/users/andy/.vscode/extensions/metalcode-eu.windows-arm-none-eabi-0.1.6/bin/../lib/gcc/arm-none-eabi/8.2.1/../../../../arm-none-eabi/lib/thumb/v7-m/nofp\libm.a(lib_a-s_fabs.o)
                              c:/users/andy/.vscode/extensions/metalcode-eu.windows-arm-none-eabi-0.1.6/bin/../lib/gcc/arm-none-eabi/8.2.1/../../../../arm-none-eabi/lib/thumb/v7-m/nofp\libm.a(lib_a-e_pow.o) (fabs)
c:/users/andy/.vscode/extensions/metalcode-eu.windows-arm-none-eabi-0.1.6/bin/../lib/gcc/arm-none-eabi/8.2.1/../../../../arm-none-eabi/lib/thumb/v7-m/nofp\libm.a(lib_a-s_finite.o)
                              c:/users/andy/.vscode/extensions/metalcode-eu.windows-arm-none-eabi-0.1.6/bin/../lib/gcc/arm-none-eabi/8.2.1/../../../../arm-none-eabi/lib/thumb/v7-m/nofp\libm.a(lib_a-w_pow.o) (finite)
c:/users/andy/.vscode/extensions/metalcode-eu.windows-arm-none-eabi-0.1.6/bin/../lib/gcc/arm-none-eabi/8.2.1/../../../../arm-none-eabi/lib/thumb/v7-m/nofp\libm.a(lib_a-s_lib_ver.o)
                              c:/users/andy/.vscode/extensions/metalcode-eu.windows-arm-none-eabi-0.1.6/bin/../lib/gcc/arm-none-eabi/8.2.1/../../../../arm-none-eabi/lib/thumb/v7-m/nofp\libm.a(lib_a-w_pow.o) (__fdlib_version)
c:/users/andy/.vscode/extensions/metalcode-eu.windows-arm-none-eabi-0.1.6/bin/../lib/gcc/arm-none-eabi/8.2.1/../../../../arm-none-eabi/lib/thumb/v7-m/nofp\libm.a(lib_a-s_matherr.o)
                              c:/users/andy/.vscode/extensions/metalcode-eu.windows-arm-none-eabi-0.1.6/bin/../lib/gcc/arm-none-eabi/8.2.1/../../../../arm-none-eabi/lib/thumb/v7-m/nofp\libm.a(lib_a-w_pow.o) (matherr)
c:/users/andy/.vscode/extensions/metalcode-eu.windows-arm-none-eabi-0.1.6/bin/../lib/gcc/arm-none-eabi/8.2.1/../../../../arm-none-eabi/lib/thumb/v7-m/nofp\libm.a(lib_a-s_nan.o)
                              c:/users/andy/.vscode/extensions/metalcode-eu.windows-arm-none-eabi-0.1.6/bin/../lib/gcc/arm-none-eabi/8.2.1/../../../../arm-none-eabi/lib/thumb/v7-m/nofp\libm.a(lib_a-wf_acos.o) (nan)
c:/users/andy/.vscode/extensions/metalcode-eu.windows-arm-none-eabi-0.1.6/bin/../lib/gcc/arm-none-eabi/8.2.1/../../../../arm-none-eabi/lib/thumb/v7-m/nofp\libm.a(lib_a-s_rint.o)
                              c:/users/andy/.vscode/extensions/metalcode-eu.windows-arm-none-eabi-0.1.6/bin/../lib/gcc/arm-none-eabi/8.2.1/../../../../arm-none-eabi/lib/thumb/v7-m/nofp\libm.a(lib_a-w_pow.o) (rint)
c:/users/andy/.vscode/extensions/metalcode-eu.windows-arm-none-eabi-0.1.6/bin/../lib/gcc/arm-none-eabi/8.2.1/../../../../arm-none-eabi/lib/thumb/v7-m/nofp\libm.a(lib_a-s_scalbn.o)
                              c:/users/andy/.vscode/extensions/metalcode-eu.windows-arm-none-eabi-0.1.6/bin/../lib/gcc/arm-none-eabi/8.2.1/../../../../arm-none-eabi/lib/thumb/v7-m/nofp\libm.a(lib_a-e_pow.o) (scalbn)
c:/users/andy/.vscode/extensions/metalcode-eu.windows-arm-none-eabi-0.1.6/bin/../lib/gcc/arm-none-eabi/8.2.1/../../../../arm-none-eabi/lib/thumb/v7-m/nofp\libm.a(lib_a-sf_finite.o)
                              c:/users/andy/.vscode/extensions/metalcode-eu.windows-arm-none-eabi-0.1.6/bin/../lib/gcc/arm-none-eabi/8.2.1/../../../../arm-none-eabi/lib/thumb/v7-m/nofp\libm.a(lib_a-wf_pow.o) (finitef)
c:/users/andy/.vscode/extensions/metalcode-eu.windows-arm-none-eabi-0.1.6/bin/../lib/gcc/arm-none-eabi/8.2.1/../../../../arm-none-eabi/lib/thumb/v7-m/nofp\libm.a(lib_a-sf_nan.o)
                              c:/users/andy/.vscode/extensions/metalcode-eu.windows-arm-none-eabi-0.1.6/bin/../lib/gcc/arm-none-eabi/8.2.1/../../../../arm-none-eabi/lib/thumb/v7-m/nofp\libm.a(lib_a-ef_pow.o) (nanf)
c:/users/andy/.vscode/extensions/metalcode-eu.windows-arm-none-eabi-0.1.6/bin/../lib/gcc/arm-none-eabi/8.2.1/../../../../arm-none-eabi/lib/thumb/v7-m/nofp\libm.a(lib_a-sf_rint.o)
                              c:/users/andy/.vscode/extensions/metalcode-eu.windows-arm-none-eabi-0.1.6/bin/../lib/gcc/arm-none-eabi/8.2.1/../../../../arm-none-eabi/lib/thumb/v7-m/nofp\libm.a(lib_a-wf_pow.o) (rintf)
c:/users/andy/.vscode/extensions/metalcode-eu.windows-arm-none-eabi-0.1.6/bin/../lib/gcc/arm-none-eabi/8.2.1/../../../../arm-none-eabi/lib/thumb/v7-m/nofp\libm.a(lib_a-sf_scalbn.o)
                              c:/users/andy/.vscode/extensions/metalcode-eu.windows-arm-none-eabi-0.1.6/bin/../lib/gcc/arm-none-eabi/8.2.1/../../../../arm-none-eabi/lib/thumb/v7-m/nofp\libm.a(lib_a-ef_pow.o) (scalbnf)
c:/users/andy/.vscode/extensions/metalcode-eu.windows-arm-none-eabi-0.1.6/bin/../lib/gcc/arm-none-eabi/8.2.1/thumb/v7-m/nofp\libgcc.a(_arm_addsubdf3.o)
                              c:/users/andy/.vscode/extensions/metalcode-eu.windows-arm-none-eabi-0.1.6/bin/../lib/gcc/arm-none-eabi/8.2.1/../../../../arm-none-eabi/lib/thumb/v7-m/nofp\libm.a(lib_a-s_llrint.o) (__aeabi_dsub)
c:/users/andy/.vscode/extensions/metalcode-eu.windows-arm-none-eabi-0.1.6/bin/../lib/gcc/arm-none-eabi/8.2.1/thumb/v7-m/nofp\libgcc.a(_arm_muldivdf3.o)
                              ./build/./RepRapFirmware/src/Movement/DriveMovement.o (__aeabi_dmul)
c:/users/andy/.vscode/extensions/metalcode-eu.windows-arm-none-eabi-0.1.6/bin/../lib/gcc/arm-none-eabi/8.2.1/thumb/v7-m/nofp\libgcc.a(_arm_cmpdf2.o)
                              ./build/\libRRFLibraries.a(SafeVsnprintf.o) (__aeabi_dcmpeq)
c:/users/andy/.vscode/extensions/metalcode-eu.windows-arm-none-eabi-0.1.6/bin/../lib/gcc/arm-none-eabi/8.2.1/thumb/v7-m/nofp\libgcc.a(_arm_unorddf2.o)
                              ./build/\libRRFLibraries.a(SafeVsnprintf.o) (__aeabi_dcmpun)
c:/users/andy/.vscode/extensions/metalcode-eu.windows-arm-none-eabi-0.1.6/bin/../lib/gcc/arm-none-eabi/8.2.1/thumb/v7-m/nofp\libgcc.a(_arm_truncdfsf2.o)
                              ./build/./RepRapFirmware/src/Movement/BedProbing/Grid.o (__aeabi_d2f)
c:/users/andy/.vscode/extensions/metalcode-eu.windows-arm-none-eabi-0.1.6/bin/../lib/gcc/arm-none-eabi/8.2.1/thumb/v7-m/nofp\libgcc.a(_arm_addsubsf3.o)
                              ./build/./RepRapFirmware/src/PrintMonitor.o (__aeabi_fsub)
c:/users/andy/.vscode/extensions/metalcode-eu.windows-arm-none-eabi-0.1.6/bin/../lib/gcc/arm-none-eabi/8.2.1/thumb/v7-m/nofp\libgcc.a(_arm_muldivsf3.o)
                              ./build/\libLPCCore.a(AnalogOutServo.o) (__aeabi_fmul)
c:/users/andy/.vscode/extensions/metalcode-eu.windows-arm-none-eabi-0.1.6/bin/../lib/gcc/arm-none-eabi/8.2.1/thumb/v7-m/nofp\libgcc.a(_arm_cmpsf2.o)
                              ./build/./RepRapFirmware/src/Platform.o (__aeabi_fcmpeq)
c:/users/andy/.vscode/extensions/metalcode-eu.windows-arm-none-eabi-0.1.6/bin/../lib/gcc/arm-none-eabi/8.2.1/thumb/v7-m/nofp\libgcc.a(_arm_unordsf2.o)
                              ./build/\libLPCCore.a(AnalogOut.o) (__aeabi_fcmpun)
c:/users/andy/.vscode/extensions/metalcode-eu.windows-arm-none-eabi-0.1.6/bin/../lib/gcc/arm-none-eabi/8.2.1/thumb/v7-m/nofp\libgcc.a(_arm_fixsfsi.o)
                              ./build/./RepRapFirmware/src/RepRap.o (__aeabi_f2iz)
c:/users/andy/.vscode/extensions/metalcode-eu.windows-arm-none-eabi-0.1.6/bin/../lib/gcc/arm-none-eabi/8.2.1/thumb/v7-m/nofp\libgcc.a(_arm_fixunssfsi.o)
                              ./build/\libLPCCore.a(AnalogOutServo.o) (__aeabi_f2uiz)
c:/users/andy/.vscode/extensions/metalcode-eu.windows-arm-none-eabi-0.1.6/bin/../lib/gcc/arm-none-eabi/8.2.1/thumb/v7-m/nofp\libgcc.a(_aeabi_ldivmod.o)
                              ./build/./RepRapFirmware/src/targets/common/Fans/DotStarLed.o (__aeabi_ldivmod)
c:/users/andy/.vscode/extensions/metalcode-eu.windows-arm-none-eabi-0.1.6/bin/../lib/gcc/arm-none-eabi/8.2.1/thumb/v7-m/nofp\libgcc.a(_aeabi_uldivmod.o)
                              ./build/./RepRapFirmware/src/Platform.o (__aeabi_uldivmod)
c:/users/andy/.vscode/extensions/metalcode-eu.windows-arm-none-eabi-0.1.6/bin/../lib/gcc/arm-none-eabi/8.2.1/thumb/v7-m/nofp\libgcc.a(_ctzdi2.o)
                              ./build/./RepRapFirmware/src/ObjectModel/ObjectModel.o (__ctzdi2)
c:/users/andy/.vscode/extensions/metalcode-eu.windows-arm-none-eabi-0.1.6/bin/../lib/gcc/arm-none-eabi/8.2.1/thumb/v7-m/nofp\libgcc.a(_fixsfdi.o)
                              ./build/./RepRapFirmware/src/Movement/DriveMovement.o (__aeabi_f2lz)
c:/users/andy/.vscode/extensions/metalcode-eu.windows-arm-none-eabi-0.1.6/bin/../lib/gcc/arm-none-eabi/8.2.1/thumb/v7-m/nofp\libgcc.a(_fixdfdi.o)
                              c:/users/andy/.vscode/extensions/metalcode-eu.windows-arm-none-eabi-0.1.6/bin/../lib/gcc/arm-none-eabi/8.2.1/../../../../arm-none-eabi/lib/thumb/v7-m/nofp\libm.a(lib_a-s_llrint.o) (__aeabi_d2lz)
c:/users/andy/.vscode/extensions/metalcode-eu.windows-arm-none-eabi-0.1.6/bin/../lib/gcc/arm-none-eabi/8.2.1/thumb/v7-m/nofp\libgcc.a(_fixunssfdi.o)
                              ./build/./RepRapFirmware/src/Movement/DriveMovement.o (__aeabi_f2ulz)
c:/users/andy/.vscode/extensions/metalcode-eu.windows-arm-none-eabi-0.1.6/bin/../lib/gcc/arm-none-eabi/8.2.1/thumb/v7-m/nofp\libgcc.a(_fixunsdfdi.o)
                              ./build/./RepRapFirmware/src/Movement/DriveMovement.o (__aeabi_d2ulz)
c:/users/andy/.vscode/extensions/metalcode-eu.windows-arm-none-eabi-0.1.6/bin/../lib/gcc/arm-none-eabi/8.2.1/thumb/v7-m/nofp\libgcc.a(_udivmoddi4.o)
                              c:/users/andy/.vscode/extensions/metalcode-eu.windows-arm-none-eabi-0.1.6/bin/../lib/gcc/arm-none-eabi/8.2.1/thumb/v7-m/nofp\libgcc.a(_aeabi_ldivmod.o) (__udivmoddi4)
c:/users/andy/.vscode/extensions/metalcode-eu.windows-arm-none-eabi-0.1.6/bin/../lib/gcc/arm-none-eabi/8.2.1/thumb/v7-m/nofp\libgcc.a(unwind-arm.o)
                              ./build/./RepRapFirmware/src/Platform.o (__aeabi_unwind_cpp_pr0)
c:/users/andy/.vscode/extensions/metalcode-eu.windows-arm-none-eabi-0.1.6/bin/../lib/gcc/arm-none-eabi/8.2.1/thumb/v7-m/nofp\libgcc.a(libunwind.o)
                              c:/users/andy/.vscode/extensions/metalcode-eu.windows-arm-none-eabi-0.1.6/bin/../lib/gcc/arm-none-eabi/8.2.1/thumb/v7-m/nofp\libgcc.a(unwind-arm.o) (restore_core_regs)
c:/users/andy/.vscode/extensions/metalcode-eu.windows-arm-none-eabi-0.1.6/bin/../lib/gcc/arm-none-eabi/8.2.1/thumb/v7-m/nofp\libgcc.a(pr-support.o)
                              c:/users/andy/.vscode/extensions/metalcode-eu.windows-arm-none-eabi-0.1.6/bin/../lib/gcc/arm-none-eabi/8.2.1/thumb/v7-m/nofp\libgcc.a(unwind-arm.o) (__gnu_unwind_execute)
c:/users/andy/.vscode/extensions/metalcode-eu.windows-arm-none-eabi-0.1.6/bin/../lib/gcc/arm-none-eabi/8.2.1/thumb/v7-m/nofp\libgcc.a(_dvmd_tls.o)
                              c:/users/andy/.vscode/extensions/metalcode-eu.windows-arm-none-eabi-0.1.6/bin/../lib/gcc/arm-none-eabi/8.2.1/thumb/v7-m/nofp\libgcc.a(_aeabi_ldivmod.o) (__aeabi_ldiv0)
c:/users/andy/.vscode/extensions/metalcode-eu.windows-arm-none-eabi-0.1.6/bin/../lib/gcc/arm-none-eabi/8.2.1/thumb/v7-m/nofp\libgcc.a(_arm_fixunsdfsi.o)
                              c:/users/andy/.vscode/extensions/metalcode-eu.windows-arm-none-eabi-0.1.6/bin/../lib/gcc/arm-none-eabi/8.2.1/thumb/v7-m/nofp\libgcc.a(_fixunssfdi.o) (__aeabi_d2uiz)
c:/users/andy/.vscode/extensions/metalcode-eu.windows-arm-none-eabi-0.1.6/bin/../lib/gcc/arm-none-eabi/8.2.1/../../../../arm-none-eabi/lib/thumb/v7-m/nofp\libc.a(lib_a-abort.o)
                              ./build/./RepRapFirmware/src/libcpp/vterminate.o (abort)
c:/users/andy/.vscode/extensions/metalcode-eu.windows-arm-none-eabi-0.1.6/bin/../lib/gcc/arm-none-eabi/8.2.1/../../../../arm-none-eabi/lib/thumb/v7-m/nofp\libc.a(lib_a-cxa_atexit.o)
                              c:/users/andy/.vscode/extensions/metalcode-eu.windows-arm-none-eabi-0.1.6/bin/../lib/gcc/arm-none-eabi/8.2.1/../../../../arm-none-eabi/lib/thumb/v7-m/nofp\libsupc++.a(atexit_arm.o) (__cxa_atexit)
c:/users/andy/.vscode/extensions/metalcode-eu.windows-arm-none-eabi-0.1.6/bin/../lib/gcc/arm-none-eabi/8.2.1/../../../../arm-none-eabi/lib/thumb/v7-m/nofp\libc.a(lib_a-errno.o)
                              ./build/./RepRapFirmware/src/libc/nano-mallocr.o (__errno)
c:/users/andy/.vscode/extensions/metalcode-eu.windows-arm-none-eabi-0.1.6/bin/../lib/gcc/arm-none-eabi/8.2.1/../../../../arm-none-eabi/lib/thumb/v7-m/nofp\libc.a(lib_a-exit.o)
                              c:/users/andy/.vscode/extensions/metalcode-eu.windows-arm-none-eabi-0.1.6/bin/../lib/gcc/arm-none-eabi/8.2.1/../../../../arm-none-eabi/lib/thumb/v7-m/nofp/crt0.o (exit)
c:/users/andy/.vscode/extensions/metalcode-eu.windows-arm-none-eabi-0.1.6/bin/../lib/gcc/arm-none-eabi/8.2.1/../../../../arm-none-eabi/lib/thumb/v7-m/nofp\libc.a(lib_a-gmtime_r.o)
                              ./build/./RepRapFirmware/src/Platform.o (gmtime_r)
c:/users/andy/.vscode/extensions/metalcode-eu.windows-arm-none-eabi-0.1.6/bin/../lib/gcc/arm-none-eabi/8.2.1/../../../../arm-none-eabi/lib/thumb/v7-m/nofp\libc.a(lib_a-impure.o)
                              c:/users/andy/.vscode/extensions/metalcode-eu.windows-arm-none-eabi-0.1.6/bin/../lib/gcc/arm-none-eabi/8.2.1/../../../../arm-none-eabi/lib/thumb/v7-m/nofp\libc.a(lib_a-exit.o) (_global_impure_ptr)
c:/users/andy/.vscode/extensions/metalcode-eu.windows-arm-none-eabi-0.1.6/bin/../lib/gcc/arm-none-eabi/8.2.1/../../../../arm-none-eabi/lib/thumb/v7-m/nofp\libc.a(lib_a-init.o)
                              c:/users/andy/.vscode/extensions/metalcode-eu.windows-arm-none-eabi-0.1.6/bin/../lib/gcc/arm-none-eabi/8.2.1/../../../../arm-none-eabi/lib/thumb/v7-m/nofp/crt0.o (__libc_init_array)
c:/users/andy/.vscode/extensions/metalcode-eu.windows-arm-none-eabi-0.1.6/bin/../lib/gcc/arm-none-eabi/8.2.1/../../../../arm-none-eabi/lib/thumb/v7-m/nofp\libc.a(lib_a-isalpha.o)
                              ./build/./RepRapFirmware/src/GCodes/GCodeBuffer/ExpressionParser.o (isalpha)
c:/users/andy/.vscode/extensions/metalcode-eu.windows-arm-none-eabi-0.1.6/bin/../lib/gcc/arm-none-eabi/8.2.1/../../../../arm-none-eabi/lib/thumb/v7-m/nofp\libc.a(lib_a-isspace.o)
                              ./build/./RepRapFirmware/src/libc/strptime.o (isspace)
c:/users/andy/.vscode/extensions/metalcode-eu.windows-arm-none-eabi-0.1.6/bin/../lib/gcc/arm-none-eabi/8.2.1/../../../../arm-none-eabi/lib/thumb/v7-m/nofp\libc.a(lib_a-isxdigit.o)
                              ./build/\libRRFLibraries.a(NumericConverter.o) (isxdigit)
c:/users/andy/.vscode/extensions/metalcode-eu.windows-arm-none-eabi-0.1.6/bin/../lib/gcc/arm-none-eabi/8.2.1/../../../../arm-none-eabi/lib/thumb/v7-m/nofp\libc.a(lib_a-lldiv.o)
                              ./build/\libRRFLibraries.a(SafeVsnprintf.o) (lldiv)
c:/users/andy/.vscode/extensions/metalcode-eu.windows-arm-none-eabi-0.1.6/bin/../lib/gcc/arm-none-eabi/8.2.1/../../../../arm-none-eabi/lib/thumb/v7-m/nofp\libc.a(lib_a-mktime.o)
                              ./build/./RepRapFirmware/src/GCodes/GCodes3.o (mktime)
c:/users/andy/.vscode/extensions/metalcode-eu.windows-arm-none-eabi-0.1.6/bin/../lib/gcc/arm-none-eabi/8.2.1/../../../../arm-none-eabi/lib/thumb/v7-m/nofp\libc.a(lib_a-rand.o)
                              ./build/\libLPCCore.a(WMath.o) (srand)
c:/users/andy/.vscode/extensions/metalcode-eu.windows-arm-none-eabi-0.1.6/bin/../lib/gcc/arm-none-eabi/8.2.1/../../../../arm-none-eabi/lib/thumb/v7-m/nofp\libc.a(lib_a-signal.o)
                              c:/users/andy/.vscode/extensions/metalcode-eu.windows-arm-none-eabi-0.1.6/bin/../lib/gcc/arm-none-eabi/8.2.1/../../../../arm-none-eabi/lib/thumb/v7-m/nofp\libc.a(lib_a-abort.o) (raise)
c:/users/andy/.vscode/extensions/metalcode-eu.windows-arm-none-eabi-0.1.6/bin/../lib/gcc/arm-none-eabi/8.2.1/../../../../arm-none-eabi/lib/thumb/v7-m/nofp\libc.a(lib_a-signalr.o)
                              c:/users/andy/.vscode/extensions/metalcode-eu.windows-arm-none-eabi-0.1.6/bin/../lib/gcc/arm-none-eabi/8.2.1/../../../../arm-none-eabi/lib/thumb/v7-m/nofp\libc.a(lib_a-signal.o) (_kill_r)
c:/users/andy/.vscode/extensions/metalcode-eu.windows-arm-none-eabi-0.1.6/bin/../lib/gcc/arm-none-eabi/8.2.1/../../../../arm-none-eabi/lib/thumb/v7-m/nofp\libc.a(lib_a-strchr.o)
                              ./build/./RepRapFirmware/src/GCodes/GCodes.o (strchr)
c:/users/andy/.vscode/extensions/metalcode-eu.windows-arm-none-eabi-0.1.6/bin/../lib/gcc/arm-none-eabi/8.2.1/../../../../arm-none-eabi/lib/thumb/v7-m/nofp\libc.a(lib_a-strcmp.o)
                              ./build/./RepRapFirmware/src/GCodes/GCodes2.o (strcmp)
c:/users/andy/.vscode/extensions/metalcode-eu.windows-arm-none-eabi-0.1.6/bin/../lib/gcc/arm-none-eabi/8.2.1/../../../../arm-none-eabi/lib/thumb/v7-m/nofp\libc.a(lib_a-strcpy.o)
                              ./build/./RepRapFirmware/src/Heating/Sensors/TemperatureSensor.o (strcpy)
c:/users/andy/.vscode/extensions/metalcode-eu.windows-arm-none-eabi-0.1.6/bin/../lib/gcc/arm-none-eabi/8.2.1/../../../../arm-none-eabi/lib/thumb/v7-m/nofp\libc.a(lib_a-strlen-stub.o)
                              ./build/./RepRapFirmware/src/OutputMemory.o (strlen)
c:/users/andy/.vscode/extensions/metalcode-eu.windows-arm-none-eabi-0.1.6/bin/../lib/gcc/arm-none-eabi/8.2.1/../../../../arm-none-eabi/lib/thumb/v7-m/nofp\libc.a(lib_a-strncat.o)
                              ./build/\libRRFLibraries.a(StringFunctions.o) (strncat)
c:/users/andy/.vscode/extensions/metalcode-eu.windows-arm-none-eabi-0.1.6/bin/../lib/gcc/arm-none-eabi/8.2.1/../../../../arm-none-eabi/lib/thumb/v7-m/nofp\libc.a(lib_a-strncpy.o)
                              ./build/\libRRFLibraries.a(StringFunctions.o) (strncpy)
c:/users/andy/.vscode/extensions/metalcode-eu.windows-arm-none-eabi-0.1.6/bin/../lib/gcc/arm-none-eabi/8.2.1/../../../../arm-none-eabi/lib/thumb/v7-m/nofp\libc.a(lib_a-strstr.o)
                              ./build/\libRRFLibraries.a(StringRef.o) (strstr)
c:/users/andy/.vscode/extensions/metalcode-eu.windows-arm-none-eabi-0.1.6/bin/../lib/gcc/arm-none-eabi/8.2.1/../../../../arm-none-eabi/lib/thumb/v7-m/nofp\libc.a(lib_a-strtoul.o)
                              ./build/\libRRFLibraries.a(SafeStrtod.o) (strtoul)
c:/users/andy/.vscode/extensions/metalcode-eu.windows-arm-none-eabi-0.1.6/bin/../lib/gcc/arm-none-eabi/8.2.1/../../../../arm-none-eabi/lib/thumb/v7-m/nofp\libc.a(lib_a-syssbrk.o)
                              ./build/\libLPCCore.a(main.o) (sbrk)
c:/users/andy/.vscode/extensions/metalcode-eu.windows-arm-none-eabi-0.1.6/bin/../lib/gcc/arm-none-eabi/8.2.1/../../../../arm-none-eabi/lib/thumb/v7-m/nofp\libc.a(lib_a-tolower.o)
                              ./build/./RepRapFirmware/src/GCodes/GCodeBuffer/BinaryParser.o (tolower)
c:/users/andy/.vscode/extensions/metalcode-eu.windows-arm-none-eabi-0.1.6/bin/../lib/gcc/arm-none-eabi/8.2.1/../../../../arm-none-eabi/lib/thumb/v7-m/nofp\libc.a(lib_a-toupper.o)
                              ./build/./RepRapFirmware/src/GCodes/GCodes2.o (toupper)
c:/users/andy/.vscode/extensions/metalcode-eu.windows-arm-none-eabi-0.1.6/bin/../lib/gcc/arm-none-eabi/8.2.1/../../../../arm-none-eabi/lib/thumb/v7-m/nofp\libc.a(lib_a-tzcalc_limits.o)
                              c:/users/andy/.vscode/extensions/metalcode-eu.windows-arm-none-eabi-0.1.6/bin/../lib/gcc/arm-none-eabi/8.2.1/../../../../arm-none-eabi/lib/thumb/v7-m/nofp\libc.a(lib_a-mktime.o) (__tzcalc_limits)
c:/users/andy/.vscode/extensions/metalcode-eu.windows-arm-none-eabi-0.1.6/bin/../lib/gcc/arm-none-eabi/8.2.1/../../../../arm-none-eabi/lib/thumb/v7-m/nofp\libc.a(lib_a-tzvars.o)
                              c:/users/andy/.vscode/extensions/metalcode-eu.windows-arm-none-eabi-0.1.6/bin/../lib/gcc/arm-none-eabi/8.2.1/../../../../arm-none-eabi/lib/thumb/v7-m/nofp\libc.a(lib_a-mktime.o) (_daylight)
c:/users/andy/.vscode/extensions/metalcode-eu.windows-arm-none-eabi-0.1.6/bin/../lib/gcc/arm-none-eabi/8.2.1/../../../../arm-none-eabi/lib/thumb/v7-m/nofp\libc.a(lib_a-__atexit.o)
                              c:/users/andy/.vscode/extensions/metalcode-eu.windows-arm-none-eabi-0.1.6/bin/../lib/gcc/arm-none-eabi/8.2.1/../../../../arm-none-eabi/lib/thumb/v7-m/nofp\libc.a(lib_a-cxa_atexit.o) (__register_exitproc)
c:/users/andy/.vscode/extensions/metalcode-eu.windows-arm-none-eabi-0.1.6/bin/../lib/gcc/arm-none-eabi/8.2.1/../../../../arm-none-eabi/lib/thumb/v7-m/nofp\libc.a(lib_a-__call_atexit.o)
                              c:/users/andy/.vscode/extensions/metalcode-eu.windows-arm-none-eabi-0.1.6/bin/../lib/gcc/arm-none-eabi/8.2.1/../../../../arm-none-eabi/lib/thumb/v7-m/nofp\libc.a(lib_a-exit.o) (__call_exitprocs)
c:/users/andy/.vscode/extensions/metalcode-eu.windows-arm-none-eabi-0.1.6/bin/../lib/gcc/arm-none-eabi/8.2.1/../../../../arm-none-eabi/lib/thumb/v7-m/nofp\libc.a(lib_a-atexit.o)
                              c:/users/andy/.vscode/extensions/metalcode-eu.windows-arm-none-eabi-0.1.6/bin/../lib/gcc/arm-none-eabi/8.2.1/../../../../arm-none-eabi/lib/thumb/v7-m/nofp\libc.a(lib_a-__call_atexit.o) (atexit)
c:/users/andy/.vscode/extensions/metalcode-eu.windows-arm-none-eabi-0.1.6/bin/../lib/gcc/arm-none-eabi/8.2.1/../../../../arm-none-eabi/lib/thumb/v7-m/nofp\libc.a(lib_a-ctype_.o)
                              c:/users/andy/.vscode/extensions/metalcode-eu.windows-arm-none-eabi-0.1.6/bin/../lib/gcc/arm-none-eabi/8.2.1/../../../../arm-none-eabi/lib/thumb/v7-m/nofp\libc.a(lib_a-isalpha.o) (_ctype_)
c:/users/andy/.vscode/extensions/metalcode-eu.windows-arm-none-eabi-0.1.6/bin/../lib/gcc/arm-none-eabi/8.2.1/../../../../arm-none-eabi/lib/thumb/v7-m/nofp\libc.a(lib_a-div.o)
                              c:/users/andy/.vscode/extensions/metalcode-eu.windows-arm-none-eabi-0.1.6/bin/../lib/gcc/arm-none-eabi/8.2.1/../../../../arm-none-eabi/lib/thumb/v7-m/nofp\libc.a(lib_a-mktime.o) (div)
c:/users/andy/.vscode/extensions/metalcode-eu.windows-arm-none-eabi-0.1.6/bin/../lib/gcc/arm-none-eabi/8.2.1/../../../../arm-none-eabi/lib/thumb/v7-m/nofp\libc.a(lib_a-fini.o)
                              c:/users/andy/.vscode/extensions/metalcode-eu.windows-arm-none-eabi-0.1.6/bin/../lib/gcc/arm-none-eabi/8.2.1/../../../../arm-none-eabi/lib/thumb/v7-m/nofp\libc.a(lib_a-__call_atexit.o) (__libc_fini_array)
c:/users/andy/.vscode/extensions/metalcode-eu.windows-arm-none-eabi-0.1.6/bin/../lib/gcc/arm-none-eabi/8.2.1/../../../../arm-none-eabi/lib/thumb/v7-m/nofp\libc.a(lib_a-gettzinfo.o)
                              c:/users/andy/.vscode/extensions/metalcode-eu.windows-arm-none-eabi-0.1.6/bin/../lib/gcc/arm-none-eabi/8.2.1/../../../../arm-none-eabi/lib/thumb/v7-m/nofp\libc.a(lib_a-mktime.o) (__gettzinfo)
c:/users/andy/.vscode/extensions/metalcode-eu.windows-arm-none-eabi-0.1.6/bin/../lib/gcc/arm-none-eabi/8.2.1/../../../../arm-none-eabi/lib/thumb/v7-m/nofp\libc.a(lib_a-lock.o)
                              c:/users/andy/.vscode/extensions/metalcode-eu.windows-arm-none-eabi-0.1.6/bin/../lib/gcc/arm-none-eabi/8.2.1/../../../../arm-none-eabi/lib/thumb/v7-m/nofp\libc.a(lib_a-__atexit.o) (__retarget_lock_acquire_recursive)
c:/users/andy/.vscode/extensions/metalcode-eu.windows-arm-none-eabi-0.1.6/bin/../lib/gcc/arm-none-eabi/8.2.1/../../../../arm-none-eabi/lib/thumb/v7-m/nofp\libc.a(lib_a-month_lengths.o)
                              c:/users/andy/.vscode/extensions/metalcode-eu.windows-arm-none-eabi-0.1.6/bin/../lib/gcc/arm-none-eabi/8.2.1/../../../../arm-none-eabi/lib/thumb/v7-m/nofp\libc.a(lib_a-tzcalc_limits.o) (__month_lengths)
c:/users/andy/.vscode/extensions/metalcode-eu.windows-arm-none-eabi-0.1.6/bin/../lib/gcc/arm-none-eabi/8.2.1/../../../../arm-none-eabi/lib/thumb/v7-m/nofp\libc.a(lib_a-sbrkr.o)
                              c:/users/andy/.vscode/extensions/metalcode-eu.windows-arm-none-eabi-0.1.6/bin/../lib/gcc/arm-none-eabi/8.2.1/../../../../arm-none-eabi/lib/thumb/v7-m/nofp\libc.a(lib_a-syssbrk.o) (_sbrk_r)
c:/users/andy/.vscode/extensions/metalcode-eu.windows-arm-none-eabi-0.1.6/bin/../lib/gcc/arm-none-eabi/8.2.1/../../../../arm-none-eabi/lib/thumb/v7-m/nofp\libc.a(lib_a-strnlen.o)
                              c:/users/andy/.vscode/extensions/metalcode-eu.windows-arm-none-eabi-0.1.6/bin/../lib/gcc/arm-none-eabi/8.2.1/../../../../arm-none-eabi/lib/thumb/v7-m/nofp\libc.a(lib_a-strstr.o) (strnlen)

Allocating common symbols
Common symbol       size              file

__lock___malloc_recursive_mutex
                    0x1               c:/users/andy/.vscode/extensions/metalcode-eu.windows-arm-none-eabi-0.1.6/bin/../lib/gcc/arm-none-eabi/8.2.1/../../../../arm-none-eabi/lib/thumb/v7-m/nofp\libc.a(lib_a-lock.o)
__lock___atexit_recursive_mutex
                    0x1               c:/users/andy/.vscode/extensions/metalcode-eu.windows-arm-none-eabi-0.1.6/bin/../lib/gcc/arm-none-eabi/8.2.1/../../../../arm-none-eabi/lib/thumb/v7-m/nofp\libc.a(lib_a-lock.o)
SystemCoreClock     0x4               ./build/\libLPCCore.a(system_LPC17xx.o)
xQueueRegistry      0x40              ./build/\libLPCCore.a(queue.o)
__lock___dd_hash_mutex
                    0x1               c:/users/andy/.vscode/extensions/metalcode-eu.windows-arm-none-eabi-0.1.6/bin/../lib/gcc/arm-none-eabi/8.2.1/../../../../arm-none-eabi/lib/thumb/v7-m/nofp\libc.a(lib_a-lock.o)
__lock___sinit_recursive_mutex
                    0x1               c:/users/andy/.vscode/extensions/metalcode-eu.windows-arm-none-eabi-0.1.6/bin/../lib/gcc/arm-none-eabi/8.2.1/../../../../arm-none-eabi/lib/thumb/v7-m/nofp\libc.a(lib_a-lock.o)
__lock___sfp_recursive_mutex
                    0x1               c:/users/andy/.vscode/extensions/metalcode-eu.windows-arm-none-eabi-0.1.6/bin/../lib/gcc/arm-none-eabi/8.2.1/../../../../arm-none-eabi/lib/thumb/v7-m/nofp\libc.a(lib_a-lock.o)
__lock___at_quick_exit_mutex
                    0x1               c:/users/andy/.vscode/extensions/metalcode-eu.windows-arm-none-eabi-0.1.6/bin/../lib/gcc/arm-none-eabi/8.2.1/../../../../arm-none-eabi/lib/thumb/v7-m/nofp\libc.a(lib_a-lock.o)
__lock___env_recursive_mutex
                    0x1               c:/users/andy/.vscode/extensions/metalcode-eu.windows-arm-none-eabi-0.1.6/bin/../lib/gcc/arm-none-eabi/8.2.1/../../../../arm-none-eabi/lib/thumb/v7-m/nofp\libc.a(lib_a-lock.o)
__lock___tz_mutex   0x1               c:/users/andy/.vscode/extensions/metalcode-eu.windows-arm-none-eabi-0.1.6/bin/../lib/gcc/arm-none-eabi/8.2.1/../../../../arm-none-eabi/lib/thumb/v7-m/nofp\libc.a(lib_a-lock.o)
__lock___arc4random_mutex
                    0x1               c:/users/andy/.vscode/extensions/metalcode-eu.windows-arm-none-eabi-0.1.6/bin/../lib/gcc/arm-none-eabi/8.2.1/../../../../arm-none-eabi/lib/thumb/v7-m/nofp\libc.a(lib_a-lock.o)

Discarded input sections

 .text          0x00000000        0x0 c:/users/andy/.vscode/extensions/metalcode-eu.windows-arm-none-eabi-0.1.6/bin/../lib/gcc/arm-none-eabi/8.2.1/thumb/v7-m/nofp/crti.o
 .data          0x00000000        0x0 c:/users/andy/.vscode/extensions/metalcode-eu.windows-arm-none-eabi-0.1.6/bin/../lib/gcc/arm-none-eabi/8.2.1/thumb/v7-m/nofp/crti.o
 .bss           0x00000000        0x0 c:/users/andy/.vscode/extensions/metalcode-eu.windows-arm-none-eabi-0.1.6/bin/../lib/gcc/arm-none-eabi/8.2.1/thumb/v7-m/nofp/crti.o
 .text          0x00000000       0x74 c:/users/andy/.vscode/extensions/metalcode-eu.windows-arm-none-eabi-0.1.6/bin/../lib/gcc/arm-none-eabi/8.2.1/../../../../arm-none-eabi/lib/thumb/v7-m/nofp/crt0.o
 .data          0x00000000        0x0 c:/users/andy/.vscode/extensions/metalcode-eu.windows-arm-none-eabi-0.1.6/bin/../lib/gcc/arm-none-eabi/8.2.1/../../../../arm-none-eabi/lib/thumb/v7-m/nofp/crt0.o
 .bss           0x00000000        0x0 c:/users/andy/.vscode/extensions/metalcode-eu.windows-arm-none-eabi-0.1.6/bin/../lib/gcc/arm-none-eabi/8.2.1/../../../../arm-none-eabi/lib/thumb/v7-m/nofp/crt0.o
 .ARM.extab     0x00000000        0x0 c:/users/andy/.vscode/extensions/metalcode-eu.windows-arm-none-eabi-0.1.6/bin/../lib/gcc/arm-none-eabi/8.2.1/../../../../arm-none-eabi/lib/thumb/v7-m/nofp/crt0.o
 .ARM.exidx     0x00000000        0x8 c:/users/andy/.vscode/extensions/metalcode-eu.windows-arm-none-eabi-0.1.6/bin/../lib/gcc/arm-none-eabi/8.2.1/../../../../arm-none-eabi/lib/thumb/v7-m/nofp/crt0.o
 .ARM.attributes
                0x00000000       0x1b c:/users/andy/.vscode/extensions/metalcode-eu.windows-arm-none-eabi-0.1.6/bin/../lib/gcc/arm-none-eabi/8.2.1/../../../../arm-none-eabi/lib/thumb/v7-m/nofp/crt0.o
 .text          0x00000000        0x0 ./build/./CoreLPC/cores/arduino/syscalls.o
 .data          0x00000000        0x0 ./build/./CoreLPC/cores/arduino/syscalls.o
 .bss           0x00000000        0x0 ./build/./CoreLPC/cores/arduino/syscalls.o
 .text.link     0x00000000        0x6 ./build/./CoreLPC/cores/arduino/syscalls.o
 .text._close   0x00000000        0x6 ./build/./CoreLPC/cores/arduino/syscalls.o
 .text._fstat   0x00000000        0xa ./build/./CoreLPC/cores/arduino/syscalls.o
 .text._isatty  0x00000000        0x4 ./build/./CoreLPC/cores/arduino/syscalls.o
 .text._lseek   0x00000000        0x4 ./build/./CoreLPC/cores/arduino/syscalls.o
Memory Configuration

Name             Origin             Length             Attributes
FLASH            0x00004000         0x00074000         xr
RAM              0x10000000         0x00007fe0         xrw
AHB_RAM          0x2007c000         0x00008000         xrw
*default*        0x00000000         0xffffffff

Linker script and memory map

LOAD c:/users/andy/.vscode/extensions/metalcode-eu.windows-arm-none-eabi-0.1.6/bin/../lib/gcc/arm-none-eabi/8.2.1/thumb/v7-m/nofp/crti.o
LOAD c:/users/andy/.vscode/extensions/metalcode-eu.windows-arm-none-eabi-0.1.6/bin/../lib/gcc/arm-none-eabi/8.2.1/thumb/v7-m/nofp/crtbegin.o
LOAD c:/users/andy/.vscode/extensions/metalcode-eu.windows-arm-none-eabi-0.1.6/bin/../lib/gcc/arm-none-eabi/8.2.1/../../../../arm-none-eabi/lib/thumb/v7-m/nofp/crt0.o
START GROUP
LOAD ./build/./CoreLPC/cores/arduino/syscalls.o
LOAD ./build/./RepRapFirmware/src/libc/memcmp.o
LOAD ./build/./RepRapFirmware/src/libc/memcpy.o
LOAD ./build/./RepRapFirmware/src/libc/memmove.o
LOAD ./build/./RepRapFirmware/src/libc/memset.o
LOAD ./build/./RepRapFirmware/src/libc/nano-mallocr.o
LOAD ./build/./RepRapFirmware/src/libcpp/eh_alloc.o
LOAD ./build/./RepRapFirmware/src/libc/strptime.o
LOAD ./build/./RepRapFirmware/src/libcpp/vterminate.o
LOAD ./build/\libLPCCore.a
LOAD ./build/./RepRapFirmware/src/Libraries/sha1/sha1.o
LOAD ./build/./RepRapFirmware/src/targets/common/FatFS/ff.o
LOAD ./build/./RepRapFirmware/src/targets/common/FatFS/ffunicode.o
LOAD ./build/./RepRapFirmware/src/Logger.o
LOAD ./build/./RepRapFirmware/src/OutputMemory.o
LOAD ./build/./RepRapFirmware/src/Platform.o
LOAD ./build/./RepRapFirmware/src/PortControl.o
LOAD ./build/./RepRapFirmware/src/PrintMonitor.o
LOAD ./build/./RepRapFirmware/src/RepRap.o
LOAD ./build/./RepRapFirmware/src/RepRapFirmware.o
LOAD ./build/./RepRapFirmware/src/Roland.o
LOAD ./build/./RepRapFirmware/src/Scanner.o
LOAD ./build/./RepRapFirmware/src/Stream.o
LOAD ./build/./RepRapFirmware/src/Tasks.o
LOAD ./build/./RepRapFirmware/src/FilamentMonitors/Duet3DFilamentMonitor.o
LOAD ./build/./RepRapFirmware/src/FilamentMonitors/FilamentMonitor.o
LOAD ./build/./RepRapFirmware/src/FilamentMonitors/LaserFilamentMonitor.o
LOAD ./build/./RepRapFirmware/src/FilamentMonitors/PulsedFilamentMonitor.o
LOAD ./build/./RepRapFirmware/src/FilamentMonitors/RotatingMagnetFilamentMonitor.o
LOAD ./build/./RepRapFirmware/src/FilamentMonitors/SimpleFilamentMonitor.o
LOAD ./build/./RepRapFirmware/src/GCodes/GCodeException.o
LOAD ./build/./RepRapFirmware/src/GCodes/GCodeFileInfo.o
LOAD ./build/./RepRapFirmware/src/GCodes/GCodeInput.o
LOAD ./build/./RepRapFirmware/src/GCodes/GCodeMachineState.o
LOAD ./build/./RepRapFirmware/src/GCodes/GCodeQueue.o
LOAD ./build/./RepRapFirmware/src/GCodes/GCodes.o
LOAD ./build/./RepRapFirmware/src/GCodes/GCodes2.o
LOAD ./build/./RepRapFirmware/src/GCodes/GCodes3.o
LOAD ./build/./RepRapFirmware/src/GCodes/GCodes4.o
LOAD ./build/./RepRapFirmware/src/GCodes/ObjectTracker.o
LOAD ./build/./RepRapFirmware/src/GCodes/RestorePoint.o
LOAD ./build/./RepRapFirmware/src/GCodes/Trigger.o
LOAD ./build/./RepRapFirmware/src/GCodes/GCodeBuffer/BinaryParser.o
LOAD ./build/./RepRapFirmware/src/GCodes/GCodeBuffer/ExpressionParser.o
LOAD ./build/./RepRapFirmware/src/GCodes/GCodeBuffer/GCodeBuffer.o
LOAD ./build/./RepRapFirmware/src/GCodes/GCodeBuffer/StringParser.o
LOAD ./build/./RepRapFirmware/src/Heating/FOPDT.o
LOAD ./build/./RepRapFirmware/src/Heating/Heat.o
LOAD ./build/./RepRapFirmware/src/Heating/Heater.o
LOAD ./build/./RepRapFirmware/src/Heating/HeaterMonitor.o
LOAD ./build/./RepRapFirmware/src/Heating/LocalHeater.o
LOAD ./build/./RepRapFirmware/src/Heating/RemoteHeater.o
LOAD ./build/./RepRapFirmware/src/Heating/TemperatureError.o
LOAD ./build/./RepRapFirmware/src/Movement/DDA.o
LOAD ./build/./RepRapFirmware/src/Movement/DDARing.o
LOAD ./build/./RepRapFirmware/src/Movement/DriveMovement.o
LOAD ./build/./RepRapFirmware/src/Movement/Move.o
LOAD ./build/./RepRapFirmware/src/Movement/RawMove.o
LOAD ./build/./RepRapFirmware/src/Movement/StepTimer.o
LOAD ./build/./RepRapFirmware/src/Movement/StraightProbeSettings.o
LOAD ./build/./RepRapFirmware/src/Movement/BedProbing/Grid.o
LOAD ./build/./RepRapFirmware/src/Movement/BedProbing/RandomProbePointSet.o
LOAD ./build/./RepRapFirmware/src/Movement/Kinematics/CoreKinematics.o
LOAD ./build/./RepRapFirmware/src/Movement/Kinematics/FiveBarScaraKinematics.o
LOAD ./build/./RepRapFirmware/src/Movement/Kinematics/HangprinterKinematics.o
LOAD ./build/./RepRapFirmware/src/Movement/Kinematics/Kinematics.o
LOAD ./build/./RepRapFirmware/src/Movement/Kinematics/LinearDeltaKinematics.o
LOAD ./build/./RepRapFirmware/src/Movement/Kinematics/PolarKinematics.o
LOAD ./build/./RepRapFirmware/src/Movement/Kinematics/RotaryDeltaKinematics.o
LOAD ./build/./RepRapFirmware/src/Movement/Kinematics/ScaraKinematics.o
LOAD ./build/./RepRapFirmware/src/Movement/Kinematics/ZLeadscrewKinematics.o
LOAD ./build/./RepRapFirmware/src/Storage/CRC32.o
LOAD ./build/./RepRapFirmware/src/Storage/FileInfoParser.o
LOAD ./build/./RepRapFirmware/src/Storage/FileStore.o
LOAD ./build/./RepRapFirmware/src/Storage/MassStorage.o
LOAD ./build/./RepRapFirmware/src/Hardware/SharedSpi/SharedSpiClient.o
LOAD ./build/./RepRapFirmware/src/Hardware/SharedSpi/SharedSpiDevice.o
LOAD ./build/./RepRapFirmware/src/Comms/AuxDevice.o
LOAD ./build/./RepRapFirmware/src/Heating/Sensors/AdditionalOutputSensor.o
LOAD ./build/./RepRapFirmware/src/Heating/Sensors/CpuTemperatureSensor.o
LOAD ./build/./RepRapFirmware/src/Heating/Sensors/CurrentLoopTemperatureSensor.o
LOAD ./build/./RepRapFirmware/src/Heating/Sensors/DhtSensor.o
LOAD ./build/./RepRapFirmware/src/Heating/Sensors/LinearAnalogSensor.o
LOAD ./build/./RepRapFirmware/src/Heating/Sensors/RemoteSensor.o
LOAD ./build/./RepRapFirmware/src/Heating/Sensors/RtdSensor31865.o
LOAD ./build/./RepRapFirmware/src/Heating/Sensors/SensorWithPort.o
LOAD ./build/./RepRapFirmware/src/Heating/Sensors/SpiTemperatureSensor.o
LOAD ./build/./RepRapFirmware/src/Heating/Sensors/TemperatureSensor.o
LOAD ./build/./RepRapFirmware/src/Heating/Sensors/Thermistor.o
LOAD ./build/./RepRapFirmware/src/Heating/Sensors/ThermocoupleSensor31855.o
LOAD ./build/./RepRapFirmware/src/Heating/Sensors/ThermocoupleSensor31856.o
LOAD ./build/./RepRapFirmware/src/Heating/Sensors/TmcDriverTemperatureSensor.o
LOAD ./build/./RepRapFirmware/src/Fans/DotStarLed.o
LOAD ./build/./RepRapFirmware/src/Fans/Fan.o
LOAD ./build/./RepRapFirmware/src/Fans/FansManager.o
LOAD ./build/./RepRapFirmware/src/Fans/LocalFan.o
LOAD ./build/./RepRapFirmware/src/Fans/RemoteFan.o
LOAD ./build/./RepRapFirmware/src/ObjectModel/ObjectModel.o
LOAD ./build/./RepRapFirmware/src/Endstops/Endstop.o
LOAD ./build/./RepRapFirmware/src/Endstops/EndstopsManager.o
LOAD ./build/./RepRapFirmware/src/Endstops/LocalZProbe.o
LOAD ./build/./RepRapFirmware/src/Endstops/RemoteZProbe.o
LOAD ./build/./RepRapFirmware/src/Endstops/StallDetectionEndstop.o
LOAD ./build/./RepRapFirmware/src/Endstops/SwitchEndstop.o
LOAD ./build/./RepRapFirmware/src/Endstops/ZProbe.o
LOAD ./build/./RepRapFirmware/src/Endstops/ZProbeEndstop.o
LOAD ./build/./RepRapFirmware/src/Hardware/ExceptionHandlers.o
LOAD ./build/./RepRapFirmware/src/Hardware/I2C.o
LOAD ./build/./RepRapFirmware/src/Hardware/IoPorts.o
LOAD ./build/./RepRapFirmware/src/Hardware/NonVolatileMemory.o
LOAD ./build/./RepRapFirmware/src/Hardware/SoftwareReset.o
LOAD ./build/./RepRapFirmware/src/Tools/Filament.o
LOAD ./build/./RepRapFirmware/src/Tools/Spindle.o
LOAD ./build/./RepRapFirmware/src/Tools/Tool.o
LOAD ./build/./RepRapFirmware/src/Display/Display.o
LOAD ./build/./RepRapFirmware/src/Display/Menu.o
LOAD ./build/./RepRapFirmware/src/Display/MenuItem.o
LOAD ./build/./RepRapFirmware/src/Display/RotaryEncoder.o
LOAD ./build/./RepRapFirmware/src/GPIO/GpInPort.o
LOAD ./build/./RepRapFirmware/src/GPIO/GpOutPort.o
LOAD ./build/./RepRapFirmware/src/targets/LPC/BoardConfig.o
LOAD ./build/./RepRapFirmware/src/targets/LPC/NVMEmulation.o
LOAD ./build/./RepRapFirmware/src/targets/LPC/Pins_LPC.o
LOAD ./build/./RepRapFirmware/src/targets/common/Microstepping.o
LOAD ./build/./RepRapFirmware/src/targets/LPC/MCP4461/MCP4461.o
LOAD ./build/./RepRapFirmware/src/targets/LPC/FatFS/sd_mmc_wrapper.o
LOAD ./build/./RepRapFirmware/src/targets/LPC/FatFS/SDCard.o
LOAD ./build/./RepRapFirmware/src/targets/common/FatFS/diskio.o
LOAD ./build/./RepRapFirmware/src/targets/common/FatFS/fattime_rtc.o
LOAD ./build/./RepRapFirmware/src/targets/common/Fans/DotStarLed.o
LOAD ./build/./RepRapFirmware/src/Linux/DataTransfer.o
LOAD ./build/./RepRapFirmware/src/Linux/LinuxInterface.o
LOAD ./build/./RepRapFirmware/src/targets/common/NoNetwork/Network.o
LOAD ./build/./RepRapFirmware/src/targets/LPC/Movement/StepperDrivers/TMCSoftUART.o
LOAD ./build/./RepRapFirmware/src/targets/common/Movement/StepperDrivers/TMC22xx.o
LOAD ./build/./RepRapFirmware/src/Movement/StepperDrivers/DriverMode.o
LOAD ./build/./RepRapFirmware/src/Movement/StepperDrivers/TMC22xx.o
LOAD ./build/./RepRapFirmware/src/Movement/StepperDrivers/TMC2660.o
LOAD ./build/./RepRapFirmware/src/Movement/StepperDrivers/TMC51xx.o
LOAD c:/users/andy/.vscode/extensions/metalcode-eu.windows-arm-none-eabi-0.1.6/bin/../lib/gcc/arm-none-eabi/8.2.1/../../../../arm-none-eabi/lib/thumb/v7-m/nofp\libsupc++.a
LOAD ./build/\libRRFLibraries.a
END GROUP
LOAD c:/users/andy/.vscode/extensions/metalcode-eu.windows-arm-none-eabi-0.1.6/bin/../lib/gcc/arm-none-eabi/8.2.1/../../../../arm-none-eabi/lib/thumb/v7-m/nofp\libm.a
START GROUP
LOAD c:/users/andy/.vscode/extensions/metalcode-eu.windows-arm-none-eabi-0.1.6/bin/../lib/gcc/arm-none-eabi/8.2.1/thumb/v7-m/nofp\libgcc.a
LOAD c:/users/andy/.vscode/extensions/metalcode-eu.windows-arm-none-eabi-0.1.6/bin/../lib/gcc/arm-none-eabi/8.2.1/../../../../arm-none-eabi/lib/thumb/v7-m/nofp\libc.a
END GROUP
START GROUP
LOAD c:/users/andy/.vscode/extensions/metalcode-eu.windows-arm-none-eabi-0.1.6/bin/../lib/gcc/arm-none-eabi/8.2.1/thumb/v7-m/nofp\libgcc.a
LOAD c:/users/andy/.vscode/extensions/metalcode-eu.windows-arm-none-eabi-0.1.6/bin/../lib/gcc/arm-none-eabi/8.2.1/../../../../arm-none-eabi/lib/thumb/v7-m/nofp\libc.a
LOAD c:/users/andy/.vscode/extensions/metalcode-eu.windows-arm-none-eabi-0.1.6/bin/../lib/gcc/arm-none-eabi/8.2.1/../../../../arm-none-eabi/lib/thumb/v7-m/nofp\libnosys.a
END GROUP
LOAD c:/users/andy/.vscode/extensions/metalcode-eu.windows-arm-none-eabi-0.1.6/bin/../lib/gcc/arm-none-eabi/8.2.1/thumb/v7-m/nofp/crtend.o
LOAD c:/users/andy/.vscode/extensions/metalcode-eu.windows-arm-none-eabi-0.1.6/bin/../lib/gcc/arm-none-eabi/8.2.1/thumb/v7-m/nofp/crtn.o
START GROUP
LOAD c:/users/andy/.vscode/extensions/metalcode-eu.windows-arm-none-eabi-0.1.6/bin/../lib/gcc/arm-none-eabi/8.2.1/thumb/v7-m/nofp\libgcc.a
LOAD c:/users/andy/.vscode/extensions/metalcode-eu.windows-arm-none-eabi-0.1.6/bin/../lib/gcc/arm-none-eabi/8.2.1/../../../../arm-none-eabi/lib/thumb/v7-m/nofp\libg.a
LOAD c:/users/andy/.vscode/extensions/metalcode-eu.windows-arm-none-eabi-0.1.6/bin/../lib/gcc/arm-none-eabi/8.2.1/../../../../arm-none-eabi/lib/thumb/v7-m/nofp\libc.a
LOAD c:/users/andy/.vscode/extensions/metalcode-eu.windows-arm-none-eabi-0.1.6/bin/../lib/gcc/arm-none-eabi/8.2.1/../../../../arm-none-eabi/lib/thumb/v7-m/nofp\libm.a
LOAD c:/users/andy/.vscode/extensions/metalcode-eu.windows-arm-none-eabi-0.1.6/bin/../lib/gcc/arm-none-eabi/8.2.1/../../../../arm-none-eabi/lib/thumb/v7-m/nofp\libnosys.a
END GROUP

.AHBSRAM0       0x2007c000     0x1c94
                0x2007c000                Image$$RW_IRAM2$$Base = .
                0x2007c000                PROVIDE (__AHB0_block_start = .)
 *(AHBSRAM0)
 AHBSRAM0       0x2007c000      0x16c ./build/./RepRapFirmware/src/targets/LPC/Movement/StepperDrivers/TMCSoftUART.o
                0x2007c004                SUDmaBits
 AHBSRAM0       0x2007c16c       0x18 ./build/\libLPCCore.a(exti.o)
 AHBSRAM0       0x2007c184       0x58 ./build/\libLPCCore.a(Wire.o)
                0x2007c184                Wire
 *(.bss.*DataTransfer*)
 *(.bss.reprap)
 .bss.reprap    0x2007c1dc      0x37c ./build/./RepRapFirmware/src/RepRapFirmware.o
                0x2007c1dc                reprap
 *(.bss._*heaterTask)
 .bss._ZL10heaterTask
                0x2007c558      0x50c ./build/./RepRapFirmware/src/Heating/Heat.o
 *(.bss._*mainTask)
 .bss._ZL8mainTask
                0x2007ca64      0xf74 ./build/./RepRapFirmware/src/Tasks.o
 *(.bss.*IdleTaskStack)
 *(.bss.*TimerTaskStack)
 *(.bss.*tcpPlusTask)
 *(.bss._time_locale)
 *(.bss.*Mutex*)
 .bss._ZL11mallocMutex
                0x2007d9d8       0x58 ./build/./RepRapFirmware/src/Tasks.o
 .bss._ZL11sysDirMutex
                0x2007da30       0x58 ./build/./RepRapFirmware/src/Tasks.o
 .bss._ZL14filamentsMutex
                0x2007da88       0x58 ./build/./RepRapFirmware/src/Tasks.o
 .bss._ZL8i2cMutex
                0x2007dae0       0x58 ./build/./RepRapFirmware/src/Tasks.o
 .bss._ZN14LinuxInterface15gcodeReplyMutexE
                0x2007db38       0x58 ./build/./RepRapFirmware/src/Linux/LinuxInterface.o
                0x2007db38                LinuxInterface::gcodeReplyMutex
 .bss._ZN5Mutex9mutexListE
                0x2007db90        0x4 ./build/\libRRFLibraries.a(RTOSIface.o)
                0x2007db90                Mutex::mutexList
 *(.bss.*Queue*)
 *(.bss.*TCB)
 .bss.pxCurrentTCB
                0x2007db94        0x4 ./build/\libLPCCore.a(tasks.o)
                0x2007db94                pxCurrentTCB
 *(.bss.xNetworkBuffers)
 *(.bss.*networkTask)
 *(.bss.*descriptors*)
 *(.bss.*HttpResponder*)
 *(.bss.*emacTask)
 *(.bss.*idleTask)
 .bss._ZL8idleTask
                0x2007db98       0xfc ./build/./RepRapFirmware/src/Tasks.o
 *(.bss.xARPCache)
 *(.bss.xDHCPData)
 *(.bss.*assembleConfigDescriptor*)
 *(.bss.*bufferIn)
 *(.bss.*bufferOut)
 *(.bss.*infoParser)
 *(.bss.*info)
 *(.bss.*files)
                0x2007dc94                Image$$RW_IRAM2$$ZI$$Limit = .
                0x2007dc94                PROVIDE (__AHB0_dyn_start = .)
                0x20084000                PROVIDE (__AHB0_end = (ORIGIN (AHB_RAM) + LENGTH (AHB_RAM)))

.text           0x00004000    0x5af8c
                0x00004000                _sfixed = .
 *(.isr_vector)
 .isr_vector    0x00004000       0xc4 ./build/\libLPCCore.a(startup_LPC17xx.o)
                0x00004000                g_pfnVectors
 *(.text*)
 .text          0x000040c4       0x40 c:/users/andy/.vscode/extensions/metalcode-eu.windows-arm-none-eabi-0.1.6/bin/../lib/gcc/arm-none-eabi/8.2.1/thumb/v7-m/nofp/crtbegin.o
 .text._sbrk    0x00004104       0x34 ./build/./CoreLPC/cores/arduino/syscalls.o
                0x00004104                _sbrk
 .text._exit    0x00004138        0x2 ./build/./CoreLPC/cores/arduino/syscalls.o
                0x00004138                _exit
 .text._kill    0x0000413a        0x2 ./build/./CoreLPC/cores/arduino/syscalls.o
                0x0000413a                _kill
 .text._getpid  0x0000413c        0x6 ./build/./CoreLPC/cores/arduino/syscalls.o
                0x0000413c                _getpid
 .text.memcmp   0x00004142       0x1c ./build/./RepRapFirmware/src/libc/memcmp.o
                0x00004142                memcmp
 .text.memcpy   0x0000415e       0x1c ./build/./RepRapFirmware/src/libc/memcpy.o
                0x0000415e                memcpy
 .text.memmove  0x0000417a       0x34 ./build/./RepRapFirmware/src/libc/memmove.o
                0x0000417a                memmove
 .text.memset   0x000041ae       0x10 ./build/./RepRapFirmware/src/libc/memset.o
                0x000041ae                memset
 *fill*         0x000041be        0x2 
 .text.malloc   0x000041c0       0xb0 ./build/./RepRapFirmware/src/libc/nano-mallocr.o
                0x000041c0                malloc
 .text.free     0x00004270       0x9c ./build/./RepRapFirmware/src/libc/nano-mallocr.o
                0x00004270                free
 .text.__cxa_allocate_exception
                0x0000430c       0x1e ./build/./RepRapFirmware/src/libcpp/eh_alloc.o
                0x0000430c                __cxa_allocate_exception
 .text.__cxa_free_exception
                0x0000432a        0x6 ./build/./RepRapFirmware/src/libcpp/eh_alloc.o
                0x0000432a                __cxa_free_exception
 .text._Z12SafeStrptimePKcS0_P2tm
                0x00004330      0x1d8 ./build/./RepRapFirmware/src/libc/strptime.o
                0x00004330                SafeStrptime(char const*, char const*, tm*)
 .text.Default_Handler
                0x00004508        0x4 ./build/\libLPCCore.a(startup_LPC17xx.o)
                0x00004508                CAN_IRQHandler
                0x00004508                EINT2_IRQHandler
                0x00004508                ADC_IRQHandler
                0x00004508                TIMER3_IRQHandler
                0x00004508                QEI_IRQHandler
                0x00004508                UART2_IRQHandler
                0x00004508                BOD_IRQHandler
                0x00004508                EINT0_IRQHandler
                0x00004508                RTC_IRQHandler
                0x00004508                I2C1_IRQHandler
                0x00004508                I2S_IRQHandler
                0x00004508                PLL0_IRQHandler
                0x00004508                PWM1_IRQHandler
                0x00004508                MCPWM_IRQHandler
                0x00004508                Default_Handler
                0x00004508                I2C2_IRQHandler
                0x00004508                ENET_IRQHandler
                0x00004508                TIMER1_IRQHandler
                0x00004508                PLL1_IRQHandler
                0x00004508                UART1_IRQHandler
                0x00004508                EINT1_IRQHandler
                0x00004508                TIMER2_IRQHandler
                0x00004508                I2C0_IRQHandler
                0x00004508                SPI_IRQHandler
 .text.Reset_Handler
                0x0000450c       0x68 ./build/\libLPCCore.a(startup_LPC17xx.o)
                0x0000450c                Reset_Handler
 .text.startup.main
                0x00004574       0x6c ./build/\libLPCCore.a(main.o)
                0x00004574                main
 .text._Z4initv
                0x000045e0        0xe ./build/\libLPCCore.a(variant.o)
                0x000045e0                init()
 *fill*         0x000045ee        0x2 
 .text.prvInsertBlockIntoFreeList
                0x000045f0       0x48 ./build/\libLPCCore.a(heap_5.o)
 .text.pvPortMalloc
                0x00004638       0xd0 ./build/\libLPCCore.a(heap_5.o)
                0x00004638                pvPortMalloc
 .text.vPortFree
                0x00004708       0x80 ./build/\libLPCCore.a(heap_5.o)
                0x00004708                vPortFree
 .text.xPortGetFreeHeapSize
                0x00004788        0xc ./build/\libLPCCore.a(heap_5.o)
                0x00004788                xPortGetFreeHeapSize
 .text.xPortGetMinimumEverFreeHeapSize
                0x00004794        0xc ./build/\libLPCCore.a(heap_5.o)
                0x00004794                xPortGetMinimumEverFreeHeapSize
 .text.vPortDefineHeapRegions
                0x000047a0       0xe0 ./build/\libLPCCore.a(heap_5.o)
                0x000047a0                vPortDefineHeapRegions
 .text.SysTick_Init
                0x00004880       0x1c ./build/\libLPCCore.a(systick.o)
                0x00004880                SysTick_Init
 .text.millis   0x0000489c        0xc ./build/\libLPCCore.a(systick.o)
                0x0000489c                millis
 .text.millis64
                0x000048a8       0x20 ./build/\libLPCCore.a(systick.o)
                0x000048a8                millis64
 .text.CoreSysTick
                0x000048c8       0x2c ./build/\libLPCCore.a(systick.o)
                0x000048c8                CoreSysTick
 .text.SystemInit
                0x000048f4      0x134 ./build/\libLPCCore.a(system_LPC17xx.o)
                0x000048f4                SystemInit
 .text.Chip_Clock_EnablePLL
                0x00004a28       0x24 ./build/\libLPCCore.a(clock_17xx_40xx.o)
                0x00004a28                Chip_Clock_EnablePLL
 .text.Chip_Clock_DisablePLL
                0x00004a4c       0x26 ./build/\libLPCCore.a(clock_17xx_40xx.o)
                0x00004a4c                Chip_Clock_DisablePLL
 .text.Chip_Clock_SetupPLL
                0x00004a72       0x30 ./build/\libLPCCore.a(clock_17xx_40xx.o)
                0x00004a72                Chip_Clock_SetupPLL
 *fill*         0x00004aa2        0x2 
 .text.Chip_Clock_EnablePeriphClock
                0x00004aa4       0x18 ./build/\libLPCCore.a(clock_17xx_40xx.o)
                0x00004aa4                Chip_Clock_EnablePeriphClock
 .text.Chip_Clock_DisablePeriphClock
                0x00004abc       0x1c ./build/\libLPCCore.a(clock_17xx_40xx.o)
                0x00004abc                Chip_Clock_DisablePeriphClock
 .text.Chip_Clock_GetCPUClockSource
                0x00004ad8       0x10 ./build/\libLPCCore.a(clock_17xx_40xx.o)
                0x00004ad8                Chip_Clock_GetCPUClockSource
 .text.Chip_Clock_SetCPUClockDiv
                0x00004ae8        0xc ./build/\libLPCCore.a(clock_17xx_40xx.o)
                0x00004ae8                Chip_Clock_SetCPUClockDiv
 .text.Chip_Clock_GetCPUClockDiv
                0x00004af4       0x10 ./build/\libLPCCore.a(clock_17xx_40xx.o)
                0x00004af4                Chip_Clock_GetCPUClockDiv
 .text.Chip_Clock_SetPCLKDiv
                0x00004b04       0x2a ./build/\libLPCCore.a(clock_17xx_40xx.o)
                0x00004b04                Chip_Clock_SetPCLKDiv
 *fill*         0x00004b2e        0x2 
 .text.Chip_Clock_GetPCLKDiv
                0x00004b30       0x38 ./build/\libLPCCore.a(clock_17xx_40xx.o)
                0x00004b30                Chip_Clock_GetPCLKDiv
 .text.Chip_Clock_GetSYSCLKRate
                0x00004b68       0x38 ./build/\libLPCCore.a(clock_17xx_40xx.o)
                0x00004b68                Chip_Clock_GetSYSCLKRate
 .text.Chip_Clock_GetMainPLLOutClockRate
                0x00004ba0       0x34 ./build/\libLPCCore.a(clock_17xx_40xx.o)
                0x00004ba0                Chip_Clock_GetMainPLLOutClockRate
 .text.Chip_Clock_GetMainClockRate
                0x00004bd4       0x20 ./build/\libLPCCore.a(clock_17xx_40xx.o)
                0x00004bd4                Chip_Clock_GetMainClockRate
 .text.Chip_Clock_GetSystemClockRate
                0x00004bf4       0x12 ./build/\libLPCCore.a(clock_17xx_40xx.o)
                0x00004bf4                Chip_Clock_GetSystemClockRate
 .text.Chip_Clock_GetPeripheralClockRate
                0x00004c06       0x16 ./build/\libLPCCore.a(clock_17xx_40xx.o)
                0x00004c06                Chip_Clock_GetPeripheralClockRate
 .text.iap_entry
                0x00004c1c        0x8 ./build/\libLPCCore.a(iap.o)
 .text.Chip_IAP_PreSectorForReadWrite
                0x00004c24       0x1e ./build/\libLPCCore.a(iap.o)
                0x00004c24                Chip_IAP_PreSectorForReadWrite
 *fill*         0x00004c42        0x2 
 .text.Chip_IAP_CopyRamToFlash
                0x00004c44       0x34 ./build/\libLPCCore.a(iap.o)
                0x00004c44                Chip_IAP_CopyRamToFlash
 .text.Chip_IAP_EraseSector
                0x00004c78       0x30 ./build/\libLPCCore.a(iap.o)
                0x00004c78                Chip_IAP_EraseSector
 .text.Chip_IAP_ReadPID
                0x00004ca8       0x18 ./build/\libLPCCore.a(iap.o)
                0x00004ca8                Chip_IAP_ReadPID
 .text._Z12AnalogInInitv
                0x00004cc0       0x58 ./build/\libLPCCore.a(AnalogIn.o)
                0x00004cc0                AnalogInInit()
 .text._Z21ConfigureADCPreFilterb
                0x00004d18       0x18 ./build/\libLPCCore.a(AnalogIn.o)
                0x00004d18                ConfigureADCPreFilter(bool)
 .text._Z21AnalogInEnableChannel19AnalogChannelNumberb
                0x00004d30       0x6c ./build/\libLPCCore.a(AnalogIn.o)
                0x00004d30                AnalogInEnableChannel(AnalogChannelNumber, bool)
 .text._Z19AnalogInReadChannel19AnalogChannelNumber
                0x00004d9c      0x25c ./build/\libLPCCore.a(AnalogIn.o)
                0x00004d9c                AnalogInReadChannel(AnalogChannelNumber)
 .text._Z23AnalogInStartConversionm
                0x00004ff8        0x2 ./build/\libLPCCore.a(AnalogIn.o)
                0x00004ff8                AnalogInStartConversion(unsigned long)
 *fill*         0x00004ffa        0x2 
 .text._Z15PinToAdcChannelm
                0x00004ffc       0x10 ./build/\libLPCCore.a(AnalogIn.o)
                0x00004ffc                PinToAdcChannel(unsigned long)
 .text.startup._GLOBAL__sub_I_ADCNotReadyCnt
                0x0000500c        0xc ./build/\libLPCCore.a(AnalogIn.o)
 .text._Z13AnalogOutInitv
                0x00005018        0x2 ./build/\libLPCCore.a(AnalogOut.o)
                0x00005018                AnalogOutInit()
 .text._Z9AnalogOut11gpioPins_etft
                0x0000501a       0x6c ./build/\libLPCCore.a(AnalogOut.o)
                0x0000501a                AnalogOut(gpioPins_et, float, unsigned short)
 .text._Z12IsPwmCapable11gpioPins_et
                0x00005086        0xc ./build/\libLPCCore.a(AnalogOut.o)
                0x00005086                IsPwmCapable(gpioPins_et)
 .text._Z18ConfigurePinForPWM11gpioPins_etb
                0x00005092        0x4 ./build/\libLPCCore.a(AnalogOut.o)
                0x00005092                ConfigurePinForPWM(gpioPins_et, bool)
 .text._Z13ReleasePWMPin11gpioPins_et
                0x00005096        0x4 ./build/\libLPCCore.a(AnalogOut.o)
                0x00005096                ReleasePWMPin(gpioPins_et)
 *fill*         0x0000509a        0x2 
 .text._Z7PWM_Set11gpioPins_etm
                0x0000509c       0xb0 ./build/\libLPCCore.a(AnalogOutServo.o)
                0x0000509c                PWM_Set(gpioPins_et, unsigned long)
 .text._Z9PWM_Clear11gpioPins_et
                0x0000514c       0x64 ./build/\libLPCCore.a(AnalogOutServo.o)
                0x0000514c                PWM_Clear(gpioPins_et)
 .text._Z16AnalogWriteHWPWMRK14PinDescriptionft11gpioPins_et
                0x000051b0       0x94 ./build/\libLPCCore.a(AnalogOutServo.o)
                0x000051b0                AnalogWriteHWPWM(PinDescription const&, float, unsigned short, gpioPins_et)
 .text._Z15ReleaseHWPWMPin11gpioPins_et
                0x00005244       0x2c ./build/\libLPCCore.a(AnalogOutServo.o)
                0x00005244                ReleaseHWPWMPin(gpioPins_et)
 .text._Z10CanDoHWPWM11gpioPins_et
                0x00005270       0x30 ./build/\libLPCCore.a(AnalogOutServo.o)
                0x00005270                CanDoHWPWM(gpioPins_et)
 .text._Z20ConfigurePinForHWPWM11gpioPins_etb
                0x000052a0       0x3c ./build/\libLPCCore.a(AnalogOutServo.o)
                0x000052a0                ConfigurePinForHWPWM(gpioPins_et, bool)
 .text._Z14IsServoCapable11gpioPins_et
                0x000052dc       0x22 ./build/\libLPCCore.a(AnalogOutServo.o)
                0x000052dc                IsServoCapable(gpioPins_et)
 .text._Z15ReleaseServoPin11gpioPins_et
                0x000052fe       0x16 ./build/\libLPCCore.a(AnalogOutServo.o)
                0x000052fe                ReleaseServoPin(gpioPins_et)
 .text._Z20ConfigurePinForServo11gpioPins_etb
                0x00005314       0x26 ./build/\libLPCCore.a(AnalogOutServo.o)
                0x00005314                ConfigurePinForServo(gpioPins_et, bool)
 *fill*         0x0000533a        0x2 
 .text._Z16AnalogWriteServoft11gpioPins_et
                0x0000533c       0x38 ./build/\libLPCCore.a(AnalogOutServo.o)
                0x0000533c                AnalogWriteServo(float, unsigned short, gpioPins_et)
 .text._Z16CanDoSoftwarePWM11gpioPins_et
                0x00005374       0x1c ./build/\libLPCCore.a(AnalogOutSoftwarePWM.o)
                0x00005374                CanDoSoftwarePWM(gpioPins_et)
 .text._Z26ConfigurePinForSoftwarePWM11gpioPins_et
                0x00005390       0x5c ./build/\libLPCCore.a(AnalogOutSoftwarePWM.o)
                0x00005390                ConfigurePinForSoftwarePWM(gpioPins_et)
 .text._Z21ReleaseSoftwarePWMPin11gpioPins_et
                0x000053ec       0x60 ./build/\libLPCCore.a(AnalogOutSoftwarePWM.o)
                0x000053ec                ReleaseSoftwarePWMPin(gpioPins_et)
 .text._Z22AnalogWriteSoftwarePWMft11gpioPins_et
                0x0000544c       0x64 ./build/\libLPCCore.a(AnalogOutSoftwarePWM.o)
                0x0000544c                AnalogWriteSoftwarePWM(float, unsigned short, gpioPins_et)
 .text._Znwj    0x000054b0       0x18 ./build/\libLPCCore.a(new.o)
                0x000054b0                operator new(unsigned int)
 .text._Znaj    0x000054c8        0x4 ./build/\libLPCCore.a(new.o)
                0x000054c8                operator new[](unsigned int)
 .text._ZdlPvj  0x000054cc        0x4 ./build/\libLPCCore.a(new.o)
                0x000054cc                operator delete(void*, unsigned int)
 .text.GPIO_PinInputMode
                0x000054d0      0x3c4 ./build/\libLPCCore.a(wiring_digital.o)
                0x000054d0                GPIO_PinInputMode
 .text.pinModeDuet
                0x00005894       0xa6 ./build/\libLPCCore.a(wiring_digital.o)
                0x00005894                pinModeDuet
 .text.digitalWrite
                0x0000593a        0xa ./build/\libLPCCore.a(wiring_digital.o)
                0x0000593a                digitalWrite
 .text.digitalRead
                0x00005944       0x16 ./build/\libLPCCore.a(wiring_digital.o)
                0x00005944                digitalRead
 .text._ZN11SoftwarePWMC2E11gpioPins_et
                0x0000595a       0x38 ./build/\libLPCCore.a(SoftwarePWM.o)
                0x0000595a                SoftwarePWM::SoftwarePWM(gpioPins_et)
                0x0000595a                SoftwarePWM::SoftwarePWM(gpioPins_et)
 *fill*         0x00005992        0x2 
 .text._ZN11SoftwarePWM11AttachTimerEv
                0x00005994       0x24 ./build/\libLPCCore.a(SoftwarePWM.o)
                0x00005994                SoftwarePWM::AttachTimer()
 .text._ZN11SoftwarePWM12ReleaseTimerEv
                0x000059b8       0x1c ./build/\libLPCCore.a(SoftwarePWM.o)
                0x000059b8                SoftwarePWM::ReleaseTimer()
 .text._ZN11SoftwarePWM6EnableEv
                0x000059d4        0x8 ./build/\libLPCCore.a(SoftwarePWM.o)
                0x000059d4                SoftwarePWM::Enable()
 .text._ZN11SoftwarePWM7DisableEv
                0x000059dc       0x1a ./build/\libLPCCore.a(SoftwarePWM.o)
                0x000059dc                SoftwarePWM::Disable()
 *fill*         0x000059f6        0x2 
 .text._ZN11SoftwarePWM11AnalogWriteEft11gpioPins_et
                0x000059f8       0xb0 ./build/\libLPCCore.a(SoftwarePWM.o)
                0x000059f8                SoftwarePWM::AnalogWrite(float, unsigned short, gpioPins_et)
 .text._ZL12updateActivev
                0x00005aa8       0x78 ./build/\libLPCCore.a(SoftwarePWMTimer.o)
 .text._ZN16SoftwarePWMTimerC2Ev
                0x00005b20       0x68 ./build/\libLPCCore.a(SoftwarePWMTimer.o)
                0x00005b20                SoftwarePWMTimer::SoftwarePWMTimer()
                0x00005b20                SoftwarePWMTimer::SoftwarePWMTimer()
 .text._Z7syncAllv
                0x00005b88       0x48 ./build/\libLPCCore.a(SoftwarePWMTimer.o)
                0x00005b88                syncAll()
 .text._ZN16SoftwarePWMTimer7disableEi
                0x00005bd0       0x14 ./build/\libLPCCore.a(SoftwarePWMTimer.o)
                0x00005bd0                SoftwarePWMTimer::disable(int)
 .text._ZN16SoftwarePWMTimer6enableEP11SoftwarePWMmm
                0x00005be4       0x68 ./build/\libLPCCore.a(SoftwarePWMTimer.o)
                0x00005be4                SoftwarePWMTimer::enable(SoftwarePWM*, unsigned long, unsigned long)
 .text._ZN16SoftwarePWMTimer15adjustOnOffTimeEimm
                0x00005c4c       0x38 ./build/\libLPCCore.a(SoftwarePWMTimer.o)
                0x00005c4c                SoftwarePWMTimer::adjustOnOffTime(int, unsigned long, unsigned long)
 .text.hot.RIT_IRQHandler
                0x00005c84      0x164 ./build/\libLPCCore.a(SoftwarePWMTimer.o)
                0x00005c84                RIT_IRQHandler
 .text._ZN16SoftwarePWMTimer11DiagnosticsE11MessageType
                0x00005de8      0x14c ./build/\libLPCCore.a(SoftwarePWMTimer.o)
                0x00005de8                SoftwarePWMTimer::Diagnostics(MessageType)
 .text.startup._GLOBAL__sub_I_pwmInts
                0x00005f34        0xc ./build/\libLPCCore.a(SoftwarePWMTimer.o)
 .text.prvIdleTask
                0x00005f40       0x5c ./build/\libLPCCore.a(tasks.o)
 .text.prvResetNextTaskUnblockTime
                0x00005f9c       0x24 ./build/\libLPCCore.a(tasks.o)
 .text.prvAddCurrentTaskToDelayedList
                0x00005fc0       0x8c ./build/\libLPCCore.a(tasks.o)
 .text.xTaskCreateStatic
                0x0000604c      0x200 ./build/\libLPCCore.a(tasks.o)
                0x0000604c                xTaskCreateStatic
 .text.vTaskDelete
                0x0000624c       0xc8 ./build/\libLPCCore.a(tasks.o)
                0x0000624c                vTaskDelete
 .text.eTaskGetState
                0x00006314       0x80 ./build/\libLPCCore.a(tasks.o)
                0x00006314                eTaskGetState
 .text.vTaskStartScheduler
                0x00006394       0x6c ./build/\libLPCCore.a(tasks.o)
                0x00006394                vTaskStartScheduler
 .text.vTaskSuspendAll
                0x00006400       0x10 ./build/\libLPCCore.a(tasks.o)
                0x00006400                vTaskSuspendAll
 .text.xTaskGetTickCount
                0x00006410        0xc ./build/\libLPCCore.a(tasks.o)
                0x00006410                xTaskGetTickCount
 .text.pcTaskGetName
                0x0000641c       0x24 ./build/\libLPCCore.a(tasks.o)
                0x0000641c                pcTaskGetName
 .text.xTaskIncrementTick
                0x00006440      0x130 ./build/\libLPCCore.a(tasks.o)
                0x00006440                xTaskIncrementTick
 .text.xTaskResumeAll
                0x00006570       0xe8 ./build/\libLPCCore.a(tasks.o)
                0x00006570                xTaskResumeAll
 .text.vTaskDelayUntil
                0x00006658       0x80 ./build/\libLPCCore.a(tasks.o)
                0x00006658                vTaskDelayUntil
 .text.vTaskDelay
                0x000066d8       0x4c ./build/\libLPCCore.a(tasks.o)
                0x000066d8                vTaskDelay
 .text.vTaskSwitchContext
                0x00006724       0xa4 ./build/\libLPCCore.a(tasks.o)
                0x00006724                vTaskSwitchContext
 .text.vTaskSuspend
                0x000067c8       0xd4 ./build/\libLPCCore.a(tasks.o)
                0x000067c8                vTaskSuspend
 .text.vTaskPlaceOnEventList
                0x0000689c       0x34 ./build/\libLPCCore.a(tasks.o)
                0x0000689c                vTaskPlaceOnEventList
 .text.xTaskRemoveFromEventList
                0x000068d0       0x80 ./build/\libLPCCore.a(tasks.o)
                0x000068d0                xTaskRemoveFromEventList
 .text.vTaskInternalSetTimeOutState
                0x00006950       0x18 ./build/\libLPCCore.a(tasks.o)
                0x00006950                vTaskInternalSetTimeOutState
 .text.xTaskCheckForTimeOut
                0x00006968       0x6c ./build/\libLPCCore.a(tasks.o)
                0x00006968                xTaskCheckForTimeOut
 .text.vTaskMissedYield
                0x000069d4        0xc ./build/\libLPCCore.a(tasks.o)
                0x000069d4                vTaskMissedYield
 .text.xTaskGetCurrentTaskHandle
                0x000069e0        0xc ./build/\libLPCCore.a(tasks.o)
                0x000069e0                xTaskGetCurrentTaskHandle
 .text.xTaskGetSchedulerState
                0x000069ec       0x20 ./build/\libLPCCore.a(tasks.o)
                0x000069ec                xTaskGetSchedulerState
 .text.xTaskPriorityInherit
                0x00006a0c       0x98 ./build/\libLPCCore.a(tasks.o)
                0x00006a0c                xTaskPriorityInherit
 .text.xTaskPriorityDisinherit
                0x00006aa4       0x98 ./build/\libLPCCore.a(tasks.o)
                0x00006aa4                xTaskPriorityDisinherit
 .text.vTaskPriorityDisinheritAfterTimeout
                0x00006b3c       0xa4 ./build/\libLPCCore.a(tasks.o)
                0x00006b3c                vTaskPriorityDisinheritAfterTimeout
 .text.pvTaskIncrementMutexHeldCount
                0x00006be0       0x18 ./build/\libLPCCore.a(tasks.o)
                0x00006be0                pvTaskIncrementMutexHeldCount
 .text.ulTaskNotifyTake
                0x00006bf8       0x64 ./build/\libLPCCore.a(tasks.o)
                0x00006bf8                ulTaskNotifyTake
 .text.xTaskGenericNotify
                0x00006c5c       0xd4 ./build/\libLPCCore.a(tasks.o)
                0x00006c5c                xTaskGenericNotify
 .text.vTaskNotifyGiveFromISR
                0x00006d30       0xb8 ./build/\libLPCCore.a(tasks.o)
                0x00006d30                vTaskNotifyGiveFromISR
 .text.CheckSPCurrentTaskStack
                0x00006de8       0x28 ./build/\libLPCCore.a(tasks.o)
                0x00006de8                CheckSPCurrentTaskStack
 .text.vTaskGetInfo
                0x00006e10       0x78 ./build/\libLPCCore.a(tasks.o)
                0x00006e10                vTaskGetInfo
 .text.prvPortStartFirstTask
                0x00006e88       0x20 ./build/\libLPCCore.a(port.o)
 .text.prvTaskExitError
                0x00006ea8       0x3c ./build/\libLPCCore.a(port.o)
 .text.pxPortInitialiseStack
                0x00006ee4       0x24 ./build/\libLPCCore.a(port.o)
                0x00006ee4                pxPortInitialiseStack
 *fill*         0x00006f08        0x8 
 .text.SVC_Handler
                0x00006f10       0x24 ./build/\libLPCCore.a(port.o)
                0x00006f10                SVC_Handler
 .text.vPortEnterCritical
                0x00006f34       0x40 ./build/\libLPCCore.a(port.o)
                0x00006f34                vPortEnterCritical
 .text.vPortExitCritical
                0x00006f74       0x28 ./build/\libLPCCore.a(port.o)
                0x00006f74                vPortExitCritical
 *fill*         0x00006f9c        0x4 
 .text.PendSV_Handler
                0x00006fa0       0x44 ./build/\libLPCCore.a(port.o)
                0x00006fa0                PendSV_Handler
 .text.SysTick_Handler
                0x00006fe4       0x2c ./build/\libLPCCore.a(port.o)
                0x00006fe4                SysTick_Handler
 .text.vPortSetupTimerInterrupt
                0x00007010       0x34 ./build/\libLPCCore.a(port.o)
                0x00007010                vPortSetupTimerInterrupt
 .text.xPortStartScheduler
                0x00007044       0xb0 ./build/\libLPCCore.a(port.o)
                0x00007044                xPortStartScheduler
 .text.vPortValidateInterruptPriority
                0x000070f4       0x54 ./build/\libLPCCore.a(port.o)
                0x000070f4                vPortValidateInterruptPriority
 .text.bb_alias_sram_dword
                0x00007148       0x1c ./build/\libLPCCore.a(gpio.o)
                0x00007148                bb_alias_sram_dword
 .text.bb_alias_periph_dword
                0x00007164       0x1c ./build/\libLPCCore.a(gpio.o)
                0x00007164                bb_alias_periph_dword
 .text.GPIO_PinFunction
                0x00007180       0x48 ./build/\libLPCCore.a(gpio.o)
                0x00007180                GPIO_PinFunction
 .text.GPIO_PinDirection
                0x000071c8       0x20 ./build/\libLPCCore.a(gpio.o)
                0x000071c8                GPIO_PinDirection
 .text.GPIO_PinWrite
                0x000071e8       0x1e ./build/\libLPCCore.a(gpio.o)
                0x000071e8                GPIO_PinWrite
 .text.GPIO_PinRead
                0x00007206       0x1c ./build/\libLPCCore.a(gpio.o)
                0x00007206                GPIO_PinRead
 *fill*         0x00007222        0x2 
 .text.Chip_ADC_Init
                0x00007224       0x48 ./build/\libLPCCore.a(adc_17xx_40xx.o)
                0x00007224                Chip_ADC_Init
 .text.Chip_ADC_DeInit
                0x0000726c       0x10 ./build/\libLPCCore.a(adc_17xx_40xx.o)
                0x0000726c                Chip_ADC_DeInit
 .text.Chip_ADC_ReadValue
                0x0000727c       0x16 ./build/\libLPCCore.a(adc_17xx_40xx.o)
                0x0000727c                Chip_ADC_ReadValue
 .text.Chip_ADC_SetSampleRate
                0x00007292       0x30 ./build/\libLPCCore.a(adc_17xx_40xx.o)
                0x00007292                Chip_ADC_SetSampleRate
 .text.Chip_ADC_SetBurstCmd
                0x000072c2       0x1a ./build/\libLPCCore.a(adc_17xx_40xx.o)
                0x000072c2                Chip_ADC_SetBurstCmd
 .text._ZN12ADCPreFilter14UpdateChannelsEh
                0x000072dc       0x1c ./build/\libLPCCore.a(ADCPreFilter.o)
                0x000072dc                ADCPreFilter::UpdateChannels(unsigned char)
 .text._ZN12ADCPreFilter13PrepareAdcDmaEv
                0x000072f8       0x5c ./build/\libLPCCore.a(ADCPreFilter.o)
                0x000072f8                ADCPreFilter::PrepareAdcDma()
 .text._ZN12ADCPreFilter4InitEv
                0x00007354       0x2c ./build/\libLPCCore.a(ADCPreFilter.o)
                0x00007354                ADCPreFilter::Init()
 .text._ZL19checkAndCallHandlerm20LPC175X_6X_IRQn_Type
                0x00007380       0x44 ./build/\libLPCCore.a(DMA.o)
 .text._Z13InitialiseDMAv
                0x000073c4       0x6c ./build/\libLPCCore.a(DMA.o)
                0x000073c4                InitialiseDMA()
 .text._Z19DMAGetChannelNumber13DMA_Channel_t
                0x00007430        0xc ./build/\libLPCCore.a(DMA.o)
                0x00007430                DMAGetChannelNumber(DMA_Channel_t)
 .text._Z32AttachDMAChannelInterruptHandlerPFvvE13DMA_Channel_t
                0x0000743c        0xc ./build/\libLPCCore.a(DMA.o)
                0x0000743c                AttachDMAChannelInterruptHandler(void (*)(), DMA_Channel_t)
 .text.DMA_IRQHandler
                0x00007448       0x36 ./build/\libLPCCore.a(DMA.o)
                0x00007448                DMA_IRQHandler
 *fill*         0x0000747e        0x2 
 .text._Z16SspDmaRxTransfer13DMA_Channel_tPKvm19DMA_TransferWidth_t
                0x00007480       0x80 ./build/\libLPCCore.a(DMA.o)
                0x00007480                SspDmaRxTransfer(DMA_Channel_t, void const*, unsigned long, DMA_TransferWidth_t)
 .text._Z16SspDmaTxTransfer13DMA_Channel_tPKvm19DMA_TransferWidth_t
                0x00007500       0x80 ./build/\libLPCCore.a(DMA.o)
                0x00007500                SspDmaTxTransfer(DMA_Channel_t, void const*, unsigned long, DMA_TransferWidth_t)
 .text._Z18SspDmaRxTransferNI13DMA_Channel_tPKvm19DMA_TransferWidth_t
                0x00007580       0x80 ./build/\libLPCCore.a(DMA.o)
                0x00007580                SspDmaRxTransferNI(DMA_Channel_t, void const*, unsigned long, DMA_TransferWidth_t)
 .text._Z18SspDmaTxTransferNI13DMA_Channel_tPKvm19DMA_TransferWidth_t
                0x00007600       0x80 ./build/\libLPCCore.a(DMA.o)
                0x00007600                SspDmaTxTransferNI(DMA_Channel_t, void const*, unsigned long, DMA_TransferWidth_t)
 .text.vListInitialise
                0x00007680       0x16 ./build/\libLPCCore.a(list.o)
                0x00007680                vListInitialise
 .text.vListInitialiseItem
                0x00007696        0x6 ./build/\libLPCCore.a(list.o)
                0x00007696                vListInitialiseItem
 .text.vListInsertEnd
                0x0000769c       0x18 ./build/\libLPCCore.a(list.o)
                0x0000769c                vListInsertEnd
 .text.vListInsert
                0x000076b4       0x2e ./build/\libLPCCore.a(list.o)
                0x000076b4                vListInsert
 .text.uxListRemove
                0x000076e2       0x20 ./build/\libLPCCore.a(list.o)
                0x000076e2                uxListRemove
 *fill*         0x00007702        0x2 
 .text.Chip_GPDMA_Init
                0x00007704       0x4c ./build/\libLPCCore.a(gpdma_17xx_40xx.o)
                0x00007704                Chip_GPDMA_Init
 .text.Chip_GPDMA_Interrupt
                0x00007750       0x2c ./build/\libLPCCore.a(gpdma_17xx_40xx.o)
                0x00007750                Chip_GPDMA_Interrupt
 .text.Chip_GPDMA_ChannelCmd
                0x0000777c       0x1a ./build/\libLPCCore.a(gpdma_17xx_40xx.o)
                0x0000777c                Chip_GPDMA_ChannelCmd
 *fill*         0x00007796        0x2 
 .text.Chip_GPDMA_GetFreeChannel
                0x00007798       0x30 ./build/\libLPCCore.a(gpdma_17xx_40xx.o)
                0x00007798                Chip_GPDMA_GetFreeChannel
 .text.ld_dword
                0x000077c8       0x10 ./build/./RepRapFirmware/src/targets/common/FatFS/ff.o
 .text.st_dword
                0x000077d8       0x10 ./build/./RepRapFirmware/src/targets/common/FatFS/ff.o
 .text.clst2sect
                0x000077e8       0x16 ./build/./RepRapFirmware/src/targets/common/FatFS/ff.o
 .text.sum_sfn  0x000077fe       0x1e ./build/./RepRapFirmware/src/targets/common/FatFS/ff.o
 .text.get_ldnumber
                0x0000781c       0x3a ./build/./RepRapFirmware/src/targets/common/FatFS/ff.o
 .text.ld_clust.isra.3
                0x00007856       0x1c ./build/./RepRapFirmware/src/targets/common/FatFS/ff.o
 .text.st_clust.isra.4
                0x00007872       0x18 ./build/./RepRapFirmware/src/targets/common/FatFS/ff.o
 .text.sync_window
                0x0000788a       0x44 ./build/./RepRapFirmware/src/targets/common/FatFS/ff.o
 .text.move_window
                0x000078ce       0x36 ./build/./RepRapFirmware/src/targets/common/FatFS/ff.o
 .text.check_fs
                0x00007904       0x70 ./build/./RepRapFirmware/src/targets/common/FatFS/ff.o
 .text.find_volume
                0x00007974      0x2c0 ./build/./RepRapFirmware/src/targets/common/FatFS/ff.o
 .text.put_fat  0x00007c34       0xf8 ./build/./RepRapFirmware/src/targets/common/FatFS/ff.o
 .text.get_fat.isra.10
                0x00007d2c       0xb4 ./build/./RepRapFirmware/src/targets/common/FatFS/ff.o
 .text.dir_sdi  0x00007de0       0x82 ./build/./RepRapFirmware/src/targets/common/FatFS/ff.o
 .text.create_chain
                0x00007e62       0xe8 ./build/./RepRapFirmware/src/targets/common/FatFS/ff.o
 .text.remove_chain
                0x00007f4a       0x6e ./build/./RepRapFirmware/src/targets/common/FatFS/ff.o
 .text.unlock_fs
                0x00007fb8       0x16 ./build/./RepRapFirmware/src/targets/common/FatFS/ff.o
 .text.validate
                0x00007fce       0x4c ./build/./RepRapFirmware/src/targets/common/FatFS/ff.o
 .text.dir_clear
                0x0000801a       0x52 ./build/./RepRapFirmware/src/targets/common/FatFS/ff.o
 .text.dir_next
                0x0000806c       0xaa ./build/./RepRapFirmware/src/targets/common/FatFS/ff.o
 *fill*         0x00008116        0x2 
 .text.dir_find
                0x00008118      0x148 ./build/./RepRapFirmware/src/targets/common/FatFS/ff.o
 .text.dir_register
                0x00008260      0x28c ./build/./RepRapFirmware/src/targets/common/FatFS/ff.o
 .text.sync_fs  0x000084ec       0x96 ./build/./RepRapFirmware/src/targets/common/FatFS/ff.o
 *fill*         0x00008582        0x2 
 .text.follow_path
                0x00008584      0x31c ./build/./RepRapFirmware/src/targets/common/FatFS/ff.o
 .text.f_mount  0x000088a0       0x70 ./build/./RepRapFirmware/src/targets/common/FatFS/ff.o
                0x000088a0                f_mount
 .text.f_open   0x00008910      0x1a2 ./build/./RepRapFirmware/src/targets/common/FatFS/ff.o
                0x00008910                f_open
 .text.f_read   0x00008ab2      0x148 ./build/./RepRapFirmware/src/targets/common/FatFS/ff.o
                0x00008ab2                f_read
 .text.f_write  0x00008bfa      0x1a4 ./build/./RepRapFirmware/src/targets/common/FatFS/ff.o
                0x00008bfa                f_write
 .text.f_sync   0x00008d9e       0x74 ./build/./RepRapFirmware/src/targets/common/FatFS/ff.o
                0x00008d9e                f_sync
 .text.f_close  0x00008e12       0x28 ./build/./RepRapFirmware/src/targets/common/FatFS/ff.o
                0x00008e12                f_close
 .text.f_lseek  0x00008e3a      0x11e ./build/./RepRapFirmware/src/targets/common/FatFS/ff.o
                0x00008e3a                f_lseek
 .text.ff_uni2oem
                0x00008f58       0x40 ./build/./RepRapFirmware/src/targets/common/FatFS/ffunicode.o
                0x00008f58                ff_uni2oem
 .text.ff_wtoupper
                0x00008f98       0x8c ./build/./RepRapFirmware/src/targets/common/FatFS/ffunicode.o
                0x00008f98                ff_wtoupper
 .text._ZNSt14_Function_base13_Base_managerIZN12OutputBuffer5vcatfEPKcSt9__va_listEUlcE_E10_M_managerERSt9_Any_dataRKS7_St18_Manager_operation
                0x00009024       0x16 ./build/./RepRapFirmware/src/OutputMemory.o
 .text._ZN9RTOSIface24LeaveTaskCriticalSectionEv
                0x0000903a        0xe ./build/./RepRapFirmware/src/OutputMemory.o
                0x0000903a                RTOSIface::LeaveTaskCriticalSection()
 .text._ZN12OutputBuffer18IncreaseReferencesEj
                0x00009048       0x28 ./build/./RepRapFirmware/src/OutputMemory.o
                0x00009048                OutputBuffer::IncreaseReferences(unsigned int)
 .text._ZNK12OutputBuffer6LengthEv
                0x00009070       0x12 ./build/./RepRapFirmware/src/OutputMemory.o
                0x00009070                OutputBuffer::Length() const
 .text._ZN12OutputBufferixEj
                0x00009082       0x14 ./build/./RepRapFirmware/src/OutputMemory.o
                0x00009082                OutputBuffer::operator[](unsigned int)
 .text._ZN12OutputBuffer4ReadEj
                0x00009096       0x10 ./build/./RepRapFirmware/src/OutputMemory.o
                0x00009096                OutputBuffer::Read(unsigned int)
 *fill*         0x000090a6        0x2 
 .text._ZN12OutputBuffer5vcatfEPKcSt9__va_list
                0x000090a8       0x30 ./build/./RepRapFirmware/src/OutputMemory.o
                0x000090a8                OutputBuffer::vcatf(char const*, std::__va_list)
 .text._ZN12OutputBuffer4catfEPKcz
                0x000090d8       0x1a ./build/./RepRapFirmware/src/OutputMemory.o
                0x000090d8                OutputBuffer::catf(char const*, ...)
 *fill*         0x000090f2        0x2 
 .text._ZN12OutputBuffer4InitEv
                0x000090f4       0x24 ./build/./RepRapFirmware/src/OutputMemory.o
                0x000090f4                OutputBuffer::Init()
 .text._ZN12OutputBuffer8AllocateERPS_
                0x00009118       0x84 ./build/./RepRapFirmware/src/OutputMemory.o
                0x00009118                OutputBuffer::Allocate(OutputBuffer*&)
 .text._ZN12OutputBuffer3catEPKcj
                0x0000919c       0x84 ./build/./RepRapFirmware/src/OutputMemory.o
                0x0000919c                OutputBuffer::cat(char const*, unsigned int)
 .text._ZN12OutputBuffer3catEPKc
                0x00009220       0x1a ./build/./RepRapFirmware/src/OutputMemory.o
                0x00009220                OutputBuffer::cat(char const*)
 *fill*         0x0000923a        0x2 
 .text._ZN12OutputBuffer7ReleaseEPS_
                0x0000923c       0x44 ./build/./RepRapFirmware/src/OutputMemory.o
                0x0000923c                OutputBuffer::Release(OutputBuffer*)
 .text._ZN12OutputBuffer10ReleaseAllERVPS_
                0x00009280       0x14 ./build/./RepRapFirmware/src/OutputMemory.o
                0x00009280                OutputBuffer::ReleaseAll(OutputBuffer* volatile&)
 .text._ZN12OutputBuffer5ClearEv
                0x00009294       0x16 ./build/./RepRapFirmware/src/OutputMemory.o
                0x00009294                OutputBuffer::Clear()
 .text._ZN12OutputBuffer7vprintfEPKcSt9__va_list
                0x000092aa       0x1a ./build/./RepRapFirmware/src/OutputMemory.o
                0x000092aa                OutputBuffer::vprintf(char const*, std::__va_list)
 .text._ZN12OutputBuffer6printfEPKcz
                0x000092c4       0x1a ./build/./RepRapFirmware/src/OutputMemory.o
                0x000092c4                OutputBuffer::printf(char const*, ...)
 .text._ZN12OutputBuffer4copyEc
                0x000092de       0x14 ./build/./RepRapFirmware/src/OutputMemory.o
                0x000092de                OutputBuffer::copy(char)
 .text._ZN12OutputBuffer3catEc
                0x000092f2       0x5c ./build/./RepRapFirmware/src/OutputMemory.o
                0x000092f2                OutputBuffer::cat(char)
 .text._ZNSt17_Function_handlerIFbcEZN12OutputBuffer5vcatfEPKcSt9__va_listEUlcE_E9_M_invokeERKSt9_Any_dataOc
                0x0000934e       0x18 ./build/./RepRapFirmware/src/OutputMemory.o
 .text._ZN12OutputBuffer5lcatfEPKcz
                0x00009366       0x42 ./build/./RepRapFirmware/src/OutputMemory.o
                0x00009366                OutputBuffer::lcatf(char const*, ...)
 .text._ZN12OutputBuffer10EncodeCharEc
                0x000093a8       0x48 ./build/./RepRapFirmware/src/OutputMemory.o
                0x000093a8                OutputBuffer::EncodeChar(char)
 .text._ZN12OutputBuffer12EncodeStringEPKcbb
                0x000093f0       0x4a ./build/./RepRapFirmware/src/OutputMemory.o
                0x000093f0                OutputBuffer::EncodeString(char const*, bool, bool)
 .text._ZN12OutputBuffer11EncodeReplyEPS_
                0x0000943a       0x50 ./build/./RepRapFirmware/src/OutputMemory.o
                0x0000943a                OutputBuffer::EncodeReply(OutputBuffer*)
 .text._ZN12OutputBuffer4lcatEPKcj
                0x0000948a       0x24 ./build/./RepRapFirmware/src/OutputMemory.o
                0x0000948a                OutputBuffer::lcat(char const*, unsigned int)
 .text._ZN12OutputBuffer4lcatEPKc
                0x000094ae       0x1a ./build/./RepRapFirmware/src/OutputMemory.o
                0x000094ae                OutputBuffer::lcat(char const*)
 .text._ZN12OutputBuffer4copyEPKcj
                0x000094c8       0x1a ./build/./RepRapFirmware/src/OutputMemory.o
                0x000094c8                OutputBuffer::copy(char const*, unsigned int)
 .text._ZN12OutputBuffer4copyEPKc
                0x000094e2       0x1a ./build/./RepRapFirmware/src/OutputMemory.o
                0x000094e2                OutputBuffer::copy(char const*)
 .text._ZN12OutputBuffer11DiagnosticsE11MessageType
                0x000094fc       0x34 ./build/./RepRapFirmware/src/OutputMemory.o
                0x000094fc                OutputBuffer::Diagnostics(MessageType)
 .text._ZNV11OutputStack4PushEP12OutputBuffer11MessageType
                0x00009530       0x60 ./build/./RepRapFirmware/src/OutputMemory.o
                0x00009530                OutputStack::Push(OutputBuffer*, MessageType) volatile
 .text._ZNV11OutputStack3PopEv
                0x00009590       0x3a ./build/./RepRapFirmware/src/OutputMemory.o
                0x00009590                OutputStack::Pop() volatile
 .text._ZNVK11OutputStack12GetFirstItemEv
                0x000095ca        0xc ./build/./RepRapFirmware/src/OutputMemory.o
                0x000095ca                OutputStack::GetFirstItem() const volatile
 .text._ZNVK11OutputStack16GetFirstItemTypeEv
                0x000095d6        0xe ./build/./RepRapFirmware/src/OutputMemory.o
                0x000095d6                OutputStack::GetFirstItemType() const volatile
 .text._ZNV11OutputStack12SetFirstItemEP12OutputBuffer
                0x000095e4       0x1e ./build/./RepRapFirmware/src/OutputMemory.o
                0x000095e4                OutputStack::SetFirstItem(OutputBuffer*) volatile
 .text._ZNV11OutputStack16ReleaseFirstItemEv
                0x00009602       0x22 ./build/./RepRapFirmware/src/OutputMemory.o
                0x00009602                OutputStack::ReleaseFirstItem() volatile
 .text._ZNV11OutputStack12ApplyTimeoutEm
                0x00009624       0x3a ./build/./RepRapFirmware/src/OutputMemory.o
                0x00009624                OutputStack::ApplyTimeout(unsigned long) volatile
 .text._ZNVK11OutputStack11GetLastItemEv
                0x0000965e       0x14 ./build/./RepRapFirmware/src/OutputMemory.o
                0x0000965e                OutputStack::GetLastItem() const volatile
 .text._ZNVK11OutputStack15GetLastItemTypeEv
                0x00009672       0x14 ./build/./RepRapFirmware/src/OutputMemory.o
                0x00009672                OutputStack::GetLastItemType() const volatile
 .text._ZNV11OutputStack10ReleaseAllEv
                0x00009686       0x1e ./build/./RepRapFirmware/src/OutputMemory.o
                0x00009686                OutputStack::ReleaseAll() volatile
 .text._ZN8PlatformUlPK11ObjectModelRK24ObjectExplorationContextE1_4_FUNES2_S5_
                0x000096a4        0x4 ./build/./RepRapFirmware/src/Platform.o
 .text._ZN8PlatformUlPK11ObjectModelR24ObjectExplorationContextE3_4_FUNES2_S4_
                0x000096a8       0x10 ./build/./RepRapFirmware/src/Platform.o
 .text._ZN8PlatformUlPK11ObjectModelR24ObjectExplorationContextE4_4_FUNES2_S4_
                0x000096b8       0x10 ./build/./RepRapFirmware/src/Platform.o
 .text._ZN8PlatformUlPK11ObjectModelR24ObjectExplorationContextE5_4_FUNES2_S4_
                0x000096c8       0x10 ./build/./RepRapFirmware/src/Platform.o
 .text._ZN8PlatformUlPK11ObjectModelR24ObjectExplorationContextE6_4_FUNES2_S4_
                0x000096d8       0x10 ./build/./RepRapFirmware/src/Platform.o
 .text._ZN8PlatformUlPK11ObjectModelR24ObjectExplorationContextE8_4_FUNES2_S4_
                0x000096e8       0x10 ./build/./RepRapFirmware/src/Platform.o
 .text._ZN8PlatformUlPK11ObjectModelR24ObjectExplorationContextE9_4_FUNES2_S4_
                0x000096f8        0xa ./build/./RepRapFirmware/src/Platform.o
 .text._ZN8PlatformUlPK11ObjectModelR24ObjectExplorationContextE10_4_FUNES2_S4_
                0x00009702        0xa ./build/./RepRapFirmware/src/Platform.o
 .text._ZN8PlatformUlPK11ObjectModelR24ObjectExplorationContextE11_4_FUNES2_S4_
                0x0000970c       0x1a ./build/./RepRapFirmware/src/Platform.o
 *fill*         0x00009726        0x2 
 .text._ZN8PlatformUlPK11ObjectModelR24ObjectExplorationContextE12_4_FUNES2_S4_
                0x00009728       0x10 ./build/./RepRapFirmware/src/Platform.o
 .text._ZN8PlatformUlPK11ObjectModelR24ObjectExplorationContextE13_4_FUNES2_S4_
                0x00009738       0x10 ./build/./RepRapFirmware/src/Platform.o
 .text._ZN8PlatformUlPK11ObjectModelR24ObjectExplorationContextE14_4_FUNES2_S4_
                0x00009748        0xa ./build/./RepRapFirmware/src/Platform.o
 .text._ZN8PlatformUlPK11ObjectModelR24ObjectExplorationContextE15_4_FUNES2_S4_
                0x00009752       0x1a ./build/./RepRapFirmware/src/Platform.o
 .text._ZN8PlatformUlPK11ObjectModelR24ObjectExplorationContextE19_4_FUNES2_S4_
                0x0000976c       0x10 ./build/./RepRapFirmware/src/Platform.o
 .text._ZN8PlatformUlPK11ObjectModelR24ObjectExplorationContextE26_4_FUNES2_S4_
                0x0000977c       0x1a ./build/./RepRapFirmware/src/Platform.o
 *fill*         0x00009796        0x2 
 .text._ZN8PlatformUlPK11ObjectModelR24ObjectExplorationContextE33_4_FUNES2_S4_
                0x00009798       0x10 ./build/./RepRapFirmware/src/Platform.o
 .text._ZN8PlatformUlPK11ObjectModelR24ObjectExplorationContextE40_4_FUNES2_S4_
                0x000097a8       0x1a ./build/./RepRapFirmware/src/Platform.o
 .text._ZN8PlatformUlPK11ObjectModelR24ObjectExplorationContextE41_4_FUNES2_S4_
                0x000097c2       0x1a ./build/./RepRapFirmware/src/Platform.o
 .text._ZNK8Platform29GetObjectModelClassDescriptorEv
                0x000097dc        0x8 ./build/./RepRapFirmware/src/Platform.o
                0x000097dc                Platform::GetObjectModelClassDescriptor() const
 .text._ZNSt14_Function_base13_Base_managerIZN8Platform13ReportDriversE11MessageTypeR6BitmapImEPKcRbEUljjE_E10_M_managerERSt9_Any_dataRKSB_St18_Manager_operation
                0x000097e4       0x16 ./build/./RepRapFirmware/src/Platform.o
 .text._ZNSt14_Function_base13_Base_managerIZN8Platform22DriverCoolingFansOnOffE6BitmapItEbEUljjE_E10_M_managerERSt9_Any_dataRKS6_St18_Manager_operation
                0x000097fa       0x1a ./build/./RepRapFirmware/src/Platform.o
 .text._ZNSt14_Function_base13_Base_managerIZN8Platform12SetDirectionEjbEUlhE_E10_M_managerERSt9_Any_dataRKS4_St18_Manager_operation
                0x00009814       0x1a ./build/./RepRapFirmware/src/Platform.o
 .text._ZNSt14_Function_base13_Base_managerIZN8Platform13EnableDriversEjEUlhE_E10_M_managerERSt9_Any_dataRKS4_St18_Manager_operation
                0x0000982e       0x1a ./build/./RepRapFirmware/src/Platform.o
 .text._ZNSt14_Function_base13_Base_managerIZN8Platform14DisableDriversEjEUlhE_E10_M_managerERSt9_Any_dataRKS4_St18_Manager_operation
                0x00009848       0x16 ./build/./RepRapFirmware/src/Platform.o
 .text._ZNSt14_Function_base13_Base_managerIZN8Platform14SetDriversIdleEvEUlhE_E10_M_managerERSt9_Any_dataRKS4_St18_Manager_operation
                0x0000985e       0x1a ./build/./RepRapFirmware/src/Platform.o
 .text._ZNSt14_Function_base13_Base_managerIZN8Platform20SetIdleCurrentFactorEfEUlhE_E10_M_managerERSt9_Any_dataRKS4_St18_Manager_operation
                0x00009878       0x1a ./build/./RepRapFirmware/src/Platform.o
 .text._ZNSt14_Function_base13_Base_managerIZN8Platform12DebugMessageEPKcSt9__va_listEUlcE_E10_M_managerERSt9_Any_dataRKS7_St18_Manager_operation
                0x00009892        0xa ./build/./RepRapFirmware/src/Platform.o
 .text._ZNSt17_Function_handlerIFvjEZN8Platform18SetPressureAdvanceEfR11GCodeBufferRK9StringRefEUljE_E9_M_invokeERKSt9_Any_dataOj
                0x0000989c       0x10 ./build/./RepRapFirmware/src/Platform.o
 .text._ZNSt14_Function_base13_Base_managerIZN8Platform18SetPressureAdvanceEfR11GCodeBufferRK9StringRefEUljE_E10_M_managerERSt9_Any_dataRKS9_St18_Manager_operation
                0x000098ac       0x1a ./build/./RepRapFirmware/src/Platform.o
 .text._ZNSt17_Function_handlerIFvhEZN8Platform23ConfigureStallDetectionER11GCodeBufferRK9StringRefRP12OutputBufferEUlhE_E9_M_invokeERKSt9_Any_dataOh
                0x000098c6       0x12 ./build/./RepRapFirmware/src/Platform.o
 .text._ZNSt14_Function_base13_Base_managerIZN8Platform23ConfigureStallDetectionER11GCodeBufferRK9StringRefRP12OutputBufferEUlhE_E10_M_managerERSt9_Any_dataRKSC_St18_Manager_operation
                0x000098d8       0x16 ./build/./RepRapFirmware/src/Platform.o
 .text._ZNSt14_Function_base13_Base_managerIZN8Platform23ConfigureStallDetectionER11GCodeBufferRK9StringRefRP12OutputBufferEUljjE0_E10_M_managerERSt9_Any_dataRKSC_St18_Manager_operation
                0x000098ee       0x16 ./build/./RepRapFirmware/src/Platform.o
 .text._ZNSt14_Function_base13_Base_managerIZN8Platform23ConfigureStallDetectionER11GCodeBufferRK9StringRefRP12OutputBufferEUljjE1_E10_M_managerERSt9_Any_dataRKSC_St18_Manager_operation
                0x00009904       0x16 ./build/./RepRapFirmware/src/Platform.o
 .text._ZNSt14_Function_base13_Base_managerIZN8Platform23ConfigureStallDetectionER11GCodeBufferRK9StringRefRP12OutputBufferEUljjE2_E10_M_managerERSt9_Any_dataRKSC_St18_Manager_operation
                0x0000991a       0x16 ./build/./RepRapFirmware/src/Platform.o
 .text._ZNSt14_Function_base13_Base_managerIZN8Platform23ConfigureStallDetectionER11GCodeBufferRK9StringRefRP12OutputBufferEUljjE3_E10_M_managerERSt9_Any_dataRKSC_St18_Manager_operation
                0x00009930       0x16 ./build/./RepRapFirmware/src/Platform.o
 .text._ZN8PlatformUlPK11ObjectModelRK24ObjectExplorationContextE_4_FUNES2_S5_
                0x00009946       0x12 ./build/./RepRapFirmware/src/Platform.o
 .text._ZN8PlatformUlPK11ObjectModelR24ObjectExplorationContextE49_4_FUNES2_S4_
                0x00009958       0x20 ./build/./RepRapFirmware/src/Platform.o
 .text._ZN8PlatformUlPK11ObjectModelR24ObjectExplorationContextE48_4_FUNES2_S4_
                0x00009978       0x20 ./build/./RepRapFirmware/src/Platform.o
 .text._ZN8PlatformUlPK11ObjectModelR24ObjectExplorationContextE47_4_FUNES2_S4_
                0x00009998       0x20 ./build/./RepRapFirmware/src/Platform.o
 .text._ZN8PlatformUlPK11ObjectModelR24ObjectExplorationContextE30_4_FUNES2_S4_
                0x000099b8       0x1e ./build/./RepRapFirmware/src/Platform.o
 .text._ZN8PlatformUlPK11ObjectModelR24ObjectExplorationContextE16_4_FUNES2_S4_
                0x000099d6       0x20 ./build/./RepRapFirmware/src/Platform.o
 .text._ZN8PlatformUlPK11ObjectModelR24ObjectExplorationContextE24_4_FUNES2_S4_
                0x000099f6       0x20 ./build/./RepRapFirmware/src/Platform.o
 .text._ZN8PlatformUlPK11ObjectModelR24ObjectExplorationContextE27_4_FUNES2_S4_
                0x00009a16       0x1e ./build/./RepRapFirmware/src/Platform.o
 .text._ZN8PlatformD2Ev
                0x00009a34       0x68 ./build/./RepRapFirmware/src/Platform.o
                0x00009a34                Platform::~Platform()
                0x00009a34                Platform::~Platform()
 .text._ZN8PlatformD0Ev
                0x00009a9c       0x16 ./build/./RepRapFirmware/src/Platform.o
                0x00009a9c                Platform::~Platform()
 *fill*         0x00009ab2        0x2 
 .text._ZL9TimedSqrtyRm
                0x00009ab4       0x40 ./build/./RepRapFirmware/src/Platform.o
 .text._ZNSt17_Function_handlerIFvjjEZN8Platform23ConfigureStallDetectionER11GCodeBufferRK9StringRefRP12OutputBufferEUljjE0_E9_M_invokeERKSt9_Any_dataOjSF_
                0x00009af4        0xa ./build/./RepRapFirmware/src/Platform.o
 .text._ZNSt17_Function_handlerIFvjjEZN8Platform23ConfigureStallDetectionER11GCodeBufferRK9StringRefRP12OutputBufferEUljjE1_E9_M_invokeERKSt9_Any_dataOjSF_
                0x00009afe        0xa ./build/./RepRapFirmware/src/Platform.o
 .text._ZNSt17_Function_handlerIFvjjEZN8Platform23ConfigureStallDetectionER11GCodeBufferRK9StringRefRP12OutputBufferEUljjE2_E9_M_invokeERKSt9_Any_dataOjSF_
                0x00009b08        0xa ./build/./RepRapFirmware/src/Platform.o
 *fill*         0x00009b12        0x2 
 .text._ZN8StepPinsL16CalcDriverBitmapEj
                0x00009b14       0x2c ./build/./RepRapFirmware/src/Platform.o
 .text._ZNSt17_Function_handlerIFvjjEZN8Platform23ConfigureStallDetectionER11GCodeBufferRK9StringRefRP12OutputBufferEUljjE3_E9_M_invokeERKSt9_Any_dataOjSF_
                0x00009b40        0xc ./build/./RepRapFirmware/src/Platform.o
 .text._ZNSt14_Function_base13_Base_managerIZN8Platform15SetMotorCurrentEjfiRK9StringRefEUlhE_E10_M_managerERSt9_Any_dataRKS7_St18_Manager_operation
                0x00009b4c       0x36 ./build/./RepRapFirmware/src/Platform.o
 .text._ZNSt14_Function_base13_Base_managerIZN8Platform16SetMicrosteppingEjibRK9StringRefEUlhE_E10_M_managerERSt9_Any_dataRKS7_St18_Manager_operation
                0x00009b82       0x3e ./build/./RepRapFirmware/src/Platform.o
 .text._ZNSt14_Function_base13_Base_managerIZN8Platform23ConfigureStallDetectionER11GCodeBufferRK9StringRefRP12OutputBufferEUljjE4_E10_M_managerERSt9_Any_dataRKSC_St18_Manager_operation
                0x00009bc0       0x36 ./build/./RepRapFirmware/src/Platform.o
 .text._ZNSt17_Function_handlerIFvjjEZN8Platform22DriverCoolingFansOnOffE6BitmapItEbEUljjE_E9_M_invokeERKSt9_Any_dataOjS9_
                0x00009bf6       0x18 ./build/./RepRapFirmware/src/Platform.o
 .text._ZN8PlatformUlPK11ObjectModelR24ObjectExplorationContextE52_4_FUNES2_S4_
                0x00009c0e       0x20 ./build/./RepRapFirmware/src/Platform.o
 .text._ZN8PlatformUlPK11ObjectModelR24ObjectExplorationContextE50_4_FUNES2_S4_
                0x00009c2e       0x1e ./build/./RepRapFirmware/src/Platform.o
 .text._ZN8PlatformUlPK11ObjectModelR24ObjectExplorationContextE46_4_FUNES2_S4_
                0x00009c4c       0x20 ./build/./RepRapFirmware/src/Platform.o
 .text._ZN8PlatformUlPK11ObjectModelR24ObjectExplorationContextE53_4_FUNES2_S4_
                0x00009c6c       0x22 ./build/./RepRapFirmware/src/Platform.o
 .text._ZN8PlatformUlPK11ObjectModelR24ObjectExplorationContextE51_4_FUNES2_S4_
                0x00009c8e       0x20 ./build/./RepRapFirmware/src/Platform.o
 .text._ZN8PlatformUlPK11ObjectModelR24ObjectExplorationContextE36_4_FUNES2_S4_
                0x00009cae       0x1c ./build/./RepRapFirmware/src/Platform.o
 .text._ZN8PlatformUlPK11ObjectModelR24ObjectExplorationContextE0_4_FUNES2_S4_
                0x00009cca       0x2c ./build/./RepRapFirmware/src/Platform.o
 .text._ZN8PlatformUlPK11ObjectModelR24ObjectExplorationContextE34_4_FUNES2_S4_
                0x00009cf6       0x22 ./build/./RepRapFirmware/src/Platform.o
 .text._ZN8PlatformUlPK11ObjectModelR24ObjectExplorationContextE45_4_FUNES2_S4_
                0x00009d18       0x2c ./build/./RepRapFirmware/src/Platform.o
 .text._ZN8PlatformUlPK11ObjectModelR24ObjectExplorationContextE29_4_FUNES2_S4_
                0x00009d44       0x28 ./build/./RepRapFirmware/src/Platform.o
 .text._ZN8PlatformUlPK11ObjectModelR24ObjectExplorationContextE39_4_FUNES2_S4_
                0x00009d6c       0x2c ./build/./RepRapFirmware/src/Platform.o
 .text._ZN8PlatformUlPK11ObjectModelR24ObjectExplorationContextE21_4_FUNES2_S4_
                0x00009d98       0x2c ./build/./RepRapFirmware/src/Platform.o
 .text._ZN8PlatformUlPK11ObjectModelR24ObjectExplorationContextE43_4_FUNES2_S4_
                0x00009dc4       0x28 ./build/./RepRapFirmware/src/Platform.o
 .text._ZN8PlatformUlPK11ObjectModelR24ObjectExplorationContextE44_4_FUNES2_S4_
                0x00009dec       0x28 ./build/./RepRapFirmware/src/Platform.o
 .text._ZN8PlatformUlPK11ObjectModelR24ObjectExplorationContextE37_4_FUNES2_S4_
                0x00009e14       0x28 ./build/./RepRapFirmware/src/Platform.o
 .text._ZN8PlatformUlPK11ObjectModelR24ObjectExplorationContextE31_4_FUNES2_S4_
                0x00009e3c       0x28 ./build/./RepRapFirmware/src/Platform.o
 .text._ZN8PlatformUlPK11ObjectModelR24ObjectExplorationContextE42_4_FUNES2_S4_
                0x00009e64       0x2c ./build/./RepRapFirmware/src/Platform.o
 .text._ZN8PlatformUlPK11ObjectModelR24ObjectExplorationContextE23_4_FUNES2_S4_
                0x00009e90       0x2c ./build/./RepRapFirmware/src/Platform.o
 .text._ZN8PlatformUlPK11ObjectModelR24ObjectExplorationContextE38_4_FUNES2_S4_
                0x00009ebc       0x24 ./build/./RepRapFirmware/src/Platform.o
 .text._ZN8PlatformUlPK11ObjectModelR24ObjectExplorationContextE32_4_FUNES2_S4_
                0x00009ee0       0x28 ./build/./RepRapFirmware/src/Platform.o
 .text._ZN8PlatformUlPK11ObjectModelR24ObjectExplorationContextE22_4_FUNES2_S4_
                0x00009f08       0x24 ./build/./RepRapFirmware/src/Platform.o
 .text._ZN8PlatformUlPK11ObjectModelR24ObjectExplorationContextE2_4_FUNES2_S4_
                0x00009f2c       0x38 ./build/./RepRapFirmware/src/Platform.o
 .text._ZN8PlatformUlPK11ObjectModelR24ObjectExplorationContextE17_4_FUNES2_S4_
                0x00009f64       0x28 ./build/./RepRapFirmware/src/Platform.o
 .text._ZN8PlatformUlPK11ObjectModelR24ObjectExplorationContextE35_4_FUNES2_S4_
                0x00009f8c       0x24 ./build/./RepRapFirmware/src/Platform.o
 .text._ZN8PlatformUlPK11ObjectModelR24ObjectExplorationContextE18_4_FUNES2_S4_
                0x00009fb0       0x20 ./build/./RepRapFirmware/src/Platform.o
 .text._ZN8Platform11AtxPowerOffEb.part.162
                0x00009fd0       0x24 ./build/./RepRapFirmware/src/Platform.o
 .text._ZNSt17_Function_handlerIFvjjEZN8Platform23ConfigureStallDetectionER11GCodeBufferRK9StringRefRP12OutputBufferEUljjE4_E9_M_invokeERKSt9_Any_dataOjSF_
                0x00009ff4       0x80 ./build/./RepRapFirmware/src/Platform.o
 .text._ZN8PlatformUlPK11ObjectModelR24ObjectExplorationContextE28_4_FUNES2_S4_
                0x0000a074       0x22 ./build/./RepRapFirmware/src/Platform.o
 .text._ZN8PlatformUlPK11ObjectModelR24ObjectExplorationContextE25_4_FUNES2_S4_
                0x0000a096       0x22 ./build/./RepRapFirmware/src/Platform.o
 .text._ZN8PlatformUlPK11ObjectModelR24ObjectExplorationContextE20_4_FUNES2_S4_
                0x0000a0b8       0x28 ./build/./RepRapFirmware/src/Platform.o
 .text._ZN8PlatformUlPK11ObjectModelR24ObjectExplorationContextE7_4_FUNES2_S4_
                0x0000a0e0       0x10 ./build/./RepRapFirmware/src/Platform.o
 .text._ZNSt17_Function_handlerIFvhEZN8Platform12SetDirectionEjbEUlhE_E9_M_invokeERKSt9_Any_dataOh
                0x0000a0f0       0x24 ./build/./RepRapFirmware/src/Platform.o
 .text._ZNSt14_Function_baseD2Ev
                0x0000a114       0x12 ./build/./RepRapFirmware/src/Platform.o
                0x0000a114                std::_Function_base::~_Function_base()
                0x0000a114                std::_Function_base::~_Function_base()
 .text.UrgentInit
                0x0000a126        0x2 ./build/./RepRapFirmware/src/Platform.o
                0x0000a126                UrgentInit
 .text._ZNK17AxisDriversConfig16GetDriversBitmapEv
                0x0000a128       0x24 ./build/./RepRapFirmware/src/Platform.o
                0x0000a128                AxisDriversConfig::GetDriversBitmap() const
 .text._ZNK8Platform22GetNumGpInputsToReportEv
                0x0000a14c       0x1e ./build/./RepRapFirmware/src/Platform.o
                0x0000a14c                Platform::GetNumGpInputsToReport() const
 .text._ZNK8Platform23GetNumGpOutputsToReportEv
                0x0000a16a       0x1e ./build/./RepRapFirmware/src/Platform.o
                0x0000a16a                Platform::GetNumGpOutputsToReport() const
 .text._ZN8Platform19SendPanelDueMessageEjPKc
                0x0000a188       0x12 ./build/./RepRapFirmware/src/Platform.o
                0x0000a188                Platform::SendPanelDueMessage(unsigned int, char const*)
 .text._ZN8Platform12SetIPAddressE9IPAddress
                0x0000a19a        0x4 ./build/./RepRapFirmware/src/Platform.o
                0x0000a19a                Platform::SetIPAddress(IPAddress)
 .text._ZN8Platform10SetGateWayE9IPAddress
                0x0000a19e        0x4 ./build/./RepRapFirmware/src/Platform.o
                0x0000a19e                Platform::SetGateWay(IPAddress)
 .text._ZN8Platform10SetNetMaskE9IPAddress
                0x0000a1a2        0x4 ./build/./RepRapFirmware/src/Platform.o
                0x0000a1a2                Platform::SetNetMask(IPAddress)
 *fill*         0x0000a1a6        0x2 
 .text._ZN8Platform20InitialiseInterruptsEv
                0x0000a1a8       0x50 ./build/./RepRapFirmware/src/Platform.o
                0x0000a1a8                Platform::InitialiseInterrupts()
 .text._ZNK8Platform23GetAveragingFilterIndexERK6IoPort
                0x0000a1f8       0x2c ./build/./RepRapFirmware/src/Platform.o
                0x0000a1f8                Platform::GetAveragingFilterIndex(IoPort const&) const
 .text._ZN8Platform23UpdateConfiguredHeatersEv
                0x0000a224       0x64 ./build/./RepRapFirmware/src/Platform.o
                0x0000a224                Platform::UpdateConfiguredHeaters()
 .text._ZN8Platform21DisableOneLocalDriverEj
                0x0000a288       0x34 ./build/./RepRapFirmware/src/Platform.o
                0x0000a288                Platform::DisableOneLocalDriver(unsigned int)
 .text._ZNSt17_Function_handlerIFvhEZN8Platform14DisableDriversEjEUlhE_E9_M_invokeERKSt9_Any_dataOh
                0x0000a2bc        0x8 ./build/./RepRapFirmware/src/Platform.o
 .text._ZN8Platform18UpdateMotorCurrentEjf
                0x0000a2c4       0x18 ./build/./RepRapFirmware/src/Platform.o
                0x0000a2c4                Platform::UpdateMotorCurrent(unsigned int, float)
 .text._ZN8Platform20EnableOneLocalDriverEjf
                0x0000a2dc       0x40 ./build/./RepRapFirmware/src/Platform.o
                0x0000a2dc                Platform::EnableOneLocalDriver(unsigned int, float)
 .text._ZNSt17_Function_handlerIFvhEZN8Platform13EnableDriversEjEUlhE_E9_M_invokeERKSt9_Any_dataOh
                0x0000a31c        0xa ./build/./RepRapFirmware/src/Platform.o
 .text._ZN8Platform23EmergencyDisableDriversEv
                0x0000a326       0x2c ./build/./RepRapFirmware/src/Platform.o
                0x0000a326                Platform::EmergencyDisableDrivers()
 .text._ZNSt17_Function_handlerIFvhEZN8Platform14SetDriversIdleEvEUlhE_E9_M_invokeERKSt9_Any_dataOh
                0x0000a352        0xa ./build/./RepRapFirmware/src/Platform.o
 .text._ZNSt17_Function_handlerIFvhEZN8Platform15SetMotorCurrentEjfiRK9StringRefEUlhE_E9_M_invokeERKSt9_Any_dataOh
                0x0000a35c       0x3e ./build/./RepRapFirmware/src/Platform.o
 .text._ZNSt17_Function_handlerIFvhEZN8Platform20SetIdleCurrentFactorEfEUlhE_E9_M_invokeERKSt9_Any_dataOh
                0x0000a39a        0xa ./build/./RepRapFirmware/src/Platform.o
 .text._ZNK8Platform15GetMotorCurrentEji
                0x0000a3a4       0x44 ./build/./RepRapFirmware/src/Platform.o
                0x0000a3a4                Platform::GetMotorCurrent(unsigned int, int) const
 .text._ZN8Platform20SetDriveStepsPerUnitEjfm
                0x0000a3e8       0x6c ./build/./RepRapFirmware/src/Platform.o
                0x0000a3e8                Platform::SetDriveStepsPerUnit(unsigned int, float, unsigned long)
 .text._ZN8Platform22SetDriverMicrosteppingEjji
                0x0000a454       0x30 ./build/./RepRapFirmware/src/Platform.o
                0x0000a454                Platform::SetDriverMicrostepping(unsigned int, unsigned int, int)
 .text._ZNSt17_Function_handlerIFvhEZN8Platform16SetMicrosteppingEjibRK9StringRefEUlhE_E9_M_invokeERKSt9_Any_dataOh
                0x0000a484       0x40 ./build/./RepRapFirmware/src/Platform.o
 .text._ZNK8Platform16GetMicrosteppingEjRb
                0x0000a4c4       0x16 ./build/./RepRapFirmware/src/Platform.o
                0x0000a4c4                Platform::GetMicrostepping(unsigned int, bool&) const
 .text._ZN8Platform14SetEnableValueEja
                0x0000a4da       0x54 ./build/./RepRapFirmware/src/Platform.o
                0x0000a4da                Platform::SetEnableValue(unsigned int, signed char)
 .text._ZN8Platform20SetAxisDriversConfigEjjPK8DriverId
                0x0000a52e       0x46 ./build/./RepRapFirmware/src/Platform.o
                0x0000a52e                Platform::SetAxisDriversConfig(unsigned int, unsigned int, DriverId const*)
 .text._ZN8Platform11SetAxisTypeEj12AxisWrapTypeb
                0x0000a574       0x32 ./build/./RepRapFirmware/src/Platform.o
                0x0000a574                Platform::SetAxisType(unsigned int, AxisWrapType, bool)
 .text._ZN8Platform17SetExtruderDriverEj8DriverId
                0x0000a5a6       0x26 ./build/./RepRapFirmware/src/Platform.o
                0x0000a5a6                Platform::SetExtruderDriver(unsigned int, DriverId)
 .text._ZN8Platform19SetDriverStepTimingEjPKf
                0x0000a5cc       0xa0 ./build/./RepRapFirmware/src/Platform.o
                0x0000a5cc                Platform::SetDriverStepTiming(unsigned int, float const*)
 .text._ZNK8Platform19GetDriverStepTimingEjPf
                0x0000a66c       0x5c ./build/./RepRapFirmware/src/Platform.o
                0x0000a66c                Platform::GetDriverStepTiming(unsigned int, float*) const
 .text._ZN8Platform14AppendUsbReplyEP12OutputBuffer
                0x0000a6c8       0x40 ./build/./RepRapFirmware/src/Platform.o
                0x0000a6c8                Platform::AppendUsbReply(OutputBuffer*)
 .text._ZNK8Platform12IsAuxEnabledEj
                0x0000a708        0xc ./build/./RepRapFirmware/src/Platform.o
                0x0000a708                Platform::IsAuxEnabled(unsigned int) const
 .text._ZN8Platform9EnableAuxEj
                0x0000a714       0x16 ./build/./RepRapFirmware/src/Platform.o
                0x0000a714                Platform::EnableAux(unsigned int)
 .text._ZNK8Platform8IsAuxRawEj
                0x0000a72a        0xc ./build/./RepRapFirmware/src/Platform.o
                0x0000a72a                Platform::IsAuxRaw(unsigned int) const
 .text._ZN8Platform9SetAuxRawEjb
                0x0000a736        0x8 ./build/./RepRapFirmware/src/Platform.o
                0x0000a736                Platform::SetAuxRaw(unsigned int, bool)
 .text._ZN8Platform14AppendAuxReplyEjP12OutputBufferb
                0x0000a73e       0x20 ./build/./RepRapFirmware/src/Platform.o
                0x0000a73e                Platform::AppendAuxReply(unsigned int, OutputBuffer*, bool)
 *fill*         0x0000a75e        0x2 
 .text._ZN8Platform7MessageE11MessageTypeP12OutputBuffer
                0x0000a760       0xe8 ./build/./RepRapFirmware/src/Platform.o
                0x0000a760                Platform::Message(MessageType, OutputBuffer*)
 .text._ZN8Platform12DebugMessageEPKcSt9__va_list
                0x0000a848       0x40 ./build/./RepRapFirmware/src/Platform.o
                0x0000a848                Platform::DebugMessage(char const*, std::__va_list)
 .text._ZNK8Platform11GetLogLevelEv
                0x0000a888       0x3c ./build/./RepRapFirmware/src/Platform.o
                0x0000a888                Platform::GetLogLevel() const
 .text._ZN8Platform11StopLoggingEv
                0x0000a8c4        0x2 ./build/./RepRapFirmware/src/Platform.o
                0x0000a8c4                Platform::StopLogging()
 *fill*         0x0000a8c6        0x2 
 .text._ZNK8Platform8AtxPowerEv
                0x0000a8c8        0xc ./build/./RepRapFirmware/src/Platform.o
                0x0000a8c8                Platform::AtxPower() const
 .text._ZN8Platform10AtxPowerOnEv
                0x0000a8d4       0x2c ./build/./RepRapFirmware/src/Platform.o
                0x0000a8d4                Platform::AtxPowerOn()
 .text._ZN8Platform11AtxPowerOffEb
                0x0000a900        0xc ./build/./RepRapFirmware/src/Platform.o
                0x0000a900                Platform::AtxPowerOff(bool)
 .text._ZN8Platform18SetPressureAdvanceEfR11GCodeBufferRK9StringRef
                0x0000a90c       0xb0 ./build/./RepRapFirmware/src/Platform.o
                0x0000a90c                Platform::SetPressureAdvance(float, GCodeBuffer&, StringRef const&)
 .text._ZNK8Platform24GetExtrusionCoefficientsEjRfS0_S0_
                0x0000a9bc       0x24 ./build/./RepRapFirmware/src/Platform.o
                0x0000a9bc                Platform::GetExtrusionCoefficients(unsigned int, float&, float&, float&) const
 .text._ZN8Platform21SetNonlinearExtrusionEjfff
                0x0000a9e0       0x2a ./build/./RepRapFirmware/src/Platform.o
                0x0000a9e0                Platform::SetNonlinearExtrusion(unsigned int, float, float, float)
 .text._ZN8Platform11SetBaudRateEjm
                0x0000aa0a        0xc ./build/./RepRapFirmware/src/Platform.o
                0x0000aa0a                Platform::SetBaudRate(unsigned int, unsigned long)
 .text._ZNK8Platform11GetBaudRateEj
                0x0000aa16        0xe ./build/./RepRapFirmware/src/Platform.o
                0x0000aa16                Platform::GetBaudRate(unsigned int) const
 .text._ZN8Platform18SetCommsPropertiesEjm
                0x0000aa24        0xc ./build/./RepRapFirmware/src/Platform.o
                0x0000aa24                Platform::SetCommsProperties(unsigned int, unsigned long)
 .text._ZNK8Platform18GetCommsPropertiesEj
                0x0000aa30        0xe ./build/./RepRapFirmware/src/Platform.o
                0x0000aa30                Platform::GetCommsProperties(unsigned int) const
 *fill*         0x0000aa3e        0x2 
 .text._ZN8Platform12ResetChannelEj
                0x0000aa40       0x3c ./build/./RepRapFirmware/src/Platform.o
                0x0000aa40                Platform::ResetChannel(unsigned int)
 .text._ZNK8Platform20GetElectronicsStringEv
                0x0000aa7c       0x18 ./build/./RepRapFirmware/src/Platform.o
                0x0000aa7c                Platform::GetElectronicsString() const
 .text._ZN8Platform11SetLaserPwmEt
                0x0000aa94       0x28 ./build/./RepRapFirmware/src/Platform.o
                0x0000aa94                Platform::SetLaserPwm(unsigned short)
 .text._ZNK8Platform11GetLaserPwmEv
                0x0000aabc        0x6 ./build/./RepRapFirmware/src/Platform.o
                0x0000aabc                Platform::GetLaserPwm() const
 .text._ZN8Platform14AssignLaserPinER11GCodeBufferRK9StringRef
                0x0000aac2       0x24 ./build/./RepRapFirmware/src/Platform.o
                0x0000aac2                Platform::AssignLaserPin(GCodeBuffer&, StringRef const&)
 .text._ZN8Platform20SetLaserPwmFrequencyEt
                0x0000aae6        0x6 ./build/./RepRapFirmware/src/Platform.o
                0x0000aae6                Platform::SetLaserPwmFrequency(unsigned short)
 .text._ZN8Platform14SetAxisMaximumEjfb
                0x0000aaec       0x2c ./build/./RepRapFirmware/src/Platform.o
                0x0000aaec                Platform::SetAxisMaximum(unsigned int, float, bool)
 .text._ZN8Platform14SetAxisMinimumEjfb
                0x0000ab18       0x2c ./build/./RepRapFirmware/src/Platform.o
                0x0000ab18                Platform::SetAxisMinimum(unsigned int, float, bool)
 .text._ZNK8Platform24GetTmcDriversTemperatureEj
                0x0000ab44       0x24 ./build/./RepRapFirmware/src/Platform.o
                0x0000ab44                Platform::GetTmcDriversTemperature(unsigned int) const
 .text._ZN8Platform13ConfigurePortER11GCodeBufferRK9StringRef
                0x0000ab68       0xec ./build/./RepRapFirmware/src/Platform.o
                0x0000ab68                Platform::ConfigurePort(GCodeBuffer&, StringRef const&)
 .text._ZN8Platform18GetSetAncillaryPwmER11GCodeBufferRK9StringRef
                0x0000ac54       0xa4 ./build/./RepRapFirmware/src/Platform.o
                0x0000ac54                Platform::GetSetAncillaryPwm(GCodeBuffer&, StringRef const&)
 .text._ZNSt8functionIFvhEEC2ERKS1_
                0x0000acf8       0x28 ./build/./RepRapFirmware/src/Platform.o
                0x0000acf8                std::function<void (unsigned char)>::function(std::function<void (unsigned char)> const&)
                0x0000acf8                std::function<void (unsigned char)>::function(std::function<void (unsigned char)> const&)
 .text._ZNV15AveragingFilterILj16EE4InitEt
                0x0000ad20       0x2a ./build/./RepRapFirmware/src/Platform.o
                0x0000ad20                AveragingFilter<16u>::Init(unsigned short) volatile
 *fill*         0x0000ad4a        0x2 
 .text._ZN8Platform4InitEv
                0x0000ad4c      0x3a0 ./build/./RepRapFirmware/src/Platform.o
                0x0000ad4c                Platform::Init()
 .text._ZN6StringILj100EE6printfEPKcz
                0x0000b0ec       0x22 ./build/./RepRapFirmware/src/Platform.o
                0x0000b0ec                String<100u>::printf(char const*, ...)
 .text._ZN6StringILj100EE4catfEPKcz
                0x0000b10e       0x22 ./build/./RepRapFirmware/src/Platform.o
                0x0000b10e                String<100u>::catf(char const*, ...)
 .text._ZNSt17_Function_handlerIFvjjEZN8Platform13ReportDriversE11MessageTypeR6BitmapImEPKcRbEUljjE_E9_M_invokeERKSt9_Any_dataOjSE_
                0x0000b130       0x14 ./build/./RepRapFirmware/src/Platform.o
 .text._ZN6StringILj256EE6printfEPKcz
                0x0000b144       0x24 ./build/./RepRapFirmware/src/Platform.o
                0x0000b144                String<256u>::printf(char const*, ...)
 .text._ZNKSt8functionIFvhEEclEh
                0x0000b168       0x1c ./build/./RepRapFirmware/src/Platform.o
                0x0000b168                std::function<void (unsigned char)>::operator()(unsigned char) const
 .text._ZN8Platform14IterateDriversEjSt8functionIFvhEE
                0x0000b184       0x50 ./build/./RepRapFirmware/src/Platform.o
                0x0000b184                Platform::IterateDrivers(unsigned int, std::function<void (unsigned char)>)
 .text._ZN8Platform13EnableDriversEj
                0x0000b1d4       0x58 ./build/./RepRapFirmware/src/Platform.o
                0x0000b1d4                Platform::EnableDrivers(unsigned int)
 .text._ZN8Platform14DisableDriversEj
                0x0000b22c       0x34 ./build/./RepRapFirmware/src/Platform.o
                0x0000b22c                Platform::DisableDrivers(unsigned int)
 .text._ZN8Platform17DisableAllDriversEv
                0x0000b260       0x16 ./build/./RepRapFirmware/src/Platform.o
                0x0000b260                Platform::DisableAllDrivers()
 *fill*         0x0000b276        0x2 
 .text._ZN8Platform14SetDriversIdleEv
                0x0000b278       0x88 ./build/./RepRapFirmware/src/Platform.o
                0x0000b278                Platform::SetDriversIdle()
 .text._ZN8Platform15SetMotorCurrentEjfiRK9StringRef
                0x0000b300       0xe0 ./build/./RepRapFirmware/src/Platform.o
                0x0000b300                Platform::SetMotorCurrent(unsigned int, float, int, StringRef const&)
 .text._ZN8Platform20SetIdleCurrentFactorEf
                0x0000b3e0       0xa0 ./build/./RepRapFirmware/src/Platform.o
                0x0000b3e0                Platform::SetIdleCurrentFactor(float)
 .text._ZN8Platform12SetDirectionEjb
                0x0000b480       0xa8 ./build/./RepRapFirmware/src/Platform.o
                0x0000b480                Platform::SetDirection(unsigned int, bool)
 .text._ZN8Platform16SetMicrosteppingEjibRK9StringRef
                0x0000b528       0xc0 ./build/./RepRapFirmware/src/Platform.o
                0x0000b528                Platform::SetMicrostepping(unsigned int, int, bool, StringRef const&)
 .text._ZN6StringILj256EE4copyEPKc
                0x0000b5e8       0x16 ./build/./RepRapFirmware/src/Platform.o
                0x0000b5e8                String<256u>::copy(char const*)
 .text._ZNV15AveragingFilterILj8EE4InitEt
                0x0000b5fe       0x2e ./build/./RepRapFirmware/src/Platform.o
                0x0000b5fe                AveragingFilter<8u>::Init(unsigned short) volatile
 .text._ZN8Platform17InitZProbeFiltersEv
                0x0000b62c       0x1a ./build/./RepRapFirmware/src/Platform.o
                0x0000b62c                Platform::InitZProbeFilters()
 *fill*         0x0000b646        0x2 
 .text._ZN8PlatformC2Ev
                0x0000b648      0x168 ./build/./RepRapFirmware/src/Platform.o
                0x0000b648                Platform::Platform()
                0x0000b648                Platform::Platform()
 .text._ZN15AveragingFilterILj8EE14ProcessReadingEt
                0x0000b7b0       0x28 ./build/./RepRapFirmware/src/Platform.o
                0x0000b7b0                AveragingFilter<8u>::ProcessReading(unsigned short)
 .text.hot._ZN8Platform4TickEv
                0x0000b7d8       0xf8 ./build/./RepRapFirmware/src/Platform.o
                0x0000b7d8                Platform::Tick()
 .text._ZNKSt8functionIFvjjEEclEjj
                0x0000b8d0       0x1c ./build/./RepRapFirmware/src/Platform.o
                0x0000b8d0                std::function<void (unsigned int, unsigned int)>::operator()(unsigned int, unsigned int) const
 .text._ZNK6BitmapImE7IterateESt8functionIFvjjEE.isra.181
                0x0000b8ec       0x30 ./build/./RepRapFirmware/src/Platform.o
 .text._ZN8Platform23ConfigureStallDetectionER11GCodeBufferRK9StringRefRP12OutputBuffer
                0x0000b91c      0x2d0 ./build/./RepRapFirmware/src/Platform.o
                0x0000b91c                Platform::ConfigureStallDetection(GCodeBuffer&, StringRef const&, OutputBuffer*&)
 .text._ZN8Platform22DriverCoolingFansOnOffE6BitmapItEb
                0x0000bbec       0x60 ./build/./RepRapFirmware/src/Platform.o
                0x0000bbec                Platform::DriverCoolingFansOnOff(Bitmap<unsigned short>, bool)
 .text._ZNSt17_Function_handlerIFbcEZN8Platform12DebugMessageEPKcSt9__va_listEUlcE_E9_M_invokeERKSt9_Any_dataOc
                0x0000bc4c       0x40 ./build/./RepRapFirmware/src/Platform.o
 .text._ZN8Platform10RawMessageE11MessageTypePKc
                0x0000bc8c       0xd0 ./build/./RepRapFirmware/src/Platform.o
                0x0000bc8c                Platform::RawMessage(MessageType, char const*)
 .text._ZN8Platform7MessageE11MessageTypePKc.part.179
                0x0000bd5c       0x4c ./build/./RepRapFirmware/src/Platform.o
 .text._ZN8Platform7MessageE11MessageTypePKc
                0x0000bda8       0x58 ./build/./RepRapFirmware/src/Platform.o
                0x0000bda8                Platform::Message(MessageType, char const*)
 .text._ZN8Platform8MessageFE11MessageTypePKcSt9__va_list
                0x0000be00       0xac ./build/./RepRapFirmware/src/Platform.o
                0x0000be00                Platform::MessageF(MessageType, char const*, std::__va_list)
 .text._ZN8Platform8MessageFE11MessageTypePKcz
                0x0000beac       0x1a ./build/./RepRapFirmware/src/Platform.o
                0x0000beac                Platform::MessageF(MessageType, char const*, ...)
 *fill*         0x0000bec6        0x2 
 .text._ZN8Platform12PanelDueBeepEii
                0x0000bec8       0x18 ./build/./RepRapFirmware/src/Platform.o
                0x0000bec8                Platform::PanelDueBeep(int, int)
 .text._ZN8Platform11DiagnosticsE11MessageType
                0x0000bee0      0x2b0 ./build/./RepRapFirmware/src/Platform.o
                0x0000bee0                Platform::Diagnostics(MessageType)
 .text._ZN8Platform14DiagnosticTestER11GCodeBufferRK9StringRefRP12OutputBufferj
                0x0000c190      0x4e4 ./build/./RepRapFirmware/src/Platform.o
                0x0000c190                Platform::DiagnosticTest(GCodeBuffer&, StringRef const&, OutputBuffer*&, unsigned int)
 .text._ZN8Platform9SendAlertE11MessageTypePKcS2_if6BitmapItE
                0x0000c674       0xac ./build/./RepRapFirmware/src/Platform.o
                0x0000c674                Platform::SendAlert(MessageType, char const*, char const*, int, float, Bitmap<unsigned short>)
 .text._ZN8Platform11SetDateTimeEx
                0x0000c720       0x74 ./build/./RepRapFirmware/src/Platform.o
                0x0000c720                Platform::SetDateTime(long long)
 .text._ZN8Platform13ReportDriversE11MessageTypeR6BitmapImEPKcRb
                0x0000c794       0x64 ./build/./RepRapFirmware/src/Platform.o
                0x0000c794                Platform::ReportDrivers(MessageType, Bitmap<unsigned long>&, char const*, bool&)
 .text._ZN8Platform13FlushMessagesEv
                0x0000c7f8       0xb0 ./build/./RepRapFirmware/src/Platform.o
                0x0000c7f8                Platform::FlushMessages()
 .text._ZN8Platform4SpinEv
                0x0000c8a8      0x3b0 ./build/./RepRapFirmware/src/Platform.o
                0x0000c8a8                Platform::Spin()
 .text._ZN12PrintMonitorUlPK11ObjectModelRK24ObjectExplorationContextE_4_FUNES2_S5_
                0x0000cc58        0x6 ./build/./RepRapFirmware/src/PrintMonitor.o
 .text._ZN12PrintMonitorUlPK11ObjectModelR24ObjectExplorationContextE2_4_FUNES2_S4_
                0x0000cc5e       0x1a ./build/./RepRapFirmware/src/PrintMonitor.o
 .text._ZN12PrintMonitorUlPK11ObjectModelR24ObjectExplorationContextE9_4_FUNES2_S4_
                0x0000cc78       0x1a ./build/./RepRapFirmware/src/PrintMonitor.o
 *fill*         0x0000cc92        0x2 
 .text._ZN12PrintMonitorUlPK11ObjectModelR24ObjectExplorationContextE11_4_FUNES2_S4_
                0x0000cc94       0x10 ./build/./RepRapFirmware/src/PrintMonitor.o
 .text._ZN12PrintMonitorUlPK11ObjectModelR24ObjectExplorationContextE13_4_FUNES2_S4_
                0x0000cca4        0xe ./build/./RepRapFirmware/src/PrintMonitor.o
 .text._ZN12PrintMonitorUlPK11ObjectModelR24ObjectExplorationContextE15_4_FUNES2_S4_
                0x0000ccb2        0xe ./build/./RepRapFirmware/src/PrintMonitor.o
 .text._ZN12PrintMonitorUlPK11ObjectModelR24ObjectExplorationContextE17_4_FUNES2_S4_
                0x0000ccc0        0xe ./build/./RepRapFirmware/src/PrintMonitor.o
 .text._ZN12PrintMonitorUlPK11ObjectModelR24ObjectExplorationContextE21_4_FUNES2_S4_
                0x0000ccce        0xc ./build/./RepRapFirmware/src/PrintMonitor.o
 *fill*         0x0000ccda        0x2 
 .text._ZNK12PrintMonitor29GetObjectModelClassDescriptorEv
                0x0000ccdc        0x8 ./build/./RepRapFirmware/src/PrintMonitor.o
                0x0000ccdc                PrintMonitor::GetObjectModelClassDescriptor() const
 .text._ZN12PrintMonitorD2Ev
                0x0000cce4        0x2 ./build/./RepRapFirmware/src/PrintMonitor.o
                0x0000cce4                PrintMonitor::~PrintMonitor()
                0x0000cce4                PrintMonitor::~PrintMonitor()
 .text._ZN12PrintMonitorD0Ev
                0x0000cce6       0x10 ./build/./RepRapFirmware/src/PrintMonitor.o
                0x0000cce6                PrintMonitor::~PrintMonitor()
 .text._ZN12PrintMonitorUlPK11ObjectModelR24ObjectExplorationContextE0_4_FUNES2_S4_
                0x0000ccf6       0x22 ./build/./RepRapFirmware/src/PrintMonitor.o
 .text._ZN12PrintMonitorUlPK11ObjectModelR24ObjectExplorationContextE18_4_FUNES2_S4_
                0x0000cd18       0x16 ./build/./RepRapFirmware/src/PrintMonitor.o
 .text._ZN12PrintMonitorUlPK11ObjectModelR24ObjectExplorationContextE20_4_FUNES2_S4_
                0x0000cd2e       0x12 ./build/./RepRapFirmware/src/PrintMonitor.o
 .text._ZN12PrintMonitorUlPK11ObjectModelR24ObjectExplorationContextE19_4_FUNES2_S4_
                0x0000cd40       0x12 ./build/./RepRapFirmware/src/PrintMonitor.o
 .text._ZN12PrintMonitorUlPK11ObjectModelR24ObjectExplorationContextE16_4_FUNES2_S4_
                0x0000cd52       0x1e ./build/./RepRapFirmware/src/PrintMonitor.o
 .text._ZN12PrintMonitorUlPK11ObjectModelR24ObjectExplorationContextE7_4_FUNES2_S4_
                0x0000cd70       0x12 ./build/./RepRapFirmware/src/PrintMonitor.o
 *fill*         0x0000cd82        0x2 
 .text._ZN12PrintMonitorUlPK11ObjectModelR24ObjectExplorationContextE3_4_FUNES2_S4_
                0x0000cd84       0x1c ./build/./RepRapFirmware/src/PrintMonitor.o
 .text._ZN12PrintMonitorUlPK11ObjectModelR24ObjectExplorationContextE5_4_FUNES2_S4_
                0x0000cda0       0x20 ./build/./RepRapFirmware/src/PrintMonitor.o
 .text._ZN12PrintMonitorUlPK11ObjectModelR24ObjectExplorationContextE12_4_FUNES2_S4_
                0x0000cdc0       0x16 ./build/./RepRapFirmware/src/PrintMonitor.o
 .text._ZN12PrintMonitorUlPK11ObjectModelR24ObjectExplorationContextE6_4_FUNES2_S4_
                0x0000cdd6       0x18 ./build/./RepRapFirmware/src/PrintMonitor.o
 .text._ZN12PrintMonitorUlPK11ObjectModelR24ObjectExplorationContextE14_4_FUNES2_S4_
                0x0000cdee       0x16 ./build/./RepRapFirmware/src/PrintMonitor.o
 .text._ZN10ReadLockerD2Ev
                0x0000ce04       0x10 ./build/./RepRapFirmware/src/PrintMonitor.o
                0x0000ce04                ReadLocker::~ReadLocker()
                0x0000ce04                ReadLocker::~ReadLocker()
 .text._ZN11WriteLockerD2Ev
                0x0000ce14       0x10 ./build/./RepRapFirmware/src/PrintMonitor.o
                0x0000ce14                WriteLocker::~WriteLocker()
                0x0000ce14                WriteLocker::~WriteLocker()
 .text._ZN12PrintMonitorC2ER8PlatformR6GCodes
                0x0000ce24       0x5c ./build/./RepRapFirmware/src/PrintMonitor.o
                0x0000ce24                PrintMonitor::PrintMonitor(Platform&, GCodes&)
                0x0000ce24                PrintMonitor::PrintMonitor(Platform&, GCodes&)
 .text._ZN12PrintMonitor4InitEv
                0x0000ce80        0xc ./build/./RepRapFirmware/src/PrintMonitor.o
                0x0000ce80                PrintMonitor::Init()
 .text._ZN12PrintMonitor19GetPrintingFileInfoER13GCodeFileInfo
                0x0000ce8c       0x26 ./build/./RepRapFirmware/src/PrintMonitor.o
                0x0000ce8c                PrintMonitor::GetPrintingFileInfo(GCodeFileInfo&)
 *fill*         0x0000ceb2        0x2 
 .text._ZN12PrintMonitor19SetPrintingFileInfoEPKcR13GCodeFileInfo
                0x0000ceb4       0x5c ./build/./RepRapFirmware/src/PrintMonitor.o
                0x0000ceb4                PrintMonitor::SetPrintingFileInfo(char const*, GCodeFileInfo&)
 .text._ZNK12PrintMonitor17GetWarmUpDurationEv
                0x0000cf10       0x34 ./build/./RepRapFirmware/src/PrintMonitor.o
                0x0000cf10                PrintMonitor::GetWarmUpDuration() const
 .text._ZN12PrintMonitorUlPK11ObjectModelR24ObjectExplorationContextE10_4_FUNES2_S4_
                0x0000cf44       0x22 ./build/./RepRapFirmware/src/PrintMonitor.o
 .text._ZN12PrintMonitor13StartingPrintEPKc
                0x0000cf66        0x2 ./build/./RepRapFirmware/src/PrintMonitor.o
                0x0000cf66                PrintMonitor::StartingPrint(char const*)
 .text._ZN12PrintMonitor5ResetEv
                0x0000cf68       0x5c ./build/./RepRapFirmware/src/PrintMonitor.o
                0x0000cf68                PrintMonitor::Reset()
 .text._ZN12PrintMonitor12StartedPrintEv
                0x0000cfc4       0x16 ./build/./RepRapFirmware/src/PrintMonitor.o
                0x0000cfc4                PrintMonitor::StartedPrint()
 .text._ZN12PrintMonitor12StoppedPrintEv
                0x0000cfda       0x12 ./build/./RepRapFirmware/src/PrintMonitor.o
                0x0000cfda                PrintMonitor::StoppedPrint()
 .text._ZN12PrintMonitor14SetLayerNumberEm
                0x0000cfec        0x6 ./build/./RepRapFirmware/src/PrintMonitor.o
                0x0000cfec                PrintMonitor::SetLayerNumber(unsigned long)
 .text._ZN12PrintMonitor9SetLayerZEf
                0x0000cff2        0x6 ./build/./RepRapFirmware/src/PrintMonitor.o
                0x0000cff2                PrintMonitor::SetLayerZ(float)
 .text._ZNK12PrintMonitor21FractionOfFilePrintedEv
                0x0000cff8       0x54 ./build/./RepRapFirmware/src/PrintMonitor.o
                0x0000cff8                PrintMonitor::FractionOfFilePrinted() const
 .text._ZNK12PrintMonitor16GetPrintDurationEv
                0x0000d04c       0x44 ./build/./RepRapFirmware/src/PrintMonitor.o
                0x0000d04c                PrintMonitor::GetPrintDuration() const
 .text._ZN12PrintMonitorUlPK11ObjectModelR24ObjectExplorationContextE8_4_FUNES2_S4_
                0x0000d090       0x3c ./build/./RepRapFirmware/src/PrintMonitor.o
 .text._ZNK12PrintMonitor27GetPrintOrSimulatedDurationEv
                0x0000d0cc       0x2c ./build/./RepRapFirmware/src/PrintMonitor.o
                0x0000d0cc                PrintMonitor::GetPrintOrSimulatedDuration() const
 .text._ZN12PrintMonitorUlPK11ObjectModelR24ObjectExplorationContextE1_4_FUNES2_S4_
                0x0000d0f8       0x1e ./build/./RepRapFirmware/src/PrintMonitor.o
 .text._ZNK12PrintMonitor21GetFirstLayerDurationEv
                0x0000d116       0x2a ./build/./RepRapFirmware/src/PrintMonitor.o
                0x0000d116                PrintMonitor::GetFirstLayerDuration() const
 .text._ZN12PrintMonitorUlPK11ObjectModelR24ObjectExplorationContextE4_4_FUNES2_S4_
                0x0000d140       0x22 ./build/./RepRapFirmware/src/PrintMonitor.o
 .text._ZN12PrintMonitor18FirstLayerCompleteEv
                0x0000d162       0x72 ./build/./RepRapFirmware/src/PrintMonitor.o
                0x0000d162                PrintMonitor::FirstLayerComplete()
 .text._ZN12PrintMonitor13LayerCompleteEv
                0x0000d1d4      0x15c ./build/./RepRapFirmware/src/PrintMonitor.o
                0x0000d1d4                PrintMonitor::LayerComplete()
 .text._ZN12PrintMonitor4SpinEv
                0x0000d330      0x1c4 ./build/./RepRapFirmware/src/PrintMonitor.o
                0x0000d330                PrintMonitor::Spin()
 .text._ZNK12PrintMonitor16EstimateTimeLeftE21PrintEstimationMethod
                0x0000d4f4      0x218 ./build/./RepRapFirmware/src/PrintMonitor.o
                0x0000d4f4                PrintMonitor::EstimateTimeLeft(PrintEstimationMethod) const
 .text._ZNK12PrintMonitor28EstimateTimeLeftAsExpressionE21PrintEstimationMethod
                0x0000d70c       0x2a ./build/./RepRapFirmware/src/PrintMonitor.o
                0x0000d70c                PrintMonitor::EstimateTimeLeftAsExpression(PrintEstimationMethod) const
 .text._ZN12PrintMonitorUlPK11ObjectModelR24ObjectExplorationContextE24_4_FUNES2_S4_
                0x0000d736        0xe ./build/./RepRapFirmware/src/PrintMonitor.o
 .text._ZN12PrintMonitorUlPK11ObjectModelR24ObjectExplorationContextE23_4_FUNES2_S4_
                0x0000d744        0xe ./build/./RepRapFirmware/src/PrintMonitor.o
 .text._ZN12PrintMonitorUlPK11ObjectModelR24ObjectExplorationContextE22_4_FUNES2_S4_
                0x0000d752        0xe ./build/./RepRapFirmware/src/PrintMonitor.o
 .text.startup._GLOBAL__sub_I__ZN12PrintMonitor16printMonitorLockE
                0x0000d760       0x10 ./build/./RepRapFirmware/src/PrintMonitor.o
 .text._ZN6RepRapUlPK11ObjectModelRK24ObjectExplorationContextE_4_FUNES2_S5_
                0x0000d770        0x4 ./build/./RepRapFirmware/src/RepRap.o
 .text._ZN6RepRapUlPK11ObjectModelR24ObjectExplorationContextE0_4_FUNES2_S4_
                0x0000d774       0x18 ./build/./RepRapFirmware/src/RepRap.o
 .text._ZN6RepRapUlPK11ObjectModelRK24ObjectExplorationContextE3_4_FUNES2_S5_
                0x0000d78c        0x4 ./build/./RepRapFirmware/src/RepRap.o
 .text._ZN6RepRapUlPK11ObjectModelRK24ObjectExplorationContextE7_4_FUNES2_S5_
                0x0000d790        0x4 ./build/./RepRapFirmware/src/RepRap.o
 .text._ZN6RepRapUlPK11ObjectModelRK24ObjectExplorationContextE9_4_FUNES2_S5_
                0x0000d794        0x6 ./build/./RepRapFirmware/src/RepRap.o
 .text._ZN6RepRapUlPK11ObjectModelRK24ObjectExplorationContextE11_4_FUNES2_S5_
                0x0000d79a        0x4 ./build/./RepRapFirmware/src/RepRap.o
 .text._ZN6RepRapUlPK11ObjectModelRK24ObjectExplorationContextE13_4_FUNES2_S5_
                0x0000d79e        0x4 ./build/./RepRapFirmware/src/RepRap.o
 .text._ZN6RepRapUlPK11ObjectModelR24ObjectExplorationContextE14_4_FUNES2_S4_
                0x0000d7a2        0x8 ./build/./RepRapFirmware/src/RepRap.o
 *fill*         0x0000d7aa        0x2 
 .text._ZN6RepRapUlPK11ObjectModelR24ObjectExplorationContextE15_4_FUNES2_S4_
                0x0000d7ac       0x10 ./build/./RepRapFirmware/src/RepRap.o
 .text._ZN6RepRapUlPK11ObjectModelR24ObjectExplorationContextE16_4_FUNES2_S4_
                0x0000d7bc       0x10 ./build/./RepRapFirmware/src/RepRap.o
 .text._ZN6RepRapUlPK11ObjectModelR24ObjectExplorationContextE18_4_FUNES2_S4_
                0x0000d7cc       0x10 ./build/./RepRapFirmware/src/RepRap.o
 .text._ZN6RepRapUlPK11ObjectModelR24ObjectExplorationContextE20_4_FUNES2_S4_
                0x0000d7dc       0x1a ./build/./RepRapFirmware/src/RepRap.o
 .text._ZN6RepRapUlPK11ObjectModelR24ObjectExplorationContextE24_4_FUNES2_S4_
                0x0000d7f6       0x1a ./build/./RepRapFirmware/src/RepRap.o
 .text._ZN6RepRapUlPK11ObjectModelR24ObjectExplorationContextE25_4_FUNES2_S4_
                0x0000d810       0x10 ./build/./RepRapFirmware/src/RepRap.o
 .text._ZN6RepRapUlPK11ObjectModelR24ObjectExplorationContextE26_4_FUNES2_S4_
                0x0000d820       0x1a ./build/./RepRapFirmware/src/RepRap.o
 *fill*         0x0000d83a        0x2 
 .text._ZN6RepRapUlPK11ObjectModelR24ObjectExplorationContextE27_4_FUNES2_S4_
                0x0000d83c       0x10 ./build/./RepRapFirmware/src/RepRap.o
 .text._ZN6RepRapUlPK11ObjectModelR24ObjectExplorationContextE28_4_FUNES2_S4_
                0x0000d84c       0x10 ./build/./RepRapFirmware/src/RepRap.o
 .text._ZN6RepRapUlPK11ObjectModelR24ObjectExplorationContextE29_4_FUNES2_S4_
                0x0000d85c        0xa ./build/./RepRapFirmware/src/RepRap.o
 .text._ZN6RepRapUlPK11ObjectModelR24ObjectExplorationContextE30_4_FUNES2_S4_
                0x0000d866        0xa ./build/./RepRapFirmware/src/RepRap.o
 .text._ZN6RepRapUlPK11ObjectModelR24ObjectExplorationContextE31_4_FUNES2_S4_
                0x0000d870        0xa ./build/./RepRapFirmware/src/RepRap.o
 .text._ZN6RepRapUlPK11ObjectModelR24ObjectExplorationContextE35_4_FUNES2_S4_
                0x0000d87a        0xa ./build/./RepRapFirmware/src/RepRap.o
 .text._ZN6RepRapUlPK11ObjectModelR24ObjectExplorationContextE36_4_FUNES2_S4_
                0x0000d884        0xa ./build/./RepRapFirmware/src/RepRap.o
 .text._ZN6RepRapUlPK11ObjectModelR24ObjectExplorationContextE44_4_FUNES2_S4_
                0x0000d88e        0xa ./build/./RepRapFirmware/src/RepRap.o
 .text._ZN6RepRapUlPK11ObjectModelR24ObjectExplorationContextE45_4_FUNES2_S4_
                0x0000d898        0xa ./build/./RepRapFirmware/src/RepRap.o
 .text._ZN6RepRapUlPK11ObjectModelR24ObjectExplorationContextE47_4_FUNES2_S4_
                0x0000d8a2        0xa ./build/./RepRapFirmware/src/RepRap.o
 .text._ZN6RepRapUlPK11ObjectModelR24ObjectExplorationContextE48_4_FUNES2_S4_
                0x0000d8ac        0xa ./build/./RepRapFirmware/src/RepRap.o
 .text._ZN6RepRapUlPK11ObjectModelR24ObjectExplorationContextE49_4_FUNES2_S4_
                0x0000d8b6        0xa ./build/./RepRapFirmware/src/RepRap.o
 .text._ZN6RepRapUlPK11ObjectModelR24ObjectExplorationContextE50_4_FUNES2_S4_
                0x0000d8c0        0xa ./build/./RepRapFirmware/src/RepRap.o
 .text._ZN6RepRapUlPK11ObjectModelR24ObjectExplorationContextE51_4_FUNES2_S4_
                0x0000d8ca        0xa ./build/./RepRapFirmware/src/RepRap.o
 .text._ZN6RepRapUlPK11ObjectModelR24ObjectExplorationContextE52_4_FUNES2_S4_
                0x0000d8d4        0xa ./build/./RepRapFirmware/src/RepRap.o
 .text._ZN6RepRapUlPK11ObjectModelR24ObjectExplorationContextE57_4_FUNES2_S4_
                0x0000d8de        0xc ./build/./RepRapFirmware/src/RepRap.o
 *fill*         0x0000d8ea        0x2 
 .text._ZN6RepRapUlPK11ObjectModelR24ObjectExplorationContextE58_4_FUNES2_S4_
                0x0000d8ec       0x10 ./build/./RepRapFirmware/src/RepRap.o
 .text._ZN6RepRapUlPK11ObjectModelR24ObjectExplorationContextE64_4_FUNES2_S4_
                0x0000d8fc       0x1c ./build/./RepRapFirmware/src/RepRap.o
 .text._ZN6RepRapUlPK11ObjectModelR24ObjectExplorationContextE65_4_FUNES2_S4_
                0x0000d918        0xe ./build/./RepRapFirmware/src/RepRap.o
 .text._ZN6RepRapUlPK11ObjectModelR24ObjectExplorationContextE66_4_FUNES2_S4_
                0x0000d926        0xc ./build/./RepRapFirmware/src/RepRap.o
 *fill*         0x0000d932        0x2 
 .text._ZN6RepRapUlPK11ObjectModelR24ObjectExplorationContextE67_4_FUNES2_S4_
                0x0000d934       0x10 ./build/./RepRapFirmware/src/RepRap.o
 .text._ZN6RepRapUlPK11ObjectModelR24ObjectExplorationContextE71_4_FUNES2_S4_
                0x0000d944        0xc ./build/./RepRapFirmware/src/RepRap.o
 .text._ZN6RepRapUlPK11ObjectModelR24ObjectExplorationContextE72_4_FUNES2_S4_
                0x0000d950        0xc ./build/./RepRapFirmware/src/RepRap.o
 .text._ZN6RepRapUlPK11ObjectModelR24ObjectExplorationContextE73_4_FUNES2_S4_
                0x0000d95c        0xc ./build/./RepRapFirmware/src/RepRap.o
 .text._ZN6RepRapUlPK11ObjectModelR24ObjectExplorationContextE74_4_FUNES2_S4_
                0x0000d968        0xc ./build/./RepRapFirmware/src/RepRap.o
 .text._ZN6RepRapUlPK11ObjectModelR24ObjectExplorationContextE75_4_FUNES2_S4_
                0x0000d974        0xc ./build/./RepRapFirmware/src/RepRap.o
 .text._ZN6RepRapUlPK11ObjectModelR24ObjectExplorationContextE76_4_FUNES2_S4_
                0x0000d980        0xc ./build/./RepRapFirmware/src/RepRap.o
 .text._ZN6RepRapUlPK11ObjectModelR24ObjectExplorationContextE77_4_FUNES2_S4_
                0x0000d98c        0xc ./build/./RepRapFirmware/src/RepRap.o
 .text._ZN6RepRapUlPK11ObjectModelR24ObjectExplorationContextE78_4_FUNES2_S4_
                0x0000d998        0xc ./build/./RepRapFirmware/src/RepRap.o
 .text._ZN6RepRapUlPK11ObjectModelR24ObjectExplorationContextE79_4_FUNES2_S4_
                0x0000d9a4        0xc ./build/./RepRapFirmware/src/RepRap.o
 .text._ZN6RepRapUlPK11ObjectModelR24ObjectExplorationContextE80_4_FUNES2_S4_
                0x0000d9b0        0xc ./build/./RepRapFirmware/src/RepRap.o
 .text._ZN6RepRapUlPK11ObjectModelR24ObjectExplorationContextE81_4_FUNES2_S4_
                0x0000d9bc        0xc ./build/./RepRapFirmware/src/RepRap.o
 .text._ZN6RepRapUlPK11ObjectModelR24ObjectExplorationContextE82_4_FUNES2_S4_
                0x0000d9c8        0xc ./build/./RepRapFirmware/src/RepRap.o
 .text._ZN6RepRapUlPK11ObjectModelR24ObjectExplorationContextE83_4_FUNES2_S4_
                0x0000d9d4        0xc ./build/./RepRapFirmware/src/RepRap.o
 .text._ZN6RepRapUlPK11ObjectModelR24ObjectExplorationContextE84_4_FUNES2_S4_
                0x0000d9e0        0xc ./build/./RepRapFirmware/src/RepRap.o
 .text._ZN6RepRapUlPK11ObjectModelR24ObjectExplorationContextE85_4_FUNES2_S4_
                0x0000d9ec        0xc ./build/./RepRapFirmware/src/RepRap.o
 .text._ZN6RepRapUlPK11ObjectModelR24ObjectExplorationContextE86_4_FUNES2_S4_
                0x0000d9f8        0xc ./build/./RepRapFirmware/src/RepRap.o
 .text._ZN6RepRapUlPK11ObjectModelR24ObjectExplorationContextE87_4_FUNES2_S4_
                0x0000da04        0xc ./build/./RepRapFirmware/src/RepRap.o
 .text._ZN6RepRapUlPK11ObjectModelR24ObjectExplorationContextE88_4_FUNES2_S4_
                0x0000da10        0xc ./build/./RepRapFirmware/src/RepRap.o
 .text._ZN6RepRapUlPK11ObjectModelR24ObjectExplorationContextE89_4_FUNES2_S4_
                0x0000da1c        0xc ./build/./RepRapFirmware/src/RepRap.o
 .text._ZNK6RepRap29GetObjectModelClassDescriptorEv
                0x0000da28        0x8 ./build/./RepRapFirmware/src/RepRap.o
                0x0000da28                RepRap::GetObjectModelClassDescriptor() const
 .text._ZNSt14_Function_base13_Base_managerIZNK6RepRap17GetStatusResponseEh14ResponseSourceEUljE_E10_M_managerERSt9_Any_dataRKS5_St18_Manager_operation
                0x0000da30       0x16 ./build/./RepRapFirmware/src/RepRap.o
 .text._ZNSt14_Function_base13_Base_managerIZNK6RepRap17GetStatusResponseEh14ResponseSourceEUljE0_E10_M_managerERSt9_Any_dataRKS5_St18_Manager_operation
                0x0000da46       0x16 ./build/./RepRapFirmware/src/RepRap.o
 .text._ZNSt14_Function_base13_Base_managerIZNK6RepRap17GetStatusResponseEh14ResponseSourceEUljE1_E10_M_managerERSt9_Any_dataRKS5_St18_Manager_operation
                0x0000da5c       0x16 ./build/./RepRapFirmware/src/RepRap.o
 .text._ZNSt14_Function_base13_Base_managerIZNK6RepRap17GetStatusResponseEh14ResponseSourceEUljE2_E10_M_managerERSt9_Any_dataRKS5_St18_Manager_operation
                0x0000da72       0x16 ./build/./RepRapFirmware/src/RepRap.o
 .text._ZNSt14_Function_base13_Base_managerIZNK6RepRap17GetStatusResponseEh14ResponseSourceEUljE3_E10_M_managerERSt9_Any_dataRKS5_St18_Manager_operation
                0x0000da88       0x16 ./build/./RepRapFirmware/src/RepRap.o
 .text._ZNSt14_Function_base13_Base_managerIZNK6RepRap17GetStatusResponseEh14ResponseSourceEUljE4_E10_M_managerERSt9_Any_dataRKS5_St18_Manager_operation
                0x0000da9e       0x16 ./build/./RepRapFirmware/src/RepRap.o
 .text._ZNSt14_Function_base13_Base_managerIZNK6RepRap17GetStatusResponseEh14ResponseSourceEUljE5_E10_M_managerERSt9_Any_dataRKS5_St18_Manager_operation
                0x0000dab4       0x16 ./build/./RepRapFirmware/src/RepRap.o
 .text._ZNSt14_Function_base13_Base_managerIZNK6RepRap17GetStatusResponseEh14ResponseSourceEUljE6_E10_M_managerERSt9_Any_dataRKS5_St18_Manager_operation
                0x0000daca       0x16 ./build/./RepRapFirmware/src/RepRap.o
 .text._ZNSt14_Function_base13_Base_managerIZNK6RepRap17GetStatusResponseEh14ResponseSourceEUljE7_E10_M_managerERSt9_Any_dataRKS5_St18_Manager_operation
                0x0000dae0       0x16 ./build/./RepRapFirmware/src/RepRap.o
 .text._ZNSt14_Function_base13_Base_managerIZNK6RepRap17GetStatusResponseEh14ResponseSourceEUljE8_E10_M_managerERSt9_Any_dataRKS5_St18_Manager_operation
                0x0000daf6       0x16 ./build/./RepRapFirmware/src/RepRap.o
 .text._ZNSt14_Function_base13_Base_managerIZNK6RepRap17GetStatusResponseEh14ResponseSourceEUljE9_E10_M_managerERSt9_Any_dataRKS5_St18_Manager_operation
                0x0000db0c       0x16 ./build/./RepRapFirmware/src/RepRap.o
 .text._ZNSt17_Function_handlerIFfjEZNK6RepRap17GetStatusResponseEh14ResponseSourceEUljE10_E9_M_invokeERKSt9_Any_dataOj
                0x0000db22        0xc ./build/./RepRapFirmware/src/RepRap.o
 .text._ZNSt14_Function_base13_Base_managerIZNK6RepRap17GetStatusResponseEh14ResponseSourceEUljE10_E10_M_managerERSt9_Any_dataRKS5_St18_Manager_operation
                0x0000db2e       0x16 ./build/./RepRapFirmware/src/RepRap.o
 .text._ZNSt17_Function_handlerIFfjEZNK6RepRap17GetStatusResponseEh14ResponseSourceEUljE11_E9_M_invokeERKSt9_Any_dataOj
                0x0000db44        0xc ./build/./RepRapFirmware/src/RepRap.o
 .text._ZNSt14_Function_base13_Base_managerIZNK6RepRap17GetStatusResponseEh14ResponseSourceEUljE11_E10_M_managerERSt9_Any_dataRKS5_St18_Manager_operation
                0x0000db50       0x16 ./build/./RepRapFirmware/src/RepRap.o
 .text._ZNSt17_Function_handlerIFijEZNK6RepRap17GetStatusResponseEh14ResponseSourceEUljE12_E9_M_invokeERKSt9_Any_dataOj
                0x0000db66        0xc ./build/./RepRapFirmware/src/RepRap.o
 .text._ZNSt14_Function_base13_Base_managerIZNK6RepRap17GetStatusResponseEh14ResponseSourceEUljE12_E10_M_managerERSt9_Any_dataRKS5_St18_Manager_operation
                0x0000db72       0x16 ./build/./RepRapFirmware/src/RepRap.o
 .text._ZNSt17_Function_handlerIFijEZNK6RepRap17GetStatusResponseEh14ResponseSourceEUljE13_E9_M_invokeERKSt9_Any_dataOj
                0x0000db88        0xc ./build/./RepRapFirmware/src/RepRap.o
 .text._ZNSt14_Function_base13_Base_managerIZNK6RepRap17GetStatusResponseEh14ResponseSourceEUljE13_E10_M_managerERSt9_Any_dataRKS5_St18_Manager_operation
                0x0000db94       0x16 ./build/./RepRapFirmware/src/RepRap.o
 .text._ZNSt14_Function_base13_Base_managerIZNK6RepRap17GetStatusResponseEh14ResponseSourceEUljjE14_E10_M_managerERSt9_Any_dataRKS5_St18_Manager_operation
                0x0000dbaa       0x16 ./build/./RepRapFirmware/src/RepRap.o
 .text._ZNSt14_Function_base13_Base_managerIZNK6RepRap17GetStatusResponseEh14ResponseSourceEUljjE15_E10_M_managerERSt9_Any_dataRKS5_St18_Manager_operation
                0x0000dbc0       0x16 ./build/./RepRapFirmware/src/RepRap.o
 .text._ZNSt17_Function_handlerIFfjEZNK6RepRap17GetStatusResponseEh14ResponseSourceEUljE16_E9_M_invokeERKSt9_Any_dataOj
                0x0000dbd6        0xc ./build/./RepRapFirmware/src/RepRap.o
 .text._ZNSt14_Function_base13_Base_managerIZNK6RepRap17GetStatusResponseEh14ResponseSourceEUljE16_E10_M_managerERSt9_Any_dataRKS5_St18_Manager_operation
                0x0000dbe2       0x16 ./build/./RepRapFirmware/src/RepRap.o
 .text._ZNSt14_Function_base13_Base_managerIZNK6RepRap17GetStatusResponseEh14ResponseSourceEUljE17_E10_M_managerERSt9_Any_dataRKS5_St18_Manager_operation
                0x0000dbf8       0x16 ./build/./RepRapFirmware/src/RepRap.o
 .text._ZNSt17_Function_handlerIFfjEZN6RepRap17GetConfigResponseEvEUljE_E9_M_invokeERKSt9_Any_dataOj
                0x0000dc0e        0xe ./build/./RepRapFirmware/src/RepRap.o
 .text._ZNSt14_Function_base13_Base_managerIZN6RepRap17GetConfigResponseEvEUljE_E10_M_managerERSt9_Any_dataRKS4_St18_Manager_operation
                0x0000dc1c       0x16 ./build/./RepRapFirmware/src/RepRap.o
 .text._ZNSt17_Function_handlerIFfjEZN6RepRap17GetConfigResponseEvEUljE0_E9_M_invokeERKSt9_Any_dataOj
                0x0000dc32       0x10 ./build/./RepRapFirmware/src/RepRap.o
 .text._ZNSt14_Function_base13_Base_managerIZN6RepRap17GetConfigResponseEvEUljE0_E10_M_managerERSt9_Any_dataRKS4_St18_Manager_operation
                0x0000dc42       0x16 ./build/./RepRapFirmware/src/RepRap.o
 .text._ZNSt17_Function_handlerIFfjEZN6RepRap17GetConfigResponseEvEUljE1_E9_M_invokeERKSt9_Any_dataOj
                0x0000dc58       0x10 ./build/./RepRapFirmware/src/RepRap.o
 .text._ZNSt14_Function_base13_Base_managerIZN6RepRap17GetConfigResponseEvEUljE1_E10_M_managerERSt9_Any_dataRKS4_St18_Manager_operation
                0x0000dc68       0x16 ./build/./RepRapFirmware/src/RepRap.o
 .text._ZNSt14_Function_base13_Base_managerIZN6RepRap17GetConfigResponseEvEUljE2_E10_M_managerERSt9_Any_dataRKS4_St18_Manager_operation
                0x0000dc7e       0x16 ./build/./RepRapFirmware/src/RepRap.o
 .text._ZNSt17_Function_handlerIFfjEZN6RepRap17GetConfigResponseEvEUljE3_E9_M_invokeERKSt9_Any_dataOj
                0x0000dc94       0x10 ./build/./RepRapFirmware/src/RepRap.o
 .text._ZNSt14_Function_base13_Base_managerIZN6RepRap17GetConfigResponseEvEUljE3_E10_M_managerERSt9_Any_dataRKS4_St18_Manager_operation
                0x0000dca4       0x16 ./build/./RepRapFirmware/src/RepRap.o
 .text._ZNSt17_Function_handlerIFfjEZN6RepRap17GetConfigResponseEvEUljE4_E9_M_invokeERKSt9_Any_dataOj
                0x0000dcba        0xe ./build/./RepRapFirmware/src/RepRap.o
 .text._ZNSt14_Function_base13_Base_managerIZN6RepRap17GetConfigResponseEvEUljE4_E10_M_managerERSt9_Any_dataRKS4_St18_Manager_operation
                0x0000dcc8       0x16 ./build/./RepRapFirmware/src/RepRap.o
 .text._ZNSt14_Function_base13_Base_managerIZNK6RepRap23GetLegacyStatusResponseEhiEUljE_E10_M_managerERSt9_Any_dataRKS4_St18_Manager_operation
                0x0000dcde       0x16 ./build/./RepRapFirmware/src/RepRap.o
 .text._ZNSt14_Function_base13_Base_managerIZNK6RepRap23GetLegacyStatusResponseEhiEUljE0_E10_M_managerERSt9_Any_dataRKS4_St18_Manager_operation
                0x0000dcf4       0x16 ./build/./RepRapFirmware/src/RepRap.o
 .text._ZNSt14_Function_base13_Base_managerIZNK6RepRap23GetLegacyStatusResponseEhiEUljE1_E10_M_managerERSt9_Any_dataRKS4_St18_Manager_operation
                0x0000dd0a       0x16 ./build/./RepRapFirmware/src/RepRap.o
 .text._ZNSt14_Function_base13_Base_managerIZNK6RepRap23GetLegacyStatusResponseEhiEUljE2_E10_M_managerERSt9_Any_dataRKS4_St18_Manager_operation
                0x0000dd20       0x16 ./build/./RepRapFirmware/src/RepRap.o
 .text._ZNSt14_Function_base13_Base_managerIZNK6RepRap23GetLegacyStatusResponseEhiEUljE3_E10_M_managerERSt9_Any_dataRKS4_St18_Manager_operation
                0x0000dd36       0x16 ./build/./RepRapFirmware/src/RepRap.o
 .text._ZN6RepRapD2Ev
                0x0000dd4c        0x2 ./build/./RepRapFirmware/src/RepRap.o
                0x0000dd4c                RepRap::~RepRap()
                0x0000dd4c                RepRap::~RepRap()
 .text._ZN6RepRapD0Ev
                0x0000dd4e       0x10 ./build/./RepRapFirmware/src/RepRap.o
                0x0000dd4e                RepRap::~RepRap()
 .text._ZN6RepRapUlPK11ObjectModelRK24ObjectExplorationContextE1_4_FUNES2_S5_
                0x0000dd5e        0x6 ./build/./RepRapFirmware/src/RepRap.o
 .text._ZNSt17_Function_handlerIFvjjEZNK6RepRap17GetStatusResponseEh14ResponseSourceEUljjE15_E9_M_invokeERKSt9_Any_dataOjS8_
                0x0000dd64       0x24 ./build/./RepRapFirmware/src/RepRap.o
 .text._ZNSt17_Function_handlerIFfjEZNK6RepRap23GetLegacyStatusResponseEhiEUljE_E9_M_invokeERKSt9_Any_dataOj
                0x0000dd88        0xa ./build/./RepRapFirmware/src/RepRap.o
 .text._ZNSt17_Function_handlerIFfjEZNK6RepRap23GetLegacyStatusResponseEhiEUljE0_E9_M_invokeERKSt9_Any_dataOj
                0x0000dd92        0xe ./build/./RepRapFirmware/src/RepRap.o
 .text._ZNSt17_Function_handlerIFijEZNK6RepRap17GetStatusResponseEh14ResponseSourceEUljE3_E9_M_invokeERKSt9_Any_dataOj
                0x0000dda0       0x30 ./build/./RepRapFirmware/src/RepRap.o
 .text._ZNSt17_Function_handlerIFPKcjEZNK6RepRap17GetStatusResponseEh14ResponseSourceEUljE4_E9_M_invokeERKSt9_Any_dataOj
                0x0000ddd0        0xa ./build/./RepRapFirmware/src/RepRap.o
 *fill*         0x0000ddda        0x2 
 .text._ZNSt17_Function_handlerIFfjEZNK6RepRap17GetStatusResponseEh14ResponseSourceEUljE5_E9_M_invokeERKSt9_Any_dataOj
                0x0000dddc       0x18 ./build/./RepRapFirmware/src/RepRap.o
 .text._ZNSt17_Function_handlerIFijEZNK6RepRap17GetStatusResponseEh14ResponseSourceEUljE6_E9_M_invokeERKSt9_Any_dataOj
                0x0000ddf4        0xa ./build/./RepRapFirmware/src/RepRap.o
 .text._ZNSt17_Function_handlerIFfjEZNK6RepRap17GetStatusResponseEh14ResponseSourceEUljE7_E9_M_invokeERKSt9_Any_dataOj
                0x0000ddfe        0xa ./build/./RepRapFirmware/src/RepRap.o
 .text._ZNSt17_Function_handlerIFPKcjEZNK6RepRap17GetStatusResponseEh14ResponseSourceEUljE9_E9_M_invokeERKSt9_Any_dataOj
                0x0000de08        0xa ./build/./RepRapFirmware/src/RepRap.o
 .text._ZNSt17_Function_handlerIFfjEZNK6RepRap17GetStatusResponseEh14ResponseSourceEUljE17_E9_M_invokeERKSt9_Any_dataOj
                0x0000de12        0xa ./build/./RepRapFirmware/src/RepRap.o
 .text._ZNSt17_Function_handlerIFijEZN6RepRap17GetConfigResponseEvEUljE2_E9_M_invokeERKSt9_Any_dataOj
                0x0000de1c       0x16 ./build/./RepRapFirmware/src/RepRap.o
 .text._ZNSt17_Function_handlerIFfjEZNK6RepRap17GetStatusResponseEh14ResponseSourceEUljE2_E9_M_invokeERKSt9_Any_dataOj
                0x0000de32       0x12 ./build/./RepRapFirmware/src/RepRap.o
 .text._ZN6RepRapUlPK11ObjectModelR24ObjectExplorationContextE62_4_FUNES2_S4_
                0x0000de44       0x14 ./build/./RepRapFirmware/src/RepRap.o
 .text._ZN6RepRapUlPK11ObjectModelR24ObjectExplorationContextE61_4_FUNES2_S4_
                0x0000de58       0x14 ./build/./RepRapFirmware/src/RepRap.o
 .text._ZN6RepRapUlPK11ObjectModelR24ObjectExplorationContextE63_4_FUNES2_S4_
                0x0000de6c       0x16 ./build/./RepRapFirmware/src/RepRap.o
 .text._ZN6RepRapUlPK11ObjectModelR24ObjectExplorationContextE55_4_FUNES2_S4_
                0x0000de82       0x16 ./build/./RepRapFirmware/src/RepRap.o
 .text._ZN6RepRapUlPK11ObjectModelR24ObjectExplorationContextE70_4_FUNES2_S4_
                0x0000de98       0x20 ./build/./RepRapFirmware/src/RepRap.o
 .text._ZN6RepRapUlPK11ObjectModelRK24ObjectExplorationContextE5_4_FUNES2_S5_
                0x0000deb8        0xc ./build/./RepRapFirmware/src/RepRap.o
 .text._ZN6RepRapUlPK11ObjectModelR24ObjectExplorationContextE69_4_FUNES2_S4_
                0x0000dec4       0x24 ./build/./RepRapFirmware/src/RepRap.o
 .text._ZN6RepRapUlPK11ObjectModelR24ObjectExplorationContextE54_4_FUNES2_S4_
                0x0000dee8       0x22 ./build/./RepRapFirmware/src/RepRap.o
 *fill*         0x0000df0a        0x2 
 .text._ZN6RepRapUlPK11ObjectModelR24ObjectExplorationContextE59_4_FUNES2_S4_
                0x0000df0c       0x34 ./build/./RepRapFirmware/src/RepRap.o
 .text._ZNSt17_Function_handlerIFijEZNK6RepRap17GetStatusResponseEh14ResponseSourceEUljE8_E9_M_invokeERKSt9_Any_dataOj
                0x0000df40       0x18 ./build/./RepRapFirmware/src/RepRap.o
 .text._ZNSt17_Function_handlerIFijEZNK6RepRap17GetStatusResponseEh14ResponseSourceEUljE_E9_M_invokeERKSt9_Any_dataOj
                0x0000df58       0x12 ./build/./RepRapFirmware/src/RepRap.o
 .text._ZNK6BitmapItE7IterateESt8functionIFvjjEE.isra.287
                0x0000df6a       0x40 ./build/./RepRapFirmware/src/RepRap.o
 .text._ZN6RepRapUlPK11ObjectModelR24ObjectExplorationContextE46_4_FUNES2_S4_
                0x0000dfaa        0xa ./build/./RepRapFirmware/src/RepRap.o
 .text._ZN6RepRapUlPK11ObjectModelR24ObjectExplorationContextE53_4_FUNES2_S4_
                0x0000dfb4        0xa ./build/./RepRapFirmware/src/RepRap.o
 .text._ZN6RepRapUlPK11ObjectModelR24ObjectExplorationContextE60_4_FUNES2_S4_
                0x0000dfbe        0x8 ./build/./RepRapFirmware/src/RepRap.o
 .text._ZN6RepRapUlPK11ObjectModelR24ObjectExplorationContextE32_4_FUNES2_S4_
                0x0000dfc6        0xa ./build/./RepRapFirmware/src/RepRap.o
 .text._ZN6RepRapUlPK11ObjectModelR24ObjectExplorationContextE33_4_FUNES2_S4_
                0x0000dfd0        0xa ./build/./RepRapFirmware/src/RepRap.o
 .text._ZN6RepRapUlPK11ObjectModelR24ObjectExplorationContextE34_4_FUNES2_S4_
                0x0000dfda        0xa ./build/./RepRapFirmware/src/RepRap.o
 .text._ZN6RepRapUlPK11ObjectModelR24ObjectExplorationContextE37_4_FUNES2_S4_
                0x0000dfe4        0xa ./build/./RepRapFirmware/src/RepRap.o
 .text._ZN6RepRapUlPK11ObjectModelR24ObjectExplorationContextE38_4_FUNES2_S4_
                0x0000dfee        0xa ./build/./RepRapFirmware/src/RepRap.o
 .text._ZN6RepRapUlPK11ObjectModelR24ObjectExplorationContextE39_4_FUNES2_S4_
                0x0000dff8        0xa ./build/./RepRapFirmware/src/RepRap.o
 .text._ZN6RepRapUlPK11ObjectModelR24ObjectExplorationContextE40_4_FUNES2_S4_
                0x0000e002        0xa ./build/./RepRapFirmware/src/RepRap.o
 .text._ZN6RepRapUlPK11ObjectModelR24ObjectExplorationContextE41_4_FUNES2_S4_
                0x0000e00c        0xa ./build/./RepRapFirmware/src/RepRap.o
 .text._ZN6RepRapUlPK11ObjectModelR24ObjectExplorationContextE42_4_FUNES2_S4_
                0x0000e016        0xa ./build/./RepRapFirmware/src/RepRap.o
 .text._ZN6RepRapUlPK11ObjectModelR24ObjectExplorationContextE43_4_FUNES2_S4_
                0x0000e020        0xa ./build/./RepRapFirmware/src/RepRap.o
 .text._ZNSt17_Function_handlerIFijEZNK6RepRap23GetLegacyStatusResponseEhiEUljE3_E9_M_invokeERKSt9_Any_dataOj
                0x0000e02a       0x12 ./build/./RepRapFirmware/src/RepRap.o
 .text._ZNSt17_Function_handlerIFijEZNK6RepRap23GetLegacyStatusResponseEhiEUljE2_E9_M_invokeERKSt9_Any_dataOj
                0x0000e03c        0xa ./build/./RepRapFirmware/src/RepRap.o
 .text._ZNSt17_Function_handlerIFfjEZNK6RepRap17GetStatusResponseEh14ResponseSourceEUljE0_E9_M_invokeERKSt9_Any_dataOj
                0x0000e046        0xa ./build/./RepRapFirmware/src/RepRap.o
 .text._ZNSt17_Function_handlerIFfjEZNK6RepRap23GetLegacyStatusResponseEhiEUljE1_E9_M_invokeERKSt9_Any_dataOj
                0x0000e050       0x18 ./build/./RepRapFirmware/src/RepRap.o
 .text._ZNSt17_Function_handlerIFfjEZNK6RepRap17GetStatusResponseEh14ResponseSourceEUljE1_E9_M_invokeERKSt9_Any_dataOj
                0x0000e068        0xe ./build/./RepRapFirmware/src/RepRap.o
 *fill*         0x0000e076        0x2 
 .text._ZNSt17_Function_handlerIFvjjEZNK6RepRap17GetStatusResponseEh14ResponseSourceEUljjE14_E9_M_invokeERKSt9_Any_dataOjS8_
                0x0000e078       0x24 ./build/./RepRapFirmware/src/RepRap.o
 .text._ZN15ExpressionValueC2EPK11ObjectModel
                0x0000e09c       0x16 ./build/./RepRapFirmware/src/RepRap.o
                0x0000e09c                ExpressionValue::ExpressionValue(ObjectModel const*)
                0x0000e09c                ExpressionValue::ExpressionValue(ObjectModel const*)
 .text._ZN6RepRapUlPK11ObjectModelR24ObjectExplorationContextE22_4_FUNES2_S4_
                0x0000e0b2        0xe ./build/./RepRapFirmware/src/RepRap.o
 .text._ZN6RepRapUlPK11ObjectModelR24ObjectExplorationContextE21_4_FUNES2_S4_
                0x0000e0c0        0xe ./build/./RepRapFirmware/src/RepRap.o
 .text._ZN6RepRapUlPK11ObjectModelR24ObjectExplorationContextE19_4_FUNES2_S4_
                0x0000e0ce        0xe ./build/./RepRapFirmware/src/RepRap.o
 .text._ZN6RepRapUlPK11ObjectModelR24ObjectExplorationContextE17_4_FUNES2_S4_
                0x0000e0dc        0xe ./build/./RepRapFirmware/src/RepRap.o
 .text._ZN6RepRapUlPK11ObjectModelR24ObjectExplorationContextE23_4_FUNES2_S4_
                0x0000e0ea       0x12 ./build/./RepRapFirmware/src/RepRap.o
 .text._ZN6RepRapUlPK11ObjectModelR24ObjectExplorationContextE8_4_FUNES2_S4_
                0x0000e0fc       0x20 ./build/./RepRapFirmware/src/RepRap.o
 .text._ZN6RepRapUlPK11ObjectModelR24ObjectExplorationContextE6_4_FUNES2_S4_
                0x0000e11c       0x38 ./build/./RepRapFirmware/src/RepRap.o
 .text._ZN6RepRapUlPK11ObjectModelR24ObjectExplorationContextE4_4_FUNES2_S4_
                0x0000e154       0x1c ./build/./RepRapFirmware/src/RepRap.o
 .text._ZN6RepRapUlPK11ObjectModelR24ObjectExplorationContextE12_4_FUNES2_S4_
                0x0000e170       0x1c ./build/./RepRapFirmware/src/RepRap.o
 .text._ZN6RepRapUlPK11ObjectModelR24ObjectExplorationContextE2_4_FUNES2_S4_
                0x0000e18c       0x2a ./build/./RepRapFirmware/src/RepRap.o
 .text._ZNK4Move17GetGeometryStringEv
                0x0000e1b6        0xc ./build/./RepRapFirmware/src/RepRap.o
                0x0000e1b6                Move::GetGeometryString() const
 *fill*         0x0000e1c2        0x2 
 .text._ZN6RepRapC2Ev
                0x0000e1c4       0x7c ./build/./RepRapFirmware/src/RepRap.o
                0x0000e1c4                RepRap::RepRap()
                0x0000e1c4                RepRap::RepRap()
 .text._ZN6RepRap6TimingE11MessageType
                0x0000e240       0x54 ./build/./RepRapFirmware/src/RepRap.o
                0x0000e240                RepRap::Timing(MessageType)
 .text._ZN6RepRap11DiagnosticsE11MessageType
                0x0000e294       0xa0 ./build/./RepRapFirmware/src/RepRap.o
                0x0000e294                RepRap::Diagnostics(MessageType)
 .text._ZN6RepRap4SpinEv
                0x0000e334      0x17c ./build/./RepRapFirmware/src/RepRap.o
                0x0000e334                RepRap::Spin()
 .text._ZN6RepRap14RunStartupFileEPKc
                0x0000e4b0       0x44 ./build/./RepRapFirmware/src/RepRap.o
                0x0000e4b0                RepRap::RunStartupFile(char const*)
 .text._ZN6RepRap13EmergencyStopEv
                0x0000e4f4       0x52 ./build/./RepRapFirmware/src/RepRap.o
                0x0000e4f4                RepRap::EmergencyStop()
 .text._ZN6RepRap8SetDebugE6Moduleb
                0x0000e546       0x20 ./build/./RepRapFirmware/src/RepRap.o
                0x0000e546                RepRap::SetDebug(Module, bool)
 .text._ZN6RepRap10ClearDebugEv
                0x0000e566        0x8 ./build/./RepRapFirmware/src/RepRap.o
                0x0000e566                RepRap::ClearDebug()
 *fill*         0x0000e56e        0x2 
 .text._ZN6RepRap10PrintDebugE11MessageType
                0x0000e570       0xa8 ./build/./RepRapFirmware/src/RepRap.o
                0x0000e570                RepRap::PrintDebug(MessageType)
 .text._ZN6RepRap7AddToolEP4Tool
                0x0000e618       0x58 ./build/./RepRapFirmware/src/RepRap.o
                0x0000e618                RepRap::AddTool(Tool*)
 .text._ZNK6RepRap20GetLockedCurrentToolEv
                0x0000e670       0x20 ./build/./RepRapFirmware/src/RepRap.o
                0x0000e670                RepRap::GetLockedCurrentTool() const
 .text._ZNK6RepRap7GetToolEi
                0x0000e690       0x44 ./build/./RepRapFirmware/src/RepRap.o
                0x0000e690                RepRap::GetTool(int) const
 .text._ZN6RepRapUlPK11ObjectModelR24ObjectExplorationContextE10_4_FUNES2_S4_
                0x0000e6d4       0x2a ./build/./RepRapFirmware/src/RepRap.o
 .text._ZN6RepRap10SelectToolEib
                0x0000e6fe       0x3a ./build/./RepRapFirmware/src/RepRap.o
                0x0000e6fe                RepRap::SelectTool(int, bool)
 .text._ZN6RepRap10DeleteToolEi
                0x0000e738       0xb4 ./build/./RepRapFirmware/src/RepRap.o
                0x0000e738                RepRap::DeleteTool(int)
 .text._ZNK6RepRap9PrintToolEiRK9StringRef
                0x0000e7ec       0x30 ./build/./RepRapFirmware/src/RepRap.o
                0x0000e7ec                RepRap::PrintTool(int, StringRef const&) const
 .text._ZN6RepRap11StandbyToolEib
                0x0000e81c       0x4c ./build/./RepRapFirmware/src/RepRap.o
                0x0000e81c                RepRap::StandbyTool(int, bool)
 .text._ZNK6RepRap20GetCurrentToolNumberEv
                0x0000e868       0x12 ./build/./RepRapFirmware/src/RepRap.o
                0x0000e868                RepRap::GetCurrentToolNumber() const
 .text._ZN6RepRapUlPK11ObjectModelR24ObjectExplorationContextE56_4_FUNES2_S4_
                0x0000e87a       0x14 ./build/./RepRapFirmware/src/RepRap.o
 *fill*         0x0000e88e        0x2 
 .text._ZNK6RepRap23GetCurrentOrDefaultToolEv
                0x0000e890       0x24 ./build/./RepRapFirmware/src/RepRap.o
                0x0000e890                RepRap::GetCurrentOrDefaultTool() const
 .text._ZNK6RepRap22IsHeaterAssignedToToolEa
                0x0000e8b4       0x4c ./build/./RepRapFirmware/src/RepRap.o
                0x0000e8b4                RepRap::IsHeaterAssignedToTool(signed char) const
 .text._ZNK6RepRap26GetNumberOfContiguousToolsEv
                0x0000e900       0x34 ./build/./RepRapFirmware/src/RepRap.o
                0x0000e900                RepRap::GetNumberOfContiguousTools() const
 .text._ZNK6RepRap22ReportToolTemperaturesERK9StringRefPK4Toolb
                0x0000e934       0xac ./build/./RepRapFirmware/src/RepRap.o
                0x0000e934                RepRap::ReportToolTemperatures(StringRef const&, Tool const*, bool) const
 .text._ZNK6RepRap25ReportAllToolTemperaturesERK9StringRef
                0x0000e9e0       0x40 ./build/./RepRapFirmware/src/RepRap.o
                0x0000e9e0                RepRap::ReportAllToolTemperatures(StringRef const&) const
 .text._ZN6RepRap29SetAllToolsFirmwareRetractionER11GCodeBufferRK9StringRefRP12OutputBuffer
                0x0000ea20       0x26 ./build/./RepRapFirmware/src/RepRap.o
                0x0000ea20                RepRap::SetAllToolsFirmwareRetraction(GCodeBuffer&, StringRef const&, OutputBuffer*&)
 .text._ZNK6RepRap15GetCurrentXAxesEv
                0x0000ea46        0x8 ./build/./RepRapFirmware/src/RepRap.o
                0x0000ea46                RepRap::GetCurrentXAxes() const
 .text._ZNK6RepRap15GetCurrentYAxesEv
                0x0000ea4e        0x8 ./build/./RepRapFirmware/src/RepRap.o
                0x0000ea4e                RepRap::GetCurrentYAxes() const
 .text._ZN6RepRap21SetPreviousToolNumberEv
                0x0000ea56       0x16 ./build/./RepRapFirmware/src/RepRap.o
                0x0000ea56                RepRap::SetPreviousToolNumber()
 .text._ZN6RepRap4TickEv
                0x0000ea6c       0x6c ./build/./RepRapFirmware/src/RepRap.o
                0x0000ea6c                RepRap::Tick()
 .text._ZNK6RepRap19SpinTimeoutImminentEv
                0x0000ead8       0x10 ./build/./RepRapFirmware/src/RepRap.o
                0x0000ead8                RepRap::SpinTimeoutImminent() const
 .text._ZN6RepRap19GetFileInfoResponseEPKcRP12OutputBufferb
                0x0000eae8      0x19c ./build/./RepRapFirmware/src/RepRap.o
                0x0000eae8                RepRap::GetFileInfoResponse(char const*, OutputBuffer*&, bool)
 .text._ZN6RepRap16AppendFloatArrayEP12OutputBufferPKcjSt8functionIFfjEEj
                0x0000ec84       0x6c ./build/./RepRapFirmware/src/RepRap.o
                0x0000ec84                RepRap::AppendFloatArray(OutputBuffer*, char const*, unsigned int, std::function<float (unsigned int)>, unsigned int)
 .text._ZN6RepRap14AppendIntArrayEP12OutputBufferPKcjSt8functionIFijEE
                0x0000ecf0       0x64 ./build/./RepRapFirmware/src/RepRap.o
                0x0000ecf0                RepRap::AppendIntArray(OutputBuffer*, char const*, unsigned int, std::function<int (unsigned int)>)
 .text._ZN6RepRap17GetConfigResponseEv
                0x0000ed54      0x208 ./build/./RepRapFirmware/src/RepRap.o
                0x0000ed54                RepRap::GetConfigResponse()
 .text._ZN6RepRap17AppendStringArrayEP12OutputBufferPKcjSt8functionIFS3_jEE
                0x0000ef5c       0x5c ./build/./RepRapFirmware/src/RepRap.o
                0x0000ef5c                RepRap::AppendStringArray(OutputBuffer*, char const*, unsigned int, std::function<char const* (unsigned int)>)
 .text._ZNK6RepRap16GetModelResponseEPKcS1_
                0x0000efb8       0xb4 ./build/./RepRapFirmware/src/RepRap.o
                0x0000efb8                RepRap::GetModelResponse(char const*, char const*) const
 .text._ZN6RepRap4BeepEjj
                0x0000f06c       0x66 ./build/./RepRapFirmware/src/RepRap.o
                0x0000f06c                RepRap::Beep(unsigned int, unsigned int)
 .text._ZN6RepRap10SetMessageEPKc
                0x0000f0d2       0x50 ./build/./RepRapFirmware/src/RepRap.o
                0x0000f0d2                RepRap::SetMessage(char const*)
 *fill*         0x0000f122        0x2 
 .text._ZN6RepRap8SetAlertEPKcS1_if6BitmapItE
                0x0000f124       0xb8 ./build/./RepRapFirmware/src/RepRap.o
                0x0000f124                RepRap::SetAlert(char const*, char const*, int, float, Bitmap<unsigned short>)
 .text._ZN6RepRap10ClearAlertEv
                0x0000f1dc       0x2c ./build/./RepRapFirmware/src/RepRap.o
                0x0000f1dc                RepRap::ClearAlert()
 .text._ZNK6RepRap14GetStatusIndexEv
                0x0000f208       0x7e ./build/./RepRapFirmware/src/RepRap.o
                0x0000f208                RepRap::GetStatusIndex() const
 *fill*         0x0000f286        0x2 
 .text._ZNK6RepRap23GetLegacyStatusResponseEhi
                0x0000f288      0x5a8 ./build/./RepRapFirmware/src/RepRap.o
                0x0000f288                RepRap::GetLegacyStatusResponse(unsigned char, int) const
 .text._ZNK6RepRap17GetStatusResponseEh14ResponseSource
                0x0000f830      0xd30 ./build/./RepRapFirmware/src/RepRap.o
                0x0000f830                RepRap::GetStatusResponse(unsigned char, ResponseSource) const
 .text._ZNK6RepRap15GetStatusStringEv
                0x00010560       0x14 ./build/./RepRapFirmware/src/RepRap.o
                0x00010560                RepRap::GetStatusString() const
 .text._ZN6RepRapUlPK11ObjectModelR24ObjectExplorationContextE68_4_FUNES2_S4_
                0x00010574       0x14 ./build/./RepRapFirmware/src/RepRap.o
 .text._ZNK6RepRap7GetNameEv
                0x00010588        0x4 ./build/./RepRapFirmware/src/RepRap.o
                0x00010588                RepRap::GetName() const
 .text._ZN6RepRap7SetNameEPKc
                0x0001058c       0x22 ./build/./RepRapFirmware/src/RepRap.o
                0x0001058c                RepRap::SetName(char const*)
 .text._ZN6RepRap30GetProhibitedExtruderMovementsEjj
                0x000105ae       0x66 ./build/./RepRapFirmware/src/RepRap.o
                0x000105ae                RepRap::GetProhibitedExtruderMovements(unsigned int, unsigned int)
 .text._ZN6RepRap20FlagTemperatureFaultEa
                0x00010614       0x28 ./build/./RepRapFirmware/src/RepRap.o
                0x00010614                RepRap::FlagTemperatureFault(signed char)
 .text._ZN6RepRap21ClearTemperatureFaultEaRK9StringRef
                0x0001063c       0x34 ./build/./RepRapFirmware/src/RepRap.o
                0x0001063c                RepRap::ClearTemperatureFault(signed char, StringRef const&)
 .text._ZN6RepRap32CheckFirmwareUpdatePrerequisitesERK9StringRef
                0x00010670       0x14 ./build/./RepRapFirmware/src/RepRap.o
                0x00010670                RepRap::CheckFirmwareUpdatePrerequisites(StringRef const&)
 .text._ZN6RepRap14UpdateFirmwareEv
                0x00010684        0x2 ./build/./RepRapFirmware/src/RepRap.o
                0x00010684                RepRap::UpdateFirmware()
 .text._ZN6RepRap8DoDivideEmm
                0x00010686        0x6 ./build/./RepRapFirmware/src/RepRap.o
                0x00010686                RepRap::DoDivide(unsigned long, unsigned long)
 .text._ZN6RepRap16GenerateBusFaultEv
                0x0001068c        0x8 ./build/./RepRapFirmware/src/RepRap.o
                0x0001068c                RepRap::GenerateBusFault()
 .text._ZN6RepRap8SinfCosfEf
                0x00010694       0x1a ./build/./RepRapFirmware/src/RepRap.o
                0x00010694                RepRap::SinfCosf(float)
 *fill*         0x000106ae        0x2 
 .text._ZNK6RepRap19ReportInternalErrorEPKcS1_i
                0x000106b0       0x20 ./build/./RepRapFirmware/src/RepRap.o
                0x000106b0                RepRap::ReportInternalError(char const*, char const*, int) const
 .text._ZN6StringILj20EE10CopyAndPadEPKc
                0x000106d0       0x1e ./build/./RepRapFirmware/src/RepRap.o
                0x000106d0                String<20u>::CopyAndPad(char const*)
 .text._ZN6RepRap11SetPasswordEPKc
                0x000106ee        0xa ./build/./RepRapFirmware/src/RepRap.o
                0x000106ee                RepRap::SetPassword(char const*)
 .text._ZN6RepRap4InitEv
                0x000106f8      0x188 ./build/./RepRapFirmware/src/RepRap.o
                0x000106f8                RepRap::Init()
 .text.startup._GLOBAL__sub_I_VersionText
                0x00010880       0x10 ./build/./RepRapFirmware/src/RepRap.o
 .text._ZNSt14_Function_base13_Base_managerIZ11ListDriversRK9StringRef6BitmapImEEUljjE_E10_M_managerERSt9_Any_dataRKS8_St18_Manager_operation
                0x00010890       0x1a ./build/./RepRapFirmware/src/RepRapFirmware.o
 *fill*         0x000108aa        0x2 
 .text._ZNSt17_Function_handlerIFvjjEZ11ListDriversRK9StringRef6BitmapImEEUljjE_E9_M_invokeERKSt9_Any_dataOjSB_
                0x000108ac        0xc ./build/./RepRapFirmware/src/RepRapFirmware.o
 .text._Z20GetFloatFormatStringj
                0x000108b8       0x14 ./build/./RepRapFirmware/src/RepRapFirmware.o
                0x000108b8                GetFloatFormatString(unsigned int)
 .text._Z13GetModuleNameh
                0x000108cc       0x18 ./build/./RepRapFirmware/src/RepRapFirmware.o
                0x000108cc                GetModuleName(unsigned char)
 .text._ZN11MillisTimer5StartEv
                0x000108e4       0x10 ./build/./RepRapFirmware/src/RepRapFirmware.o
                0x000108e4                MillisTimer::Start()
 .text._ZNK11MillisTimer5CheckEm
                0x000108f4       0x1c ./build/./RepRapFirmware/src/RepRapFirmware.o
                0x000108f4                MillisTimer::Check(unsigned long) const
 .text._ZN11MillisTimer12CheckAndStopEm
                0x00010910       0x10 ./build/./RepRapFirmware/src/RepRapFirmware.o
                0x00010910                MillisTimer::CheckAndStop(unsigned long)
 .text.debugPrintf
                0x00010920       0x2c ./build/./RepRapFirmware/src/RepRapFirmware.o
                0x00010920                debugPrintf
 .text._Z5delaym
                0x0001094c        0x4 ./build/./RepRapFirmware/src/RepRapFirmware.o
                0x0001094c                delay(unsigned long)
 .text._Z9memcpyu32PmPKmj
                0x00010950       0x6a ./build/./RepRapFirmware/src/RepRapFirmware.o
                0x00010950                memcpyu32(unsigned long*, unsigned long const*, unsigned int)
 *fill*         0x000109ba        0x6 
 .text._Z7HideNanf
                0x000109c0       0x44 ./build/./RepRapFirmware/src/RepRapFirmware.o
                0x000109c0                HideNan(float)
 .text._Z11ListDriversRK9StringRef6BitmapImE
                0x00010a04       0x70 ./build/./RepRapFirmware/src/RepRapFirmware.o
