Archive member included to satisfy reference by file (symbol)

./build/\libLPCCore.a(startup_LPC17xx.o)
                              (Reset_Handler)
./build/\libLPCCore.a(main.o)
                              c:/users/andy/.vscode/extensions/metalcode-eu.windows-arm-none-eabi-0.1.6/bin/../lib/gcc/arm-none-eabi/8.2.1/../../../../arm-none-eabi/lib/thumb/v7-m/nofp/crt0.o (main)
./build/\libLPCCore.a(variant.o)
                              ./build/\libLPCCore.a(main.o) (init())
./build/\libLPCCore.a(heap_5.o)
                              ./build/\libLPCCore.a(main.o) (vPortDefineHeapRegions)
./build/\libLPCCore.a(systick.o)
                              ./build/\libLPCCore.a(main.o) (SysTick_Init)
./build/\libLPCCore.a(system_LPC17xx.o)
                              ./build/\libLPCCore.a(main.o) (SystemInit)
./build/\libLPCCore.a(clock_17xx_40xx.o)
                              ./build/\libLPCCore.a(system_LPC17xx.o) (Chip_Clock_EnablePLL)
./build/\libLPCCore.a(iap.o)  ./build/\libLPCCore.a(system_LPC17xx.o) (Chip_IAP_ReadPID)
./build/\libLPCCore.a(AnalogIn.o)
                              ./build/\libLPCCore.a(variant.o) (AnalogInInit())
./build/\libLPCCore.a(AnalogOut.o)
                              ./build/\libLPCCore.a(variant.o) (AnalogOutInit())
./build/\libLPCCore.a(AnalogOutServo.o)
                              ./build/\libLPCCore.a(AnalogOut.o) (AnalogWriteServo(float, unsigned short, gpioPins_et))
./build/\libLPCCore.a(AnalogOutSoftwarePWM.o)
                              ./build/\libLPCCore.a(AnalogOut.o) (CanDoSoftwarePWM(gpioPins_et))
./build/\libLPCCore.a(new.o)  ./build/\libLPCCore.a(AnalogOutSoftwarePWM.o) (operator new(unsigned int))
./build/\libLPCCore.a(wiring_digital.o)
                              ./build/\libLPCCore.a(AnalogOut.o) (pinModeDuet)
./build/\libLPCCore.a(SoftwarePWM.o)
                              ./build/\libLPCCore.a(AnalogOutSoftwarePWM.o) (SoftwarePWM::SoftwarePWM(gpioPins_et))
./build/\libLPCCore.a(SoftwarePWMTimer.o)
                              ./build/\libLPCCore.a(SoftwarePWM.o) (SoftwarePWMTimer::disable(int))
./build/\libLPCCore.a(tasks.o)
                              ./build/\libLPCCore.a(heap_5.o) (vTaskSuspendAll)
./build/\libLPCCore.a(port.o)
                              ./build/\libLPCCore.a(tasks.o) (pxPortInitialiseStack)
./build/\libLPCCore.a(gpio.o)
                              ./build/\libLPCCore.a(AnalogIn.o) (GPIO_PinFunction)
./build/\libLPCCore.a(adc_17xx_40xx.o)
                              ./build/\libLPCCore.a(AnalogIn.o) (Chip_ADC_Init)
./build/\libLPCCore.a(ADCPreFilter.o)
                              ./build/\libLPCCore.a(AnalogIn.o) (ADCPreFilter::UpdateChannels(unsigned char))
./build/\libLPCCore.a(DMA.o)  ./build/\libLPCCore.a(ADCPreFilter.o) (InitialiseDMA())
./build/\libLPCCore.a(list.o)
                              ./build/\libLPCCore.a(tasks.o) (vListInitialise)
./build/\libLPCCore.a(gpdma_17xx_40xx.o)
                              ./build/\libLPCCore.a(DMA.o) (Chip_GPDMA_Init)
c:/users/andy/.vscode/extensions/metalcode-eu.windows-arm-none-eabi-0.1.6/bin/../lib/gcc/arm-none-eabi/8.2.1/../../../../arm-none-eabi/lib/thumb/v7-m/nofp\libsupc++.a(atexit_arm.o)
                              ./build/./RepRapFirmware/src/RepRapFirmware.o (__aeabi_atexit)
c:/users/andy/.vscode/extensions/metalcode-eu.windows-arm-none-eabi-0.1.6/bin/../lib/gcc/arm-none-eabi/8.2.1/../../../../arm-none-eabi/lib/thumb/v7-m/nofp\libsupc++.a(class_type_info.o)
                              ./build/./RepRapFirmware/src/GCodes/GCodes.o (vtable for __cxxabiv1::__class_type_info)
c:/users/andy/.vscode/extensions/metalcode-eu.windows-arm-none-eabi-0.1.6/bin/../lib/gcc/arm-none-eabi/8.2.1/../../../../arm-none-eabi/lib/thumb/v7-m/nofp\libsupc++.a(eh_arm.o)
                              ./build/./RepRapFirmware/src/Platform.o (__cxa_end_cleanup)
c:/users/andy/.vscode/extensions/metalcode-eu.windows-arm-none-eabi-0.1.6/bin/../lib/gcc/arm-none-eabi/8.2.1/../../../../arm-none-eabi/lib/thumb/v7-m/nofp\libsupc++.a(eh_catch.o)
                              ./build/./RepRapFirmware/src/RepRap.o (__cxa_begin_catch)
c:/users/andy/.vscode/extensions/metalcode-eu.windows-arm-none-eabi-0.1.6/bin/../lib/gcc/arm-none-eabi/8.2.1/../../../../arm-none-eabi/lib/thumb/v7-m/nofp\libsupc++.a(eh_exception.o)
                              c:/users/andy/.vscode/extensions/metalcode-eu.windows-arm-none-eabi-0.1.6/bin/../lib/gcc/arm-none-eabi/8.2.1/../../../../arm-none-eabi/lib/thumb/v7-m/nofp\libsupc++.a(eh_arm.o) (typeinfo for __cxxabiv1::__forced_unwind)
c:/users/andy/.vscode/extensions/metalcode-eu.windows-arm-none-eabi-0.1.6/bin/../lib/gcc/arm-none-eabi/8.2.1/../../../../arm-none-eabi/lib/thumb/v7-m/nofp\libsupc++.a(eh_globals.o)
                              c:/users/andy/.vscode/extensions/metalcode-eu.windows-arm-none-eabi-0.1.6/bin/../lib/gcc/arm-none-eabi/8.2.1/../../../../arm-none-eabi/lib/thumb/v7-m/nofp\libsupc++.a(eh_catch.o) (__cxa_get_globals_fast)
c:/users/andy/.vscode/extensions/metalcode-eu.windows-arm-none-eabi-0.1.6/bin/../lib/gcc/arm-none-eabi/8.2.1/../../../../arm-none-eabi/lib/thumb/v7-m/nofp\libsupc++.a(eh_personality.o)
                              ./build/./RepRapFirmware/src/OutputMemory.o (__gxx_personality_v0)
c:/users/andy/.vscode/extensions/metalcode-eu.windows-arm-none-eabi-0.1.6/bin/../lib/gcc/arm-none-eabi/8.2.1/../../../../arm-none-eabi/lib/thumb/v7-m/nofp\libsupc++.a(eh_terminate.o)
                              ./build/./RepRapFirmware/src/libcpp/eh_alloc.o (std::terminate())
c:/users/andy/.vscode/extensions/metalcode-eu.windows-arm-none-eabi-0.1.6/bin/../lib/gcc/arm-none-eabi/8.2.1/../../../../arm-none-eabi/lib/thumb/v7-m/nofp\libsupc++.a(eh_throw.o)
                              ./build/./RepRapFirmware/src/GCodes/GCodes.o (__cxa_throw)
c:/users/andy/.vscode/extensions/metalcode-eu.windows-arm-none-eabi-0.1.6/bin/../lib/gcc/arm-none-eabi/8.2.1/../../../../arm-none-eabi/lib/thumb/v7-m/nofp\libsupc++.a(eh_unex_handler.o)
                              c:/users/andy/.vscode/extensions/metalcode-eu.windows-arm-none-eabi-0.1.6/bin/../lib/gcc/arm-none-eabi/8.2.1/../../../../arm-none-eabi/lib/thumb/v7-m/nofp\libsupc++.a(eh_terminate.o) (__cxxabiv1::__unexpected_handler)
c:/users/andy/.vscode/extensions/metalcode-eu.windows-arm-none-eabi-0.1.6/bin/../lib/gcc/arm-none-eabi/8.2.1/../../../../arm-none-eabi/lib/thumb/v7-m/nofp\libsupc++.a(si_class_type_info.o)
                              c:/users/andy/.vscode/extensions/metalcode-eu.windows-arm-none-eabi-0.1.6/bin/../lib/gcc/arm-none-eabi/8.2.1/../../../../arm-none-eabi/lib/thumb/v7-m/nofp\libsupc++.a(class_type_info.o) (vtable for __cxxabiv1::__si_class_type_info)
c:/users/andy/.vscode/extensions/metalcode-eu.windows-arm-none-eabi-0.1.6/bin/../lib/gcc/arm-none-eabi/8.2.1/../../../../arm-none-eabi/lib/thumb/v7-m/nofp\libsupc++.a(tinfo.o)
                              c:/users/andy/.vscode/extensions/metalcode-eu.windows-arm-none-eabi-0.1.6/bin/../lib/gcc/arm-none-eabi/8.2.1/../../../../arm-none-eabi/lib/thumb/v7-m/nofp\libsupc++.a(class_type_info.o) (std::type_info::~type_info())
c:/users/andy/.vscode/extensions/metalcode-eu.windows-arm-none-eabi-0.1.6/bin/../lib/gcc/arm-none-eabi/8.2.1/../../../../arm-none-eabi/lib/thumb/v7-m/nofp\libsupc++.a(eh_call.o)
                              c:/users/andy/.vscode/extensions/metalcode-eu.windows-arm-none-eabi-0.1.6/bin/../lib/gcc/arm-none-eabi/8.2.1/../../../../arm-none-eabi/lib/thumb/v7-m/nofp\libsupc++.a(eh_personality.o) (__cxa_call_terminate)
./build/\libRRFLibraries.a(IP4String.o)
                              ./build/./RepRapFirmware/src/ObjectModel/ObjectModel.o (IP4String::IP4String(unsigned long))
./build/\libRRFLibraries.a(IPAddress.o)
                              ./build/./RepRapFirmware/src/GCodes/GCodeBuffer/BinaryParser.o (IPAddress::SetV4(unsigned char const*))
./build/\libRRFLibraries.a(NamedEnum.o)
                              ./build/./RepRapFirmware/src/GCodes/GCodeBuffer/ExpressionParser.o (NamedEnumLookup(char const*, char const* const*, unsigned int))
./build/\libRRFLibraries.a(NumericConverter.o)
                              ./build/./RepRapFirmware/src/GCodes/GCodeBuffer/ExpressionParser.o (NumericConverter::FitsInInt32() const)
./build/\libRRFLibraries.a(SafeStrtod.o)
                              ./build/./RepRapFirmware/src/GCodes/GCodes3.o (SafeStrtof(char const*, char const**))
./build/\libRRFLibraries.a(SafeVsnprintf.o)
                              ./build/./RepRapFirmware/src/bossa/Samba.o (SafeSnprintf(char*, unsigned int, char const*, ...))
./build/\libRRFLibraries.a(StringBuffer.o)
                              ./build/./RepRapFirmware/src/GCodes/GCodeBuffer/ExpressionParser.o (StringBuffer::Fix())
./build/\libRRFLibraries.a(StringFunctions.o)
                              ./build/./RepRapFirmware/src/GCodes/GCodes.o (StringEqualsIgnoreCase(char const*, char const*))
./build/\libRRFLibraries.a(StringRef.o)
                              ./build/./RepRapFirmware/src/OutputMemory.o (StringRef::strlen() const)
./build/\libRRFLibraries.a(Strnlen.o)
                              ./build/./RepRapFirmware/src/Heating/Sensors/ThermocoupleSensor31856.o (Strnlen(char const*, unsigned int))
./build/\libRRFLibraries.a(Deviation.o)
                              ./build/./RepRapFirmware/src/GCodes/GCodes4.o (Deviation::Deviation())
./build/\libRRFLibraries.a(DeviationAccumulator.o)
                              ./build/./RepRapFirmware/src/Heating/LocalHeater.o (DeviationAccumulator::DeviationAccumulator())
./build/\libRRFLibraries.a(Isqrt.o)
                              ./build/./RepRapFirmware/src/Platform.o (isqrt64(unsigned long long))
./build/\libRRFLibraries.a(RTOSIface.o)
                              ./build/./RepRapFirmware/src/Platform.o (Mutex::Create(char const*))
./build/\libLPCCore.a(wdt.o)  ./build/./RepRapFirmware/src/RepRap.o (WatchdogEnable)
./build/\libLPCCore.a(timer.o)
                              ./build/./RepRapFirmware/src/Movement/StepTimer.o (getPclk)
./build/\libLPCCore.a(Reset.o)
                              ./build/./RepRapFirmware/src/Hardware/ExceptionHandlers.o (Reset)
./build/\libLPCCore.a(WMath.o)
                              ./build/./RepRapFirmware/src/GCodes/GCodeBuffer/ExpressionParser.o (random(long))
./build/\libLPCCore.a(exti.o)
                              ./build/./RepRapFirmware/src/Hardware/IoPorts.o (attachInterrupt(gpioPins_et, void (*)(CallbackParameter) noexcept, InterruptMode, CallbackParameter))
./build/\libLPCCore.a(SerialUSB.o)
                              ./build/./RepRapFirmware/src/Platform.o (SerialUSB::write(unsigned char))
./build/\libLPCCore.a(wirish_time.o)
                              ./build/./RepRapFirmware/src/Hardware/SharedSpi/SharedSpiClient.o (delayMicroseconds)
./build/\libLPCCore.a(USBCDC.o)
                              ./build/\libLPCCore.a(SerialUSB.o) (USBCDC::send_nb(unsigned char*, unsigned long, unsigned long*, bool))
./build/\libLPCCore.a(USBSerial.o)
                              ./build/\libLPCCore.a(SerialUSB.o) (USBSerial::USBSerial(bool, unsigned short, unsigned short, unsigned short))
./build/\libLPCCore.a(ConfigurableUART.o)
                              ./build/./RepRapFirmware/src/GCodes/GCodes.o (ConfigurableUART::read())
./build/\libLPCCore.a(HardwareSPI.o)
                              ./build/./RepRapFirmware/src/Linux/DataTransfer.o (HardwareSPI::disable())
./build/\libLPCCore.a(SPI.o)  ./build/./RepRapFirmware/src/Hardware/SharedSpi/SharedSpiDevice.o (SPI::getSSPDevice(SSPChannel))
./build/\libLPCCore.a(Wire.o)
                              ./build/./RepRapFirmware/src/targets/LPC/MCP4461/MCP4461.o (TwoWire::begin(unsigned char))
./build/\libLPCCore.a(WireBase.o)
                              ./build/./RepRapFirmware/src/targets/LPC/MCP4461/MCP4461.o (WireBase::beginTransmission(unsigned char))
./build/\libLPCCore.a(queue.o)
                              ./build/\libRRFLibraries.a(RTOSIface.o) (xQueueGenericCreateStatic)
./build/\libLPCCore.a(delay.o)
                              ./build/\libLPCCore.a(wirish_time.o) (delay_us)
./build/\libLPCCore.a(iocon_17xx_40xx.o)
                              ./build/\libLPCCore.a(HardwareSPI.o) (Chip_IOCON_PinMux)
./build/\libLPCCore.a(ssp_17xx_40xx.o)
                              ./build/\libLPCCore.a(HardwareSPI.o) (Chip_SSP_SetBitRate)
./build/\libLPCCore.a(HardwareSerial.o)
                              ./build/\libLPCCore.a(ConfigurableUART.o) (HardwareSerial::begin(unsigned long))
./build/\libLPCCore.a(usart.o)
                              ./build/\libLPCCore.a(HardwareSerial.o) (usart_init)
./build/\libLPCCore.a(USBHAL_LPC17.o)
                              ./build/\libLPCCore.a(USBCDC.o) (get_usb_phy())
./build/\libLPCCore.a(EndpointResolver.o)
                              ./build/\libLPCCore.a(USBCDC.o) (EndpointResolver::EndpointResolver(usb_ep_table_t const*))
./build/\libLPCCore.a(USBDevice.o)
                              ./build/\libLPCCore.a(USBCDC.o) (USBDevice::out_packet(unsigned char))
./build/\libLPCCore.a(SoftwareSPI.o)
                              ./build/\libLPCCore.a(SPI.o) (SoftwareSPI::SWSSP0)
./build/\libLPCCore.a(ring_buffer.o)
                              ./build/\libLPCCore.a(HardwareSerial.o) (RingBuffer_Init)
./build/\libLPCCore.a(uart_17xx_40xx.o)
                              ./build/\libLPCCore.a(usart.o) (Chip_UART_TXEnable)
./build/\libLPCCore.a(mbed_critical.o)
                              ./build/\libLPCCore.a(USBDevice.o) (core_util_critical_section_enter)
c:/users/andy/.vscode/extensions/metalcode-eu.windows-arm-none-eabi-0.1.6/bin/../lib/gcc/arm-none-eabi/8.2.1/../../../../arm-none-eabi/lib/thumb/v7-m/nofp\libm.a(lib_a-s_llrint.o)
                              ./build/\libRRFLibraries.a(SafeVsnprintf.o) (llrint)
c:/users/andy/.vscode/extensions/metalcode-eu.windows-arm-none-eabi-0.1.6/bin/../lib/gcc/arm-none-eabi/8.2.1/../../../../arm-none-eabi/lib/thumb/v7-m/nofp\libm.a(lib_a-sf_atan.o)
                              ./build/./RepRapFirmware/src/GCodes/GCodes2.o (atanf)
c:/users/andy/.vscode/extensions/metalcode-eu.windows-arm-none-eabi-0.1.6/bin/../lib/gcc/arm-none-eabi/8.2.1/../../../../arm-none-eabi/lib/thumb/v7-m/nofp\libm.a(lib_a-sf_cos.o)
                              ./build/./RepRapFirmware/src/RepRap.o (cosf)
c:/users/andy/.vscode/extensions/metalcode-eu.windows-arm-none-eabi-0.1.6/bin/../lib/gcc/arm-none-eabi/8.2.1/../../../../arm-none-eabi/lib/thumb/v7-m/nofp\libm.a(lib_a-sf_fabs.o)
                              c:/users/andy/.vscode/extensions/metalcode-eu.windows-arm-none-eabi-0.1.6/bin/../lib/gcc/arm-none-eabi/8.2.1/../../../../arm-none-eabi/lib/thumb/v7-m/nofp\libm.a(lib_a-sf_atan.o) (fabsf)
c:/users/andy/.vscode/extensions/metalcode-eu.windows-arm-none-eabi-0.1.6/bin/../lib/gcc/arm-none-eabi/8.2.1/../../../../arm-none-eabi/lib/thumb/v7-m/nofp\libm.a(lib_a-sf_floor.o)
                              ./build/./RepRapFirmware/src/GCodes/GCodes.o (floorf)
c:/users/andy/.vscode/extensions/metalcode-eu.windows-arm-none-eabi-0.1.6/bin/../lib/gcc/arm-none-eabi/8.2.1/../../../../arm-none-eabi/lib/thumb/v7-m/nofp\libm.a(lib_a-sf_lrint.o)
                              ./build/./RepRapFirmware/src/Platform.o (lrintf)
c:/users/andy/.vscode/extensions/metalcode-eu.windows-arm-none-eabi-0.1.6/bin/../lib/gcc/arm-none-eabi/8.2.1/../../../../arm-none-eabi/lib/thumb/v7-m/nofp\libm.a(lib_a-sf_round.o)
                              ./build/./RepRapFirmware/src/RepRap.o (roundf)
c:/users/andy/.vscode/extensions/metalcode-eu.windows-arm-none-eabi-0.1.6/bin/../lib/gcc/arm-none-eabi/8.2.1/../../../../arm-none-eabi/lib/thumb/v7-m/nofp\libm.a(lib_a-sf_sin.o)
                              ./build/./RepRapFirmware/src/RepRap.o (sinf)
c:/users/andy/.vscode/extensions/metalcode-eu.windows-arm-none-eabi-0.1.6/bin/../lib/gcc/arm-none-eabi/8.2.1/../../../../arm-none-eabi/lib/thumb/v7-m/nofp\libm.a(lib_a-sf_tan.o)
                              ./build/./RepRapFirmware/src/GCodes/GCodeBuffer/ExpressionParser.o (tanf)
c:/users/andy/.vscode/extensions/metalcode-eu.windows-arm-none-eabi-0.1.6/bin/../lib/gcc/arm-none-eabi/8.2.1/../../../../arm-none-eabi/lib/thumb/v7-m/nofp\libm.a(lib_a-w_pow.o)
                              ./build/\libRRFLibraries.a(NumericConverter.o) (pow)
c:/users/andy/.vscode/extensions/metalcode-eu.windows-arm-none-eabi-0.1.6/bin/../lib/gcc/arm-none-eabi/8.2.1/../../../../arm-none-eabi/lib/thumb/v7-m/nofp\libm.a(lib_a-wf_acos.o)
                              ./build/./RepRapFirmware/src/GCodes/GCodeBuffer/ExpressionParser.o (acosf)
c:/users/andy/.vscode/extensions/metalcode-eu.windows-arm-none-eabi-0.1.6/bin/../lib/gcc/arm-none-eabi/8.2.1/../../../../arm-none-eabi/lib/thumb/v7-m/nofp\libm.a(lib_a-wf_asin.o)
                              ./build/./RepRapFirmware/src/GCodes/GCodeBuffer/ExpressionParser.o (asinf)
c:/users/andy/.vscode/extensions/metalcode-eu.windows-arm-none-eabi-0.1.6/bin/../lib/gcc/arm-none-eabi/8.2.1/../../../../arm-none-eabi/lib/thumb/v7-m/nofp\libm.a(lib_a-wf_atan2.o)
                              ./build/./RepRapFirmware/src/GCodes/GCodes.o (atan2f)
c:/users/andy/.vscode/extensions/metalcode-eu.windows-arm-none-eabi-0.1.6/bin/../lib/gcc/arm-none-eabi/8.2.1/../../../../arm-none-eabi/lib/thumb/v7-m/nofp\libm.a(lib_a-wf_fmod.o)
                              ./build/./RepRapFirmware/src/GCodes/GCodeBuffer/ExpressionParser.o (fmodf)
c:/users/andy/.vscode/extensions/metalcode-eu.windows-arm-none-eabi-0.1.6/bin/../lib/gcc/arm-none-eabi/8.2.1/../../../../arm-none-eabi/lib/thumb/v7-m/nofp\libm.a(lib_a-wf_log.o)
                              ./build/./RepRapFirmware/src/Heating/Sensors/Thermistor.o (logf)
c:/users/andy/.vscode/extensions/metalcode-eu.windows-arm-none-eabi-0.1.6/bin/../lib/gcc/arm-none-eabi/8.2.1/../../../../arm-none-eabi/lib/thumb/v7-m/nofp\libm.a(lib_a-wf_pow.o)
                              ./build/./RepRapFirmware/src/Heating/FOPDT.o (powf)
c:/users/andy/.vscode/extensions/metalcode-eu.windows-arm-none-eabi-0.1.6/bin/../lib/gcc/arm-none-eabi/8.2.1/../../../../arm-none-eabi/lib/thumb/v7-m/nofp\libm.a(lib_a-wf_sqrt.o)
                              ./build/./RepRapFirmware/src/GCodes/GCodes.o (sqrtf)
c:/users/andy/.vscode/extensions/metalcode-eu.windows-arm-none-eabi-0.1.6/bin/../lib/gcc/arm-none-eabi/8.2.1/../../../../arm-none-eabi/lib/thumb/v7-m/nofp\libm.a(lib_a-e_pow.o)
                              c:/users/andy/.vscode/extensions/metalcode-eu.windows-arm-none-eabi-0.1.6/bin/../lib/gcc/arm-none-eabi/8.2.1/../../../../arm-none-eabi/lib/thumb/v7-m/nofp\libm.a(lib_a-w_pow.o) (__ieee754_pow)
c:/users/andy/.vscode/extensions/metalcode-eu.windows-arm-none-eabi-0.1.6/bin/../lib/gcc/arm-none-eabi/8.2.1/../../../../arm-none-eabi/lib/thumb/v7-m/nofp\libm.a(lib_a-e_sqrt.o)
                              c:/users/andy/.vscode/extensions/metalcode-eu.windows-arm-none-eabi-0.1.6/bin/../lib/gcc/arm-none-eabi/8.2.1/../../../../arm-none-eabi/lib/thumb/v7-m/nofp\libm.a(lib_a-e_pow.o) (__ieee754_sqrt)
c:/users/andy/.vscode/extensions/metalcode-eu.windows-arm-none-eabi-0.1.6/bin/../lib/gcc/arm-none-eabi/8.2.1/../../../../arm-none-eabi/lib/thumb/v7-m/nofp\libm.a(lib_a-ef_acos.o)
                              c:/users/andy/.vscode/extensions/metalcode-eu.windows-arm-none-eabi-0.1.6/bin/../lib/gcc/arm-none-eabi/8.2.1/../../../../arm-none-eabi/lib/thumb/v7-m/nofp\libm.a(lib_a-wf_acos.o) (__ieee754_acosf)
c:/users/andy/.vscode/extensions/metalcode-eu.windows-arm-none-eabi-0.1.6/bin/../lib/gcc/arm-none-eabi/8.2.1/../../../../arm-none-eabi/lib/thumb/v7-m/nofp\libm.a(lib_a-ef_asin.o)
                              c:/users/andy/.vscode/extensions/metalcode-eu.windows-arm-none-eabi-0.1.6/bin/../lib/gcc/arm-none-eabi/8.2.1/../../../../arm-none-eabi/lib/thumb/v7-m/nofp\libm.a(lib_a-wf_asin.o) (__ieee754_asinf)
c:/users/andy/.vscode/extensions/metalcode-eu.windows-arm-none-eabi-0.1.6/bin/../lib/gcc/arm-none-eabi/8.2.1/../../../../arm-none-eabi/lib/thumb/v7-m/nofp\libm.a(lib_a-ef_atan2.o)
                              c:/users/andy/.vscode/extensions/metalcode-eu.windows-arm-none-eabi-0.1.6/bin/../lib/gcc/arm-none-eabi/8.2.1/../../../../arm-none-eabi/lib/thumb/v7-m/nofp\libm.a(lib_a-wf_atan2.o) (__ieee754_atan2f)
c:/users/andy/.vscode/extensions/metalcode-eu.windows-arm-none-eabi-0.1.6/bin/../lib/gcc/arm-none-eabi/8.2.1/../../../../arm-none-eabi/lib/thumb/v7-m/nofp\libm.a(lib_a-ef_fmod.o)
                              c:/users/andy/.vscode/extensions/metalcode-eu.windows-arm-none-eabi-0.1.6/bin/../lib/gcc/arm-none-eabi/8.2.1/../../../../arm-none-eabi/lib/thumb/v7-m/nofp\libm.a(lib_a-wf_fmod.o) (__ieee754_fmodf)
c:/users/andy/.vscode/extensions/metalcode-eu.windows-arm-none-eabi-0.1.6/bin/../lib/gcc/arm-none-eabi/8.2.1/../../../../arm-none-eabi/lib/thumb/v7-m/nofp\libm.a(lib_a-ef_log.o)
                              c:/users/andy/.vscode/extensions/metalcode-eu.windows-arm-none-eabi-0.1.6/bin/../lib/gcc/arm-none-eabi/8.2.1/../../../../arm-none-eabi/lib/thumb/v7-m/nofp\libm.a(lib_a-wf_log.o) (__ieee754_logf)
c:/users/andy/.vscode/extensions/metalcode-eu.windows-arm-none-eabi-0.1.6/bin/../lib/gcc/arm-none-eabi/8.2.1/../../../../arm-none-eabi/lib/thumb/v7-m/nofp\libm.a(lib_a-ef_pow.o)
                              c:/users/andy/.vscode/extensions/metalcode-eu.windows-arm-none-eabi-0.1.6/bin/../lib/gcc/arm-none-eabi/8.2.1/../../../../arm-none-eabi/lib/thumb/v7-m/nofp\libm.a(lib_a-wf_pow.o) (__ieee754_powf)
c:/users/andy/.vscode/extensions/metalcode-eu.windows-arm-none-eabi-0.1.6/bin/../lib/gcc/arm-none-eabi/8.2.1/../../../../arm-none-eabi/lib/thumb/v7-m/nofp\libm.a(lib_a-ef_rem_pio2.o)
                              c:/users/andy/.vscode/extensions/metalcode-eu.windows-arm-none-eabi-0.1.6/bin/../lib/gcc/arm-none-eabi/8.2.1/../../../../arm-none-eabi/lib/thumb/v7-m/nofp\libm.a(lib_a-sf_cos.o) (__ieee754_rem_pio2f)
c:/users/andy/.vscode/extensions/metalcode-eu.windows-arm-none-eabi-0.1.6/bin/../lib/gcc/arm-none-eabi/8.2.1/../../../../arm-none-eabi/lib/thumb/v7-m/nofp\libm.a(lib_a-ef_sqrt.o)
                              c:/users/andy/.vscode/extensions/metalcode-eu.windows-arm-none-eabi-0.1.6/bin/../lib/gcc/arm-none-eabi/8.2.1/../../../../arm-none-eabi/lib/thumb/v7-m/nofp\libm.a(lib_a-wf_sqrt.o) (__ieee754_sqrtf)
c:/users/andy/.vscode/extensions/metalcode-eu.windows-arm-none-eabi-0.1.6/bin/../lib/gcc/arm-none-eabi/8.2.1/../../../../arm-none-eabi/lib/thumb/v7-m/nofp\libm.a(lib_a-kf_cos.o)
                              c:/users/andy/.vscode/extensions/metalcode-eu.windows-arm-none-eabi-0.1.6/bin/../lib/gcc/arm-none-eabi/8.2.1/../../../../arm-none-eabi/lib/thumb/v7-m/nofp\libm.a(lib_a-sf_cos.o) (__kernel_cosf)
c:/users/andy/.vscode/extensions/metalcode-eu.windows-arm-none-eabi-0.1.6/bin/../lib/gcc/arm-none-eabi/8.2.1/../../../../arm-none-eabi/lib/thumb/v7-m/nofp\libm.a(lib_a-kf_rem_pio2.o)
                              c:/users/andy/.vscode/extensions/metalcode-eu.windows-arm-none-eabi-0.1.6/bin/../lib/gcc/arm-none-eabi/8.2.1/../../../../arm-none-eabi/lib/thumb/v7-m/nofp\libm.a(lib_a-ef_rem_pio2.o) (__kernel_rem_pio2f)
c:/users/andy/.vscode/extensions/metalcode-eu.windows-arm-none-eabi-0.1.6/bin/../lib/gcc/arm-none-eabi/8.2.1/../../../../arm-none-eabi/lib/thumb/v7-m/nofp\libm.a(lib_a-kf_sin.o)
                              c:/users/andy/.vscode/extensions/metalcode-eu.windows-arm-none-eabi-0.1.6/bin/../lib/gcc/arm-none-eabi/8.2.1/../../../../arm-none-eabi/lib/thumb/v7-m/nofp\libm.a(lib_a-sf_cos.o) (__kernel_sinf)
c:/users/andy/.vscode/extensions/metalcode-eu.windows-arm-none-eabi-0.1.6/bin/../lib/gcc/arm-none-eabi/8.2.1/../../../../arm-none-eabi/lib/thumb/v7-m/nofp\libm.a(lib_a-kf_tan.o)
                              c:/users/andy/.vscode/extensions/metalcode-eu.windows-arm-none-eabi-0.1.6/bin/../lib/gcc/arm-none-eabi/8.2.1/../../../../arm-none-eabi/lib/thumb/v7-m/nofp\libm.a(lib_a-sf_tan.o) (__kernel_tanf)
c:/users/andy/.vscode/extensions/metalcode-eu.windows-arm-none-eabi-0.1.6/bin/../lib/gcc/arm-none-eabi/8.2.1/../../../../arm-none-eabi/lib/thumb/v7-m/nofp\libm.a(lib_a-s_fabs.o)
                              c:/users/andy/.vscode/extensions/metalcode-eu.windows-arm-none-eabi-0.1.6/bin/../lib/gcc/arm-none-eabi/8.2.1/../../../../arm-none-eabi/lib/thumb/v7-m/nofp\libm.a(lib_a-e_pow.o) (fabs)
c:/users/andy/.vscode/extensions/metalcode-eu.windows-arm-none-eabi-0.1.6/bin/../lib/gcc/arm-none-eabi/8.2.1/../../../../arm-none-eabi/lib/thumb/v7-m/nofp\libm.a(lib_a-s_finite.o)
                              c:/users/andy/.vscode/extensions/metalcode-eu.windows-arm-none-eabi-0.1.6/bin/../lib/gcc/arm-none-eabi/8.2.1/../../../../arm-none-eabi/lib/thumb/v7-m/nofp\libm.a(lib_a-w_pow.o) (finite)
c:/users/andy/.vscode/extensions/metalcode-eu.windows-arm-none-eabi-0.1.6/bin/../lib/gcc/arm-none-eabi/8.2.1/../../../../arm-none-eabi/lib/thumb/v7-m/nofp\libm.a(lib_a-s_lib_ver.o)
                              c:/users/andy/.vscode/extensions/metalcode-eu.windows-arm-none-eabi-0.1.6/bin/../lib/gcc/arm-none-eabi/8.2.1/../../../../arm-none-eabi/lib/thumb/v7-m/nofp\libm.a(lib_a-w_pow.o) (__fdlib_version)
c:/users/andy/.vscode/extensions/metalcode-eu.windows-arm-none-eabi-0.1.6/bin/../lib/gcc/arm-none-eabi/8.2.1/../../../../arm-none-eabi/lib/thumb/v7-m/nofp\libm.a(lib_a-s_matherr.o)
                              c:/users/andy/.vscode/extensions/metalcode-eu.windows-arm-none-eabi-0.1.6/bin/../lib/gcc/arm-none-eabi/8.2.1/../../../../arm-none-eabi/lib/thumb/v7-m/nofp\libm.a(lib_a-w_pow.o) (matherr)
c:/users/andy/.vscode/extensions/metalcode-eu.windows-arm-none-eabi-0.1.6/bin/../lib/gcc/arm-none-eabi/8.2.1/../../../../arm-none-eabi/lib/thumb/v7-m/nofp\libm.a(lib_a-s_nan.o)
                              c:/users/andy/.vscode/extensions/metalcode-eu.windows-arm-none-eabi-0.1.6/bin/../lib/gcc/arm-none-eabi/8.2.1/../../../../arm-none-eabi/lib/thumb/v7-m/nofp\libm.a(lib_a-wf_acos.o) (nan)
c:/users/andy/.vscode/extensions/metalcode-eu.windows-arm-none-eabi-0.1.6/bin/../lib/gcc/arm-none-eabi/8.2.1/../../../../arm-none-eabi/lib/thumb/v7-m/nofp\libm.a(lib_a-s_rint.o)
                              c:/users/andy/.vscode/extensions/metalcode-eu.windows-arm-none-eabi-0.1.6/bin/../lib/gcc/arm-none-eabi/8.2.1/../../../../arm-none-eabi/lib/thumb/v7-m/nofp\libm.a(lib_a-w_pow.o) (rint)
c:/users/andy/.vscode/extensions/metalcode-eu.windows-arm-none-eabi-0.1.6/bin/../lib/gcc/arm-none-eabi/8.2.1/../../../../arm-none-eabi/lib/thumb/v7-m/nofp\libm.a(lib_a-s_scalbn.o)
                              c:/users/andy/.vscode/extensions/metalcode-eu.windows-arm-none-eabi-0.1.6/bin/../lib/gcc/arm-none-eabi/8.2.1/../../../../arm-none-eabi/lib/thumb/v7-m/nofp\libm.a(lib_a-e_pow.o) (scalbn)
c:/users/andy/.vscode/extensions/metalcode-eu.windows-arm-none-eabi-0.1.6/bin/../lib/gcc/arm-none-eabi/8.2.1/../../../../arm-none-eabi/lib/thumb/v7-m/nofp\libm.a(lib_a-sf_finite.o)
                              c:/users/andy/.vscode/extensions/metalcode-eu.windows-arm-none-eabi-0.1.6/bin/../lib/gcc/arm-none-eabi/8.2.1/../../../../arm-none-eabi/lib/thumb/v7-m/nofp\libm.a(lib_a-wf_pow.o) (finitef)
c:/users/andy/.vscode/extensions/metalcode-eu.windows-arm-none-eabi-0.1.6/bin/../lib/gcc/arm-none-eabi/8.2.1/../../../../arm-none-eabi/lib/thumb/v7-m/nofp\libm.a(lib_a-sf_nan.o)
                              c:/users/andy/.vscode/extensions/metalcode-eu.windows-arm-none-eabi-0.1.6/bin/../lib/gcc/arm-none-eabi/8.2.1/../../../../arm-none-eabi/lib/thumb/v7-m/nofp\libm.a(lib_a-ef_pow.o) (nanf)
c:/users/andy/.vscode/extensions/metalcode-eu.windows-arm-none-eabi-0.1.6/bin/../lib/gcc/arm-none-eabi/8.2.1/../../../../arm-none-eabi/lib/thumb/v7-m/nofp\libm.a(lib_a-sf_rint.o)
                              c:/users/andy/.vscode/extensions/metalcode-eu.windows-arm-none-eabi-0.1.6/bin/../lib/gcc/arm-none-eabi/8.2.1/../../../../arm-none-eabi/lib/thumb/v7-m/nofp\libm.a(lib_a-wf_pow.o) (rintf)
c:/users/andy/.vscode/extensions/metalcode-eu.windows-arm-none-eabi-0.1.6/bin/../lib/gcc/arm-none-eabi/8.2.1/../../../../arm-none-eabi/lib/thumb/v7-m/nofp\libm.a(lib_a-sf_scalbn.o)
                              c:/users/andy/.vscode/extensions/metalcode-eu.windows-arm-none-eabi-0.1.6/bin/../lib/gcc/arm-none-eabi/8.2.1/../../../../arm-none-eabi/lib/thumb/v7-m/nofp\libm.a(lib_a-ef_pow.o) (scalbnf)
c:/users/andy/.vscode/extensions/metalcode-eu.windows-arm-none-eabi-0.1.6/bin/../lib/gcc/arm-none-eabi/8.2.1/thumb/v7-m/nofp\libgcc.a(_arm_addsubdf3.o)
                              c:/users/andy/.vscode/extensions/metalcode-eu.windows-arm-none-eabi-0.1.6/bin/../lib/gcc/arm-none-eabi/8.2.1/../../../../arm-none-eabi/lib/thumb/v7-m/nofp\libm.a(lib_a-s_llrint.o) (__aeabi_dsub)
c:/users/andy/.vscode/extensions/metalcode-eu.windows-arm-none-eabi-0.1.6/bin/../lib/gcc/arm-none-eabi/8.2.1/thumb/v7-m/nofp\libgcc.a(_arm_muldivdf3.o)
                              ./build/./RepRapFirmware/src/Movement/DriveMovement.o (__aeabi_dmul)
c:/users/andy/.vscode/extensions/metalcode-eu.windows-arm-none-eabi-0.1.6/bin/../lib/gcc/arm-none-eabi/8.2.1/thumb/v7-m/nofp\libgcc.a(_arm_cmpdf2.o)
                              ./build/\libRRFLibraries.a(SafeVsnprintf.o) (__aeabi_dcmpeq)
c:/users/andy/.vscode/extensions/metalcode-eu.windows-arm-none-eabi-0.1.6/bin/../lib/gcc/arm-none-eabi/8.2.1/thumb/v7-m/nofp\libgcc.a(_arm_unorddf2.o)
                              ./build/\libRRFLibraries.a(SafeVsnprintf.o) (__aeabi_dcmpun)
c:/users/andy/.vscode/extensions/metalcode-eu.windows-arm-none-eabi-0.1.6/bin/../lib/gcc/arm-none-eabi/8.2.1/thumb/v7-m/nofp\libgcc.a(_arm_truncdfsf2.o)
                              ./build/./RepRapFirmware/src/Movement/BedProbing/Grid.o (__aeabi_d2f)
c:/users/andy/.vscode/extensions/metalcode-eu.windows-arm-none-eabi-0.1.6/bin/../lib/gcc/arm-none-eabi/8.2.1/thumb/v7-m/nofp\libgcc.a(_arm_addsubsf3.o)
                              ./build/./RepRapFirmware/src/PrintMonitor.o (__aeabi_fsub)
c:/users/andy/.vscode/extensions/metalcode-eu.windows-arm-none-eabi-0.1.6/bin/../lib/gcc/arm-none-eabi/8.2.1/thumb/v7-m/nofp\libgcc.a(_arm_muldivsf3.o)
                              ./build/\libLPCCore.a(AnalogOutServo.o) (__aeabi_fmul)
c:/users/andy/.vscode/extensions/metalcode-eu.windows-arm-none-eabi-0.1.6/bin/../lib/gcc/arm-none-eabi/8.2.1/thumb/v7-m/nofp\libgcc.a(_arm_cmpsf2.o)
                              ./build/./RepRapFirmware/src/Platform.o (__aeabi_fcmpeq)
c:/users/andy/.vscode/extensions/metalcode-eu.windows-arm-none-eabi-0.1.6/bin/../lib/gcc/arm-none-eabi/8.2.1/thumb/v7-m/nofp\libgcc.a(_arm_unordsf2.o)
                              ./build/\libLPCCore.a(AnalogOut.o) (__aeabi_fcmpun)
c:/users/andy/.vscode/extensions/metalcode-eu.windows-arm-none-eabi-0.1.6/bin/../lib/gcc/arm-none-eabi/8.2.1/thumb/v7-m/nofp\libgcc.a(_arm_fixsfsi.o)
                              ./build/./RepRapFirmware/src/RepRap.o (__aeabi_f2iz)
c:/users/andy/.vscode/extensions/metalcode-eu.windows-arm-none-eabi-0.1.6/bin/../lib/gcc/arm-none-eabi/8.2.1/thumb/v7-m/nofp\libgcc.a(_arm_fixunssfsi.o)
                              ./build/\libLPCCore.a(AnalogOutServo.o) (__aeabi_f2uiz)
c:/users/andy/.vscode/extensions/metalcode-eu.windows-arm-none-eabi-0.1.6/bin/../lib/gcc/arm-none-eabi/8.2.1/thumb/v7-m/nofp\libgcc.a(_aeabi_ldivmod.o)
                              ./build/./RepRapFirmware/src/targets/common/Fans/DotStarLed.o (__aeabi_ldivmod)
c:/users/andy/.vscode/extensions/metalcode-eu.windows-arm-none-eabi-0.1.6/bin/../lib/gcc/arm-none-eabi/8.2.1/thumb/v7-m/nofp\libgcc.a(_aeabi_uldivmod.o)
                              ./build/./RepRapFirmware/src/Platform.o (__aeabi_uldivmod)
c:/users/andy/.vscode/extensions/metalcode-eu.windows-arm-none-eabi-0.1.6/bin/../lib/gcc/arm-none-eabi/8.2.1/thumb/v7-m/nofp\libgcc.a(_ctzdi2.o)
                              ./build/./RepRapFirmware/src/ObjectModel/ObjectModel.o (__ctzdi2)
c:/users/andy/.vscode/extensions/metalcode-eu.windows-arm-none-eabi-0.1.6/bin/../lib/gcc/arm-none-eabi/8.2.1/thumb/v7-m/nofp\libgcc.a(_fixsfdi.o)
                              ./build/./RepRapFirmware/src/Movement/DriveMovement.o (__aeabi_f2lz)
c:/users/andy/.vscode/extensions/metalcode-eu.windows-arm-none-eabi-0.1.6/bin/../lib/gcc/arm-none-eabi/8.2.1/thumb/v7-m/nofp\libgcc.a(_fixdfdi.o)
                              c:/users/andy/.vscode/extensions/metalcode-eu.windows-arm-none-eabi-0.1.6/bin/../lib/gcc/arm-none-eabi/8.2.1/../../../../arm-none-eabi/lib/thumb/v7-m/nofp\libm.a(lib_a-s_llrint.o) (__aeabi_d2lz)
c:/users/andy/.vscode/extensions/metalcode-eu.windows-arm-none-eabi-0.1.6/bin/../lib/gcc/arm-none-eabi/8.2.1/thumb/v7-m/nofp\libgcc.a(_fixunssfdi.o)
                              ./build/./RepRapFirmware/src/Movement/DriveMovement.o (__aeabi_f2ulz)
c:/users/andy/.vscode/extensions/metalcode-eu.windows-arm-none-eabi-0.1.6/bin/../lib/gcc/arm-none-eabi/8.2.1/thumb/v7-m/nofp\libgcc.a(_fixunsdfdi.o)
                              ./build/./RepRapFirmware/src/Movement/DriveMovement.o (__aeabi_d2ulz)
c:/users/andy/.vscode/extensions/metalcode-eu.windows-arm-none-eabi-0.1.6/bin/../lib/gcc/arm-none-eabi/8.2.1/thumb/v7-m/nofp\libgcc.a(_udivmoddi4.o)
                              c:/users/andy/.vscode/extensions/metalcode-eu.windows-arm-none-eabi-0.1.6/bin/../lib/gcc/arm-none-eabi/8.2.1/thumb/v7-m/nofp\libgcc.a(_aeabi_ldivmod.o) (__udivmoddi4)
c:/users/andy/.vscode/extensions/metalcode-eu.windows-arm-none-eabi-0.1.6/bin/../lib/gcc/arm-none-eabi/8.2.1/thumb/v7-m/nofp\libgcc.a(unwind-arm.o)
                              ./build/./RepRapFirmware/src/Platform.o (__aeabi_unwind_cpp_pr0)
c:/users/andy/.vscode/extensions/metalcode-eu.windows-arm-none-eabi-0.1.6/bin/../lib/gcc/arm-none-eabi/8.2.1/thumb/v7-m/nofp\libgcc.a(libunwind.o)
                              c:/users/andy/.vscode/extensions/metalcode-eu.windows-arm-none-eabi-0.1.6/bin/../lib/gcc/arm-none-eabi/8.2.1/thumb/v7-m/nofp\libgcc.a(unwind-arm.o) (restore_core_regs)
c:/users/andy/.vscode/extensions/metalcode-eu.windows-arm-none-eabi-0.1.6/bin/../lib/gcc/arm-none-eabi/8.2.1/thumb/v7-m/nofp\libgcc.a(pr-support.o)
                              c:/users/andy/.vscode/extensions/metalcode-eu.windows-arm-none-eabi-0.1.6/bin/../lib/gcc/arm-none-eabi/8.2.1/thumb/v7-m/nofp\libgcc.a(unwind-arm.o) (__gnu_unwind_execute)
c:/users/andy/.vscode/extensions/metalcode-eu.windows-arm-none-eabi-0.1.6/bin/../lib/gcc/arm-none-eabi/8.2.1/thumb/v7-m/nofp\libgcc.a(_dvmd_tls.o)
                              c:/users/andy/.vscode/extensions/metalcode-eu.windows-arm-none-eabi-0.1.6/bin/../lib/gcc/arm-none-eabi/8.2.1/thumb/v7-m/nofp\libgcc.a(_aeabi_ldivmod.o) (__aeabi_ldiv0)
c:/users/andy/.vscode/extensions/metalcode-eu.windows-arm-none-eabi-0.1.6/bin/../lib/gcc/arm-none-eabi/8.2.1/thumb/v7-m/nofp\libgcc.a(_arm_fixunsdfsi.o)
                              c:/users/andy/.vscode/extensions/metalcode-eu.windows-arm-none-eabi-0.1.6/bin/../lib/gcc/arm-none-eabi/8.2.1/thumb/v7-m/nofp\libgcc.a(_fixunssfdi.o) (__aeabi_d2uiz)
c:/users/andy/.vscode/extensions/metalcode-eu.windows-arm-none-eabi-0.1.6/bin/../lib/gcc/arm-none-eabi/8.2.1/../../../../arm-none-eabi/lib/thumb/v7-m/nofp\libc.a(lib_a-abort.o)
                              ./build/./RepRapFirmware/src/libcpp/vterminate.o (abort)
c:/users/andy/.vscode/extensions/metalcode-eu.windows-arm-none-eabi-0.1.6/bin/../lib/gcc/arm-none-eabi/8.2.1/../../../../arm-none-eabi/lib/thumb/v7-m/nofp\libc.a(lib_a-cxa_atexit.o)
                              c:/users/andy/.vscode/extensions/metalcode-eu.windows-arm-none-eabi-0.1.6/bin/../lib/gcc/arm-none-eabi/8.2.1/../../../../arm-none-eabi/lib/thumb/v7-m/nofp\libsupc++.a(atexit_arm.o) (__cxa_atexit)
c:/users/andy/.vscode/extensions/metalcode-eu.windows-arm-none-eabi-0.1.6/bin/../lib/gcc/arm-none-eabi/8.2.1/../../../../arm-none-eabi/lib/thumb/v7-m/nofp\libc.a(lib_a-errno.o)
                              ./build/./RepRapFirmware/src/libc/nano-mallocr.o (__errno)
c:/users/andy/.vscode/extensions/metalcode-eu.windows-arm-none-eabi-0.1.6/bin/../lib/gcc/arm-none-eabi/8.2.1/../../../../arm-none-eabi/lib/thumb/v7-m/nofp\libc.a(lib_a-exit.o)
                              c:/users/andy/.vscode/extensions/metalcode-eu.windows-arm-none-eabi-0.1.6/bin/../lib/gcc/arm-none-eabi/8.2.1/../../../../arm-none-eabi/lib/thumb/v7-m/nofp/crt0.o (exit)
c:/users/andy/.vscode/extensions/metalcode-eu.windows-arm-none-eabi-0.1.6/bin/../lib/gcc/arm-none-eabi/8.2.1/../../../../arm-none-eabi/lib/thumb/v7-m/nofp\libc.a(lib_a-gmtime_r.o)
                              ./build/./RepRapFirmware/src/Platform.o (gmtime_r)
c:/users/andy/.vscode/extensions/metalcode-eu.windows-arm-none-eabi-0.1.6/bin/../lib/gcc/arm-none-eabi/8.2.1/../../../../arm-none-eabi/lib/thumb/v7-m/nofp\libc.a(lib_a-impure.o)
                              c:/users/andy/.vscode/extensions/metalcode-eu.windows-arm-none-eabi-0.1.6/bin/../lib/gcc/arm-none-eabi/8.2.1/../../../../arm-none-eabi/lib/thumb/v7-m/nofp\libc.a(lib_a-exit.o) (_global_impure_ptr)
c:/users/andy/.vscode/extensions/metalcode-eu.windows-arm-none-eabi-0.1.6/bin/../lib/gcc/arm-none-eabi/8.2.1/../../../../arm-none-eabi/lib/thumb/v7-m/nofp\libc.a(lib_a-init.o)
                              c:/users/andy/.vscode/extensions/metalcode-eu.windows-arm-none-eabi-0.1.6/bin/../lib/gcc/arm-none-eabi/8.2.1/../../../../arm-none-eabi/lib/thumb/v7-m/nofp/crt0.o (__libc_init_array)
c:/users/andy/.vscode/extensions/metalcode-eu.windows-arm-none-eabi-0.1.6/bin/../lib/gcc/arm-none-eabi/8.2.1/../../../../arm-none-eabi/lib/thumb/v7-m/nofp\libc.a(lib_a-isalpha.o)
                              ./build/./RepRapFirmware/src/GCodes/GCodeBuffer/ExpressionParser.o (isalpha)
c:/users/andy/.vscode/extensions/metalcode-eu.windows-arm-none-eabi-0.1.6/bin/../lib/gcc/arm-none-eabi/8.2.1/../../../../arm-none-eabi/lib/thumb/v7-m/nofp\libc.a(lib_a-isspace.o)
                              ./build/./RepRapFirmware/src/libc/strptime.o (isspace)
c:/users/andy/.vscode/extensions/metalcode-eu.windows-arm-none-eabi-0.1.6/bin/../lib/gcc/arm-none-eabi/8.2.1/../../../../arm-none-eabi/lib/thumb/v7-m/nofp\libc.a(lib_a-isxdigit.o)
                              ./build/\libRRFLibraries.a(NumericConverter.o) (isxdigit)
c:/users/andy/.vscode/extensions/metalcode-eu.windows-arm-none-eabi-0.1.6/bin/../lib/gcc/arm-none-eabi/8.2.1/../../../../arm-none-eabi/lib/thumb/v7-m/nofp\libc.a(lib_a-lldiv.o)
                              ./build/\libRRFLibraries.a(SafeVsnprintf.o) (lldiv)
c:/users/andy/.vscode/extensions/metalcode-eu.windows-arm-none-eabi-0.1.6/bin/../lib/gcc/arm-none-eabi/8.2.1/../../../../arm-none-eabi/lib/thumb/v7-m/nofp\libc.a(lib_a-mktime.o)
                              ./build/./RepRapFirmware/src/GCodes/GCodes3.o (mktime)
c:/users/andy/.vscode/extensions/metalcode-eu.windows-arm-none-eabi-0.1.6/bin/../lib/gcc/arm-none-eabi/8.2.1/../../../../arm-none-eabi/lib/thumb/v7-m/nofp\libc.a(lib_a-rand.o)
                              ./build/\libLPCCore.a(WMath.o) (srand)
c:/users/andy/.vscode/extensions/metalcode-eu.windows-arm-none-eabi-0.1.6/bin/../lib/gcc/arm-none-eabi/8.2.1/../../../../arm-none-eabi/lib/thumb/v7-m/nofp\libc.a(lib_a-signal.o)
                              c:/users/andy/.vscode/extensions/metalcode-eu.windows-arm-none-eabi-0.1.6/bin/../lib/gcc/arm-none-eabi/8.2.1/../../../../arm-none-eabi/lib/thumb/v7-m/nofp\libc.a(lib_a-abort.o) (raise)
c:/users/andy/.vscode/extensions/metalcode-eu.windows-arm-none-eabi-0.1.6/bin/../lib/gcc/arm-none-eabi/8.2.1/../../../../arm-none-eabi/lib/thumb/v7-m/nofp\libc.a(lib_a-signalr.o)
                              c:/users/andy/.vscode/extensions/metalcode-eu.windows-arm-none-eabi-0.1.6/bin/../lib/gcc/arm-none-eabi/8.2.1/../../../../arm-none-eabi/lib/thumb/v7-m/nofp\libc.a(lib_a-signal.o) (_kill_r)
c:/users/andy/.vscode/extensions/metalcode-eu.windows-arm-none-eabi-0.1.6/bin/../lib/gcc/arm-none-eabi/8.2.1/../../../../arm-none-eabi/lib/thumb/v7-m/nofp\libc.a(lib_a-strchr.o)
                              ./build/./RepRapFirmware/src/GCodes/GCodes.o (strchr)
c:/users/andy/.vscode/extensions/metalcode-eu.windows-arm-none-eabi-0.1.6/bin/../lib/gcc/arm-none-eabi/8.2.1/../../../../arm-none-eabi/lib/thumb/v7-m/nofp\libc.a(lib_a-strcmp.o)
                              ./build/./RepRapFirmware/src/GCodes/GCodes2.o (strcmp)
c:/users/andy/.vscode/extensions/metalcode-eu.windows-arm-none-eabi-0.1.6/bin/../lib/gcc/arm-none-eabi/8.2.1/../../../../arm-none-eabi/lib/thumb/v7-m/nofp\libc.a(lib_a-strcpy.o)
                              ./build/./RepRapFirmware/src/Heating/Sensors/TemperatureSensor.o (strcpy)
c:/users/andy/.vscode/extensions/metalcode-eu.windows-arm-none-eabi-0.1.6/bin/../lib/gcc/arm-none-eabi/8.2.1/../../../../arm-none-eabi/lib/thumb/v7-m/nofp\libc.a(lib_a-strlen-stub.o)
                              ./build/./RepRapFirmware/src/OutputMemory.o (strlen)
c:/users/andy/.vscode/extensions/metalcode-eu.windows-arm-none-eabi-0.1.6/bin/../lib/gcc/arm-none-eabi/8.2.1/../../../../arm-none-eabi/lib/thumb/v7-m/nofp\libc.a(lib_a-strncat.o)
                              ./build/\libRRFLibraries.a(StringFunctions.o) (strncat)
c:/users/andy/.vscode/extensions/metalcode-eu.windows-arm-none-eabi-0.1.6/bin/../lib/gcc/arm-none-eabi/8.2.1/../../../../arm-none-eabi/lib/thumb/v7-m/nofp\libc.a(lib_a-strncpy.o)
                              ./build/\libRRFLibraries.a(StringFunctions.o) (strncpy)
c:/users/andy/.vscode/extensions/metalcode-eu.windows-arm-none-eabi-0.1.6/bin/../lib/gcc/arm-none-eabi/8.2.1/../../../../arm-none-eabi/lib/thumb/v7-m/nofp\libc.a(lib_a-strstr.o)
                              ./build/\libRRFLibraries.a(StringRef.o) (strstr)
c:/users/andy/.vscode/extensions/metalcode-eu.windows-arm-none-eabi-0.1.6/bin/../lib/gcc/arm-none-eabi/8.2.1/../../../../arm-none-eabi/lib/thumb/v7-m/nofp\libc.a(lib_a-strtoul.o)
                              ./build/\libRRFLibraries.a(SafeStrtod.o) (strtoul)
c:/users/andy/.vscode/extensions/metalcode-eu.windows-arm-none-eabi-0.1.6/bin/../lib/gcc/arm-none-eabi/8.2.1/../../../../arm-none-eabi/lib/thumb/v7-m/nofp\libc.a(lib_a-syssbrk.o)
                              ./build/\libLPCCore.a(main.o) (sbrk)
c:/users/andy/.vscode/extensions/metalcode-eu.windows-arm-none-eabi-0.1.6/bin/../lib/gcc/arm-none-eabi/8.2.1/../../../../arm-none-eabi/lib/thumb/v7-m/nofp\libc.a(lib_a-tolower.o)
                              ./build/./RepRapFirmware/src/GCodes/GCodeBuffer/BinaryParser.o (tolower)
c:/users/andy/.vscode/extensions/metalcode-eu.windows-arm-none-eabi-0.1.6/bin/../lib/gcc/arm-none-eabi/8.2.1/../../../../arm-none-eabi/lib/thumb/v7-m/nofp\libc.a(lib_a-toupper.o)
                              ./build/./RepRapFirmware/src/GCodes/GCodes2.o (toupper)
c:/users/andy/.vscode/extensions/metalcode-eu.windows-arm-none-eabi-0.1.6/bin/../lib/gcc/arm-none-eabi/8.2.1/../../../../arm-none-eabi/lib/thumb/v7-m/nofp\libc.a(lib_a-tzcalc_limits.o)
                              c:/users/andy/.vscode/extensions/metalcode-eu.windows-arm-none-eabi-0.1.6/bin/../lib/gcc/arm-none-eabi/8.2.1/../../../../arm-none-eabi/lib/thumb/v7-m/nofp\libc.a(lib_a-mktime.o) (__tzcalc_limits)
c:/users/andy/.vscode/extensions/metalcode-eu.windows-arm-none-eabi-0.1.6/bin/../lib/gcc/arm-none-eabi/8.2.1/../../../../arm-none-eabi/lib/thumb/v7-m/nofp\libc.a(lib_a-tzvars.o)
                              c:/users/andy/.vscode/extensions/metalcode-eu.windows-arm-none-eabi-0.1.6/bin/../lib/gcc/arm-none-eabi/8.2.1/../../../../arm-none-eabi/lib/thumb/v7-m/nofp\libc.a(lib_a-mktime.o) (_daylight)
c:/users/andy/.vscode/extensions/metalcode-eu.windows-arm-none-eabi-0.1.6/bin/../lib/gcc/arm-none-eabi/8.2.1/../../../../arm-none-eabi/lib/thumb/v7-m/nofp\libc.a(lib_a-__atexit.o)
                              c:/users/andy/.vscode/extensions/metalcode-eu.windows-arm-none-eabi-0.1.6/bin/../lib/gcc/arm-none-eabi/8.2.1/../../../../arm-none-eabi/lib/thumb/v7-m/nofp\libc.a(lib_a-cxa_atexit.o) (__register_exitproc)
c:/users/andy/.vscode/extensions/metalcode-eu.windows-arm-none-eabi-0.1.6/bin/../lib/gcc/arm-none-eabi/8.2.1/../../../../arm-none-eabi/lib/thumb/v7-m/nofp\libc.a(lib_a-__call_atexit.o)
                              c:/users/andy/.vscode/extensions/metalcode-eu.windows-arm-none-eabi-0.1.6/bin/../lib/gcc/arm-none-eabi/8.2.1/../../../../arm-none-eabi/lib/thumb/v7-m/nofp\libc.a(lib_a-exit.o) (__call_exitprocs)
c:/users/andy/.vscode/extensions/metalcode-eu.windows-arm-none-eabi-0.1.6/bin/../lib/gcc/arm-none-eabi/8.2.1/../../../../arm-none-eabi/lib/thumb/v7-m/nofp\libc.a(lib_a-atexit.o)
                              c:/users/andy/.vscode/extensions/metalcode-eu.windows-arm-none-eabi-0.1.6/bin/../lib/gcc/arm-none-eabi/8.2.1/../../../../arm-none-eabi/lib/thumb/v7-m/nofp\libc.a(lib_a-__call_atexit.o) (atexit)
c:/users/andy/.vscode/extensions/metalcode-eu.windows-arm-none-eabi-0.1.6/bin/../lib/gcc/arm-none-eabi/8.2.1/../../../../arm-none-eabi/lib/thumb/v7-m/nofp\libc.a(lib_a-ctype_.o)
                              c:/users/andy/.vscode/extensions/metalcode-eu.windows-arm-none-eabi-0.1.6/bin/../lib/gcc/arm-none-eabi/8.2.1/../../../../arm-none-eabi/lib/thumb/v7-m/nofp\libc.a(lib_a-isalpha.o) (_ctype_)
c:/users/andy/.vscode/extensions/metalcode-eu.windows-arm-none-eabi-0.1.6/bin/../lib/gcc/arm-none-eabi/8.2.1/../../../../arm-none-eabi/lib/thumb/v7-m/nofp\libc.a(lib_a-div.o)
                              c:/users/andy/.vscode/extensions/metalcode-eu.windows-arm-none-eabi-0.1.6/bin/../lib/gcc/arm-none-eabi/8.2.1/../../../../arm-none-eabi/lib/thumb/v7-m/nofp\libc.a(lib_a-mktime.o) (div)
c:/users/andy/.vscode/extensions/metalcode-eu.windows-arm-none-eabi-0.1.6/bin/../lib/gcc/arm-none-eabi/8.2.1/../../../../arm-none-eabi/lib/thumb/v7-m/nofp\libc.a(lib_a-fini.o)
                              c:/users/andy/.vscode/extensions/metalcode-eu.windows-arm-none-eabi-0.1.6/bin/../lib/gcc/arm-none-eabi/8.2.1/../../../../arm-none-eabi/lib/thumb/v7-m/nofp\libc.a(lib_a-__call_atexit.o) (__libc_fini_array)
c:/users/andy/.vscode/extensions/metalcode-eu.windows-arm-none-eabi-0.1.6/bin/../lib/gcc/arm-none-eabi/8.2.1/../../../../arm-none-eabi/lib/thumb/v7-m/nofp\libc.a(lib_a-gettzinfo.o)
                              c:/users/andy/.vscode/extensions/metalcode-eu.windows-arm-none-eabi-0.1.6/bin/../lib/gcc/arm-none-eabi/8.2.1/../../../../arm-none-eabi/lib/thumb/v7-m/nofp\libc.a(lib_a-mktime.o) (__gettzinfo)
c:/users/andy/.vscode/extensions/metalcode-eu.windows-arm-none-eabi-0.1.6/bin/../lib/gcc/arm-none-eabi/8.2.1/../../../../arm-none-eabi/lib/thumb/v7-m/nofp\libc.a(lib_a-lock.o)
                              c:/users/andy/.vscode/extensions/metalcode-eu.windows-arm-none-eabi-0.1.6/bin/../lib/gcc/arm-none-eabi/8.2.1/../../../../arm-none-eabi/lib/thumb/v7-m/nofp\libc.a(lib_a-__atexit.o) (__retarget_lock_acquire_recursive)
c:/users/andy/.vscode/extensions/metalcode-eu.windows-arm-none-eabi-0.1.6/bin/../lib/gcc/arm-none-eabi/8.2.1/../../../../arm-none-eabi/lib/thumb/v7-m/nofp\libc.a(lib_a-month_lengths.o)
                              c:/users/andy/.vscode/extensions/metalcode-eu.windows-arm-none-eabi-0.1.6/bin/../lib/gcc/arm-none-eabi/8.2.1/../../../../arm-none-eabi/lib/thumb/v7-m/nofp\libc.a(lib_a-tzcalc_limits.o) (__month_lengths)
c:/users/andy/.vscode/extensions/metalcode-eu.windows-arm-none-eabi-0.1.6/bin/../lib/gcc/arm-none-eabi/8.2.1/../../../../arm-none-eabi/lib/thumb/v7-m/nofp\libc.a(lib_a-sbrkr.o)
                              c:/users/andy/.vscode/extensions/metalcode-eu.windows-arm-none-eabi-0.1.6/bin/../lib/gcc/arm-none-eabi/8.2.1/../../../../arm-none-eabi/lib/thumb/v7-m/nofp\libc.a(lib_a-syssbrk.o) (_sbrk_r)
c:/users/andy/.vscode/extensions/metalcode-eu.windows-arm-none-eabi-0.1.6/bin/../lib/gcc/arm-none-eabi/8.2.1/../../../../arm-none-eabi/lib/thumb/v7-m/nofp\libc.a(lib_a-strnlen.o)
                              c:/users/andy/.vscode/extensions/metalcode-eu.windows-arm-none-eabi-0.1.6/bin/../lib/gcc/arm-none-eabi/8.2.1/../../../../arm-none-eabi/lib/thumb/v7-m/nofp\libc.a(lib_a-strstr.o) (strnlen)

Allocating common symbols
Common symbol       size              file

__lock___malloc_recursive_mutex
                    0x1               c:/users/andy/.vscode/extensions/metalcode-eu.windows-arm-none-eabi-0.1.6/bin/../lib/gcc/arm-none-eabi/8.2.1/../../../../arm-none-eabi/lib/thumb/v7-m/nofp\libc.a(lib_a-lock.o)
__lock___atexit_recursive_mutex
                    0x1               c:/users/andy/.vscode/extensions/metalcode-eu.windows-arm-none-eabi-0.1.6/bin/../lib/gcc/arm-none-eabi/8.2.1/../../../../arm-none-eabi/lib/thumb/v7-m/nofp\libc.a(lib_a-lock.o)
SystemCoreClock     0x4               ./build/\libLPCCore.a(system_LPC17xx.o)
xQueueRegistry      0x40              ./build/\libLPCCore.a(queue.o)
__lock___dd_hash_mutex
                    0x1               c:/users/andy/.vscode/extensions/metalcode-eu.windows-arm-none-eabi-0.1.6/bin/../lib/gcc/arm-none-eabi/8.2.1/../../../../arm-none-eabi/lib/thumb/v7-m/nofp\libc.a(lib_a-lock.o)
__lock___sinit_recursive_mutex
                    0x1               c:/users/andy/.vscode/extensions/metalcode-eu.windows-arm-none-eabi-0.1.6/bin/../lib/gcc/arm-none-eabi/8.2.1/../../../../arm-none-eabi/lib/thumb/v7-m/nofp\libc.a(lib_a-lock.o)
__lock___sfp_recursive_mutex
                    0x1               c:/users/andy/.vscode/extensions/metalcode-eu.windows-arm-none-eabi-0.1.6/bin/../lib/gcc/arm-none-eabi/8.2.1/../../../../arm-none-eabi/lib/thumb/v7-m/nofp\libc.a(lib_a-lock.o)
__lock___at_quick_exit_mutex
                    0x1               c:/users/andy/.vscode/extensions/metalcode-eu.windows-arm-none-eabi-0.1.6/bin/../lib/gcc/arm-none-eabi/8.2.1/../../../../arm-none-eabi/lib/thumb/v7-m/nofp\libc.a(lib_a-lock.o)
__lock___env_recursive_mutex
                    0x1               c:/users/andy/.vscode/extensions/metalcode-eu.windows-arm-none-eabi-0.1.6/bin/../lib/gcc/arm-none-eabi/8.2.1/../../../../arm-none-eabi/lib/thumb/v7-m/nofp\libc.a(lib_a-lock.o)
__lock___tz_mutex   0x1               c:/users/andy/.vscode/extensions/metalcode-eu.windows-arm-none-eabi-0.1.6/bin/../lib/gcc/arm-none-eabi/8.2.1/../../../../arm-none-eabi/lib/thumb/v7-m/nofp\libc.a(lib_a-lock.o)
__lock___arc4random_mutex
                    0x1               c:/users/andy/.vscode/extensions/metalcode-eu.windows-arm-none-eabi-0.1.6/bin/../lib/gcc/arm-none-eabi/8.2.1/../../../../arm-none-eabi/lib/thumb/v7-m/nofp\libc.a(lib_a-lock.o)

Discarded input sections

 .text          0x00000000        0x0 c:/users/andy/.vscode/extensions/metalcode-eu.windows-arm-none-eabi-0.1.6/bin/../lib/gcc/arm-none-eabi/8.2.1/thumb/v7-m/nofp/crti.o
 .data          0x00000000        0x0 c:/users/andy/.vscode/extensions/metalcode-eu.windows-arm-none-eabi-0.1.6/bin/../lib/gcc/arm-none-eabi/8.2.1/thumb/v7-m/nofp/crti.o
 .bss           0x00000000        0x0 c:/users/andy/.vscode/extensions/metalcode-eu.windows-arm-none-eabi-0.1.6/bin/../lib/gcc/arm-none-eabi/8.2.1/thumb/v7-m/nofp/crti.o
 .text          0x00000000       0x74 c:/users/andy/.vscode/extensions/metalcode-eu.windows-arm-none-eabi-0.1.6/bin/../lib/gcc/arm-none-eabi/8.2.1/../../../../arm-none-eabi/lib/thumb/v7-m/nofp/crt0.o
 .data          0x00000000        0x0 c:/users/andy/.vscode/extensions/metalcode-eu.windows-arm-none-eabi-0.1.6/bin/../lib/gcc/arm-none-eabi/8.2.1/../../../../arm-none-eabi/lib/thumb/v7-m/nofp/crt0.o
 .bss           0x00000000        0x0 c:/users/andy/.vscode/extensions/metalcode-eu.windows-arm-none-eabi-0.1.6/bin/../lib/gcc/arm-none-eabi/8.2.1/../../../../arm-none-eabi/lib/thumb/v7-m/nofp/crt0.o
 .ARM.extab     0x00000000        0x0 c:/users/andy/.vscode/extensions/metalcode-eu.windows-arm-none-eabi-0.1.6/bin/../lib/gcc/arm-none-eabi/8.2.1/../../../../arm-none-eabi/lib/thumb/v7-m/nofp/crt0.o
 .ARM.exidx     0x00000000        0x8 c:/users/andy/.vscode/extensions/metalcode-eu.windows-arm-none-eabi-0.1.6/bin/../lib/gcc/arm-none-eabi/8.2.1/../../../../arm-none-eabi/lib/thumb/v7-m/nofp/crt0.o
 .ARM.attributes
                0x00000000       0x1b c:/users/andy/.vscode/extensions/metalcode-eu.windows-arm-none-eabi-0.1.6/bin/../lib/gcc/arm-none-eabi/8.2.1/../../../../arm-none-eabi/lib/thumb/v7-m/nofp/crt0.o
 .text          0x00000000        0x0 ./build/./CoreLPC/cores/arduino/syscalls.o
 .data          0x00000000        0x0 ./build/./CoreLPC/cores/arduino/syscalls.o
 .bss           0x00000000        0x0 ./build/./CoreLPC/cores/arduino/syscalls.o
 .text.link     0x00000000        0x6 ./build/./CoreLPC/cores/arduino/syscalls.o
 .text._close   0x00000000        0x6 ./build/./CoreLPC/cores/arduino/syscalls.o
 .text._fstat   0x00000000        0xa ./build/./CoreLPC/cores/arduino/syscalls.o
 .text._isatty  0x00000000        0x4 ./build/./CoreLPC/cores/arduino/syscalls.o
 .text._lseek   0x00000000        0x4 ./build/./CoreLPC/cores/arduino/syscalls.o
Memory Configuration

Name             Origin             Length             Attributes
FLASH            0x00004000         0x00074000         xr
RAM              0x10000000         0x00007fe0         xrw
AHB_RAM          0x2007c000         0x00008000         xrw
*default*        0x00000000         0xffffffff

Linker script and memory map

LOAD c:/users/andy/.vscode/extensions/metalcode-eu.windows-arm-none-eabi-0.1.6/bin/../lib/gcc/arm-none-eabi/8.2.1/thumb/v7-m/nofp/crti.o
LOAD c:/users/andy/.vscode/extensions/metalcode-eu.windows-arm-none-eabi-0.1.6/bin/../lib/gcc/arm-none-eabi/8.2.1/thumb/v7-m/nofp/crtbegin.o
LOAD c:/users/andy/.vscode/extensions/metalcode-eu.windows-arm-none-eabi-0.1.6/bin/../lib/gcc/arm-none-eabi/8.2.1/../../../../arm-none-eabi/lib/thumb/v7-m/nofp/crt0.o
START GROUP
LOAD ./build/./CoreLPC/cores/arduino/syscalls.o
LOAD ./build/./RepRapFirmware/src/libc/memcmp.o
LOAD ./build/./RepRapFirmware/src/libc/memcpy.o
LOAD ./build/./RepRapFirmware/src/libc/memmove.o
LOAD ./build/./RepRapFirmware/src/libc/memset.o
LOAD ./build/./RepRapFirmware/src/libc/nano-mallocr.o
LOAD ./build/./RepRapFirmware/src/libcpp/eh_alloc.o
LOAD ./build/./RepRapFirmware/src/libc/strptime.o
LOAD ./build/./RepRapFirmware/src/libcpp/vterminate.o
LOAD ./build/\libLPCCore.a
LOAD ./build/./RepRapFirmware/src/Libraries/sha1/sha1.o
LOAD ./build/./RepRapFirmware/src/targets/common/FatFS/ff.o
LOAD ./build/./RepRapFirmware/src/targets/common/FatFS/ffunicode.o
LOAD ./build/./RepRapFirmware/src/Logger.o
LOAD ./build/./RepRapFirmware/src/OutputMemory.o
LOAD ./build/./RepRapFirmware/src/Platform.o
LOAD ./build/./RepRapFirmware/src/PortControl.o
LOAD ./build/./RepRapFirmware/src/PrintMonitor.o
LOAD ./build/./RepRapFirmware/src/RepRap.o
LOAD ./build/./RepRapFirmware/src/RepRapFirmware.o
LOAD ./build/./RepRapFirmware/src/Roland.o
LOAD ./build/./RepRapFirmware/src/Scanner.o
LOAD ./build/./RepRapFirmware/src/Stream.o
LOAD ./build/./RepRapFirmware/src/Tasks.o
LOAD ./build/./RepRapFirmware/src/FilamentMonitors/Duet3DFilamentMonitor.o
LOAD ./build/./RepRapFirmware/src/FilamentMonitors/FilamentMonitor.o
LOAD ./build/./RepRapFirmware/src/FilamentMonitors/LaserFilamentMonitor.o
LOAD ./build/./RepRapFirmware/src/FilamentMonitors/PulsedFilamentMonitor.o
LOAD ./build/./RepRapFirmware/src/FilamentMonitors/RotatingMagnetFilamentMonitor.o
LOAD ./build/./RepRapFirmware/src/FilamentMonitors/SimpleFilamentMonitor.o
LOAD ./build/./RepRapFirmware/src/GCodes/GCodeException.o
LOAD ./build/./RepRapFirmware/src/GCodes/GCodeFileInfo.o
LOAD ./build/./RepRapFirmware/src/GCodes/GCodeInput.o
LOAD ./build/./RepRapFirmware/src/GCodes/GCodeMachineState.o
LOAD ./build/./RepRapFirmware/src/GCodes/GCodeQueue.o
LOAD ./build/./RepRapFirmware/src/GCodes/GCodes.o
LOAD ./build/./RepRapFirmware/src/GCodes/GCodes2.o
LOAD ./build/./RepRapFirmware/src/GCodes/GCodes3.o
LOAD ./build/./RepRapFirmware/src/GCodes/GCodes4.o
LOAD ./build/./RepRapFirmware/src/GCodes/ObjectTracker.o
LOAD ./build/./RepRapFirmware/src/GCodes/RestorePoint.o
LOAD ./build/./RepRapFirmware/src/GCodes/Trigger.o
LOAD ./build/./RepRapFirmware/src/GCodes/GCodeBuffer/BinaryParser.o
LOAD ./build/./RepRapFirmware/src/GCodes/GCodeBuffer/ExpressionParser.o
LOAD ./build/./RepRapFirmware/src/GCodes/GCodeBuffer/GCodeBuffer.o
LOAD ./build/./RepRapFirmware/src/GCodes/GCodeBuffer/StringParser.o
LOAD ./build/./RepRapFirmware/src/Heating/FOPDT.o
LOAD ./build/./RepRapFirmware/src/Heating/Heat.o
LOAD ./build/./RepRapFirmware/src/Heating/Heater.o
LOAD ./build/./RepRapFirmware/src/Heating/HeaterMonitor.o
LOAD ./build/./RepRapFirmware/src/Heating/LocalHeater.o
LOAD ./build/./RepRapFirmware/src/Heating/RemoteHeater.o
LOAD ./build/./RepRapFirmware/src/Heating/TemperatureError.o
LOAD ./build/./RepRapFirmware/src/Movement/DDA.o
LOAD ./build/./RepRapFirmware/src/Movement/DDARing.o
LOAD ./build/./RepRapFirmware/src/Movement/DriveMovement.o
LOAD ./build/./RepRapFirmware/src/Movement/Move.o
LOAD ./build/./RepRapFirmware/src/Movement/RawMove.o
LOAD ./build/./RepRapFirmware/src/Movement/StepTimer.o
LOAD ./build/./RepRapFirmware/src/Movement/StraightProbeSettings.o
LOAD ./build/./RepRapFirmware/src/Movement/BedProbing/Grid.o
LOAD ./build/./RepRapFirmware/src/Movement/BedProbing/RandomProbePointSet.o
LOAD ./build/./RepRapFirmware/src/Movement/Kinematics/CoreKinematics.o
LOAD ./build/./RepRapFirmware/src/Movement/Kinematics/FiveBarScaraKinematics.o
LOAD ./build/./RepRapFirmware/src/Movement/Kinematics/HangprinterKinematics.o
LOAD ./build/./RepRapFirmware/src/Movement/Kinematics/Kinematics.o
LOAD ./build/./RepRapFirmware/src/Movement/Kinematics/LinearDeltaKinematics.o
LOAD ./build/./RepRapFirmware/src/Movement/Kinematics/PolarKinematics.o
LOAD ./build/./RepRapFirmware/src/Movement/Kinematics/RotaryDeltaKinematics.o
LOAD ./build/./RepRapFirmware/src/Movement/Kinematics/ScaraKinematics.o
LOAD ./build/./RepRapFirmware/src/Movement/Kinematics/ZLeadscrewKinematics.o
LOAD ./build/./RepRapFirmware/src/Storage/CRC32.o
LOAD ./build/./RepRapFirmware/src/Storage/FileInfoParser.o
LOAD ./build/./RepRapFirmware/src/Storage/FileStore.o
LOAD ./build/./RepRapFirmware/src/Storage/MassStorage.o
LOAD ./build/./RepRapFirmware/src/Hardware/SharedSpi/SharedSpiClient.o
LOAD ./build/./RepRapFirmware/src/Hardware/SharedSpi/SharedSpiDevice.o
LOAD ./build/./RepRapFirmware/src/Comms/AuxDevice.o
LOAD ./build/./RepRapFirmware/src/Comms/PanelDueUpdater.o
LOAD ./build/./RepRapFirmware/src/Heating/Sensors/AdditionalOutputSensor.o
LOAD ./build/./RepRapFirmware/src/Heating/Sensors/CpuTemperatureSensor.o
LOAD ./build/./RepRapFirmware/src/Heating/Sensors/CurrentLoopTemperatureSensor.o
LOAD ./build/./RepRapFirmware/src/Heating/Sensors/DhtSensor.o
LOAD ./build/./RepRapFirmware/src/Heating/Sensors/LinearAnalogSensor.o
LOAD ./build/./RepRapFirmware/src/Heating/Sensors/RemoteSensor.o
LOAD ./build/./RepRapFirmware/src/Heating/Sensors/RtdSensor31865.o
LOAD ./build/./RepRapFirmware/src/Heating/Sensors/SensorWithPort.o
LOAD ./build/./RepRapFirmware/src/Heating/Sensors/SpiTemperatureSensor.o
LOAD ./build/./RepRapFirmware/src/Heating/Sensors/TemperatureSensor.o
LOAD ./build/./RepRapFirmware/src/Heating/Sensors/Thermistor.o
LOAD ./build/./RepRapFirmware/src/Heating/Sensors/ThermocoupleSensor31855.o
LOAD ./build/./RepRapFirmware/src/Heating/Sensors/ThermocoupleSensor31856.o
LOAD ./build/./RepRapFirmware/src/Heating/Sensors/TmcDriverTemperatureSensor.o
LOAD ./build/./RepRapFirmware/src/Fans/DotStarLed.o
LOAD ./build/./RepRapFirmware/src/Fans/Fan.o
LOAD ./build/./RepRapFirmware/src/Fans/FansManager.o
LOAD ./build/./RepRapFirmware/src/Fans/LocalFan.o
LOAD ./build/./RepRapFirmware/src/Fans/RemoteFan.o
LOAD ./build/./RepRapFirmware/src/ObjectModel/ObjectModel.o
LOAD ./build/./RepRapFirmware/src/Endstops/Endstop.o
LOAD ./build/./RepRapFirmware/src/Endstops/EndstopsManager.o
LOAD ./build/./RepRapFirmware/src/Endstops/LocalZProbe.o
LOAD ./build/./RepRapFirmware/src/Endstops/RemoteZProbe.o
LOAD ./build/./RepRapFirmware/src/Endstops/StallDetectionEndstop.o
LOAD ./build/./RepRapFirmware/src/Endstops/SwitchEndstop.o
LOAD ./build/./RepRapFirmware/src/Endstops/ZProbe.o
LOAD ./build/./RepRapFirmware/src/Endstops/ZProbeEndstop.o
LOAD ./build/./RepRapFirmware/src/Hardware/ExceptionHandlers.o
LOAD ./build/./RepRapFirmware/src/Hardware/I2C.o
LOAD ./build/./RepRapFirmware/src/Hardware/IoPorts.o
LOAD ./build/./RepRapFirmware/src/Hardware/NonVolatileMemory.o
LOAD ./build/./RepRapFirmware/src/Hardware/SoftwareReset.o
LOAD ./build/./RepRapFirmware/src/Tools/Filament.o
LOAD ./build/./RepRapFirmware/src/Tools/Spindle.o
LOAD ./build/./RepRapFirmware/src/Tools/Tool.o
LOAD ./build/./RepRapFirmware/src/Display/Display.o
LOAD ./build/./RepRapFirmware/src/Display/Menu.o
LOAD ./build/./RepRapFirmware/src/Display/MenuItem.o
LOAD ./build/./RepRapFirmware/src/Display/RotaryEncoder.o
LOAD ./build/./RepRapFirmware/src/GPIO/GpInPort.o
LOAD ./build/./RepRapFirmware/src/GPIO/GpOutPort.o
LOAD ./build/./RepRapFirmware/src/bossa/Applet.o
LOAD ./build/./RepRapFirmware/src/bossa/Device.o
LOAD ./build/./RepRapFirmware/src/bossa/EefcFlash.o
LOAD ./build/./RepRapFirmware/src/bossa/Flash.o
LOAD ./build/./RepRapFirmware/src/bossa/Flasher.o
LOAD ./build/./RepRapFirmware/src/bossa/Samba.o
LOAD ./build/./RepRapFirmware/src/bossa/WordCopyApplet.o
LOAD ./build/./RepRapFirmware/src/bossa/WordCopyArm.o
LOAD ./build/./RepRapFirmware/src/targets/LPC/BoardConfig.o
LOAD ./build/./RepRapFirmware/src/targets/LPC/NVMEmulation.o
LOAD ./build/./RepRapFirmware/src/targets/LPC/Pins_LPC.o
LOAD ./build/./RepRapFirmware/src/targets/common/Microstepping.o
LOAD ./build/./RepRapFirmware/src/targets/LPC/MCP4461/MCP4461.o
LOAD ./build/./RepRapFirmware/src/targets/LPC/FatFS/sd_mmc_wrapper.o
LOAD ./build/./RepRapFirmware/src/targets/LPC/FatFS/SDCard.o
LOAD ./build/./RepRapFirmware/src/targets/common/FatFS/diskio.o
LOAD ./build/./RepRapFirmware/src/targets/common/FatFS/fattime_rtc.o
LOAD ./build/./RepRapFirmware/src/targets/common/Fans/DotStarLed.o
LOAD ./build/./RepRapFirmware/src/Linux/DataTransfer.o
LOAD ./build/./RepRapFirmware/src/Linux/LinuxInterface.o
LOAD ./build/./RepRapFirmware/src/targets/common/NoNetwork/Network.o
LOAD ./build/./RepRapFirmware/src/targets/LPC/Movement/StepperDrivers/TMCSoftUART.o
LOAD ./build/./RepRapFirmware/src/targets/common/Movement/StepperDrivers/TMC22xx.o
LOAD ./build/./RepRapFirmware/src/Movement/StepperDrivers/DriverMode.o
LOAD ./build/./RepRapFirmware/src/Movement/StepperDrivers/TMC22xx.o
LOAD ./build/./RepRapFirmware/src/Movement/StepperDrivers/TMC2660.o
LOAD ./build/./RepRapFirmware/src/Movement/StepperDrivers/TMC51xx.o
LOAD ./build/./RepRapFirmware/src/Networking/FirmwareUpdater.o
LOAD c:/users/andy/.vscode/extensions/metalcode-eu.windows-arm-none-eabi-0.1.6/bin/../lib/gcc/arm-none-eabi/8.2.1/../../../../arm-none-eabi/lib/thumb/v7-m/nofp\libsupc++.a
LOAD ./build/\libRRFLibraries.a
END GROUP
LOAD c:/users/andy/.vscode/extensions/metalcode-eu.windows-arm-none-eabi-0.1.6/bin/../lib/gcc/arm-none-eabi/8.2.1/../../../../arm-none-eabi/lib/thumb/v7-m/nofp\libm.a
START GROUP
LOAD c:/users/andy/.vscode/extensions/metalcode-eu.windows-arm-none-eabi-0.1.6/bin/../lib/gcc/arm-none-eabi/8.2.1/thumb/v7-m/nofp\libgcc.a
LOAD c:/users/andy/.vscode/extensions/metalcode-eu.windows-arm-none-eabi-0.1.6/bin/../lib/gcc/arm-none-eabi/8.2.1/../../../../arm-none-eabi/lib/thumb/v7-m/nofp\libc.a
END GROUP
START GROUP
LOAD c:/users/andy/.vscode/extensions/metalcode-eu.windows-arm-none-eabi-0.1.6/bin/../lib/gcc/arm-none-eabi/8.2.1/thumb/v7-m/nofp\libgcc.a
LOAD c:/users/andy/.vscode/extensions/metalcode-eu.windows-arm-none-eabi-0.1.6/bin/../lib/gcc/arm-none-eabi/8.2.1/../../../../arm-none-eabi/lib/thumb/v7-m/nofp\libc.a
LOAD c:/users/andy/.vscode/extensions/metalcode-eu.windows-arm-none-eabi-0.1.6/bin/../lib/gcc/arm-none-eabi/8.2.1/../../../../arm-none-eabi/lib/thumb/v7-m/nofp\libnosys.a
END GROUP
LOAD c:/users/andy/.vscode/extensions/metalcode-eu.windows-arm-none-eabi-0.1.6/bin/../lib/gcc/arm-none-eabi/8.2.1/thumb/v7-m/nofp/crtend.o
LOAD c:/users/andy/.vscode/extensions/metalcode-eu.windows-arm-none-eabi-0.1.6/bin/../lib/gcc/arm-none-eabi/8.2.1/thumb/v7-m/nofp/crtn.o
START GROUP
LOAD c:/users/andy/.vscode/extensions/metalcode-eu.windows-arm-none-eabi-0.1.6/bin/../lib/gcc/arm-none-eabi/8.2.1/thumb/v7-m/nofp\libgcc.a
LOAD c:/users/andy/.vscode/extensions/metalcode-eu.windows-arm-none-eabi-0.1.6/bin/../lib/gcc/arm-none-eabi/8.2.1/../../../../arm-none-eabi/lib/thumb/v7-m/nofp\libg.a
LOAD c:/users/andy/.vscode/extensions/metalcode-eu.windows-arm-none-eabi-0.1.6/bin/../lib/gcc/arm-none-eabi/8.2.1/../../../../arm-none-eabi/lib/thumb/v7-m/nofp\libc.a
LOAD c:/users/andy/.vscode/extensions/metalcode-eu.windows-arm-none-eabi-0.1.6/bin/../lib/gcc/arm-none-eabi/8.2.1/../../../../arm-none-eabi/lib/thumb/v7-m/nofp\libm.a
LOAD c:/users/andy/.vscode/extensions/metalcode-eu.windows-arm-none-eabi-0.1.6/bin/../lib/gcc/arm-none-eabi/8.2.1/../../../../arm-none-eabi/lib/thumb/v7-m/nofp\libnosys.a
END GROUP

.AHBSRAM0       0x2007c000     0x1c94
                0x2007c000                Image$$RW_IRAM2$$Base = .
                0x2007c000                PROVIDE (__AHB0_block_start = .)
 *(AHBSRAM0)
 AHBSRAM0       0x2007c000      0x16c ./build/./RepRapFirmware/src/targets/LPC/Movement/StepperDrivers/TMCSoftUART.o
                0x2007c004                SUDmaBits
 AHBSRAM0       0x2007c16c       0x18 ./build/\libLPCCore.a(exti.o)
 AHBSRAM0       0x2007c184       0x58 ./build/\libLPCCore.a(Wire.o)
                0x2007c184                Wire
 *(.bss.*DataTransfer*)
 *(.bss.reprap)
 .bss.reprap    0x2007c1dc      0x37c ./build/./RepRapFirmware/src/RepRapFirmware.o
                0x2007c1dc                reprap
 *(.bss._*heaterTask)
 .bss._ZL10heaterTask
                0x2007c558      0x50c ./build/./RepRapFirmware/src/Heating/Heat.o
 *(.bss._*mainTask)
 .bss._ZL8mainTask
                0x2007ca64      0xf74 ./build/./RepRapFirmware/src/Tasks.o
 *(.bss.*IdleTaskStack)
 *(.bss.*TimerTaskStack)
 *(.bss.*tcpPlusTask)
 *(.bss._time_locale)
 *(.bss.*Mutex*)
 .bss._ZL11mallocMutex
                0x2007d9d8       0x58 ./build/./RepRapFirmware/src/Tasks.o
 .bss._ZL11sysDirMutex
                0x2007da30       0x58 ./build/./RepRapFirmware/src/Tasks.o
 .bss._ZL14filamentsMutex
                0x2007da88       0x58 ./build/./RepRapFirmware/src/Tasks.o
 .bss._ZL8i2cMutex
                0x2007dae0       0x58 ./build/./RepRapFirmware/src/Tasks.o
 .bss._ZN14LinuxInterface15gcodeReplyMutexE
                0x2007db38       0x58 ./build/./RepRapFirmware/src/Linux/LinuxInterface.o
                0x2007db38                LinuxInterface::gcodeReplyMutex
 .bss._ZN5Mutex9mutexListE
                0x2007db90        0x4 ./build/\libRRFLibraries.a(RTOSIface.o)
                0x2007db90                Mutex::mutexList
 *(.bss.*Queue*)
 *(.bss.*TCB)
 .bss.pxCurrentTCB
                0x2007db94        0x4 ./build/\libLPCCore.a(tasks.o)
                0x2007db94                pxCurrentTCB
 *(.bss.xNetworkBuffers)
 *(.bss.*networkTask)
 *(.bss.*descriptors*)
 *(.bss.*HttpResponder*)
 *(.bss.*emacTask)
 *(.bss.*idleTask)
 .bss._ZL8idleTask
                0x2007db98       0xfc ./build/./RepRapFirmware/src/Tasks.o
 *(.bss.xARPCache)
 *(.bss.xDHCPData)
 *(.bss.*assembleConfigDescriptor*)
 *(.bss.*bufferIn)
 *(.bss.*bufferOut)
 *(.bss.*infoParser)
 *(.bss.*info)
 *(.bss.*files)
                0x2007dc94                Image$$RW_IRAM2$$ZI$$Limit = .
                0x2007dc94                PROVIDE (__AHB0_dyn_start = .)
                0x20084000                PROVIDE (__AHB0_end = (ORIGIN (AHB_RAM) + LENGTH (AHB_RAM)))

.text           0x00004000    0x5ea2c
                0x00004000                _sfixed = .
 *(.isr_vector)
 .isr_vector    0x00004000       0xc4 ./build/\libLPCCore.a(startup_LPC17xx.o)
                0x00004000                g_pfnVectors
 *(.text*)
 .text          0x000040c4       0x40 c:/users/andy/.vscode/extensions/metalcode-eu.windows-arm-none-eabi-0.1.6/bin/../lib/gcc/arm-none-eabi/8.2.1/thumb/v7-m/nofp/crtbegin.o
 .text._sbrk    0x00004104       0x34 ./build/./CoreLPC/cores/arduino/syscalls.o
                0x00004104                _sbrk
 .text._exit    0x00004138        0x2 ./build/./CoreLPC/cores/arduino/syscalls.o
                0x00004138                _exit
 .text._kill    0x0000413a        0x2 ./build/./CoreLPC/cores/arduino/syscalls.o
                0x0000413a                _kill
 .text._getpid  0x0000413c        0x6 ./build/./CoreLPC/cores/arduino/syscalls.o
                0x0000413c                _getpid
 .text.memcmp   0x00004142       0x1c ./build/./RepRapFirmware/src/libc/memcmp.o
                0x00004142                memcmp
 .text.memcpy   0x0000415e       0x1c ./build/./RepRapFirmware/src/libc/memcpy.o
                0x0000415e                memcpy
 .text.memmove  0x0000417a       0x34 ./build/./RepRapFirmware/src/libc/memmove.o
                0x0000417a                memmove
 .text.memset   0x000041ae       0x10 ./build/./RepRapFirmware/src/libc/memset.o
                0x000041ae                memset
 *fill*         0x000041be        0x2 
 .text.malloc   0x000041c0       0xb0 ./build/./RepRapFirmware/src/libc/nano-mallocr.o
                0x000041c0                malloc
 .text.free     0x00004270       0x9c ./build/./RepRapFirmware/src/libc/nano-mallocr.o
                0x00004270                free
 .text.__cxa_allocate_exception
                0x0000430c       0x1e ./build/./RepRapFirmware/src/libcpp/eh_alloc.o
                0x0000430c                __cxa_allocate_exception
 .text.__cxa_free_exception
                0x0000432a        0x6 ./build/./RepRapFirmware/src/libcpp/eh_alloc.o
                0x0000432a                __cxa_free_exception
 .text._Z12SafeStrptimePKcS0_P2tm
                0x00004330      0x1d8 ./build/./RepRapFirmware/src/libc/strptime.o
                0x00004330                SafeStrptime(char const*, char const*, tm*)
 .text.Default_Handler
                0x00004508        0x4 ./build/\libLPCCore.a(startup_LPC17xx.o)
                0x00004508                CAN_IRQHandler
                0x00004508                EINT2_IRQHandler
                0x00004508                ADC_IRQHandler
                0x00004508                TIMER3_IRQHandler
                0x00004508                QEI_IRQHandler
                0x00004508                UART2_IRQHandler
                0x00004508                BOD_IRQHandler
                0x00004508                EINT0_IRQHandler
                0x00004508                RTC_IRQHandler
                0x00004508                I2C1_IRQHandler
                0x00004508                I2S_IRQHandler
                0x00004508                PLL0_IRQHandler
                0x00004508                PWM1_IRQHandler
                0x00004508                MCPWM_IRQHandler
                0x00004508                Default_Handler
                0x00004508                I2C2_IRQHandler
                0x00004508                ENET_IRQHandler
                0x00004508                TIMER1_IRQHandler
                0x00004508                PLL1_IRQHandler
                0x00004508                UART1_IRQHandler
                0x00004508                EINT1_IRQHandler
                0x00004508                TIMER2_IRQHandler
                0x00004508                I2C0_IRQHandler
                0x00004508                SPI_IRQHandler
 .text.Reset_Handler
                0x0000450c       0x68 ./build/\libLPCCore.a(startup_LPC17xx.o)
                0x0000450c                Reset_Handler
 .text.startup.main
                0x00004574       0x6c ./build/\libLPCCore.a(main.o)
                0x00004574                main
 .text._Z4initv
                0x000045e0        0xe ./build/\libLPCCore.a(variant.o)
                0x000045e0                init()
 *fill*         0x000045ee        0x2 
 .text.prvInsertBlockIntoFreeList
                0x000045f0       0x48 ./build/\libLPCCore.a(heap_5.o)
 .text.pvPortMalloc
                0x00004638       0xd0 ./build/\libLPCCore.a(heap_5.o)
                0x00004638                pvPortMalloc
 .text.vPortFree
                0x00004708       0x80 ./build/\libLPCCore.a(heap_5.o)
                0x00004708                vPortFree
 .text.xPortGetFreeHeapSize
                0x00004788        0xc ./build/\libLPCCore.a(heap_5.o)
                0x00004788                xPortGetFreeHeapSize
 .text.xPortGetMinimumEverFreeHeapSize
                0x00004794        0xc ./build/\libLPCCore.a(heap_5.o)
                0x00004794                xPortGetMinimumEverFreeHeapSize
 .text.vPortDefineHeapRegions
                0x000047a0       0xe0 ./build/\libLPCCore.a(heap_5.o)
                0x000047a0                vPortDefineHeapRegions
 .text.SysTick_Init
                0x00004880       0x1c ./build/\libLPCCore.a(systick.o)
                0x00004880                SysTick_Init
 .text.millis   0x0000489c        0xc ./build/\libLPCCore.a(systick.o)
                0x0000489c                millis
 .text.millis64
                0x000048a8       0x20 ./build/\libLPCCore.a(systick.o)
                0x000048a8                millis64
 .text.CoreSysTick
                0x000048c8       0x2c ./build/\libLPCCore.a(systick.o)
                0x000048c8                CoreSysTick
 .text.SystemInit
                0x000048f4      0x134 ./build/\libLPCCore.a(system_LPC17xx.o)
                0x000048f4                SystemInit
 .text.Chip_Clock_EnablePLL
                0x00004a28       0x24 ./build/\libLPCCore.a(clock_17xx_40xx.o)
                0x00004a28                Chip_Clock_EnablePLL
 .text.Chip_Clock_DisablePLL
                0x00004a4c       0x26 ./build/\libLPCCore.a(clock_17xx_40xx.o)
                0x00004a4c                Chip_Clock_DisablePLL
 .text.Chip_Clock_SetupPLL
                0x00004a72       0x30 ./build/\libLPCCore.a(clock_17xx_40xx.o)
                0x00004a72                Chip_Clock_SetupPLL
 *fill*         0x00004aa2        0x2 
 .text.Chip_Clock_EnablePeriphClock
                0x00004aa4       0x18 ./build/\libLPCCore.a(clock_17xx_40xx.o)
                0x00004aa4                Chip_Clock_EnablePeriphClock
 .text.Chip_Clock_DisablePeriphClock
                0x00004abc       0x1c ./build/\libLPCCore.a(clock_17xx_40xx.o)
                0x00004abc                Chip_Clock_DisablePeriphClock
 .text.Chip_Clock_GetCPUClockSource
                0x00004ad8       0x10 ./build/\libLPCCore.a(clock_17xx_40xx.o)
                0x00004ad8                Chip_Clock_GetCPUClockSource
 .text.Chip_Clock_SetCPUClockDiv
                0x00004ae8        0xc ./build/\libLPCCore.a(clock_17xx_40xx.o)
                0x00004ae8                Chip_Clock_SetCPUClockDiv
 .text.Chip_Clock_GetCPUClockDiv
                0x00004af4       0x10 ./build/\libLPCCore.a(clock_17xx_40xx.o)
                0x00004af4                Chip_Clock_GetCPUClockDiv
 .text.Chip_Clock_SetPCLKDiv
                0x00004b04       0x2a ./build/\libLPCCore.a(clock_17xx_40xx.o)
                0x00004b04                Chip_Clock_SetPCLKDiv
 *fill*         0x00004b2e        0x2 
 .text.Chip_Clock_GetPCLKDiv
                0x00004b30       0x38 ./build/\libLPCCore.a(clock_17xx_40xx.o)
                0x00004b30                Chip_Clock_GetPCLKDiv
 .text.Chip_Clock_GetSYSCLKRate
                0x00004b68       0x38 ./build/\libLPCCore.a(clock_17xx_40xx.o)
                0x00004b68                Chip_Clock_GetSYSCLKRate
 .text.Chip_Clock_GetMainPLLOutClockRate
                0x00004ba0       0x34 ./build/\libLPCCore.a(clock_17xx_40xx.o)
                0x00004ba0                Chip_Clock_GetMainPLLOutClockRate
 .text.Chip_Clock_GetMainClockRate
                0x00004bd4       0x20 ./build/\libLPCCore.a(clock_17xx_40xx.o)
                0x00004bd4                Chip_Clock_GetMainClockRate
 .text.Chip_Clock_GetSystemClockRate
                0x00004bf4       0x12 ./build/\libLPCCore.a(clock_17xx_40xx.o)
                0x00004bf4                Chip_Clock_GetSystemClockRate
 .text.Chip_Clock_GetPeripheralClockRate
                0x00004c06       0x16 ./build/\libLPCCore.a(clock_17xx_40xx.o)
                0x00004c06                Chip_Clock_GetPeripheralClockRate
 .text.iap_entry
                0x00004c1c        0x8 ./build/\libLPCCore.a(iap.o)
 .text.Chip_IAP_PreSectorForReadWrite
                0x00004c24       0x1e ./build/\libLPCCore.a(iap.o)
                0x00004c24                Chip_IAP_PreSectorForReadWrite
 *fill*         0x00004c42        0x2 
 .text.Chip_IAP_CopyRamToFlash
                0x00004c44       0x34 ./build/\libLPCCore.a(iap.o)
                0x00004c44                Chip_IAP_CopyRamToFlash
 .text.Chip_IAP_EraseSector
                0x00004c78       0x30 ./build/\libLPCCore.a(iap.o)
                0x00004c78                Chip_IAP_EraseSector
 .text.Chip_IAP_ReadPID
                0x00004ca8       0x18 ./build/\libLPCCore.a(iap.o)
                0x00004ca8                Chip_IAP_ReadPID
 .text._Z12AnalogInInitv
                0x00004cc0       0x58 ./build/\libLPCCore.a(AnalogIn.o)
                0x00004cc0                AnalogInInit()
 .text._Z21ConfigureADCPreFilterb
                0x00004d18       0x18 ./build/\libLPCCore.a(AnalogIn.o)
                0x00004d18                ConfigureADCPreFilter(bool)
 .text._Z21AnalogInEnableChannel19AnalogChannelNumberb
                0x00004d30       0x6c ./build/\libLPCCore.a(AnalogIn.o)
                0x00004d30                AnalogInEnableChannel(AnalogChannelNumber, bool)
 .text._Z19AnalogInReadChannel19AnalogChannelNumber
                0x00004d9c      0x25c ./build/\libLPCCore.a(AnalogIn.o)
                0x00004d9c                AnalogInReadChannel(AnalogChannelNumber)
 .text._Z23AnalogInStartConversionm
                0x00004ff8        0x2 ./build/\libLPCCore.a(AnalogIn.o)
                0x00004ff8                AnalogInStartConversion(unsigned long)
 *fill*         0x00004ffa        0x2 
 .text._Z15PinToAdcChannelm
                0x00004ffc       0x10 ./build/\libLPCCore.a(AnalogIn.o)
                0x00004ffc                PinToAdcChannel(unsigned long)
 .text.startup._GLOBAL__sub_I_ADCNotReadyCnt
                0x0000500c        0xc ./build/\libLPCCore.a(AnalogIn.o)
 .text._Z13AnalogOutInitv
                0x00005018        0x2 ./build/\libLPCCore.a(AnalogOut.o)
                0x00005018                AnalogOutInit()
 .text._Z9AnalogOut11gpioPins_etft
                0x0000501a       0x6c ./build/\libLPCCore.a(AnalogOut.o)
                0x0000501a                AnalogOut(gpioPins_et, float, unsigned short)
 .text._Z12IsPwmCapable11gpioPins_et
                0x00005086        0xc ./build/\libLPCCore.a(AnalogOut.o)
                0x00005086                IsPwmCapable(gpioPins_et)
 .text._Z18ConfigurePinForPWM11gpioPins_etb
                0x00005092        0x4 ./build/\libLPCCore.a(AnalogOut.o)
                0x00005092                ConfigurePinForPWM(gpioPins_et, bool)
 .text._Z13ReleasePWMPin11gpioPins_et
                0x00005096        0x4 ./build/\libLPCCore.a(AnalogOut.o)
                0x00005096                ReleasePWMPin(gpioPins_et)
 *fill*         0x0000509a        0x2 
 .text._Z7PWM_Set11gpioPins_etm
                0x0000509c       0xb0 ./build/\libLPCCore.a(AnalogOutServo.o)
                0x0000509c                PWM_Set(gpioPins_et, unsigned long)
 .text._Z9PWM_Clear11gpioPins_et
                0x0000514c       0x64 ./build/\libLPCCore.a(AnalogOutServo.o)
                0x0000514c                PWM_Clear(gpioPins_et)
 .text._Z16AnalogWriteHWPWMRK14PinDescriptionft11gpioPins_et
                0x000051b0       0x94 ./build/\libLPCCore.a(AnalogOutServo.o)
                0x000051b0                AnalogWriteHWPWM(PinDescription const&, float, unsigned short, gpioPins_et)
 .text._Z15ReleaseHWPWMPin11gpioPins_et
                0x00005244       0x2c ./build/\libLPCCore.a(AnalogOutServo.o)
                0x00005244                ReleaseHWPWMPin(gpioPins_et)
 .text._Z10CanDoHWPWM11gpioPins_et
                0x00005270       0x30 ./build/\libLPCCore.a(AnalogOutServo.o)
                0x00005270                CanDoHWPWM(gpioPins_et)
 .text._Z20ConfigurePinForHWPWM11gpioPins_etb
                0x000052a0       0x3c ./build/\libLPCCore.a(AnalogOutServo.o)
                0x000052a0                ConfigurePinForHWPWM(gpioPins_et, bool)
 .text._Z14IsServoCapable11gpioPins_et
                0x000052dc       0x22 ./build/\libLPCCore.a(AnalogOutServo.o)
                0x000052dc                IsServoCapable(gpioPins_et)
 .text._Z15ReleaseServoPin11gpioPins_et
                0x000052fe       0x16 ./build/\libLPCCore.a(AnalogOutServo.o)
                0x000052fe                ReleaseServoPin(gpioPins_et)
 .text._Z20ConfigurePinForServo11gpioPins_etb
                0x00005314       0x26 ./build/\libLPCCore.a(AnalogOutServo.o)
                0x00005314                ConfigurePinForServo(gpioPins_et, bool)
 *fill*         0x0000533a        0x2 
 .text._Z16AnalogWriteServoft11gpioPins_et
                0x0000533c       0x38 ./build/\libLPCCore.a(AnalogOutServo.o)
                0x0000533c                AnalogWriteServo(float, unsigned short, gpioPins_et)
 .text._Z16CanDoSoftwarePWM11gpioPins_et
                0x00005374       0x1c ./build/\libLPCCore.a(AnalogOutSoftwarePWM.o)
                0x00005374                CanDoSoftwarePWM(gpioPins_et)
 .text._Z26ConfigurePinForSoftwarePWM11gpioPins_et
                0x00005390       0x5c ./build/\libLPCCore.a(AnalogOutSoftwarePWM.o)
                0x00005390                ConfigurePinForSoftwarePWM(gpioPins_et)
 .text._Z21ReleaseSoftwarePWMPin11gpioPins_et
                0x000053ec       0x60 ./build/\libLPCCore.a(AnalogOutSoftwarePWM.o)
                0x000053ec                ReleaseSoftwarePWMPin(gpioPins_et)
 .text._Z22AnalogWriteSoftwarePWMft11gpioPins_et
                0x0000544c       0x64 ./build/\libLPCCore.a(AnalogOutSoftwarePWM.o)
                0x0000544c                AnalogWriteSoftwarePWM(float, unsigned short, gpioPins_et)
 .text._Znwj    0x000054b0       0x18 ./build/\libLPCCore.a(new.o)
                0x000054b0                operator new(unsigned int)
 .text._Znaj    0x000054c8        0x4 ./build/\libLPCCore.a(new.o)
                0x000054c8                operator new[](unsigned int)
 .text._ZdlPvj  0x000054cc        0x4 ./build/\libLPCCore.a(new.o)
                0x000054cc                operator delete(void*, unsigned int)
 .text.GPIO_PinInputMode
                0x000054d0      0x3c4 ./build/\libLPCCore.a(wiring_digital.o)
                0x000054d0                GPIO_PinInputMode
 .text.pinModeDuet
                0x00005894       0xa6 ./build/\libLPCCore.a(wiring_digital.o)
                0x00005894                pinModeDuet
 .text.digitalWrite
                0x0000593a        0xa ./build/\libLPCCore.a(wiring_digital.o)
                0x0000593a                digitalWrite
 .text.digitalRead
                0x00005944       0x16 ./build/\libLPCCore.a(wiring_digital.o)
                0x00005944                digitalRead
 .text._ZN11SoftwarePWMC2E11gpioPins_et
                0x0000595a       0x38 ./build/\libLPCCore.a(SoftwarePWM.o)
                0x0000595a                SoftwarePWM::SoftwarePWM(gpioPins_et)
                0x0000595a                SoftwarePWM::SoftwarePWM(gpioPins_et)
 *fill*         0x00005992        0x2 
 .text._ZN11SoftwarePWM11AttachTimerEv
                0x00005994       0x24 ./build/\libLPCCore.a(SoftwarePWM.o)
                0x00005994                SoftwarePWM::AttachTimer()
 .text._ZN11SoftwarePWM12ReleaseTimerEv
                0x000059b8       0x1c ./build/\libLPCCore.a(SoftwarePWM.o)
                0x000059b8                SoftwarePWM::ReleaseTimer()
 .text._ZN11SoftwarePWM6EnableEv
                0x000059d4        0x8 ./build/\libLPCCore.a(SoftwarePWM.o)
                0x000059d4                SoftwarePWM::Enable()
 .text._ZN11SoftwarePWM7DisableEv
                0x000059dc       0x1a ./build/\libLPCCore.a(SoftwarePWM.o)
                0x000059dc                SoftwarePWM::Disable()
 *fill*         0x000059f6        0x2 
 .text._ZN11SoftwarePWM11AnalogWriteEft11gpioPins_et
                0x000059f8       0xb0 ./build/\libLPCCore.a(SoftwarePWM.o)
                0x000059f8                SoftwarePWM::AnalogWrite(float, unsigned short, gpioPins_et)
 .text._ZL12updateActivev
                0x00005aa8       0x78 ./build/\libLPCCore.a(SoftwarePWMTimer.o)
 .text._ZN16SoftwarePWMTimerC2Ev
                0x00005b20       0x68 ./build/\libLPCCore.a(SoftwarePWMTimer.o)
                0x00005b20                SoftwarePWMTimer::SoftwarePWMTimer()
                0x00005b20                SoftwarePWMTimer::SoftwarePWMTimer()
 .text._Z7syncAllv
                0x00005b88       0x48 ./build/\libLPCCore.a(SoftwarePWMTimer.o)
                0x00005b88                syncAll()
 .text._ZN16SoftwarePWMTimer7disableEi
                0x00005bd0       0x14 ./build/\libLPCCore.a(SoftwarePWMTimer.o)
                0x00005bd0                SoftwarePWMTimer::disable(int)
 .text._ZN16SoftwarePWMTimer6enableEP11SoftwarePWMmm
                0x00005be4       0x68 ./build/\libLPCCore.a(SoftwarePWMTimer.o)
                0x00005be4                SoftwarePWMTimer::enable(SoftwarePWM*, unsigned long, unsigned long)
 .text._ZN16SoftwarePWMTimer15adjustOnOffTimeEimm
                0x00005c4c       0x38 ./build/\libLPCCore.a(SoftwarePWMTimer.o)
                0x00005c4c                SoftwarePWMTimer::adjustOnOffTime(int, unsigned long, unsigned long)
 .text.hot.RIT_IRQHandler
                0x00005c84      0x164 ./build/\libLPCCore.a(SoftwarePWMTimer.o)
                0x00005c84                RIT_IRQHandler
 .text._ZN16SoftwarePWMTimer11DiagnosticsE11MessageType
                0x00005de8      0x14c ./build/\libLPCCore.a(SoftwarePWMTimer.o)
                0x00005de8                SoftwarePWMTimer::Diagnostics(MessageType)
 .text.startup._GLOBAL__sub_I_pwmInts
                0x00005f34        0xc ./build/\libLPCCore.a(SoftwarePWMTimer.o)
 .text.prvIdleTask
                0x00005f40       0x5c ./build/\libLPCCore.a(tasks.o)
 .text.prvResetNextTaskUnblockTime
                0x00005f9c       0x24 ./build/\libLPCCore.a(tasks.o)
 .text.prvAddCurrentTaskToDelayedList
                0x00005fc0       0x8c ./build/\libLPCCore.a(tasks.o)
 .text.xTaskCreateStatic
                0x0000604c      0x200 ./build/\libLPCCore.a(tasks.o)
                0x0000604c                xTaskCreateStatic
 .text.vTaskDelete
                0x0000624c       0xc8 ./build/\libLPCCore.a(tasks.o)
                0x0000624c                vTaskDelete
 .text.eTaskGetState
                0x00006314       0x80 ./build/\libLPCCore.a(tasks.o)
                0x00006314                eTaskGetState
 .text.vTaskStartScheduler
                0x00006394       0x6c ./build/\libLPCCore.a(tasks.o)
                0x00006394                vTaskStartScheduler
 .text.vTaskSuspendAll
                0x00006400       0x10 ./build/\libLPCCore.a(tasks.o)
                0x00006400                vTaskSuspendAll
 .text.xTaskGetTickCount
                0x00006410        0xc ./build/\libLPCCore.a(tasks.o)
                0x00006410                xTaskGetTickCount
 .text.pcTaskGetName
                0x0000641c       0x24 ./build/\libLPCCore.a(tasks.o)
                0x0000641c                pcTaskGetName
 .text.xTaskIncrementTick
                0x00006440      0x130 ./build/\libLPCCore.a(tasks.o)
                0x00006440                xTaskIncrementTick
 .text.xTaskResumeAll
                0x00006570       0xe8 ./build/\libLPCCore.a(tasks.o)
                0x00006570                xTaskResumeAll
 .text.vTaskDelayUntil
                0x00006658       0x80 ./build/\libLPCCore.a(tasks.o)
                0x00006658                vTaskDelayUntil
 .text.vTaskDelay
                0x000066d8       0x4c ./build/\libLPCCore.a(tasks.o)
                0x000066d8                vTaskDelay
 .text.vTaskSwitchContext
                0x00006724       0xa4 ./build/\libLPCCore.a(tasks.o)
                0x00006724                vTaskSwitchContext
 .text.vTaskSuspend
                0x000067c8       0xd4 ./build/\libLPCCore.a(tasks.o)
                0x000067c8                vTaskSuspend
 .text.vTaskPlaceOnEventList
                0x0000689c       0x34 ./build/\libLPCCore.a(tasks.o)
                0x0000689c                vTaskPlaceOnEventList
 .text.xTaskRemoveFromEventList
                0x000068d0       0x80 ./build/\libLPCCore.a(tasks.o)
                0x000068d0                xTaskRemoveFromEventList
 .text.vTaskInternalSetTimeOutState
                0x00006950       0x18 ./build/\libLPCCore.a(tasks.o)
                0x00006950                vTaskInternalSetTimeOutState
 .text.xTaskCheckForTimeOut
                0x00006968       0x6c ./build/\libLPCCore.a(tasks.o)
                0x00006968                xTaskCheckForTimeOut
 .text.vTaskMissedYield
                0x000069d4        0xc ./build/\libLPCCore.a(tasks.o)
                0x000069d4                vTaskMissedYield
 .text.xTaskGetCurrentTaskHandle
                0x000069e0        0xc ./build/\libLPCCore.a(tasks.o)
                0x000069e0                xTaskGetCurrentTaskHandle
 .text.xTaskGetSchedulerState
                0x000069ec       0x20 ./build/\libLPCCore.a(tasks.o)
                0x000069ec                xTaskGetSchedulerState
 .text.xTaskPriorityInherit
                0x00006a0c       0x98 ./build/\libLPCCore.a(tasks.o)
                0x00006a0c                xTaskPriorityInherit
 .text.xTaskPriorityDisinherit
                0x00006aa4       0x98 ./build/\libLPCCore.a(tasks.o)
                0x00006aa4                xTaskPriorityDisinherit
 .text.vTaskPriorityDisinheritAfterTimeout
                0x00006b3c       0xa4 ./build/\libLPCCore.a(tasks.o)
                0x00006b3c                vTaskPriorityDisinheritAfterTimeout
 .text.pvTaskIncrementMutexHeldCount
                0x00006be0       0x18 ./build/\libLPCCore.a(tasks.o)
                0x00006be0                pvTaskIncrementMutexHeldCount
 .text.ulTaskNotifyTake
                0x00006bf8       0x64 ./build/\libLPCCore.a(tasks.o)
                0x00006bf8                ulTaskNotifyTake
 .text.xTaskGenericNotify
                0x00006c5c       0xd4 ./build/\libLPCCore.a(tasks.o)
                0x00006c5c                xTaskGenericNotify
 .text.vTaskNotifyGiveFromISR
                0x00006d30       0xb8 ./build/\libLPCCore.a(tasks.o)
                0x00006d30                vTaskNotifyGiveFromISR
 .text.CheckSPCurrentTaskStack
                0x00006de8       0x28 ./build/\libLPCCore.a(tasks.o)
                0x00006de8                CheckSPCurrentTaskStack
 .text.vTaskGetInfo
                0x00006e10       0x78 ./build/\libLPCCore.a(tasks.o)
                0x00006e10                vTaskGetInfo
 .text.prvPortStartFirstTask
                0x00006e88       0x20 ./build/\libLPCCore.a(port.o)
 .text.prvTaskExitError
                0x00006ea8       0x3c ./build/\libLPCCore.a(port.o)
 .text.pxPortInitialiseStack
                0x00006ee4       0x24 ./build/\libLPCCore.a(port.o)
                0x00006ee4                pxPortInitialiseStack
 *fill*         0x00006f08        0x8 
 .text.SVC_Handler
                0x00006f10       0x24 ./build/\libLPCCore.a(port.o)
                0x00006f10                SVC_Handler
 .text.vPortEnterCritical
                0x00006f34       0x40 ./build/\libLPCCore.a(port.o)
                0x00006f34                vPortEnterCritical
 .text.vPortExitCritical
                0x00006f74       0x28 ./build/\libLPCCore.a(port.o)
                0x00006f74                vPortExitCritical
 *fill*         0x00006f9c        0x4 
 .text.PendSV_Handler
                0x00006fa0       0x44 ./build/\libLPCCore.a(port.o)
                0x00006fa0                PendSV_Handler
 .text.SysTick_Handler
                0x00006fe4       0x2c ./build/\libLPCCore.a(port.o)
                0x00006fe4                SysTick_Handler
 .text.vPortSetupTimerInterrupt
                0x00007010       0x34 ./build/\libLPCCore.a(port.o)
                0x00007010                vPortSetupTimerInterrupt
 .text.xPortStartScheduler
                0x00007044       0xb0 ./build/\libLPCCore.a(port.o)
                0x00007044                xPortStartScheduler
 .text.vPortValidateInterruptPriority
                0x000070f4       0x54 ./build/\libLPCCore.a(port.o)
                0x000070f4                vPortValidateInterruptPriority
 .text.bb_alias_sram_dword
                0x00007148       0x1c ./build/\libLPCCore.a(gpio.o)
                0x00007148                bb_alias_sram_dword
 .text.bb_alias_periph_dword
                0x00007164       0x1c ./build/\libLPCCore.a(gpio.o)
                0x00007164                bb_alias_periph_dword
 .text.GPIO_PinFunction
                0x00007180       0x48 ./build/\libLPCCore.a(gpio.o)
                0x00007180                GPIO_PinFunction
 .text.GPIO_PinDirection
                0x000071c8       0x20 ./build/\libLPCCore.a(gpio.o)
                0x000071c8                GPIO_PinDirection
 .text.GPIO_PinWrite
                0x000071e8       0x1e ./build/\libLPCCore.a(gpio.o)
                0x000071e8                GPIO_PinWrite
 .text.GPIO_PinRead
                0x00007206       0x1c ./build/\libLPCCore.a(gpio.o)
                0x00007206                GPIO_PinRead
 *fill*         0x00007222        0x2 
 .text.Chip_ADC_Init
                0x00007224       0x48 ./build/\libLPCCore.a(adc_17xx_40xx.o)
                0x00007224                Chip_ADC_Init
 .text.Chip_ADC_DeInit
                0x0000726c       0x10 ./build/\libLPCCore.a(adc_17xx_40xx.o)
                0x0000726c                Chip_ADC_DeInit
 .text.Chip_ADC_ReadValue
                0x0000727c       0x16 ./build/\libLPCCore.a(adc_17xx_40xx.o)
                0x0000727c                Chip_ADC_ReadValue
 .text.Chip_ADC_SetSampleRate
                0x00007292       0x30 ./build/\libLPCCore.a(adc_17xx_40xx.o)
                0x00007292                Chip_ADC_SetSampleRate
 .text.Chip_ADC_SetBurstCmd
                0x000072c2       0x1a ./build/\libLPCCore.a(adc_17xx_40xx.o)
                0x000072c2                Chip_ADC_SetBurstCmd
 .text._ZN12ADCPreFilter14UpdateChannelsEh
                0x000072dc       0x1c ./build/\libLPCCore.a(ADCPreFilter.o)
                0x000072dc                ADCPreFilter::UpdateChannels(unsigned char)
 .text._ZN12ADCPreFilter13PrepareAdcDmaEv
                0x000072f8       0x5c ./build/\libLPCCore.a(ADCPreFilter.o)
                0x000072f8                ADCPreFilter::PrepareAdcDma()
 .text._ZN12ADCPreFilter4InitEv
                0x00007354       0x2c ./build/\libLPCCore.a(ADCPreFilter.o)
                0x00007354                ADCPreFilter::Init()
 .text._ZL19checkAndCallHandlerm20LPC175X_6X_IRQn_Type
                0x00007380       0x44 ./build/\libLPCCore.a(DMA.o)
 .text._Z13InitialiseDMAv
                0x000073c4       0x6c ./build/\libLPCCore.a(DMA.o)
                0x000073c4                InitialiseDMA()
 .text._Z19DMAGetChannelNumber13DMA_Channel_t
                0x00007430        0xc ./build/\libLPCCore.a(DMA.o)
                0x00007430                DMAGetChannelNumber(DMA_Channel_t)
 .text._Z32AttachDMAChannelInterruptHandlerPFvvE13DMA_Channel_t
                0x0000743c        0xc ./build/\libLPCCore.a(DMA.o)
                0x0000743c                AttachDMAChannelInterruptHandler(void (*)(), DMA_Channel_t)
 .text.DMA_IRQHandler
                0x00007448       0x36 ./build/\libLPCCore.a(DMA.o)
                0x00007448                DMA_IRQHandler
 *fill*         0x0000747e        0x2 
 .text._Z16SspDmaRxTransfer13DMA_Channel_tPKvm19DMA_TransferWidth_t
                0x00007480       0x80 ./build/\libLPCCore.a(DMA.o)
                0x00007480                SspDmaRxTransfer(DMA_Channel_t, void const*, unsigned long, DMA_TransferWidth_t)
 .text._Z16SspDmaTxTransfer13DMA_Channel_tPKvm19DMA_TransferWidth_t
                0x00007500       0x80 ./build/\libLPCCore.a(DMA.o)
                0x00007500                SspDmaTxTransfer(DMA_Channel_t, void const*, unsigned long, DMA_TransferWidth_t)
 .text._Z18SspDmaRxTransferNI13DMA_Channel_tPKvm19DMA_TransferWidth_t
                0x00007580       0x80 ./build/\libLPCCore.a(DMA.o)
                0x00007580                SspDmaRxTransferNI(DMA_Channel_t, void const*, unsigned long, DMA_TransferWidth_t)
 .text._Z18SspDmaTxTransferNI13DMA_Channel_tPKvm19DMA_TransferWidth_t
                0x00007600       0x80 ./build/\libLPCCore.a(DMA.o)
                0x00007600                SspDmaTxTransferNI(DMA_Channel_t, void const*, unsigned long, DMA_TransferWidth_t)
 .text.vListInitialise
                0x00007680       0x16 ./build/\libLPCCore.a(list.o)
                0x00007680                vListInitialise
 .text.vListInitialiseItem
                0x00007696        0x6 ./build/\libLPCCore.a(list.o)
                0x00007696                vListInitialiseItem
 .text.vListInsertEnd
                0x0000769c       0x18 ./build/\libLPCCore.a(list.o)
                0x0000769c                vListInsertEnd
 .text.vListInsert
                0x000076b4       0x2e ./build/\libLPCCore.a(list.o)
                0x000076b4                vListInsert
 .text.uxListRemove
                0x000076e2       0x20 ./build/\libLPCCore.a(list.o)
                0x000076e2                uxListRemove
 *fill*         0x00007702        0x2 
 .text.Chip_GPDMA_Init
                0x00007704       0x4c ./build/\libLPCCore.a(gpdma_17xx_40xx.o)
                0x00007704                Chip_GPDMA_Init
 .text.Chip_GPDMA_Interrupt
                0x00007750       0x2c ./build/\libLPCCore.a(gpdma_17xx_40xx.o)
                0x00007750                Chip_GPDMA_Interrupt
 .text.Chip_GPDMA_ChannelCmd
                0x0000777c       0x1a ./build/\libLPCCore.a(gpdma_17xx_40xx.o)
                0x0000777c                Chip_GPDMA_ChannelCmd
 *fill*         0x00007796        0x2 
 .text.Chip_GPDMA_GetFreeChannel
                0x00007798       0x30 ./build/\libLPCCore.a(gpdma_17xx_40xx.o)
                0x00007798                Chip_GPDMA_GetFreeChannel
 .text.ld_dword
                0x000077c8       0x10 ./build/./RepRapFirmware/src/targets/common/FatFS/ff.o
 .text.st_dword
                0x000077d8       0x10 ./build/./RepRapFirmware/src/targets/common/FatFS/ff.o
 .text.clst2sect
                0x000077e8       0x16 ./build/./RepRapFirmware/src/targets/common/FatFS/ff.o
 .text.sum_sfn  0x000077fe       0x1e ./build/./RepRapFirmware/src/targets/common/FatFS/ff.o
 .text.get_ldnumber
                0x0000781c       0x3a ./build/./RepRapFirmware/src/targets/common/FatFS/ff.o
 .text.ld_clust.isra.3
                0x00007856       0x1c ./build/./RepRapFirmware/src/targets/common/FatFS/ff.o
 .text.st_clust.isra.4
                0x00007872       0x18 ./build/./RepRapFirmware/src/targets/common/FatFS/ff.o
 .text.sync_window
                0x0000788a       0x44 ./build/./RepRapFirmware/src/targets/common/FatFS/ff.o
 .text.move_window
                0x000078ce       0x36 ./build/./RepRapFirmware/src/targets/common/FatFS/ff.o
 .text.check_fs
                0x00007904       0x70 ./build/./RepRapFirmware/src/targets/common/FatFS/ff.o
 .text.find_volume
                0x00007974      0x2c0 ./build/./RepRapFirmware/src/targets/common/FatFS/ff.o
 .text.put_fat  0x00007c34       0xf8 ./build/./RepRapFirmware/src/targets/common/FatFS/ff.o
 .text.get_fat.isra.10
                0x00007d2c       0xb4 ./build/./RepRapFirmware/src/targets/common/FatFS/ff.o
 .text.dir_sdi  0x00007de0       0x82 ./build/./RepRapFirmware/src/targets/common/FatFS/ff.o
 .text.create_chain
                0x00007e62       0xe8 ./build/./RepRapFirmware/src/targets/common/FatFS/ff.o
 .text.remove_chain
                0x00007f4a       0x6e ./build/./RepRapFirmware/src/targets/common/FatFS/ff.o
 .text.unlock_fs
                0x00007fb8       0x16 ./build/./RepRapFirmware/src/targets/common/FatFS/ff.o
 .text.validate
                0x00007fce       0x4c ./build/./RepRapFirmware/src/targets/common/FatFS/ff.o
 .text.dir_clear
                0x0000801a       0x52 ./build/./RepRapFirmware/src/targets/common/FatFS/ff.o
 .text.dir_next
                0x0000806c       0xaa ./build/./RepRapFirmware/src/targets/common/FatFS/ff.o
 *fill*         0x00008116        0x2 
 .text.dir_find
                0x00008118      0x148 ./build/./RepRapFirmware/src/targets/common/FatFS/ff.o
 .text.dir_register
                0x00008260      0x28c ./build/./RepRapFirmware/src/targets/common/FatFS/ff.o
 .text.sync_fs  0x000084ec       0x96 ./build/./RepRapFirmware/src/targets/common/FatFS/ff.o
 *fill*         0x00008582        0x2 
 .text.follow_path
                0x00008584      0x31c ./build/./RepRapFirmware/src/targets/common/FatFS/ff.o
 .text.f_mount  0x000088a0       0x70 ./build/./RepRapFirmware/src/targets/common/FatFS/ff.o
                0x000088a0                f_mount
 .text.f_open   0x00008910      0x1a2 ./build/./RepRapFirmware/src/targets/common/FatFS/ff.o
                0x00008910                f_open
 .text.f_read   0x00008ab2      0x148 ./build/./RepRapFirmware/src/targets/common/FatFS/ff.o
                0x00008ab2                f_read
 .text.f_write  0x00008bfa      0x1a4 ./build/./RepRapFirmware/src/targets/common/FatFS/ff.o
                0x00008bfa                f_write
 .text.f_sync   0x00008d9e       0x74 ./build/./RepRapFirmware/src/targets/common/FatFS/ff.o
                0x00008d9e                f_sync
 .text.f_close  0x00008e12       0x28 ./build/./RepRapFirmware/src/targets/common/FatFS/ff.o
                0x00008e12                f_close
 .text.f_lseek  0x00008e3a      0x11e ./build/./RepRapFirmware/src/targets/common/FatFS/ff.o
                0x00008e3a                f_lseek
 .text.ff_uni2oem
                0x00008f58       0x40 ./build/./RepRapFirmware/src/targets/common/FatFS/ffunicode.o
                0x00008f58                ff_uni2oem
 .text.ff_wtoupper
                0x00008f98       0x8c ./build/./RepRapFirmware/src/targets/common/FatFS/ffunicode.o
                0x00008f98                ff_wtoupper
 .text._ZNSt14_Function_base13_Base_managerIZN12OutputBuffer5vcatfEPKcSt9__va_listEUlcE_E10_M_managerERSt9_Any_dataRKS7_St18_Manager_operation
                0x00009024       0x16 ./build/./RepRapFirmware/src/OutputMemory.o
 .text._ZN9RTOSIface24LeaveTaskCriticalSectionEv
                0x0000903a        0xe ./build/./RepRapFirmware/src/OutputMemory.o
                0x0000903a                RTOSIface::LeaveTaskCriticalSection()
 .text._ZN12OutputBuffer18IncreaseReferencesEj
                0x00009048       0x28 ./build/./RepRapFirmware/src/OutputMemory.o
                0x00009048                OutputBuffer::IncreaseReferences(unsigned int)
 .text._ZNK12OutputBuffer6LengthEv
                0x00009070       0x12 ./build/./RepRapFirmware/src/OutputMemory.o
                0x00009070                OutputBuffer::Length() const
 .text._ZN12OutputBufferixEj
                0x00009082       0x14 ./build/./RepRapFirmware/src/OutputMemory.o
                0x00009082                OutputBuffer::operator[](unsigned int)
 .text._ZN12OutputBuffer4ReadEj
                0x00009096       0x10 ./build/./RepRapFirmware/src/OutputMemory.o
                0x00009096                OutputBuffer::Read(unsigned int)
 *fill*         0x000090a6        0x2 
 .text._ZN12OutputBuffer5vcatfEPKcSt9__va_list
                0x000090a8       0x30 ./build/./RepRapFirmware/src/OutputMemory.o
                0x000090a8                OutputBuffer::vcatf(char const*, std::__va_list)
 .text._ZN12OutputBuffer4catfEPKcz
                0x000090d8       0x1a ./build/./RepRapFirmware/src/OutputMemory.o
                0x000090d8                OutputBuffer::catf(char const*, ...)
 *fill*         0x000090f2        0x2 
 .text._ZN12OutputBuffer4InitEv
                0x000090f4       0x24 ./build/./RepRapFirmware/src/OutputMemory.o
                0x000090f4                OutputBuffer::Init()
 .text._ZN12OutputBuffer8AllocateERPS_
                0x00009118       0x88 ./build/./RepRapFirmware/src/OutputMemory.o
                0x00009118                OutputBuffer::Allocate(OutputBuffer*&)
 .text._ZN12OutputBuffer3catEPKcj
                0x000091a0       0x84 ./build/./RepRapFirmware/src/OutputMemory.o
                0x000091a0                OutputBuffer::cat(char const*, unsigned int)
 .text._ZN12OutputBuffer3catEPKc
                0x00009224       0x1a ./build/./RepRapFirmware/src/OutputMemory.o
                0x00009224                OutputBuffer::cat(char const*)
 *fill*         0x0000923e        0x2 
 .text._ZN12OutputBuffer7ReleaseEPS_
                0x00009240       0x44 ./build/./RepRapFirmware/src/OutputMemory.o
                0x00009240                OutputBuffer::Release(OutputBuffer*)
 .text._ZN12OutputBuffer10ReleaseAllERVPS_
                0x00009284       0x14 ./build/./RepRapFirmware/src/OutputMemory.o
                0x00009284                OutputBuffer::ReleaseAll(OutputBuffer* volatile&)
 .text._ZN12OutputBuffer5ClearEv
                0x00009298       0x16 ./build/./RepRapFirmware/src/OutputMemory.o
                0x00009298                OutputBuffer::Clear()
 .text._ZN12OutputBuffer7vprintfEPKcSt9__va_list
                0x000092ae       0x1a ./build/./RepRapFirmware/src/OutputMemory.o
                0x000092ae                OutputBuffer::vprintf(char const*, std::__va_list)
 .text._ZN12OutputBuffer6printfEPKcz
                0x000092c8       0x1a ./build/./RepRapFirmware/src/OutputMemory.o
                0x000092c8                OutputBuffer::printf(char const*, ...)
 .text._ZN12OutputBuffer4copyEc
                0x000092e2       0x14 ./build/./RepRapFirmware/src/OutputMemory.o
                0x000092e2                OutputBuffer::copy(char)
 .text._ZN12OutputBuffer3catEc
                0x000092f6       0x5c ./build/./RepRapFirmware/src/OutputMemory.o
                0x000092f6                OutputBuffer::cat(char)
 .text._ZNSt17_Function_handlerIFbcEZN12OutputBuffer5vcatfEPKcSt9__va_listEUlcE_E9_M_invokeERKSt9_Any_dataOc
                0x00009352       0x18 ./build/./RepRapFirmware/src/OutputMemory.o
 .text._ZN12OutputBuffer5lcatfEPKcz
                0x0000936a       0x42 ./build/./RepRapFirmware/src/OutputMemory.o
                0x0000936a                OutputBuffer::lcatf(char const*, ...)
 .text._ZN12OutputBuffer10EncodeCharEc
                0x000093ac       0x48 ./build/./RepRapFirmware/src/OutputMemory.o
                0x000093ac                OutputBuffer::EncodeChar(char)
 .text._ZN12OutputBuffer12EncodeStringEPKcbb
                0x000093f4       0x4a ./build/./RepRapFirmware/src/OutputMemory.o
                0x000093f4                OutputBuffer::EncodeString(char const*, bool, bool)
 .text._ZN12OutputBuffer11EncodeReplyEPS_
                0x0000943e       0x50 ./build/./RepRapFirmware/src/OutputMemory.o
                0x0000943e                OutputBuffer::EncodeReply(OutputBuffer*)
 .text._ZN12OutputBuffer4lcatEPKcj
                0x0000948e       0x24 ./build/./RepRapFirmware/src/OutputMemory.o
                0x0000948e                OutputBuffer::lcat(char const*, unsigned int)
 .text._ZN12OutputBuffer4lcatEPKc
                0x000094b2       0x1a ./build/./RepRapFirmware/src/OutputMemory.o
                0x000094b2                OutputBuffer::lcat(char const*)
 .text._ZN12OutputBuffer4copyEPKcj
                0x000094cc       0x1a ./build/./RepRapFirmware/src/OutputMemory.o
                0x000094cc                OutputBuffer::copy(char const*, unsigned int)
 .text._ZN12OutputBuffer4copyEPKc
                0x000094e6       0x1a ./build/./RepRapFirmware/src/OutputMemory.o
                0x000094e6                OutputBuffer::copy(char const*)
 .text._ZN12OutputBuffer11DiagnosticsE11MessageType
                0x00009500       0x34 ./build/./RepRapFirmware/src/OutputMemory.o
                0x00009500                OutputBuffer::Diagnostics(MessageType)
 .text._ZNV11OutputStack4PushEP12OutputBuffer11MessageType
                0x00009534       0x60 ./build/./RepRapFirmware/src/OutputMemory.o
                0x00009534                OutputStack::Push(OutputBuffer*, MessageType) volatile
 .text._ZNV11OutputStack3PopEv
                0x00009594       0x3a ./build/./RepRapFirmware/src/OutputMemory.o
                0x00009594                OutputStack::Pop() volatile
 .text._ZNVK11OutputStack12GetFirstItemEv
                0x000095ce        0xc ./build/./RepRapFirmware/src/OutputMemory.o
                0x000095ce                OutputStack::GetFirstItem() const volatile
 .text._ZNVK11OutputStack16GetFirstItemTypeEv
                0x000095da        0xe ./build/./RepRapFirmware/src/OutputMemory.o
                0x000095da                OutputStack::GetFirstItemType() const volatile
 .text._ZNV11OutputStack12SetFirstItemEP12OutputBuffer
                0x000095e8       0x1e ./build/./RepRapFirmware/src/OutputMemory.o
                0x000095e8                OutputStack::SetFirstItem(OutputBuffer*) volatile
 .text._ZNV11OutputStack16ReleaseFirstItemEv
                0x00009606       0x22 ./build/./RepRapFirmware/src/OutputMemory.o
                0x00009606                OutputStack::ReleaseFirstItem() volatile
 .text._ZNV11OutputStack12ApplyTimeoutEm
                0x00009628       0x3a ./build/./RepRapFirmware/src/OutputMemory.o
                0x00009628                OutputStack::ApplyTimeout(unsigned long) volatile
 .text._ZNVK11OutputStack11GetLastItemEv
                0x00009662       0x14 ./build/./RepRapFirmware/src/OutputMemory.o
                0x00009662                OutputStack::GetLastItem() const volatile
 .text._ZNVK11OutputStack15GetLastItemTypeEv
                0x00009676       0x14 ./build/./RepRapFirmware/src/OutputMemory.o
                0x00009676                OutputStack::GetLastItemType() const volatile
 .text._ZNV11OutputStack10ReleaseAllEv
                0x0000968a       0x1e ./build/./RepRapFirmware/src/OutputMemory.o
                0x0000968a                OutputStack::ReleaseAll() volatile
 .text._ZN8PlatformUlPK11ObjectModelRK24ObjectExplorationContextE1_4_FUNES2_S5_
                0x000096a8        0x4 ./build/./RepRapFirmware/src/Platform.o
 .text._ZN8PlatformUlPK11ObjectModelR24ObjectExplorationContextE3_4_FUNES2_S4_
                0x000096ac       0x10 ./build/./RepRapFirmware/src/Platform.o
 .text._ZN8PlatformUlPK11ObjectModelR24ObjectExplorationContextE4_4_FUNES2_S4_
                0x000096bc       0x10 ./build/./RepRapFirmware/src/Platform.o
 .text._ZN8PlatformUlPK11ObjectModelR24ObjectExplorationContextE5_4_FUNES2_S4_
                0x000096cc       0x10 ./build/./RepRapFirmware/src/Platform.o
 .text._ZN8PlatformUlPK11ObjectModelR24ObjectExplorationContextE6_4_FUNES2_S4_
                0x000096dc       0x10 ./build/./RepRapFirmware/src/Platform.o
 .text._ZN8PlatformUlPK11ObjectModelR24ObjectExplorationContextE8_4_FUNES2_S4_
                0x000096ec       0x10 ./build/./RepRapFirmware/src/Platform.o
 .text._ZN8PlatformUlPK11ObjectModelR24ObjectExplorationContextE9_4_FUNES2_S4_
                0x000096fc        0xa ./build/./RepRapFirmware/src/Platform.o
 .text._ZN8PlatformUlPK11ObjectModelR24ObjectExplorationContextE10_4_FUNES2_S4_
                0x00009706        0xa ./build/./RepRapFirmware/src/Platform.o
 .text._ZN8PlatformUlPK11ObjectModelR24ObjectExplorationContextE11_4_FUNES2_S4_
                0x00009710       0x1a ./build/./RepRapFirmware/src/Platform.o
 *fill*         0x0000972a        0x2 
 .text._ZN8PlatformUlPK11ObjectModelR24ObjectExplorationContextE12_4_FUNES2_S4_
                0x0000972c       0x10 ./build/./RepRapFirmware/src/Platform.o
 .text._ZN8PlatformUlPK11ObjectModelR24ObjectExplorationContextE13_4_FUNES2_S4_
                0x0000973c       0x10 ./build/./RepRapFirmware/src/Platform.o
 .text._ZN8PlatformUlPK11ObjectModelR24ObjectExplorationContextE14_4_FUNES2_S4_
                0x0000974c        0xa ./build/./RepRapFirmware/src/Platform.o
 .text._ZN8PlatformUlPK11ObjectModelR24ObjectExplorationContextE15_4_FUNES2_S4_
                0x00009756       0x1a ./build/./RepRapFirmware/src/Platform.o
 .text._ZN8PlatformUlPK11ObjectModelR24ObjectExplorationContextE19_4_FUNES2_S4_
                0x00009770       0x10 ./build/./RepRapFirmware/src/Platform.o
 .text._ZN8PlatformUlPK11ObjectModelR24ObjectExplorationContextE26_4_FUNES2_S4_
                0x00009780       0x1a ./build/./RepRapFirmware/src/Platform.o
 *fill*         0x0000979a        0x2 
 .text._ZN8PlatformUlPK11ObjectModelR24ObjectExplorationContextE33_4_FUNES2_S4_
                0x0000979c       0x10 ./build/./RepRapFirmware/src/Platform.o
 .text._ZN8PlatformUlPK11ObjectModelR24ObjectExplorationContextE40_4_FUNES2_S4_
                0x000097ac       0x1a ./build/./RepRapFirmware/src/Platform.o
 .text._ZN8PlatformUlPK11ObjectModelR24ObjectExplorationContextE41_4_FUNES2_S4_
                0x000097c6       0x1a ./build/./RepRapFirmware/src/Platform.o
 .text._ZNK8Platform29GetObjectModelClassDescriptorEv
                0x000097e0        0x8 ./build/./RepRapFirmware/src/Platform.o
                0x000097e0                Platform::GetObjectModelClassDescriptor() const
 .text._ZNSt14_Function_base13_Base_managerIZN8Platform13ReportDriversE11MessageTypeR6BitmapImEPKcRbEUljjE_E10_M_managerERSt9_Any_dataRKSB_St18_Manager_operation
                0x000097e8       0x16 ./build/./RepRapFirmware/src/Platform.o
 .text._ZNSt14_Function_base13_Base_managerIZN8Platform22DriverCoolingFansOnOffE6BitmapItEbEUljjE_E10_M_managerERSt9_Any_dataRKS6_St18_Manager_operation
                0x000097fe       0x1a ./build/./RepRapFirmware/src/Platform.o
 .text._ZNSt14_Function_base13_Base_managerIZN8Platform12SetDirectionEjbEUlhE_E10_M_managerERSt9_Any_dataRKS4_St18_Manager_operation
                0x00009818       0x1a ./build/./RepRapFirmware/src/Platform.o
 .text._ZNSt14_Function_base13_Base_managerIZN8Platform13EnableDriversEjEUlhE_E10_M_managerERSt9_Any_dataRKS4_St18_Manager_operation
                0x00009832       0x1a ./build/./RepRapFirmware/src/Platform.o
 .text._ZNSt14_Function_base13_Base_managerIZN8Platform14DisableDriversEjEUlhE_E10_M_managerERSt9_Any_dataRKS4_St18_Manager_operation
                0x0000984c       0x16 ./build/./RepRapFirmware/src/Platform.o
 .text._ZNSt14_Function_base13_Base_managerIZN8Platform14SetDriversIdleEvEUlhE_E10_M_managerERSt9_Any_dataRKS4_St18_Manager_operation
                0x00009862       0x1a ./build/./RepRapFirmware/src/Platform.o
 .text._ZNSt14_Function_base13_Base_managerIZN8Platform20SetIdleCurrentFactorEfEUlhE_E10_M_managerERSt9_Any_dataRKS4_St18_Manager_operation
                0x0000987c       0x1a ./build/./RepRapFirmware/src/Platform.o
 .text._ZNSt14_Function_base13_Base_managerIZN8Platform12DebugMessageEPKcSt9__va_listEUlcE_E10_M_managerERSt9_Any_dataRKS7_St18_Manager_operation
                0x00009896        0xa ./build/./RepRapFirmware/src/Platform.o
 .text._ZNSt17_Function_handlerIFvjEZN8Platform18SetPressureAdvanceEfR11GCodeBufferRK9StringRefEUljE_E9_M_invokeERKSt9_Any_dataOj
                0x000098a0       0x10 ./build/./RepRapFirmware/src/Platform.o
 .text._ZNSt14_Function_base13_Base_managerIZN8Platform18SetPressureAdvanceEfR11GCodeBufferRK9StringRefEUljE_E10_M_managerERSt9_Any_dataRKS9_St18_Manager_operation
                0x000098b0       0x1a ./build/./RepRapFirmware/src/Platform.o
 .text._ZNSt17_Function_handlerIFvhEZN8Platform23ConfigureStallDetectionER11GCodeBufferRK9StringRefRP12OutputBufferEUlhE_E9_M_invokeERKSt9_Any_dataOh
                0x000098ca       0x12 ./build/./RepRapFirmware/src/Platform.o
 .text._ZNSt14_Function_base13_Base_managerIZN8Platform23ConfigureStallDetectionER11GCodeBufferRK9StringRefRP12OutputBufferEUlhE_E10_M_managerERSt9_Any_dataRKSC_St18_Manager_operation
                0x000098dc       0x16 ./build/./RepRapFirmware/src/Platform.o
 .text._ZNSt14_Function_base13_Base_managerIZN8Platform23ConfigureStallDetectionER11GCodeBufferRK9StringRefRP12OutputBufferEUljjE0_E10_M_managerERSt9_Any_dataRKSC_St18_Manager_operation
                0x000098f2       0x16 ./build/./RepRapFirmware/src/Platform.o
 .text._ZNSt14_Function_base13_Base_managerIZN8Platform23ConfigureStallDetectionER11GCodeBufferRK9StringRefRP12OutputBufferEUljjE1_E10_M_managerERSt9_Any_dataRKSC_St18_Manager_operation
                0x00009908       0x16 ./build/./RepRapFirmware/src/Platform.o
 .text._ZNSt14_Function_base13_Base_managerIZN8Platform23ConfigureStallDetectionER11GCodeBufferRK9StringRefRP12OutputBufferEUljjE2_E10_M_managerERSt9_Any_dataRKSC_St18_Manager_operation
                0x0000991e       0x16 ./build/./RepRapFirmware/src/Platform.o
 .text._ZNSt14_Function_base13_Base_managerIZN8Platform23ConfigureStallDetectionER11GCodeBufferRK9StringRefRP12OutputBufferEUljjE3_E10_M_managerERSt9_Any_dataRKSC_St18_Manager_operation
                0x00009934       0x16 ./build/./RepRapFirmware/src/Platform.o
 .text._ZN8PlatformUlPK11ObjectModelRK24ObjectExplorationContextE_4_FUNES2_S5_
                0x0000994a       0x12 ./build/./RepRapFirmware/src/Platform.o
 .text._ZN8PlatformUlPK11ObjectModelR24ObjectExplorationContextE49_4_FUNES2_S4_
                0x0000995c       0x20 ./build/./RepRapFirmware/src/Platform.o
 .text._ZN8PlatformUlPK11ObjectModelR24ObjectExplorationContextE48_4_FUNES2_S4_
                0x0000997c       0x20 ./build/./RepRapFirmware/src/Platform.o
 .text._ZN8PlatformUlPK11ObjectModelR24ObjectExplorationContextE47_4_FUNES2_S4_
                0x0000999c       0x20 ./build/./RepRapFirmware/src/Platform.o
 .text._ZN8PlatformUlPK11ObjectModelR24ObjectExplorationContextE30_4_FUNES2_S4_
                0x000099bc       0x1e ./build/./RepRapFirmware/src/Platform.o
 .text._ZN8PlatformUlPK11ObjectModelR24ObjectExplorationContextE16_4_FUNES2_S4_
                0x000099da       0x20 ./build/./RepRapFirmware/src/Platform.o
 .text._ZN8PlatformUlPK11ObjectModelR24ObjectExplorationContextE24_4_FUNES2_S4_
                0x000099fa       0x20 ./build/./RepRapFirmware/src/Platform.o
 .text._ZN8PlatformUlPK11ObjectModelR24ObjectExplorationContextE27_4_FUNES2_S4_
                0x00009a1a       0x1e ./build/./RepRapFirmware/src/Platform.o
 .text._ZN8PlatformD2Ev
                0x00009a38       0x68 ./build/./RepRapFirmware/src/Platform.o
                0x00009a38                Platform::~Platform()
                0x00009a38                Platform::~Platform()
 .text._ZN8PlatformD0Ev
                0x00009aa0       0x16 ./build/./RepRapFirmware/src/Platform.o
                0x00009aa0                Platform::~Platform()
 *fill*         0x00009ab6        0x2 
 .text._ZL9TimedSqrtyRm
                0x00009ab8       0x40 ./build/./RepRapFirmware/src/Platform.o
 .text._ZNSt17_Function_handlerIFvjjEZN8Platform23ConfigureStallDetectionER11GCodeBufferRK9StringRefRP12OutputBufferEUljjE0_E9_M_invokeERKSt9_Any_dataOjSF_
                0x00009af8        0xa ./build/./RepRapFirmware/src/Platform.o
 .text._ZNSt17_Function_handlerIFvjjEZN8Platform23ConfigureStallDetectionER11GCodeBufferRK9StringRefRP12OutputBufferEUljjE1_E9_M_invokeERKSt9_Any_dataOjSF_
                0x00009b02        0xa ./build/./RepRapFirmware/src/Platform.o
 .text._ZNSt17_Function_handlerIFvjjEZN8Platform23ConfigureStallDetectionER11GCodeBufferRK9StringRefRP12OutputBufferEUljjE2_E9_M_invokeERKSt9_Any_dataOjSF_
                0x00009b0c        0xa ./build/./RepRapFirmware/src/Platform.o
 *fill*         0x00009b16        0x2 
 .text._ZN8StepPinsL16CalcDriverBitmapEj
                0x00009b18       0x2c ./build/./RepRapFirmware/src/Platform.o
 .text._ZNSt17_Function_handlerIFvjjEZN8Platform23ConfigureStallDetectionER11GCodeBufferRK9StringRefRP12OutputBufferEUljjE3_E9_M_invokeERKSt9_Any_dataOjSF_
                0x00009b44        0xc ./build/./RepRapFirmware/src/Platform.o
 .text._ZNSt14_Function_base13_Base_managerIZN8Platform15SetMotorCurrentEjfiRK9StringRefEUlhE_E10_M_managerERSt9_Any_dataRKS7_St18_Manager_operation
                0x00009b50       0x38 ./build/./RepRapFirmware/src/Platform.o
 .text._ZNSt14_Function_base13_Base_managerIZN8Platform16SetMicrosteppingEjibRK9StringRefEUlhE_E10_M_managerERSt9_Any_dataRKS7_St18_Manager_operation
                0x00009b88       0x3e ./build/./RepRapFirmware/src/Platform.o
 .text._ZNSt14_Function_base13_Base_managerIZN8Platform23ConfigureStallDetectionER11GCodeBufferRK9StringRefRP12OutputBufferEUljjE4_E10_M_managerERSt9_Any_dataRKSC_St18_Manager_operation
                0x00009bc6       0x38 ./build/./RepRapFirmware/src/Platform.o
 .text._ZNSt17_Function_handlerIFvjjEZN8Platform22DriverCoolingFansOnOffE6BitmapItEbEUljjE_E9_M_invokeERKSt9_Any_dataOjS9_
                0x00009bfe       0x18 ./build/./RepRapFirmware/src/Platform.o
 .text._ZN8PlatformUlPK11ObjectModelR24ObjectExplorationContextE52_4_FUNES2_S4_
                0x00009c16       0x20 ./build/./RepRapFirmware/src/Platform.o
 .text._ZN8PlatformUlPK11ObjectModelR24ObjectExplorationContextE50_4_FUNES2_S4_
                0x00009c36       0x1e ./build/./RepRapFirmware/src/Platform.o
 .text._ZN8PlatformUlPK11ObjectModelR24ObjectExplorationContextE46_4_FUNES2_S4_
                0x00009c54       0x20 ./build/./RepRapFirmware/src/Platform.o
 .text._ZN8PlatformUlPK11ObjectModelR24ObjectExplorationContextE53_4_FUNES2_S4_
                0x00009c74       0x22 ./build/./RepRapFirmware/src/Platform.o
 .text._ZN8PlatformUlPK11ObjectModelR24ObjectExplorationContextE51_4_FUNES2_S4_
                0x00009c96       0x20 ./build/./RepRapFirmware/src/Platform.o
 .text._ZN8PlatformUlPK11ObjectModelR24ObjectExplorationContextE36_4_FUNES2_S4_
                0x00009cb6       0x1c ./build/./RepRapFirmware/src/Platform.o
 .text._ZN8PlatformUlPK11ObjectModelR24ObjectExplorationContextE0_4_FUNES2_S4_
                0x00009cd2       0x2c ./build/./RepRapFirmware/src/Platform.o
 .text._ZN8PlatformUlPK11ObjectModelR24ObjectExplorationContextE34_4_FUNES2_S4_
                0x00009cfe       0x22 ./build/./RepRapFirmware/src/Platform.o
 .text._ZN8PlatformUlPK11ObjectModelR24ObjectExplorationContextE45_4_FUNES2_S4_
                0x00009d20       0x2c ./build/./RepRapFirmware/src/Platform.o
 .text._ZN8PlatformUlPK11ObjectModelR24ObjectExplorationContextE29_4_FUNES2_S4_
                0x00009d4c       0x28 ./build/./RepRapFirmware/src/Platform.o
 .text._ZN8PlatformUlPK11ObjectModelR24ObjectExplorationContextE39_4_FUNES2_S4_
                0x00009d74       0x2c ./build/./RepRapFirmware/src/Platform.o
 .text._ZN8PlatformUlPK11ObjectModelR24ObjectExplorationContextE21_4_FUNES2_S4_
                0x00009da0       0x2c ./build/./RepRapFirmware/src/Platform.o
 .text._ZN8PlatformUlPK11ObjectModelR24ObjectExplorationContextE43_4_FUNES2_S4_
                0x00009dcc       0x28 ./build/./RepRapFirmware/src/Platform.o
 .text._ZN8PlatformUlPK11ObjectModelR24ObjectExplorationContextE44_4_FUNES2_S4_
                0x00009df4       0x28 ./build/./RepRapFirmware/src/Platform.o
 .text._ZN8PlatformUlPK11ObjectModelR24ObjectExplorationContextE37_4_FUNES2_S4_
                0x00009e1c       0x28 ./build/./RepRapFirmware/src/Platform.o
 .text._ZN8PlatformUlPK11ObjectModelR24ObjectExplorationContextE31_4_FUNES2_S4_
                0x00009e44       0x28 ./build/./RepRapFirmware/src/Platform.o
 .text._ZN8PlatformUlPK11ObjectModelR24ObjectExplorationContextE42_4_FUNES2_S4_
                0x00009e6c       0x2c ./build/./RepRapFirmware/src/Platform.o
 .text._ZN8PlatformUlPK11ObjectModelR24ObjectExplorationContextE23_4_FUNES2_S4_
                0x00009e98       0x2c ./build/./RepRapFirmware/src/Platform.o
 .text._ZN8PlatformUlPK11ObjectModelR24ObjectExplorationContextE38_4_FUNES2_S4_
                0x00009ec4       0x24 ./build/./RepRapFirmware/src/Platform.o
 .text._ZN8PlatformUlPK11ObjectModelR24ObjectExplorationContextE32_4_FUNES2_S4_
                0x00009ee8       0x28 ./build/./RepRapFirmware/src/Platform.o
 .text._ZN8PlatformUlPK11ObjectModelR24ObjectExplorationContextE22_4_FUNES2_S4_
                0x00009f10       0x24 ./build/./RepRapFirmware/src/Platform.o
 .text._ZN8PlatformUlPK11ObjectModelR24ObjectExplorationContextE2_4_FUNES2_S4_
                0x00009f34       0x38 ./build/./RepRapFirmware/src/Platform.o
 .text._ZN8PlatformUlPK11ObjectModelR24ObjectExplorationContextE17_4_FUNES2_S4_
                0x00009f6c       0x28 ./build/./RepRapFirmware/src/Platform.o
 .text._ZN8PlatformUlPK11ObjectModelR24ObjectExplorationContextE35_4_FUNES2_S4_
                0x00009f94       0x24 ./build/./RepRapFirmware/src/Platform.o
 .text._ZN8PlatformUlPK11ObjectModelR24ObjectExplorationContextE18_4_FUNES2_S4_
                0x00009fb8       0x20 ./build/./RepRapFirmware/src/Platform.o
 .text._ZN8Platform11AtxPowerOffEb.part.163
                0x00009fd8       0x24 ./build/./RepRapFirmware/src/Platform.o
 .text._ZNSt17_Function_handlerIFvjjEZN8Platform23ConfigureStallDetectionER11GCodeBufferRK9StringRefRP12OutputBufferEUljjE4_E9_M_invokeERKSt9_Any_dataOjSF_
                0x00009ffc       0x80 ./build/./RepRapFirmware/src/Platform.o
 .text._ZN8PlatformUlPK11ObjectModelR24ObjectExplorationContextE28_4_FUNES2_S4_
                0x0000a07c       0x22 ./build/./RepRapFirmware/src/Platform.o
 .text._ZN8PlatformUlPK11ObjectModelR24ObjectExplorationContextE25_4_FUNES2_S4_
                0x0000a09e       0x22 ./build/./RepRapFirmware/src/Platform.o
 .text._ZN8PlatformUlPK11ObjectModelR24ObjectExplorationContextE20_4_FUNES2_S4_
                0x0000a0c0       0x28 ./build/./RepRapFirmware/src/Platform.o
 .text._ZN8PlatformUlPK11ObjectModelR24ObjectExplorationContextE7_4_FUNES2_S4_
                0x0000a0e8       0x10 ./build/./RepRapFirmware/src/Platform.o
 .text._ZNSt17_Function_handlerIFvhEZN8Platform12SetDirectionEjbEUlhE_E9_M_invokeERKSt9_Any_dataOh
                0x0000a0f8       0x24 ./build/./RepRapFirmware/src/Platform.o
 .text._ZNSt14_Function_baseD2Ev
                0x0000a11c       0x12 ./build/./RepRapFirmware/src/Platform.o
                0x0000a11c                std::_Function_base::~_Function_base()
                0x0000a11c                std::_Function_base::~_Function_base()
 .text.UrgentInit
                0x0000a12e        0x2 ./build/./RepRapFirmware/src/Platform.o
                0x0000a12e                UrgentInit
 .text._ZNK17AxisDriversConfig16GetDriversBitmapEv
                0x0000a130       0x24 ./build/./RepRapFirmware/src/Platform.o
                0x0000a130                AxisDriversConfig::GetDriversBitmap() const
 .text._ZNK8Platform22GetNumGpInputsToReportEv
                0x0000a154       0x1e ./build/./RepRapFirmware/src/Platform.o
                0x0000a154                Platform::GetNumGpInputsToReport() const
 .text._ZNK8Platform23GetNumGpOutputsToReportEv
                0x0000a172       0x1e ./build/./RepRapFirmware/src/Platform.o
                0x0000a172                Platform::GetNumGpOutputsToReport() const
 .text._ZN8Platform19SendPanelDueMessageEjPKc
                0x0000a190       0x24 ./build/./RepRapFirmware/src/Platform.o
                0x0000a190                Platform::SendPanelDueMessage(unsigned int, char const*)
 .text._ZN8Platform12SetIPAddressE9IPAddress
                0x0000a1b4        0x4 ./build/./RepRapFirmware/src/Platform.o
                0x0000a1b4                Platform::SetIPAddress(IPAddress)
 .text._ZN8Platform10SetGateWayE9IPAddress
                0x0000a1b8        0x4 ./build/./RepRapFirmware/src/Platform.o
                0x0000a1b8                Platform::SetGateWay(IPAddress)
 .text._ZN8Platform10SetNetMaskE9IPAddress
                0x0000a1bc        0x4 ./build/./RepRapFirmware/src/Platform.o
                0x0000a1bc                Platform::SetNetMask(IPAddress)
 .text._ZN8Platform20InitialiseInterruptsEv
                0x0000a1c0       0x50 ./build/./RepRapFirmware/src/Platform.o
                0x0000a1c0                Platform::InitialiseInterrupts()
 .text._ZNK8Platform23GetAveragingFilterIndexERK6IoPort
                0x0000a210       0x2c ./build/./RepRapFirmware/src/Platform.o
                0x0000a210                Platform::GetAveragingFilterIndex(IoPort const&) const
 .text._ZN8Platform23UpdateConfiguredHeatersEv
                0x0000a23c       0x64 ./build/./RepRapFirmware/src/Platform.o
                0x0000a23c                Platform::UpdateConfiguredHeaters()
 .text._ZN8Platform21DisableOneLocalDriverEj
                0x0000a2a0       0x34 ./build/./RepRapFirmware/src/Platform.o
                0x0000a2a0                Platform::DisableOneLocalDriver(unsigned int)
 .text._ZNSt17_Function_handlerIFvhEZN8Platform14DisableDriversEjEUlhE_E9_M_invokeERKSt9_Any_dataOh
                0x0000a2d4        0x8 ./build/./RepRapFirmware/src/Platform.o
 .text._ZN8Platform18UpdateMotorCurrentEjf
                0x0000a2dc       0x18 ./build/./RepRapFirmware/src/Platform.o
                0x0000a2dc                Platform::UpdateMotorCurrent(unsigned int, float)
 .text._ZN8Platform20EnableOneLocalDriverEjf
                0x0000a2f4       0x40 ./build/./RepRapFirmware/src/Platform.o
                0x0000a2f4                Platform::EnableOneLocalDriver(unsigned int, float)
 .text._ZNSt17_Function_handlerIFvhEZN8Platform13EnableDriversEjEUlhE_E9_M_invokeERKSt9_Any_dataOh
                0x0000a334        0xa ./build/./RepRapFirmware/src/Platform.o
 .text._ZN8Platform23EmergencyDisableDriversEv
                0x0000a33e       0x2c ./build/./RepRapFirmware/src/Platform.o
                0x0000a33e                Platform::EmergencyDisableDrivers()
 .text._ZNSt17_Function_handlerIFvhEZN8Platform14SetDriversIdleEvEUlhE_E9_M_invokeERKSt9_Any_dataOh
                0x0000a36a        0xa ./build/./RepRapFirmware/src/Platform.o
 .text._ZNSt17_Function_handlerIFvhEZN8Platform15SetMotorCurrentEjfiRK9StringRefEUlhE_E9_M_invokeERKSt9_Any_dataOh
                0x0000a374       0x3e ./build/./RepRapFirmware/src/Platform.o
 .text._ZNSt17_Function_handlerIFvhEZN8Platform20SetIdleCurrentFactorEfEUlhE_E9_M_invokeERKSt9_Any_dataOh
                0x0000a3b2        0xa ./build/./RepRapFirmware/src/Platform.o
 .text._ZNK8Platform15GetMotorCurrentEji
                0x0000a3bc       0x44 ./build/./RepRapFirmware/src/Platform.o
                0x0000a3bc                Platform::GetMotorCurrent(unsigned int, int) const
 .text._ZN8Platform20SetDriveStepsPerUnitEjfm
                0x0000a400       0x6c ./build/./RepRapFirmware/src/Platform.o
                0x0000a400                Platform::SetDriveStepsPerUnit(unsigned int, float, unsigned long)
 .text._ZN8Platform22SetDriverMicrosteppingEjji
                0x0000a46c       0x30 ./build/./RepRapFirmware/src/Platform.o
                0x0000a46c                Platform::SetDriverMicrostepping(unsigned int, unsigned int, int)
 .text._ZNSt17_Function_handlerIFvhEZN8Platform16SetMicrosteppingEjibRK9StringRefEUlhE_E9_M_invokeERKSt9_Any_dataOh
                0x0000a49c       0x40 ./build/./RepRapFirmware/src/Platform.o
 .text._ZNK8Platform16GetMicrosteppingEjRb
                0x0000a4dc       0x16 ./build/./RepRapFirmware/src/Platform.o
                0x0000a4dc                Platform::GetMicrostepping(unsigned int, bool&) const
 .text._ZN8Platform14SetEnableValueEja
                0x0000a4f2       0x54 ./build/./RepRapFirmware/src/Platform.o
                0x0000a4f2                Platform::SetEnableValue(unsigned int, signed char)
 .text._ZN8Platform20SetAxisDriversConfigEjjPK8DriverId
                0x0000a546       0x46 ./build/./RepRapFirmware/src/Platform.o
                0x0000a546                Platform::SetAxisDriversConfig(unsigned int, unsigned int, DriverId const*)
 .text._ZN8Platform11SetAxisTypeEj12AxisWrapTypeb
                0x0000a58c       0x32 ./build/./RepRapFirmware/src/Platform.o
                0x0000a58c                Platform::SetAxisType(unsigned int, AxisWrapType, bool)
 .text._ZN8Platform17SetExtruderDriverEj8DriverId
                0x0000a5be       0x26 ./build/./RepRapFirmware/src/Platform.o
                0x0000a5be                Platform::SetExtruderDriver(unsigned int, DriverId)
 .text._ZN8Platform19SetDriverStepTimingEjPKf
                0x0000a5e4       0xa0 ./build/./RepRapFirmware/src/Platform.o
                0x0000a5e4                Platform::SetDriverStepTiming(unsigned int, float const*)
 .text._ZNK8Platform19GetDriverStepTimingEjPf
                0x0000a684       0x5c ./build/./RepRapFirmware/src/Platform.o
                0x0000a684                Platform::GetDriverStepTiming(unsigned int, float*) const
 .text._ZN8Platform14AppendUsbReplyEP12OutputBuffer
                0x0000a6e0       0x40 ./build/./RepRapFirmware/src/Platform.o
                0x0000a6e0                Platform::AppendUsbReply(OutputBuffer*)
 .text._ZNK8Platform12IsAuxEnabledEj
                0x0000a720        0xc ./build/./RepRapFirmware/src/Platform.o
                0x0000a720                Platform::IsAuxEnabled(unsigned int) const
 .text._ZN8Platform9EnableAuxEj
                0x0000a72c       0x16 ./build/./RepRapFirmware/src/Platform.o
                0x0000a72c                Platform::EnableAux(unsigned int)
 .text._ZNK8Platform8IsAuxRawEj
                0x0000a742        0xc ./build/./RepRapFirmware/src/Platform.o
                0x0000a742                Platform::IsAuxRaw(unsigned int) const
 .text._ZN8Platform9SetAuxRawEjb
                0x0000a74e        0x8 ./build/./RepRapFirmware/src/Platform.o
                0x0000a74e                Platform::SetAuxRaw(unsigned int, bool)
 .text._ZN8Platform19InitPanelDueUpdaterEv
                0x0000a756       0x1c ./build/./RepRapFirmware/src/Platform.o
                0x0000a756                Platform::InitPanelDueUpdater()
 *fill*         0x0000a772        0x2 
 .text._ZN8Platform14AppendAuxReplyEjPKcb
                0x0000a774       0x28 ./build/./RepRapFirmware/src/Platform.o
                0x0000a774                Platform::AppendAuxReply(unsigned int, char const*, bool)
 .text._ZN8Platform14AppendAuxReplyEjP12OutputBufferb
                0x0000a79c       0x30 ./build/./RepRapFirmware/src/Platform.o
                0x0000a79c                Platform::AppendAuxReply(unsigned int, OutputBuffer*, bool)
 .text._ZN8Platform7MessageE11MessageTypeP12OutputBuffer
                0x0000a7cc       0xe8 ./build/./RepRapFirmware/src/Platform.o
                0x0000a7cc                Platform::Message(MessageType, OutputBuffer*)
 .text._ZN8Platform12DebugMessageEPKcSt9__va_list
                0x0000a8b4       0x40 ./build/./RepRapFirmware/src/Platform.o
                0x0000a8b4                Platform::DebugMessage(char const*, std::__va_list)
 .text._ZNK8Platform11GetLogLevelEv
                0x0000a8f4       0x3c ./build/./RepRapFirmware/src/Platform.o
                0x0000a8f4                Platform::GetLogLevel() const
 .text._ZN8Platform11StopLoggingEv
                0x0000a930        0x2 ./build/./RepRapFirmware/src/Platform.o
                0x0000a930                Platform::StopLogging()
 *fill*         0x0000a932        0x2 
 .text._ZNK8Platform8AtxPowerEv
                0x0000a934        0xc ./build/./RepRapFirmware/src/Platform.o
                0x0000a934                Platform::AtxPower() const
 .text._ZN8Platform10AtxPowerOnEv
                0x0000a940       0x2c ./build/./RepRapFirmware/src/Platform.o
                0x0000a940                Platform::AtxPowerOn()
 .text._ZN8Platform11AtxPowerOffEb
                0x0000a96c        0xc ./build/./RepRapFirmware/src/Platform.o
                0x0000a96c                Platform::AtxPowerOff(bool)
 .text._ZN8Platform18SetPressureAdvanceEfR11GCodeBufferRK9StringRef
                0x0000a978       0xb0 ./build/./RepRapFirmware/src/Platform.o
                0x0000a978                Platform::SetPressureAdvance(float, GCodeBuffer&, StringRef const&)
 .text._ZNK8Platform24GetExtrusionCoefficientsEjRfS0_S0_
                0x0000aa28       0x24 ./build/./RepRapFirmware/src/Platform.o
                0x0000aa28                Platform::GetExtrusionCoefficients(unsigned int, float&, float&, float&) const
 .text._ZN8Platform21SetNonlinearExtrusionEjfff
                0x0000aa4c       0x2a ./build/./RepRapFirmware/src/Platform.o
                0x0000aa4c                Platform::SetNonlinearExtrusion(unsigned int, float, float, float)
 .text._ZN8Platform11SetBaudRateEjm
                0x0000aa76        0xc ./build/./RepRapFirmware/src/Platform.o
                0x0000aa76                Platform::SetBaudRate(unsigned int, unsigned long)
 .text._ZNK8Platform11GetBaudRateEj
                0x0000aa82        0xe ./build/./RepRapFirmware/src/Platform.o
                0x0000aa82                Platform::GetBaudRate(unsigned int) const
 .text._ZN8Platform18SetCommsPropertiesEjm
                0x0000aa90        0xc ./build/./RepRapFirmware/src/Platform.o
                0x0000aa90                Platform::SetCommsProperties(unsigned int, unsigned long)
 .text._ZNK8Platform18GetCommsPropertiesEj
                0x0000aa9c        0xe ./build/./RepRapFirmware/src/Platform.o
                0x0000aa9c                Platform::GetCommsProperties(unsigned int) const
 *fill*         0x0000aaaa        0x2 
 .text._ZN8Platform12ResetChannelEj
                0x0000aaac       0x3c ./build/./RepRapFirmware/src/Platform.o
                0x0000aaac                Platform::ResetChannel(unsigned int)
 .text._ZNK8Platform20GetElectronicsStringEv
                0x0000aae8       0x18 ./build/./RepRapFirmware/src/Platform.o
                0x0000aae8                Platform::GetElectronicsString() const
 .text._ZN8Platform11SetLaserPwmEt
                0x0000ab00       0x28 ./build/./RepRapFirmware/src/Platform.o
                0x0000ab00                Platform::SetLaserPwm(unsigned short)
 .text._ZNK8Platform11GetLaserPwmEv
                0x0000ab28        0x6 ./build/./RepRapFirmware/src/Platform.o
                0x0000ab28                Platform::GetLaserPwm() const
 .text._ZN8Platform14AssignLaserPinER11GCodeBufferRK9StringRef
                0x0000ab2e       0x24 ./build/./RepRapFirmware/src/Platform.o
                0x0000ab2e                Platform::AssignLaserPin(GCodeBuffer&, StringRef const&)
 .text._ZN8Platform20SetLaserPwmFrequencyEt
                0x0000ab52        0x6 ./build/./RepRapFirmware/src/Platform.o
                0x0000ab52                Platform::SetLaserPwmFrequency(unsigned short)
 .text._ZN8Platform14SetAxisMaximumEjfb
                0x0000ab58       0x2c ./build/./RepRapFirmware/src/Platform.o
                0x0000ab58                Platform::SetAxisMaximum(unsigned int, float, bool)
 .text._ZN8Platform14SetAxisMinimumEjfb
                0x0000ab84       0x2c ./build/./RepRapFirmware/src/Platform.o
                0x0000ab84                Platform::SetAxisMinimum(unsigned int, float, bool)
 .text._ZNK8Platform24GetTmcDriversTemperatureEj
                0x0000abb0       0x24 ./build/./RepRapFirmware/src/Platform.o
                0x0000abb0                Platform::GetTmcDriversTemperature(unsigned int) const
 .text._ZN8Platform13ConfigurePortER11GCodeBufferRK9StringRef
                0x0000abd4       0xf4 ./build/./RepRapFirmware/src/Platform.o
                0x0000abd4                Platform::ConfigurePort(GCodeBuffer&, StringRef const&)
 .text._ZN8Platform18GetSetAncillaryPwmER11GCodeBufferRK9StringRef
                0x0000acc8       0xa8 ./build/./RepRapFirmware/src/Platform.o
                0x0000acc8                Platform::GetSetAncillaryPwm(GCodeBuffer&, StringRef const&)
 .text._ZN8Platform4TickEv
                0x0000ad70      0x18c ./build/./RepRapFirmware/src/Platform.o
                0x0000ad70                Platform::Tick()
 .text._ZNSt8functionIFvhEEC2ERKS1_
                0x0000aefc       0x28 ./build/./RepRapFirmware/src/Platform.o
                0x0000aefc                std::function<void (unsigned char)>::function(std::function<void (unsigned char)> const&)
                0x0000aefc                std::function<void (unsigned char)>::function(std::function<void (unsigned char)> const&)
 .text._ZNV15AveragingFilterILj16EE4InitEt
                0x0000af24       0x2a ./build/./RepRapFirmware/src/Platform.o
                0x0000af24                AveragingFilter<16u>::Init(unsigned short) volatile
 *fill*         0x0000af4e        0x2 
 .text._ZN8Platform4InitEv
                0x0000af50      0x3a4 ./build/./RepRapFirmware/src/Platform.o
                0x0000af50                Platform::Init()
 .text._ZN6StringILj100EE6printfEPKcz
                0x0000b2f4       0x22 ./build/./RepRapFirmware/src/Platform.o
                0x0000b2f4                String<100u>::printf(char const*, ...)
 .text._ZN6StringILj100EE4catfEPKcz
                0x0000b316       0x22 ./build/./RepRapFirmware/src/Platform.o
                0x0000b316                String<100u>::catf(char const*, ...)
 .text._ZNSt17_Function_handlerIFvjjEZN8Platform13ReportDriversE11MessageTypeR6BitmapImEPKcRbEUljjE_E9_M_invokeERKSt9_Any_dataOjSE_
                0x0000b338       0x14 ./build/./RepRapFirmware/src/Platform.o
 .text._ZN6StringILj256EE6printfEPKcz
                0x0000b34c       0x24 ./build/./RepRapFirmware/src/Platform.o
                0x0000b34c                String<256u>::printf(char const*, ...)
 .text._ZNKSt8functionIFvhEEclEh
                0x0000b370       0x1c ./build/./RepRapFirmware/src/Platform.o
                0x0000b370                std::function<void (unsigned char)>::operator()(unsigned char) const
 .text._ZN8Platform14IterateDriversEjSt8functionIFvhEE
                0x0000b38c       0x50 ./build/./RepRapFirmware/src/Platform.o
                0x0000b38c                Platform::IterateDrivers(unsigned int, std::function<void (unsigned char)>)
 .text._ZN8Platform13EnableDriversEj
                0x0000b3dc       0x58 ./build/./RepRapFirmware/src/Platform.o
                0x0000b3dc                Platform::EnableDrivers(unsigned int)
 .text._ZN8Platform14DisableDriversEj
                0x0000b434       0x34 ./build/./RepRapFirmware/src/Platform.o
                0x0000b434                Platform::DisableDrivers(unsigned int)
 .text._ZN8Platform17DisableAllDriversEv
                0x0000b468       0x16 ./build/./RepRapFirmware/src/Platform.o
                0x0000b468                Platform::DisableAllDrivers()
 *fill*         0x0000b47e        0x2 
 .text._ZN8Platform14SetDriversIdleEv
                0x0000b480       0x88 ./build/./RepRapFirmware/src/Platform.o
                0x0000b480                Platform::SetDriversIdle()
 .text._ZN8Platform15SetMotorCurrentEjfiRK9StringRef
                0x0000b508       0xe0 ./build/./RepRapFirmware/src/Platform.o
                0x0000b508                Platform::SetMotorCurrent(unsigned int, float, int, StringRef const&)
 .text._ZN8Platform20SetIdleCurrentFactorEf
                0x0000b5e8       0xa0 ./build/./RepRapFirmware/src/Platform.o
                0x0000b5e8                Platform::SetIdleCurrentFactor(float)
 .text._ZN8Platform12SetDirectionEjb
                0x0000b688       0xa8 ./build/./RepRapFirmware/src/Platform.o
                0x0000b688                Platform::SetDirection(unsigned int, bool)
 .text._ZN8Platform16SetMicrosteppingEjibRK9StringRef
                0x0000b730       0xc0 ./build/./RepRapFirmware/src/Platform.o
                0x0000b730                Platform::SetMicrostepping(unsigned int, int, bool, StringRef const&)
 .text._ZN6StringILj256EE4copyEPKc
                0x0000b7f0       0x16 ./build/./RepRapFirmware/src/Platform.o
                0x0000b7f0                String<256u>::copy(char const*)
 .text._ZNV15AveragingFilterILj8EE4InitEt
                0x0000b806       0x2e ./build/./RepRapFirmware/src/Platform.o
                0x0000b806                AveragingFilter<8u>::Init(unsigned short) volatile
 .text._ZN8Platform17InitZProbeFiltersEv
                0x0000b834       0x1a ./build/./RepRapFirmware/src/Platform.o
                0x0000b834                Platform::InitZProbeFilters()
 *fill*         0x0000b84e        0x2 
 .text._ZN8PlatformC2Ev
                0x0000b850      0x16c ./build/./RepRapFirmware/src/Platform.o
                0x0000b850                Platform::Platform()
                0x0000b850                Platform::Platform()
 .text._ZNKSt8functionIFvjjEEclEjj
                0x0000b9bc       0x1c ./build/./RepRapFirmware/src/Platform.o
                0x0000b9bc                std::function<void (unsigned int, unsigned int)>::operator()(unsigned int, unsigned int) const
 .text._ZNK6BitmapImE7IterateESt8functionIFvjjEE.isra.182
                0x0000b9d8       0x30 ./build/./RepRapFirmware/src/Platform.o
 .text._ZN8Platform23ConfigureStallDetectionER11GCodeBufferRK9StringRefRP12OutputBuffer
                0x0000ba08      0x2dc ./build/./RepRapFirmware/src/Platform.o
                0x0000ba08                Platform::ConfigureStallDetection(GCodeBuffer&, StringRef const&, OutputBuffer*&)
 .text._ZN8Platform22DriverCoolingFansOnOffE6BitmapItEb
                0x0000bce4       0x60 ./build/./RepRapFirmware/src/Platform.o
                0x0000bce4                Platform::DriverCoolingFansOnOff(Bitmap<unsigned short>, bool)
 .text._ZNSt17_Function_handlerIFbcEZN8Platform12DebugMessageEPKcSt9__va_listEUlcE_E9_M_invokeERKSt9_Any_dataOc
                0x0000bd44       0x40 ./build/./RepRapFirmware/src/Platform.o
 .text._ZN8Platform10RawMessageE11MessageTypePKc
                0x0000bd84       0xe4 ./build/./RepRapFirmware/src/Platform.o
                0x0000bd84                Platform::RawMessage(MessageType, char const*)
 .text._ZN8Platform7MessageE11MessageTypePKc.part.180
                0x0000be68       0x4c ./build/./RepRapFirmware/src/Platform.o
 .text._ZN8Platform7MessageE11MessageTypePKc
                0x0000beb4       0x58 ./build/./RepRapFirmware/src/Platform.o
                0x0000beb4                Platform::Message(MessageType, char const*)
 .text._ZN8Platform8MessageFE11MessageTypePKcSt9__va_list
                0x0000bf0c       0xac ./build/./RepRapFirmware/src/Platform.o
                0x0000bf0c                Platform::MessageF(MessageType, char const*, std::__va_list)
 .text._ZN8Platform8MessageFE11MessageTypePKcz
                0x0000bfb8       0x1a ./build/./RepRapFirmware/src/Platform.o
                0x0000bfb8                Platform::MessageF(MessageType, char const*, ...)
 *fill*         0x0000bfd2        0x2 
 .text._ZN8Platform12PanelDueBeepEii
                0x0000bfd4       0x18 ./build/./RepRapFirmware/src/Platform.o
                0x0000bfd4                Platform::PanelDueBeep(int, int)
 .text._ZN8Platform11DiagnosticsE11MessageType
                0x0000bfec      0x2b0 ./build/./RepRapFirmware/src/Platform.o
                0x0000bfec                Platform::Diagnostics(MessageType)
 *fill*         0x0000c29c        0x4 
 .text._ZN8Platform14DiagnosticTestER11GCodeBufferRK9StringRefRP12OutputBufferj
                0x0000c2a0      0x4fc ./build/./RepRapFirmware/src/Platform.o
                0x0000c2a0                Platform::DiagnosticTest(GCodeBuffer&, StringRef const&, OutputBuffer*&, unsigned int)
 .text._ZN8Platform9SendAlertE11MessageTypePKcS2_if6BitmapItE
                0x0000c79c       0xac ./build/./RepRapFirmware/src/Platform.o
                0x0000c79c                Platform::SendAlert(MessageType, char const*, char const*, int, float, Bitmap<unsigned short>)
 .text._ZN8Platform11SetDateTimeEx
                0x0000c848       0x74 ./build/./RepRapFirmware/src/Platform.o
                0x0000c848                Platform::SetDateTime(long long)
 .text._ZN8Platform13ReportDriversE11MessageTypeR6BitmapImEPKcRb
                0x0000c8bc       0x64 ./build/./RepRapFirmware/src/Platform.o
                0x0000c8bc                Platform::ReportDrivers(MessageType, Bitmap<unsigned long>&, char const*, bool&)
 .text._ZN8Platform13FlushMessagesEv
                0x0000c920       0xb0 ./build/./RepRapFirmware/src/Platform.o
                0x0000c920                Platform::FlushMessages()
 .text._ZN8Platform4SpinEv
                0x0000c9d0      0x3b4 ./build/./RepRapFirmware/src/Platform.o
                0x0000c9d0                Platform::Spin()
 .text._ZN12PrintMonitorUlPK11ObjectModelRK24ObjectExplorationContextE_4_FUNES2_S5_
                0x0000cd84        0x6 ./build/./RepRapFirmware/src/PrintMonitor.o
 .text._ZN12PrintMonitorUlPK11ObjectModelR24ObjectExplorationContextE2_4_FUNES2_S4_
                0x0000cd8a       0x1a ./build/./RepRapFirmware/src/PrintMonitor.o
 .text._ZN12PrintMonitorUlPK11ObjectModelR24ObjectExplorationContextE9_4_FUNES2_S4_
                0x0000cda4       0x1a ./build/./RepRapFirmware/src/PrintMonitor.o
 *fill*         0x0000cdbe        0x2 
 .text._ZN12PrintMonitorUlPK11ObjectModelR24ObjectExplorationContextE11_4_FUNES2_S4_
                0x0000cdc0       0x10 ./build/./RepRapFirmware/src/PrintMonitor.o
 .text._ZN12PrintMonitorUlPK11ObjectModelR24ObjectExplorationContextE13_4_FUNES2_S4_
                0x0000cdd0        0xe ./build/./RepRapFirmware/src/PrintMonitor.o
 .text._ZN12PrintMonitorUlPK11ObjectModelR24ObjectExplorationContextE15_4_FUNES2_S4_
                0x0000cdde        0xe ./build/./RepRapFirmware/src/PrintMonitor.o
 .text._ZN12PrintMonitorUlPK11ObjectModelR24ObjectExplorationContextE17_4_FUNES2_S4_
                0x0000cdec        0xe ./build/./RepRapFirmware/src/PrintMonitor.o
 .text._ZN12PrintMonitorUlPK11ObjectModelR24ObjectExplorationContextE21_4_FUNES2_S4_
                0x0000cdfa        0xc ./build/./RepRapFirmware/src/PrintMonitor.o
 *fill*         0x0000ce06        0x2 
 .text._ZNK12PrintMonitor29GetObjectModelClassDescriptorEv
                0x0000ce08        0x8 ./build/./RepRapFirmware/src/PrintMonitor.o
                0x0000ce08                PrintMonitor::GetObjectModelClassDescriptor() const
 .text._ZN12PrintMonitorD2Ev
                0x0000ce10        0x2 ./build/./RepRapFirmware/src/PrintMonitor.o
                0x0000ce10                PrintMonitor::~PrintMonitor()
                0x0000ce10                PrintMonitor::~PrintMonitor()
 .text._ZN12PrintMonitorD0Ev
                0x0000ce12       0x10 ./build/./RepRapFirmware/src/PrintMonitor.o
                0x0000ce12                PrintMonitor::~PrintMonitor()
 .text._ZN12PrintMonitorUlPK11ObjectModelR24ObjectExplorationContextE0_4_FUNES2_S4_
                0x0000ce22       0x22 ./build/./RepRapFirmware/src/PrintMonitor.o
 .text._ZN12PrintMonitorUlPK11ObjectModelR24ObjectExplorationContextE18_4_FUNES2_S4_
                0x0000ce44       0x16 ./build/./RepRapFirmware/src/PrintMonitor.o
 .text._ZN12PrintMonitorUlPK11ObjectModelR24ObjectExplorationContextE20_4_FUNES2_S4_
                0x0000ce5a       0x14 ./build/./RepRapFirmware/src/PrintMonitor.o
 .text._ZN12PrintMonitorUlPK11ObjectModelR24ObjectExplorationContextE19_4_FUNES2_S4_
                0x0000ce6e       0x14 ./build/./RepRapFirmware/src/PrintMonitor.o
 .text._ZN12PrintMonitorUlPK11ObjectModelR24ObjectExplorationContextE16_4_FUNES2_S4_
                0x0000ce82       0x1e ./build/./RepRapFirmware/src/PrintMonitor.o
 .text._ZN12PrintMonitorUlPK11ObjectModelR24ObjectExplorationContextE7_4_FUNES2_S4_
                0x0000cea0       0x14 ./build/./RepRapFirmware/src/PrintMonitor.o
 .text._ZN12PrintMonitorUlPK11ObjectModelR24ObjectExplorationContextE3_4_FUNES2_S4_
                0x0000ceb4       0x1c ./build/./RepRapFirmware/src/PrintMonitor.o
 .text._ZN12PrintMonitorUlPK11ObjectModelR24ObjectExplorationContextE5_4_FUNES2_S4_
                0x0000ced0       0x20 ./build/./RepRapFirmware/src/PrintMonitor.o
 .text._ZN12PrintMonitorUlPK11ObjectModelR24ObjectExplorationContextE12_4_FUNES2_S4_
                0x0000cef0       0x16 ./build/./RepRapFirmware/src/PrintMonitor.o
 .text._ZN12PrintMonitorUlPK11ObjectModelR24ObjectExplorationContextE6_4_FUNES2_S4_
                0x0000cf06       0x18 ./build/./RepRapFirmware/src/PrintMonitor.o
 .text._ZN12PrintMonitorUlPK11ObjectModelR24ObjectExplorationContextE14_4_FUNES2_S4_
                0x0000cf1e       0x16 ./build/./RepRapFirmware/src/PrintMonitor.o
 .text._ZN10ReadLockerD2Ev
                0x0000cf34       0x10 ./build/./RepRapFirmware/src/PrintMonitor.o
                0x0000cf34                ReadLocker::~ReadLocker()
                0x0000cf34                ReadLocker::~ReadLocker()
 .text._ZN11WriteLockerD2Ev
                0x0000cf44       0x10 ./build/./RepRapFirmware/src/PrintMonitor.o
                0x0000cf44                WriteLocker::~WriteLocker()
                0x0000cf44                WriteLocker::~WriteLocker()
 .text._ZN12PrintMonitorC2ER8PlatformR6GCodes
                0x0000cf54       0x5c ./build/./RepRapFirmware/src/PrintMonitor.o
                0x0000cf54                PrintMonitor::PrintMonitor(Platform&, GCodes&)
                0x0000cf54                PrintMonitor::PrintMonitor(Platform&, GCodes&)
 .text._ZN12PrintMonitor4InitEv
                0x0000cfb0        0xc ./build/./RepRapFirmware/src/PrintMonitor.o
                0x0000cfb0                PrintMonitor::Init()
 .text._ZN12PrintMonitor19GetPrintingFileInfoER13GCodeFileInfo
                0x0000cfbc       0x26 ./build/./RepRapFirmware/src/PrintMonitor.o
                0x0000cfbc                PrintMonitor::GetPrintingFileInfo(GCodeFileInfo&)
 *fill*         0x0000cfe2        0x2 
 .text._ZN12PrintMonitor19SetPrintingFileInfoEPKcR13GCodeFileInfo
                0x0000cfe4       0x5c ./build/./RepRapFirmware/src/PrintMonitor.o
                0x0000cfe4                PrintMonitor::SetPrintingFileInfo(char const*, GCodeFileInfo&)
 .text._ZNK12PrintMonitor17GetWarmUpDurationEv
                0x0000d040       0x34 ./build/./RepRapFirmware/src/PrintMonitor.o
                0x0000d040                PrintMonitor::GetWarmUpDuration() const
 .text._ZN12PrintMonitorUlPK11ObjectModelR24ObjectExplorationContextE10_4_FUNES2_S4_
                0x0000d074       0x22 ./build/./RepRapFirmware/src/PrintMonitor.o
 .text._ZN12PrintMonitor13StartingPrintEPKc
                0x0000d096        0x2 ./build/./RepRapFirmware/src/PrintMonitor.o
                0x0000d096                PrintMonitor::StartingPrint(char const*)
 .text._ZN12PrintMonitor5ResetEv
                0x0000d098       0x5c ./build/./RepRapFirmware/src/PrintMonitor.o
                0x0000d098                PrintMonitor::Reset()
 .text._ZN12PrintMonitor12StartedPrintEv
                0x0000d0f4       0x16 ./build/./RepRapFirmware/src/PrintMonitor.o
                0x0000d0f4                PrintMonitor::StartedPrint()
 .text._ZN12PrintMonitor12StoppedPrintEv
                0x0000d10a       0x12 ./build/./RepRapFirmware/src/PrintMonitor.o
                0x0000d10a                PrintMonitor::StoppedPrint()
 .text._ZN12PrintMonitor14SetLayerNumberEm
                0x0000d11c        0x6 ./build/./RepRapFirmware/src/PrintMonitor.o
                0x0000d11c                PrintMonitor::SetLayerNumber(unsigned long)
 .text._ZN12PrintMonitor9SetLayerZEf
                0x0000d122        0x6 ./build/./RepRapFirmware/src/PrintMonitor.o
                0x0000d122                PrintMonitor::SetLayerZ(float)
 .text._ZNK12PrintMonitor21FractionOfFilePrintedEv
                0x0000d128       0x54 ./build/./RepRapFirmware/src/PrintMonitor.o
                0x0000d128                PrintMonitor::FractionOfFilePrinted() const
 .text._ZNK12PrintMonitor16GetPrintDurationEv
                0x0000d17c       0x44 ./build/./RepRapFirmware/src/PrintMonitor.o
                0x0000d17c                PrintMonitor::GetPrintDuration() const
 .text._ZN12PrintMonitorUlPK11ObjectModelR24ObjectExplorationContextE8_4_FUNES2_S4_
                0x0000d1c0       0x3c ./build/./RepRapFirmware/src/PrintMonitor.o
 .text._ZNK12PrintMonitor27GetPrintOrSimulatedDurationEv
                0x0000d1fc       0x2c ./build/./RepRapFirmware/src/PrintMonitor.o
                0x0000d1fc                PrintMonitor::GetPrintOrSimulatedDuration() const
 .text._ZN12PrintMonitorUlPK11ObjectModelR24ObjectExplorationContextE1_4_FUNES2_S4_
                0x0000d228       0x1e ./build/./RepRapFirmware/src/PrintMonitor.o
 .text._ZNK12PrintMonitor21GetFirstLayerDurationEv
                0x0000d246       0x2a ./build/./RepRapFirmware/src/PrintMonitor.o
                0x0000d246                PrintMonitor::GetFirstLayerDuration() const
 .text._ZN12PrintMonitorUlPK11ObjectModelR24ObjectExplorationContextE4_4_FUNES2_S4_
                0x0000d270       0x22 ./build/./RepRapFirmware/src/PrintMonitor.o
 .text._ZN12PrintMonitor18FirstLayerCompleteEv
                0x0000d292       0x72 ./build/./RepRapFirmware/src/PrintMonitor.o
                0x0000d292                PrintMonitor::FirstLayerComplete()
 .text._ZN12PrintMonitor13LayerCompleteEv
                0x0000d304      0x160 ./build/./RepRapFirmware/src/PrintMonitor.o
                0x0000d304                PrintMonitor::LayerComplete()
 .text._ZN12PrintMonitor4SpinEv
                0x0000d464      0x1c4 ./build/./RepRapFirmware/src/PrintMonitor.o
                0x0000d464                PrintMonitor::Spin()
 .text._ZNK12PrintMonitor16EstimateTimeLeftE21PrintEstimationMethod
                0x0000d628      0x244 ./build/./RepRapFirmware/src/PrintMonitor.o
                0x0000d628                PrintMonitor::EstimateTimeLeft(PrintEstimationMethod) const
 .text._ZNK12PrintMonitor28EstimateTimeLeftAsExpressionE21PrintEstimationMethod
                0x0000d86c       0x2c ./build/./RepRapFirmware/src/PrintMonitor.o
                0x0000d86c                PrintMonitor::EstimateTimeLeftAsExpression(PrintEstimationMethod) const
 .text._ZN12PrintMonitorUlPK11ObjectModelR24ObjectExplorationContextE24_4_FUNES2_S4_
                0x0000d898        0xe ./build/./RepRapFirmware/src/PrintMonitor.o
 .text._ZN12PrintMonitorUlPK11ObjectModelR24ObjectExplorationContextE23_4_FUNES2_S4_
                0x0000d8a6        0xe ./build/./RepRapFirmware/src/PrintMonitor.o
 .text._ZN12PrintMonitorUlPK11ObjectModelR24ObjectExplorationContextE22_4_FUNES2_S4_
                0x0000d8b4        0xe ./build/./RepRapFirmware/src/PrintMonitor.o
 *fill*         0x0000d8c2        0x2 
 .text.startup._GLOBAL__sub_I__ZN12PrintMonitor16printMonitorLockE
                0x0000d8c4       0x10 ./build/./RepRapFirmware/src/PrintMonitor.o
 .text._ZN6RepRapUlPK11ObjectModelRK24ObjectExplorationContextE_4_FUNES2_S5_
                0x0000d8d4        0x4 ./build/./RepRapFirmware/src/RepRap.o
 .text._ZN6RepRapUlPK11ObjectModelR24ObjectExplorationContextE0_4_FUNES2_S4_
                0x0000d8d8       0x18 ./build/./RepRapFirmware/src/RepRap.o
 .text._ZN6RepRapUlPK11ObjectModelRK24ObjectExplorationContextE3_4_FUNES2_S5_
                0x0000d8f0        0x4 ./build/./RepRapFirmware/src/RepRap.o
 .text._ZN6RepRapUlPK11ObjectModelRK24ObjectExplorationContextE7_4_FUNES2_S5_
                0x0000d8f4        0x4 ./build/./RepRapFirmware/src/RepRap.o
 .text._ZN6RepRapUlPK11ObjectModelRK24ObjectExplorationContextE9_4_FUNES2_S5_
                0x0000d8f8        0x6 ./build/./RepRapFirmware/src/RepRap.o
 .text._ZN6RepRapUlPK11ObjectModelRK24ObjectExplorationContextE11_4_FUNES2_S5_
                0x0000d8fe        0x4 ./build/./RepRapFirmware/src/RepRap.o
 .text._ZN6RepRapUlPK11ObjectModelRK24ObjectExplorationContextE13_4_FUNES2_S5_
                0x0000d902        0x4 ./build/./RepRapFirmware/src/RepRap.o
 .text._ZN6RepRapUlPK11ObjectModelR24ObjectExplorationContextE14_4_FUNES2_S4_
                0x0000d906        0x8 ./build/./RepRapFirmware/src/RepRap.o
 *fill*         0x0000d90e        0x2 
 .text._ZN6RepRapUlPK11ObjectModelR24ObjectExplorationContextE15_4_FUNES2_S4_
                0x0000d910       0x10 ./build/./RepRapFirmware/src/RepRap.o
 .text._ZN6RepRapUlPK11ObjectModelR24ObjectExplorationContextE16_4_FUNES2_S4_
                0x0000d920       0x10 ./build/./RepRapFirmware/src/RepRap.o
 .text._ZN6RepRapUlPK11ObjectModelR24ObjectExplorationContextE18_4_FUNES2_S4_
                0x0000d930       0x10 ./build/./RepRapFirmware/src/RepRap.o
 .text._ZN6RepRapUlPK11ObjectModelR24ObjectExplorationContextE20_4_FUNES2_S4_
                0x0000d940       0x1a ./build/./RepRapFirmware/src/RepRap.o
 .text._ZN6RepRapUlPK11ObjectModelR24ObjectExplorationContextE24_4_FUNES2_S4_
                0x0000d95a       0x1a ./build/./RepRapFirmware/src/RepRap.o
 .text._ZN6RepRapUlPK11ObjectModelR24ObjectExplorationContextE25_4_FUNES2_S4_
                0x0000d974       0x10 ./build/./RepRapFirmware/src/RepRap.o
 .text._ZN6RepRapUlPK11ObjectModelR24ObjectExplorationContextE26_4_FUNES2_S4_
                0x0000d984       0x1a ./build/./RepRapFirmware/src/RepRap.o
 *fill*         0x0000d99e        0x2 
 .text._ZN6RepRapUlPK11ObjectModelR24ObjectExplorationContextE27_4_FUNES2_S4_
                0x0000d9a0       0x10 ./build/./RepRapFirmware/src/RepRap.o
 .text._ZN6RepRapUlPK11ObjectModelR24ObjectExplorationContextE28_4_FUNES2_S4_
                0x0000d9b0       0x10 ./build/./RepRapFirmware/src/RepRap.o
 .text._ZN6RepRapUlPK11ObjectModelR24ObjectExplorationContextE29_4_FUNES2_S4_
                0x0000d9c0        0xa ./build/./RepRapFirmware/src/RepRap.o
 .text._ZN6RepRapUlPK11ObjectModelR24ObjectExplorationContextE30_4_FUNES2_S4_
                0x0000d9ca        0xa ./build/./RepRapFirmware/src/RepRap.o
 .text._ZN6RepRapUlPK11ObjectModelR24ObjectExplorationContextE31_4_FUNES2_S4_
                0x0000d9d4        0xa ./build/./RepRapFirmware/src/RepRap.o
 .text._ZN6RepRapUlPK11ObjectModelR24ObjectExplorationContextE35_4_FUNES2_S4_
                0x0000d9de        0xa ./build/./RepRapFirmware/src/RepRap.o
 .text._ZN6RepRapUlPK11ObjectModelR24ObjectExplorationContextE36_4_FUNES2_S4_
                0x0000d9e8        0xa ./build/./RepRapFirmware/src/RepRap.o
 .text._ZN6RepRapUlPK11ObjectModelR24ObjectExplorationContextE44_4_FUNES2_S4_
                0x0000d9f2        0xa ./build/./RepRapFirmware/src/RepRap.o
 .text._ZN6RepRapUlPK11ObjectModelR24ObjectExplorationContextE45_4_FUNES2_S4_
                0x0000d9fc        0xa ./build/./RepRapFirmware/src/RepRap.o
 .text._ZN6RepRapUlPK11ObjectModelR24ObjectExplorationContextE47_4_FUNES2_S4_
                0x0000da06        0xa ./build/./RepRapFirmware/src/RepRap.o
 .text._ZN6RepRapUlPK11ObjectModelR24ObjectExplorationContextE48_4_FUNES2_S4_
                0x0000da10        0xa ./build/./RepRapFirmware/src/RepRap.o
 .text._ZN6RepRapUlPK11ObjectModelR24ObjectExplorationContextE49_4_FUNES2_S4_
                0x0000da1a        0xa ./build/./RepRapFirmware/src/RepRap.o
 .text._ZN6RepRapUlPK11ObjectModelR24ObjectExplorationContextE50_4_FUNES2_S4_
                0x0000da24        0xa ./build/./RepRapFirmware/src/RepRap.o
 .text._ZN6RepRapUlPK11ObjectModelR24ObjectExplorationContextE51_4_FUNES2_S4_
                0x0000da2e        0xa ./build/./RepRapFirmware/src/RepRap.o
 .text._ZN6RepRapUlPK11ObjectModelR24ObjectExplorationContextE52_4_FUNES2_S4_
                0x0000da38        0xa ./build/./RepRapFirmware/src/RepRap.o
 .text._ZN6RepRapUlPK11ObjectModelR24ObjectExplorationContextE57_4_FUNES2_S4_
                0x0000da42        0xc ./build/./RepRapFirmware/src/RepRap.o
 *fill*         0x0000da4e        0x2 
 .text._ZN6RepRapUlPK11ObjectModelR24ObjectExplorationContextE58_4_FUNES2_S4_
                0x0000da50       0x10 ./build/./RepRapFirmware/src/RepRap.o
 .text._ZN6RepRapUlPK11ObjectModelR24ObjectExplorationContextE64_4_FUNES2_S4_
                0x0000da60       0x1c ./build/./RepRapFirmware/src/RepRap.o
 .text._ZN6RepRapUlPK11ObjectModelR24ObjectExplorationContextE65_4_FUNES2_S4_
                0x0000da7c        0xe ./build/./RepRapFirmware/src/RepRap.o
 .text._ZN6RepRapUlPK11ObjectModelR24ObjectExplorationContextE66_4_FUNES2_S4_
                0x0000da8a        0xc ./build/./RepRapFirmware/src/RepRap.o
 *fill*         0x0000da96        0x2 
 .text._ZN6RepRapUlPK11ObjectModelR24ObjectExplorationContextE67_4_FUNES2_S4_
                0x0000da98       0x10 ./build/./RepRapFirmware/src/RepRap.o
 .text._ZN6RepRapUlPK11ObjectModelR24ObjectExplorationContextE71_4_FUNES2_S4_
                0x0000daa8        0xc ./build/./RepRapFirmware/src/RepRap.o
 .text._ZN6RepRapUlPK11ObjectModelR24ObjectExplorationContextE72_4_FUNES2_S4_
                0x0000dab4        0xc ./build/./RepRapFirmware/src/RepRap.o
 .text._ZN6RepRapUlPK11ObjectModelR24ObjectExplorationContextE73_4_FUNES2_S4_
                0x0000dac0        0xc ./build/./RepRapFirmware/src/RepRap.o
 .text._ZN6RepRapUlPK11ObjectModelR24ObjectExplorationContextE74_4_FUNES2_S4_
                0x0000dacc        0xc ./build/./RepRapFirmware/src/RepRap.o
 .text._ZN6RepRapUlPK11ObjectModelR24ObjectExplorationContextE75_4_FUNES2_S4_
                0x0000dad8        0xc ./build/./RepRapFirmware/src/RepRap.o
 .text._ZN6RepRapUlPK11ObjectModelR24ObjectExplorationContextE76_4_FUNES2_S4_
                0x0000dae4        0xc ./build/./RepRapFirmware/src/RepRap.o
 .text._ZN6RepRapUlPK11ObjectModelR24ObjectExplorationContextE77_4_FUNES2_S4_
                0x0000daf0        0xc ./build/./RepRapFirmware/src/RepRap.o
 .text._ZN6RepRapUlPK11ObjectModelR24ObjectExplorationContextE78_4_FUNES2_S4_
                0x0000dafc        0xc ./build/./RepRapFirmware/src/RepRap.o
 .text._ZN6RepRapUlPK11ObjectModelR24ObjectExplorationContextE79_4_FUNES2_S4_
                0x0000db08        0xc ./build/./RepRapFirmware/src/RepRap.o
 .text._ZN6RepRapUlPK11ObjectModelR24ObjectExplorationContextE80_4_FUNES2_S4_
                0x0000db14        0xc ./build/./RepRapFirmware/src/RepRap.o
 .text._ZN6RepRapUlPK11ObjectModelR24ObjectExplorationContextE81_4_FUNES2_S4_
                0x0000db20        0xc ./build/./RepRapFirmware/src/RepRap.o
 .text._ZN6RepRapUlPK11ObjectModelR24ObjectExplorationContextE82_4_FUNES2_S4_
                0x0000db2c        0xc ./build/./RepRapFirmware/src/RepRap.o
 .text._ZN6RepRapUlPK11ObjectModelR24ObjectExplorationContextE83_4_FUNES2_S4_
                0x0000db38        0xc ./build/./RepRapFirmware/src/RepRap.o
 .text._ZN6RepRapUlPK11ObjectModelR24ObjectExplorationContextE84_4_FUNES2_S4_
                0x0000db44        0xc ./build/./RepRapFirmware/src/RepRap.o
 .text._ZN6RepRapUlPK11ObjectModelR24ObjectExplorationContextE85_4_FUNES2_S4_
                0x0000db50        0xc ./build/./RepRapFirmware/src/RepRap.o
 .text._ZN6RepRapUlPK11ObjectModelR24ObjectExplorationContextE86_4_FUNES2_S4_
                0x0000db5c        0xc ./build/./RepRapFirmware/src/RepRap.o
 .text._ZN6RepRapUlPK11ObjectModelR24ObjectExplorationContextE87_4_FUNES2_S4_
                0x0000db68        0xc ./build/./RepRapFirmware/src/RepRap.o
 .text._ZN6RepRapUlPK11ObjectModelR24ObjectExplorationContextE88_4_FUNES2_S4_
                0x0000db74        0xc ./build/./RepRapFirmware/src/RepRap.o
 .text._ZN6RepRapUlPK11ObjectModelR24ObjectExplorationContextE89_4_FUNES2_S4_
                0x0000db80        0xc ./build/./RepRapFirmware/src/RepRap.o
 .text._ZNK6RepRap29GetObjectModelClassDescriptorEv
                0x0000db8c        0x8 ./build/./RepRapFirmware/src/RepRap.o
                0x0000db8c                RepRap::GetObjectModelClassDescriptor() const
 .text._ZNSt14_Function_base13_Base_managerIZNK6RepRap17GetStatusResponseEh14ResponseSourceEUljE_E10_M_managerERSt9_Any_dataRKS5_St18_Manager_operation
                0x0000db94       0x16 ./build/./RepRapFirmware/src/RepRap.o
 .text._ZNSt14_Function_base13_Base_managerIZNK6RepRap17GetStatusResponseEh14ResponseSourceEUljE0_E10_M_managerERSt9_Any_dataRKS5_St18_Manager_operation
                0x0000dbaa       0x16 ./build/./RepRapFirmware/src/RepRap.o
 .text._ZNSt14_Function_base13_Base_managerIZNK6RepRap17GetStatusResponseEh14ResponseSourceEUljE1_E10_M_managerERSt9_Any_dataRKS5_St18_Manager_operation
                0x0000dbc0       0x16 ./build/./RepRapFirmware/src/RepRap.o
 .text._ZNSt14_Function_base13_Base_managerIZNK6RepRap17GetStatusResponseEh14ResponseSourceEUljE2_E10_M_managerERSt9_Any_dataRKS5_St18_Manager_operation
                0x0000dbd6       0x16 ./build/./RepRapFirmware/src/RepRap.o
 .text._ZNSt14_Function_base13_Base_managerIZNK6RepRap17GetStatusResponseEh14ResponseSourceEUljE3_E10_M_managerERSt9_Any_dataRKS5_St18_Manager_operation
                0x0000dbec       0x16 ./build/./RepRapFirmware/src/RepRap.o
 .text._ZNSt14_Function_base13_Base_managerIZNK6RepRap17GetStatusResponseEh14ResponseSourceEUljE4_E10_M_managerERSt9_Any_dataRKS5_St18_Manager_operation
                0x0000dc02       0x16 ./build/./RepRapFirmware/src/RepRap.o
 .text._ZNSt14_Function_base13_Base_managerIZNK6RepRap17GetStatusResponseEh14ResponseSourceEUljE5_E10_M_managerERSt9_Any_dataRKS5_St18_Manager_operation
                0x0000dc18       0x16 ./build/./RepRapFirmware/src/RepRap.o
 .text._ZNSt14_Function_base13_Base_managerIZNK6RepRap17GetStatusResponseEh14ResponseSourceEUljE6_E10_M_managerERSt9_Any_dataRKS5_St18_Manager_operation
                0x0000dc2e       0x16 ./build/./RepRapFirmware/src/RepRap.o
 .text._ZNSt14_Function_base13_Base_managerIZNK6RepRap17GetStatusResponseEh14ResponseSourceEUljE7_E10_M_managerERSt9_Any_dataRKS5_St18_Manager_operation
                0x0000dc44       0x16 ./build/./RepRapFirmware/src/RepRap.o
 .text._ZNSt14_Function_base13_Base_managerIZNK6RepRap17GetStatusResponseEh14ResponseSourceEUljE8_E10_M_managerERSt9_Any_dataRKS5_St18_Manager_operation
                0x0000dc5a       0x16 ./build/./RepRapFirmware/src/RepRap.o
 .text._ZNSt14_Function_base13_Base_managerIZNK6RepRap17GetStatusResponseEh14ResponseSourceEUljE9_E10_M_managerERSt9_Any_dataRKS5_St18_Manager_operation
                0x0000dc70       0x16 ./build/./RepRapFirmware/src/RepRap.o
 .text._ZNSt17_Function_handlerIFfjEZNK6RepRap17GetStatusResponseEh14ResponseSourceEUljE10_E9_M_invokeERKSt9_Any_dataOj
                0x0000dc86        0xc ./build/./RepRapFirmware/src/RepRap.o
 .text._ZNSt14_Function_base13_Base_managerIZNK6RepRap17GetStatusResponseEh14ResponseSourceEUljE10_E10_M_managerERSt9_Any_dataRKS5_St18_Manager_operation
                0x0000dc92       0x16 ./build/./RepRapFirmware/src/RepRap.o
 .text._ZNSt17_Function_handlerIFfjEZNK6RepRap17GetStatusResponseEh14ResponseSourceEUljE11_E9_M_invokeERKSt9_Any_dataOj
                0x0000dca8        0xc ./build/./RepRapFirmware/src/RepRap.o
 .text._ZNSt14_Function_base13_Base_managerIZNK6RepRap17GetStatusResponseEh14ResponseSourceEUljE11_E10_M_managerERSt9_Any_dataRKS5_St18_Manager_operation
                0x0000dcb4       0x16 ./build/./RepRapFirmware/src/RepRap.o
 .text._ZNSt17_Function_handlerIFijEZNK6RepRap17GetStatusResponseEh14ResponseSourceEUljE12_E9_M_invokeERKSt9_Any_dataOj
                0x0000dcca        0xc ./build/./RepRapFirmware/src/RepRap.o
 .text._ZNSt14_Function_base13_Base_managerIZNK6RepRap17GetStatusResponseEh14ResponseSourceEUljE12_E10_M_managerERSt9_Any_dataRKS5_St18_Manager_operation
                0x0000dcd6       0x16 ./build/./RepRapFirmware/src/RepRap.o
 .text._ZNSt17_Function_handlerIFijEZNK6RepRap17GetStatusResponseEh14ResponseSourceEUljE13_E9_M_invokeERKSt9_Any_dataOj
                0x0000dcec        0xc ./build/./RepRapFirmware/src/RepRap.o
 .text._ZNSt14_Function_base13_Base_managerIZNK6RepRap17GetStatusResponseEh14ResponseSourceEUljE13_E10_M_managerERSt9_Any_dataRKS5_St18_Manager_operation
                0x0000dcf8       0x16 ./build/./RepRapFirmware/src/RepRap.o
 .text._ZNSt14_Function_base13_Base_managerIZNK6RepRap17GetStatusResponseEh14ResponseSourceEUljjE14_E10_M_managerERSt9_Any_dataRKS5_St18_Manager_operation
                0x0000dd0e       0x16 ./build/./RepRapFirmware/src/RepRap.o
 .text._ZNSt14_Function_base13_Base_managerIZNK6RepRap17GetStatusResponseEh14ResponseSourceEUljjE15_E10_M_managerERSt9_Any_dataRKS5_St18_Manager_operation
                0x0000dd24       0x16 ./build/./RepRapFirmware/src/RepRap.o
 .text._ZNSt17_Function_handlerIFfjEZNK6RepRap17GetStatusResponseEh14ResponseSourceEUljE16_E9_M_invokeERKSt9_Any_dataOj
                0x0000dd3a        0xc ./build/./RepRapFirmware/src/RepRap.o
 .text._ZNSt14_Function_base13_Base_managerIZNK6RepRap17GetStatusResponseEh14ResponseSourceEUljE16_E10_M_managerERSt9_Any_dataRKS5_St18_Manager_operation
                0x0000dd46       0x16 ./build/./RepRapFirmware/src/RepRap.o
 .text._ZNSt14_Function_base13_Base_managerIZNK6RepRap17GetStatusResponseEh14ResponseSourceEUljE17_E10_M_managerERSt9_Any_dataRKS5_St18_Manager_operation
                0x0000dd5c       0x16 ./build/./RepRapFirmware/src/RepRap.o
 .text._ZNSt17_Function_handlerIFfjEZN6RepRap17GetConfigResponseEvEUljE_E9_M_invokeERKSt9_Any_dataOj
                0x0000dd72        0xe ./build/./RepRapFirmware/src/RepRap.o
 .text._ZNSt14_Function_base13_Base_managerIZN6RepRap17GetConfigResponseEvEUljE_E10_M_managerERSt9_Any_dataRKS4_St18_Manager_operation
                0x0000dd80       0x16 ./build/./RepRapFirmware/src/RepRap.o
 .text._ZNSt17_Function_handlerIFfjEZN6RepRap17GetConfigResponseEvEUljE0_E9_M_invokeERKSt9_Any_dataOj
                0x0000dd96       0x10 ./build/./RepRapFirmware/src/RepRap.o
 .text._ZNSt14_Function_base13_Base_managerIZN6RepRap17GetConfigResponseEvEUljE0_E10_M_managerERSt9_Any_dataRKS4_St18_Manager_operation
                0x0000dda6       0x16 ./build/./RepRapFirmware/src/RepRap.o
 .text._ZNSt17_Function_handlerIFfjEZN6RepRap17GetConfigResponseEvEUljE1_E9_M_invokeERKSt9_Any_dataOj
                0x0000ddbc       0x10 ./build/./RepRapFirmware/src/RepRap.o
 .text._ZNSt14_Function_base13_Base_managerIZN6RepRap17GetConfigResponseEvEUljE1_E10_M_managerERSt9_Any_dataRKS4_St18_Manager_operation
                0x0000ddcc       0x16 ./build/./RepRapFirmware/src/RepRap.o
 .text._ZNSt14_Function_base13_Base_managerIZN6RepRap17GetConfigResponseEvEUljE2_E10_M_managerERSt9_Any_dataRKS4_St18_Manager_operation
                0x0000dde2       0x16 ./build/./RepRapFirmware/src/RepRap.o
 .text._ZNSt17_Function_handlerIFfjEZN6RepRap17GetConfigResponseEvEUljE3_E9_M_invokeERKSt9_Any_dataOj
                0x0000ddf8       0x10 ./build/./RepRapFirmware/src/RepRap.o
 .text._ZNSt14_Function_base13_Base_managerIZN6RepRap17GetConfigResponseEvEUljE3_E10_M_managerERSt9_Any_dataRKS4_St18_Manager_operation
                0x0000de08       0x16 ./build/./RepRapFirmware/src/RepRap.o
 .text._ZNSt17_Function_handlerIFfjEZN6RepRap17GetConfigResponseEvEUljE4_E9_M_invokeERKSt9_Any_dataOj
                0x0000de1e        0xe ./build/./RepRapFirmware/src/RepRap.o
 .text._ZNSt14_Function_base13_Base_managerIZN6RepRap17GetConfigResponseEvEUljE4_E10_M_managerERSt9_Any_dataRKS4_St18_Manager_operation
                0x0000de2c       0x16 ./build/./RepRapFirmware/src/RepRap.o
 .text._ZNSt14_Function_base13_Base_managerIZNK6RepRap23GetLegacyStatusResponseEhiEUljE_E10_M_managerERSt9_Any_dataRKS4_St18_Manager_operation
                0x0000de42       0x16 ./build/./RepRapFirmware/src/RepRap.o
 .text._ZNSt14_Function_base13_Base_managerIZNK6RepRap23GetLegacyStatusResponseEhiEUljE0_E10_M_managerERSt9_Any_dataRKS4_St18_Manager_operation
                0x0000de58       0x16 ./build/./RepRapFirmware/src/RepRap.o
 .text._ZNSt14_Function_base13_Base_managerIZNK6RepRap23GetLegacyStatusResponseEhiEUljE1_E10_M_managerERSt9_Any_dataRKS4_St18_Manager_operation
                0x0000de6e       0x16 ./build/./RepRapFirmware/src/RepRap.o
 .text._ZNSt14_Function_base13_Base_managerIZNK6RepRap23GetLegacyStatusResponseEhiEUljE2_E10_M_managerERSt9_Any_dataRKS4_St18_Manager_operation
                0x0000de84       0x16 ./build/./RepRapFirmware/src/RepRap.o
 .text._ZNSt14_Function_base13_Base_managerIZNK6RepRap23GetLegacyStatusResponseEhiEUljE3_E10_M_managerERSt9_Any_dataRKS4_St18_Manager_operation
                0x0000de9a       0x16 ./build/./RepRapFirmware/src/RepRap.o
 .text._ZN6RepRapD2Ev
                0x0000deb0        0x2 ./build/./RepRapFirmware/src/RepRap.o
                0x0000deb0                RepRap::~RepRap()
                0x0000deb0                RepRap::~RepRap()
 .text._ZN6RepRapD0Ev
                0x0000deb2       0x10 ./build/./RepRapFirmware/src/RepRap.o
                0x0000deb2                RepRap::~RepRap()
 .text._ZN6RepRapUlPK11ObjectModelRK24ObjectExplorationContextE1_4_FUNES2_S5_
                0x0000dec2        0x6 ./build/./RepRapFirmware/src/RepRap.o
 .text._ZNSt17_Function_handlerIFvjjEZNK6RepRap17GetStatusResponseEh14ResponseSourceEUljjE15_E9_M_invokeERKSt9_Any_dataOjS8_
                0x0000dec8       0x24 ./build/./RepRapFirmware/src/RepRap.o
 .text._ZNSt17_Function_handlerIFfjEZNK6RepRap23GetLegacyStatusResponseEhiEUljE_E9_M_invokeERKSt9_Any_dataOj
                0x0000deec        0xa ./build/./RepRapFirmware/src/RepRap.o
 .text._ZNSt17_Function_handlerIFfjEZNK6RepRap23GetLegacyStatusResponseEhiEUljE0_E9_M_invokeERKSt9_Any_dataOj
                0x0000def6        0xe ./build/./RepRapFirmware/src/RepRap.o
 .text._ZNSt17_Function_handlerIFijEZNK6RepRap17GetStatusResponseEh14ResponseSourceEUljE3_E9_M_invokeERKSt9_Any_dataOj
                0x0000df04       0x30 ./build/./RepRapFirmware/src/RepRap.o
 .text._ZNSt17_Function_handlerIFPKcjEZNK6RepRap17GetStatusResponseEh14ResponseSourceEUljE4_E9_M_invokeERKSt9_Any_dataOj
                0x0000df34        0xa ./build/./RepRapFirmware/src/RepRap.o
 *fill*         0x0000df3e        0x2 
 .text._ZNSt17_Function_handlerIFfjEZNK6RepRap17GetStatusResponseEh14ResponseSourceEUljE5_E9_M_invokeERKSt9_Any_dataOj
                0x0000df40       0x18 ./build/./RepRapFirmware/src/RepRap.o
 .text._ZNSt17_Function_handlerIFijEZNK6RepRap17GetStatusResponseEh14ResponseSourceEUljE6_E9_M_invokeERKSt9_Any_dataOj
                0x0000df58        0xa ./build/./RepRapFirmware/src/RepRap.o
 .text._ZNSt17_Function_handlerIFfjEZNK6RepRap17GetStatusResponseEh14ResponseSourceEUljE7_E9_M_invokeERKSt9_Any_dataOj
                0x0000df62        0xa ./build/./RepRapFirmware/src/RepRap.o
 .text._ZNSt17_Function_handlerIFPKcjEZNK6RepRap17GetStatusResponseEh14ResponseSourceEUljE9_E9_M_invokeERKSt9_Any_dataOj
                0x0000df6c        0xa ./build/./RepRapFirmware/src/RepRap.o
 .text._ZNSt17_Function_handlerIFfjEZNK6RepRap17GetStatusResponseEh14ResponseSourceEUljE17_E9_M_invokeERKSt9_Any_dataOj
                0x0000df76        0xa ./build/./RepRapFirmware/src/RepRap.o
 .text._ZNSt17_Function_handlerIFijEZN6RepRap17GetConfigResponseEvEUljE2_E9_M_invokeERKSt9_Any_dataOj
                0x0000df80       0x16 ./build/./RepRapFirmware/src/RepRap.o
 .text._ZNSt17_Function_handlerIFfjEZNK6RepRap17GetStatusResponseEh14ResponseSourceEUljE2_E9_M_invokeERKSt9_Any_dataOj
                0x0000df96       0x12 ./build/./RepRapFirmware/src/RepRap.o
 .text._ZN6RepRapUlPK11ObjectModelR24ObjectExplorationContextE62_4_FUNES2_S4_
                0x0000dfa8       0x14 ./build/./RepRapFirmware/src/RepRap.o
 .text._ZN6RepRapUlPK11ObjectModelR24ObjectExplorationContextE61_4_FUNES2_S4_
                0x0000dfbc       0x14 ./build/./RepRapFirmware/src/RepRap.o
 .text._ZN6RepRapUlPK11ObjectModelR24ObjectExplorationContextE63_4_FUNES2_S4_
                0x0000dfd0       0x16 ./build/./RepRapFirmware/src/RepRap.o
 .text._ZN6RepRapUlPK11ObjectModelR24ObjectExplorationContextE55_4_FUNES2_S4_
                0x0000dfe6       0x16 ./build/./RepRapFirmware/src/RepRap.o
 .text._ZN6RepRapUlPK11ObjectModelR24ObjectExplorationContextE70_4_FUNES2_S4_
                0x0000dffc       0x20 ./build/./RepRapFirmware/src/RepRap.o
 .text._ZN6RepRapUlPK11ObjectModelRK24ObjectExplorationContextE5_4_FUNES2_S5_
                0x0000e01c        0xc ./build/./RepRapFirmware/src/RepRap.o
 .text._ZN6RepRapUlPK11ObjectModelR24ObjectExplorationContextE69_4_FUNES2_S4_
                0x0000e028       0x24 ./build/./RepRapFirmware/src/RepRap.o
 .text._ZN6RepRapUlPK11ObjectModelR24ObjectExplorationContextE54_4_FUNES2_S4_
                0x0000e04c       0x22 ./build/./RepRapFirmware/src/RepRap.o
 *fill*         0x0000e06e        0x2 
 .text._ZN6RepRapUlPK11ObjectModelR24ObjectExplorationContextE59_4_FUNES2_S4_
                0x0000e070       0x34 ./build/./RepRapFirmware/src/RepRap.o
 .text._ZNSt17_Function_handlerIFijEZNK6RepRap17GetStatusResponseEh14ResponseSourceEUljE8_E9_M_invokeERKSt9_Any_dataOj
                0x0000e0a4       0x18 ./build/./RepRapFirmware/src/RepRap.o
 .text._ZNSt17_Function_handlerIFijEZNK6RepRap17GetStatusResponseEh14ResponseSourceEUljE_E9_M_invokeERKSt9_Any_dataOj
                0x0000e0bc       0x12 ./build/./RepRapFirmware/src/RepRap.o
 .text._ZNK6BitmapItE7IterateESt8functionIFvjjEE.isra.287
                0x0000e0ce       0x40 ./build/./RepRapFirmware/src/RepRap.o
 .text._ZN6RepRapUlPK11ObjectModelR24ObjectExplorationContextE46_4_FUNES2_S4_
                0x0000e10e        0xa ./build/./RepRapFirmware/src/RepRap.o
 .text._ZN6RepRapUlPK11ObjectModelR24ObjectExplorationContextE53_4_FUNES2_S4_
                0x0000e118        0xa ./build/./RepRapFirmware/src/RepRap.o
 .text._ZN6RepRapUlPK11ObjectModelR24ObjectExplorationContextE60_4_FUNES2_S4_
                0x0000e122        0x8 ./build/./RepRapFirmware/src/RepRap.o
 .text._ZN6RepRapUlPK11ObjectModelR24ObjectExplorationContextE32_4_FUNES2_S4_
                0x0000e12a        0xa ./build/./RepRapFirmware/src/RepRap.o
 .text._ZN6RepRapUlPK11ObjectModelR24ObjectExplorationContextE33_4_FUNES2_S4_
                0x0000e134        0xa ./build/./RepRapFirmware/src/RepRap.o
 .text._ZN6RepRapUlPK11ObjectModelR24ObjectExplorationContextE34_4_FUNES2_S4_
                0x0000e13e        0xa ./build/./RepRapFirmware/src/RepRap.o
 .text._ZN6RepRapUlPK11ObjectModelR24ObjectExplorationContextE37_4_FUNES2_S4_
                0x0000e148        0xa ./build/./RepRapFirmware/src/RepRap.o
 .text._ZN6RepRapUlPK11ObjectModelR24ObjectExplorationContextE38_4_FUNES2_S4_
                0x0000e152        0xa ./build/./RepRapFirmware/src/RepRap.o
 .text._ZN6RepRapUlPK11ObjectModelR24ObjectExplorationContextE39_4_FUNES2_S4_
                0x0000e15c        0xa ./build/./RepRapFirmware/src/RepRap.o
 .text._ZN6RepRapUlPK11ObjectModelR24ObjectExplorationContextE40_4_FUNES2_S4_
                0x0000e166        0xa ./build/./RepRapFirmware/src/RepRap.o
 .text._ZN6RepRapUlPK11ObjectModelR24ObjectExplorationContextE41_4_FUNES2_S4_
                0x0000e170        0xa ./build/./RepRapFirmware/src/RepRap.o
 .text._ZN6RepRapUlPK11ObjectModelR24ObjectExplorationContextE42_4_FUNES2_S4_
                0x0000e17a        0xa ./build/./RepRapFirmware/src/RepRap.o
 .text._ZN6RepRapUlPK11ObjectModelR24ObjectExplorationContextE43_4_FUNES2_S4_
                0x0000e184        0xa ./build/./RepRapFirmware/src/RepRap.o
 .text._ZNSt17_Function_handlerIFijEZNK6RepRap23GetLegacyStatusResponseEhiEUljE3_E9_M_invokeERKSt9_Any_dataOj
                0x0000e18e       0x12 ./build/./RepRapFirmware/src/RepRap.o
 .text._ZNSt17_Function_handlerIFijEZNK6RepRap23GetLegacyStatusResponseEhiEUljE2_E9_M_invokeERKSt9_Any_dataOj
                0x0000e1a0        0xa ./build/./RepRapFirmware/src/RepRap.o
 .text._ZNSt17_Function_handlerIFfjEZNK6RepRap17GetStatusResponseEh14ResponseSourceEUljE0_E9_M_invokeERKSt9_Any_dataOj
                0x0000e1aa        0xa ./build/./RepRapFirmware/src/RepRap.o
 .text._ZNSt17_Function_handlerIFfjEZNK6RepRap23GetLegacyStatusResponseEhiEUljE1_E9_M_invokeERKSt9_Any_dataOj
                0x0000e1b4       0x18 ./build/./RepRapFirmware/src/RepRap.o
 .text._ZNSt17_Function_handlerIFfjEZNK6RepRap17GetStatusResponseEh14ResponseSourceEUljE1_E9_M_invokeERKSt9_Any_dataOj
                0x0000e1cc        0xe ./build/./RepRapFirmware/src/RepRap.o
 *fill*         0x0000e1da        0x2 
 .text._ZNSt17_Function_handlerIFvjjEZNK6RepRap17GetStatusResponseEh14ResponseSourceEUljjE14_E9_M_invokeERKSt9_Any_dataOjS8_
                0x0000e1dc       0x24 ./build/./RepRapFirmware/src/RepRap.o
 .text._ZN15ExpressionValueC2EPK11ObjectModel
                0x0000e200       0x16 ./build/./RepRapFirmware/src/RepRap.o
                0x0000e200                ExpressionValue::ExpressionValue(ObjectModel const*)
                0x0000e200                ExpressionValue::ExpressionValue(ObjectModel const*)
 .text._ZN6RepRapUlPK11ObjectModelR24ObjectExplorationContextE22_4_FUNES2_S4_
                0x0000e216        0xe ./build/./RepRapFirmware/src/RepRap.o
 .text._ZN6RepRapUlPK11ObjectModelR24ObjectExplorationContextE21_4_FUNES2_S4_
                0x0000e224        0xe ./build/./RepRapFirmware/src/RepRap.o
 .text._ZN6RepRapUlPK11ObjectModelR24ObjectExplorationContextE19_4_FUNES2_S4_
                0x0000e232        0xe ./build/./RepRapFirmware/src/RepRap.o
 .text._ZN6RepRapUlPK11ObjectModelR24ObjectExplorationContextE17_4_FUNES2_S4_
                0x0000e240        0xe ./build/./RepRapFirmware/src/RepRap.o
 .text._ZN6RepRapUlPK11ObjectModelR24ObjectExplorationContextE23_4_FUNES2_S4_
                0x0000e24e       0x12 ./build/./RepRapFirmware/src/RepRap.o
 .text._ZN6RepRapUlPK11ObjectModelR24ObjectExplorationContextE8_4_FUNES2_S4_
                0x0000e260       0x20 ./build/./RepRapFirmware/src/RepRap.o
 .text._ZN6RepRapUlPK11ObjectModelR24ObjectExplorationContextE6_4_FUNES2_S4_
                0x0000e280       0x38 ./build/./RepRapFirmware/src/RepRap.o
 .text._ZN6RepRapUlPK11ObjectModelR24ObjectExplorationContextE4_4_FUNES2_S4_
                0x0000e2b8       0x1c ./build/./RepRapFirmware/src/RepRap.o
 .text._ZN6RepRapUlPK11ObjectModelR24ObjectExplorationContextE12_4_FUNES2_S4_
                0x0000e2d4       0x1c ./build/./RepRapFirmware/src/RepRap.o
 .text._ZN6RepRapUlPK11ObjectModelR24ObjectExplorationContextE2_4_FUNES2_S4_
                0x0000e2f0       0x2a ./build/./RepRapFirmware/src/RepRap.o
 .text._ZNK4Move17GetGeometryStringEv
                0x0000e31a        0xc ./build/./RepRapFirmware/src/RepRap.o
                0x0000e31a                Move::GetGeometryString() const
 *fill*         0x0000e326        0x2 
 .text._ZN6RepRapC2Ev
                0x0000e328       0x7c ./build/./RepRapFirmware/src/RepRap.o
                0x0000e328                RepRap::RepRap()
                0x0000e328                RepRap::RepRap()
 .text._ZN6RepRap6TimingE11MessageType
                0x0000e3a4       0x54 ./build/./RepRapFirmware/src/RepRap.o
                0x0000e3a4                RepRap::Timing(MessageType)
 .text._ZN6RepRap11DiagnosticsE11MessageType
                0x0000e3f8       0xa0 ./build/./RepRapFirmware/src/RepRap.o
                0x0000e3f8                RepRap::Diagnostics(MessageType)
 .text._ZN6RepRap4SpinEv
                0x0000e498      0x17c ./build/./RepRapFirmware/src/RepRap.o
                0x0000e498                RepRap::Spin()
 .text._ZN6RepRap14RunStartupFileEPKc
                0x0000e614       0x44 ./build/./RepRapFirmware/src/RepRap.o
                0x0000e614                RepRap::RunStartupFile(char const*)
 .text._ZN6RepRap13EmergencyStopEv
                0x0000e658       0x52 ./build/./RepRapFirmware/src/RepRap.o
                0x0000e658                RepRap::EmergencyStop()
 .text._ZN6RepRap8SetDebugE6Moduleb
                0x0000e6aa       0x24 ./build/./RepRapFirmware/src/RepRap.o
                0x0000e6aa                RepRap::SetDebug(Module, bool)
 .text._ZN6RepRap10ClearDebugEv
                0x0000e6ce        0x8 ./build/./RepRapFirmware/src/RepRap.o
                0x0000e6ce                RepRap::ClearDebug()
 *fill*         0x0000e6d6        0x2 
 .text._ZN6RepRap10PrintDebugE11MessageType
                0x0000e6d8       0xa8 ./build/./RepRapFirmware/src/RepRap.o
                0x0000e6d8                RepRap::PrintDebug(MessageType)
 .text._ZN6RepRap7AddToolEP4Tool
                0x0000e780       0x58 ./build/./RepRapFirmware/src/RepRap.o
                0x0000e780                RepRap::AddTool(Tool*)
 .text._ZNK6RepRap20GetLockedCurrentToolEv
                0x0000e7d8       0x20 ./build/./RepRapFirmware/src/RepRap.o
                0x0000e7d8                RepRap::GetLockedCurrentTool() const
 .text._ZNK6RepRap7GetToolEi
                0x0000e7f8       0x48 ./build/./RepRapFirmware/src/RepRap.o
                0x0000e7f8                RepRap::GetTool(int) const
 .text._ZN6RepRapUlPK11ObjectModelR24ObjectExplorationContextE10_4_FUNES2_S4_
                0x0000e840       0x2a ./build/./RepRapFirmware/src/RepRap.o
 .text._ZN6RepRap10SelectToolEib
                0x0000e86a       0x3a ./build/./RepRapFirmware/src/RepRap.o
                0x0000e86a                RepRap::SelectTool(int, bool)
 .text._ZN6RepRap10DeleteToolEi
                0x0000e8a4       0xb4 ./build/./RepRapFirmware/src/RepRap.o
                0x0000e8a4                RepRap::DeleteTool(int)
 .text._ZNK6RepRap9PrintToolEiRK9StringRef
                0x0000e958       0x30 ./build/./RepRapFirmware/src/RepRap.o
                0x0000e958                RepRap::PrintTool(int, StringRef const&) const
 .text._ZN6RepRap11StandbyToolEib
                0x0000e988       0x4c ./build/./RepRapFirmware/src/RepRap.o
                0x0000e988                RepRap::StandbyTool(int, bool)
 .text._ZNK6RepRap20GetCurrentToolNumberEv
                0x0000e9d4       0x12 ./build/./RepRapFirmware/src/RepRap.o
                0x0000e9d4                RepRap::GetCurrentToolNumber() const
 .text._ZN6RepRapUlPK11ObjectModelR24ObjectExplorationContextE56_4_FUNES2_S4_
                0x0000e9e6       0x14 ./build/./RepRapFirmware/src/RepRap.o
 *fill*         0x0000e9fa        0x2 
 .text._ZNK6RepRap23GetCurrentOrDefaultToolEv
                0x0000e9fc       0x24 ./build/./RepRapFirmware/src/RepRap.o
                0x0000e9fc                RepRap::GetCurrentOrDefaultTool() const
 .text._ZNK6RepRap22IsHeaterAssignedToToolEa
                0x0000ea20       0x4c ./build/./RepRapFirmware/src/RepRap.o
                0x0000ea20                RepRap::IsHeaterAssignedToTool(signed char) const
 .text._ZNK6RepRap26GetNumberOfContiguousToolsEv
                0x0000ea6c       0x34 ./build/./RepRapFirmware/src/RepRap.o
                0x0000ea6c                RepRap::GetNumberOfContiguousTools() const
 .text._ZNK6RepRap22ReportToolTemperaturesERK9StringRefPK4Toolb
                0x0000eaa0       0xac ./build/./RepRapFirmware/src/RepRap.o
                0x0000eaa0                RepRap::ReportToolTemperatures(StringRef const&, Tool const*, bool) const
 .text._ZNK6RepRap25ReportAllToolTemperaturesERK9StringRef
                0x0000eb4c       0x40 ./build/./RepRapFirmware/src/RepRap.o
                0x0000eb4c                RepRap::ReportAllToolTemperatures(StringRef const&) const
 .text._ZN6RepRap29SetAllToolsFirmwareRetractionER11GCodeBufferRK9StringRefRP12OutputBuffer
                0x0000eb8c       0x26 ./build/./RepRapFirmware/src/RepRap.o
                0x0000eb8c                RepRap::SetAllToolsFirmwareRetraction(GCodeBuffer&, StringRef const&, OutputBuffer*&)
 .text._ZNK6RepRap15GetCurrentXAxesEv
                0x0000ebb2        0x8 ./build/./RepRapFirmware/src/RepRap.o
                0x0000ebb2                RepRap::GetCurrentXAxes() const
 .text._ZNK6RepRap15GetCurrentYAxesEv
                0x0000ebba        0x8 ./build/./RepRapFirmware/src/RepRap.o
                0x0000ebba                RepRap::GetCurrentYAxes() const
 .text._ZN6RepRap21SetPreviousToolNumberEv
                0x0000ebc2       0x16 ./build/./RepRapFirmware/src/RepRap.o
                0x0000ebc2                RepRap::SetPreviousToolNumber()
 .text._ZN6RepRap4TickEv
                0x0000ebd8       0x6c ./build/./RepRapFirmware/src/RepRap.o
                0x0000ebd8                RepRap::Tick()
 .text._ZNK6RepRap19SpinTimeoutImminentEv
                0x0000ec44       0x10 ./build/./RepRapFirmware/src/RepRap.o
                0x0000ec44                RepRap::SpinTimeoutImminent() const
 .text._ZN6RepRap19GetFileInfoResponseEPKcRP12OutputBufferb
                0x0000ec54      0x19c ./build/./RepRapFirmware/src/RepRap.o
                0x0000ec54                RepRap::GetFileInfoResponse(char const*, OutputBuffer*&, bool)
 .text._ZN6RepRap16AppendFloatArrayEP12OutputBufferPKcjSt8functionIFfjEEj
                0x0000edf0       0x6c ./build/./RepRapFirmware/src/RepRap.o
                0x0000edf0                RepRap::AppendFloatArray(OutputBuffer*, char const*, unsigned int, std::function<float (unsigned int)>, unsigned int)
 .text._ZN6RepRap14AppendIntArrayEP12OutputBufferPKcjSt8functionIFijEE
                0x0000ee5c       0x64 ./build/./RepRapFirmware/src/RepRap.o
                0x0000ee5c                RepRap::AppendIntArray(OutputBuffer*, char const*, unsigned int, std::function<int (unsigned int)>)
 .text._ZN6RepRap17GetConfigResponseEv
                0x0000eec0      0x208 ./build/./RepRapFirmware/src/RepRap.o
                0x0000eec0                RepRap::GetConfigResponse()
 .text._ZN6RepRap17AppendStringArrayEP12OutputBufferPKcjSt8functionIFS3_jEE
                0x0000f0c8       0x5c ./build/./RepRapFirmware/src/RepRap.o
                0x0000f0c8                RepRap::AppendStringArray(OutputBuffer*, char const*, unsigned int, std::function<char const* (unsigned int)>)
 .text._ZNK6RepRap16GetModelResponseEPKcS1_
                0x0000f124       0xb4 ./build/./RepRapFirmware/src/RepRap.o
                0x0000f124                RepRap::GetModelResponse(char const*, char const*) const
 .text._ZN6RepRap4BeepEjj
                0x0000f1d8       0x66 ./build/./RepRapFirmware/src/RepRap.o
                0x0000f1d8                RepRap::Beep(unsigned int, unsigned int)
 .text._ZN6RepRap10SetMessageEPKc
                0x0000f23e       0x50 ./build/./RepRapFirmware/src/RepRap.o
                0x0000f23e                RepRap::SetMessage(char const*)
 *fill*         0x0000f28e        0x2 
 .text._ZN6RepRap8SetAlertEPKcS1_if6BitmapItE
                0x0000f290       0xb8 ./build/./RepRapFirmware/src/RepRap.o
                0x0000f290                RepRap::SetAlert(char const*, char const*, int, float, Bitmap<unsigned short>)
 .text._ZN6RepRap10ClearAlertEv
                0x0000f348       0x2c ./build/./RepRapFirmware/src/RepRap.o
                0x0000f348                RepRap::ClearAlert()
 .text._ZNK6RepRap14GetStatusIndexEv
                0x0000f374       0x7e ./build/./RepRapFirmware/src/RepRap.o
                0x0000f374                RepRap::GetStatusIndex() const
 *fill*         0x0000f3f2        0x2 
 .text._ZNK6RepRap23GetLegacyStatusResponseEhi
                0x0000f3f4      0x5a8 ./build/./RepRapFirmware/src/RepRap.o
                0x0000f3f4                RepRap::GetLegacyStatusResponse(unsigned char, int) const
 .text._ZNK6RepRap17GetStatusResponseEh14ResponseSource
                0x0000f99c      0xd40 ./build/./RepRapFirmware/src/RepRap.o
                0x0000f99c                RepRap::GetStatusResponse(unsigned char, ResponseSource) const
 .text._ZNK6RepRap15GetStatusStringEv
                0x000106dc       0x14 ./build/./RepRapFirmware/src/RepRap.o
                0x000106dc                RepRap::GetStatusString() const
 .text._ZN6RepRapUlPK11ObjectModelR24ObjectExplorationContextE68_4_FUNES2_S4_
                0x000106f0       0x14 ./build/./RepRapFirmware/src/RepRap.o
 .text._ZNK6RepRap7GetNameEv
                0x00010704        0x4 ./build/./RepRapFirmware/src/RepRap.o
                0x00010704                RepRap::GetName() const
 .text._ZN6RepRap7SetNameEPKc
                0x00010708       0x22 ./build/./RepRapFirmware/src/RepRap.o
                0x00010708                RepRap::SetName(char const*)
 .text._ZN6RepRap30GetProhibitedExtruderMovementsEjj
                0x0001072a       0x70 ./build/./RepRapFirmware/src/RepRap.o
                0x0001072a                RepRap::GetProhibitedExtruderMovements(unsigned int, unsigned int)
 *fill*         0x0001079a        0x2 
 .text._ZN6RepRap20FlagTemperatureFaultEa
                0x0001079c       0x28 ./build/./RepRapFirmware/src/RepRap.o
                0x0001079c                RepRap::FlagTemperatureFault(signed char)
 .text._ZN6RepRap21ClearTemperatureFaultEaRK9StringRef
                0x000107c4       0x34 ./build/./RepRapFirmware/src/RepRap.o
                0x000107c4                RepRap::ClearTemperatureFault(signed char, StringRef const&)
 .text._ZN6RepRap32CheckFirmwareUpdatePrerequisitesERK9StringRef
                0x000107f8       0x14 ./build/./RepRapFirmware/src/RepRap.o
                0x000107f8                RepRap::CheckFirmwareUpdatePrerequisites(StringRef const&)
 .text._ZN6RepRap14UpdateFirmwareEv
                0x0001080c        0x2 ./build/./RepRapFirmware/src/RepRap.o
                0x0001080c                RepRap::UpdateFirmware()
 .text._ZN6RepRap8DoDivideEmm
                0x0001080e        0x6 ./build/./RepRapFirmware/src/RepRap.o
                0x0001080e                RepRap::DoDivide(unsigned long, unsigned long)
 .text._ZN6RepRap16GenerateBusFaultEv
                0x00010814        0x8 ./build/./RepRapFirmware/src/RepRap.o
                0x00010814                RepRap::GenerateBusFault()
 .text._ZN6RepRap8SinfCosfEf
                0x0001081c       0x1a ./build/./RepRapFirmware/src/RepRap.o
                0x0001081c                RepRap::SinfCosf(float)
 *fill*         0x00010836        0x2 
 .text._ZNK6RepRap19ReportInternalErrorEPKcS1_i
                0x00010838       0x20 ./build/./RepRapFirmware/src/RepRap.o
                0x00010838                RepRap::ReportInternalError(char const*, char const*, int) const
 .text._ZN6StringILj20EE10CopyAndPadEPKc
                0x00010858       0x1e ./build/./RepRapFirmware/src/RepRap.o
                0x00010858                String<20u>::CopyAndPad(char const*)
 .text._ZN6RepRap11SetPasswordEPKc
                0x00010876        0xa ./build/./RepRapFirmware/src/RepRap.o
                0x00010876                RepRap::SetPassword(char const*)
 .text._ZN6RepRap4InitEv
                0x00010880      0x188 ./build/./RepRapFirmware/src/RepRap.o
                0x00010880                RepRap::Init()
 .text.startup._GLOBAL__sub_I_VersionText
                0x00010a08       0x10 ./build/./RepRapFirmware/src/RepRap.o
 .text._ZNSt14_Function_base13_Base_managerIZ11ListDriversRK9StringRef6BitmapImEEUljjE_E10_M_managerERSt9_Any_dataRKS8_St18_Manager_operation
                0x00010a18       0x1a ./build/./RepRapFirmware/src/RepRapFirmware.o
 *fill*         0x00010a32        0x2 
 .text._ZNSt17_Function_handlerIFvjjEZ11ListDriversRK9StringRef6BitmapImEEUljjE_E9_M_invokeERKSt9_Any_dataOjSB_
                0x00010a34        0xc ./build/./RepRapFirmware/src/RepRapFirmware.o
 .text._Z20GetFloatFormatStringj
                0x00010a40       0x14 ./build/./RepRapFirmware/src/RepRapFirmware.o
                0x00010a40                GetFloatFormatString(unsigned int)
 .text._Z13GetModuleNameh
                0x00010a54       0x18 ./build/./RepRapFirmware/src/RepRapFirmware.o
                0x00010a54                GetModuleName(unsigned char)
 .text._ZN11MillisTimer5StartEv
                0x00010a6c       0x10 ./build/./RepRapFirmware/src/RepRapFirmware.o
                0x00010a6c                MillisTimer::Start()
 .text._ZNK11MillisTimer5CheckEm
                0x00010a7c       0x1c ./build/./RepRapFirmware/src/RepRapFirmware.o
                0x00010a7c                MillisTimer::Check(unsigned long) const
 .text._ZN11MillisTimer12CheckAndStopEm
                0x00010a98       0x10 ./build/./RepRapFirmware/src/RepRapFirmware.o
                0x00010a98                MillisTimer::CheckAndStop(unsigned long)
 .text.debugPrintf
                0x00010aa8       0x2c ./build/./RepRapFirmware/src/RepRapFirmware.o
                0x00010aa8                debugPrintf
 .text._Z5delaym
