Archive member included to satisfy reference by file (symbol)

./build/\libLPCCore.a(startup_LPC17xx.o)
                              (Reset_Handler)
./build/\libLPCCore.a(main.o)
                              c:/users/andy/.vscode/extensions/metalcode-eu.windows-arm-none-eabi-0.1.6/bin/../lib/gcc/arm-none-eabi/8.2.1/../../../../arm-none-eabi/lib/thumb/v7-m/nofp/crt0.o (main)
./build/\libLPCCore.a(variant.o)
                              ./build/\libLPCCore.a(main.o) (init())
./build/\libLPCCore.a(heap_5.o)
                              ./build/\libLPCCore.a(main.o) (vPortDefineHeapRegions)
./build/\libLPCCore.a(systick.o)
                              ./build/\libLPCCore.a(main.o) (SysTick_Init)
./build/\libLPCCore.a(system_LPC17xx.o)
                              ./build/\libLPCCore.a(main.o) (SystemInit)
./build/\libLPCCore.a(clock_17xx_40xx.o)
                              ./build/\libLPCCore.a(system_LPC17xx.o) (Chip_Clock_EnablePLL)
./build/\libLPCCore.a(iap.o)  ./build/\libLPCCore.a(system_LPC17xx.o) (Chip_IAP_ReadPID)
./build/\libLPCCore.a(AnalogIn.o)
                              ./build/\libLPCCore.a(variant.o) (AnalogInInit())
./build/\libLPCCore.a(AnalogOut.o)
                              ./build/\libLPCCore.a(variant.o) (AnalogOutInit())
./build/\libLPCCore.a(AnalogOutServo.o)
                              ./build/\libLPCCore.a(AnalogOut.o) (AnalogWriteServo(float, unsigned short, gpioPins_et))
./build/\libLPCCore.a(AnalogOutSoftwarePWM.o)
                              ./build/\libLPCCore.a(AnalogOut.o) (CanDoSoftwarePWM(gpioPins_et))
./build/\libLPCCore.a(new.o)  ./build/\libLPCCore.a(AnalogOutSoftwarePWM.o) (operator new(unsigned int))
./build/\libLPCCore.a(wiring_digital.o)
                              ./build/\libLPCCore.a(AnalogOut.o) (pinModeDuet)
./build/\libLPCCore.a(SoftwarePWM.o)
                              ./build/\libLPCCore.a(AnalogOutSoftwarePWM.o) (SoftwarePWM::SoftwarePWM(gpioPins_et))
./build/\libLPCCore.a(SoftwarePWMTimer.o)
                              ./build/\libLPCCore.a(SoftwarePWM.o) (SoftwarePWMTimer::disable(int))
./build/\libLPCCore.a(tasks.o)
                              ./build/\libLPCCore.a(heap_5.o) (vTaskSuspendAll)
./build/\libLPCCore.a(port.o)
                              ./build/\libLPCCore.a(tasks.o) (pxPortInitialiseStack)
./build/\libLPCCore.a(gpio.o)
                              ./build/\libLPCCore.a(AnalogIn.o) (GPIO_PinFunction)
./build/\libLPCCore.a(adc_17xx_40xx.o)
                              ./build/\libLPCCore.a(AnalogIn.o) (Chip_ADC_Init)
./build/\libLPCCore.a(ADCPreFilter.o)
                              ./build/\libLPCCore.a(AnalogIn.o) (ADCPreFilter::UpdateChannels(unsigned char))
./build/\libLPCCore.a(DMA.o)  ./build/\libLPCCore.a(ADCPreFilter.o) (InitialiseDMA())
./build/\libLPCCore.a(list.o)
                              ./build/\libLPCCore.a(tasks.o) (vListInitialise)
./build/\libLPCCore.a(gpdma_17xx_40xx.o)
                              ./build/\libLPCCore.a(DMA.o) (Chip_GPDMA_Init)
c:/users/andy/.vscode/extensions/metalcode-eu.windows-arm-none-eabi-0.1.6/bin/../lib/gcc/arm-none-eabi/8.2.1/../../../../arm-none-eabi/lib/thumb/v7-m/nofp\libsupc++.a(atexit_arm.o)
                              ./build/./RepRapFirmware/src/RepRapFirmware.o (__aeabi_atexit)
c:/users/andy/.vscode/extensions/metalcode-eu.windows-arm-none-eabi-0.1.6/bin/../lib/gcc/arm-none-eabi/8.2.1/../../../../arm-none-eabi/lib/thumb/v7-m/nofp\libsupc++.a(class_type_info.o)
                              ./build/./RepRapFirmware/src/GCodes/GCodes.o (vtable for __cxxabiv1::__class_type_info)
c:/users/andy/.vscode/extensions/metalcode-eu.windows-arm-none-eabi-0.1.6/bin/../lib/gcc/arm-none-eabi/8.2.1/../../../../arm-none-eabi/lib/thumb/v7-m/nofp\libsupc++.a(eh_arm.o)
                              ./build/./RepRapFirmware/src/Platform.o (__cxa_end_cleanup)
c:/users/andy/.vscode/extensions/metalcode-eu.windows-arm-none-eabi-0.1.6/bin/../lib/gcc/arm-none-eabi/8.2.1/../../../../arm-none-eabi/lib/thumb/v7-m/nofp\libsupc++.a(eh_catch.o)
                              ./build/./RepRapFirmware/src/RepRap.o (__cxa_begin_catch)
c:/users/andy/.vscode/extensions/metalcode-eu.windows-arm-none-eabi-0.1.6/bin/../lib/gcc/arm-none-eabi/8.2.1/../../../../arm-none-eabi/lib/thumb/v7-m/nofp\libsupc++.a(eh_exception.o)
                              c:/users/andy/.vscode/extensions/metalcode-eu.windows-arm-none-eabi-0.1.6/bin/../lib/gcc/arm-none-eabi/8.2.1/../../../../arm-none-eabi/lib/thumb/v7-m/nofp\libsupc++.a(eh_arm.o) (typeinfo for __cxxabiv1::__forced_unwind)
c:/users/andy/.vscode/extensions/metalcode-eu.windows-arm-none-eabi-0.1.6/bin/../lib/gcc/arm-none-eabi/8.2.1/../../../../arm-none-eabi/lib/thumb/v7-m/nofp\libsupc++.a(eh_globals.o)
                              c:/users/andy/.vscode/extensions/metalcode-eu.windows-arm-none-eabi-0.1.6/bin/../lib/gcc/arm-none-eabi/8.2.1/../../../../arm-none-eabi/lib/thumb/v7-m/nofp\libsupc++.a(eh_catch.o) (__cxa_get_globals_fast)
c:/users/andy/.vscode/extensions/metalcode-eu.windows-arm-none-eabi-0.1.6/bin/../lib/gcc/arm-none-eabi/8.2.1/../../../../arm-none-eabi/lib/thumb/v7-m/nofp\libsupc++.a(eh_personality.o)
                              ./build/./RepRapFirmware/src/Logger.o (__gxx_personality_v0)
c:/users/andy/.vscode/extensions/metalcode-eu.windows-arm-none-eabi-0.1.6/bin/../lib/gcc/arm-none-eabi/8.2.1/../../../../arm-none-eabi/lib/thumb/v7-m/nofp\libsupc++.a(eh_terminate.o)
                              ./build/./RepRapFirmware/src/libcpp/eh_alloc.o (std::terminate())
c:/users/andy/.vscode/extensions/metalcode-eu.windows-arm-none-eabi-0.1.6/bin/../lib/gcc/arm-none-eabi/8.2.1/../../../../arm-none-eabi/lib/thumb/v7-m/nofp\libsupc++.a(eh_throw.o)
                              ./build/./RepRapFirmware/src/GCodes/GCodes.o (__cxa_throw)
c:/users/andy/.vscode/extensions/metalcode-eu.windows-arm-none-eabi-0.1.6/bin/../lib/gcc/arm-none-eabi/8.2.1/../../../../arm-none-eabi/lib/thumb/v7-m/nofp\libsupc++.a(eh_unex_handler.o)
                              c:/users/andy/.vscode/extensions/metalcode-eu.windows-arm-none-eabi-0.1.6/bin/../lib/gcc/arm-none-eabi/8.2.1/../../../../arm-none-eabi/lib/thumb/v7-m/nofp\libsupc++.a(eh_terminate.o) (__cxxabiv1::__unexpected_handler)
c:/users/andy/.vscode/extensions/metalcode-eu.windows-arm-none-eabi-0.1.6/bin/../lib/gcc/arm-none-eabi/8.2.1/../../../../arm-none-eabi/lib/thumb/v7-m/nofp\libsupc++.a(si_class_type_info.o)
                              c:/users/andy/.vscode/extensions/metalcode-eu.windows-arm-none-eabi-0.1.6/bin/../lib/gcc/arm-none-eabi/8.2.1/../../../../arm-none-eabi/lib/thumb/v7-m/nofp\libsupc++.a(class_type_info.o) (vtable for __cxxabiv1::__si_class_type_info)
c:/users/andy/.vscode/extensions/metalcode-eu.windows-arm-none-eabi-0.1.6/bin/../lib/gcc/arm-none-eabi/8.2.1/../../../../arm-none-eabi/lib/thumb/v7-m/nofp\libsupc++.a(tinfo.o)
                              c:/users/andy/.vscode/extensions/metalcode-eu.windows-arm-none-eabi-0.1.6/bin/../lib/gcc/arm-none-eabi/8.2.1/../../../../arm-none-eabi/lib/thumb/v7-m/nofp\libsupc++.a(class_type_info.o) (std::type_info::~type_info())
c:/users/andy/.vscode/extensions/metalcode-eu.windows-arm-none-eabi-0.1.6/bin/../lib/gcc/arm-none-eabi/8.2.1/../../../../arm-none-eabi/lib/thumb/v7-m/nofp\libsupc++.a(eh_call.o)
                              c:/users/andy/.vscode/extensions/metalcode-eu.windows-arm-none-eabi-0.1.6/bin/../lib/gcc/arm-none-eabi/8.2.1/../../../../arm-none-eabi/lib/thumb/v7-m/nofp\libsupc++.a(eh_personality.o) (__cxa_call_terminate)
./build/\libRRFLibraries.a(IP4String.o)
                              ./build/./RepRapFirmware/src/ObjectModel/ObjectModel.o (IP4String::IP4String(unsigned long))
./build/\libRRFLibraries.a(IPAddress.o)
                              ./build/./RepRapFirmware/src/GCodes/GCodeBuffer/StringParser.o (IPAddress::SetV4(unsigned char const*))
./build/\libRRFLibraries.a(NamedEnum.o)
                              ./build/./RepRapFirmware/src/GCodes/GCodeBuffer/ExpressionParser.o (NamedEnumLookup(char const*, char const* const*, unsigned int))
./build/\libRRFLibraries.a(NumericConverter.o)
                              ./build/./RepRapFirmware/src/GCodes/GCodeBuffer/ExpressionParser.o (NumericConverter::FitsInInt32() const)
./build/\libRRFLibraries.a(SafeStrtod.o)
                              ./build/./RepRapFirmware/src/GCodes/GCodes3.o (SafeStrtof(char const*, char const**))
./build/\libRRFLibraries.a(SafeVsnprintf.o)
                              ./build/./RepRapFirmware/src/bossa/Samba.o (SafeSnprintf(char*, unsigned int, char const*, ...))
./build/\libRRFLibraries.a(StringBuffer.o)
                              ./build/./RepRapFirmware/src/GCodes/GCodeBuffer/ExpressionParser.o (StringBuffer::Fix())
./build/\libRRFLibraries.a(StringFunctions.o)
                              ./build/./RepRapFirmware/src/GCodes/GCodes.o (StringEqualsIgnoreCase(char const*, char const*))
./build/\libRRFLibraries.a(StringRef.o)
                              ./build/./RepRapFirmware/src/OutputMemory.o (StringRef::strlen() const)
./build/\libRRFLibraries.a(Strnlen.o)
                              ./build/./RepRapFirmware/src/Platform.o (Strnlen(char const*, unsigned int))
./build/\libRRFLibraries.a(Deviation.o)
                              ./build/./RepRapFirmware/src/GCodes/GCodes4.o (Deviation::Deviation())
./build/\libRRFLibraries.a(DeviationAccumulator.o)
                              ./build/./RepRapFirmware/src/Heating/LocalHeater.o (DeviationAccumulator::DeviationAccumulator())
./build/\libRRFLibraries.a(Isqrt.o)
                              ./build/./RepRapFirmware/src/Platform.o (isqrt64(unsigned long long))
./build/\libRRFLibraries.a(RTOSIface.o)
                              ./build/./RepRapFirmware/src/Platform.o (Mutex::Create(char const*))
./build/\libLPCCore.a(wdt.o)  ./build/./RepRapFirmware/src/RepRap.o (WatchdogEnable)
./build/\libLPCCore.a(timer.o)
                              ./build/./RepRapFirmware/src/Movement/StepTimer.o (getPclk)
./build/\libLPCCore.a(Core.o)
                              ./build/./RepRapFirmware/src/GCodes/GCodes.o (memcpyu32(unsigned long*, unsigned long const*, unsigned int))
./build/\libLPCCore.a(Reset.o)
                              ./build/./RepRapFirmware/src/Hardware/ExceptionHandlers.o (Reset)
./build/\libLPCCore.a(WMath.o)
                              ./build/./RepRapFirmware/src/GCodes/GCodeBuffer/ExpressionParser.o (random(long))
./build/\libLPCCore.a(exti.o)
                              ./build/./RepRapFirmware/src/Hardware/IoPorts.o (attachInterrupt(gpioPins_et, void (*)(CallbackParameter) noexcept, InterruptMode, CallbackParameter))
./build/\libLPCCore.a(SerialUSB.o)
                              ./build/./RepRapFirmware/src/Platform.o (SerialUSB::write(unsigned char))
./build/\libLPCCore.a(wirish_time.o)
                              ./build/./RepRapFirmware/src/Hardware/SharedSpi/SharedSpiClient.o (delayMicroseconds)
./build/\libLPCCore.a(USBCDC.o)
                              ./build/\libLPCCore.a(SerialUSB.o) (USBCDC::send_nb(unsigned char*, unsigned long, unsigned long*, bool))
./build/\libLPCCore.a(USBSerial.o)
                              ./build/\libLPCCore.a(SerialUSB.o) (USBSerial::USBSerial(bool, unsigned short, unsigned short, unsigned short))
./build/\libLPCCore.a(ConfigurableUART.o)
                              ./build/./RepRapFirmware/src/GCodes/GCodes.o (ConfigurableUART::read())
./build/\libLPCCore.a(HardwareSPI.o)
                              ./build/./RepRapFirmware/src/Networking/ESP8266WiFi/WiFiInterface.o (HardwareSPI::flushRx())
./build/\libLPCCore.a(SPI.o)  ./build/./RepRapFirmware/src/Hardware/SharedSpi/SharedSpiDevice.o (SPI::getSSPDevice(SSPChannel))
./build/\libLPCCore.a(Wire.o)
                              ./build/./RepRapFirmware/src/targets/LPC/MCP4461/MCP4461.o (TwoWire::begin(unsigned char))
./build/\libLPCCore.a(WireBase.o)
                              ./build/./RepRapFirmware/src/targets/LPC/MCP4461/MCP4461.o (WireBase::beginTransmission(unsigned char))
./build/\libLPCCore.a(queue.o)
                              ./build/\libRRFLibraries.a(RTOSIface.o) (xQueueGenericCreateStatic)
./build/\libLPCCore.a(delay.o)
                              ./build/\libLPCCore.a(wirish_time.o) (delay_us)
./build/\libLPCCore.a(iocon_17xx_40xx.o)
                              ./build/\libLPCCore.a(HardwareSPI.o) (Chip_IOCON_PinMux)
./build/\libLPCCore.a(ssp_17xx_40xx.o)
                              ./build/\libLPCCore.a(HardwareSPI.o) (Chip_SSP_SetBitRate)
./build/\libLPCCore.a(HardwareSerial.o)
                              ./build/\libLPCCore.a(ConfigurableUART.o) (HardwareSerial::begin(unsigned long))
./build/\libLPCCore.a(usart.o)
                              ./build/\libLPCCore.a(HardwareSerial.o) (usart_init)
./build/\libLPCCore.a(USBHAL_LPC17.o)
                              ./build/\libLPCCore.a(USBCDC.o) (get_usb_phy())
./build/\libLPCCore.a(EndpointResolver.o)
                              ./build/\libLPCCore.a(USBCDC.o) (EndpointResolver::EndpointResolver(usb_ep_table_t const*))
./build/\libLPCCore.a(USBDevice.o)
                              ./build/\libLPCCore.a(USBCDC.o) (USBDevice::out_packet(unsigned char))
./build/\libLPCCore.a(SoftwareSPI.o)
                              ./build/\libLPCCore.a(SPI.o) (SoftwareSPI::SWSSP0)
./build/\libLPCCore.a(ring_buffer.o)
                              ./build/\libLPCCore.a(HardwareSerial.o) (RingBuffer_Init)
./build/\libLPCCore.a(uart_17xx_40xx.o)
                              ./build/\libLPCCore.a(usart.o) (Chip_UART_TXEnable)
./build/\libLPCCore.a(mbed_critical.o)
                              ./build/\libLPCCore.a(USBDevice.o) (core_util_critical_section_enter)
c:/users/andy/.vscode/extensions/metalcode-eu.windows-arm-none-eabi-0.1.6/bin/../lib/gcc/arm-none-eabi/8.2.1/../../../../arm-none-eabi/lib/thumb/v7-m/nofp\libm.a(lib_a-s_llrint.o)
                              ./build/\libRRFLibraries.a(SafeVsnprintf.o) (llrint)
c:/users/andy/.vscode/extensions/metalcode-eu.windows-arm-none-eabi-0.1.6/bin/../lib/gcc/arm-none-eabi/8.2.1/../../../../arm-none-eabi/lib/thumb/v7-m/nofp\libm.a(lib_a-sf_atan.o)
                              ./build/./RepRapFirmware/src/GCodes/GCodes2.o (atanf)
c:/users/andy/.vscode/extensions/metalcode-eu.windows-arm-none-eabi-0.1.6/bin/../lib/gcc/arm-none-eabi/8.2.1/../../../../arm-none-eabi/lib/thumb/v7-m/nofp\libm.a(lib_a-sf_cos.o)
                              ./build/./RepRapFirmware/src/RepRap.o (cosf)
c:/users/andy/.vscode/extensions/metalcode-eu.windows-arm-none-eabi-0.1.6/bin/../lib/gcc/arm-none-eabi/8.2.1/../../../../arm-none-eabi/lib/thumb/v7-m/nofp\libm.a(lib_a-sf_fabs.o)
                              c:/users/andy/.vscode/extensions/metalcode-eu.windows-arm-none-eabi-0.1.6/bin/../lib/gcc/arm-none-eabi/8.2.1/../../../../arm-none-eabi/lib/thumb/v7-m/nofp\libm.a(lib_a-sf_atan.o) (fabsf)
c:/users/andy/.vscode/extensions/metalcode-eu.windows-arm-none-eabi-0.1.6/bin/../lib/gcc/arm-none-eabi/8.2.1/../../../../arm-none-eabi/lib/thumb/v7-m/nofp\libm.a(lib_a-sf_floor.o)
                              ./build/./RepRapFirmware/src/GCodes/GCodes.o (floorf)
c:/users/andy/.vscode/extensions/metalcode-eu.windows-arm-none-eabi-0.1.6/bin/../lib/gcc/arm-none-eabi/8.2.1/../../../../arm-none-eabi/lib/thumb/v7-m/nofp\libm.a(lib_a-sf_lrint.o)
                              ./build/./RepRapFirmware/src/Platform.o (lrintf)
c:/users/andy/.vscode/extensions/metalcode-eu.windows-arm-none-eabi-0.1.6/bin/../lib/gcc/arm-none-eabi/8.2.1/../../../../arm-none-eabi/lib/thumb/v7-m/nofp\libm.a(lib_a-sf_round.o)
                              ./build/./RepRapFirmware/src/RepRap.o (roundf)
c:/users/andy/.vscode/extensions/metalcode-eu.windows-arm-none-eabi-0.1.6/bin/../lib/gcc/arm-none-eabi/8.2.1/../../../../arm-none-eabi/lib/thumb/v7-m/nofp\libm.a(lib_a-sf_sin.o)
                              ./build/./RepRapFirmware/src/RepRap.o (sinf)
c:/users/andy/.vscode/extensions/metalcode-eu.windows-arm-none-eabi-0.1.6/bin/../lib/gcc/arm-none-eabi/8.2.1/../../../../arm-none-eabi/lib/thumb/v7-m/nofp\libm.a(lib_a-sf_tan.o)
                              ./build/./RepRapFirmware/src/GCodes/GCodeBuffer/ExpressionParser.o (tanf)
c:/users/andy/.vscode/extensions/metalcode-eu.windows-arm-none-eabi-0.1.6/bin/../lib/gcc/arm-none-eabi/8.2.1/../../../../arm-none-eabi/lib/thumb/v7-m/nofp\libm.a(lib_a-w_pow.o)
                              ./build/\libRRFLibraries.a(NumericConverter.o) (pow)
c:/users/andy/.vscode/extensions/metalcode-eu.windows-arm-none-eabi-0.1.6/bin/../lib/gcc/arm-none-eabi/8.2.1/../../../../arm-none-eabi/lib/thumb/v7-m/nofp\libm.a(lib_a-wf_acos.o)
                              ./build/./RepRapFirmware/src/GCodes/GCodeBuffer/ExpressionParser.o (acosf)
c:/users/andy/.vscode/extensions/metalcode-eu.windows-arm-none-eabi-0.1.6/bin/../lib/gcc/arm-none-eabi/8.2.1/../../../../arm-none-eabi/lib/thumb/v7-m/nofp\libm.a(lib_a-wf_asin.o)
                              ./build/./RepRapFirmware/src/GCodes/GCodeBuffer/ExpressionParser.o (asinf)
c:/users/andy/.vscode/extensions/metalcode-eu.windows-arm-none-eabi-0.1.6/bin/../lib/gcc/arm-none-eabi/8.2.1/../../../../arm-none-eabi/lib/thumb/v7-m/nofp\libm.a(lib_a-wf_atan2.o)
                              ./build/./RepRapFirmware/src/GCodes/GCodes.o (atan2f)
c:/users/andy/.vscode/extensions/metalcode-eu.windows-arm-none-eabi-0.1.6/bin/../lib/gcc/arm-none-eabi/8.2.1/../../../../arm-none-eabi/lib/thumb/v7-m/nofp\libm.a(lib_a-wf_fmod.o)
                              ./build/./RepRapFirmware/src/GCodes/GCodeBuffer/ExpressionParser.o (fmodf)
c:/users/andy/.vscode/extensions/metalcode-eu.windows-arm-none-eabi-0.1.6/bin/../lib/gcc/arm-none-eabi/8.2.1/../../../../arm-none-eabi/lib/thumb/v7-m/nofp\libm.a(lib_a-wf_log.o)
                              ./build/./RepRapFirmware/src/Heating/Sensors/Thermistor.o (logf)
c:/users/andy/.vscode/extensions/metalcode-eu.windows-arm-none-eabi-0.1.6/bin/../lib/gcc/arm-none-eabi/8.2.1/../../../../arm-none-eabi/lib/thumb/v7-m/nofp\libm.a(lib_a-wf_pow.o)
                              ./build/./RepRapFirmware/src/Heating/FOPDT.o (powf)
c:/users/andy/.vscode/extensions/metalcode-eu.windows-arm-none-eabi-0.1.6/bin/../lib/gcc/arm-none-eabi/8.2.1/../../../../arm-none-eabi/lib/thumb/v7-m/nofp\libm.a(lib_a-wf_sqrt.o)
                              ./build/./RepRapFirmware/src/GCodes/GCodes.o (sqrtf)
c:/users/andy/.vscode/extensions/metalcode-eu.windows-arm-none-eabi-0.1.6/bin/../lib/gcc/arm-none-eabi/8.2.1/../../../../arm-none-eabi/lib/thumb/v7-m/nofp\libm.a(lib_a-e_pow.o)
                              c:/users/andy/.vscode/extensions/metalcode-eu.windows-arm-none-eabi-0.1.6/bin/../lib/gcc/arm-none-eabi/8.2.1/../../../../arm-none-eabi/lib/thumb/v7-m/nofp\libm.a(lib_a-w_pow.o) (__ieee754_pow)
c:/users/andy/.vscode/extensions/metalcode-eu.windows-arm-none-eabi-0.1.6/bin/../lib/gcc/arm-none-eabi/8.2.1/../../../../arm-none-eabi/lib/thumb/v7-m/nofp\libm.a(lib_a-e_sqrt.o)
                              c:/users/andy/.vscode/extensions/metalcode-eu.windows-arm-none-eabi-0.1.6/bin/../lib/gcc/arm-none-eabi/8.2.1/../../../../arm-none-eabi/lib/thumb/v7-m/nofp\libm.a(lib_a-e_pow.o) (__ieee754_sqrt)
c:/users/andy/.vscode/extensions/metalcode-eu.windows-arm-none-eabi-0.1.6/bin/../lib/gcc/arm-none-eabi/8.2.1/../../../../arm-none-eabi/lib/thumb/v7-m/nofp\libm.a(lib_a-ef_acos.o)
                              c:/users/andy/.vscode/extensions/metalcode-eu.windows-arm-none-eabi-0.1.6/bin/../lib/gcc/arm-none-eabi/8.2.1/../../../../arm-none-eabi/lib/thumb/v7-m/nofp\libm.a(lib_a-wf_acos.o) (__ieee754_acosf)
c:/users/andy/.vscode/extensions/metalcode-eu.windows-arm-none-eabi-0.1.6/bin/../lib/gcc/arm-none-eabi/8.2.1/../../../../arm-none-eabi/lib/thumb/v7-m/nofp\libm.a(lib_a-ef_asin.o)
                              c:/users/andy/.vscode/extensions/metalcode-eu.windows-arm-none-eabi-0.1.6/bin/../lib/gcc/arm-none-eabi/8.2.1/../../../../arm-none-eabi/lib/thumb/v7-m/nofp\libm.a(lib_a-wf_asin.o) (__ieee754_asinf)
c:/users/andy/.vscode/extensions/metalcode-eu.windows-arm-none-eabi-0.1.6/bin/../lib/gcc/arm-none-eabi/8.2.1/../../../../arm-none-eabi/lib/thumb/v7-m/nofp\libm.a(lib_a-ef_atan2.o)
                              c:/users/andy/.vscode/extensions/metalcode-eu.windows-arm-none-eabi-0.1.6/bin/../lib/gcc/arm-none-eabi/8.2.1/../../../../arm-none-eabi/lib/thumb/v7-m/nofp\libm.a(lib_a-wf_atan2.o) (__ieee754_atan2f)
c:/users/andy/.vscode/extensions/metalcode-eu.windows-arm-none-eabi-0.1.6/bin/../lib/gcc/arm-none-eabi/8.2.1/../../../../arm-none-eabi/lib/thumb/v7-m/nofp\libm.a(lib_a-ef_fmod.o)
                              c:/users/andy/.vscode/extensions/metalcode-eu.windows-arm-none-eabi-0.1.6/bin/../lib/gcc/arm-none-eabi/8.2.1/../../../../arm-none-eabi/lib/thumb/v7-m/nofp\libm.a(lib_a-wf_fmod.o) (__ieee754_fmodf)
c:/users/andy/.vscode/extensions/metalcode-eu.windows-arm-none-eabi-0.1.6/bin/../lib/gcc/arm-none-eabi/8.2.1/../../../../arm-none-eabi/lib/thumb/v7-m/nofp\libm.a(lib_a-ef_log.o)
                              c:/users/andy/.vscode/extensions/metalcode-eu.windows-arm-none-eabi-0.1.6/bin/../lib/gcc/arm-none-eabi/8.2.1/../../../../arm-none-eabi/lib/thumb/v7-m/nofp\libm.a(lib_a-wf_log.o) (__ieee754_logf)
c:/users/andy/.vscode/extensions/metalcode-eu.windows-arm-none-eabi-0.1.6/bin/../lib/gcc/arm-none-eabi/8.2.1/../../../../arm-none-eabi/lib/thumb/v7-m/nofp\libm.a(lib_a-ef_pow.o)
                              c:/users/andy/.vscode/extensions/metalcode-eu.windows-arm-none-eabi-0.1.6/bin/../lib/gcc/arm-none-eabi/8.2.1/../../../../arm-none-eabi/lib/thumb/v7-m/nofp\libm.a(lib_a-wf_pow.o) (__ieee754_powf)
c:/users/andy/.vscode/extensions/metalcode-eu.windows-arm-none-eabi-0.1.6/bin/../lib/gcc/arm-none-eabi/8.2.1/../../../../arm-none-eabi/lib/thumb/v7-m/nofp\libm.a(lib_a-ef_rem_pio2.o)
                              c:/users/andy/.vscode/extensions/metalcode-eu.windows-arm-none-eabi-0.1.6/bin/../lib/gcc/arm-none-eabi/8.2.1/../../../../arm-none-eabi/lib/thumb/v7-m/nofp\libm.a(lib_a-sf_cos.o) (__ieee754_rem_pio2f)
c:/users/andy/.vscode/extensions/metalcode-eu.windows-arm-none-eabi-0.1.6/bin/../lib/gcc/arm-none-eabi/8.2.1/../../../../arm-none-eabi/lib/thumb/v7-m/nofp\libm.a(lib_a-ef_sqrt.o)
                              c:/users/andy/.vscode/extensions/metalcode-eu.windows-arm-none-eabi-0.1.6/bin/../lib/gcc/arm-none-eabi/8.2.1/../../../../arm-none-eabi/lib/thumb/v7-m/nofp\libm.a(lib_a-wf_sqrt.o) (__ieee754_sqrtf)
c:/users/andy/.vscode/extensions/metalcode-eu.windows-arm-none-eabi-0.1.6/bin/../lib/gcc/arm-none-eabi/8.2.1/../../../../arm-none-eabi/lib/thumb/v7-m/nofp\libm.a(lib_a-kf_cos.o)
                              c:/users/andy/.vscode/extensions/metalcode-eu.windows-arm-none-eabi-0.1.6/bin/../lib/gcc/arm-none-eabi/8.2.1/../../../../arm-none-eabi/lib/thumb/v7-m/nofp\libm.a(lib_a-sf_cos.o) (__kernel_cosf)
c:/users/andy/.vscode/extensions/metalcode-eu.windows-arm-none-eabi-0.1.6/bin/../lib/gcc/arm-none-eabi/8.2.1/../../../../arm-none-eabi/lib/thumb/v7-m/nofp\libm.a(lib_a-kf_rem_pio2.o)
                              c:/users/andy/.vscode/extensions/metalcode-eu.windows-arm-none-eabi-0.1.6/bin/../lib/gcc/arm-none-eabi/8.2.1/../../../../arm-none-eabi/lib/thumb/v7-m/nofp\libm.a(lib_a-ef_rem_pio2.o) (__kernel_rem_pio2f)
c:/users/andy/.vscode/extensions/metalcode-eu.windows-arm-none-eabi-0.1.6/bin/../lib/gcc/arm-none-eabi/8.2.1/../../../../arm-none-eabi/lib/thumb/v7-m/nofp\libm.a(lib_a-kf_sin.o)
                              c:/users/andy/.vscode/extensions/metalcode-eu.windows-arm-none-eabi-0.1.6/bin/../lib/gcc/arm-none-eabi/8.2.1/../../../../arm-none-eabi/lib/thumb/v7-m/nofp\libm.a(lib_a-sf_cos.o) (__kernel_sinf)
c:/users/andy/.vscode/extensions/metalcode-eu.windows-arm-none-eabi-0.1.6/bin/../lib/gcc/arm-none-eabi/8.2.1/../../../../arm-none-eabi/lib/thumb/v7-m/nofp\libm.a(lib_a-kf_tan.o)
                              c:/users/andy/.vscode/extensions/metalcode-eu.windows-arm-none-eabi-0.1.6/bin/../lib/gcc/arm-none-eabi/8.2.1/../../../../arm-none-eabi/lib/thumb/v7-m/nofp\libm.a(lib_a-sf_tan.o) (__kernel_tanf)
c:/users/andy/.vscode/extensions/metalcode-eu.windows-arm-none-eabi-0.1.6/bin/../lib/gcc/arm-none-eabi/8.2.1/../../../../arm-none-eabi/lib/thumb/v7-m/nofp\libm.a(lib_a-s_fabs.o)
                              c:/users/andy/.vscode/extensions/metalcode-eu.windows-arm-none-eabi-0.1.6/bin/../lib/gcc/arm-none-eabi/8.2.1/../../../../arm-none-eabi/lib/thumb/v7-m/nofp\libm.a(lib_a-e_pow.o) (fabs)
c:/users/andy/.vscode/extensions/metalcode-eu.windows-arm-none-eabi-0.1.6/bin/../lib/gcc/arm-none-eabi/8.2.1/../../../../arm-none-eabi/lib/thumb/v7-m/nofp\libm.a(lib_a-s_finite.o)
                              c:/users/andy/.vscode/extensions/metalcode-eu.windows-arm-none-eabi-0.1.6/bin/../lib/gcc/arm-none-eabi/8.2.1/../../../../arm-none-eabi/lib/thumb/v7-m/nofp\libm.a(lib_a-w_pow.o) (finite)
c:/users/andy/.vscode/extensions/metalcode-eu.windows-arm-none-eabi-0.1.6/bin/../lib/gcc/arm-none-eabi/8.2.1/../../../../arm-none-eabi/lib/thumb/v7-m/nofp\libm.a(lib_a-s_lib_ver.o)
                              c:/users/andy/.vscode/extensions/metalcode-eu.windows-arm-none-eabi-0.1.6/bin/../lib/gcc/arm-none-eabi/8.2.1/../../../../arm-none-eabi/lib/thumb/v7-m/nofp\libm.a(lib_a-w_pow.o) (__fdlib_version)
c:/users/andy/.vscode/extensions/metalcode-eu.windows-arm-none-eabi-0.1.6/bin/../lib/gcc/arm-none-eabi/8.2.1/../../../../arm-none-eabi/lib/thumb/v7-m/nofp\libm.a(lib_a-s_matherr.o)
                              c:/users/andy/.vscode/extensions/metalcode-eu.windows-arm-none-eabi-0.1.6/bin/../lib/gcc/arm-none-eabi/8.2.1/../../../../arm-none-eabi/lib/thumb/v7-m/nofp\libm.a(lib_a-w_pow.o) (matherr)
c:/users/andy/.vscode/extensions/metalcode-eu.windows-arm-none-eabi-0.1.6/bin/../lib/gcc/arm-none-eabi/8.2.1/../../../../arm-none-eabi/lib/thumb/v7-m/nofp\libm.a(lib_a-s_nan.o)
                              c:/users/andy/.vscode/extensions/metalcode-eu.windows-arm-none-eabi-0.1.6/bin/../lib/gcc/arm-none-eabi/8.2.1/../../../../arm-none-eabi/lib/thumb/v7-m/nofp\libm.a(lib_a-wf_acos.o) (nan)
c:/users/andy/.vscode/extensions/metalcode-eu.windows-arm-none-eabi-0.1.6/bin/../lib/gcc/arm-none-eabi/8.2.1/../../../../arm-none-eabi/lib/thumb/v7-m/nofp\libm.a(lib_a-s_rint.o)
                              c:/users/andy/.vscode/extensions/metalcode-eu.windows-arm-none-eabi-0.1.6/bin/../lib/gcc/arm-none-eabi/8.2.1/../../../../arm-none-eabi/lib/thumb/v7-m/nofp\libm.a(lib_a-w_pow.o) (rint)
c:/users/andy/.vscode/extensions/metalcode-eu.windows-arm-none-eabi-0.1.6/bin/../lib/gcc/arm-none-eabi/8.2.1/../../../../arm-none-eabi/lib/thumb/v7-m/nofp\libm.a(lib_a-s_scalbn.o)
                              c:/users/andy/.vscode/extensions/metalcode-eu.windows-arm-none-eabi-0.1.6/bin/../lib/gcc/arm-none-eabi/8.2.1/../../../../arm-none-eabi/lib/thumb/v7-m/nofp\libm.a(lib_a-e_pow.o) (scalbn)
c:/users/andy/.vscode/extensions/metalcode-eu.windows-arm-none-eabi-0.1.6/bin/../lib/gcc/arm-none-eabi/8.2.1/../../../../arm-none-eabi/lib/thumb/v7-m/nofp\libm.a(lib_a-sf_finite.o)
                              c:/users/andy/.vscode/extensions/metalcode-eu.windows-arm-none-eabi-0.1.6/bin/../lib/gcc/arm-none-eabi/8.2.1/../../../../arm-none-eabi/lib/thumb/v7-m/nofp\libm.a(lib_a-wf_pow.o) (finitef)
c:/users/andy/.vscode/extensions/metalcode-eu.windows-arm-none-eabi-0.1.6/bin/../lib/gcc/arm-none-eabi/8.2.1/../../../../arm-none-eabi/lib/thumb/v7-m/nofp\libm.a(lib_a-sf_nan.o)
                              c:/users/andy/.vscode/extensions/metalcode-eu.windows-arm-none-eabi-0.1.6/bin/../lib/gcc/arm-none-eabi/8.2.1/../../../../arm-none-eabi/lib/thumb/v7-m/nofp\libm.a(lib_a-ef_pow.o) (nanf)
c:/users/andy/.vscode/extensions/metalcode-eu.windows-arm-none-eabi-0.1.6/bin/../lib/gcc/arm-none-eabi/8.2.1/../../../../arm-none-eabi/lib/thumb/v7-m/nofp\libm.a(lib_a-sf_rint.o)
                              c:/users/andy/.vscode/extensions/metalcode-eu.windows-arm-none-eabi-0.1.6/bin/../lib/gcc/arm-none-eabi/8.2.1/../../../../arm-none-eabi/lib/thumb/v7-m/nofp\libm.a(lib_a-wf_pow.o) (rintf)
c:/users/andy/.vscode/extensions/metalcode-eu.windows-arm-none-eabi-0.1.6/bin/../lib/gcc/arm-none-eabi/8.2.1/../../../../arm-none-eabi/lib/thumb/v7-m/nofp\libm.a(lib_a-sf_scalbn.o)
                              c:/users/andy/.vscode/extensions/metalcode-eu.windows-arm-none-eabi-0.1.6/bin/../lib/gcc/arm-none-eabi/8.2.1/../../../../arm-none-eabi/lib/thumb/v7-m/nofp\libm.a(lib_a-ef_pow.o) (scalbnf)
c:/users/andy/.vscode/extensions/metalcode-eu.windows-arm-none-eabi-0.1.6/bin/../lib/gcc/arm-none-eabi/8.2.1/thumb/v7-m/nofp\libgcc.a(_arm_addsubdf3.o)
                              c:/users/andy/.vscode/extensions/metalcode-eu.windows-arm-none-eabi-0.1.6/bin/../lib/gcc/arm-none-eabi/8.2.1/../../../../arm-none-eabi/lib/thumb/v7-m/nofp\libm.a(lib_a-s_llrint.o) (__aeabi_dsub)
c:/users/andy/.vscode/extensions/metalcode-eu.windows-arm-none-eabi-0.1.6/bin/../lib/gcc/arm-none-eabi/8.2.1/thumb/v7-m/nofp\libgcc.a(_arm_muldivdf3.o)
                              ./build/./RepRapFirmware/src/Movement/DriveMovement.o (__aeabi_dmul)
c:/users/andy/.vscode/extensions/metalcode-eu.windows-arm-none-eabi-0.1.6/bin/../lib/gcc/arm-none-eabi/8.2.1/thumb/v7-m/nofp\libgcc.a(_arm_cmpdf2.o)
                              ./build/\libRRFLibraries.a(SafeVsnprintf.o) (__aeabi_dcmpeq)
c:/users/andy/.vscode/extensions/metalcode-eu.windows-arm-none-eabi-0.1.6/bin/../lib/gcc/arm-none-eabi/8.2.1/thumb/v7-m/nofp\libgcc.a(_arm_unorddf2.o)
                              ./build/\libRRFLibraries.a(SafeVsnprintf.o) (__aeabi_dcmpun)
c:/users/andy/.vscode/extensions/metalcode-eu.windows-arm-none-eabi-0.1.6/bin/../lib/gcc/arm-none-eabi/8.2.1/thumb/v7-m/nofp\libgcc.a(_arm_truncdfsf2.o)
                              ./build/./RepRapFirmware/src/Movement/BedProbing/Grid.o (__aeabi_d2f)
c:/users/andy/.vscode/extensions/metalcode-eu.windows-arm-none-eabi-0.1.6/bin/../lib/gcc/arm-none-eabi/8.2.1/thumb/v7-m/nofp\libgcc.a(_arm_addsubsf3.o)
                              ./build/./RepRapFirmware/src/PrintMonitor.o (__aeabi_fsub)
c:/users/andy/.vscode/extensions/metalcode-eu.windows-arm-none-eabi-0.1.6/bin/../lib/gcc/arm-none-eabi/8.2.1/thumb/v7-m/nofp\libgcc.a(_arm_muldivsf3.o)
                              ./build/\libLPCCore.a(AnalogOutServo.o) (__aeabi_fmul)
c:/users/andy/.vscode/extensions/metalcode-eu.windows-arm-none-eabi-0.1.6/bin/../lib/gcc/arm-none-eabi/8.2.1/thumb/v7-m/nofp\libgcc.a(_arm_cmpsf2.o)
                              ./build/./RepRapFirmware/src/Platform.o (__aeabi_fcmpeq)
c:/users/andy/.vscode/extensions/metalcode-eu.windows-arm-none-eabi-0.1.6/bin/../lib/gcc/arm-none-eabi/8.2.1/thumb/v7-m/nofp\libgcc.a(_arm_unordsf2.o)
                              ./build/\libLPCCore.a(AnalogOut.o) (__aeabi_fcmpun)
c:/users/andy/.vscode/extensions/metalcode-eu.windows-arm-none-eabi-0.1.6/bin/../lib/gcc/arm-none-eabi/8.2.1/thumb/v7-m/nofp\libgcc.a(_arm_fixsfsi.o)
                              ./build/./RepRapFirmware/src/RepRap.o (__aeabi_f2iz)
c:/users/andy/.vscode/extensions/metalcode-eu.windows-arm-none-eabi-0.1.6/bin/../lib/gcc/arm-none-eabi/8.2.1/thumb/v7-m/nofp\libgcc.a(_arm_fixunssfsi.o)
                              ./build/\libLPCCore.a(AnalogOutServo.o) (__aeabi_f2uiz)
c:/users/andy/.vscode/extensions/metalcode-eu.windows-arm-none-eabi-0.1.6/bin/../lib/gcc/arm-none-eabi/8.2.1/thumb/v7-m/nofp\libgcc.a(_aeabi_ldivmod.o)
                              ./build/./RepRapFirmware/src/targets/common/Fans/LedStripDriver.o (__aeabi_ldivmod)
c:/users/andy/.vscode/extensions/metalcode-eu.windows-arm-none-eabi-0.1.6/bin/../lib/gcc/arm-none-eabi/8.2.1/thumb/v7-m/nofp\libgcc.a(_aeabi_uldivmod.o)
                              ./build/./RepRapFirmware/src/Logger.o (__aeabi_uldivmod)
c:/users/andy/.vscode/extensions/metalcode-eu.windows-arm-none-eabi-0.1.6/bin/../lib/gcc/arm-none-eabi/8.2.1/thumb/v7-m/nofp\libgcc.a(_ctzdi2.o)
                              ./build/./RepRapFirmware/src/ObjectModel/ObjectModel.o (__ctzdi2)
c:/users/andy/.vscode/extensions/metalcode-eu.windows-arm-none-eabi-0.1.6/bin/../lib/gcc/arm-none-eabi/8.2.1/thumb/v7-m/nofp\libgcc.a(_fixsfdi.o)
                              ./build/./RepRapFirmware/src/Movement/DriveMovement.o (__aeabi_f2lz)
c:/users/andy/.vscode/extensions/metalcode-eu.windows-arm-none-eabi-0.1.6/bin/../lib/gcc/arm-none-eabi/8.2.1/thumb/v7-m/nofp\libgcc.a(_fixdfdi.o)
                              c:/users/andy/.vscode/extensions/metalcode-eu.windows-arm-none-eabi-0.1.6/bin/../lib/gcc/arm-none-eabi/8.2.1/../../../../arm-none-eabi/lib/thumb/v7-m/nofp\libm.a(lib_a-s_llrint.o) (__aeabi_d2lz)
c:/users/andy/.vscode/extensions/metalcode-eu.windows-arm-none-eabi-0.1.6/bin/../lib/gcc/arm-none-eabi/8.2.1/thumb/v7-m/nofp\libgcc.a(_fixunssfdi.o)
                              ./build/./RepRapFirmware/src/Movement/DriveMovement.o (__aeabi_f2ulz)
c:/users/andy/.vscode/extensions/metalcode-eu.windows-arm-none-eabi-0.1.6/bin/../lib/gcc/arm-none-eabi/8.2.1/thumb/v7-m/nofp\libgcc.a(_fixunsdfdi.o)
                              ./build/./RepRapFirmware/src/Movement/DriveMovement.o (__aeabi_d2ulz)
c:/users/andy/.vscode/extensions/metalcode-eu.windows-arm-none-eabi-0.1.6/bin/../lib/gcc/arm-none-eabi/8.2.1/thumb/v7-m/nofp\libgcc.a(_udivmoddi4.o)
                              c:/users/andy/.vscode/extensions/metalcode-eu.windows-arm-none-eabi-0.1.6/bin/../lib/gcc/arm-none-eabi/8.2.1/thumb/v7-m/nofp\libgcc.a(_aeabi_ldivmod.o) (__udivmoddi4)
c:/users/andy/.vscode/extensions/metalcode-eu.windows-arm-none-eabi-0.1.6/bin/../lib/gcc/arm-none-eabi/8.2.1/thumb/v7-m/nofp\libgcc.a(unwind-arm.o)
                              ./build/./RepRapFirmware/src/Platform.o (__aeabi_unwind_cpp_pr0)
c:/users/andy/.vscode/extensions/metalcode-eu.windows-arm-none-eabi-0.1.6/bin/../lib/gcc/arm-none-eabi/8.2.1/thumb/v7-m/nofp\libgcc.a(libunwind.o)
                              c:/users/andy/.vscode/extensions/metalcode-eu.windows-arm-none-eabi-0.1.6/bin/../lib/gcc/arm-none-eabi/8.2.1/thumb/v7-m/nofp\libgcc.a(unwind-arm.o) (restore_core_regs)
c:/users/andy/.vscode/extensions/metalcode-eu.windows-arm-none-eabi-0.1.6/bin/../lib/gcc/arm-none-eabi/8.2.1/thumb/v7-m/nofp\libgcc.a(pr-support.o)
                              c:/users/andy/.vscode/extensions/metalcode-eu.windows-arm-none-eabi-0.1.6/bin/../lib/gcc/arm-none-eabi/8.2.1/thumb/v7-m/nofp\libgcc.a(unwind-arm.o) (__gnu_unwind_execute)
c:/users/andy/.vscode/extensions/metalcode-eu.windows-arm-none-eabi-0.1.6/bin/../lib/gcc/arm-none-eabi/8.2.1/thumb/v7-m/nofp\libgcc.a(_dvmd_tls.o)
                              c:/users/andy/.vscode/extensions/metalcode-eu.windows-arm-none-eabi-0.1.6/bin/../lib/gcc/arm-none-eabi/8.2.1/thumb/v7-m/nofp\libgcc.a(_aeabi_ldivmod.o) (__aeabi_ldiv0)
c:/users/andy/.vscode/extensions/metalcode-eu.windows-arm-none-eabi-0.1.6/bin/../lib/gcc/arm-none-eabi/8.2.1/thumb/v7-m/nofp\libgcc.a(_arm_fixunsdfsi.o)
                              c:/users/andy/.vscode/extensions/metalcode-eu.windows-arm-none-eabi-0.1.6/bin/../lib/gcc/arm-none-eabi/8.2.1/thumb/v7-m/nofp\libgcc.a(_fixunssfdi.o) (__aeabi_d2uiz)
c:/users/andy/.vscode/extensions/metalcode-eu.windows-arm-none-eabi-0.1.6/bin/../lib/gcc/arm-none-eabi/8.2.1/../../../../arm-none-eabi/lib/thumb/v7-m/nofp\libc.a(lib_a-abort.o)
                              ./build/./RepRapFirmware/src/libcpp/vterminate.o (abort)
c:/users/andy/.vscode/extensions/metalcode-eu.windows-arm-none-eabi-0.1.6/bin/../lib/gcc/arm-none-eabi/8.2.1/../../../../arm-none-eabi/lib/thumb/v7-m/nofp\libc.a(lib_a-cxa_atexit.o)
                              c:/users/andy/.vscode/extensions/metalcode-eu.windows-arm-none-eabi-0.1.6/bin/../lib/gcc/arm-none-eabi/8.2.1/../../../../arm-none-eabi/lib/thumb/v7-m/nofp\libsupc++.a(atexit_arm.o) (__cxa_atexit)
c:/users/andy/.vscode/extensions/metalcode-eu.windows-arm-none-eabi-0.1.6/bin/../lib/gcc/arm-none-eabi/8.2.1/../../../../arm-none-eabi/lib/thumb/v7-m/nofp\libc.a(lib_a-errno.o)
                              ./build/./RepRapFirmware/src/libc/nano-mallocr.o (__errno)
c:/users/andy/.vscode/extensions/metalcode-eu.windows-arm-none-eabi-0.1.6/bin/../lib/gcc/arm-none-eabi/8.2.1/../../../../arm-none-eabi/lib/thumb/v7-m/nofp\libc.a(lib_a-exit.o)
                              c:/users/andy/.vscode/extensions/metalcode-eu.windows-arm-none-eabi-0.1.6/bin/../lib/gcc/arm-none-eabi/8.2.1/../../../../arm-none-eabi/lib/thumb/v7-m/nofp/crt0.o (exit)
c:/users/andy/.vscode/extensions/metalcode-eu.windows-arm-none-eabi-0.1.6/bin/../lib/gcc/arm-none-eabi/8.2.1/../../../../arm-none-eabi/lib/thumb/v7-m/nofp\libc.a(lib_a-gmtime_r.o)
                              ./build/./RepRapFirmware/src/Logger.o (gmtime_r)
c:/users/andy/.vscode/extensions/metalcode-eu.windows-arm-none-eabi-0.1.6/bin/../lib/gcc/arm-none-eabi/8.2.1/../../../../arm-none-eabi/lib/thumb/v7-m/nofp\libc.a(lib_a-impure.o)
                              c:/users/andy/.vscode/extensions/metalcode-eu.windows-arm-none-eabi-0.1.6/bin/../lib/gcc/arm-none-eabi/8.2.1/../../../../arm-none-eabi/lib/thumb/v7-m/nofp\libc.a(lib_a-exit.o) (_global_impure_ptr)
c:/users/andy/.vscode/extensions/metalcode-eu.windows-arm-none-eabi-0.1.6/bin/../lib/gcc/arm-none-eabi/8.2.1/../../../../arm-none-eabi/lib/thumb/v7-m/nofp\libc.a(lib_a-init.o)
                              c:/users/andy/.vscode/extensions/metalcode-eu.windows-arm-none-eabi-0.1.6/bin/../lib/gcc/arm-none-eabi/8.2.1/../../../../arm-none-eabi/lib/thumb/v7-m/nofp/crt0.o (__libc_init_array)
c:/users/andy/.vscode/extensions/metalcode-eu.windows-arm-none-eabi-0.1.6/bin/../lib/gcc/arm-none-eabi/8.2.1/../../../../arm-none-eabi/lib/thumb/v7-m/nofp\libc.a(lib_a-isalpha.o)
                              ./build/./RepRapFirmware/src/GCodes/GCodeBuffer/ExpressionParser.o (isalpha)
c:/users/andy/.vscode/extensions/metalcode-eu.windows-arm-none-eabi-0.1.6/bin/../lib/gcc/arm-none-eabi/8.2.1/../../../../arm-none-eabi/lib/thumb/v7-m/nofp\libc.a(lib_a-isspace.o)
                              ./build/./RepRapFirmware/src/libc/strptime.o (isspace)
c:/users/andy/.vscode/extensions/metalcode-eu.windows-arm-none-eabi-0.1.6/bin/../lib/gcc/arm-none-eabi/8.2.1/../../../../arm-none-eabi/lib/thumb/v7-m/nofp\libc.a(lib_a-isxdigit.o)
                              ./build/\libRRFLibraries.a(NumericConverter.o) (isxdigit)
c:/users/andy/.vscode/extensions/metalcode-eu.windows-arm-none-eabi-0.1.6/bin/../lib/gcc/arm-none-eabi/8.2.1/../../../../arm-none-eabi/lib/thumb/v7-m/nofp\libc.a(lib_a-lldiv.o)
                              ./build/\libRRFLibraries.a(SafeVsnprintf.o) (lldiv)
c:/users/andy/.vscode/extensions/metalcode-eu.windows-arm-none-eabi-0.1.6/bin/../lib/gcc/arm-none-eabi/8.2.1/../../../../arm-none-eabi/lib/thumb/v7-m/nofp\libc.a(lib_a-mktime.o)
                              ./build/./RepRapFirmware/src/GCodes/GCodes3.o (mktime)
c:/users/andy/.vscode/extensions/metalcode-eu.windows-arm-none-eabi-0.1.6/bin/../lib/gcc/arm-none-eabi/8.2.1/../../../../arm-none-eabi/lib/thumb/v7-m/nofp\libc.a(lib_a-rand.o)
                              ./build/\libLPCCore.a(WMath.o) (srand)
c:/users/andy/.vscode/extensions/metalcode-eu.windows-arm-none-eabi-0.1.6/bin/../lib/gcc/arm-none-eabi/8.2.1/../../../../arm-none-eabi/lib/thumb/v7-m/nofp\libc.a(lib_a-signal.o)
                              c:/users/andy/.vscode/extensions/metalcode-eu.windows-arm-none-eabi-0.1.6/bin/../lib/gcc/arm-none-eabi/8.2.1/../../../../arm-none-eabi/lib/thumb/v7-m/nofp\libc.a(lib_a-abort.o) (raise)
c:/users/andy/.vscode/extensions/metalcode-eu.windows-arm-none-eabi-0.1.6/bin/../lib/gcc/arm-none-eabi/8.2.1/../../../../arm-none-eabi/lib/thumb/v7-m/nofp\libc.a(lib_a-signalr.o)
                              c:/users/andy/.vscode/extensions/metalcode-eu.windows-arm-none-eabi-0.1.6/bin/../lib/gcc/arm-none-eabi/8.2.1/../../../../arm-none-eabi/lib/thumb/v7-m/nofp\libc.a(lib_a-signal.o) (_kill_r)
c:/users/andy/.vscode/extensions/metalcode-eu.windows-arm-none-eabi-0.1.6/bin/../lib/gcc/arm-none-eabi/8.2.1/../../../../arm-none-eabi/lib/thumb/v7-m/nofp\libc.a(lib_a-strchr.o)
                              ./build/./RepRapFirmware/src/GCodes/GCodes.o (strchr)
c:/users/andy/.vscode/extensions/metalcode-eu.windows-arm-none-eabi-0.1.6/bin/../lib/gcc/arm-none-eabi/8.2.1/../../../../arm-none-eabi/lib/thumb/v7-m/nofp\libc.a(lib_a-strcmp.o)
                              ./build/./RepRapFirmware/src/GCodes/GCodes2.o (strcmp)
c:/users/andy/.vscode/extensions/metalcode-eu.windows-arm-none-eabi-0.1.6/bin/../lib/gcc/arm-none-eabi/8.2.1/../../../../arm-none-eabi/lib/thumb/v7-m/nofp\libc.a(lib_a-strcpy.o)
                              ./build/./RepRapFirmware/src/Heating/Sensors/TemperatureSensor.o (strcpy)
c:/users/andy/.vscode/extensions/metalcode-eu.windows-arm-none-eabi-0.1.6/bin/../lib/gcc/arm-none-eabi/8.2.1/../../../../arm-none-eabi/lib/thumb/v7-m/nofp\libc.a(lib_a-strlen-stub.o)
                              ./build/./RepRapFirmware/src/Logger.o (strlen)
c:/users/andy/.vscode/extensions/metalcode-eu.windows-arm-none-eabi-0.1.6/bin/../lib/gcc/arm-none-eabi/8.2.1/../../../../arm-none-eabi/lib/thumb/v7-m/nofp\libc.a(lib_a-strncat.o)
                              ./build/\libRRFLibraries.a(StringFunctions.o) (strncat)
c:/users/andy/.vscode/extensions/metalcode-eu.windows-arm-none-eabi-0.1.6/bin/../lib/gcc/arm-none-eabi/8.2.1/../../../../arm-none-eabi/lib/thumb/v7-m/nofp\libc.a(lib_a-strncpy.o)
                              ./build/\libRRFLibraries.a(StringFunctions.o) (strncpy)
c:/users/andy/.vscode/extensions/metalcode-eu.windows-arm-none-eabi-0.1.6/bin/../lib/gcc/arm-none-eabi/8.2.1/../../../../arm-none-eabi/lib/thumb/v7-m/nofp\libc.a(lib_a-strstr.o)
                              ./build/./RepRapFirmware/src/Storage/FileInfoParser.o (strstr)
c:/users/andy/.vscode/extensions/metalcode-eu.windows-arm-none-eabi-0.1.6/bin/../lib/gcc/arm-none-eabi/8.2.1/../../../../arm-none-eabi/lib/thumb/v7-m/nofp\libc.a(lib_a-strtoul.o)
                              ./build/\libRRFLibraries.a(SafeStrtod.o) (strtoul)
c:/users/andy/.vscode/extensions/metalcode-eu.windows-arm-none-eabi-0.1.6/bin/../lib/gcc/arm-none-eabi/8.2.1/../../../../arm-none-eabi/lib/thumb/v7-m/nofp\libc.a(lib_a-syssbrk.o)
                              ./build/\libLPCCore.a(main.o) (sbrk)
c:/users/andy/.vscode/extensions/metalcode-eu.windows-arm-none-eabi-0.1.6/bin/../lib/gcc/arm-none-eabi/8.2.1/../../../../arm-none-eabi/lib/thumb/v7-m/nofp\libc.a(lib_a-tolower.o)
                              ./build/./RepRapFirmware/src/GCodes/GCodeBuffer/ExpressionParser.o (tolower)
c:/users/andy/.vscode/extensions/metalcode-eu.windows-arm-none-eabi-0.1.6/bin/../lib/gcc/arm-none-eabi/8.2.1/../../../../arm-none-eabi/lib/thumb/v7-m/nofp\libc.a(lib_a-toupper.o)
                              ./build/./RepRapFirmware/src/GCodes/GCodes2.o (toupper)
c:/users/andy/.vscode/extensions/metalcode-eu.windows-arm-none-eabi-0.1.6/bin/../lib/gcc/arm-none-eabi/8.2.1/../../../../arm-none-eabi/lib/thumb/v7-m/nofp\libc.a(lib_a-tzcalc_limits.o)
                              c:/users/andy/.vscode/extensions/metalcode-eu.windows-arm-none-eabi-0.1.6/bin/../lib/gcc/arm-none-eabi/8.2.1/../../../../arm-none-eabi/lib/thumb/v7-m/nofp\libc.a(lib_a-mktime.o) (__tzcalc_limits)
c:/users/andy/.vscode/extensions/metalcode-eu.windows-arm-none-eabi-0.1.6/bin/../lib/gcc/arm-none-eabi/8.2.1/../../../../arm-none-eabi/lib/thumb/v7-m/nofp\libc.a(lib_a-tzvars.o)
                              c:/users/andy/.vscode/extensions/metalcode-eu.windows-arm-none-eabi-0.1.6/bin/../lib/gcc/arm-none-eabi/8.2.1/../../../../arm-none-eabi/lib/thumb/v7-m/nofp\libc.a(lib_a-mktime.o) (_daylight)
c:/users/andy/.vscode/extensions/metalcode-eu.windows-arm-none-eabi-0.1.6/bin/../lib/gcc/arm-none-eabi/8.2.1/../../../../arm-none-eabi/lib/thumb/v7-m/nofp\libc.a(lib_a-__atexit.o)
                              c:/users/andy/.vscode/extensions/metalcode-eu.windows-arm-none-eabi-0.1.6/bin/../lib/gcc/arm-none-eabi/8.2.1/../../../../arm-none-eabi/lib/thumb/v7-m/nofp\libc.a(lib_a-cxa_atexit.o) (__register_exitproc)
c:/users/andy/.vscode/extensions/metalcode-eu.windows-arm-none-eabi-0.1.6/bin/../lib/gcc/arm-none-eabi/8.2.1/../../../../arm-none-eabi/lib/thumb/v7-m/nofp\libc.a(lib_a-__call_atexit.o)
                              c:/users/andy/.vscode/extensions/metalcode-eu.windows-arm-none-eabi-0.1.6/bin/../lib/gcc/arm-none-eabi/8.2.1/../../../../arm-none-eabi/lib/thumb/v7-m/nofp\libc.a(lib_a-exit.o) (__call_exitprocs)
c:/users/andy/.vscode/extensions/metalcode-eu.windows-arm-none-eabi-0.1.6/bin/../lib/gcc/arm-none-eabi/8.2.1/../../../../arm-none-eabi/lib/thumb/v7-m/nofp\libc.a(lib_a-atexit.o)
                              c:/users/andy/.vscode/extensions/metalcode-eu.windows-arm-none-eabi-0.1.6/bin/../lib/gcc/arm-none-eabi/8.2.1/../../../../arm-none-eabi/lib/thumb/v7-m/nofp\libc.a(lib_a-__call_atexit.o) (atexit)
c:/users/andy/.vscode/extensions/metalcode-eu.windows-arm-none-eabi-0.1.6/bin/../lib/gcc/arm-none-eabi/8.2.1/../../../../arm-none-eabi/lib/thumb/v7-m/nofp\libc.a(lib_a-ctype_.o)
                              c:/users/andy/.vscode/extensions/metalcode-eu.windows-arm-none-eabi-0.1.6/bin/../lib/gcc/arm-none-eabi/8.2.1/../../../../arm-none-eabi/lib/thumb/v7-m/nofp\libc.a(lib_a-isalpha.o) (_ctype_)
c:/users/andy/.vscode/extensions/metalcode-eu.windows-arm-none-eabi-0.1.6/bin/../lib/gcc/arm-none-eabi/8.2.1/../../../../arm-none-eabi/lib/thumb/v7-m/nofp\libc.a(lib_a-div.o)
                              c:/users/andy/.vscode/extensions/metalcode-eu.windows-arm-none-eabi-0.1.6/bin/../lib/gcc/arm-none-eabi/8.2.1/../../../../arm-none-eabi/lib/thumb/v7-m/nofp\libc.a(lib_a-mktime.o) (div)
c:/users/andy/.vscode/extensions/metalcode-eu.windows-arm-none-eabi-0.1.6/bin/../lib/gcc/arm-none-eabi/8.2.1/../../../../arm-none-eabi/lib/thumb/v7-m/nofp\libc.a(lib_a-fini.o)
                              c:/users/andy/.vscode/extensions/metalcode-eu.windows-arm-none-eabi-0.1.6/bin/../lib/gcc/arm-none-eabi/8.2.1/../../../../arm-none-eabi/lib/thumb/v7-m/nofp\libc.a(lib_a-__call_atexit.o) (__libc_fini_array)
c:/users/andy/.vscode/extensions/metalcode-eu.windows-arm-none-eabi-0.1.6/bin/../lib/gcc/arm-none-eabi/8.2.1/../../../../arm-none-eabi/lib/thumb/v7-m/nofp\libc.a(lib_a-gettzinfo.o)
                              c:/users/andy/.vscode/extensions/metalcode-eu.windows-arm-none-eabi-0.1.6/bin/../lib/gcc/arm-none-eabi/8.2.1/../../../../arm-none-eabi/lib/thumb/v7-m/nofp\libc.a(lib_a-mktime.o) (__gettzinfo)
c:/users/andy/.vscode/extensions/metalcode-eu.windows-arm-none-eabi-0.1.6/bin/../lib/gcc/arm-none-eabi/8.2.1/../../../../arm-none-eabi/lib/thumb/v7-m/nofp\libc.a(lib_a-lock.o)
                              c:/users/andy/.vscode/extensions/metalcode-eu.windows-arm-none-eabi-0.1.6/bin/../lib/gcc/arm-none-eabi/8.2.1/../../../../arm-none-eabi/lib/thumb/v7-m/nofp\libc.a(lib_a-__atexit.o) (__retarget_lock_acquire_recursive)
c:/users/andy/.vscode/extensions/metalcode-eu.windows-arm-none-eabi-0.1.6/bin/../lib/gcc/arm-none-eabi/8.2.1/../../../../arm-none-eabi/lib/thumb/v7-m/nofp\libc.a(lib_a-month_lengths.o)
                              c:/users/andy/.vscode/extensions/metalcode-eu.windows-arm-none-eabi-0.1.6/bin/../lib/gcc/arm-none-eabi/8.2.1/../../../../arm-none-eabi/lib/thumb/v7-m/nofp\libc.a(lib_a-tzcalc_limits.o) (__month_lengths)
c:/users/andy/.vscode/extensions/metalcode-eu.windows-arm-none-eabi-0.1.6/bin/../lib/gcc/arm-none-eabi/8.2.1/../../../../arm-none-eabi/lib/thumb/v7-m/nofp\libc.a(lib_a-sbrkr.o)
                              c:/users/andy/.vscode/extensions/metalcode-eu.windows-arm-none-eabi-0.1.6/bin/../lib/gcc/arm-none-eabi/8.2.1/../../../../arm-none-eabi/lib/thumb/v7-m/nofp\libc.a(lib_a-syssbrk.o) (_sbrk_r)
c:/users/andy/.vscode/extensions/metalcode-eu.windows-arm-none-eabi-0.1.6/bin/../lib/gcc/arm-none-eabi/8.2.1/../../../../arm-none-eabi/lib/thumb/v7-m/nofp\libc.a(lib_a-strnlen.o)
                              c:/users/andy/.vscode/extensions/metalcode-eu.windows-arm-none-eabi-0.1.6/bin/../lib/gcc/arm-none-eabi/8.2.1/../../../../arm-none-eabi/lib/thumb/v7-m/nofp\libc.a(lib_a-strstr.o) (strnlen)

Allocating common symbols
Common symbol       size              file

__lock___malloc_recursive_mutex
                    0x1               c:/users/andy/.vscode/extensions/metalcode-eu.windows-arm-none-eabi-0.1.6/bin/../lib/gcc/arm-none-eabi/8.2.1/../../../../arm-none-eabi/lib/thumb/v7-m/nofp\libc.a(lib_a-lock.o)
__lock___atexit_recursive_mutex
                    0x1               c:/users/andy/.vscode/extensions/metalcode-eu.windows-arm-none-eabi-0.1.6/bin/../lib/gcc/arm-none-eabi/8.2.1/../../../../arm-none-eabi/lib/thumb/v7-m/nofp\libc.a(lib_a-lock.o)
SystemCoreClock     0x4               ./build/\libLPCCore.a(system_LPC17xx.o)
xQueueRegistry      0x40              ./build/\libLPCCore.a(queue.o)
__lock___dd_hash_mutex
                    0x1               c:/users/andy/.vscode/extensions/metalcode-eu.windows-arm-none-eabi-0.1.6/bin/../lib/gcc/arm-none-eabi/8.2.1/../../../../arm-none-eabi/lib/thumb/v7-m/nofp\libc.a(lib_a-lock.o)
__lock___sinit_recursive_mutex
                    0x1               c:/users/andy/.vscode/extensions/metalcode-eu.windows-arm-none-eabi-0.1.6/bin/../lib/gcc/arm-none-eabi/8.2.1/../../../../arm-none-eabi/lib/thumb/v7-m/nofp\libc.a(lib_a-lock.o)
__lock___sfp_recursive_mutex
                    0x1               c:/users/andy/.vscode/extensions/metalcode-eu.windows-arm-none-eabi-0.1.6/bin/../lib/gcc/arm-none-eabi/8.2.1/../../../../arm-none-eabi/lib/thumb/v7-m/nofp\libc.a(lib_a-lock.o)
__lock___at_quick_exit_mutex
                    0x1               c:/users/andy/.vscode/extensions/metalcode-eu.windows-arm-none-eabi-0.1.6/bin/../lib/gcc/arm-none-eabi/8.2.1/../../../../arm-none-eabi/lib/thumb/v7-m/nofp\libc.a(lib_a-lock.o)
__lock___env_recursive_mutex
                    0x1               c:/users/andy/.vscode/extensions/metalcode-eu.windows-arm-none-eabi-0.1.6/bin/../lib/gcc/arm-none-eabi/8.2.1/../../../../arm-none-eabi/lib/thumb/v7-m/nofp\libc.a(lib_a-lock.o)
__lock___tz_mutex   0x1               c:/users/andy/.vscode/extensions/metalcode-eu.windows-arm-none-eabi-0.1.6/bin/../lib/gcc/arm-none-eabi/8.2.1/../../../../arm-none-eabi/lib/thumb/v7-m/nofp\libc.a(lib_a-lock.o)
__lock___arc4random_mutex
                    0x1               c:/users/andy/.vscode/extensions/metalcode-eu.windows-arm-none-eabi-0.1.6/bin/../lib/gcc/arm-none-eabi/8.2.1/../../../../arm-none-eabi/lib/thumb/v7-m/nofp\libc.a(lib_a-lock.o)

Discarded input sections

 .text          0x00000000        0x0 c:/users/andy/.vscode/extensions/metalcode-eu.windows-arm-none-eabi-0.1.6/bin/../lib/gcc/arm-none-eabi/8.2.1/thumb/v7-m/nofp/crti.o
 .data          0x00000000        0x0 c:/users/andy/.vscode/extensions/metalcode-eu.windows-arm-none-eabi-0.1.6/bin/../lib/gcc/arm-none-eabi/8.2.1/thumb/v7-m/nofp/crti.o
 .bss           0x00000000        0x0 c:/users/andy/.vscode/extensions/metalcode-eu.windows-arm-none-eabi-0.1.6/bin/../lib/gcc/arm-none-eabi/8.2.1/thumb/v7-m/nofp/crti.o
 .text          0x00000000       0x74 c:/users/andy/.vscode/extensions/metalcode-eu.windows-arm-none-eabi-0.1.6/bin/../lib/gcc/arm-none-eabi/8.2.1/../../../../arm-none-eabi/lib/thumb/v7-m/nofp/crt0.o
 .data          0x00000000        0x0 c:/users/andy/.vscode/extensions/metalcode-eu.windows-arm-none-eabi-0.1.6/bin/../lib/gcc/arm-none-eabi/8.2.1/../../../../arm-none-eabi/lib/thumb/v7-m/nofp/crt0.o
 .bss           0x00000000        0x0 c:/users/andy/.vscode/extensions/metalcode-eu.windows-arm-none-eabi-0.1.6/bin/../lib/gcc/arm-none-eabi/8.2.1/../../../../arm-none-eabi/lib/thumb/v7-m/nofp/crt0.o
 .ARM.extab     0x00000000        0x0 c:/users/andy/.vscode/extensions/metalcode-eu.windows-arm-none-eabi-0.1.6/bin/../lib/gcc/arm-none-eabi/8.2.1/../../../../arm-none-eabi/lib/thumb/v7-m/nofp/crt0.o
 .ARM.exidx     0x00000000        0x8 c:/users/andy/.vscode/extensions/metalcode-eu.windows-arm-none-eabi-0.1.6/bin/../lib/gcc/arm-none-eabi/8.2.1/../../../../arm-none-eabi/lib/thumb/v7-m/nofp/crt0.o
 .ARM.attributes
                0x00000000       0x1b c:/users/andy/.vscode/extensions/metalcode-eu.windows-arm-none-eabi-0.1.6/bin/../lib/gcc/arm-none-eabi/8.2.1/../../../../arm-none-eabi/lib/thumb/v7-m/nofp/crt0.o
 .text          0x00000000        0x0 ./build/./CoreLPC/cores/arduino/syscalls.o
 .data          0x00000000        0x0 ./build/./CoreLPC/cores/arduino/syscalls.o
 .bss           0x00000000        0x0 ./build/./CoreLPC/cores/arduino/syscalls.o
 .text.link     0x00000000        0x6 ./build/./CoreLPC/cores/arduino/syscalls.o
 .text._close   0x00000000        0x6 ./build/./CoreLPC/cores/arduino/syscalls.o
 .text._fstat   0x00000000        0xa ./build/./CoreLPC/cores/arduino/syscalls.o
 .text._isatty  0x00000000        0x4 ./build/./CoreLPC/cores/arduino/syscalls.o
 .text._lseek   0x00000000        0x4 ./build/./CoreLPC/cores/arduino/syscalls.o
Memory Configuration

Name             Origin             Length             Attributes
FLASH            0x00004000         0x00074000         xr
RAM              0x10000000         0x00007fe0         xrw
AHB_RAM          0x2007c000         0x00008000         xrw
*default*        0x00000000         0xffffffff

Linker script and memory map

LOAD c:/users/andy/.vscode/extensions/metalcode-eu.windows-arm-none-eabi-0.1.6/bin/../lib/gcc/arm-none-eabi/8.2.1/thumb/v7-m/nofp/crti.o
LOAD c:/users/andy/.vscode/extensions/metalcode-eu.windows-arm-none-eabi-0.1.6/bin/../lib/gcc/arm-none-eabi/8.2.1/thumb/v7-m/nofp/crtbegin.o
LOAD c:/users/andy/.vscode/extensions/metalcode-eu.windows-arm-none-eabi-0.1.6/bin/../lib/gcc/arm-none-eabi/8.2.1/../../../../arm-none-eabi/lib/thumb/v7-m/nofp/crt0.o
START GROUP
LOAD ./build/./CoreLPC/cores/arduino/syscalls.o
LOAD ./build/./RepRapFirmware/src/libc/memcmp.o
LOAD ./build/./RepRapFirmware/src/libc/memcpy.o
LOAD ./build/./RepRapFirmware/src/libc/memmove.o
LOAD ./build/./RepRapFirmware/src/libc/memset.o
LOAD ./build/./RepRapFirmware/src/libc/nano-mallocr.o
LOAD ./build/./RepRapFirmware/src/libcpp/eh_alloc.o
LOAD ./build/./RepRapFirmware/src/libc/strptime.o
LOAD ./build/./RepRapFirmware/src/libcpp/vterminate.o
LOAD ./build/\libLPCCore.a
LOAD ./build/./RepRapFirmware/src/Libraries/sha1/sha1.o
LOAD ./build/./RepRapFirmware/src/targets/common/FatFS/ff.o
LOAD ./build/./RepRapFirmware/src/targets/common/FatFS/ffunicode.o
LOAD ./build/./RepRapFirmware/src/Logger.o
LOAD ./build/./RepRapFirmware/src/OutputMemory.o
LOAD ./build/./RepRapFirmware/src/Platform.o
LOAD ./build/./RepRapFirmware/src/PortControl.o
LOAD ./build/./RepRapFirmware/src/PrintMonitor.o
LOAD ./build/./RepRapFirmware/src/RepRap.o
LOAD ./build/./RepRapFirmware/src/RepRapFirmware.o
LOAD ./build/./RepRapFirmware/src/Roland.o
LOAD ./build/./RepRapFirmware/src/Scanner.o
LOAD ./build/./RepRapFirmware/src/Stream.o
LOAD ./build/./RepRapFirmware/src/Tasks.o
LOAD ./build/./RepRapFirmware/src/FilamentMonitors/Duet3DFilamentMonitor.o
LOAD ./build/./RepRapFirmware/src/FilamentMonitors/FilamentMonitor.o
LOAD ./build/./RepRapFirmware/src/FilamentMonitors/LaserFilamentMonitor.o
LOAD ./build/./RepRapFirmware/src/FilamentMonitors/PulsedFilamentMonitor.o
LOAD ./build/./RepRapFirmware/src/FilamentMonitors/RotatingMagnetFilamentMonitor.o
LOAD ./build/./RepRapFirmware/src/FilamentMonitors/SimpleFilamentMonitor.o
LOAD ./build/./RepRapFirmware/src/GCodes/GCodeException.o
LOAD ./build/./RepRapFirmware/src/GCodes/GCodeFileInfo.o
LOAD ./build/./RepRapFirmware/src/GCodes/GCodeInput.o
LOAD ./build/./RepRapFirmware/src/GCodes/GCodeMachineState.o
LOAD ./build/./RepRapFirmware/src/GCodes/GCodeQueue.o
LOAD ./build/./RepRapFirmware/src/GCodes/GCodes.o
LOAD ./build/./RepRapFirmware/src/GCodes/GCodes2.o
LOAD ./build/./RepRapFirmware/src/GCodes/GCodes3.o
LOAD ./build/./RepRapFirmware/src/GCodes/GCodes4.o
LOAD ./build/./RepRapFirmware/src/GCodes/ObjectTracker.o
LOAD ./build/./RepRapFirmware/src/GCodes/RestorePoint.o
LOAD ./build/./RepRapFirmware/src/GCodes/Trigger.o
LOAD ./build/./RepRapFirmware/src/GCodes/GCodeBuffer/BinaryParser.o
LOAD ./build/./RepRapFirmware/src/GCodes/GCodeBuffer/ExpressionParser.o
LOAD ./build/./RepRapFirmware/src/GCodes/GCodeBuffer/GCodeBuffer.o
LOAD ./build/./RepRapFirmware/src/GCodes/GCodeBuffer/StringParser.o
LOAD ./build/./RepRapFirmware/src/Heating/FOPDT.o
LOAD ./build/./RepRapFirmware/src/Heating/Heat.o
LOAD ./build/./RepRapFirmware/src/Heating/Heater.o
LOAD ./build/./RepRapFirmware/src/Heating/HeaterMonitor.o
LOAD ./build/./RepRapFirmware/src/Heating/LocalHeater.o
LOAD ./build/./RepRapFirmware/src/Heating/RemoteHeater.o
LOAD ./build/./RepRapFirmware/src/Heating/TemperatureError.o
LOAD ./build/./RepRapFirmware/src/Movement/DDA.o
LOAD ./build/./RepRapFirmware/src/Movement/DDARing.o
LOAD ./build/./RepRapFirmware/src/Movement/DriveMovement.o
LOAD ./build/./RepRapFirmware/src/Movement/Move.o
LOAD ./build/./RepRapFirmware/src/Movement/RawMove.o
LOAD ./build/./RepRapFirmware/src/Movement/StepTimer.o
LOAD ./build/./RepRapFirmware/src/Movement/StraightProbeSettings.o
LOAD ./build/./RepRapFirmware/src/Movement/BedProbing/Grid.o
LOAD ./build/./RepRapFirmware/src/Movement/BedProbing/RandomProbePointSet.o
LOAD ./build/./RepRapFirmware/src/Movement/Kinematics/CoreKinematics.o
LOAD ./build/./RepRapFirmware/src/Movement/Kinematics/FiveBarScaraKinematics.o
LOAD ./build/./RepRapFirmware/src/Movement/Kinematics/HangprinterKinematics.o
LOAD ./build/./RepRapFirmware/src/Movement/Kinematics/Kinematics.o
LOAD ./build/./RepRapFirmware/src/Movement/Kinematics/LinearDeltaKinematics.o
LOAD ./build/./RepRapFirmware/src/Movement/Kinematics/PolarKinematics.o
LOAD ./build/./RepRapFirmware/src/Movement/Kinematics/RotaryDeltaKinematics.o
LOAD ./build/./RepRapFirmware/src/Movement/Kinematics/ScaraKinematics.o
LOAD ./build/./RepRapFirmware/src/Movement/Kinematics/ZLeadscrewKinematics.o
LOAD ./build/./RepRapFirmware/src/Storage/CRC16.o
LOAD ./build/./RepRapFirmware/src/Storage/CRC32.o
LOAD ./build/./RepRapFirmware/src/Storage/FileInfoParser.o
LOAD ./build/./RepRapFirmware/src/Storage/FileStore.o
LOAD ./build/./RepRapFirmware/src/Storage/MassStorage.o
LOAD ./build/./RepRapFirmware/src/Hardware/SharedSpi/SharedSpiClient.o
LOAD ./build/./RepRapFirmware/src/Hardware/SharedSpi/SharedSpiDevice.o
LOAD ./build/./RepRapFirmware/src/Comms/AuxDevice.o
LOAD ./build/./RepRapFirmware/src/Comms/FirmwareUpdater.o
LOAD ./build/./RepRapFirmware/src/Comms/PanelDueUpdater.o
LOAD ./build/./RepRapFirmware/src/Heating/Sensors/AdditionalOutputSensor.o
LOAD ./build/./RepRapFirmware/src/Heating/Sensors/CpuTemperatureSensor.o
LOAD ./build/./RepRapFirmware/src/Heating/Sensors/CurrentLoopTemperatureSensor.o
LOAD ./build/./RepRapFirmware/src/Heating/Sensors/DhtSensor.o
LOAD ./build/./RepRapFirmware/src/Heating/Sensors/LinearAnalogSensor.o
LOAD ./build/./RepRapFirmware/src/Heating/Sensors/RemoteSensor.o
LOAD ./build/./RepRapFirmware/src/Heating/Sensors/RtdSensor31865.o
LOAD ./build/./RepRapFirmware/src/Heating/Sensors/SensorWithPort.o
LOAD ./build/./RepRapFirmware/src/Heating/Sensors/SpiTemperatureSensor.o
LOAD ./build/./RepRapFirmware/src/Heating/Sensors/TemperatureSensor.o
LOAD ./build/./RepRapFirmware/src/Heating/Sensors/Thermistor.o
LOAD ./build/./RepRapFirmware/src/Heating/Sensors/ThermocoupleSensor31855.o
LOAD ./build/./RepRapFirmware/src/Heating/Sensors/ThermocoupleSensor31856.o
LOAD ./build/./RepRapFirmware/src/Heating/Sensors/ThermocoupleSensor6675.o
LOAD ./build/./RepRapFirmware/src/Heating/Sensors/TmcDriverTemperatureSensor.o
LOAD ./build/./RepRapFirmware/src/Fans/Fan.o
LOAD ./build/./RepRapFirmware/src/Fans/FansManager.o
LOAD ./build/./RepRapFirmware/src/Fans/LedStripDriver.o
LOAD ./build/./RepRapFirmware/src/Fans/LocalFan.o
LOAD ./build/./RepRapFirmware/src/Fans/RemoteFan.o
LOAD ./build/./RepRapFirmware/src/ObjectModel/ObjectModel.o
LOAD ./build/./RepRapFirmware/src/Endstops/Endstop.o
LOAD ./build/./RepRapFirmware/src/Endstops/EndstopsManager.o
LOAD ./build/./RepRapFirmware/src/Endstops/LocalZProbe.o
LOAD ./build/./RepRapFirmware/src/Endstops/RemoteZProbe.o
LOAD ./build/./RepRapFirmware/src/Endstops/StallDetectionEndstop.o
LOAD ./build/./RepRapFirmware/src/Endstops/SwitchEndstop.o
LOAD ./build/./RepRapFirmware/src/Endstops/ZProbe.o
LOAD ./build/./RepRapFirmware/src/Endstops/ZProbeEndstop.o
LOAD ./build/./RepRapFirmware/src/Hardware/ExceptionHandlers.o
LOAD ./build/./RepRapFirmware/src/Hardware/I2C.o
LOAD ./build/./RepRapFirmware/src/Hardware/IoPorts.o
LOAD ./build/./RepRapFirmware/src/Hardware/NonVolatileMemory.o
LOAD ./build/./RepRapFirmware/src/Hardware/SoftwareReset.o
LOAD ./build/./RepRapFirmware/src/Tools/Filament.o
LOAD ./build/./RepRapFirmware/src/Tools/Spindle.o
LOAD ./build/./RepRapFirmware/src/Tools/Tool.o
LOAD ./build/./RepRapFirmware/src/Display/Display.o
LOAD ./build/./RepRapFirmware/src/Display/Menu.o
LOAD ./build/./RepRapFirmware/src/Display/MenuItem.o
LOAD ./build/./RepRapFirmware/src/Display/RotaryEncoder.o
LOAD ./build/./RepRapFirmware/src/GPIO/GpInPort.o
LOAD ./build/./RepRapFirmware/src/GPIO/GpOutPort.o
LOAD ./build/./RepRapFirmware/src/bossa/Applet.o
LOAD ./build/./RepRapFirmware/src/bossa/Device.o
LOAD ./build/./RepRapFirmware/src/bossa/EefcFlash.o
LOAD ./build/./RepRapFirmware/src/bossa/Flash.o
LOAD ./build/./RepRapFirmware/src/bossa/Flasher.o
LOAD ./build/./RepRapFirmware/src/bossa/Samba.o
LOAD ./build/./RepRapFirmware/src/bossa/WordCopyApplet.o
LOAD ./build/./RepRapFirmware/src/bossa/WordCopyArm.o
LOAD ./build/./RepRapFirmware/src/targets/LPC/BoardConfig.o
LOAD ./build/./RepRapFirmware/src/targets/LPC/NVMEmulation.o
LOAD ./build/./RepRapFirmware/src/targets/LPC/Pins_LPC.o
LOAD ./build/./RepRapFirmware/src/targets/common/Microstepping.o
LOAD ./build/./RepRapFirmware/src/targets/LPC/MCP4461/MCP4461.o
LOAD ./build/./RepRapFirmware/src/targets/LPC/FatFS/sd_mmc_wrapper.o
LOAD ./build/./RepRapFirmware/src/targets/LPC/FatFS/SDCard.o
LOAD ./build/./RepRapFirmware/src/targets/common/FatFS/diskio.o
LOAD ./build/./RepRapFirmware/src/targets/common/FatFS/fattime_rtc.o
LOAD ./build/./RepRapFirmware/src/targets/common/Fans/LedStripDriver.o
LOAD ./build/./RepRapFirmware/src/Networking/FtpResponder.o
LOAD ./build/./RepRapFirmware/src/Networking/HttpResponder.o
LOAD ./build/./RepRapFirmware/src/Networking/Network.o
LOAD ./build/./RepRapFirmware/src/Networking/NetworkBuffer.o
LOAD ./build/./RepRapFirmware/src/Networking/NetworkInterface.o
LOAD ./build/./RepRapFirmware/src/Networking/NetworkResponder.o
LOAD ./build/./RepRapFirmware/src/Networking/TelnetResponder.o
LOAD ./build/./RepRapFirmware/src/Networking/UploadingNetworkResponder.o
LOAD ./build/./RepRapFirmware/src/Networking/ESP8266WiFi/WifiFirmwareUploader.o
LOAD ./build/./RepRapFirmware/src/Networking/ESP8266WiFi/WiFiInterface.o
LOAD ./build/./RepRapFirmware/src/Networking/ESP8266WiFi/WiFiSocket.o
LOAD ./build/./RepRapFirmware/src/targets/LPC/Movement/StepperDrivers/TMCSoftUART.o
LOAD ./build/./RepRapFirmware/src/targets/common/Movement/StepperDrivers/TMC22xx.o
LOAD ./build/./RepRapFirmware/src/Movement/StepperDrivers/DriverMode.o
LOAD ./build/./RepRapFirmware/src/Movement/StepperDrivers/TMC22xx.o
LOAD ./build/./RepRapFirmware/src/Movement/StepperDrivers/TMC2660.o
LOAD ./build/./RepRapFirmware/src/Movement/StepperDrivers/TMC51xx.o
LOAD c:/users/andy/.vscode/extensions/metalcode-eu.windows-arm-none-eabi-0.1.6/bin/../lib/gcc/arm-none-eabi/8.2.1/../../../../arm-none-eabi/lib/thumb/v7-m/nofp\libsupc++.a
LOAD ./build/\libRRFLibraries.a
END GROUP
LOAD c:/users/andy/.vscode/extensions/metalcode-eu.windows-arm-none-eabi-0.1.6/bin/../lib/gcc/arm-none-eabi/8.2.1/../../../../arm-none-eabi/lib/thumb/v7-m/nofp\libm.a
START GROUP
LOAD c:/users/andy/.vscode/extensions/metalcode-eu.windows-arm-none-eabi-0.1.6/bin/../lib/gcc/arm-none-eabi/8.2.1/thumb/v7-m/nofp\libgcc.a
LOAD c:/users/andy/.vscode/extensions/metalcode-eu.windows-arm-none-eabi-0.1.6/bin/../lib/gcc/arm-none-eabi/8.2.1/../../../../arm-none-eabi/lib/thumb/v7-m/nofp\libc.a
END GROUP
START GROUP
LOAD c:/users/andy/.vscode/extensions/metalcode-eu.windows-arm-none-eabi-0.1.6/bin/../lib/gcc/arm-none-eabi/8.2.1/thumb/v7-m/nofp\libgcc.a
LOAD c:/users/andy/.vscode/extensions/metalcode-eu.windows-arm-none-eabi-0.1.6/bin/../lib/gcc/arm-none-eabi/8.2.1/../../../../arm-none-eabi/lib/thumb/v7-m/nofp\libc.a
LOAD c:/users/andy/.vscode/extensions/metalcode-eu.windows-arm-none-eabi-0.1.6/bin/../lib/gcc/arm-none-eabi/8.2.1/../../../../arm-none-eabi/lib/thumb/v7-m/nofp\libnosys.a
END GROUP
LOAD c:/users/andy/.vscode/extensions/metalcode-eu.windows-arm-none-eabi-0.1.6/bin/../lib/gcc/arm-none-eabi/8.2.1/thumb/v7-m/nofp/crtend.o
LOAD c:/users/andy/.vscode/extensions/metalcode-eu.windows-arm-none-eabi-0.1.6/bin/../lib/gcc/arm-none-eabi/8.2.1/thumb/v7-m/nofp/crtn.o
START GROUP
LOAD c:/users/andy/.vscode/extensions/metalcode-eu.windows-arm-none-eabi-0.1.6/bin/../lib/gcc/arm-none-eabi/8.2.1/thumb/v7-m/nofp\libgcc.a
LOAD c:/users/andy/.vscode/extensions/metalcode-eu.windows-arm-none-eabi-0.1.6/bin/../lib/gcc/arm-none-eabi/8.2.1/../../../../arm-none-eabi/lib/thumb/v7-m/nofp\libg.a
LOAD c:/users/andy/.vscode/extensions/metalcode-eu.windows-arm-none-eabi-0.1.6/bin/../lib/gcc/arm-none-eabi/8.2.1/../../../../arm-none-eabi/lib/thumb/v7-m/nofp\libc.a
LOAD c:/users/andy/.vscode/extensions/metalcode-eu.windows-arm-none-eabi-0.1.6/bin/../lib/gcc/arm-none-eabi/8.2.1/../../../../arm-none-eabi/lib/thumb/v7-m/nofp\libm.a
LOAD c:/users/andy/.vscode/extensions/metalcode-eu.windows-arm-none-eabi-0.1.6/bin/../lib/gcc/arm-none-eabi/8.2.1/../../../../arm-none-eabi/lib/thumb/v7-m/nofp\libnosys.a
END GROUP

.AHBSRAM0       0x2007c000     0x300c
                0x2007c000                Image$$RW_IRAM2$$Base = .
                0x2007c000                PROVIDE (__AHB0_block_start = .)
 *(AHBSRAM0)
 AHBSRAM0       0x2007c000      0x16c ./build/./RepRapFirmware/src/targets/LPC/Movement/StepperDrivers/TMCSoftUART.o
                0x2007c004                SUDmaBits
 AHBSRAM0       0x2007c16c       0x18 ./build/\libLPCCore.a(exti.o)
 AHBSRAM0       0x2007c184       0x58 ./build/\libLPCCore.a(Wire.o)
                0x2007c184                Wire
 *(.bss.*DataTransfer*)
 *(.bss.reprap)
 .bss.reprap    0x2007c1dc      0x374 ./build/./RepRapFirmware/src/RepRapFirmware.o
                0x2007c1dc                reprap
 *(.bss._*heaterTask)
 .bss._ZL10heaterTask
                0x2007c550      0x50c ./build/./RepRapFirmware/src/Heating/Heat.o
 *(.bss._*mainTask)
 .bss._ZL8mainTask
                0x2007ca5c      0xf74 ./build/./RepRapFirmware/src/Tasks.o
 *(.bss.*IdleTaskStack)
 *(.bss.*TimerTaskStack)
 *(.bss.*tcpPlusTask)
 *(.bss._time_locale)
 *(.bss.*Mutex*)
 .bss._ZL11mallocMutex
                0x2007d9d0       0x54 ./build/./RepRapFirmware/src/Tasks.o
 .bss._ZL14filamentsMutex
                0x2007da24       0x54 ./build/./RepRapFirmware/src/Tasks.o
 .bss._ZL8i2cMutex
                0x2007da78       0x54 ./build/./RepRapFirmware/src/Tasks.o
 .bss._ZL7fsMutex
                0x2007dacc       0x54 ./build/./RepRapFirmware/src/Storage/MassStorage.o
 .bss._ZL8dirMutex
                0x2007db20       0x54 ./build/./RepRapFirmware/src/Storage/MassStorage.o
 .bss._ZN13HttpResponder15gcodeReplyMutexE
                0x2007db74       0x54 ./build/./RepRapFirmware/src/Networking/HttpResponder.o
                0x2007db74                HttpResponder::gcodeReplyMutex
 .bss._ZN5Mutex9mutexListE
                0x2007dbc8        0x4 ./build/\libRRFLibraries.a(RTOSIface.o)
                0x2007dbc8                Mutex::mutexList
 *(.bss.*Queue*)
 *(.bss.*TCB)
 .bss.pxCurrentTCB
                0x2007dbcc        0x4 ./build/\libLPCCore.a(tasks.o)
                0x2007dbcc                pxCurrentTCB
 *(.bss.xNetworkBuffers)
 *(.bss.*networkTask)
 .bss._ZL11networkTask
                0x2007dbd0      0x958 ./build/./RepRapFirmware/src/Networking/Network.o
 *(.bss.*descriptors*)
 *(.bss.*HttpResponder*)
 .bss._ZN13HttpResponder10gcodeReplyE
                0x2007e528       0x24 ./build/./RepRapFirmware/src/Networking/HttpResponder.o
                0x2007e528                HttpResponder::gcodeReply
 .bss._ZN13HttpResponder11numSessionsE
                0x2007e54c        0x4 ./build/./RepRapFirmware/src/Networking/HttpResponder.o
                0x2007e54c                HttpResponder::numSessions
 .bss._ZN13HttpResponder13clientsServedE
                0x2007e550        0x4 ./build/./RepRapFirmware/src/Networking/HttpResponder.o
                0x2007e550                HttpResponder::clientsServed
 .bss._ZN13HttpResponder3seqE
                0x2007e554        0x2 ./build/./RepRapFirmware/src/Networking/HttpResponder.o
                0x2007e554                HttpResponder::seq
 *fill*         0x2007e556        0x2 
 .bss._ZN13HttpResponder8sessionsE
                0x2007e558       0x18 ./build/./RepRapFirmware/src/Networking/HttpResponder.o
                0x2007e558                HttpResponder::sessions
 *(.bss.*emacTask)
 *(.bss.*idleTask)
 .bss._ZL8idleTask
                0x2007e570       0xfc ./build/./RepRapFirmware/src/Tasks.o
 *(.bss.xARPCache)
 *(.bss.xDHCPData)
 *(.bss.*assembleConfigDescriptor*)
 *(.bss.*bufferIn)
 *(.bss.*bufferOut)
 *(.bss.*infoParser)
 *fill*         0x2007e66c        0x4 
 .bss._ZL10infoParser
                0x2007e670      0x5b0 ./build/./RepRapFirmware/src/Storage/MassStorage.o
 *(.bss.*info)
 .bss._ZL4info  0x2007ec20      0x29c ./build/./RepRapFirmware/src/Storage/MassStorage.o
 *(.bss.*files)
 .bss._ZL5files
                0x2007eebc      0x150 ./build/./RepRapFirmware/src/Storage/MassStorage.o
                0x2007f00c                Image$$RW_IRAM2$$ZI$$Limit = .
                0x2007f00c                PROVIDE (__AHB0_dyn_start = .)
                0x20084000                PROVIDE (__AHB0_end = (ORIGIN (AHB_RAM) + LENGTH (AHB_RAM)))

.text           0x00004000    0x6b00c
                0x00004000                _sfixed = .
 *(.isr_vector)
 .isr_vector    0x00004000       0xc4 ./build/\libLPCCore.a(startup_LPC17xx.o)
                0x00004000                g_pfnVectors
 *(.text*)
 .text          0x000040c4       0x40 c:/users/andy/.vscode/extensions/metalcode-eu.windows-arm-none-eabi-0.1.6/bin/../lib/gcc/arm-none-eabi/8.2.1/thumb/v7-m/nofp/crtbegin.o
 .text._sbrk    0x00004104       0x34 ./build/./CoreLPC/cores/arduino/syscalls.o
                0x00004104                _sbrk
 .text._exit    0x00004138        0x2 ./build/./CoreLPC/cores/arduino/syscalls.o
                0x00004138                _exit
 .text._kill    0x0000413a        0x2 ./build/./CoreLPC/cores/arduino/syscalls.o
                0x0000413a                _kill
 .text._getpid  0x0000413c        0x6 ./build/./CoreLPC/cores/arduino/syscalls.o
                0x0000413c                _getpid
 .text.memcmp   0x00004142       0x1c ./build/./RepRapFirmware/src/libc/memcmp.o
                0x00004142                memcmp
 .text.memcpy   0x0000415e       0x1c ./build/./RepRapFirmware/src/libc/memcpy.o
                0x0000415e                memcpy
 .text.memmove  0x0000417a       0x34 ./build/./RepRapFirmware/src/libc/memmove.o
                0x0000417a                memmove
 .text.memset   0x000041ae       0x10 ./build/./RepRapFirmware/src/libc/memset.o
                0x000041ae                memset
 *fill*         0x000041be        0x2 
 .text.malloc   0x000041c0       0xb0 ./build/./RepRapFirmware/src/libc/nano-mallocr.o
                0x000041c0                malloc
 .text.free     0x00004270       0x9c ./build/./RepRapFirmware/src/libc/nano-mallocr.o
                0x00004270                free
 .text.__cxa_allocate_exception
                0x0000430c       0x1e ./build/./RepRapFirmware/src/libcpp/eh_alloc.o
                0x0000430c                __cxa_allocate_exception
 .text.__cxa_free_exception
                0x0000432a        0x6 ./build/./RepRapFirmware/src/libcpp/eh_alloc.o
                0x0000432a                __cxa_free_exception
 .text._Z12SafeStrptimePKcS0_P2tm
                0x00004330      0x1d8 ./build/./RepRapFirmware/src/libc/strptime.o
                0x00004330                SafeStrptime(char const*, char const*, tm*)
 .text.Default_Handler
                0x00004508        0x4 ./build/\libLPCCore.a(startup_LPC17xx.o)
                0x00004508                CAN_IRQHandler
                0x00004508                EINT2_IRQHandler
                0x00004508                ADC_IRQHandler
                0x00004508                TIMER3_IRQHandler
                0x00004508                QEI_IRQHandler
                0x00004508                UART2_IRQHandler
                0x00004508                BOD_IRQHandler
                0x00004508                EINT0_IRQHandler
                0x00004508                RTC_IRQHandler
                0x00004508                I2C1_IRQHandler
                0x00004508                I2S_IRQHandler
                0x00004508                PLL0_IRQHandler
                0x00004508                PWM1_IRQHandler
                0x00004508                MCPWM_IRQHandler
                0x00004508                Default_Handler
                0x00004508                I2C2_IRQHandler
                0x00004508                ENET_IRQHandler
                0x00004508                TIMER1_IRQHandler
                0x00004508                PLL1_IRQHandler
                0x00004508                UART1_IRQHandler
                0x00004508                EINT1_IRQHandler
                0x00004508                TIMER2_IRQHandler
                0x00004508                I2C0_IRQHandler
                0x00004508                SPI_IRQHandler
 .text.Reset_Handler
                0x0000450c       0x68 ./build/\libLPCCore.a(startup_LPC17xx.o)
                0x0000450c                Reset_Handler
 .text.startup.main
                0x00004574       0x6c ./build/\libLPCCore.a(main.o)
                0x00004574                main
 .text._Z4initv
                0x000045e0        0xe ./build/\libLPCCore.a(variant.o)
                0x000045e0                init()
 *fill*         0x000045ee        0x2 
 .text.prvInsertBlockIntoFreeList
                0x000045f0       0x48 ./build/\libLPCCore.a(heap_5.o)
 .text.pvPortMalloc
                0x00004638       0xd0 ./build/\libLPCCore.a(heap_5.o)
                0x00004638                pvPortMalloc
 .text.pvPortMallocPermanent
                0x00004708       0x12 ./build/\libLPCCore.a(heap_5.o)
                0x00004708                pvPortMallocPermanent
 *fill*         0x0000471a        0x2 
 .text.vPortFree
                0x0000471c       0x80 ./build/\libLPCCore.a(heap_5.o)
                0x0000471c                vPortFree
 .text.xPortGetFreeHeapSize
                0x0000479c        0xc ./build/\libLPCCore.a(heap_5.o)
                0x0000479c                xPortGetFreeHeapSize
 .text.xPortGetMinimumEverFreeHeapSize
                0x000047a8        0xc ./build/\libLPCCore.a(heap_5.o)
                0x000047a8                xPortGetMinimumEverFreeHeapSize
 .text.vPortDefineHeapRegions
                0x000047b4       0xd8 ./build/\libLPCCore.a(heap_5.o)
                0x000047b4                vPortDefineHeapRegions
 .text.vPortGetHeapStats
                0x0000488c       0x84 ./build/\libLPCCore.a(heap_5.o)
                0x0000488c                vPortGetHeapStats
 .text.SysTick_Init
                0x00004910       0x1c ./build/\libLPCCore.a(systick.o)
                0x00004910                SysTick_Init
 .text.millis   0x0000492c        0xc ./build/\libLPCCore.a(systick.o)
                0x0000492c                millis
 .text.millis64
                0x00004938       0x20 ./build/\libLPCCore.a(systick.o)
                0x00004938                millis64
 .text.CoreSysTick
                0x00004958       0x2c ./build/\libLPCCore.a(systick.o)
                0x00004958                CoreSysTick
 .text.SystemInit
                0x00004984      0x134 ./build/\libLPCCore.a(system_LPC17xx.o)
                0x00004984                SystemInit
 .text.Chip_Clock_EnablePLL
                0x00004ab8       0x24 ./build/\libLPCCore.a(clock_17xx_40xx.o)
                0x00004ab8                Chip_Clock_EnablePLL
 .text.Chip_Clock_DisablePLL
                0x00004adc       0x26 ./build/\libLPCCore.a(clock_17xx_40xx.o)
                0x00004adc                Chip_Clock_DisablePLL
 .text.Chip_Clock_SetupPLL
                0x00004b02       0x30 ./build/\libLPCCore.a(clock_17xx_40xx.o)
                0x00004b02                Chip_Clock_SetupPLL
 *fill*         0x00004b32        0x2 
 .text.Chip_Clock_EnablePeriphClock
                0x00004b34       0x18 ./build/\libLPCCore.a(clock_17xx_40xx.o)
                0x00004b34                Chip_Clock_EnablePeriphClock
 .text.Chip_Clock_DisablePeriphClock
                0x00004b4c       0x1c ./build/\libLPCCore.a(clock_17xx_40xx.o)
                0x00004b4c                Chip_Clock_DisablePeriphClock
 .text.Chip_Clock_GetCPUClockSource
                0x00004b68       0x10 ./build/\libLPCCore.a(clock_17xx_40xx.o)
                0x00004b68                Chip_Clock_GetCPUClockSource
 .text.Chip_Clock_SetCPUClockDiv
                0x00004b78        0xc ./build/\libLPCCore.a(clock_17xx_40xx.o)
                0x00004b78                Chip_Clock_SetCPUClockDiv
 .text.Chip_Clock_GetCPUClockDiv
                0x00004b84       0x10 ./build/\libLPCCore.a(clock_17xx_40xx.o)
                0x00004b84                Chip_Clock_GetCPUClockDiv
 .text.Chip_Clock_SetPCLKDiv
                0x00004b94       0x2a ./build/\libLPCCore.a(clock_17xx_40xx.o)
                0x00004b94                Chip_Clock_SetPCLKDiv
 *fill*         0x00004bbe        0x2 
 .text.Chip_Clock_GetPCLKDiv
                0x00004bc0       0x38 ./build/\libLPCCore.a(clock_17xx_40xx.o)
                0x00004bc0                Chip_Clock_GetPCLKDiv
 .text.Chip_Clock_GetSYSCLKRate
                0x00004bf8       0x38 ./build/\libLPCCore.a(clock_17xx_40xx.o)
                0x00004bf8                Chip_Clock_GetSYSCLKRate
 .text.Chip_Clock_GetMainPLLOutClockRate
                0x00004c30       0x34 ./build/\libLPCCore.a(clock_17xx_40xx.o)
                0x00004c30                Chip_Clock_GetMainPLLOutClockRate
 .text.Chip_Clock_GetMainClockRate
                0x00004c64       0x20 ./build/\libLPCCore.a(clock_17xx_40xx.o)
                0x00004c64                Chip_Clock_GetMainClockRate
 .text.Chip_Clock_GetSystemClockRate
                0x00004c84       0x12 ./build/\libLPCCore.a(clock_17xx_40xx.o)
                0x00004c84                Chip_Clock_GetSystemClockRate
 .text.Chip_Clock_GetPeripheralClockRate
                0x00004c96       0x16 ./build/\libLPCCore.a(clock_17xx_40xx.o)
                0x00004c96                Chip_Clock_GetPeripheralClockRate
 .text.iap_entry
                0x00004cac        0x8 ./build/\libLPCCore.a(iap.o)
 .text.Chip_IAP_PreSectorForReadWrite
                0x00004cb4       0x1e ./build/\libLPCCore.a(iap.o)
                0x00004cb4                Chip_IAP_PreSectorForReadWrite
 *fill*         0x00004cd2        0x2 
 .text.Chip_IAP_CopyRamToFlash
                0x00004cd4       0x34 ./build/\libLPCCore.a(iap.o)
                0x00004cd4                Chip_IAP_CopyRamToFlash
 .text.Chip_IAP_EraseSector
                0x00004d08       0x30 ./build/\libLPCCore.a(iap.o)
                0x00004d08                Chip_IAP_EraseSector
 .text.Chip_IAP_ReadPID
                0x00004d38       0x18 ./build/\libLPCCore.a(iap.o)
                0x00004d38                Chip_IAP_ReadPID
 .text._Z12AnalogInInitv
                0x00004d50       0x58 ./build/\libLPCCore.a(AnalogIn.o)
                0x00004d50                AnalogInInit()
 .text._Z21ConfigureADCPreFilterb
                0x00004da8       0x18 ./build/\libLPCCore.a(AnalogIn.o)
                0x00004da8                ConfigureADCPreFilter(bool)
 .text._Z21AnalogInEnableChannel19AnalogChannelNumberb
                0x00004dc0       0x6c ./build/\libLPCCore.a(AnalogIn.o)
                0x00004dc0                AnalogInEnableChannel(AnalogChannelNumber, bool)
 .text._Z19AnalogInReadChannel19AnalogChannelNumber
                0x00004e2c      0x25c ./build/\libLPCCore.a(AnalogIn.o)
                0x00004e2c                AnalogInReadChannel(AnalogChannelNumber)
 .text._Z23AnalogInStartConversionm
                0x00005088        0x2 ./build/\libLPCCore.a(AnalogIn.o)
                0x00005088                AnalogInStartConversion(unsigned long)
 *fill*         0x0000508a        0x2 
 .text._Z15PinToAdcChannelm
                0x0000508c       0x10 ./build/\libLPCCore.a(AnalogIn.o)
                0x0000508c                PinToAdcChannel(unsigned long)
 .text.startup._GLOBAL__sub_I_ADCNotReadyCnt
                0x0000509c        0xc ./build/\libLPCCore.a(AnalogIn.o)
 .text._Z13AnalogOutInitv
                0x000050a8        0x2 ./build/\libLPCCore.a(AnalogOut.o)
                0x000050a8                AnalogOutInit()
 .text._Z9AnalogOut11gpioPins_etft
                0x000050aa       0x6c ./build/\libLPCCore.a(AnalogOut.o)
                0x000050aa                AnalogOut(gpioPins_et, float, unsigned short)
 .text._Z12IsPwmCapable11gpioPins_et
                0x00005116        0xc ./build/\libLPCCore.a(AnalogOut.o)
                0x00005116                IsPwmCapable(gpioPins_et)
 .text._Z18ConfigurePinForPWM11gpioPins_etb
                0x00005122        0x4 ./build/\libLPCCore.a(AnalogOut.o)
                0x00005122                ConfigurePinForPWM(gpioPins_et, bool)
 .text._Z13ReleasePWMPin11gpioPins_et
                0x00005126        0x4 ./build/\libLPCCore.a(AnalogOut.o)
                0x00005126                ReleasePWMPin(gpioPins_et)
 *fill*         0x0000512a        0x2 
 .text._Z7PWM_Set11gpioPins_etm
                0x0000512c       0xb8 ./build/\libLPCCore.a(AnalogOutServo.o)
                0x0000512c                PWM_Set(gpioPins_et, unsigned long)
 .text._Z9PWM_Clear11gpioPins_et
                0x000051e4       0x6c ./build/\libLPCCore.a(AnalogOutServo.o)
                0x000051e4                PWM_Clear(gpioPins_et)
 .text._Z16AnalogWriteHWPWMRK14PinDescriptionft11gpioPins_et
                0x00005250       0x94 ./build/\libLPCCore.a(AnalogOutServo.o)
                0x00005250                AnalogWriteHWPWM(PinDescription const&, float, unsigned short, gpioPins_et)
 .text._Z15ReleaseHWPWMPin11gpioPins_et
                0x000052e4       0x2c ./build/\libLPCCore.a(AnalogOutServo.o)
                0x000052e4                ReleaseHWPWMPin(gpioPins_et)
 .text._Z10CanDoHWPWM11gpioPins_et
                0x00005310       0x30 ./build/\libLPCCore.a(AnalogOutServo.o)
                0x00005310                CanDoHWPWM(gpioPins_et)
 .text._Z20ConfigurePinForHWPWM11gpioPins_etb
                0x00005340       0x40 ./build/\libLPCCore.a(AnalogOutServo.o)
                0x00005340                ConfigurePinForHWPWM(gpioPins_et, bool)
 .text._Z14IsServoCapable11gpioPins_et
                0x00005380       0x22 ./build/\libLPCCore.a(AnalogOutServo.o)
                0x00005380                IsServoCapable(gpioPins_et)
 .text._Z15ReleaseServoPin11gpioPins_et
                0x000053a2       0x16 ./build/\libLPCCore.a(AnalogOutServo.o)
                0x000053a2                ReleaseServoPin(gpioPins_et)
 .text._Z20ConfigurePinForServo11gpioPins_etb
                0x000053b8       0x26 ./build/\libLPCCore.a(AnalogOutServo.o)
                0x000053b8                ConfigurePinForServo(gpioPins_et, bool)
 *fill*         0x000053de        0x2 
 .text._Z16AnalogWriteServoft11gpioPins_et
                0x000053e0       0x38 ./build/\libLPCCore.a(AnalogOutServo.o)
                0x000053e0                AnalogWriteServo(float, unsigned short, gpioPins_et)
 .text._Z16CanDoSoftwarePWM11gpioPins_et
                0x00005418       0x1c ./build/\libLPCCore.a(AnalogOutSoftwarePWM.o)
                0x00005418                CanDoSoftwarePWM(gpioPins_et)
 .text._Z26ConfigurePinForSoftwarePWM11gpioPins_et
                0x00005434       0x5c ./build/\libLPCCore.a(AnalogOutSoftwarePWM.o)
                0x00005434                ConfigurePinForSoftwarePWM(gpioPins_et)
 .text._Z21ReleaseSoftwarePWMPin11gpioPins_et
                0x00005490       0x60 ./build/\libLPCCore.a(AnalogOutSoftwarePWM.o)
                0x00005490                ReleaseSoftwarePWMPin(gpioPins_et)
 .text._Z22AnalogWriteSoftwarePWMft11gpioPins_et
                0x000054f0       0x64 ./build/\libLPCCore.a(AnalogOutSoftwarePWM.o)
                0x000054f0                AnalogWriteSoftwarePWM(float, unsigned short, gpioPins_et)
 .text._Znwj    0x00005554       0x18 ./build/\libLPCCore.a(new.o)
                0x00005554                operator new(unsigned int)
 .text._Znaj    0x0000556c        0x4 ./build/\libLPCCore.a(new.o)
                0x0000556c                operator new[](unsigned int)
 .text._ZdlPvj  0x00005570        0x4 ./build/\libLPCCore.a(new.o)
                0x00005570                operator delete(void*, unsigned int)
 .text.GPIO_PinInputMode
                0x00005574      0x40c ./build/\libLPCCore.a(wiring_digital.o)
                0x00005574                GPIO_PinInputMode
 .text.pinModeDuet
                0x00005980       0xca ./build/\libLPCCore.a(wiring_digital.o)
                0x00005980                pinModeDuet
 .text.digitalWrite
                0x00005a4a        0xa ./build/\libLPCCore.a(wiring_digital.o)
                0x00005a4a                digitalWrite
 .text.digitalRead
                0x00005a54       0x16 ./build/\libLPCCore.a(wiring_digital.o)
                0x00005a54                digitalRead
 .text._ZN11SoftwarePWMC2E11gpioPins_et
                0x00005a6a       0x38 ./build/\libLPCCore.a(SoftwarePWM.o)
                0x00005a6a                SoftwarePWM::SoftwarePWM(gpioPins_et)
                0x00005a6a                SoftwarePWM::SoftwarePWM(gpioPins_et)
 *fill*         0x00005aa2        0x2 
 .text._ZN11SoftwarePWM11AttachTimerEv
                0x00005aa4       0x24 ./build/\libLPCCore.a(SoftwarePWM.o)
                0x00005aa4                SoftwarePWM::AttachTimer()
 .text._ZN11SoftwarePWM12ReleaseTimerEv
                0x00005ac8       0x1c ./build/\libLPCCore.a(SoftwarePWM.o)
                0x00005ac8                SoftwarePWM::ReleaseTimer()
 .text._ZN11SoftwarePWM6EnableEv
                0x00005ae4        0x8 ./build/\libLPCCore.a(SoftwarePWM.o)
                0x00005ae4                SoftwarePWM::Enable()
 .text._ZN11SoftwarePWM7DisableEv
                0x00005aec       0x1a ./build/\libLPCCore.a(SoftwarePWM.o)
                0x00005aec                SoftwarePWM::Disable()
 *fill*         0x00005b06        0x2 
 .text._ZN11SoftwarePWM11AnalogWriteEft11gpioPins_et
                0x00005b08       0xb8 ./build/\libLPCCore.a(SoftwarePWM.o)
                0x00005b08                SoftwarePWM::AnalogWrite(float, unsigned short, gpioPins_et)
 .text._ZL12updateActivev
                0x00005bc0       0x78 ./build/\libLPCCore.a(SoftwarePWMTimer.o)
 .text._ZN16SoftwarePWMTimerC2Ev
                0x00005c38       0x68 ./build/\libLPCCore.a(SoftwarePWMTimer.o)
                0x00005c38                SoftwarePWMTimer::SoftwarePWMTimer()
                0x00005c38                SoftwarePWMTimer::SoftwarePWMTimer()
 .text._Z7syncAllv
                0x00005ca0       0x48 ./build/\libLPCCore.a(SoftwarePWMTimer.o)
                0x00005ca0                syncAll()
 .text._ZN16SoftwarePWMTimer7disableEi
                0x00005ce8       0x14 ./build/\libLPCCore.a(SoftwarePWMTimer.o)
                0x00005ce8                SoftwarePWMTimer::disable(int)
 .text._ZN16SoftwarePWMTimer6enableEP11SoftwarePWMmm
                0x00005cfc       0x68 ./build/\libLPCCore.a(SoftwarePWMTimer.o)
                0x00005cfc                SoftwarePWMTimer::enable(SoftwarePWM*, unsigned long, unsigned long)
 .text._ZN16SoftwarePWMTimer15adjustOnOffTimeEimm
                0x00005d64       0x38 ./build/\libLPCCore.a(SoftwarePWMTimer.o)
                0x00005d64                SoftwarePWMTimer::adjustOnOffTime(int, unsigned long, unsigned long)
 .text.hot.RIT_IRQHandler
                0x00005d9c      0x164 ./build/\libLPCCore.a(SoftwarePWMTimer.o)
                0x00005d9c                RIT_IRQHandler
 .text._ZN16SoftwarePWMTimer11DiagnosticsE11MessageType
                0x00005f00      0x14c ./build/\libLPCCore.a(SoftwarePWMTimer.o)
                0x00005f00                SoftwarePWMTimer::Diagnostics(MessageType)
 .text.startup._GLOBAL__sub_I_pwmInts
                0x0000604c        0xc ./build/\libLPCCore.a(SoftwarePWMTimer.o)
 .text.prvIdleTask
                0x00006058       0x5c ./build/\libLPCCore.a(tasks.o)
 .text.prvResetNextTaskUnblockTime
                0x000060b4       0x24 ./build/\libLPCCore.a(tasks.o)
 .text.prvAddCurrentTaskToDelayedList
                0x000060d8       0x8c ./build/\libLPCCore.a(tasks.o)
 .text.xTaskCreateStatic
                0x00006164      0x200 ./build/\libLPCCore.a(tasks.o)
                0x00006164                xTaskCreateStatic
 .text.vTaskDelete
                0x00006364       0xc8 ./build/\libLPCCore.a(tasks.o)
                0x00006364                vTaskDelete
 .text.eTaskGetState
                0x0000642c       0x80 ./build/\libLPCCore.a(tasks.o)
                0x0000642c                eTaskGetState
 .text.vTaskStartScheduler
                0x000064ac       0x6c ./build/\libLPCCore.a(tasks.o)
                0x000064ac                vTaskStartScheduler
 .text.vTaskSuspendAll
                0x00006518       0x10 ./build/\libLPCCore.a(tasks.o)
                0x00006518                vTaskSuspendAll
 .text.xTaskGetTickCount
                0x00006528        0xc ./build/\libLPCCore.a(tasks.o)
                0x00006528                xTaskGetTickCount
 .text.pcTaskGetName
                0x00006534       0x24 ./build/\libLPCCore.a(tasks.o)
                0x00006534                pcTaskGetName
 .text.xTaskIncrementTick
                0x00006558      0x130 ./build/\libLPCCore.a(tasks.o)
                0x00006558                xTaskIncrementTick
 .text.xTaskResumeAll
                0x00006688       0xe8 ./build/\libLPCCore.a(tasks.o)
                0x00006688                xTaskResumeAll
 .text.vTaskDelayUntil
                0x00006770       0x80 ./build/\libLPCCore.a(tasks.o)
                0x00006770                vTaskDelayUntil
 .text.vTaskDelay
                0x000067f0       0x4c ./build/\libLPCCore.a(tasks.o)
                0x000067f0                vTaskDelay
 .text.vTaskSwitchContext
                0x0000683c       0xa4 ./build/\libLPCCore.a(tasks.o)
                0x0000683c                vTaskSwitchContext
 .text.vTaskSuspend
                0x000068e0       0xd4 ./build/\libLPCCore.a(tasks.o)
                0x000068e0                vTaskSuspend
 .text.vTaskPlaceOnEventList
                0x000069b4       0x34 ./build/\libLPCCore.a(tasks.o)
                0x000069b4                vTaskPlaceOnEventList
 .text.xTaskRemoveFromEventList
                0x000069e8       0x80 ./build/\libLPCCore.a(tasks.o)
                0x000069e8                xTaskRemoveFromEventList
 .text.vTaskInternalSetTimeOutState
                0x00006a68       0x18 ./build/\libLPCCore.a(tasks.o)
                0x00006a68                vTaskInternalSetTimeOutState
 .text.xTaskCheckForTimeOut
                0x00006a80       0x6c ./build/\libLPCCore.a(tasks.o)
                0x00006a80                xTaskCheckForTimeOut
 .text.vTaskMissedYield
                0x00006aec        0xc ./build/\libLPCCore.a(tasks.o)
                0x00006aec                vTaskMissedYield
 .text.xTaskGetCurrentTaskHandle
                0x00006af8        0xc ./build/\libLPCCore.a(tasks.o)
                0x00006af8                xTaskGetCurrentTaskHandle
 .text.xTaskGetSchedulerState
                0x00006b04       0x20 ./build/\libLPCCore.a(tasks.o)
                0x00006b04                xTaskGetSchedulerState
 .text.xTaskPriorityInherit
                0x00006b24       0x98 ./build/\libLPCCore.a(tasks.o)
                0x00006b24                xTaskPriorityInherit
 .text.xTaskPriorityDisinherit
                0x00006bbc       0x98 ./build/\libLPCCore.a(tasks.o)
                0x00006bbc                xTaskPriorityDisinherit
 .text.vTaskPriorityDisinheritAfterTimeout
                0x00006c54       0xa4 ./build/\libLPCCore.a(tasks.o)
                0x00006c54                vTaskPriorityDisinheritAfterTimeout
 .text.pvTaskIncrementMutexHeldCount
                0x00006cf8       0x18 ./build/\libLPCCore.a(tasks.o)
                0x00006cf8                pvTaskIncrementMutexHeldCount
 .text.ulTaskNotifyTake
                0x00006d10       0x64 ./build/\libLPCCore.a(tasks.o)
                0x00006d10                ulTaskNotifyTake
 .text.xTaskGenericNotify
                0x00006d74       0xd4 ./build/\libLPCCore.a(tasks.o)
                0x00006d74                xTaskGenericNotify
 .text.vTaskNotifyGiveFromISR
                0x00006e48       0xb8 ./build/\libLPCCore.a(tasks.o)
                0x00006e48                vTaskNotifyGiveFromISR
 .text.CheckSPCurrentTaskStack
                0x00006f00       0x28 ./build/\libLPCCore.a(tasks.o)
                0x00006f00                CheckSPCurrentTaskStack
 .text.vTaskGetInfo
                0x00006f28       0x78 ./build/\libLPCCore.a(tasks.o)
                0x00006f28                vTaskGetInfo
 .text.prvPortStartFirstTask
                0x00006fa0       0x20 ./build/\libLPCCore.a(port.o)
 .text.prvTaskExitError
                0x00006fc0       0x3c ./build/\libLPCCore.a(port.o)
 .text.pxPortInitialiseStack
                0x00006ffc       0x24 ./build/\libLPCCore.a(port.o)
                0x00006ffc                pxPortInitialiseStack
 .text.SVC_Handler
                0x00007020       0x24 ./build/\libLPCCore.a(port.o)
                0x00007020                SVC_Handler
 .text.vPortEnterCritical
                0x00007044       0x40 ./build/\libLPCCore.a(port.o)
                0x00007044                vPortEnterCritical
 .text.vPortExitCritical
                0x00007084       0x28 ./build/\libLPCCore.a(port.o)
                0x00007084                vPortExitCritical
 *fill*         0x000070ac        0x4 
 .text.PendSV_Handler
                0x000070b0       0x44 ./build/\libLPCCore.a(port.o)
                0x000070b0                PendSV_Handler
 .text.SysTick_Handler
                0x000070f4       0x2c ./build/\libLPCCore.a(port.o)
                0x000070f4                SysTick_Handler
 .text.vPortSetupTimerInterrupt
                0x00007120       0x34 ./build/\libLPCCore.a(port.o)
                0x00007120                vPortSetupTimerInterrupt
 .text.xPortStartScheduler
                0x00007154       0xb0 ./build/\libLPCCore.a(port.o)
                0x00007154                xPortStartScheduler
 .text.vPortValidateInterruptPriority
                0x00007204       0x54 ./build/\libLPCCore.a(port.o)
                0x00007204                vPortValidateInterruptPriority
 .text.bb_alias_sram_dword
                0x00007258       0x1c ./build/\libLPCCore.a(gpio.o)
                0x00007258                bb_alias_sram_dword
 .text.bb_alias_periph_dword
                0x00007274       0x1c ./build/\libLPCCore.a(gpio.o)
                0x00007274                bb_alias_periph_dword
 .text.GPIO_PinFunction
                0x00007290       0x48 ./build/\libLPCCore.a(gpio.o)
                0x00007290                GPIO_PinFunction
 .text.GPIO_PinDirection
                0x000072d8       0x20 ./build/\libLPCCore.a(gpio.o)
                0x000072d8                GPIO_PinDirection
 .text.GPIO_PinWrite
                0x000072f8       0x1e ./build/\libLPCCore.a(gpio.o)
                0x000072f8                GPIO_PinWrite
 .text.GPIO_PinRead
                0x00007316       0x1c ./build/\libLPCCore.a(gpio.o)
                0x00007316                GPIO_PinRead
 *fill*         0x00007332        0x2 
 .text.Chip_ADC_Init
                0x00007334       0x48 ./build/\libLPCCore.a(adc_17xx_40xx.o)
                0x00007334                Chip_ADC_Init
 .text.Chip_ADC_DeInit
                0x0000737c       0x10 ./build/\libLPCCore.a(adc_17xx_40xx.o)
                0x0000737c                Chip_ADC_DeInit
 .text.Chip_ADC_ReadValue
                0x0000738c       0x16 ./build/\libLPCCore.a(adc_17xx_40xx.o)
                0x0000738c                Chip_ADC_ReadValue
 .text.Chip_ADC_SetSampleRate
                0x000073a2       0x30 ./build/\libLPCCore.a(adc_17xx_40xx.o)
                0x000073a2                Chip_ADC_SetSampleRate
 .text.Chip_ADC_SetBurstCmd
                0x000073d2       0x1a ./build/\libLPCCore.a(adc_17xx_40xx.o)
                0x000073d2                Chip_ADC_SetBurstCmd
 .text._ZN12ADCPreFilter14UpdateChannelsEh
                0x000073ec       0x1c ./build/\libLPCCore.a(ADCPreFilter.o)
                0x000073ec                ADCPreFilter::UpdateChannels(unsigned char)
 .text._ZN12ADCPreFilter13PrepareAdcDmaEv
                0x00007408       0x5c ./build/\libLPCCore.a(ADCPreFilter.o)
                0x00007408                ADCPreFilter::PrepareAdcDma()
 .text._ZN12ADCPreFilter4InitEv
                0x00007464       0x2c ./build/\libLPCCore.a(ADCPreFilter.o)
                0x00007464                ADCPreFilter::Init()
 .text._ZL19checkAndCallHandlerm20LPC175X_6X_IRQn_Type
                0x00007490       0x44 ./build/\libLPCCore.a(DMA.o)
 .text._Z13InitialiseDMAv
                0x000074d4       0x6c ./build/\libLPCCore.a(DMA.o)
                0x000074d4                InitialiseDMA()
 .text._Z19DMAGetChannelNumber13DMA_Channel_t
                0x00007540        0xc ./build/\libLPCCore.a(DMA.o)
                0x00007540                DMAGetChannelNumber(DMA_Channel_t)
 .text._Z32AttachDMAChannelInterruptHandlerPFvvE13DMA_Channel_t
                0x0000754c        0xc ./build/\libLPCCore.a(DMA.o)
                0x0000754c                AttachDMAChannelInterruptHandler(void (*)(), DMA_Channel_t)
 .text.DMA_IRQHandler
                0x00007558       0x36 ./build/\libLPCCore.a(DMA.o)
                0x00007558                DMA_IRQHandler
 *fill*         0x0000758e        0x2 
 .text._Z16SspDmaRxTransfer13DMA_Channel_tPKvm19DMA_TransferWidth_t
                0x00007590       0x80 ./build/\libLPCCore.a(DMA.o)
                0x00007590                SspDmaRxTransfer(DMA_Channel_t, void const*, unsigned long, DMA_TransferWidth_t)
 .text._Z16SspDmaTxTransfer13DMA_Channel_tPKvm19DMA_TransferWidth_t
                0x00007610       0x80 ./build/\libLPCCore.a(DMA.o)
                0x00007610                SspDmaTxTransfer(DMA_Channel_t, void const*, unsigned long, DMA_TransferWidth_t)
 .text._Z18SspDmaRxTransferNI13DMA_Channel_tPKvm19DMA_TransferWidth_t
                0x00007690       0x80 ./build/\libLPCCore.a(DMA.o)
                0x00007690                SspDmaRxTransferNI(DMA_Channel_t, void const*, unsigned long, DMA_TransferWidth_t)
 .text._Z18SspDmaTxTransferNI13DMA_Channel_tPKvm19DMA_TransferWidth_t
                0x00007710       0x80 ./build/\libLPCCore.a(DMA.o)
                0x00007710                SspDmaTxTransferNI(DMA_Channel_t, void const*, unsigned long, DMA_TransferWidth_t)
 .text.vListInitialise
                0x00007790       0x16 ./build/\libLPCCore.a(list.o)
                0x00007790                vListInitialise
 .text.vListInitialiseItem
                0x000077a6        0x6 ./build/\libLPCCore.a(list.o)
                0x000077a6                vListInitialiseItem
 .text.vListInsertEnd
                0x000077ac       0x18 ./build/\libLPCCore.a(list.o)
                0x000077ac                vListInsertEnd
 .text.vListInsert
                0x000077c4       0x2e ./build/\libLPCCore.a(list.o)
                0x000077c4                vListInsert
 .text.uxListRemove
                0x000077f2       0x20 ./build/\libLPCCore.a(list.o)
                0x000077f2                uxListRemove
 *fill*         0x00007812        0x2 
 .text.Chip_GPDMA_Init
                0x00007814       0x4c ./build/\libLPCCore.a(gpdma_17xx_40xx.o)
                0x00007814                Chip_GPDMA_Init
 .text.Chip_GPDMA_Interrupt
                0x00007860       0x2c ./build/\libLPCCore.a(gpdma_17xx_40xx.o)
                0x00007860                Chip_GPDMA_Interrupt
 .text.Chip_GPDMA_ChannelCmd
                0x0000788c       0x1a ./build/\libLPCCore.a(gpdma_17xx_40xx.o)
                0x0000788c                Chip_GPDMA_ChannelCmd
 *fill*         0x000078a6        0x2 
 .text.Chip_GPDMA_GetFreeChannel
                0x000078a8       0x30 ./build/\libLPCCore.a(gpdma_17xx_40xx.o)
                0x000078a8                Chip_GPDMA_GetFreeChannel
 .text.SHA1Reset
                0x000078d8       0x38 ./build/./RepRapFirmware/src/Libraries/sha1/sha1.o
                0x000078d8                SHA1Reset
 .text.SHA1ProcessMessageBlock
                0x00007910      0x16c ./build/./RepRapFirmware/src/Libraries/sha1/sha1.o
                0x00007910                SHA1ProcessMessageBlock
 .text.SHA1Input
                0x00007a7c       0x52 ./build/./RepRapFirmware/src/Libraries/sha1/sha1.o
                0x00007a7c                SHA1Input
 .text.SHA1PadMessage
                0x00007ace       0x66 ./build/./RepRapFirmware/src/Libraries/sha1/sha1.o
                0x00007ace                SHA1PadMessage
 .text.SHA1Result
                0x00007b34       0x22 ./build/./RepRapFirmware/src/Libraries/sha1/sha1.o
                0x00007b34                SHA1Result
 .text.ld_dword
                0x00007b56       0x10 ./build/./RepRapFirmware/src/targets/common/FatFS/ff.o
 .text.st_dword
                0x00007b66       0x10 ./build/./RepRapFirmware/src/targets/common/FatFS/ff.o
 .text.clst2sect
                0x00007b76       0x16 ./build/./RepRapFirmware/src/targets/common/FatFS/ff.o
 .text.sum_sfn  0x00007b8c       0x1e ./build/./RepRapFirmware/src/targets/common/FatFS/ff.o
 .text.get_ldnumber
                0x00007baa       0x3a ./build/./RepRapFirmware/src/targets/common/FatFS/ff.o
 .text.put_utf  0x00007be4       0xb6 ./build/./RepRapFirmware/src/targets/common/FatFS/ff.o
 .text.ld_clust.isra.3
                0x00007c9a       0x1c ./build/./RepRapFirmware/src/targets/common/FatFS/ff.o
 .text.st_clust.isra.4
                0x00007cb6       0x18 ./build/./RepRapFirmware/src/targets/common/FatFS/ff.o
 .text.sync_window
                0x00007cce       0x44 ./build/./RepRapFirmware/src/targets/common/FatFS/ff.o
 .text.move_window
                0x00007d12       0x36 ./build/./RepRapFirmware/src/targets/common/FatFS/ff.o
 .text.check_fs
                0x00007d48       0x70 ./build/./RepRapFirmware/src/targets/common/FatFS/ff.o
 .text.find_volume
                0x00007db8      0x2c0 ./build/./RepRapFirmware/src/targets/common/FatFS/ff.o
 .text.put_fat  0x00008078       0xf8 ./build/./RepRapFirmware/src/targets/common/FatFS/ff.o
 .text.get_fat.isra.10
                0x00008170       0xb4 ./build/./RepRapFirmware/src/targets/common/FatFS/ff.o
 .text.dir_sdi  0x00008224       0x82 ./build/./RepRapFirmware/src/targets/common/FatFS/ff.o
 .text.create_chain
                0x000082a6       0xe8 ./build/./RepRapFirmware/src/targets/common/FatFS/ff.o
 .text.remove_chain
                0x0000838e       0x6e ./build/./RepRapFirmware/src/targets/common/FatFS/ff.o
 .text.unlock_fs
                0x000083fc       0x16 ./build/./RepRapFirmware/src/targets/common/FatFS/ff.o
 .text.validate
                0x00008412       0x4c ./build/./RepRapFirmware/src/targets/common/FatFS/ff.o
 .text.dir_clear
                0x0000845e       0x52 ./build/./RepRapFirmware/src/targets/common/FatFS/ff.o
 .text.dir_next
                0x000084b0       0xaa ./build/./RepRapFirmware/src/targets/common/FatFS/ff.o
 .text.dir_remove
                0x0000855a       0x4e ./build/./RepRapFirmware/src/targets/common/FatFS/ff.o
 .text.dir_find
                0x000085a8      0x148 ./build/./RepRapFirmware/src/targets/common/FatFS/ff.o
 .text.dir_register
                0x000086f0      0x28c ./build/./RepRapFirmware/src/targets/common/FatFS/ff.o
 .text.sync_fs  0x0000897c       0x96 ./build/./RepRapFirmware/src/targets/common/FatFS/ff.o
 .text.get_fileinfo
                0x00008a12      0x144 ./build/./RepRapFirmware/src/targets/common/FatFS/ff.o
 *fill*         0x00008b56        0x2 
 .text.dir_read.constprop.15
                0x00008b58      0x120 ./build/./RepRapFirmware/src/targets/common/FatFS/ff.o
 .text.follow_path
                0x00008c78      0x31c ./build/./RepRapFirmware/src/targets/common/FatFS/ff.o
 .text.f_mount  0x00008f94       0x70 ./build/./RepRapFirmware/src/targets/common/FatFS/ff.o
                0x00008f94                f_mount
 .text.f_open   0x00009004      0x1a2 ./build/./RepRapFirmware/src/targets/common/FatFS/ff.o
                0x00009004                f_open
 .text.f_read   0x000091a6      0x148 ./build/./RepRapFirmware/src/targets/common/FatFS/ff.o
                0x000091a6                f_read
 .text.f_write  0x000092ee      0x1a4 ./build/./RepRapFirmware/src/targets/common/FatFS/ff.o
                0x000092ee                f_write
 .text.f_sync   0x00009492       0x74 ./build/./RepRapFirmware/src/targets/common/FatFS/ff.o
                0x00009492                f_sync
 .text.f_close  0x00009506       0x28 ./build/./RepRapFirmware/src/targets/common/FatFS/ff.o
                0x00009506                f_close
 .text.f_lseek  0x0000952e      0x11e ./build/./RepRapFirmware/src/targets/common/FatFS/ff.o
                0x0000952e                f_lseek
 .text.f_opendir
                0x0000964c       0x7e ./build/./RepRapFirmware/src/targets/common/FatFS/ff.o
                0x0000964c                f_opendir
 .text.f_closedir
                0x000096ca       0x1e ./build/./RepRapFirmware/src/targets/common/FatFS/ff.o
                0x000096ca                f_closedir
 .text.f_readdir
                0x000096e8       0x5a ./build/./RepRapFirmware/src/targets/common/FatFS/ff.o
                0x000096e8                f_readdir
 .text.f_stat   0x00009742       0x4c ./build/./RepRapFirmware/src/targets/common/FatFS/ff.o
                0x00009742                f_stat
 .text.f_getfree
                0x0000978e       0xce ./build/./RepRapFirmware/src/targets/common/FatFS/ff.o
                0x0000978e                f_getfree
 .text.f_truncate
                0x0000985c       0x9c ./build/./RepRapFirmware/src/targets/common/FatFS/ff.o
                0x0000985c                f_truncate
 .text.f_unlink
                0x000098f8       0xaa ./build/./RepRapFirmware/src/targets/common/FatFS/ff.o
                0x000098f8                f_unlink
 .text.f_mkdir  0x000099a2      0x112 ./build/./RepRapFirmware/src/targets/common/FatFS/ff.o
                0x000099a2                f_mkdir
 .text.f_rename
                0x00009ab4      0x13c ./build/./RepRapFirmware/src/targets/common/FatFS/ff.o
                0x00009ab4                f_rename
 .text.f_utime  0x00009bf0       0x62 ./build/./RepRapFirmware/src/targets/common/FatFS/ff.o
                0x00009bf0                f_utime
 .text.f_expand
                0x00009c52      0x11e ./build/./RepRapFirmware/src/targets/common/FatFS/ff.o
                0x00009c52                f_expand
 .text.ff_uni2oem
                0x00009d70       0x40 ./build/./RepRapFirmware/src/targets/common/FatFS/ffunicode.o
                0x00009d70                ff_uni2oem
 .text.ff_oem2uni
                0x00009db0       0x28 ./build/./RepRapFirmware/src/targets/common/FatFS/ffunicode.o
                0x00009db0                ff_oem2uni
 .text.ff_wtoupper
                0x00009dd8       0x8c ./build/./RepRapFirmware/src/targets/common/FatFS/ffunicode.o
                0x00009dd8                ff_wtoupper
 .text._ZN8FileData5CloseEv.isra.7
                0x00009e64       0x12 ./build/./RepRapFirmware/src/Logger.o
 .text._ZN6LoggerC2E8LogLevel
                0x00009e76       0x16 ./build/./RepRapFirmware/src/Logger.o
                0x00009e76                Logger::Logger(LogLevel)
                0x00009e76                Logger::Logger(LogLevel)
 .text._ZN6Logger11SetLogLevelE8LogLevel
                0x00009e8c       0x20 ./build/./RepRapFirmware/src/Logger.o
                0x00009e8c                Logger::SetLogLevel(LogLevel)
 .text._ZN6Logger5FlushEb
                0x00009eac       0x54 ./build/./RepRapFirmware/src/Logger.o
                0x00009eac                Logger::Flush(bool)
 .text._ZN6Logger30WriteDateTimeAndLogLevelPrefixExNS_15MessageLogLevelE
                0x00009f00       0xc8 ./build/./RepRapFirmware/src/Logger.o
                0x00009f00                Logger::WriteDateTimeAndLogLevelPrefix(long long, Logger::MessageLogLevel)
 .text._ZN6Logger10LogMessageExP12OutputBuffer11MessageType
                0x00009fc8       0x88 ./build/./RepRapFirmware/src/Logger.o
                0x00009fc8                Logger::LogMessage(long long, OutputBuffer*, MessageType)
 .text._ZN6Logger18InternalLogMessageExPKcNS_15MessageLogLevelE
                0x0000a050       0x68 ./build/./RepRapFirmware/src/Logger.o
                0x0000a050                Logger::InternalLogMessage(long long, char const*, Logger::MessageLogLevel)
 .text._ZN6Logger15LogFirmwareInfoEx
                0x0000a0b8       0x58 ./build/./RepRapFirmware/src/Logger.o
                0x0000a0b8                Logger::LogFirmwareInfo(long long)
 .text._ZN6Logger4StopEx
                0x0000a110       0x4c ./build/./RepRapFirmware/src/Logger.o
                0x0000a110                Logger::Stop(long long)
 .text._ZN6Logger10LogMessageExPKc11MessageType
                0x0000a15c       0x56 ./build/./RepRapFirmware/src/Logger.o
                0x0000a15c                Logger::LogMessage(long long, char const*, MessageType)
 .text._ZN6StringILj50EE6printfEPKcz
                0x0000a1b2       0x22 ./build/./RepRapFirmware/src/Logger.o
                0x0000a1b2                String<50u>::printf(char const*, ...)
 .text._ZN6Logger5StartExRK9StringRef
                0x0000a1d4       0xd8 ./build/./RepRapFirmware/src/Logger.o
                0x0000a1d4                Logger::Start(long long, StringRef const&)
 .text._ZNSt14_Function_base13_Base_managerIZN12OutputBuffer5vcatfEPKcSt9__va_listEUlcE_E10_M_managerERSt9_Any_dataRKS7_St18_Manager_operation
                0x0000a2ac       0x16 ./build/./RepRapFirmware/src/OutputMemory.o
 .text._ZN9RTOSIface24LeaveTaskCriticalSectionEv
                0x0000a2c2        0xe ./build/./RepRapFirmware/src/OutputMemory.o
                0x0000a2c2                RTOSIface::LeaveTaskCriticalSection()
 .text._ZN12OutputBuffer6AppendEPS_
                0x0000a2d0       0x26 ./build/./RepRapFirmware/src/OutputMemory.o
                0x0000a2d0                OutputBuffer::Append(OutputBuffer*)
 .text._ZN12OutputBuffer18IncreaseReferencesEj
                0x0000a2f6       0x28 ./build/./RepRapFirmware/src/OutputMemory.o
                0x0000a2f6                OutputBuffer::IncreaseReferences(unsigned int)
 .text._ZNK12OutputBuffer6LengthEv
                0x0000a31e       0x12 ./build/./RepRapFirmware/src/OutputMemory.o
                0x0000a31e                OutputBuffer::Length() const
 .text._ZN12OutputBufferixEj
                0x0000a330       0x14 ./build/./RepRapFirmware/src/OutputMemory.o
                0x0000a330                OutputBuffer::operator[](unsigned int)
 .text._ZN12OutputBuffer4ReadEj
                0x0000a344       0x10 ./build/./RepRapFirmware/src/OutputMemory.o
                0x0000a344                OutputBuffer::Read(unsigned int)
 .text._ZN12OutputBuffer5vcatfEPKcSt9__va_list
                0x0000a354       0x30 ./build/./RepRapFirmware/src/OutputMemory.o
                0x0000a354                OutputBuffer::vcatf(char const*, std::__va_list)
 .text._ZN12OutputBuffer4catfEPKcz
                0x0000a384       0x1a ./build/./RepRapFirmware/src/OutputMemory.o
                0x0000a384                OutputBuffer::catf(char const*, ...)
 .text._ZNK12OutputBuffer11WriteToFileER8FileData
                0x0000a39e       0x40 ./build/./RepRapFirmware/src/OutputMemory.o
                0x0000a39e                OutputBuffer::WriteToFile(FileData&) const
 *fill*         0x0000a3de        0x2 
 .text._ZN12OutputBuffer4InitEv
                0x0000a3e0       0x24 ./build/./RepRapFirmware/src/OutputMemory.o
                0x0000a3e0                OutputBuffer::Init()
 .text._ZN12OutputBuffer8AllocateERPS_
                0x0000a404       0x88 ./build/./RepRapFirmware/src/OutputMemory.o
                0x0000a404                OutputBuffer::Allocate(OutputBuffer*&)
 .text._ZN12OutputBuffer3catEPKcj
                0x0000a48c       0x84 ./build/./RepRapFirmware/src/OutputMemory.o
                0x0000a48c                OutputBuffer::cat(char const*, unsigned int)
 .text._ZN12OutputBuffer3catEPKc
                0x0000a510       0x1a ./build/./RepRapFirmware/src/OutputMemory.o
                0x0000a510                OutputBuffer::cat(char const*)
 *fill*         0x0000a52a        0x2 
 .text._ZN12OutputBuffer12GetBytesLeftEPKS_
                0x0000a52c       0x28 ./build/./RepRapFirmware/src/OutputMemory.o
                0x0000a52c                OutputBuffer::GetBytesLeft(OutputBuffer const*)
 .text._ZN12OutputBuffer7ReleaseEPS_
                0x0000a554       0x44 ./build/./RepRapFirmware/src/OutputMemory.o
                0x0000a554                OutputBuffer::Release(OutputBuffer*)
 .text._ZN12OutputBuffer10ReleaseAllERVPS_
                0x0000a598       0x14 ./build/./RepRapFirmware/src/OutputMemory.o
                0x0000a598                OutputBuffer::ReleaseAll(OutputBuffer* volatile&)
 .text._ZN12OutputBuffer5ClearEv
                0x0000a5ac       0x16 ./build/./RepRapFirmware/src/OutputMemory.o
                0x0000a5ac                OutputBuffer::Clear()
 .text._ZN12OutputBuffer7vprintfEPKcSt9__va_list
                0x0000a5c2       0x1a ./build/./RepRapFirmware/src/OutputMemory.o
                0x0000a5c2                OutputBuffer::vprintf(char const*, std::__va_list)
 .text._ZN12OutputBuffer6printfEPKcz
                0x0000a5dc       0x1a ./build/./RepRapFirmware/src/OutputMemory.o
                0x0000a5dc                OutputBuffer::printf(char const*, ...)
 .text._ZN12OutputBuffer4copyEc
                0x0000a5f6       0x14 ./build/./RepRapFirmware/src/OutputMemory.o
                0x0000a5f6                OutputBuffer::copy(char)
 .text._ZN12OutputBuffer3catEc
                0x0000a60a       0x5c ./build/./RepRapFirmware/src/OutputMemory.o
                0x0000a60a                OutputBuffer::cat(char)
 .text._ZNSt17_Function_handlerIFbcEZN12OutputBuffer5vcatfEPKcSt9__va_listEUlcE_E9_M_invokeERKSt9_Any_dataOc
                0x0000a666       0x18 ./build/./RepRapFirmware/src/OutputMemory.o
 .text._ZN12OutputBuffer5lcatfEPKcz
                0x0000a67e       0x42 ./build/./RepRapFirmware/src/OutputMemory.o
                0x0000a67e                OutputBuffer::lcatf(char const*, ...)
 .text._ZN12OutputBuffer10EncodeCharEc
                0x0000a6c0       0x48 ./build/./RepRapFirmware/src/OutputMemory.o
                0x0000a6c0                OutputBuffer::EncodeChar(char)
 .text._ZN12OutputBuffer11EncodeReplyEPS_
                0x0000a708       0x50 ./build/./RepRapFirmware/src/OutputMemory.o
                0x0000a708                OutputBuffer::EncodeReply(OutputBuffer*)
 .text._ZN12OutputBuffer4lcatEPKcj
                0x0000a758       0x24 ./build/./RepRapFirmware/src/OutputMemory.o
                0x0000a758                OutputBuffer::lcat(char const*, unsigned int)
 .text._ZN12OutputBuffer4lcatEPKc
                0x0000a77c       0x1a ./build/./RepRapFirmware/src/OutputMemory.o
                0x0000a77c                OutputBuffer::lcat(char const*)
 .text._ZN12OutputBuffer4copyEPKcj
                0x0000a796       0x1a ./build/./RepRapFirmware/src/OutputMemory.o
                0x0000a796                OutputBuffer::copy(char const*, unsigned int)
 .text._ZN12OutputBuffer4copyEPKc
                0x0000a7b0       0x1a ./build/./RepRapFirmware/src/OutputMemory.o
                0x0000a7b0                OutputBuffer::copy(char const*)
 *fill*         0x0000a7ca        0x2 
 .text._ZN12OutputBuffer11DiagnosticsE11MessageType
                0x0000a7cc       0x34 ./build/./RepRapFirmware/src/OutputMemory.o
                0x0000a7cc                OutputBuffer::Diagnostics(MessageType)
 .text._ZNV11OutputStack4PushEP12OutputBuffer11MessageType
                0x0000a800       0x60 ./build/./RepRapFirmware/src/OutputMemory.o
                0x0000a800                OutputStack::Push(OutputBuffer*, MessageType) volatile
 .text._ZNV11OutputStack3PopEv
                0x0000a860       0x36 ./build/./RepRapFirmware/src/OutputMemory.o
                0x0000a860                OutputStack::Pop() volatile
 .text._ZNVK11OutputStack12GetFirstItemEv
                0x0000a896        0xc ./build/./RepRapFirmware/src/OutputMemory.o
                0x0000a896                OutputStack::GetFirstItem() const volatile
 .text._ZNV11OutputStack16ReleaseFirstItemEv
                0x0000a8a2       0x22 ./build/./RepRapFirmware/src/OutputMemory.o
                0x0000a8a2                OutputStack::ReleaseFirstItem() volatile
 .text._ZNV11OutputStack12ApplyTimeoutEm
                0x0000a8c4       0x3a ./build/./RepRapFirmware/src/OutputMemory.o
                0x0000a8c4                OutputStack::ApplyTimeout(unsigned long) volatile
 .text._ZNVK11OutputStack11GetLastItemEv
                0x0000a8fe       0x14 ./build/./RepRapFirmware/src/OutputMemory.o
                0x0000a8fe                OutputStack::GetLastItem() const volatile
 .text._ZNVK11OutputStack10DataLengthEv
                0x0000a912       0x2e ./build/./RepRapFirmware/src/OutputMemory.o
                0x0000a912                OutputStack::DataLength() const volatile
 .text._ZNV11OutputStack6AppendERVS_
                0x0000a940       0x58 ./build/./RepRapFirmware/src/OutputMemory.o
                0x0000a940                OutputStack::Append(OutputStack volatile&) volatile
 .text._ZNV11OutputStack18IncreaseReferencesEj
                0x0000a998       0x2c ./build/./RepRapFirmware/src/OutputMemory.o
                0x0000a998                OutputStack::IncreaseReferences(unsigned int) volatile
 .text._ZNV11OutputStack10ReleaseAllEv
                0x0000a9c4       0x1e ./build/./RepRapFirmware/src/OutputMemory.o
                0x0000a9c4                OutputStack::ReleaseAll() volatile
 .text._ZN8PlatformUlPK11ObjectModelRK24ObjectExplorationContextE1_4_FUNES2_S5_
                0x0000a9e2        0x4 ./build/./RepRapFirmware/src/Platform.o
 *fill*         0x0000a9e6        0x2 
 .text._ZN8PlatformUlPK11ObjectModelR24ObjectExplorationContextE3_4_FUNES2_S4_
                0x0000a9e8       0x10 ./build/./RepRapFirmware/src/Platform.o
 .text._ZN8PlatformUlPK11ObjectModelR24ObjectExplorationContextE4_4_FUNES2_S4_
                0x0000a9f8       0x10 ./build/./RepRapFirmware/src/Platform.o
 .text._ZN8PlatformUlPK11ObjectModelR24ObjectExplorationContextE5_4_FUNES2_S4_
                0x0000aa08       0x10 ./build/./RepRapFirmware/src/Platform.o
 .text._ZN8PlatformUlPK11ObjectModelR24ObjectExplorationContextE6_4_FUNES2_S4_
                0x0000aa18       0x10 ./build/./RepRapFirmware/src/Platform.o
 .text._ZN8PlatformUlPK11ObjectModelR24ObjectExplorationContextE7_4_FUNES2_S4_
                0x0000aa28       0x10 ./build/./RepRapFirmware/src/Platform.o
 .text._ZN8PlatformUlPK11ObjectModelR24ObjectExplorationContextE8_4_FUNES2_S4_
                0x0000aa38        0xa ./build/./RepRapFirmware/src/Platform.o
 .text._ZN8PlatformUlPK11ObjectModelR24ObjectExplorationContextE9_4_FUNES2_S4_
                0x0000aa42        0xa ./build/./RepRapFirmware/src/Platform.o
 .text._ZN8PlatformUlPK11ObjectModelR24ObjectExplorationContextE10_4_FUNES2_S4_
                0x0000aa4c       0x1a ./build/./RepRapFirmware/src/Platform.o
 *fill*         0x0000aa66        0x2 
 .text._ZN8PlatformUlPK11ObjectModelR24ObjectExplorationContextE11_4_FUNES2_S4_
                0x0000aa68       0x10 ./build/./RepRapFirmware/src/Platform.o
 .text._ZN8PlatformUlPK11ObjectModelR24ObjectExplorationContextE12_4_FUNES2_S4_
                0x0000aa78       0x10 ./build/./RepRapFirmware/src/Platform.o
 .text._ZN8PlatformUlPK11ObjectModelR24ObjectExplorationContextE13_4_FUNES2_S4_
                0x0000aa88        0xa ./build/./RepRapFirmware/src/Platform.o
 .text._ZN8PlatformUlPK11ObjectModelR24ObjectExplorationContextE14_4_FUNES2_S4_
                0x0000aa92       0x1a ./build/./RepRapFirmware/src/Platform.o
 .text._ZN8PlatformUlPK11ObjectModelR24ObjectExplorationContextE18_4_FUNES2_S4_
                0x0000aaac       0x10 ./build/./RepRapFirmware/src/Platform.o
 .text._ZN8PlatformUlPK11ObjectModelR24ObjectExplorationContextE25_4_FUNES2_S4_
                0x0000aabc       0x1a ./build/./RepRapFirmware/src/Platform.o
 *fill*         0x0000aad6        0x2 
 .text._ZN8PlatformUlPK11ObjectModelR24ObjectExplorationContextE32_4_FUNES2_S4_
                0x0000aad8       0x10 ./build/./RepRapFirmware/src/Platform.o
 .text._ZN8PlatformUlPK11ObjectModelR24ObjectExplorationContextE39_4_FUNES2_S4_
                0x0000aae8       0x1a ./build/./RepRapFirmware/src/Platform.o
 .text._ZN8PlatformUlPK11ObjectModelR24ObjectExplorationContextE40_4_FUNES2_S4_
                0x0000ab02       0x1a ./build/./RepRapFirmware/src/Platform.o
 .text._ZNK8Platform29GetObjectModelClassDescriptorEv
                0x0000ab1c        0x8 ./build/./RepRapFirmware/src/Platform.o
                0x0000ab1c                Platform::GetObjectModelClassDescriptor() const
 .text._ZNSt14_Function_base13_Base_managerIZN8Platform13ReportDriversE11MessageTypeR6BitmapImEPKcRbEUljjE_E10_M_managerERSt9_Any_dataRKSB_St18_Manager_operation
                0x0000ab24       0x16 ./build/./RepRapFirmware/src/Platform.o
 .text._ZNSt14_Function_base13_Base_managerIZN8Platform22DriverCoolingFansOnOffE6BitmapItEbEUljjE_E10_M_managerERSt9_Any_dataRKS6_St18_Manager_operation
                0x0000ab3a       0x1a ./build/./RepRapFirmware/src/Platform.o
 .text._ZNSt14_Function_base13_Base_managerIZN8Platform15WriteAxisLimitsEP9FileStore6BitmapItEPKfiEUljjE_E10_M_managerERSt9_Any_dataRKSA_St18_Manager_operation
                0x0000ab54       0x1a ./build/./RepRapFirmware/src/Platform.o
 .text._ZNSt14_Function_base13_Base_managerIZN8Platform12SetDirectionEjbEUlhE_E10_M_managerERSt9_Any_dataRKS4_St18_Manager_operation
                0x0000ab6e       0x1a ./build/./RepRapFirmware/src/Platform.o
 .text._ZNSt14_Function_base13_Base_managerIZN8Platform13EnableDriversEjEUlhE_E10_M_managerERSt9_Any_dataRKS4_St18_Manager_operation
                0x0000ab88       0x1a ./build/./RepRapFirmware/src/Platform.o
 .text._ZNSt14_Function_base13_Base_managerIZN8Platform14DisableDriversEjEUlhE_E10_M_managerERSt9_Any_dataRKS4_St18_Manager_operation
                0x0000aba2       0x16 ./build/./RepRapFirmware/src/Platform.o
 .text._ZNSt14_Function_base13_Base_managerIZN8Platform14SetDriversIdleEvEUlhE_E10_M_managerERSt9_Any_dataRKS4_St18_Manager_operation
                0x0000abb8       0x1a ./build/./RepRapFirmware/src/Platform.o
 .text._ZNSt14_Function_base13_Base_managerIZN8Platform20SetIdleCurrentFactorEfEUlhE_E10_M_managerERSt9_Any_dataRKS4_St18_Manager_operation
                0x0000abd2       0x1a ./build/./RepRapFirmware/src/Platform.o
 .text._ZNSt14_Function_base13_Base_managerIZN8Platform12DebugMessageEPKcSt9__va_listEUlcE_E10_M_managerERSt9_Any_dataRKS7_St18_Manager_operation
                0x0000abec        0xa ./build/./RepRapFirmware/src/Platform.o
 .text._ZNSt17_Function_handlerIFvjEZN8Platform18SetPressureAdvanceEfR11GCodeBufferRK9StringRefEUljE_E9_M_invokeERKSt9_Any_dataOj
                0x0000abf6        0xe ./build/./RepRapFirmware/src/Platform.o
 .text._ZNSt14_Function_base13_Base_managerIZN8Platform18SetPressureAdvanceEfR11GCodeBufferRK9StringRefEUljE_E10_M_managerERSt9_Any_dataRKS9_St18_Manager_operation
                0x0000ac04       0x1a ./build/./RepRapFirmware/src/Platform.o
 .text._ZNSt17_Function_handlerIFvhEZN8Platform23ConfigureStallDetectionER11GCodeBufferRK9StringRefRP12OutputBufferEUlhE_E9_M_invokeERKSt9_Any_dataOh
                0x0000ac1e       0x12 ./build/./RepRapFirmware/src/Platform.o
 .text._ZNSt14_Function_base13_Base_managerIZN8Platform23ConfigureStallDetectionER11GCodeBufferRK9StringRefRP12OutputBufferEUlhE_E10_M_managerERSt9_Any_dataRKSC_St18_Manager_operation
                0x0000ac30       0x16 ./build/./RepRapFirmware/src/Platform.o
 .text._ZNSt14_Function_base13_Base_managerIZN8Platform23ConfigureStallDetectionER11GCodeBufferRK9StringRefRP12OutputBufferEUljjE0_E10_M_managerERSt9_Any_dataRKSC_St18_Manager_operation
                0x0000ac46       0x16 ./build/./RepRapFirmware/src/Platform.o
 .text._ZNSt14_Function_base13_Base_managerIZN8Platform23ConfigureStallDetectionER11GCodeBufferRK9StringRefRP12OutputBufferEUljjE1_E10_M_managerERSt9_Any_dataRKSC_St18_Manager_operation
                0x0000ac5c       0x16 ./build/./RepRapFirmware/src/Platform.o
 .text._ZNSt14_Function_base13_Base_managerIZN8Platform23ConfigureStallDetectionER11GCodeBufferRK9StringRefRP12OutputBufferEUljjE2_E10_M_managerERSt9_Any_dataRKSC_St18_Manager_operation
                0x0000ac72       0x16 ./build/./RepRapFirmware/src/Platform.o
 .text._ZNSt14_Function_base13_Base_managerIZN8Platform23ConfigureStallDetectionER11GCodeBufferRK9StringRefRP12OutputBufferEUljjE3_E10_M_managerERSt9_Any_dataRKSC_St18_Manager_operation
                0x0000ac88       0x16 ./build/./RepRapFirmware/src/Platform.o
 .text._ZN8PlatformUlPK11ObjectModelRK24ObjectExplorationContextE_4_FUNES2_S5_
                0x0000ac9e       0x14 ./build/./RepRapFirmware/src/Platform.o
 .text._ZN8PlatformUlPK11ObjectModelR24ObjectExplorationContextE48_4_FUNES2_S4_
                0x0000acb2       0x1e ./build/./RepRapFirmware/src/Platform.o
 .text._ZN8PlatformUlPK11ObjectModelR24ObjectExplorationContextE47_4_FUNES2_S4_
                0x0000acd0       0x1e ./build/./RepRapFirmware/src/Platform.o
 .text._ZN8PlatformUlPK11ObjectModelR24ObjectExplorationContextE46_4_FUNES2_S4_
                0x0000acee       0x1e ./build/./RepRapFirmware/src/Platform.o
 .text._ZN8PlatformUlPK11ObjectModelR24ObjectExplorationContextE29_4_FUNES2_S4_
                0x0000ad0c       0x20 ./build/./RepRapFirmware/src/Platform.o
 .text._ZN8PlatformUlPK11ObjectModelR24ObjectExplorationContextE15_4_FUNES2_S4_
                0x0000ad2c       0x1e ./build/./RepRapFirmware/src/Platform.o
 .text._ZN8PlatformUlPK11ObjectModelR24ObjectExplorationContextE23_4_FUNES2_S4_
                0x0000ad4a       0x1e ./build/./RepRapFirmware/src/Platform.o
 .text._ZN8PlatformUlPK11ObjectModelR24ObjectExplorationContextE26_4_FUNES2_S4_
                0x0000ad68       0x20 ./build/./RepRapFirmware/src/Platform.o
 .text._ZN8PlatformD2Ev
                0x0000ad88       0x68 ./build/./RepRapFirmware/src/Platform.o
                0x0000ad88                Platform::~Platform()
                0x0000ad88                Platform::~Platform()
 .text._ZN8PlatformD0Ev
                0x0000adf0       0x16 ./build/./RepRapFirmware/src/Platform.o
                0x0000adf0                Platform::~Platform()
 *fill*         0x0000ae06        0x2 
 .text._ZL9TimedSqrtyRm
                0x0000ae08       0x40 ./build/./RepRapFirmware/src/Platform.o
 .text._ZNSt17_Function_handlerIFvjjEZN8Platform23ConfigureStallDetectionER11GCodeBufferRK9StringRefRP12OutputBufferEUljjE0_E9_M_invokeERKSt9_Any_dataOjSF_
                0x0000ae48        0xa ./build/./RepRapFirmware/src/Platform.o
 .text._ZNSt17_Function_handlerIFvjjEZN8Platform23ConfigureStallDetectionER11GCodeBufferRK9StringRefRP12OutputBufferEUljjE1_E9_M_invokeERKSt9_Any_dataOjSF_
                0x0000ae52        0xa ./build/./RepRapFirmware/src/Platform.o
 .text._ZNSt17_Function_handlerIFvjjEZN8Platform23ConfigureStallDetectionER11GCodeBufferRK9StringRefRP12OutputBufferEUljjE2_E9_M_invokeERKSt9_Any_dataOjSF_
                0x0000ae5c        0xa ./build/./RepRapFirmware/src/Platform.o
 *fill*         0x0000ae66        0x2 
 .text._ZN8StepPinsL16CalcDriverBitmapEj
                0x0000ae68       0x2c ./build/./RepRapFirmware/src/Platform.o
 .text._ZNSt17_Function_handlerIFvjjEZN8Platform23ConfigureStallDetectionER11GCodeBufferRK9StringRefRP12OutputBufferEUljjE3_E9_M_invokeERKSt9_Any_dataOjSF_
                0x0000ae94        0xc ./build/./RepRapFirmware/src/Platform.o
 .text._ZNSt14_Function_base13_Base_managerIZN8Platform15SetMotorCurrentEjfiRK9StringRefEUlhE_E10_M_managerERSt9_Any_dataRKS7_St18_Manager_operation
                0x0000aea0       0x38 ./build/./RepRapFirmware/src/Platform.o
 .text._ZNSt14_Function_base13_Base_managerIZN8Platform16SetMicrosteppingEjibRK9StringRefEUlhE_E10_M_managerERSt9_Any_dataRKS7_St18_Manager_operation
                0x0000aed8       0x3e ./build/./RepRapFirmware/src/Platform.o
 .text._ZNSt14_Function_base13_Base_managerIZN8Platform23ConfigureStallDetectionER11GCodeBufferRK9StringRefRP12OutputBufferEUljjE4_E10_M_managerERSt9_Any_dataRKSC_St18_Manager_operation
                0x0000af16       0x38 ./build/./RepRapFirmware/src/Platform.o
 .text._ZNSt17_Function_handlerIFvjjEZN8Platform22DriverCoolingFansOnOffE6BitmapItEbEUljjE_E9_M_invokeERKSt9_Any_dataOjS9_
                0x0000af4e       0x1a ./build/./RepRapFirmware/src/Platform.o
 .text._ZN8PlatformUlPK11ObjectModelR24ObjectExplorationContextE51_4_FUNES2_S4_
                0x0000af68       0x22 ./build/./RepRapFirmware/src/Platform.o
 .text._ZN8PlatformUlPK11ObjectModelR24ObjectExplorationContextE49_4_FUNES2_S4_
                0x0000af8a       0x20 ./build/./RepRapFirmware/src/Platform.o
 .text._ZN8PlatformUlPK11ObjectModelR24ObjectExplorationContextE45_4_FUNES2_S4_
                0x0000afaa       0x22 ./build/./RepRapFirmware/src/Platform.o
 .text._ZN8PlatformUlPK11ObjectModelR24ObjectExplorationContextE52_4_FUNES2_S4_
                0x0000afcc       0x24 ./build/./RepRapFirmware/src/Platform.o
 .text._ZN8PlatformUlPK11ObjectModelR24ObjectExplorationContextE50_4_FUNES2_S4_
                0x0000aff0       0x22 ./build/./RepRapFirmware/src/Platform.o
 .text._ZN8PlatformUlPK11ObjectModelR24ObjectExplorationContextE35_4_FUNES2_S4_
                0x0000b012       0x1c ./build/./RepRapFirmware/src/Platform.o
 .text._ZN8PlatformUlPK11ObjectModelR24ObjectExplorationContextE0_4_FUNES2_S4_
                0x0000b02e       0x2c ./build/./RepRapFirmware/src/Platform.o
 .text._ZN8PlatformUlPK11ObjectModelR24ObjectExplorationContextE33_4_FUNES2_S4_
                0x0000b05a       0x20 ./build/./RepRapFirmware/src/Platform.o
 *fill*         0x0000b07a        0x2 
 .text._ZN8PlatformUlPK11ObjectModelR24ObjectExplorationContextE44_4_FUNES2_S4_
                0x0000b07c       0x2c ./build/./RepRapFirmware/src/Platform.o
 .text._ZN8PlatformUlPK11ObjectModelR24ObjectExplorationContextE28_4_FUNES2_S4_
                0x0000b0a8       0x2c ./build/./RepRapFirmware/src/Platform.o
 .text._ZN8PlatformUlPK11ObjectModelR24ObjectExplorationContextE38_4_FUNES2_S4_
                0x0000b0d4       0x2c ./build/./RepRapFirmware/src/Platform.o
 .text._ZN8PlatformUlPK11ObjectModelR24ObjectExplorationContextE20_4_FUNES2_S4_
                0x0000b100       0x28 ./build/./RepRapFirmware/src/Platform.o
 .text._ZN8PlatformUlPK11ObjectModelR24ObjectExplorationContextE42_4_FUNES2_S4_
                0x0000b128       0x26 ./build/./RepRapFirmware/src/Platform.o
 *fill*         0x0000b14e        0x2 
 .text._ZN8PlatformUlPK11ObjectModelR24ObjectExplorationContextE43_4_FUNES2_S4_
                0x0000b150       0x28 ./build/./RepRapFirmware/src/Platform.o
 .text._ZN8PlatformUlPK11ObjectModelR24ObjectExplorationContextE36_4_FUNES2_S4_
                0x0000b178       0x28 ./build/./RepRapFirmware/src/Platform.o
 .text._ZN8PlatformUlPK11ObjectModelR24ObjectExplorationContextE30_4_FUNES2_S4_
                0x0000b1a0       0x28 ./build/./RepRapFirmware/src/Platform.o
 .text._ZN8PlatformUlPK11ObjectModelR24ObjectExplorationContextE41_4_FUNES2_S4_
                0x0000b1c8       0x2c ./build/./RepRapFirmware/src/Platform.o
 .text._ZN8PlatformUlPK11ObjectModelR24ObjectExplorationContextE22_4_FUNES2_S4_
                0x0000b1f4       0x2c ./build/./RepRapFirmware/src/Platform.o
 .text._ZN8PlatformUlPK11ObjectModelR24ObjectExplorationContextE37_4_FUNES2_S4_
                0x0000b220       0x24 ./build/./RepRapFirmware/src/Platform.o
 .text._ZN8PlatformUlPK11ObjectModelR24ObjectExplorationContextE31_4_FUNES2_S4_
                0x0000b244       0x28 ./build/./RepRapFirmware/src/Platform.o
 .text._ZN8PlatformUlPK11ObjectModelR24ObjectExplorationContextE21_4_FUNES2_S4_
                0x0000b26c       0x24 ./build/./RepRapFirmware/src/Platform.o
 .text._ZN8PlatformUlPK11ObjectModelR24ObjectExplorationContextE2_4_FUNES2_S4_
                0x0000b290       0x38 ./build/./RepRapFirmware/src/Platform.o
 .text._ZN8PlatformUlPK11ObjectModelR24ObjectExplorationContextE16_4_FUNES2_S4_
                0x0000b2c8       0x28 ./build/./RepRapFirmware/src/Platform.o
 .text._ZNK8LogLevel8ToStringEv.isra.154
                0x0000b2f0       0x20 ./build/./RepRapFirmware/src/Platform.o
 .text._ZN8PlatformUlPK11ObjectModelR24ObjectExplorationContextE34_4_FUNES2_S4_
                0x0000b310       0x22 ./build/./RepRapFirmware/src/Platform.o
 .text._ZN8PlatformUlPK11ObjectModelR24ObjectExplorationContextE17_4_FUNES2_S4_
                0x0000b332       0x20 ./build/./RepRapFirmware/src/Platform.o
 *fill*         0x0000b352        0x2 
 .text._ZN8Platform11AtxPowerOffEb.part.165
                0x0000b354       0x4c ./build/./RepRapFirmware/src/Platform.o
 .text._ZNSt17_Function_handlerIFvjjEZN8Platform23ConfigureStallDetectionER11GCodeBufferRK9StringRefRP12OutputBufferEUljjE4_E9_M_invokeERKSt9_Any_dataOjSF_
                0x0000b3a0       0x80 ./build/./RepRapFirmware/src/Platform.o
 .text._ZN8PlatformUlPK11ObjectModelR24ObjectExplorationContextE27_4_FUNES2_S4_
                0x0000b420       0x22 ./build/./RepRapFirmware/src/Platform.o
 .text._ZN8PlatformUlPK11ObjectModelR24ObjectExplorationContextE24_4_FUNES2_S4_
                0x0000b442       0x22 ./build/./RepRapFirmware/src/Platform.o
 .text._ZN8PlatformUlPK11ObjectModelR24ObjectExplorationContextE19_4_FUNES2_S4_
                0x0000b464       0x28 ./build/./RepRapFirmware/src/Platform.o
 .text._ZNSt17_Function_handlerIFvhEZN8Platform12SetDirectionEjbEUlhE_E9_M_invokeERKSt9_Any_dataOh
                0x0000b48c       0x24 ./build/./RepRapFirmware/src/Platform.o
 .text._ZNSt14_Function_baseD2Ev
                0x0000b4b0       0x12 ./build/./RepRapFirmware/src/Platform.o
                0x0000b4b0                std::_Function_base::~_Function_base()
                0x0000b4b0                std::_Function_base::~_Function_base()
 .text.UrgentInit
                0x0000b4c2        0x2 ./build/./RepRapFirmware/src/Platform.o
                0x0000b4c2                UrgentInit
 .text._ZNK17AxisDriversConfig16GetDriversBitmapEv
                0x0000b4c4       0x24 ./build/./RepRapFirmware/src/Platform.o
                0x0000b4c4                AxisDriversConfig::GetDriversBitmap() const
 .text._ZNK8Platform22GetNumGpInputsToReportEv
                0x0000b4e8       0x1e ./build/./RepRapFirmware/src/Platform.o
                0x0000b4e8                Platform::GetNumGpInputsToReport() const
 .text._ZNK8Platform23GetNumGpOutputsToReportEv
                0x0000b506       0x1e ./build/./RepRapFirmware/src/Platform.o
                0x0000b506                Platform::GetNumGpOutputsToReport() const
 .text._ZN8Platform19SendPanelDueMessageEjPKc
                0x0000b524       0x24 ./build/./RepRapFirmware/src/Platform.o
                0x0000b524                Platform::SendPanelDueMessage(unsigned int, char const*)
 .text._ZN8Platform12SetIPAddressE9IPAddress
                0x0000b548       0x14 ./build/./RepRapFirmware/src/Platform.o
                0x0000b548                Platform::SetIPAddress(IPAddress)
 .text._ZN8Platform10SetGateWayE9IPAddress
                0x0000b55c       0x14 ./build/./RepRapFirmware/src/Platform.o
                0x0000b55c                Platform::SetGateWay(IPAddress)
 .text._ZN8Platform10SetNetMaskE9IPAddress
                0x0000b570       0x14 ./build/./RepRapFirmware/src/Platform.o
                0x0000b570                Platform::SetNetMask(IPAddress)
 .text._ZN8Platform20InitialiseInterruptsEv
                0x0000b584       0x50 ./build/./RepRapFirmware/src/Platform.o
                0x0000b584                Platform::InitialiseInterrupts()
 .text._ZNK8Platform23GetAveragingFilterIndexERK6IoPort
                0x0000b5d4       0x2c ./build/./RepRapFirmware/src/Platform.o
                0x0000b5d4                Platform::GetAveragingFilterIndex(IoPort const&) const
 .text._ZN8Platform23UpdateConfiguredHeatersEv
                0x0000b600       0x64 ./build/./RepRapFirmware/src/Platform.o
                0x0000b600                Platform::UpdateConfiguredHeaters()
 .text._ZN8Platform21DisableOneLocalDriverEj
                0x0000b664       0x34 ./build/./RepRapFirmware/src/Platform.o
                0x0000b664                Platform::DisableOneLocalDriver(unsigned int)
 .text._ZNSt17_Function_handlerIFvhEZN8Platform14DisableDriversEjEUlhE_E9_M_invokeERKSt9_Any_dataOh
                0x0000b698        0x8 ./build/./RepRapFirmware/src/Platform.o
 .text._ZN8Platform18UpdateMotorCurrentEjf
                0x0000b6a0       0x18 ./build/./RepRapFirmware/src/Platform.o
                0x0000b6a0                Platform::UpdateMotorCurrent(unsigned int, float)
 .text._ZN8Platform20EnableOneLocalDriverEjf
                0x0000b6b8       0x40 ./build/./RepRapFirmware/src/Platform.o
                0x0000b6b8                Platform::EnableOneLocalDriver(unsigned int, float)
 .text._ZNSt17_Function_handlerIFvhEZN8Platform13EnableDriversEjEUlhE_E9_M_invokeERKSt9_Any_dataOh
                0x0000b6f8        0xa ./build/./RepRapFirmware/src/Platform.o
 .text._ZN8Platform23EmergencyDisableDriversEv
                0x0000b702       0x2c ./build/./RepRapFirmware/src/Platform.o
                0x0000b702                Platform::EmergencyDisableDrivers()
 .text._ZNSt17_Function_handlerIFvhEZN8Platform14SetDriversIdleEvEUlhE_E9_M_invokeERKSt9_Any_dataOh
                0x0000b72e        0xa ./build/./RepRapFirmware/src/Platform.o
 .text._ZNSt17_Function_handlerIFvhEZN8Platform15SetMotorCurrentEjfiRK9StringRefEUlhE_E9_M_invokeERKSt9_Any_dataOh
                0x0000b738       0x3e ./build/./RepRapFirmware/src/Platform.o
 .text._ZNSt17_Function_handlerIFvhEZN8Platform20SetIdleCurrentFactorEfEUlhE_E9_M_invokeERKSt9_Any_dataOh
                0x0000b776        0xa ./build/./RepRapFirmware/src/Platform.o
 .text._ZNK8Platform15GetMotorCurrentEji
                0x0000b780       0x40 ./build/./RepRapFirmware/src/Platform.o
                0x0000b780                Platform::GetMotorCurrent(unsigned int, int) const
 .text._ZN8Platform20SetDriveStepsPerUnitEjfm
                0x0000b7c0       0x6c ./build/./RepRapFirmware/src/Platform.o
                0x0000b7c0                Platform::SetDriveStepsPerUnit(unsigned int, float, unsigned long)
 .text._ZN8Platform22SetDriverMicrosteppingEjji
                0x0000b82c       0x30 ./build/./RepRapFirmware/src/Platform.o
                0x0000b82c                Platform::SetDriverMicrostepping(unsigned int, unsigned int, int)
 .text._ZNSt17_Function_handlerIFvhEZN8Platform16SetMicrosteppingEjibRK9StringRefEUlhE_E9_M_invokeERKSt9_Any_dataOh
                0x0000b85c       0x40 ./build/./RepRapFirmware/src/Platform.o
 .text._ZNK8Platform16GetMicrosteppingEjRb
                0x0000b89c       0x16 ./build/./RepRapFirmware/src/Platform.o
                0x0000b89c                Platform::GetMicrostepping(unsigned int, bool&) const
 .text._ZN8Platform14SetEnableValueEja
                0x0000b8b2       0x54 ./build/./RepRapFirmware/src/Platform.o
                0x0000b8b2                Platform::SetEnableValue(unsigned int, signed char)
 .text._ZN8Platform20SetAxisDriversConfigEjjPK8DriverId
                0x0000b906       0x46 ./build/./RepRapFirmware/src/Platform.o
                0x0000b906                Platform::SetAxisDriversConfig(unsigned int, unsigned int, DriverId const*)
 .text._ZN8Platform11SetAxisTypeEj12AxisWrapTypeb
                0x0000b94c       0x32 ./build/./RepRapFirmware/src/Platform.o
                0x0000b94c                Platform::SetAxisType(unsigned int, AxisWrapType, bool)
 .text._ZN8Platform17SetExtruderDriverEj8DriverId
                0x0000b97e       0x28 ./build/./RepRapFirmware/src/Platform.o
                0x0000b97e                Platform::SetExtruderDriver(unsigned int, DriverId)
 *fill*         0x0000b9a6        0x2 
 .text._ZN8Platform19SetDriverStepTimingEjPKf
                0x0000b9a8       0xa0 ./build/./RepRapFirmware/src/Platform.o
                0x0000b9a8                Platform::SetDriverStepTiming(unsigned int, float const*)
 .text._ZNK8Platform19GetDriverStepTimingEjPf
                0x0000ba48       0x5c ./build/./RepRapFirmware/src/Platform.o
                0x0000ba48                Platform::GetDriverStepTiming(unsigned int, float*) const
 .text._ZN8Platform14AppendUsbReplyEP12OutputBuffer
                0x0000baa4       0x40 ./build/./RepRapFirmware/src/Platform.o
                0x0000baa4                Platform::AppendUsbReply(OutputBuffer*)
 .text._ZNK8Platform12IsAuxEnabledEj
                0x0000bae4        0xc ./build/./RepRapFirmware/src/Platform.o
                0x0000bae4                Platform::IsAuxEnabled(unsigned int) const
 .text._ZN8Platform9EnableAuxEj
                0x0000baf0       0x16 ./build/./RepRapFirmware/src/Platform.o
                0x0000baf0                Platform::EnableAux(unsigned int)
 .text._ZNK8Platform8IsAuxRawEj
                0x0000bb06        0xc ./build/./RepRapFirmware/src/Platform.o
                0x0000bb06                Platform::IsAuxRaw(unsigned int) const
 .text._ZN8Platform9SetAuxRawEjb
                0x0000bb12        0x8 ./build/./RepRapFirmware/src/Platform.o
                0x0000bb12                Platform::SetAuxRaw(unsigned int, bool)
 .text._ZN8Platform19InitPanelDueUpdaterEv
                0x0000bb1a       0x1c ./build/./RepRapFirmware/src/Platform.o
                0x0000bb1a                Platform::InitPanelDueUpdater()
 *fill*         0x0000bb36        0x2 
 .text._ZN8Platform14AppendAuxReplyEjPKcb
                0x0000bb38       0x28 ./build/./RepRapFirmware/src/Platform.o
                0x0000bb38                Platform::AppendAuxReply(unsigned int, char const*, bool)
 .text._ZN8Platform14AppendAuxReplyEjP12OutputBufferb
                0x0000bb60       0x30 ./build/./RepRapFirmware/src/Platform.o
                0x0000bb60                Platform::AppendAuxReply(unsigned int, OutputBuffer*, bool)
 .text._ZN8Platform7MessageE11MessageTypeP12OutputBuffer
                0x0000bb90       0xcc ./build/./RepRapFirmware/src/Platform.o
                0x0000bb90                Platform::Message(MessageType, OutputBuffer*)
 .text._ZN8Platform12DebugMessageEPKcSt9__va_list
                0x0000bc5c       0x40 ./build/./RepRapFirmware/src/Platform.o
                0x0000bc5c                Platform::DebugMessage(char const*, std::__va_list)
 .text._ZNK8Platform14GetLogFileNameEv
                0x0000bc9c        0xe ./build/./RepRapFirmware/src/Platform.o
                0x0000bc9c                Platform::GetLogFileName() const
 *fill*         0x0000bcaa        0x2 
 .text._ZNK8Platform11GetLogLevelEv
                0x0000bcac       0x30 ./build/./RepRapFirmware/src/Platform.o
                0x0000bcac                Platform::GetLogLevel() const
 .text._ZN8Platform11StopLoggingEv
                0x0000bcdc       0x14 ./build/./RepRapFirmware/src/Platform.o
                0x0000bcdc                Platform::StopLogging()
 .text._ZN8Platform16ConfigureLoggingER11GCodeBufferRK9StringRef
                0x0000bcf0       0xbc ./build/./RepRapFirmware/src/Platform.o
                0x0000bcf0                Platform::ConfigureLogging(GCodeBuffer&, StringRef const&)
 .text._ZNK8Platform8AtxPowerEv
                0x0000bdac        0xc ./build/./RepRapFirmware/src/Platform.o
                0x0000bdac                Platform::AtxPower() const
 .text._ZN8Platform10AtxPowerOnEv
                0x0000bdb8       0x2c ./build/./RepRapFirmware/src/Platform.o
                0x0000bdb8                Platform::AtxPowerOn()
 .text._ZN8Platform11AtxPowerOffEb
                0x0000bde4        0xc ./build/./RepRapFirmware/src/Platform.o
                0x0000bde4                Platform::AtxPowerOff(bool)
 .text._ZN8Platform18SetPressureAdvanceEfR11GCodeBufferRK9StringRef
                0x0000bdf0       0xb0 ./build/./RepRapFirmware/src/Platform.o
                0x0000bdf0                Platform::SetPressureAdvance(float, GCodeBuffer&, StringRef const&)
 .text._ZNK8Platform24GetExtrusionCoefficientsEjRfS0_S0_
                0x0000bea0       0x24 ./build/./RepRapFirmware/src/Platform.o
                0x0000bea0                Platform::GetExtrusionCoefficients(unsigned int, float&, float&, float&) const
 .text._ZN8Platform21SetNonlinearExtrusionEjfff
                0x0000bec4       0x2a ./build/./RepRapFirmware/src/Platform.o
                0x0000bec4                Platform::SetNonlinearExtrusion(unsigned int, float, float, float)
 .text._ZN8Platform11SetBaudRateEjm
                0x0000beee        0xe ./build/./RepRapFirmware/src/Platform.o
                0x0000beee                Platform::SetBaudRate(unsigned int, unsigned long)
 .text._ZNK8Platform11GetBaudRateEj
                0x0000befc       0x10 ./build/./RepRapFirmware/src/Platform.o
                0x0000befc                Platform::GetBaudRate(unsigned int) const
 .text._ZN8Platform18SetCommsPropertiesEjm
                0x0000bf0c        0xc ./build/./RepRapFirmware/src/Platform.o
                0x0000bf0c                Platform::SetCommsProperties(unsigned int, unsigned long)
 .text._ZNK8Platform18GetCommsPropertiesEj
                0x0000bf18        0xe ./build/./RepRapFirmware/src/Platform.o
                0x0000bf18                Platform::GetCommsProperties(unsigned int) const
 *fill*         0x0000bf26        0x2 
 .text._ZN8Platform12ResetChannelEj
                0x0000bf28       0x3c ./build/./RepRapFirmware/src/Platform.o
                0x0000bf28                Platform::ResetChannel(unsigned int)
 .text._ZNK8Platform20GetElectronicsStringEv
                0x0000bf64       0x18 ./build/./RepRapFirmware/src/Platform.o
                0x0000bf64                Platform::GetElectronicsString() const
 .text._ZNK8Platform14GetBoardStringEv
                0x0000bf7c       0x18 ./build/./RepRapFirmware/src/Platform.o
                0x0000bf7c                Platform::GetBoardString() const
 .text._ZNK8Platform8OpenFileEPKcS1_8OpenModem
                0x0000bf94       0x2a ./build/./RepRapFirmware/src/Platform.o
                0x0000bf94                Platform::OpenFile(char const*, char const*, OpenMode, unsigned long) const
 .text._ZNK8Platform10FileExistsEPKcS1_
                0x0000bfbe       0x24 ./build/./RepRapFirmware/src/Platform.o
                0x0000bfbe                Platform::FileExists(char const*, char const*) const
 .text._ZNK8Platform6DeleteEPKcS1_
                0x0000bfe2       0x26 ./build/./RepRapFirmware/src/Platform.o
                0x0000bfe2                Platform::Delete(char const*, char const*) const
 .text._ZN8Platform9SetSysDirEPKcRK9StringRef
                0x0000c008       0xc0 ./build/./RepRapFirmware/src/Platform.o
                0x0000c008                Platform::SetSysDir(char const*, StringRef const&)
 .text._ZNK8Platform9GetSysDirEv
                0x0000c0c8       0x28 ./build/./RepRapFirmware/src/Platform.o
                0x0000c0c8                Platform::GetSysDir() const
 .text._ZNK8Platform15MakeSysFileNameERK9StringRefPKc
                0x0000c0f0       0x28 ./build/./RepRapFirmware/src/Platform.o
                0x0000c0f0                Platform::MakeSysFileName(StringRef const&, char const*) const
 .text._ZNK8Platform13SysFileExistsEPKc
                0x0000c118       0x26 ./build/./RepRapFirmware/src/Platform.o
                0x0000c118                Platform::SysFileExists(char const*) const
 .text._ZNK8Platform11OpenSysFileEPKc8OpenMode
                0x0000c13e       0x2c ./build/./RepRapFirmware/src/Platform.o
                0x0000c13e                Platform::OpenSysFile(char const*, OpenMode) const
 .text._ZNK8Platform13DeleteSysFileEPKc
                0x0000c16a       0x28 ./build/./RepRapFirmware/src/Platform.o
                0x0000c16a                Platform::DeleteSysFile(char const*) const
 .text._ZNK8Platform12AppendSysDirERK9StringRef
                0x0000c192       0x20 ./build/./RepRapFirmware/src/Platform.o
                0x0000c192                Platform::AppendSysDir(StringRef const&) const
 *fill*         0x0000c1b2        0x2 
 .text._ZN8Platform11SetLaserPwmEt
                0x0000c1b4       0x28 ./build/./RepRapFirmware/src/Platform.o
                0x0000c1b4                Platform::SetLaserPwm(unsigned short)
 .text._ZNK8Platform11GetLaserPwmEv
                0x0000c1dc        0x6 ./build/./RepRapFirmware/src/Platform.o
                0x0000c1dc                Platform::GetLaserPwm() const
 .text._ZN8Platform14AssignLaserPinER11GCodeBufferRK9StringRef
                0x0000c1e2       0x24 ./build/./RepRapFirmware/src/Platform.o
                0x0000c1e2                Platform::AssignLaserPin(GCodeBuffer&, StringRef const&)
 .text._ZN8Platform20SetLaserPwmFrequencyEt
                0x0000c206        0x6 ./build/./RepRapFirmware/src/Platform.o
                0x0000c206                Platform::SetLaserPwmFrequency(unsigned short)
 .text._ZN8Platform14SetAxisMaximumEjfb
                0x0000c20c       0x2c ./build/./RepRapFirmware/src/Platform.o
                0x0000c20c                Platform::SetAxisMaximum(unsigned int, float, bool)
 .text._ZN8Platform14SetAxisMinimumEjfb
                0x0000c238       0x2c ./build/./RepRapFirmware/src/Platform.o
                0x0000c238                Platform::SetAxisMinimum(unsigned int, float, bool)
 .text._ZNK8Platform24GetTmcDriversTemperatureEj
                0x0000c264       0x24 ./build/./RepRapFirmware/src/Platform.o
                0x0000c264                Platform::GetTmcDriversTemperature(unsigned int) const
 .text._ZN8Platform13ConfigurePortER11GCodeBufferRK9StringRef
                0x0000c288       0xf0 ./build/./RepRapFirmware/src/Platform.o
                0x0000c288                Platform::ConfigurePort(GCodeBuffer&, StringRef const&)
 .text._ZN8Platform18GetSetAncillaryPwmER11GCodeBufferRK9StringRef
                0x0000c378       0xa8 ./build/./RepRapFirmware/src/Platform.o
                0x0000c378                Platform::GetSetAncillaryPwm(GCodeBuffer&, StringRef const&)
 .text._ZN8Platform4TickEv
                0x0000c420      0x18c ./build/./RepRapFirmware/src/Platform.o
                0x0000c420                Platform::Tick()
 .text._ZNSt8functionIFvhEEC2ERKS1_
                0x0000c5ac       0x28 ./build/./RepRapFirmware/src/Platform.o
                0x0000c5ac                std::function<void (unsigned char)>::function(std::function<void (unsigned char)> const&)
                0x0000c5ac                std::function<void (unsigned char)>::function(std::function<void (unsigned char)> const&)
 .text._ZNV15AveragingFilterILj16EE4InitEt
                0x0000c5d4       0x2a ./build/./RepRapFirmware/src/Platform.o
                0x0000c5d4                AveragingFilter<16u>::Init(unsigned short) volatile
 *fill*         0x0000c5fe        0x2 
 .text._ZN8Platform4InitEv
                0x0000c600      0x3b8 ./build/./RepRapFirmware/src/Platform.o
                0x0000c600                Platform::Init()
 .text._ZN6StringILj100EE6printfEPKcz
                0x0000c9b8       0x22 ./build/./RepRapFirmware/src/Platform.o
                0x0000c9b8                String<100u>::printf(char const*, ...)
 .text._ZN6StringILj100EE4catfEPKcz
                0x0000c9da       0x22 ./build/./RepRapFirmware/src/Platform.o
                0x0000c9da                String<100u>::catf(char const*, ...)
 .text._ZNSt17_Function_handlerIFvjjEZN8Platform13ReportDriversE11MessageTypeR6BitmapImEPKcRbEUljjE_E9_M_invokeERKSt9_Any_dataOjSE_
                0x0000c9fc       0x14 ./build/./RepRapFirmware/src/Platform.o
 .text._ZNSt17_Function_handlerIFvjjEZN8Platform15WriteAxisLimitsEP9FileStore6BitmapItEPKfiEUljjE_E9_M_invokeERKSt9_Any_dataOjSD_
                0x0000ca10       0x34 ./build/./RepRapFirmware/src/Platform.o
 .text._ZN6StringILj256EE6printfEPKcz
                0x0000ca44       0x24 ./build/./RepRapFirmware/src/Platform.o
                0x0000ca44                String<256u>::printf(char const*, ...)
 .text._ZNKSt8functionIFvhEEclEh
                0x0000ca68       0x1c ./build/./RepRapFirmware/src/Platform.o
                0x0000ca68                std::function<void (unsigned char)>::operator()(unsigned char) const
 .text._ZN8Platform14IterateDriversEjSt8functionIFvhEE
                0x0000ca84       0x4c ./build/./RepRapFirmware/src/Platform.o
                0x0000ca84                Platform::IterateDrivers(unsigned int, std::function<void (unsigned char)>)
 .text._ZN8Platform13EnableDriversEj
                0x0000cad0       0x58 ./build/./RepRapFirmware/src/Platform.o
                0x0000cad0                Platform::EnableDrivers(unsigned int)
 .text._ZN8Platform14DisableDriversEj
                0x0000cb28       0x34 ./build/./RepRapFirmware/src/Platform.o
                0x0000cb28                Platform::DisableDrivers(unsigned int)
 .text._ZN8Platform17DisableAllDriversEv
                0x0000cb5c       0x16 ./build/./RepRapFirmware/src/Platform.o
                0x0000cb5c                Platform::DisableAllDrivers()
 *fill*         0x0000cb72        0x2 
 .text._ZN8Platform14SetDriversIdleEv
                0x0000cb74       0x88 ./build/./RepRapFirmware/src/Platform.o
                0x0000cb74                Platform::SetDriversIdle()
 .text._ZN8Platform15SetMotorCurrentEjfiRK9StringRef
                0x0000cbfc       0xe4 ./build/./RepRapFirmware/src/Platform.o
                0x0000cbfc                Platform::SetMotorCurrent(unsigned int, float, int, StringRef const&)
 .text._ZN8Platform20SetIdleCurrentFactorEf
                0x0000cce0       0xa0 ./build/./RepRapFirmware/src/Platform.o
                0x0000cce0                Platform::SetIdleCurrentFactor(float)
 .text._ZN8Platform12SetDirectionEjb
                0x0000cd80       0xac ./build/./RepRapFirmware/src/Platform.o
                0x0000cd80                Platform::SetDirection(unsigned int, bool)
 .text._ZN8Platform16SetMicrosteppingEjibRK9StringRef
                0x0000ce2c       0xc0 ./build/./RepRapFirmware/src/Platform.o
                0x0000ce2c                Platform::SetMicrostepping(unsigned int, int, bool, StringRef const&)
 .text._ZN6StringILj256EE4copyEPKc
                0x0000ceec       0x16 ./build/./RepRapFirmware/src/Platform.o
                0x0000ceec                String<256u>::copy(char const*)
 .text._ZNV15AveragingFilterILj8EE4InitEt
                0x0000cf02       0x2e ./build/./RepRapFirmware/src/Platform.o
                0x0000cf02                AveragingFilter<8u>::Init(unsigned short) volatile
 .text._ZN8Platform17InitZProbeFiltersEv
                0x0000cf30       0x1a ./build/./RepRapFirmware/src/Platform.o
                0x0000cf30                Platform::InitZProbeFilters()
 *fill*         0x0000cf4a        0x2 
 .text._ZN8PlatformC2Ev
                0x0000cf4c      0x174 ./build/./RepRapFirmware/src/Platform.o
                0x0000cf4c                Platform::Platform()
                0x0000cf4c                Platform::Platform()
 .text._ZNKSt8functionIFvjjEEclEjj
                0x0000d0c0       0x1c ./build/./RepRapFirmware/src/Platform.o
                0x0000d0c0                std::function<void (unsigned int, unsigned int)>::operator()(unsigned int, unsigned int) const
 .text._ZNK6BitmapImE7IterateESt8functionIFvjjEE.isra.187
                0x0000d0dc       0x30 ./build/./RepRapFirmware/src/Platform.o
 .text._ZN8Platform23ConfigureStallDetectionER11GCodeBufferRK9StringRefRP12OutputBuffer
                0x0000d10c      0x2dc ./build/./RepRapFirmware/src/Platform.o
                0x0000d10c                Platform::ConfigureStallDetection(GCodeBuffer&, StringRef const&, OutputBuffer*&)
 .text._ZNK6BitmapItE7IterateESt8functionIFvjjEE.isra.189
                0x0000d3e8       0x30 ./build/./RepRapFirmware/src/Platform.o
 .text._ZN8Platform22DriverCoolingFansOnOffE6BitmapItEb
                0x0000d418       0x3c ./build/./RepRapFirmware/src/Platform.o
                0x0000d418                Platform::DriverCoolingFansOnOff(Bitmap<unsigned short>, bool)
 .text._ZN8Platform15WriteAxisLimitsEP9FileStore6BitmapItEPKfi
                0x0000d454       0x70 ./build/./RepRapFirmware/src/Platform.o
                0x0000d454                Platform::WriteAxisLimits(FileStore*, Bitmap<unsigned short>, float const*, int)
 .text._ZNK8Platform23WritePlatformParametersEP9FileStoreb
                0x0000d4c4       0x68 ./build/./RepRapFirmware/src/Platform.o
                0x0000d4c4                Platform::WritePlatformParameters(FileStore*, bool) const
 .text._ZNSt17_Function_handlerIFbcEZN8Platform12DebugMessageEPKcSt9__va_listEUlcE_E9_M_invokeERKSt9_Any_dataOc
                0x0000d52c       0x40 ./build/./RepRapFirmware/src/Platform.o
 .text._ZN8Platform10RawMessageE11MessageTypePKc
                0x0000d56c      0x118 ./build/./RepRapFirmware/src/Platform.o
                0x0000d56c                Platform::RawMessage(MessageType, char const*)
 .text._ZN8Platform7MessageE11MessageTypePKc.part.184
                0x0000d684       0x4c ./build/./RepRapFirmware/src/Platform.o
 .text._ZN8Platform7MessageE11MessageTypePKc
                0x0000d6d0        0xe ./build/./RepRapFirmware/src/Platform.o
                0x0000d6d0                Platform::Message(MessageType, char const*)
 *fill*         0x0000d6de        0x2 
 .text._ZN8Platform8MessageFE11MessageTypePKcSt9__va_list
                0x0000d6e0       0x68 ./build/./RepRapFirmware/src/Platform.o
                0x0000d6e0                Platform::MessageF(MessageType, char const*, std::__va_list)
 .text._ZN8Platform8MessageFE11MessageTypePKcz
                0x0000d748       0x1a ./build/./RepRapFirmware/src/Platform.o
                0x0000d748                Platform::MessageF(MessageType, char const*, ...)
 *fill*         0x0000d762        0x2 
 .text._ZN8Platform12PanelDueBeepEii
                0x0000d764       0x18 ./build/./RepRapFirmware/src/Platform.o
                0x0000d764                Platform::PanelDueBeep(int, int)
 .text._ZN8Platform11DiagnosticsE11MessageType
                0x0000d77c      0x2bc ./build/./RepRapFirmware/src/Platform.o
                0x0000d77c                Platform::Diagnostics(MessageType)
 .text._ZN8Platform14DiagnosticTestER11GCodeBufferRK9StringRefRP12OutputBufferj
                0x0000da38      0x5ac ./build/./RepRapFirmware/src/Platform.o
                0x0000da38                Platform::DiagnosticTest(GCodeBuffer&, StringRef const&, OutputBuffer*&, unsigned int)
 .text._ZN8Platform9SendAlertE11MessageTypePKcS2_if6BitmapItE
                0x0000dfe4       0xac ./build/./RepRapFirmware/src/Platform.o
                0x0000dfe4                Platform::SendAlert(MessageType, char const*, char const*, int, float, Bitmap<unsigned short>)
 .text._ZN8Platform11SetDateTimeEx
                0x0000e090       0x74 ./build/./RepRapFirmware/src/Platform.o
                0x0000e090                Platform::SetDateTime(long long)
 .text._ZN8Platform13ReportDriversE11MessageTypeR6BitmapImEPKcRb
                0x0000e104       0x64 ./build/./RepRapFirmware/src/Platform.o
                0x0000e104                Platform::ReportDrivers(MessageType, Bitmap<unsigned long>&, char const*, bool&)
 .text._ZN8Platform13FlushMessagesEv
                0x0000e168       0xb0 ./build/./RepRapFirmware/src/Platform.o
                0x0000e168                Platform::FlushMessages()
 .text._ZN8Platform4SpinEv
                0x0000e218      0x3c4 ./build/./RepRapFirmware/src/Platform.o
                0x0000e218                Platform::Spin()
 .text._ZN12PrintMonitorUlPK11ObjectModelRK24ObjectExplorationContextE_4_FUNES2_S5_
                0x0000e5dc        0x6 ./build/./RepRapFirmware/src/PrintMonitor.o
 .text._ZN12PrintMonitorUlPK11ObjectModelR24ObjectExplorationContextE2_4_FUNES2_S4_
                0x0000e5e2       0x1a ./build/./RepRapFirmware/src/PrintMonitor.o
 .text._ZN12PrintMonitorUlPK11ObjectModelR24ObjectExplorationContextE9_4_FUNES2_S4_
                0x0000e5fc       0x1a ./build/./RepRapFirmware/src/PrintMonitor.o
 *fill*         0x0000e616        0x2 
 .text._ZN12PrintMonitorUlPK11ObjectModelR24ObjectExplorationContextE11_4_FUNES2_S4_
                0x0000e618       0x10 ./build/./RepRapFirmware/src/PrintMonitor.o
 .text._ZN12PrintMonitorUlPK11ObjectModelR24ObjectExplorationContextE13_4_FUNES2_S4_
                0x0000e628        0xe ./build/./RepRapFirmware/src/PrintMonitor.o
 .text._ZN12PrintMonitorUlPK11ObjectModelR24ObjectExplorationContextE15_4_FUNES2_S4_
                0x0000e636        0xe ./build/./RepRapFirmware/src/PrintMonitor.o
 .text._ZN12PrintMonitorUlPK11ObjectModelR24ObjectExplorationContextE17_4_FUNES2_S4_
                0x0000e644        0xe ./build/./RepRapFirmware/src/PrintMonitor.o
 .text._ZN12PrintMonitorUlPK11ObjectModelR24ObjectExplorationContextE21_4_FUNES2_S4_
                0x0000e652        0xc ./build/./RepRapFirmware/src/PrintMonitor.o
 *fill*         0x0000e65e        0x2 
 .text._ZNK12PrintMonitor29GetObjectModelClassDescriptorEv
                0x0000e660        0x8 ./build/./RepRapFirmware/src/PrintMonitor.o
                0x0000e660                PrintMonitor::GetObjectModelClassDescriptor() const
 .text._ZN12PrintMonitorD2Ev
                0x0000e668        0x2 ./build/./RepRapFirmware/src/PrintMonitor.o
                0x0000e668                PrintMonitor::~PrintMonitor()
                0x0000e668                PrintMonitor::~PrintMonitor()
 .text._ZN12PrintMonitorD0Ev
                0x0000e66a       0x10 ./build/./RepRapFirmware/src/PrintMonitor.o
                0x0000e66a                PrintMonitor::~PrintMonitor()
 .text._ZN12PrintMonitorUlPK11ObjectModelR24ObjectExplorationContextE0_4_FUNES2_S4_
                0x0000e67a       0x22 ./build/./RepRapFirmware/src/PrintMonitor.o
 .text._ZN12PrintMonitorUlPK11ObjectModelR24ObjectExplorationContextE18_4_FUNES2_S4_
                0x0000e69c       0x16 ./build/./RepRapFirmware/src/PrintMonitor.o
 .text._ZN12PrintMonitorUlPK11ObjectModelR24ObjectExplorationContextE20_4_FUNES2_S4_
                0x0000e6b2       0x14 ./build/./RepRapFirmware/src/PrintMonitor.o
 .text._ZN12PrintMonitorUlPK11ObjectModelR24ObjectExplorationContextE19_4_FUNES2_S4_
                0x0000e6c6       0x14 ./build/./RepRapFirmware/src/PrintMonitor.o
 .text._ZN12PrintMonitorUlPK11ObjectModelR24ObjectExplorationContextE16_4_FUNES2_S4_
                0x0000e6da       0x1e ./build/./RepRapFirmware/src/PrintMonitor.o
 .text._ZN12PrintMonitorUlPK11ObjectModelR24ObjectExplorationContextE7_4_FUNES2_S4_
                0x0000e6f8       0x14 ./build/./RepRapFirmware/src/PrintMonitor.o
 .text._ZN12PrintMonitorUlPK11ObjectModelR24ObjectExplorationContextE3_4_FUNES2_S4_
                0x0000e70c       0x1c ./build/./RepRapFirmware/src/PrintMonitor.o
 .text._ZN12PrintMonitorUlPK11ObjectModelR24ObjectExplorationContextE5_4_FUNES2_S4_
                0x0000e728       0x20 ./build/./RepRapFirmware/src/PrintMonitor.o
 .text._ZN12PrintMonitorUlPK11ObjectModelR24ObjectExplorationContextE12_4_FUNES2_S4_
                0x0000e748       0x16 ./build/./RepRapFirmware/src/PrintMonitor.o
 .text._ZN12PrintMonitorUlPK11ObjectModelR24ObjectExplorationContextE6_4_FUNES2_S4_
                0x0000e75e       0x18 ./build/./RepRapFirmware/src/PrintMonitor.o
 .text._ZN12PrintMonitorUlPK11ObjectModelR24ObjectExplorationContextE14_4_FUNES2_S4_
                0x0000e776       0x16 ./build/./RepRapFirmware/src/PrintMonitor.o
 .text._ZN10ReadLockerD2Ev
                0x0000e78c       0x10 ./build/./RepRapFirmware/src/PrintMonitor.o
                0x0000e78c                ReadLocker::~ReadLocker()
                0x0000e78c                ReadLocker::~ReadLocker()
 .text._ZN11WriteLockerD2Ev
                0x0000e79c       0x10 ./build/./RepRapFirmware/src/PrintMonitor.o
                0x0000e79c                WriteLocker::~WriteLocker()
                0x0000e79c                WriteLocker::~WriteLocker()
 .text._ZN12PrintMonitorC2ER8PlatformR6GCodes
                0x0000e7ac       0x5c ./build/./RepRapFirmware/src/PrintMonitor.o
                0x0000e7ac                PrintMonitor::PrintMonitor(Platform&, GCodes&)
                0x0000e7ac                PrintMonitor::PrintMonitor(Platform&, GCodes&)
 .text._ZN12PrintMonitor4InitEv
                0x0000e808        0xc ./build/./RepRapFirmware/src/PrintMonitor.o
                0x0000e808                PrintMonitor::Init()
 .text._ZN12PrintMonitor19GetPrintingFileInfoER13GCodeFileInfo
                0x0000e814       0x26 ./build/./RepRapFirmware/src/PrintMonitor.o
                0x0000e814                PrintMonitor::GetPrintingFileInfo(GCodeFileInfo&)
 *fill*         0x0000e83a        0x2 
 .text._ZNK12PrintMonitor17GetWarmUpDurationEv
                0x0000e83c       0x34 ./build/./RepRapFirmware/src/PrintMonitor.o
                0x0000e83c                PrintMonitor::GetWarmUpDuration() const
 .text._ZN12PrintMonitorUlPK11ObjectModelR24ObjectExplorationContextE10_4_FUNES2_S4_
                0x0000e870       0x22 ./build/./RepRapFirmware/src/PrintMonitor.o
 *fill*         0x0000e892        0x2 
 .text._ZN12PrintMonitor13StartingPrintEPKc
                0x0000e894       0x5c ./build/./RepRapFirmware/src/PrintMonitor.o
                0x0000e894                PrintMonitor::StartingPrint(char const*)
 .text._ZN12PrintMonitor5ResetEv
                0x0000e8f0       0x5c ./build/./RepRapFirmware/src/PrintMonitor.o
                0x0000e8f0                PrintMonitor::Reset()
 .text._ZN12PrintMonitor12StartedPrintEv
                0x0000e94c       0x16 ./build/./RepRapFirmware/src/PrintMonitor.o
                0x0000e94c                PrintMonitor::StartedPrint()
 .text._ZN12PrintMonitor12StoppedPrintEv
                0x0000e962       0x12 ./build/./RepRapFirmware/src/PrintMonitor.o
                0x0000e962                PrintMonitor::StoppedPrint()
 .text._ZN12PrintMonitor14SetLayerNumberEm
                0x0000e974        0x6 ./build/./RepRapFirmware/src/PrintMonitor.o
                0x0000e974                PrintMonitor::SetLayerNumber(unsigned long)
 .text._ZN12PrintMonitor9SetLayerZEf
                0x0000e97a        0x6 ./build/./RepRapFirmware/src/PrintMonitor.o
                0x0000e97a                PrintMonitor::SetLayerZ(float)
 .text._ZNK12PrintMonitor21FractionOfFilePrintedEv
                0x0000e980       0x54 ./build/./RepRapFirmware/src/PrintMonitor.o
                0x0000e980                PrintMonitor::FractionOfFilePrinted() const
 .text._ZNK12PrintMonitor16GetPrintDurationEv
                0x0000e9d4       0x44 ./build/./RepRapFirmware/src/PrintMonitor.o
                0x0000e9d4                PrintMonitor::GetPrintDuration() const
 .text._ZN12PrintMonitorUlPK11ObjectModelR24ObjectExplorationContextE8_4_FUNES2_S4_
                0x0000ea18       0x3c ./build/./RepRapFirmware/src/PrintMonitor.o
 .text._ZNK12PrintMonitor27GetPrintOrSimulatedDurationEv
                0x0000ea54       0x2c ./build/./RepRapFirmware/src/PrintMonitor.o
                0x0000ea54                PrintMonitor::GetPrintOrSimulatedDuration() const
 .text._ZN12PrintMonitorUlPK11ObjectModelR24ObjectExplorationContextE1_4_FUNES2_S4_
                0x0000ea80       0x1e ./build/./RepRapFirmware/src/PrintMonitor.o
 .text._ZNK12PrintMonitor21GetFirstLayerDurationEv
                0x0000ea9e       0x2a ./build/./RepRapFirmware/src/PrintMonitor.o
                0x0000ea9e                PrintMonitor::GetFirstLayerDuration() const
 .text._ZN12PrintMonitorUlPK11ObjectModelR24ObjectExplorationContextE4_4_FUNES2_S4_
                0x0000eac8       0x22 ./build/./RepRapFirmware/src/PrintMonitor.o
 .text._ZN12PrintMonitor18FirstLayerCompleteEv
                0x0000eaea       0x72 ./build/./RepRapFirmware/src/PrintMonitor.o
                0x0000eaea                PrintMonitor::FirstLayerComplete()
 .text._ZN12PrintMonitor13LayerCompleteEv
                0x0000eb5c      0x160 ./build/./RepRapFirmware/src/PrintMonitor.o
                0x0000eb5c                PrintMonitor::LayerComplete()
 .text._ZNK12PrintMonitor16EstimateTimeLeftE21PrintEstimationMethod
                0x0000ecbc      0x244 ./build/./RepRapFirmware/src/PrintMonitor.o
                0x0000ecbc                PrintMonitor::EstimateTimeLeft(PrintEstimationMethod) const
 .text._ZNK12PrintMonitor28EstimateTimeLeftAsExpressionE21PrintEstimationMethod
                0x0000ef00       0x2c ./build/./RepRapFirmware/src/PrintMonitor.o
                0x0000ef00                PrintMonitor::EstimateTimeLeftAsExpression(PrintEstimationMethod) const
 .text._ZN12PrintMonitorUlPK11ObjectModelR24ObjectExplorationContextE24_4_FUNES2_S4_
                0x0000ef2c        0xe ./build/./RepRapFirmware/src/PrintMonitor.o
 .text._ZN12PrintMonitorUlPK11ObjectModelR24ObjectExplorationContextE23_4_FUNES2_S4_
                0x0000ef3a        0xe ./build/./RepRapFirmware/src/PrintMonitor.o
 .text._ZN12PrintMonitorUlPK11ObjectModelR24ObjectExplorationContextE22_4_FUNES2_S4_
                0x0000ef48        0xe ./build/./RepRapFirmware/src/PrintMonitor.o
 *fill*         0x0000ef56        0x2 
 .text._ZN12PrintMonitor4SpinEv
                0x0000ef58      0x1f0 ./build/./RepRapFirmware/src/PrintMonitor.o
                0x0000ef58                PrintMonitor::Spin()
 .text.startup._GLOBAL__sub_I__ZN12PrintMonitor16printMonitorLockE
                0x0000f148       0x10 ./build/./RepRapFirmware/src/PrintMonitor.o
 .text._ZN6RepRapUlPK11ObjectModelRK24ObjectExplorationContextE_4_FUNES2_S5_
                0x0000f158        0x4 ./build/./RepRapFirmware/src/RepRap.o
 .text._ZN6RepRapUlPK11ObjectModelR24ObjectExplorationContextE0_4_FUNES2_S4_
                0x0000f15c       0x18 ./build/./RepRapFirmware/src/RepRap.o
 .text._ZN6RepRapUlPK11ObjectModelRK24ObjectExplorationContextE3_4_FUNES2_S5_
                0x0000f174        0x4 ./build/./RepRapFirmware/src/RepRap.o
 .text._ZN6RepRapUlPK11ObjectModelRK24ObjectExplorationContextE7_4_FUNES2_S5_
                0x0000f178        0x4 ./build/./RepRapFirmware/src/RepRap.o
 .text._ZN6RepRapUlPK11ObjectModelRK24ObjectExplorationContextE9_4_FUNES2_S5_
                0x0000f17c        0x6 ./build/./RepRapFirmware/src/RepRap.o
 .text._ZN6RepRapUlPK11ObjectModelRK24ObjectExplorationContextE11_4_FUNES2_S5_
                0x0000f182        0x4 ./build/./RepRapFirmware/src/RepRap.o
 *fill*         0x0000f186        0x2 
 .text._ZN6RepRapUlPK11ObjectModelR24ObjectExplorationContextE15_4_FUNES2_S4_
                0x0000f188       0x10 ./build/./RepRapFirmware/src/RepRap.o
 .text._ZN6RepRapUlPK11ObjectModelR24ObjectExplorationContextE16_4_FUNES2_S4_
                0x0000f198       0x1a ./build/./RepRapFirmware/src/RepRap.o
 *fill*         0x0000f1b2        0x2 
 .text._ZN6RepRapUlPK11ObjectModelR24ObjectExplorationContextE17_4_FUNES2_S4_
                0x0000f1b4       0x10 ./build/./RepRapFirmware/src/RepRap.o
 .text._ZN6RepRapUlPK11ObjectModelR24ObjectExplorationContextE19_4_FUNES2_S4_
                0x0000f1c4       0x10 ./build/./RepRapFirmware/src/RepRap.o
 .text._ZN6RepRapUlPK11ObjectModelR24ObjectExplorationContextE21_4_FUNES2_S4_
                0x0000f1d4       0x1a ./build/./RepRapFirmware/src/RepRap.o
 .text._ZN6RepRapUlPK11ObjectModelR24ObjectExplorationContextE25_4_FUNES2_S4_
                0x0000f1ee       0x1a ./build/./RepRapFirmware/src/RepRap.o
 .text._ZN6RepRapUlPK11ObjectModelR24ObjectExplorationContextE26_4_FUNES2_S4_
                0x0000f208       0x10 ./build/./RepRapFirmware/src/RepRap.o
 .text._ZN6RepRapUlPK11ObjectModelR24ObjectExplorationContextE27_4_FUNES2_S4_
                0x0000f218       0x1a ./build/./RepRapFirmware/src/RepRap.o
 *fill*         0x0000f232        0x2 
 .text._ZN6RepRapUlPK11ObjectModelR24ObjectExplorationContextE28_4_FUNES2_S4_
                0x0000f234       0x10 ./build/./RepRapFirmware/src/RepRap.o
 .text._ZN6RepRapUlPK11ObjectModelR24ObjectExplorationContextE29_4_FUNES2_S4_
                0x0000f244       0x10 ./build/./RepRapFirmware/src/RepRap.o
 .text._ZN6RepRapUlPK11ObjectModelR24ObjectExplorationContextE30_4_FUNES2_S4_
                0x0000f254       0x10 ./build/./RepRapFirmware/src/RepRap.o
 .text._ZN6RepRapUlPK11ObjectModelR24ObjectExplorationContextE31_4_FUNES2_S4_
                0x0000f264       0x10 ./build/./RepRapFirmware/src/RepRap.o
 .text._ZN6RepRapUlPK11ObjectModelR24ObjectExplorationContextE32_4_FUNES2_S4_
                0x0000f274       0x10 ./build/./RepRapFirmware/src/RepRap.o
 .text._ZN6RepRapUlPK11ObjectModelR24ObjectExplorationContextE33_4_FUNES2_S4_
                0x0000f284       0x10 ./build/./RepRapFirmware/src/RepRap.o
 .text._ZN6RepRapUlPK11ObjectModelR24ObjectExplorationContextE34_4_FUNES2_S4_
                0x0000f294       0x10 ./build/./RepRapFirmware/src/RepRap.o
 .text._ZN6RepRapUlPK11ObjectModelR24ObjectExplorationContextE35_4_FUNES2_S4_
                0x0000f2a4       0x10 ./build/./RepRapFirmware/src/RepRap.o
 .text._ZN6RepRapUlPK11ObjectModelR24ObjectExplorationContextE36_4_FUNES2_S4_
                0x0000f2b4        0xa ./build/./RepRapFirmware/src/RepRap.o
 *fill*         0x0000f2be        0x2 
 .text._ZN6RepRapUlPK11ObjectModelR24ObjectExplorationContextE37_4_FUNES2_S4_
                0x0000f2c0       0x10 ./build/./RepRapFirmware/src/RepRap.o
 .text._ZN6RepRapUlPK11ObjectModelR24ObjectExplorationContextE38_4_FUNES2_S4_
                0x0000f2d0        0xa ./build/./RepRapFirmware/src/RepRap.o
 .text._ZN6RepRapUlPK11ObjectModelR24ObjectExplorationContextE39_4_FUNES2_S4_
                0x0000f2da        0xa ./build/./RepRapFirmware/src/RepRap.o
 .text._ZN6RepRapUlPK11ObjectModelR24ObjectExplorationContextE40_4_FUNES2_S4_
                0x0000f2e4        0xa ./build/./RepRapFirmware/src/RepRap.o
 .text._ZN6RepRapUlPK11ObjectModelR24ObjectExplorationContextE44_4_FUNES2_S4_
                0x0000f2ee        0xa ./build/./RepRapFirmware/src/RepRap.o
 .text._ZN6RepRapUlPK11ObjectModelR24ObjectExplorationContextE45_4_FUNES2_S4_
                0x0000f2f8        0xa ./build/./RepRapFirmware/src/RepRap.o
 .text._ZN6RepRapUlPK11ObjectModelR24ObjectExplorationContextE53_4_FUNES2_S4_
                0x0000f302        0xa ./build/./RepRapFirmware/src/RepRap.o
 .text._ZN6RepRapUlPK11ObjectModelR24ObjectExplorationContextE54_4_FUNES2_S4_
                0x0000f30c        0xa ./build/./RepRapFirmware/src/RepRap.o
 .text._ZN6RepRapUlPK11ObjectModelR24ObjectExplorationContextE56_4_FUNES2_S4_
                0x0000f316        0xa ./build/./RepRapFirmware/src/RepRap.o
 .text._ZN6RepRapUlPK11ObjectModelR24ObjectExplorationContextE57_4_FUNES2_S4_
                0x0000f320        0xa ./build/./RepRapFirmware/src/RepRap.o
 .text._ZN6RepRapUlPK11ObjectModelR24ObjectExplorationContextE58_4_FUNES2_S4_
                0x0000f32a        0xa ./build/./RepRapFirmware/src/RepRap.o
 .text._ZN6RepRapUlPK11ObjectModelR24ObjectExplorationContextE60_4_FUNES2_S4_
                0x0000f334        0xa ./build/./RepRapFirmware/src/RepRap.o
 .text._ZN6RepRapUlPK11ObjectModelR24ObjectExplorationContextE61_4_FUNES2_S4_
                0x0000f33e        0xa ./build/./RepRapFirmware/src/RepRap.o
 .text._ZN6RepRapUlPK11ObjectModelR24ObjectExplorationContextE66_4_FUNES2_S4_
                0x0000f348        0xc ./build/./RepRapFirmware/src/RepRap.o
 .text._ZN6RepRapUlPK11ObjectModelR24ObjectExplorationContextE67_4_FUNES2_S4_
                0x0000f354       0x10 ./build/./RepRapFirmware/src/RepRap.o
 .text._ZN6RepRapUlPK11ObjectModelR24ObjectExplorationContextE73_4_FUNES2_S4_
                0x0000f364       0x1c ./build/./RepRapFirmware/src/RepRap.o
 .text._ZN6RepRapUlPK11ObjectModelR24ObjectExplorationContextE74_4_FUNES2_S4_
                0x0000f380        0xe ./build/./RepRapFirmware/src/RepRap.o
 .text._ZN6RepRapUlPK11ObjectModelR24ObjectExplorationContextE75_4_FUNES2_S4_
                0x0000f38e        0xc ./build/./RepRapFirmware/src/RepRap.o
 *fill*         0x0000f39a        0x2 
 .text._ZN6RepRapUlPK11ObjectModelR24ObjectExplorationContextE76_4_FUNES2_S4_
                0x0000f39c       0x10 ./build/./RepRapFirmware/src/RepRap.o
 .text._ZN6RepRapUlPK11ObjectModelR24ObjectExplorationContextE80_4_FUNES2_S4_
                0x0000f3ac        0xc ./build/./RepRapFirmware/src/RepRap.o
 .text._ZN6RepRapUlPK11ObjectModelR24ObjectExplorationContextE81_4_FUNES2_S4_
                0x0000f3b8        0xc ./build/./RepRapFirmware/src/RepRap.o
 .text._ZN6RepRapUlPK11ObjectModelR24ObjectExplorationContextE82_4_FUNES2_S4_
                0x0000f3c4        0xc ./build/./RepRapFirmware/src/RepRap.o
 .text._ZN6RepRapUlPK11ObjectModelR24ObjectExplorationContextE83_4_FUNES2_S4_
                0x0000f3d0        0xc ./build/./RepRapFirmware/src/RepRap.o
 .text._ZN6RepRapUlPK11ObjectModelR24ObjectExplorationContextE84_4_FUNES2_S4_
                0x0000f3dc        0xc ./build/./RepRapFirmware/src/RepRap.o
 .text._ZN6RepRapUlPK11ObjectModelR24ObjectExplorationContextE85_4_FUNES2_S4_
                0x0000f3e8        0xc ./build/./RepRapFirmware/src/RepRap.o
 .text._ZN6RepRapUlPK11ObjectModelR24ObjectExplorationContextE86_4_FUNES2_S4_
                0x0000f3f4        0xc ./build/./RepRapFirmware/src/RepRap.o
 .text._ZN6RepRapUlPK11ObjectModelR24ObjectExplorationContextE87_4_FUNES2_S4_
                0x0000f400        0xc ./build/./RepRapFirmware/src/RepRap.o
 .text._ZN6RepRapUlPK11ObjectModelR24ObjectExplorationContextE88_4_FUNES2_S4_
                0x0000f40c        0xc ./build/./RepRapFirmware/src/RepRap.o
 .text._ZN6RepRapUlPK11ObjectModelR24ObjectExplorationContextE89_4_FUNES2_S4_
                0x0000f418        0xc ./build/./RepRapFirmware/src/RepRap.o
 .text._ZN6RepRapUlPK11ObjectModelR24ObjectExplorationContextE90_4_FUNES2_S4_
                0x0000f424        0xc ./build/./RepRapFirmware/src/RepRap.o
 .text._ZN6RepRapUlPK11ObjectModelR24ObjectExplorationContextE91_4_FUNES2_S4_
                0x0000f430        0xc ./build/./RepRapFirmware/src/RepRap.o
 .text._ZN6RepRapUlPK11ObjectModelR24ObjectExplorationContextE92_4_FUNES2_S4_
                0x0000f43c        0xc ./build/./RepRapFirmware/src/RepRap.o
 .text._ZN6RepRapUlPK11ObjectModelR24ObjectExplorationContextE93_4_FUNES2_S4_
                0x0000f448        0xc ./build/./RepRapFirmware/src/RepRap.o
 .text._ZN6RepRapUlPK11ObjectModelR24ObjectExplorationContextE94_4_FUNES2_S4_
                0x0000f454        0xc ./build/./RepRapFirmware/src/RepRap.o
 .text._ZN6RepRapUlPK11ObjectModelR24ObjectExplorationContextE95_4_FUNES2_S4_
                0x0000f460        0xc ./build/./RepRapFirmware/src/RepRap.o
 .text._ZN6RepRapUlPK11ObjectModelR24ObjectExplorationContextE96_4_FUNES2_S4_
                0x0000f46c       0x10 ./build/./RepRapFirmware/src/RepRap.o
 .text._ZN6RepRapUlPK11ObjectModelR24ObjectExplorationContextE97_4_FUNES2_S4_
                0x0000f47c        0xc ./build/./RepRapFirmware/src/RepRap.o
 .text._ZN6RepRapUlPK11ObjectModelR24ObjectExplorationContextE98_4_FUNES2_S4_
                0x0000f488        0xc ./build/./RepRapFirmware/src/RepRap.o
 .text._ZN6RepRapUlPK11ObjectModelR24ObjectExplorationContextE99_4_FUNES2_S4_
                0x0000f494        0xc ./build/./RepRapFirmware/src/RepRap.o
 .text._ZN6RepRapUlPK11ObjectModelR24ObjectExplorationContextE100_4_FUNES2_S4_
                0x0000f4a0        0xc ./build/./RepRapFirmware/src/RepRap.o
 .text._ZN6RepRapUlPK11ObjectModelR24ObjectExplorationContextE101_4_FUNES2_S4_
                0x0000f4ac        0xc ./build/./RepRapFirmware/src/RepRap.o
 .text._ZNK6RepRap29GetObjectModelClassDescriptorEv
                0x0000f4b8        0x8 ./build/./RepRapFirmware/src/RepRap.o
                0x0000f4b8                RepRap::GetObjectModelClassDescriptor() const
 .text._ZNSt14_Function_base13_Base_managerIZNK6RepRap17GetStatusResponseEh14ResponseSourceEUljE_E10_M_managerERSt9_Any_dataRKS5_St18_Manager_operation
                0x0000f4c0       0x16 ./build/./RepRapFirmware/src/RepRap.o
 .text._ZNSt14_Function_base13_Base_managerIZNK6RepRap17GetStatusResponseEh14ResponseSourceEUljE0_E10_M_managerERSt9_Any_dataRKS5_St18_Manager_operation
                0x0000f4d6       0x16 ./build/./RepRapFirmware/src/RepRap.o
 .text._ZNSt14_Function_base13_Base_managerIZNK6RepRap17GetStatusResponseEh14ResponseSourceEUljE1_E10_M_managerERSt9_Any_dataRKS5_St18_Manager_operation
                0x0000f4ec       0x16 ./build/./RepRapFirmware/src/RepRap.o
 .text._ZNSt14_Function_base13_Base_managerIZNK6RepRap17GetStatusResponseEh14ResponseSourceEUljE2_E10_M_managerERSt9_Any_dataRKS5_St18_Manager_operation
                0x0000f502       0x16 ./build/./RepRapFirmware/src/RepRap.o
 .text._ZNSt14_Function_base13_Base_managerIZNK6RepRap17GetStatusResponseEh14ResponseSourceEUljE3_E10_M_managerERSt9_Any_dataRKS5_St18_Manager_operation
                0x0000f518       0x16 ./build/./RepRapFirmware/src/RepRap.o
 .text._ZNSt14_Function_base13_Base_managerIZNK6RepRap17GetStatusResponseEh14ResponseSourceEUljE4_E10_M_managerERSt9_Any_dataRKS5_St18_Manager_operation
                0x0000f52e       0x16 ./build/./RepRapFirmware/src/RepRap.o
 .text._ZNSt14_Function_base13_Base_managerIZNK6RepRap17GetStatusResponseEh14ResponseSourceEUljE5_E10_M_managerERSt9_Any_dataRKS5_St18_Manager_operation
                0x0000f544       0x16 ./build/./RepRapFirmware/src/RepRap.o
 .text._ZNSt14_Function_base13_Base_managerIZNK6RepRap17GetStatusResponseEh14ResponseSourceEUljE6_E10_M_managerERSt9_Any_dataRKS5_St18_Manager_operation
                0x0000f55a       0x16 ./build/./RepRapFirmware/src/RepRap.o
 .text._ZNSt14_Function_base13_Base_managerIZNK6RepRap17GetStatusResponseEh14ResponseSourceEUljE7_E10_M_managerERSt9_Any_dataRKS5_St18_Manager_operation
                0x0000f570       0x16 ./build/./RepRapFirmware/src/RepRap.o
 .text._ZNSt14_Function_base13_Base_managerIZNK6RepRap17GetStatusResponseEh14ResponseSourceEUljE8_E10_M_managerERSt9_Any_dataRKS5_St18_Manager_operation
                0x0000f586       0x16 ./build/./RepRapFirmware/src/RepRap.o
 .text._ZNSt14_Function_base13_Base_managerIZNK6RepRap17GetStatusResponseEh14ResponseSourceEUljE9_E10_M_managerERSt9_Any_dataRKS5_St18_Manager_operation
                0x0000f59c       0x16 ./build/./RepRapFirmware/src/RepRap.o
 .text._ZNSt17_Function_handlerIFfjEZNK6RepRap17GetStatusResponseEh14ResponseSourceEUljE10_E9_M_invokeERKSt9_Any_dataOj
                0x0000f5b2        0xc ./build/./RepRapFirmware/src/RepRap.o
 .text._ZNSt14_Function_base13_Base_managerIZNK6RepRap17GetStatusResponseEh14ResponseSourceEUljE10_E10_M_managerERSt9_Any_dataRKS5_St18_Manager_operation
                0x0000f5be       0x16 ./build/./RepRapFirmware/src/RepRap.o
 .text._ZNSt17_Function_handlerIFfjEZNK6RepRap17GetStatusResponseEh14ResponseSourceEUljE11_E9_M_invokeERKSt9_Any_dataOj
                0x0000f5d4        0xc ./build/./RepRapFirmware/src/RepRap.o
 .text._ZNSt14_Function_base13_Base_managerIZNK6RepRap17GetStatusResponseEh14ResponseSourceEUljE11_E10_M_managerERSt9_Any_dataRKS5_St18_Manager_operation
                0x0000f5e0       0x16 ./build/./RepRapFirmware/src/RepRap.o
 .text._ZNSt17_Function_handlerIFijEZNK6RepRap17GetStatusResponseEh14ResponseSourceEUljE12_E9_M_invokeERKSt9_Any_dataOj
                0x0000f5f6        0xc ./build/./RepRapFirmware/src/RepRap.o
 .text._ZNSt14_Function_base13_Base_managerIZNK6RepRap17GetStatusResponseEh14ResponseSourceEUljE12_E10_M_managerERSt9_Any_dataRKS5_St18_Manager_operation
                0x0000f602       0x16 ./build/./RepRapFirmware/src/RepRap.o
 .text._ZNSt17_Function_handlerIFijEZNK6RepRap17GetStatusResponseEh14ResponseSourceEUljE13_E9_M_invokeERKSt9_Any_dataOj
                0x0000f618        0xc ./build/./RepRapFirmware/src/RepRap.o
 .text._ZNSt14_Function_base13_Base_managerIZNK6RepRap17GetStatusResponseEh14ResponseSourceEUljE13_E10_M_managerERSt9_Any_dataRKS5_St18_Manager_operation
                0x0000f624       0x16 ./build/./RepRapFirmware/src/RepRap.o
 .text._ZNSt14_Function_base13_Base_managerIZNK6RepRap17GetStatusResponseEh14ResponseSourceEUljjE14_E10_M_managerERSt9_Any_dataRKS5_St18_Manager_operation
                0x0000f63a       0x16 ./build/./RepRapFirmware/src/RepRap.o
 .text._ZNSt14_Function_base13_Base_managerIZNK6RepRap17GetStatusResponseEh14ResponseSourceEUljjE15_E10_M_managerERSt9_Any_dataRKS5_St18_Manager_operation
                0x0000f650       0x16 ./build/./RepRapFirmware/src/RepRap.o
 .text._ZNSt17_Function_handlerIFfjEZNK6RepRap17GetStatusResponseEh14ResponseSourceEUljE16_E9_M_invokeERKSt9_Any_dataOj
                0x0000f666        0xc ./build/./RepRapFirmware/src/RepRap.o
 .text._ZNSt14_Function_base13_Base_managerIZNK6RepRap17GetStatusResponseEh14ResponseSourceEUljE16_E10_M_managerERSt9_Any_dataRKS5_St18_Manager_operation
                0x0000f672       0x16 ./build/./RepRapFirmware/src/RepRap.o
 .text._ZNSt14_Function_base13_Base_managerIZNK6RepRap17GetStatusResponseEh14ResponseSourceEUljE17_E10_M_managerERSt9_Any_dataRKS5_St18_Manager_operation
                0x0000f688       0x16 ./build/./RepRapFirmware/src/RepRap.o
 .text._ZNSt17_Function_handlerIFfjEZN6RepRap17GetConfigResponseEvEUljE_E9_M_invokeERKSt9_Any_dataOj
                0x0000f69e       0x10 ./build/./RepRapFirmware/src/RepRap.o
 .text._ZNSt14_Function_base13_Base_managerIZN6RepRap17GetConfigResponseEvEUljE_E10_M_managerERSt9_Any_dataRKS4_St18_Manager_operation
                0x0000f6ae       0x16 ./build/./RepRapFirmware/src/RepRap.o
 .text._ZNSt17_Function_handlerIFfjEZN6RepRap17GetConfigResponseEvEUljE0_E9_M_invokeERKSt9_Any_dataOj
                0x0000f6c4        0xe ./build/./RepRapFirmware/src/RepRap.o
 .text._ZNSt14_Function_base13_Base_managerIZN6RepRap17GetConfigResponseEvEUljE0_E10_M_managerERSt9_Any_dataRKS4_St18_Manager_operation
                0x0000f6d2       0x16 ./build/./RepRapFirmware/src/RepRap.o
 .text._ZNSt17_Function_handlerIFfjEZN6RepRap17GetConfigResponseEvEUljE1_E9_M_invokeERKSt9_Any_dataOj
                0x0000f6e8        0xe ./build/./RepRapFirmware/src/RepRap.o
 .text._ZNSt14_Function_base13_Base_managerIZN6RepRap17GetConfigResponseEvEUljE1_E10_M_managerERSt9_Any_dataRKS4_St18_Manager_operation
                0x0000f6f6       0x16 ./build/./RepRapFirmware/src/RepRap.o
 .text._ZNSt14_Function_base13_Base_managerIZN6RepRap17GetConfigResponseEvEUljE2_E10_M_managerERSt9_Any_dataRKS4_St18_Manager_operation
                0x0000f70c       0x16 ./build/./RepRapFirmware/src/RepRap.o
 .text._ZNSt17_Function_handlerIFfjEZN6RepRap17GetConfigResponseEvEUljE3_E9_M_invokeERKSt9_Any_dataOj
                0x0000f722        0xe ./build/./RepRapFirmware/src/RepRap.o
 .text._ZNSt14_Function_base13_Base_managerIZN6RepRap17GetConfigResponseEvEUljE3_E10_M_managerERSt9_Any_dataRKS4_St18_Manager_operation
                0x0000f730       0x16 ./build/./RepRapFirmware/src/RepRap.o
 .text._ZNSt17_Function_handlerIFfjEZN6RepRap17GetConfigResponseEvEUljE4_E9_M_invokeERKSt9_Any_dataOj
                0x0000f746       0x10 ./build/./RepRapFirmware/src/RepRap.o
 .text._ZNSt14_Function_base13_Base_managerIZN6RepRap17GetConfigResponseEvEUljE4_E10_M_managerERSt9_Any_dataRKS4_St18_Manager_operation
                0x0000f756       0x16 ./build/./RepRapFirmware/src/RepRap.o
 .text._ZNSt14_Function_base13_Base_managerIZNK6RepRap23GetLegacyStatusResponseEhiEUljE_E10_M_managerERSt9_Any_dataRKS4_St18_Manager_operation
                0x0000f76c       0x16 ./build/./RepRapFirmware/src/RepRap.o
 .text._ZNSt14_Function_base13_Base_managerIZNK6RepRap23GetLegacyStatusResponseEhiEUljE0_E10_M_managerERSt9_Any_dataRKS4_St18_Manager_operation
                0x0000f782       0x16 ./build/./RepRapFirmware/src/RepRap.o
 .text._ZNSt14_Function_base13_Base_managerIZNK6RepRap23GetLegacyStatusResponseEhiEUljE1_E10_M_managerERSt9_Any_dataRKS4_St18_Manager_operation
                0x0000f798       0x16 ./build/./RepRapFirmware/src/RepRap.o
 .text._ZNSt14_Function_base13_Base_managerIZNK6RepRap23GetLegacyStatusResponseEhiEUljE2_E10_M_managerERSt9_Any_dataRKS4_St18_Manager_operation
                0x0000f7ae       0x16 ./build/./RepRapFirmware/src/RepRap.o
 .text._ZNSt14_Function_base13_Base_managerIZNK6RepRap23GetLegacyStatusResponseEhiEUljE3_E10_M_managerERSt9_Any_dataRKS4_St18_Manager_operation
                0x0000f7c4       0x16 ./build/./RepRapFirmware/src/RepRap.o
 .text._ZN6RepRapD2Ev
                0x0000f7da        0x2 ./build/./RepRapFirmware/src/RepRap.o
                0x0000f7da                RepRap::~RepRap()
                0x0000f7da                RepRap::~RepRap()
 .text._ZN6RepRapD0Ev
                0x0000f7dc       0x10 ./build/./RepRapFirmware/src/RepRap.o
                0x0000f7dc                RepRap::~RepRap()
 .text._ZN6RepRapUlPK11ObjectModelRK24ObjectExplorationContextE1_4_FUNES2_S5_
                0x0000f7ec        0x6 ./build/./RepRapFirmware/src/RepRap.o
 *fill*         0x0000f7f2        0x2 
 .text._ZNSt17_Function_handlerIFvjjEZNK6RepRap17GetStatusResponseEh14ResponseSourceEUljjE15_E9_M_invokeERKSt9_Any_dataOjS8_
                0x0000f7f4       0x24 ./build/./RepRapFirmware/src/RepRap.o
 .text._ZNSt17_Function_handlerIFfjEZNK6RepRap23GetLegacyStatusResponseEhiEUljE_E9_M_invokeERKSt9_Any_dataOj
                0x0000f818        0xa ./build/./RepRapFirmware/src/RepRap.o
 .text._ZNSt17_Function_handlerIFfjEZNK6RepRap23GetLegacyStatusResponseEhiEUljE0_E9_M_invokeERKSt9_Any_dataOj
                0x0000f822        0xe ./build/./RepRapFirmware/src/RepRap.o
 .text._ZNSt17_Function_handlerIFijEZNK6RepRap17GetStatusResponseEh14ResponseSourceEUljE3_E9_M_invokeERKSt9_Any_dataOj
                0x0000f830       0x30 ./build/./RepRapFirmware/src/RepRap.o
 .text._ZNSt17_Function_handlerIFPKcjEZNK6RepRap17GetStatusResponseEh14ResponseSourceEUljE4_E9_M_invokeERKSt9_Any_dataOj
                0x0000f860        0xa ./build/./RepRapFirmware/src/RepRap.o
 *fill*         0x0000f86a        0x2 
 .text._ZNSt17_Function_handlerIFfjEZNK6RepRap23GetLegacyStatusResponseEhiEUljE1_E9_M_invokeERKSt9_Any_dataOj
                0x0000f86c       0x18 ./build/./RepRapFirmware/src/RepRap.o
 .text._ZNSt17_Function_handlerIFijEZNK6RepRap17GetStatusResponseEh14ResponseSourceEUljE6_E9_M_invokeERKSt9_Any_dataOj
                0x0000f884        0xa ./build/./RepRapFirmware/src/RepRap.o
 .text._ZNSt17_Function_handlerIFfjEZNK6RepRap17GetStatusResponseEh14ResponseSourceEUljE7_E9_M_invokeERKSt9_Any_dataOj
                0x0000f88e        0xa ./build/./RepRapFirmware/src/RepRap.o
 .text._ZNSt17_Function_handlerIFPKcjEZNK6RepRap17GetStatusResponseEh14ResponseSourceEUljE9_E9_M_invokeERKSt9_Any_dataOj
                0x0000f898        0xa ./build/./RepRapFirmware/src/RepRap.o
 .text._ZNSt17_Function_handlerIFfjEZNK6RepRap17GetStatusResponseEh14ResponseSourceEUljE17_E9_M_invokeERKSt9_Any_dataOj
                0x0000f8a2        0xa ./build/./RepRapFirmware/src/RepRap.o
 .text._ZNSt17_Function_handlerIFijEZN6RepRap17GetConfigResponseEvEUljE2_E9_M_invokeERKSt9_Any_dataOj
                0x0000f8ac       0x16 ./build/./RepRapFirmware/src/RepRap.o
 .text._ZNSt17_Function_handlerIFfjEZNK6RepRap17GetStatusResponseEh14ResponseSourceEUljE2_E9_M_invokeERKSt9_Any_dataOj
                0x0000f8c2       0x12 ./build/./RepRapFirmware/src/RepRap.o
 .text._ZN6RepRapUlPK11ObjectModelR24ObjectExplorationContextE71_4_FUNES2_S4_
                0x0000f8d4       0x14 ./build/./RepRapFirmware/src/RepRap.o
 .text._ZN6RepRapUlPK11ObjectModelR24ObjectExplorationContextE70_4_FUNES2_S4_
                0x0000f8e8       0x14 ./build/./RepRapFirmware/src/RepRap.o
 .text._ZN6RepRapUlPK11ObjectModelR24ObjectExplorationContextE69_4_FUNES2_S4_
                0x0000f8fc       0x14 ./build/./RepRapFirmware/src/RepRap.o
 .text._ZN6RepRapUlPK11ObjectModelR24ObjectExplorationContextE72_4_FUNES2_S4_
                0x0000f910       0x16 ./build/./RepRapFirmware/src/RepRap.o
 .text._ZN6RepRapUlPK11ObjectModelR24ObjectExplorationContextE64_4_FUNES2_S4_
                0x0000f926       0x16 ./build/./RepRapFirmware/src/RepRap.o
 .text._ZN6RepRapUlPK11ObjectModelR24ObjectExplorationContextE79_4_FUNES2_S4_
                0x0000f93c       0x20 ./build/./RepRapFirmware/src/RepRap.o
 .text._ZN6RepRapUlPK11ObjectModelRK24ObjectExplorationContextE5_4_FUNES2_S5_
                0x0000f95c        0xc ./build/./RepRapFirmware/src/RepRap.o
 .text._ZN6RepRapUlPK11ObjectModelR24ObjectExplorationContextE78_4_FUNES2_S4_
                0x0000f968       0x24 ./build/./RepRapFirmware/src/RepRap.o
 .text._ZN6RepRapUlPK11ObjectModelR24ObjectExplorationContextE63_4_FUNES2_S4_
                0x0000f98c       0x22 ./build/./RepRapFirmware/src/RepRap.o
 *fill*         0x0000f9ae        0x2 
 .text._ZN6RepRapUlPK11ObjectModelR24ObjectExplorationContextE68_4_FUNES2_S4_
                0x0000f9b0       0x34 ./build/./RepRapFirmware/src/RepRap.o
 .text._ZNSt17_Function_handlerIFijEZNK6RepRap17GetStatusResponseEh14ResponseSourceEUljE8_E9_M_invokeERKSt9_Any_dataOj
                0x0000f9e4       0x18 ./build/./RepRapFirmware/src/RepRap.o
 .text._ZNSt17_Function_handlerIFijEZNK6RepRap17GetStatusResponseEh14ResponseSourceEUljE_E9_M_invokeERKSt9_Any_dataOj
                0x0000f9fc       0x12 ./build/./RepRapFirmware/src/RepRap.o
 .text._ZNK6BitmapItE7IterateESt8functionIFvjjEE.isra.298
                0x0000fa0e       0x40 ./build/./RepRapFirmware/src/RepRap.o
 .text._ZN6RepRapUlPK11ObjectModelR24ObjectExplorationContextE55_4_FUNES2_S4_
                0x0000fa4e        0xa ./build/./RepRapFirmware/src/RepRap.o
 .text._ZN6RepRapUlPK11ObjectModelR24ObjectExplorationContextE62_4_FUNES2_S4_
                0x0000fa58        0xa ./build/./RepRapFirmware/src/RepRap.o
 .text._ZN6RepRapUlPK11ObjectModelRK24ObjectExplorationContextE13_4_FUNES2_S5_
                0x0000fa62        0x4 ./build/./RepRapFirmware/src/RepRap.o
 .text._ZN6RepRapUlPK11ObjectModelR24ObjectExplorationContextE41_4_FUNES2_S4_
                0x0000fa66        0xa ./build/./RepRapFirmware/src/RepRap.o
 .text._ZN6RepRapUlPK11ObjectModelR24ObjectExplorationContextE42_4_FUNES2_S4_
                0x0000fa70        0xa ./build/./RepRapFirmware/src/RepRap.o
 .text._ZN6RepRapUlPK11ObjectModelR24ObjectExplorationContextE43_4_FUNES2_S4_
                0x0000fa7a        0xa ./build/./RepRapFirmware/src/RepRap.o
 .text._ZN6RepRapUlPK11ObjectModelR24ObjectExplorationContextE46_4_FUNES2_S4_
                0x0000fa84        0xa ./build/./RepRapFirmware/src/RepRap.o
 .text._ZN6RepRapUlPK11ObjectModelR24ObjectExplorationContextE47_4_FUNES2_S4_
                0x0000fa8e        0xa ./build/./RepRapFirmware/src/RepRap.o
 .text._ZN6RepRapUlPK11ObjectModelR24ObjectExplorationContextE48_4_FUNES2_S4_
                0x0000fa98        0xa ./build/./RepRapFirmware/src/RepRap.o
 .text._ZN6RepRapUlPK11ObjectModelR24ObjectExplorationContextE49_4_FUNES2_S4_
                0x0000faa2        0xa ./build/./RepRapFirmware/src/RepRap.o
 .text._ZN6RepRapUlPK11ObjectModelR24ObjectExplorationContextE50_4_FUNES2_S4_
                0x0000faac        0xa ./build/./RepRapFirmware/src/RepRap.o
 .text._ZN6RepRapUlPK11ObjectModelR24ObjectExplorationContextE51_4_FUNES2_S4_
                0x0000fab6        0xa ./build/./RepRapFirmware/src/RepRap.o
 .text._ZN6RepRapUlPK11ObjectModelR24ObjectExplorationContextE52_4_FUNES2_S4_
                0x0000fac0        0xa ./build/./RepRapFirmware/src/RepRap.o
 .text._ZN6RepRapUlPK11ObjectModelR24ObjectExplorationContextE59_4_FUNES2_S4_
                0x0000faca        0xa ./build/./RepRapFirmware/src/RepRap.o
 .text._ZNSt17_Function_handlerIFijEZNK6RepRap23GetLegacyStatusResponseEhiEUljE3_E9_M_invokeERKSt9_Any_dataOj
                0x0000fad4       0x12 ./build/./RepRapFirmware/src/RepRap.o
 .text._ZNSt17_Function_handlerIFijEZNK6RepRap23GetLegacyStatusResponseEhiEUljE2_E9_M_invokeERKSt9_Any_dataOj
                0x0000fae6        0xa ./build/./RepRapFirmware/src/RepRap.o
 .text._ZNSt17_Function_handlerIFfjEZNK6RepRap17GetStatusResponseEh14ResponseSourceEUljE0_E9_M_invokeERKSt9_Any_dataOj
                0x0000faf0        0xa ./build/./RepRapFirmware/src/RepRap.o
 *fill*         0x0000fafa        0x2 
 .text._ZNSt17_Function_handlerIFfjEZNK6RepRap17GetStatusResponseEh14ResponseSourceEUljE5_E9_M_invokeERKSt9_Any_dataOj
                0x0000fafc       0x18 ./build/./RepRapFirmware/src/RepRap.o
 .text._ZNSt17_Function_handlerIFfjEZNK6RepRap17GetStatusResponseEh14ResponseSourceEUljE1_E9_M_invokeERKSt9_Any_dataOj
                0x0000fb14        0xe ./build/./RepRapFirmware/src/RepRap.o
 *fill*         0x0000fb22        0x2 
 .text._ZNSt17_Function_handlerIFvjjEZNK6RepRap17GetStatusResponseEh14ResponseSourceEUljjE14_E9_M_invokeERKSt9_Any_dataOjS8_
                0x0000fb24       0x24 ./build/./RepRapFirmware/src/RepRap.o
 .text._ZN15ExpressionValueC2EPK11ObjectModel
                0x0000fb48       0x16 ./build/./RepRapFirmware/src/RepRap.o
                0x0000fb48                ExpressionValue::ExpressionValue(ObjectModel const*)
                0x0000fb48                ExpressionValue::ExpressionValue(ObjectModel const*)
 .text._ZN6RepRapUlPK11ObjectModelR24ObjectExplorationContextE14_4_FUNES2_S4_
                0x0000fb5e       0x1a ./build/./RepRapFirmware/src/RepRap.o
 .text._ZN6RepRapUlPK11ObjectModelR24ObjectExplorationContextE23_4_FUNES2_S4_
                0x0000fb78        0xe ./build/./RepRapFirmware/src/RepRap.o
 .text._ZN6RepRapUlPK11ObjectModelR24ObjectExplorationContextE22_4_FUNES2_S4_
                0x0000fb86        0xe ./build/./RepRapFirmware/src/RepRap.o
 .text._ZN6RepRapUlPK11ObjectModelR24ObjectExplorationContextE20_4_FUNES2_S4_
                0x0000fb94        0xe ./build/./RepRapFirmware/src/RepRap.o
 .text._ZN6RepRapUlPK11ObjectModelR24ObjectExplorationContextE18_4_FUNES2_S4_
                0x0000fba2        0xe ./build/./RepRapFirmware/src/RepRap.o
 .text._ZN6RepRapUlPK11ObjectModelR24ObjectExplorationContextE24_4_FUNES2_S4_
                0x0000fbb0       0x12 ./build/./RepRapFirmware/src/RepRap.o
 .text._ZN6RepRapUlPK11ObjectModelR24ObjectExplorationContextE8_4_FUNES2_S4_
                0x0000fbc2       0x20 ./build/./RepRapFirmware/src/RepRap.o
 *fill*         0x0000fbe2        0x2 
 .text._ZN6RepRapUlPK11ObjectModelR24ObjectExplorationContextE6_4_FUNES2_S4_
                0x0000fbe4       0x38 ./build/./RepRapFirmware/src/RepRap.o
