Archive member included to satisfy reference by file (symbol)

./build/\libSTMCore.a(uart.o)
                              ./build/./CoreSTM32F4/cores/arduino/syscalls.o (uart_debug_write)
./build/\libSTMCore.a(stm32f4xx_hal.o)
                              ./build/\libSTMCore.a(uart.o) (HAL_GetTick)
./build/\libSTMCore.a(stm32f4xx_hal_cortex.o)
                              ./build/\libSTMCore.a(stm32f4xx_hal.o) (HAL_NVIC_SetPriorityGrouping)
./build/\libSTMCore.a(stm32f4xx_hal_uart.o)
                              ./build/\libSTMCore.a(uart.o) (HAL_UART_Init)
./build/\libSTMCore.a(PeripheralPins.o)
                              ./build/\libSTMCore.a(uart.o) (PinMap_UART_RX)
./build/\libSTMCore.a(main.o)
                              c:/users/andy/.vscode/extensions/metalcode-eu.windows-arm-none-eabi-0.1.6/bin/../lib/gcc/arm-none-eabi/8.2.1/../../../../arm-none-eabi/lib/thumb/v7e-m+fp/hard/crt0.o (main)
./build/\libSTMCore.a(startup_stm32yyxx.o)
                              (Reset_Handler)
./build/\libSTMCore.a(board.o)
                              ./build/\libSTMCore.a(main.o) (init)
./build/\libSTMCore.a(hw_config.o)
                              ./build/\libSTMCore.a(board.o) (hw_config_init)
./build/\libSTMCore.a(pinmap.o)
                              ./build/\libSTMCore.a(uart.o) (pinmap_pinout)
./build/\libSTMCore.a(PortNames.o)
                              ./build/\libSTMCore.a(pinmap.o) (set_GPIO_Port_Clock)
./build/\libSTMCore.a(stm32_def.o)
                              ./build/\libSTMCore.a(pinmap.o) (_Error_Handler)
./build/\libSTMCore.a(system_stm32yyxx.o)
                              ./build/\libSTMCore.a(startup_stm32yyxx.o) (SystemInit)
./build/\libSTMCore.a(stm32f4xx_hal_dma.o)
                              ./build/\libSTMCore.a(stm32f4xx_hal_uart.o) (HAL_DMA_Start_IT)
./build/\libSTMCore.a(stm32f4xx_hal_rcc.o)
                              ./build/\libSTMCore.a(stm32f4xx_hal_uart.o) (HAL_RCC_GetPCLK1Freq)
./build/\libSTMCore.a(variant.o)
                              ./build/\libSTMCore.a(hw_config.o) (SystemClock_Config)
./build/\libSTMCore.a(dwt.o)  ./build/\libSTMCore.a(hw_config.o) (dwt_init)
./build/\libSTMCore.a(stm32f4xx_hal_gpio.o)
                              ./build/\libSTMCore.a(stm32f4xx_hal_rcc.o) (HAL_GPIO_Init)
./build/\libRRFLibraries.a(IP4String.o)
                              ./build/./RepRapFirmware/src/ObjectModel/ObjectModel.o (IP4String::IP4String(unsigned long))
./build/\libRRFLibraries.a(IPAddress.o)
                              ./build/./RepRapFirmware/src/GCodes/GCodeBuffer/StringParser.o (IPAddress::SetV4(unsigned char const*))
./build/\libRRFLibraries.a(NamedEnum.o)
                              ./build/./RepRapFirmware/src/GCodes/GCodeBuffer/ExpressionParser.o (NamedEnumLookup(char const*, char const* const*, unsigned int))
./build/\libRRFLibraries.a(NumericConverter.o)
                              ./build/./RepRapFirmware/src/GCodes/GCodeBuffer/ExpressionParser.o (NumericConverter::FitsInInt32() const)
./build/\libRRFLibraries.a(SafeStrtod.o)
                              ./build/./RepRapFirmware/src/GCodes/GCodes3.o (SafeStrtof(char const*, char const**))
./build/\libRRFLibraries.a(SafeVsnprintf.o)
                              ./build/./RepRapFirmware/src/bossa/Samba.o (SafeSnprintf(char*, unsigned int, char const*, ...))
./build/\libRRFLibraries.a(StringBuffer.o)
                              ./build/./RepRapFirmware/src/GCodes/GCodeBuffer/ExpressionParser.o (StringBuffer::Fix())
./build/\libRRFLibraries.a(StringFunctions.o)
                              ./build/./RepRapFirmware/src/GCodes/GCodes.o (StringEqualsIgnoreCase(char const*, char const*))
./build/\libRRFLibraries.a(StringRef.o)
                              ./build/./RepRapFirmware/src/OutputMemory.o (StringRef::strlen() const)
./build/\libRRFLibraries.a(Strnlen.o)
                              ./build/./RepRapFirmware/src/Platform.o (Strnlen(char const*, unsigned int))
./build/\libRRFLibraries.a(Deviation.o)
                              ./build/./RepRapFirmware/src/GCodes/GCodes4.o (Deviation::Deviation())
./build/\libRRFLibraries.a(DeviationAccumulator.o)
                              ./build/./RepRapFirmware/src/Heating/LocalHeater.o (DeviationAccumulator::DeviationAccumulator())
./build/\libRRFLibraries.a(Isqrt.o)
                              ./build/./RepRapFirmware/src/Platform.o (isqrt64(unsigned long long))
./build/\libRRFLibraries.a(RTOSIface.o)
                              ./build/./RepRapFirmware/src/Platform.o (Mutex::Create(char const*))
c:/users/andy/.vscode/extensions/metalcode-eu.windows-arm-none-eabi-0.1.6/bin/../lib/gcc/arm-none-eabi/8.2.1/../../../../arm-none-eabi/lib/thumb/v7e-m+fp/hard\libc.a(lib_a-abort.o)
                              ./build/./RepRapFirmware/src/libcpp/vterminate.o (abort)
c:/users/andy/.vscode/extensions/metalcode-eu.windows-arm-none-eabi-0.1.6/bin/../lib/gcc/arm-none-eabi/8.2.1/../../../../arm-none-eabi/lib/thumb/v7e-m+fp/hard\libc.a(lib_a-aeabi_atexit.o)
                              ./build/./RepRapFirmware/src/RepRapFirmware.o (__aeabi_atexit)
c:/users/andy/.vscode/extensions/metalcode-eu.windows-arm-none-eabi-0.1.6/bin/../lib/gcc/arm-none-eabi/8.2.1/../../../../arm-none-eabi/lib/thumb/v7e-m+fp/hard\libc.a(lib_a-cxa_atexit.o)
                              c:/users/andy/.vscode/extensions/metalcode-eu.windows-arm-none-eabi-0.1.6/bin/../lib/gcc/arm-none-eabi/8.2.1/../../../../arm-none-eabi/lib/thumb/v7e-m+fp/hard\libc.a(lib_a-aeabi_atexit.o) (__cxa_atexit)
c:/users/andy/.vscode/extensions/metalcode-eu.windows-arm-none-eabi-0.1.6/bin/../lib/gcc/arm-none-eabi/8.2.1/../../../../arm-none-eabi/lib/thumb/v7e-m+fp/hard\libc.a(lib_a-errno.o)
                              ./build/./RepRapFirmware/src/libc/nano-mallocr.o (__errno)
c:/users/andy/.vscode/extensions/metalcode-eu.windows-arm-none-eabi-0.1.6/bin/../lib/gcc/arm-none-eabi/8.2.1/../../../../arm-none-eabi/lib/thumb/v7e-m+fp/hard\libc.a(lib_a-exit.o)
                              c:/users/andy/.vscode/extensions/metalcode-eu.windows-arm-none-eabi-0.1.6/bin/../lib/gcc/arm-none-eabi/8.2.1/../../../../arm-none-eabi/lib/thumb/v7e-m+fp/hard/crt0.o (exit)
c:/users/andy/.vscode/extensions/metalcode-eu.windows-arm-none-eabi-0.1.6/bin/../lib/gcc/arm-none-eabi/8.2.1/../../../../arm-none-eabi/lib/thumb/v7e-m+fp/hard\libc.a(lib_a-gmtime_r.o)
                              ./build/./RepRapFirmware/src/Logger.o (gmtime_r)
c:/users/andy/.vscode/extensions/metalcode-eu.windows-arm-none-eabi-0.1.6/bin/../lib/gcc/arm-none-eabi/8.2.1/../../../../arm-none-eabi/lib/thumb/v7e-m+fp/hard\libc.a(lib_a-impure.o)
                              c:/users/andy/.vscode/extensions/metalcode-eu.windows-arm-none-eabi-0.1.6/bin/../lib/gcc/arm-none-eabi/8.2.1/../../../../arm-none-eabi/lib/thumb/v7e-m+fp/hard\libc.a(lib_a-exit.o) (_global_impure_ptr)
c:/users/andy/.vscode/extensions/metalcode-eu.windows-arm-none-eabi-0.1.6/bin/../lib/gcc/arm-none-eabi/8.2.1/../../../../arm-none-eabi/lib/thumb/v7e-m+fp/hard\libc.a(lib_a-init.o)
                              c:/users/andy/.vscode/extensions/metalcode-eu.windows-arm-none-eabi-0.1.6/bin/../lib/gcc/arm-none-eabi/8.2.1/../../../../arm-none-eabi/lib/thumb/v7e-m+fp/hard/crt0.o (__libc_init_array)
c:/users/andy/.vscode/extensions/metalcode-eu.windows-arm-none-eabi-0.1.6/bin/../lib/gcc/arm-none-eabi/8.2.1/../../../../arm-none-eabi/lib/thumb/v7e-m+fp/hard\libc.a(lib_a-isalpha.o)
                              ./build/./RepRapFirmware/src/GCodes/GCodeBuffer/ExpressionParser.o (isalpha)
c:/users/andy/.vscode/extensions/metalcode-eu.windows-arm-none-eabi-0.1.6/bin/../lib/gcc/arm-none-eabi/8.2.1/../../../../arm-none-eabi/lib/thumb/v7e-m+fp/hard\libc.a(lib_a-isspace.o)
                              ./build/./RepRapFirmware/src/libc/strptime.o (isspace)
c:/users/andy/.vscode/extensions/metalcode-eu.windows-arm-none-eabi-0.1.6/bin/../lib/gcc/arm-none-eabi/8.2.1/../../../../arm-none-eabi/lib/thumb/v7e-m+fp/hard\libc.a(lib_a-isxdigit.o)
                              ./build/\libRRFLibraries.a(NumericConverter.o) (isxdigit)
c:/users/andy/.vscode/extensions/metalcode-eu.windows-arm-none-eabi-0.1.6/bin/../lib/gcc/arm-none-eabi/8.2.1/../../../../arm-none-eabi/lib/thumb/v7e-m+fp/hard\libc.a(lib_a-lldiv.o)
                              ./build/\libRRFLibraries.a(SafeVsnprintf.o) (lldiv)
c:/users/andy/.vscode/extensions/metalcode-eu.windows-arm-none-eabi-0.1.6/bin/../lib/gcc/arm-none-eabi/8.2.1/../../../../arm-none-eabi/lib/thumb/v7e-m+fp/hard\libc.a(lib_a-mktime.o)
                              ./build/./RepRapFirmware/src/GCodes/GCodes3.o (mktime)
c:/users/andy/.vscode/extensions/metalcode-eu.windows-arm-none-eabi-0.1.6/bin/../lib/gcc/arm-none-eabi/8.2.1/../../../../arm-none-eabi/lib/thumb/v7e-m+fp/hard\libc.a(lib_a-reent.o)
                              ./build/./CoreSTM32F4/cores/arduino/syscalls.o (errno)
c:/users/andy/.vscode/extensions/metalcode-eu.windows-arm-none-eabi-0.1.6/bin/../lib/gcc/arm-none-eabi/8.2.1/../../../../arm-none-eabi/lib/thumb/v7e-m+fp/hard\libc.a(lib_a-signal.o)
                              c:/users/andy/.vscode/extensions/metalcode-eu.windows-arm-none-eabi-0.1.6/bin/../lib/gcc/arm-none-eabi/8.2.1/../../../../arm-none-eabi/lib/thumb/v7e-m+fp/hard\libc.a(lib_a-abort.o) (raise)
c:/users/andy/.vscode/extensions/metalcode-eu.windows-arm-none-eabi-0.1.6/bin/../lib/gcc/arm-none-eabi/8.2.1/../../../../arm-none-eabi/lib/thumb/v7e-m+fp/hard\libc.a(lib_a-signalr.o)
                              c:/users/andy/.vscode/extensions/metalcode-eu.windows-arm-none-eabi-0.1.6/bin/../lib/gcc/arm-none-eabi/8.2.1/../../../../arm-none-eabi/lib/thumb/v7e-m+fp/hard\libc.a(lib_a-signal.o) (_kill_r)
c:/users/andy/.vscode/extensions/metalcode-eu.windows-arm-none-eabi-0.1.6/bin/../lib/gcc/arm-none-eabi/8.2.1/../../../../arm-none-eabi/lib/thumb/v7e-m+fp/hard\libc.a(lib_a-strchr.o)
                              ./build/./RepRapFirmware/src/GCodes/GCodes.o (strchr)
c:/users/andy/.vscode/extensions/metalcode-eu.windows-arm-none-eabi-0.1.6/bin/../lib/gcc/arm-none-eabi/8.2.1/../../../../arm-none-eabi/lib/thumb/v7e-m+fp/hard\libc.a(lib_a-strcmp.o)
                              ./build/./RepRapFirmware/src/GCodes/GCodes2.o (strcmp)
c:/users/andy/.vscode/extensions/metalcode-eu.windows-arm-none-eabi-0.1.6/bin/../lib/gcc/arm-none-eabi/8.2.1/../../../../arm-none-eabi/lib/thumb/v7e-m+fp/hard\libc.a(lib_a-strcpy.o)
                              ./build/./RepRapFirmware/src/Heating/Sensors/TemperatureSensor.o (strcpy)
c:/users/andy/.vscode/extensions/metalcode-eu.windows-arm-none-eabi-0.1.6/bin/../lib/gcc/arm-none-eabi/8.2.1/../../../../arm-none-eabi/lib/thumb/v7e-m+fp/hard\libc.a(lib_a-strlen.o)
                              ./build/./RepRapFirmware/src/Logger.o (strlen)
c:/users/andy/.vscode/extensions/metalcode-eu.windows-arm-none-eabi-0.1.6/bin/../lib/gcc/arm-none-eabi/8.2.1/../../../../arm-none-eabi/lib/thumb/v7e-m+fp/hard\libc.a(lib_a-strncat.o)
                              ./build/\libRRFLibraries.a(StringFunctions.o) (strncat)
c:/users/andy/.vscode/extensions/metalcode-eu.windows-arm-none-eabi-0.1.6/bin/../lib/gcc/arm-none-eabi/8.2.1/../../../../arm-none-eabi/lib/thumb/v7e-m+fp/hard\libc.a(lib_a-strncpy.o)
                              ./build/\libRRFLibraries.a(StringFunctions.o) (strncpy)
c:/users/andy/.vscode/extensions/metalcode-eu.windows-arm-none-eabi-0.1.6/bin/../lib/gcc/arm-none-eabi/8.2.1/../../../../arm-none-eabi/lib/thumb/v7e-m+fp/hard\libc.a(lib_a-strstr.o)
                              ./build/./RepRapFirmware/src/Storage/FileInfoParser.o (strstr)
c:/users/andy/.vscode/extensions/metalcode-eu.windows-arm-none-eabi-0.1.6/bin/../lib/gcc/arm-none-eabi/8.2.1/../../../../arm-none-eabi/lib/thumb/v7e-m+fp/hard\libc.a(lib_a-strtoul.o)
                              ./build/\libRRFLibraries.a(SafeStrtod.o) (strtoul)
c:/users/andy/.vscode/extensions/metalcode-eu.windows-arm-none-eabi-0.1.6/bin/../lib/gcc/arm-none-eabi/8.2.1/../../../../arm-none-eabi/lib/thumb/v7e-m+fp/hard\libc.a(lib_a-tolower.o)
                              ./build/./RepRapFirmware/src/GCodes/GCodeBuffer/ExpressionParser.o (tolower)
c:/users/andy/.vscode/extensions/metalcode-eu.windows-arm-none-eabi-0.1.6/bin/../lib/gcc/arm-none-eabi/8.2.1/../../../../arm-none-eabi/lib/thumb/v7e-m+fp/hard\libc.a(lib_a-toupper.o)
                              ./build/./RepRapFirmware/src/GCodes/GCodes2.o (toupper)
c:/users/andy/.vscode/extensions/metalcode-eu.windows-arm-none-eabi-0.1.6/bin/../lib/gcc/arm-none-eabi/8.2.1/../../../../arm-none-eabi/lib/thumb/v7e-m+fp/hard\libc.a(lib_a-tzcalc_limits.o)
                              c:/users/andy/.vscode/extensions/metalcode-eu.windows-arm-none-eabi-0.1.6/bin/../lib/gcc/arm-none-eabi/8.2.1/../../../../arm-none-eabi/lib/thumb/v7e-m+fp/hard\libc.a(lib_a-mktime.o) (__tzcalc_limits)
c:/users/andy/.vscode/extensions/metalcode-eu.windows-arm-none-eabi-0.1.6/bin/../lib/gcc/arm-none-eabi/8.2.1/../../../../arm-none-eabi/lib/thumb/v7e-m+fp/hard\libc.a(lib_a-tzvars.o)
                              c:/users/andy/.vscode/extensions/metalcode-eu.windows-arm-none-eabi-0.1.6/bin/../lib/gcc/arm-none-eabi/8.2.1/../../../../arm-none-eabi/lib/thumb/v7e-m+fp/hard\libc.a(lib_a-mktime.o) (_daylight)
c:/users/andy/.vscode/extensions/metalcode-eu.windows-arm-none-eabi-0.1.6/bin/../lib/gcc/arm-none-eabi/8.2.1/../../../../arm-none-eabi/lib/thumb/v7e-m+fp/hard\libc.a(lib_a-__atexit.o)
                              c:/users/andy/.vscode/extensions/metalcode-eu.windows-arm-none-eabi-0.1.6/bin/../lib/gcc/arm-none-eabi/8.2.1/../../../../arm-none-eabi/lib/thumb/v7e-m+fp/hard\libc.a(lib_a-cxa_atexit.o) (__register_exitproc)
c:/users/andy/.vscode/extensions/metalcode-eu.windows-arm-none-eabi-0.1.6/bin/../lib/gcc/arm-none-eabi/8.2.1/../../../../arm-none-eabi/lib/thumb/v7e-m+fp/hard\libc.a(lib_a-__call_atexit.o)
                              c:/users/andy/.vscode/extensions/metalcode-eu.windows-arm-none-eabi-0.1.6/bin/../lib/gcc/arm-none-eabi/8.2.1/../../../../arm-none-eabi/lib/thumb/v7e-m+fp/hard\libc.a(lib_a-exit.o) (__call_exitprocs)
c:/users/andy/.vscode/extensions/metalcode-eu.windows-arm-none-eabi-0.1.6/bin/../lib/gcc/arm-none-eabi/8.2.1/../../../../arm-none-eabi/lib/thumb/v7e-m+fp/hard\libc.a(lib_a-atexit.o)
                              c:/users/andy/.vscode/extensions/metalcode-eu.windows-arm-none-eabi-0.1.6/bin/../lib/gcc/arm-none-eabi/8.2.1/../../../../arm-none-eabi/lib/thumb/v7e-m+fp/hard\libc.a(lib_a-__call_atexit.o) (atexit)
c:/users/andy/.vscode/extensions/metalcode-eu.windows-arm-none-eabi-0.1.6/bin/../lib/gcc/arm-none-eabi/8.2.1/../../../../arm-none-eabi/lib/thumb/v7e-m+fp/hard\libc.a(lib_a-ctype_.o)
                              c:/users/andy/.vscode/extensions/metalcode-eu.windows-arm-none-eabi-0.1.6/bin/../lib/gcc/arm-none-eabi/8.2.1/../../../../arm-none-eabi/lib/thumb/v7e-m+fp/hard\libc.a(lib_a-isalpha.o) (_ctype_)
c:/users/andy/.vscode/extensions/metalcode-eu.windows-arm-none-eabi-0.1.6/bin/../lib/gcc/arm-none-eabi/8.2.1/../../../../arm-none-eabi/lib/thumb/v7e-m+fp/hard\libc.a(lib_a-div.o)
                              c:/users/andy/.vscode/extensions/metalcode-eu.windows-arm-none-eabi-0.1.6/bin/../lib/gcc/arm-none-eabi/8.2.1/../../../../arm-none-eabi/lib/thumb/v7e-m+fp/hard\libc.a(lib_a-mktime.o) (div)
c:/users/andy/.vscode/extensions/metalcode-eu.windows-arm-none-eabi-0.1.6/bin/../lib/gcc/arm-none-eabi/8.2.1/../../../../arm-none-eabi/lib/thumb/v7e-m+fp/hard\libc.a(lib_a-fini.o)
                              c:/users/andy/.vscode/extensions/metalcode-eu.windows-arm-none-eabi-0.1.6/bin/../lib/gcc/arm-none-eabi/8.2.1/../../../../arm-none-eabi/lib/thumb/v7e-m+fp/hard\libc.a(lib_a-__call_atexit.o) (__libc_fini_array)
c:/users/andy/.vscode/extensions/metalcode-eu.windows-arm-none-eabi-0.1.6/bin/../lib/gcc/arm-none-eabi/8.2.1/../../../../arm-none-eabi/lib/thumb/v7e-m+fp/hard\libc.a(lib_a-freer.o)
                              c:/users/andy/.vscode/extensions/metalcode-eu.windows-arm-none-eabi-0.1.6/bin/../lib/gcc/arm-none-eabi/8.2.1/../../../../arm-none-eabi/lib/thumb/v7e-m+fp/hard\libc.a(lib_a-reent.o) (_free_r)
c:/users/andy/.vscode/extensions/metalcode-eu.windows-arm-none-eabi-0.1.6/bin/../lib/gcc/arm-none-eabi/8.2.1/../../../../arm-none-eabi/lib/thumb/v7e-m+fp/hard\libc.a(lib_a-gettzinfo.o)
                              c:/users/andy/.vscode/extensions/metalcode-eu.windows-arm-none-eabi-0.1.6/bin/../lib/gcc/arm-none-eabi/8.2.1/../../../../arm-none-eabi/lib/thumb/v7e-m+fp/hard\libc.a(lib_a-mktime.o) (__gettzinfo)
c:/users/andy/.vscode/extensions/metalcode-eu.windows-arm-none-eabi-0.1.6/bin/../lib/gcc/arm-none-eabi/8.2.1/../../../../arm-none-eabi/lib/thumb/v7e-m+fp/hard\libc.a(lib_a-lock.o)
                              c:/users/andy/.vscode/extensions/metalcode-eu.windows-arm-none-eabi-0.1.6/bin/../lib/gcc/arm-none-eabi/8.2.1/../../../../arm-none-eabi/lib/thumb/v7e-m+fp/hard\libc.a(lib_a-__atexit.o) (__retarget_lock_acquire_recursive)
c:/users/andy/.vscode/extensions/metalcode-eu.windows-arm-none-eabi-0.1.6/bin/../lib/gcc/arm-none-eabi/8.2.1/../../../../arm-none-eabi/lib/thumb/v7e-m+fp/hard\libc.a(lib_a-mallocr.o)
                              c:/users/andy/.vscode/extensions/metalcode-eu.windows-arm-none-eabi-0.1.6/bin/../lib/gcc/arm-none-eabi/8.2.1/../../../../arm-none-eabi/lib/thumb/v7e-m+fp/hard\libc.a(lib_a-freer.o) (__malloc_sbrk_base)
c:/users/andy/.vscode/extensions/metalcode-eu.windows-arm-none-eabi-0.1.6/bin/../lib/gcc/arm-none-eabi/8.2.1/../../../../arm-none-eabi/lib/thumb/v7e-m+fp/hard\libc.a(lib_a-mlock.o)
                              c:/users/andy/.vscode/extensions/metalcode-eu.windows-arm-none-eabi-0.1.6/bin/../lib/gcc/arm-none-eabi/8.2.1/../../../../arm-none-eabi/lib/thumb/v7e-m+fp/hard\libc.a(lib_a-freer.o) (__malloc_lock)
c:/users/andy/.vscode/extensions/metalcode-eu.windows-arm-none-eabi-0.1.6/bin/../lib/gcc/arm-none-eabi/8.2.1/../../../../arm-none-eabi/lib/thumb/v7e-m+fp/hard\libc.a(lib_a-month_lengths.o)
                              c:/users/andy/.vscode/extensions/metalcode-eu.windows-arm-none-eabi-0.1.6/bin/../lib/gcc/arm-none-eabi/8.2.1/../../../../arm-none-eabi/lib/thumb/v7e-m+fp/hard\libc.a(lib_a-tzcalc_limits.o) (__month_lengths)
c:/users/andy/.vscode/extensions/metalcode-eu.windows-arm-none-eabi-0.1.6/bin/../lib/gcc/arm-none-eabi/8.2.1/../../../../arm-none-eabi/lib/thumb/v7e-m+fp/hard\libc.a(lib_a-sbrkr.o)
                              c:/users/andy/.vscode/extensions/metalcode-eu.windows-arm-none-eabi-0.1.6/bin/../lib/gcc/arm-none-eabi/8.2.1/../../../../arm-none-eabi/lib/thumb/v7e-m+fp/hard\libc.a(lib_a-freer.o) (_sbrk_r)
c:/users/andy/.vscode/extensions/metalcode-eu.windows-arm-none-eabi-0.1.6/bin/../lib/gcc/arm-none-eabi/8.2.1/../../../../arm-none-eabi/lib/thumb/v7e-m+fp/hard\libc.a(lib_a-strnlen.o)
                              c:/users/andy/.vscode/extensions/metalcode-eu.windows-arm-none-eabi-0.1.6/bin/../lib/gcc/arm-none-eabi/8.2.1/../../../../arm-none-eabi/lib/thumb/v7e-m+fp/hard\libc.a(lib_a-strstr.o) (strnlen)
c:/users/andy/.vscode/extensions/metalcode-eu.windows-arm-none-eabi-0.1.6/bin/../lib/gcc/arm-none-eabi/8.2.1/../../../../arm-none-eabi/lib/thumb/v7e-m+fp/hard\libm.a(lib_a-s_llrint.o)
                              ./build/\libRRFLibraries.a(SafeVsnprintf.o) (llrint)
c:/users/andy/.vscode/extensions/metalcode-eu.windows-arm-none-eabi-0.1.6/bin/../lib/gcc/arm-none-eabi/8.2.1/../../../../arm-none-eabi/lib/thumb/v7e-m+fp/hard\libm.a(lib_a-sf_atan.o)
                              ./build/./RepRapFirmware/src/GCodes/GCodes2.o (atanf)
c:/users/andy/.vscode/extensions/metalcode-eu.windows-arm-none-eabi-0.1.6/bin/../lib/gcc/arm-none-eabi/8.2.1/../../../../arm-none-eabi/lib/thumb/v7e-m+fp/hard\libm.a(lib_a-sf_cos.o)
                              ./build/./RepRapFirmware/src/RepRap.o (cosf)
c:/users/andy/.vscode/extensions/metalcode-eu.windows-arm-none-eabi-0.1.6/bin/../lib/gcc/arm-none-eabi/8.2.1/../../../../arm-none-eabi/lib/thumb/v7e-m+fp/hard\libm.a(lib_a-sf_fabs.o)
                              c:/users/andy/.vscode/extensions/metalcode-eu.windows-arm-none-eabi-0.1.6/bin/../lib/gcc/arm-none-eabi/8.2.1/../../../../arm-none-eabi/lib/thumb/v7e-m+fp/hard\libm.a(lib_a-sf_atan.o) (fabsf)
c:/users/andy/.vscode/extensions/metalcode-eu.windows-arm-none-eabi-0.1.6/bin/../lib/gcc/arm-none-eabi/8.2.1/../../../../arm-none-eabi/lib/thumb/v7e-m+fp/hard\libm.a(lib_a-sf_floor.o)
                              ./build/./RepRapFirmware/src/GCodes/GCodes.o (floorf)
c:/users/andy/.vscode/extensions/metalcode-eu.windows-arm-none-eabi-0.1.6/bin/../lib/gcc/arm-none-eabi/8.2.1/../../../../arm-none-eabi/lib/thumb/v7e-m+fp/hard\libm.a(lib_a-sf_lrint.o)
                              ./build/./RepRapFirmware/src/Platform.o (lrintf)
c:/users/andy/.vscode/extensions/metalcode-eu.windows-arm-none-eabi-0.1.6/bin/../lib/gcc/arm-none-eabi/8.2.1/../../../../arm-none-eabi/lib/thumb/v7e-m+fp/hard\libm.a(lib_a-sf_round.o)
                              ./build/./RepRapFirmware/src/RepRap.o (roundf)
c:/users/andy/.vscode/extensions/metalcode-eu.windows-arm-none-eabi-0.1.6/bin/../lib/gcc/arm-none-eabi/8.2.1/../../../../arm-none-eabi/lib/thumb/v7e-m+fp/hard\libm.a(lib_a-sf_sin.o)
                              ./build/./RepRapFirmware/src/RepRap.o (sinf)
c:/users/andy/.vscode/extensions/metalcode-eu.windows-arm-none-eabi-0.1.6/bin/../lib/gcc/arm-none-eabi/8.2.1/../../../../arm-none-eabi/lib/thumb/v7e-m+fp/hard\libm.a(lib_a-sf_tan.o)
                              ./build/./RepRapFirmware/src/GCodes/GCodeBuffer/ExpressionParser.o (tanf)
c:/users/andy/.vscode/extensions/metalcode-eu.windows-arm-none-eabi-0.1.6/bin/../lib/gcc/arm-none-eabi/8.2.1/../../../../arm-none-eabi/lib/thumb/v7e-m+fp/hard\libm.a(lib_a-w_pow.o)
                              ./build/\libRRFLibraries.a(NumericConverter.o) (pow)
c:/users/andy/.vscode/extensions/metalcode-eu.windows-arm-none-eabi-0.1.6/bin/../lib/gcc/arm-none-eabi/8.2.1/../../../../arm-none-eabi/lib/thumb/v7e-m+fp/hard\libm.a(lib_a-wf_acos.o)
                              ./build/./RepRapFirmware/src/GCodes/GCodeBuffer/ExpressionParser.o (acosf)
c:/users/andy/.vscode/extensions/metalcode-eu.windows-arm-none-eabi-0.1.6/bin/../lib/gcc/arm-none-eabi/8.2.1/../../../../arm-none-eabi/lib/thumb/v7e-m+fp/hard\libm.a(lib_a-wf_asin.o)
                              ./build/./RepRapFirmware/src/GCodes/GCodeBuffer/ExpressionParser.o (asinf)
c:/users/andy/.vscode/extensions/metalcode-eu.windows-arm-none-eabi-0.1.6/bin/../lib/gcc/arm-none-eabi/8.2.1/../../../../arm-none-eabi/lib/thumb/v7e-m+fp/hard\libm.a(lib_a-wf_atan2.o)
                              ./build/./RepRapFirmware/src/GCodes/GCodes.o (atan2f)
c:/users/andy/.vscode/extensions/metalcode-eu.windows-arm-none-eabi-0.1.6/bin/../lib/gcc/arm-none-eabi/8.2.1/../../../../arm-none-eabi/lib/thumb/v7e-m+fp/hard\libm.a(lib_a-wf_fmod.o)
                              ./build/./RepRapFirmware/src/GCodes/GCodeBuffer/ExpressionParser.o (fmodf)
c:/users/andy/.vscode/extensions/metalcode-eu.windows-arm-none-eabi-0.1.6/bin/../lib/gcc/arm-none-eabi/8.2.1/../../../../arm-none-eabi/lib/thumb/v7e-m+fp/hard\libm.a(lib_a-wf_log.o)
                              ./build/./RepRapFirmware/src/Heating/Sensors/Thermistor.o (logf)
c:/users/andy/.vscode/extensions/metalcode-eu.windows-arm-none-eabi-0.1.6/bin/../lib/gcc/arm-none-eabi/8.2.1/../../../../arm-none-eabi/lib/thumb/v7e-m+fp/hard\libm.a(lib_a-wf_pow.o)
                              ./build/./RepRapFirmware/src/Heating/FOPDT.o (powf)
c:/users/andy/.vscode/extensions/metalcode-eu.windows-arm-none-eabi-0.1.6/bin/../lib/gcc/arm-none-eabi/8.2.1/../../../../arm-none-eabi/lib/thumb/v7e-m+fp/hard\libm.a(lib_a-wf_sqrt.o)
                              ./build/./RepRapFirmware/src/GCodes/GCodes.o (sqrtf)
c:/users/andy/.vscode/extensions/metalcode-eu.windows-arm-none-eabi-0.1.6/bin/../lib/gcc/arm-none-eabi/8.2.1/../../../../arm-none-eabi/lib/thumb/v7e-m+fp/hard\libm.a(lib_a-e_pow.o)
                              c:/users/andy/.vscode/extensions/metalcode-eu.windows-arm-none-eabi-0.1.6/bin/../lib/gcc/arm-none-eabi/8.2.1/../../../../arm-none-eabi/lib/thumb/v7e-m+fp/hard\libm.a(lib_a-w_pow.o) (__ieee754_pow)
c:/users/andy/.vscode/extensions/metalcode-eu.windows-arm-none-eabi-0.1.6/bin/../lib/gcc/arm-none-eabi/8.2.1/../../../../arm-none-eabi/lib/thumb/v7e-m+fp/hard\libm.a(lib_a-e_sqrt.o)
                              c:/users/andy/.vscode/extensions/metalcode-eu.windows-arm-none-eabi-0.1.6/bin/../lib/gcc/arm-none-eabi/8.2.1/../../../../arm-none-eabi/lib/thumb/v7e-m+fp/hard\libm.a(lib_a-e_pow.o) (__ieee754_sqrt)
c:/users/andy/.vscode/extensions/metalcode-eu.windows-arm-none-eabi-0.1.6/bin/../lib/gcc/arm-none-eabi/8.2.1/../../../../arm-none-eabi/lib/thumb/v7e-m+fp/hard\libm.a(lib_a-ef_acos.o)
                              c:/users/andy/.vscode/extensions/metalcode-eu.windows-arm-none-eabi-0.1.6/bin/../lib/gcc/arm-none-eabi/8.2.1/../../../../arm-none-eabi/lib/thumb/v7e-m+fp/hard\libm.a(lib_a-wf_acos.o) (__ieee754_acosf)
c:/users/andy/.vscode/extensions/metalcode-eu.windows-arm-none-eabi-0.1.6/bin/../lib/gcc/arm-none-eabi/8.2.1/../../../../arm-none-eabi/lib/thumb/v7e-m+fp/hard\libm.a(lib_a-ef_asin.o)
                              c:/users/andy/.vscode/extensions/metalcode-eu.windows-arm-none-eabi-0.1.6/bin/../lib/gcc/arm-none-eabi/8.2.1/../../../../arm-none-eabi/lib/thumb/v7e-m+fp/hard\libm.a(lib_a-wf_asin.o) (__ieee754_asinf)
c:/users/andy/.vscode/extensions/metalcode-eu.windows-arm-none-eabi-0.1.6/bin/../lib/gcc/arm-none-eabi/8.2.1/../../../../arm-none-eabi/lib/thumb/v7e-m+fp/hard\libm.a(lib_a-ef_atan2.o)
                              c:/users/andy/.vscode/extensions/metalcode-eu.windows-arm-none-eabi-0.1.6/bin/../lib/gcc/arm-none-eabi/8.2.1/../../../../arm-none-eabi/lib/thumb/v7e-m+fp/hard\libm.a(lib_a-wf_atan2.o) (__ieee754_atan2f)
c:/users/andy/.vscode/extensions/metalcode-eu.windows-arm-none-eabi-0.1.6/bin/../lib/gcc/arm-none-eabi/8.2.1/../../../../arm-none-eabi/lib/thumb/v7e-m+fp/hard\libm.a(lib_a-ef_fmod.o)
                              c:/users/andy/.vscode/extensions/metalcode-eu.windows-arm-none-eabi-0.1.6/bin/../lib/gcc/arm-none-eabi/8.2.1/../../../../arm-none-eabi/lib/thumb/v7e-m+fp/hard\libm.a(lib_a-wf_fmod.o) (__ieee754_fmodf)
c:/users/andy/.vscode/extensions/metalcode-eu.windows-arm-none-eabi-0.1.6/bin/../lib/gcc/arm-none-eabi/8.2.1/../../../../arm-none-eabi/lib/thumb/v7e-m+fp/hard\libm.a(lib_a-ef_log.o)
                              c:/users/andy/.vscode/extensions/metalcode-eu.windows-arm-none-eabi-0.1.6/bin/../lib/gcc/arm-none-eabi/8.2.1/../../../../arm-none-eabi/lib/thumb/v7e-m+fp/hard\libm.a(lib_a-wf_log.o) (__ieee754_logf)
c:/users/andy/.vscode/extensions/metalcode-eu.windows-arm-none-eabi-0.1.6/bin/../lib/gcc/arm-none-eabi/8.2.1/../../../../arm-none-eabi/lib/thumb/v7e-m+fp/hard\libm.a(lib_a-ef_pow.o)
                              c:/users/andy/.vscode/extensions/metalcode-eu.windows-arm-none-eabi-0.1.6/bin/../lib/gcc/arm-none-eabi/8.2.1/../../../../arm-none-eabi/lib/thumb/v7e-m+fp/hard\libm.a(lib_a-wf_pow.o) (__ieee754_powf)
c:/users/andy/.vscode/extensions/metalcode-eu.windows-arm-none-eabi-0.1.6/bin/../lib/gcc/arm-none-eabi/8.2.1/../../../../arm-none-eabi/lib/thumb/v7e-m+fp/hard\libm.a(lib_a-ef_rem_pio2.o)
                              c:/users/andy/.vscode/extensions/metalcode-eu.windows-arm-none-eabi-0.1.6/bin/../lib/gcc/arm-none-eabi/8.2.1/../../../../arm-none-eabi/lib/thumb/v7e-m+fp/hard\libm.a(lib_a-sf_cos.o) (__ieee754_rem_pio2f)
c:/users/andy/.vscode/extensions/metalcode-eu.windows-arm-none-eabi-0.1.6/bin/../lib/gcc/arm-none-eabi/8.2.1/../../../../arm-none-eabi/lib/thumb/v7e-m+fp/hard\libm.a(lib_a-ef_sqrt.o)
                              c:/users/andy/.vscode/extensions/metalcode-eu.windows-arm-none-eabi-0.1.6/bin/../lib/gcc/arm-none-eabi/8.2.1/../../../../arm-none-eabi/lib/thumb/v7e-m+fp/hard\libm.a(lib_a-wf_sqrt.o) (__ieee754_sqrtf)
c:/users/andy/.vscode/extensions/metalcode-eu.windows-arm-none-eabi-0.1.6/bin/../lib/gcc/arm-none-eabi/8.2.1/../../../../arm-none-eabi/lib/thumb/v7e-m+fp/hard\libm.a(lib_a-kf_cos.o)
                              c:/users/andy/.vscode/extensions/metalcode-eu.windows-arm-none-eabi-0.1.6/bin/../lib/gcc/arm-none-eabi/8.2.1/../../../../arm-none-eabi/lib/thumb/v7e-m+fp/hard\libm.a(lib_a-sf_cos.o) (__kernel_cosf)
c:/users/andy/.vscode/extensions/metalcode-eu.windows-arm-none-eabi-0.1.6/bin/../lib/gcc/arm-none-eabi/8.2.1/../../../../arm-none-eabi/lib/thumb/v7e-m+fp/hard\libm.a(lib_a-kf_rem_pio2.o)
                              c:/users/andy/.vscode/extensions/metalcode-eu.windows-arm-none-eabi-0.1.6/bin/../lib/gcc/arm-none-eabi/8.2.1/../../../../arm-none-eabi/lib/thumb/v7e-m+fp/hard\libm.a(lib_a-ef_rem_pio2.o) (__kernel_rem_pio2f)
c:/users/andy/.vscode/extensions/metalcode-eu.windows-arm-none-eabi-0.1.6/bin/../lib/gcc/arm-none-eabi/8.2.1/../../../../arm-none-eabi/lib/thumb/v7e-m+fp/hard\libm.a(lib_a-kf_sin.o)
                              c:/users/andy/.vscode/extensions/metalcode-eu.windows-arm-none-eabi-0.1.6/bin/../lib/gcc/arm-none-eabi/8.2.1/../../../../arm-none-eabi/lib/thumb/v7e-m+fp/hard\libm.a(lib_a-sf_cos.o) (__kernel_sinf)
c:/users/andy/.vscode/extensions/metalcode-eu.windows-arm-none-eabi-0.1.6/bin/../lib/gcc/arm-none-eabi/8.2.1/../../../../arm-none-eabi/lib/thumb/v7e-m+fp/hard\libm.a(lib_a-kf_tan.o)
                              c:/users/andy/.vscode/extensions/metalcode-eu.windows-arm-none-eabi-0.1.6/bin/../lib/gcc/arm-none-eabi/8.2.1/../../../../arm-none-eabi/lib/thumb/v7e-m+fp/hard\libm.a(lib_a-sf_tan.o) (__kernel_tanf)
c:/users/andy/.vscode/extensions/metalcode-eu.windows-arm-none-eabi-0.1.6/bin/../lib/gcc/arm-none-eabi/8.2.1/../../../../arm-none-eabi/lib/thumb/v7e-m+fp/hard\libm.a(lib_a-s_fabs.o)
                              c:/users/andy/.vscode/extensions/metalcode-eu.windows-arm-none-eabi-0.1.6/bin/../lib/gcc/arm-none-eabi/8.2.1/../../../../arm-none-eabi/lib/thumb/v7e-m+fp/hard\libm.a(lib_a-e_pow.o) (fabs)
c:/users/andy/.vscode/extensions/metalcode-eu.windows-arm-none-eabi-0.1.6/bin/../lib/gcc/arm-none-eabi/8.2.1/../../../../arm-none-eabi/lib/thumb/v7e-m+fp/hard\libm.a(lib_a-s_finite.o)
                              c:/users/andy/.vscode/extensions/metalcode-eu.windows-arm-none-eabi-0.1.6/bin/../lib/gcc/arm-none-eabi/8.2.1/../../../../arm-none-eabi/lib/thumb/v7e-m+fp/hard\libm.a(lib_a-w_pow.o) (finite)
c:/users/andy/.vscode/extensions/metalcode-eu.windows-arm-none-eabi-0.1.6/bin/../lib/gcc/arm-none-eabi/8.2.1/../../../../arm-none-eabi/lib/thumb/v7e-m+fp/hard\libm.a(lib_a-s_lib_ver.o)
                              c:/users/andy/.vscode/extensions/metalcode-eu.windows-arm-none-eabi-0.1.6/bin/../lib/gcc/arm-none-eabi/8.2.1/../../../../arm-none-eabi/lib/thumb/v7e-m+fp/hard\libm.a(lib_a-w_pow.o) (__fdlib_version)
c:/users/andy/.vscode/extensions/metalcode-eu.windows-arm-none-eabi-0.1.6/bin/../lib/gcc/arm-none-eabi/8.2.1/../../../../arm-none-eabi/lib/thumb/v7e-m+fp/hard\libm.a(lib_a-s_matherr.o)
                              c:/users/andy/.vscode/extensions/metalcode-eu.windows-arm-none-eabi-0.1.6/bin/../lib/gcc/arm-none-eabi/8.2.1/../../../../arm-none-eabi/lib/thumb/v7e-m+fp/hard\libm.a(lib_a-w_pow.o) (matherr)
c:/users/andy/.vscode/extensions/metalcode-eu.windows-arm-none-eabi-0.1.6/bin/../lib/gcc/arm-none-eabi/8.2.1/../../../../arm-none-eabi/lib/thumb/v7e-m+fp/hard\libm.a(lib_a-s_nan.o)
                              c:/users/andy/.vscode/extensions/metalcode-eu.windows-arm-none-eabi-0.1.6/bin/../lib/gcc/arm-none-eabi/8.2.1/../../../../arm-none-eabi/lib/thumb/v7e-m+fp/hard\libm.a(lib_a-wf_acos.o) (nan)
c:/users/andy/.vscode/extensions/metalcode-eu.windows-arm-none-eabi-0.1.6/bin/../lib/gcc/arm-none-eabi/8.2.1/../../../../arm-none-eabi/lib/thumb/v7e-m+fp/hard\libm.a(lib_a-s_rint.o)
                              c:/users/andy/.vscode/extensions/metalcode-eu.windows-arm-none-eabi-0.1.6/bin/../lib/gcc/arm-none-eabi/8.2.1/../../../../arm-none-eabi/lib/thumb/v7e-m+fp/hard\libm.a(lib_a-w_pow.o) (rint)
c:/users/andy/.vscode/extensions/metalcode-eu.windows-arm-none-eabi-0.1.6/bin/../lib/gcc/arm-none-eabi/8.2.1/../../../../arm-none-eabi/lib/thumb/v7e-m+fp/hard\libm.a(lib_a-s_scalbn.o)
                              c:/users/andy/.vscode/extensions/metalcode-eu.windows-arm-none-eabi-0.1.6/bin/../lib/gcc/arm-none-eabi/8.2.1/../../../../arm-none-eabi/lib/thumb/v7e-m+fp/hard\libm.a(lib_a-e_pow.o) (scalbn)
c:/users/andy/.vscode/extensions/metalcode-eu.windows-arm-none-eabi-0.1.6/bin/../lib/gcc/arm-none-eabi/8.2.1/../../../../arm-none-eabi/lib/thumb/v7e-m+fp/hard\libm.a(lib_a-sf_finite.o)
                              c:/users/andy/.vscode/extensions/metalcode-eu.windows-arm-none-eabi-0.1.6/bin/../lib/gcc/arm-none-eabi/8.2.1/../../../../arm-none-eabi/lib/thumb/v7e-m+fp/hard\libm.a(lib_a-wf_pow.o) (finitef)
c:/users/andy/.vscode/extensions/metalcode-eu.windows-arm-none-eabi-0.1.6/bin/../lib/gcc/arm-none-eabi/8.2.1/../../../../arm-none-eabi/lib/thumb/v7e-m+fp/hard\libm.a(lib_a-sf_nan.o)
                              c:/users/andy/.vscode/extensions/metalcode-eu.windows-arm-none-eabi-0.1.6/bin/../lib/gcc/arm-none-eabi/8.2.1/../../../../arm-none-eabi/lib/thumb/v7e-m+fp/hard\libm.a(lib_a-ef_pow.o) (nanf)
c:/users/andy/.vscode/extensions/metalcode-eu.windows-arm-none-eabi-0.1.6/bin/../lib/gcc/arm-none-eabi/8.2.1/../../../../arm-none-eabi/lib/thumb/v7e-m+fp/hard\libm.a(lib_a-sf_rint.o)
                              c:/users/andy/.vscode/extensions/metalcode-eu.windows-arm-none-eabi-0.1.6/bin/../lib/gcc/arm-none-eabi/8.2.1/../../../../arm-none-eabi/lib/thumb/v7e-m+fp/hard\libm.a(lib_a-wf_pow.o) (rintf)
c:/users/andy/.vscode/extensions/metalcode-eu.windows-arm-none-eabi-0.1.6/bin/../lib/gcc/arm-none-eabi/8.2.1/../../../../arm-none-eabi/lib/thumb/v7e-m+fp/hard\libm.a(lib_a-sf_scalbn.o)
                              c:/users/andy/.vscode/extensions/metalcode-eu.windows-arm-none-eabi-0.1.6/bin/../lib/gcc/arm-none-eabi/8.2.1/../../../../arm-none-eabi/lib/thumb/v7e-m+fp/hard\libm.a(lib_a-ef_pow.o) (scalbnf)
c:/users/andy/.vscode/extensions/metalcode-eu.windows-arm-none-eabi-0.1.6/bin/../lib/gcc/arm-none-eabi/8.2.1/thumb/v7e-m+fp/hard\libgcc.a(_arm_addsubdf3.o)
                              c:/users/andy/.vscode/extensions/metalcode-eu.windows-arm-none-eabi-0.1.6/bin/../lib/gcc/arm-none-eabi/8.2.1/../../../../arm-none-eabi/lib/thumb/v7e-m+fp/hard\libm.a(lib_a-s_llrint.o) (__aeabi_dsub)
c:/users/andy/.vscode/extensions/metalcode-eu.windows-arm-none-eabi-0.1.6/bin/../lib/gcc/arm-none-eabi/8.2.1/thumb/v7e-m+fp/hard\libgcc.a(_arm_muldivdf3.o)
                              ./build/./RepRapFirmware/src/Movement/DriveMovement.o (__aeabi_dmul)
c:/users/andy/.vscode/extensions/metalcode-eu.windows-arm-none-eabi-0.1.6/bin/../lib/gcc/arm-none-eabi/8.2.1/thumb/v7e-m+fp/hard\libgcc.a(_arm_cmpdf2.o)
                              ./build/\libRRFLibraries.a(SafeVsnprintf.o) (__aeabi_dcmpeq)
c:/users/andy/.vscode/extensions/metalcode-eu.windows-arm-none-eabi-0.1.6/bin/../lib/gcc/arm-none-eabi/8.2.1/thumb/v7e-m+fp/hard\libgcc.a(_arm_unorddf2.o)
                              ./build/\libRRFLibraries.a(SafeVsnprintf.o) (__aeabi_dcmpun)
c:/users/andy/.vscode/extensions/metalcode-eu.windows-arm-none-eabi-0.1.6/bin/../lib/gcc/arm-none-eabi/8.2.1/thumb/v7e-m+fp/hard\libgcc.a(_arm_truncdfsf2.o)
                              ./build/./RepRapFirmware/src/Movement/BedProbing/Grid.o (__aeabi_d2f)
c:/users/andy/.vscode/extensions/metalcode-eu.windows-arm-none-eabi-0.1.6/bin/../lib/gcc/arm-none-eabi/8.2.1/thumb/v7e-m+fp/hard\libgcc.a(_arm_addsubsf3.o)
                              ./build/./RepRapFirmware/src/PrintMonitor.o (__aeabi_ul2f)
c:/users/andy/.vscode/extensions/metalcode-eu.windows-arm-none-eabi-0.1.6/bin/../lib/gcc/arm-none-eabi/8.2.1/thumb/v7e-m+fp/hard\libgcc.a(_aeabi_ldivmod.o)
                              ./build/\libSTMCore.a(stm32f4xx_hal_rcc.o) (__aeabi_ldivmod)
c:/users/andy/.vscode/extensions/metalcode-eu.windows-arm-none-eabi-0.1.6/bin/../lib/gcc/arm-none-eabi/8.2.1/thumb/v7e-m+fp/hard\libgcc.a(_aeabi_uldivmod.o)
                              ./build/\libSTMCore.a(stm32f4xx_hal_rcc.o) (__aeabi_uldivmod)
c:/users/andy/.vscode/extensions/metalcode-eu.windows-arm-none-eabi-0.1.6/bin/../lib/gcc/arm-none-eabi/8.2.1/thumb/v7e-m+fp/hard\libgcc.a(_ctzdi2.o)
                              ./build/./RepRapFirmware/src/ObjectModel/ObjectModel.o (__ctzdi2)
c:/users/andy/.vscode/extensions/metalcode-eu.windows-arm-none-eabi-0.1.6/bin/../lib/gcc/arm-none-eabi/8.2.1/thumb/v7e-m+fp/hard\libgcc.a(_fixsfdi.o)
                              ./build/./RepRapFirmware/src/Movement/DriveMovement.o (__aeabi_f2lz)
c:/users/andy/.vscode/extensions/metalcode-eu.windows-arm-none-eabi-0.1.6/bin/../lib/gcc/arm-none-eabi/8.2.1/thumb/v7e-m+fp/hard\libgcc.a(_fixdfdi.o)
                              c:/users/andy/.vscode/extensions/metalcode-eu.windows-arm-none-eabi-0.1.6/bin/../lib/gcc/arm-none-eabi/8.2.1/../../../../arm-none-eabi/lib/thumb/v7e-m+fp/hard\libm.a(lib_a-s_llrint.o) (__aeabi_d2lz)
c:/users/andy/.vscode/extensions/metalcode-eu.windows-arm-none-eabi-0.1.6/bin/../lib/gcc/arm-none-eabi/8.2.1/thumb/v7e-m+fp/hard\libgcc.a(_fixunssfdi.o)
                              ./build/./RepRapFirmware/src/Movement/DriveMovement.o (__aeabi_f2ulz)
c:/users/andy/.vscode/extensions/metalcode-eu.windows-arm-none-eabi-0.1.6/bin/../lib/gcc/arm-none-eabi/8.2.1/thumb/v7e-m+fp/hard\libgcc.a(_fixunsdfdi.o)
                              ./build/./RepRapFirmware/src/Movement/DriveMovement.o (__aeabi_d2ulz)
c:/users/andy/.vscode/extensions/metalcode-eu.windows-arm-none-eabi-0.1.6/bin/../lib/gcc/arm-none-eabi/8.2.1/thumb/v7e-m+fp/hard\libgcc.a(_udivmoddi4.o)
                              c:/users/andy/.vscode/extensions/metalcode-eu.windows-arm-none-eabi-0.1.6/bin/../lib/gcc/arm-none-eabi/8.2.1/thumb/v7e-m+fp/hard\libgcc.a(_aeabi_ldivmod.o) (__udivmoddi4)
c:/users/andy/.vscode/extensions/metalcode-eu.windows-arm-none-eabi-0.1.6/bin/../lib/gcc/arm-none-eabi/8.2.1/thumb/v7e-m+fp/hard\libgcc.a(unwind-arm.o)
                              ./build/./RepRapFirmware/src/Platform.o (__aeabi_unwind_cpp_pr0)
c:/users/andy/.vscode/extensions/metalcode-eu.windows-arm-none-eabi-0.1.6/bin/../lib/gcc/arm-none-eabi/8.2.1/thumb/v7e-m+fp/hard\libgcc.a(libunwind.o)
                              c:/users/andy/.vscode/extensions/metalcode-eu.windows-arm-none-eabi-0.1.6/bin/../lib/gcc/arm-none-eabi/8.2.1/thumb/v7e-m+fp/hard\libgcc.a(unwind-arm.o) (restore_core_regs)
c:/users/andy/.vscode/extensions/metalcode-eu.windows-arm-none-eabi-0.1.6/bin/../lib/gcc/arm-none-eabi/8.2.1/thumb/v7e-m+fp/hard\libgcc.a(pr-support.o)
                              c:/users/andy/.vscode/extensions/metalcode-eu.windows-arm-none-eabi-0.1.6/bin/../lib/gcc/arm-none-eabi/8.2.1/thumb/v7e-m+fp/hard\libgcc.a(unwind-arm.o) (__gnu_unwind_execute)
c:/users/andy/.vscode/extensions/metalcode-eu.windows-arm-none-eabi-0.1.6/bin/../lib/gcc/arm-none-eabi/8.2.1/thumb/v7e-m+fp/hard\libgcc.a(_dvmd_tls.o)
                              c:/users/andy/.vscode/extensions/metalcode-eu.windows-arm-none-eabi-0.1.6/bin/../lib/gcc/arm-none-eabi/8.2.1/thumb/v7e-m+fp/hard\libgcc.a(_aeabi_ldivmod.o) (__aeabi_ldiv0)
c:/users/andy/.vscode/extensions/metalcode-eu.windows-arm-none-eabi-0.1.6/bin/../lib/gcc/arm-none-eabi/8.2.1/thumb/v7e-m+fp/hard\libgcc.a(_arm_fixunsdfsi.o)
                              c:/users/andy/.vscode/extensions/metalcode-eu.windows-arm-none-eabi-0.1.6/bin/../lib/gcc/arm-none-eabi/8.2.1/thumb/v7e-m+fp/hard\libgcc.a(_fixunssfdi.o) (__aeabi_d2uiz)
c:/users/andy/.vscode/extensions/metalcode-eu.windows-arm-none-eabi-0.1.6/bin/../lib/gcc/arm-none-eabi/8.2.1/../../../../arm-none-eabi/lib/thumb/v7e-m+fp/hard\libstdc++.a(new_op.o)
                              ./build/./RepRapFirmware/src/OutputMemory.o (operator new(unsigned int))
c:/users/andy/.vscode/extensions/metalcode-eu.windows-arm-none-eabi-0.1.6/bin/../lib/gcc/arm-none-eabi/8.2.1/../../../../arm-none-eabi/lib/thumb/v7e-m+fp/hard\libstdc++.a(eh_personality.o)
                              ./build/./RepRapFirmware/src/Logger.o (__gxx_personality_v0)
c:/users/andy/.vscode/extensions/metalcode-eu.windows-arm-none-eabi-0.1.6/bin/../lib/gcc/arm-none-eabi/8.2.1/../../../../arm-none-eabi/lib/thumb/v7e-m+fp/hard\libstdc++.a(bad_alloc.o)
                              c:/users/andy/.vscode/extensions/metalcode-eu.windows-arm-none-eabi-0.1.6/bin/../lib/gcc/arm-none-eabi/8.2.1/../../../../arm-none-eabi/lib/thumb/v7e-m+fp/hard\libstdc++.a(new_op.o) (std::bad_alloc::~bad_alloc())
c:/users/andy/.vscode/extensions/metalcode-eu.windows-arm-none-eabi-0.1.6/bin/../lib/gcc/arm-none-eabi/8.2.1/../../../../arm-none-eabi/lib/thumb/v7e-m+fp/hard\libstdc++.a(eh_call.o)
                              c:/users/andy/.vscode/extensions/metalcode-eu.windows-arm-none-eabi-0.1.6/bin/../lib/gcc/arm-none-eabi/8.2.1/../../../../arm-none-eabi/lib/thumb/v7e-m+fp/hard\libstdc++.a(eh_personality.o) (__cxa_call_terminate)
c:/users/andy/.vscode/extensions/metalcode-eu.windows-arm-none-eabi-0.1.6/bin/../lib/gcc/arm-none-eabi/8.2.1/../../../../arm-none-eabi/lib/thumb/v7e-m+fp/hard\libstdc++.a(new_handler.o)
                              c:/users/andy/.vscode/extensions/metalcode-eu.windows-arm-none-eabi-0.1.6/bin/../lib/gcc/arm-none-eabi/8.2.1/../../../../arm-none-eabi/lib/thumb/v7e-m+fp/hard\libstdc++.a(new_op.o) (std::get_new_handler())
c:/users/andy/.vscode/extensions/metalcode-eu.windows-arm-none-eabi-0.1.6/bin/../lib/gcc/arm-none-eabi/8.2.1/../../../../arm-none-eabi/lib/thumb/v7e-m+fp/hard\libstdc++.a(eh_catch.o)
                              ./build/./RepRapFirmware/src/RepRap.o (__cxa_begin_catch)
c:/users/andy/.vscode/extensions/metalcode-eu.windows-arm-none-eabi-0.1.6/bin/../lib/gcc/arm-none-eabi/8.2.1/../../../../arm-none-eabi/lib/thumb/v7e-m+fp/hard\libstdc++.a(eh_globals.o)
                              c:/users/andy/.vscode/extensions/metalcode-eu.windows-arm-none-eabi-0.1.6/bin/../lib/gcc/arm-none-eabi/8.2.1/../../../../arm-none-eabi/lib/thumb/v7e-m+fp/hard\libstdc++.a(eh_call.o) (__cxa_get_globals_fast)
c:/users/andy/.vscode/extensions/metalcode-eu.windows-arm-none-eabi-0.1.6/bin/../lib/gcc/arm-none-eabi/8.2.1/../../../../arm-none-eabi/lib/thumb/v7e-m+fp/hard\libstdc++.a(eh_terminate.o)
                              c:/users/andy/.vscode/extensions/metalcode-eu.windows-arm-none-eabi-0.1.6/bin/../lib/gcc/arm-none-eabi/8.2.1/../../../../arm-none-eabi/lib/thumb/v7e-m+fp/hard\libstdc++.a(eh_call.o) (__cxxabiv1::__terminate(void (*)()))
c:/users/andy/.vscode/extensions/metalcode-eu.windows-arm-none-eabi-0.1.6/bin/../lib/gcc/arm-none-eabi/8.2.1/../../../../arm-none-eabi/lib/thumb/v7e-m+fp/hard\libstdc++.a(eh_arm.o)
                              ./build/./RepRapFirmware/src/Platform.o (__cxa_end_cleanup)
c:/users/andy/.vscode/extensions/metalcode-eu.windows-arm-none-eabi-0.1.6/bin/../lib/gcc/arm-none-eabi/8.2.1/../../../../arm-none-eabi/lib/thumb/v7e-m+fp/hard\libstdc++.a(del_ops.o)
                              ./build/./RepRapFirmware/src/Platform.o (operator delete(void*, unsigned int))
c:/users/andy/.vscode/extensions/metalcode-eu.windows-arm-none-eabi-0.1.6/bin/../lib/gcc/arm-none-eabi/8.2.1/../../../../arm-none-eabi/lib/thumb/v7e-m+fp/hard\libstdc++.a(eh_throw.o)
                              ./build/./RepRapFirmware/src/GCodes/GCodes.o (__cxa_throw)
c:/users/andy/.vscode/extensions/metalcode-eu.windows-arm-none-eabi-0.1.6/bin/../lib/gcc/arm-none-eabi/8.2.1/../../../../arm-none-eabi/lib/thumb/v7e-m+fp/hard\libstdc++.a(new_opv.o)
                              ./build/./RepRapFirmware/src/Platform.o (operator new[](unsigned int))
c:/users/andy/.vscode/extensions/metalcode-eu.windows-arm-none-eabi-0.1.6/bin/../lib/gcc/arm-none-eabi/8.2.1/../../../../arm-none-eabi/lib/thumb/v7e-m+fp/hard\libstdc++.a(si_class_type_info.o)
                              c:/users/andy/.vscode/extensions/metalcode-eu.windows-arm-none-eabi-0.1.6/bin/../lib/gcc/arm-none-eabi/8.2.1/../../../../arm-none-eabi/lib/thumb/v7e-m+fp/hard\libstdc++.a(bad_alloc.o) (vtable for __cxxabiv1::__si_class_type_info)
c:/users/andy/.vscode/extensions/metalcode-eu.windows-arm-none-eabi-0.1.6/bin/../lib/gcc/arm-none-eabi/8.2.1/../../../../arm-none-eabi/lib/thumb/v7e-m+fp/hard\libstdc++.a(tinfo.o)
                              c:/users/andy/.vscode/extensions/metalcode-eu.windows-arm-none-eabi-0.1.6/bin/../lib/gcc/arm-none-eabi/8.2.1/../../../../arm-none-eabi/lib/thumb/v7e-m+fp/hard\libstdc++.a(si_class_type_info.o) (std::type_info::__is_pointer_p() const)
c:/users/andy/.vscode/extensions/metalcode-eu.windows-arm-none-eabi-0.1.6/bin/../lib/gcc/arm-none-eabi/8.2.1/../../../../arm-none-eabi/lib/thumb/v7e-m+fp/hard\libstdc++.a(class_type_info.o)
                              c:/users/andy/.vscode/extensions/metalcode-eu.windows-arm-none-eabi-0.1.6/bin/../lib/gcc/arm-none-eabi/8.2.1/../../../../arm-none-eabi/lib/thumb/v7e-m+fp/hard\libstdc++.a(si_class_type_info.o) (__cxxabiv1::__class_type_info::__do_upcast(__cxxabiv1::__class_type_info const*, void**) const)
c:/users/andy/.vscode/extensions/metalcode-eu.windows-arm-none-eabi-0.1.6/bin/../lib/gcc/arm-none-eabi/8.2.1/../../../../arm-none-eabi/lib/thumb/v7e-m+fp/hard\libstdc++.a(eh_exception.o)
                              c:/users/andy/.vscode/extensions/metalcode-eu.windows-arm-none-eabi-0.1.6/bin/../lib/gcc/arm-none-eabi/8.2.1/../../../../arm-none-eabi/lib/thumb/v7e-m+fp/hard\libstdc++.a(bad_alloc.o) (std::exception::~exception())
c:/users/andy/.vscode/extensions/metalcode-eu.windows-arm-none-eabi-0.1.6/bin/../lib/gcc/arm-none-eabi/8.2.1/../../../../arm-none-eabi/lib/thumb/v7e-m+fp/hard\libstdc++.a(del_op.o)
                              c:/users/andy/.vscode/extensions/metalcode-eu.windows-arm-none-eabi-0.1.6/bin/../lib/gcc/arm-none-eabi/8.2.1/../../../../arm-none-eabi/lib/thumb/v7e-m+fp/hard\libstdc++.a(del_ops.o) (operator delete(void*))
c:/users/andy/.vscode/extensions/metalcode-eu.windows-arm-none-eabi-0.1.6/bin/../lib/gcc/arm-none-eabi/8.2.1/../../../../arm-none-eabi/lib/thumb/v7e-m+fp/hard\libstdc++.a(eh_unex_handler.o)
                              c:/users/andy/.vscode/extensions/metalcode-eu.windows-arm-none-eabi-0.1.6/bin/../lib/gcc/arm-none-eabi/8.2.1/../../../../arm-none-eabi/lib/thumb/v7e-m+fp/hard\libstdc++.a(eh_terminate.o) (__cxxabiv1::__unexpected_handler)
./build/\libSTMCore.a(wiring_analog.o)
                              ./build/./RepRapFirmware/src/targets/STM32/BoardConfig.o (analogReadResolution)
./build/\libSTMCore.a(wiring_time.o)
                              ./build/./RepRapFirmware/src/Logger.o (millis)
./build/\libSTMCore.a(clock.o)
                              ./build/\libSTMCore.a(wiring_time.o) (getCurrentMicros)
./build/\libSTMCore.a(stm32f4xx_hal_flash.o)
                              ./build/./RepRapFirmware/src/targets/STM32/NVMEmulation.o (HAL_FLASH_Unlock)
./build/\libSTMCore.a(stm32f4xx_hal_flash_ex.o)
                              ./build/\libSTMCore.a(stm32f4xx_hal_flash.o) (FLASH_Erase_Sector)
./build/\libSTMCore.a(stm32f4xx_hal_pwr.o)
                              ./build/\libSTMCore.a(clock.o) (HAL_PWR_EnableBkUpAccess)
./build/\libSTMCore.a(AnalogIn.o)
                              ./build/./RepRapFirmware/src/targets/STM32/BoardConfig.o (AnalogInInit())
./build/\libSTMCore.a(AnalogOut.o)
                              ./build/./RepRapFirmware/src/Hardware/IoPorts.o (AnalogOut(PinName, float, unsigned short))
./build/\libSTMCore.a(Core.o)
                              ./build/./RepRapFirmware/src/GCodes/GCodes.o (memcpyu32(unsigned long*, unsigned long const*, unsigned int))
./build/\libSTMCore.a(HardwareTimer.o)
                              ./build/./RepRapFirmware/src/targets/STM32/Movement/StepperDrivers/TMCSoftUART.o (HardwareTimer::pause())
./build/\libSTMCore.a(Print.o)
                              ./build/./RepRapFirmware/src/Stream.o (Print::write(unsigned char const*, unsigned int))
./build/\libSTMCore.a(Reset.o)
                              ./build/./RepRapFirmware/src/Hardware/ExceptionHandlers.o (Reset)
./build/\libSTMCore.a(USBSerial.o)
                              ./build/./RepRapFirmware/src/Platform.o (USBSerial::write(unsigned char))
./build/\libSTMCore.a(watchdog.o)
                              ./build/./RepRapFirmware/src/RepRap.o (WatchdogEnable(unsigned long))
./build/\libSTMCore.a(WInterrupts.o)
                              ./build/./RepRapFirmware/src/Hardware/IoPorts.o (attachInterrupt(unsigned long, void (*)(CallbackParameter) noexcept, InterruptMode, CallbackParameter))
./build/\libSTMCore.a(wiring_digital.o)
                              ./build/./RepRapFirmware/src/Platform.o (pinModeDuet)
./build/\libSTMCore.a(WMath.o)
                              ./build/./RepRapFirmware/src/GCodes/GCodeBuffer/ExpressionParser.o (random32)
./build/\libSTMCore.a(analog.o)
                              ./build/\libSTMCore.a(HardwareTimer.o) (get_pwm_channel)
./build/\libSTMCore.a(interrupt.o)
                              ./build/\libSTMCore.a(WInterrupts.o) (stm32_interrupt_enable(GPIO_TypeDef*, unsigned short, void (*)(CallbackParameter) noexcept, unsigned long, CallbackParameter))
./build/\libSTMCore.a(ConfigurableUART.o)
                              ./build/./RepRapFirmware/src/GCodes/GCodes.o (ConfigurableUART::read())
./build/\libSTMCore.a(HardwareSPI.o)
                              ./build/./RepRapFirmware/src/Networking/ESP8266WiFi/WiFiInterface.o (HardwareSPI::flushRx())
./build/\libSTMCore.a(SPI.o)  ./build/./RepRapFirmware/src/Hardware/SharedSpi/SharedSpiDevice.o (SPI::getSSPDevice(SSPChannel))
./build/\libSTMCore.a(HybridPWM.o)
                              ./build/\libSTMCore.a(AnalogOut.o) (HybridPWMPin::find(PinName))
./build/\libSTMCore.a(SoftwarePWM.o)
                              ./build/\libSTMCore.a(HybridPWM.o) (SoftwarePWM::allocate(PinName, unsigned long, float))
./build/\libSTMCore.a(HardwareSDIO.o)
                              ./build/./RepRapFirmware/src/targets/STM32/FatFS/SDCardSDIO.o (HardwareSDIO::Init())
./build/\libSTMCore.a(queue.o)
                              ./build/\libRRFLibraries.a(RTOSIface.o) (xQueueGenericCreateStatic)
./build/\libSTMCore.a(tasks.o)
                              ./build/./RepRapFirmware/src/Tasks.o (xTaskCreateStatic)
./build/\libSTMCore.a(port.o)
                              ./build/\libSTMCore.a(tasks.o) (pxPortInitialiseStack)
./build/\libSTMCore.a(hooks.o)
                              ./build/\libSTMCore.a(wiring_time.o) (yield)
./build/\libSTMCore.a(spi_com.o)
                              ./build/\libSTMCore.a(HardwareSPI.o) (spi_init)
./build/\libSTMCore.a(timer.o)
                              ./build/\libSTMCore.a(HardwareTimer.o) (enableTimerClock)
./build/\libSTMCore.a(cdc_queue.o)
                              ./build/\libSTMCore.a(USBSerial.o) (CDC_TransmitQueue_WriteSize)
./build/\libSTMCore.a(usbd_cdc_if.o)
                              ./build/\libSTMCore.a(USBSerial.o) (ReceiveQueue)
./build/\libSTMCore.a(usbd_core.o)
                              ./build/\libSTMCore.a(usbd_cdc_if.o) (USBD_Init)
./build/\libSTMCore.a(usbd_ctlreq.o)
                              ./build/\libSTMCore.a(usbd_core.o) (USBD_StdDevReq)
./build/\libSTMCore.a(usbd_ioreq.o)
                              ./build/\libSTMCore.a(usbd_ctlreq.o) (USBD_CtlSendData)
./build/\libSTMCore.a(stm32f4xx_hal_adc.o)
                              ./build/\libSTMCore.a(AnalogIn.o) (HAL_ADC_Init)
./build/\libSTMCore.a(stm32f4xx_hal_adc_ex.o)
                              ./build/\libSTMCore.a(stm32f4xx_hal_adc.o) (HAL_ADCEx_InjectedConvCpltCallback)
./build/\libSTMCore.a(stm32f4xx_hal_sd.o)
                              ./build/\libSTMCore.a(HardwareSDIO.o) (HAL_SD_ReadBlocks_DMA)
./build/\libSTMCore.a(stm32f4xx_hal_spi.o)
                              ./build/\libSTMCore.a(spi_com.o) (HAL_SPI_Init)
./build/\libSTMCore.a(stm32f4xx_hal_tim.o)
                              ./build/\libSTMCore.a(HardwareTimer.o) (HAL_TIM_Base_DeInit)
./build/\libSTMCore.a(stm32f4xx_hal_tim_ex.o)
                              ./build/\libSTMCore.a(HardwareTimer.o) (HAL_TIMEx_OCN_Start)
./build/\libSTMCore.a(stm32f4xx_hal_wwdg.o)
                              ./build/\libSTMCore.a(watchdog.o) (HAL_WWDG_Init)
./build/\libSTMCore.a(stm32f4xx_ll_sdmmc.o)
                              ./build/\libSTMCore.a(stm32f4xx_hal_sd.o) (SDIO_Init)
./build/\libSTMCore.a(HardwareSerial.o)
                              ./build/\libSTMCore.a(ConfigurableUART.o) (HardwareSerial::begin(unsigned long, unsigned char))
./build/\libSTMCore.a(SoftwareSPI.o)
                              ./build/\libSTMCore.a(SPI.o) (SoftwareSPI::SWSSP0)
./build/\libSTMCore.a(HardwarePWM.o)
                              ./build/\libSTMCore.a(HybridPWM.o) (HardwarePWM::allocate(PinName, unsigned long, float))
./build/\libSTMCore.a(list.o)
                              ./build/\libSTMCore.a(queue.o) (vListInitialise)
./build/\libSTMCore.a(usbd_conf.o)
                              ./build/\libSTMCore.a(usbd_core.o) (USBD_LL_Init)
./build/\libSTMCore.a(usbd_desc.o)
                              ./build/\libSTMCore.a(usbd_cdc_if.o) (USBD_Desc)
./build/\libSTMCore.a(usbd_ep_conf.o)
                              ./build/\libSTMCore.a(usbd_conf.o) (ep_def)
./build/\libSTMCore.a(usbd_if.o)
                              ./build/\libSTMCore.a(usbd_conf.o) (USBD_reenumerate)
./build/\libSTMCore.a(usbd_cdc.o)
                              ./build/\libSTMCore.a(usbd_cdc_if.o) (USBD_CDC_RegisterInterface)
./build/\libSTMCore.a(stm32f4xx_hal_pcd.o)
                              ./build/\libSTMCore.a(usbd_conf.o) (HAL_PCD_Init)
./build/\libSTMCore.a(stm32f4xx_hal_pcd_ex.o)
                              ./build/\libSTMCore.a(usbd_conf.o) (HAL_PCDEx_SetTxFiFo)
./build/\libSTMCore.a(stm32f4xx_ll_usb.o)
                              ./build/\libSTMCore.a(stm32f4xx_hal_pcd.o) (USB_CoreInit)
c:/users/andy/.vscode/extensions/metalcode-eu.windows-arm-none-eabi-0.1.6/bin/../lib/gcc/arm-none-eabi/8.2.1/../../../../arm-none-eabi/lib/thumb/v7e-m+fp/hard\libc.a(lib_a-rand.o)
                              ./build/\libSTMCore.a(WMath.o) (srand)
c:/users/andy/.vscode/extensions/metalcode-eu.windows-arm-none-eabi-0.1.6/bin/../lib/gcc/arm-none-eabi/8.2.1/thumb/v7e-m+fp/hard\libgcc.a(_arm_fixdfsi.o)
                              ./build/\libSTMCore.a(Print.o) (__aeabi_d2iz)

Allocating common symbols
Common symbol       size              file

errno               0x4               c:/users/andy/.vscode/extensions/metalcode-eu.windows-arm-none-eabi-0.1.6/bin/../lib/gcc/arm-none-eabi/8.2.1/../../../../arm-none-eabi/lib/thumb/v7e-m+fp/hard\libc.a(lib_a-reent.o)
g_hpcd              0x408             ./build/\libSTMCore.a(usbd_conf.o)
__lock___malloc_recursive_mutex
                    0x1               c:/users/andy/.vscode/extensions/metalcode-eu.windows-arm-none-eabi-0.1.6/bin/../lib/gcc/arm-none-eabi/8.2.1/../../../../arm-none-eabi/lib/thumb/v7e-m+fp/hard\libc.a(lib_a-lock.o)
__lock___atexit_recursive_mutex
                    0x1               c:/users/andy/.vscode/extensions/metalcode-eu.windows-arm-none-eabi-0.1.6/bin/../lib/gcc/arm-none-eabi/8.2.1/../../../../arm-none-eabi/lib/thumb/v7e-m+fp/hard\libc.a(lib_a-lock.o)
pFlash              0x20              ./build/\libSTMCore.a(stm32f4xx_hal_flash.o)
TransmitQueue       0x86              ./build/\libSTMCore.a(usbd_cdc_if.o)
uwTick              0x4               ./build/\libSTMCore.a(stm32f4xx_hal.o)
xQueueRegistry      0x40              ./build/\libSTMCore.a(queue.o)
__lock___dd_hash_mutex
                    0x1               c:/users/andy/.vscode/extensions/metalcode-eu.windows-arm-none-eabi-0.1.6/bin/../lib/gcc/arm-none-eabi/8.2.1/../../../../arm-none-eabi/lib/thumb/v7e-m+fp/hard\libc.a(lib_a-lock.o)
__lock___sinit_recursive_mutex
                    0x1               c:/users/andy/.vscode/extensions/metalcode-eu.windows-arm-none-eabi-0.1.6/bin/../lib/gcc/arm-none-eabi/8.2.1/../../../../arm-none-eabi/lib/thumb/v7e-m+fp/hard\libc.a(lib_a-lock.o)
USBD_StrDesc        0x100             ./build/\libSTMCore.a(usbd_desc.o)
hUSBD_Device_CDC    0x2c8             ./build/\libSTMCore.a(usbd_cdc_if.o)
__lock___sfp_recursive_mutex
                    0x1               c:/users/andy/.vscode/extensions/metalcode-eu.windows-arm-none-eabi-0.1.6/bin/../lib/gcc/arm-none-eabi/8.2.1/../../../../arm-none-eabi/lib/thumb/v7e-m+fp/hard\libc.a(lib_a-lock.o)
__lock___at_quick_exit_mutex
                    0x1               c:/users/andy/.vscode/extensions/metalcode-eu.windows-arm-none-eabi-0.1.6/bin/../lib/gcc/arm-none-eabi/8.2.1/../../../../arm-none-eabi/lib/thumb/v7e-m+fp/hard\libc.a(lib_a-lock.o)
__lock___env_recursive_mutex
                    0x1               c:/users/andy/.vscode/extensions/metalcode-eu.windows-arm-none-eabi-0.1.6/bin/../lib/gcc/arm-none-eabi/8.2.1/../../../../arm-none-eabi/lib/thumb/v7e-m+fp/hard\libc.a(lib_a-lock.o)
ReceiveQueue        0xc6              ./build/\libSTMCore.a(usbd_cdc_if.o)
__lock___tz_mutex   0x1               c:/users/andy/.vscode/extensions/metalcode-eu.windows-arm-none-eabi-0.1.6/bin/../lib/gcc/arm-none-eabi/8.2.1/../../../../arm-none-eabi/lib/thumb/v7e-m+fp/hard\libc.a(lib_a-lock.o)
__lock___arc4random_mutex
                    0x1               c:/users/andy/.vscode/extensions/metalcode-eu.windows-arm-none-eabi-0.1.6/bin/../lib/gcc/arm-none-eabi/8.2.1/../../../../arm-none-eabi/lib/thumb/v7e-m+fp/hard\libc.a(lib_a-lock.o)

Discarded input sections

 .text          0x00000000        0x0 c:/users/andy/.vscode/extensions/metalcode-eu.windows-arm-none-eabi-0.1.6/bin/../lib/gcc/arm-none-eabi/8.2.1/thumb/v7e-m+fp/hard/crti.o
 .data          0x00000000        0x0 c:/users/andy/.vscode/extensions/metalcode-eu.windows-arm-none-eabi-0.1.6/bin/../lib/gcc/arm-none-eabi/8.2.1/thumb/v7e-m+fp/hard/crti.o
 .bss           0x00000000        0x0 c:/users/andy/.vscode/extensions/metalcode-eu.windows-arm-none-eabi-0.1.6/bin/../lib/gcc/arm-none-eabi/8.2.1/thumb/v7e-m+fp/hard/crti.o
 .text          0x00000000       0x74 c:/users/andy/.vscode/extensions/metalcode-eu.windows-arm-none-eabi-0.1.6/bin/../lib/gcc/arm-none-eabi/8.2.1/../../../../arm-none-eabi/lib/thumb/v7e-m+fp/hard/crt0.o
 .data          0x00000000        0x0 c:/users/andy/.vscode/extensions/metalcode-eu.windows-arm-none-eabi-0.1.6/bin/../lib/gcc/arm-none-eabi/8.2.1/../../../../arm-none-eabi/lib/thumb/v7e-m+fp/hard/crt0.o
 .bss           0x00000000        0x0 c:/users/andy/.vscode/extensions/metalcode-eu.windows-arm-none-eabi-0.1.6/bin/../lib/gcc/arm-none-eabi/8.2.1/../../../../arm-none-eabi/lib/thumb/v7e-m+fp/hard/crt0.o
 .ARM.extab     0x00000000        0x0 c:/users/andy/.vscode/extensions/metalcode-eu.windows-arm-none-eabi-0.1.6/bin/../lib/gcc/arm-none-eabi/8.2.1/../../../../arm-none-eabi/lib/thumb/v7e-m+fp/hard/crt0.o
 .ARM.exidx     0x00000000        0x8 c:/users/andy/.vscode/extensions/metalcode-eu.windows-arm-none-eabi-0.1.6/bin/../lib/gcc/arm-none-eabi/8.2.1/../../../../arm-none-eabi/lib/thumb/v7e-m+fp/hard/crt0.o
 .ARM.attributes
                0x00000000       0x1c c:/users/andy/.vscode/extensions/metalcode-eu.windows-arm-none-eabi-0.1.6/bin/../lib/gcc/arm-none-eabi/8.2.1/../../../../arm-none-eabi/lib/thumb/v7e-m+fp/hard/crt0.o
 .text          0x00000000        0x0 ./build/./CoreSTM32F4/cores/arduino/syscalls.o
 .data          0x00000000        0x0 ./build/./CoreSTM32F4/cores/arduino/syscalls.o
 .bss           0x00000000        0x0 ./build/./CoreSTM32F4/cores/arduino/syscalls.o
 .text._close   0x00000000        0x6 ./build/./CoreSTM32F4/cores/arduino/syscalls.o
 .text._fstat   0x00000000        0xa ./build/./CoreSTM32F4/cores/arduino/syscalls.o
 .text._isatty  0x00000000        0x4 ./build/./CoreSTM32F4/cores/arduino/syscalls.o
 .text._lseek   0x00000000        0x4 ./build/./CoreSTM32F4/cores/arduino/syscalls.o
 .text._read    0x00000000        0x4 ./build/./CoreSTM32F4/cores/arduino/syscalls.o
Memory Configuration

Name             Origin             Length             Attributes
VECTOR           0x08008000         0x00004000         xr
RESETDATA        0x0800c000         0x00004000         xr
FLASH            0x08010000         0x000f0000         xr
RAM              0x20000000         0x00020000         xrw
CCMRAM           0x10000000         0x00010000         rw
*default*        0x00000000         0xffffffff

Linker script and memory map

LOAD c:/users/andy/.vscode/extensions/metalcode-eu.windows-arm-none-eabi-0.1.6/bin/../lib/gcc/arm-none-eabi/8.2.1/thumb/v7e-m+fp/hard/crti.o
LOAD c:/users/andy/.vscode/extensions/metalcode-eu.windows-arm-none-eabi-0.1.6/bin/../lib/gcc/arm-none-eabi/8.2.1/thumb/v7e-m+fp/hard/crtbegin.o
LOAD c:/users/andy/.vscode/extensions/metalcode-eu.windows-arm-none-eabi-0.1.6/bin/../lib/gcc/arm-none-eabi/8.2.1/../../../../arm-none-eabi/lib/thumb/v7e-m+fp/hard/crt0.o
                0x00100000                LD_MAX_SIZE = 0x100000
                0x00030000                LD_MAX_DATA_SIZE = 0x30000
                0x00000000                LD_FLASH_OFFSET = 0x0
START GROUP
LOAD ./build/./CoreSTM32F4/cores/arduino/syscalls.o
LOAD ./build/./RepRapFirmware/src/libc/memcmp.o
LOAD ./build/./RepRapFirmware/src/libc/memcpy.o
LOAD ./build/./RepRapFirmware/src/libc/memmove.o
LOAD ./build/./RepRapFirmware/src/libc/memset.o
LOAD ./build/./RepRapFirmware/src/libc/nano-mallocr.o
LOAD ./build/./RepRapFirmware/src/libcpp/eh_alloc.o
LOAD ./build/./RepRapFirmware/src/libc/strptime.o
LOAD ./build/./RepRapFirmware/src/libcpp/vterminate.o
LOAD ./build/\libSTMCore.a
LOAD ./build/./RepRapFirmware/src/Libraries/sha1/sha1.o
LOAD ./build/./RepRapFirmware/src/targets/common/FatFS/ff.o
LOAD ./build/./RepRapFirmware/src/targets/common/FatFS/ffunicode.o
LOAD ./build/./RepRapFirmware/src/Logger.o
LOAD ./build/./RepRapFirmware/src/OutputMemory.o
LOAD ./build/./RepRapFirmware/src/Platform.o
LOAD ./build/./RepRapFirmware/src/PortControl.o
LOAD ./build/./RepRapFirmware/src/PrintMonitor.o
LOAD ./build/./RepRapFirmware/src/RepRap.o
LOAD ./build/./RepRapFirmware/src/RepRapFirmware.o
LOAD ./build/./RepRapFirmware/src/Roland.o
LOAD ./build/./RepRapFirmware/src/Scanner.o
LOAD ./build/./RepRapFirmware/src/Stream.o
LOAD ./build/./RepRapFirmware/src/Tasks.o
LOAD ./build/./RepRapFirmware/src/FilamentMonitors/Duet3DFilamentMonitor.o
LOAD ./build/./RepRapFirmware/src/FilamentMonitors/FilamentMonitor.o
LOAD ./build/./RepRapFirmware/src/FilamentMonitors/LaserFilamentMonitor.o
LOAD ./build/./RepRapFirmware/src/FilamentMonitors/PulsedFilamentMonitor.o
LOAD ./build/./RepRapFirmware/src/FilamentMonitors/RotatingMagnetFilamentMonitor.o
LOAD ./build/./RepRapFirmware/src/FilamentMonitors/SimpleFilamentMonitor.o
LOAD ./build/./RepRapFirmware/src/GCodes/GCodeException.o
LOAD ./build/./RepRapFirmware/src/GCodes/GCodeFileInfo.o
LOAD ./build/./RepRapFirmware/src/GCodes/GCodeInput.o
LOAD ./build/./RepRapFirmware/src/GCodes/GCodeMachineState.o
LOAD ./build/./RepRapFirmware/src/GCodes/GCodeQueue.o
LOAD ./build/./RepRapFirmware/src/GCodes/GCodes.o
LOAD ./build/./RepRapFirmware/src/GCodes/GCodes2.o
LOAD ./build/./RepRapFirmware/src/GCodes/GCodes3.o
LOAD ./build/./RepRapFirmware/src/GCodes/GCodes4.o
LOAD ./build/./RepRapFirmware/src/GCodes/ObjectTracker.o
LOAD ./build/./RepRapFirmware/src/GCodes/RestorePoint.o
LOAD ./build/./RepRapFirmware/src/GCodes/Trigger.o
LOAD ./build/./RepRapFirmware/src/GCodes/GCodeBuffer/BinaryParser.o
LOAD ./build/./RepRapFirmware/src/GCodes/GCodeBuffer/ExpressionParser.o
LOAD ./build/./RepRapFirmware/src/GCodes/GCodeBuffer/GCodeBuffer.o
LOAD ./build/./RepRapFirmware/src/GCodes/GCodeBuffer/StringParser.o
LOAD ./build/./RepRapFirmware/src/Heating/FOPDT.o
LOAD ./build/./RepRapFirmware/src/Heating/Heat.o
LOAD ./build/./RepRapFirmware/src/Heating/Heater.o
LOAD ./build/./RepRapFirmware/src/Heating/HeaterMonitor.o
LOAD ./build/./RepRapFirmware/src/Heating/LocalHeater.o
LOAD ./build/./RepRapFirmware/src/Heating/RemoteHeater.o
LOAD ./build/./RepRapFirmware/src/Heating/TemperatureError.o
LOAD ./build/./RepRapFirmware/src/Movement/DDA.o
LOAD ./build/./RepRapFirmware/src/Movement/DDARing.o
LOAD ./build/./RepRapFirmware/src/Movement/DriveMovement.o
LOAD ./build/./RepRapFirmware/src/Movement/Move.o
LOAD ./build/./RepRapFirmware/src/Movement/RawMove.o
LOAD ./build/./RepRapFirmware/src/Movement/StepTimer.o
LOAD ./build/./RepRapFirmware/src/Movement/StraightProbeSettings.o
LOAD ./build/./RepRapFirmware/src/Movement/BedProbing/Grid.o
LOAD ./build/./RepRapFirmware/src/Movement/BedProbing/RandomProbePointSet.o
LOAD ./build/./RepRapFirmware/src/Movement/Kinematics/CoreKinematics.o
LOAD ./build/./RepRapFirmware/src/Movement/Kinematics/FiveBarScaraKinematics.o
LOAD ./build/./RepRapFirmware/src/Movement/Kinematics/HangprinterKinematics.o
LOAD ./build/./RepRapFirmware/src/Movement/Kinematics/Kinematics.o
LOAD ./build/./RepRapFirmware/src/Movement/Kinematics/LinearDeltaKinematics.o
LOAD ./build/./RepRapFirmware/src/Movement/Kinematics/PolarKinematics.o
LOAD ./build/./RepRapFirmware/src/Movement/Kinematics/RotaryDeltaKinematics.o
LOAD ./build/./RepRapFirmware/src/Movement/Kinematics/ScaraKinematics.o
LOAD ./build/./RepRapFirmware/src/Movement/Kinematics/ZLeadscrewKinematics.o
LOAD ./build/./RepRapFirmware/src/Storage/CRC16.o
LOAD ./build/./RepRapFirmware/src/Storage/CRC32.o
LOAD ./build/./RepRapFirmware/src/Storage/FileInfoParser.o
LOAD ./build/./RepRapFirmware/src/Storage/FileStore.o
LOAD ./build/./RepRapFirmware/src/Storage/MassStorage.o
LOAD ./build/./RepRapFirmware/src/Comms/AuxDevice.o
LOAD ./build/./RepRapFirmware/src/Comms/FirmwareUpdater.o
LOAD ./build/./RepRapFirmware/src/Comms/PanelDueUpdater.o
LOAD ./build/./RepRapFirmware/src/Heating/Sensors/AdditionalOutputSensor.o
LOAD ./build/./RepRapFirmware/src/Heating/Sensors/CpuTemperatureSensor.o
LOAD ./build/./RepRapFirmware/src/Heating/Sensors/CurrentLoopTemperatureSensor.o
LOAD ./build/./RepRapFirmware/src/Heating/Sensors/DhtSensor.o
LOAD ./build/./RepRapFirmware/src/Heating/Sensors/LinearAnalogSensor.o
LOAD ./build/./RepRapFirmware/src/Heating/Sensors/RemoteSensor.o
LOAD ./build/./RepRapFirmware/src/Heating/Sensors/RtdSensor31865.o
LOAD ./build/./RepRapFirmware/src/Heating/Sensors/SensorWithPort.o
LOAD ./build/./RepRapFirmware/src/Heating/Sensors/SpiTemperatureSensor.o
LOAD ./build/./RepRapFirmware/src/Heating/Sensors/TemperatureSensor.o
LOAD ./build/./RepRapFirmware/src/Heating/Sensors/Thermistor.o
LOAD ./build/./RepRapFirmware/src/Heating/Sensors/ThermocoupleSensor31855.o
LOAD ./build/./RepRapFirmware/src/Heating/Sensors/ThermocoupleSensor31856.o
LOAD ./build/./RepRapFirmware/src/Heating/Sensors/TmcDriverTemperatureSensor.o
LOAD ./build/./RepRapFirmware/src/Fans/Fan.o
LOAD ./build/./RepRapFirmware/src/Fans/FansManager.o
LOAD ./build/./RepRapFirmware/src/Fans/LedStripDriver.o
LOAD ./build/./RepRapFirmware/src/Fans/LocalFan.o
LOAD ./build/./RepRapFirmware/src/Fans/RemoteFan.o
LOAD ./build/./RepRapFirmware/src/ObjectModel/ObjectModel.o
LOAD ./build/./RepRapFirmware/src/Endstops/Endstop.o
LOAD ./build/./RepRapFirmware/src/Endstops/EndstopsManager.o
LOAD ./build/./RepRapFirmware/src/Endstops/LocalZProbe.o
LOAD ./build/./RepRapFirmware/src/Endstops/RemoteZProbe.o
LOAD ./build/./RepRapFirmware/src/Endstops/StallDetectionEndstop.o
LOAD ./build/./RepRapFirmware/src/Endstops/SwitchEndstop.o
LOAD ./build/./RepRapFirmware/src/Endstops/ZProbe.o
LOAD ./build/./RepRapFirmware/src/Endstops/ZProbeEndstop.o
LOAD ./build/./RepRapFirmware/src/Hardware/ExceptionHandlers.o
LOAD ./build/./RepRapFirmware/src/Hardware/I2C.o
LOAD ./build/./RepRapFirmware/src/Hardware/IoPorts.o
LOAD ./build/./RepRapFirmware/src/Hardware/NonVolatileMemory.o
LOAD ./build/./RepRapFirmware/src/Hardware/SoftwareReset.o
LOAD ./build/./RepRapFirmware/src/Hardware/SharedSpi/SharedSpiClient.o
LOAD ./build/./RepRapFirmware/src/Hardware/SharedSpi/SharedSpiDevice.o
LOAD ./build/./RepRapFirmware/src/Tools/Filament.o
LOAD ./build/./RepRapFirmware/src/Tools/Spindle.o
LOAD ./build/./RepRapFirmware/src/Tools/Tool.o
LOAD ./build/./RepRapFirmware/src/Display/Display.o
LOAD ./build/./RepRapFirmware/src/Display/Menu.o
LOAD ./build/./RepRapFirmware/src/Display/MenuItem.o
LOAD ./build/./RepRapFirmware/src/Display/RotaryEncoder.o
LOAD ./build/./RepRapFirmware/src/GPIO/GpInPort.o
LOAD ./build/./RepRapFirmware/src/GPIO/GpOutPort.o
LOAD ./build/./RepRapFirmware/src/bossa/Applet.o
LOAD ./build/./RepRapFirmware/src/bossa/Device.o
LOAD ./build/./RepRapFirmware/src/bossa/EefcFlash.o
LOAD ./build/./RepRapFirmware/src/bossa/Flash.o
LOAD ./build/./RepRapFirmware/src/bossa/Flasher.o
LOAD ./build/./RepRapFirmware/src/bossa/Samba.o
LOAD ./build/./RepRapFirmware/src/bossa/WordCopyApplet.o
LOAD ./build/./RepRapFirmware/src/bossa/WordCopyArm.o
LOAD ./build/./RepRapFirmware/src/targets/STM32/BoardConfig.o
LOAD ./build/./RepRapFirmware/src/targets/STM32/NVMEmulation.o
LOAD ./build/./RepRapFirmware/src/targets/STM32/Pins_STM32.o
LOAD ./build/./RepRapFirmware/src/targets/STM32/ResetCause.o
LOAD ./build/./RepRapFirmware/src/targets/common/Microstepping.o
LOAD ./build/./RepRapFirmware/src/targets/STM32/FatFS/sd_mmc_wrapper.o
LOAD ./build/./RepRapFirmware/src/targets/STM32/FatFS/SDCardSDIO.o
LOAD ./build/./RepRapFirmware/src/targets/STM32/FatFS/SDCardSPI.o
LOAD ./build/./RepRapFirmware/src/targets/common/FatFS/diskio.o
LOAD ./build/./RepRapFirmware/src/targets/common/FatFS/fattime_rtc.o
LOAD ./build/./RepRapFirmware/src/targets/common/Fans/LedStripDriver.o
LOAD ./build/./RepRapFirmware/src/Networking/FtpResponder.o
LOAD ./build/./RepRapFirmware/src/Networking/HttpResponder.o
LOAD ./build/./RepRapFirmware/src/Networking/Network.o
LOAD ./build/./RepRapFirmware/src/Networking/NetworkBuffer.o
LOAD ./build/./RepRapFirmware/src/Networking/NetworkInterface.o
LOAD ./build/./RepRapFirmware/src/Networking/NetworkResponder.o
LOAD ./build/./RepRapFirmware/src/Networking/TelnetResponder.o
LOAD ./build/./RepRapFirmware/src/Networking/UploadingNetworkResponder.o
LOAD ./build/./RepRapFirmware/src/Networking/ESP8266WiFi/WifiFirmwareUploader.o
LOAD ./build/./RepRapFirmware/src/Networking/ESP8266WiFi/WiFiInterface.o
LOAD ./build/./RepRapFirmware/src/Networking/ESP8266WiFi/WiFiSocket.o
LOAD ./build/./RepRapFirmware/src/targets/STM32/Movement/StepperDrivers/TMCSoftUART.o
LOAD ./build/./RepRapFirmware/src/targets/common/Movement/StepperDrivers/TMC22xx.o
LOAD ./build/./RepRapFirmware/src/Movement/StepperDrivers/DriverMode.o
LOAD ./build/./RepRapFirmware/src/Movement/StepperDrivers/TMC22xx.o
LOAD ./build/./RepRapFirmware/src/Movement/StepperDrivers/TMC2660.o
LOAD ./build/./RepRapFirmware/src/Movement/StepperDrivers/TMC51xx.o
LOAD ./build/\libRRFLibraries.a
LOAD ./CoreSTM32F4/CMSIS/CMSIS/DSP/Lib/GCC\libarm_cortexM4l_math.a
LOAD c:/users/andy/.vscode/extensions/metalcode-eu.windows-arm-none-eabi-0.1.6/bin/../lib/gcc/arm-none-eabi/8.2.1/../../../../arm-none-eabi/lib/thumb/v7e-m+fp/hard\libc.a
LOAD c:/users/andy/.vscode/extensions/metalcode-eu.windows-arm-none-eabi-0.1.6/bin/../lib/gcc/arm-none-eabi/8.2.1/../../../../arm-none-eabi/lib/thumb/v7e-m+fp/hard\libm.a
LOAD c:/users/andy/.vscode/extensions/metalcode-eu.windows-arm-none-eabi-0.1.6/bin/../lib/gcc/arm-none-eabi/8.2.1/thumb/v7e-m+fp/hard\libgcc.a
LOAD c:/users/andy/.vscode/extensions/metalcode-eu.windows-arm-none-eabi-0.1.6/bin/../lib/gcc/arm-none-eabi/8.2.1/../../../../arm-none-eabi/lib/thumb/v7e-m+fp/hard\libstdc++.a
END GROUP
START GROUP
LOAD c:/users/andy/.vscode/extensions/metalcode-eu.windows-arm-none-eabi-0.1.6/bin/../lib/gcc/arm-none-eabi/8.2.1/thumb/v7e-m+fp/hard\libgcc.a
LOAD c:/users/andy/.vscode/extensions/metalcode-eu.windows-arm-none-eabi-0.1.6/bin/../lib/gcc/arm-none-eabi/8.2.1/../../../../arm-none-eabi/lib/thumb/v7e-m+fp/hard\libc.a
END GROUP
START GROUP
LOAD c:/users/andy/.vscode/extensions/metalcode-eu.windows-arm-none-eabi-0.1.6/bin/../lib/gcc/arm-none-eabi/8.2.1/thumb/v7e-m+fp/hard\libgcc.a
LOAD c:/users/andy/.vscode/extensions/metalcode-eu.windows-arm-none-eabi-0.1.6/bin/../lib/gcc/arm-none-eabi/8.2.1/../../../../arm-none-eabi/lib/thumb/v7e-m+fp/hard\libc.a
LOAD c:/users/andy/.vscode/extensions/metalcode-eu.windows-arm-none-eabi-0.1.6/bin/../lib/gcc/arm-none-eabi/8.2.1/../../../../arm-none-eabi/lib/thumb/v7e-m+fp/hard\libnosys.a
END GROUP
LOAD c:/users/andy/.vscode/extensions/metalcode-eu.windows-arm-none-eabi-0.1.6/bin/../lib/gcc/arm-none-eabi/8.2.1/thumb/v7e-m+fp/hard/crtend.o
LOAD c:/users/andy/.vscode/extensions/metalcode-eu.windows-arm-none-eabi-0.1.6/bin/../lib/gcc/arm-none-eabi/8.2.1/thumb/v7e-m+fp/hard/crtn.o
                0x2001fffc                _estack = 0x2001fffc
                0x00000200                _Min_Heap_Size = 0x200
                0x00000400                _Min_Stack_Size = 0x400

.isr_vector     0x08008000      0x188
                0x08008000                . = ALIGN (0x4)
 *(.isr_vector)
 .isr_vector    0x08008000      0x188 ./build/\libSTMCore.a(startup_stm32yyxx.o)
                0x08008000                g_pfnVectors
                0x08008188                . = ALIGN (0x4)

.reset_data     0x0800c000     0x4000
                0x0800c000                . = ALIGN (0x4)
                0x0800c000                __reset_data_start = .
 *(.reset_data)
 .reset_data    0x0800c000     0x4000 ./build/./RepRapFirmware/src/targets/STM32/NVMEmulation.o
                0x0800c000                ResetData
                0x08010000                . = ALIGN (0x4)

.text           0x08010000    0x5e14c
                0x08010000                . = ALIGN (0x4)
 *(.text)
 .text          0x08010000       0x40 c:/users/andy/.vscode/extensions/metalcode-eu.windows-arm-none-eabi-0.1.6/bin/../lib/gcc/arm-none-eabi/8.2.1/thumb/v7e-m+fp/hard/crtbegin.o
 .text          0x08010040      0x2dc c:/users/andy/.vscode/extensions/metalcode-eu.windows-arm-none-eabi-0.1.6/bin/../lib/gcc/arm-none-eabi/8.2.1/../../../../arm-none-eabi/lib/thumb/v7e-m+fp/hard\libc.a(lib_a-strcmp.o)
                0x08010048                strcmp
 *fill*         0x0801031c       0x24 
 .text          0x08010340       0xdc c:/users/andy/.vscode/extensions/metalcode-eu.windows-arm-none-eabi-0.1.6/bin/../lib/gcc/arm-none-eabi/8.2.1/../../../../arm-none-eabi/lib/thumb/v7e-m+fp/hard\libc.a(lib_a-strlen.o)
                0x08010340                strlen
 .text          0x0801041c      0x378 c:/users/andy/.vscode/extensions/metalcode-eu.windows-arm-none-eabi-0.1.6/bin/../lib/gcc/arm-none-eabi/8.2.1/thumb/v7e-m+fp/hard\libgcc.a(_arm_addsubdf3.o)
                0x0801041c                __aeabi_drsub
                0x08010424                __subdf3
                0x08010424                __aeabi_dsub
                0x08010428                __aeabi_dadd
                0x08010428                __adddf3
                0x080106a0                __floatunsidf
                0x080106a0                __aeabi_ui2d
                0x080106c0                __aeabi_i2d
                0x080106c0                __floatsidf
                0x080106e4                __extendsfdf2
                0x080106e4                __aeabi_f2d
                0x08010728                __floatundidf
                0x08010728                __aeabi_ul2d
                0x08010738                __aeabi_l2d
                0x08010738                __floatdidf
 .text          0x08010794      0x424 c:/users/andy/.vscode/extensions/metalcode-eu.windows-arm-none-eabi-0.1.6/bin/../lib/gcc/arm-none-eabi/8.2.1/thumb/v7e-m+fp/hard\libgcc.a(_arm_muldivdf3.o)
                0x08010794                __aeabi_dmul
                0x08010794                __muldf3
                0x080109e8                __divdf3
                0x080109e8                __aeabi_ddiv
 .text          0x08010bb8      0x110 c:/users/andy/.vscode/extensions/metalcode-eu.windows-arm-none-eabi-0.1.6/bin/../lib/gcc/arm-none-eabi/8.2.1/thumb/v7e-m+fp/hard\libgcc.a(_arm_cmpdf2.o)
                0x08010bb8                __gtdf2
                0x08010bb8                __gedf2
                0x08010bc0                __ltdf2
                0x08010bc0                __ledf2
                0x08010bc8                __nedf2
                0x08010bc8                __cmpdf2
                0x08010bc8                __eqdf2
                0x08010c44                __aeabi_cdrcmple
                0x08010c54                __aeabi_cdcmple
                0x08010c54                __aeabi_cdcmpeq
                0x08010c64                __aeabi_dcmpeq
                0x08010c78                __aeabi_dcmplt
                0x08010c8c                __aeabi_dcmple
                0x08010ca0                __aeabi_dcmpge
                0x08010cb4                __aeabi_dcmpgt
 .text          0x08010cc8       0x2c c:/users/andy/.vscode/extensions/metalcode-eu.windows-arm-none-eabi-0.1.6/bin/../lib/gcc/arm-none-eabi/8.2.1/thumb/v7e-m+fp/hard\libgcc.a(_arm_unorddf2.o)
                0x08010cc8                __unorddf2
                0x08010cc8                __aeabi_dcmpun
 .text          0x08010cf4       0xa0 c:/users/andy/.vscode/extensions/metalcode-eu.windows-arm-none-eabi-0.1.6/bin/../lib/gcc/arm-none-eabi/8.2.1/thumb/v7e-m+fp/hard\libgcc.a(_arm_truncdfsf2.o)
                0x08010cf4                __truncdfsf2
                0x08010cf4                __aeabi_d2f
 .text          0x08010d94      0x21c c:/users/andy/.vscode/extensions/metalcode-eu.windows-arm-none-eabi-0.1.6/bin/../lib/gcc/arm-none-eabi/8.2.1/thumb/v7e-m+fp/hard\libgcc.a(_arm_addsubsf3.o)
                0x08010d94                __aeabi_frsub
                0x08010d9c                __subsf3
                0x08010d9c                __aeabi_fsub
                0x08010da0                __addsf3
                0x08010da0                __aeabi_fadd
                0x08010f00                __aeabi_ui2f
                0x08010f00                __floatunsisf
                0x08010f08                __floatsisf
                0x08010f08                __aeabi_i2f
                0x08010f24                __aeabi_ul2f
                0x08010f24                __floatundisf
                0x08010f34                __aeabi_l2f
                0x08010f34                __floatdisf
 .text          0x08010fb0       0xa0 c:/users/andy/.vscode/extensions/metalcode-eu.windows-arm-none-eabi-0.1.6/bin/../lib/gcc/arm-none-eabi/8.2.1/thumb/v7e-m+fp/hard\libgcc.a(_aeabi_ldivmod.o)
                0x08010fb0                __aeabi_ldivmod
 .text          0x08011050       0x30 c:/users/andy/.vscode/extensions/metalcode-eu.windows-arm-none-eabi-0.1.6/bin/../lib/gcc/arm-none-eabi/8.2.1/thumb/v7e-m+fp/hard\libgcc.a(_aeabi_uldivmod.o)
                0x08011050                __aeabi_uldivmod
 .text          0x08011080       0x20 c:/users/andy/.vscode/extensions/metalcode-eu.windows-arm-none-eabi-0.1.6/bin/../lib/gcc/arm-none-eabi/8.2.1/thumb/v7e-m+fp/hard\libgcc.a(_ctzdi2.o)
                0x08011080                __ctzdi2
 .text          0x080110a0       0x24 c:/users/andy/.vscode/extensions/metalcode-eu.windows-arm-none-eabi-0.1.6/bin/../lib/gcc/arm-none-eabi/8.2.1/thumb/v7e-m+fp/hard\libgcc.a(_fixsfdi.o)
                0x080110a0                __aeabi_f2lz
                0x080110a0                __fixsfdi
 .text          0x080110c4       0x30 c:/users/andy/.vscode/extensions/metalcode-eu.windows-arm-none-eabi-0.1.6/bin/../lib/gcc/arm-none-eabi/8.2.1/thumb/v7e-m+fp/hard\libgcc.a(_fixdfdi.o)
                0x080110c4                __aeabi_d2lz
                0x080110c4                __fixdfdi
 .text          0x080110f4       0x40 c:/users/andy/.vscode/extensions/metalcode-eu.windows-arm-none-eabi-0.1.6/bin/../lib/gcc/arm-none-eabi/8.2.1/thumb/v7e-m+fp/hard\libgcc.a(_fixunssfdi.o)
                0x080110f4                __aeabi_f2ulz
                0x080110f4                __fixunssfdi
 .text          0x08011134       0x3c c:/users/andy/.vscode/extensions/metalcode-eu.windows-arm-none-eabi-0.1.6/bin/../lib/gcc/arm-none-eabi/8.2.1/thumb/v7e-m+fp/hard\libgcc.a(_fixunsdfdi.o)
                0x08011134                __fixunsdfdi
                0x08011134                __aeabi_d2ulz
 .text          0x08011170      0x2d0 c:/users/andy/.vscode/extensions/metalcode-eu.windows-arm-none-eabi-0.1.6/bin/../lib/gcc/arm-none-eabi/8.2.1/thumb/v7e-m+fp/hard\libgcc.a(_udivmoddi4.o)
                0x08011170                __udivmoddi4
 .text          0x08011440      0x9d8 c:/users/andy/.vscode/extensions/metalcode-eu.windows-arm-none-eabi-0.1.6/bin/../lib/gcc/arm-none-eabi/8.2.1/thumb/v7e-m+fp/hard\libgcc.a(unwind-arm.o)
                0x080116f8                _Unwind_GetCFA
                0x080116fc                __gnu_Unwind_RaiseException
                0x0801175c                __gnu_Unwind_ForcedUnwind
                0x08011770                __gnu_Unwind_Resume
                0x080117b4                __gnu_Unwind_Resume_or_Rethrow
                0x080117c4                _Unwind_Complete
                0x080117c8                _Unwind_DeleteException
                0x080117d4                _Unwind_VRS_Get
                0x08011818                _Unwind_VRS_Set
                0x0801185c                __gnu_Unwind_Backtrace
                0x08011b94                __aeabi_unwind_cpp_pr0
                0x08011b98                __aeabi_unwind_cpp_pr1
                0x08011b9c                __aeabi_unwind_cpp_pr2
                0x08011ba0                _Unwind_VRS_Pop
 .text          0x08011e18      0x1ac c:/users/andy/.vscode/extensions/metalcode-eu.windows-arm-none-eabi-0.1.6/bin/../lib/gcc/arm-none-eabi/8.2.1/thumb/v7e-m+fp/hard\libgcc.a(libunwind.o)
                0x08011e18                __restore_core_regs
                0x08011e18                restore_core_regs
                0x08011e30                __gnu_Unwind_Restore_VFP
                0x08011e38                __gnu_Unwind_Save_VFP
                0x08011e40                __gnu_Unwind_Restore_VFP_D
                0x08011e48                __gnu_Unwind_Save_VFP_D
                0x08011e50                __gnu_Unwind_Restore_VFP_D_16_to_31
                0x08011e58                __gnu_Unwind_Save_VFP_D_16_to_31
                0x08011e60                __gnu_Unwind_Restore_WMMXD
                0x08011ea4                __gnu_Unwind_Save_WMMXD
                0x08011ee8                __gnu_Unwind_Restore_WMMXC
                0x08011efc                __gnu_Unwind_Save_WMMXC
                0x08011f10                ___Unwind_RaiseException
                0x08011f10                _Unwind_RaiseException
                0x08011f34                ___Unwind_Resume
                0x08011f34                _Unwind_Resume
                0x08011f58                ___Unwind_Resume_or_Rethrow
                0x08011f58                _Unwind_Resume_or_Rethrow
                0x08011f7c                _Unwind_ForcedUnwind
                0x08011f7c                ___Unwind_ForcedUnwind
                0x08011fa0                ___Unwind_Backtrace
                0x08011fa0                _Unwind_Backtrace
 .text          0x08011fc4      0x368 c:/users/andy/.vscode/extensions/metalcode-eu.windows-arm-none-eabi-0.1.6/bin/../lib/gcc/arm-none-eabi/8.2.1/thumb/v7e-m+fp/hard\libgcc.a(pr-support.o)
                0x0801201c                __gnu_unwind_execute
                0x080122e4                __gnu_unwind_frame
                0x0801230c                _Unwind_GetRegionStart
                0x08012318                _Unwind_GetLanguageSpecificData
 .text          0x0801232c        0x4 c:/users/andy/.vscode/extensions/metalcode-eu.windows-arm-none-eabi-0.1.6/bin/../lib/gcc/arm-none-eabi/8.2.1/thumb/v7e-m+fp/hard\libgcc.a(_dvmd_tls.o)
                0x0801232c                __aeabi_idiv0
                0x0801232c                __aeabi_ldiv0
 .text          0x08012330       0x40 c:/users/andy/.vscode/extensions/metalcode-eu.windows-arm-none-eabi-0.1.6/bin/../lib/gcc/arm-none-eabi/8.2.1/thumb/v7e-m+fp/hard\libgcc.a(_arm_fixunsdfsi.o)
                0x08012330                __fixunsdfsi
                0x08012330                __aeabi_d2uiz
 *(.text*)
 .text._sbrk    0x08012370       0x34 ./build/./CoreSTM32F4/cores/arduino/syscalls.o
                0x08012370                _sbrk
 .text._exit    0x080123a4        0x2 ./build/./CoreSTM32F4/cores/arduino/syscalls.o
                0x080123a4                _exit
 *fill*         0x080123a6        0x2 
 .text._kill    0x080123a8       0x10 ./build/./CoreSTM32F4/cores/arduino/syscalls.o
                0x080123a8                _kill
 .text._getpid  0x080123b8        0x4 ./build/./CoreSTM32F4/cores/arduino/syscalls.o
                0x080123b8                _getpid
 .text.memcmp   0x080123bc       0x1c ./build/./RepRapFirmware/src/libc/memcmp.o
                0x080123bc                memcmp
 .text.memcpy   0x080123d8       0x1c ./build/./RepRapFirmware/src/libc/memcpy.o
                0x080123d8                memcpy
 .text.memmove  0x080123f4       0x34 ./build/./RepRapFirmware/src/libc/memmove.o
                0x080123f4                memmove
 .text.memset   0x08012428       0x10 ./build/./RepRapFirmware/src/libc/memset.o
                0x08012428                memset
 .text.malloc   0x08012438       0xb0 ./build/./RepRapFirmware/src/libc/nano-mallocr.o
                0x08012438                malloc
 .text.free     0x080124e8       0xa0 ./build/./RepRapFirmware/src/libc/nano-mallocr.o
                0x080124e8                free
 .text.mallinfo
                0x08012588       0x5c ./build/./RepRapFirmware/src/libc/nano-mallocr.o
                0x08012588                mallinfo
 .text.__cxa_allocate_exception
                0x080125e4       0x1e ./build/./RepRapFirmware/src/libcpp/eh_alloc.o
                0x080125e4                __cxa_allocate_exception
 .text.__cxa_free_exception
                0x08012602        0x6 ./build/./RepRapFirmware/src/libcpp/eh_alloc.o
                0x08012602                __cxa_free_exception
 .text._Z12SafeStrptimePKcS0_P2tm
                0x08012608      0x1d8 ./build/./RepRapFirmware/src/libc/strptime.o
                0x08012608                SafeStrptime(char const*, char const*, tm*)
 .text.uart_init
                0x080127e0      0x200 ./build/\libSTMCore.a(uart.o)
                0x080127e0                uart_init
 .text.uart_deinit
                0x080129e0       0xe0 ./build/\libSTMCore.a(uart.o)
                0x080129e0                uart_deinit
 .text.serial_rx_active
                0x08012ac0       0x24 ./build/\libSTMCore.a(uart.o)
                0x08012ac0                serial_rx_active
 .text.serial_tx_active
                0x08012ae4       0x24 ./build/\libSTMCore.a(uart.o)
                0x08012ae4                serial_tx_active
 .text.uart_getc
                0x08012b08       0x38 ./build/\libSTMCore.a(uart.o)
                0x08012b08                uart_getc
 .text.uart_attach_rx_callback
                0x08012b40       0x40 ./build/\libSTMCore.a(uart.o)
                0x08012b40                uart_attach_rx_callback
 .text.uart_attach_tx_callback
                0x08012b80       0x3c ./build/\libSTMCore.a(uart.o)
                0x08012b80                uart_attach_tx_callback
 .text.uart_set_interrupt_priority
                0x08012bbc        0xa ./build/\libSTMCore.a(uart.o)
                0x08012bbc                uart_set_interrupt_priority
 .text.HAL_UART_RxCpltCallback
                0x08012bc6        0xc ./build/\libSTMCore.a(uart.o)
                0x08012bc6                HAL_UART_RxCpltCallback
 .text.HAL_UART_TxCpltCallback
                0x08012bd2       0x26 ./build/\libSTMCore.a(uart.o)
                0x08012bd2                HAL_UART_TxCpltCallback
 .text.HAL_UART_ErrorCallback
                0x08012bf8       0x7c ./build/\libSTMCore.a(uart.o)
                0x08012bf8                HAL_UART_ErrorCallback
 .text.USART1_IRQHandler
                0x08012c74       0x18 ./build/\libSTMCore.a(uart.o)
                0x08012c74                USART1_IRQHandler
 .text.USART2_IRQHandler
                0x08012c8c       0x18 ./build/\libSTMCore.a(uart.o)
                0x08012c8c                USART2_IRQHandler
 .text.USART3_IRQHandler
                0x08012ca4       0x1c ./build/\libSTMCore.a(uart.o)
                0x08012ca4                USART3_IRQHandler
 .text.UART4_IRQHandler
                0x08012cc0       0x18 ./build/\libSTMCore.a(uart.o)
                0x08012cc0                UART4_IRQHandler
 .text.UART5_IRQHandler
                0x08012cd8       0x18 ./build/\libSTMCore.a(uart.o)
                0x08012cd8                UART5_IRQHandler
 .text.USART6_IRQHandler
                0x08012cf0       0x18 ./build/\libSTMCore.a(uart.o)
                0x08012cf0                USART6_IRQHandler
 .text.HAL_MspInit
                0x08012d08        0x2 ./build/\libSTMCore.a(stm32f4xx_hal.o)
                0x08012d08                HAL_MspInit
 *fill*         0x08012d0a        0x2 
 .text.HAL_InitTick
                0x08012d0c       0x48 ./build/\libSTMCore.a(stm32f4xx_hal.o)
                0x08012d0c                HAL_InitTick
 .text.HAL_Init
                0x08012d54       0x34 ./build/\libSTMCore.a(stm32f4xx_hal.o)
                0x08012d54                HAL_Init
 .text.HAL_IncTick
                0x08012d88       0x18 ./build/\libSTMCore.a(stm32f4xx_hal.o)
                0x08012d88                HAL_IncTick
 .text.HAL_GetTick
                0x08012da0        0xc ./build/\libSTMCore.a(stm32f4xx_hal.o)
                0x08012da0                HAL_GetTick
 .text.HAL_Delay
                0x08012dac       0x28 ./build/\libSTMCore.a(stm32f4xx_hal.o)
                0x08012dac                HAL_Delay
 .text.HAL_NVIC_SetPriorityGrouping
                0x08012dd4       0x38 ./build/\libSTMCore.a(stm32f4xx_hal_cortex.o)
                0x08012dd4                HAL_NVIC_SetPriorityGrouping
 .text.HAL_NVIC_SetPriority
                0x08012e0c       0x88 ./build/\libSTMCore.a(stm32f4xx_hal_cortex.o)
                0x08012e0c                HAL_NVIC_SetPriority
 .text.HAL_NVIC_EnableIRQ
                0x08012e94       0x28 ./build/\libSTMCore.a(stm32f4xx_hal_cortex.o)
                0x08012e94                HAL_NVIC_EnableIRQ
 .text.HAL_NVIC_DisableIRQ
                0x08012ebc       0x34 ./build/\libSTMCore.a(stm32f4xx_hal_cortex.o)
                0x08012ebc                HAL_NVIC_DisableIRQ
 .text.HAL_SYSTICK_Config
                0x08012ef0       0x2c ./build/\libSTMCore.a(stm32f4xx_hal_cortex.o)
                0x08012ef0                HAL_SYSTICK_Config
 .text.HAL_NVIC_ClearPendingIRQ
                0x08012f1c       0x2c ./build/\libSTMCore.a(stm32f4xx_hal_cortex.o)
                0x08012f1c                HAL_NVIC_ClearPendingIRQ
 .text.HAL_SYSTICK_CLKSourceConfig
                0x08012f48       0x30 ./build/\libSTMCore.a(stm32f4xx_hal_cortex.o)
                0x08012f48                HAL_SYSTICK_CLKSourceConfig
 .text.HAL_SYSTICK_Callback
                0x08012f78        0x2 ./build/\libSTMCore.a(stm32f4xx_hal_cortex.o)
                0x08012f78                HAL_SYSTICK_Callback
 .text.HAL_SYSTICK_IRQHandler
                0x08012f7a        0x8 ./build/\libSTMCore.a(stm32f4xx_hal_cortex.o)
                0x08012f7a                HAL_SYSTICK_IRQHandler
 .text.UART_EndRxTransfer
                0x08012f82       0x1a ./build/\libSTMCore.a(stm32f4xx_hal_uart.o)
 .text.UART_SetConfig
                0x08012f9c      0x28c ./build/\libSTMCore.a(stm32f4xx_hal_uart.o)
 .text.HAL_UART_MspInit
                0x08013228        0x2 ./build/\libSTMCore.a(stm32f4xx_hal_uart.o)
                0x08013228                HAL_UART_MspInit
 *fill*         0x0801322a        0x2 
 .text.HAL_UART_Init
                0x0801322c      0x104 ./build/\libSTMCore.a(stm32f4xx_hal_uart.o)
                0x0801322c                HAL_UART_Init
 .text.HAL_UART_MspDeInit
                0x08013330        0x2 ./build/\libSTMCore.a(stm32f4xx_hal_uart.o)
                0x08013330                HAL_UART_MspDeInit
 *fill*         0x08013332        0x2 
 .text.HAL_UART_DeInit
                0x08013334       0x74 ./build/\libSTMCore.a(stm32f4xx_hal_uart.o)
                0x08013334                HAL_UART_DeInit
 .text.HAL_UART_Transmit_IT
                0x080133a8       0x3e ./build/\libSTMCore.a(stm32f4xx_hal_uart.o)
                0x080133a8                HAL_UART_Transmit_IT
 .text.HAL_UART_Receive_IT
                0x080133e6       0x4e ./build/\libSTMCore.a(stm32f4xx_hal_uart.o)
                0x080133e6                HAL_UART_Receive_IT
 .text.UART_Receive_IT
                0x08013434       0x76 ./build/\libSTMCore.a(stm32f4xx_hal_uart.o)
 *fill*         0x080134aa        0x2 
 .text.HAL_UART_IRQHandler
                0x080134ac      0x140 ./build/\libSTMCore.a(stm32f4xx_hal_uart.o)
                0x080134ac                HAL_UART_IRQHandler
 .text.UART_DMAAbortOnError
                0x080135ec       0x10 ./build/\libSTMCore.a(stm32f4xx_hal_uart.o)
 .text.HAL_UART_GetState
                0x080135fc        0xc ./build/\libSTMCore.a(stm32f4xx_hal_uart.o)
                0x080135fc                HAL_UART_GetState
 .text._Z11initVariantv
                0x08013608        0x2 ./build/\libSTMCore.a(main.o)
                0x08013608                initVariant()
 .text.startup._Z7premainv
                0x0801360a       0x14 ./build/\libSTMCore.a(main.o)
                0x0801360a                premain()
 .text.startup.main
                0x0801361e        0xc ./build/\libSTMCore.a(main.o)
                0x0801361e                main
 *fill*         0x0801362a        0x2 
 .text.Reset_Handler
                0x0801362c       0x50 ./build/\libSTMCore.a(startup_stm32yyxx.o)
                0x0801362c                Reset_Handler
 .text.Default_Handler
                0x0801367c        0x2 ./build/\libSTMCore.a(startup_stm32yyxx.o)
                0x0801367c                OTG_HS_WKUP_IRQHandler
                0x0801367c                DMA2_Stream7_IRQHandler
                0x0801367c                ETH_IRQHandler
                0x0801367c                SPI2_IRQHandler
                0x0801367c                SPI1_IRQHandler
                0x0801367c                PVD_IRQHandler
                0x0801367c                ADC_IRQHandler
                0x0801367c                DMA1_Stream6_IRQHandler
                0x0801367c                DMA1_Stream1_IRQHandler
                0x0801367c                DMA2_Stream0_IRQHandler
                0x0801367c                I2C3_EV_IRQHandler
                0x0801367c                DMA1_Stream2_IRQHandler
                0x0801367c                RCC_IRQHandler
                0x0801367c                I2C1_ER_IRQHandler
                0x0801367c                OTG_HS_EP1_OUT_IRQHandler
                0x0801367c                DMA2_Stream4_IRQHandler
                0x0801367c                I2C2_EV_IRQHandler
                0x0801367c                CAN1_RX0_IRQHandler
                0x0801367c                DMA1_Stream0_IRQHandler
                0x0801367c                DMA1_Stream7_IRQHandler
                0x0801367c                CAN2_TX_IRQHandler
                0x0801367c                FLASH_IRQHandler
                0x0801367c                CAN1_TX_IRQHandler
                0x0801367c                RTC_WKUP_IRQHandler
                0x0801367c                FSMC_IRQHandler
                0x0801367c                CAN1_SCE_IRQHandler
                0x0801367c                BusFault_Handler
                0x0801367c                TAMP_STAMP_IRQHandler
                0x0801367c                HASH_RNG_IRQHandler
                0x0801367c                OTG_HS_EP1_IN_IRQHandler
                0x0801367c                Default_Handler
                0x0801367c                ETH_WKUP_IRQHandler
                0x0801367c                DMA1_Stream5_IRQHandler
                0x0801367c                I2C3_ER_IRQHandler
                0x0801367c                I2C2_ER_IRQHandler
                0x0801367c                CAN2_RX0_IRQHandler
                0x0801367c                DMA2_Stream2_IRQHandler
                0x0801367c                DMA2_Stream1_IRQHandler
                0x0801367c                FPU_IRQHandler
                0x0801367c                DCMI_IRQHandler
                0x0801367c                CAN2_RX1_IRQHandler
                0x0801367c                I2C1_EV_IRQHandler
                0x0801367c                SPI3_IRQHandler
                0x0801367c                OTG_HS_IRQHandler
                0x0801367c                MemManage_Handler
                0x0801367c                RTC_Alarm_IRQHandler
                0x0801367c                CAN1_RX1_IRQHandler
                0x0801367c                CAN2_SCE_IRQHandler
 .text.init     0x0801367e        0x4 ./build/\libSTMCore.a(board.o)
                0x0801367e                init
 .text.hw_config_init
                0x08013682       0x12 ./build/\libSTMCore.a(hw_config.o)
                0x08013682                hw_config_init
 .text.LL_GPIO_SetPinPull
                0x08013694       0x2a ./build/\libSTMCore.a(pinmap.o)
 *fill*         0x080136be        0x2 
 .text.pin_function
                0x080136c0      0x138 ./build/\libSTMCore.a(pinmap.o)
                0x080136c0                pin_function
 .text.pinmap_pinout
                0x080137f8       0x28 ./build/\libSTMCore.a(pinmap.o)
                0x080137f8                pinmap_pinout
 .text.pinmap_find_peripheral
                0x08013820       0x18 ./build/\libSTMCore.a(pinmap.o)
                0x08013820                pinmap_find_peripheral
 .text.pinmap_peripheral
                0x08013838        0xc ./build/\libSTMCore.a(pinmap.o)
                0x08013838                pinmap_peripheral
 .text.pinmap_find_pin
                0x08013844       0x18 ./build/\libSTMCore.a(pinmap.o)
                0x08013844                pinmap_find_pin
 .text.pinmap_pin
                0x0801385c        0xc ./build/\libSTMCore.a(pinmap.o)
                0x0801385c                pinmap_pin
 .text.pinmap_find_function
                0x08013868       0x18 ./build/\libSTMCore.a(pinmap.o)
                0x08013868                pinmap_find_function
 .text.pinmap_function
                0x08013880        0xa ./build/\libSTMCore.a(pinmap.o)
                0x08013880                pinmap_function
 .text.pinmap_merge_peripheral
                0x0801388a       0x12 ./build/\libSTMCore.a(pinmap.o)
                0x0801388a                pinmap_merge_peripheral
 .text.set_GPIO_Port_Clock
                0x0801389c      0x130 ./build/\libSTMCore.a(PortNames.o)
                0x0801389c                set_GPIO_Port_Clock
 .text._Error_Handler
                0x080139cc        0x2 ./build/\libSTMCore.a(stm32_def.o)
                0x080139cc                _Error_Handler
 *fill*         0x080139ce        0x2 
 .text.SystemInit
                0x080139d0       0x4c ./build/\libSTMCore.a(system_stm32yyxx.o)
                0x080139d0                SystemInit
 .text.DMA_CalcBaseAndBitshift
                0x08013a1c       0x2c ./build/\libSTMCore.a(stm32f4xx_hal_dma.o)
 .text.HAL_DMA_Init
                0x08013a48      0x254 ./build/\libSTMCore.a(stm32f4xx_hal_dma.o)
                0x08013a48                HAL_DMA_Init
 .text.HAL_DMA_Start_IT
                0x08013c9c       0xb4 ./build/\libSTMCore.a(stm32f4xx_hal_dma.o)
                0x08013c9c                HAL_DMA_Start_IT
 .text.HAL_DMA_Abort
                0x08013d50       0x86 ./build/\libSTMCore.a(stm32f4xx_hal_dma.o)
                0x08013d50                HAL_DMA_Abort
 .text.HAL_DMA_Abort_IT
                0x08013dd6       0x24 ./build/\libSTMCore.a(stm32f4xx_hal_dma.o)
                0x08013dd6                HAL_DMA_Abort_IT
 *fill*         0x08013dfa        0x2 
 .text.HAL_DMA_IRQHandler
                0x08013dfc      0x17c ./build/\libSTMCore.a(stm32f4xx_hal_dma.o)
                0x08013dfc                HAL_DMA_IRQHandler
 .text.HAL_DMA_RegisterCallback
                0x08013f78       0x50 ./build/\libSTMCore.a(stm32f4xx_hal_dma.o)
                0x08013f78                HAL_DMA_RegisterCallback
 .text.HAL_DMA_GetState
                0x08013fc8        0x6 ./build/\libSTMCore.a(stm32f4xx_hal_dma.o)
                0x08013fc8                HAL_DMA_GetState
 *fill*         0x08013fce        0x2 
 .text.HAL_RCC_OscConfig
                0x08013fd0      0x3fc ./build/\libSTMCore.a(stm32f4xx_hal_rcc.o)
                0x08013fd0                HAL_RCC_OscConfig
 .text.HAL_RCC_GetSysClockFreq
                0x080143cc       0x5c ./build/\libSTMCore.a(stm32f4xx_hal_rcc.o)
                0x080143cc                HAL_RCC_GetSysClockFreq
 .text.HAL_RCC_ClockConfig
                0x08014428      0x1e4 ./build/\libSTMCore.a(stm32f4xx_hal_rcc.o)
                0x08014428                HAL_RCC_ClockConfig
 .text.HAL_RCC_GetHCLKFreq
                0x0801460c        0xc ./build/\libSTMCore.a(stm32f4xx_hal_rcc.o)
                0x0801460c                HAL_RCC_GetHCLKFreq
 .text.HAL_RCC_GetPCLK1Freq
                0x08014618       0x20 ./build/\libSTMCore.a(stm32f4xx_hal_rcc.o)
                0x08014618                HAL_RCC_GetPCLK1Freq
 .text.HAL_RCC_GetPCLK2Freq
                0x08014638       0x20 ./build/\libSTMCore.a(stm32f4xx_hal_rcc.o)
                0x08014638                HAL_RCC_GetPCLK2Freq
 .text.HAL_RCC_GetClockConfig
                0x08014658       0x3c ./build/\libSTMCore.a(stm32f4xx_hal_rcc.o)
                0x08014658                HAL_RCC_GetClockConfig
 .text.SystemClock_Config
                0x08014694       0xc8 ./build/\libSTMCore.a(variant.o)
                0x08014694                SystemClock_Config
 .text.dwt_init
                0x0801475c       0x38 ./build/\libSTMCore.a(dwt.o)
                0x0801475c                dwt_init
 .text.HAL_GPIO_Init
                0x08014794      0x28c ./build/\libSTMCore.a(stm32f4xx_hal_gpio.o)
                0x08014794                HAL_GPIO_Init
 .text.HAL_GPIO_EXTI_IRQHandler
                0x08014a20       0x18 ./build/\libSTMCore.a(stm32f4xx_hal_gpio.o)
                0x08014a20                HAL_GPIO_EXTI_IRQHandler
 .text.SHA1Reset
                0x08014a38       0x38 ./build/./RepRapFirmware/src/Libraries/sha1/sha1.o
                0x08014a38                SHA1Reset
 .text.SHA1ProcessMessageBlock
                0x08014a70      0x16c ./build/./RepRapFirmware/src/Libraries/sha1/sha1.o
                0x08014a70                SHA1ProcessMessageBlock
 .text.SHA1Input
                0x08014bdc       0x52 ./build/./RepRapFirmware/src/Libraries/sha1/sha1.o
                0x08014bdc                SHA1Input
 .text.SHA1PadMessage
                0x08014c2e       0x68 ./build/./RepRapFirmware/src/Libraries/sha1/sha1.o
                0x08014c2e                SHA1PadMessage
 .text.SHA1Result
                0x08014c96       0x22 ./build/./RepRapFirmware/src/Libraries/sha1/sha1.o
                0x08014c96                SHA1Result
 .text.ld_dword
                0x08014cb8       0x10 ./build/./RepRapFirmware/src/targets/common/FatFS/ff.o
 .text.st_dword
                0x08014cc8       0x10 ./build/./RepRapFirmware/src/targets/common/FatFS/ff.o
 .text.clst2sect
                0x08014cd8       0x16 ./build/./RepRapFirmware/src/targets/common/FatFS/ff.o
 .text.sum_sfn  0x08014cee       0x1e ./build/./RepRapFirmware/src/targets/common/FatFS/ff.o
 .text.get_ldnumber
                0x08014d0c       0x3a ./build/./RepRapFirmware/src/targets/common/FatFS/ff.o
 .text.put_utf  0x08014d46       0xb6 ./build/./RepRapFirmware/src/targets/common/FatFS/ff.o
 .text.ld_clust.isra.3
                0x08014dfc       0x1c ./build/./RepRapFirmware/src/targets/common/FatFS/ff.o
 .text.st_clust.isra.4
                0x08014e18       0x18 ./build/./RepRapFirmware/src/targets/common/FatFS/ff.o
 .text.sync_window
                0x08014e30       0x44 ./build/./RepRapFirmware/src/targets/common/FatFS/ff.o
 .text.move_window
                0x08014e74       0x36 ./build/./RepRapFirmware/src/targets/common/FatFS/ff.o
 *fill*         0x08014eaa        0x2 
 .text.check_fs
                0x08014eac       0x70 ./build/./RepRapFirmware/src/targets/common/FatFS/ff.o
 .text.find_volume
                0x08014f1c      0x2c4 ./build/./RepRapFirmware/src/targets/common/FatFS/ff.o
 .text.put_fat  0x080151e0       0xf8 ./build/./RepRapFirmware/src/targets/common/FatFS/ff.o
 .text.get_fat.isra.10
                0x080152d8       0xb4 ./build/./RepRapFirmware/src/targets/common/FatFS/ff.o
 .text.dir_sdi  0x0801538c       0x82 ./build/./RepRapFirmware/src/targets/common/FatFS/ff.o
 .text.create_chain
                0x0801540e       0xe8 ./build/./RepRapFirmware/src/targets/common/FatFS/ff.o
 .text.remove_chain
                0x080154f6       0x6e ./build/./RepRapFirmware/src/targets/common/FatFS/ff.o
 .text.unlock_fs
                0x08015564       0x16 ./build/./RepRapFirmware/src/targets/common/FatFS/ff.o
 .text.validate
                0x0801557a       0x4c ./build/./RepRapFirmware/src/targets/common/FatFS/ff.o
 .text.dir_clear
                0x080155c6       0x52 ./build/./RepRapFirmware/src/targets/common/FatFS/ff.o
 .text.dir_next
                0x08015618       0xaa ./build/./RepRapFirmware/src/targets/common/FatFS/ff.o
 .text.dir_remove
                0x080156c2       0x4e ./build/./RepRapFirmware/src/targets/common/FatFS/ff.o
 .text.dir_find
                0x08015710      0x148 ./build/./RepRapFirmware/src/targets/common/FatFS/ff.o
 .text.dir_register
                0x08015858      0x290 ./build/./RepRapFirmware/src/targets/common/FatFS/ff.o
 .text.sync_fs  0x08015ae8       0x96 ./build/./RepRapFirmware/src/targets/common/FatFS/ff.o
 .text.get_fileinfo
                0x08015b7e      0x146 ./build/./RepRapFirmware/src/targets/common/FatFS/ff.o
 .text.dir_read.constprop.15
                0x08015cc4      0x120 ./build/./RepRapFirmware/src/targets/common/FatFS/ff.o
 .text.follow_path
                0x08015de4      0x320 ./build/./RepRapFirmware/src/targets/common/FatFS/ff.o
 .text.f_mount  0x08016104       0x70 ./build/./RepRapFirmware/src/targets/common/FatFS/ff.o
                0x08016104                f_mount
 .text.f_open   0x08016174      0x1a2 ./build/./RepRapFirmware/src/targets/common/FatFS/ff.o
                0x08016174                f_open
 .text.f_read   0x08016316      0x148 ./build/./RepRapFirmware/src/targets/common/FatFS/ff.o
                0x08016316                f_read
 .text.f_write  0x0801645e      0x1a2 ./build/./RepRapFirmware/src/targets/common/FatFS/ff.o
                0x0801645e                f_write
 .text.f_sync   0x08016600       0x74 ./build/./RepRapFirmware/src/targets/common/FatFS/ff.o
                0x08016600                f_sync
 .text.f_close  0x08016674       0x28 ./build/./RepRapFirmware/src/targets/common/FatFS/ff.o
                0x08016674                f_close
 .text.f_lseek  0x0801669c      0x120 ./build/./RepRapFirmware/src/targets/common/FatFS/ff.o
                0x0801669c                f_lseek
 .text.f_opendir
                0x080167bc       0x7e ./build/./RepRapFirmware/src/targets/common/FatFS/ff.o
                0x080167bc                f_opendir
 .text.f_closedir
                0x0801683a       0x1e ./build/./RepRapFirmware/src/targets/common/FatFS/ff.o
                0x0801683a                f_closedir
 .text.f_readdir
                0x08016858       0x5a ./build/./RepRapFirmware/src/targets/common/FatFS/ff.o
                0x08016858                f_readdir
 .text.f_stat   0x080168b2       0x4c ./build/./RepRapFirmware/src/targets/common/FatFS/ff.o
                0x080168b2                f_stat
 .text.f_getfree
                0x080168fe       0xd0 ./build/./RepRapFirmware/src/targets/common/FatFS/ff.o
                0x080168fe                f_getfree
 .text.f_truncate
                0x080169ce       0x9c ./build/./RepRapFirmware/src/targets/common/FatFS/ff.o
                0x080169ce                f_truncate
 .text.f_unlink
                0x08016a6a       0xaa ./build/./RepRapFirmware/src/targets/common/FatFS/ff.o
                0x08016a6a                f_unlink
 .text.f_mkdir  0x08016b14      0x112 ./build/./RepRapFirmware/src/targets/common/FatFS/ff.o
                0x08016b14                f_mkdir
 .text.f_rename
                0x08016c26      0x13c ./build/./RepRapFirmware/src/targets/common/FatFS/ff.o
                0x08016c26                f_rename
 .text.f_utime  0x08016d62       0x62 ./build/./RepRapFirmware/src/targets/common/FatFS/ff.o
                0x08016d62                f_utime
 .text.ff_uni2oem
                0x08016dc4       0x40 ./build/./RepRapFirmware/src/targets/common/FatFS/ffunicode.o
                0x08016dc4                ff_uni2oem
 .text.ff_oem2uni
                0x08016e04       0x28 ./build/./RepRapFirmware/src/targets/common/FatFS/ffunicode.o
                0x08016e04                ff_oem2uni
 .text.ff_wtoupper
                0x08016e2c       0x8c ./build/./RepRapFirmware/src/targets/common/FatFS/ffunicode.o
                0x08016e2c                ff_wtoupper
 .text._ZN8FileData5CloseEv.isra.7
                0x08016eb8       0x12 ./build/./RepRapFirmware/src/Logger.o
 .text._ZN6LoggerC2E8LogLevel
                0x08016eca       0x16 ./build/./RepRapFirmware/src/Logger.o
                0x08016eca                Logger::Logger(LogLevel)
                0x08016eca                Logger::Logger(LogLevel)
 .text._ZN6Logger11SetLogLevelE8LogLevel
                0x08016ee0       0x20 ./build/./RepRapFirmware/src/Logger.o
                0x08016ee0                Logger::SetLogLevel(LogLevel)
 .text._ZN6Logger5FlushEb
                0x08016f00       0x54 ./build/./RepRapFirmware/src/Logger.o
                0x08016f00                Logger::Flush(bool)
 .text._ZN6Logger30WriteDateTimeAndLogLevelPrefixExNS_15MessageLogLevelE
                0x08016f54       0xc8 ./build/./RepRapFirmware/src/Logger.o
                0x08016f54                Logger::WriteDateTimeAndLogLevelPrefix(long long, Logger::MessageLogLevel)
 .text._ZN6Logger10LogMessageExP12OutputBuffer11MessageType
                0x0801701c       0x88 ./build/./RepRapFirmware/src/Logger.o
                0x0801701c                Logger::LogMessage(long long, OutputBuffer*, MessageType)
 .text._ZN6Logger18InternalLogMessageExPKcNS_15MessageLogLevelE
                0x080170a4       0x68 ./build/./RepRapFirmware/src/Logger.o
                0x080170a4                Logger::InternalLogMessage(long long, char const*, Logger::MessageLogLevel)
 .text._ZN6Logger15LogFirmwareInfoEx
                0x0801710c       0x58 ./build/./RepRapFirmware/src/Logger.o
                0x0801710c                Logger::LogFirmwareInfo(long long)
 .text._ZN6Logger4StopEx
                0x08017164       0x4c ./build/./RepRapFirmware/src/Logger.o
                0x08017164                Logger::Stop(long long)
 .text._ZN6Logger10LogMessageExPKc11MessageType
                0x080171b0       0x56 ./build/./RepRapFirmware/src/Logger.o
                0x080171b0                Logger::LogMessage(long long, char const*, MessageType)
 .text._ZN6StringILj50EE6printfEPKcz
                0x08017206       0x22 ./build/./RepRapFirmware/src/Logger.o
                0x08017206                String<50u>::printf(char const*, ...)
 .text._ZN6Logger5StartExRK9StringRef
                0x08017228       0xd8 ./build/./RepRapFirmware/src/Logger.o
                0x08017228                Logger::Start(long long, StringRef const&)
 .text._ZNSt14_Function_base13_Base_managerIZN12OutputBuffer5vcatfEPKcSt9__va_listEUlcE_E10_M_managerERSt9_Any_dataRKS7_St18_Manager_operation
                0x08017300       0x16 ./build/./RepRapFirmware/src/OutputMemory.o
 .text._ZN9RTOSIface24LeaveTaskCriticalSectionEv
                0x08017316        0xe ./build/./RepRapFirmware/src/OutputMemory.o
                0x08017316                RTOSIface::LeaveTaskCriticalSection()
 .text._ZN12OutputBuffer6AppendEPS_
                0x08017324       0x26 ./build/./RepRapFirmware/src/OutputMemory.o
                0x08017324                OutputBuffer::Append(OutputBuffer*)
 .text._ZN12OutputBuffer18IncreaseReferencesEj
                0x0801734a       0x28 ./build/./RepRapFirmware/src/OutputMemory.o
                0x0801734a                OutputBuffer::IncreaseReferences(unsigned int)
 .text._ZNK12OutputBuffer6LengthEv
                0x08017372       0x12 ./build/./RepRapFirmware/src/OutputMemory.o
                0x08017372                OutputBuffer::Length() const
 .text._ZN12OutputBufferixEj
                0x08017384       0x14 ./build/./RepRapFirmware/src/OutputMemory.o
                0x08017384                OutputBuffer::operator[](unsigned int)
 .text._ZN12OutputBuffer4ReadEj
                0x08017398       0x10 ./build/./RepRapFirmware/src/OutputMemory.o
                0x08017398                OutputBuffer::Read(unsigned int)
 .text._ZN12OutputBuffer5vcatfEPKcSt9__va_list
                0x080173a8       0x30 ./build/./RepRapFirmware/src/OutputMemory.o
                0x080173a8                OutputBuffer::vcatf(char const*, std::__va_list)
 .text._ZN12OutputBuffer4catfEPKcz
                0x080173d8       0x1a ./build/./RepRapFirmware/src/OutputMemory.o
                0x080173d8                OutputBuffer::catf(char const*, ...)
 .text._ZNK12OutputBuffer11WriteToFileER8FileData
                0x080173f2       0x40 ./build/./RepRapFirmware/src/OutputMemory.o
                0x080173f2                OutputBuffer::WriteToFile(FileData&) const
 *fill*         0x08017432        0x2 
 .text._ZN12OutputBuffer4InitEv
                0x08017434       0x24 ./build/./RepRapFirmware/src/OutputMemory.o
                0x08017434                OutputBuffer::Init()
 .text._ZN12OutputBuffer8AllocateERPS_
                0x08017458       0x88 ./build/./RepRapFirmware/src/OutputMemory.o
                0x08017458                OutputBuffer::Allocate(OutputBuffer*&)
 .text._ZN12OutputBuffer3catEPKcj
                0x080174e0       0x84 ./build/./RepRapFirmware/src/OutputMemory.o
                0x080174e0                OutputBuffer::cat(char const*, unsigned int)
 .text._ZN12OutputBuffer3catEPKc
                0x08017564       0x1a ./build/./RepRapFirmware/src/OutputMemory.o
                0x08017564                OutputBuffer::cat(char const*)
 *fill*         0x0801757e        0x2 
 .text._ZN12OutputBuffer12GetBytesLeftEPKS_
                0x08017580       0x28 ./build/./RepRapFirmware/src/OutputMemory.o
                0x08017580                OutputBuffer::GetBytesLeft(OutputBuffer const*)
 .text._ZN12OutputBuffer7ReleaseEPS_
                0x080175a8       0x44 ./build/./RepRapFirmware/src/OutputMemory.o
                0x080175a8                OutputBuffer::Release(OutputBuffer*)
 .text._ZN12OutputBuffer10ReleaseAllERVPS_
                0x080175ec       0x14 ./build/./RepRapFirmware/src/OutputMemory.o
                0x080175ec                OutputBuffer::ReleaseAll(OutputBuffer* volatile&)
 .text._ZN12OutputBuffer5ClearEv
                0x08017600       0x16 ./build/./RepRapFirmware/src/OutputMemory.o
                0x08017600                OutputBuffer::Clear()
 .text._ZN12OutputBuffer7vprintfEPKcSt9__va_list
                0x08017616       0x1a ./build/./RepRapFirmware/src/OutputMemory.o
                0x08017616                OutputBuffer::vprintf(char const*, std::__va_list)
 .text._ZN12OutputBuffer6printfEPKcz
                0x08017630       0x1a ./build/./RepRapFirmware/src/OutputMemory.o
                0x08017630                OutputBuffer::printf(char const*, ...)
 .text._ZN12OutputBuffer4copyEc
                0x0801764a       0x14 ./build/./RepRapFirmware/src/OutputMemory.o
                0x0801764a                OutputBuffer::copy(char)
 .text._ZN12OutputBuffer3catEc
                0x0801765e       0x5c ./build/./RepRapFirmware/src/OutputMemory.o
                0x0801765e                OutputBuffer::cat(char)
 .text._ZNSt17_Function_handlerIFbcEZN12OutputBuffer5vcatfEPKcSt9__va_listEUlcE_E9_M_invokeERKSt9_Any_dataOc
                0x080176ba       0x18 ./build/./RepRapFirmware/src/OutputMemory.o
 .text._ZN12OutputBuffer5lcatfEPKcz
                0x080176d2       0x42 ./build/./RepRapFirmware/src/OutputMemory.o
                0x080176d2                OutputBuffer::lcatf(char const*, ...)
 .text._ZN12OutputBuffer10EncodeCharEc
                0x08017714       0x48 ./build/./RepRapFirmware/src/OutputMemory.o
                0x08017714                OutputBuffer::EncodeChar(char)
 .text._ZN12OutputBuffer11EncodeReplyEPS_
                0x0801775c       0x50 ./build/./RepRapFirmware/src/OutputMemory.o
                0x0801775c                OutputBuffer::EncodeReply(OutputBuffer*)
 .text._ZN12OutputBuffer4lcatEPKcj
                0x080177ac       0x24 ./build/./RepRapFirmware/src/OutputMemory.o
                0x080177ac                OutputBuffer::lcat(char const*, unsigned int)
 .text._ZN12OutputBuffer4lcatEPKc
                0x080177d0       0x1a ./build/./RepRapFirmware/src/OutputMemory.o
                0x080177d0                OutputBuffer::lcat(char const*)
 .text._ZN12OutputBuffer4copyEPKcj
                0x080177ea       0x1a ./build/./RepRapFirmware/src/OutputMemory.o
                0x080177ea                OutputBuffer::copy(char const*, unsigned int)
 .text._ZN12OutputBuffer4copyEPKc
                0x08017804       0x1a ./build/./RepRapFirmware/src/OutputMemory.o
                0x08017804                OutputBuffer::copy(char const*)
 *fill*         0x0801781e        0x2 
 .text._ZN12OutputBuffer11DiagnosticsE11MessageType
                0x08017820       0x34 ./build/./RepRapFirmware/src/OutputMemory.o
                0x08017820                OutputBuffer::Diagnostics(MessageType)
 .text._ZNV11OutputStack4PushEP12OutputBuffer11MessageType
                0x08017854       0x60 ./build/./RepRapFirmware/src/OutputMemory.o
                0x08017854                OutputStack::Push(OutputBuffer*, MessageType) volatile
 .text._ZNV11OutputStack3PopEv
                0x080178b4       0x36 ./build/./RepRapFirmware/src/OutputMemory.o
                0x080178b4                OutputStack::Pop() volatile
 .text._ZNVK11OutputStack12GetFirstItemEv
                0x080178ea        0xc ./build/./RepRapFirmware/src/OutputMemory.o
                0x080178ea                OutputStack::GetFirstItem() const volatile
 .text._ZNV11OutputStack16ReleaseFirstItemEv
                0x080178f6       0x22 ./build/./RepRapFirmware/src/OutputMemory.o
                0x080178f6                OutputStack::ReleaseFirstItem() volatile
 .text._ZNV11OutputStack12ApplyTimeoutEm
                0x08017918       0x3a ./build/./RepRapFirmware/src/OutputMemory.o
                0x08017918                OutputStack::ApplyTimeout(unsigned long) volatile
 .text._ZNVK11OutputStack11GetLastItemEv
                0x08017952       0x14 ./build/./RepRapFirmware/src/OutputMemory.o
                0x08017952                OutputStack::GetLastItem() const volatile
 .text._ZNVK11OutputStack10DataLengthEv
                0x08017966       0x2e ./build/./RepRapFirmware/src/OutputMemory.o
                0x08017966                OutputStack::DataLength() const volatile
 .text._ZNV11OutputStack6AppendERVS_
                0x08017994       0x58 ./build/./RepRapFirmware/src/OutputMemory.o
                0x08017994                OutputStack::Append(OutputStack volatile&) volatile
 .text._ZNV11OutputStack18IncreaseReferencesEj
                0x080179ec       0x2c ./build/./RepRapFirmware/src/OutputMemory.o
                0x080179ec                OutputStack::IncreaseReferences(unsigned int) volatile
 .text._ZNV11OutputStack10ReleaseAllEv
                0x08017a18       0x1e ./build/./RepRapFirmware/src/OutputMemory.o
                0x08017a18                OutputStack::ReleaseAll() volatile
 .text._ZN8PlatformUlPK11ObjectModelRK24ObjectExplorationContextE1_4_FUNES2_S5_
                0x08017a36        0x4 ./build/./RepRapFirmware/src/Platform.o
 *fill*         0x08017a3a        0x2 
 .text._ZN8PlatformUlPK11ObjectModelR24ObjectExplorationContextE3_4_FUNES2_S4_
                0x08017a3c       0x10 ./build/./RepRapFirmware/src/Platform.o
 .text._ZN8PlatformUlPK11ObjectModelR24ObjectExplorationContextE4_4_FUNES2_S4_
                0x08017a4c       0x10 ./build/./RepRapFirmware/src/Platform.o
 .text._ZN8PlatformUlPK11ObjectModelR24ObjectExplorationContextE5_4_FUNES2_S4_
                0x08017a5c       0x10 ./build/./RepRapFirmware/src/Platform.o
 .text._ZN8PlatformUlPK11ObjectModelR24ObjectExplorationContextE6_4_FUNES2_S4_
                0x08017a6c       0x10 ./build/./RepRapFirmware/src/Platform.o
 .text._ZN8PlatformUlPK11ObjectModelR24ObjectExplorationContextE7_4_FUNES2_S4_
                0x08017a7c       0x10 ./build/./RepRapFirmware/src/Platform.o
 .text._ZN8PlatformUlPK11ObjectModelR24ObjectExplorationContextE8_4_FUNES2_S4_
                0x08017a8c        0xa ./build/./RepRapFirmware/src/Platform.o
 .text._ZN8PlatformUlPK11ObjectModelR24ObjectExplorationContextE9_4_FUNES2_S4_
                0x08017a96        0xa ./build/./RepRapFirmware/src/Platform.o
 .text._ZN8PlatformUlPK11ObjectModelR24ObjectExplorationContextE10_4_FUNES2_S4_
                0x08017aa0       0x1a ./build/./RepRapFirmware/src/Platform.o
 *fill*         0x08017aba        0x2 
 .text._ZN8PlatformUlPK11ObjectModelR24ObjectExplorationContextE11_4_FUNES2_S4_
                0x08017abc       0x10 ./build/./RepRapFirmware/src/Platform.o
 .text._ZN8PlatformUlPK11ObjectModelR24ObjectExplorationContextE12_4_FUNES2_S4_
                0x08017acc       0x10 ./build/./RepRapFirmware/src/Platform.o
 .text._ZN8PlatformUlPK11ObjectModelR24ObjectExplorationContextE13_4_FUNES2_S4_
                0x08017adc        0xa ./build/./RepRapFirmware/src/Platform.o
 .text._ZN8PlatformUlPK11ObjectModelR24ObjectExplorationContextE14_4_FUNES2_S4_
                0x08017ae6       0x1a ./build/./RepRapFirmware/src/Platform.o
 .text._ZN8PlatformUlPK11ObjectModelR24ObjectExplorationContextE21_4_FUNES2_S4_
                0x08017b00       0x10 ./build/./RepRapFirmware/src/Platform.o
 .text._ZN8PlatformUlPK11ObjectModelR24ObjectExplorationContextE28_4_FUNES2_S4_
                0x08017b10       0x1a ./build/./RepRapFirmware/src/Platform.o
 *fill*         0x08017b2a        0x2 
 .text._ZN8PlatformUlPK11ObjectModelR24ObjectExplorationContextE35_4_FUNES2_S4_
                0x08017b2c       0x10 ./build/./RepRapFirmware/src/Platform.o
 .text._ZN8PlatformUlPK11ObjectModelR24ObjectExplorationContextE42_4_FUNES2_S4_
                0x08017b3c       0x1a ./build/./RepRapFirmware/src/Platform.o
 .text._ZN8PlatformUlPK11ObjectModelR24ObjectExplorationContextE43_4_FUNES2_S4_
                0x08017b56       0x1a ./build/./RepRapFirmware/src/Platform.o
 .text._ZNK8Platform29GetObjectModelClassDescriptorEv
                0x08017b70        0x8 ./build/./RepRapFirmware/src/Platform.o
                0x08017b70                Platform::GetObjectModelClassDescriptor() const
 .text._ZNSt14_Function_base13_Base_managerIZN8Platform13ReportDriversE11MessageTypeR6BitmapImEPKcRbEUljjE_E10_M_managerERSt9_Any_dataRKSB_St18_Manager_operation
                0x08017b78       0x16 ./build/./RepRapFirmware/src/Platform.o
 .text._ZNSt14_Function_base13_Base_managerIZN8Platform22DriverCoolingFansOnOffE6BitmapItEbEUljjE_E10_M_managerERSt9_Any_dataRKS6_St18_Manager_operation
                0x08017b8e       0x1a ./build/./RepRapFirmware/src/Platform.o
 .text._ZNSt14_Function_base13_Base_managerIZN8Platform15WriteAxisLimitsEP9FileStore6BitmapItEPKfiEUljjE_E10_M_managerERSt9_Any_dataRKSA_St18_Manager_operation
                0x08017ba8       0x1a ./build/./RepRapFirmware/src/Platform.o
 .text._ZNSt14_Function_base13_Base_managerIZN8Platform12SetDirectionEjbEUlhE_E10_M_managerERSt9_Any_dataRKS4_St18_Manager_operation
                0x08017bc2       0x1a ./build/./RepRapFirmware/src/Platform.o
 .text._ZNSt14_Function_base13_Base_managerIZN8Platform13EnableDriversEjEUlhE_E10_M_managerERSt9_Any_dataRKS4_St18_Manager_operation
                0x08017bdc       0x1a ./build/./RepRapFirmware/src/Platform.o
 .text._ZNSt14_Function_base13_Base_managerIZN8Platform14DisableDriversEjEUlhE_E10_M_managerERSt9_Any_dataRKS4_St18_Manager_operation
                0x08017bf6       0x16 ./build/./RepRapFirmware/src/Platform.o
 .text._ZNSt14_Function_base13_Base_managerIZN8Platform14SetDriversIdleEvEUlhE_E10_M_managerERSt9_Any_dataRKS4_St18_Manager_operation
                0x08017c0c       0x1a ./build/./RepRapFirmware/src/Platform.o
 .text._ZNSt14_Function_base13_Base_managerIZN8Platform20SetIdleCurrentFactorEfEUlhE_E10_M_managerERSt9_Any_dataRKS4_St18_Manager_operation
                0x08017c26       0x1a ./build/./RepRapFirmware/src/Platform.o
 .text._ZNSt14_Function_base13_Base_managerIZN8Platform12DebugMessageEPKcSt9__va_listEUlcE_E10_M_managerERSt9_Any_dataRKS7_St18_Manager_operation
                0x08017c40        0xa ./build/./RepRapFirmware/src/Platform.o
 .text._ZNSt17_Function_handlerIFvjEZN8Platform18SetPressureAdvanceEfR11GCodeBufferRK9StringRefEUljE_E9_M_invokeERKSt9_Any_dataOj
                0x08017c4a       0x10 ./build/./RepRapFirmware/src/Platform.o
 .text._ZNSt14_Function_base13_Base_managerIZN8Platform18SetPressureAdvanceEfR11GCodeBufferRK9StringRefEUljE_E10_M_managerERSt9_Any_dataRKS9_St18_Manager_operation
                0x08017c5a       0x1a ./build/./RepRapFirmware/src/Platform.o
 .text._ZNSt17_Function_handlerIFvhEZN8Platform23ConfigureStallDetectionER11GCodeBufferRK9StringRefRP12OutputBufferEUlhE_E9_M_invokeERKSt9_Any_dataOh
                0x08017c74       0x12 ./build/./RepRapFirmware/src/Platform.o
 .text._ZNSt14_Function_base13_Base_managerIZN8Platform23ConfigureStallDetectionER11GCodeBufferRK9StringRefRP12OutputBufferEUlhE_E10_M_managerERSt9_Any_dataRKSC_St18_Manager_operation
                0x08017c86       0x16 ./build/./RepRapFirmware/src/Platform.o
 .text._ZNSt14_Function_base13_Base_managerIZN8Platform23ConfigureStallDetectionER11GCodeBufferRK9StringRefRP12OutputBufferEUljjE0_E10_M_managerERSt9_Any_dataRKSC_St18_Manager_operation
                0x08017c9c       0x16 ./build/./RepRapFirmware/src/Platform.o
 .text._ZNSt14_Function_base13_Base_managerIZN8Platform23ConfigureStallDetectionER11GCodeBufferRK9StringRefRP12OutputBufferEUljjE1_E10_M_managerERSt9_Any_dataRKSC_St18_Manager_operation
                0x08017cb2       0x16 ./build/./RepRapFirmware/src/Platform.o
 .text._ZNSt14_Function_base13_Base_managerIZN8Platform23ConfigureStallDetectionER11GCodeBufferRK9StringRefRP12OutputBufferEUljjE2_E10_M_managerERSt9_Any_dataRKSC_St18_Manager_operation
                0x08017cc8       0x16 ./build/./RepRapFirmware/src/Platform.o
 .text._ZNSt14_Function_base13_Base_managerIZN8Platform23ConfigureStallDetectionER11GCodeBufferRK9StringRefRP12OutputBufferEUljjE3_E10_M_managerERSt9_Any_dataRKSC_St18_Manager_operation
                0x08017cde       0x16 ./build/./RepRapFirmware/src/Platform.o
 .text._ZN8PlatformUlPK11ObjectModelRK24ObjectExplorationContextE_4_FUNES2_S5_
                0x08017cf4       0x16 ./build/./RepRapFirmware/src/Platform.o
 .text._ZN8PlatformUlPK11ObjectModelR24ObjectExplorationContextE51_4_FUNES2_S4_
                0x08017d0a       0x20 ./build/./RepRapFirmware/src/Platform.o
 .text._ZN8PlatformUlPK11ObjectModelR24ObjectExplorationContextE50_4_FUNES2_S4_
                0x08017d2a       0x20 ./build/./RepRapFirmware/src/Platform.o
 .text._ZN8PlatformUlPK11ObjectModelR24ObjectExplorationContextE49_4_FUNES2_S4_
                0x08017d4a       0x20 ./build/./RepRapFirmware/src/Platform.o
 .text._ZN8PlatformUlPK11ObjectModelR24ObjectExplorationContextE32_4_FUNES2_S4_
                0x08017d6a       0x20 ./build/./RepRapFirmware/src/Platform.o
 .text._ZN8PlatformUlPK11ObjectModelR24ObjectExplorationContextE18_4_FUNES2_S4_
                0x08017d8a       0x20 ./build/./RepRapFirmware/src/Platform.o
 .text._ZN8PlatformUlPK11ObjectModelR24ObjectExplorationContextE26_4_FUNES2_S4_
                0x08017daa       0x22 ./build/./RepRapFirmware/src/Platform.o
 .text._ZN8PlatformUlPK11ObjectModelR24ObjectExplorationContextE29_4_FUNES2_S4_
                0x08017dcc       0x22 ./build/./RepRapFirmware/src/Platform.o
 *fill*         0x08017dee        0x2 
 .text._ZN8PlatformD2Ev
                0x08017df0       0x6c ./build/./RepRapFirmware/src/Platform.o
                0x08017df0                Platform::~Platform()
                0x08017df0                Platform::~Platform()
 .text._ZN8PlatformD0Ev
                0x08017e5c       0x16 ./build/./RepRapFirmware/src/Platform.o
                0x08017e5c                Platform::~Platform()
 *fill*         0x08017e72        0x2 
 .text._ZL9TimedSqrtyRm
                0x08017e74       0x40 ./build/./RepRapFirmware/src/Platform.o
 .text._ZNSt17_Function_handlerIFvjjEZN8Platform23ConfigureStallDetectionER11GCodeBufferRK9StringRefRP12OutputBufferEUljjE0_E9_M_invokeERKSt9_Any_dataOjSF_
                0x08017eb4        0xa ./build/./RepRapFirmware/src/Platform.o
 .text._ZNSt17_Function_handlerIFvjjEZN8Platform23ConfigureStallDetectionER11GCodeBufferRK9StringRefRP12OutputBufferEUljjE1_E9_M_invokeERKSt9_Any_dataOjSF_
                0x08017ebe        0xa ./build/./RepRapFirmware/src/Platform.o
 .text._ZNSt17_Function_handlerIFvjjEZN8Platform23ConfigureStallDetectionER11GCodeBufferRK9StringRefRP12OutputBufferEUljjE2_E9_M_invokeERKSt9_Any_dataOjSF_
                0x08017ec8        0xa ./build/./RepRapFirmware/src/Platform.o
 *fill*         0x08017ed2        0x2 
 .text._ZN8StepPinsL16CalcDriverBitmapEj
                0x08017ed4       0x30 ./build/./RepRapFirmware/src/Platform.o
 .text._ZNSt17_Function_handlerIFvjjEZN8Platform23ConfigureStallDetectionER11GCodeBufferRK9StringRefRP12OutputBufferEUljjE3_E9_M_invokeERKSt9_Any_dataOjSF_
                0x08017f04        0xc ./build/./RepRapFirmware/src/Platform.o
 .text._ZNSt14_Function_base13_Base_managerIZN8Platform15SetMotorCurrentEjfiRK9StringRefEUlhE_E10_M_managerERSt9_Any_dataRKS7_St18_Manager_operation
                0x08017f10       0x38 ./build/./RepRapFirmware/src/Platform.o
 .text._ZNSt14_Function_base13_Base_managerIZN8Platform16SetMicrosteppingEjibRK9StringRefEUlhE_E10_M_managerERSt9_Any_dataRKS7_St18_Manager_operation
                0x08017f48       0x3e ./build/./RepRapFirmware/src/Platform.o
 .text._ZNSt14_Function_base13_Base_managerIZN8Platform23ConfigureStallDetectionER11GCodeBufferRK9StringRefRP12OutputBufferEUljjE4_E10_M_managerERSt9_Any_dataRKSC_St18_Manager_operation
                0x08017f86       0x38 ./build/./RepRapFirmware/src/Platform.o
 .text._ZNSt17_Function_handlerIFvjjEZN8Platform22DriverCoolingFansOnOffE6BitmapItEbEUljjE_E9_M_invokeERKSt9_Any_dataOjS9_
                0x08017fbe       0x1a ./build/./RepRapFirmware/src/Platform.o
 .text._ZN8PlatformUlPK11ObjectModelR24ObjectExplorationContextE54_4_FUNES2_S4_
                0x08017fd8       0x20 ./build/./RepRapFirmware/src/Platform.o
 .text._ZN8PlatformUlPK11ObjectModelR24ObjectExplorationContextE52_4_FUNES2_S4_
                0x08017ff8       0x1e ./build/./RepRapFirmware/src/Platform.o
 .text._ZN8PlatformUlPK11ObjectModelR24ObjectExplorationContextE48_4_FUNES2_S4_
                0x08018016       0x22 ./build/./RepRapFirmware/src/Platform.o
 .text._ZN8PlatformUlPK11ObjectModelR24ObjectExplorationContextE55_4_FUNES2_S4_
                0x08018038       0x22 ./build/./RepRapFirmware/src/Platform.o
 .text._ZN8PlatformUlPK11ObjectModelR24ObjectExplorationContextE53_4_FUNES2_S4_
                0x0801805a       0x20 ./build/./RepRapFirmware/src/Platform.o
 .text._ZN8PlatformUlPK11ObjectModelR24ObjectExplorationContextE38_4_FUNES2_S4_
                0x0801807a       0x1c ./build/./RepRapFirmware/src/Platform.o
 .text._ZN8PlatformUlPK11ObjectModelR24ObjectExplorationContextE0_4_FUNES2_S4_
                0x08018096       0x2e ./build/./RepRapFirmware/src/Platform.o
 .text._ZN8PlatformUlPK11ObjectModelR24ObjectExplorationContextE36_4_FUNES2_S4_
                0x080180c4       0x22 ./build/./RepRapFirmware/src/Platform.o
 *fill*         0x080180e6        0x2 
 .text._ZN8PlatformUlPK11ObjectModelR24ObjectExplorationContextE47_4_FUNES2_S4_
                0x080180e8       0x34 ./build/./RepRapFirmware/src/Platform.o
 .text._ZN8PlatformUlPK11ObjectModelR24ObjectExplorationContextE31_4_FUNES2_S4_
                0x0801811c       0x30 ./build/./RepRapFirmware/src/Platform.o
 .text._ZN8PlatformUlPK11ObjectModelR24ObjectExplorationContextE41_4_FUNES2_S4_
                0x0801814c       0x34 ./build/./RepRapFirmware/src/Platform.o
 .text._ZN8PlatformUlPK11ObjectModelR24ObjectExplorationContextE23_4_FUNES2_S4_
                0x08018180       0x30 ./build/./RepRapFirmware/src/Platform.o
 .text._ZN8PlatformUlPK11ObjectModelR24ObjectExplorationContextE45_4_FUNES2_S4_
                0x080181b0       0x26 ./build/./RepRapFirmware/src/Platform.o
 *fill*         0x080181d6        0x2 
 .text._ZN8PlatformUlPK11ObjectModelR24ObjectExplorationContextE46_4_FUNES2_S4_
                0x080181d8       0x28 ./build/./RepRapFirmware/src/Platform.o
 .text._ZN8PlatformUlPK11ObjectModelR24ObjectExplorationContextE39_4_FUNES2_S4_
                0x08018200       0x28 ./build/./RepRapFirmware/src/Platform.o
 .text._ZN8PlatformUlPK11ObjectModelR24ObjectExplorationContextE33_4_FUNES2_S4_
                0x08018228       0x28 ./build/./RepRapFirmware/src/Platform.o
 .text._ZN8PlatformUlPK11ObjectModelR24ObjectExplorationContextE44_4_FUNES2_S4_
                0x08018250       0x30 ./build/./RepRapFirmware/src/Platform.o
 .text._ZN8PlatformUlPK11ObjectModelR24ObjectExplorationContextE25_4_FUNES2_S4_
                0x08018280       0x2c ./build/./RepRapFirmware/src/Platform.o
 .text._ZN8PlatformUlPK11ObjectModelR24ObjectExplorationContextE40_4_FUNES2_S4_
                0x080182ac       0x24 ./build/./RepRapFirmware/src/Platform.o
 .text._ZN8PlatformUlPK11ObjectModelR24ObjectExplorationContextE34_4_FUNES2_S4_
                0x080182d0       0x28 ./build/./RepRapFirmware/src/Platform.o
 .text._ZN8PlatformUlPK11ObjectModelR24ObjectExplorationContextE24_4_FUNES2_S4_
                0x080182f8       0x24 ./build/./RepRapFirmware/src/Platform.o
 .text._ZN8PlatformUlPK11ObjectModelR24ObjectExplorationContextE2_4_FUNES2_S4_
                0x0801831c       0x3c ./build/./RepRapFirmware/src/Platform.o
 .text._ZN8PlatformUlPK11ObjectModelR24ObjectExplorationContextE19_4_FUNES2_S4_
                0x08018358       0x28 ./build/./RepRapFirmware/src/Platform.o
 .text._ZNK8LogLevel8ToStringEv.isra.154
                0x08018380       0x20 ./build/./RepRapFirmware/src/Platform.o
 .text._ZN8PlatformUlPK11ObjectModelR24ObjectExplorationContextE37_4_FUNES2_S4_
                0x080183a0       0x26 ./build/./RepRapFirmware/src/Platform.o
 .text._ZN8PlatformUlPK11ObjectModelR24ObjectExplorationContextE20_4_FUNES2_S4_
                0x080183c6       0x22 ./build/./RepRapFirmware/src/Platform.o
 .text._ZN8Platform11AtxPowerOffEb.part.165
                0x080183e8       0x50 ./build/./RepRapFirmware/src/Platform.o
 .text._ZNSt17_Function_handlerIFvjjEZN8Platform23ConfigureStallDetectionER11GCodeBufferRK9StringRefRP12OutputBufferEUljjE4_E9_M_invokeERKSt9_Any_dataOjSF_
                0x08018438       0x80 ./build/./RepRapFirmware/src/Platform.o
 .text._ZN8PlatformUlPK11ObjectModelR24ObjectExplorationContextE30_4_FUNES2_S4_
                0x080184b8       0x22 ./build/./RepRapFirmware/src/Platform.o
 .text._ZN8PlatformUlPK11ObjectModelR24ObjectExplorationContextE27_4_FUNES2_S4_
                0x080184da       0x22 ./build/./RepRapFirmware/src/Platform.o
 .text._ZN8PlatformUlPK11ObjectModelR24ObjectExplorationContextE22_4_FUNES2_S4_
                0x080184fc       0x28 ./build/./RepRapFirmware/src/Platform.o
 .text._ZNSt17_Function_handlerIFvhEZN8Platform12SetDirectionEjbEUlhE_E9_M_invokeERKSt9_Any_dataOh
                0x08018524       0x28 ./build/./RepRapFirmware/src/Platform.o
 .text._ZNSt14_Function_baseD2Ev
                0x0801854c       0x12 ./build/./RepRapFirmware/src/Platform.o
                0x0801854c                std::_Function_base::~_Function_base()
                0x0801854c                std::_Function_base::~_Function_base()
 .text.UrgentInit
                0x0801855e        0x4 ./build/./RepRapFirmware/src/Platform.o
                0x0801855e                UrgentInit
 .text._ZNK17AxisDriversConfig16GetDriversBitmapEv
                0x08018562       0x24 ./build/./RepRapFirmware/src/Platform.o
                0x08018562                AxisDriversConfig::GetDriversBitmap() const
 .text._ZNK8Platform22GetNumGpInputsToReportEv
                0x08018586       0x1e ./build/./RepRapFirmware/src/Platform.o
                0x08018586                Platform::GetNumGpInputsToReport() const
 .text._ZNK8Platform23GetNumGpOutputsToReportEv
                0x080185a4       0x1e ./build/./RepRapFirmware/src/Platform.o
                0x080185a4                Platform::GetNumGpOutputsToReport() const
 *fill*         0x080185c2        0x2 
 .text._ZN8Platform19SendPanelDueMessageEjPKc
                0x080185c4       0x24 ./build/./RepRapFirmware/src/Platform.o
                0x080185c4                Platform::SendPanelDueMessage(unsigned int, char const*)
 .text._ZN8Platform12SetIPAddressE9IPAddress
                0x080185e8       0x14 ./build/./RepRapFirmware/src/Platform.o
                0x080185e8                Platform::SetIPAddress(IPAddress)
 .text._ZN8Platform10SetGateWayE9IPAddress
                0x080185fc       0x14 ./build/./RepRapFirmware/src/Platform.o
                0x080185fc                Platform::SetGateWay(IPAddress)
 .text._ZN8Platform10SetNetMaskE9IPAddress
                0x08018610       0x14 ./build/./RepRapFirmware/src/Platform.o
                0x08018610                Platform::SetNetMask(IPAddress)
 .text._ZNK8Platform17GetCpuTemperatureEv
                0x08018624       0x70 ./build/./RepRapFirmware/src/Platform.o
                0x08018624                Platform::GetCpuTemperature() const
 .text._ZN8Platform20InitialiseInterruptsEv
                0x08018694       0x44 ./build/./RepRapFirmware/src/Platform.o
                0x08018694                Platform::InitialiseInterrupts()
 .text._ZNK8Platform23GetAveragingFilterIndexERK6IoPort
                0x080186d8       0x2c ./build/./RepRapFirmware/src/Platform.o
                0x080186d8                Platform::GetAveragingFilterIndex(IoPort const&) const
 .text._ZN8Platform23UpdateConfiguredHeatersEv
                0x08018704       0x64 ./build/./RepRapFirmware/src/Platform.o
                0x08018704                Platform::UpdateConfiguredHeaters()
 .text._ZN8Platform21DisableOneLocalDriverEj
                0x08018768       0x34 ./build/./RepRapFirmware/src/Platform.o
                0x08018768                Platform::DisableOneLocalDriver(unsigned int)
 .text._ZNSt17_Function_handlerIFvhEZN8Platform14DisableDriversEjEUlhE_E9_M_invokeERKSt9_Any_dataOh
                0x0801879c        0x8 ./build/./RepRapFirmware/src/Platform.o
 .text._ZN8Platform18UpdateMotorCurrentEjf
                0x080187a4       0x14 ./build/./RepRapFirmware/src/Platform.o
                0x080187a4                Platform::UpdateMotorCurrent(unsigned int, float)
 .text._ZN8Platform20EnableOneLocalDriverEjf
                0x080187b8       0x40 ./build/./RepRapFirmware/src/Platform.o
                0x080187b8                Platform::EnableOneLocalDriver(unsigned int, float)
 .text._ZNSt17_Function_handlerIFvhEZN8Platform13EnableDriversEjEUlhE_E9_M_invokeERKSt9_Any_dataOh
                0x080187f8        0xc ./build/./RepRapFirmware/src/Platform.o
 .text._ZN8Platform23EmergencyDisableDriversEv
                0x08018804       0x3c ./build/./RepRapFirmware/src/Platform.o
                0x08018804                Platform::EmergencyDisableDrivers()
 .text._ZNSt17_Function_handlerIFvhEZN8Platform14SetDriversIdleEvEUlhE_E9_M_invokeERKSt9_Any_dataOh
                0x08018840        0xc ./build/./RepRapFirmware/src/Platform.o
 .text._ZNSt17_Function_handlerIFvhEZN8Platform15SetMotorCurrentEjfiRK9StringRefEUlhE_E9_M_invokeERKSt9_Any_dataOh
                0x0801884c       0x40 ./build/./RepRapFirmware/src/Platform.o
 .text._ZNSt17_Function_handlerIFvhEZN8Platform20SetIdleCurrentFactorEfEUlhE_E9_M_invokeERKSt9_Any_dataOh
                0x0801888c        0xc ./build/./RepRapFirmware/src/Platform.o
 .text._ZNK8Platform15GetMotorCurrentEji
                0x08018898       0x4c ./build/./RepRapFirmware/src/Platform.o
                0x08018898                Platform::GetMotorCurrent(unsigned int, int) const
 .text._ZN8Platform20SetDriveStepsPerUnitEjfm
                0x080188e4       0x60 ./build/./RepRapFirmware/src/Platform.o
                0x080188e4                Platform::SetDriveStepsPerUnit(unsigned int, float, unsigned long)
 .text._ZN8Platform22SetDriverMicrosteppingEjji
                0x08018944       0x34 ./build/./RepRapFirmware/src/Platform.o
                0x08018944                Platform::SetDriverMicrostepping(unsigned int, unsigned int, int)
 .text._ZNSt17_Function_handlerIFvhEZN8Platform16SetMicrosteppingEjibRK9StringRefEUlhE_E9_M_invokeERKSt9_Any_dataOh
                0x08018978       0x40 ./build/./RepRapFirmware/src/Platform.o
 .text._ZNK8Platform16GetMicrosteppingEjRb
                0x080189b8       0x16 ./build/./RepRapFirmware/src/Platform.o
                0x080189b8                Platform::GetMicrostepping(unsigned int, bool&) const
 .text._ZN8Platform14SetEnableValueEja
                0x080189ce       0x54 ./build/./RepRapFirmware/src/Platform.o
                0x080189ce                Platform::SetEnableValue(unsigned int, signed char)
 .text._ZN8Platform20SetAxisDriversConfigEjjPK8DriverId
                0x08018a22       0x4e ./build/./RepRapFirmware/src/Platform.o
                0x08018a22                Platform::SetAxisDriversConfig(unsigned int, unsigned int, DriverId const*)
 .text._ZN8Platform11SetAxisTypeEj12AxisWrapTypeb
                0x08018a70       0x32 ./build/./RepRapFirmware/src/Platform.o
                0x08018a70                Platform::SetAxisType(unsigned int, AxisWrapType, bool)
 .text._ZN8Platform17SetExtruderDriverEj8DriverId
                0x08018aa2       0x28 ./build/./RepRapFirmware/src/Platform.o
                0x08018aa2                Platform::SetExtruderDriver(unsigned int, DriverId)
 *fill*         0x08018aca        0x2 
 .text._ZN8Platform19SetDriverStepTimingEjPKf
                0x08018acc       0x98 ./build/./RepRapFirmware/src/Platform.o
                0x08018acc                Platform::SetDriverStepTiming(unsigned int, float const*)
 .text._ZNK8Platform19GetDriverStepTimingEjPf
                0x08018b64       0x58 ./build/./RepRapFirmware/src/Platform.o
                0x08018b64                Platform::GetDriverStepTiming(unsigned int, float*) const
 .text._ZN8Platform14AppendUsbReplyEP12OutputBuffer
                0x08018bbc       0x40 ./build/./RepRapFirmware/src/Platform.o
                0x08018bbc                Platform::AppendUsbReply(OutputBuffer*)
 .text._ZNK8Platform12IsAuxEnabledEj
                0x08018bfc        0xc ./build/./RepRapFirmware/src/Platform.o
                0x08018bfc                Platform::IsAuxEnabled(unsigned int) const
 .text._ZN8Platform9EnableAuxEj
                0x08018c08       0x16 ./build/./RepRapFirmware/src/Platform.o
                0x08018c08                Platform::EnableAux(unsigned int)
 .text._ZNK8Platform8IsAuxRawEj
                0x08018c1e        0xc ./build/./RepRapFirmware/src/Platform.o
                0x08018c1e                Platform::IsAuxRaw(unsigned int) const
 .text._ZN8Platform9SetAuxRawEjb
                0x08018c2a        0x8 ./build/./RepRapFirmware/src/Platform.o
                0x08018c2a                Platform::SetAuxRaw(unsigned int, bool)
 .text._ZN8Platform19InitPanelDueUpdaterEv
                0x08018c32       0x1c ./build/./RepRapFirmware/src/Platform.o
                0x08018c32                Platform::InitPanelDueUpdater()
 *fill*         0x08018c4e        0x2 
 .text._ZN8Platform14AppendAuxReplyEjPKcb
                0x08018c50       0x2c ./build/./RepRapFirmware/src/Platform.o
                0x08018c50                Platform::AppendAuxReply(unsigned int, char const*, bool)
 .text._ZN8Platform14AppendAuxReplyEjP12OutputBufferb
                0x08018c7c       0x30 ./build/./RepRapFirmware/src/Platform.o
                0x08018c7c                Platform::AppendAuxReply(unsigned int, OutputBuffer*, bool)
 .text._ZN8Platform7MessageE11MessageTypeP12OutputBuffer
                0x08018cac       0xcc ./build/./RepRapFirmware/src/Platform.o
                0x08018cac                Platform::Message(MessageType, OutputBuffer*)
 .text._ZN8Platform12DebugMessageEPKcSt9__va_list
                0x08018d78       0x40 ./build/./RepRapFirmware/src/Platform.o
                0x08018d78                Platform::DebugMessage(char const*, std::__va_list)
 .text._ZNK8Platform14GetLogFileNameEv
                0x08018db8        0xe ./build/./RepRapFirmware/src/Platform.o
                0x08018db8                Platform::GetLogFileName() const
 *fill*         0x08018dc6        0x2 
 .text._ZNK8Platform11GetLogLevelEv
                0x08018dc8       0x30 ./build/./RepRapFirmware/src/Platform.o
                0x08018dc8                Platform::GetLogLevel() const
 .text._ZN8Platform11StopLoggingEv
                0x08018df8       0x14 ./build/./RepRapFirmware/src/Platform.o
                0x08018df8                Platform::StopLogging()
 .text._ZN8Platform16ConfigureLoggingER11GCodeBufferRK9StringRef
                0x08018e0c       0xbc ./build/./RepRapFirmware/src/Platform.o
                0x08018e0c                Platform::ConfigureLogging(GCodeBuffer&, StringRef const&)
 .text._ZNK8Platform8AtxPowerEv
                0x08018ec8        0xc ./build/./RepRapFirmware/src/Platform.o
                0x08018ec8                Platform::AtxPower() const
 .text._ZN8Platform10AtxPowerOnEv
                0x08018ed4       0x30 ./build/./RepRapFirmware/src/Platform.o
                0x08018ed4                Platform::AtxPowerOn()
 .text._ZN8Platform11AtxPowerOffEb
                0x08018f04        0xc ./build/./RepRapFirmware/src/Platform.o
                0x08018f04                Platform::AtxPowerOff(bool)
 .text._ZN8Platform18SetPressureAdvanceEfR11GCodeBufferRK9StringRef
                0x08018f10       0xbc ./build/./RepRapFirmware/src/Platform.o
                0x08018f10                Platform::SetPressureAdvance(float, GCodeBuffer&, StringRef const&)
 .text._ZNK8Platform24GetExtrusionCoefficientsEjRfS0_S0_
                0x08018fcc       0x24 ./build/./RepRapFirmware/src/Platform.o
                0x08018fcc                Platform::GetExtrusionCoefficients(unsigned int, float&, float&, float&) const
 .text._ZN8Platform21SetNonlinearExtrusionEjfff
                0x08018ff0       0x24 ./build/./RepRapFirmware/src/Platform.o
                0x08018ff0                Platform::SetNonlinearExtrusion(unsigned int, float, float, float)
 .text._ZN8Platform11SetBaudRateEjm
                0x08019014        0xe ./build/./RepRapFirmware/src/Platform.o
                0x08019014                Platform::SetBaudRate(unsigned int, unsigned long)
 .text._ZNK8Platform11GetBaudRateEj
                0x08019022       0x10 ./build/./RepRapFirmware/src/Platform.o
                0x08019022                Platform::GetBaudRate(unsigned int) const
 .text._ZN8Platform18SetCommsPropertiesEjm
                0x08019032        0xc ./build/./RepRapFirmware/src/Platform.o
                0x08019032                Platform::SetCommsProperties(unsigned int, unsigned long)
 .text._ZNK8Platform18GetCommsPropertiesEj
                0x0801903e        0xe ./build/./RepRapFirmware/src/Platform.o
                0x0801903e                Platform::GetCommsProperties(unsigned int) const
 .text._ZN8Platform12ResetChannelEj
                0x0801904c       0x3c ./build/./RepRapFirmware/src/Platform.o
                0x0801904c                Platform::ResetChannel(unsigned int)
 .text._ZNK8Platform20GetElectronicsStringEv
                0x08019088       0x18 ./build/./RepRapFirmware/src/Platform.o
                0x08019088                Platform::GetElectronicsString() const
 .text._ZNK8Platform14GetBoardStringEv
                0x080190a0       0x18 ./build/./RepRapFirmware/src/Platform.o
                0x080190a0                Platform::GetBoardString() const
 .text._ZNK8Platform8OpenFileEPKcS1_8OpenModem
                0x080190b8       0x2a ./build/./RepRapFirmware/src/Platform.o
                0x080190b8                Platform::OpenFile(char const*, char const*, OpenMode, unsigned long) const
 .text._ZNK8Platform10FileExistsEPKcS1_
                0x080190e2       0x24 ./build/./RepRapFirmware/src/Platform.o
                0x080190e2                Platform::FileExists(char const*, char const*) const
 .text._ZNK8Platform6DeleteEPKcS1_
                0x08019106       0x26 ./build/./RepRapFirmware/src/Platform.o
                0x08019106                Platform::Delete(char const*, char const*) const
 .text._ZN8Platform9SetSysDirEPKcRK9StringRef
                0x0801912c       0xc0 ./build/./RepRapFirmware/src/Platform.o
                0x0801912c                Platform::SetSysDir(char const*, StringRef const&)
 .text._ZNK8Platform9GetSysDirEv
                0x080191ec       0x28 ./build/./RepRapFirmware/src/Platform.o
                0x080191ec                Platform::GetSysDir() const
 .text._ZNK8Platform15MakeSysFileNameERK9StringRefPKc
                0x08019214       0x28 ./build/./RepRapFirmware/src/Platform.o
                0x08019214                Platform::MakeSysFileName(StringRef const&, char const*) const
 .text._ZNK8Platform13SysFileExistsEPKc
                0x0801923c       0x26 ./build/./RepRapFirmware/src/Platform.o
                0x0801923c                Platform::SysFileExists(char const*) const
 .text._ZNK8Platform11OpenSysFileEPKc8OpenMode
                0x08019262       0x2c ./build/./RepRapFirmware/src/Platform.o
                0x08019262                Platform::OpenSysFile(char const*, OpenMode) const
 .text._ZNK8Platform13DeleteSysFileEPKc
                0x0801928e       0x28 ./build/./RepRapFirmware/src/Platform.o
                0x0801928e                Platform::DeleteSysFile(char const*) const
 .text._ZNK8Platform12AppendSysDirERK9StringRef
                0x080192b6       0x20 ./build/./RepRapFirmware/src/Platform.o
                0x080192b6                Platform::AppendSysDir(StringRef const&) const
 *fill*         0x080192d6        0x2 
 .text._ZN8Platform11SetLaserPwmEt
                0x080192d8       0x24 ./build/./RepRapFirmware/src/Platform.o
                0x080192d8                Platform::SetLaserPwm(unsigned short)
 .text._ZNK8Platform11GetLaserPwmEv
                0x080192fc        0xa ./build/./RepRapFirmware/src/Platform.o
                0x080192fc                Platform::GetLaserPwm() const
 .text._ZN8Platform14AssignLaserPinER11GCodeBufferRK9StringRef
                0x08019306       0x24 ./build/./RepRapFirmware/src/Platform.o
                0x08019306                Platform::AssignLaserPin(GCodeBuffer&, StringRef const&)
 .text._ZN8Platform20SetLaserPwmFrequencyEt
                0x0801932a        0x6 ./build/./RepRapFirmware/src/Platform.o
                0x0801932a                Platform::SetLaserPwmFrequency(unsigned short)
 .text._ZN8Platform14SetAxisMaximumEjfb
                0x08019330       0x30 ./build/./RepRapFirmware/src/Platform.o
                0x08019330                Platform::SetAxisMaximum(unsigned int, float, bool)
 .text._ZN8Platform14SetAxisMinimumEjfb
                0x08019360       0x30 ./build/./RepRapFirmware/src/Platform.o
                0x08019360                Platform::SetAxisMinimum(unsigned int, float, bool)
 .text._ZNK8Platform18GetMcuTemperaturesEv
                0x08019390       0x26 ./build/./RepRapFirmware/src/Platform.o
                0x08019390                Platform::GetMcuTemperatures() const
 .text._ZN8PlatformUlPK11ObjectModelR24ObjectExplorationContextE17_4_FUNES2_S4_
                0x080193b6       0x1a ./build/./RepRapFirmware/src/Platform.o
 .text._ZN8PlatformUlPK11ObjectModelR24ObjectExplorationContextE16_4_FUNES2_S4_
                0x080193d0       0x1a ./build/./RepRapFirmware/src/Platform.o
 .text._ZN8PlatformUlPK11ObjectModelR24ObjectExplorationContextE15_4_FUNES2_S4_
                0x080193ea       0x1a ./build/./RepRapFirmware/src/Platform.o
 .text._ZNK8Platform24GetTmcDriversTemperatureEj
                0x08019404       0x38 ./build/./RepRapFirmware/src/Platform.o
                0x08019404                Platform::GetTmcDriversTemperature(unsigned int) const
 .text._ZN8Platform13ConfigurePortER11GCodeBufferRK9StringRef
                0x0801943c       0xf4 ./build/./RepRapFirmware/src/Platform.o
                0x0801943c                Platform::ConfigurePort(GCodeBuffer&, StringRef const&)
 .text._ZN8Platform18GetSetAncillaryPwmER11GCodeBufferRK9StringRef
                0x08019530       0xb0 ./build/./RepRapFirmware/src/Platform.o
                0x08019530                Platform::GetSetAncillaryPwm(GCodeBuffer&, StringRef const&)
 .text._ZN8Platform4TickEv
                0x080195e0      0x192 ./build/./RepRapFirmware/src/Platform.o
                0x080195e0                Platform::Tick()
 .text._ZNSt8functionIFvhEEC2ERKS1_
                0x08019772       0x28 ./build/./RepRapFirmware/src/Platform.o
                0x08019772                std::function<void (unsigned char)>::function(std::function<void (unsigned char)> const&)
                0x08019772                std::function<void (unsigned char)>::function(std::function<void (unsigned char)> const&)
 .text._ZNV15AveragingFilterILj16EE4InitEt
                0x0801979a       0x2a ./build/./RepRapFirmware/src/Platform.o
                0x0801979a                AveragingFilter<16u>::Init(unsigned short) volatile
 .text._ZN8Platform4InitEv
                0x080197c4      0x3d0 ./build/./RepRapFirmware/src/Platform.o
                0x080197c4                Platform::Init()
 .text._ZN6StringILj100EE6printfEPKcz
                0x08019b94       0x22 ./build/./RepRapFirmware/src/Platform.o
                0x08019b94                String<100u>::printf(char const*, ...)
 .text._ZN6StringILj100EE4catfEPKcz
                0x08019bb6       0x22 ./build/./RepRapFirmware/src/Platform.o
                0x08019bb6                String<100u>::catf(char const*, ...)
 .text._ZNSt17_Function_handlerIFvjjEZN8Platform13ReportDriversE11MessageTypeR6BitmapImEPKcRbEUljjE_E9_M_invokeERKSt9_Any_dataOjSE_
                0x08019bd8       0x14 ./build/./RepRapFirmware/src/Platform.o
 .text._ZNSt17_Function_handlerIFvjjEZN8Platform15WriteAxisLimitsEP9FileStore6BitmapItEPKfiEUljjE_E9_M_invokeERKSt9_Any_dataOjSD_
                0x08019bec       0x38 ./build/./RepRapFirmware/src/Platform.o
 .text._ZN6StringILj256EE6printfEPKcz
                0x08019c24       0x24 ./build/./RepRapFirmware/src/Platform.o
                0x08019c24                String<256u>::printf(char const*, ...)
 .text._ZNKSt8functionIFvhEEclEh
                0x08019c48       0x1c ./build/./RepRapFirmware/src/Platform.o
                0x08019c48                std::function<void (unsigned char)>::operator()(unsigned char) const
 .text._ZN8Platform14IterateDriversEjSt8functionIFvhEE
                0x08019c64       0x4c ./build/./RepRapFirmware/src/Platform.o
                0x08019c64                Platform::IterateDrivers(unsigned int, std::function<void (unsigned char)>)
 .text._ZN8Platform13EnableDriversEj
                0x08019cb0       0x5c ./build/./RepRapFirmware/src/Platform.o
                0x08019cb0                Platform::EnableDrivers(unsigned int)
 .text._ZN8Platform14DisableDriversEj
                0x08019d0c       0x34 ./build/./RepRapFirmware/src/Platform.o
                0x08019d0c                Platform::DisableDrivers(unsigned int)
 .text._ZN8Platform17DisableAllDriversEv
                0x08019d40       0x16 ./build/./RepRapFirmware/src/Platform.o
                0x08019d40                Platform::DisableAllDrivers()
 *fill*         0x08019d56        0x2 
 .text._ZN8Platform14SetDriversIdleEv
                0x08019d58       0x8c ./build/./RepRapFirmware/src/Platform.o
                0x08019d58                Platform::SetDriversIdle()
 .text._ZN8Platform15SetMotorCurrentEjfiRK9StringRef
                0x08019de4       0xf0 ./build/./RepRapFirmware/src/Platform.o
                0x08019de4                Platform::SetMotorCurrent(unsigned int, float, int, StringRef const&)
 .text._ZN8Platform20SetIdleCurrentFactorEf
                0x08019ed4       0xa8 ./build/./RepRapFirmware/src/Platform.o
                0x08019ed4                Platform::SetIdleCurrentFactor(float)
 .text._ZN8Platform12SetDirectionEjb
                0x08019f7c       0xb4 ./build/./RepRapFirmware/src/Platform.o
                0x08019f7c                Platform::SetDirection(unsigned int, bool)
 .text._ZN8Platform16SetMicrosteppingEjibRK9StringRef
                0x0801a030       0xc0 ./build/./RepRapFirmware/src/Platform.o
                0x0801a030                Platform::SetMicrostepping(unsigned int, int, bool, StringRef const&)
 .text._ZN6StringILj256EE4copyEPKc
                0x0801a0f0       0x16 ./build/./RepRapFirmware/src/Platform.o
                0x0801a0f0                String<256u>::copy(char const*)
 .text._ZNV15AveragingFilterILj8EE4InitEt
                0x0801a106       0x2e ./build/./RepRapFirmware/src/Platform.o
                0x0801a106                AveragingFilter<8u>::Init(unsigned short) volatile
 .text._ZN8Platform17InitZProbeFiltersEv
                0x0801a134       0x1a ./build/./RepRapFirmware/src/Platform.o
                0x0801a134                Platform::InitZProbeFilters()
 *fill*         0x0801a14e        0x2 
 .text._ZN8PlatformC2Ev
                0x0801a150      0x184 ./build/./RepRapFirmware/src/Platform.o
                0x0801a150                Platform::Platform()
                0x0801a150                Platform::Platform()
 .text._ZNKSt8functionIFvjjEEclEjj
                0x0801a2d4       0x1c ./build/./RepRapFirmware/src/Platform.o
                0x0801a2d4                std::function<void (unsigned int, unsigned int)>::operator()(unsigned int, unsigned int) const
 .text._ZNK6BitmapImE7IterateESt8functionIFvjjEE.isra.190
                0x0801a2f0       0x30 ./build/./RepRapFirmware/src/Platform.o
 .text._ZN8Platform23ConfigureStallDetectionER11GCodeBufferRK9StringRefRP12OutputBuffer
                0x0801a320      0x2dc ./build/./RepRapFirmware/src/Platform.o
                0x0801a320                Platform::ConfigureStallDetection(GCodeBuffer&, StringRef const&, OutputBuffer*&)
 .text._ZNK6BitmapItE7IterateESt8functionIFvjjEE.isra.192
                0x0801a5fc       0x30 ./build/./RepRapFirmware/src/Platform.o
 .text._ZN8Platform22DriverCoolingFansOnOffE6BitmapItEb
                0x0801a62c       0x3c ./build/./RepRapFirmware/src/Platform.o
                0x0801a62c                Platform::DriverCoolingFansOnOff(Bitmap<unsigned short>, bool)
 .text._ZN8Platform15WriteAxisLimitsEP9FileStore6BitmapItEPKfi
                0x0801a668       0x70 ./build/./RepRapFirmware/src/Platform.o
                0x0801a668                Platform::WriteAxisLimits(FileStore*, Bitmap<unsigned short>, float const*, int)
 .text._ZNK8Platform23WritePlatformParametersEP9FileStoreb
                0x0801a6d8       0x68 ./build/./RepRapFirmware/src/Platform.o
                0x0801a6d8                Platform::WritePlatformParameters(FileStore*, bool) const
 .text._ZNSt17_Function_handlerIFbcEZN8Platform12DebugMessageEPKcSt9__va_listEUlcE_E9_M_invokeERKSt9_Any_dataOc
                0x0801a740       0x34 ./build/./RepRapFirmware/src/Platform.o
 .text._ZN8Platform10RawMessageE11MessageTypePKc
                0x0801a774      0x114 ./build/./RepRapFirmware/src/Platform.o
                0x0801a774                Platform::RawMessage(MessageType, char const*)
 .text._ZN8Platform7MessageE11MessageTypePKc.part.187
                0x0801a888       0x4c ./build/./RepRapFirmware/src/Platform.o
 .text._ZN8Platform7MessageE11MessageTypePKc
                0x0801a8d4        0xe ./build/./RepRapFirmware/src/Platform.o
                0x0801a8d4                Platform::Message(MessageType, char const*)
 *fill*         0x0801a8e2        0x2 
 .text._ZN8Platform8MessageFE11MessageTypePKcSt9__va_list
                0x0801a8e4       0x6c ./build/./RepRapFirmware/src/Platform.o
                0x0801a8e4                Platform::MessageF(MessageType, char const*, std::__va_list)
 .text._ZN8Platform8MessageFE11MessageTypePKcz
                0x0801a950       0x1a ./build/./RepRapFirmware/src/Platform.o
                0x0801a950                Platform::MessageF(MessageType, char const*, ...)
 *fill*         0x0801a96a        0x2 
 .text._ZN8Platform12PanelDueBeepEii
                0x0801a96c       0x18 ./build/./RepRapFirmware/src/Platform.o
                0x0801a96c                Platform::PanelDueBeep(int, int)
 .text._ZN8Platform11DiagnosticsE11MessageType
                0x0801a984      0x210 ./build/./RepRapFirmware/src/Platform.o
                0x0801a984                Platform::Diagnostics(MessageType)
 *fill*         0x0801ab94        0x4 
 .text._ZN8Platform14DiagnosticTestER11GCodeBufferRK9StringRefRP12OutputBufferj
                0x0801ab98      0x64c ./build/./RepRapFirmware/src/Platform.o
                0x0801ab98                Platform::DiagnosticTest(GCodeBuffer&, StringRef const&, OutputBuffer*&, unsigned int)
 .text._ZN8Platform9SendAlertE11MessageTypePKcS2_if6BitmapItE
                0x0801b1e4       0xa8 ./build/./RepRapFirmware/src/Platform.o
                0x0801b1e4                Platform::SendAlert(MessageType, char const*, char const*, int, float, Bitmap<unsigned short>)
 .text._ZN8Platform11SetDateTimeEx
                0x0801b28c       0x74 ./build/./RepRapFirmware/src/Platform.o
                0x0801b28c                Platform::SetDateTime(long long)
 .text._ZN8Platform13ReportDriversE11MessageTypeR6BitmapImEPKcRb
                0x0801b300       0x64 ./build/./RepRapFirmware/src/Platform.o
                0x0801b300                Platform::ReportDrivers(MessageType, Bitmap<unsigned long>&, char const*, bool&)
 .text._ZN8Platform13FlushMessagesEv
                0x0801b364       0xa0 ./build/./RepRapFirmware/src/Platform.o
                0x0801b364                Platform::FlushMessages()
 .text._ZN8Platform4SpinEv
                0x0801b404      0x408 ./build/./RepRapFirmware/src/Platform.o
                0x0801b404                Platform::Spin()
 .text._ZN12PrintMonitorUlPK11ObjectModelRK24ObjectExplorationContextE_4_FUNES2_S5_
                0x0801b80c        0x6 ./build/./RepRapFirmware/src/PrintMonitor.o
 .text._ZN12PrintMonitorUlPK11ObjectModelR24ObjectExplorationContextE2_4_FUNES2_S4_
                0x0801b812       0x1a ./build/./RepRapFirmware/src/PrintMonitor.o
 .text._ZN12PrintMonitorUlPK11ObjectModelR24ObjectExplorationContextE9_4_FUNES2_S4_
                0x0801b82c       0x1a ./build/./RepRapFirmware/src/PrintMonitor.o
 *fill*         0x0801b846        0x2 
 .text._ZN12PrintMonitorUlPK11ObjectModelR24ObjectExplorationContextE11_4_FUNES2_S4_
                0x0801b848       0x10 ./build/./RepRapFirmware/src/PrintMonitor.o
 .text._ZN12PrintMonitorUlPK11ObjectModelR24ObjectExplorationContextE13_4_FUNES2_S4_
                0x0801b858        0xe ./build/./RepRapFirmware/src/PrintMonitor.o
 .text._ZN12PrintMonitorUlPK11ObjectModelR24ObjectExplorationContextE15_4_FUNES2_S4_
                0x0801b866        0xe ./build/./RepRapFirmware/src/PrintMonitor.o
 .text._ZN12PrintMonitorUlPK11ObjectModelR24ObjectExplorationContextE17_4_FUNES2_S4_
                0x0801b874        0xe ./build/./RepRapFirmware/src/PrintMonitor.o
 .text._ZN12PrintMonitorUlPK11ObjectModelR24ObjectExplorationContextE21_4_FUNES2_S4_
                0x0801b882        0xc ./build/./RepRapFirmware/src/PrintMonitor.o
 *fill*         0x0801b88e        0x2 
 .text._ZNK12PrintMonitor29GetObjectModelClassDescriptorEv
                0x0801b890        0x8 ./build/./RepRapFirmware/src/PrintMonitor.o
                0x0801b890                PrintMonitor::GetObjectModelClassDescriptor() const
 .text._ZN12PrintMonitorD2Ev
                0x0801b898        0x2 ./build/./RepRapFirmware/src/PrintMonitor.o
                0x0801b898                PrintMonitor::~PrintMonitor()
                0x0801b898                PrintMonitor::~PrintMonitor()
 .text._ZN12PrintMonitorD0Ev
                0x0801b89a       0x10 ./build/./RepRapFirmware/src/PrintMonitor.o
                0x0801b89a                PrintMonitor::~PrintMonitor()
 .text._ZN12PrintMonitorUlPK11ObjectModelR24ObjectExplorationContextE0_4_FUNES2_S4_
                0x0801b8aa       0x22 ./build/./RepRapFirmware/src/PrintMonitor.o
 .text._ZN12PrintMonitorUlPK11ObjectModelR24ObjectExplorationContextE18_4_FUNES2_S4_
                0x0801b8cc       0x16 ./build/./RepRapFirmware/src/PrintMonitor.o
 .text._ZN12PrintMonitorUlPK11ObjectModelR24ObjectExplorationContextE20_4_FUNES2_S4_
                0x0801b8e2       0x14 ./build/./RepRapFirmware/src/PrintMonitor.o
 .text._ZN12PrintMonitorUlPK11ObjectModelR24ObjectExplorationContextE19_4_FUNES2_S4_
                0x0801b8f6       0x14 ./build/./RepRapFirmware/src/PrintMonitor.o
 .text._ZN12PrintMonitorUlPK11ObjectModelR24ObjectExplorationContextE16_4_FUNES2_S4_
                0x0801b90a       0x1e ./build/./RepRapFirmware/src/PrintMonitor.o
 .text._ZN12PrintMonitorUlPK11ObjectModelR24ObjectExplorationContextE7_4_FUNES2_S4_
                0x0801b928       0x14 ./build/./RepRapFirmware/src/PrintMonitor.o
 .text._ZN12PrintMonitorUlPK11ObjectModelR24ObjectExplorationContextE3_4_FUNES2_S4_
                0x0801b93c       0x1c ./build/./RepRapFirmware/src/PrintMonitor.o
 .text._ZN12PrintMonitorUlPK11ObjectModelR24ObjectExplorationContextE5_4_FUNES2_S4_
                0x0801b958       0x20 ./build/./RepRapFirmware/src/PrintMonitor.o
 .text._ZN12PrintMonitorUlPK11ObjectModelR24ObjectExplorationContextE12_4_FUNES2_S4_
                0x0801b978       0x16 ./build/./RepRapFirmware/src/PrintMonitor.o
 .text._ZN12PrintMonitorUlPK11ObjectModelR24ObjectExplorationContextE6_4_FUNES2_S4_
                0x0801b98e       0x18 ./build/./RepRapFirmware/src/PrintMonitor.o
 .text._ZN12PrintMonitorUlPK11ObjectModelR24ObjectExplorationContextE14_4_FUNES2_S4_
                0x0801b9a6       0x16 ./build/./RepRapFirmware/src/PrintMonitor.o
 .text._ZN10ReadLockerD2Ev
                0x0801b9bc       0x10 ./build/./RepRapFirmware/src/PrintMonitor.o
                0x0801b9bc                ReadLocker::~ReadLocker()
                0x0801b9bc                ReadLocker::~ReadLocker()
 .text._ZN11WriteLockerD2Ev
                0x0801b9cc       0x10 ./build/./RepRapFirmware/src/PrintMonitor.o
                0x0801b9cc                WriteLocker::~WriteLocker()
                0x0801b9cc                WriteLocker::~WriteLocker()
 .text._ZN12PrintMonitorC2ER8PlatformR6GCodes
                0x0801b9dc       0x5c ./build/./RepRapFirmware/src/PrintMonitor.o
                0x0801b9dc                PrintMonitor::PrintMonitor(Platform&, GCodes&)
                0x0801b9dc                PrintMonitor::PrintMonitor(Platform&, GCodes&)
 .text._ZN12PrintMonitor4InitEv
                0x0801ba38        0xc ./build/./RepRapFirmware/src/PrintMonitor.o
                0x0801ba38                PrintMonitor::Init()
 .text._ZN12PrintMonitor19GetPrintingFileInfoER13GCodeFileInfo
                0x0801ba44       0x26 ./build/./RepRapFirmware/src/PrintMonitor.o
                0x0801ba44                PrintMonitor::GetPrintingFileInfo(GCodeFileInfo&)
 *fill*         0x0801ba6a        0x2 
 .text._ZNK12PrintMonitor17GetWarmUpDurationEv
                0x0801ba6c       0x3c ./build/./RepRapFirmware/src/PrintMonitor.o
                0x0801ba6c                PrintMonitor::GetWarmUpDuration() const
 .text._ZN12PrintMonitorUlPK11ObjectModelR24ObjectExplorationContextE10_4_FUNES2_S4_
                0x0801baa8       0x22 ./build/./RepRapFirmware/src/PrintMonitor.o
 *fill*         0x0801baca        0x2 
 .text._ZN12PrintMonitor13StartingPrintEPKc
                0x0801bacc       0x5c ./build/./RepRapFirmware/src/PrintMonitor.o
                0x0801bacc                PrintMonitor::StartingPrint(char const*)
 .text._ZN12PrintMonitor5ResetEv
                0x0801bb28       0x5c ./build/./RepRapFirmware/src/PrintMonitor.o
                0x0801bb28                PrintMonitor::Reset()
 .text._ZN12PrintMonitor12StartedPrintEv
                0x0801bb84       0x16 ./build/./RepRapFirmware/src/PrintMonitor.o
                0x0801bb84                PrintMonitor::StartedPrint()
 .text._ZN12PrintMonitor12StoppedPrintEv
                0x0801bb9a       0x12 ./build/./RepRapFirmware/src/PrintMonitor.o
                0x0801bb9a                PrintMonitor::StoppedPrint()
 .text._ZN12PrintMonitor14SetLayerNumberEm
                0x0801bbac        0x6 ./build/./RepRapFirmware/src/PrintMonitor.o
                0x0801bbac                PrintMonitor::SetLayerNumber(unsigned long)
 .text._ZN12PrintMonitor9SetLayerZEf
                0x0801bbb2        0x6 ./build/./RepRapFirmware/src/PrintMonitor.o
                0x0801bbb2                PrintMonitor::SetLayerZ(float)
 .text._ZNK12PrintMonitor21FractionOfFilePrintedEv
                0x0801bbb8       0x5c ./build/./RepRapFirmware/src/PrintMonitor.o
                0x0801bbb8                PrintMonitor::FractionOfFilePrinted() const
 .text._ZNK12PrintMonitor16GetPrintDurationEv
                0x0801bc14       0x50 ./build/./RepRapFirmware/src/PrintMonitor.o
                0x0801bc14                PrintMonitor::GetPrintDuration() const
 .text._ZN12PrintMonitorUlPK11ObjectModelR24ObjectExplorationContextE8_4_FUNES2_S4_
                0x0801bc64       0x44 ./build/./RepRapFirmware/src/PrintMonitor.o
 .text._ZNK12PrintMonitor27GetPrintOrSimulatedDurationEv
                0x0801bca8       0x30 ./build/./RepRapFirmware/src/PrintMonitor.o
                0x0801bca8                PrintMonitor::GetPrintOrSimulatedDuration() const
 .text._ZN12PrintMonitorUlPK11ObjectModelR24ObjectExplorationContextE1_4_FUNES2_S4_
                0x0801bcd8       0x1e ./build/./RepRapFirmware/src/PrintMonitor.o
 *fill*         0x0801bcf6        0x2 
 .text._ZNK12PrintMonitor21GetFirstLayerDurationEv
                0x0801bcf8       0x30 ./build/./RepRapFirmware/src/PrintMonitor.o
                0x0801bcf8                PrintMonitor::GetFirstLayerDuration() const
 .text._ZN12PrintMonitorUlPK11ObjectModelR24ObjectExplorationContextE4_4_FUNES2_S4_
                0x0801bd28       0x22 ./build/./RepRapFirmware/src/PrintMonitor.o
 .text._ZN12PrintMonitor18FirstLayerCompleteEv
                0x0801bd4a       0x70 ./build/./RepRapFirmware/src/PrintMonitor.o
                0x0801bd4a                PrintMonitor::FirstLayerComplete()
 *fill*         0x0801bdba        0x2 
 .text._ZN12PrintMonitor13LayerCompleteEv
                0x0801bdbc      0x164 ./build/./RepRapFirmware/src/PrintMonitor.o
                0x0801bdbc                PrintMonitor::LayerComplete()
 .text._ZNK12PrintMonitor16EstimateTimeLeftE21PrintEstimationMethod
                0x0801bf20      0x214 ./build/./RepRapFirmware/src/PrintMonitor.o
                0x0801bf20                PrintMonitor::EstimateTimeLeft(PrintEstimationMethod) const
 .text._ZNK12PrintMonitor28EstimateTimeLeftAsExpressionE21PrintEstimationMethod
                0x0801c134       0x2c ./build/./RepRapFirmware/src/PrintMonitor.o
                0x0801c134                PrintMonitor::EstimateTimeLeftAsExpression(PrintEstimationMethod) const
 .text._ZN12PrintMonitorUlPK11ObjectModelR24ObjectExplorationContextE24_4_FUNES2_S4_
                0x0801c160        0xe ./build/./RepRapFirmware/src/PrintMonitor.o
 .text._ZN12PrintMonitorUlPK11ObjectModelR24ObjectExplorationContextE23_4_FUNES2_S4_
                0x0801c16e        0xe ./build/./RepRapFirmware/src/PrintMonitor.o
 .text._ZN12PrintMonitorUlPK11ObjectModelR24ObjectExplorationContextE22_4_FUNES2_S4_
                0x0801c17c        0xe ./build/./RepRapFirmware/src/PrintMonitor.o
 *fill*         0x0801c18a        0x2 
 .text._ZN12PrintMonitor4SpinEv
                0x0801c18c      0x218 ./build/./RepRapFirmware/src/PrintMonitor.o
                0x0801c18c                PrintMonitor::Spin()
 .text.startup._GLOBAL__sub_I__ZN12PrintMonitor16printMonitorLockE
                0x0801c3a4       0x10 ./build/./RepRapFirmware/src/PrintMonitor.o
 .text._ZN6RepRapUlPK11ObjectModelRK24ObjectExplorationContextE_4_FUNES2_S5_
                0x0801c3b4        0x4 ./build/./RepRapFirmware/src/RepRap.o
 .text._ZN6RepRapUlPK11ObjectModelR24ObjectExplorationContextE0_4_FUNES2_S4_
                0x0801c3b8       0x18 ./build/./RepRapFirmware/src/RepRap.o
 .text._ZN6RepRapUlPK11ObjectModelRK24ObjectExplorationContextE3_4_FUNES2_S5_
                0x0801c3d0        0x4 ./build/./RepRapFirmware/src/RepRap.o
 .text._ZN6RepRapUlPK11ObjectModelRK24ObjectExplorationContextE7_4_FUNES2_S5_
                0x0801c3d4        0x4 ./build/./RepRapFirmware/src/RepRap.o
 .text._ZN6RepRapUlPK11ObjectModelRK24ObjectExplorationContextE9_4_FUNES2_S5_
                0x0801c3d8        0x6 ./build/./RepRapFirmware/src/RepRap.o
 .text._ZN6RepRapUlPK11ObjectModelRK24ObjectExplorationContextE11_4_FUNES2_S5_
                0x0801c3de        0x4 ./build/./RepRapFirmware/src/RepRap.o
 .text._ZN6RepRapUlPK11ObjectModelRK24ObjectExplorationContextE13_4_FUNES2_S5_
                0x0801c3e2        0x4 ./build/./RepRapFirmware/src/RepRap.o
 *fill*         0x0801c3e6        0x2 
 .text._ZN6RepRapUlPK11ObjectModelR24ObjectExplorationContextE15_4_FUNES2_S4_
                0x0801c3e8       0x10 ./build/./RepRapFirmware/src/RepRap.o
 .text._ZN6RepRapUlPK11ObjectModelR24ObjectExplorationContextE16_4_FUNES2_S4_
                0x0801c3f8       0x1a ./build/./RepRapFirmware/src/RepRap.o
 *fill*         0x0801c412        0x2 
 .text._ZN6RepRapUlPK11ObjectModelR24ObjectExplorationContextE17_4_FUNES2_S4_
                0x0801c414       0x10 ./build/./RepRapFirmware/src/RepRap.o
 .text._ZN6RepRapUlPK11ObjectModelR24ObjectExplorationContextE19_4_FUNES2_S4_
                0x0801c424       0x10 ./build/./RepRapFirmware/src/RepRap.o
 .text._ZN6RepRapUlPK11ObjectModelR24ObjectExplorationContextE21_4_FUNES2_S4_
                0x0801c434       0x1a ./build/./RepRapFirmware/src/RepRap.o
 .text._ZN6RepRapUlPK11ObjectModelR24ObjectExplorationContextE25_4_FUNES2_S4_
                0x0801c44e       0x1a ./build/./RepRapFirmware/src/RepRap.o
 .text._ZN6RepRapUlPK11ObjectModelR24ObjectExplorationContextE26_4_FUNES2_S4_
                0x0801c468       0x10 ./build/./RepRapFirmware/src/RepRap.o
 .text._ZN6RepRapUlPK11ObjectModelR24ObjectExplorationContextE27_4_FUNES2_S4_
                0x0801c478       0x1a ./build/./RepRapFirmware/src/RepRap.o
 *fill*         0x0801c492        0x2 
 .text._ZN6RepRapUlPK11ObjectModelR24ObjectExplorationContextE28_4_FUNES2_S4_
                0x0801c494       0x10 ./build/./RepRapFirmware/src/RepRap.o
 .text._ZN6RepRapUlPK11ObjectModelR24ObjectExplorationContextE29_4_FUNES2_S4_
                0x0801c4a4       0x10 ./build/./RepRapFirmware/src/RepRap.o
 .text._ZN6RepRapUlPK11ObjectModelR24ObjectExplorationContextE30_4_FUNES2_S4_
                0x0801c4b4       0x10 ./build/./RepRapFirmware/src/RepRap.o
 .text._ZN6RepRapUlPK11ObjectModelR24ObjectExplorationContextE31_4_FUNES2_S4_
                0x0801c4c4       0x10 ./build/./RepRapFirmware/src/RepRap.o
 .text._ZN6RepRapUlPK11ObjectModelR24ObjectExplorationContextE32_4_FUNES2_S4_
                0x0801c4d4       0x10 ./build/./RepRapFirmware/src/RepRap.o
 .text._ZN6RepRapUlPK11ObjectModelR24ObjectExplorationContextE33_4_FUNES2_S4_
                0x0801c4e4       0x10 ./build/./RepRapFirmware/src/RepRap.o
 .text._ZN6RepRapUlPK11ObjectModelR24ObjectExplorationContextE34_4_FUNES2_S4_
                0x0801c4f4       0x10 ./build/./RepRapFirmware/src/RepRap.o
 .text._ZN6RepRapUlPK11ObjectModelR24ObjectExplorationContextE35_4_FUNES2_S4_
                0x0801c504       0x10 ./build/./RepRapFirmware/src/RepRap.o
 .text._ZN6RepRapUlPK11ObjectModelR24ObjectExplorationContextE36_4_FUNES2_S4_
                0x0801c514        0xa ./build/./RepRapFirmware/src/RepRap.o
 *fill*         0x0801c51e        0x2 
 .text._ZN6RepRapUlPK11ObjectModelR24ObjectExplorationContextE37_4_FUNES2_S4_
                0x0801c520       0x10 ./build/./RepRapFirmware/src/RepRap.o
 .text._ZN6RepRapUlPK11ObjectModelR24ObjectExplorationContextE38_4_FUNES2_S4_
                0x0801c530        0xa ./build/./RepRapFirmware/src/RepRap.o
 .text._ZN6RepRapUlPK11ObjectModelR24ObjectExplorationContextE39_4_FUNES2_S4_
                0x0801c53a        0xa ./build/./RepRapFirmware/src/RepRap.o
 .text._ZN6RepRapUlPK11ObjectModelR24ObjectExplorationContextE40_4_FUNES2_S4_
                0x0801c544        0xa ./build/./RepRapFirmware/src/RepRap.o
 .text._ZN6RepRapUlPK11ObjectModelR24ObjectExplorationContextE43_4_FUNES2_S4_
                0x0801c54e        0xa ./build/./RepRapFirmware/src/RepRap.o
 .text._ZN6RepRapUlPK11ObjectModelR24ObjectExplorationContextE44_4_FUNES2_S4_
                0x0801c558        0x8 ./build/./RepRapFirmware/src/RepRap.o
 .text._ZN6RepRapUlPK11ObjectModelR24ObjectExplorationContextE45_4_FUNES2_S4_
                0x0801c560        0xa ./build/./RepRapFirmware/src/RepRap.o
 .text._ZN6RepRapUlPK11ObjectModelR24ObjectExplorationContextE46_4_FUNES2_S4_
                0x0801c56a        0xa ./build/./RepRapFirmware/src/RepRap.o
 .text._ZN6RepRapUlPK11ObjectModelR24ObjectExplorationContextE48_4_FUNES2_S4_
                0x0801c574        0xa ./build/./RepRapFirmware/src/RepRap.o
 .text._ZN6RepRapUlPK11ObjectModelR24ObjectExplorationContextE50_4_FUNES2_S4_
                0x0801c57e        0xa ./build/./RepRapFirmware/src/RepRap.o
 .text._ZN6RepRapUlPK11ObjectModelR24ObjectExplorationContextE54_4_FUNES2_S4_
                0x0801c588        0xa ./build/./RepRapFirmware/src/RepRap.o
 .text._ZN6RepRapUlPK11ObjectModelR24ObjectExplorationContextE56_4_FUNES2_S4_
                0x0801c592        0xa ./build/./RepRapFirmware/src/RepRap.o
 .text._ZN6RepRapUlPK11ObjectModelR24ObjectExplorationContextE57_4_FUNES2_S4_
                0x0801c59c        0xa ./build/./RepRapFirmware/src/RepRap.o
 .text._ZN6RepRapUlPK11ObjectModelR24ObjectExplorationContextE58_4_FUNES2_S4_
                0x0801c5a6        0xa ./build/./RepRapFirmware/src/RepRap.o
 .text._ZN6RepRapUlPK11ObjectModelR24ObjectExplorationContextE66_4_FUNES2_S4_
                0x0801c5b0        0xc ./build/./RepRapFirmware/src/RepRap.o
 .text._ZN6RepRapUlPK11ObjectModelR24ObjectExplorationContextE67_4_FUNES2_S4_
                0x0801c5bc       0x10 ./build/./RepRapFirmware/src/RepRap.o
 .text._ZN6RepRapUlPK11ObjectModelR24ObjectExplorationContextE73_4_FUNES2_S4_
                0x0801c5cc       0x1c ./build/./RepRapFirmware/src/RepRap.o
 .text._ZN6RepRapUlPK11ObjectModelR24ObjectExplorationContextE74_4_FUNES2_S4_
                0x0801c5e8        0xe ./build/./RepRapFirmware/src/RepRap.o
 .text._ZN6RepRapUlPK11ObjectModelR24ObjectExplorationContextE75_4_FUNES2_S4_
                0x0801c5f6        0xc ./build/./RepRapFirmware/src/RepRap.o
 *fill*         0x0801c602        0x2 
 .text._ZN6RepRapUlPK11ObjectModelR24ObjectExplorationContextE76_4_FUNES2_S4_
                0x0801c604       0x10 ./build/./RepRapFirmware/src/RepRap.o
 .text._ZN6RepRapUlPK11ObjectModelR24ObjectExplorationContextE80_4_FUNES2_S4_
                0x0801c614        0xc ./build/./RepRapFirmware/src/RepRap.o
 .text._ZN6RepRapUlPK11ObjectModelR24ObjectExplorationContextE81_4_FUNES2_S4_
                0x0801c620        0xc ./build/./RepRapFirmware/src/RepRap.o
 .text._ZN6RepRapUlPK11ObjectModelR24ObjectExplorationContextE82_4_FUNES2_S4_
                0x0801c62c        0xc ./build/./RepRapFirmware/src/RepRap.o
 .text._ZN6RepRapUlPK11ObjectModelR24ObjectExplorationContextE83_4_FUNES2_S4_
                0x0801c638        0xc ./build/./RepRapFirmware/src/RepRap.o
 .text._ZN6RepRapUlPK11ObjectModelR24ObjectExplorationContextE84_4_FUNES2_S4_
                0x0801c644        0xc ./build/./RepRapFirmware/src/RepRap.o
 .text._ZN6RepRapUlPK11ObjectModelR24ObjectExplorationContextE85_4_FUNES2_S4_
                0x0801c650        0xc ./build/./RepRapFirmware/src/RepRap.o
 .text._ZN6RepRapUlPK11ObjectModelR24ObjectExplorationContextE86_4_FUNES2_S4_
                0x0801c65c        0xc ./build/./RepRapFirmware/src/RepRap.o
 .text._ZN6RepRapUlPK11ObjectModelR24ObjectExplorationContextE87_4_FUNES2_S4_
                0x0801c668        0xc ./build/./RepRapFirmware/src/RepRap.o
 .text._ZN6RepRapUlPK11ObjectModelR24ObjectExplorationContextE88_4_FUNES2_S4_
                0x0801c674        0xc ./build/./RepRapFirmware/src/RepRap.o
 .text._ZN6RepRapUlPK11ObjectModelR24ObjectExplorationContextE89_4_FUNES2_S4_
                0x0801c680        0xc ./build/./RepRapFirmware/src/RepRap.o
 .text._ZN6RepRapUlPK11ObjectModelR24ObjectExplorationContextE90_4_FUNES2_S4_
                0x0801c68c        0xc ./build/./RepRapFirmware/src/RepRap.o
 .text._ZN6RepRapUlPK11ObjectModelR24ObjectExplorationContextE91_4_FUNES2_S4_
                0x0801c698        0xc ./build/./RepRapFirmware/src/RepRap.o
 .text._ZN6RepRapUlPK11ObjectModelR24ObjectExplorationContextE92_4_FUNES2_S4_
                0x0801c6a4        0xc ./build/./RepRapFirmware/src/RepRap.o
 .text._ZN6RepRapUlPK11ObjectModelR24ObjectExplorationContextE93_4_FUNES2_S4_
                0x0801c6b0        0xc ./build/./RepRapFirmware/src/RepRap.o
 .text._ZN6RepRapUlPK11ObjectModelR24ObjectExplorationContextE94_4_FUNES2_S4_
                0x0801c6bc        0xc ./build/./RepRapFirmware/src/RepRap.o
 .text._ZN6RepRapUlPK11ObjectModelR24ObjectExplorationContextE95_4_FUNES2_S4_
                0x0801c6c8        0xc ./build/./RepRapFirmware/src/RepRap.o
 .text._ZN6RepRapUlPK11ObjectModelR24ObjectExplorationContextE96_4_FUNES2_S4_
                0x0801c6d4       0x10 ./build/./RepRapFirmware/src/RepRap.o
 .text._ZN6RepRapUlPK11ObjectModelR24ObjectExplorationContextE97_4_FUNES2_S4_
                0x0801c6e4        0xc ./build/./RepRapFirmware/src/RepRap.o
 .text._ZN6RepRapUlPK11ObjectModelR24ObjectExplorationContextE98_4_FUNES2_S4_
                0x0801c6f0        0xc ./build/./RepRapFirmware/src/RepRap.o
 .text._ZN6RepRapUlPK11ObjectModelR24ObjectExplorationContextE99_4_FUNES2_S4_
                0x0801c6fc        0xc ./build/./RepRapFirmware/src/RepRap.o
 .text._ZN6RepRapUlPK11ObjectModelR24ObjectExplorationContextE100_4_FUNES2_S4_
                0x0801c708        0xc ./build/./RepRapFirmware/src/RepRap.o
 .text._ZN6RepRapUlPK11ObjectModelR24ObjectExplorationContextE101_4_FUNES2_S4_
                0x0801c714        0xc ./build/./RepRapFirmware/src/RepRap.o
 .text._ZNK6RepRap29GetObjectModelClassDescriptorEv
                0x0801c720        0x8 ./build/./RepRapFirmware/src/RepRap.o
                0x0801c720                RepRap::GetObjectModelClassDescriptor() const
 .text._ZNSt14_Function_base13_Base_managerIZNK6RepRap17GetStatusResponseEh14ResponseSourceEUljE_E10_M_managerERSt9_Any_dataRKS5_St18_Manager_operation
                0x0801c728       0x16 ./build/./RepRapFirmware/src/RepRap.o
 .text._ZNSt14_Function_base13_Base_managerIZNK6RepRap17GetStatusResponseEh14ResponseSourceEUljE0_E10_M_managerERSt9_Any_dataRKS5_St18_Manager_operation
                0x0801c73e       0x16 ./build/./RepRapFirmware/src/RepRap.o
 .text._ZNSt14_Function_base13_Base_managerIZNK6RepRap17GetStatusResponseEh14ResponseSourceEUljE1_E10_M_managerERSt9_Any_dataRKS5_St18_Manager_operation
                0x0801c754       0x16 ./build/./RepRapFirmware/src/RepRap.o
 .text._ZNSt14_Function_base13_Base_managerIZNK6RepRap17GetStatusResponseEh14ResponseSourceEUljE2_E10_M_managerERSt9_Any_dataRKS5_St18_Manager_operation
                0x0801c76a       0x16 ./build/./RepRapFirmware/src/RepRap.o
 .text._ZNSt14_Function_base13_Base_managerIZNK6RepRap17GetStatusResponseEh14ResponseSourceEUljE3_E10_M_managerERSt9_Any_dataRKS5_St18_Manager_operation
                0x0801c780       0x16 ./build/./RepRapFirmware/src/RepRap.o
 .text._ZNSt14_Function_base13_Base_managerIZNK6RepRap17GetStatusResponseEh14ResponseSourceEUljE4_E10_M_managerERSt9_Any_dataRKS5_St18_Manager_operation
                0x0801c796       0x16 ./build/./RepRapFirmware/src/RepRap.o
 .text._ZNSt14_Function_base13_Base_managerIZNK6RepRap17GetStatusResponseEh14ResponseSourceEUljE5_E10_M_managerERSt9_Any_dataRKS5_St18_Manager_operation
                0x0801c7ac       0x16 ./build/./RepRapFirmware/src/RepRap.o
 .text._ZNSt14_Function_base13_Base_managerIZNK6RepRap17GetStatusResponseEh14ResponseSourceEUljE6_E10_M_managerERSt9_Any_dataRKS5_St18_Manager_operation
                0x0801c7c2       0x16 ./build/./RepRapFirmware/src/RepRap.o
 .text._ZNSt14_Function_base13_Base_managerIZNK6RepRap17GetStatusResponseEh14ResponseSourceEUljE7_E10_M_managerERSt9_Any_dataRKS5_St18_Manager_operation
                0x0801c7d8       0x16 ./build/./RepRapFirmware/src/RepRap.o
 .text._ZNSt14_Function_base13_Base_managerIZNK6RepRap17GetStatusResponseEh14ResponseSourceEUljE8_E10_M_managerERSt9_Any_dataRKS5_St18_Manager_operation
                0x0801c7ee       0x16 ./build/./RepRapFirmware/src/RepRap.o
 .text._ZNSt14_Function_base13_Base_managerIZNK6RepRap17GetStatusResponseEh14ResponseSourceEUljE9_E10_M_managerERSt9_Any_dataRKS5_St18_Manager_operation
                0x0801c804       0x16 ./build/./RepRapFirmware/src/RepRap.o
 .text._ZNSt17_Function_handlerIFfjEZNK6RepRap17GetStatusResponseEh14ResponseSourceEUljE10_E9_M_invokeERKSt9_Any_dataOj
                0x0801c81a        0xe ./build/./RepRapFirmware/src/RepRap.o
 .text._ZNSt14_Function_base13_Base_managerIZNK6RepRap17GetStatusResponseEh14ResponseSourceEUljE10_E10_M_managerERSt9_Any_dataRKS5_St18_Manager_operation
                0x0801c828       0x16 ./build/./RepRapFirmware/src/RepRap.o
 .text._ZNSt17_Function_handlerIFfjEZNK6RepRap17GetStatusResponseEh14ResponseSourceEUljE11_E9_M_invokeERKSt9_Any_dataOj
                0x0801c83e        0xe ./build/./RepRapFirmware/src/RepRap.o
 .text._ZNSt14_Function_base13_Base_managerIZNK6RepRap17GetStatusResponseEh14ResponseSourceEUljE11_E10_M_managerERSt9_Any_dataRKS5_St18_Manager_operation
                0x0801c84c       0x16 ./build/./RepRapFirmware/src/RepRap.o
 .text._ZNSt17_Function_handlerIFijEZNK6RepRap17GetStatusResponseEh14ResponseSourceEUljE12_E9_M_invokeERKSt9_Any_dataOj
                0x0801c862        0xc ./build/./RepRapFirmware/src/RepRap.o
 .text._ZNSt14_Function_base13_Base_managerIZNK6RepRap17GetStatusResponseEh14ResponseSourceEUljE12_E10_M_managerERSt9_Any_dataRKS5_St18_Manager_operation
                0x0801c86e       0x16 ./build/./RepRapFirmware/src/RepRap.o
 .text._ZNSt17_Function_handlerIFijEZNK6RepRap17GetStatusResponseEh14ResponseSourceEUljE13_E9_M_invokeERKSt9_Any_dataOj
                0x0801c884        0xc ./build/./RepRapFirmware/src/RepRap.o
 .text._ZNSt14_Function_base13_Base_managerIZNK6RepRap17GetStatusResponseEh14ResponseSourceEUljE13_E10_M_managerERSt9_Any_dataRKS5_St18_Manager_operation
                0x0801c890       0x16 ./build/./RepRapFirmware/src/RepRap.o
 .text._ZNSt14_Function_base13_Base_managerIZNK6RepRap17GetStatusResponseEh14ResponseSourceEUljjE14_E10_M_managerERSt9_Any_dataRKS5_St18_Manager_operation
                0x0801c8a6       0x16 ./build/./RepRapFirmware/src/RepRap.o
 .text._ZNSt14_Function_base13_Base_managerIZNK6RepRap17GetStatusResponseEh14ResponseSourceEUljjE15_E10_M_managerERSt9_Any_dataRKS5_St18_Manager_operation
                0x0801c8bc       0x16 ./build/./RepRapFirmware/src/RepRap.o
 .text._ZNSt17_Function_handlerIFfjEZNK6RepRap17GetStatusResponseEh14ResponseSourceEUljE16_E9_M_invokeERKSt9_Any_dataOj
                0x0801c8d2        0xe ./build/./RepRapFirmware/src/RepRap.o
 .text._ZNSt14_Function_base13_Base_managerIZNK6RepRap17GetStatusResponseEh14ResponseSourceEUljE16_E10_M_managerERSt9_Any_dataRKS5_St18_Manager_operation
                0x0801c8e0       0x16 ./build/./RepRapFirmware/src/RepRap.o
 .text._ZNSt14_Function_base13_Base_managerIZNK6RepRap17GetStatusResponseEh14ResponseSourceEUljE17_E10_M_managerERSt9_Any_dataRKS5_St18_Manager_operation
                0x0801c8f6       0x16 ./build/./RepRapFirmware/src/RepRap.o
 .text._ZNSt17_Function_handlerIFfjEZN6RepRap17GetConfigResponseEvEUljE_E9_M_invokeERKSt9_Any_dataOj
                0x0801c90c       0x14 ./build/./RepRapFirmware/src/RepRap.o
 .text._ZNSt14_Function_base13_Base_managerIZN6RepRap17GetConfigResponseEvEUljE_E10_M_managerERSt9_Any_dataRKS4_St18_Manager_operation
                0x0801c920       0x16 ./build/./RepRapFirmware/src/RepRap.o
 .text._ZNSt17_Function_handlerIFfjEZN6RepRap17GetConfigResponseEvEUljE0_E9_M_invokeERKSt9_Any_dataOj
                0x0801c936       0x14 ./build/./RepRapFirmware/src/RepRap.o
 .text._ZNSt14_Function_base13_Base_managerIZN6RepRap17GetConfigResponseEvEUljE0_E10_M_managerERSt9_Any_dataRKS4_St18_Manager_operation
                0x0801c94a       0x16 ./build/./RepRapFirmware/src/RepRap.o
 .text._ZNSt17_Function_handlerIFfjEZN6RepRap17GetConfigResponseEvEUljE1_E9_M_invokeERKSt9_Any_dataOj
                0x0801c960       0x10 ./build/./RepRapFirmware/src/RepRap.o
 .text._ZNSt14_Function_base13_Base_managerIZN6RepRap17GetConfigResponseEvEUljE1_E10_M_managerERSt9_Any_dataRKS4_St18_Manager_operation
                0x0801c970       0x16 ./build/./RepRapFirmware/src/RepRap.o
 .text._ZNSt14_Function_base13_Base_managerIZN6RepRap17GetConfigResponseEvEUljE2_E10_M_managerERSt9_Any_dataRKS4_St18_Manager_operation
                0x0801c986       0x16 ./build/./RepRapFirmware/src/RepRap.o
 .text._ZNSt17_Function_handlerIFfjEZN6RepRap17GetConfigResponseEvEUljE3_E9_M_invokeERKSt9_Any_dataOj
                0x0801c99c       0x10 ./build/./RepRapFirmware/src/RepRap.o
 .text._ZNSt14_Function_base13_Base_managerIZN6RepRap17GetConfigResponseEvEUljE3_E10_M_managerERSt9_Any_dataRKS4_St18_Manager_operation
                0x0801c9ac       0x16 ./build/./RepRapFirmware/src/RepRap.o
 .text._ZNSt17_Function_handlerIFfjEZN6RepRap17GetConfigResponseEvEUljE4_E9_M_invokeERKSt9_Any_dataOj
                0x0801c9c2       0x10 ./build/./RepRapFirmware/src/RepRap.o
 .text._ZNSt14_Function_base13_Base_managerIZN6RepRap17GetConfigResponseEvEUljE4_E10_M_managerERSt9_Any_dataRKS4_St18_Manager_operation
                0x0801c9d2       0x16 ./build/./RepRapFirmware/src/RepRap.o
 .text._ZNSt14_Function_base13_Base_managerIZNK6RepRap23GetLegacyStatusResponseEhiEUljE_E10_M_managerERSt9_Any_dataRKS4_St18_Manager_operation
                0x0801c9e8       0x16 ./build/./RepRapFirmware/src/RepRap.o
 .text._ZNSt14_Function_base13_Base_managerIZNK6RepRap23GetLegacyStatusResponseEhiEUljE0_E10_M_managerERSt9_Any_dataRKS4_St18_Manager_operation
                0x0801c9fe       0x16 ./build/./RepRapFirmware/src/RepRap.o
 .text._ZNSt14_Function_base13_Base_managerIZNK6RepRap23GetLegacyStatusResponseEhiEUljE1_E10_M_managerERSt9_Any_dataRKS4_St18_Manager_operation
                0x0801ca14       0x16 ./build/./RepRapFirmware/src/RepRap.o
 .text._ZNSt14_Function_base13_Base_managerIZNK6RepRap23GetLegacyStatusResponseEhiEUljE2_E10_M_managerERSt9_Any_dataRKS4_St18_Manager_operation
                0x0801ca2a       0x16 ./build/./RepRapFirmware/src/RepRap.o
 .text._ZNSt14_Function_base13_Base_managerIZNK6RepRap23GetLegacyStatusResponseEhiEUljE3_E10_M_managerERSt9_Any_dataRKS4_St18_Manager_operation
                0x0801ca40       0x16 ./build/./RepRapFirmware/src/RepRap.o
 .text._ZN6RepRapD2Ev
                0x0801ca56        0x2 ./build/./RepRapFirmware/src/RepRap.o
                0x0801ca56                RepRap::~RepRap()
                0x0801ca56                RepRap::~RepRap()
 .text._ZN6RepRapD0Ev
                0x0801ca58       0x10 ./build/./RepRapFirmware/src/RepRap.o
                0x0801ca58                RepRap::~RepRap()
 .text._ZN6RepRapUlPK11ObjectModelRK24ObjectExplorationContextE1_4_FUNES2_S5_
                0x0801ca68        0x6 ./build/./RepRapFirmware/src/RepRap.o
 *fill*         0x0801ca6e        0x2 
 .text._ZNSt17_Function_handlerIFvjjEZNK6RepRap17GetStatusResponseEh14ResponseSourceEUljjE15_E9_M_invokeERKSt9_Any_dataOjS8_
                0x0801ca70       0x24 ./build/./RepRapFirmware/src/RepRap.o
 .text._ZNSt17_Function_handlerIFfjEZNK6RepRap17GetStatusResponseEh14ResponseSourceEUljE0_E9_M_invokeERKSt9_Any_dataOj
                0x0801ca94        0xa ./build/./RepRapFirmware/src/RepRap.o
 .text._ZNSt17_Function_handlerIFfjEZNK6RepRap17GetStatusResponseEh14ResponseSourceEUljE1_E9_M_invokeERKSt9_Any_dataOj
                0x0801ca9e        0xe ./build/./RepRapFirmware/src/RepRap.o
 .text._ZNSt17_Function_handlerIFijEZNK6RepRap17GetStatusResponseEh14ResponseSourceEUljE3_E9_M_invokeERKSt9_Any_dataOj
                0x0801caac       0x30 ./build/./RepRapFirmware/src/RepRap.o
 .text._ZNSt17_Function_handlerIFPKcjEZNK6RepRap17GetStatusResponseEh14ResponseSourceEUljE4_E9_M_invokeERKSt9_Any_dataOj
                0x0801cadc        0xa ./build/./RepRapFirmware/src/RepRap.o
 *fill*         0x0801cae6        0x2 
 .text._ZNSt17_Function_handlerIFfjEZNK6RepRap23GetLegacyStatusResponseEhiEUljE1_E9_M_invokeERKSt9_Any_dataOj
                0x0801cae8       0x1c ./build/./RepRapFirmware/src/RepRap.o
 .text._ZNSt17_Function_handlerIFijEZNK6RepRap17GetStatusResponseEh14ResponseSourceEUljE6_E9_M_invokeERKSt9_Any_dataOj
                0x0801cb04        0xa ./build/./RepRapFirmware/src/RepRap.o
 .text._ZNSt17_Function_handlerIFfjEZNK6RepRap17GetStatusResponseEh14ResponseSourceEUljE7_E9_M_invokeERKSt9_Any_dataOj
                0x0801cb0e        0xa ./build/./RepRapFirmware/src/RepRap.o
 .text._ZNSt17_Function_handlerIFPKcjEZNK6RepRap17GetStatusResponseEh14ResponseSourceEUljE9_E9_M_invokeERKSt9_Any_dataOj
                0x0801cb18        0xa ./build/./RepRapFirmware/src/RepRap.o
 .text._ZNSt17_Function_handlerIFfjEZNK6RepRap17GetStatusResponseEh14ResponseSourceEUljE17_E9_M_invokeERKSt9_Any_dataOj
                0x0801cb22        0xa ./build/./RepRapFirmware/src/RepRap.o
 .text._ZNSt17_Function_handlerIFijEZN6RepRap17GetConfigResponseEvEUljE2_E9_M_invokeERKSt9_Any_dataOj
                0x0801cb2c       0x1a ./build/./RepRapFirmware/src/RepRap.o
 .text._ZNSt17_Function_handlerIFfjEZNK6RepRap17GetStatusResponseEh14ResponseSourceEUljE2_E9_M_invokeERKSt9_Any_dataOj
                0x0801cb46       0x12 ./build/./RepRapFirmware/src/RepRap.o
 .text._ZN6RepRapUlPK11ObjectModelR24ObjectExplorationContextE71_4_FUNES2_S4_
                0x0801cb58       0x14 ./build/./RepRapFirmware/src/RepRap.o
 .text._ZN6RepRapUlPK11ObjectModelR24ObjectExplorationContextE70_4_FUNES2_S4_
                0x0801cb6c       0x14 ./build/./RepRapFirmware/src/RepRap.o
 .text._ZN6RepRapUlPK11ObjectModelR24ObjectExplorationContextE69_4_FUNES2_S4_
                0x0801cb80       0x14 ./build/./RepRapFirmware/src/RepRap.o
 .text._ZN6RepRapUlPK11ObjectModelR24ObjectExplorationContextE72_4_FUNES2_S4_
                0x0801cb94       0x16 ./build/./RepRapFirmware/src/RepRap.o
 .text._ZN6RepRapUlPK11ObjectModelR24ObjectExplorationContextE64_4_FUNES2_S4_
                0x0801cbaa       0x16 ./build/./RepRapFirmware/src/RepRap.o
 .text._ZN6RepRapUlPK11ObjectModelR24ObjectExplorationContextE79_4_FUNES2_S4_
                0x0801cbc0       0x20 ./build/./RepRapFirmware/src/RepRap.o
 .text._ZN6RepRapUlPK11ObjectModelRK24ObjectExplorationContextE5_4_FUNES2_S5_
                0x0801cbe0        0xc ./build/./RepRapFirmware/src/RepRap.o
 .text._ZN6RepRapUlPK11ObjectModelR24ObjectExplorationContextE78_4_FUNES2_S4_
                0x0801cbec       0x24 ./build/./RepRapFirmware/src/RepRap.o
 .text._ZN6RepRapUlPK11ObjectModelR24ObjectExplorationContextE63_4_FUNES2_S4_
                0x0801cc10       0x22 ./build/./RepRapFirmware/src/RepRap.o
 *fill*         0x0801cc32        0x2 
 .text._ZN6RepRapUlPK11ObjectModelR24ObjectExplorationContextE68_4_FUNES2_S4_
                0x0801cc34       0x38 ./build/./RepRapFirmware/src/RepRap.o
 .text._ZNSt17_Function_handlerIFijEZNK6RepRap17GetStatusResponseEh14ResponseSourceEUljE8_E9_M_invokeERKSt9_Any_dataOj
                0x0801cc6c       0x18 ./build/./RepRapFirmware/src/RepRap.o
 .text._ZNSt17_Function_handlerIFijEZNK6RepRap17GetStatusResponseEh14ResponseSourceEUljE_E9_M_invokeERKSt9_Any_dataOj
                0x0801cc84       0x12 ./build/./RepRapFirmware/src/RepRap.o
 .text._ZNK6BitmapItE7IterateESt8functionIFvjjEE.isra.298
                0x0801cc96       0x40 ./build/./RepRapFirmware/src/RepRap.o
 .text._ZN6RepRapUlPK11ObjectModelR24ObjectExplorationContextE59_4_FUNES2_S4_
                0x0801ccd6        0xa ./build/./RepRapFirmware/src/RepRap.o
 .text._ZN6RepRapUlPK11ObjectModelR24ObjectExplorationContextE42_4_FUNES2_S4_
                0x0801cce0        0xa ./build/./RepRapFirmware/src/RepRap.o
 .text._ZN6RepRapUlPK11ObjectModelR24ObjectExplorationContextE62_4_FUNES2_S4_
                0x0801ccea        0xa ./build/./RepRapFirmware/src/RepRap.o
 .text._ZN6RepRapUlPK11ObjectModelR24ObjectExplorationContextE41_4_FUNES2_S4_
                0x0801ccf4        0xa ./build/./RepRapFirmware/src/RepRap.o
 .text._ZN6RepRapUlPK11ObjectModelR24ObjectExplorationContextE47_4_FUNES2_S4_
                0x0801ccfe        0xa ./build/./RepRapFirmware/src/RepRap.o
 .text._ZN6RepRapUlPK11ObjectModelR24ObjectExplorationContextE49_4_FUNES2_S4_
                0x0801cd08        0xa ./build/./RepRapFirmware/src/RepRap.o
 .text._ZN6RepRapUlPK11ObjectModelR24ObjectExplorationContextE51_4_FUNES2_S4_
                0x0801cd12        0xa ./build/./RepRapFirmware/src/RepRap.o
 .text._ZN6RepRapUlPK11ObjectModelR24ObjectExplorationContextE52_4_FUNES2_S4_
                0x0801cd1c        0xa ./build/./RepRapFirmware/src/RepRap.o
 .text._ZN6RepRapUlPK11ObjectModelR24ObjectExplorationContextE53_4_FUNES2_S4_
                0x0801cd26        0xa ./build/./RepRapFirmware/src/RepRap.o
 .text._ZN6RepRapUlPK11ObjectModelR24ObjectExplorationContextE55_4_FUNES2_S4_
                0x0801cd30        0x8 ./build/./RepRapFirmware/src/RepRap.o
 .text._ZN6RepRapUlPK11ObjectModelR24ObjectExplorationContextE60_4_FUNES2_S4_
                0x0801cd38        0xa ./build/./RepRapFirmware/src/RepRap.o
 .text._ZN6RepRapUlPK11ObjectModelR24ObjectExplorationContextE61_4_FUNES2_S4_
                0x0801cd42        0xa ./build/./RepRapFirmware/src/RepRap.o
 .text._ZNSt17_Function_handlerIFijEZNK6RepRap23GetLegacyStatusResponseEhiEUljE3_E9_M_invokeERKSt9_Any_dataOj
                0x0801cd4c       0x12 ./build/./RepRapFirmware/src/RepRap.o
 .text._ZNSt17_Function_handlerIFijEZNK6RepRap23GetLegacyStatusResponseEhiEUljE2_E9_M_invokeERKSt9_Any_dataOj
                0x0801cd5e        0xa ./build/./RepRapFirmware/src/RepRap.o
 .text._ZNSt17_Function_handlerIFfjEZNK6RepRap23GetLegacyStatusResponseEhiEUljE_E9_M_invokeERKSt9_Any_dataOj
