:020000040800F2
:10000000682B00206D020008C10B0008B90B000826
:10001000BD0B0008410600082D1700080000000075
:10002000000000000000000000000000791500083A
:100030004506000800000000D90B00089D160008C6
:10004000870200088702000887020008870200086C
:10005000870200088702000887020008870200085C
:10006000870200088702000887020008870200084C
:10007000870200088702000887020008870200083C
:10008000870200088702000887020008870200082C
:10009000870200088702000887020008870200081C
:1000A000870200088702000887020008870200080C
:1000B00087020008870200088702000887020008FC
:1000C00087020008870200088702000887020008EC
:1000D00087020008870200088702000887020008DC
:1000E00087020008870200088702000887020008CC
:1000F00087020008870200088702000887020008BC
:1001000087020008870200088702000887020008AB
:10011000870200088702000887020008870200089B
:10012000870200088702000887020008870200088B
:10013000870200080000000000000000870200089D
:10014000870200088702000887020008870200086B
:10015000870200088702000887020008870200085B
:10016000870200088702000887020008870200084B
:1001700087020008870200088702000800000000CC
:1001800000000000870200080000000000000000DE
:10019000870200080000000000000000870200083D
:1001A00000000000000000000000000087020008BE
:1001B00087020008870200088702000887020008FB
:1001C0008702000800F002F800F040F80AA090E86A
:1001D000000C82448344AAF10107DA4501D100F002
:1001E00035F8AFF2090EBAE80F0013F0010F18BF8F
:1001F000FB1A43F001031847D04C0000F04C0000FC
:10020000103A24BF78C878C1FAD8520724BF30C842
:1002100030C144BF04680C60704700000023002414
:1002200000250026103A28BF78C1FBD8520728BF06
:1002300030C148BF0B6070471FB504F0ECFB9DE870
:10024000030000F01FF91FBD10B510BD00F076F9D6
:100250001146FFF7F1FF03F055FD00F094F903B4E8
:10026000FFF7F2FF03BC00F0C5F900000948804722
:1002700009480047FEE7FEE7FEE7FEE7FEE7FEE788
:10028000FEE7FEE7FEE7FEE704480549054A064BA0
:1002900070470000C5160008C50100086807002067
:1002A000682B0020682700206827002070B50646CC
:1002B00000F0CCF8056806F10B0020F00704B4420A
:1002C0009CBF002070BD2B466A68BAB11068A0427E
:1002D00010D304F1080188423CBF5068586007D32E
:1002E0005168101941601168091B01605860146061
:1002F000101D70BD13465268002AE7D121462846DA
:1003000000F0ACF80028DED170BD70B50446051FC2
:1003100000F09CF80068002C14BF446870BD002CED
:1003200018BFAC423CBF20466468F8D301680A1885
:10033000AA4218BF456003D12A68054611440160EE
:1003400028684119A1421CBF6C6070BD616869607A
:1003500021680844286070BD53EA020C00F06980EF
:100360002DE9F04B4FF00006002B1FBFB3FA83F5C9
:1003700003FA05F424FA05F65E4012BF1643B2FAFA
:1003800082F502FA05F4C5F120051EBF22FA05FC2C
:1003900044EA0C04203556EA044C4FEA144418BFD2
:1003A000641C4FF000084FF00009904271EB030C01
:1003B00039D3002919BFB1FA81F701FA07F6B0FA6B
:1003C00080F700FA07F6C7F120071EBF20FA07FCE6
:1003D00046EA0C062037B6FBF4FCA7EB0507103FF6
:1003E00007F01F0BCBF120060CFA0BFB2CFA06F6DC
:1003F00044BFB3460026202FA4BF5E464FF0000B3B
:100400005BEA060C08BF4FF0010B19EB0B09ABFBC5
:10041000027C48EB0608C01B06FB02CC0BFB03CC9E
:1004200071EB0C01C1E70B46024641464846BDE868
:10043000F08B13B54FF000004FF00001AFF30080D8
:10044000BDE81C40704770477047704700487047D0
:1004500010070020704770477047704738B5044652
:100460000A4600206946AFF30080002808BF38BD67
:1004700002460099204600F03FF8012038BD0120D7
:1004800000F054B8F8B5AFF30080054600200C46E4
:10049000102000BF0646A819A0420DD93246694671
:1004A0000020AFF30080070008BF00F03FF800987D
:1004B000A04218BF0546C419FFF7C8FF05600746EC
:1004C000F01D20F007004619284600F00AF8B44253
:1004D00008BFF8BDA21B31463868BDE8F84000F0FF
:1004E0000BB800210160C0E901107047102070476F
:1004F0000048704708070020034640688C460028E3
:1005000018BF88423CBF03464068F8D318681844B7
:10051000884207D00CF1030020F00700001D411AAB
:10052000521A0146081D0A60FFF7EFBE10B500F031
:1005300039F8BDE8104000F02FB870477546FFF756
:10054000D7FFAE4605006946534620F007008546B2
:1005500018B020B5FFF798FEBDE820404FF0000628
:100560004FF000074FF000084FF0000B21F007019B
:10057000AC46ACE8C009ACE8C009ACE8C009ACE8DE
:10058000C0098D46704710B50446AFF30080204681
:10059000BDE81040FFF763BE002801D000F02AB884
:1005A0007047000010B5012805D0002103A000F01D
:1005B00027F8012010BD09A1F8E700005349475270
:1005C000544D454D3A204F7574206F662068656123
:1005D00070206D656D6F7279000000003A204865EB
:1005E0006170206D656D6F727920636F72727570C6
:1005F0007465640001491820ABBEFEE726000200C6
:1006000070B505460C460A2000E06D1C00F011F89C
:1006100035B128780028F8D102E0641C00F009F810
:1006200014B120780028F8D1BDE870400A20AFF35B
:10063000008008B569468DF800000320ABBE08BDF8
:1006400000BFFEE7704700000149086070470000E6
:100650000C3C024030B10749096841F48061054A09
:10066000116005E00349096821F48061014A1160C5
:1006700070470000003C024070B504460A46002660
:10068000092502B909E0012A01D1160205E0022A72
:1006900001D1160201E04FF4407600F09FF80546C4
:1006A000092D28D11548006820F4407013490860CE
:1006B00008460068304308600846006820F0F800EB
:1006C00008600846006844F0020108430B490860CE
:1006D0000846006840F48030086000F07FF8054666
:1006E0000648006820F002000449086008460068D7
:1006F00020F0F8000860284670BD0000103C024061
:1007000009201349096801F48031B1F5803F01D116
:1007100001201CE00E49096801F0100109B1062012
:1007200015E00B49096801F4807109B102200EE05F
:100730000749096801F0E00109B1072007E0044911
:10074000096801F0020109B1082000E009207047A2
:100750000C3C02400348006840F00040014908603A
:1007600070470000103C024030B502460C46092597
:1007700000F034F80546092D19D10E48006820F420
:1007800040700C4908600846006840F4007008603A
:100790000846006840F001000860146000F01EF890
:1007A00005460448006820F0010002490860284618
:1007B00030BD0000103C02400548006800F00040D9
:1007C00028B1044802490C390860034808607047A2
:1007D000103C024023016745AB89EFCD08B50920E5
:1007E0000090FFF78DFF009002E0FFF789FF009077
:1007F0009DF800000128F8D09DF8000008BD000019
:1008000010B504464148844208D10121084600F051
:10081000F5F90021012000F0F1F976E03C4884422E
:1008200008D10121022000F0E9F90021022000F0A6
:10083000E5F96AE03748844208D10121042000F03C
:10084000DDF90021042000F0D9F95EE0324884424D
:1008500008D10121082000F0D1F90021082000F082
:10086000CDF952E02D48844208D10121102000F03A
:10087000C5F90021102000F0C1F946E02848844263
:1008800008D10121202000F0B9F90021202000F03A
:10089000B5F93AE02348844208D10121402000F014
:1008A000ADF90021402000F0A9F92EE01E48844255
:1008B00008D10121802000F0A1F90021802000F062
:1008C0009DF922E01948844208D10121801500F0E9
:1008D00095F90021A01500F091F916E01448844222
:1008E00008D10121401500F089F90021601500F0C0
:1008F00085F90AE00F48844207D10121001500F074
:100900007DF90021201500F079F910BD00000240AA
:100910000004024000080240000C024000100240A7
:100920000014024000180240001C02400020024057
:10093000002402400028024010B501460A0ACBB24A
:10094000054850F82200006901249C40204008B16D
:10095000012010BD0020FCE7204A0008F0B50A463F
:1009600000210023002400BF3DE0012505FA01F32A
:10097000156805EA03049C4234D105684F0003263C
:10098000BE40B543056015794E00B5400668354355
:1009900005601579012D02D01579022D16D18568D3
:1009A0004F000326BE40B543856055794E00B540E3
:1009B000866835438560456801268E40B5434560AD
:1009C000456896798E40B6B235434560C5684F009C
:1009D0000326BE40B543C560D5794E00B540C66814
:1009E0003543C560491C1029BFD3F0BDF0B504469E
:1009F0000B46200AE1B24E4D2D6801268640354354
:100A00004B4E35604B4D55F820502D684F00032656
:100A1000BE40B543474E56F82060356003F00305ED
:100A20004E00B540434E56F8206036683543414E7F
:100A300056F8206035603F4D55F82050ED684F0066
:100A40000326BE40B5433B4E56F82060F560394D55
:100A500055F82050ED684F00C3F34116BE403543B2
:100A6000344E56F82060F56003F00305012D03D0E5
:100A700003F00305022D2FD12E4D55F820506D683F
:100A800001268E40B5432B4E56F820607560294DE7
:100A900055F820506D68C3F380068E403543254ECF
:100AA00056F820607560234D55F82050AD684F0012
:100AB0000326BE40B5431F4E56F82060B5601D4D5D
:100AC00055F82050AD684F00C3F3C106BE40354312
:100AD000184E56F82060B56003F00305022D25D1AD
:100AE000144D55F820502035CE1055F826504E079D
:100AF000F70E0F26BE40B5430E4E56F82060203646
:100B0000CF1046F827500B4D55F820502035CE1009
:100B100055F826504E07F60E02FA06F63543054EF6
:100B200056F820602036CF1046F82750F0BD000060
:100B300030380240204A0008F0B5002300244D0759
:100B4000ED0E02FA05F3CE1000F1200555F82650FF
:100B50004E07F70E0F26BE40B543CF1000F120061A
:100B600046F82750CE1000F1200555F8265045EAEA
:100B70000304CE1000F1200545F82640F0BD418366
:100B8000704701837047000030B5020AC3B231B12B
:100B900001249C40054D55F822502C8305E001248A
:100BA0009C40024D55F822506C8330BD204A00080D
:100BB00042694A404261704700BFFEE700BFFEE75E
:100BC0007047000002490143024A1160704700006B
:100BD0000000FA050CED00E07047000029B1064A5C
:100BE00012680243044B1A6004E0034A126882430D
:100BF000014B1A60704700003038024029B1064AA4
:100C000012680243044B1A6004E0034A12688243EC
:100C1000014B1A60704700001038024029B1064AA3
:100C200012680243044B1A6004E0034A12688243CC
:100C3000014B1A60704700002038024029B1064A73
:100C400012680243044B1A6004E0034A12688243AC
:100C5000014B1A60704700004438024029B1064A2F
:100C600012680243044B1A6004E0034A126882438C
:100C7000014B1A60704700002438024010B54FF451
:100C80008570FFF759FE08B9012010BD0020FCE770
:100C900010B5002238214FF48570FFF7A7FE10BD74
:100CA00010B50824012000F04DF902E0FF2000F00B
:100CB0005DF9201EA4F10101CCB2F7D110BD10B531
:100CC000002218210420FFF791FE002000F04AFACC
:100CD00010BD70B505464FF6FF7401E0601E84B28A
:100CE000FF2000F043F9A84201D0002CF6D10CB946
:100CF000FF2070BD0020FCE7F8B5FFF7C9FFFFF744
:100D0000BDFF08B9AA20F8BD00F023F900F0B3F93F
:100D1000002504E0FF2000F029F9681C85B20A2DA7
:100D2000F8DB142600BF95220021084600F033F9B5
:100D30000446012C04D0301EA6F101018EB2F2D17E
:100D4000002054490870012C75D192E087224FF49D
:100D5000D571082000F01FF9012847D1002506E0D1
:100D6000FF2000F003F90DF80500681C85B2042D82
:100D7000F6DB9DF8020001287BD19DF80300AA282C
:100D800077D14FF6FE7600BF01220021372000F018
:100D900002F901229107292000F0FDF8044624B150
:100DA000301EA6F101018EB2EED1002E61D00122DB
:100DB00000213A2000F0EFF800285AD1002506E083
:100DC000FF2000F0D3F80DF80500681C85B2042D53
:100DD000F6DB9DF8000000F0400018B106202D4918
:100DE000087002E004202B49087043E00122002132
:100DF000372000F0D0F801220021292000F0CBF8A4
:100E00000446012C18DC0220224908704FF6FE76B9
:100E100000BF01220021372000F0BDF8012200218F
:100E2000292000F0B8F80446C4B1301EA6F1010133
:100E30008EB2EED112E01EE00120164908704FF686
:100E4000FE7600BF01220021104600F0A4F80446FF
:100E500024B1301EA6F101018EB2F3D12EB10122D0
:100E60005102102000F097F810B1002009490870D5
:100E700000E06BE700BFFFF713FF00F0F6F805484E
:100E8000007808B100203EE70CB120463BE7AA20DD
:100E900039E70000140000202DE9F04106460F4616
:100EA000154619480078062800D07F02012D0CD184
:100EB00001223946112000F06EF80446FCB969029F
:100EC000304600F023F8044619E00122394612208A
:100ED00000F061F8044600BF4FF40071304600F0A6
:100EE00015F8044606F50076681EC0B2051E01D04E
:100EF000002CF1D0012200210C2000F04CF8FFF76B
:100F0000CFFE2046BDE8F0811400002070B50446F5
:100F10000D46FE20FFF7DDFE08B1012070BD04E0A4
:100F2000FF2000F023F82070641C281EA5F10101A9
:100F30008DB2F5D1FF2000F019F8FF2000F016F86F
:100F40000020EBE710B5044621460420FFF71CFE05
:100F500010BD10B5002219210420FFF747FD002025
:100F600000F0F6F80120FFF7EDFF10BD10B50446C4
:100F70002146002000F038FAC0B210BD10B50020A4
:100F8000FFF7E0FF00F07DF808B9002010BDFFF783
:100F900087FE0120FAE72DE9F04105460C46174689
:100FA0004FF00008FFF77CFEFFF7E8FF10B1FF20CD
:100FB000BDE8F08100F065F808B1FF20F8E745F0E2
:100FC0004000FFF7D3FF200EFFF7D0FFC4F3074028
:100FD000FFF7CCFFC4F30720FFF7C8FFE0B2FFF72D
:100FE000C5FF3846FFF7C2FF0C2D02D1FF20FFF7E7
:100FF000BDFF4FF01F0800BFFF20FFF7B7FF0646F9
:1010000006F0800030B1B8F10000A8F1010101F054
:10101000FF08F1D13046CBE770B506460D4600F02B
:1010200030F808B1012070BD2846FFF79FFFFD2D65
:1010300019D0002404E0305DFFF798FF601C84B2F3
:10104000B4F5007FF7DBFF20FFF790FFFF20FFF7ED
:101050008DFFFF20FFF78AFF044604F01F000528DC
:1010600001D00220DFE70020DDE710B507210020D6
:1010700000F062F910BD10B50721002000F05CF906
:1010800010BD10B5002406E0FF20FFF76FFFFF281A
:1010900001D1002010BD2046641C4FF6FF7188422C
:1010A000F2D30120F6E700002DE9F04106460F4695
:1010B000154620480078062800D07F02012D0CD16B
:1010C000012239461820FFF766FF04466CBBFE215B
:1010D0003046FFF7A1FF044627E0164800780128B4
:1010E00009D0012200213720FFF755FF01222946B0
:1010F0001720FFF750FF012239461920FFF74BFF59
:10110000044694B900BFFC213046FFF785FF044632
:1011100006F50076681EC0B2051E01D0002CF2D084
:10112000FD210020FFF778FF0446FFF7B9FD2046B8
:10113000BDE8F0811400002021B1028842F0400295
:10114000028004E002884FF6BF731A4002807047A5
:1011500010B50446204600F017F80721204600F09D
:10116000EBF810BD10B50446054951F82400FFF70F
:1011700047FB044951F8240000F05AF810BD000064
:1011800018000020444A00081CB504461E4951F8C6
:1011900024000121FFF752FD1C4830F814001C49BF
:1011A00031F8141008431B4931F81410084300901B
:1011B00002208DF8040000208DF8060003208DF831
:1011C000050001208DF8070069461348FFF7C6FBAC
:1011D000124B1A5D124B195D124B53F82400FFF7A6
:1011E000ABFC0E4B1A5D104B195D0E4B53F82400EF
:1011F000FFF7A2FC094B1A5D0C4B195D094B53F824
:101200002400FFF799FC1CBD504A00085C4A000806
:10121000624A0008684A000800000240774A000855
:101220006E4A000818000020714A0008744A00083D
:1012300010B504462448844208D101218014FFF7E8
:101240000DFD0021A014FFF709FD3CE01F4884427A
:1012500008D101210014FFF7E1FC00212014FFF761
:10126000DDFC30E01A48844208D10121C013FFF7A9
:10127000D5FC0021E013FFF7D1FC24E0154884429F
:1012800008D101214014FFF7E9FC00216014FFF7A9
:10129000E5FC18E01048844209D101210805FFF758
:1012A000DDFC00214FF48010FFF7D8FC0BE00B4869
:1012B000844208D101214805FFF7D0FC00214FF4FA
:1012C0000010FFF7CBFC10BD00300140003800409B
:1012D000003C0040003401400050014000540140F7
:1012E0000246002013890B400BB1012000E00020D2
:1012F00070470146888970478181704710B5002288
:10130000028802F441520B884C8823438C88234383
:10131000CC8823430C8923434C8923438C89234362
:10132000CC8923431A430280838B4FF2FF742340FE
:1013300083830B8A038210BD70B586B005460E46C6
:10134000082E15D2DFE806F012100E0C0A0806046B
:1013500038240FE030240DE028240BE0202409E09D
:10136000182407E0102405E0082403E0002401E02D
:10137000382400BF00BF45B901210803FFF76EFC08
:1013800000214FF48050FFF769FC0020ADF8040005
:101390004FF48270ADF806000020ADF8080002207E
:1013A000ADF80A000120ADF80C004002ADF80E00C7
:1013B000ADF810400020ADF812000720ADF8140081
:1013C000084951F8250001A9FFF798FF054951F890
:1013D00025000121FFF7B0FEFF21002000F004F8F6
:1013E00006B070BD444A00082DE9F04104460F469E
:1013F000002506E0681CC5B2C82D02DD0020BDE84E
:10140000F081134951F824000221FFF769FF0028F9
:10141000F0D00F4951F824003946FFF76DFF002541
:1014200005E0681CC5B2C82D01DD0020E7E70849CA
:1014300051F824000121FFF753FF0028F1D004499F
:1014400051F82400FFF755FFC6B23046D7E7000039
:10145000444A000801461C48814201D200207047DE
:101460001A48814201D20820F9E71948814201D285
:101470001020F4E71748814201D21820EFE7164800
:10148000814201D22020EAE71448814201D228207B
:10149000E5E71348814201D23020E0E7114881425C
:1014A00001D23820DBE71048814201D24020D6E744
:1014B0000E48814201D24820D1E70D48814201D235
:1014C0005020CCE75820CAE7004000080080000800
:1014D00000C0000800000108000002080000040825
:1014E000000006080000080800000A0800000C08B8
:1014F00000000E0801460868704710B5FFF75CF958
:1015000040F2F310FFF7A0F8FFF724F910BD000038
:1015100070B50925FFF750F90020FFF79BF8134C31
:101520001348844215D210E02046FFF7E3FF401C29
:1015300050B12046FFF78EFF06460221FFF79CF8C8
:101540000546092D01D003E0241D0A488442EBD34F
:1015500000BF0120FFF77EF8FFF7FCF8092D01D14D
:10156000002070BD4FF0FF30FBE700000080000856
:101570000000FF1FFBFF0708704700000CB50020AC
:10158000019000904148006840F480303F49086075
:1015900000BF3E48006800F4003000900198401CF5
:1015A0000190009818B90198B0F5A04FF1D13748D3
:1015B000006800F4003010B10120009001E000202C
:1015C00000900098012860D130484030006840F019
:1015D00080502E49403108602D48006840F440405A
:1015E0002B490860294808300068284908310860FC
:1015F0000846006840F4004008600846006840F46F
:10160000A05008602348091F0860081F006840F0C8
:101610008070091F086000BF1C48006800F000705F
:101620000028F9D01A48006840F480301849086052
:1016300000BF1748406800F480300028F9D01448F3
:10164000006840F400301249086000BF104840684C
:1016500000F400300028F9D040F205700E4908600F
:101660000A480830006820F0030008490831086083
:101670000846006840F00200086000BF03480830D8
:10168000006800F00C000828F8D10CBD00380240BA
:1016900000700040085A4077003C024010B50848EE
:1016A0000068401C0649086008460068401C08B9EC
:1016B000002008600248006800F08CF910BD0000AE
:1016C0002400002010B51548006840F4700013494C
:1016D00008601348006840F00100114908600020CC
:1016E0000F49083108600E4800680E4908400C494F
:1016F00008600D48091D0860081F006820F480205C
:10170000091F0860002006490C310860FFF736FF0A
:101710004FF0006001498039086010BD88ED00E09D
:1017200000380240FFFFF6FE1030002400BFFEE745
:101730002DE9FC4100F0ABF800F0A1F810B1052054
:10174000BDE8FC8100F0E8F805460DB12846F7E752
:10175000002600BF4FF0FF30009001AB0422694625
:101760002B4801F007FB0446019868B1009800F08F
:10177000FFF805460DB9761C06E0254801F040F952
:1017800002F01EF80620DBE714B901980028E1D129
:1017900000F0E4F801221FA11D4801F06DF9044694
:1017A0001CB102F00DF80720CAE71E4F002600BF4B
:1017B0004FF0FF30009001AB04226946144801F05D
:1017C000D9FA0446019868B138680099884202D174
:1017D0003F1D761C06E00E4801F012F901F0F0FF03
:1017E0000720ADE714B901980028E1D1084801F0BD
:1017F00007F90DA001F0CDFF10B10BA001F09AFD8B
:1018000009A104A001F0BDFB01F0DAFF002097E779
:10181000B80400206669726D776172652E62696E28
:1018200000000000008000086F6C642E62696E008A
:1018300000B500F005F808B9002000BD0420FCE761
:1018400005480068A0F10050B0F5003F01D8002025
:1018500070470220FCE700000080000802460B46AB
:101860004FF4F0210020891A984101D300207047DD
:101870000320FCE710B5FFF722FA002010BD10B5D9
:10188000FFF746FE08B9002010BD0520FCE710B5A3
:10189000FFF733FE002010BD10B501F08DFF08B931
:1018A000012010BD01220EA1114801F0E5F818B188
:1018B00001F086FF0220F4E70D48D0E9042110462C
:1018C000FFF7CCFF30B10A4801F09AF801F078FF39
:1018D0000320E6E7064801F093F80020E1E7000066
:1018E0006669726D776172652E62696E0000000034
:1018F000B804002070B506484468254605490860CC
:101900000146086880F3088800BFA84770BD000042
:101910000080000808ED00E010B5012208A10C4885
:1019200001F0AAF804461CB101F04AFF022010BDE4
:10193000084809490860FEF73FFF0020F7E700006C
:101940006669726D776172652E62696E00000000D3
:10195000B8040020008000083800002010B5FEF711
:10196000F9FE024801F04CF8002010BDB804002038
:1019700010B50446144800681449884204D8124837
:1019800000681349884203D2FEF7E4FE062010BD2A
:1019900021460D480068FEF7E7FE09280ED10A48E7
:1019A00000680068A04203D0FEF7D4FE0620EEE7F0
:1019B00005480068001D0449086003E0FEF7CAFE00
:1019C0000620E4E70020E2E738000020FCFF0708DB
:1019D0000080000810B504466420B4FBF0F100FB61
:1019E000114018B908210248FFF7E2F810BD0000C5
:1019F000000C024010B508210348FFF7C0F8002191
:101A00000820FFF7EBF810BD000C02401CB50121C7
:101A10000820FFF7E3F801208DF8040002208DF87C
:101A200005000820009069460348FEF797FF08214B
:101A30000148FFF7A6F81CBD000C02402DE9F04755
:101A400004460D4690469946AD1E606B00EB153A74
:101A5000C5F3C80605F0070101208840C7B200BFE2
:101A600051460AF1010A204602F01EFC10B1012085
:101A7000BDE8F08700BF00BF04F13C00805D384046
:101A800008B1012000E00020484501D10220EFE725
:101A900004F13C00805D784004F13C018855012050
:101AA000E070A8F10100B0F1000800D1E0E778068D
:101AB000000E071EE0D10127701C0646B0F5007F1E
:101AC000D9D30026CCE7000070B504460D460020AF
:101AD000E070401EA0632946204602F0E5FB08B1F5
:101AE000042070BD04F23A2002F05FF84AF6552156
:101AF000884201D00320F4E70B2214A104F13C003A
:101B000002F01FF908B90120EBE794F83C00E9283E
:101B100007D094F83C00EB2803D094F83C00E82868
:101B200011D103220CA104F1720002F00AF908B9E4
:101B30000020D6E7052209A104F18E0002F001F988
:101B400008B90020CDE70220CBE70000EB769045F6
:101B50005846415420202000464154004641543309
:101B600032000000024600E0521C107810B11078DC
:101B70008842F9D1107870470246891ED069801ECC
:101B8000884201D8002070475389106B03FB010085
:101B9000F9E700002DE9F04780460C4604F11A00F1
:101BA00002F003F810B10020BDE8F087207800F0C3
:101BB0003F00401E00EB800101EBC0054FF0010922
:101BC000002621E01849895D081901F0EEFF07465B
:101BD000B9F1000F11D0FF2D0BD8384601F054FC9D
:101BE000824629466D1C38F8110001F04DFC8245F3
:101BF00001D00020D8E7B94605E04FF6FF708742D4
:101C000001D00020D0E7761C0D2EDBD3207800F029
:101C1000400038B1B9F1000F04D038F8150008B110
:101C20000020C1E70120BFE7844A00082DE9F04702
:101C300006468A463468BAF1000F0AD1D4F81480F7
:101C4000B8F1000F02D0E069404516D84FF0010806
:101C500013E05146304601F01DFE0746022F02D226
:101C60000120BDE8F087781C08B93846F9E7E0693B
:101C7000B84201D93846F4E7D046A06908B9002037
:101C8000EFE7207804284ED101224146204601F09A
:101C900090FC05460DB1681C08B92846E1E7012310
:101CA0001A4629462046FFF7C9FE8146B9F1020FC0
:101CB00001D10120D5E7B9F1010F02D14FF0FF307A
:101CC000CFE7BAF1000F02D10220F0710CE0F079F9
:101CD000022809D108F10100854205D0B068A8EBBF
:101CE0000000B0610320F071F079022869D00AF198
:101CF0000100854207D1F06910B1F069401C00E095
:101D00000220F0615DE0F06908B90120F0612A4627
:101D10005146304601F02BFC8146B9F1000F50D1FD
:101D20000120F0614DE00025D04519D108F10105F1
:101D3000E069A84200D802252946304601F0AAFDF4
:101D40000746012F01D0781C08B9384689E73FB112
:101D50006769022F03D3E069B84200D9B84600256D
:101D6000E5B9454600BF6D1CE069A84204D80225CC
:101D7000454501D9002074E72946304601F08AFD27
:101D8000074607B909E0012F01D0781C08B9384689
:101D900067E74545E7D1002063E700BF4FF0FF321A
:101DA0002946204602F0E0FA8146B9F1000F08D139
:101DB000BAF1000F05D02A465146204602F0D4FA67
:101DC0008146B9F1000F0DD16561D4E90610801E7E
:101DD000814202D8A069401EA061207940F0010034
:101DE000207107E0B9F1010F02D14FF0FF3000E0A0
:101DF00001200546284634E72DE9F34F83B081469C
:101E0000049800680090D9F80000D0F80CA00025D4
:101E100000BF684602F038FD83460BF1010018B997
:101E2000062005B0BDE8F08FBBF5803F05D34FEA33
:101E30001B4228466D1C2AF810201FFA8BF4202C18
:101E400003DB2F2C01D05C2C00D111E0802C06DAB2
:101E500021467BA0FFF786FE08B10620E1E7FF2DB3
:101E600001D30620DDE728466D1C2AF81040D0E794
:101E700000BF202C01DA04260CE0002602E00098C6
:101E8000401C0090009800782F28F8D00098007827
:101E90005C28F4D000990498016008E0681E3AF8C4
:101EA0001040202C02D02E2C00D002E06D1E002D00
:101EB000F4D100BF00202AF815000DB90620B0E7C4
:101EC000002700E07F1C3AF817002028FAD01FB93D
:101ED0003AF817002E2801D146F0030600E06D1EE7
:101EE00025B1681E3AF810002E28F8D10B222021C7
:101EF00009F1400001F044FF4FF00008CDF80880E0
:101F00000820019000BF38467F1C3AF8104004B901
:101F10006AE0202C03D02E2C04D1AF4202D046F030
:101F20000306F0E7DDE90110884201D2AF4216D185
:101F300001980B2802D146F0030655E0AF4201D0CC
:101F400046F00306AF4200D94EE02F46082002902B
:101F50000B2001904FEA88604FEA1068D3E7802C8D
:101F60000EDB46F0020640F2B511204601F06CFA95
:101F7000044604F0800018B104F07F0033490C5C83
:101F8000FF2C11DD0198401E0299884204D846F0CA
:101F9000030601980290B6E722120298411C0291B2
:101FA00009F140010A5418E024B1214628A0FFF7A6
:101FB000D9FD18B15F2446F003060EE0412C03DB87
:101FC0005A2C01DC48F00208612C06DB7A2C04DC78
:101FD00048F00108A4F1200084B20298411C02914B
:101FE00009F140010C548EE700BF99F84000E52844
:101FF00002D1052089F840000198082803D14FEA52
:1020000088604FEA106808F00C000C2803D008F034
:102010000300032801D146F0020606F0020048B989
:1020200008F0010008B146F0100608F0040008B1FD
:1020300046F008064B2000F809600020F1E6000099
:10204000222A3A3C3E3F7C7F00000000914A000873
:102050002B2C3B3D5B5D00002DE9F04704460E460E
:1020600040220021204601F08BFE85202070C020F8
:1020700084F8200040250020804607464FF00109E3
:1020800000BFC12228466D1C2254002228466D1C28
:10209000225400BFB9F1000F06D036F81700B0F196
:1020A000000901D0781CC7B26019494602F02FFB25
:1020B000AD1C05F01F000028ECD108F1010000F074
:1020C000FF0836F817000028DBD184F8237008F1E8
:1020D00001006070304602F078FC8246514604F1FF
:1020E000240002F014FBBDE8F087014609B100208E
:1020F00070470020FCE72DE9F04104460E46D4F875
:1021000000800021204600F0A2FB05465DBB0027B1
:1021100000BF4046A16B02F0C7F8054605B121E0BB
:1021200098F80000042805D1E06B0078012121EA2D
:10213000D01009E0E06B0078E52802D0E06B007871
:1021400008B9012000E0002020B1781C0746B04209
:1021500001D107E000270121204600F041F90546A2
:10216000002DD6D000BF042D00D107252846BDE89C
:10217000F0812DE9F04704468946204602F05EFBD7
:1021800010B10120BDE8F08749462046FFF7F4FC76
:102190000746A7634FF40072002104F13C0001F0F0
:1021A000EFFD60894FF40041B1EB402F01D80846A4
:1021B00001E06089400206464FF0000800E0760822
:1021C000B6F5007F05D9304601F032F9B0F10008CC
:1021D000F5D0B6F5007F17D932460021404601F010
:1021E000CFFD760A002500E035446089A84207D972
:1021F0007A1960783346414600F0D6FB0028F3D0C8
:10220000404601F01BF910E004F13C0801260025CE
:1022100000E035446089A84207D97A1960783346CE
:10222000414600F0C1FB0028F3D06089A84201D0EC
:102230000120A7E70020A5E72DE9F04F85B004466F
:1022400025680021204600F002FB07461FB13846F2
:1022500005B0BDE8F08F287804284CD1E86802F07A
:10226000B4FB01903EE0296901F1240001F09DFCDE
:102270000199884200D035E0286990F82300039046
:102280004FF0400A002002901FE00AF01F0008B93A
:102290000AF1020A296901EB0A0001F086FC0090AC
:1022A00001F0F2F88346EA68029932F8110001F071
:1022B000EBF8834500D00BE00398401EC0B20390BA
:1022C0000AF1020A0298401C029003980028DCD10F
:1022D00000BF039828B9E968029831F8100000B9E6
:1022E00006E000BF0021204600F0EAF8071EBAD041
:1022F00000BF3846ACE74FF0FF09CDF810904FF023
:10230000FF30E06400BF2846A16B01F0CDFF074617
:1023100007B162E0E06B06780EB904275DE0E06B80
:10232000C07A00F03F0884F80680E52E05D008F05A
:10233000080040B1B8F10F0F05D04FF0FF094FF082
:10234000FF30E06442E0B8F10F0F22D14B20005D76
:1023500000F04000A0BB06F0400038B1E06B407BCD
:10236000049006F0BF06B146206BE0644E450CD1E8
:10237000E06B417B0498814207D1E16BE868FFF78D
:1023800009FC10B1A9F1010000E0FF2000F0FF09F5
:102390001CE0B9F1000F06D1E06B02F0F7F90499E7
:1023A000884200D119E04B20005D00F0010040B9E7
:1023B0000B2204F14001E06B01F0C3FC08B90CE012
:1023C00004E04FF0FF094FF0FF30E06400212046A9
:1023D00000F006F80746002F95D000BF384637E7D3
:1023E0002DE9F041044688462768206B00F120065D
:1023F0003878042801D1800601E04FF40010B04283
:1024000001D80020A063A06B10B90420BDE8F081C2
:10241000C6F3080000284AD1A06B401CA063606B83
:1024200038B93889B0EB561F41D80020A06304208A
:10243000ECE77889401E00EA5620002837D1204674
:10244000616B01F027FA0546012D01D80220DDE776
:10245000681C08B90120D9E7F869A84221D8B8F169
:10246000000F03D10020A0630420CFE72046616B5A
:10247000FFF7DCFB05460DB90720C7E7012D01D1A9
:102480000220C3E7681C08B90120BFE72946384687
:10249000FFF76FFE08B10120B8E7E07940F00400D3
:1024A000E071656329463846FFF766FBA063266343
:1024B000C6F3080107F13C000844E0630020A5E7EB
:1024C0002DE9F05F04468A46042627684FF0FF098D
:1024D000CB4667E03846A16B01F0E6FE064606B142
:1024E00063E0E06B05780DB904265EE038780428D7
:1024F0000FD100BF852D4ED1206BE064204601F046
:102500007AFB064626B93869007900F03F00A071D1
:102510004BE0E06BC07A00F03F0884F80680E52DC0
:102520000AD02E2D08D028F02000082801D1012043
:1025300000E00020504502D04FF0FF092BE0B8F139
:102540000F0F1CD105F0400038B1E06B90F80DB0D2
:1025500005F0BF05A946206BE0644D450BD1E06B4B
:10256000407B584507D1E16BF86801F0B7FE10B128
:10257000A9F1010000E0FF2000F0FF090BE0B9F134
:10258000000F04D1E06B02F001F9584502D04FF082
:10259000FF30E06409E000212046FFF721FF0646F6
:1025A00006B102E0A06B002894D100BF0EB100205C
:1025B000A0633046BDE8F09F2DE9F04F99B0044686
:1025C00026684B20005D00F0A00018B1062019B06D
:1025D000BDE8F08F4FF0000B01E00BF1010BF0684C
:1025E00030F81B000028F8D13078042866D10BF1B0
:1025F0000E000F21B0FBF1F000F102094946204620
:10260000FFF779FD05460DB12846E0E7A9F1010085
:102610002022216B02FB1010E064E07900F004003E
:10262000002845D0E07920F00400E071204600F059
:1026300083FF05460DB12846C9E74FF0FF3220461B
:10264000616B00F094FF05460DB12846BFE7A06816
:1026500070B32146684601F0AEFA05460DB1284632
:10266000B5E770894002D4E90431181841F100013E
:10267000C4E90401D4E90473316901F138003A4630
:1026800002F017F8D4E90473316901F128003A46E1
:1026900002F00FF8E07940F00100316981F8210083
:1026A000684602F03AF805460DB128468FE700BFAC
:1026B000D6E90310FFF7D0FC002088E70C2204F1D4
:1026C000400115A801F04FFB9DF85F0000F00100EC
:1026D00028B340214B2001554FF0010A0EE053462C
:1026E00015A904F14000F26801F06EF82046FFF7EA
:1026F000A3FD054605B104E00AF1010ABAF1640F31
:10270000EDD300BFBAF1640F01D107205FE7042DBC
:1027100001D028465BE79DF85F104B2001559DF8DE
:102720005F0000F0020030B10BF10C000D21B0FB96
:10273000F1F0401C00E00120814649462046FFF7A9
:10274000DAFC054675BBA9F10100B0F1000929D0FA
:10275000206BA0EB4911204600F079F805460DBB2F
:1027600004F1400002F012F8149000BF3046A16B53
:1027700001F09AFD054605B113E009F0FF02E16B97
:10278000F068149B01F092FE0120F07000212046B9
:10279000FFF726FE054625B9A9F10100B0F10009B1
:1027A000E4D100BFC5B93046A16B01F07DFD0546FF
:1027B00095B920220021E06B01F0E2FA0B2204F12E
:1027C0004001E06B01F0CFFA4B20005D00F01800F3
:1027D000E16B08730120F0702846F8E62DE9F0411E
:1027E00004462668276BE06C401C08B9002003E013
:1027F0002046E16C00F02BF805462DBB00BF3046AB
:10280000A16B01F051FD054605B119E030780428AF
:1028100006D1E06B007800F07F00E16B087002E009
:10282000E520E16B08700120F070206BB84200D306
:1028300006E000212046FFF7D3FD0546002DDED03F
:1028400000BF042D00D102252846BDE8F0812DE906
:10285000F04104460D4626683078042801D18006F0
:1028600001E04FF40010A84202D905F01F0010B19A
:102870000220BDE8F0812563A7682FB930780328CE
:1028800002DBF76A0020E07147B93089B0EB551FD1
:1028900001D80220EDE7F06AA0631CE070894FEADE
:1028A000402811E03946204600F0F4FF0746781C26
:1028B00008B90120DDE7022F02D3F069B84201D840
:1028C0000220D6E7A5EB08054545EBD23946304650
:1028D000FFF752F9A0636763A06B08B90220C8E74D
:1028E000A06B00EB5520A063C5F3080106F13C0086
:1028F0000844E0630020BCE770B50446002504E00E
:1029000001200D494855681CC5B2022DF8DB14B1F1
:10291000012C0BD109E0FEF7EFF928B90648005D5C
:1029200020F001000449085502E001E0042070BDD8
:1029300000BF0148005DFAE72800002003460BB9FC
:10294000002070470420FCE72DE9F04104460E46C4
:1029500017461D4615B90420BDE8F0810C48005DFE
:1029600000F0010008B10320F6E714B1012C0CD1EE
:1029700009E0EAB239463046FEF78EFA08B900207F
:10298000EAE70120E8E70120E6E70420E4E70000A9
:10299000280000200146022901DB01207047014880
:1029A000405CFBE7280000202DE9F04104460E467C
:1029B00017461D4615B90420BDE8F0810F48005D9B
:1029C00000F0010008B10320F6E70C48005D00F0BC
:1029D000040008B10220EFE714B1012C0CD109E08A
:1029E000EAB239463046FEF75FFB08B90020E3E75C
:1029F0000120E1E70120DFE70420DDE728000020D7
:102A000038B50546284600F0BFFB04463CB9694688
:102A1000284601F09FFF04460CB90020286020469C
:102A200038BD0000F7B582B016460398019001A8A2
:102A300000F0F8FF0546002D02DA0B2005B0F0BDCE
:102A40000C4850F825400CB100202070029810B1BD
:102A50000020029908700749029841F825000EB934
:102A60000020EBE7002202A903A801F0E3F90746E2
:102A70003846E3E72C0000202DE9F74F98B00446D4
:102A800016461CB909201BB0BDE8F08F06F03F06C2
:102A9000324603A919A801F0CDF90546002D7AD1D7
:102AA000039804904FF48C6000F0C2FC8346BBF1A5
:102AB000000F01D11120E6E70398C0F80CB00BF528
:102AC00000700399086104A8199900F000FE0546FA
:102AD0002DB99DF85B0000F0800000B1062506F0DE
:102AE0001C0000287DD045B1042D03D104A8FFF7B8
:102AF00063FD054646F008060AE09DF8160000F062
:102B0000110008B1072503E006F0040000B1082514
:102B1000002D3FD106F0080000283BD00398007834
:102B2000042839D1039820602146039800F0D4FF8F
:102B300003990969881C1E22002101F021F90399DB
:102B4000096901F126001A22002101F019F920205B
:102B50000399096908710399096901F10800844919
:102B600001F09BFD01200399096981F8210004A867
:102B700001F0D3FD0546002D53D1A068002850D0A8
:102B800000222046A16801F0D1FC0546A068401E45
:102B90000399486145E0E5E01399039800F0B5FF1B
:102BA0000290139901F10E00714901F076FD202089
:102BB0001399C87200221399039801F05CFD1399D0
:102BC00001F11C00002101F068FD01200399C8708B
:102BD000029830B30398806B0190002204A80299F8
:102BE00000E00DE001F0A2FC0546D5B9019903987B
:102BF00001F05AFB05460298401E0399486110E017
:102C00007DB99DF8160000F0100008B1042508E019
:102C100006F0020028B19DF8160000F0010000B196
:102C200007254DB906F0080008B146F040060398A4
:102C3000806BA0641398E064002D7BD1039800782A
:102C400004280FD106982062089820F0FF009DF814
:102C50001710084360621798A0622146039800F09D
:102C60003BFF0CE01399039800F04FFFA06013990D
:102C700001F11C0000F05CFF0021C4E9040103988D
:102C800020600398C088A08084F83060002084F819
:102C9000310060640021A163E1634FF4007204F12C
:102CA000500001F06DF806F02000002857D00023F6
:102CB000D4E9041059405840014350D0D4E90401EC
:102CC000C4E90E01039840894FEA4029D4F808A0CE
:102CD000D4E9047810E05146204600F0DBFD82463E
:102CE000BAF1010F00D802250AF1010000B901254F
:102CF000B7EB090768F100082DB90020B9EB07010F
:102D000070EB0800E7D3C4F840A09DB94FF40072FF
:102D1000002338464146FDF71FFB00214A404B4047
:102D20001A431CD051460398FEF726FF01900198E4
:102D300008B9022513E04FF40072002338464146DB
:102D4000FDF70AFB019908446064626C03994878B6
:102D5000012304F15001FFF7F7FD00B101255846AA
:102D600000F06CFB0DB10020206028468BE60000CF
:102D70000000214E2DE9FF4F87B004461546089804
:102D8000039000210A98016005A9204601F0E2FDA8
:102D90000690069818B994F83100069018B1069874
:102DA0000BB0BDE8F08F94F8300000F0010008B9D6
:102DB0000720F5E7D4E90430D4E90E125F1A60EB7E
:102DC0000208791B78F1000000D23D46D4E0D4E936
:102DD0000E014FF400720023CDE90001FDF7BCFAAB
:102DE00000214A404B401A4370D1D4E90E014FF400
:102DF00000720023CDE90001FDF7AEFA059949897B
:102E0000491E00EA010ABAF1000F1ED10023D4E9DD
:102E10000E1059405840014302D1A068049004E0CC
:102E20002046216C00F036FD04900498022803D25D
:102E3000022084F83100B3E70498401C18B901203F
:102E400084F83100ACE704982064216C0598FEF703
:102E500093FE8146B9F1000F03D1022084F83100BE
:102E60009EE7D1444FEA552BBBF1000F2FD00AEB60
:102E70000B0005994989884203D905984089A0EB40
:102E80000A0B059948785B464A460399FFF75CFDB3
:102E900018B1012084F8310082E794F8300000F086
:102EA000800080B1606CA0EB090058450BD2616CCA
:102EB000A1EB0901039A02EB41204FF4007204F1E7
:102EC000500100F050FF4FEA4B2645E029E0606CCE
:102ED000484524D094F8300000F0800090B1626C36
:102EE00005994878012304F15001FFF75DFD18B101
:102EF000012084F8310053E794F8300000F07F009F
:102F000084F830000599487801234A4604F15001BD
:102F1000FFF71AFD18B1012084F8310040E7C4F82A
:102F20004490208FC0F30800C0F50076AE4200D96F
:102F30002E46D4E90E014FF400720023CDE90001C2
:102F4000FDF70AFA04F1500010443246014602909F
:102F5000039800F008FF00BFAD1B0A9800688119B4
:102F60000A980160039830440390D4E90E20921926
:102F700040F10000C4E90E20002D7FF428AF0020AE
:102F80000EE72DE9F347BAB03BA800F04BFD022253
:102F900011A93AA800F04EFF0446002C7DD11198EB
:102FA00026904FF48C6000F043FA06461EB91120BB
:102FB0003CB0BDE8F0871198C66006F50070119925
:102FC000086126A83A9900F082FB04462CB99DF8C6
:102FD000E30000F0A00000B10624002C7BD1119882
:102FE000007804285DD111984022016901A800F001
:102FF000BAFE502226A912A800F0B5FE12A83B99ED
:1030000000F065FB04465CB928991498884205D104
:1030100032991E98884201D1042000E0082004461D
:10302000042C3DD112A8FFF7C7FA0446B4BB11988F
:10303000006990F801801198006990F82390119927
:10304000096901F1240000F0B0FD82461199402287
:10305000086901A900F087FE1198006980F80180D5
:103060001198006980F823901199096901F12400F1
:10307000514601F04CFB11980069007900F01000F6
:1030800038B911980069007940F020001199096958
:10309000087112A801F041FB01E072E000E0044673
:1030A00062E0202201A8359900F05DFE502226A999
:1030B00012A800F058FE12A83B9900F008FB044645
:1030C00064B928991498884206D132991E9888428A
:1030D00002D1042001E051E008200446042C43D131
:1030E00012A8FFF769FA04464CBB219D13220DF18B
:1030F000110105F10D0000F036FE9DF80F00E87299
:10310000E87A00F0100018B9E87A40F02000E87280
:1031100001201199C870E87A00F0100078B1149974
:103120002898884220D02946119800F0EEFC80466D
:1031300041461198FEF720FD07460FB9022413E01F
:103140003946119801F0B0F80446119800F15C0579
:1031500054B968782E2807D12946149A119801F09D
:103160008AFA01201199C87044B926A8FFF736FBE6
:1031700004461CB9119801F019FB0446304600F0D2
:103180005DF9204614E700002DE9F04796B00446AB
:1031900014A9204601F0DEFB0546002D7ED194F8EF
:1031A000300000F04000002878D094F8300000F0A3
:1031B000800090B1626C14994878012304F15001A9
:1031C000FFF7F2FB18B1012016B0BDE8F08794F8C4
:1031D000300000F07F0084F83000DFF854A114982C
:1031E0000078042875D1204600F0A6F9054635B9C7
:1031F0004FF0FF322046216C00F0B9F90546002D52
:10320000CCD14FF48C6000F013F98146B9F1000F76
:1032100001D11120D8E71498C0F80C9009F500707E
:10322000149908612146684600F0C5FC0546002D4A
:103230004AD114980069007940F020001499096976
:103240000871E07940F001001499096981F82100C2
:10325000A168149A126902F1340001F01EFAD4E94F
:1032600004731499096901F138003A4601F021FA12
:10327000D4E904731499096901F128003A4601F070
:1032800018FA1499096901F10C00514601F005FA88
:103290000020149909694875149900E045E009690E
:1032A00001F11000002101F0F8F9684601F035FA4B
:1032B00005464DB9149801F079FA054694F83000A6
:1032C00000F0BF0084F83000484600F0B7F82CE06A
:1032D000FFE7A16C149800F0E7FF05462DBBE66CF4
:1032E000F07A40F02000F0723146A268206801F0C8
:1032F000C2F906F11C00216901F0CFF9514606F12F
:10330000160001F0CAF9002106F1120001F0FFF9E0
:1033100001201499C870149801F048FA054694F8F1
:10332000300000F0BF0084F8300028464CE7000071
:103330000000214E71B5B7B0002602220DA937A8B2
:1033400000F078FD0446002C70D10D9822904FF4C7
:103350008C6000F06DF8054615B9112038B070BDCD
:103360000D98C56005F500700D99086122A8379980
:1033700000F0ADF9044600BF002C54D19DF8D300F5
:1033800000F0800008B1062405E09DF88E0000F0F2
:10339000010000B10724A4BB0D9800900D9800789F
:1033A000042805D169460D9800F096FB029E04E0C2
:1033B00031990D9800F0A9FB06469DF88E0000F0AB
:1033C0001000F0B10D980E9010960D98007804281A
:1033D00007D1DDE90401CDE912019DF807008DF860
:1033E0003F0000210EA8FFF732FA04464CB9002135
:1033F0000EA8FFF765F8044604B90724042C00D191
:10340000002484B922A8FFF7E9F9044634B92EB1A3
:1034100000223146684601F089F804461CB90D982F
:1034200001F0C4F90446284600F008F8204695E764
:1034300010B504462046FCF739FF10BD10B5044610
:103440002046FCF762FF10BD10B5024600200D4B70
:10345000802A01D290B213E0B2F5803F10D240F240
:10346000B514A1420CD1002001E0441CA0B2802878
:1034700003DA33F810409442F7D100F18004E0B24F
:1034800010BD0000124B000870B5B0F5803F4DD262
:1034900081B2B1F5805F01DA254E00E0254E32465B
:1034A00000BF32F8023B0BB1994200DA3CE032F83F
:1034B000024B2512E4B21E198E4230DD092D2CD2AA
:1034C000DFE805F005090F13171B1F232700CE1A8D
:1034D00032F8161021E0CE1A06F001068E1BB1B2AA
:1034E0001BE0A1F11006B1B217E0A1F12006B1B2C4
:1034F00013E0A1F13006B1B20FE0A1F11A06B1B2AA
:103500000BE001F10806B1B207E0A1F15006B1B23B
:1035100003E0A1F5E356B1B200BF00BF04E0002D07
:10352000BFD102EB4402BCE700BF084670BD0000FB
:10353000124C0008044E00082DE9F0410446E079E1
:10354000032812D1A568A7690BE06A1C29462068E8
:1035500000F00AFF064616B13046BDE8F0816D1C4A
:103560007F1E002FF1D10020E0710020F5E72DE94A
:10357000F04104460D46174616E0E369012B03D9D6
:10358000E369EB1A9B1C00E03B461A46E369EB1A21
:10359000591C206800F0E8FE064616B13046BDE82A
:1035A000F081E069401EE061E0690028E5D100BFDC
:1035B000F5E72DE9F74F05460E46B61EE869801E71
:1035C000B04200D800263446A2464FF0000B00BFA0
:1035D000686B00EB1431284600F066FE18B14FF01E
:1035E000FF30BDE8FE8FC4F3C80904F007010120D5
:1035F0008840C7B200BF00BF05F13C0010F80900C9
:1036000000EA07087806070E601C0446E969891E6F
:10361000884203D3002400274FF40079B8F1000F4B
:1036200008D10BF1010083460299884205D10AF1C5
:103630000200D6E7A2464FF0000BB44201D10020B1
:10364000CFE7002FD8D1012709F101008146B0F55D
:10365000007FD0D3BCE72DE9FF4107460D4600218E
:103660003846FEF731FA0646022E06D0032E00D267
:103670001DB9304604B0BDE8F08100BF00240AE067
:1036800007F5FD7101EB041101F1080000F050FA9B
:103690004DF82400641C042CF2D30DB1681E00E028
:1036A0000020044600BF5DF8240028B15DF8241016
:1036B0003846FEF709FA00E0032006462DB9022E2F
:1036C00003D3601C04460428EDD33046D2E72DE92D
:1036D000F3410446276802E00198401C01900198DC
:1036E00000782F28F8D0019800785C28F4D00020CA
:1036F000A060E06101980078202808D280214B204A
:10370000015500212046FFF7A2F805463EE000BF24
:1037100001A92046FEF770FB054605B135E02046BD
:10372000FEF78AFD05464B20065D3DB1042D04D110
:1037300000BF06F0040000B9052526E006F00400ED
:1037400000B122E0A07900F0100008B905251CE0C6
:10375000387804280ED1A0682062206920F0FF008C
:10376000E17908436062E06CA0622146384600F0CF
:10377000B3F909E0208EC0F3080207F13C001118EC
:10378000384600F0C2F9A060C2E700BF2846BDE895
:10379000FC8110B5ADF5147D044600222146684633
:1037A000FFF76AF930B96846FFF72AF901200DF5ED
:1037B000147D10BD0020FAE710B500F02BFB10BD02
:1037C00010B501F0B9F810BD2DE9FF4F83B0804668
:1037D00091461E460B224046049900F0C4FA052E7D
:1037E00018D9374611E039F802BB00250BE05846DE
:1037F00067F35F0007464FEA6B0B07F4803008B1B0
:10380000234847406D1C102DF1D3B9F80000002863
:10381000E9D13E46072500BF06F00F0000F1300A4F
:10382000BAF1390F03DD0AF1070000F0FF0A28465C
:103830006D1E01A901F800A03609002EECD17E20F2
:10384000485500240AE018F80400FEF74EFC20B1A9
:10385000681EA04200D107E0641C641CAC4203D285
:1038600018F804002028EED100BF00BF082D04D2B4
:1038700028466D1C01A9085C00E020202146641C3C
:1038800008F80100082CF1D307B0BDE8F08F000064
:10389000211001002DE9FC5F06460C463568022C1C
:1038A00002D3E869A04202D84FF00109B7E04FF017
:1038B000FF392878012806D0022830D0032841D0CB
:1038C00004287CD152E0274607EB5707A86A00EB93
:1038D0005721284600F0E8FC00B19FE038467F1CE5
:1038E000C0F3080105F13C0010F80180A86A00EB64
:1038F0005721284600F0D8FC00B18FE0C7F308013B
:1039000005F13C00405C48EA002804F0010010B1D9
:103910004FEA181001E0C8F30B0081467EE0A86A68
:1039200000EB1421284600F0BFFC00B176E040F225
:10393000FF1101EA440205F13C01501800F035F98D
:1039400081466BE0A86A00EBD411284600F0ACFC7D
:1039500000B163E040F2FF1101EA840205F13C018D
:10396000501800F0E5F820F0704957E00022D6E941
:10397000041051405040014301D0B06808B9F079BB
:1039800090BBB068A4EB000AD6E90420521E60F197
:103990000000CDE900204FF400720023DDE90001B2
:1039A000FCF7DAFC6989B0FBF1FBF07902280AD157
:1039B000DA4508D8DA4503D16FF0004001E02AE08B
:1039C000601C81462AE0F079032805D1B069504592
:1039D00002D904F1010921E0F079022819D0F06937
:1039E00018B16FF0004913E014E0A86A00EBD4119D
:1039F000284600F059FC00B110E040F2FF1101EA46
:103A0000840205F13C01501800F092F820F00049C2
:103A100004E000BF00BF4FF0010900BF00BF4846EF
:103A2000BDE8FC9FF0B506464FF0FF30D6F800C069
:103A30006146634601B9F0BD00BF13F8012B202A8F
:103A400001D33A2AF9D13A2A40D1022591F800C08F
:103A5000BCF1300F0DDB91F800C0BCF1390F08DC70
:103A600001F1020C9C4504D191F800C0ACF1300585
:103A700027E0002500BFDFF85CC05CF825703168E6
:103A800000BF17F8014B11F8012B612C05DB7A2CD4
:103A900003DCA4F1200C0CF0FF04612A05DB7A2A78
:103AA00003DCA2F1200C0CF0FF020CB19442E8D030
:103AB0000CB9994205D005F1010C6546BCF1020F25
:103AC000D9DB022D01DA28463360B4E7002000BFBD
:103AD000B1E700007C4A000870B505460C4629692C
:103AE00001F1340000F024F8A060296901F13800E8
:103AF00000F02AF8C4E90401286990F8210000F0D8
:103B00000200E0710020E06170BD70B505460C4612
:103B100004F11A0000F049F806462878032805D178
:103B200004F1140000F041F846EA0046304670BD4A
:103B30000146C8788A7842EA00204A7842EA0020A2
:103B40000A7842EA0020704770B50246D379002413
:103B5000250245EA1364907940EA0323250245EAE9
:103B60001364507940EA0323250245EA136410796F
:103B700040EA0323250245EA1364D07840EA032390
:103B8000200240EA1364917841EA0323210241EACA
:103B90001364507840EA0323250245EA1364117840
:103BA00041EA03231846214670BD014648780A7849
:103BB00042EA0020704770B504460D462868206030
:103BC000286AA06095F82400E071686A20F0FF0080
:103BD0000021C4E904010020E061A86AE0642046F5
:103BE000E16CFEF734FE06461EB9204600F003F8ED
:103BF0000646304670BD2DE9F04704462068066948
:103C0000A16B206800F050FB054615B12846BDE8C1
:103C1000F087E06B0078852801D00220F7E72022AA
:103C20003046E16B00F09FF87078401C4FEA401876
:103C3000B8F1600F02D3B8F5187F01D90220E6E78A
:103C400000212046FEF7CCFB0546042D00D10225BD
:103C50000DB12846DBE7A16B206800F025FB054687
:103C60000DB12846D3E7E06B0078C02801D00220D0
:103C7000CDE7202206F12000E16B00F074F896F801
:103C800023002C300F21B0FBF1F0B8EB401F01D224
:103C90000220BCE7402700BF00212046FEF7A0FB22
:103CA0000546042D00D102250DB12846AFE7A16BD2
:103CB000206800F0F9FA05460DB12846A7E7E06B49
:103CC0000078C12801D00220A1E7B7F5187F04D2FF
:103CD000F0192022E16B00F046F807F120000746BA
:103CE0004045D9D3B7F5187F0AD8304600F050FECA
:103CF0008146B01CFFF759FF814501D0022086E7BD
:103D0000002084E74FF4A060FCF75CFF00F04CF863
:103D1000FDF77CFEFDF7C0FD00B108E0FDF708FDF2
:103D200000B104E0FDF784FD00B100E000BFFDF745
:103D3000A1FD00F02EF8FDF75DFEFDF7DBFD00BFF5
:103D4000FEE7F0B503461D460C46002000BF15F8FF
:103D5000017B14F801CBA7EB0C00561E321E01D0DC
:103D60000028F4D0F0BD30B503460C463AB100BF90
:103D700014F8015B03F8015B551E2A1EF8D130BD13
:103D800010B5034600BF03F8011B541E221EFAD1D2
:103D900010BD4FF0E020006920F003004FF0E0215B
:103DA000086100207047000030B5174800684FF4E4
:103DB0007A72B0FBF2F1481EB0F1807F01D301208E
:103DC0001BE0481E4FF0E022506150170F220028E0
:103DD00007DA13071D0E0D4B00F00F04241F1D55AD
:103DE00003E013071C0E0A4B1C5400BF00204FF0C9
:103DF000E022906107201061002010B14FF0FF30E9
:103E000030BD0020FCE700000000002018ED00E0BD
:103E100000E400E010B5012204A10548FEF702FE0F
:103E200008B9012010BD0020FCE7000053443A000F
:103E30003C0000202DE9F74F8CB000210D98016067
:103E40000C98FFF7EFFD0A900A98002803DA0B2080
:103E50000FB0BDE8F08FFE490A9851F820400CB928
:103E60000C20F5E70D9804600E9800F0FE000E900F
:103E7000207878B16078FEF78DFD83460BF0010065
:103E800040B90E9820B10BF0040008B10A20DFE71A
:103E90000020DDE7002020700A9860706078FEF74F
:103EA0002BFD83460BF0010008B10320D0E70E98EC
:103EB00020B10BF0040008B10A20C9E70021204618
:103EC000FFF7C9FB0746042F01D10120C0E7022FED
:103ED00001D30D20BCE7A56B012F76D14FF00B0964
:103EE00001E009F10109B9F1400F05D204F13C00EC
:103EF00010F809000028F4D0B9F1400F01D20D20CC
:103F0000A6E704F1A400FFF750FEB0F5807F01D0D2
:103F10000D209DE794F8A81001208840B0F5007F9F
:103F200001D00D2094E704F18400FFF70DFE034655
:103F30000846591940F10000CDE90410DDE90410EC
:103F4000091E70F1010001D30D2081E704F19000FA
:103F5000FFF7EEFD206294F8AA00A070A078012877
:103F600001D00D2074E794F8A910012088406081E9
:103F7000608908B90D206BE704F19800FFF7D8FDC0
:103F80000646B4498E4201D90D2061E7B01CE061BC
:103F9000656204F19400FFF7CBFD2844206304F12F
:103FA0008C00FFF7C5FD2844A0624FF0000C60892B
:103FB00000FB06F1226B53184CEB0C01DDE90420E9
:103FC000D21A884102D20D2042E76CE004F19C0035
:103FD000FFF7AEFDE06200208146039000BFB9F11B
:103FE000000F16D161890398814201D80D202FE777
:103FF0002046E16AFDF7C0FD03990844014601909F
:10400000204600F051F908B1012021E70398401C37
:10401000039004F13C0010F80900812800D104E06D
:1040200009F12000C0F30809D9E700BF04F13C0101
:10403000494401F11400FFF77BFD8046B8F1020FFF
:1040400002D3E069404501D80D2001E76289A8F15B
:104050000200216B02FB0010606300BFA06A00EB4E
:10406000D811204600F020F908B10120F0E608F050
:104070007F0104F13C0202EB8100FFF759FD029041
:104080000298401C00B907E008F10100804602993F
:104090008842E3D00D20DBE600BF4FF0FF30A06187
:1040A00060610427F0E004F14700FFF77EFDB0F502
:1040B000007F01D00D20CBE604F15200FFF775FD23
:1040C0008246BAF1000F04D104F16000FFF730FD21
:1040D0008246C4F820A04C20005DA070A078012882
:1040E00004D0A078022801D00D20B1E6A0780AFB08
:1040F00000FA4920005D6081608918B16089411E25
:10410000084008B10D20A3E604F14D00FFF74DFD76
:104110002081207A00F00F0008B10D2098E604F10C
:104120004F00FFF742FD0990099820B904F15C00A7
:10413000FFF7FEFC099004F14A00FFF736FD0690F8
:10414000069808B90D2083E606985044218900EBB3
:1041500011100890DDE90801814201D20D2077E6B7
:10416000DDE90810401A6189B0FBF1F60EB90D20A7
:104170006EE600273848864200D803274FF6F570D0
:10418000864200D8022740F6F570864200D8012703
:104190000FB90D205CE6B01CE0616562069828440A
:1041A000A062089828442063032F13D104F166000D
:1041B000FFF7FBFC08B10D204AE6208908B10D206D
:1041C00046E604F16800FFF7B3FCE062E0698000B6
:1041D000079014E0208908B90D2039E6A06A504400
:1041E000E062022F02D1E069400007E0207F00F08A
:1041F0000100E16901EB410100EB51000790216AE8
:10420000079800F2FF10B1EB502F01D20D201FE6EE
:104210004FF0FF30A061606180202071032F33D107
:1042200004F16C00FFF7C1FC01282DD1691C204668
:1042300000F03AF840BB0020207104F23A20FFF76A
:10424000B4FC4AF6552188421ED104F13C0005E039
:104250002C000020FDFFFF7FF5FFFF0FFFF768FC3C
:104260000E49884210D104F50870FFF761FC0C4933
:10427000884209D104F50970FFF75AFCA06104F5E2
:104280000A70FFF755FC6061277006480088401CE3
:1042900080B204490880E0800020D9E55252614193
:1042A000727241613400002070B504460D4600264C
:1042B000A06BA84210D0204600F0C0FA06465EB9B6
:1042C000607801232A4604F13C01FEF73DFB10B162
:1042D0004FF0FF350126A563304670BD2DE9F0474C
:1042E00080460C4604F11A00FFF75FFC10B1002075
:1042F000BDE8F087207820F04000401E00EB8001F0
:1043000001EBC0054FF00109002619E01549895D50
:104310000819FFF74AFC0746B9F1000F09D0FF2D35
:1043200001D90020E4E7B94628466D1C28F8107032
:1043300005E04FF6FF70874201D00020D8E7761CD9
:104340000D2EE3D3207800F0400048B1B9F1000F02
:1043500006D0FF2D01D90020CAE7002028F815005B
:104360000120C5E7844A00082DE9F04704460D46C0
:1043700016464FF00209022D77D3E069A84274D99E
:104380002078012806D002284BD0032861D00428C9
:104390000DD15FE02F4607EB5707A06A00EB5721CE
:1043A0002046FFF781FF8146B9F1000F00D079E088
:1043B00038467F1CC0F3080104F13C0001EB000803
:1043C00005F0010028B1F1B298F8000061F31F1068
:1043D00000E0304688F800000120E070A06A00EBA1
:1043E00057212046FFF760FF8146B9F1000F00D04A
:1043F00058E0C7F3080104F13C0001EB000805F0A8
:10440000010010B1C6F3071006E098F8000000F0B4
:10441000F000C6F30321084388F800000120E07093
:1044200040E0A06A00EB15212046FFF73DFF8146E2
:10443000B9F1000F00D035E0B1B240F2FF1202EA4C
:10444000450304F13C02981800F061F90120E07086
:1044500028E000BFA06A00EBD5112046FFF724FF3B
:104460008146B9F1000F01D01CE01CE0207804283F
:104470000BD040F2FF1101EA850204F13C01501813
:10448000FFF756FB66F31B00064640F2FF1101EAF8
:10449000850204F13C015018314600F0FEF801207D
:1044A000E07000BF00BF4846BDE8F0872DE9F04747
:1044B00007460C461546984684F80D800F20E0729A
:1044C00000202073002104F11A0000F020F9681E7A
:1044D00000EB800101EBC00900200646824600BFC8
:1044E0004FF6FF70864204D0484609F1010937F8BB
:1044F00010600D4911F80A100819314600F007F94B
:104500000EB94FF6FF760AF1010082460D28E7D377
:104510004FF6FF70864202D037F8190008B945F00F
:1045200040052570BDE8F087844A00082DE9F05F5A
:1045300006460F4690464FF000093568BA46BB461E
:10454000022F02D3E869B84202D80220BDE8F09FEA
:10455000B8F1000F11D02878042802D1F079022890
:104560000BD04FF0FF3241462846FFF7FDFE814653
:10457000B9F1000F01D04846E8E700BF39463046A0
:10458000FFF788F9044604B93EE0012C01D102206E
:10459000DCE7601C08B90120D8E7287804280AD095
:1045A000002239462846FFF7DFFE8146B9F1000FA9
:1045B00001D04846CAE7D5E90610801E814206D2DE
:1045C000A869401CA861287940F0010028710BF10E
:1045D0000100A04201D1A34612E0287804280DD1A1
:1045E000ABEB0A00421C002351462846FDF726FA91
:1045F0008146B9F1000F01D04846A7E7A346A2467D
:104600002746E869B842B9D800BF2878042830D1D5
:10461000B8F1000F02D10020F0712AE0F079D8B98A
:10462000B76811E039463046FFF734F90446022CEA
:1046300001D202208AE7601C08B9012086E7781CB5
:10464000844200D002E07F1C4745EBD100BF4745C4
:104650000FD10220F0710CE0F079032809D1B06885
:10466000404506D8B169B0680844404501D30220EE
:10467000F07100206AE770B506460C461546A9B2EF
:1046800004F11A0000F043F83078032804D1290C13
:1046900004F1140000F03BF870BD00F8011B090A9A
:1046A00000F8011B090A00F8011B090A00F8011BA8
:1046B000704730B500F8012B110A41EA03621B0A6A
:1046C00000F8012B110A41EA03621B0A00F8012BD2
:1046D000110A41EA03621B0A00F8012B110A41EAA0
:1046E00003621B0A00F8012B110A41EA03621B0A4C
:1046F00000F8012B110A41EA03621B0A00F8012BA2
:10470000110A41EA03621B0A00F8012B30BD00F8D0
:10471000011B091200F8011B70472DE9F041044606
:1047200020680569284600F033F980464146A81CF8
:10473000FFF7EDFF6878471C2046E16CFEF787F82D
:10474000064618E0A16B2068FFF7AEFD064606B1ED
:1047500013E020222946E06BFFF705FB01202168CA
:10476000C870781E071E00D107E0203500212046C2
:10477000FDF736FE0646002EE4D000BF0EB1012E36
:1047800002D13046BDE8F0810220FBE730B501469A
:1047900000200B2200BF431003EBC01411F8015B93
:1047A0006319D8B2531E1A1EF5D130BD70B5044638
:1047B000204600F043F80546002D38D12078032824
:1047C0002ED1207901282BD14202002104F13C0096
:1047D000FFF7D6FA4AF6552104F23A20FFF797FF81
:1047E000144904F13C00FFF758FF134904F5087021
:1047F000FFF753FF04F50970A169FFF74EFF04F5B9
:104800000A706169FFF749FF606A401CA063607825
:10481000012304F13C01A26BFEF7C6F800202071D1
:10482000607800221146FEF789F800B1012528467C
:1048300070BD0000525261417272416170B5044610
:104840000025E078E8B16078012304F13C01A26B17
:10485000FEF7AAF8A0B90020E070A16AA06B401A88
:10486000216A88420DD2A07802280AD1236AA16B5E
:10487000CA186078012304F13C01FEF795F800E0C6
:104880000125284670BD000070B50446226812F864
:10489000011B01F08000002847D001F0E000C02893
:1048A00003D101F01F01012312E001F0F000E02824
:1048B00003D101F00F0102230AE001F0F800F02813
:1048C00003D101F00701032302E04FF0FF3070BD78
:1048D00000BF12F8015B05F0C000802802D04FF045
:1048E000FF30F4E7284661F39F100146581E031E6F
:1048F000EFD1802908D3B1F5584F02D3B1F5604FFD
:1049000002D3B1F5881F02D34FF0FF30DFE7B1F5D6
:10491000803F0AD3A1F58030054E06EA8010054E8F
:104920003043C1F3090640EA060122600846CEE79B
:104930000000FF0300DC00D810B5012204A1002014
:10494000FEF770F808B9012010BD0020FCE7000058
:1049500053443A0070B504460D4609268CB12068D0
:1049600078B12068007860B1A0882168C988884241
:1049700007D121684878FEF70DF800F0010000B972
:1049800000260EB9206800E000202860304670BD87
:1049900030B502465478641C630100242046214649
:1049A00010E0022901D1491C0BE000F0010414B110
:1049B0004FF4004400E0002404EB6004555C2C44F8
:1049C000A0B2491C9942ECD330BD70B50646002414
:1049D0001BE02846FEF758FD85B204F0010010B137
:1049E0004FF4004000E0002000EB6400E9B208440E
:1049F00084B204F0010010B14FF4004000E0002048
:104A000000EB640000EB252084B236F8021B0D1E7B
:104A1000DFD1204670BD4FF04070E1EE100A7047C4
:104A2000000002400004024000080240000C024066
:104A3000001002400014024000180240001C024016
:104A4000002002400030014000380040003C00409F
:104A50000110000002400000028000002000002041
:104A60000800400000401000800000802000050D7C
:104A700008060E10070F200505060000C04E0008AE
:104A8000C44E000801030507090E10121416181C65
:104A90001E809A45418E418F804545454949498E42
:104AA0008F9092924F994F555559999A9B9C9D9EE4
:104AB0009F41494F55A5A5A6A7A8A9AAABACADAEE5
:104AC000AFB0B1B2B3B4B5B6B7B8B9BABBBCBDBE7E
:104AD000BFC0C1C2C3C4C5C6C7C8C9CACBCCCDCE6E
:104AE000CFD0D1D2D3D4D5D6D7D8D9DADBDCDDDE5E
:104AF000DFE0E1E2E3E4E5E6E7E8E9EAEBECEDEE4E
:104B0000EFF0F1F2F3F4F5F6F7F8F9FAFBFCFDFE3D
:104B1000FF00C700FC00E900E200E400E000E5005F
:104B2000E700EA00EB00E800EF00EE00EC00C40054
:104B3000C500C900E600C600F400F600F200FB0064
:104B4000F900FF00D600DC00A200A300A500A7200A
:104B50009201E100ED00F300FA00F100D100AA009B
:104B6000BA00BF001023AC00BD00BC00A100AB0028
:104B7000BB009125922593250225242561256225D8
:104B8000562555256325512557255D255C255B2533
:104B90001025142534252C251C2500253C255E25B3
:104BA0005F255A25542569256625602550256C25E5
:104BB00067256825642565255925582552255325DF
:104BC0006B256A2518250C25882584258C2590259C
:104BD0008025B103DF009303C003A303C303B50023
:104BE000C403A6039803A903B4031E22C603B50396
:104BF00029226122B1006522642220232123F700AB
:104C00004822B0001922B7001A227F20B200A02546
:104C1000A00061001A03E0001703F8000703FF007B
:104C20000100780100013001320106013901100153
:104C30004A012E017901060180014D0043028101E4
:104C40008201820184018401860187018701890133
:104C50008A018B018B018D018E018F0190019101E1
:104C6000910193019401F601960197019801980131
:104C70003D029B019C019D0120029F01A001A0011A
:104C8000A201A201A401A401A601A701A701A901F3
:104C9000AA01AB01AC01AC01AE01AF01AF01B101A2
:104CA000B201B301B301B501B501B701B801B80153
:104CB000BA01BB01BC01BC01BE01F701C001C101C9
:104CC000C201C301C401C501C401C701C801C701B4
:104CD000CA01CB01CA01CD011001DD0101008E0125
:104CE000DE011201F3010300F101F401F401F80106
:104CF0002801220212013A020900652C3B023B0204
:104D00003D02662C3F0240024102410246020A0176
:104D10005302400081018601550289018A0158022F
:104D20008F015A0290015C025D025E025F029301F4
:104D300061026202940164026502660267029701E1
:104D400096016A02622C6C026D026E029C01700276
:104D500071029D01730274029F017602770278024C
:104D600079027A027B027C02642C7E027F02A60119
:104D700081028202A9018402850286028702AE01B5
:104D80004402B101B20145028D028E028F029002EF
:104D90009102B7017B030300FD03FE03FF03AC0395
:104DA00004008603880389038A03B1031103C20345
:104DB0000200A303A303C4030803CC0303008C0372
:104DC0008E038F03D8031801F2030A00F903F303DB
:104DD000F403F503F603F703F703F903FA03FA0301
:104DE0003004200350041007600422018A043601B5
:104DF000C1040E01CF040100C004D00444016105C8
:104E0000260400007D1D0100632C001E9601A01EDB
:104E10005A01001F0806101F0606201F0806301F33
:104E20000806401F0606511F0700591F521F5B1F2F
:104E3000541F5D1F561F5F1F601F0806701F0E0066
:104E4000BA1FBB1FC81FC91FCA1FCB1FDA1FDB1F1A
:104E5000F81FF91FEA1FEB1FFA1FFB1F801F080630
:104E6000901F0806A01F0806B01F0400B81FB91F36
:104E7000B21FBC1FCC1F0100C31FD01F0206E01FC2
:104E80000206E51F0100EC1FF31F0100FC1F4E216D
:104E90000100322170211002842101008321D024DD
:104EA0001A05302C2F04602C0201672C0601752C8A
:104EB0000201802C6401002D260841FF1A03000026
:104EC0005344000055000000E84E00080000002098
:104ED0003C00000000020008244F00083C000020B5
:104EE0002C2B00001C0200080095BA0A00000000EC
:104EF000000000000102030406070809000000008A
:104F000000000240000402400004024000000000D3
:104F1000010100000000000000000000000000008F
:044F20000080000805
:04000005080001C529
:00000001FF
